{
  "transactions": [
    {
      "hash": "0x7c9c6c848624f55c8ebf4a5f41e3964807cb62368e61d80fdb9bc17e6267c58e",
      "transactionType": "CALL",
      "contractName": null,
      "contractAddress": "0x8fa71914948544c60e3379064567dcf0e6564d27",
      "function": "settle((uint256,address),(uint8,bool,address,uint256,address,uint256,address,uint64,uint64,uint256),(uint8,bytes32,bytes32))",
      "arguments": [
        "(0, 0x2c2dbA75492E0C4A1D10B41303167aEC59586C9c)",
        "(0, false, 0xA5f104F8f78d5ba9AEC4a383c0927337Fd4E997B, 14, 0xC02aaA39b223FE8D0A0e5C4F27eAD9083C756Cc2, 22000000000000000, 0x646dC5Fc4009C4C84a424B6aE0f494b374bAE1Ce, 1773623185, 1778551101, 3)",
        "(27, 0xb54fc1febc6815dbfde48dac3582b97c36548311c005e11c512b252eaf4ee21c, 0x2cd4d3b013e11338789830dd407e08df2f2e4f353fa3274d97601fe01de5f318)"
      ],
      "transaction": {
        "from": "0x2c2dba75492e0c4a1d10b41303167aec59586c9c",
        "to": "0x8fa71914948544c60e3379064567dcf0e6564d27",
        "gas": "0x2ee5b",
        "value": "0x0",
        "input": "0x3bae3e7900000000000000000000000000000000000000000000000000000000000000000000000000000000000000002c2dba75492e0c4a1d10b41303167aec59586c9c00000000000000000000000000000000000000000000000000000000000000000000000000000000000000000000000000000000000000000000000000000000000000000000000000000000a5f104f8f78d5ba9aec4a383c0927337fd4e997b000000000000000000000000000000000000000000000000000000000000000e000000000000000000000000c02aaa39b223fe8d0a0e5c4f27ead9083c756cc2000000000000000000000000000000000000000000000000004e28e2290f0000000000000000000000000000646dc5fc4009c4c84a424b6ae0f494b374bae1ce0000000000000000000000000000000000000000000000000000000069b75791000000000000000000000000000000000000000000000000000000006a02893d0000000000000000000000000000000000000000000000000000000000000003000000000000000000000000000000000000000000000000000000000000001bb54fc1febc6815dbfde48dac3582b97c36548311c005e11c512b252eaf4ee21c2cd4d3b013e11338789830dd407e08df2f2e4f353fa3274d97601fe01de5f318",
        "nonce": "0x31",
        "chainId": "0x7a69"
      },
      "additionalContracts": [],
      "isFixedGasLimit": false
    }
  ],
  "receipts": [
    {
      "status": "0x1",
      "cumulativeGasUsed": "0x20111",
      "logs": [
        {
          "address": "0xc02aaa39b223fe8d0a0e5c4f27ead9083c756cc2",
          "topics": [
            "0xddf252ad1be2c89b69c2b068fc378daa952ba7f163c4a11628f55a4df523b3ef",
            "0x0000000000000000000000002c2dba75492e0c4a1d10b41303167aec59586c9c",
            "0x0000000000000000000000001804c8ab1f12e6bbf3894d4083f33e07309d1f38"
          ],
          "data": "0x0000000000000000000000000000000000000000000000000000c816bdd9c000",
          "blockHash": "0x7b8122daf53456db88858b0649c846df51e6685b9f0d1b68d0a9e548dbab98d0",
          "blockNumber": "0x17b8336",
          "blockTimestamp": "0x69e6fbaa",
          "transactionHash": "0x7c9c6c848624f55c8ebf4a5f41e3964807cb62368e61d80fdb9bc17e6267c58e",
          "transactionIndex": "0x0",
          "logIndex": "0x0",
          "removed": false
        },
        {
          "address": "0xc02aaa39b223fe8d0a0e5c4f27ead9083c756cc2",
          "topics": [
            "0xddf252ad1be2c89b69c2b068fc378daa952ba7f163c4a11628f55a4df523b3ef",
            "0x0000000000000000000000002c2dba75492e0c4a1d10b41303167aec59586c9c",
            "0x000000000000000000000000646dc5fc4009c4c84a424b6ae0f494b374bae1ce"
          ],
          "data": "0x000000000000000000000000000000000000000000000000004d60cb6b354000",
          "blockHash": "0x7b8122daf53456db88858b0649c846df51e6685b9f0d1b68d0a9e548dbab98d0",
          "blockNumber": "0x17b8336",
          "blockTimestamp": "0x69e6fbaa",
          "transactionHash": "0x7c9c6c848624f55c8ebf4a5f41e3964807cb62368e61d80fdb9bc17e6267c58e",
          "transactionIndex": "0x0",
          "logIndex": "0x1",
          "removed": false
        },
        {
          "address": "0xa5f104f8f78d5ba9aec4a383c0927337fd4e997b",
          "topics": [
            "0xddf252ad1be2c89b69c2b068fc378daa952ba7f163c4a11628f55a4df523b3ef",
            "0x000000000000000000000000646dc5fc4009c4c84a424b6ae0f494b374bae1ce",
            "0x0000000000000000000000002c2dba75492e0c4a1d10b41303167aec59586c9c",
            "0x000000000000000000000000000000000000000000000000000000000000000e"
          ],
          "data": "0x",
          "blockHash": "0x7b8122daf53456db88858b0649c846df51e6685b9f0d1b68d0a9e548dbab98d0",
          "blockNumber": "0x17b8336",
          "blockTimestamp": "0x69e6fbaa",
          "transactionHash": "0x7c9c6c848624f55c8ebf4a5f41e3964807cb62368e61d80fdb9bc17e6267c58e",
          "transactionIndex": "0x0",
          "logIndex": "0x2",
          "removed": false
        },
        {
          "address": "0x8fa71914948544c60e3379064567dcf0e6564d27",
          "topics": [
            "0xc0ac3eb1e8caef05b202043f34de8e3173fab712167584f7a2a9f4c302bd0e9c",
            "0x07965402f65f8ae38f6630dccd6ab018559aefa460580c07276e72992cc7bb48",
            "0x000000000000000000000000a5f104f8f78d5ba9aec4a383c0927337fd4e997b",
            "0x000000000000000000000000000000000000000000000000000000000000000e"
          ],
          "data": "0x000000000000000000000000646dc5fc4009c4c84a424b6ae0f494b374bae1ce0000000000000000000000002c2dba75492e0c4a1d10b41303167aec59586c9c000000000000000000000000c02aaa39b223fe8d0a0e5c4f27ead9083c756cc2000000000000000000000000000000000000000000000000004e28e2290f0000",
          "blockHash": "0x7b8122daf53456db88858b0649c846df51e6685b9f0d1b68d0a9e548dbab98d0",
          "blockNumber": "0x17b8336",
          "blockTimestamp": "0x69e6fbaa",
          "transactionHash": "0x7c9c6c848624f55c8ebf4a5f41e3964807cb62368e61d80fdb9bc17e6267c58e",
          "transactionIndex": "0x0",
          "logIndex": "0x3",
          "removed": false
        }
      ],
      "logsBloom": "0x000000000000000000000100000000000000000000020000000000000000000000000000000000000000000000000000020000000900000000000008001000000002000000000008000100080000000000000000200000000800000000000000000000000000140000050000000000000000000000000000000000102000000008000000000400000000040000000000080000000000000000000000000000000000002000000004000000000000000000000000000000a0000000000000000000000002000004000000000000000000000000000000000080000000000000000100200200000000000000000000000000000000000000000000000000000000",
      "type": "0x2",
      "transactionHash": "0x7c9c6c848624f55c8ebf4a5f41e3964807cb62368e61d80fdb9bc17e6267c58e",
      "transactionIndex": "0x0",
      "blockHash": "0x7b8122daf53456db88858b0649c846df51e6685b9f0d1b68d0a9e548dbab98d0",
      "blockNumber": "0x17b8336",
      "gasUsed": "0x20111",
      "effectiveGasPrice": "0x1ba81c",
      "blobGasPrice": "0x1",
      "from": "0x2c2dba75492e0c4a1d10b41303167aec59586c9c",
      "to": "0x8fa71914948544c60e3379064567dcf0e6564d27",
      "contractAddress": null
    }
  ],
  "libraries": [],
  "pending": [],
  "returns": {},
  "timestamp": 1778506434107,
  "chain": 31337,
  "commit": "59e30a9"
}