{
  "transactions": [
    {
      "hash": "0xff823fb7dfc87c829455269637f1da3761cf7ff8dcb14b359b69789f2cdbe67f",
      "transactionType": "CALL",
      "contractName": null,
      "contractAddress": "0x8fa71914948544c60e3379064567dcf0e6564d27",
      "function": "settle((uint256,address),(uint8,bool,address,uint256,address,uint256,address,uint64,uint64,uint256),(uint8,bytes32,bytes32))",
      "arguments": [
        "(0, 0xa382b0E75C192D9CDF5c084E58b750Cea7761Bd0)",
        "(0, false, 0xA5f104F8f78d5ba9AEC4a383c0927337Fd4E997B, 328, 0xC02aaA39b223FE8D0A0e5C4F27eAD9083C756Cc2, 37000000000000000, 0xc5aDfC119364CFE2297e4414dB04834d8702475B, 1772952730, 1779221556, 7)",
        "(28, 0xb9a9adc87765c6e25f59a88eedbe1f0f693be86628af567d2a6781fd98fb9dcc, 0x376eed7e28b94bed67fc20efc6c6af30893717d3166df35d98173b9c79779db4)"
      ],
      "transaction": {
        "from": "0xa382b0e75c192d9cdf5c084e58b750cea7761bd0",
        "to": "0x8fa71914948544c60e3379064567dcf0e6564d27",
        "gas": "0x2c4e8",
        "value": "0x0",
        "input": "0x3bae3e790000000000000000000000000000000000000000000000000000000000000000000000000000000000000000a382b0e75c192d9cdf5c084e58b750cea7761bd000000000000000000000000000000000000000000000000000000000000000000000000000000000000000000000000000000000000000000000000000000000000000000000000000000000a5f104f8f78d5ba9aec4a383c0927337fd4e997b0000000000000000000000000000000000000000000000000000000000000148000000000000000000000000c02aaa39b223fe8d0a0e5c4f27ead9083c756cc20000000000000000000000000000000000000000000000000083734dd0b08000000000000000000000000000c5adfc119364cfe2297e4414db04834d8702475b0000000000000000000000000000000000000000000000000000000069ad1c9a000000000000000000000000000000000000000000000000000000006a0cc4340000000000000000000000000000000000000000000000000000000000000007000000000000000000000000000000000000000000000000000000000000001cb9a9adc87765c6e25f59a88eedbe1f0f693be86628af567d2a6781fd98fb9dcc376eed7e28b94bed67fc20efc6c6af30893717d3166df35d98173b9c79779db4",
        "nonce": "0x2d",
        "chainId": "0x7a69"
      },
      "additionalContracts": [],
      "isFixedGasLimit": false
    }
  ],
  "receipts": [
    {
      "status": "0x1",
      "cumulativeGasUsed": "0x2013d",
      "logs": [
        {
          "address": "0xc02aaa39b223fe8d0a0e5c4f27ead9083c756cc2",
          "topics": [
            "0xddf252ad1be2c89b69c2b068fc378daa952ba7f163c4a11628f55a4df523b3ef",
            "0x000000000000000000000000a382b0e75c192d9cdf5c084e58b750cea7761bd0",
            "0x0000000000000000000000001804c8ab1f12e6bbf3894d4083f33e07309d1f38"
          ],
          "data": "0x0000000000000000000000000000000000000000000000000001508356912000",
          "blockHash": "0xe47d172223c5874fe22e76f0cb117cf73afaef0fcdb5b1f8f90c1b8c0caed605",
          "blockNumber": "0x17b838f",
          "blockTimestamp": "0x69fc06d5",
          "transactionHash": "0xff823fb7dfc87c829455269637f1da3761cf7ff8dcb14b359b69789f2cdbe67f",
          "transactionIndex": "0x0",
          "logIndex": "0x0",
          "removed": false
        },
        {
          "address": "0xc02aaa39b223fe8d0a0e5c4f27ead9083c756cc2",
          "topics": [
            "0xddf252ad1be2c89b69c2b068fc378daa952ba7f163c4a11628f55a4df523b3ef",
            "0x000000000000000000000000a382b0e75c192d9cdf5c084e58b750cea7761bd0",
            "0x000000000000000000000000c5adfc119364cfe2297e4414db04834d8702475b"
          ],
          "data": "0x000000000000000000000000000000000000000000000000008222ca7a1f6000",
          "blockHash": "0xe47d172223c5874fe22e76f0cb117cf73afaef0fcdb5b1f8f90c1b8c0caed605",
          "blockNumber": "0x17b838f",
          "blockTimestamp": "0x69fc06d5",
          "transactionHash": "0xff823fb7dfc87c829455269637f1da3761cf7ff8dcb14b359b69789f2cdbe67f",
          "transactionIndex": "0x0",
          "logIndex": "0x1",
          "removed": false
        },
        {
          "address": "0xa5f104f8f78d5ba9aec4a383c0927337fd4e997b",
          "topics": [
            "0xddf252ad1be2c89b69c2b068fc378daa952ba7f163c4a11628f55a4df523b3ef",
            "0x000000000000000000000000c5adfc119364cfe2297e4414db04834d8702475b",
            "0x000000000000000000000000a382b0e75c192d9cdf5c084e58b750cea7761bd0",
            "0x0000000000000000000000000000000000000000000000000000000000000148"
          ],
          "data": "0x",
          "blockHash": "0xe47d172223c5874fe22e76f0cb117cf73afaef0fcdb5b1f8f90c1b8c0caed605",
          "blockNumber": "0x17b838f",
          "blockTimestamp": "0x69fc06d5",
          "transactionHash": "0xff823fb7dfc87c829455269637f1da3761cf7ff8dcb14b359b69789f2cdbe67f",
          "transactionIndex": "0x0",
          "logIndex": "0x2",
          "removed": false
        },
        {
          "address": "0x8fa71914948544c60e3379064567dcf0e6564d27",
          "topics": [
            "0xc0ac3eb1e8caef05b202043f34de8e3173fab712167584f7a2a9f4c302bd0e9c",
            "0x905eacf71a0078513eafd992a123b8ec1e791cc2eddf1204e3d15132b9434cd8",
            "0x000000000000000000000000a5f104f8f78d5ba9aec4a383c0927337fd4e997b",
            "0x0000000000000000000000000000000000000000000000000000000000000148"
          ],
          "data": "0x000000000000000000000000c5adfc119364cfe2297e4414db04834d8702475b000000000000000000000000a382b0e75c192d9cdf5c084e58b750cea7761bd0000000000000000000000000c02aaa39b223fe8d0a0e5c4f27ead9083c756cc20000000000000000000000000000000000000000000000000083734dd0b08000",
          "blockHash": "0xe47d172223c5874fe22e76f0cb117cf73afaef0fcdb5b1f8f90c1b8c0caed605",
          "blockNumber": "0x17b838f",
          "blockTimestamp": "0x69fc06d5",
          "transactionHash": "0xff823fb7dfc87c829455269637f1da3761cf7ff8dcb14b359b69789f2cdbe67f",
          "transactionIndex": "0x0",
          "logIndex": "0x3",
          "removed": false
        }
      ],
      "logsBloom": "0x00000000000000000000010000000000000000000000000000000000000000000000000000000000000000000000000002000000080000000000000000100000000000000000000000010008000000000000000000000000080000000000000200000000000000000001000000000000000000000000040000000010200000000800020001040000000004000000000000100000000000000000000000000000000000200000000400000000000021000000000000110080000000000000000000000002000004000000000000000000000000000000000080000000000000000140200000000000000000000000000000000000100000002000000000000000",
      "type": "0x2",
      "transactionHash": "0xff823fb7dfc87c829455269637f1da3761cf7ff8dcb14b359b69789f2cdbe67f",
      "transactionIndex": "0x0",
      "blockHash": "0xe47d172223c5874fe22e76f0cb117cf73afaef0fcdb5b1f8f90c1b8c0caed605",
      "blockNumber": "0x17b838f",
      "gasUsed": "0x2013d",
      "effectiveGasPrice": "0x1ba81c",
      "blobGasPrice": "0x1",
      "from": "0xa382b0e75c192d9cdf5c084e58b750cea7761bd0",
      "to": "0x8fa71914948544c60e3379064567dcf0e6564d27",
      "contractAddress": null
    }
  ],
  "libraries": [],
  "pending": [],
  "returns": {},
  "timestamp": 1778506534755,
  "chain": 31337,
  "commit": "59e30a9"
}