{
  "transactions": [
    {
      "hash": "0x1ad8fef1ae01b3aea033f6e79878b7807a4f9cfd7d87ffad23056b136aa4e95f",
      "transactionType": "CALL",
      "contractName": null,
      "contractAddress": "0x8fa71914948544c60e3379064567dcf0e6564d27",
      "function": "settle((uint256,address),(uint8,bool,address,uint256,address,uint256,address,uint64,uint64,uint256),(uint8,bytes32,bytes32))",
      "arguments": [
        "(0, 0x4b75AeC40561C03e03d4D1C421dF194a3031A134)",
        "(0, false, 0xA5f104F8f78d5ba9AEC4a383c0927337Fd4E997B, 44, 0xC02aaA39b223FE8D0A0e5C4F27eAD9083C756Cc2, 76000000000000000, 0xE233420d38D286C2F2Cf8dEe6564F132FBDB09DB, 1772821413, 1779352873, 16)",
        "(28, 0x13605c40b2ea8632d0e003eb46e6eea09f3e3afdbbcb13a1e944331c1f8bba91, 0x14957bffea1c9ba15fe5ec1425c0bbea0c6ee4a492323aa3c1a178d72ae36fde)"
      ],
      "transaction": {
        "from": "0x4b75aec40561c03e03d4d1c421df194a3031a134",
        "to": "0x8fa71914948544c60e3379064567dcf0e6564d27",
        "gas": "0x2ee8a",
        "value": "0x0",
        "input": "0x3bae3e7900000000000000000000000000000000000000000000000000000000000000000000000000000000000000004b75aec40561c03e03d4d1c421df194a3031a13400000000000000000000000000000000000000000000000000000000000000000000000000000000000000000000000000000000000000000000000000000000000000000000000000000000a5f104f8f78d5ba9aec4a383c0927337fd4e997b000000000000000000000000000000000000000000000000000000000000002c000000000000000000000000c02aaa39b223fe8d0a0e5c4f27ead9083c756cc2000000000000000000000000000000000000000000000000010e0198eaee0000000000000000000000000000e233420d38d286c2f2cf8dee6564f132fbdb09db0000000000000000000000000000000000000000000000000000000069ab1ba5000000000000000000000000000000000000000000000000000000006a0ec5290000000000000000000000000000000000000000000000000000000000000010000000000000000000000000000000000000000000000000000000000000001c13605c40b2ea8632d0e003eb46e6eea09f3e3afdbbcb13a1e944331c1f8bba9114957bffea1c9ba15fe5ec1425c0bbea0c6ee4a492323aa3c1a178d72ae36fde",
        "nonce": "0x2c",
        "chainId": "0x7a69"
      },
      "additionalContracts": [],
      "isFixedGasLimit": false
    }
  ],
  "receipts": [
    {
      "status": "0x1",
      "cumulativeGasUsed": "0x20131",
      "logs": [
        {
          "address": "0xc02aaa39b223fe8d0a0e5c4f27ead9083c756cc2",
          "topics": [
            "0xddf252ad1be2c89b69c2b068fc378daa952ba7f163c4a11628f55a4df523b3ef",
            "0x0000000000000000000000004b75aec40561c03e03d4d1c421df194a3031a134",
            "0x0000000000000000000000001804c8ab1f12e6bbf3894d4083f33e07309d1f38"
          ],
          "data": "0x0000000000000000000000000000000000000000000000000002b3374a078000",
          "blockHash": "0xa97f72f5cd8e8d54be994fdc3d0f572cbcd17f7ee80c64b2855c21fbba9d9e07",
          "blockNumber": "0x17b8394",
          "blockTimestamp": "0x69fd3db0",
          "transactionHash": "0x1ad8fef1ae01b3aea033f6e79878b7807a4f9cfd7d87ffad23056b136aa4e95f",
          "transactionIndex": "0x0",
          "logIndex": "0x0",
          "removed": false
        },
        {
          "address": "0xc02aaa39b223fe8d0a0e5c4f27ead9083c756cc2",
          "topics": [
            "0xddf252ad1be2c89b69c2b068fc378daa952ba7f163c4a11628f55a4df523b3ef",
            "0x0000000000000000000000004b75aec40561c03e03d4d1c421df194a3031a134",
            "0x000000000000000000000000e233420d38d286c2f2cf8dee6564f132fbdb09db"
          ],
          "data": "0x000000000000000000000000000000000000000000000000010b4e61a0e68000",
          "blockHash": "0xa97f72f5cd8e8d54be994fdc3d0f572cbcd17f7ee80c64b2855c21fbba9d9e07",
          "blockNumber": "0x17b8394",
          "blockTimestamp": "0x69fd3db0",
          "transactionHash": "0x1ad8fef1ae01b3aea033f6e79878b7807a4f9cfd7d87ffad23056b136aa4e95f",
          "transactionIndex": "0x0",
          "logIndex": "0x1",
          "removed": false
        },
        {
          "address": "0xa5f104f8f78d5ba9aec4a383c0927337fd4e997b",
          "topics": [
            "0xddf252ad1be2c89b69c2b068fc378daa952ba7f163c4a11628f55a4df523b3ef",
            "0x000000000000000000000000e233420d38d286c2f2cf8dee6564f132fbdb09db",
            "0x0000000000000000000000004b75aec40561c03e03d4d1c421df194a3031a134",
            "0x000000000000000000000000000000000000000000000000000000000000002c"
          ],
          "data": "0x",
          "blockHash": "0xa97f72f5cd8e8d54be994fdc3d0f572cbcd17f7ee80c64b2855c21fbba9d9e07",
          "blockNumber": "0x17b8394",
          "blockTimestamp": "0x69fd3db0",
          "transactionHash": "0x1ad8fef1ae01b3aea033f6e79878b7807a4f9cfd7d87ffad23056b136aa4e95f",
          "transactionIndex": "0x0",
          "logIndex": "0x2",
          "removed": false
        },
        {
          "address": "0x8fa71914948544c60e3379064567dcf0e6564d27",
          "topics": [
            "0xc0ac3eb1e8caef05b202043f34de8e3173fab712167584f7a2a9f4c302bd0e9c",
            "0xfc2687849e3d9a461ba07b669a00e01b31f9f106fad8ef1f6c6136e10dd8b6d7",
            "0x000000000000000000000000a5f104f8f78d5ba9aec4a383c0927337fd4e997b",
            "0x000000000000000000000000000000000000000000000000000000000000002c"
          ],
          "data": "0x000000000000000000000000e233420d38d286c2f2cf8dee6564f132fbdb09db0000000000000000000000004b75aec40561c03e03d4d1c421df194a3031a134000000000000000000000000c02aaa39b223fe8d0a0e5c4f27ead9083c756cc2000000000000000000000000000000000000000000000000010e0198eaee0000",
          "blockHash": "0xa97f72f5cd8e8d54be994fdc3d0f572cbcd17f7ee80c64b2855c21fbba9d9e07",
          "blockNumber": "0x17b8394",
          "blockTimestamp": "0x69fd3db0",
          "transactionHash": "0x1ad8fef1ae01b3aea033f6e79878b7807a4f9cfd7d87ffad23056b136aa4e95f",
          "transactionIndex": "0x0",
          "logIndex": "0x3",
          "removed": false
        }
      ],
      "logsBloom": "0x00000000000000000000010000000000000000000000000000000000000000000000000000000000000000000000000002000000080000000000000000100000000000000000000000010008000000000000000000000000080000000000000000000001000000000001000100000000000000000000000000800010204000000800000000040000000004000000000000000000008000000000000000002000000000200000000400000000000400000000000000000080020000000000000000000012000004000000000000000000000000000002000880000000000000000100200000000000000000000000000000000000000002000000000000000000",
      "type": "0x2",
      "transactionHash": "0x1ad8fef1ae01b3aea033f6e79878b7807a4f9cfd7d87ffad23056b136aa4e95f",
      "transactionIndex": "0x0",
      "blockHash": "0xa97f72f5cd8e8d54be994fdc3d0f572cbcd17f7ee80c64b2855c21fbba9d9e07",
      "blockNumber": "0x17b8394",
      "gasUsed": "0x20131",
      "effectiveGasPrice": "0x1ba81c",
      "blobGasPrice": "0x1",
      "from": "0x4b75aec40561c03e03d4d1c421df194a3031a134",
      "to": "0x8fa71914948544c60e3379064567dcf0e6564d27",
      "contractAddress": null
    }
  ],
  "libraries": [],
  "pending": [],
  "returns": {},
  "timestamp": 1778506538913,
  "chain": 31337,
  "commit": "59e30a9"
}