{
  "transactions": [
    {
      "hash": "0x4685136e165a8f51188cda57d108eec2a67ca8e7cb0361fe3feae991231156e3",
      "transactionType": "CALL",
      "contractName": null,
      "contractAddress": "0x8fa71914948544c60e3379064567dcf0e6564d27",
      "function": "settle((uint256,address),(uint8,bool,address,uint256,address,uint256,address,uint64,uint64,uint256),(uint8,bytes32,bytes32))",
      "arguments": [
        "(0, 0xc5aDfC119364CFE2297e4414dB04834d8702475B)",
        "(0, false, 0xA5f104F8f78d5ba9AEC4a383c0927337Fd4E997B, 333, 0xC02aaA39b223FE8D0A0e5C4F27eAD9083C756Cc2, 25000000000000000, 0xE233420d38D286C2F2Cf8dEe6564F132FBDB09DB, 1773106998, 1779067288, 8)",
        "(28, 0xe7274c6d75adc340a6e7c1d05c3a400c8166f5200b7c13e7a83cdaa8d1346a79, 0x5e7463346a9145bb50ea21a75825e7032f9cf6c1f5ba10f8a381a8c2ab9bb2ee)"
      ],
      "transaction": {
        "from": "0xc5adfc119364cfe2297e4414db04834d8702475b",
        "to": "0x8fa71914948544c60e3379064567dcf0e6564d27",
        "gas": "0x2c4e8",
        "value": "0x0",
        "input": "0x3bae3e790000000000000000000000000000000000000000000000000000000000000000000000000000000000000000c5adfc119364cfe2297e4414db04834d8702475b00000000000000000000000000000000000000000000000000000000000000000000000000000000000000000000000000000000000000000000000000000000000000000000000000000000a5f104f8f78d5ba9aec4a383c0927337fd4e997b000000000000000000000000000000000000000000000000000000000000014d000000000000000000000000c02aaa39b223fe8d0a0e5c4f27ead9083c756cc20000000000000000000000000000000000000000000000000058d15e17628000000000000000000000000000e233420d38d286c2f2cf8dee6564f132fbdb09db0000000000000000000000000000000000000000000000000000000069af7736000000000000000000000000000000000000000000000000000000006a0a69980000000000000000000000000000000000000000000000000000000000000008000000000000000000000000000000000000000000000000000000000000001ce7274c6d75adc340a6e7c1d05c3a400c8166f5200b7c13e7a83cdaa8d1346a795e7463346a9145bb50ea21a75825e7032f9cf6c1f5ba10f8a381a8c2ab9bb2ee",
        "nonce": "0x38",
        "chainId": "0x7a69"
      },
      "additionalContracts": [],
      "isFixedGasLimit": false
    }
  ],
  "receipts": [
    {
      "status": "0x1",
      "cumulativeGasUsed": "0x2013d",
      "logs": [
        {
          "address": "0xc02aaa39b223fe8d0a0e5c4f27ead9083c756cc2",
          "topics": [
            "0xddf252ad1be2c89b69c2b068fc378daa952ba7f163c4a11628f55a4df523b3ef",
            "0x000000000000000000000000c5adfc119364cfe2297e4414db04834d8702475b",
            "0x0000000000000000000000001804c8ab1f12e6bbf3894d4083f33e07309d1f38"
          ],
          "data": "0x0000000000000000000000000000000000000000000000000000e35fa931a000",
          "blockHash": "0x842b954386db029d27b205ddc38249f9cdec214c9cd7cf8ef3ad3cedb53e6310",
          "blockNumber": "0x17b8342",
          "blockTimestamp": "0x69ea3d87",
          "transactionHash": "0x4685136e165a8f51188cda57d108eec2a67ca8e7cb0361fe3feae991231156e3",
          "transactionIndex": "0x0",
          "logIndex": "0x0",
          "removed": false
        },
        {
          "address": "0xc02aaa39b223fe8d0a0e5c4f27ead9083c756cc2",
          "topics": [
            "0xddf252ad1be2c89b69c2b068fc378daa952ba7f163c4a11628f55a4df523b3ef",
            "0x000000000000000000000000c5adfc119364cfe2297e4414db04834d8702475b",
            "0x000000000000000000000000e233420d38d286c2f2cf8dee6564f132fbdb09db"
          ],
          "data": "0x0000000000000000000000000000000000000000000000000057edfe6e30e000",
          "blockHash": "0x842b954386db029d27b205ddc38249f9cdec214c9cd7cf8ef3ad3cedb53e6310",
          "blockNumber": "0x17b8342",
          "blockTimestamp": "0x69ea3d87",
          "transactionHash": "0x4685136e165a8f51188cda57d108eec2a67ca8e7cb0361fe3feae991231156e3",
          "transactionIndex": "0x0",
          "logIndex": "0x1",
          "removed": false
        },
        {
          "address": "0xa5f104f8f78d5ba9aec4a383c0927337fd4e997b",
          "topics": [
            "0xddf252ad1be2c89b69c2b068fc378daa952ba7f163c4a11628f55a4df523b3ef",
            "0x000000000000000000000000e233420d38d286c2f2cf8dee6564f132fbdb09db",
            "0x000000000000000000000000c5adfc119364cfe2297e4414db04834d8702475b",
            "0x000000000000000000000000000000000000000000000000000000000000014d"
          ],
          "data": "0x",
          "blockHash": "0x842b954386db029d27b205ddc38249f9cdec214c9cd7cf8ef3ad3cedb53e6310",
          "blockNumber": "0x17b8342",
          "blockTimestamp": "0x69ea3d87",
          "transactionHash": "0x4685136e165a8f51188cda57d108eec2a67ca8e7cb0361fe3feae991231156e3",
          "transactionIndex": "0x0",
          "logIndex": "0x2",
          "removed": false
        },
        {
          "address": "0x8fa71914948544c60e3379064567dcf0e6564d27",
          "topics": [
            "0xc0ac3eb1e8caef05b202043f34de8e3173fab712167584f7a2a9f4c302bd0e9c",
            "0x919f9c24f0f182418fdb7a9c2de2a5d192d948954b8dec4e18a3a1f87321b4db",
            "0x000000000000000000000000a5f104f8f78d5ba9aec4a383c0927337fd4e997b",
            "0x000000000000000000000000000000000000000000000000000000000000014d"
          ],
          "data": "0x000000000000000000000000e233420d38d286c2f2cf8dee6564f132fbdb09db000000000000000000000000c5adfc119364cfe2297e4414db04834d8702475b000000000000000000000000c02aaa39b223fe8d0a0e5c4f27ead9083c756cc20000000000000000000000000000000000000000000000000058d15e17628000",
          "blockHash": "0x842b954386db029d27b205ddc38249f9cdec214c9cd7cf8ef3ad3cedb53e6310",
          "blockNumber": "0x17b8342",
          "blockTimestamp": "0x69ea3d87",
          "transactionHash": "0x4685136e165a8f51188cda57d108eec2a67ca8e7cb0361fe3feae991231156e3",
          "transactionIndex": "0x0",
          "logIndex": "0x3",
          "removed": false
        }
      ],
      "logsBloom": "0x00000000000000000000010000000000000000000000000000000000000000000000000000000000000000000000000002000000080000000000000000100000000000000000000000010008000000000000002000000000080000000000000200000001000000000001000000000000800000000000000000000010200000000800020000040000000004000000000000000000000000000000000004000000000000200000000400000000080020000000000000000080000000000000000000000012000004000000000000000080000000000002000080000000000000000100200000000000000000000000000000000000000000002000000000000000",
      "type": "0x2",
      "transactionHash": "0x4685136e165a8f51188cda57d108eec2a67ca8e7cb0361fe3feae991231156e3",
      "transactionIndex": "0x0",
      "blockHash": "0x842b954386db029d27b205ddc38249f9cdec214c9cd7cf8ef3ad3cedb53e6310",
      "blockNumber": "0x17b8342",
      "gasUsed": "0x2013d",
      "effectiveGasPrice": "0x1ba81c",
      "blobGasPrice": "0x1",
      "from": "0xc5adfc119364cfe2297e4414db04834d8702475b",
      "to": "0x8fa71914948544c60e3379064567dcf0e6564d27",
      "contractAddress": null
    }
  ],
  "libraries": [],
  "pending": [],
  "returns": {},
  "timestamp": 1778506444548,
  "chain": 31337,
  "commit": "59e30a9"
}