{
  "transactions": [
    {
      "hash": "0xee9951fb6694f1571cf1fb7b972b35dc69679c81b124d230c152c6fcb7b8a37c",
      "transactionType": "CALL",
      "contractName": null,
      "contractAddress": "0x8fa71914948544c60e3379064567dcf0e6564d27",
      "function": "settle((uint256,address),(uint8,bool,address,uint256,address,uint256,address,uint64,uint64,uint256),(uint8,bytes32,bytes32))",
      "arguments": [
        "(0, 0x646dC5Fc4009C4C84a424B6aE0f494b374bAE1Ce)",
        "(0, false, 0xA5f104F8f78d5ba9AEC4a383c0927337Fd4E997B, 141, 0xC02aaA39b223FE8D0A0e5C4F27eAD9083C756Cc2, 37000000000000000, 0x08312E82df563A1639b81f49bb41247759700e30, 1773531845, 1778531417, 0)",
        "(27, 0x86b730c7e0875d00bd8e027765c9928d7eaad7d277859cefdd3ccc6530203929, 0x5c259adf98cf347b43bc7637803028bc57de7e5b0101e039a20266813f51a9e0)"
      ],
      "transaction": {
        "from": "0x646dc5fc4009c4c84a424b6ae0f494b374bae1ce",
        "to": "0x8fa71914948544c60e3379064567dcf0e6564d27",
        "gas": "0x2c49b",
        "value": "0x0",
        "input": "0x3bae3e790000000000000000000000000000000000000000000000000000000000000000000000000000000000000000646dc5fc4009c4c84a424b6ae0f494b374bae1ce00000000000000000000000000000000000000000000000000000000000000000000000000000000000000000000000000000000000000000000000000000000000000000000000000000000a5f104f8f78d5ba9aec4a383c0927337fd4e997b000000000000000000000000000000000000000000000000000000000000008d000000000000000000000000c02aaa39b223fe8d0a0e5c4f27ead9083c756cc20000000000000000000000000000000000000000000000000083734dd0b0800000000000000000000000000008312e82df563a1639b81f49bb41247759700e300000000000000000000000000000000000000000000000000000000069b5f2c5000000000000000000000000000000000000000000000000000000006a023c590000000000000000000000000000000000000000000000000000000000000000000000000000000000000000000000000000000000000000000000000000001b86b730c7e0875d00bd8e027765c9928d7eaad7d277859cefdd3ccc65302039295c259adf98cf347b43bc7637803028bc57de7e5b0101e039a20266813f51a9e0",
        "nonce": "0x3e",
        "chainId": "0x7a69"
      },
      "additionalContracts": [],
      "isFixedGasLimit": false
    }
  ],
  "receipts": [
    {
      "status": "0x1",
      "cumulativeGasUsed": "0x20105",
      "logs": [
        {
          "address": "0xc02aaa39b223fe8d0a0e5c4f27ead9083c756cc2",
          "topics": [
            "0xddf252ad1be2c89b69c2b068fc378daa952ba7f163c4a11628f55a4df523b3ef",
            "0x000000000000000000000000646dc5fc4009c4c84a424b6ae0f494b374bae1ce",
            "0x0000000000000000000000001804c8ab1f12e6bbf3894d4083f33e07309d1f38"
          ],
          "data": "0x0000000000000000000000000000000000000000000000000001508356912000",
          "blockHash": "0xb9e803f5b769bdcc3cc0e5477b9cd30424023258267b59ce53758c0e9673da5d",
          "blockNumber": "0x17b7113",
          "blockTimestamp": "0x69dcc6c1",
          "transactionHash": "0xee9951fb6694f1571cf1fb7b972b35dc69679c81b124d230c152c6fcb7b8a37c",
          "transactionIndex": "0x0",
          "logIndex": "0x0",
          "removed": false
        },
        {
          "address": "0xc02aaa39b223fe8d0a0e5c4f27ead9083c756cc2",
          "topics": [
            "0xddf252ad1be2c89b69c2b068fc378daa952ba7f163c4a11628f55a4df523b3ef",
            "0x000000000000000000000000646dc5fc4009c4c84a424b6ae0f494b374bae1ce",
            "0x00000000000000000000000008312e82df563a1639b81f49bb41247759700e30"
          ],
          "data": "0x000000000000000000000000000000000000000000000000008222ca7a1f6000",
          "blockHash": "0xb9e803f5b769bdcc3cc0e5477b9cd30424023258267b59ce53758c0e9673da5d",
          "blockNumber": "0x17b7113",
          "blockTimestamp": "0x69dcc6c1",
          "transactionHash": "0xee9951fb6694f1571cf1fb7b972b35dc69679c81b124d230c152c6fcb7b8a37c",
          "transactionIndex": "0x0",
          "logIndex": "0x1",
          "removed": false
        },
        {
          "address": "0xa5f104f8f78d5ba9aec4a383c0927337fd4e997b",
          "topics": [
            "0xddf252ad1be2c89b69c2b068fc378daa952ba7f163c4a11628f55a4df523b3ef",
            "0x00000000000000000000000008312e82df563a1639b81f49bb41247759700e30",
            "0x000000000000000000000000646dc5fc4009c4c84a424b6ae0f494b374bae1ce",
            "0x000000000000000000000000000000000000000000000000000000000000008d"
          ],
          "data": "0x",
          "blockHash": "0xb9e803f5b769bdcc3cc0e5477b9cd30424023258267b59ce53758c0e9673da5d",
          "blockNumber": "0x17b7113",
          "blockTimestamp": "0x69dcc6c1",
          "transactionHash": "0xee9951fb6694f1571cf1fb7b972b35dc69679c81b124d230c152c6fcb7b8a37c",
          "transactionIndex": "0x0",
          "logIndex": "0x2",
          "removed": false
        },
        {
          "address": "0x8fa71914948544c60e3379064567dcf0e6564d27",
          "topics": [
            "0xc0ac3eb1e8caef05b202043f34de8e3173fab712167584f7a2a9f4c302bd0e9c",
            "0x2c625ca086c16a5851e8cd96ea1bb744b9d12d69748a37251d611f5bc092d551",
            "0x000000000000000000000000a5f104f8f78d5ba9aec4a383c0927337fd4e997b",
            "0x000000000000000000000000000000000000000000000000000000000000008d"
          ],
          "data": "0x00000000000000000000000008312e82df563a1639b81f49bb41247759700e30000000000000000000000000646dc5fc4009c4c84a424b6ae0f494b374bae1ce000000000000000000000000c02aaa39b223fe8d0a0e5c4f27ead9083c756cc20000000000000000000000000000000000000000000000000083734dd0b08000",
          "blockHash": "0xb9e803f5b769bdcc3cc0e5477b9cd30424023258267b59ce53758c0e9673da5d",
          "blockNumber": "0x17b7113",
          "blockTimestamp": "0x69dcc6c1",
          "transactionHash": "0xee9951fb6694f1571cf1fb7b972b35dc69679c81b124d230c152c6fcb7b8a37c",
          "transactionIndex": "0x0",
          "logIndex": "0x3",
          "removed": false
        }
      ],
      "logsBloom": "0x08000000000000000000010201000000000000000002000000000000000000000000000000100000000000000000000002000000090000000000040000100000000000000000000000010088000000000000000000000000080000000000000000000000000000000005000000000000000000080000000000000010200000000800000000040000000004000000000000000000000000000000000000000000000000200000000400000000000000000000000000000080000000000000000000000002000004000000000000000000000000000000000080000000000000000100200004000000000000000000000000000000004000000000000000000000",
      "type": "0x2",
      "transactionHash": "0xee9951fb6694f1571cf1fb7b972b35dc69679c81b124d230c152c6fcb7b8a37c",
      "transactionIndex": "0x0",
      "blockHash": "0xb9e803f5b769bdcc3cc0e5477b9cd30424023258267b59ce53758c0e9673da5d",
      "blockNumber": "0x17b7113",
      "gasUsed": "0x20105",
      "effectiveGasPrice": "0x154c2b",
      "blobGasPrice": "0x1",
      "from": "0x646dc5fc4009c4c84a424b6ae0f494b374bae1ce",
      "to": "0x8fa71914948544c60e3379064567dcf0e6564d27",
      "contractAddress": null
    }
  ],
  "libraries": [],
  "pending": [],
  "returns": {},
  "timestamp": 1778450899290,
  "chain": 31337,
  "commit": "f87d399"
}