{
  "transactions": [
    {
      "hash": "0xa3ff2f3446968791e388681ad9a3cb21221ce9bee946f7ac9d648c8f72b4a8a1",
      "transactionType": "CALL",
      "contractName": null,
      "contractAddress": "0x8fa71914948544c60e3379064567dcf0e6564d27",
      "function": "settle((uint256,address),(uint8,bool,address,uint256,address,uint256,address,uint64,uint64,uint256),(uint8,bytes32,bytes32))",
      "arguments": [
        "(157, 0xcbe5659df21Cbcfabe4da962F7a9081F26B3ed82)",
        "(1, false, 0xA5f104F8f78d5ba9AEC4a383c0927337Fd4E997B, 157, 0xC02aaA39b223FE8D0A0e5C4F27eAD9083C756Cc2, 17000000000000000, 0x08312E82df563A1639b81f49bb41247759700e30, 1772688851, 1779485435, 4)",
        "(28, 0x9e67bc36b99e37e79d569c7a7280efdbc24b9b33e9cb7f267e3b4e51ad9853fe, 0x34e090820c5919b903b2107b185710d1c21bae36b127bc18528d0dfe29ecd354)"
      ],
      "transaction": {
        "from": "0xcbe5659df21cbcfabe4da962f7a9081f26b3ed82",
        "to": "0x8fa71914948544c60e3379064567dcf0e6564d27",
        "gas": "0x2c5dc",
        "value": "0x0",
        "input": "0x3bae3e79000000000000000000000000000000000000000000000000000000000000009d000000000000000000000000cbe5659df21cbcfabe4da962f7a9081f26b3ed8200000000000000000000000000000000000000000000000000000000000000010000000000000000000000000000000000000000000000000000000000000000000000000000000000000000a5f104f8f78d5ba9aec4a383c0927337fd4e997b000000000000000000000000000000000000000000000000000000000000009d000000000000000000000000c02aaa39b223fe8d0a0e5c4f27ead9083c756cc2000000000000000000000000000000000000000000000000003c6568f12e800000000000000000000000000008312e82df563a1639b81f49bb41247759700e300000000000000000000000000000000000000000000000000000000069a915d3000000000000000000000000000000000000000000000000000000006a10cafb0000000000000000000000000000000000000000000000000000000000000004000000000000000000000000000000000000000000000000000000000000001c9e67bc36b99e37e79d569c7a7280efdbc24b9b33e9cb7f267e3b4e51ad9853fe34e090820c5919b903b2107b185710d1c21bae36b127bc18528d0dfe29ecd354",
        "nonce": "0x3d",
        "chainId": "0x7a69"
      },
      "additionalContracts": [],
      "isFixedGasLimit": false
    }
  ],
  "receipts": [
    {
      "status": "0x1",
      "cumulativeGasUsed": "0x201ee",
      "logs": [
        {
          "address": "0xc02aaa39b223fe8d0a0e5c4f27ead9083c756cc2",
          "topics": [
            "0xddf252ad1be2c89b69c2b068fc378daa952ba7f163c4a11628f55a4df523b3ef",
            "0x00000000000000000000000008312e82df563a1639b81f49bb41247759700e30",
            "0x0000000000000000000000001804c8ab1f12e6bbf3894d4083f33e07309d1f38"
          ],
          "data": "0x00000000000000000000000000000000000000000000000000009a9d359ca000",
          "blockHash": "0xff06e355beff9b82caa15c53b539c54df2bf8349edf8d28ce604ed08a5203f46",
          "blockNumber": "0x17b8323",
          "blockTimestamp": "0x69e0b323",
          "transactionHash": "0xa3ff2f3446968791e388681ad9a3cb21221ce9bee946f7ac9d648c8f72b4a8a1",
          "transactionIndex": "0x0",
          "logIndex": "0x0",
          "removed": false
        },
        {
          "address": "0xc02aaa39b223fe8d0a0e5c4f27ead9083c756cc2",
          "topics": [
            "0xddf252ad1be2c89b69c2b068fc378daa952ba7f163c4a11628f55a4df523b3ef",
            "0x00000000000000000000000008312e82df563a1639b81f49bb41247759700e30",
            "0x000000000000000000000000cbe5659df21cbcfabe4da962f7a9081f26b3ed82"
          ],
          "data": "0x000000000000000000000000000000000000000000000000003bcacbbb91e000",
          "blockHash": "0xff06e355beff9b82caa15c53b539c54df2bf8349edf8d28ce604ed08a5203f46",
          "blockNumber": "0x17b8323",
          "blockTimestamp": "0x69e0b323",
          "transactionHash": "0xa3ff2f3446968791e388681ad9a3cb21221ce9bee946f7ac9d648c8f72b4a8a1",
          "transactionIndex": "0x0",
          "logIndex": "0x1",
          "removed": false
        },
        {
          "address": "0xa5f104f8f78d5ba9aec4a383c0927337fd4e997b",
          "topics": [
            "0xddf252ad1be2c89b69c2b068fc378daa952ba7f163c4a11628f55a4df523b3ef",
            "0x000000000000000000000000cbe5659df21cbcfabe4da962f7a9081f26b3ed82",
            "0x00000000000000000000000008312e82df563a1639b81f49bb41247759700e30",
            "0x000000000000000000000000000000000000000000000000000000000000009d"
          ],
          "data": "0x",
          "blockHash": "0xff06e355beff9b82caa15c53b539c54df2bf8349edf8d28ce604ed08a5203f46",
          "blockNumber": "0x17b8323",
          "blockTimestamp": "0x69e0b323",
          "transactionHash": "0xa3ff2f3446968791e388681ad9a3cb21221ce9bee946f7ac9d648c8f72b4a8a1",
          "transactionIndex": "0x0",
          "logIndex": "0x2",
          "removed": false
        },
        {
          "address": "0x8fa71914948544c60e3379064567dcf0e6564d27",
          "topics": [
            "0xc0ac3eb1e8caef05b202043f34de8e3173fab712167584f7a2a9f4c302bd0e9c",
            "0xb9381584c053f2a8ad495498f61421a1e2add503409ddff28aa12e71d793d640",
            "0x000000000000000000000000a5f104f8f78d5ba9aec4a383c0927337fd4e997b",
            "0x000000000000000000000000000000000000000000000000000000000000009d"
          ],
          "data": "0x000000000000000000000000cbe5659df21cbcfabe4da962f7a9081f26b3ed8200000000000000000000000008312e82df563a1639b81f49bb41247759700e30000000000000000000000000c02aaa39b223fe8d0a0e5c4f27ead9083c756cc2000000000000000000000000000000000000000000000000003c6568f12e8000",
          "blockHash": "0xff06e355beff9b82caa15c53b539c54df2bf8349edf8d28ce604ed08a5203f46",
          "blockNumber": "0x17b8323",
          "blockTimestamp": "0x69e0b323",
          "transactionHash": "0xa3ff2f3446968791e388681ad9a3cb21221ce9bee946f7ac9d648c8f72b4a8a1",
          "transactionIndex": "0x0",
          "logIndex": "0x3",
          "removed": false
        }
      ],
      "logsBloom": "0x00000000000000000000010001000000000000000000000000000000000000000000000000100000000000000000000002000000080000000000000000100000000000000000000000010008000000000000000000000000080000000000000000000000000000000001000000000000000000000000000000000210200000000800000000140000000004000000000000000000000000000000001000000000000001200000000400000000000000000000400000000080000000000000000000000002000004000400000000000000000000000000020080000000000000000100200000000000000000000000000100000000004000000000000000000000",
      "type": "0x2",
      "transactionHash": "0xa3ff2f3446968791e388681ad9a3cb21221ce9bee946f7ac9d648c8f72b4a8a1",
      "transactionIndex": "0x0",
      "blockHash": "0xff06e355beff9b82caa15c53b539c54df2bf8349edf8d28ce604ed08a5203f46",
      "blockNumber": "0x17b8323",
      "gasUsed": "0x201ee",
      "effectiveGasPrice": "0x1ba81c",
      "blobGasPrice": "0x1",
      "from": "0xcbe5659df21cbcfabe4da962f7a9081f26b3ed82",
      "to": "0x8fa71914948544c60e3379064567dcf0e6564d27",
      "contractAddress": null
    }
  ],
  "libraries": [],
  "pending": [],
  "returns": {},
  "timestamp": 1778506411397,
  "chain": 31337,
  "commit": "59e30a9"
}