{
  "transactions": [
    {
      "hash": "0x224bc3bdb9268b681e959c080e6c1fbc6a163378032aa00e4b72d9cf5d7c4fc6",
      "transactionType": "CALL",
      "contractName": null,
      "contractAddress": "0x8fa71914948544c60e3379064567dcf0e6564d27",
      "function": "settle((uint256,address),(uint8,bool,address,uint256,address,uint256,address,uint64,uint64,uint256),(uint8,bytes32,bytes32))",
      "arguments": [
        "(62, 0xE233420d38D286C2F2Cf8dEe6564F132FBDB09DB)",
        "(1, false, 0xA5f104F8f78d5ba9AEC4a383c0927337Fd4E997B, 62, 0xC02aaA39b223FE8D0A0e5C4F27eAD9083C756Cc2, 19000000000000000, 0x4b75AeC40561C03e03d4D1C421dF194a3031A134, 1772406744, 1779767542, 4)",
        "(27, 0x8e3f68cc80be4df7dfe89703d0c436989d11fa924d8019261bb5c331eeb7423b, 0x2eec48bdba07afd122d613a8cb29e14e07f08df6d5336b4a82dcb9a2ed522b8e)"
      ],
      "transaction": {
        "from": "0xe233420d38d286c2f2cf8dee6564f132fbdb09db",
        "to": "0x8fa71914948544c60e3379064567dcf0e6564d27",
        "gas": "0x2ef81",
        "value": "0x0",
        "input": "0x3bae3e79000000000000000000000000000000000000000000000000000000000000003e000000000000000000000000e233420d38d286c2f2cf8dee6564f132fbdb09db00000000000000000000000000000000000000000000000000000000000000010000000000000000000000000000000000000000000000000000000000000000000000000000000000000000a5f104f8f78d5ba9aec4a383c0927337fd4e997b000000000000000000000000000000000000000000000000000000000000003e000000000000000000000000c02aaa39b223fe8d0a0e5c4f27ead9083c756cc2000000000000000000000000000000000000000000000000004380663abb80000000000000000000000000004b75aec40561c03e03d4d1c421df194a3031a1340000000000000000000000000000000000000000000000000000000069a4c7d8000000000000000000000000000000000000000000000000000000006a1518f60000000000000000000000000000000000000000000000000000000000000004000000000000000000000000000000000000000000000000000000000000001b8e3f68cc80be4df7dfe89703d0c436989d11fa924d8019261bb5c331eeb7423b2eec48bdba07afd122d613a8cb29e14e07f08df6d5336b4a82dcb9a2ed522b8e",
        "nonce": "0x39",
        "chainId": "0x7a69"
      },
      "additionalContracts": [],
      "isFixedGasLimit": false
    }
  ],
  "receipts": [
    {
      "status": "0x1",
      "cumulativeGasUsed": "0x201da",
      "logs": [
        {
          "address": "0xc02aaa39b223fe8d0a0e5c4f27ead9083c756cc2",
          "topics": [
            "0xddf252ad1be2c89b69c2b068fc378daa952ba7f163c4a11628f55a4df523b3ef",
            "0x0000000000000000000000004b75aec40561c03e03d4d1c421df194a3031a134",
            "0x0000000000000000000000001804c8ab1f12e6bbf3894d4083f33e07309d1f38"
          ],
          "data": "0x0000000000000000000000000000000000000000000000000000accdd281e000",
          "blockHash": "0x0f32798fed9a4b29e0fe7d9243e9c24ad6767c294f5927842a7748d954bf2073",
          "blockNumber": "0x17b836e",
          "blockTimestamp": "0x69f4a433",
          "transactionHash": "0x224bc3bdb9268b681e959c080e6c1fbc6a163378032aa00e4b72d9cf5d7c4fc6",
          "transactionIndex": "0x0",
          "logIndex": "0x0",
          "removed": false
        },
        {
          "address": "0xc02aaa39b223fe8d0a0e5c4f27ead9083c756cc2",
          "topics": [
            "0xddf252ad1be2c89b69c2b068fc378daa952ba7f163c4a11628f55a4df523b3ef",
            "0x0000000000000000000000004b75aec40561c03e03d4d1c421df194a3031a134",
            "0x000000000000000000000000e233420d38d286c2f2cf8dee6564f132fbdb09db"
          ],
          "data": "0x0000000000000000000000000000000000000000000000000042d3986839a000",
          "blockHash": "0x0f32798fed9a4b29e0fe7d9243e9c24ad6767c294f5927842a7748d954bf2073",
          "blockNumber": "0x17b836e",
          "blockTimestamp": "0x69f4a433",
          "transactionHash": "0x224bc3bdb9268b681e959c080e6c1fbc6a163378032aa00e4b72d9cf5d7c4fc6",
          "transactionIndex": "0x0",
          "logIndex": "0x1",
          "removed": false
        },
        {
          "address": "0xa5f104f8f78d5ba9aec4a383c0927337fd4e997b",
          "topics": [
            "0xddf252ad1be2c89b69c2b068fc378daa952ba7f163c4a11628f55a4df523b3ef",
            "0x000000000000000000000000e233420d38d286c2f2cf8dee6564f132fbdb09db",
            "0x0000000000000000000000004b75aec40561c03e03d4d1c421df194a3031a134",
            "0x000000000000000000000000000000000000000000000000000000000000003e"
          ],
          "data": "0x",
          "blockHash": "0x0f32798fed9a4b29e0fe7d9243e9c24ad6767c294f5927842a7748d954bf2073",
          "blockNumber": "0x17b836e",
          "blockTimestamp": "0x69f4a433",
          "transactionHash": "0x224bc3bdb9268b681e959c080e6c1fbc6a163378032aa00e4b72d9cf5d7c4fc6",
          "transactionIndex": "0x0",
          "logIndex": "0x2",
          "removed": false
        },
        {
          "address": "0x8fa71914948544c60e3379064567dcf0e6564d27",
          "topics": [
            "0xc0ac3eb1e8caef05b202043f34de8e3173fab712167584f7a2a9f4c302bd0e9c",
            "0x466cdfbe61711af9da7442a9fc1ef39b8233ef42a5db368e1ef2507dbd40acae",
            "0x000000000000000000000000a5f104f8f78d5ba9aec4a383c0927337fd4e997b",
            "0x000000000000000000000000000000000000000000000000000000000000003e"
          ],
          "data": "0x000000000000000000000000e233420d38d286c2f2cf8dee6564f132fbdb09db0000000000000000000000004b75aec40561c03e03d4d1c421df194a3031a134000000000000000000000000c02aaa39b223fe8d0a0e5c4f27ead9083c756cc2000000000000000000000000000000000000000000000000004380663abb8000",
          "blockHash": "0x0f32798fed9a4b29e0fe7d9243e9c24ad6767c294f5927842a7748d954bf2073",
          "blockNumber": "0x17b836e",
          "blockTimestamp": "0x69f4a433",
          "transactionHash": "0x224bc3bdb9268b681e959c080e6c1fbc6a163378032aa00e4b72d9cf5d7c4fc6",
          "transactionIndex": "0x0",
          "logIndex": "0x3",
          "removed": false
        }
      ],
      "logsBloom": "0x00000000000000000000010000000040000000000000000000000000000000000000000000000000000000000000000002000000080000000000000000100000040000000000000000010008000000010000004000000000080000000000000000000001000800000001000000000000000000000000000000000010200000000800000000040000000004000000000000000000000000000000000000002000000000200000000400000000000400000000000000000080020000000000000000000012000004000000000000000000000000000002000080000000000000000100200000000000000000000000000000000000000000000000000000000080",
      "type": "0x2",
      "transactionHash": "0x224bc3bdb9268b681e959c080e6c1fbc6a163378032aa00e4b72d9cf5d7c4fc6",
      "transactionIndex": "0x0",
      "blockHash": "0x0f32798fed9a4b29e0fe7d9243e9c24ad6767c294f5927842a7748d954bf2073",
      "blockNumber": "0x17b836e",
      "gasUsed": "0x201da",
      "effectiveGasPrice": "0x1ba81c",
      "blobGasPrice": "0x1",
      "from": "0xe233420d38d286c2f2cf8dee6564f132fbdb09db",
      "to": "0x8fa71914948544c60e3379064567dcf0e6564d27",
      "contractAddress": null
    }
  ],
  "libraries": [],
  "pending": [],
  "returns": {},
  "timestamp": 1778506493652,
  "chain": 31337,
  "commit": "59e30a9"
}