{
  "transactions": [
    {
      "hash": "0x04f24fb08cb060fa2b3136b938620fe7003934f9c2198a510d413d68bf777854",
      "transactionType": "CALL",
      "contractName": null,
      "contractAddress": "0x8fa71914948544c60e3379064567dcf0e6564d27",
      "function": "settle((uint256,address),(uint8,bool,address,uint256,address,uint256,address,uint64,uint64,uint256),(uint8,bytes32,bytes32))",
      "arguments": [
        "(460, 0xa382b0E75C192D9CDF5c084E58b750Cea7761Bd0)",
        "(1, false, 0xA5f104F8f78d5ba9AEC4a383c0927337Fd4E997B, 460, 0xC02aaA39b223FE8D0A0e5C4F27eAD9083C756Cc2, 385000000000000000, 0xcbe5659df21Cbcfabe4da962F7a9081F26B3ed82, 1773447945, 1778726341, 10)",
        "(28, 0x50190bd039c9e2b0d2190c25e9753ed3cc03ca93a3a2e7cafab20d7365bc8bfc, 0x3ab78f9acfab64f3099028a5c15c260f4003af4aa371e6a86f1b886bb581c1b5)"
      ],
      "transaction": {
        "from": "0xa382b0e75c192d9cdf5c084e58b750cea7761bd0",
        "to": "0x8fa71914948544c60e3379064567dcf0e6564d27",
        "gas": "0x2efd3",
        "value": "0x0",
        "input": "0x3bae3e7900000000000000000000000000000000000000000000000000000000000001cc000000000000000000000000a382b0e75c192d9cdf5c084e58b750cea7761bd000000000000000000000000000000000000000000000000000000000000000010000000000000000000000000000000000000000000000000000000000000000000000000000000000000000a5f104f8f78d5ba9aec4a383c0927337fd4e997b00000000000000000000000000000000000000000000000000000000000001cc000000000000000000000000c02aaa39b223fe8d0a0e5c4f27ead9083c756cc20000000000000000000000000000000000000000000000000557cb75ce868000000000000000000000000000cbe5659df21cbcfabe4da962f7a9081f26b3ed820000000000000000000000000000000000000000000000000000000069b4ab09000000000000000000000000000000000000000000000000000000006a0535c5000000000000000000000000000000000000000000000000000000000000000a000000000000000000000000000000000000000000000000000000000000001c50190bd039c9e2b0d2190c25e9753ed3cc03ca93a3a2e7cafab20d7365bc8bfc3ab78f9acfab64f3099028a5c15c260f4003af4aa371e6a86f1b886bb581c1b5",
        "nonce": "0x27",
        "chainId": "0x7a69"
      },
      "additionalContracts": [],
      "isFixedGasLimit": false
    }
  ],
  "receipts": [
    {
      "status": "0x1",
      "cumulativeGasUsed": "0x20212",
      "logs": [
        {
          "address": "0xc02aaa39b223fe8d0a0e5c4f27ead9083c756cc2",
          "topics": [
            "0xddf252ad1be2c89b69c2b068fc378daa952ba7f163c4a11628f55a4df523b3ef",
            "0x000000000000000000000000cbe5659df21cbcfabe4da962f7a9081f26b3ed82",
            "0x0000000000000000000000001804c8ab1f12e6bbf3894d4083f33e07309d1f38"
          ],
          "data": "0x000000000000000000000000000000000000000000000000000dad8dfa62a000",
          "blockHash": "0x75dd2bd0cf19144b389ef9f5cc493d06e23d24a88210dd06c00b2227293312e7",
          "blockNumber": "0x17b833c",
          "blockTimestamp": "0x69e89c98",
          "transactionHash": "0x04f24fb08cb060fa2b3136b938620fe7003934f9c2198a510d413d68bf777854",
          "transactionIndex": "0x0",
          "logIndex": "0x0",
          "removed": false
        },
        {
          "address": "0xc02aaa39b223fe8d0a0e5c4f27ead9083c756cc2",
          "topics": [
            "0xddf252ad1be2c89b69c2b068fc378daa952ba7f163c4a11628f55a4df523b3ef",
            "0x000000000000000000000000cbe5659df21cbcfabe4da962f7a9081f26b3ed82",
            "0x000000000000000000000000a382b0e75c192d9cdf5c084e58b750cea7761bd0"
          ],
          "data": "0x000000000000000000000000000000000000000000000000054a1de7d423e000",
          "blockHash": "0x75dd2bd0cf19144b389ef9f5cc493d06e23d24a88210dd06c00b2227293312e7",
          "blockNumber": "0x17b833c",
          "blockTimestamp": "0x69e89c98",
          "transactionHash": "0x04f24fb08cb060fa2b3136b938620fe7003934f9c2198a510d413d68bf777854",
          "transactionIndex": "0x0",
          "logIndex": "0x1",
          "removed": false
        },
        {
          "address": "0xa5f104f8f78d5ba9aec4a383c0927337fd4e997b",
          "topics": [
            "0xddf252ad1be2c89b69c2b068fc378daa952ba7f163c4a11628f55a4df523b3ef",
            "0x000000000000000000000000a382b0e75c192d9cdf5c084e58b750cea7761bd0",
            "0x000000000000000000000000cbe5659df21cbcfabe4da962f7a9081f26b3ed82",
            "0x00000000000000000000000000000000000000000000000000000000000001cc"
          ],
          "data": "0x",
          "blockHash": "0x75dd2bd0cf19144b389ef9f5cc493d06e23d24a88210dd06c00b2227293312e7",
          "blockNumber": "0x17b833c",
          "blockTimestamp": "0x69e89c98",
          "transactionHash": "0x04f24fb08cb060fa2b3136b938620fe7003934f9c2198a510d413d68bf777854",
          "transactionIndex": "0x0",
          "logIndex": "0x2",
          "removed": false
        },
        {
          "address": "0x8fa71914948544c60e3379064567dcf0e6564d27",
          "topics": [
            "0xc0ac3eb1e8caef05b202043f34de8e3173fab712167584f7a2a9f4c302bd0e9c",
            "0x27b663ed12501e75d98ea759ea6967a3e80baa198f1b4229a98b4c3ae9e9dfc2",
            "0x000000000000000000000000a5f104f8f78d5ba9aec4a383c0927337fd4e997b",
            "0x00000000000000000000000000000000000000000000000000000000000001cc"
          ],
          "data": "0x000000000000000000000000a382b0e75c192d9cdf5c084e58b750cea7761bd0000000000000000000000000cbe5659df21cbcfabe4da962f7a9081f26b3ed82000000000000000000000000c02aaa39b223fe8d0a0e5c4f27ead9083c756cc20000000000000000000000000000000000000000000000000557cb75ce868000",
          "blockHash": "0x75dd2bd0cf19144b389ef9f5cc493d06e23d24a88210dd06c00b2227293312e7",
          "blockNumber": "0x17b833c",
          "blockTimestamp": "0x69e89c98",
          "transactionHash": "0x04f24fb08cb060fa2b3136b938620fe7003934f9c2198a510d413d68bf777854",
          "transactionIndex": "0x0",
          "logIndex": "0x3",
          "removed": false
        }
      ],
      "logsBloom": "0x00000000000000000000010000400000000000000000000000000000000000000000000000000000000000000000000002000000880000000000000000100000000000000000000000010008000000000000000000000000080000004000000000000000000000000001000000000000000000000000040000000010200000000800000000240000000004000000000000100000000000000000000000000000000000200000000400000000000000000000000000000080008000000000000000000002000004000400000000000000000000000000020080000000000000000100200000000000000000000000000000000000304000000000000000000000",
      "type": "0x2",
      "transactionHash": "0x04f24fb08cb060fa2b3136b938620fe7003934f9c2198a510d413d68bf777854",
      "transactionIndex": "0x0",
      "blockHash": "0x75dd2bd0cf19144b389ef9f5cc493d06e23d24a88210dd06c00b2227293312e7",
      "blockNumber": "0x17b833c",
      "gasUsed": "0x20212",
      "effectiveGasPrice": "0x1ba81c",
      "blobGasPrice": "0x1",
      "from": "0xa382b0e75c192d9cdf5c084e58b750cea7761bd0",
      "to": "0x8fa71914948544c60e3379064567dcf0e6564d27",
      "contractAddress": null
    }
  ],
  "libraries": [],
  "pending": [],
  "returns": {},
  "timestamp": 1778506439386,
  "chain": 31337,
  "commit": "59e30a9"
}