{
  "transactions": [
    {
      "hash": "0x3841092c67998b612cd8d174ce0866b33ab809f8bbd7e6fd96c8cf37fbd6ec44",
      "transactionType": "CALL",
      "contractName": null,
      "contractAddress": "0x73973d222c3fda5b2563d269da9e19cb125000f4",
      "function": "settle((uint256,address),(uint8,bool,address,uint256,address,uint256,address,uint64,uint64,uint256),(uint8,bytes32,bytes32))",
      "arguments": [
        "(210, 0xc5aDfC119364CFE2297e4414dB04834d8702475B)",
        "(1, false, 0x38D4dE42C9c5640A2799B372D27B01957E0a3673, 210, 0xC02aaA39b223FE8D0A0e5C4F27eAD9083C756Cc2, 402000000000000000, 0xa382b0E75C192D9CDF5c084E58b750Cea7761Bd0, 1773096679, 1778968959, 11)",
        "(27, 0xd87e5bb1935565108b929e9a97f720e18a1fe8f6e3e2e2e32737bfca8ab5d8d5, 0x1bd76cb85fbfa272746f7cc2babfd4886c6b26005b6ac2609c3ec68aa74cb3a5)"
      ],
      "transaction": {
        "from": "0xc5adfc119364cfe2297e4414db04834d8702475b",
        "to": "0x73973d222c3fda5b2563d269da9e19cb125000f4",
        "gas": "0x2c5b0",
        "value": "0x0",
        "input": "0x3bae3e7900000000000000000000000000000000000000000000000000000000000000d2000000000000000000000000c5adfc119364cfe2297e4414db04834d8702475b0000000000000000000000000000000000000000000000000000000000000001000000000000000000000000000000000000000000000000000000000000000000000000000000000000000038d4de42c9c5640a2799b372d27b01957e0a367300000000000000000000000000000000000000000000000000000000000000d2000000000000000000000000c02aaa39b223fe8d0a0e5c4f27ead9083c756cc2000000000000000000000000000000000000000000000000059430debfb50000000000000000000000000000a382b0e75c192d9cdf5c084e58b750cea7761bd00000000000000000000000000000000000000000000000000000000069af4ee7000000000000000000000000000000000000000000000000000000006a08e97f000000000000000000000000000000000000000000000000000000000000000b000000000000000000000000000000000000000000000000000000000000001bd87e5bb1935565108b929e9a97f720e18a1fe8f6e3e2e2e32737bfca8ab5d8d51bd76cb85fbfa272746f7cc2babfd4886c6b26005b6ac2609c3ec68aa74cb3a5",
        "nonce": "0x68",
        "chainId": "0x7a69"
      },
      "additionalContracts": [],
      "isFixedGasLimit": false
    }
  ],
  "receipts": [
    {
      "status": "0x1",
      "cumulativeGasUsed": "0x201ce",
      "logs": [
        {
          "address": "0xc02aaa39b223fe8d0a0e5c4f27ead9083c756cc2",
          "topics": [
            "0xddf252ad1be2c89b69c2b068fc378daa952ba7f163c4a11628f55a4df523b3ef",
            "0x000000000000000000000000a382b0e75c192d9cdf5c084e58b750cea7761bd0",
            "0x0000000000000000000000001804c8ab1f12e6bbf3894d4083f33e07309d1f38"
          ],
          "data": "0x000000000000000000000000000000000000000000000000000e482b2fff4000",
          "blockHash": "0xf1591c5bc3ca6757b20d71dc2062261387064be715629ccd622f0ee89f903c65",
          "blockNumber": "0x17b73c7",
          "blockTimestamp": "0x69e7ed9b",
          "transactionHash": "0x3841092c67998b612cd8d174ce0866b33ab809f8bbd7e6fd96c8cf37fbd6ec44",
          "transactionIndex": "0x0",
          "logIndex": "0x0",
          "removed": false
        },
        {
          "address": "0xc02aaa39b223fe8d0a0e5c4f27ead9083c756cc2",
          "topics": [
            "0xddf252ad1be2c89b69c2b068fc378daa952ba7f163c4a11628f55a4df523b3ef",
            "0x000000000000000000000000a382b0e75c192d9cdf5c084e58b750cea7761bd0",
            "0x000000000000000000000000c5adfc119364cfe2297e4414db04834d8702475b"
          ],
          "data": "0x0000000000000000000000000000000000000000000000000585e8b38fb5c000",
          "blockHash": "0xf1591c5bc3ca6757b20d71dc2062261387064be715629ccd622f0ee89f903c65",
          "blockNumber": "0x17b73c7",
          "blockTimestamp": "0x69e7ed9b",
          "transactionHash": "0x3841092c67998b612cd8d174ce0866b33ab809f8bbd7e6fd96c8cf37fbd6ec44",
          "transactionIndex": "0x0",
          "logIndex": "0x1",
          "removed": false
        },
        {
          "address": "0x38d4de42c9c5640a2799b372d27b01957e0a3673",
          "topics": [
            "0xddf252ad1be2c89b69c2b068fc378daa952ba7f163c4a11628f55a4df523b3ef",
            "0x000000000000000000000000c5adfc119364cfe2297e4414db04834d8702475b",
            "0x000000000000000000000000a382b0e75c192d9cdf5c084e58b750cea7761bd0",
            "0x00000000000000000000000000000000000000000000000000000000000000d2"
          ],
          "data": "0x",
          "blockHash": "0xf1591c5bc3ca6757b20d71dc2062261387064be715629ccd622f0ee89f903c65",
          "blockNumber": "0x17b73c7",
          "blockTimestamp": "0x69e7ed9b",
          "transactionHash": "0x3841092c67998b612cd8d174ce0866b33ab809f8bbd7e6fd96c8cf37fbd6ec44",
          "transactionIndex": "0x0",
          "logIndex": "0x2",
          "removed": false
        },
        {
          "address": "0x73973d222c3fda5b2563d269da9e19cb125000f4",
          "topics": [
            "0xc0ac3eb1e8caef05b202043f34de8e3173fab712167584f7a2a9f4c302bd0e9c",
            "0x08f30e04c4f6ae69a6199556681c0533a384ec0579a94702b738ae2e232e311b",
            "0x00000000000000000000000038d4de42c9c5640a2799b372d27b01957e0a3673",
            "0x00000000000000000000000000000000000000000000000000000000000000d2"
          ],
          "data": "0x000000000000000000000000c5adfc119364cfe2297e4414db04834d8702475b000000000000000000000000a382b0e75c192d9cdf5c084e58b750cea7761bd0000000000000000000000000c02aaa39b223fe8d0a0e5c4f27ead9083c756cc2000000000000000000000000000000000000000000000000059430debfb50000",
          "blockHash": "0xf1591c5bc3ca6757b20d71dc2062261387064be715629ccd622f0ee89f903c65",
          "blockNumber": "0x17b73c7",
          "blockTimestamp": "0x69e7ed9b",
          "transactionHash": "0x3841092c67998b612cd8d174ce0866b33ab809f8bbd7e6fd96c8cf37fbd6ec44",
          "transactionIndex": "0x0",
          "logIndex": "0x3",
          "removed": false
        }
      ],
      "logsBloom": "0x000000000000000000000000000000000000000000020000000000000000000000000000000000000000040000000a0002000000080000000004100000110000000000000000001021000008000000000000000000000000000000000000000200000000000000000001000000000000000000000000040000000010000000000000000000000000000004000000000000100000000008000000000000000000000000000000000000000000000020000000000000000080400000000200000000000002000004000000000000000000000000000000000000000000000000000100204000000000000000000000000000000000100000002040000000000000",
      "type": "0x2",
      "transactionHash": "0x3841092c67998b612cd8d174ce0866b33ab809f8bbd7e6fd96c8cf37fbd6ec44",
      "transactionIndex": "0x0",
      "blockHash": "0xf1591c5bc3ca6757b20d71dc2062261387064be715629ccd622f0ee89f903c65",
      "blockNumber": "0x17b73c7",
      "gasUsed": "0x201ce",
      "effectiveGasPrice": "0xf4248",
      "blobGasPrice": "0x1",
      "from": "0xc5adfc119364cfe2297e4414db04834d8702475b",
      "to": "0x73973d222c3fda5b2563d269da9e19cb125000f4",
      "contractAddress": null
    }
  ],
  "libraries": [],
  "pending": [],
  "returns": {},
  "timestamp": 1778453775144,
  "chain": 31337,
  "commit": "f87d399"
}