{
  "transactions": [
    {
      "hash": "0x415ef414215739b2cd066e10c7e4344a28a9d8a6010e4251064c3533a3682dec",
      "transactionType": "CALL",
      "contractName": null,
      "contractAddress": "0x73973d222c3fda5b2563d269da9e19cb125000f4",
      "function": "settle((uint256,address),(uint8,bool,address,uint256,address,uint256,address,uint64,uint64,uint256),(uint8,bytes32,bytes32))",
      "arguments": [
        "(0, 0x646dC5Fc4009C4C84a424B6aE0f494b374bAE1Ce)",
        "(0, false, 0x38D4dE42C9c5640A2799B372D27B01957E0a3673, 340, 0xC02aaA39b223FE8D0A0e5C4F27eAD9083C756Cc2, 390000000000000000, 0xcbe5659df21Cbcfabe4da962F7a9081F26B3ed82, 1771774885, 1780290753, 0)",
        "(28, 0x021d9b91394d26fcdbc2b3ef96995b255031329c29a24a93613c0f8376bd2727, 0x62a7b218827ba03bfc4a27305ef7a136b6daa99c4215b2c6cf7392bae327fe20)"
      ],
      "transaction": {
        "from": "0x646dc5fc4009c4c84a424b6ae0f494b374bae1ce",
        "to": "0x73973d222c3fda5b2563d269da9e19cb125000f4",
        "gas": "0x2ee8a",
        "value": "0x0",
        "input": "0x3bae3e790000000000000000000000000000000000000000000000000000000000000000000000000000000000000000646dc5fc4009c4c84a424b6ae0f494b374bae1ce0000000000000000000000000000000000000000000000000000000000000000000000000000000000000000000000000000000000000000000000000000000000000000000000000000000038d4de42c9c5640a2799b372d27b01957e0a36730000000000000000000000000000000000000000000000000000000000000154000000000000000000000000c02aaa39b223fe8d0a0e5c4f27ead9083c756cc200000000000000000000000000000000000000000000000005698eef06670000000000000000000000000000cbe5659df21cbcfabe4da962f7a9081f26b3ed8200000000000000000000000000000000000000000000000000000000699b23a5000000000000000000000000000000000000000000000000000000006a1d14c10000000000000000000000000000000000000000000000000000000000000000000000000000000000000000000000000000000000000000000000000000001c021d9b91394d26fcdbc2b3ef96995b255031329c29a24a93613c0f8376bd272762a7b218827ba03bfc4a27305ef7a136b6daa99c4215b2c6cf7392bae327fe20",
        "nonce": "0x97",
        "chainId": "0x7a69"
      },
      "additionalContracts": [],
      "isFixedGasLimit": false
    }
  ],
  "receipts": [
    {
      "status": "0x1",
      "cumulativeGasUsed": "0x20131",
      "logs": [
        {
          "address": "0xc02aaa39b223fe8d0a0e5c4f27ead9083c756cc2",
          "topics": [
            "0xddf252ad1be2c89b69c2b068fc378daa952ba7f163c4a11628f55a4df523b3ef",
            "0x000000000000000000000000646dc5fc4009c4c84a424b6ae0f494b374bae1ce",
            "0x0000000000000000000000001804c8ab1f12e6bbf3894d4083f33e07309d1f38"
          ],
          "data": "0x000000000000000000000000000000000000000000000000000ddb07829fc000",
          "blockHash": "0xbd6852620ec52da91d509ae9e262a3309493d9366a2c2e22ec490ca7e57196f5",
          "blockNumber": "0x17b73af",
          "blockTimestamp": "0x69e3ab3e",
          "transactionHash": "0x415ef414215739b2cd066e10c7e4344a28a9d8a6010e4251064c3533a3682dec",
          "transactionIndex": "0x0",
          "logIndex": "0x0",
          "removed": false
        },
        {
          "address": "0xc02aaa39b223fe8d0a0e5c4f27ead9083c756cc2",
          "topics": [
            "0xddf252ad1be2c89b69c2b068fc378daa952ba7f163c4a11628f55a4df523b3ef",
            "0x000000000000000000000000646dc5fc4009c4c84a424b6ae0f494b374bae1ce",
            "0x000000000000000000000000cbe5659df21cbcfabe4da962f7a9081f26b3ed82"
          ],
          "data": "0x000000000000000000000000000000000000000000000000055bb3e783c74000",
          "blockHash": "0xbd6852620ec52da91d509ae9e262a3309493d9366a2c2e22ec490ca7e57196f5",
          "blockNumber": "0x17b73af",
          "blockTimestamp": "0x69e3ab3e",
          "transactionHash": "0x415ef414215739b2cd066e10c7e4344a28a9d8a6010e4251064c3533a3682dec",
          "transactionIndex": "0x0",
          "logIndex": "0x1",
          "removed": false
        },
        {
          "address": "0x38d4de42c9c5640a2799b372d27b01957e0a3673",
          "topics": [
            "0xddf252ad1be2c89b69c2b068fc378daa952ba7f163c4a11628f55a4df523b3ef",
            "0x000000000000000000000000cbe5659df21cbcfabe4da962f7a9081f26b3ed82",
            "0x000000000000000000000000646dc5fc4009c4c84a424b6ae0f494b374bae1ce",
            "0x0000000000000000000000000000000000000000000000000000000000000154"
          ],
          "data": "0x",
          "blockHash": "0xbd6852620ec52da91d509ae9e262a3309493d9366a2c2e22ec490ca7e57196f5",
          "blockNumber": "0x17b73af",
          "blockTimestamp": "0x69e3ab3e",
          "transactionHash": "0x415ef414215739b2cd066e10c7e4344a28a9d8a6010e4251064c3533a3682dec",
          "transactionIndex": "0x0",
          "logIndex": "0x2",
          "removed": false
        },
        {
          "address": "0x73973d222c3fda5b2563d269da9e19cb125000f4",
          "topics": [
            "0xc0ac3eb1e8caef05b202043f34de8e3173fab712167584f7a2a9f4c302bd0e9c",
            "0x2c079e9aff6581f7dc4643a3f1b1732a9c7fa512a7f14a23e1fb0c1346929c08",
            "0x00000000000000000000000038d4de42c9c5640a2799b372d27b01957e0a3673",
            "0x0000000000000000000000000000000000000000000000000000000000000154"
          ],
          "data": "0x000000000000000000000000cbe5659df21cbcfabe4da962f7a9081f26b3ed82000000000000000000000000646dc5fc4009c4c84a424b6ae0f494b374bae1ce000000000000000000000000c02aaa39b223fe8d0a0e5c4f27ead9083c756cc200000000000000000000000000000000000000000000000005698eef06670000",
          "blockHash": "0xbd6852620ec52da91d509ae9e262a3309493d9366a2c2e22ec490ca7e57196f5",
          "blockNumber": "0x17b73af",
          "blockTimestamp": "0x69e3ab3e",
          "transactionHash": "0x415ef414215739b2cd066e10c7e4344a28a9d8a6010e4251064c3533a3682dec",
          "transactionIndex": "0x0",
          "logIndex": "0x3",
          "removed": false
        }
      ],
      "logsBloom": "0x00000000000000000000000000000000000000000002000000000000000000000000000000000000000000000000020002000000090000000004100000100000000000000000001021000008000000000000000000000000000000000000000000000000000000000005000000000000000000000000000000000010000000000000000000000000000004000000000000000000000028000000000000000000000000000000000000000000000000000000000000000080400000000000000000000002000004000400100000000000000000000008060000000000000000000100200000000000000000000000000000000000004000000000000000000080",
      "type": "0x2",
      "transactionHash": "0x415ef414215739b2cd066e10c7e4344a28a9d8a6010e4251064c3533a3682dec",
      "transactionIndex": "0x0",
      "blockHash": "0xbd6852620ec52da91d509ae9e262a3309493d9366a2c2e22ec490ca7e57196f5",
      "blockNumber": "0x17b73af",
      "gasUsed": "0x20131",
      "effectiveGasPrice": "0xf4248",
      "blobGasPrice": "0x1",
      "from": "0x646dc5fc4009c4c84a424b6ae0f494b374bae1ce",
      "to": "0x73973d222c3fda5b2563d269da9e19cb125000f4",
      "contractAddress": null
    }
  ],
  "libraries": [],
  "pending": [],
  "returns": {},
  "timestamp": 1778453718938,
  "chain": 31337,
  "commit": "f87d399"
}