{
  "transactions": [
    {
      "hash": "0x0ed31c6baa4d4a7e2346ea3bf021347c492df77322ddbac642021967aa630088",
      "transactionType": "CALL",
      "contractName": null,
      "contractAddress": "0x73973d222c3fda5b2563d269da9e19cb125000f4",
      "function": "settle((uint256,address),(uint8,bool,address,uint256,address,uint256,address,uint64,uint64,uint256),(uint8,bytes32,bytes32))",
      "arguments": [
        "(332, 0x646dC5Fc4009C4C84a424B6aE0f494b374bAE1Ce)",
        "(1, false, 0x38D4dE42C9c5640A2799B372D27B01957E0a3673, 332, 0xC02aaA39b223FE8D0A0e5C4F27eAD9083C756Cc2, 14000000000000000, 0x1302F142Fc55B165647d3Bd5dec227f569A2A907, 1772369900, 1779695738, 9)",
        "(28, 0x40a08d62805269234d8d86755e2aaccdf81baf2114667a435544ac8e7ac1206b, 0x31f4b533ebcd629c0feb69179a378f5dc48dfeea1c8fb70740b1d622d717cab7)"
      ],
      "transaction": {
        "from": "0x646dc5fc4009c4c84a424b6ae0f494b374bae1ce",
        "to": "0x73973d222c3fda5b2563d269da9e19cb125000f4",
        "gas": "0x2c5dc",
        "value": "0x0",
        "input": "0x3bae3e79000000000000000000000000000000000000000000000000000000000000014c000000000000000000000000646dc5fc4009c4c84a424b6ae0f494b374bae1ce0000000000000000000000000000000000000000000000000000000000000001000000000000000000000000000000000000000000000000000000000000000000000000000000000000000038d4de42c9c5640a2799b372d27b01957e0a3673000000000000000000000000000000000000000000000000000000000000014c000000000000000000000000c02aaa39b223fe8d0a0e5c4f27ead9083c756cc20000000000000000000000000000000000000000000000000031bced02db00000000000000000000000000001302f142fc55b165647d3bd5dec227f569a2a9070000000000000000000000000000000000000000000000000000000069a437ec000000000000000000000000000000000000000000000000000000006a14007a0000000000000000000000000000000000000000000000000000000000000009000000000000000000000000000000000000000000000000000000000000001c40a08d62805269234d8d86755e2aaccdf81baf2114667a435544ac8e7ac1206b31f4b533ebcd629c0feb69179a378f5dc48dfeea1c8fb70740b1d622d717cab7",
        "nonce": "0x91",
        "chainId": "0x7a69"
      },
      "additionalContracts": [],
      "isFixedGasLimit": false
    }
  ],
  "receipts": [
    {
      "status": "0x1",
      "cumulativeGasUsed": "0x201ee",
      "logs": [
        {
          "address": "0xc02aaa39b223fe8d0a0e5c4f27ead9083c756cc2",
          "topics": [
            "0xddf252ad1be2c89b69c2b068fc378daa952ba7f163c4a11628f55a4df523b3ef",
            "0x0000000000000000000000001302f142fc55b165647d3bd5dec227f569a2a907",
            "0x0000000000000000000000001804c8ab1f12e6bbf3894d4083f33e07309d1f38"
          ],
          "data": "0x00000000000000000000000000000000000000000000000000007f544a44c000",
          "blockHash": "0x1d402a7947a920fcff265b24a491e4f6200bda3b092e8c5233f77e4b270a0a7f",
          "blockNumber": "0x17b73a4",
          "blockTimestamp": "0x69e198e0",
          "transactionHash": "0x0ed31c6baa4d4a7e2346ea3bf021347c492df77322ddbac642021967aa630088",
          "transactionIndex": "0x0",
          "logIndex": "0x0",
          "removed": false
        },
        {
          "address": "0xc02aaa39b223fe8d0a0e5c4f27ead9083c756cc2",
          "topics": [
            "0xddf252ad1be2c89b69c2b068fc378daa952ba7f163c4a11628f55a4df523b3ef",
            "0x0000000000000000000000001302f142fc55b165647d3bd5dec227f569a2a907",
            "0x000000000000000000000000646dc5fc4009c4c84a424b6ae0f494b374bae1ce"
          ],
          "data": "0x00000000000000000000000000000000000000000000000000313d98b8964000",
          "blockHash": "0x1d402a7947a920fcff265b24a491e4f6200bda3b092e8c5233f77e4b270a0a7f",
          "blockNumber": "0x17b73a4",
          "blockTimestamp": "0x69e198e0",
          "transactionHash": "0x0ed31c6baa4d4a7e2346ea3bf021347c492df77322ddbac642021967aa630088",
          "transactionIndex": "0x0",
          "logIndex": "0x1",
          "removed": false
        },
        {
          "address": "0x38d4de42c9c5640a2799b372d27b01957e0a3673",
          "topics": [
            "0xddf252ad1be2c89b69c2b068fc378daa952ba7f163c4a11628f55a4df523b3ef",
            "0x000000000000000000000000646dc5fc4009c4c84a424b6ae0f494b374bae1ce",
            "0x0000000000000000000000001302f142fc55b165647d3bd5dec227f569a2a907",
            "0x000000000000000000000000000000000000000000000000000000000000014c"
          ],
          "data": "0x",
          "blockHash": "0x1d402a7947a920fcff265b24a491e4f6200bda3b092e8c5233f77e4b270a0a7f",
          "blockNumber": "0x17b73a4",
          "blockTimestamp": "0x69e198e0",
          "transactionHash": "0x0ed31c6baa4d4a7e2346ea3bf021347c492df77322ddbac642021967aa630088",
          "transactionIndex": "0x0",
          "logIndex": "0x2",
          "removed": false
        },
        {
          "address": "0x73973d222c3fda5b2563d269da9e19cb125000f4",
          "topics": [
            "0xc0ac3eb1e8caef05b202043f34de8e3173fab712167584f7a2a9f4c302bd0e9c",
            "0x99adda5f444c605fb856da0dff01a9784863ef463f8cb1cec08425dddacf44d2",
            "0x00000000000000000000000038d4de42c9c5640a2799b372d27b01957e0a3673",
            "0x000000000000000000000000000000000000000000000000000000000000014c"
          ],
          "data": "0x000000000000000000000000646dc5fc4009c4c84a424b6ae0f494b374bae1ce0000000000000000000000001302f142fc55b165647d3bd5dec227f569a2a907000000000000000000000000c02aaa39b223fe8d0a0e5c4f27ead9083c756cc20000000000000000000000000000000000000000000000000031bced02db0000",
          "blockHash": "0x1d402a7947a920fcff265b24a491e4f6200bda3b092e8c5233f77e4b270a0a7f",
          "blockNumber": "0x17b73a4",
          "blockTimestamp": "0x69e198e0",
          "transactionHash": "0x0ed31c6baa4d4a7e2346ea3bf021347c492df77322ddbac642021967aa630088",
          "transactionIndex": "0x0",
          "logIndex": "0x3",
          "removed": false
        }
      ],
      "logsBloom": "0x00000000000000000000000000000000000000000002000000000000000000000000001000000000000000000000020002000000090000000004100000100000000002000000001021000008000000000000000000000000000000000000000000000000000000000005000000000000800000000000000000000010000000000000000000000000000004000000000000000000000008000000040000000000000000000000000000000000000100008000000000000080400000000000000000000002000004000000080200000000000000000000000000000000000000000100200000000000000040000000000000000000000000000000000000000000",
      "type": "0x2",
      "transactionHash": "0x0ed31c6baa4d4a7e2346ea3bf021347c492df77322ddbac642021967aa630088",
      "transactionIndex": "0x0",
      "blockHash": "0x1d402a7947a920fcff265b24a491e4f6200bda3b092e8c5233f77e4b270a0a7f",
      "blockNumber": "0x17b73a4",
      "gasUsed": "0x201ee",
      "effectiveGasPrice": "0xf4248",
      "blobGasPrice": "0x1",
      "from": "0x646dc5fc4009c4c84a424b6ae0f494b374bae1ce",
      "to": "0x73973d222c3fda5b2563d269da9e19cb125000f4",
      "contractAddress": null
    }
  ],
  "libraries": [],
  "pending": [],
  "returns": {},
  "timestamp": 1778453708929,
  "chain": 31337,
  "commit": "f87d399"
}