{
  "transactions": [
    {
      "hash": "0x74ec4a70df2540e2a8d8f95741d39b712d4ed1117133b8dfcbc04fcb807bfcf1",
      "transactionType": "CALL",
      "contractName": null,
      "contractAddress": "0x73973d222c3fda5b2563d269da9e19cb125000f4",
      "function": "settle((uint256,address),(uint8,bool,address,uint256,address,uint256,address,uint64,uint64,uint256),(uint8,bytes32,bytes32))",
      "arguments": [
        "(0, 0x08312E82df563A1639b81f49bb41247759700e30)",
        "(0, false, 0x38D4dE42C9c5640A2799B372D27B01957E0a3673, 433, 0xC02aaA39b223FE8D0A0e5C4F27eAD9083C756Cc2, 25000000000000000, 0x1302F142Fc55B165647d3Bd5dec227f569A2A907, 1771695212, 1780370426, 5)",
        "(28, 0x6f11f49cd14a0389e86c77a839d943f60c62f835d710b207f9dc9cb0c9bb6076, 0x10124f00730f81884f8af67fcac950a35bf58da1ce2ca4950e8460066c36a941)"
      ],
      "transaction": {
        "from": "0x08312e82df563a1639b81f49bb41247759700e30",
        "to": "0x73973d222c3fda5b2563d269da9e19cb125000f4",
        "gas": "0x2ee8a",
        "value": "0x0",
        "input": "0x3bae3e79000000000000000000000000000000000000000000000000000000000000000000000000000000000000000008312e82df563a1639b81f49bb41247759700e300000000000000000000000000000000000000000000000000000000000000000000000000000000000000000000000000000000000000000000000000000000000000000000000000000000038d4de42c9c5640a2799b372d27b01957e0a367300000000000000000000000000000000000000000000000000000000000001b1000000000000000000000000c02aaa39b223fe8d0a0e5c4f27ead9083c756cc20000000000000000000000000000000000000000000000000058d15e176280000000000000000000000000001302f142fc55b165647d3bd5dec227f569a2a907000000000000000000000000000000000000000000000000000000006999ec6c000000000000000000000000000000000000000000000000000000006a1e4bfa0000000000000000000000000000000000000000000000000000000000000005000000000000000000000000000000000000000000000000000000000000001c6f11f49cd14a0389e86c77a839d943f60c62f835d710b207f9dc9cb0c9bb607610124f00730f81884f8af67fcac950a35bf58da1ce2ca4950e8460066c36a941",
        "nonce": "0x68",
        "chainId": "0x7a69"
      },
      "additionalContracts": [],
      "isFixedGasLimit": false
    }
  ],
  "receipts": [
    {
      "status": "0x1",
      "cumulativeGasUsed": "0x20131",
      "logs": [
        {
          "address": "0xc02aaa39b223fe8d0a0e5c4f27ead9083c756cc2",
          "topics": [
            "0xddf252ad1be2c89b69c2b068fc378daa952ba7f163c4a11628f55a4df523b3ef",
            "0x00000000000000000000000008312e82df563a1639b81f49bb41247759700e30",
            "0x0000000000000000000000001804c8ab1f12e6bbf3894d4083f33e07309d1f38"
          ],
          "data": "0x0000000000000000000000000000000000000000000000000000e35fa931a000",
          "blockHash": "0xda80db16d4a1ac51e69db621ad42f4f7012077f8725e03a6e7d1db4f3f928879",
          "blockNumber": "0x17b73b3",
          "blockTimestamp": "0x69e46c18",
          "transactionHash": "0x74ec4a70df2540e2a8d8f95741d39b712d4ed1117133b8dfcbc04fcb807bfcf1",
          "transactionIndex": "0x0",
          "logIndex": "0x0",
          "removed": false
        },
        {
          "address": "0xc02aaa39b223fe8d0a0e5c4f27ead9083c756cc2",
          "topics": [
            "0xddf252ad1be2c89b69c2b068fc378daa952ba7f163c4a11628f55a4df523b3ef",
            "0x00000000000000000000000008312e82df563a1639b81f49bb41247759700e30",
            "0x0000000000000000000000001302f142fc55b165647d3bd5dec227f569a2a907"
          ],
          "data": "0x0000000000000000000000000000000000000000000000000057edfe6e30e000",
          "blockHash": "0xda80db16d4a1ac51e69db621ad42f4f7012077f8725e03a6e7d1db4f3f928879",
          "blockNumber": "0x17b73b3",
          "blockTimestamp": "0x69e46c18",
          "transactionHash": "0x74ec4a70df2540e2a8d8f95741d39b712d4ed1117133b8dfcbc04fcb807bfcf1",
          "transactionIndex": "0x0",
          "logIndex": "0x1",
          "removed": false
        },
        {
          "address": "0x38d4de42c9c5640a2799b372d27b01957e0a3673",
          "topics": [
            "0xddf252ad1be2c89b69c2b068fc378daa952ba7f163c4a11628f55a4df523b3ef",
            "0x0000000000000000000000001302f142fc55b165647d3bd5dec227f569a2a907",
            "0x00000000000000000000000008312e82df563a1639b81f49bb41247759700e30",
            "0x00000000000000000000000000000000000000000000000000000000000001b1"
          ],
          "data": "0x",
          "blockHash": "0xda80db16d4a1ac51e69db621ad42f4f7012077f8725e03a6e7d1db4f3f928879",
          "blockNumber": "0x17b73b3",
          "blockTimestamp": "0x69e46c18",
          "transactionHash": "0x74ec4a70df2540e2a8d8f95741d39b712d4ed1117133b8dfcbc04fcb807bfcf1",
          "transactionIndex": "0x0",
          "logIndex": "0x2",
          "removed": false
        },
        {
          "address": "0x73973d222c3fda5b2563d269da9e19cb125000f4",
          "topics": [
            "0xc0ac3eb1e8caef05b202043f34de8e3173fab712167584f7a2a9f4c302bd0e9c",
            "0xd4ca998efc4b5ccdfeab8a2c40a61fa58f633cc12c17c31c7e85d871fe441dd8",
            "0x00000000000000000000000038d4de42c9c5640a2799b372d27b01957e0a3673",
            "0x00000000000000000000000000000000000000000000000000000000000001b1"
          ],
          "data": "0x0000000000000000000000001302f142fc55b165647d3bd5dec227f569a2a90700000000000000000000000008312e82df563a1639b81f49bb41247759700e30000000000000000000000000c02aaa39b223fe8d0a0e5c4f27ead9083c756cc20000000000000000000000000000000000000000000000000058d15e17628000",
          "blockHash": "0xda80db16d4a1ac51e69db621ad42f4f7012077f8725e03a6e7d1db4f3f928879",
          "blockNumber": "0x17b73b3",
          "blockTimestamp": "0x69e46c18",
          "transactionHash": "0x74ec4a70df2540e2a8d8f95741d39b712d4ed1117133b8dfcbc04fcb807bfcf1",
          "transactionIndex": "0x0",
          "logIndex": "0x3",
          "removed": false
        }
      ],
      "logsBloom": "0x00100000000000000000000001000000000000000002000000000000000000000000000000100000000000000000020802000000080000000004100000100000000000000000001021400008000000000000000000000000000000000000000000000000020000000001000000000000000000000000000000000010000800000000000000000000000004000000000000000000000008000000800000000000000000000000000000000000000100000000000000000080400000000000000000000002000004000000000200000000000000000000000000000000000000000100200000000000000040000000000000000000004000000000000000000000",
      "type": "0x2",
      "transactionHash": "0x74ec4a70df2540e2a8d8f95741d39b712d4ed1117133b8dfcbc04fcb807bfcf1",
      "transactionIndex": "0x0",
      "blockHash": "0xda80db16d4a1ac51e69db621ad42f4f7012077f8725e03a6e7d1db4f3f928879",
      "blockNumber": "0x17b73b3",
      "gasUsed": "0x20131",
      "effectiveGasPrice": "0xf4248",
      "blobGasPrice": "0x1",
      "from": "0x08312e82df563a1639b81f49bb41247759700e30",
      "to": "0x73973d222c3fda5b2563d269da9e19cb125000f4",
      "contractAddress": null
    }
  ],
  "libraries": [],
  "pending": [],
  "returns": {},
  "timestamp": 1778453722363,
  "chain": 31337,
  "commit": "f87d399"
}