{
  "transactions": [
    {
      "hash": "0xc2a094127426bc4fff4431a7040885887e3cf76097cf9041070ec750cabab364",
      "transactionType": "CALL",
      "contractName": null,
      "contractAddress": "0x8fa71914948544c60e3379064567dcf0e6564d27",
      "function": "settle((uint256,address),(uint8,bool,address,uint256,address,uint256,address,uint64,uint64,uint256),(uint8,bytes32,bytes32))",
      "arguments": [
        "(0, 0x646dC5Fc4009C4C84a424B6aE0f494b374bAE1Ce)",
        "(0, false, 0xA5f104F8f78d5ba9AEC4a383c0927337Fd4E997B, 323, 0xC02aaA39b223FE8D0A0e5C4F27eAD9083C756Cc2, 31000000000000000, 0xc5aDfC119364CFE2297e4414dB04834d8702475B, 1772545876, 1779628410, 0)",
        "(27, 0xba4cad57fef3c2cdc24064892ff4ab696eda48b5054b38ca8508da2637343c14, 0x2ce76e41babcfd194e414b83b5a89c63b30554cfa7c706522cc5bbc0aec0ae9d)"
      ],
      "transaction": {
        "from": "0x646dc5fc4009c4c84a424b6ae0f494b374bae1ce",
        "to": "0x8fa71914948544c60e3379064567dcf0e6564d27",
        "gas": "0x2c4bb",
        "value": "0x0",
        "input": "0x3bae3e790000000000000000000000000000000000000000000000000000000000000000000000000000000000000000646dc5fc4009c4c84a424b6ae0f494b374bae1ce00000000000000000000000000000000000000000000000000000000000000000000000000000000000000000000000000000000000000000000000000000000000000000000000000000000a5f104f8f78d5ba9aec4a383c0927337fd4e997b0000000000000000000000000000000000000000000000000000000000000143000000000000000000000000c02aaa39b223fe8d0a0e5c4f27ead9083c756cc2000000000000000000000000000000000000000000000000006e2255f4098000000000000000000000000000c5adfc119364cfe2297e4414db04834d8702475b0000000000000000000000000000000000000000000000000000000069a6e754000000000000000000000000000000000000000000000000000000006a12f97a0000000000000000000000000000000000000000000000000000000000000000000000000000000000000000000000000000000000000000000000000000001bba4cad57fef3c2cdc24064892ff4ab696eda48b5054b38ca8508da2637343c142ce76e41babcfd194e414b83b5a89c63b30554cfa7c706522cc5bbc0aec0ae9d",
        "nonce": "0x45",
        "chainId": "0x7a69"
      },
      "additionalContracts": [],
      "isFixedGasLimit": false
    }
  ],
  "receipts": [
    {
      "status": "0x1",
      "cumulativeGasUsed": "0x2011d",
      "logs": [
        {
          "address": "0xc02aaa39b223fe8d0a0e5c4f27ead9083c756cc2",
          "topics": [
            "0xddf252ad1be2c89b69c2b068fc378daa952ba7f163c4a11628f55a4df523b3ef",
            "0x000000000000000000000000646dc5fc4009c4c84a424b6ae0f494b374bae1ce",
            "0x0000000000000000000000001804c8ab1f12e6bbf3894d4083f33e07309d1f38"
          ],
          "data": "0x000000000000000000000000000000000000000000000000000119f17fe16000",
          "blockHash": "0x97e0e619fa1e41785bc57d5619c31f6a62c81054f8ffd3c0814c2ddef57411e2",
          "blockNumber": "0x17b8326",
          "blockTimestamp": "0x69e1b9a6",
          "transactionHash": "0xc2a094127426bc4fff4431a7040885887e3cf76097cf9041070ec750cabab364",
          "transactionIndex": "0x0",
          "logIndex": "0x0",
          "removed": false
        },
        {
          "address": "0xc02aaa39b223fe8d0a0e5c4f27ead9083c756cc2",
          "topics": [
            "0xddf252ad1be2c89b69c2b068fc378daa952ba7f163c4a11628f55a4df523b3ef",
            "0x000000000000000000000000646dc5fc4009c4c84a424b6ae0f494b374bae1ce",
            "0x000000000000000000000000c5adfc119364cfe2297e4414db04834d8702475b"
          ],
          "data": "0x000000000000000000000000000000000000000000000000006d086474282000",
          "blockHash": "0x97e0e619fa1e41785bc57d5619c31f6a62c81054f8ffd3c0814c2ddef57411e2",
          "blockNumber": "0x17b8326",
          "blockTimestamp": "0x69e1b9a6",
          "transactionHash": "0xc2a094127426bc4fff4431a7040885887e3cf76097cf9041070ec750cabab364",
          "transactionIndex": "0x0",
          "logIndex": "0x1",
          "removed": false
        },
        {
          "address": "0xa5f104f8f78d5ba9aec4a383c0927337fd4e997b",
          "topics": [
            "0xddf252ad1be2c89b69c2b068fc378daa952ba7f163c4a11628f55a4df523b3ef",
            "0x000000000000000000000000c5adfc119364cfe2297e4414db04834d8702475b",
            "0x000000000000000000000000646dc5fc4009c4c84a424b6ae0f494b374bae1ce",
            "0x0000000000000000000000000000000000000000000000000000000000000143"
          ],
          "data": "0x",
          "blockHash": "0x97e0e619fa1e41785bc57d5619c31f6a62c81054f8ffd3c0814c2ddef57411e2",
          "blockNumber": "0x17b8326",
          "blockTimestamp": "0x69e1b9a6",
          "transactionHash": "0xc2a094127426bc4fff4431a7040885887e3cf76097cf9041070ec750cabab364",
          "transactionIndex": "0x0",
          "logIndex": "0x2",
          "removed": false
        },
        {
          "address": "0x8fa71914948544c60e3379064567dcf0e6564d27",
          "topics": [
            "0xc0ac3eb1e8caef05b202043f34de8e3173fab712167584f7a2a9f4c302bd0e9c",
            "0x38b0c0b5f50f2d6e6cbf0c97425edae71b1a8ad93f716baafceb9799e0c65f93",
            "0x000000000000000000000000a5f104f8f78d5ba9aec4a383c0927337fd4e997b",
            "0x0000000000000000000000000000000000000000000000000000000000000143"
          ],
          "data": "0x000000000000000000000000c5adfc119364cfe2297e4414db04834d8702475b000000000000000000000000646dc5fc4009c4c84a424b6ae0f494b374bae1ce000000000000000000000000c02aaa39b223fe8d0a0e5c4f27ead9083c756cc2000000000000000000000000000000000000000000000000006e2255f4098000",
          "blockHash": "0x97e0e619fa1e41785bc57d5619c31f6a62c81054f8ffd3c0814c2ddef57411e2",
          "blockNumber": "0x17b8326",
          "blockTimestamp": "0x69e1b9a6",
          "transactionHash": "0xc2a094127426bc4fff4431a7040885887e3cf76097cf9041070ec750cabab364",
          "transactionIndex": "0x0",
          "logIndex": "0x3",
          "removed": false
        }
      ],
      "logsBloom": "0x00000000000000000000010000000000000000000002000000000000000000000000000000000000000000000000004002000000090000000000000000100000000000000000000000010008000000000000000000000000080000000000000200000000000000000005000000000000000000002000000000000010200000000800000400040000000004000000000000000000000000000000000000000000000000200000000400000000000020000000000000000080000000000000000000000002000014000000000000000000000000000000000080000000000000100102200000000000000000000000000000000000000000002000000000000000",
      "type": "0x2",
      "transactionHash": "0xc2a094127426bc4fff4431a7040885887e3cf76097cf9041070ec750cabab364",
      "transactionIndex": "0x0",
      "blockHash": "0x97e0e619fa1e41785bc57d5619c31f6a62c81054f8ffd3c0814c2ddef57411e2",
      "blockNumber": "0x17b8326",
      "gasUsed": "0x2011d",
      "effectiveGasPrice": "0x1ba81c",
      "blobGasPrice": "0x1",
      "from": "0x646dc5fc4009c4c84a424b6ae0f494b374bae1ce",
      "to": "0x8fa71914948544c60e3379064567dcf0e6564d27",
      "contractAddress": null
    }
  ],
  "libraries": [],
  "pending": [],
  "returns": {},
  "timestamp": 1778506414363,
  "chain": 31337,
  "commit": "59e30a9"
}