{
  "transactions": [
    {
      "hash": "0x8e8419fcb559f7f841ffd019261194902be40e73e2ebe67abd43ab1e89a2e57a",
      "transactionType": "CALL",
      "contractName": null,
      "contractAddress": "0x8fa71914948544c60e3379064567dcf0e6564d27",
      "function": "settle((uint256,address),(uint8,bool,address,uint256,address,uint256,address,uint64,uint64,uint256),(uint8,bytes32,bytes32))",
      "arguments": [
        "(326, 0x2c2dbA75492E0C4A1D10B41303167aEC59586C9c)",
        "(1, false, 0xA5f104F8f78d5ba9AEC4a383c0927337Fd4E997B, 326, 0xC02aaA39b223FE8D0A0e5C4F27eAD9083C756Cc2, 6000000000000000, 0xc5aDfC119364CFE2297e4414dB04834d8702475B, 1773641387, 1778532899, 1)",
        "(28, 0x9c9517b2e727d2a6ab755e2f989de1d4fa0d36c0afc0b66658554573dfaf63ba, 0x78f7fad9aedd16601037faf18bf9efedb67cc130cc7fb67f00d92224863a2859)"
      ],
      "transaction": {
        "from": "0x2c2dba75492e0c4a1d10b41303167aec59586c9c",
        "to": "0x8fa71914948544c60e3379064567dcf0e6564d27",
        "gas": "0x2c5dc",
        "value": "0x0",
        "input": "0x3bae3e7900000000000000000000000000000000000000000000000000000000000001460000000000000000000000002c2dba75492e0c4a1d10b41303167aec59586c9c00000000000000000000000000000000000000000000000000000000000000010000000000000000000000000000000000000000000000000000000000000000000000000000000000000000a5f104f8f78d5ba9aec4a383c0927337fd4e997b0000000000000000000000000000000000000000000000000000000000000146000000000000000000000000c02aaa39b223fe8d0a0e5c4f27ead9083c756cc2000000000000000000000000000000000000000000000000001550f7dca70000000000000000000000000000c5adfc119364cfe2297e4414db04834d8702475b0000000000000000000000000000000000000000000000000000000069b79eab000000000000000000000000000000000000000000000000000000006a0242230000000000000000000000000000000000000000000000000000000000000001000000000000000000000000000000000000000000000000000000000000001c9c9517b2e727d2a6ab755e2f989de1d4fa0d36c0afc0b66658554573dfaf63ba78f7fad9aedd16601037faf18bf9efedb67cc130cc7fb67f00d92224863a2859",
        "nonce": "0x30",
        "chainId": "0x7a69"
      },
      "additionalContracts": [],
      "isFixedGasLimit": false
    }
  ],
  "receipts": [
    {
      "status": "0x1",
      "cumulativeGasUsed": "0x201ee",
      "logs": [
        {
          "address": "0xc02aaa39b223fe8d0a0e5c4f27ead9083c756cc2",
          "topics": [
            "0xddf252ad1be2c89b69c2b068fc378daa952ba7f163c4a11628f55a4df523b3ef",
            "0x000000000000000000000000c5adfc119364cfe2297e4414db04834d8702475b",
            "0x0000000000000000000000001804c8ab1f12e6bbf3894d4083f33e07309d1f38"
          ],
          "data": "0x00000000000000000000000000000000000000000000000000003691d6afc000",
          "blockHash": "0x66cfbf19952ac02bcdeb08ca1e01be2e548531b45b0a24413c80605d49b1e822",
          "blockNumber": "0x17b8335",
          "blockTimestamp": "0x69e6b62d",
          "transactionHash": "0x8e8419fcb559f7f841ffd019261194902be40e73e2ebe67abd43ab1e89a2e57a",
          "transactionIndex": "0x0",
          "logIndex": "0x0",
          "removed": false
        },
        {
          "address": "0xc02aaa39b223fe8d0a0e5c4f27ead9083c756cc2",
          "topics": [
            "0xddf252ad1be2c89b69c2b068fc378daa952ba7f163c4a11628f55a4df523b3ef",
            "0x000000000000000000000000c5adfc119364cfe2297e4414db04834d8702475b",
            "0x0000000000000000000000002c2dba75492e0c4a1d10b41303167aec59586c9c"
          ],
          "data": "0x00000000000000000000000000000000000000000000000000151a6605f74000",
          "blockHash": "0x66cfbf19952ac02bcdeb08ca1e01be2e548531b45b0a24413c80605d49b1e822",
          "blockNumber": "0x17b8335",
          "blockTimestamp": "0x69e6b62d",
          "transactionHash": "0x8e8419fcb559f7f841ffd019261194902be40e73e2ebe67abd43ab1e89a2e57a",
          "transactionIndex": "0x0",
          "logIndex": "0x1",
          "removed": false
        },
        {
          "address": "0xa5f104f8f78d5ba9aec4a383c0927337fd4e997b",
          "topics": [
            "0xddf252ad1be2c89b69c2b068fc378daa952ba7f163c4a11628f55a4df523b3ef",
            "0x0000000000000000000000002c2dba75492e0c4a1d10b41303167aec59586c9c",
            "0x000000000000000000000000c5adfc119364cfe2297e4414db04834d8702475b",
            "0x0000000000000000000000000000000000000000000000000000000000000146"
          ],
          "data": "0x",
          "blockHash": "0x66cfbf19952ac02bcdeb08ca1e01be2e548531b45b0a24413c80605d49b1e822",
          "blockNumber": "0x17b8335",
          "blockTimestamp": "0x69e6b62d",
          "transactionHash": "0x8e8419fcb559f7f841ffd019261194902be40e73e2ebe67abd43ab1e89a2e57a",
          "transactionIndex": "0x0",
          "logIndex": "0x2",
          "removed": false
        },
        {
          "address": "0x8fa71914948544c60e3379064567dcf0e6564d27",
          "topics": [
            "0xc0ac3eb1e8caef05b202043f34de8e3173fab712167584f7a2a9f4c302bd0e9c",
            "0x6534792d5f5c2e715af25d0c2cc7ad88e87cea4087789e71580ef7f3b7afa593",
            "0x000000000000000000000000a5f104f8f78d5ba9aec4a383c0927337fd4e997b",
            "0x0000000000000000000000000000000000000000000000000000000000000146"
          ],
          "data": "0x0000000000000000000000002c2dba75492e0c4a1d10b41303167aec59586c9c000000000000000000000000c5adfc119364cfe2297e4414db04834d8702475b000000000000000000000000c02aaa39b223fe8d0a0e5c4f27ead9083c756cc2000000000000000000000000000000000000000000000000001550f7dca70000",
          "blockHash": "0x66cfbf19952ac02bcdeb08ca1e01be2e548531b45b0a24413c80605d49b1e822",
          "blockNumber": "0x17b8335",
          "blockTimestamp": "0x69e6b62d",
          "transactionHash": "0x8e8419fcb559f7f841ffd019261194902be40e73e2ebe67abd43ab1e89a2e57a",
          "transactionIndex": "0x0",
          "logIndex": "0x3",
          "removed": false
        }
      ],
      "logsBloom": "0x00000000000000040000010000000000000000000000000000000000000000000000000000000000000000000000000002000100080000000000000800100000000200000000000000010008000000000000000000000000080000000010000200000000000004000001000000000000000000000000000000000010200000000800000000040000000004000000000000000000000000008000000000000000000000200000000400000000000020000000000000000080000000000000000000000002000004000000000000000000000000000000000080000000000000000100200000000000000000000000000000000020000000002000000000000000",
      "type": "0x2",
      "transactionHash": "0x8e8419fcb559f7f841ffd019261194902be40e73e2ebe67abd43ab1e89a2e57a",
      "transactionIndex": "0x0",
      "blockHash": "0x66cfbf19952ac02bcdeb08ca1e01be2e548531b45b0a24413c80605d49b1e822",
      "blockNumber": "0x17b8335",
      "gasUsed": "0x201ee",
      "effectiveGasPrice": "0x1ba81c",
      "blobGasPrice": "0x1",
      "from": "0x2c2dba75492e0c4a1d10b41303167aec59586c9c",
      "to": "0x8fa71914948544c60e3379064567dcf0e6564d27",
      "contractAddress": null
    }
  ],
  "libraries": [],
  "pending": [],
  "returns": {},
  "timestamp": 1778506433184,
  "chain": 31337,
  "commit": "59e30a9"
}