{
  "transactions": [
    {
      "hash": "0xb1638e243b88e2fa8e00949a457a61e227bfb805b972f201f1796acd84767275",
      "transactionType": "CALL",
      "contractName": null,
      "contractAddress": "0x8fa71914948544c60e3379064567dcf0e6564d27",
      "function": "settle((uint256,address),(uint8,bool,address,uint256,address,uint256,address,uint64,uint64,uint256),(uint8,bytes32,bytes32))",
      "arguments": [
        "(0, 0x646dC5Fc4009C4C84a424B6aE0f494b374bAE1Ce)",
        "(0, false, 0xA5f104F8f78d5ba9AEC4a383c0927337Fd4E997B, 351, 0xC02aaA39b223FE8D0A0e5C4F27eAD9083C756Cc2, 45000000000000000, 0xe3745C151faB59B0740f4312b2B027F07D096639, 1771859687, 1780314599, 12)",
        "(27, 0x765a0a7b048fa88d7bb9812df945f616ef009f2e30a7d76da73801f91fb0478c, 0x18a93e34e6928588e3585f202e91137b6cae1090a0db4cc6007c37aa65f16ae5)"
      ],
      "transaction": {
        "from": "0x646dc5fc4009c4c84a424b6ae0f494b374bae1ce",
        "to": "0x8fa71914948544c60e3379064567dcf0e6564d27",
        "gas": "0x2ee5b",
        "value": "0x0",
        "input": "0x3bae3e790000000000000000000000000000000000000000000000000000000000000000000000000000000000000000646dc5fc4009c4c84a424b6ae0f494b374bae1ce00000000000000000000000000000000000000000000000000000000000000000000000000000000000000000000000000000000000000000000000000000000000000000000000000000000a5f104f8f78d5ba9aec4a383c0927337fd4e997b000000000000000000000000000000000000000000000000000000000000015f000000000000000000000000c02aaa39b223fe8d0a0e5c4f27ead9083c756cc2000000000000000000000000000000000000000000000000009fdf42f6e48000000000000000000000000000e3745c151fab59b0740f4312b2b027f07d09663900000000000000000000000000000000000000000000000000000000699c6ee7000000000000000000000000000000000000000000000000000000006a1d71e7000000000000000000000000000000000000000000000000000000000000000c000000000000000000000000000000000000000000000000000000000000001b765a0a7b048fa88d7bb9812df945f616ef009f2e30a7d76da73801f91fb0478c18a93e34e6928588e3585f202e91137b6cae1090a0db4cc6007c37aa65f16ae5",
        "nonce": "0x5f",
        "chainId": "0x7a69"
      },
      "additionalContracts": [],
      "isFixedGasLimit": false
    }
  ],
  "receipts": [
    {
      "status": "0x1",
      "cumulativeGasUsed": "0x20111",
      "logs": [
        {
          "address": "0xc02aaa39b223fe8d0a0e5c4f27ead9083c756cc2",
          "topics": [
            "0xddf252ad1be2c89b69c2b068fc378daa952ba7f163c4a11628f55a4df523b3ef",
            "0x000000000000000000000000646dc5fc4009c4c84a424b6ae0f494b374bae1ce",
            "0x0000000000000000000000001804c8ab1f12e6bbf3894d4083f33e07309d1f38"
          ],
          "data": "0x00000000000000000000000000000000000000000000000000019945ca262000",
          "blockHash": "0x4c0726cf30903a4a44057d61f4c7dd01185366f69c4b2ac9900467ddea73244a",
          "blockNumber": "0x17b8381",
          "blockTimestamp": "0x69f8a065",
          "transactionHash": "0xb1638e243b88e2fa8e00949a457a61e227bfb805b972f201f1796acd84767275",
          "transactionIndex": "0x0",
          "logIndex": "0x0",
          "removed": false
        },
        {
          "address": "0xc02aaa39b223fe8d0a0e5c4f27ead9083c756cc2",
          "topics": [
            "0xddf252ad1be2c89b69c2b068fc378daa952ba7f163c4a11628f55a4df523b3ef",
            "0x000000000000000000000000646dc5fc4009c4c84a424b6ae0f494b374bae1ce",
            "0x000000000000000000000000e3745c151fab59b0740f4312b2b027f07d096639"
          ],
          "data": "0x000000000000000000000000000000000000000000000000009e45fd2cbe6000",
          "blockHash": "0x4c0726cf30903a4a44057d61f4c7dd01185366f69c4b2ac9900467ddea73244a",
          "blockNumber": "0x17b8381",
          "blockTimestamp": "0x69f8a065",
          "transactionHash": "0xb1638e243b88e2fa8e00949a457a61e227bfb805b972f201f1796acd84767275",
          "transactionIndex": "0x0",
          "logIndex": "0x1",
          "removed": false
        },
        {
          "address": "0xa5f104f8f78d5ba9aec4a383c0927337fd4e997b",
          "topics": [
            "0xddf252ad1be2c89b69c2b068fc378daa952ba7f163c4a11628f55a4df523b3ef",
            "0x000000000000000000000000e3745c151fab59b0740f4312b2b027f07d096639",
            "0x000000000000000000000000646dc5fc4009c4c84a424b6ae0f494b374bae1ce",
            "0x000000000000000000000000000000000000000000000000000000000000015f"
          ],
          "data": "0x",
          "blockHash": "0x4c0726cf30903a4a44057d61f4c7dd01185366f69c4b2ac9900467ddea73244a",
          "blockNumber": "0x17b8381",
          "blockTimestamp": "0x69f8a065",
          "transactionHash": "0xb1638e243b88e2fa8e00949a457a61e227bfb805b972f201f1796acd84767275",
          "transactionIndex": "0x0",
          "logIndex": "0x2",
          "removed": false
        },
        {
          "address": "0x8fa71914948544c60e3379064567dcf0e6564d27",
          "topics": [
            "0xc0ac3eb1e8caef05b202043f34de8e3173fab712167584f7a2a9f4c302bd0e9c",
            "0xd98b7941820a779a84c892ae230cb4da3301f24a11fcac2478dbb5d74ac03207",
            "0x000000000000000000000000a5f104f8f78d5ba9aec4a383c0927337fd4e997b",
            "0x000000000000000000000000000000000000000000000000000000000000015f"
          ],
          "data": "0x000000000000000000000000e3745c151fab59b0740f4312b2b027f07d096639000000000000000000000000646dc5fc4009c4c84a424b6ae0f494b374bae1ce000000000000000000000000c02aaa39b223fe8d0a0e5c4f27ead9083c756cc2000000000000000000000000000000000000000000000000009fdf42f6e48000",
          "blockHash": "0x4c0726cf30903a4a44057d61f4c7dd01185366f69c4b2ac9900467ddea73244a",
          "blockNumber": "0x17b8381",
          "blockTimestamp": "0x69f8a065",
          "transactionHash": "0xb1638e243b88e2fa8e00949a457a61e227bfb805b972f201f1796acd84767275",
          "transactionIndex": "0x0",
          "logIndex": "0x3",
          "removed": false
        }
      ],
      "logsBloom": "0x00000000000000000000010000000000000000000102000000000000000000000000000000000000000000000000000042000200090000000000000000100000000000000000000000010028000000000000000000000000080000000000000000000000000000000005000001000000000000000000000000000010200000000800000000040000000004000000000000000000000000000000000000000000000000200000000400000000000000000000000000080080000000000001000000000002000004000000000000000000000000000000000080000040000000000100200000000000000000000000000000000000000000000400000000000000",
      "type": "0x2",
      "transactionHash": "0xb1638e243b88e2fa8e00949a457a61e227bfb805b972f201f1796acd84767275",
      "transactionIndex": "0x0",
      "blockHash": "0x4c0726cf30903a4a44057d61f4c7dd01185366f69c4b2ac9900467ddea73244a",
      "blockNumber": "0x17b8381",
      "gasUsed": "0x20111",
      "effectiveGasPrice": "0x1ba81c",
      "blobGasPrice": "0x1",
      "from": "0x646dc5fc4009c4c84a424b6ae0f494b374bae1ce",
      "to": "0x8fa71914948544c60e3379064567dcf0e6564d27",
      "contractAddress": null
    }
  ],
  "libraries": [],
  "pending": [],
  "returns": {},
  "timestamp": 1778506510416,
  "chain": 31337,
  "commit": "59e30a9"
}