{
  "transactions": [
    {
      "hash": "0xb51a0dd2b853e6434edcb0e179498d6f8cc4020909b909336fff2f6b666192f3",
      "transactionType": "CALL",
      "contractName": null,
      "contractAddress": "0x8fa71914948544c60e3379064567dcf0e6564d27",
      "function": "settle((uint256,address),(uint8,bool,address,uint256,address,uint256,address,uint64,uint64,uint256),(uint8,bytes32,bytes32))",
      "arguments": [
        "(0, 0x08312E82df563A1639b81f49bb41247759700e30)",
        "(0, false, 0xA5f104F8f78d5ba9AEC4a383c0927337Fd4E997B, 455, 0xC02aaA39b223FE8D0A0e5C4F27eAD9083C756Cc2, 148000000000000000, 0xe3745C151faB59B0740f4312b2B027F07D096639, 1772572142, 1779602144, 20)",
        "(28, 0xc75f1444f8cae3861649dd8ec5e2e6b71ad88b10a4fbf2eb014570d0bdedc211, 0x67bb815a7e8bb39700690c86f94d3b1c610543464b8f1b0f8f3a43e47a4bab20)"
      ],
      "transaction": {
        "from": "0x08312e82df563a1639b81f49bb41247759700e30",
        "to": "0x8fa71914948544c60e3379064567dcf0e6564d27",
        "gas": "0x2ee8a",
        "value": "0x0",
        "input": "0x3bae3e79000000000000000000000000000000000000000000000000000000000000000000000000000000000000000008312e82df563a1639b81f49bb41247759700e3000000000000000000000000000000000000000000000000000000000000000000000000000000000000000000000000000000000000000000000000000000000000000000000000000000000a5f104f8f78d5ba9aec4a383c0927337fd4e997b00000000000000000000000000000000000000000000000000000000000001c7000000000000000000000000c02aaa39b223fe8d0a0e5c4f27ead9083c756cc2000000000000000000000000000000000000000000000000020dcd3742c20000000000000000000000000000e3745c151fab59b0740f4312b2b027f07d0966390000000000000000000000000000000000000000000000000000000069a74dee000000000000000000000000000000000000000000000000000000006a1292e00000000000000000000000000000000000000000000000000000000000000014000000000000000000000000000000000000000000000000000000000000001cc75f1444f8cae3861649dd8ec5e2e6b71ad88b10a4fbf2eb014570d0bdedc21167bb815a7e8bb39700690c86f94d3b1c610543464b8f1b0f8f3a43e47a4bab20",
        "nonce": "0x43",
        "chainId": "0x7a69"
      },
      "additionalContracts": [],
      "isFixedGasLimit": false
    }
  ],
  "receipts": [
    {
      "status": "0x1",
      "cumulativeGasUsed": "0x20131",
      "logs": [
        {
          "address": "0xc02aaa39b223fe8d0a0e5c4f27ead9083c756cc2",
          "topics": [
            "0xddf252ad1be2c89b69c2b068fc378daa952ba7f163c4a11628f55a4df523b3ef",
            "0x00000000000000000000000008312e82df563a1639b81f49bb41247759700e30",
            "0x0000000000000000000000001804c8ab1f12e6bbf3894d4083f33e07309d1f38"
          ],
          "data": "0x0000000000000000000000000000000000000000000000000005420d5a448000",
          "blockHash": "0x777c1be282981d324d087adaced9c7438ac9ab59230f1d938ba9ed73c82f0827",
          "blockNumber": "0x17b839a",
          "blockTimestamp": "0x69feb2ba",
          "transactionHash": "0xb51a0dd2b853e6434edcb0e179498d6f8cc4020909b909336fff2f6b666192f3",
          "transactionIndex": "0x0",
          "logIndex": "0x0",
          "removed": false
        },
        {
          "address": "0xc02aaa39b223fe8d0a0e5c4f27ead9083c756cc2",
          "topics": [
            "0xddf252ad1be2c89b69c2b068fc378daa952ba7f163c4a11628f55a4df523b3ef",
            "0x00000000000000000000000008312e82df563a1639b81f49bb41247759700e30",
            "0x000000000000000000000000e3745c151fab59b0740f4312b2b027f07d096639"
          ],
          "data": "0x00000000000000000000000000000000000000000000000002088b29e87d8000",
          "blockHash": "0x777c1be282981d324d087adaced9c7438ac9ab59230f1d938ba9ed73c82f0827",
          "blockNumber": "0x17b839a",
          "blockTimestamp": "0x69feb2ba",
          "transactionHash": "0xb51a0dd2b853e6434edcb0e179498d6f8cc4020909b909336fff2f6b666192f3",
          "transactionIndex": "0x0",
          "logIndex": "0x1",
          "removed": false
        },
        {
          "address": "0xa5f104f8f78d5ba9aec4a383c0927337fd4e997b",
          "topics": [
            "0xddf252ad1be2c89b69c2b068fc378daa952ba7f163c4a11628f55a4df523b3ef",
            "0x000000000000000000000000e3745c151fab59b0740f4312b2b027f07d096639",
            "0x00000000000000000000000008312e82df563a1639b81f49bb41247759700e30",
            "0x00000000000000000000000000000000000000000000000000000000000001c7"
          ],
          "data": "0x",
          "blockHash": "0x777c1be282981d324d087adaced9c7438ac9ab59230f1d938ba9ed73c82f0827",
          "blockNumber": "0x17b839a",
          "blockTimestamp": "0x69feb2ba",
          "transactionHash": "0xb51a0dd2b853e6434edcb0e179498d6f8cc4020909b909336fff2f6b666192f3",
          "transactionIndex": "0x0",
          "logIndex": "0x2",
          "removed": false
        },
        {
          "address": "0x8fa71914948544c60e3379064567dcf0e6564d27",
          "topics": [
            "0xc0ac3eb1e8caef05b202043f34de8e3173fab712167584f7a2a9f4c302bd0e9c",
            "0xb967f33f8361d56a457e494cfdf1a3b54c54d383e71e7db4919bb509ded0cf98",
            "0x000000000000000000000000a5f104f8f78d5ba9aec4a383c0927337fd4e997b",
            "0x00000000000000000000000000000000000000000000000000000000000001c7"
          ],
          "data": "0x000000000000000000000000e3745c151fab59b0740f4312b2b027f07d09663900000000000000000000000008312e82df563a1639b81f49bb41247759700e30000000000000000000000000c02aaa39b223fe8d0a0e5c4f27ead9083c756cc2000000000000000000000000000000000000000000000000020dcd3742c20000",
          "blockHash": "0x777c1be282981d324d087adaced9c7438ac9ab59230f1d938ba9ed73c82f0827",
          "blockNumber": "0x17b839a",
          "blockTimestamp": "0x69feb2ba",
          "transactionHash": "0xb51a0dd2b853e6434edcb0e179498d6f8cc4020909b909336fff2f6b666192f3",
          "transactionIndex": "0x0",
          "logIndex": "0x3",
          "removed": false
        }
      ],
      "logsBloom": "0x00000000000000000000014001000000000020000100000000000000000000000000000000100000000000000000000042000000080000000000000000100000000000000000000000010008000000000000000000000000080000000000000000000000000000000001000000000000000000000000000000000010200000000800000000040000000004000000000000000000000000000000000000000200000000200000000400000000000000010000000000000080000000000000000000000002000004000000000000000000000000000000000080000240000000000100200000000000000000000000000000000000004000000000000000004000",
      "type": "0x2",
      "transactionHash": "0xb51a0dd2b853e6434edcb0e179498d6f8cc4020909b909336fff2f6b666192f3",
      "transactionIndex": "0x0",
      "blockHash": "0x777c1be282981d324d087adaced9c7438ac9ab59230f1d938ba9ed73c82f0827",
      "blockNumber": "0x17b839a",
      "gasUsed": "0x20131",
      "effectiveGasPrice": "0x1ba81c",
      "blobGasPrice": "0x1",
      "from": "0x08312e82df563a1639b81f49bb41247759700e30",
      "to": "0x8fa71914948544c60e3379064567dcf0e6564d27",
      "contractAddress": null
    }
  ],
  "libraries": [],
  "pending": [],
  "returns": {},
  "timestamp": 1778506544087,
  "chain": 31337,
  "commit": "59e30a9"
}