{
  "transactions": [
    {
      "hash": "0x40a41352680c654886515a423b877509f357eee67e25b6fb105c0319c859917e",
      "transactionType": "CALL",
      "contractName": null,
      "contractAddress": "0x73973d222c3fda5b2563d269da9e19cb125000f4",
      "function": "settle((uint256,address),(uint8,bool,address,uint256,address,uint256,address,uint64,uint64,uint256),(uint8,bytes32,bytes32))",
      "arguments": [
        "(407, 0x646dC5Fc4009C4C84a424B6aE0f494b374bAE1Ce)",
        "(1, false, 0x38D4dE42C9c5640A2799B372D27B01957E0a3673, 407, 0xC02aaA39b223FE8D0A0e5C4F27eAD9083C756Cc2, 64000000000000000, 0x2c2dbA75492E0C4A1D10B41303167aEC59586C9c, 1773225900, 1778839738, 7)",
        "(28, 0xfcb6bbdd4da5d0ea1e5f44ee83276cc865d140247ac9bfb11dc32f3a020fdae2, 0x7ba944c85937b5729af281971583e39968adc049e42baeb6745395221d2dc56f)"
      ],
      "transaction": {
        "from": "0x646dc5fc4009c4c84a424b6ae0f494b374bae1ce",
        "to": "0x73973d222c3fda5b2563d269da9e19cb125000f4",
        "gas": "0x2efb0",
        "value": "0x0",
        "input": "0x3bae3e790000000000000000000000000000000000000000000000000000000000000197000000000000000000000000646dc5fc4009c4c84a424b6ae0f494b374bae1ce0000000000000000000000000000000000000000000000000000000000000001000000000000000000000000000000000000000000000000000000000000000000000000000000000000000038d4de42c9c5640a2799b372d27b01957e0a36730000000000000000000000000000000000000000000000000000000000000197000000000000000000000000c02aaa39b223fe8d0a0e5c4f27ead9083c756cc200000000000000000000000000000000000000000000000000e35fa931a000000000000000000000000000002c2dba75492e0c4a1d10b41303167aec59586c9c0000000000000000000000000000000000000000000000000000000069b147ac000000000000000000000000000000000000000000000000000000006a06f0ba0000000000000000000000000000000000000000000000000000000000000007000000000000000000000000000000000000000000000000000000000000001cfcb6bbdd4da5d0ea1e5f44ee83276cc865d140247ac9bfb11dc32f3a020fdae27ba944c85937b5729af281971583e39968adc049e42baeb6745395221d2dc56f",
        "nonce": "0x9c",
        "chainId": "0x7a69"
      },
      "additionalContracts": [],
      "isFixedGasLimit": false
    }
  ],
  "receipts": [
    {
      "status": "0x1",
      "cumulativeGasUsed": "0x201fa",
      "logs": [
        {
          "address": "0xc02aaa39b223fe8d0a0e5c4f27ead9083c756cc2",
          "topics": [
            "0xddf252ad1be2c89b69c2b068fc378daa952ba7f163c4a11628f55a4df523b3ef",
            "0x0000000000000000000000002c2dba75492e0c4a1d10b41303167aec59586c9c",
            "0x0000000000000000000000001804c8ab1f12e6bbf3894d4083f33e07309d1f38"
          ],
          "data": "0x000000000000000000000000000000000000000000000000000246139ca80000",
          "blockHash": "0x40a8d64e9972872ab64fe0a2e7a908f92b4d321194951ca7c1134eee561ee892",
          "blockNumber": "0x17b73c4",
          "blockTimestamp": "0x69e76a55",
          "transactionHash": "0x40a41352680c654886515a423b877509f357eee67e25b6fb105c0319c859917e",
          "transactionIndex": "0x0",
          "logIndex": "0x0",
          "removed": false
        },
        {
          "address": "0xc02aaa39b223fe8d0a0e5c4f27ead9083c756cc2",
          "topics": [
            "0xddf252ad1be2c89b69c2b068fc378daa952ba7f163c4a11628f55a4df523b3ef",
            "0x0000000000000000000000002c2dba75492e0c4a1d10b41303167aec59586c9c",
            "0x000000000000000000000000646dc5fc4009c4c84a424b6ae0f494b374bae1ce"
          ],
          "data": "0x00000000000000000000000000000000000000000000000000e1199594f80000",
          "blockHash": "0x40a8d64e9972872ab64fe0a2e7a908f92b4d321194951ca7c1134eee561ee892",
          "blockNumber": "0x17b73c4",
          "blockTimestamp": "0x69e76a55",
          "transactionHash": "0x40a41352680c654886515a423b877509f357eee67e25b6fb105c0319c859917e",
          "transactionIndex": "0x0",
          "logIndex": "0x1",
          "removed": false
        },
        {
          "address": "0x38d4de42c9c5640a2799b372d27b01957e0a3673",
          "topics": [
            "0xddf252ad1be2c89b69c2b068fc378daa952ba7f163c4a11628f55a4df523b3ef",
            "0x000000000000000000000000646dc5fc4009c4c84a424b6ae0f494b374bae1ce",
            "0x0000000000000000000000002c2dba75492e0c4a1d10b41303167aec59586c9c",
            "0x0000000000000000000000000000000000000000000000000000000000000197"
          ],
          "data": "0x",
          "blockHash": "0x40a8d64e9972872ab64fe0a2e7a908f92b4d321194951ca7c1134eee561ee892",
          "blockNumber": "0x17b73c4",
          "blockTimestamp": "0x69e76a55",
          "transactionHash": "0x40a41352680c654886515a423b877509f357eee67e25b6fb105c0319c859917e",
          "transactionIndex": "0x0",
          "logIndex": "0x2",
          "removed": false
        },
        {
          "address": "0x73973d222c3fda5b2563d269da9e19cb125000f4",
          "topics": [
            "0xc0ac3eb1e8caef05b202043f34de8e3173fab712167584f7a2a9f4c302bd0e9c",
            "0xe7c811c7f88789d93c73f80c016bbf002e3c2759a5b67d40275060a0fdf9a828",
            "0x00000000000000000000000038d4de42c9c5640a2799b372d27b01957e0a3673",
            "0x0000000000000000000000000000000000000000000000000000000000000197"
          ],
          "data": "0x000000000000000000000000646dc5fc4009c4c84a424b6ae0f494b374bae1ce0000000000000000000000002c2dba75492e0c4a1d10b41303167aec59586c9c000000000000000000000000c02aaa39b223fe8d0a0e5c4f27ead9083c756cc200000000000000000000000000000000000000000000000000e35fa931a00000",
          "blockHash": "0x40a8d64e9972872ab64fe0a2e7a908f92b4d321194951ca7c1134eee561ee892",
          "blockNumber": "0x17b73c4",
          "blockTimestamp": "0x69e76a55",
          "transactionHash": "0x40a41352680c654886515a423b877509f357eee67e25b6fb105c0319c859917e",
          "transactionIndex": "0x0",
          "logIndex": "0x3",
          "removed": false
        }
      ],
      "logsBloom": "0x00000000000000000000400000000000000000000002000000000000000000000000000000000000000000100008020002000000090000000004100800100000000200000000001021000008000000000000000000000000000000000000000000000000000004000005000000000000000000000010000000000010040000000000000000000000000004000000000000000000000048000000000000000000000000000000000000000000000000000000000000000080400000000000000000000002000004000000000000000000000000000000000000000000000000000100200000000000000000000000000000000000000000000000000000000000",
      "type": "0x2",
      "transactionHash": "0x40a41352680c654886515a423b877509f357eee67e25b6fb105c0319c859917e",
      "transactionIndex": "0x0",
      "blockHash": "0x40a8d64e9972872ab64fe0a2e7a908f92b4d321194951ca7c1134eee561ee892",
      "blockNumber": "0x17b73c4",
      "gasUsed": "0x201fa",
      "effectiveGasPrice": "0xf4248",
      "blobGasPrice": "0x1",
      "from": "0x646dc5fc4009c4c84a424b6ae0f494b374bae1ce",
      "to": "0x73973d222c3fda5b2563d269da9e19cb125000f4",
      "contractAddress": null
    }
  ],
  "libraries": [],
  "pending": [],
  "returns": {},
  "timestamp": 1778453772600,
  "chain": 31337,
  "commit": "f87d399"
}