{
  "transactions": [
    {
      "hash": "0xe5d256ce656506b0c555ee6471dd465d0a78bb5bd9c275d23ed1ef1d96486a62",
      "transactionType": "CALL",
      "contractName": null,
      "contractAddress": "0x73973d222c3fda5b2563d269da9e19cb125000f4",
      "function": "settle((uint256,address),(uint8,bool,address,uint256,address,uint256,address,uint64,uint64,uint256),(uint8,bytes32,bytes32))",
      "arguments": [
        "(249, 0x2c2dbA75492E0C4A1D10B41303167aEC59586C9c)",
        "(1, false, 0x38D4dE42C9c5640A2799B372D27B01957E0a3673, 249, 0xC02aaA39b223FE8D0A0e5C4F27eAD9083C756Cc2, 22000000000000000, 0x4b75AeC40561C03e03d4D1C421dF194a3031A134, 1772373667, 1779691971, 6)",
        "(27, 0xe0d0c427b7b12a673dc125cdabdaf5d9addf44e9a0598dfe52df9562c13be96c, 0x3e280c954ca62eacc7c3859917573276da290ce04d59a21b7fcab52c7fb02784)"
      ],
      "transaction": {
        "from": "0x2c2dba75492e0c4a1d10b41303167aec59586c9c",
        "to": "0x73973d222c3fda5b2563d269da9e19cb125000f4",
        "gas": "0x2c5b0",
        "value": "0x0",
        "input": "0x3bae3e7900000000000000000000000000000000000000000000000000000000000000f90000000000000000000000002c2dba75492e0c4a1d10b41303167aec59586c9c0000000000000000000000000000000000000000000000000000000000000001000000000000000000000000000000000000000000000000000000000000000000000000000000000000000038d4de42c9c5640a2799b372d27b01957e0a367300000000000000000000000000000000000000000000000000000000000000f9000000000000000000000000c02aaa39b223fe8d0a0e5c4f27ead9083c756cc2000000000000000000000000000000000000000000000000004e28e2290f00000000000000000000000000004b75aec40561c03e03d4d1c421df194a3031a1340000000000000000000000000000000000000000000000000000000069a446a3000000000000000000000000000000000000000000000000000000006a13f1c30000000000000000000000000000000000000000000000000000000000000006000000000000000000000000000000000000000000000000000000000000001be0d0c427b7b12a673dc125cdabdaf5d9addf44e9a0598dfe52df9562c13be96c3e280c954ca62eacc7c3859917573276da290ce04d59a21b7fcab52c7fb02784",
        "nonce": "0x6e",
        "chainId": "0x7a69"
      },
      "additionalContracts": [],
      "isFixedGasLimit": false
    }
  ],
  "receipts": [
    {
      "status": "0x1",
      "cumulativeGasUsed": "0x201ce",
      "logs": [
        {
          "address": "0xc02aaa39b223fe8d0a0e5c4f27ead9083c756cc2",
          "topics": [
            "0xddf252ad1be2c89b69c2b068fc378daa952ba7f163c4a11628f55a4df523b3ef",
            "0x0000000000000000000000004b75aec40561c03e03d4d1c421df194a3031a134",
            "0x0000000000000000000000001804c8ab1f12e6bbf3894d4083f33e07309d1f38"
          ],
          "data": "0x0000000000000000000000000000000000000000000000000000c816bdd9c000",
          "blockHash": "0x290ac074127526b9129d91db6e76357eab40c347e710c092bdb5439597b746a8",
          "blockNumber": "0x17b73d9",
          "blockTimestamp": "0x69eb0127",
          "transactionHash": "0xe5d256ce656506b0c555ee6471dd465d0a78bb5bd9c275d23ed1ef1d96486a62",
          "transactionIndex": "0x0",
          "logIndex": "0x0",
          "removed": false
        },
        {
          "address": "0xc02aaa39b223fe8d0a0e5c4f27ead9083c756cc2",
          "topics": [
            "0xddf252ad1be2c89b69c2b068fc378daa952ba7f163c4a11628f55a4df523b3ef",
            "0x0000000000000000000000004b75aec40561c03e03d4d1c421df194a3031a134",
            "0x0000000000000000000000002c2dba75492e0c4a1d10b41303167aec59586c9c"
          ],
          "data": "0x000000000000000000000000000000000000000000000000004d60cb6b354000",
          "blockHash": "0x290ac074127526b9129d91db6e76357eab40c347e710c092bdb5439597b746a8",
          "blockNumber": "0x17b73d9",
          "blockTimestamp": "0x69eb0127",
          "transactionHash": "0xe5d256ce656506b0c555ee6471dd465d0a78bb5bd9c275d23ed1ef1d96486a62",
          "transactionIndex": "0x0",
          "logIndex": "0x1",
          "removed": false
        },
        {
          "address": "0x38d4de42c9c5640a2799b372d27b01957e0a3673",
          "topics": [
            "0xddf252ad1be2c89b69c2b068fc378daa952ba7f163c4a11628f55a4df523b3ef",
            "0x0000000000000000000000002c2dba75492e0c4a1d10b41303167aec59586c9c",
            "0x0000000000000000000000004b75aec40561c03e03d4d1c421df194a3031a134",
            "0x00000000000000000000000000000000000000000000000000000000000000f9"
          ],
          "data": "0x",
          "blockHash": "0x290ac074127526b9129d91db6e76357eab40c347e710c092bdb5439597b746a8",
          "blockNumber": "0x17b73d9",
          "blockTimestamp": "0x69eb0127",
          "transactionHash": "0xe5d256ce656506b0c555ee6471dd465d0a78bb5bd9c275d23ed1ef1d96486a62",
          "transactionIndex": "0x0",
          "logIndex": "0x2",
          "removed": false
        },
        {
          "address": "0x73973d222c3fda5b2563d269da9e19cb125000f4",
          "topics": [
            "0xc0ac3eb1e8caef05b202043f34de8e3173fab712167584f7a2a9f4c302bd0e9c",
            "0xf9caa38f850be3bdf6156d5c37bc2f5bb123b7c44b74538bd0a3f9c3e378cd81",
            "0x00000000000000000000000038d4de42c9c5640a2799b372d27b01957e0a3673",
            "0x00000000000000000000000000000000000000000000000000000000000000f9"
          ],
          "data": "0x0000000000000000000000002c2dba75492e0c4a1d10b41303167aec59586c9c0000000000000000000000004b75aec40561c03e03d4d1c421df194a3031a134000000000000000000000000c02aaa39b223fe8d0a0e5c4f27ead9083c756cc2000000000000000000000000000000000000000000000000004e28e2290f0000",
          "blockHash": "0x290ac074127526b9129d91db6e76357eab40c347e710c092bdb5439597b746a8",
          "blockNumber": "0x17b73d9",
          "blockTimestamp": "0x69eb0127",
          "transactionHash": "0xe5d256ce656506b0c555ee6471dd465d0a78bb5bd9c275d23ed1ef1d96486a62",
          "transactionIndex": "0x0",
          "logIndex": "0x3",
          "removed": false
        }
      ],
      "logsBloom": "0x00000000000000000000000000000000000000000002000000000000000000000000000000000000000000000000120002000000080000000004100800100000000200000000001021000008000000000000000000000000000000000000000000000000000004200001000000000000000100000000000000000010000000000000000000000000000004000000000000000000000008000000000000002000000000000000000000000000000400000000000000000080420000000000000000000002000004000000000000000000000001400000000000000800000000000100200000000000000000000000000000000000000000000000000000000000",
      "type": "0x2",
      "transactionHash": "0xe5d256ce656506b0c555ee6471dd465d0a78bb5bd9c275d23ed1ef1d96486a62",
      "transactionIndex": "0x0",
      "blockHash": "0x290ac074127526b9129d91db6e76357eab40c347e710c092bdb5439597b746a8",
      "blockNumber": "0x17b73d9",
      "gasUsed": "0x201ce",
      "effectiveGasPrice": "0xf4248",
      "blobGasPrice": "0x1",
      "from": "0x2c2dba75492e0c4a1d10b41303167aec59586c9c",
      "to": "0x73973d222c3fda5b2563d269da9e19cb125000f4",
      "contractAddress": null
    }
  ],
  "libraries": [],
  "pending": [],
  "returns": {},
  "timestamp": 1778453790942,
  "chain": 31337,
  "commit": "f87d399"
}