{
  "transactions": [
    {
      "hash": "0x5e9b624e4a80b16bf8b15d7dc2c85161c1387550bee12fcd03bec05248388cfc",
      "transactionType": "CALL",
      "contractName": null,
      "contractAddress": "0x73973d222c3fda5b2563d269da9e19cb125000f4",
      "function": "settle((uint256,address),(uint8,bool,address,uint256,address,uint256,address,uint64,uint64,uint256),(uint8,bytes32,bytes32))",
      "arguments": [
        "(0, 0xc5aDfC119364CFE2297e4414dB04834d8702475B)",
        "(0, false, 0x38D4dE42C9c5640A2799B372D27B01957E0a3673, 482, 0xC02aaA39b223FE8D0A0e5C4F27eAD9083C756Cc2, 13000000000000000, 0x4b75AeC40561C03e03d4D1C421dF194a3031A134, 1771590231, 1780475407, 2)",
        "(27, 0x65cdf896285afe8a11ac22f79861cb7ae1bcb36a29599e332fdec5487447cb90, 0x258e81cf3c780ff69751bfd00c46c888de4828aec36c0aa16c2297e981b049ab)"
      ],
      "transaction": {
        "from": "0xc5adfc119364cfe2297e4414db04834d8702475b",
        "to": "0x73973d222c3fda5b2563d269da9e19cb125000f4",
        "gas": "0x2ee7f",
        "value": "0x0",
        "input": "0x3bae3e790000000000000000000000000000000000000000000000000000000000000000000000000000000000000000c5adfc119364cfe2297e4414db04834d8702475b0000000000000000000000000000000000000000000000000000000000000000000000000000000000000000000000000000000000000000000000000000000000000000000000000000000038d4de42c9c5640a2799b372d27b01957e0a367300000000000000000000000000000000000000000000000000000000000001e2000000000000000000000000c02aaa39b223fe8d0a0e5c4f27ead9083c756cc2000000000000000000000000000000000000000000000000002e2f6e5e1480000000000000000000000000004b75aec40561c03e03d4d1c421df194a3031a1340000000000000000000000000000000000000000000000000000000069985257000000000000000000000000000000000000000000000000000000006a1fe60f0000000000000000000000000000000000000000000000000000000000000002000000000000000000000000000000000000000000000000000000000000001b65cdf896285afe8a11ac22f79861cb7ae1bcb36a29599e332fdec5487447cb90258e81cf3c780ff69751bfd00c46c888de4828aec36c0aa16c2297e981b049ab",
        "nonce": "0x66",
        "chainId": "0x7a69"
      },
      "additionalContracts": [],
      "isFixedGasLimit": false
    }
  ],
  "receipts": [
    {
      "status": "0x1",
      "cumulativeGasUsed": "0x20129",
      "logs": [
        {
          "address": "0xc02aaa39b223fe8d0a0e5c4f27ead9083c756cc2",
          "topics": [
            "0xddf252ad1be2c89b69c2b068fc378daa952ba7f163c4a11628f55a4df523b3ef",
            "0x000000000000000000000000c5adfc119364cfe2297e4414db04834d8702475b",
            "0x0000000000000000000000001804c8ab1f12e6bbf3894d4083f33e07309d1f38"
          ],
          "data": "0x0000000000000000000000000000000000000000000000000000763bfbd22000",
          "blockHash": "0x284fb2544991fd66dacf9b3743f1baa130bd0119db5ba09569acedb6d720e4bf",
          "blockNumber": "0x17b73b8",
          "blockTimestamp": "0x69e55d2a",
          "transactionHash": "0x5e9b624e4a80b16bf8b15d7dc2c85161c1387550bee12fcd03bec05248388cfc",
          "transactionIndex": "0x0",
          "logIndex": "0x0",
          "removed": false
        },
        {
          "address": "0xc02aaa39b223fe8d0a0e5c4f27ead9083c756cc2",
          "topics": [
            "0xddf252ad1be2c89b69c2b068fc378daa952ba7f163c4a11628f55a4df523b3ef",
            "0x000000000000000000000000c5adfc119364cfe2297e4414db04834d8702475b",
            "0x0000000000000000000000004b75aec40561c03e03d4d1c421df194a3031a134"
          ],
          "data": "0x000000000000000000000000000000000000000000000000002db93262426000",
          "blockHash": "0x284fb2544991fd66dacf9b3743f1baa130bd0119db5ba09569acedb6d720e4bf",
          "blockNumber": "0x17b73b8",
          "blockTimestamp": "0x69e55d2a",
          "transactionHash": "0x5e9b624e4a80b16bf8b15d7dc2c85161c1387550bee12fcd03bec05248388cfc",
          "transactionIndex": "0x0",
          "logIndex": "0x1",
          "removed": false
        },
        {
          "address": "0x38d4de42c9c5640a2799b372d27b01957e0a3673",
          "topics": [
            "0xddf252ad1be2c89b69c2b068fc378daa952ba7f163c4a11628f55a4df523b3ef",
            "0x0000000000000000000000004b75aec40561c03e03d4d1c421df194a3031a134",
            "0x000000000000000000000000c5adfc119364cfe2297e4414db04834d8702475b",
            "0x00000000000000000000000000000000000000000000000000000000000001e2"
          ],
          "data": "0x",
          "blockHash": "0x284fb2544991fd66dacf9b3743f1baa130bd0119db5ba09569acedb6d720e4bf",
          "blockNumber": "0x17b73b8",
          "blockTimestamp": "0x69e55d2a",
          "transactionHash": "0x5e9b624e4a80b16bf8b15d7dc2c85161c1387550bee12fcd03bec05248388cfc",
          "transactionIndex": "0x0",
          "logIndex": "0x2",
          "removed": false
        },
        {
          "address": "0x73973d222c3fda5b2563d269da9e19cb125000f4",
          "topics": [
            "0xc0ac3eb1e8caef05b202043f34de8e3173fab712167584f7a2a9f4c302bd0e9c",
            "0xaae122e402ccdcd9795e66853744c016acb1dafd0685da6d4d049185ca151550",
            "0x00000000000000000000000038d4de42c9c5640a2799b372d27b01957e0a3673",
            "0x00000000000000000000000000000000000000000000000000000000000001e2"
          ],
          "data": "0x0000000000000000000000004b75aec40561c03e03d4d1c421df194a3031a134000000000000000000000000c5adfc119364cfe2297e4414db04834d8702475b000000000000000000000000c02aaa39b223fe8d0a0e5c4f27ead9083c756cc2000000000000000000000000000000000000000000000000002e2f6e5e148000",
          "blockHash": "0x284fb2544991fd66dacf9b3743f1baa130bd0119db5ba09569acedb6d720e4bf",
          "blockNumber": "0x17b73b8",
          "blockTimestamp": "0x69e55d2a",
          "transactionHash": "0x5e9b624e4a80b16bf8b15d7dc2c85161c1387550bee12fcd03bec05248388cfc",
          "transactionIndex": "0x0",
          "logIndex": "0x3",
          "removed": false
        }
      ],
      "logsBloom": "0x00000000000000000000000000020000000000000002000000000000000000000000000000000000000000000000020002000000080000000004100000100000000000000000001021000008000000000000000000000200000000000000000200000000000000004001000000000000000000000000000000000010000000000000000000000000000004000000000000000000000008000000000080002000000000000000000000000000000420000000000000000080420000000000000000000002000004000000000000000000000000000000000000000000000000000100200000000000000000000100000000200000000000002000000000000000",
      "type": "0x2",
      "transactionHash": "0x5e9b624e4a80b16bf8b15d7dc2c85161c1387550bee12fcd03bec05248388cfc",
      "transactionIndex": "0x0",
      "blockHash": "0x284fb2544991fd66dacf9b3743f1baa130bd0119db5ba09569acedb6d720e4bf",
      "blockNumber": "0x17b73b8",
      "gasUsed": "0x20129",
      "effectiveGasPrice": "0xf4248",
      "blobGasPrice": "0x1",
      "from": "0xc5adfc119364cfe2297e4414db04834d8702475b",
      "to": "0x73973d222c3fda5b2563d269da9e19cb125000f4",
      "contractAddress": null
    }
  ],
  "libraries": [],
  "pending": [],
  "returns": {},
  "timestamp": 1778453726575,
  "chain": 31337,
  "commit": "f87d399"
}