{
  "transactions": [
    {
      "hash": "0xa7f55ca1f36eb72cf82ce041ce439e44cdaa96e82c9cab8e620cf8ebd3157d4a",
      "transactionType": "CALL",
      "contractName": null,
      "contractAddress": "0x8fa71914948544c60e3379064567dcf0e6564d27",
      "function": "settle((uint256,address),(uint8,bool,address,uint256,address,uint256,address,uint64,uint64,uint256),(uint8,bytes32,bytes32))",
      "arguments": [
        "(370, 0x646dC5Fc4009C4C84a424B6aE0f494b374bAE1Ce)",
        "(1, false, 0xA5f104F8f78d5ba9AEC4a383c0927337Fd4E997B, 370, 0xC02aaA39b223FE8D0A0e5C4F27eAD9083C756Cc2, 383000000000000000, 0xE233420d38D286C2F2Cf8dEe6564F132FBDB09DB, 1772400169, 1779774117, 13)",
        "(28, 0xc31658224da48f59bc3a3b57497275be62fd822ac2c876c670dcb87e84e1018b, 0x3b6a09e0eeef5cef994fb916f1b430770b6c7fc11d9d52a58c0d147a83c6fab5)"
      ],
      "transaction": {
        "from": "0x646dc5fc4009c4c84a424b6ae0f494b374bae1ce",
        "to": "0x8fa71914948544c60e3379064567dcf0e6564d27",
        "gas": "0x2efd3",
        "value": "0x0",
        "input": "0x3bae3e790000000000000000000000000000000000000000000000000000000000000172000000000000000000000000646dc5fc4009c4c84a424b6ae0f494b374bae1ce00000000000000000000000000000000000000000000000000000000000000010000000000000000000000000000000000000000000000000000000000000000000000000000000000000000a5f104f8f78d5ba9aec4a383c0927337fd4e997b0000000000000000000000000000000000000000000000000000000000000172000000000000000000000000c02aaa39b223fe8d0a0e5c4f27ead9083c756cc20000000000000000000000000000000000000000000000000550b07884f98000000000000000000000000000e233420d38d286c2f2cf8dee6564f132fbdb09db0000000000000000000000000000000000000000000000000000000069a4ae29000000000000000000000000000000000000000000000000000000006a1532a5000000000000000000000000000000000000000000000000000000000000000d000000000000000000000000000000000000000000000000000000000000001cc31658224da48f59bc3a3b57497275be62fd822ac2c876c670dcb87e84e1018b3b6a09e0eeef5cef994fb916f1b430770b6c7fc11d9d52a58c0d147a83c6fab5",
        "nonce": "0x5a",
        "chainId": "0x7a69"
      },
      "additionalContracts": [],
      "isFixedGasLimit": false
    }
  ],
  "receipts": [
    {
      "status": "0x1",
      "cumulativeGasUsed": "0x20212",
      "logs": [
        {
          "address": "0xc02aaa39b223fe8d0a0e5c4f27ead9083c756cc2",
          "topics": [
            "0xddf252ad1be2c89b69c2b068fc378daa952ba7f163c4a11628f55a4df523b3ef",
            "0x000000000000000000000000e233420d38d286c2f2cf8dee6564f132fbdb09db",
            "0x0000000000000000000000001804c8ab1f12e6bbf3894d4083f33e07309d1f38"
          ],
          "data": "0x000000000000000000000000000000000000000000000000000d9b5d5d7d6000",
          "blockHash": "0x2f92c09c6a50f16ce9a6048af1792208aaa78eff8b936fdb99b0d8099d07df2f",
          "blockNumber": "0x17b836f",
          "blockTimestamp": "0x69f4d9e3",
          "transactionHash": "0xa7f55ca1f36eb72cf82ce041ce439e44cdaa96e82c9cab8e620cf8ebd3157d4a",
          "transactionIndex": "0x0",
          "logIndex": "0x0",
          "removed": false
        },
        {
          "address": "0xc02aaa39b223fe8d0a0e5c4f27ead9083c756cc2",
          "topics": [
            "0xddf252ad1be2c89b69c2b068fc378daa952ba7f163c4a11628f55a4df523b3ef",
            "0x000000000000000000000000e233420d38d286c2f2cf8dee6564f132fbdb09db",
            "0x000000000000000000000000646dc5fc4009c4c84a424b6ae0f494b374bae1ce"
          ],
          "data": "0x0000000000000000000000000000000000000000000000000543151b277c2000",
          "blockHash": "0x2f92c09c6a50f16ce9a6048af1792208aaa78eff8b936fdb99b0d8099d07df2f",
          "blockNumber": "0x17b836f",
          "blockTimestamp": "0x69f4d9e3",
          "transactionHash": "0xa7f55ca1f36eb72cf82ce041ce439e44cdaa96e82c9cab8e620cf8ebd3157d4a",
          "transactionIndex": "0x0",
          "logIndex": "0x1",
          "removed": false
        },
        {
          "address": "0xa5f104f8f78d5ba9aec4a383c0927337fd4e997b",
          "topics": [
            "0xddf252ad1be2c89b69c2b068fc378daa952ba7f163c4a11628f55a4df523b3ef",
            "0x000000000000000000000000646dc5fc4009c4c84a424b6ae0f494b374bae1ce",
            "0x000000000000000000000000e233420d38d286c2f2cf8dee6564f132fbdb09db",
            "0x0000000000000000000000000000000000000000000000000000000000000172"
          ],
          "data": "0x",
          "blockHash": "0x2f92c09c6a50f16ce9a6048af1792208aaa78eff8b936fdb99b0d8099d07df2f",
          "blockNumber": "0x17b836f",
          "blockTimestamp": "0x69f4d9e3",
          "transactionHash": "0xa7f55ca1f36eb72cf82ce041ce439e44cdaa96e82c9cab8e620cf8ebd3157d4a",
          "transactionIndex": "0x0",
          "logIndex": "0x2",
          "removed": false
        },
        {
          "address": "0x8fa71914948544c60e3379064567dcf0e6564d27",
          "topics": [
            "0xc0ac3eb1e8caef05b202043f34de8e3173fab712167584f7a2a9f4c302bd0e9c",
            "0xeaaea228e03e81a54d3bc0e126c55a77ba7b1a95e94ab70c733bc1ae58ab0782",
            "0x000000000000000000000000a5f104f8f78d5ba9aec4a383c0927337fd4e997b",
            "0x0000000000000000000000000000000000000000000000000000000000000172"
          ],
          "data": "0x000000000000000000000000646dc5fc4009c4c84a424b6ae0f494b374bae1ce000000000000000000000000e233420d38d286c2f2cf8dee6564f132fbdb09db000000000000000000000000c02aaa39b223fe8d0a0e5c4f27ead9083c756cc20000000000000000000000000000000000000000000000000550b07884f98000",
          "blockHash": "0x2f92c09c6a50f16ce9a6048af1792208aaa78eff8b936fdb99b0d8099d07df2f",
          "blockNumber": "0x17b836f",
          "blockTimestamp": "0x69f4d9e3",
          "transactionHash": "0xa7f55ca1f36eb72cf82ce041ce439e44cdaa96e82c9cab8e620cf8ebd3157d4a",
          "transactionIndex": "0x0",
          "logIndex": "0x3",
          "removed": false
        }
      ],
      "logsBloom": "0x00000000000000000000010000000000000000000002000000000000000000000000000000000000000000000000000002000000090000000000000000100000000000000000000020010008002000000000000000000000080004000000000000000001000000000005000000000000000000000000080000000010200000000800000000040000000004000000000000000000000000000000000000080000000000200000000400000000000000000000000000000080000000000000000000000012000004000000000000200000000000000002000080000000000000000100200000000000000000000000000000000000000000000000000000000000",
      "type": "0x2",
      "transactionHash": "0xa7f55ca1f36eb72cf82ce041ce439e44cdaa96e82c9cab8e620cf8ebd3157d4a",
      "transactionIndex": "0x0",
      "blockHash": "0x2f92c09c6a50f16ce9a6048af1792208aaa78eff8b936fdb99b0d8099d07df2f",
      "blockNumber": "0x17b836f",
      "gasUsed": "0x20212",
      "effectiveGasPrice": "0x1ba81c",
      "blobGasPrice": "0x1",
      "from": "0x646dc5fc4009c4c84a424b6ae0f494b374bae1ce",
      "to": "0x8fa71914948544c60e3379064567dcf0e6564d27",
      "contractAddress": null
    }
  ],
  "libraries": [],
  "pending": [],
  "returns": {},
  "timestamp": 1778506494501,
  "chain": 31337,
  "commit": "59e30a9"
}