{
  "transactions": [
    {
      "hash": "0x28325669b0421714d78cf1a87b2a85e1f0f69264b1627584aecac8d2121d78c0",
      "transactionType": "CALL",
      "contractName": null,
      "contractAddress": "0x8fa71914948544c60e3379064567dcf0e6564d27",
      "function": "settle((uint256,address),(uint8,bool,address,uint256,address,uint256,address,uint64,uint64,uint256),(uint8,bytes32,bytes32))",
      "arguments": [
        "(485, 0x646dC5Fc4009C4C84a424B6aE0f494b374bAE1Ce)",
        "(1, false, 0xA5f104F8f78d5ba9AEC4a383c0927337Fd4E997B, 485, 0xC02aaA39b223FE8D0A0e5C4F27eAD9083C756Cc2, 159000000000000000, 0x08312E82df563A1639b81f49bb41247759700e30, 1772576918, 1779597368, 5)",
        "(27, 0x1665158a0c4c66149d6ca6d7974a892dd951dd8e0e891df5ae88abedb02580bc, 0x14d57112dd234db1455afffc0932c4e3be5813ac15721874da3223a7ade22f54)"
      ],
      "transaction": {
        "from": "0x646dc5fc4009c4c84a424b6ae0f494b374bae1ce",
        "to": "0x8fa71914948544c60e3379064567dcf0e6564d27",
        "gas": "0x2c5f2",
        "value": "0x0",
        "input": "0x3bae3e7900000000000000000000000000000000000000000000000000000000000001e5000000000000000000000000646dc5fc4009c4c84a424b6ae0f494b374bae1ce00000000000000000000000000000000000000000000000000000000000000010000000000000000000000000000000000000000000000000000000000000000000000000000000000000000a5f104f8f78d5ba9aec4a383c0927337fd4e997b00000000000000000000000000000000000000000000000000000000000001e5000000000000000000000000c02aaa39b223fe8d0a0e5c4f27ead9083c756cc20000000000000000000000000000000000000000000000000234e1a85749800000000000000000000000000008312e82df563a1639b81f49bb41247759700e300000000000000000000000000000000000000000000000000000000069a76096000000000000000000000000000000000000000000000000000000006a1280380000000000000000000000000000000000000000000000000000000000000005000000000000000000000000000000000000000000000000000000000000001b1665158a0c4c66149d6ca6d7974a892dd951dd8e0e891df5ae88abedb02580bc14d57112dd234db1455afffc0932c4e3be5813ac15721874da3223a7ade22f54",
        "nonce": "0x44",
        "chainId": "0x7a69"
      },
      "additionalContracts": [],
      "isFixedGasLimit": false
    }
  ],
  "receipts": [
    {
      "status": "0x1",
      "cumulativeGasUsed": "0x201fe",
      "logs": [
        {
          "address": "0xc02aaa39b223fe8d0a0e5c4f27ead9083c756cc2",
          "topics": [
            "0xddf252ad1be2c89b69c2b068fc378daa952ba7f163c4a11628f55a4df523b3ef",
            "0x00000000000000000000000008312e82df563a1639b81f49bb41247759700e30",
            "0x0000000000000000000000001804c8ab1f12e6bbf3894d4083f33e07309d1f38"
          ],
          "data": "0x0000000000000000000000000000000000000000000000000005a618b9316000",
          "blockHash": "0xa3b0b5352213fe8fe7731082bdbdb914f70f16c4173ff566e37d3998a5f4044a",
          "blockNumber": "0x17b8325",
          "blockTimestamp": "0x69e16224",
          "transactionHash": "0x28325669b0421714d78cf1a87b2a85e1f0f69264b1627584aecac8d2121d78c0",
          "transactionIndex": "0x0",
          "logIndex": "0x0",
          "removed": false
        },
        {
          "address": "0xc02aaa39b223fe8d0a0e5c4f27ead9083c756cc2",
          "topics": [
            "0xddf252ad1be2c89b69c2b068fc378daa952ba7f163c4a11628f55a4df523b3ef",
            "0x00000000000000000000000008312e82df563a1639b81f49bb41247759700e30",
            "0x000000000000000000000000646dc5fc4009c4c84a424b6ae0f494b374bae1ce"
          ],
          "data": "0x000000000000000000000000000000000000000000000000022f3b8f9e182000",
          "blockHash": "0xa3b0b5352213fe8fe7731082bdbdb914f70f16c4173ff566e37d3998a5f4044a",
          "blockNumber": "0x17b8325",
          "blockTimestamp": "0x69e16224",
          "transactionHash": "0x28325669b0421714d78cf1a87b2a85e1f0f69264b1627584aecac8d2121d78c0",
          "transactionIndex": "0x0",
          "logIndex": "0x1",
          "removed": false
        },
        {
          "address": "0xa5f104f8f78d5ba9aec4a383c0927337fd4e997b",
          "topics": [
            "0xddf252ad1be2c89b69c2b068fc378daa952ba7f163c4a11628f55a4df523b3ef",
            "0x000000000000000000000000646dc5fc4009c4c84a424b6ae0f494b374bae1ce",
            "0x00000000000000000000000008312e82df563a1639b81f49bb41247759700e30",
            "0x00000000000000000000000000000000000000000000000000000000000001e5"
          ],
          "data": "0x",
          "blockHash": "0xa3b0b5352213fe8fe7731082bdbdb914f70f16c4173ff566e37d3998a5f4044a",
          "blockNumber": "0x17b8325",
          "blockTimestamp": "0x69e16224",
          "transactionHash": "0x28325669b0421714d78cf1a87b2a85e1f0f69264b1627584aecac8d2121d78c0",
          "transactionIndex": "0x0",
          "logIndex": "0x2",
          "removed": false
        },
        {
          "address": "0x8fa71914948544c60e3379064567dcf0e6564d27",
          "topics": [
            "0xc0ac3eb1e8caef05b202043f34de8e3173fab712167584f7a2a9f4c302bd0e9c",
            "0xc60ff8d5cd7c7db996a191d7415d7a4d08f4499dd9fd9a56a77213a0cebe24da",
            "0x000000000000000000000000a5f104f8f78d5ba9aec4a383c0927337fd4e997b",
            "0x00000000000000000000000000000000000000000000000000000000000001e5"
          ],
          "data": "0x000000000000000000000000646dc5fc4009c4c84a424b6ae0f494b374bae1ce00000000000000000000000008312e82df563a1639b81f49bb41247759700e30000000000000000000000000c02aaa39b223fe8d0a0e5c4f27ead9083c756cc20000000000000000000000000000000000000000000000000234e1a857498000",
          "blockHash": "0xa3b0b5352213fe8fe7731082bdbdb914f70f16c4173ff566e37d3998a5f4044a",
          "blockNumber": "0x17b8325",
          "blockTimestamp": "0x69e16224",
          "transactionHash": "0x28325669b0421714d78cf1a87b2a85e1f0f69264b1627584aecac8d2121d78c0",
          "transactionIndex": "0x0",
          "logIndex": "0x3",
          "removed": false
        }
      ],
      "logsBloom": "0x00000000000000000000010001000000000000000002000000000000000000000001000000100000000000000000000002000000090000000000100000100000020000000000000000010008000000000000000000000000080000000000000000000000000000000005000000000000000000000000000000000010200000000800000000040000000004000000000000000000000000000000000000000000000000200000000400000000000000000000000000000080000000000000000000000002000004000000000000000000000000000000000080000000000000000100a00000000000000000200000000000000000004000000000000000001000",
      "type": "0x2",
      "transactionHash": "0x28325669b0421714d78cf1a87b2a85e1f0f69264b1627584aecac8d2121d78c0",
      "transactionIndex": "0x0",
      "blockHash": "0xa3b0b5352213fe8fe7731082bdbdb914f70f16c4173ff566e37d3998a5f4044a",
      "blockNumber": "0x17b8325",
      "gasUsed": "0x201fe",
      "effectiveGasPrice": "0x1ba81c",
      "blobGasPrice": "0x1",
      "from": "0x646dc5fc4009c4c84a424b6ae0f494b374bae1ce",
      "to": "0x8fa71914948544c60e3379064567dcf0e6564d27",
      "contractAddress": null
    }
  ],
  "libraries": [],
  "pending": [],
  "returns": {},
  "timestamp": 1778506413334,
  "chain": 31337,
  "commit": "59e30a9"
}