{
  "transactions": [
    {
      "hash": "0x15eef94929d40954445f6f7e866003ff81c1791a68ae787c005a77fc019d5d36",
      "transactionType": "CALL",
      "contractName": null,
      "contractAddress": "0x73973d222c3fda5b2563d269da9e19cb125000f4",
      "function": "settle((uint256,address),(uint8,bool,address,uint256,address,uint256,address,uint64,uint64,uint256),(uint8,bytes32,bytes32))",
      "arguments": [
        "(0, 0x1302F142Fc55B165647d3Bd5dec227f569A2A907)",
        "(0, false, 0x38D4dE42C9c5640A2799B372D27B01957E0a3673, 453, 0xC02aaA39b223FE8D0A0e5C4F27eAD9083C756Cc2, 27000000000000000, 0x646dC5Fc4009C4C84a424B6aE0f494b374bAE1Ce, 1771765959, 1780299679, 4)",
        "(28, 0xf67b41e8da600309fbe668941745f818392fa6f34370c1177f1bb72c6fd21315, 0x615388b91f2e2c27cdace29e24773d52e7dd7eb28575523092099d9ec4dfbde9)"
      ],
      "transaction": {
        "from": "0x1302f142fc55b165647d3bd5dec227f569a2a907",
        "to": "0x73973d222c3fda5b2563d269da9e19cb125000f4",
        "gas": "0x2ee8a",
        "value": "0x0",
        "input": "0x3bae3e7900000000000000000000000000000000000000000000000000000000000000000000000000000000000000001302f142fc55b165647d3bd5dec227f569a2a9070000000000000000000000000000000000000000000000000000000000000000000000000000000000000000000000000000000000000000000000000000000000000000000000000000000038d4de42c9c5640a2799b372d27b01957e0a367300000000000000000000000000000000000000000000000000000000000001c5000000000000000000000000c02aaa39b223fe8d0a0e5c4f27ead9083c756cc2000000000000000000000000000000000000000000000000005fec5b60ef8000000000000000000000000000646dc5fc4009c4c84a424b6ae0f494b374bae1ce00000000000000000000000000000000000000000000000000000000699b00c7000000000000000000000000000000000000000000000000000000006a1d379f0000000000000000000000000000000000000000000000000000000000000004000000000000000000000000000000000000000000000000000000000000001cf67b41e8da600309fbe668941745f818392fa6f34370c1177f1bb72c6fd21315615388b91f2e2c27cdace29e24773d52e7dd7eb28575523092099d9ec4dfbde9",
        "nonce": "0x6f",
        "chainId": "0x7a69"
      },
      "additionalContracts": [],
      "isFixedGasLimit": false
    }
  ],
  "receipts": [
    {
      "status": "0x1",
      "cumulativeGasUsed": "0x20131",
      "logs": [
        {
          "address": "0xc02aaa39b223fe8d0a0e5c4f27ead9083c756cc2",
          "topics": [
            "0xddf252ad1be2c89b69c2b068fc378daa952ba7f163c4a11628f55a4df523b3ef",
            "0x0000000000000000000000001302f142fc55b165647d3bd5dec227f569a2a907",
            "0x0000000000000000000000001804c8ab1f12e6bbf3894d4083f33e07309d1f38"
          ],
          "data": "0x0000000000000000000000000000000000000000000000000000f5904616e000",
          "blockHash": "0x6c2de87b1bd10998476d76a8b3bf16aefccd45b68b231f2e95a9a76cca5795db",
          "blockNumber": "0x17b73b0",
          "blockTimestamp": "0x69e3db73",
          "transactionHash": "0x15eef94929d40954445f6f7e866003ff81c1791a68ae787c005a77fc019d5d36",
          "transactionIndex": "0x0",
          "logIndex": "0x0",
          "removed": false
        },
        {
          "address": "0xc02aaa39b223fe8d0a0e5c4f27ead9083c756cc2",
          "topics": [
            "0xddf252ad1be2c89b69c2b068fc378daa952ba7f163c4a11628f55a4df523b3ef",
            "0x0000000000000000000000001302f142fc55b165647d3bd5dec227f569a2a907",
            "0x000000000000000000000000646dc5fc4009c4c84a424b6ae0f494b374bae1ce"
          ],
          "data": "0x000000000000000000000000000000000000000000000000005ef6cb1ad8a000",
          "blockHash": "0x6c2de87b1bd10998476d76a8b3bf16aefccd45b68b231f2e95a9a76cca5795db",
          "blockNumber": "0x17b73b0",
          "blockTimestamp": "0x69e3db73",
          "transactionHash": "0x15eef94929d40954445f6f7e866003ff81c1791a68ae787c005a77fc019d5d36",
          "transactionIndex": "0x0",
          "logIndex": "0x1",
          "removed": false
        },
        {
          "address": "0x38d4de42c9c5640a2799b372d27b01957e0a3673",
          "topics": [
            "0xddf252ad1be2c89b69c2b068fc378daa952ba7f163c4a11628f55a4df523b3ef",
            "0x000000000000000000000000646dc5fc4009c4c84a424b6ae0f494b374bae1ce",
            "0x0000000000000000000000001302f142fc55b165647d3bd5dec227f569a2a907",
            "0x00000000000000000000000000000000000000000000000000000000000001c5"
          ],
          "data": "0x",
          "blockHash": "0x6c2de87b1bd10998476d76a8b3bf16aefccd45b68b231f2e95a9a76cca5795db",
          "blockNumber": "0x17b73b0",
          "blockTimestamp": "0x69e3db73",
          "transactionHash": "0x15eef94929d40954445f6f7e866003ff81c1791a68ae787c005a77fc019d5d36",
          "transactionIndex": "0x0",
          "logIndex": "0x2",
          "removed": false
        },
        {
          "address": "0x73973d222c3fda5b2563d269da9e19cb125000f4",
          "topics": [
            "0xc0ac3eb1e8caef05b202043f34de8e3173fab712167584f7a2a9f4c302bd0e9c",
            "0x51a275848659794baa4c657203aa3ba9fa0a0133d878a57846480da4cf404b7b",
            "0x00000000000000000000000038d4de42c9c5640a2799b372d27b01957e0a3673",
            "0x00000000000000000000000000000000000000000000000000000000000001c5"
          ],
          "data": "0x000000000000000000000000646dc5fc4009c4c84a424b6ae0f494b374bae1ce0000000000000000000000001302f142fc55b165647d3bd5dec227f569a2a907000000000000000000000000c02aaa39b223fe8d0a0e5c4f27ead9083c756cc2000000000000000000000000000000000000000000000000005fec5b60ef8000",
          "blockHash": "0x6c2de87b1bd10998476d76a8b3bf16aefccd45b68b231f2e95a9a76cca5795db",
          "blockNumber": "0x17b73b0",
          "blockTimestamp": "0x69e3db73",
          "transactionHash": "0x15eef94929d40954445f6f7e866003ff81c1791a68ae787c005a77fc019d5d36",
          "transactionIndex": "0x0",
          "logIndex": "0x3",
          "removed": false
        }
      ],
      "logsBloom": "0x00000000000000000000000000000000000000000002000000000000000000000000000000000000000000000000020002000000090000000004100000100000000000000000001021000008000000000000000000000000000000000000000000000000000000000005000000000000000000000000000000000010000000000000000000000000000004000000000000000020000008000000000000000000000800000000000000000020000100000000000000000080400000000000000000000002000004000000000200008000000000000000000000000000000004000100201000000000000040000000000000000000000000000000000000000000",
      "type": "0x2",
      "transactionHash": "0x15eef94929d40954445f6f7e866003ff81c1791a68ae787c005a77fc019d5d36",
      "transactionIndex": "0x0",
      "blockHash": "0x6c2de87b1bd10998476d76a8b3bf16aefccd45b68b231f2e95a9a76cca5795db",
      "blockNumber": "0x17b73b0",
      "gasUsed": "0x20131",
      "effectiveGasPrice": "0xf4248",
      "blobGasPrice": "0x1",
      "from": "0x1302f142fc55b165647d3bd5dec227f569a2a907",
      "to": "0x73973d222c3fda5b2563d269da9e19cb125000f4",
      "contractAddress": null
    }
  ],
  "libraries": [],
  "pending": [],
  "returns": {},
  "timestamp": 1778453719798,
  "chain": 31337,
  "commit": "f87d399"
}