{
  "transactions": [
    {
      "hash": "0x4be0ee88035abcd6e9fcd44e109aa08382f0eb7a8c9ee1f130af3d989bfff211",
      "transactionType": "CALL",
      "contractName": null,
      "contractAddress": "0x8fa71914948544c60e3379064567dcf0e6564d27",
      "function": "settle((uint256,address),(uint8,bool,address,uint256,address,uint256,address,uint64,uint64,uint256),(uint8,bytes32,bytes32))",
      "arguments": [
        "(80, 0x1302F142Fc55B165647d3Bd5dec227f569A2A907)",
        "(1, false, 0xA5f104F8f78d5ba9AEC4a383c0927337Fd4E997B, 80, 0xC02aaA39b223FE8D0A0e5C4F27eAD9083C756Cc2, 342000000000000000, 0xe3745C151faB59B0740f4312b2B027F07D096639, 1772495053, 1779679233, 7)",
        "(28, 0xda7e74c9c2a54235df1ca67bab6785c17dd7eda705e991d27262cbab7d304ba6, 0x4469801ca13bb911810198b70c376407b1f1118c949b71b4a447b95cc0752131)"
      ],
      "transaction": {
        "from": "0x1302f142fc55b165647d3bd5dec227f569a2a907",
        "to": "0x8fa71914948544c60e3379064567dcf0e6564d27",
        "gas": "0x2c5dc",
        "value": "0x0",
        "input": "0x3bae3e7900000000000000000000000000000000000000000000000000000000000000500000000000000000000000001302f142fc55b165647d3bd5dec227f569a2a90700000000000000000000000000000000000000000000000000000000000000010000000000000000000000000000000000000000000000000000000000000000000000000000000000000000a5f104f8f78d5ba9aec4a383c0927337fd4e997b0000000000000000000000000000000000000000000000000000000000000050000000000000000000000000c02aaa39b223fe8d0a0e5c4f27ead9083c756cc200000000000000000000000000000000000000000000000004bf0730212f0000000000000000000000000000e3745c151fab59b0740f4312b2b027f07d0966390000000000000000000000000000000000000000000000000000000069a620cd000000000000000000000000000000000000000000000000000000006a13c0010000000000000000000000000000000000000000000000000000000000000007000000000000000000000000000000000000000000000000000000000000001cda7e74c9c2a54235df1ca67bab6785c17dd7eda705e991d27262cbab7d304ba64469801ca13bb911810198b70c376407b1f1118c949b71b4a447b95cc0752131",
        "nonce": "0x38",
        "chainId": "0x7a69"
      },
      "additionalContracts": [],
      "isFixedGasLimit": false
    }
  ],
  "receipts": [
    {
      "status": "0x1",
      "cumulativeGasUsed": "0x201ee",
      "logs": [
        {
          "address": "0xc02aaa39b223fe8d0a0e5c4f27ead9083c756cc2",
          "topics": [
            "0xddf252ad1be2c89b69c2b068fc378daa952ba7f163c4a11628f55a4df523b3ef",
            "0x000000000000000000000000e3745c151fab59b0740f4312b2b027f07d096639",
            "0x0000000000000000000000001804c8ab1f12e6bbf3894d4083f33e07309d1f38"
          ],
          "data": "0x000000000000000000000000000000000000000000000000000c2678cd21c000",
          "blockHash": "0xfcc0d8e5b7980a65dda05f5f4410f3cb8b6019d6d8c253d181fb500852c29822",
          "blockNumber": "0x17b8350",
          "blockTimestamp": "0x69ee0a5a",
          "transactionHash": "0x4be0ee88035abcd6e9fcd44e109aa08382f0eb7a8c9ee1f130af3d989bfff211",
          "transactionIndex": "0x0",
          "logIndex": "0x0",
          "removed": false
        },
        {
          "address": "0xc02aaa39b223fe8d0a0e5c4f27ead9083c756cc2",
          "topics": [
            "0xddf252ad1be2c89b69c2b068fc378daa952ba7f163c4a11628f55a4df523b3ef",
            "0x000000000000000000000000e3745c151fab59b0740f4312b2b027f07d096639",
            "0x0000000000000000000000001302f142fc55b165647d3bd5dec227f569a2a907"
          ],
          "data": "0x00000000000000000000000000000000000000000000000004b2e0b7540d4000",
          "blockHash": "0xfcc0d8e5b7980a65dda05f5f4410f3cb8b6019d6d8c253d181fb500852c29822",
          "blockNumber": "0x17b8350",
          "blockTimestamp": "0x69ee0a5a",
          "transactionHash": "0x4be0ee88035abcd6e9fcd44e109aa08382f0eb7a8c9ee1f130af3d989bfff211",
          "transactionIndex": "0x0",
          "logIndex": "0x1",
          "removed": false
        },
        {
          "address": "0xa5f104f8f78d5ba9aec4a383c0927337fd4e997b",
          "topics": [
            "0xddf252ad1be2c89b69c2b068fc378daa952ba7f163c4a11628f55a4df523b3ef",
            "0x0000000000000000000000001302f142fc55b165647d3bd5dec227f569a2a907",
            "0x000000000000000000000000e3745c151fab59b0740f4312b2b027f07d096639",
            "0x0000000000000000000000000000000000000000000000000000000000000050"
          ],
          "data": "0x",
          "blockHash": "0xfcc0d8e5b7980a65dda05f5f4410f3cb8b6019d6d8c253d181fb500852c29822",
          "blockNumber": "0x17b8350",
          "blockTimestamp": "0x69ee0a5a",
          "transactionHash": "0x4be0ee88035abcd6e9fcd44e109aa08382f0eb7a8c9ee1f130af3d989bfff211",
          "transactionIndex": "0x0",
          "logIndex": "0x2",
          "removed": false
        },
        {
          "address": "0x8fa71914948544c60e3379064567dcf0e6564d27",
          "topics": [
            "0xc0ac3eb1e8caef05b202043f34de8e3173fab712167584f7a2a9f4c302bd0e9c",
            "0x71f891b00ed04ff962893eb5e8115fb0d5a29d311dcc504309fa89936a5de98c",
            "0x000000000000000000000000a5f104f8f78d5ba9aec4a383c0927337fd4e997b",
            "0x0000000000000000000000000000000000000000000000000000000000000050"
          ],
          "data": "0x0000000000000000000000001302f142fc55b165647d3bd5dec227f569a2a907000000000000000000000000e3745c151fab59b0740f4312b2b027f07d096639000000000000000000000000c02aaa39b223fe8d0a0e5c4f27ead9083c756cc200000000000000000000000000000000000000000000000004bf0730212f0000",
          "blockHash": "0xfcc0d8e5b7980a65dda05f5f4410f3cb8b6019d6d8c253d181fb500852c29822",
          "blockNumber": "0x17b8350",
          "blockTimestamp": "0x69ee0a5a",
          "transactionHash": "0x4be0ee88035abcd6e9fcd44e109aa08382f0eb7a8c9ee1f130af3d989bfff211",
          "transactionIndex": "0x0",
          "logIndex": "0x3",
          "removed": false
        }
      ],
      "logsBloom": "0x00000000000000000000010000000000000000000100000000000000000000000000000000000000000000000020000042000000080000000000000000100000000000000000000000010008000000000000000000000000080002000000000000800000000000000001000000000000000000000000000000000010200000000800000000040000000004000000000000000000000000000000000000000000000000200000000400000000000100000200000000000080000000000000000200000002000004000000000200000000000000000000000080000060000000000100200000000000000040000000000000000000000000000000000000000000",
      "type": "0x2",
      "transactionHash": "0x4be0ee88035abcd6e9fcd44e109aa08382f0eb7a8c9ee1f130af3d989bfff211",
      "transactionIndex": "0x0",
      "blockHash": "0xfcc0d8e5b7980a65dda05f5f4410f3cb8b6019d6d8c253d181fb500852c29822",
      "blockNumber": "0x17b8350",
      "gasUsed": "0x201ee",
      "effectiveGasPrice": "0x1ba81c",
      "blobGasPrice": "0x1",
      "from": "0x1302f142fc55b165647d3bd5dec227f569a2a907",
      "to": "0x8fa71914948544c60e3379064567dcf0e6564d27",
      "contractAddress": null
    }
  ],
  "libraries": [],
  "pending": [],
  "returns": {},
  "timestamp": 1778506457053,
  "chain": 31337,
  "commit": "59e30a9"
}