{
  "transactions": [
    {
      "hash": "0xf7ba1d5915806c26cdabb07a535dcc89cd86366dfb7468dddccbc82ee5c52577",
      "transactionType": "CALL",
      "contractName": null,
      "contractAddress": "0x73973d222c3fda5b2563d269da9e19cb125000f4",
      "function": "settle((uint256,address),(uint8,bool,address,uint256,address,uint256,address,uint64,uint64,uint256),(uint8,bytes32,bytes32))",
      "arguments": [
        "(0, 0xe3745C151faB59B0740f4312b2B027F07D096639)",
        "(0, false, 0x38D4dE42C9c5640A2799B372D27B01957E0a3673, 316, 0xC02aaA39b223FE8D0A0e5C4F27eAD9083C756Cc2, 29000000000000000, 0x08312E82df563A1639b81f49bb41247759700e30, 1773114243, 1778951395, 3)",
        "(27, 0x04b666d14998ee1deb22a0c6c569a55057a40dfe4a07bf4aa86e0a2fd8f98caf, 0x5b760bc65502680568ee5b369d4cc8e5b5e1cdda87e0d0cbfbb37ec1895d0fdb)"
      ],
      "transaction": {
        "from": "0xe3745c151fab59b0740f4312b2b027f07d096639",
        "to": "0x73973d222c3fda5b2563d269da9e19cb125000f4",
        "gas": "0x2ee7f",
        "value": "0x0",
        "input": "0x3bae3e790000000000000000000000000000000000000000000000000000000000000000000000000000000000000000e3745c151fab59b0740f4312b2b027f07d0966390000000000000000000000000000000000000000000000000000000000000000000000000000000000000000000000000000000000000000000000000000000000000000000000000000000038d4de42c9c5640a2799b372d27b01957e0a3673000000000000000000000000000000000000000000000000000000000000013c000000000000000000000000c02aaa39b223fe8d0a0e5c4f27ead9083c756cc200000000000000000000000000000000000000000000000000670758aa7c800000000000000000000000000008312e82df563a1639b81f49bb41247759700e300000000000000000000000000000000000000000000000000000000069af9383000000000000000000000000000000000000000000000000000000006a08a4e30000000000000000000000000000000000000000000000000000000000000003000000000000000000000000000000000000000000000000000000000000001b04b666d14998ee1deb22a0c6c569a55057a40dfe4a07bf4aa86e0a2fd8f98caf5b760bc65502680568ee5b369d4cc8e5b5e1cdda87e0d0cbfbb37ec1895d0fdb",
        "nonce": "0x7c",
        "chainId": "0x7a69"
      },
      "additionalContracts": [],
      "isFixedGasLimit": false
    }
  ],
  "receipts": [
    {
      "status": "0x1",
      "cumulativeGasUsed": "0x20129",
      "logs": [
        {
          "address": "0xc02aaa39b223fe8d0a0e5c4f27ead9083c756cc2",
          "topics": [
            "0xddf252ad1be2c89b69c2b068fc378daa952ba7f163c4a11628f55a4df523b3ef",
            "0x000000000000000000000000e3745c151fab59b0740f4312b2b027f07d096639",
            "0x0000000000000000000000001804c8ab1f12e6bbf3894d4083f33e07309d1f38"
          ],
          "data": "0x000000000000000000000000000000000000000000000000000107c0e2fc2000",
          "blockHash": "0xcebd785116878592914896913e9d44ffb06ea45f0b9aa559b7d08469aecaee47",
          "blockNumber": "0x17b7393",
          "blockTimestamp": "0x69de653a",
          "transactionHash": "0xf7ba1d5915806c26cdabb07a535dcc89cd86366dfb7468dddccbc82ee5c52577",
          "transactionIndex": "0x0",
          "logIndex": "0x0",
          "removed": false
        },
        {
          "address": "0xc02aaa39b223fe8d0a0e5c4f27ead9083c756cc2",
          "topics": [
            "0xddf252ad1be2c89b69c2b068fc378daa952ba7f163c4a11628f55a4df523b3ef",
            "0x000000000000000000000000e3745c151fab59b0740f4312b2b027f07d096639",
            "0x00000000000000000000000008312e82df563a1639b81f49bb41247759700e30"
          ],
          "data": "0x0000000000000000000000000000000000000000000000000065ff97c7806000",
          "blockHash": "0xcebd785116878592914896913e9d44ffb06ea45f0b9aa559b7d08469aecaee47",
          "blockNumber": "0x17b7393",
          "blockTimestamp": "0x69de653a",
          "transactionHash": "0xf7ba1d5915806c26cdabb07a535dcc89cd86366dfb7468dddccbc82ee5c52577",
          "transactionIndex": "0x0",
          "logIndex": "0x1",
          "removed": false
        },
        {
          "address": "0x38d4de42c9c5640a2799b372d27b01957e0a3673",
          "topics": [
            "0xddf252ad1be2c89b69c2b068fc378daa952ba7f163c4a11628f55a4df523b3ef",
            "0x00000000000000000000000008312e82df563a1639b81f49bb41247759700e30",
            "0x000000000000000000000000e3745c151fab59b0740f4312b2b027f07d096639",
            "0x000000000000000000000000000000000000000000000000000000000000013c"
          ],
          "data": "0x",
          "blockHash": "0xcebd785116878592914896913e9d44ffb06ea45f0b9aa559b7d08469aecaee47",
          "blockNumber": "0x17b7393",
          "blockTimestamp": "0x69de653a",
          "transactionHash": "0xf7ba1d5915806c26cdabb07a535dcc89cd86366dfb7468dddccbc82ee5c52577",
          "transactionIndex": "0x0",
          "logIndex": "0x2",
          "removed": false
        },
        {
          "address": "0x73973d222c3fda5b2563d269da9e19cb125000f4",
          "topics": [
            "0xc0ac3eb1e8caef05b202043f34de8e3173fab712167584f7a2a9f4c302bd0e9c",
            "0x7c107baab941d2f92c5dff6fb8da97b0a46463ae5ade85059374784378ecb5fa",
            "0x00000000000000000000000038d4de42c9c5640a2799b372d27b01957e0a3673",
            "0x000000000000000000000000000000000000000000000000000000000000013c"
          ],
          "data": "0x00000000000000000000000008312e82df563a1639b81f49bb41247759700e30000000000000000000000000e3745c151fab59b0740f4312b2b027f07d096639000000000000000000000000c02aaa39b223fe8d0a0e5c4f27ead9083c756cc200000000000000000000000000000000000000000000000000670758aa7c8000",
          "blockHash": "0xcebd785116878592914896913e9d44ffb06ea45f0b9aa559b7d08469aecaee47",
          "blockNumber": "0x17b7393",
          "blockTimestamp": "0x69de653a",
          "transactionHash": "0xf7ba1d5915806c26cdabb07a535dcc89cd86366dfb7468dddccbc82ee5c52577",
          "transactionIndex": "0x0",
          "logIndex": "0x3",
          "removed": false
        }
      ],
      "logsBloom": "0x00000000000000000000000001000000000000000102000000000000000000000000000000100000000000000000020042000000080000000204100000100000010800000000001021000008000000100000000010000000000000000000000000000000000000000001000000000000000000000000000000000010000000000000000000000000000004000000000000000000000008000000000000000000000000000000000000000000000000000000000000000080400000000000000000000002000004000000000000000000000000000000000000000040008000000100200000000000000000000000000000000000004000000000000000000000",
      "type": "0x2",
      "transactionHash": "0xf7ba1d5915806c26cdabb07a535dcc89cd86366dfb7468dddccbc82ee5c52577",
      "transactionIndex": "0x0",
      "blockHash": "0xcebd785116878592914896913e9d44ffb06ea45f0b9aa559b7d08469aecaee47",
      "blockNumber": "0x17b7393",
      "gasUsed": "0x20129",
      "effectiveGasPrice": "0xf4248",
      "blobGasPrice": "0x1",
      "from": "0xe3745c151fab59b0740f4312b2b027f07d096639",
      "to": "0x73973d222c3fda5b2563d269da9e19cb125000f4",
      "contractAddress": null
    }
  ],
  "libraries": [],
  "pending": [],
  "returns": {},
  "timestamp": 1778453693881,
  "chain": 31337,
  "commit": "f87d399"
}