{
  "transactions": [
    {
      "hash": "0xd85335a80c0d5d0b82d67f59c387e7fc7e27f5b50aa2fb2726f7cf5e02810c27",
      "transactionType": "CALL",
      "contractName": null,
      "contractAddress": "0x8fa71914948544c60e3379064567dcf0e6564d27",
      "function": "settle((uint256,address),(uint8,bool,address,uint256,address,uint256,address,uint64,uint64,uint256),(uint8,bytes32,bytes32))",
      "arguments": [
        "(311, 0x4b75AeC40561C03e03d4D1C421dF194a3031A134)",
        "(1, false, 0xA5f104F8f78d5ba9AEC4a383c0927337Fd4E997B, 311, 0xC02aaA39b223FE8D0A0e5C4F27eAD9083C756Cc2, 19000000000000000, 0xe3745C151faB59B0740f4312b2B027F07D096639, 1773109949, 1778953313, 3)",
        "(27, 0x673a005dabcd25e8200173a541d9752b551b2f4d393b1323ee49e4c62739ce03, 0x2f2404ac0f9cbd394b7175a0f1acf4a216154767770f38b4dcd2776f5f06dba9)"
      ],
      "transaction": {
        "from": "0x4b75aec40561c03e03d4d1c421df194a3031a134",
        "to": "0x8fa71914948544c60e3379064567dcf0e6564d27",
        "gas": "0x2c5d2",
        "value": "0x0",
        "input": "0x3bae3e7900000000000000000000000000000000000000000000000000000000000001370000000000000000000000004b75aec40561c03e03d4d1c421df194a3031a13400000000000000000000000000000000000000000000000000000000000000010000000000000000000000000000000000000000000000000000000000000000000000000000000000000000a5f104f8f78d5ba9aec4a383c0927337fd4e997b0000000000000000000000000000000000000000000000000000000000000137000000000000000000000000c02aaa39b223fe8d0a0e5c4f27ead9083c756cc2000000000000000000000000000000000000000000000000004380663abb8000000000000000000000000000e3745c151fab59b0740f4312b2b027f07d0966390000000000000000000000000000000000000000000000000000000069af82bd000000000000000000000000000000000000000000000000000000006a08ac610000000000000000000000000000000000000000000000000000000000000003000000000000000000000000000000000000000000000000000000000000001b673a005dabcd25e8200173a541d9752b551b2f4d393b1323ee49e4c62739ce032f2404ac0f9cbd394b7175a0f1acf4a216154767770f38b4dcd2776f5f06dba9",
        "nonce": "0x27",
        "chainId": "0x7a69"
      },
      "additionalContracts": [],
      "isFixedGasLimit": false
    }
  ],
  "receipts": [
    {
      "status": "0x1",
      "cumulativeGasUsed": "0x201e6",
      "logs": [
        {
          "address": "0xc02aaa39b223fe8d0a0e5c4f27ead9083c756cc2",
          "topics": [
            "0xddf252ad1be2c89b69c2b068fc378daa952ba7f163c4a11628f55a4df523b3ef",
            "0x000000000000000000000000e3745c151fab59b0740f4312b2b027f07d096639",
            "0x0000000000000000000000001804c8ab1f12e6bbf3894d4083f33e07309d1f38"
          ],
          "data": "0x0000000000000000000000000000000000000000000000000000accdd281e000",
          "blockHash": "0xa9a3240b3663cf4c8346a4a9602c1704c27d81ef349a624fc0a325e356b4b3da",
          "blockNumber": "0x17b7117",
          "blockTimestamp": "0x69de24c5",
          "transactionHash": "0xd85335a80c0d5d0b82d67f59c387e7fc7e27f5b50aa2fb2726f7cf5e02810c27",
          "transactionIndex": "0x0",
          "logIndex": "0x0",
          "removed": false
        },
        {
          "address": "0xc02aaa39b223fe8d0a0e5c4f27ead9083c756cc2",
          "topics": [
            "0xddf252ad1be2c89b69c2b068fc378daa952ba7f163c4a11628f55a4df523b3ef",
            "0x000000000000000000000000e3745c151fab59b0740f4312b2b027f07d096639",
            "0x0000000000000000000000004b75aec40561c03e03d4d1c421df194a3031a134"
          ],
          "data": "0x0000000000000000000000000000000000000000000000000042d3986839a000",
          "blockHash": "0xa9a3240b3663cf4c8346a4a9602c1704c27d81ef349a624fc0a325e356b4b3da",
          "blockNumber": "0x17b7117",
          "blockTimestamp": "0x69de24c5",
          "transactionHash": "0xd85335a80c0d5d0b82d67f59c387e7fc7e27f5b50aa2fb2726f7cf5e02810c27",
          "transactionIndex": "0x0",
          "logIndex": "0x1",
          "removed": false
        },
        {
          "address": "0xa5f104f8f78d5ba9aec4a383c0927337fd4e997b",
          "topics": [
            "0xddf252ad1be2c89b69c2b068fc378daa952ba7f163c4a11628f55a4df523b3ef",
            "0x0000000000000000000000004b75aec40561c03e03d4d1c421df194a3031a134",
            "0x000000000000000000000000e3745c151fab59b0740f4312b2b027f07d096639",
            "0x0000000000000000000000000000000000000000000000000000000000000137"
          ],
          "data": "0x",
          "blockHash": "0xa9a3240b3663cf4c8346a4a9602c1704c27d81ef349a624fc0a325e356b4b3da",
          "blockNumber": "0x17b7117",
          "blockTimestamp": "0x69de24c5",
          "transactionHash": "0xd85335a80c0d5d0b82d67f59c387e7fc7e27f5b50aa2fb2726f7cf5e02810c27",
          "transactionIndex": "0x0",
          "logIndex": "0x2",
          "removed": false
        },
        {
          "address": "0x8fa71914948544c60e3379064567dcf0e6564d27",
          "topics": [
            "0xc0ac3eb1e8caef05b202043f34de8e3173fab712167584f7a2a9f4c302bd0e9c",
            "0xd044f540b2cb38fa849ea897f01fb279fdbdd5d3f78b0c3da0f7e1a42d05bd18",
            "0x000000000000000000000000a5f104f8f78d5ba9aec4a383c0927337fd4e997b",
            "0x0000000000000000000000000000000000000000000000000000000000000137"
          ],
          "data": "0x0000000000000000000000004b75aec40561c03e03d4d1c421df194a3031a134000000000000000000000000e3745c151fab59b0740f4312b2b027f07d096639000000000000000000000000c02aaa39b223fe8d0a0e5c4f27ead9083c756cc2000000000000000000000000000000000000000000000000004380663abb8000",
          "blockHash": "0xa9a3240b3663cf4c8346a4a9602c1704c27d81ef349a624fc0a325e356b4b3da",
          "blockNumber": "0x17b7117",
          "blockTimestamp": "0x69de24c5",
          "transactionHash": "0xd85335a80c0d5d0b82d67f59c387e7fc7e27f5b50aa2fb2726f7cf5e02810c27",
          "transactionIndex": "0x0",
          "logIndex": "0x3",
          "removed": false
        }
      ],
      "logsBloom": "0x00000000000000000000010000000000000000000100000000000000000000000000000000000000000000000000000042000000080000000000000000100000000000000000000000010008000000000000000000000000080000000000040000000000000000000001000000000000000000000000000000000010200000000800004010040000000004000000000000000002000000000000000000002000000000200000000400000000000400000000000000000080020000000000000000000002000004000000000000000800000000000000000080000040000000000100200000000000000000000000000000000000000008000000000000000000",
      "type": "0x2",
      "transactionHash": "0xd85335a80c0d5d0b82d67f59c387e7fc7e27f5b50aa2fb2726f7cf5e02810c27",
      "transactionIndex": "0x0",
      "blockHash": "0xa9a3240b3663cf4c8346a4a9602c1704c27d81ef349a624fc0a325e356b4b3da",
      "blockNumber": "0x17b7117",
      "gasUsed": "0x201e6",
      "effectiveGasPrice": "0x154c2b",
      "blobGasPrice": "0x1",
      "from": "0x4b75aec40561c03e03d4d1c421df194a3031a134",
      "to": "0x8fa71914948544c60e3379064567dcf0e6564d27",
      "contractAddress": null
    }
  ],
  "libraries": [],
  "pending": [],
  "returns": {},
  "timestamp": 1778450902571,
  "chain": 31337,
  "commit": "f87d399"
}