{
  "transactions": [
    {
      "hash": "0x0f3682b4a5f1d5fc65a3c6477d609407b6e64c7397f82a85c98efc4a5f491e52",
      "transactionType": "CALL",
      "contractName": null,
      "contractAddress": "0x8fa71914948544c60e3379064567dcf0e6564d27",
      "function": "settle((uint256,address),(uint8,bool,address,uint256,address,uint256,address,uint64,uint64,uint256),(uint8,bytes32,bytes32))",
      "arguments": [
        "(0, 0xa382b0E75C192D9CDF5c084E58b750Cea7761Bd0)",
        "(0, false, 0xA5f104F8f78d5ba9AEC4a383c0927337Fd4E997B, 286, 0xC02aaA39b223FE8D0A0e5C4F27eAD9083C756Cc2, 74000000000000000, 0xE233420d38D286C2F2Cf8dEe6564F132FBDB09DB, 1772083769, 1780090517, 7)",
        "(27, 0x933f0f0c78ae32f63792693b914c750add4d3da7dfd30660d457121ae11801f3, 0x621eeb49274941caa805d86f048b98fb1e731a9af0aa6b3bb1df7c680ed718f3)"
      ],
      "transaction": {
        "from": "0xa382b0e75c192d9cdf5c084e58b750cea7761bd0",
        "to": "0x8fa71914948544c60e3379064567dcf0e6564d27",
        "gas": "0x2ee7f",
        "value": "0x0",
        "input": "0x3bae3e790000000000000000000000000000000000000000000000000000000000000000000000000000000000000000a382b0e75c192d9cdf5c084e58b750cea7761bd000000000000000000000000000000000000000000000000000000000000000000000000000000000000000000000000000000000000000000000000000000000000000000000000000000000a5f104f8f78d5ba9aec4a383c0927337fd4e997b000000000000000000000000000000000000000000000000000000000000011e000000000000000000000000c02aaa39b223fe8d0a0e5c4f27ead9083c756cc20000000000000000000000000000000000000000000000000106e69ba1610000000000000000000000000000e233420d38d286c2f2cf8dee6564f132fbdb09db00000000000000000000000000000000000000000000000000000000699fda39000000000000000000000000000000000000000000000000000000006a1a06950000000000000000000000000000000000000000000000000000000000000007000000000000000000000000000000000000000000000000000000000000001b933f0f0c78ae32f63792693b914c750add4d3da7dfd30660d457121ae11801f3621eeb49274941caa805d86f048b98fb1e731a9af0aa6b3bb1df7c680ed718f3",
        "nonce": "0x28",
        "chainId": "0x7a69"
      },
      "additionalContracts": [],
      "isFixedGasLimit": false
    }
  ],
  "receipts": [
    {
      "status": "0x1",
      "cumulativeGasUsed": "0x20129",
      "logs": [
        {
          "address": "0xc02aaa39b223fe8d0a0e5c4f27ead9083c756cc2",
          "topics": [
            "0xddf252ad1be2c89b69c2b068fc378daa952ba7f163c4a11628f55a4df523b3ef",
            "0x000000000000000000000000a382b0e75c192d9cdf5c084e58b750cea7761bd0",
            "0x0000000000000000000000001804c8ab1f12e6bbf3894d4083f33e07309d1f38"
          ],
          "data": "0x0000000000000000000000000000000000000000000000000002a106ad224000",
          "blockHash": "0xe998dc92649b734421b76c56140d6b60fd85cb3c0d0f14312e890d6b46f4aa9f",
          "blockNumber": "0x17b8354",
          "blockTimestamp": "0x69ef204c",
          "transactionHash": "0x0f3682b4a5f1d5fc65a3c6477d609407b6e64c7397f82a85c98efc4a5f491e52",
          "transactionIndex": "0x0",
          "logIndex": "0x0",
          "removed": false
        },
        {
          "address": "0xc02aaa39b223fe8d0a0e5c4f27ead9083c756cc2",
          "topics": [
            "0xddf252ad1be2c89b69c2b068fc378daa952ba7f163c4a11628f55a4df523b3ef",
            "0x000000000000000000000000a382b0e75c192d9cdf5c084e58b750cea7761bd0",
            "0x000000000000000000000000e233420d38d286c2f2cf8dee6564f132fbdb09db"
          ],
          "data": "0x00000000000000000000000000000000000000000000000001044594f43ec000",
          "blockHash": "0xe998dc92649b734421b76c56140d6b60fd85cb3c0d0f14312e890d6b46f4aa9f",
          "blockNumber": "0x17b8354",
          "blockTimestamp": "0x69ef204c",
          "transactionHash": "0x0f3682b4a5f1d5fc65a3c6477d609407b6e64c7397f82a85c98efc4a5f491e52",
          "transactionIndex": "0x0",
          "logIndex": "0x1",
          "removed": false
        },
        {
          "address": "0xa5f104f8f78d5ba9aec4a383c0927337fd4e997b",
          "topics": [
            "0xddf252ad1be2c89b69c2b068fc378daa952ba7f163c4a11628f55a4df523b3ef",
            "0x000000000000000000000000e233420d38d286c2f2cf8dee6564f132fbdb09db",
            "0x000000000000000000000000a382b0e75c192d9cdf5c084e58b750cea7761bd0",
            "0x000000000000000000000000000000000000000000000000000000000000011e"
          ],
          "data": "0x",
          "blockHash": "0xe998dc92649b734421b76c56140d6b60fd85cb3c0d0f14312e890d6b46f4aa9f",
          "blockNumber": "0x17b8354",
          "blockTimestamp": "0x69ef204c",
          "transactionHash": "0x0f3682b4a5f1d5fc65a3c6477d609407b6e64c7397f82a85c98efc4a5f491e52",
          "transactionIndex": "0x0",
          "logIndex": "0x2",
          "removed": false
        },
        {
          "address": "0x8fa71914948544c60e3379064567dcf0e6564d27",
          "topics": [
            "0xc0ac3eb1e8caef05b202043f34de8e3173fab712167584f7a2a9f4c302bd0e9c",
            "0x8ffa5ceda73c99cdc652afce8e5c13e6cf756f260dbf665203276ebfd582ba22",
            "0x000000000000000000000000a5f104f8f78d5ba9aec4a383c0927337fd4e997b",
            "0x000000000000000000000000000000000000000000000000000000000000011e"
          ],
          "data": "0x000000000000000000000000e233420d38d286c2f2cf8dee6564f132fbdb09db000000000000000000000000a382b0e75c192d9cdf5c084e58b750cea7761bd0000000000000000000000000c02aaa39b223fe8d0a0e5c4f27ead9083c756cc20000000000000000000000000000000000000000000000000106e69ba1610000",
          "blockHash": "0xe998dc92649b734421b76c56140d6b60fd85cb3c0d0f14312e890d6b46f4aa9f",
          "blockNumber": "0x17b8354",
          "blockTimestamp": "0x69ef204c",
          "transactionHash": "0x0f3682b4a5f1d5fc65a3c6477d609407b6e64c7397f82a85c98efc4a5f491e52",
          "transactionIndex": "0x0",
          "logIndex": "0x3",
          "removed": false
        }
      ],
      "logsBloom": "0x00000000000000000000010000000000000000000000000000000000000000000000000000000000100000000000000002000000080000000000000000100000000000000100000000010008000000000000000000000000080000000000000000000001000000000001000000000000000000000000040000000010200000000800000000040200000004000000020000100000000000000000000000000000040000200000000400000000000000000000000000000080000000000000000000000012000004000000000000000000000000800002000080000000000000000100200000000000000000000000000000000000100000000000000000000000",
      "type": "0x2",
      "transactionHash": "0x0f3682b4a5f1d5fc65a3c6477d609407b6e64c7397f82a85c98efc4a5f491e52",
      "transactionIndex": "0x0",
      "blockHash": "0xe998dc92649b734421b76c56140d6b60fd85cb3c0d0f14312e890d6b46f4aa9f",
      "blockNumber": "0x17b8354",
      "gasUsed": "0x20129",
      "effectiveGasPrice": "0x1ba81c",
      "blobGasPrice": "0x1",
      "from": "0xa382b0e75c192d9cdf5c084e58b750cea7761bd0",
      "to": "0x8fa71914948544c60e3379064567dcf0e6564d27",
      "contractAddress": null
    }
  ],
  "libraries": [],
  "pending": [],
  "returns": {},
  "timestamp": 1778506460598,
  "chain": 31337,
  "commit": "59e30a9"
}