{
  "transactions": [
    {
      "hash": "0xc429dfc91a8b23996fdf218901f53373806468f9941bf9b38e5686ad012b3a19",
      "transactionType": "CALL",
      "contractName": null,
      "contractAddress": "0x73973d222c3fda5b2563d269da9e19cb125000f4",
      "function": "settle((uint256,address),(uint8,bool,address,uint256,address,uint256,address,uint64,uint64,uint256),(uint8,bytes32,bytes32))",
      "arguments": [
        "(0, 0xc5aDfC119364CFE2297e4414dB04834d8702475B)",
        "(0, false, 0x38D4dE42C9c5640A2799B372D27B01957E0a3673, 310, 0xC02aaA39b223FE8D0A0e5C4F27eAD9083C756Cc2, 374000000000000000, 0xe3745C151faB59B0740f4312b2B027F07D096639, 1772994015, 1779071623, 8)",
        "(27, 0x30cde6806c81faeab8b3eef7b46c4c8956a263df64a952704749d3a1072d701b, 0x116b0f14ae0046ca0115a2925c9890d410022faa27e53cee5cf3bdff025475fc)"
      ],
      "transaction": {
        "from": "0xc5adfc119364cfe2297e4414db04834d8702475b",
        "to": "0x73973d222c3fda5b2563d269da9e19cb125000f4",
        "gas": "0x2c4bb",
        "value": "0x0",
        "input": "0x3bae3e790000000000000000000000000000000000000000000000000000000000000000000000000000000000000000c5adfc119364cfe2297e4414db04834d8702475b0000000000000000000000000000000000000000000000000000000000000000000000000000000000000000000000000000000000000000000000000000000000000000000000000000000038d4de42c9c5640a2799b372d27b01957e0a36730000000000000000000000000000000000000000000000000000000000000136000000000000000000000000c02aaa39b223fe8d0a0e5c4f27ead9083c756cc20000000000000000000000000000000000000000000000000530b704b9ff0000000000000000000000000000e3745c151fab59b0740f4312b2b027f07d0966390000000000000000000000000000000000000000000000000000000069adbddf000000000000000000000000000000000000000000000000000000006a0a7a870000000000000000000000000000000000000000000000000000000000000008000000000000000000000000000000000000000000000000000000000000001b30cde6806c81faeab8b3eef7b46c4c8956a263df64a952704749d3a1072d701b116b0f14ae0046ca0115a2925c9890d410022faa27e53cee5cf3bdff025475fc",
        "nonce": "0x6a",
        "chainId": "0x7a69"
      },
      "additionalContracts": [],
      "isFixedGasLimit": false
    }
  ],
  "receipts": [
    {
      "status": "0x1",
      "cumulativeGasUsed": "0x2011d",
      "logs": [
        {
          "address": "0xc02aaa39b223fe8d0a0e5c4f27ead9083c756cc2",
          "topics": [
            "0xddf252ad1be2c89b69c2b068fc378daa952ba7f163c4a11628f55a4df523b3ef",
            "0x000000000000000000000000c5adfc119364cfe2297e4414db04834d8702475b",
            "0x0000000000000000000000001804c8ab1f12e6bbf3894d4083f33e07309d1f38"
          ],
          "data": "0x000000000000000000000000000000000000000000000000000d49829b75c000",
          "blockHash": "0x23e3000a4e7c9b768e7b85b18814bbcd3b72b7507f8c6891d893305fbfc7f8a3",
          "blockNumber": "0x17b73cc",
          "blockTimestamp": "0x69e8c85f",
          "transactionHash": "0xc429dfc91a8b23996fdf218901f53373806468f9941bf9b38e5686ad012b3a19",
          "transactionIndex": "0x0",
          "logIndex": "0x0",
          "removed": false
        },
        {
          "address": "0xc02aaa39b223fe8d0a0e5c4f27ead9083c756cc2",
          "topics": [
            "0xddf252ad1be2c89b69c2b068fc378daa952ba7f163c4a11628f55a4df523b3ef",
            "0x000000000000000000000000c5adfc119364cfe2297e4414db04834d8702475b",
            "0x000000000000000000000000e3745c151fab59b0740f4312b2b027f07d096639"
          ],
          "data": "0x00000000000000000000000000000000000000000000000005236d821e894000",
          "blockHash": "0x23e3000a4e7c9b768e7b85b18814bbcd3b72b7507f8c6891d893305fbfc7f8a3",
          "blockNumber": "0x17b73cc",
          "blockTimestamp": "0x69e8c85f",
          "transactionHash": "0xc429dfc91a8b23996fdf218901f53373806468f9941bf9b38e5686ad012b3a19",
          "transactionIndex": "0x0",
          "logIndex": "0x1",
          "removed": false
        },
        {
          "address": "0x38d4de42c9c5640a2799b372d27b01957e0a3673",
          "topics": [
            "0xddf252ad1be2c89b69c2b068fc378daa952ba7f163c4a11628f55a4df523b3ef",
            "0x000000000000000000000000e3745c151fab59b0740f4312b2b027f07d096639",
            "0x000000000000000000000000c5adfc119364cfe2297e4414db04834d8702475b",
            "0x0000000000000000000000000000000000000000000000000000000000000136"
          ],
          "data": "0x",
          "blockHash": "0x23e3000a4e7c9b768e7b85b18814bbcd3b72b7507f8c6891d893305fbfc7f8a3",
          "blockNumber": "0x17b73cc",
          "blockTimestamp": "0x69e8c85f",
          "transactionHash": "0xc429dfc91a8b23996fdf218901f53373806468f9941bf9b38e5686ad012b3a19",
          "transactionIndex": "0x0",
          "logIndex": "0x2",
          "removed": false
        },
        {
          "address": "0x73973d222c3fda5b2563d269da9e19cb125000f4",
          "topics": [
            "0xc0ac3eb1e8caef05b202043f34de8e3173fab712167584f7a2a9f4c302bd0e9c",
            "0x71f8c381878b1055fee548a671f3da52e1fd6f5cb5d4d1976b0dff8a5d1d219a",
            "0x00000000000000000000000038d4de42c9c5640a2799b372d27b01957e0a3673",
            "0x0000000000000000000000000000000000000000000000000000000000000136"
          ],
          "data": "0x000000000000000000000000e3745c151fab59b0740f4312b2b027f07d096639000000000000000000000000c5adfc119364cfe2297e4414db04834d8702475b000000000000000000000000c02aaa39b223fe8d0a0e5c4f27ead9083c756cc20000000000000000000000000000000000000000000000000530b704b9ff0000",
          "blockHash": "0x23e3000a4e7c9b768e7b85b18814bbcd3b72b7507f8c6891d893305fbfc7f8a3",
          "blockNumber": "0x17b73cc",
          "blockTimestamp": "0x69e8c85f",
          "transactionHash": "0xc429dfc91a8b23996fdf218901f53373806468f9941bf9b38e5686ad012b3a19",
          "transactionIndex": "0x0",
          "logIndex": "0x3",
          "removed": false
        }
      ],
      "logsBloom": "0x00000010000000000000000000000000000000000102000000000000000000000000000000000000000000000000020042000000080000000004100000100000000000080000401021080008000000000000000000000000000000000008000200000000000000000001000000000000000000000000000000000010000000000000000000000000000004000000000000000000000008000000000000000000000000000000000000000000000020000000000000000080400000000000000000000002040004000000000000000000000000000000000000000040000000000100200000000000000000000000000000000000000000002000000000000000",
      "type": "0x2",
      "transactionHash": "0xc429dfc91a8b23996fdf218901f53373806468f9941bf9b38e5686ad012b3a19",
      "transactionIndex": "0x0",
      "blockHash": "0x23e3000a4e7c9b768e7b85b18814bbcd3b72b7507f8c6891d893305fbfc7f8a3",
      "blockNumber": "0x17b73cc",
      "gasUsed": "0x2011d",
      "effectiveGasPrice": "0xf4248",
      "blobGasPrice": "0x1",
      "from": "0xc5adfc119364cfe2297e4414db04834d8702475b",
      "to": "0x73973d222c3fda5b2563d269da9e19cb125000f4",
      "contractAddress": null
    }
  ],
  "libraries": [],
  "pending": [],
  "returns": {},
  "timestamp": 1778453779431,
  "chain": 31337,
  "commit": "f87d399"
}