{
  "transactions": [
    {
      "hash": "0x2b70bedfeda89b6b913065ff6184a565009b5a244b8bca44a3fa3ce7377c78a3",
      "transactionType": "CALL",
      "contractName": null,
      "contractAddress": "0x73973d222c3fda5b2563d269da9e19cb125000f4",
      "function": "settle((uint256,address),(uint8,bool,address,uint256,address,uint256,address,uint64,uint64,uint256),(uint8,bytes32,bytes32))",
      "arguments": [
        "(232, 0xE233420d38D286C2F2Cf8dEe6564F132FBDB09DB)",
        "(1, false, 0x38D4dE42C9c5640A2799B372D27B01957E0a3673, 232, 0xC02aaA39b223FE8D0A0e5C4F27eAD9083C756Cc2, 33000000000000000, 0xe3745C151faB59B0740f4312b2B027F07D096639, 1771777367, 1780288271, 13)",
        "(27, 0x72c0fbb60df59a551dbfad5e359d2bfc52bd3f2a2a662d0dc90735e093fd0e0c, 0x171f874eb0b8a3b63ae2b20dede98e793690e66b5d525bed3d986d49cd850459)"
      ],
      "transaction": {
        "from": "0xe233420d38d286c2f2cf8dee6564f132fbdb09db",
        "to": "0x73973d222c3fda5b2563d269da9e19cb125000f4",
        "gas": "0x2ef81",
        "value": "0x0",
        "input": "0x3bae3e7900000000000000000000000000000000000000000000000000000000000000e8000000000000000000000000e233420d38d286c2f2cf8dee6564f132fbdb09db0000000000000000000000000000000000000000000000000000000000000001000000000000000000000000000000000000000000000000000000000000000000000000000000000000000038d4de42c9c5640a2799b372d27b01957e0a367300000000000000000000000000000000000000000000000000000000000000e8000000000000000000000000c02aaa39b223fe8d0a0e5c4f27ead9083c756cc200000000000000000000000000000000000000000000000000753d533d968000000000000000000000000000e3745c151fab59b0740f4312b2b027f07d09663900000000000000000000000000000000000000000000000000000000699b2d57000000000000000000000000000000000000000000000000000000006a1d0b0f000000000000000000000000000000000000000000000000000000000000000d000000000000000000000000000000000000000000000000000000000000001b72c0fbb60df59a551dbfad5e359d2bfc52bd3f2a2a662d0dc90735e093fd0e0c171f874eb0b8a3b63ae2b20dede98e793690e66b5d525bed3d986d49cd850459",
        "nonce": "0x73",
        "chainId": "0x7a69"
      },
      "additionalContracts": [],
      "isFixedGasLimit": false
    }
  ],
  "receipts": [
    {
      "status": "0x1",
      "cumulativeGasUsed": "0x201da",
      "logs": [
        {
          "address": "0xc02aaa39b223fe8d0a0e5c4f27ead9083c756cc2",
          "topics": [
            "0xddf252ad1be2c89b69c2b068fc378daa952ba7f163c4a11628f55a4df523b3ef",
            "0x000000000000000000000000e3745c151fab59b0740f4312b2b027f07d096639",
            "0x0000000000000000000000001804c8ab1f12e6bbf3894d4083f33e07309d1f38"
          ],
          "data": "0x00000000000000000000000000000000000000000000000000012c221cc6a000",
          "blockHash": "0x40bde508425c489a1023a2a1368713d3d7e473cdb56f8518afd4a43e96ef7686",
          "blockNumber": "0x17b73eb",
          "blockTimestamp": "0x69ee4078",
          "transactionHash": "0x2b70bedfeda89b6b913065ff6184a565009b5a244b8bca44a3fa3ce7377c78a3",
          "transactionIndex": "0x0",
          "logIndex": "0x0",
          "removed": false
        },
        {
          "address": "0xc02aaa39b223fe8d0a0e5c4f27ead9083c756cc2",
          "topics": [
            "0xddf252ad1be2c89b69c2b068fc378daa952ba7f163c4a11628f55a4df523b3ef",
            "0x000000000000000000000000e3745c151fab59b0740f4312b2b027f07d096639",
            "0x000000000000000000000000e233420d38d286c2f2cf8dee6564f132fbdb09db"
          ],
          "data": "0x0000000000000000000000000000000000000000000000000074113120cfe000",
          "blockHash": "0x40bde508425c489a1023a2a1368713d3d7e473cdb56f8518afd4a43e96ef7686",
          "blockNumber": "0x17b73eb",
          "blockTimestamp": "0x69ee4078",
          "transactionHash": "0x2b70bedfeda89b6b913065ff6184a565009b5a244b8bca44a3fa3ce7377c78a3",
          "transactionIndex": "0x0",
          "logIndex": "0x1",
          "removed": false
        },
        {
          "address": "0x38d4de42c9c5640a2799b372d27b01957e0a3673",
          "topics": [
            "0xddf252ad1be2c89b69c2b068fc378daa952ba7f163c4a11628f55a4df523b3ef",
            "0x000000000000000000000000e233420d38d286c2f2cf8dee6564f132fbdb09db",
            "0x000000000000000000000000e3745c151fab59b0740f4312b2b027f07d096639",
            "0x00000000000000000000000000000000000000000000000000000000000000e8"
          ],
          "data": "0x",
          "blockHash": "0x40bde508425c489a1023a2a1368713d3d7e473cdb56f8518afd4a43e96ef7686",
          "blockNumber": "0x17b73eb",
          "blockTimestamp": "0x69ee4078",
          "transactionHash": "0x2b70bedfeda89b6b913065ff6184a565009b5a244b8bca44a3fa3ce7377c78a3",
          "transactionIndex": "0x0",
          "logIndex": "0x2",
          "removed": false
        },
        {
          "address": "0x73973d222c3fda5b2563d269da9e19cb125000f4",
          "topics": [
            "0xc0ac3eb1e8caef05b202043f34de8e3173fab712167584f7a2a9f4c302bd0e9c",
            "0x213af1ef9888fa195d66c4e40a81058d5971fe5c018facea9865c76c5d05ddd9",
            "0x00000000000000000000000038d4de42c9c5640a2799b372d27b01957e0a3673",
            "0x00000000000000000000000000000000000000000000000000000000000000e8"
          ],
          "data": "0x000000000000000000000000e233420d38d286c2f2cf8dee6564f132fbdb09db000000000000000000000000e3745c151fab59b0740f4312b2b027f07d096639000000000000000000000000c02aaa39b223fe8d0a0e5c4f27ead9083c756cc200000000000000000000000000000000000000000000000000753d533d968000",
          "blockHash": "0x40bde508425c489a1023a2a1368713d3d7e473cdb56f8518afd4a43e96ef7686",
          "blockNumber": "0x17b73eb",
          "blockTimestamp": "0x69ee4078",
          "transactionHash": "0x2b70bedfeda89b6b913065ff6184a565009b5a244b8bca44a3fa3ce7377c78a3",
          "transactionIndex": "0x0",
          "logIndex": "0x3",
          "removed": false
        }
      ],
      "logsBloom": "0x00000000000000000000000400000000000000000102000000000000000000000000000000000000000000000000020042000000080000000004100000100000000000000800001021000088000000000000000000000000000000000000000000000001000000000001080000000000000000000000000000000010000000000000000000000100000004000000000000000000000008000000000000000000000000000000000000000000000000000000000000000080400002000000000000000012000004000000000000000000000000000002000000000040000000000100200000000000000000000000000000000000000000000000000000000000",
      "type": "0x2",
      "transactionHash": "0x2b70bedfeda89b6b913065ff6184a565009b5a244b8bca44a3fa3ce7377c78a3",
      "transactionIndex": "0x0",
      "blockHash": "0x40bde508425c489a1023a2a1368713d3d7e473cdb56f8518afd4a43e96ef7686",
      "blockNumber": "0x17b73eb",
      "gasUsed": "0x201da",
      "effectiveGasPrice": "0xf4248",
      "blobGasPrice": "0x1",
      "from": "0xe233420d38d286c2f2cf8dee6564f132fbdb09db",
      "to": "0x73973d222c3fda5b2563d269da9e19cb125000f4",
      "contractAddress": null
    }
  ],
  "libraries": [],
  "pending": [],
  "returns": {},
  "timestamp": 1778453807469,
  "chain": 31337,
  "commit": "f87d399"
}