{
  "transactions": [
    {
      "hash": "0x1c55a923ec4689891e0d4077d3238811076eef8ef44fbac26f2687ae07a861e8",
      "transactionType": "CALL",
      "contractName": null,
      "contractAddress": "0x8fa71914948544c60e3379064567dcf0e6564d27",
      "function": "settle((uint256,address),(uint8,bool,address,uint256,address,uint256,address,uint64,uint64,uint256),(uint8,bytes32,bytes32))",
      "arguments": [
        "(0, 0xc5aDfC119364CFE2297e4414dB04834d8702475B)",
        "(0, false, 0xA5f104F8f78d5ba9AEC4a383c0927337Fd4E997B, 279, 0xC02aaA39b223FE8D0A0e5C4F27eAD9083C756Cc2, 59000000000000000, 0x08312E82df563A1639b81f49bb41247759700e30, 1772936590, 1779237696, 17)",
        "(28, 0x400a0b492264ec75b40e8e4717e55809e23e3f09b7c7339de688f99e02920257, 0x3fa8e7e71bdb86fc7badfb348eddb38869395da2927a0716567be34db67ee8da)"
      ],
      "transaction": {
        "from": "0xc5adfc119364cfe2297e4414db04834d8702475b",
        "to": "0x8fa71914948544c60e3379064567dcf0e6564d27",
        "gas": "0x2c4e8",
        "value": "0x0",
        "input": "0x3bae3e790000000000000000000000000000000000000000000000000000000000000000000000000000000000000000c5adfc119364cfe2297e4414db04834d8702475b00000000000000000000000000000000000000000000000000000000000000000000000000000000000000000000000000000000000000000000000000000000000000000000000000000000a5f104f8f78d5ba9aec4a383c0927337fd4e997b0000000000000000000000000000000000000000000000000000000000000117000000000000000000000000c02aaa39b223fe8d0a0e5c4f27ead9083c756cc200000000000000000000000000000000000000000000000000d19c2ff9bf800000000000000000000000000008312e82df563a1639b81f49bb41247759700e300000000000000000000000000000000000000000000000000000000069acdd8e000000000000000000000000000000000000000000000000000000006a0d03400000000000000000000000000000000000000000000000000000000000000011000000000000000000000000000000000000000000000000000000000000001c400a0b492264ec75b40e8e4717e55809e23e3f09b7c7339de688f99e029202573fa8e7e71bdb86fc7badfb348eddb38869395da2927a0716567be34db67ee8da",
        "nonce": "0x42",
        "chainId": "0x7a69"
      },
      "additionalContracts": [],
      "isFixedGasLimit": false
    }
  ],
  "receipts": [
    {
      "status": "0x1",
      "cumulativeGasUsed": "0x2013d",
      "logs": [
        {
          "address": "0xc02aaa39b223fe8d0a0e5c4f27ead9083c756cc2",
          "topics": [
            "0xddf252ad1be2c89b69c2b068fc378daa952ba7f163c4a11628f55a4df523b3ef",
            "0x000000000000000000000000c5adfc119364cfe2297e4414db04834d8702475b",
            "0x0000000000000000000000001804c8ab1f12e6bbf3894d4083f33e07309d1f38"
          ],
          "data": "0x0000000000000000000000000000000000000000000000000002189a146ae000",
          "blockHash": "0x50cd895c508ac0ee84089c1a81aefa6b890f061026681574512c6828b77e0807",
          "blockNumber": "0x17b8390",
          "blockTimestamp": "0x69fc4503",
          "transactionHash": "0x1c55a923ec4689891e0d4077d3238811076eef8ef44fbac26f2687ae07a861e8",
          "transactionIndex": "0x0",
          "logIndex": "0x0",
          "removed": false
        },
        {
          "address": "0xc02aaa39b223fe8d0a0e5c4f27ead9083c756cc2",
          "topics": [
            "0xddf252ad1be2c89b69c2b068fc378daa952ba7f163c4a11628f55a4df523b3ef",
            "0x000000000000000000000000c5adfc119364cfe2297e4414db04834d8702475b",
            "0x00000000000000000000000008312e82df563a1639b81f49bb41247759700e30"
          ],
          "data": "0x00000000000000000000000000000000000000000000000000cf8395e554a000",
          "blockHash": "0x50cd895c508ac0ee84089c1a81aefa6b890f061026681574512c6828b77e0807",
          "blockNumber": "0x17b8390",
          "blockTimestamp": "0x69fc4503",
          "transactionHash": "0x1c55a923ec4689891e0d4077d3238811076eef8ef44fbac26f2687ae07a861e8",
          "transactionIndex": "0x0",
          "logIndex": "0x1",
          "removed": false
        },
        {
          "address": "0xa5f104f8f78d5ba9aec4a383c0927337fd4e997b",
          "topics": [
            "0xddf252ad1be2c89b69c2b068fc378daa952ba7f163c4a11628f55a4df523b3ef",
            "0x00000000000000000000000008312e82df563a1639b81f49bb41247759700e30",
            "0x000000000000000000000000c5adfc119364cfe2297e4414db04834d8702475b",
            "0x0000000000000000000000000000000000000000000000000000000000000117"
          ],
          "data": "0x",
          "blockHash": "0x50cd895c508ac0ee84089c1a81aefa6b890f061026681574512c6828b77e0807",
          "blockNumber": "0x17b8390",
          "blockTimestamp": "0x69fc4503",
          "transactionHash": "0x1c55a923ec4689891e0d4077d3238811076eef8ef44fbac26f2687ae07a861e8",
          "transactionIndex": "0x0",
          "logIndex": "0x2",
          "removed": false
        },
        {
          "address": "0x8fa71914948544c60e3379064567dcf0e6564d27",
          "topics": [
            "0xc0ac3eb1e8caef05b202043f34de8e3173fab712167584f7a2a9f4c302bd0e9c",
            "0x5583a6abb94b6230741e6d5fe8286272c3fa83961f08b4bf1c2b9d6adb0e5397",
            "0x000000000000000000000000a5f104f8f78d5ba9aec4a383c0927337fd4e997b",
            "0x0000000000000000000000000000000000000000000000000000000000000117"
          ],
          "data": "0x00000000000000000000000008312e82df563a1639b81f49bb41247759700e30000000000000000000000000c5adfc119364cfe2297e4414db04834d8702475b000000000000000000000000c02aaa39b223fe8d0a0e5c4f27ead9083c756cc200000000000000000000000000000000000000000000000000d19c2ff9bf8000",
          "blockHash": "0x50cd895c508ac0ee84089c1a81aefa6b890f061026681574512c6828b77e0807",
          "blockNumber": "0x17b8390",
          "blockTimestamp": "0x69fc4503",
          "transactionHash": "0x1c55a923ec4689891e0d4077d3238811076eef8ef44fbac26f2687ae07a861e8",
          "transactionIndex": "0x0",
          "logIndex": "0x3",
          "removed": false
        }
      ],
      "logsBloom": "0x000000000000000000000100010400000000000000000000000000000000000000000000001001000000000000000000020000000800000000000000001000000010000000000000000100080000000000000000000000000800000000000002000000000000000000010000000000000000000000000000000000102000000088000000000400000000040000000000000000000000000000000000000000000000002000000004000000000000a0000000000000000080000000000000000000000002000004000000000000000000000000000000000080000000000000000100200000000001000000000000000000000000004000002000000000000000",
      "type": "0x2",
      "transactionHash": "0x1c55a923ec4689891e0d4077d3238811076eef8ef44fbac26f2687ae07a861e8",
      "transactionIndex": "0x0",
      "blockHash": "0x50cd895c508ac0ee84089c1a81aefa6b890f061026681574512c6828b77e0807",
      "blockNumber": "0x17b8390",
      "gasUsed": "0x2013d",
      "effectiveGasPrice": "0x1ba81c",
      "blobGasPrice": "0x1",
      "from": "0xc5adfc119364cfe2297e4414db04834d8702475b",
      "to": "0x8fa71914948544c60e3379064567dcf0e6564d27",
      "contractAddress": null
    }
  ],
  "libraries": [],
  "pending": [],
  "returns": {},
  "timestamp": 1778506535604,
  "chain": 31337,
  "commit": "59e30a9"
}