{
  "transactions": [
    {
      "hash": "0xa9b21d922b2861d1464c5a4eb435bfffff748c831c03363f39995084bec652aa",
      "transactionType": "CALL",
      "contractName": null,
      "contractAddress": "0x8fa71914948544c60e3379064567dcf0e6564d27",
      "function": "settle((uint256,address),(uint8,bool,address,uint256,address,uint256,address,uint64,uint64,uint256),(uint8,bytes32,bytes32))",
      "arguments": [
        "(0, 0x646dC5Fc4009C4C84a424B6aE0f494b374bAE1Ce)",
        "(0, false, 0xA5f104F8f78d5ba9AEC4a383c0927337Fd4E997B, 205, 0xC02aaA39b223FE8D0A0e5C4F27eAD9083C756Cc2, 201000000000000000, 0xa382b0E75C192D9CDF5c084E58b750Cea7761Bd0, 1772125847, 1780048439, 0)",
        "(27, 0x8f5a67223190b08ed23bf5168f740f5dc2abeb56f7b45a7f62c86494efc08b5e, 0x3f34260e41173ed5eef4fe9b45a1042e0b2edbaa91a2f1ea5dfe7577b6f97fa4)"
      ],
      "transaction": {
        "from": "0x646dc5fc4009c4c84a424b6ae0f494b374bae1ce",
        "to": "0x8fa71914948544c60e3379064567dcf0e6564d27",
        "gas": "0x2c4bb",
        "value": "0x0",
        "input": "0x3bae3e790000000000000000000000000000000000000000000000000000000000000000000000000000000000000000646dc5fc4009c4c84a424b6ae0f494b374bae1ce00000000000000000000000000000000000000000000000000000000000000000000000000000000000000000000000000000000000000000000000000000000000000000000000000000000a5f104f8f78d5ba9aec4a383c0927337fd4e997b00000000000000000000000000000000000000000000000000000000000000cd000000000000000000000000c02aaa39b223fe8d0a0e5c4f27ead9083c756cc200000000000000000000000000000000000000000000000002ca186f5fda8000000000000000000000000000a382b0e75c192d9cdf5c084e58b750cea7761bd00000000000000000000000000000000000000000000000000000000069a07e97000000000000000000000000000000000000000000000000000000006a1962370000000000000000000000000000000000000000000000000000000000000000000000000000000000000000000000000000000000000000000000000000001b8f5a67223190b08ed23bf5168f740f5dc2abeb56f7b45a7f62c86494efc08b5e3f34260e41173ed5eef4fe9b45a1042e0b2edbaa91a2f1ea5dfe7577b6f97fa4",
        "nonce": "0x4a",
        "chainId": "0x7a69"
      },
      "additionalContracts": [],
      "isFixedGasLimit": false
    }
  ],
  "receipts": [
    {
      "status": "0x1",
      "cumulativeGasUsed": "0x2011d",
      "logs": [
        {
          "address": "0xc02aaa39b223fe8d0a0e5c4f27ead9083c756cc2",
          "topics": [
            "0xddf252ad1be2c89b69c2b068fc378daa952ba7f163c4a11628f55a4df523b3ef",
            "0x000000000000000000000000646dc5fc4009c4c84a424b6ae0f494b374bae1ce",
            "0x0000000000000000000000001804c8ab1f12e6bbf3894d4083f33e07309d1f38"
          ],
          "data": "0x0000000000000000000000000000000000000000000000000007241597ffa000",
          "blockHash": "0x955d9563cce1990aacaed784e769714b5c6b6008294fb1c48a07aee0e66a23fb",
          "blockNumber": "0x17b832d",
          "blockTimestamp": "0x69e41e2c",
          "transactionHash": "0xa9b21d922b2861d1464c5a4eb435bfffff748c831c03363f39995084bec652aa",
          "transactionIndex": "0x0",
          "logIndex": "0x0",
          "removed": false
        },
        {
          "address": "0xc02aaa39b223fe8d0a0e5c4f27ead9083c756cc2",
          "topics": [
            "0xddf252ad1be2c89b69c2b068fc378daa952ba7f163c4a11628f55a4df523b3ef",
            "0x000000000000000000000000646dc5fc4009c4c84a424b6ae0f494b374bae1ce",
            "0x000000000000000000000000a382b0e75c192d9cdf5c084e58b750cea7761bd0"
          ],
          "data": "0x00000000000000000000000000000000000000000000000002c2f459c7dae000",
          "blockHash": "0x955d9563cce1990aacaed784e769714b5c6b6008294fb1c48a07aee0e66a23fb",
          "blockNumber": "0x17b832d",
          "blockTimestamp": "0x69e41e2c",
          "transactionHash": "0xa9b21d922b2861d1464c5a4eb435bfffff748c831c03363f39995084bec652aa",
          "transactionIndex": "0x0",
          "logIndex": "0x1",
          "removed": false
        },
        {
          "address": "0xa5f104f8f78d5ba9aec4a383c0927337fd4e997b",
          "topics": [
            "0xddf252ad1be2c89b69c2b068fc378daa952ba7f163c4a11628f55a4df523b3ef",
            "0x000000000000000000000000a382b0e75c192d9cdf5c084e58b750cea7761bd0",
            "0x000000000000000000000000646dc5fc4009c4c84a424b6ae0f494b374bae1ce",
            "0x00000000000000000000000000000000000000000000000000000000000000cd"
          ],
          "data": "0x",
          "blockHash": "0x955d9563cce1990aacaed784e769714b5c6b6008294fb1c48a07aee0e66a23fb",
          "blockNumber": "0x17b832d",
          "blockTimestamp": "0x69e41e2c",
          "transactionHash": "0xa9b21d922b2861d1464c5a4eb435bfffff748c831c03363f39995084bec652aa",
          "transactionIndex": "0x0",
          "logIndex": "0x2",
          "removed": false
        },
        {
          "address": "0x8fa71914948544c60e3379064567dcf0e6564d27",
          "topics": [
            "0xc0ac3eb1e8caef05b202043f34de8e3173fab712167584f7a2a9f4c302bd0e9c",
            "0xbd88bf32b1de0091b4665aed413f2fc745551643d2222244a049bb01aad81738",
            "0x000000000000000000000000a5f104f8f78d5ba9aec4a383c0927337fd4e997b",
            "0x00000000000000000000000000000000000000000000000000000000000000cd"
          ],
          "data": "0x000000000000000000000000a382b0e75c192d9cdf5c084e58b750cea7761bd0000000000000000000000000646dc5fc4009c4c84a424b6ae0f494b374bae1ce000000000000000000000000c02aaa39b223fe8d0a0e5c4f27ead9083c756cc200000000000000000000000000000000000000000000000002ca186f5fda8000",
          "blockHash": "0x955d9563cce1990aacaed784e769714b5c6b6008294fb1c48a07aee0e66a23fb",
          "blockNumber": "0x17b832d",
          "blockTimestamp": "0x69e41e2c",
          "transactionHash": "0xa9b21d922b2861d1464c5a4eb435bfffff748c831c03363f39995084bec652aa",
          "transactionIndex": "0x0",
          "logIndex": "0x3",
          "removed": false
        }
      ],
      "logsBloom": "0x00008000000000000000010000000000000000000002000000000000000000000000000000000000000000000000000002000000090000000000000000100000000000000000000000010008000000000000000000000000080000000000000000000000000000000005000000000000000100000000040000000010200000000800000000040000000004000080000000100000000010000000000000000000000000200000000400000000800000000000000000000080000000000000000000000002000004100000000000000000000000000000000080000000000000000100200000000000000000000000000000000000100000000000000000000000",
      "type": "0x2",
      "transactionHash": "0xa9b21d922b2861d1464c5a4eb435bfffff748c831c03363f39995084bec652aa",
      "transactionIndex": "0x0",
      "blockHash": "0x955d9563cce1990aacaed784e769714b5c6b6008294fb1c48a07aee0e66a23fb",
      "blockNumber": "0x17b832d",
      "gasUsed": "0x2011d",
      "effectiveGasPrice": "0x1ba81c",
      "blobGasPrice": "0x1",
      "from": "0x646dc5fc4009c4c84a424b6ae0f494b374bae1ce",
      "to": "0x8fa71914948544c60e3379064567dcf0e6564d27",
      "contractAddress": null
    }
  ],
  "libraries": [],
  "pending": [],
  "returns": {},
  "timestamp": 1778506420954,
  "chain": 31337,
  "commit": "59e30a9"
}