{
  "transactions": [
    {
      "hash": "0x3667229a8bd13104cb5b50767c7ab07deb0ec87bdbd2c72154eb61a3fc484c54",
      "transactionType": "CALL",
      "contractName": null,
      "contractAddress": "0x73973d222c3fda5b2563d269da9e19cb125000f4",
      "function": "settle((uint256,address),(uint8,bool,address,uint256,address,uint256,address,uint64,uint64,uint256),(uint8,bytes32,bytes32))",
      "arguments": [
        "(0, 0xcbe5659df21Cbcfabe4da962F7a9081F26B3ed82)",
        "(0, false, 0x38D4dE42C9c5640A2799B372D27B01957E0a3673, 30, 0xC02aaA39b223FE8D0A0e5C4F27eAD9083C756Cc2, 489000000000000000, 0xa382b0E75C192D9CDF5c084E58b750Cea7761Bd0, 1772492583, 1779573055, 7)",
        "(27, 0x1fd8dfc5b2386f92a8e5cfbfb297b57f1cc4d015d8c677664c71625b492e3afa, 0x3a8485c383fa6925c59c193f0bb31f8294a06101da2bec660b5d72a678a08b06)"
      ],
      "transaction": {
        "from": "0xcbe5659df21cbcfabe4da962f7a9081f26b3ed82",
        "to": "0x73973d222c3fda5b2563d269da9e19cb125000f4",
        "gas": "0x2ee7f",
        "value": "0x0",
        "input": "0x3bae3e790000000000000000000000000000000000000000000000000000000000000000000000000000000000000000cbe5659df21cbcfabe4da962f7a9081f26b3ed820000000000000000000000000000000000000000000000000000000000000000000000000000000000000000000000000000000000000000000000000000000000000000000000000000000038d4de42c9c5640a2799b372d27b01957e0a3673000000000000000000000000000000000000000000000000000000000000001e000000000000000000000000c02aaa39b223fe8d0a0e5c4f27ead9083c756cc200000000000000000000000000000000000000000000000006c946e8bf2a8000000000000000000000000000a382b0e75c192d9cdf5c084e58b750cea7761bd00000000000000000000000000000000000000000000000000000000069a61727000000000000000000000000000000000000000000000000000000006a12213f0000000000000000000000000000000000000000000000000000000000000007000000000000000000000000000000000000000000000000000000000000001b1fd8dfc5b2386f92a8e5cfbfb297b57f1cc4d015d8c677664c71625b492e3afa3a8485c383fa6925c59c193f0bb31f8294a06101da2bec660b5d72a678a08b06",
        "nonce": "0x6f",
        "chainId": "0x7a69"
      },
      "additionalContracts": [],
      "isFixedGasLimit": false
    }
  ],
  "receipts": [
    {
      "status": "0x1",
      "cumulativeGasUsed": "0x20129",
      "logs": [
        {
          "address": "0xc02aaa39b223fe8d0a0e5c4f27ead9083c756cc2",
          "topics": [
            "0xddf252ad1be2c89b69c2b068fc378daa952ba7f163c4a11628f55a4df523b3ef",
            "0x000000000000000000000000cbe5659df21cbcfabe4da962f7a9081f26b3ed82",
            "0x0000000000000000000000001804c8ab1f12e6bbf3894d4083f33e07309d1f38"
          ],
          "data": "0x00000000000000000000000000000000000000000000000000115f6dd8f3a000",
          "blockHash": "0xa6279426866c9c0080a07135aa51fc7c3812d9db981d258a6cbbff1acc6ea468",
          "blockNumber": "0x17b73d6",
          "blockTimestamp": "0x69ea7de8",
          "transactionHash": "0x3667229a8bd13104cb5b50767c7ab07deb0ec87bdbd2c72154eb61a3fc484c54",
          "transactionIndex": "0x0",
          "logIndex": "0x0",
          "removed": false
        },
        {
          "address": "0xc02aaa39b223fe8d0a0e5c4f27ead9083c756cc2",
          "topics": [
            "0xddf252ad1be2c89b69c2b068fc378daa952ba7f163c4a11628f55a4df523b3ef",
            "0x000000000000000000000000cbe5659df21cbcfabe4da962f7a9081f26b3ed82",
            "0x000000000000000000000000a382b0e75c192d9cdf5c084e58b750cea7761bd0"
          ],
          "data": "0x00000000000000000000000000000000000000000000000006b7e77ae636e000",
          "blockHash": "0xa6279426866c9c0080a07135aa51fc7c3812d9db981d258a6cbbff1acc6ea468",
          "blockNumber": "0x17b73d6",
          "blockTimestamp": "0x69ea7de8",
          "transactionHash": "0x3667229a8bd13104cb5b50767c7ab07deb0ec87bdbd2c72154eb61a3fc484c54",
          "transactionIndex": "0x0",
          "logIndex": "0x1",
          "removed": false
        },
        {
          "address": "0x38d4de42c9c5640a2799b372d27b01957e0a3673",
          "topics": [
            "0xddf252ad1be2c89b69c2b068fc378daa952ba7f163c4a11628f55a4df523b3ef",
            "0x000000000000000000000000a382b0e75c192d9cdf5c084e58b750cea7761bd0",
            "0x000000000000000000000000cbe5659df21cbcfabe4da962f7a9081f26b3ed82",
            "0x000000000000000000000000000000000000000000000000000000000000001e"
          ],
          "data": "0x",
          "blockHash": "0xa6279426866c9c0080a07135aa51fc7c3812d9db981d258a6cbbff1acc6ea468",
          "blockNumber": "0x17b73d6",
          "blockTimestamp": "0x69ea7de8",
          "transactionHash": "0x3667229a8bd13104cb5b50767c7ab07deb0ec87bdbd2c72154eb61a3fc484c54",
          "transactionIndex": "0x0",
          "logIndex": "0x2",
          "removed": false
        },
        {
          "address": "0x73973d222c3fda5b2563d269da9e19cb125000f4",
          "topics": [
            "0xc0ac3eb1e8caef05b202043f34de8e3173fab712167584f7a2a9f4c302bd0e9c",
            "0x9ef78730e5e1c99497372fecba5a2f72730ca2f6262bb17f358237f1e09097b6",
            "0x00000000000000000000000038d4de42c9c5640a2799b372d27b01957e0a3673",
            "0x000000000000000000000000000000000000000000000000000000000000001e"
          ],
          "data": "0x000000000000000000000000a382b0e75c192d9cdf5c084e58b750cea7761bd0000000000000000000000000cbe5659df21cbcfabe4da962f7a9081f26b3ed82000000000000000000000000c02aaa39b223fe8d0a0e5c4f27ead9083c756cc200000000000000000000000000000000000000000000000006c946e8bf2a8000",
          "blockHash": "0xa6279426866c9c0080a07135aa51fc7c3812d9db981d258a6cbbff1acc6ea468",
          "blockNumber": "0x17b73d6",
          "blockTimestamp": "0x69ea7de8",
          "transactionHash": "0x3667229a8bd13104cb5b50767c7ab07deb0ec87bdbd2c72154eb61a3fc484c54",
          "transactionIndex": "0x0",
          "logIndex": "0x3",
          "removed": false
        }
      ],
      "logsBloom": "0x00000000000000000000000000000000000000000002010000000000000000000000000000000000000000000400020002000000080000000004100000100000000000000000009021000008000000000000000000000000000000000000000000000000000000000001000000000000000000000000040100000010000000000000000000000000000004000000000000100000000008000000800000000000000000000000000000000000000000000000000000000080400000000000000000000002000004000400000000000000000000000000020000000000000000000100200000000000080000000000000000000000104000000000000000000000",
      "type": "0x2",
      "transactionHash": "0x3667229a8bd13104cb5b50767c7ab07deb0ec87bdbd2c72154eb61a3fc484c54",
      "transactionIndex": "0x0",
      "blockHash": "0xa6279426866c9c0080a07135aa51fc7c3812d9db981d258a6cbbff1acc6ea468",
      "blockNumber": "0x17b73d6",
      "gasUsed": "0x20129",
      "effectiveGasPrice": "0xf4248",
      "blobGasPrice": "0x1",
      "from": "0xcbe5659df21cbcfabe4da962f7a9081f26b3ed82",
      "to": "0x73973d222c3fda5b2563d269da9e19cb125000f4",
      "contractAddress": null
    }
  ],
  "libraries": [],
  "pending": [],
  "returns": {},
  "timestamp": 1778453788232,
  "chain": 31337,
  "commit": "f87d399"
}