{
  "transactions": [
    {
      "hash": "0x226c894207bcbd15de3180e22003d4d2eeb211d5b078f5c1a1c410d3b8c42ae9",
      "transactionType": "CALL",
      "contractName": null,
      "contractAddress": "0x8fa71914948544c60e3379064567dcf0e6564d27",
      "function": "settle((uint256,address),(uint8,bool,address,uint256,address,uint256,address,uint64,uint64,uint256),(uint8,bytes32,bytes32))",
      "arguments": [
        "(0, 0x646dC5Fc4009C4C84a424B6aE0f494b374bAE1Ce)",
        "(0, false, 0xA5f104F8f78d5ba9AEC4a383c0927337Fd4E997B, 20, 0xC02aaA39b223FE8D0A0e5C4F27eAD9083C756Cc2, 389000000000000000, 0x1302F142Fc55B165647d3Bd5dec227f569A2A907, 1772278814, 1779895472, 6)",
        "(27, 0xfefc5ab20df242588a00b7d91b15e3eff424adf1898101b1d71b422306941d2d, 0x232a323817b12e7f08ac9b1aed898c06a440dcaca9dc80b5b2a320511c8dde39)"
      ],
      "transaction": {
        "from": "0x646dc5fc4009c4c84a424b6ae0f494b374bae1ce",
        "to": "0x8fa71914948544c60e3379064567dcf0e6564d27",
        "gas": "0x2c4bb",
        "value": "0x0",
        "input": "0x3bae3e790000000000000000000000000000000000000000000000000000000000000000000000000000000000000000646dc5fc4009c4c84a424b6ae0f494b374bae1ce00000000000000000000000000000000000000000000000000000000000000000000000000000000000000000000000000000000000000000000000000000000000000000000000000000000a5f104f8f78d5ba9aec4a383c0927337fd4e997b0000000000000000000000000000000000000000000000000000000000000014000000000000000000000000c02aaa39b223fe8d0a0e5c4f27ead9083c756cc20000000000000000000000000000000000000000000000000566017061a080000000000000000000000000001302f142fc55b165647d3bd5dec227f569a2a9070000000000000000000000000000000000000000000000000000000069a2d41e000000000000000000000000000000000000000000000000000000006a170cb00000000000000000000000000000000000000000000000000000000000000006000000000000000000000000000000000000000000000000000000000000001bfefc5ab20df242588a00b7d91b15e3eff424adf1898101b1d71b422306941d2d232a323817b12e7f08ac9b1aed898c06a440dcaca9dc80b5b2a320511c8dde39",
        "nonce": "0x5b",
        "chainId": "0x7a69"
      },
      "additionalContracts": [],
      "isFixedGasLimit": false
    }
  ],
  "receipts": [
    {
      "status": "0x1",
      "cumulativeGasUsed": "0x2011d",
      "logs": [
        {
          "address": "0xc02aaa39b223fe8d0a0e5c4f27ead9083c756cc2",
          "topics": [
            "0xddf252ad1be2c89b69c2b068fc378daa952ba7f163c4a11628f55a4df523b3ef",
            "0x000000000000000000000000646dc5fc4009c4c84a424b6ae0f494b374bae1ce",
            "0x0000000000000000000000001804c8ab1f12e6bbf3894d4083f33e07309d1f38"
          ],
          "data": "0x000000000000000000000000000000000000000000000000000dd1ef342d2000",
          "blockHash": "0x78188bf70a46ecd90c7ecc8e5cd6567bb38c97ed03ce294fef96905cd2155693",
          "blockNumber": "0x17b8372",
          "blockTimestamp": "0x69f57af9",
          "transactionHash": "0x226c894207bcbd15de3180e22003d4d2eeb211d5b078f5c1a1c410d3b8c42ae9",
          "transactionIndex": "0x0",
          "logIndex": "0x0",
          "removed": false
        },
        {
          "address": "0xc02aaa39b223fe8d0a0e5c4f27ead9083c756cc2",
          "topics": [
            "0xddf252ad1be2c89b69c2b068fc378daa952ba7f163c4a11628f55a4df523b3ef",
            "0x000000000000000000000000646dc5fc4009c4c84a424b6ae0f494b374bae1ce",
            "0x0000000000000000000000001302f142fc55b165647d3bd5dec227f569a2a907"
          ],
          "data": "0x00000000000000000000000000000000000000000000000005582f812d736000",
          "blockHash": "0x78188bf70a46ecd90c7ecc8e5cd6567bb38c97ed03ce294fef96905cd2155693",
          "blockNumber": "0x17b8372",
          "blockTimestamp": "0x69f57af9",
          "transactionHash": "0x226c894207bcbd15de3180e22003d4d2eeb211d5b078f5c1a1c410d3b8c42ae9",
          "transactionIndex": "0x0",
          "logIndex": "0x1",
          "removed": false
        },
        {
          "address": "0xa5f104f8f78d5ba9aec4a383c0927337fd4e997b",
          "topics": [
            "0xddf252ad1be2c89b69c2b068fc378daa952ba7f163c4a11628f55a4df523b3ef",
            "0x0000000000000000000000001302f142fc55b165647d3bd5dec227f569a2a907",
            "0x000000000000000000000000646dc5fc4009c4c84a424b6ae0f494b374bae1ce",
            "0x0000000000000000000000000000000000000000000000000000000000000014"
          ],
          "data": "0x",
          "blockHash": "0x78188bf70a46ecd90c7ecc8e5cd6567bb38c97ed03ce294fef96905cd2155693",
          "blockNumber": "0x17b8372",
          "blockTimestamp": "0x69f57af9",
          "transactionHash": "0x226c894207bcbd15de3180e22003d4d2eeb211d5b078f5c1a1c410d3b8c42ae9",
          "transactionIndex": "0x0",
          "logIndex": "0x2",
          "removed": false
        },
        {
          "address": "0x8fa71914948544c60e3379064567dcf0e6564d27",
          "topics": [
            "0xc0ac3eb1e8caef05b202043f34de8e3173fab712167584f7a2a9f4c302bd0e9c",
            "0x278497aac36760db5f0e8496b6c06fc2f45b5a814c39de1185fcd1d8b7148100",
            "0x000000000000000000000000a5f104f8f78d5ba9aec4a383c0927337fd4e997b",
            "0x0000000000000000000000000000000000000000000000000000000000000014"
          ],
          "data": "0x0000000000000000000000001302f142fc55b165647d3bd5dec227f569a2a907000000000000000000000000646dc5fc4009c4c84a424b6ae0f494b374bae1ce000000000000000000000000c02aaa39b223fe8d0a0e5c4f27ead9083c756cc20000000000000000000000000000000000000000000000000566017061a08000",
          "blockHash": "0x78188bf70a46ecd90c7ecc8e5cd6567bb38c97ed03ce294fef96905cd2155693",
          "blockNumber": "0x17b8372",
          "blockTimestamp": "0x69f57af9",
          "transactionHash": "0x226c894207bcbd15de3180e22003d4d2eeb211d5b078f5c1a1c410d3b8c42ae9",
          "transactionIndex": "0x0",
          "logIndex": "0x3",
          "removed": false
        }
      ],
      "logsBloom": "0x00000000000000000000010000000000000000000002000000000000000000100000000000000000000000000000000002002000090000000000000000100000000000000000000000010008000000000000000000000000080000000000000000000000000000000005000000000000000000000000000000000010200000000800000000040000000004000000000000000000000400000000000000000000000000200000000420000000040100000000000000000080000000000000000000000002000004000000000200000000000000000000000080000000000000000100200000000000000040000000000000000200000000000000000000000000",
      "type": "0x2",
      "transactionHash": "0x226c894207bcbd15de3180e22003d4d2eeb211d5b078f5c1a1c410d3b8c42ae9",
      "transactionIndex": "0x0",
      "blockHash": "0x78188bf70a46ecd90c7ecc8e5cd6567bb38c97ed03ce294fef96905cd2155693",
      "blockNumber": "0x17b8372",
      "gasUsed": "0x2011d",
      "effectiveGasPrice": "0x1ba81c",
      "blobGasPrice": "0x1",
      "from": "0x646dc5fc4009c4c84a424b6ae0f494b374bae1ce",
      "to": "0x8fa71914948544c60e3379064567dcf0e6564d27",
      "contractAddress": null
    }
  ],
  "libraries": [],
  "pending": [],
  "returns": {},
  "timestamp": 1778506497356,
  "chain": 31337,
  "commit": "59e30a9"
}