{
  "transactions": [
    {
      "hash": "0xd34cb93ec6d63e34a8e4db385b2b6d28c31df234453215e4874b0b22a2be970a",
      "transactionType": "CALL",
      "contractName": null,
      "contractAddress": "0x73973d222c3fda5b2563d269da9e19cb125000f4",
      "function": "settle((uint256,address),(uint8,bool,address,uint256,address,uint256,address,uint64,uint64,uint256),(uint8,bytes32,bytes32))",
      "arguments": [
        "(269, 0xc5aDfC119364CFE2297e4414dB04834d8702475B)",
        "(1, false, 0x38D4dE42C9c5640A2799B372D27B01957E0a3673, 269, 0xC02aaA39b223FE8D0A0e5C4F27eAD9083C756Cc2, 27000000000000000, 0x646dC5Fc4009C4C84a424B6aE0f494b374bAE1Ce, 1772358855, 1779706783, 8)",
        "(28, 0x024780b85e0fc22afabcc09ccaedbe38b7cbf7e74a7e0f9f4b07db1b7cba9e7e, 0x013949eb75128a57b44cbdf819b92c705898af039fe90f071d8ff803d221e854)"
      ],
      "transaction": {
        "from": "0xc5adfc119364cfe2297e4414db04834d8702475b",
        "to": "0x73973d222c3fda5b2563d269da9e19cb125000f4",
        "gas": "0x2c5fe",
        "value": "0x0",
        "input": "0x3bae3e79000000000000000000000000000000000000000000000000000000000000010d000000000000000000000000c5adfc119364cfe2297e4414db04834d8702475b0000000000000000000000000000000000000000000000000000000000000001000000000000000000000000000000000000000000000000000000000000000000000000000000000000000038d4de42c9c5640a2799b372d27b01957e0a3673000000000000000000000000000000000000000000000000000000000000010d000000000000000000000000c02aaa39b223fe8d0a0e5c4f27ead9083c756cc2000000000000000000000000000000000000000000000000005fec5b60ef8000000000000000000000000000646dc5fc4009c4c84a424b6ae0f494b374bae1ce0000000000000000000000000000000000000000000000000000000069a40cc7000000000000000000000000000000000000000000000000000000006a142b9f0000000000000000000000000000000000000000000000000000000000000008000000000000000000000000000000000000000000000000000000000000001c024780b85e0fc22afabcc09ccaedbe38b7cbf7e74a7e0f9f4b07db1b7cba9e7e013949eb75128a57b44cbdf819b92c705898af039fe90f071d8ff803d221e854",
        "nonce": "0x6c",
        "chainId": "0x7a69"
      },
      "additionalContracts": [],
      "isFixedGasLimit": false
    }
  ],
  "receipts": [
    {
      "status": "0x1",
      "cumulativeGasUsed": "0x20206",
      "logs": [
        {
          "address": "0xc02aaa39b223fe8d0a0e5c4f27ead9083c756cc2",
          "topics": [
            "0xddf252ad1be2c89b69c2b068fc378daa952ba7f163c4a11628f55a4df523b3ef",
            "0x000000000000000000000000646dc5fc4009c4c84a424b6ae0f494b374bae1ce",
            "0x0000000000000000000000001804c8ab1f12e6bbf3894d4083f33e07309d1f38"
          ],
          "data": "0x0000000000000000000000000000000000000000000000000000f5904616e000",
          "blockHash": "0xd2851660ad03dd16bcda7d4ca6123c6f978c241f84e9c183e7ea7022b91ccafd",
          "blockNumber": "0x17b73db",
          "blockTimestamp": "0x69eb58ac",
          "transactionHash": "0xd34cb93ec6d63e34a8e4db385b2b6d28c31df234453215e4874b0b22a2be970a",
          "transactionIndex": "0x0",
          "logIndex": "0x0",
          "removed": false
        },
        {
          "address": "0xc02aaa39b223fe8d0a0e5c4f27ead9083c756cc2",
          "topics": [
            "0xddf252ad1be2c89b69c2b068fc378daa952ba7f163c4a11628f55a4df523b3ef",
            "0x000000000000000000000000646dc5fc4009c4c84a424b6ae0f494b374bae1ce",
            "0x000000000000000000000000c5adfc119364cfe2297e4414db04834d8702475b"
          ],
          "data": "0x000000000000000000000000000000000000000000000000005ef6cb1ad8a000",
          "blockHash": "0xd2851660ad03dd16bcda7d4ca6123c6f978c241f84e9c183e7ea7022b91ccafd",
          "blockNumber": "0x17b73db",
          "blockTimestamp": "0x69eb58ac",
          "transactionHash": "0xd34cb93ec6d63e34a8e4db385b2b6d28c31df234453215e4874b0b22a2be970a",
          "transactionIndex": "0x0",
          "logIndex": "0x1",
          "removed": false
        },
        {
          "address": "0x38d4de42c9c5640a2799b372d27b01957e0a3673",
          "topics": [
            "0xddf252ad1be2c89b69c2b068fc378daa952ba7f163c4a11628f55a4df523b3ef",
            "0x000000000000000000000000c5adfc119364cfe2297e4414db04834d8702475b",
            "0x000000000000000000000000646dc5fc4009c4c84a424b6ae0f494b374bae1ce",
            "0x000000000000000000000000000000000000000000000000000000000000010d"
          ],
          "data": "0x",
          "blockHash": "0xd2851660ad03dd16bcda7d4ca6123c6f978c241f84e9c183e7ea7022b91ccafd",
          "blockNumber": "0x17b73db",
          "blockTimestamp": "0x69eb58ac",
          "transactionHash": "0xd34cb93ec6d63e34a8e4db385b2b6d28c31df234453215e4874b0b22a2be970a",
          "transactionIndex": "0x0",
          "logIndex": "0x2",
          "removed": false
        },
        {
          "address": "0x73973d222c3fda5b2563d269da9e19cb125000f4",
          "topics": [
            "0xc0ac3eb1e8caef05b202043f34de8e3173fab712167584f7a2a9f4c302bd0e9c",
            "0xec0bd7029bc201cae9da846d501eebd8fa83575b1cbd6de5e0f09eb1a4f7dd54",
            "0x00000000000000000000000038d4de42c9c5640a2799b372d27b01957e0a3673",
            "0x000000000000000000000000000000000000000000000000000000000000010d"
          ],
          "data": "0x000000000000000000000000c5adfc119364cfe2297e4414db04834d8702475b000000000000000000000000646dc5fc4009c4c84a424b6ae0f494b374bae1ce000000000000000000000000c02aaa39b223fe8d0a0e5c4f27ead9083c756cc2000000000000000000000000000000000000000000000000005fec5b60ef8000",
          "blockHash": "0xd2851660ad03dd16bcda7d4ca6123c6f978c241f84e9c183e7ea7022b91ccafd",
          "blockNumber": "0x17b73db",
          "blockTimestamp": "0x69eb58ac",
          "transactionHash": "0xd34cb93ec6d63e34a8e4db385b2b6d28c31df234453215e4874b0b22a2be970a",
          "transactionIndex": "0x0",
          "logIndex": "0x3",
          "removed": false
        }
      ],
      "logsBloom": "0x00000000000000000000000000000000000000000002000000000000000000000000000000000000000000000001020002000000090000000004100000100000000000000000001021000008000000000000000000000000000000000000080200000000000000000005000000000000000000000000000000000010000000000000000000000000000004000000000020000000000008000000000000000000000000000000000000000800000020000000000000000080400000000000000000000002000004000000000000000000040000000000000000000000080000000100200000000000000000000000000000000000000000002000000000000000",
      "type": "0x2",
      "transactionHash": "0xd34cb93ec6d63e34a8e4db385b2b6d28c31df234453215e4874b0b22a2be970a",
      "transactionIndex": "0x0",
      "blockHash": "0xd2851660ad03dd16bcda7d4ca6123c6f978c241f84e9c183e7ea7022b91ccafd",
      "blockNumber": "0x17b73db",
      "gasUsed": "0x20206",
      "effectiveGasPrice": "0xf4248",
      "blobGasPrice": "0x1",
      "from": "0xc5adfc119364cfe2297e4414db04834d8702475b",
      "to": "0x73973d222c3fda5b2563d269da9e19cb125000f4",
      "contractAddress": null
    }
  ],
  "libraries": [],
  "pending": [],
  "returns": {},
  "timestamp": 1778453792773,
  "chain": 31337,
  "commit": "f87d399"
}