{
  "transactions": [
    {
      "hash": "0x1ab479b9d19be1275426276e82693b145106d6bc45e69b49e661149f64350d31",
      "transactionType": "CALL",
      "contractName": null,
      "contractAddress": "0x8fa71914948544c60e3379064567dcf0e6564d27",
      "function": "settle((uint256,address),(uint8,bool,address,uint256,address,uint256,address,uint64,uint64,uint256),(uint8,bytes32,bytes32))",
      "arguments": [
        "(0, 0x646dC5Fc4009C4C84a424B6aE0f494b374bAE1Ce)",
        "(0, false, 0xA5f104F8f78d5ba9AEC4a383c0927337Fd4E997B, 98, 0xC02aaA39b223FE8D0A0e5C4F27eAD9083C756Cc2, 32000000000000000, 0xE233420d38D286C2F2Cf8dEe6564F132FBDB09DB, 1771830312, 1780343974, 0)",
        "(27, 0x504ffea455f5c4ff8c7cb532fc18d296b77054707ff96bde97b36d05994c7ef9, 0x41f48c5090b09fdb190ed1cdbcc1ce1af203fb1c066317234f66f85a6bad6c8e)"
      ],
      "transaction": {
        "from": "0x646dc5fc4009c4c84a424b6ae0f494b374bae1ce",
        "to": "0x8fa71914948544c60e3379064567dcf0e6564d27",
        "gas": "0x2c49b",
        "value": "0x0",
        "input": "0x3bae3e790000000000000000000000000000000000000000000000000000000000000000000000000000000000000000646dc5fc4009c4c84a424b6ae0f494b374bae1ce00000000000000000000000000000000000000000000000000000000000000000000000000000000000000000000000000000000000000000000000000000000000000000000000000000000a5f104f8f78d5ba9aec4a383c0927337fd4e997b0000000000000000000000000000000000000000000000000000000000000062000000000000000000000000c02aaa39b223fe8d0a0e5c4f27ead9083c756cc20000000000000000000000000000000000000000000000000071afd498d00000000000000000000000000000e233420d38d286c2f2cf8dee6564f132fbdb09db00000000000000000000000000000000000000000000000000000000699bfc28000000000000000000000000000000000000000000000000000000006a1de4a60000000000000000000000000000000000000000000000000000000000000000000000000000000000000000000000000000000000000000000000000000001b504ffea455f5c4ff8c7cb532fc18d296b77054707ff96bde97b36d05994c7ef941f48c5090b09fdb190ed1cdbcc1ce1af203fb1c066317234f66f85a6bad6c8e",
        "nonce": "0x4c",
        "chainId": "0x7a69"
      },
      "additionalContracts": [],
      "isFixedGasLimit": false
    }
  ],
  "receipts": [
    {
      "status": "0x1",
      "cumulativeGasUsed": "0x20105",
      "logs": [
        {
          "address": "0xc02aaa39b223fe8d0a0e5c4f27ead9083c756cc2",
          "topics": [
            "0xddf252ad1be2c89b69c2b068fc378daa952ba7f163c4a11628f55a4df523b3ef",
            "0x000000000000000000000000646dc5fc4009c4c84a424b6ae0f494b374bae1ce",
            "0x0000000000000000000000001804c8ab1f12e6bbf3894d4083f33e07309d1f38"
          ],
          "data": "0x00000000000000000000000000000000000000000000000000012309ce540000",
          "blockHash": "0x79d35259771d28fc5c7ab9356b60d059766d81af3aa370637f6f39202e7b5610",
          "blockNumber": "0x17b8331",
          "blockTimestamp": "0x69e57c32",
          "transactionHash": "0x1ab479b9d19be1275426276e82693b145106d6bc45e69b49e661149f64350d31",
          "transactionIndex": "0x0",
          "logIndex": "0x0",
          "removed": false
        },
        {
          "address": "0xc02aaa39b223fe8d0a0e5c4f27ead9083c756cc2",
          "topics": [
            "0xddf252ad1be2c89b69c2b068fc378daa952ba7f163c4a11628f55a4df523b3ef",
            "0x000000000000000000000000646dc5fc4009c4c84a424b6ae0f494b374bae1ce",
            "0x000000000000000000000000e233420d38d286c2f2cf8dee6564f132fbdb09db"
          ],
          "data": "0x00000000000000000000000000000000000000000000000000708ccaca7c0000",
          "blockHash": "0x79d35259771d28fc5c7ab9356b60d059766d81af3aa370637f6f39202e7b5610",
          "blockNumber": "0x17b8331",
          "blockTimestamp": "0x69e57c32",
          "transactionHash": "0x1ab479b9d19be1275426276e82693b145106d6bc45e69b49e661149f64350d31",
          "transactionIndex": "0x0",
          "logIndex": "0x1",
          "removed": false
        },
        {
          "address": "0xa5f104f8f78d5ba9aec4a383c0927337fd4e997b",
          "topics": [
            "0xddf252ad1be2c89b69c2b068fc378daa952ba7f163c4a11628f55a4df523b3ef",
            "0x000000000000000000000000e233420d38d286c2f2cf8dee6564f132fbdb09db",
            "0x000000000000000000000000646dc5fc4009c4c84a424b6ae0f494b374bae1ce",
            "0x0000000000000000000000000000000000000000000000000000000000000062"
          ],
          "data": "0x",
          "blockHash": "0x79d35259771d28fc5c7ab9356b60d059766d81af3aa370637f6f39202e7b5610",
          "blockNumber": "0x17b8331",
          "blockTimestamp": "0x69e57c32",
          "transactionHash": "0x1ab479b9d19be1275426276e82693b145106d6bc45e69b49e661149f64350d31",
          "transactionIndex": "0x0",
          "logIndex": "0x2",
          "removed": false
        },
        {
          "address": "0x8fa71914948544c60e3379064567dcf0e6564d27",
          "topics": [
            "0xc0ac3eb1e8caef05b202043f34de8e3173fab712167584f7a2a9f4c302bd0e9c",
            "0xcc787ba9223c5f3d1fdea0a6dc1d041db212d36c05121043ef11349addef3f45",
            "0x000000000000000000000000a5f104f8f78d5ba9aec4a383c0927337fd4e997b",
            "0x0000000000000000000000000000000000000000000000000000000000000062"
          ],
          "data": "0x000000000000000000000000e233420d38d286c2f2cf8dee6564f132fbdb09db000000000000000000000000646dc5fc4009c4c84a424b6ae0f494b374bae1ce000000000000000000000000c02aaa39b223fe8d0a0e5c4f27ead9083c756cc20000000000000000000000000000000000000000000000000071afd498d00000",
          "blockHash": "0x79d35259771d28fc5c7ab9356b60d059766d81af3aa370637f6f39202e7b5610",
          "blockNumber": "0x17b8331",
          "blockTimestamp": "0x69e57c32",
          "transactionHash": "0x1ab479b9d19be1275426276e82693b145106d6bc45e69b49e661149f64350d31",
          "transactionIndex": "0x0",
          "logIndex": "0x3",
          "removed": false
        }
      ],
      "logsBloom": "0x00000000000000000000010000000000000000000002000000000000000000000000000000000000000000000000000002000000090000000000000800100000000008000000000000010008000000000000000000000000080000000000000000000001000000000005000000000000000000000000000000000010200000000800000000040000000004000000000000100000000000000000000002000000000000200000000400000000000000000000010000000080000000000000000000000012000004000000000000000000000000000002000080000000000400000100200000000000000000000000000000000000000000000000000000000000",
      "type": "0x2",
      "transactionHash": "0x1ab479b9d19be1275426276e82693b145106d6bc45e69b49e661149f64350d31",
      "transactionIndex": "0x0",
      "blockHash": "0x79d35259771d28fc5c7ab9356b60d059766d81af3aa370637f6f39202e7b5610",
      "blockNumber": "0x17b8331",
      "gasUsed": "0x20105",
      "effectiveGasPrice": "0x1ba81c",
      "blobGasPrice": "0x1",
      "from": "0x646dc5fc4009c4c84a424b6ae0f494b374bae1ce",
      "to": "0x8fa71914948544c60e3379064567dcf0e6564d27",
      "contractAddress": null
    }
  ],
  "libraries": [],
  "pending": [],
  "returns": {},
  "timestamp": 1778506424346,
  "chain": 31337,
  "commit": "59e30a9"
}