{
  "transactions": [
    {
      "hash": "0xca92b1dcf74b94db04ebddfebf452243665b8274734c3e27dd5c825ec6ed4998",
      "transactionType": "CALL",
      "contractName": null,
      "contractAddress": "0x73973d222c3fda5b2563d269da9e19cb125000f4",
      "function": "settle((uint256,address),(uint8,bool,address,uint256,address,uint256,address,uint64,uint64,uint256),(uint8,bytes32,bytes32))",
      "arguments": [
        "(199, 0x646dC5Fc4009C4C84a424B6aE0f494b374bAE1Ce)",
        "(1, false, 0x38D4dE42C9c5640A2799B372D27B01957E0a3673, 199, 0xC02aaA39b223FE8D0A0e5C4F27eAD9083C756Cc2, 31000000000000000, 0xe3745C151faB59B0740f4312b2B027F07D096639, 1772840690, 1779224948, 12)",
        "(28, 0x896e7fa5f05c0913a410a55b9a6358daf1ed39f89bc5f8ba029217c79f4f73bd, 0x133009de4025c63d73d489229bebe04ca410c1c0130959ee0ddc2fe03ba6aca3)"
      ],
      "transaction": {
        "from": "0x646dc5fc4009c4c84a424b6ae0f494b374bae1ce",
        "to": "0x73973d222c3fda5b2563d269da9e19cb125000f4",
        "gas": "0x2c5dc",
        "value": "0x0",
        "input": "0x3bae3e7900000000000000000000000000000000000000000000000000000000000000c7000000000000000000000000646dc5fc4009c4c84a424b6ae0f494b374bae1ce0000000000000000000000000000000000000000000000000000000000000001000000000000000000000000000000000000000000000000000000000000000000000000000000000000000038d4de42c9c5640a2799b372d27b01957e0a367300000000000000000000000000000000000000000000000000000000000000c7000000000000000000000000c02aaa39b223fe8d0a0e5c4f27ead9083c756cc2000000000000000000000000000000000000000000000000006e2255f4098000000000000000000000000000e3745c151fab59b0740f4312b2b027f07d0966390000000000000000000000000000000000000000000000000000000069ab66f2000000000000000000000000000000000000000000000000000000006a0cd174000000000000000000000000000000000000000000000000000000000000000c000000000000000000000000000000000000000000000000000000000000001c896e7fa5f05c0913a410a55b9a6358daf1ed39f89bc5f8ba029217c79f4f73bd133009de4025c63d73d489229bebe04ca410c1c0130959ee0ddc2fe03ba6aca3",
        "nonce": "0x9f",
        "chainId": "0x7a69"
      },
      "additionalContracts": [],
      "isFixedGasLimit": false
    }
  ],
  "receipts": [
    {
      "status": "0x1",
      "cumulativeGasUsed": "0x201ee",
      "logs": [
        {
          "address": "0xc02aaa39b223fe8d0a0e5c4f27ead9083c756cc2",
          "topics": [
            "0xddf252ad1be2c89b69c2b068fc378daa952ba7f163c4a11628f55a4df523b3ef",
            "0x000000000000000000000000e3745c151fab59b0740f4312b2b027f07d096639",
            "0x0000000000000000000000001804c8ab1f12e6bbf3894d4083f33e07309d1f38"
          ],
          "data": "0x000000000000000000000000000000000000000000000000000119f17fe16000",
          "blockHash": "0x8e3bfcc79db43d7af7b4222959f0f7f04d246f0225af58b6522cb1b2c1343970",
          "blockNumber": "0x17b73cf",
          "blockTimestamp": "0x69e94b9f",
          "transactionHash": "0xca92b1dcf74b94db04ebddfebf452243665b8274734c3e27dd5c825ec6ed4998",
          "transactionIndex": "0x0",
          "logIndex": "0x0",
          "removed": false
        },
        {
          "address": "0xc02aaa39b223fe8d0a0e5c4f27ead9083c756cc2",
          "topics": [
            "0xddf252ad1be2c89b69c2b068fc378daa952ba7f163c4a11628f55a4df523b3ef",
            "0x000000000000000000000000e3745c151fab59b0740f4312b2b027f07d096639",
            "0x000000000000000000000000646dc5fc4009c4c84a424b6ae0f494b374bae1ce"
          ],
          "data": "0x000000000000000000000000000000000000000000000000006d086474282000",
          "blockHash": "0x8e3bfcc79db43d7af7b4222959f0f7f04d246f0225af58b6522cb1b2c1343970",
          "blockNumber": "0x17b73cf",
          "blockTimestamp": "0x69e94b9f",
          "transactionHash": "0xca92b1dcf74b94db04ebddfebf452243665b8274734c3e27dd5c825ec6ed4998",
          "transactionIndex": "0x0",
          "logIndex": "0x1",
          "removed": false
        },
        {
          "address": "0x38d4de42c9c5640a2799b372d27b01957e0a3673",
          "topics": [
            "0xddf252ad1be2c89b69c2b068fc378daa952ba7f163c4a11628f55a4df523b3ef",
            "0x000000000000000000000000646dc5fc4009c4c84a424b6ae0f494b374bae1ce",
            "0x000000000000000000000000e3745c151fab59b0740f4312b2b027f07d096639",
            "0x00000000000000000000000000000000000000000000000000000000000000c7"
          ],
          "data": "0x",
          "blockHash": "0x8e3bfcc79db43d7af7b4222959f0f7f04d246f0225af58b6522cb1b2c1343970",
          "blockNumber": "0x17b73cf",
          "blockTimestamp": "0x69e94b9f",
          "transactionHash": "0xca92b1dcf74b94db04ebddfebf452243665b8274734c3e27dd5c825ec6ed4998",
          "transactionIndex": "0x0",
          "logIndex": "0x2",
          "removed": false
        },
        {
          "address": "0x73973d222c3fda5b2563d269da9e19cb125000f4",
          "topics": [
            "0xc0ac3eb1e8caef05b202043f34de8e3173fab712167584f7a2a9f4c302bd0e9c",
            "0x340745a8e7c6e319d3bf4141ce3f4e36183eed7f8c303db5554abf730d613c4c",
            "0x00000000000000000000000038d4de42c9c5640a2799b372d27b01957e0a3673",
            "0x00000000000000000000000000000000000000000000000000000000000000c7"
          ],
          "data": "0x000000000000000000000000646dc5fc4009c4c84a424b6ae0f494b374bae1ce000000000000000000000000e3745c151fab59b0740f4312b2b027f07d096639000000000000000000000000c02aaa39b223fe8d0a0e5c4f27ead9083c756cc2000000000000000000000000000000000000000000000000006e2255f4098000",
          "blockHash": "0x8e3bfcc79db43d7af7b4222959f0f7f04d246f0225af58b6522cb1b2c1343970",
          "blockNumber": "0x17b73cf",
          "blockTimestamp": "0x69e94b9f",
          "transactionHash": "0xca92b1dcf74b94db04ebddfebf452243665b8274734c3e27dd5c825ec6ed4998",
          "transactionIndex": "0x0",
          "logIndex": "0x3",
          "removed": false
        }
      ],
      "logsBloom": "0x00000000000000000000000000000000000000000102000000000002000000040000000000000000000000000000020042000000090000000004100000100000000000000000001021000008000000400000000000000000000000000000000000000000000000000005000000000000000000000000000000000010000001000000000000000000000004000000000000000000000008000000000000000000000000000000000000000000000000000000000000000080400000000000000000000002000104000000000000000000000000000000000000000040000000000100200000000000000000000000000000000000000000000000000000004000",
      "type": "0x2",
      "transactionHash": "0xca92b1dcf74b94db04ebddfebf452243665b8274734c3e27dd5c825ec6ed4998",
      "transactionIndex": "0x0",
      "blockHash": "0x8e3bfcc79db43d7af7b4222959f0f7f04d246f0225af58b6522cb1b2c1343970",
      "blockNumber": "0x17b73cf",
      "gasUsed": "0x201ee",
      "effectiveGasPrice": "0xf4248",
      "blobGasPrice": "0x1",
      "from": "0x646dc5fc4009c4c84a424b6ae0f494b374bae1ce",
      "to": "0x73973d222c3fda5b2563d269da9e19cb125000f4",
      "contractAddress": null
    }
  ],
  "libraries": [],
  "pending": [],
  "returns": {},
  "timestamp": 1778453782214,
  "chain": 31337,
  "commit": "f87d399"
}