{
  "transactions": [
    {
      "hash": "0x238f36c63d7c01f9df1fd7b03ae664cf6020acff000848c8effc36a77fc79b32",
      "transactionType": "CALL",
      "contractName": null,
      "contractAddress": "0x8fa71914948544c60e3379064567dcf0e6564d27",
      "function": "settle((uint256,address),(uint8,bool,address,uint256,address,uint256,address,uint64,uint64,uint256),(uint8,bytes32,bytes32))",
      "arguments": [
        "(311, 0x4b75AeC40561C03e03d4D1C421dF194a3031A134)",
        "(1, false, 0xA5f104F8f78d5ba9AEC4a383c0927337Fd4E997B, 311, 0xC02aaA39b223FE8D0A0e5C4F27eAD9083C756Cc2, 19000000000000000, 0xe3745C151faB59B0740f4312b2B027F07D096639, 1771760269, 1780414017, 3)",
        "(28, 0xe06ed4466d66aa109e8dffe78f7a9baece385e2da8cd2bca611fee752c6efd7c, 0x07da97af2d8d13d9709f8ba2ff2e016a11c6b9b152063aecf5f73f89397be2bb)"
      ],
      "transaction": {
        "from": "0x4b75aec40561c03e03d4d1c421df194a3031a134",
        "to": "0x8fa71914948544c60e3379064567dcf0e6564d27",
        "gas": "0x2c5fe",
        "value": "0x0",
        "input": "0x3bae3e7900000000000000000000000000000000000000000000000000000000000001370000000000000000000000004b75aec40561c03e03d4d1c421df194a3031a13400000000000000000000000000000000000000000000000000000000000000010000000000000000000000000000000000000000000000000000000000000000000000000000000000000000a5f104f8f78d5ba9aec4a383c0927337fd4e997b0000000000000000000000000000000000000000000000000000000000000137000000000000000000000000c02aaa39b223fe8d0a0e5c4f27ead9083c756cc2000000000000000000000000000000000000000000000000004380663abb8000000000000000000000000000e3745c151fab59b0740f4312b2b027f07d09663900000000000000000000000000000000000000000000000000000000699aea8d000000000000000000000000000000000000000000000000000000006a1ef6410000000000000000000000000000000000000000000000000000000000000003000000000000000000000000000000000000000000000000000000000000001ce06ed4466d66aa109e8dffe78f7a9baece385e2da8cd2bca611fee752c6efd7c07da97af2d8d13d9709f8ba2ff2e016a11c6b9b152063aecf5f73f89397be2bb",
        "nonce": "0x29",
        "chainId": "0x7a69"
      },
      "additionalContracts": [],
      "isFixedGasLimit": false
    }
  ],
  "receipts": [
    {
      "status": "0x1",
      "cumulativeGasUsed": "0x20206",
      "logs": [
        {
          "address": "0xc02aaa39b223fe8d0a0e5c4f27ead9083c756cc2",
          "topics": [
            "0xddf252ad1be2c89b69c2b068fc378daa952ba7f163c4a11628f55a4df523b3ef",
            "0x000000000000000000000000e3745c151fab59b0740f4312b2b027f07d096639",
            "0x0000000000000000000000001804c8ab1f12e6bbf3894d4083f33e07309d1f38"
          ],
          "data": "0x0000000000000000000000000000000000000000000000000000accdd281e000",
          "blockHash": "0xd66ce93b2990c10d1ab5cacbc92fd8aa741723a9e098026ce39a35828aaacb99",
          "blockNumber": "0x17b8332",
          "blockTimestamp": "0x69e5d3b1",
          "transactionHash": "0x238f36c63d7c01f9df1fd7b03ae664cf6020acff000848c8effc36a77fc79b32",
          "transactionIndex": "0x0",
          "logIndex": "0x0",
          "removed": false
        },
        {
          "address": "0xc02aaa39b223fe8d0a0e5c4f27ead9083c756cc2",
          "topics": [
            "0xddf252ad1be2c89b69c2b068fc378daa952ba7f163c4a11628f55a4df523b3ef",
            "0x000000000000000000000000e3745c151fab59b0740f4312b2b027f07d096639",
            "0x0000000000000000000000004b75aec40561c03e03d4d1c421df194a3031a134"
          ],
          "data": "0x0000000000000000000000000000000000000000000000000042d3986839a000",
          "blockHash": "0xd66ce93b2990c10d1ab5cacbc92fd8aa741723a9e098026ce39a35828aaacb99",
          "blockNumber": "0x17b8332",
          "blockTimestamp": "0x69e5d3b1",
          "transactionHash": "0x238f36c63d7c01f9df1fd7b03ae664cf6020acff000848c8effc36a77fc79b32",
          "transactionIndex": "0x0",
          "logIndex": "0x1",
          "removed": false
        },
        {
          "address": "0xa5f104f8f78d5ba9aec4a383c0927337fd4e997b",
          "topics": [
            "0xddf252ad1be2c89b69c2b068fc378daa952ba7f163c4a11628f55a4df523b3ef",
            "0x0000000000000000000000004b75aec40561c03e03d4d1c421df194a3031a134",
            "0x000000000000000000000000e3745c151fab59b0740f4312b2b027f07d096639",
            "0x0000000000000000000000000000000000000000000000000000000000000137"
          ],
          "data": "0x",
          "blockHash": "0xd66ce93b2990c10d1ab5cacbc92fd8aa741723a9e098026ce39a35828aaacb99",
          "blockNumber": "0x17b8332",
          "blockTimestamp": "0x69e5d3b1",
          "transactionHash": "0x238f36c63d7c01f9df1fd7b03ae664cf6020acff000848c8effc36a77fc79b32",
          "transactionIndex": "0x0",
          "logIndex": "0x2",
          "removed": false
        },
        {
          "address": "0x8fa71914948544c60e3379064567dcf0e6564d27",
          "topics": [
            "0xc0ac3eb1e8caef05b202043f34de8e3173fab712167584f7a2a9f4c302bd0e9c",
            "0x3ce198aa0db288df88490f923693462adeddfe56d52cce85bbd532b10f882f8e",
            "0x000000000000000000000000a5f104f8f78d5ba9aec4a383c0927337fd4e997b",
            "0x0000000000000000000000000000000000000000000000000000000000000137"
          ],
          "data": "0x0000000000000000000000004b75aec40561c03e03d4d1c421df194a3031a134000000000000000000000000e3745c151fab59b0740f4312b2b027f07d096639000000000000000000000000c02aaa39b223fe8d0a0e5c4f27ead9083c756cc2000000000000000000000000000000000000000000000000004380663abb8000",
          "blockHash": "0xd66ce93b2990c10d1ab5cacbc92fd8aa741723a9e098026ce39a35828aaacb99",
          "blockNumber": "0x17b8332",
          "blockTimestamp": "0x69e5d3b1",
          "transactionHash": "0x238f36c63d7c01f9df1fd7b03ae664cf6020acff000848c8effc36a77fc79b32",
          "transactionIndex": "0x0",
          "logIndex": "0x3",
          "removed": false
        }
      ],
      "logsBloom": "0x00000000000000000000010000000000000000000100000000000000000000000000000000000000000008000000000042000000080000000000000000100000000000000000000000010008000000000000000000000000080000000000000000010000000000000001000000000000000040000000000000000010200000000800000010040000000004000000000000000002000000000000000000002000000000200000000400000000000400000000000000000080020000000000000000000002000004000000000000000000000000000000000080000040000000000100200000000000000000000000000000000000000008000000000000000000",
      "type": "0x2",
      "transactionHash": "0x238f36c63d7c01f9df1fd7b03ae664cf6020acff000848c8effc36a77fc79b32",
      "transactionIndex": "0x0",
      "blockHash": "0xd66ce93b2990c10d1ab5cacbc92fd8aa741723a9e098026ce39a35828aaacb99",
      "blockNumber": "0x17b8332",
      "gasUsed": "0x20206",
      "effectiveGasPrice": "0x1ba81c",
      "blobGasPrice": "0x1",
      "from": "0x4b75aec40561c03e03d4d1c421df194a3031a134",
      "to": "0x8fa71914948544c60e3379064567dcf0e6564d27",
      "contractAddress": null
    }
  ],
  "libraries": [],
  "pending": [],
  "returns": {},
  "timestamp": 1778506425211,
  "chain": 31337,
  "commit": "59e30a9"
}