{
  "transactions": [
    {
      "hash": "0xb948e66acb198ffa95f6b68df0ed9e15dd9992abd77211a7d255d5e492441b3e",
      "transactionType": "CALL",
      "contractName": null,
      "contractAddress": "0x8fa71914948544c60e3379064567dcf0e6564d27",
      "function": "settle((uint256,address),(uint8,bool,address,uint256,address,uint256,address,uint64,uint64,uint256),(uint8,bytes32,bytes32))",
      "arguments": [
        "(0, 0x08312E82df563A1639b81f49bb41247759700e30)",
        "(0, false, 0xA5f104F8f78d5ba9AEC4a383c0927337Fd4E997B, 228, 0xC02aaA39b223FE8D0A0e5C4F27eAD9083C756Cc2, 44000000000000000, 0xe3745C151faB59B0740f4312b2B027F07D096639, 1773270903, 1778903383, 17)",
        "(27, 0xece54ca870003c2bf15e1df0257ed49f6c3c4c3ea0c9a301787236dc0e81fc9d, 0x452987316b94d60ef48e23dfb189c66b42a0934b93be50e2dfe90c0cda6eb050)"
      ],
      "transaction": {
        "from": "0x08312e82df563a1639b81f49bb41247759700e30",
        "to": "0x8fa71914948544c60e3379064567dcf0e6564d27",
        "gas": "0x2c49b",
        "value": "0x0",
        "input": "0x3bae3e79000000000000000000000000000000000000000000000000000000000000000000000000000000000000000008312e82df563a1639b81f49bb41247759700e3000000000000000000000000000000000000000000000000000000000000000000000000000000000000000000000000000000000000000000000000000000000000000000000000000000000a5f104f8f78d5ba9aec4a383c0927337fd4e997b00000000000000000000000000000000000000000000000000000000000000e4000000000000000000000000c02aaa39b223fe8d0a0e5c4f27ead9083c756cc2000000000000000000000000000000000000000000000000009c51c4521e0000000000000000000000000000e3745c151fab59b0740f4312b2b027f07d0966390000000000000000000000000000000000000000000000000000000069b1f777000000000000000000000000000000000000000000000000000000006a07e9570000000000000000000000000000000000000000000000000000000000000011000000000000000000000000000000000000000000000000000000000000001bece54ca870003c2bf15e1df0257ed49f6c3c4c3ea0c9a301787236dc0e81fc9d452987316b94d60ef48e23dfb189c66b42a0934b93be50e2dfe90c0cda6eb050",
        "nonce": "0x40",
        "chainId": "0x7a69"
      },
      "additionalContracts": [],
      "isFixedGasLimit": false
    }
  ],
  "receipts": [
    {
      "status": "0x1",
      "cumulativeGasUsed": "0x20105",
      "logs": [
        {
          "address": "0xc02aaa39b223fe8d0a0e5c4f27ead9083c756cc2",
          "topics": [
            "0xddf252ad1be2c89b69c2b068fc378daa952ba7f163c4a11628f55a4df523b3ef",
            "0x00000000000000000000000008312e82df563a1639b81f49bb41247759700e30",
            "0x0000000000000000000000001804c8ab1f12e6bbf3894d4083f33e07309d1f38"
          ],
          "data": "0x0000000000000000000000000000000000000000000000000001902d7bb38000",
          "blockHash": "0x2f26d2aabc00d94e49a480af9f11c7d0bb20d0c5b25583f0cd06b95bcfcc2ec7",
          "blockNumber": "0x17b8389",
          "blockTimestamp": "0x69fa91c7",
          "transactionHash": "0xb948e66acb198ffa95f6b68df0ed9e15dd9992abd77211a7d255d5e492441b3e",
          "transactionIndex": "0x0",
          "logIndex": "0x0",
          "removed": false
        },
        {
          "address": "0xc02aaa39b223fe8d0a0e5c4f27ead9083c756cc2",
          "topics": [
            "0xddf252ad1be2c89b69c2b068fc378daa952ba7f163c4a11628f55a4df523b3ef",
            "0x00000000000000000000000008312e82df563a1639b81f49bb41247759700e30",
            "0x000000000000000000000000e3745c151fab59b0740f4312b2b027f07d096639"
          ],
          "data": "0x000000000000000000000000000000000000000000000000009ac196d66a8000",
          "blockHash": "0x2f26d2aabc00d94e49a480af9f11c7d0bb20d0c5b25583f0cd06b95bcfcc2ec7",
          "blockNumber": "0x17b8389",
          "blockTimestamp": "0x69fa91c7",
          "transactionHash": "0xb948e66acb198ffa95f6b68df0ed9e15dd9992abd77211a7d255d5e492441b3e",
          "transactionIndex": "0x0",
          "logIndex": "0x1",
          "removed": false
        },
        {
          "address": "0xa5f104f8f78d5ba9aec4a383c0927337fd4e997b",
          "topics": [
            "0xddf252ad1be2c89b69c2b068fc378daa952ba7f163c4a11628f55a4df523b3ef",
            "0x000000000000000000000000e3745c151fab59b0740f4312b2b027f07d096639",
            "0x00000000000000000000000008312e82df563a1639b81f49bb41247759700e30",
            "0x00000000000000000000000000000000000000000000000000000000000000e4"
          ],
          "data": "0x",
          "blockHash": "0x2f26d2aabc00d94e49a480af9f11c7d0bb20d0c5b25583f0cd06b95bcfcc2ec7",
          "blockNumber": "0x17b8389",
          "blockTimestamp": "0x69fa91c7",
          "transactionHash": "0xb948e66acb198ffa95f6b68df0ed9e15dd9992abd77211a7d255d5e492441b3e",
          "transactionIndex": "0x0",
          "logIndex": "0x2",
          "removed": false
        },
        {
          "address": "0x8fa71914948544c60e3379064567dcf0e6564d27",
          "topics": [
            "0xc0ac3eb1e8caef05b202043f34de8e3173fab712167584f7a2a9f4c302bd0e9c",
            "0x3fd683785b89c04818ac063b2eb26b4bae9537bbe5a5df54d62ed94887d190d2",
            "0x000000000000000000000000a5f104f8f78d5ba9aec4a383c0927337fd4e997b",
            "0x00000000000000000000000000000000000000000000000000000000000000e4"
          ],
          "data": "0x000000000000000000000000e3745c151fab59b0740f4312b2b027f07d09663900000000000000000000000008312e82df563a1639b81f49bb41247759700e30000000000000000000000000c02aaa39b223fe8d0a0e5c4f27ead9083c756cc2000000000000000000000000000000000000000000000000009c51c4521e0000",
          "blockHash": "0x2f26d2aabc00d94e49a480af9f11c7d0bb20d0c5b25583f0cd06b95bcfcc2ec7",
          "blockNumber": "0x17b8389",
          "blockTimestamp": "0x69fa91c7",
          "transactionHash": "0xb948e66acb198ffa95f6b68df0ed9e15dd9992abd77211a7d255d5e492441b3e",
          "transactionIndex": "0x0",
          "logIndex": "0x3",
          "removed": false
        }
      ],
      "logsBloom": "0x00000000000000000000010001000000000000000100000000000000000000000000000000100000000000000002000042000000080000000000000000100000000000000000000000010008000000000000000000000000080000000000000000000010000000000001000000000000000000000000000000000010200000000800000000040000000004000000000000000000000000000000200000000000000000200000000400000000000000000000010000000080000000000000000000000002000004000000000000000000000000000000000080040040000000000100200000000000080000000000000000000000004000000000000000000000",
      "type": "0x2",
      "transactionHash": "0xb948e66acb198ffa95f6b68df0ed9e15dd9992abd77211a7d255d5e492441b3e",
      "transactionIndex": "0x0",
      "blockHash": "0x2f26d2aabc00d94e49a480af9f11c7d0bb20d0c5b25583f0cd06b95bcfcc2ec7",
      "blockNumber": "0x17b8389",
      "gasUsed": "0x20105",
      "effectiveGasPrice": "0x1ba81c",
      "blobGasPrice": "0x1",
      "from": "0x08312e82df563a1639b81f49bb41247759700e30",
      "to": "0x8fa71914948544c60e3379064567dcf0e6564d27",
      "contractAddress": null
    }
  ],
  "libraries": [],
  "pending": [],
  "returns": {},
  "timestamp": 1778506523499,
  "chain": 31337,
  "commit": "59e30a9"
}