{
  "transactions": [
    {
      "hash": "0x3686bb9385ea3e1687340413a880992695531eb844102119dd64433317d0ae91",
      "transactionType": "CALL",
      "contractName": null,
      "contractAddress": "0x73973d222c3fda5b2563d269da9e19cb125000f4",
      "function": "settle((uint256,address),(uint8,bool,address,uint256,address,uint256,address,uint64,uint64,uint256),(uint8,bytes32,bytes32))",
      "arguments": [
        "(0, 0xc5aDfC119364CFE2297e4414dB04834d8702475B)",
        "(0, false, 0x38D4dE42C9c5640A2799B372D27B01957E0a3673, 269, 0xC02aaA39b223FE8D0A0e5C4F27eAD9083C756Cc2, 26000000000000000, 0xcbe5659df21Cbcfabe4da962F7a9081F26B3ed82, 1773483271, 1778582367, 5)",
        "(28, 0xf5dc639d607d7bab66c361b95e5b781d9d22c90b2e7036e73b9833e834e4bbd8, 0x03f21666ee79999d8a88f372c414bce37cef758448c6fecd19bcdd2f7b8681b3)"
      ],
      "transaction": {
        "from": "0xc5adfc119364cfe2297e4414db04834d8702475b",
        "to": "0x73973d222c3fda5b2563d269da9e19cb125000f4",
        "gas": "0x2ee8a",
        "value": "0x0",
        "input": "0x3bae3e790000000000000000000000000000000000000000000000000000000000000000000000000000000000000000c5adfc119364cfe2297e4414db04834d8702475b0000000000000000000000000000000000000000000000000000000000000000000000000000000000000000000000000000000000000000000000000000000000000000000000000000000038d4de42c9c5640a2799b372d27b01957e0a3673000000000000000000000000000000000000000000000000000000000000010d000000000000000000000000c02aaa39b223fe8d0a0e5c4f27ead9083c756cc2000000000000000000000000000000000000000000000000005c5edcbc290000000000000000000000000000cbe5659df21cbcfabe4da962f7a9081f26b3ed820000000000000000000000000000000000000000000000000000000069b53507000000000000000000000000000000000000000000000000000000006a03035f0000000000000000000000000000000000000000000000000000000000000005000000000000000000000000000000000000000000000000000000000000001cf5dc639d607d7bab66c361b95e5b781d9d22c90b2e7036e73b9833e834e4bbd803f21666ee79999d8a88f372c414bce37cef758448c6fecd19bcdd2f7b8681b3",
        "nonce": "0x67",
        "chainId": "0x7a69"
      },
      "additionalContracts": [],
      "isFixedGasLimit": false
    }
  ],
  "receipts": [
    {
      "status": "0x1",
      "cumulativeGasUsed": "0x20131",
      "logs": [
        {
          "address": "0xc02aaa39b223fe8d0a0e5c4f27ead9083c756cc2",
          "topics": [
            "0xddf252ad1be2c89b69c2b068fc378daa952ba7f163c4a11628f55a4df523b3ef",
            "0x000000000000000000000000c5adfc119364cfe2297e4414db04834d8702475b",
            "0x0000000000000000000000001804c8ab1f12e6bbf3894d4083f33e07309d1f38"
          ],
          "data": "0x0000000000000000000000000000000000000000000000000000ec77f7a44000",
          "blockHash": "0x766cf67ab163e5d4cba5fe7e222bd3668fffd2b7fd53d5c8359dc2b850ca5126",
          "blockNumber": "0x17b73bc",
          "blockTimestamp": "0x69e60c4f",
          "transactionHash": "0x3686bb9385ea3e1687340413a880992695531eb844102119dd64433317d0ae91",
          "transactionIndex": "0x0",
          "logIndex": "0x0",
          "removed": false
        },
        {
          "address": "0xc02aaa39b223fe8d0a0e5c4f27ead9083c756cc2",
          "topics": [
            "0xddf252ad1be2c89b69c2b068fc378daa952ba7f163c4a11628f55a4df523b3ef",
            "0x000000000000000000000000c5adfc119364cfe2297e4414db04834d8702475b",
            "0x000000000000000000000000cbe5659df21cbcfabe4da962f7a9081f26b3ed82"
          ],
          "data": "0x000000000000000000000000000000000000000000000000005b7264c484c000",
          "blockHash": "0x766cf67ab163e5d4cba5fe7e222bd3668fffd2b7fd53d5c8359dc2b850ca5126",
          "blockNumber": "0x17b73bc",
          "blockTimestamp": "0x69e60c4f",
          "transactionHash": "0x3686bb9385ea3e1687340413a880992695531eb844102119dd64433317d0ae91",
          "transactionIndex": "0x0",
          "logIndex": "0x1",
          "removed": false
        },
        {
          "address": "0x38d4de42c9c5640a2799b372d27b01957e0a3673",
          "topics": [
            "0xddf252ad1be2c89b69c2b068fc378daa952ba7f163c4a11628f55a4df523b3ef",
            "0x000000000000000000000000cbe5659df21cbcfabe4da962f7a9081f26b3ed82",
            "0x000000000000000000000000c5adfc119364cfe2297e4414db04834d8702475b",
            "0x000000000000000000000000000000000000000000000000000000000000010d"
          ],
          "data": "0x",
          "blockHash": "0x766cf67ab163e5d4cba5fe7e222bd3668fffd2b7fd53d5c8359dc2b850ca5126",
          "blockNumber": "0x17b73bc",
          "blockTimestamp": "0x69e60c4f",
          "transactionHash": "0x3686bb9385ea3e1687340413a880992695531eb844102119dd64433317d0ae91",
          "transactionIndex": "0x0",
          "logIndex": "0x2",
          "removed": false
        },
        {
          "address": "0x73973d222c3fda5b2563d269da9e19cb125000f4",
          "topics": [
            "0xc0ac3eb1e8caef05b202043f34de8e3173fab712167584f7a2a9f4c302bd0e9c",
            "0x27a20ebce2a313d01fa88b9de36f61377efb10f1ff6d691a4303ae4353aba0f9",
            "0x00000000000000000000000038d4de42c9c5640a2799b372d27b01957e0a3673",
            "0x000000000000000000000000000000000000000000000000000000000000010d"
          ],
          "data": "0x000000000000000000000000cbe5659df21cbcfabe4da962f7a9081f26b3ed82000000000000000000000000c5adfc119364cfe2297e4414db04834d8702475b000000000000000000000000c02aaa39b223fe8d0a0e5c4f27ead9083c756cc2000000000000000000000000000000000000000000000000005c5edcbc290000",
          "blockHash": "0x766cf67ab163e5d4cba5fe7e222bd3668fffd2b7fd53d5c8359dc2b850ca5126",
          "blockNumber": "0x17b73bc",
          "blockTimestamp": "0x69e60c4f",
          "transactionHash": "0x3686bb9385ea3e1687340413a880992695531eb844102119dd64433317d0ae91",
          "transactionIndex": "0x0",
          "logIndex": "0x3",
          "removed": false
        }
      ],
      "logsBloom": "0x00000000000000000000000000000000000000000002000000000000080000000000000000000000000000000000020002000000080000000004100000100000020000000000001021000008000000000000000000000000000000000000000200000000000000000001000000000000000000000000000000000010000000000000000000000000000004000000000020000000000008000000000000000000000000000000000000000800000020000000000000000080400000000000000000000002000004000400000000000000000000000000020000000000080000000100200000000000000000000000000010000000004000002000000000000000",
      "type": "0x2",
      "transactionHash": "0x3686bb9385ea3e1687340413a880992695531eb844102119dd64433317d0ae91",
      "transactionIndex": "0x0",
      "blockHash": "0x766cf67ab163e5d4cba5fe7e222bd3668fffd2b7fd53d5c8359dc2b850ca5126",
      "blockNumber": "0x17b73bc",
      "gasUsed": "0x20131",
      "effectiveGasPrice": "0xf4248",
      "blobGasPrice": "0x1",
      "from": "0xc5adfc119364cfe2297e4414db04834d8702475b",
      "to": "0x73973d222c3fda5b2563d269da9e19cb125000f4",
      "contractAddress": null
    }
  ],
  "libraries": [],
  "pending": [],
  "returns": {},
  "timestamp": 1778453765497,
  "chain": 31337,
  "commit": "f87d399"
}