{
  "transactions": [
    {
      "hash": "0x8f2d5ed028b81688e71feae83ab80047b1deeb4e15f9c818cfb63fad2c187bf3",
      "transactionType": "CALL",
      "contractName": null,
      "contractAddress": "0x73973d222c3fda5b2563d269da9e19cb125000f4",
      "function": "settle((uint256,address),(uint8,bool,address,uint256,address,uint256,address,uint64,uint64,uint256),(uint8,bytes32,bytes32))",
      "arguments": [
        "(225, 0x646dC5Fc4009C4C84a424B6aE0f494b374bAE1Ce)",
        "(1, false, 0x38D4dE42C9c5640A2799B372D27B01957E0a3673, 225, 0xC02aaA39b223FE8D0A0e5C4F27eAD9083C756Cc2, 1121000000000000000, 0xc5aDfC119364CFE2297e4414dB04834d8702475B, 1772889870, 1779175768, 9)",
        "(27, 0xe71a0be7c3281b0e90e69c770aafaff557371f2e8191e6b194bf7b97491f82ab, 0x1d68da33fcdbc1cd4647cc89434bfd35d950687488493e11b43d19070c3d9554)"
      ],
      "transaction": {
        "from": "0x646dc5fc4009c4c84a424b6ae0f494b374bae1ce",
        "to": "0x73973d222c3fda5b2563d269da9e19cb125000f4",
        "gas": "0x2c5d2",
        "value": "0x0",
        "input": "0x3bae3e7900000000000000000000000000000000000000000000000000000000000000e1000000000000000000000000646dc5fc4009c4c84a424b6ae0f494b374bae1ce0000000000000000000000000000000000000000000000000000000000000001000000000000000000000000000000000000000000000000000000000000000000000000000000000000000038d4de42c9c5640a2799b372d27b01957e0a367300000000000000000000000000000000000000000000000000000000000000e1000000000000000000000000c02aaa39b223fe8d0a0e5c4f27ead9083c756cc20000000000000000000000000000000000000000000000000f8e978f89368000000000000000000000000000c5adfc119364cfe2297e4414db04834d8702475b0000000000000000000000000000000000000000000000000000000069ac270e000000000000000000000000000000000000000000000000000000006a0c11580000000000000000000000000000000000000000000000000000000000000009000000000000000000000000000000000000000000000000000000000000001be71a0be7c3281b0e90e69c770aafaff557371f2e8191e6b194bf7b97491f82ab1d68da33fcdbc1cd4647cc89434bfd35d950687488493e11b43d19070c3d9554",
        "nonce": "0x9e",
        "chainId": "0x7a69"
      },
      "additionalContracts": [],
      "isFixedGasLimit": false
    }
  ],
  "receipts": [
    {
      "status": "0x1",
      "cumulativeGasUsed": "0x201e6",
      "logs": [
        {
          "address": "0xc02aaa39b223fe8d0a0e5c4f27ead9083c756cc2",
          "topics": [
            "0xddf252ad1be2c89b69c2b068fc378daa952ba7f163c4a11628f55a4df523b3ef",
            "0x000000000000000000000000c5adfc119364cfe2297e4414db04834d8702475b",
            "0x0000000000000000000000001804c8ab1f12e6bbf3894d4083f33e07309d1f38"
          ],
          "data": "0x0000000000000000000000000000000000000000000000000027d36f83eea000",
          "blockHash": "0x43896d307daffa94e65c2d1e461887e7aee1228a20f0cb54706a022151374e0b",
          "blockNumber": "0x17b73cd",
          "blockTimestamp": "0x69e8f41e",
          "transactionHash": "0x8f2d5ed028b81688e71feae83ab80047b1deeb4e15f9c818cfb63fad2c187bf3",
          "transactionIndex": "0x0",
          "logIndex": "0x0",
          "removed": false
        },
        {
          "address": "0xc02aaa39b223fe8d0a0e5c4f27ead9083c756cc2",
          "topics": [
            "0xddf252ad1be2c89b69c2b068fc378daa952ba7f163c4a11628f55a4df523b3ef",
            "0x000000000000000000000000c5adfc119364cfe2297e4414db04834d8702475b",
            "0x000000000000000000000000646dc5fc4009c4c84a424b6ae0f494b374bae1ce"
          ],
          "data": "0x0000000000000000000000000000000000000000000000000f66c4200547e000",
          "blockHash": "0x43896d307daffa94e65c2d1e461887e7aee1228a20f0cb54706a022151374e0b",
          "blockNumber": "0x17b73cd",
          "blockTimestamp": "0x69e8f41e",
          "transactionHash": "0x8f2d5ed028b81688e71feae83ab80047b1deeb4e15f9c818cfb63fad2c187bf3",
          "transactionIndex": "0x0",
          "logIndex": "0x1",
          "removed": false
        },
        {
          "address": "0x38d4de42c9c5640a2799b372d27b01957e0a3673",
          "topics": [
            "0xddf252ad1be2c89b69c2b068fc378daa952ba7f163c4a11628f55a4df523b3ef",
            "0x000000000000000000000000646dc5fc4009c4c84a424b6ae0f494b374bae1ce",
            "0x000000000000000000000000c5adfc119364cfe2297e4414db04834d8702475b",
            "0x00000000000000000000000000000000000000000000000000000000000000e1"
          ],
          "data": "0x",
          "blockHash": "0x43896d307daffa94e65c2d1e461887e7aee1228a20f0cb54706a022151374e0b",
          "blockNumber": "0x17b73cd",
          "blockTimestamp": "0x69e8f41e",
          "transactionHash": "0x8f2d5ed028b81688e71feae83ab80047b1deeb4e15f9c818cfb63fad2c187bf3",
          "transactionIndex": "0x0",
          "logIndex": "0x2",
          "removed": false
        },
        {
          "address": "0x73973d222c3fda5b2563d269da9e19cb125000f4",
          "topics": [
            "0xc0ac3eb1e8caef05b202043f34de8e3173fab712167584f7a2a9f4c302bd0e9c",
            "0xe9530574fc9769f60782a94baeae2f8178d8cebda6c815280abc0dd867d81af6",
            "0x00000000000000000000000038d4de42c9c5640a2799b372d27b01957e0a3673",
            "0x00000000000000000000000000000000000000000000000000000000000000e1"
          ],
          "data": "0x000000000000000000000000646dc5fc4009c4c84a424b6ae0f494b374bae1ce000000000000000000000000c5adfc119364cfe2297e4414db04834d8702475b000000000000000000000000c02aaa39b223fe8d0a0e5c4f27ead9083c756cc20000000000000000000000000000000000000000000000000f8e978f89368000",
          "blockHash": "0x43896d307daffa94e65c2d1e461887e7aee1228a20f0cb54706a022151374e0b",
          "blockNumber": "0x17b73cd",
          "blockTimestamp": "0x69e8f41e",
          "transactionHash": "0x8f2d5ed028b81688e71feae83ab80047b1deeb4e15f9c818cfb63fad2c187bf3",
          "transactionIndex": "0x0",
          "logIndex": "0x3",
          "removed": false
        }
      ],
      "logsBloom": "0x00000000000000000000010000000000000000000002000000000000000000002000000000000000000000001000020002000000090000000004100000100000000000000000001021000008000000000000000000000000000000000000000280000000000000000005000000000000000000000000000000000010000000000000000000000000000004000000002000000000000008000000000000000000000000000000000000000040000020000000000000000080400000000000000000000002000004000000000000000000000000000000000000000000000000000100200000000000000000000000000000000000000000002000000000000000",
      "type": "0x2",
      "transactionHash": "0x8f2d5ed028b81688e71feae83ab80047b1deeb4e15f9c818cfb63fad2c187bf3",
      "transactionIndex": "0x0",
      "blockHash": "0x43896d307daffa94e65c2d1e461887e7aee1228a20f0cb54706a022151374e0b",
      "blockNumber": "0x17b73cd",
      "gasUsed": "0x201e6",
      "effectiveGasPrice": "0xf4248",
      "blobGasPrice": "0x1",
      "from": "0x646dc5fc4009c4c84a424b6ae0f494b374bae1ce",
      "to": "0x73973d222c3fda5b2563d269da9e19cb125000f4",
      "contractAddress": null
    }
  ],
  "libraries": [],
  "pending": [],
  "returns": {},
  "timestamp": 1778453780288,
  "chain": 31337,
  "commit": "f87d399"
}