{
  "transactions": [
    {
      "hash": "0x421901ef81d97918fb60dec2cddb35800e2e5d8b5fb28909ee6ced550f4b2b72",
      "transactionType": "CALL",
      "contractName": null,
      "contractAddress": "0x8fa71914948544c60e3379064567dcf0e6564d27",
      "function": "settle((uint256,address),(uint8,bool,address,uint256,address,uint256,address,uint64,uint64,uint256),(uint8,bytes32,bytes32))",
      "arguments": [
        "(0, 0x646dC5Fc4009C4C84a424B6aE0f494b374bAE1Ce)",
        "(0, false, 0xA5f104F8f78d5ba9AEC4a383c0927337Fd4E997B, 229, 0xC02aaA39b223FE8D0A0e5C4F27eAD9083C756Cc2, 29000000000000000, 0x2c2dbA75492E0C4A1D10B41303167aEC59586C9c, 1772911533, 1779151729, 0)",
        "(28, 0x6738e675a5f1050c512792e576faebf582666b3ef02e2762b5fef8c2ebdfd7ec, 0x35888f7f3c7b7a59f5bb9e02b2a7e6ebd50de193224c262e233d138f42c95456)"
      ],
      "transaction": {
        "from": "0x646dc5fc4009c4c84a424b6ae0f494b374bae1ce",
        "to": "0x8fa71914948544c60e3379064567dcf0e6564d27",
        "gas": "0x2c4c7",
        "value": "0x0",
        "input": "0x3bae3e790000000000000000000000000000000000000000000000000000000000000000000000000000000000000000646dc5fc4009c4c84a424b6ae0f494b374bae1ce00000000000000000000000000000000000000000000000000000000000000000000000000000000000000000000000000000000000000000000000000000000000000000000000000000000a5f104f8f78d5ba9aec4a383c0927337fd4e997b00000000000000000000000000000000000000000000000000000000000000e5000000000000000000000000c02aaa39b223fe8d0a0e5c4f27ead9083c756cc200000000000000000000000000000000000000000000000000670758aa7c80000000000000000000000000002c2dba75492e0c4a1d10b41303167aec59586c9c0000000000000000000000000000000000000000000000000000000069ac7bad000000000000000000000000000000000000000000000000000000006a0bb3710000000000000000000000000000000000000000000000000000000000000000000000000000000000000000000000000000000000000000000000000000001c6738e675a5f1050c512792e576faebf582666b3ef02e2762b5fef8c2ebdfd7ec35888f7f3c7b7a59f5bb9e02b2a7e6ebd50de193224c262e233d138f42c95456",
        "nonce": "0x41",
        "chainId": "0x7a69"
      },
      "additionalContracts": [],
      "isFixedGasLimit": false
    }
  ],
  "receipts": [
    {
      "status": "0x1",
      "cumulativeGasUsed": "0x20125",
      "logs": [
        {
          "address": "0xc02aaa39b223fe8d0a0e5c4f27ead9083c756cc2",
          "topics": [
            "0xddf252ad1be2c89b69c2b068fc378daa952ba7f163c4a11628f55a4df523b3ef",
            "0x000000000000000000000000646dc5fc4009c4c84a424b6ae0f494b374bae1ce",
            "0x0000000000000000000000001804c8ab1f12e6bbf3894d4083f33e07309d1f38"
          ],
          "data": "0x000000000000000000000000000000000000000000000000000107c0e2fc2000",
          "blockHash": "0xf0e98b3bea9a8653e264253c0bde47c62c87ad7db5d80bec865bc1bac2731ead",
          "blockNumber": "0x17b711a",
          "blockTimestamp": "0x69df2b48",
          "transactionHash": "0x421901ef81d97918fb60dec2cddb35800e2e5d8b5fb28909ee6ced550f4b2b72",
          "transactionIndex": "0x0",
          "logIndex": "0x0",
          "removed": false
        },
        {
          "address": "0xc02aaa39b223fe8d0a0e5c4f27ead9083c756cc2",
          "topics": [
            "0xddf252ad1be2c89b69c2b068fc378daa952ba7f163c4a11628f55a4df523b3ef",
            "0x000000000000000000000000646dc5fc4009c4c84a424b6ae0f494b374bae1ce",
            "0x0000000000000000000000002c2dba75492e0c4a1d10b41303167aec59586c9c"
          ],
          "data": "0x0000000000000000000000000000000000000000000000000065ff97c7806000",
          "blockHash": "0xf0e98b3bea9a8653e264253c0bde47c62c87ad7db5d80bec865bc1bac2731ead",
          "blockNumber": "0x17b711a",
          "blockTimestamp": "0x69df2b48",
          "transactionHash": "0x421901ef81d97918fb60dec2cddb35800e2e5d8b5fb28909ee6ced550f4b2b72",
          "transactionIndex": "0x0",
          "logIndex": "0x1",
          "removed": false
        },
        {
          "address": "0xa5f104f8f78d5ba9aec4a383c0927337fd4e997b",
          "topics": [
            "0xddf252ad1be2c89b69c2b068fc378daa952ba7f163c4a11628f55a4df523b3ef",
            "0x0000000000000000000000002c2dba75492e0c4a1d10b41303167aec59586c9c",
            "0x000000000000000000000000646dc5fc4009c4c84a424b6ae0f494b374bae1ce",
            "0x00000000000000000000000000000000000000000000000000000000000000e5"
          ],
          "data": "0x",
          "blockHash": "0xf0e98b3bea9a8653e264253c0bde47c62c87ad7db5d80bec865bc1bac2731ead",
          "blockNumber": "0x17b711a",
          "blockTimestamp": "0x69df2b48",
          "transactionHash": "0x421901ef81d97918fb60dec2cddb35800e2e5d8b5fb28909ee6ced550f4b2b72",
          "transactionIndex": "0x0",
          "logIndex": "0x2",
          "removed": false
        },
        {
          "address": "0x8fa71914948544c60e3379064567dcf0e6564d27",
          "topics": [
            "0xc0ac3eb1e8caef05b202043f34de8e3173fab712167584f7a2a9f4c302bd0e9c",
            "0x36d81a7779fc11047136a162a0cc5667a31f978bab6f5e7449e84fa8dd4d7d97",
            "0x000000000000000000000000a5f104f8f78d5ba9aec4a383c0927337fd4e997b",
            "0x00000000000000000000000000000000000000000000000000000000000000e5"
          ],
          "data": "0x0000000000000000000000002c2dba75492e0c4a1d10b41303167aec59586c9c000000000000000000000000646dc5fc4009c4c84a424b6ae0f494b374bae1ce000000000000000000000000c02aaa39b223fe8d0a0e5c4f27ead9083c756cc200000000000000000000000000000000000000000000000000670758aa7c8000",
          "blockHash": "0xf0e98b3bea9a8653e264253c0bde47c62c87ad7db5d80bec865bc1bac2731ead",
          "blockNumber": "0x17b711a",
          "blockTimestamp": "0x69df2b48",
          "transactionHash": "0x421901ef81d97918fb60dec2cddb35800e2e5d8b5fb28909ee6ced550f4b2b72",
          "transactionIndex": "0x0",
          "logIndex": "0x3",
          "removed": false
        }
      ],
      "logsBloom": "0x00000000000002000000010000000000000000000002000000000000000000000000000000000000000000000000000002000000090000000000002800100000000200000000000100010008010000000000000000000000080000000000000000000000000004000005000000000000000000000000000000000010200000000800000000040000000004000000000000000000000000000000000000000000000000200000000400000000000000000000000000000080000000000000000000000002000004000000000000000000000000000004000080000000000000000100200000000000010000000000000000000000000000000000000000000000",
      "type": "0x2",
      "transactionHash": "0x421901ef81d97918fb60dec2cddb35800e2e5d8b5fb28909ee6ced550f4b2b72",
      "transactionIndex": "0x0",
      "blockHash": "0xf0e98b3bea9a8653e264253c0bde47c62c87ad7db5d80bec865bc1bac2731ead",
      "blockNumber": "0x17b711a",
      "gasUsed": "0x20125",
      "effectiveGasPrice": "0x154c2b",
      "blobGasPrice": "0x1",
      "from": "0x646dc5fc4009c4c84a424b6ae0f494b374bae1ce",
      "to": "0x8fa71914948544c60e3379064567dcf0e6564d27",
      "contractAddress": null
    }
  ],
  "libraries": [],
  "pending": [],
  "returns": {},
  "timestamp": 1778450905068,
  "chain": 31337,
  "commit": "f87d399"
}