{
  "transactions": [
    {
      "hash": "0x9252fbe3ebcd67307727596535ba2d3d58cf8e0727541e9af4ad9857b23f92c5",
      "transactionType": "CALL",
      "contractName": null,
      "contractAddress": "0x73973d222c3fda5b2563d269da9e19cb125000f4",
      "function": "settle((uint256,address),(uint8,bool,address,uint256,address,uint256,address,uint64,uint64,uint256),(uint8,bytes32,bytes32))",
      "arguments": [
        "(0, 0xe3745C151faB59B0740f4312b2B027F07D096639)",
        "(0, false, 0x38D4dE42C9c5640A2799B372D27B01957E0a3673, 77, 0xC02aaA39b223FE8D0A0e5C4F27eAD9083C756Cc2, 58000000000000000, 0x2c2dbA75492E0C4A1D10B41303167aEC59586C9c, 1773071028, 1778994610, 3)",
        "(28, 0x4f65309578199d5ad1c01c34206bc0b40c0d16d803bc3041c49fd5e67b3cadfe, 0x42f66c9a69bbc15a8826f1995bc4f5d02ab1a157d0eea45c1ebb1d991588d3d4)"
      ],
      "transaction": {
        "from": "0xe3745c151fab59b0740f4312b2b027f07d096639",
        "to": "0x73973d222c3fda5b2563d269da9e19cb125000f4",
        "gas": "0x2c4c7",
        "value": "0x0",
        "input": "0x3bae3e790000000000000000000000000000000000000000000000000000000000000000000000000000000000000000e3745c151fab59b0740f4312b2b027f07d0966390000000000000000000000000000000000000000000000000000000000000000000000000000000000000000000000000000000000000000000000000000000000000000000000000000000038d4de42c9c5640a2799b372d27b01957e0a3673000000000000000000000000000000000000000000000000000000000000004d000000000000000000000000c02aaa39b223fe8d0a0e5c4f27ead9083c756cc200000000000000000000000000000000000000000000000000ce0eb154f900000000000000000000000000002c2dba75492e0c4a1d10b41303167aec59586c9c0000000000000000000000000000000000000000000000000000000069aeeab4000000000000000000000000000000000000000000000000000000006a094db20000000000000000000000000000000000000000000000000000000000000003000000000000000000000000000000000000000000000000000000000000001c4f65309578199d5ad1c01c34206bc0b40c0d16d803bc3041c49fd5e67b3cadfe42f66c9a69bbc15a8826f1995bc4f5d02ab1a157d0eea45c1ebb1d991588d3d4",
        "nonce": "0x80",
        "chainId": "0x7a69"
      },
      "additionalContracts": [],
      "isFixedGasLimit": false
    }
  ],
  "receipts": [
    {
      "status": "0x1",
      "cumulativeGasUsed": "0x20125",
      "logs": [
        {
          "address": "0xc02aaa39b223fe8d0a0e5c4f27ead9083c756cc2",
          "topics": [
            "0xddf252ad1be2c89b69c2b068fc378daa952ba7f163c4a11628f55a4df523b3ef",
            "0x000000000000000000000000e3745c151fab59b0740f4312b2b027f07d096639",
            "0x0000000000000000000000001804c8ab1f12e6bbf3894d4083f33e07309d1f38"
          ],
          "data": "0x00000000000000000000000000000000000000000000000000020f81c5f84000",
          "blockHash": "0x6ecc104dac9df6ec5dcb1855b9604ef90b3ef23319b57dee0d54d2bf69bda807",
          "blockNumber": "0x17b73cb",
          "blockTimestamp": "0x69e89c9c",
          "transactionHash": "0x9252fbe3ebcd67307727596535ba2d3d58cf8e0727541e9af4ad9857b23f92c5",
          "transactionIndex": "0x0",
          "logIndex": "0x0",
          "removed": false
        },
        {
          "address": "0xc02aaa39b223fe8d0a0e5c4f27ead9083c756cc2",
          "topics": [
            "0xddf252ad1be2c89b69c2b068fc378daa952ba7f163c4a11628f55a4df523b3ef",
            "0x000000000000000000000000e3745c151fab59b0740f4312b2b027f07d096639",
            "0x0000000000000000000000002c2dba75492e0c4a1d10b41303167aec59586c9c"
          ],
          "data": "0x00000000000000000000000000000000000000000000000000cbff2f8f00c000",
          "blockHash": "0x6ecc104dac9df6ec5dcb1855b9604ef90b3ef23319b57dee0d54d2bf69bda807",
          "blockNumber": "0x17b73cb",
          "blockTimestamp": "0x69e89c9c",
          "transactionHash": "0x9252fbe3ebcd67307727596535ba2d3d58cf8e0727541e9af4ad9857b23f92c5",
          "transactionIndex": "0x0",
          "logIndex": "0x1",
          "removed": false
        },
        {
          "address": "0x38d4de42c9c5640a2799b372d27b01957e0a3673",
          "topics": [
            "0xddf252ad1be2c89b69c2b068fc378daa952ba7f163c4a11628f55a4df523b3ef",
            "0x0000000000000000000000002c2dba75492e0c4a1d10b41303167aec59586c9c",
            "0x000000000000000000000000e3745c151fab59b0740f4312b2b027f07d096639",
            "0x000000000000000000000000000000000000000000000000000000000000004d"
          ],
          "data": "0x",
          "blockHash": "0x6ecc104dac9df6ec5dcb1855b9604ef90b3ef23319b57dee0d54d2bf69bda807",
          "blockNumber": "0x17b73cb",
          "blockTimestamp": "0x69e89c9c",
          "transactionHash": "0x9252fbe3ebcd67307727596535ba2d3d58cf8e0727541e9af4ad9857b23f92c5",
          "transactionIndex": "0x0",
          "logIndex": "0x2",
          "removed": false
        },
        {
          "address": "0x73973d222c3fda5b2563d269da9e19cb125000f4",
          "topics": [
            "0xc0ac3eb1e8caef05b202043f34de8e3173fab712167584f7a2a9f4c302bd0e9c",
            "0x8a6fa99b00fe46f2d674a0254b861bfb92c73be2c4bc1b3a1fe234d8415d8b1a",
            "0x00000000000000000000000038d4de42c9c5640a2799b372d27b01957e0a3673",
            "0x000000000000000000000000000000000000000000000000000000000000004d"
          ],
          "data": "0x0000000000000000000000002c2dba75492e0c4a1d10b41303167aec59586c9c000000000000000000000000e3745c151fab59b0740f4312b2b027f07d096639000000000000000000000000c02aaa39b223fe8d0a0e5c4f27ead9083c756cc200000000000000000000000000000000000000000000000000ce0eb154f90000",
          "blockHash": "0x6ecc104dac9df6ec5dcb1855b9604ef90b3ef23319b57dee0d54d2bf69bda807",
          "blockNumber": "0x17b73cb",
          "blockTimestamp": "0x69e89c9c",
          "transactionHash": "0x9252fbe3ebcd67307727596535ba2d3d58cf8e0727541e9af4ad9857b23f92c5",
          "transactionIndex": "0x0",
          "logIndex": "0x3",
          "removed": false
        }
      ],
      "logsBloom": "0x00000000000000000000000000000000000000000102000000000000000000000000000000000000000000000000020042000000080000000004100810100000000200004000001021000008000000000000000000000000000000000000000000000000000004000001000000000000000000000000000000000010000000000000008000000000000004000000000000000000000c08000000000000000000000000000000000000000000000000000000000000000080400000000000000000000002000004000000000000000000000000000000000000000040000000000100200000000000200000000000000000000000000000000000000000000000",
      "type": "0x2",
      "transactionHash": "0x9252fbe3ebcd67307727596535ba2d3d58cf8e0727541e9af4ad9857b23f92c5",
      "transactionIndex": "0x0",
      "blockHash": "0x6ecc104dac9df6ec5dcb1855b9604ef90b3ef23319b57dee0d54d2bf69bda807",
      "blockNumber": "0x17b73cb",
      "gasUsed": "0x20125",
      "effectiveGasPrice": "0xf4248",
      "blobGasPrice": "0x1",
      "from": "0xe3745c151fab59b0740f4312b2b027f07d096639",
      "to": "0x73973d222c3fda5b2563d269da9e19cb125000f4",
      "contractAddress": null
    }
  ],
  "libraries": [],
  "pending": [],
  "returns": {},
  "timestamp": 1778453778649,
  "chain": 31337,
  "commit": "f87d399"
}