{
  "transactions": [
    {
      "hash": "0x233925a867260f3a397b0671c665efda25780e27335c329b905c9c816c005977",
      "transactionType": "CALL",
      "contractName": null,
      "contractAddress": "0x8fa71914948544c60e3379064567dcf0e6564d27",
      "function": "settle((uint256,address),(uint8,bool,address,uint256,address,uint256,address,uint64,uint64,uint256),(uint8,bytes32,bytes32))",
      "arguments": [
        "(0, 0xe3745C151faB59B0740f4312b2B027F07D096639)",
        "(0, false, 0xA5f104F8f78d5ba9AEC4a383c0927337Fd4E997B, 68, 0xC02aaA39b223FE8D0A0e5C4F27eAD9083C756Cc2, 26000000000000000, 0xE233420d38D286C2F2Cf8dEe6564F132FBDB09DB, 1773043390, 1779130896, 3)",
        "(28, 0xf805dd8cca726fe42c7c13d9499846d64336d50a8c01a2d61b1455f648c8dce8, 0x3ed69a13344995cdab07a1f4e40be4830c2c51830d20f1932034f85ed6201639)"
      ],
      "transaction": {
        "from": "0xe3745c151fab59b0740f4312b2b027f07d096639",
        "to": "0x8fa71914948544c60e3379064567dcf0e6564d27",
        "gas": "0x2c4c7",
        "value": "0x0",
        "input": "0x3bae3e790000000000000000000000000000000000000000000000000000000000000000000000000000000000000000e3745c151fab59b0740f4312b2b027f07d09663900000000000000000000000000000000000000000000000000000000000000000000000000000000000000000000000000000000000000000000000000000000000000000000000000000000a5f104f8f78d5ba9aec4a383c0927337fd4e997b0000000000000000000000000000000000000000000000000000000000000044000000000000000000000000c02aaa39b223fe8d0a0e5c4f27ead9083c756cc2000000000000000000000000000000000000000000000000005c5edcbc290000000000000000000000000000e233420d38d286c2f2cf8dee6564f132fbdb09db0000000000000000000000000000000000000000000000000000000069ae7ebe000000000000000000000000000000000000000000000000000000006a0b62100000000000000000000000000000000000000000000000000000000000000003000000000000000000000000000000000000000000000000000000000000001cf805dd8cca726fe42c7c13d9499846d64336d50a8c01a2d61b1455f648c8dce83ed69a13344995cdab07a1f4e40be4830c2c51830d20f1932034f85ed6201639",
        "nonce": "0x49",
        "chainId": "0x7a69"
      },
      "additionalContracts": [],
      "isFixedGasLimit": false
    }
  ],
  "receipts": [
    {
      "status": "0x1",
      "cumulativeGasUsed": "0x20125",
      "logs": [
        {
          "address": "0xc02aaa39b223fe8d0a0e5c4f27ead9083c756cc2",
          "topics": [
            "0xddf252ad1be2c89b69c2b068fc378daa952ba7f163c4a11628f55a4df523b3ef",
            "0x000000000000000000000000e3745c151fab59b0740f4312b2b027f07d096639",
            "0x0000000000000000000000001804c8ab1f12e6bbf3894d4083f33e07309d1f38"
          ],
          "data": "0x0000000000000000000000000000000000000000000000000000ec77f7a44000",
          "blockHash": "0xd18bbce23bcda51b4c1ee5f5c47f95fd3e7643239e3798bd4a4e365937a41974",
          "blockNumber": "0x17b8344",
          "blockTimestamp": "0x69eac87e",
          "transactionHash": "0x233925a867260f3a397b0671c665efda25780e27335c329b905c9c816c005977",
          "transactionIndex": "0x0",
          "logIndex": "0x0",
          "removed": false
        },
        {
          "address": "0xc02aaa39b223fe8d0a0e5c4f27ead9083c756cc2",
          "topics": [
            "0xddf252ad1be2c89b69c2b068fc378daa952ba7f163c4a11628f55a4df523b3ef",
            "0x000000000000000000000000e3745c151fab59b0740f4312b2b027f07d096639",
            "0x000000000000000000000000e233420d38d286c2f2cf8dee6564f132fbdb09db"
          ],
          "data": "0x000000000000000000000000000000000000000000000000005b7264c484c000",
          "blockHash": "0xd18bbce23bcda51b4c1ee5f5c47f95fd3e7643239e3798bd4a4e365937a41974",
          "blockNumber": "0x17b8344",
          "blockTimestamp": "0x69eac87e",
          "transactionHash": "0x233925a867260f3a397b0671c665efda25780e27335c329b905c9c816c005977",
          "transactionIndex": "0x0",
          "logIndex": "0x1",
          "removed": false
        },
        {
          "address": "0xa5f104f8f78d5ba9aec4a383c0927337fd4e997b",
          "topics": [
            "0xddf252ad1be2c89b69c2b068fc378daa952ba7f163c4a11628f55a4df523b3ef",
            "0x000000000000000000000000e233420d38d286c2f2cf8dee6564f132fbdb09db",
            "0x000000000000000000000000e3745c151fab59b0740f4312b2b027f07d096639",
            "0x0000000000000000000000000000000000000000000000000000000000000044"
          ],
          "data": "0x",
          "blockHash": "0xd18bbce23bcda51b4c1ee5f5c47f95fd3e7643239e3798bd4a4e365937a41974",
          "blockNumber": "0x17b8344",
          "blockTimestamp": "0x69eac87e",
          "transactionHash": "0x233925a867260f3a397b0671c665efda25780e27335c329b905c9c816c005977",
          "transactionIndex": "0x0",
          "logIndex": "0x2",
          "removed": false
        },
        {
          "address": "0x8fa71914948544c60e3379064567dcf0e6564d27",
          "topics": [
            "0xc0ac3eb1e8caef05b202043f34de8e3173fab712167584f7a2a9f4c302bd0e9c",
            "0xad3582c01c29df3e0e1dfa8ea8f8de81fa307a3f6034dd23273f1be56ce52630",
            "0x000000000000000000000000a5f104f8f78d5ba9aec4a383c0927337fd4e997b",
            "0x0000000000000000000000000000000000000000000000000000000000000044"
          ],
          "data": "0x000000000000000000000000e233420d38d286c2f2cf8dee6564f132fbdb09db000000000000000000000000e3745c151fab59b0740f4312b2b027f07d096639000000000000000000000000c02aaa39b223fe8d0a0e5c4f27ead9083c756cc2000000000000000000000000000000000000000000000000005c5edcbc290000",
          "blockHash": "0xd18bbce23bcda51b4c1ee5f5c47f95fd3e7643239e3798bd4a4e365937a41974",
          "blockNumber": "0x17b8344",
          "blockTimestamp": "0x69eac87e",
          "transactionHash": "0x233925a867260f3a397b0671c665efda25780e27335c329b905c9c816c005977",
          "transactionIndex": "0x0",
          "logIndex": "0x3",
          "removed": false
        }
      ],
      "logsBloom": "0x00000000000000000000010000000000000000000100000000000000000000000000000000000000000000000000000042000000080000000000000000100000000000000000000000010008000000000000000000000000080000000000000000000001000000000001000000000000000000000000000000100010200000000800000000440000000004000000000000000000000000000000000400000000000000200000000400000000000000000000000000000080000000000000000000000012000004000000000000000000000000000202000080000040000000000100200000002000000000000000000000000000000000000000000000000000",
      "type": "0x2",
      "transactionHash": "0x233925a867260f3a397b0671c665efda25780e27335c329b905c9c816c005977",
      "transactionIndex": "0x0",
      "blockHash": "0xd18bbce23bcda51b4c1ee5f5c47f95fd3e7643239e3798bd4a4e365937a41974",
      "blockNumber": "0x17b8344",
      "gasUsed": "0x20125",
      "effectiveGasPrice": "0x1ba81c",
      "blobGasPrice": "0x1",
      "from": "0xe3745c151fab59b0740f4312b2b027f07d096639",
      "to": "0x8fa71914948544c60e3379064567dcf0e6564d27",
      "contractAddress": null
    }
  ],
  "libraries": [],
  "pending": [],
  "returns": {},
  "timestamp": 1778506446184,
  "chain": 31337,
  "commit": "59e30a9"
}