{
  "transactions": [
    {
      "hash": "0x59770359fc0a2aefe9b6fca0deb61195fb840e8d3fd9cba42239c7c3412b2582",
      "transactionType": "CALL",
      "contractName": null,
      "contractAddress": "0x8fa71914948544c60e3379064567dcf0e6564d27",
      "function": "settle((uint256,address),(uint8,bool,address,uint256,address,uint256,address,uint64,uint64,uint256),(uint8,bytes32,bytes32))",
      "arguments": [
        "(334, 0x646dC5Fc4009C4C84a424B6aE0f494b374bAE1Ce)",
        "(1, false, 0xA5f104F8f78d5ba9AEC4a383c0927337Fd4E997B, 334, 0xC02aaA39b223FE8D0A0e5C4F27eAD9083C756Cc2, 14000000000000000, 0xa382b0E75C192D9CDF5c084E58b750Cea7761Bd0, 1772328505, 1779845781, 3)",
        "(27, 0x7e92e5bbd7dafd815a42a7ba5d17fb10d4e0b746bba9c10afb3150f17f6e4fe3, 0x55034cb21d364c8884621e3f781b5d1f1a956322e65b4b30cc06aab037cdb3da)"
      ],
      "transaction": {
        "from": "0x646dc5fc4009c4c84a424b6ae0f494b374bae1ce",
        "to": "0x8fa71914948544c60e3379064567dcf0e6564d27",
        "gas": "0x2c5d2",
        "value": "0x0",
        "input": "0x3bae3e79000000000000000000000000000000000000000000000000000000000000014e000000000000000000000000646dc5fc4009c4c84a424b6ae0f494b374bae1ce00000000000000000000000000000000000000000000000000000000000000010000000000000000000000000000000000000000000000000000000000000000000000000000000000000000a5f104f8f78d5ba9aec4a383c0927337fd4e997b000000000000000000000000000000000000000000000000000000000000014e000000000000000000000000c02aaa39b223fe8d0a0e5c4f27ead9083c756cc20000000000000000000000000000000000000000000000000031bced02db0000000000000000000000000000a382b0e75c192d9cdf5c084e58b750cea7761bd00000000000000000000000000000000000000000000000000000000069a39639000000000000000000000000000000000000000000000000000000006a164a950000000000000000000000000000000000000000000000000000000000000003000000000000000000000000000000000000000000000000000000000000001b7e92e5bbd7dafd815a42a7ba5d17fb10d4e0b746bba9c10afb3150f17f6e4fe355034cb21d364c8884621e3f781b5d1f1a956322e65b4b30cc06aab037cdb3da",
        "nonce": "0x54",
        "chainId": "0x7a69"
      },
      "additionalContracts": [],
      "isFixedGasLimit": false
    }
  ],
  "receipts": [
    {
      "status": "0x1",
      "cumulativeGasUsed": "0x201e6",
      "logs": [
        {
          "address": "0xc02aaa39b223fe8d0a0e5c4f27ead9083c756cc2",
          "topics": [
            "0xddf252ad1be2c89b69c2b068fc378daa952ba7f163c4a11628f55a4df523b3ef",
            "0x000000000000000000000000a382b0e75c192d9cdf5c084e58b750cea7761bd0",
            "0x0000000000000000000000001804c8ab1f12e6bbf3894d4083f33e07309d1f38"
          ],
          "data": "0x00000000000000000000000000000000000000000000000000007f544a44c000",
          "blockHash": "0x6a28fd4d2c0b333e290cde4656f682b60ddbd9beb48bce83248ebf60e22d4248",
          "blockNumber": "0x17b8351",
          "blockTimestamp": "0x69ee4fd8",
          "transactionHash": "0x59770359fc0a2aefe9b6fca0deb61195fb840e8d3fd9cba42239c7c3412b2582",
          "transactionIndex": "0x0",
          "logIndex": "0x0",
          "removed": false
        },
        {
          "address": "0xc02aaa39b223fe8d0a0e5c4f27ead9083c756cc2",
          "topics": [
            "0xddf252ad1be2c89b69c2b068fc378daa952ba7f163c4a11628f55a4df523b3ef",
            "0x000000000000000000000000a382b0e75c192d9cdf5c084e58b750cea7761bd0",
            "0x000000000000000000000000646dc5fc4009c4c84a424b6ae0f494b374bae1ce"
          ],
          "data": "0x00000000000000000000000000000000000000000000000000313d98b8964000",
          "blockHash": "0x6a28fd4d2c0b333e290cde4656f682b60ddbd9beb48bce83248ebf60e22d4248",
          "blockNumber": "0x17b8351",
          "blockTimestamp": "0x69ee4fd8",
          "transactionHash": "0x59770359fc0a2aefe9b6fca0deb61195fb840e8d3fd9cba42239c7c3412b2582",
          "transactionIndex": "0x0",
          "logIndex": "0x1",
          "removed": false
        },
        {
          "address": "0xa5f104f8f78d5ba9aec4a383c0927337fd4e997b",
          "topics": [
            "0xddf252ad1be2c89b69c2b068fc378daa952ba7f163c4a11628f55a4df523b3ef",
            "0x000000000000000000000000646dc5fc4009c4c84a424b6ae0f494b374bae1ce",
            "0x000000000000000000000000a382b0e75c192d9cdf5c084e58b750cea7761bd0",
            "0x000000000000000000000000000000000000000000000000000000000000014e"
          ],
          "data": "0x",
          "blockHash": "0x6a28fd4d2c0b333e290cde4656f682b60ddbd9beb48bce83248ebf60e22d4248",
          "blockNumber": "0x17b8351",
          "blockTimestamp": "0x69ee4fd8",
          "transactionHash": "0x59770359fc0a2aefe9b6fca0deb61195fb840e8d3fd9cba42239c7c3412b2582",
          "transactionIndex": "0x0",
          "logIndex": "0x2",
          "removed": false
        },
        {
          "address": "0x8fa71914948544c60e3379064567dcf0e6564d27",
          "topics": [
            "0xc0ac3eb1e8caef05b202043f34de8e3173fab712167584f7a2a9f4c302bd0e9c",
            "0xbe1cd5a45527f1606db8c2c64827cb455c9231d26fd2cb55cda3831139e15c14",
            "0x000000000000000000000000a5f104f8f78d5ba9aec4a383c0927337fd4e997b",
            "0x000000000000000000000000000000000000000000000000000000000000014e"
          ],
          "data": "0x000000000000000000000000646dc5fc4009c4c84a424b6ae0f494b374bae1ce000000000000000000000000a382b0e75c192d9cdf5c084e58b750cea7761bd0000000000000000000000000c02aaa39b223fe8d0a0e5c4f27ead9083c756cc20000000000000000000000000000000000000000000000000031bced02db0000",
          "blockHash": "0x6a28fd4d2c0b333e290cde4656f682b60ddbd9beb48bce83248ebf60e22d4248",
          "blockNumber": "0x17b8351",
          "blockTimestamp": "0x69ee4fd8",
          "transactionHash": "0x59770359fc0a2aefe9b6fca0deb61195fb840e8d3fd9cba42239c7c3412b2582",
          "transactionIndex": "0x0",
          "logIndex": "0x3",
          "removed": false
        }
      ],
      "logsBloom": "0x00000000000000000000010000000000000000000002000000000000040000000000000000000000020000000000000002000000090000000000000000100000000000000000000000010008000000000000000000000000080000000000000000000000000000000005000000000000000000000000040000000090a00000000800000000040000000004000000000000100000000000000000000000000000000000200000000400000000000000000000000000008080000000000000000000000002000004000000000000000000001000000000000080000000000000000100200000000000000000000000000000000000100000000000000000000000",
      "type": "0x2",
      "transactionHash": "0x59770359fc0a2aefe9b6fca0deb61195fb840e8d3fd9cba42239c7c3412b2582",
      "transactionIndex": "0x0",
      "blockHash": "0x6a28fd4d2c0b333e290cde4656f682b60ddbd9beb48bce83248ebf60e22d4248",
      "blockNumber": "0x17b8351",
      "gasUsed": "0x201e6",
      "effectiveGasPrice": "0x1ba81c",
      "blobGasPrice": "0x1",
      "from": "0x646dc5fc4009c4c84a424b6ae0f494b374bae1ce",
      "to": "0x8fa71914948544c60e3379064567dcf0e6564d27",
      "contractAddress": null
    }
  ],
  "libraries": [],
  "pending": [],
  "returns": {},
  "timestamp": 1778506457907,
  "chain": 31337,
  "commit": "59e30a9"
}