{
  "transactions": [
    {
      "hash": "0xef3583755a8b51aabcb5cec4cb97b830b46733cb91f098e40b581d25e2e317cf",
      "transactionType": "CALL",
      "contractName": null,
      "contractAddress": "0x8fa71914948544c60e3379064567dcf0e6564d27",
      "function": "settle((uint256,address),(uint8,bool,address,uint256,address,uint256,address,uint64,uint64,uint256),(uint8,bytes32,bytes32))",
      "arguments": [
        "(347, 0x646dC5Fc4009C4C84a424B6aE0f494b374bAE1Ce)",
        "(1, false, 0xA5f104F8f78d5ba9AEC4a383c0927337Fd4E997B, 347, 0xC02aaA39b223FE8D0A0e5C4F27eAD9083C756Cc2, 32000000000000000, 0xe3745C151faB59B0740f4312b2B027F07D096639, 1772606608, 1779567678, 4)",
        "(27, 0xd2c8c646a1f661abb75b553297509ff72fd98b4cf3ca7da4518c456d597cc1a1, 0x760e4c0d18104cf318b1464b9c7b2aed6aa5906e62cc07de70be6a783edc8bdf)"
      ],
      "transaction": {
        "from": "0x646dc5fc4009c4c84a424b6ae0f494b374bae1ce",
        "to": "0x8fa71914948544c60e3379064567dcf0e6564d27",
        "gas": "0x2c5d2",
        "value": "0x0",
        "input": "0x3bae3e79000000000000000000000000000000000000000000000000000000000000015b000000000000000000000000646dc5fc4009c4c84a424b6ae0f494b374bae1ce00000000000000000000000000000000000000000000000000000000000000010000000000000000000000000000000000000000000000000000000000000000000000000000000000000000a5f104f8f78d5ba9aec4a383c0927337fd4e997b000000000000000000000000000000000000000000000000000000000000015b000000000000000000000000c02aaa39b223fe8d0a0e5c4f27ead9083c756cc20000000000000000000000000000000000000000000000000071afd498d00000000000000000000000000000e3745c151fab59b0740f4312b2b027f07d0966390000000000000000000000000000000000000000000000000000000069a7d490000000000000000000000000000000000000000000000000000000006a120c3e0000000000000000000000000000000000000000000000000000000000000004000000000000000000000000000000000000000000000000000000000000001bd2c8c646a1f661abb75b553297509ff72fd98b4cf3ca7da4518c456d597cc1a1760e4c0d18104cf318b1464b9c7b2aed6aa5906e62cc07de70be6a783edc8bdf",
        "nonce": "0x43",
        "chainId": "0x7a69"
      },
      "additionalContracts": [],
      "isFixedGasLimit": false
    }
  ],
  "receipts": [
    {
      "status": "0x1",
      "cumulativeGasUsed": "0x201e6",
      "logs": [
        {
          "address": "0xc02aaa39b223fe8d0a0e5c4f27ead9083c756cc2",
          "topics": [
            "0xddf252ad1be2c89b69c2b068fc378daa952ba7f163c4a11628f55a4df523b3ef",
            "0x000000000000000000000000e3745c151fab59b0740f4312b2b027f07d096639",
            "0x0000000000000000000000001804c8ab1f12e6bbf3894d4083f33e07309d1f38"
          ],
          "data": "0x00000000000000000000000000000000000000000000000000012309ce540000",
          "blockHash": "0x23ac606af4266dd71c66aaa53501caa13c8b8e5339a16cbda331755c0a60cd77",
          "blockNumber": "0x17b8324",
          "blockTimestamp": "0x69e10aa3",
          "transactionHash": "0xef3583755a8b51aabcb5cec4cb97b830b46733cb91f098e40b581d25e2e317cf",
          "transactionIndex": "0x0",
          "logIndex": "0x0",
          "removed": false
        },
        {
          "address": "0xc02aaa39b223fe8d0a0e5c4f27ead9083c756cc2",
          "topics": [
            "0xddf252ad1be2c89b69c2b068fc378daa952ba7f163c4a11628f55a4df523b3ef",
            "0x000000000000000000000000e3745c151fab59b0740f4312b2b027f07d096639",
            "0x000000000000000000000000646dc5fc4009c4c84a424b6ae0f494b374bae1ce"
          ],
          "data": "0x00000000000000000000000000000000000000000000000000708ccaca7c0000",
          "blockHash": "0x23ac606af4266dd71c66aaa53501caa13c8b8e5339a16cbda331755c0a60cd77",
          "blockNumber": "0x17b8324",
          "blockTimestamp": "0x69e10aa3",
          "transactionHash": "0xef3583755a8b51aabcb5cec4cb97b830b46733cb91f098e40b581d25e2e317cf",
          "transactionIndex": "0x0",
          "logIndex": "0x1",
          "removed": false
        },
        {
          "address": "0xa5f104f8f78d5ba9aec4a383c0927337fd4e997b",
          "topics": [
            "0xddf252ad1be2c89b69c2b068fc378daa952ba7f163c4a11628f55a4df523b3ef",
            "0x000000000000000000000000646dc5fc4009c4c84a424b6ae0f494b374bae1ce",
            "0x000000000000000000000000e3745c151fab59b0740f4312b2b027f07d096639",
            "0x000000000000000000000000000000000000000000000000000000000000015b"
          ],
          "data": "0x",
          "blockHash": "0x23ac606af4266dd71c66aaa53501caa13c8b8e5339a16cbda331755c0a60cd77",
          "blockNumber": "0x17b8324",
          "blockTimestamp": "0x69e10aa3",
          "transactionHash": "0xef3583755a8b51aabcb5cec4cb97b830b46733cb91f098e40b581d25e2e317cf",
          "transactionIndex": "0x0",
          "logIndex": "0x2",
          "removed": false
        },
        {
          "address": "0x8fa71914948544c60e3379064567dcf0e6564d27",
          "topics": [
            "0xc0ac3eb1e8caef05b202043f34de8e3173fab712167584f7a2a9f4c302bd0e9c",
            "0x1ca47d2d17924f94c9ed8c194ccf79f973045dd15f8f5f2e65ad7e9d3ccce745",
            "0x000000000000000000000000a5f104f8f78d5ba9aec4a383c0927337fd4e997b",
            "0x000000000000000000000000000000000000000000000000000000000000015b"
          ],
          "data": "0x000000000000000000000000646dc5fc4009c4c84a424b6ae0f494b374bae1ce000000000000000000000000e3745c151fab59b0740f4312b2b027f07d096639000000000000000000000000c02aaa39b223fe8d0a0e5c4f27ead9083c756cc20000000000000000000000000000000000000000000000000071afd498d00000",
          "blockHash": "0x23ac606af4266dd71c66aaa53501caa13c8b8e5339a16cbda331755c0a60cd77",
          "blockNumber": "0x17b8324",
          "blockTimestamp": "0x69e10aa3",
          "transactionHash": "0xef3583755a8b51aabcb5cec4cb97b830b46733cb91f098e40b581d25e2e317cf",
          "transactionIndex": "0x0",
          "logIndex": "0x3",
          "removed": false
        }
      ],
      "logsBloom": "0x00000000000000000000010000000000000000000102000000000000000000000000000000000000000000000000800042000000090000000000000000100000000000000000000000010008000000000000000000000000080000000000000000000000000000400005000020000000000000000000000000000010200000000800000000040000000004000000000000000000000000000000001000000000000000200000000400000000000000000000000000000080000000000000000000000002000004000000000000000000000000000000000080000040000000000100200000000000000000000400000000000000000000000000100000000000",
      "type": "0x2",
      "transactionHash": "0xef3583755a8b51aabcb5cec4cb97b830b46733cb91f098e40b581d25e2e317cf",
      "transactionIndex": "0x0",
      "blockHash": "0x23ac606af4266dd71c66aaa53501caa13c8b8e5339a16cbda331755c0a60cd77",
      "blockNumber": "0x17b8324",
      "gasUsed": "0x201e6",
      "effectiveGasPrice": "0x1ba81c",
      "blobGasPrice": "0x1",
      "from": "0x646dc5fc4009c4c84a424b6ae0f494b374bae1ce",
      "to": "0x8fa71914948544c60e3379064567dcf0e6564d27",
      "contractAddress": null
    }
  ],
  "libraries": [],
  "pending": [],
  "returns": {},
  "timestamp": 1778506412394,
  "chain": 31337,
  "commit": "59e30a9"
}