{
  "transactions": [
    {
      "hash": "0x6f9bcda46b6dff6daceba18848a30e1ff6fd80f844d15b461ae193c3c221a723",
      "transactionType": "CALL",
      "contractName": null,
      "contractAddress": "0x8fa71914948544c60e3379064567dcf0e6564d27",
      "function": "settle((uint256,address),(uint8,bool,address,uint256,address,uint256,address,uint64,uint64,uint256),(uint8,bytes32,bytes32))",
      "arguments": [
        "(0, 0x646dC5Fc4009C4C84a424B6aE0f494b374bAE1Ce)",
        "(0, false, 0xA5f104F8f78d5ba9AEC4a383c0927337Fd4E997B, 152, 0xC02aaA39b223FE8D0A0e5C4F27eAD9083C756Cc2, 8000000000000000, 0xcbe5659df21Cbcfabe4da962F7a9081F26B3ed82, 1772725248, 1779338014, 1)",
        "(28, 0x12d515b99b5aa0c522d1d455b5be459e67069ee1f998abf42ce492a865a507f5, 0x566c2f7002c85b0bea8f1e6f0e166fb1c32e767655482d47fce8cc791481815c)"
      ],
      "transaction": {
        "from": "0x646dc5fc4009c4c84a424b6ae0f494b374bae1ce",
        "to": "0x8fa71914948544c60e3379064567dcf0e6564d27",
        "gas": "0x2ee67",
        "value": "0x0",
        "input": "0x3bae3e790000000000000000000000000000000000000000000000000000000000000000000000000000000000000000646dc5fc4009c4c84a424b6ae0f494b374bae1ce00000000000000000000000000000000000000000000000000000000000000000000000000000000000000000000000000000000000000000000000000000000000000000000000000000000a5f104f8f78d5ba9aec4a383c0927337fd4e997b0000000000000000000000000000000000000000000000000000000000000098000000000000000000000000c02aaa39b223fe8d0a0e5c4f27ead9083c756cc2000000000000000000000000000000000000000000000000001c6bf526340000000000000000000000000000cbe5659df21cbcfabe4da962f7a9081f26b3ed820000000000000000000000000000000000000000000000000000000069a9a400000000000000000000000000000000000000000000000000000000006a0e8b1e0000000000000000000000000000000000000000000000000000000000000001000000000000000000000000000000000000000000000000000000000000001c12d515b99b5aa0c522d1d455b5be459e67069ee1f998abf42ce492a865a507f5566c2f7002c85b0bea8f1e6f0e166fb1c32e767655482d47fce8cc791481815c",
        "nonce": "0x42",
        "chainId": "0x7a69"
      },
      "additionalContracts": [],
      "isFixedGasLimit": false
    }
  ],
  "receipts": [
    {
      "status": "0x1",
      "cumulativeGasUsed": "0x20119",
      "logs": [
        {
          "address": "0xc02aaa39b223fe8d0a0e5c4f27ead9083c756cc2",
          "topics": [
            "0xddf252ad1be2c89b69c2b068fc378daa952ba7f163c4a11628f55a4df523b3ef",
            "0x000000000000000000000000646dc5fc4009c4c84a424b6ae0f494b374bae1ce",
            "0x0000000000000000000000001804c8ab1f12e6bbf3894d4083f33e07309d1f38"
          ],
          "data": "0x000000000000000000000000000000000000000000000000000048c273950000",
          "blockHash": "0x4bc41a02d08c9ed12c62a25ad40c71d0ec541e7fc1643dabb72aa464ce8c9bb5",
          "blockNumber": "0x17b711c",
          "blockTimestamp": "0x69dfda49",
          "transactionHash": "0x6f9bcda46b6dff6daceba18848a30e1ff6fd80f844d15b461ae193c3c221a723",
          "transactionIndex": "0x0",
          "logIndex": "0x0",
          "removed": false
        },
        {
          "address": "0xc02aaa39b223fe8d0a0e5c4f27ead9083c756cc2",
          "topics": [
            "0xddf252ad1be2c89b69c2b068fc378daa952ba7f163c4a11628f55a4df523b3ef",
            "0x000000000000000000000000646dc5fc4009c4c84a424b6ae0f494b374bae1ce",
            "0x000000000000000000000000cbe5659df21cbcfabe4da962f7a9081f26b3ed82"
          ],
          "data": "0x000000000000000000000000000000000000000000000000001c2332b29f0000",
          "blockHash": "0x4bc41a02d08c9ed12c62a25ad40c71d0ec541e7fc1643dabb72aa464ce8c9bb5",
          "blockNumber": "0x17b711c",
          "blockTimestamp": "0x69dfda49",
          "transactionHash": "0x6f9bcda46b6dff6daceba18848a30e1ff6fd80f844d15b461ae193c3c221a723",
          "transactionIndex": "0x0",
          "logIndex": "0x1",
          "removed": false
        },
        {
          "address": "0xa5f104f8f78d5ba9aec4a383c0927337fd4e997b",
          "topics": [
            "0xddf252ad1be2c89b69c2b068fc378daa952ba7f163c4a11628f55a4df523b3ef",
            "0x000000000000000000000000cbe5659df21cbcfabe4da962f7a9081f26b3ed82",
            "0x000000000000000000000000646dc5fc4009c4c84a424b6ae0f494b374bae1ce",
            "0x0000000000000000000000000000000000000000000000000000000000000098"
          ],
          "data": "0x",
          "blockHash": "0x4bc41a02d08c9ed12c62a25ad40c71d0ec541e7fc1643dabb72aa464ce8c9bb5",
          "blockNumber": "0x17b711c",
          "blockTimestamp": "0x69dfda49",
          "transactionHash": "0x6f9bcda46b6dff6daceba18848a30e1ff6fd80f844d15b461ae193c3c221a723",
          "transactionIndex": "0x0",
          "logIndex": "0x2",
          "removed": false
        },
        {
          "address": "0x8fa71914948544c60e3379064567dcf0e6564d27",
          "topics": [
            "0xc0ac3eb1e8caef05b202043f34de8e3173fab712167584f7a2a9f4c302bd0e9c",
            "0x891e22fe5c306dfb8fe2fc1c8defe64a7a7436abacd8ccaf932f5eaeaef04d1d",
            "0x000000000000000000000000a5f104f8f78d5ba9aec4a383c0927337fd4e997b",
            "0x0000000000000000000000000000000000000000000000000000000000000098"
          ],
          "data": "0x000000000000000000000000cbe5659df21cbcfabe4da962f7a9081f26b3ed82000000000000000000000000646dc5fc4009c4c84a424b6ae0f494b374bae1ce000000000000000000000000c02aaa39b223fe8d0a0e5c4f27ead9083c756cc2000000000000000000000000000000000000000000000000001c6bf526340000",
          "blockHash": "0x4bc41a02d08c9ed12c62a25ad40c71d0ec541e7fc1643dabb72aa464ce8c9bb5",
          "blockNumber": "0x17b711c",
          "blockTimestamp": "0x69dfda49",
          "transactionHash": "0x6f9bcda46b6dff6daceba18848a30e1ff6fd80f844d15b461ae193c3c221a723",
          "transactionIndex": "0x0",
          "logIndex": "0x3",
          "removed": false
        }
      ],
      "logsBloom": "0x00000000000000000000010000000000000000000002000000000000000000000000000000000000000000000000000002000000090000000000000000100000000000000000000000010008000000000000000000000000080000000000000000000000000000000005008000000000000000000000000000000010200000000800000000040000000004000000000000000000000000000000000000000000000000200000000400000000004000001000000000000080008000000000000000000002000004000400000000000000004000000000020080000000400000000100200000000000000000000000000000000000004000000000000000000000",
      "type": "0x2",
      "transactionHash": "0x6f9bcda46b6dff6daceba18848a30e1ff6fd80f844d15b461ae193c3c221a723",
      "transactionIndex": "0x0",
      "blockHash": "0x4bc41a02d08c9ed12c62a25ad40c71d0ec541e7fc1643dabb72aa464ce8c9bb5",
      "blockNumber": "0x17b711c",
      "gasUsed": "0x20119",
      "effectiveGasPrice": "0x154c2b",
      "blobGasPrice": "0x1",
      "from": "0x646dc5fc4009c4c84a424b6ae0f494b374bae1ce",
      "to": "0x8fa71914948544c60e3379064567dcf0e6564d27",
      "contractAddress": null
    }
  ],
  "libraries": [],
  "pending": [],
  "returns": {},
  "timestamp": 1778450906887,
  "chain": 31337,
  "commit": "f87d399"
}