{
  "transactions": [
    {
      "hash": "0xace9cc0914833aa31e63ad42087c2cc632cf6b0540e0cc9e3f71eb24a3b0690d",
      "transactionType": "CALL",
      "contractName": null,
      "contractAddress": "0x8fa71914948544c60e3379064567dcf0e6564d27",
      "function": "settle((uint256,address),(uint8,bool,address,uint256,address,uint256,address,uint64,uint64,uint256),(uint8,bytes32,bytes32))",
      "arguments": [
        "(0, 0x646dC5Fc4009C4C84a424B6aE0f494b374bAE1Ce)",
        "(0, false, 0xA5f104F8f78d5ba9AEC4a383c0927337Fd4E997B, 82, 0xC02aaA39b223FE8D0A0e5C4F27eAD9083C756Cc2, 35000000000000000, 0xc5aDfC119364CFE2297e4414dB04834d8702475B, 1772474306, 1779699980, 6)",
        "(27, 0xfdbb09f8fe1493ee35a2386993287335193434e02138060939e86a3c170fddc9, 0x719af703bd3ebe2c69108eea0abc9545f830fdbf19de1581545cdabfeaf72765)"
      ],
      "transaction": {
        "from": "0x646dc5fc4009c4c84a424b6ae0f494b374bae1ce",
        "to": "0x8fa71914948544c60e3379064567dcf0e6564d27",
        "gas": "0x2c4bb",
        "value": "0x0",
        "input": "0x3bae3e790000000000000000000000000000000000000000000000000000000000000000000000000000000000000000646dc5fc4009c4c84a424b6ae0f494b374bae1ce00000000000000000000000000000000000000000000000000000000000000000000000000000000000000000000000000000000000000000000000000000000000000000000000000000000a5f104f8f78d5ba9aec4a383c0927337fd4e997b0000000000000000000000000000000000000000000000000000000000000052000000000000000000000000c02aaa39b223fe8d0a0e5c4f27ead9083c756cc2000000000000000000000000000000000000000000000000007c585087238000000000000000000000000000c5adfc119364cfe2297e4414db04834d8702475b0000000000000000000000000000000000000000000000000000000069a5cfc2000000000000000000000000000000000000000000000000000000006a14110c0000000000000000000000000000000000000000000000000000000000000006000000000000000000000000000000000000000000000000000000000000001bfdbb09f8fe1493ee35a2386993287335193434e02138060939e86a3c170fddc9719af703bd3ebe2c69108eea0abc9545f830fdbf19de1581545cdabfeaf72765",
        "nonce": "0x62",
        "chainId": "0x7a69"
      },
      "additionalContracts": [],
      "isFixedGasLimit": false
    }
  ],
  "receipts": [
    {
      "status": "0x1",
      "cumulativeGasUsed": "0x2011d",
      "logs": [
        {
          "address": "0xc02aaa39b223fe8d0a0e5c4f27ead9083c756cc2",
          "topics": [
            "0xddf252ad1be2c89b69c2b068fc378daa952ba7f163c4a11628f55a4df523b3ef",
            "0x000000000000000000000000646dc5fc4009c4c84a424b6ae0f494b374bae1ce",
            "0x0000000000000000000000001804c8ab1f12e6bbf3894d4083f33e07309d1f38"
          ],
          "data": "0x00000000000000000000000000000000000000000000000000013e52b9abe000",
          "blockHash": "0x2147ffef52a4886bb45acdf0d006d038ca703c62b58d8637307187573862651c",
          "blockNumber": "0x17b839b",
          "blockTimestamp": "0x69fef0e3",
          "transactionHash": "0xace9cc0914833aa31e63ad42087c2cc632cf6b0540e0cc9e3f71eb24a3b0690d",
          "transactionIndex": "0x0",
          "logIndex": "0x0",
          "removed": false
        },
        {
          "address": "0xc02aaa39b223fe8d0a0e5c4f27ead9083c756cc2",
          "topics": [
            "0xddf252ad1be2c89b69c2b068fc378daa952ba7f163c4a11628f55a4df523b3ef",
            "0x000000000000000000000000646dc5fc4009c4c84a424b6ae0f494b374bae1ce",
            "0x000000000000000000000000c5adfc119364cfe2297e4414db04834d8702475b"
          ],
          "data": "0x000000000000000000000000000000000000000000000000007b19fdcd77a000",
          "blockHash": "0x2147ffef52a4886bb45acdf0d006d038ca703c62b58d8637307187573862651c",
          "blockNumber": "0x17b839b",
          "blockTimestamp": "0x69fef0e3",
          "transactionHash": "0xace9cc0914833aa31e63ad42087c2cc632cf6b0540e0cc9e3f71eb24a3b0690d",
          "transactionIndex": "0x0",
          "logIndex": "0x1",
          "removed": false
        },
        {
          "address": "0xa5f104f8f78d5ba9aec4a383c0927337fd4e997b",
          "topics": [
            "0xddf252ad1be2c89b69c2b068fc378daa952ba7f163c4a11628f55a4df523b3ef",
            "0x000000000000000000000000c5adfc119364cfe2297e4414db04834d8702475b",
            "0x000000000000000000000000646dc5fc4009c4c84a424b6ae0f494b374bae1ce",
            "0x0000000000000000000000000000000000000000000000000000000000000052"
          ],
          "data": "0x",
          "blockHash": "0x2147ffef52a4886bb45acdf0d006d038ca703c62b58d8637307187573862651c",
          "blockNumber": "0x17b839b",
          "blockTimestamp": "0x69fef0e3",
          "transactionHash": "0xace9cc0914833aa31e63ad42087c2cc632cf6b0540e0cc9e3f71eb24a3b0690d",
          "transactionIndex": "0x0",
          "logIndex": "0x2",
          "removed": false
        },
        {
          "address": "0x8fa71914948544c60e3379064567dcf0e6564d27",
          "topics": [
            "0xc0ac3eb1e8caef05b202043f34de8e3173fab712167584f7a2a9f4c302bd0e9c",
            "0x8f96bea0324bec4e807bc9315c9c0cecf0f7a8894549981aceb57bb93c58d466",
            "0x000000000000000000000000a5f104f8f78d5ba9aec4a383c0927337fd4e997b",
            "0x0000000000000000000000000000000000000000000000000000000000000052"
          ],
          "data": "0x000000000000000000000000c5adfc119364cfe2297e4414db04834d8702475b000000000000000000000000646dc5fc4009c4c84a424b6ae0f494b374bae1ce000000000000000000000000c02aaa39b223fe8d0a0e5c4f27ead9083c756cc2000000000000000000000000000000000000000000000000007c585087238000",
          "blockHash": "0x2147ffef52a4886bb45acdf0d006d038ca703c62b58d8637307187573862651c",
          "blockNumber": "0x17b839b",
          "blockTimestamp": "0x69fef0e3",
          "transactionHash": "0xace9cc0914833aa31e63ad42087c2cc632cf6b0540e0cc9e3f71eb24a3b0690d",
          "transactionIndex": "0x0",
          "logIndex": "0x3",
          "removed": false
        }
      ],
      "logsBloom": "0x00000000000000000000010000000000000000000002000000000000000000002000000000000000000001000000000002000000090000000000000000100000000000000000000000010008000000000000000000000000080000000000000200000000000000000005000000000000000000000000000000000010200000000800000000040000000004000000000000000000000000000000000000000000000000200000000400000000000020000000000040000080000000000000000000000002000004000000000000000000000000000080000080000000001000000100200000000000000000000000000000000000000000002000020000000000",
      "type": "0x2",
      "transactionHash": "0xace9cc0914833aa31e63ad42087c2cc632cf6b0540e0cc9e3f71eb24a3b0690d",
      "transactionIndex": "0x0",
      "blockHash": "0x2147ffef52a4886bb45acdf0d006d038ca703c62b58d8637307187573862651c",
      "blockNumber": "0x17b839b",
      "gasUsed": "0x2011d",
      "effectiveGasPrice": "0x1ba81c",
      "blobGasPrice": "0x1",
      "from": "0x646dc5fc4009c4c84a424b6ae0f494b374bae1ce",
      "to": "0x8fa71914948544c60e3379064567dcf0e6564d27",
      "contractAddress": null
    }
  ],
  "libraries": [],
  "pending": [],
  "returns": {},
  "timestamp": 1778506544964,
  "chain": 31337,
  "commit": "59e30a9"
}