{
  "transactions": [
    {
      "hash": "0x7d73247b1fd6ba041c000ca3182241d43e1c8db29058b8651ab42e1f90bbe791",
      "transactionType": "CALL",
      "contractName": null,
      "contractAddress": "0x73973d222c3fda5b2563d269da9e19cb125000f4",
      "function": "settle((uint256,address),(uint8,bool,address,uint256,address,uint256,address,uint64,uint64,uint256),(uint8,bytes32,bytes32))",
      "arguments": [
        "(82, 0xa382b0E75C192D9CDF5c084E58b750Cea7761Bd0)",
        "(1, false, 0x38D4dE42C9c5640A2799B372D27B01957E0a3673, 82, 0xC02aaA39b223FE8D0A0e5C4F27eAD9083C756Cc2, 31000000000000000, 0x646dC5Fc4009C4C84a424B6aE0f494b374bAE1Ce, 1773481459, 1778584179, 6)",
        "(28, 0xc056c9938e95957f2ad84b6019a0dbfd7c5526abd6abaa3cf01d8d5e620e53a6, 0x740b0afa3b35262fa04f12b23a6cca6234253fcae8bd019eee63617395f7abd9)"
      ],
      "transaction": {
        "from": "0xa382b0e75c192d9cdf5c084e58b750cea7761bd0",
        "to": "0x73973d222c3fda5b2563d269da9e19cb125000f4",
        "gas": "0x2c5dc",
        "value": "0x0",
        "input": "0x3bae3e790000000000000000000000000000000000000000000000000000000000000052000000000000000000000000a382b0e75c192d9cdf5c084e58b750cea7761bd00000000000000000000000000000000000000000000000000000000000000001000000000000000000000000000000000000000000000000000000000000000000000000000000000000000038d4de42c9c5640a2799b372d27b01957e0a36730000000000000000000000000000000000000000000000000000000000000052000000000000000000000000c02aaa39b223fe8d0a0e5c4f27ead9083c756cc2000000000000000000000000000000000000000000000000006e2255f4098000000000000000000000000000646dc5fc4009c4c84a424b6ae0f494b374bae1ce0000000000000000000000000000000000000000000000000000000069b52df3000000000000000000000000000000000000000000000000000000006a030a730000000000000000000000000000000000000000000000000000000000000006000000000000000000000000000000000000000000000000000000000000001cc056c9938e95957f2ad84b6019a0dbfd7c5526abd6abaa3cf01d8d5e620e53a6740b0afa3b35262fa04f12b23a6cca6234253fcae8bd019eee63617395f7abd9",
        "nonce": "0x5b",
        "chainId": "0x7a69"
      },
      "additionalContracts": [],
      "isFixedGasLimit": false
    }
  ],
  "receipts": [
    {
      "status": "0x1",
      "cumulativeGasUsed": "0x201ee",
      "logs": [
        {
          "address": "0xc02aaa39b223fe8d0a0e5c4f27ead9083c756cc2",
          "topics": [
            "0xddf252ad1be2c89b69c2b068fc378daa952ba7f163c4a11628f55a4df523b3ef",
            "0x000000000000000000000000646dc5fc4009c4c84a424b6ae0f494b374bae1ce",
            "0x0000000000000000000000001804c8ab1f12e6bbf3894d4083f33e07309d1f38"
          ],
          "data": "0x000000000000000000000000000000000000000000000000000119f17fe16000",
          "blockHash": "0x061909416ea4ad1d71f7c26246c9515726c6c5ba2fa4e41331b32daa8e5817d2",
          "blockNumber": "0x17b73bd",
          "blockTimestamp": "0x69e63812",
          "transactionHash": "0x7d73247b1fd6ba041c000ca3182241d43e1c8db29058b8651ab42e1f90bbe791",
          "transactionIndex": "0x0",
          "logIndex": "0x0",
          "removed": false
        },
        {
          "address": "0xc02aaa39b223fe8d0a0e5c4f27ead9083c756cc2",
          "topics": [
            "0xddf252ad1be2c89b69c2b068fc378daa952ba7f163c4a11628f55a4df523b3ef",
            "0x000000000000000000000000646dc5fc4009c4c84a424b6ae0f494b374bae1ce",
            "0x000000000000000000000000a382b0e75c192d9cdf5c084e58b750cea7761bd0"
          ],
          "data": "0x000000000000000000000000000000000000000000000000006d086474282000",
          "blockHash": "0x061909416ea4ad1d71f7c26246c9515726c6c5ba2fa4e41331b32daa8e5817d2",
          "blockNumber": "0x17b73bd",
          "blockTimestamp": "0x69e63812",
          "transactionHash": "0x7d73247b1fd6ba041c000ca3182241d43e1c8db29058b8651ab42e1f90bbe791",
          "transactionIndex": "0x0",
          "logIndex": "0x1",
          "removed": false
        },
        {
          "address": "0x38d4de42c9c5640a2799b372d27b01957e0a3673",
          "topics": [
            "0xddf252ad1be2c89b69c2b068fc378daa952ba7f163c4a11628f55a4df523b3ef",
            "0x000000000000000000000000a382b0e75c192d9cdf5c084e58b750cea7761bd0",
            "0x000000000000000000000000646dc5fc4009c4c84a424b6ae0f494b374bae1ce",
            "0x0000000000000000000000000000000000000000000000000000000000000052"
          ],
          "data": "0x",
          "blockHash": "0x061909416ea4ad1d71f7c26246c9515726c6c5ba2fa4e41331b32daa8e5817d2",
          "blockNumber": "0x17b73bd",
          "blockTimestamp": "0x69e63812",
          "transactionHash": "0x7d73247b1fd6ba041c000ca3182241d43e1c8db29058b8651ab42e1f90bbe791",
          "transactionIndex": "0x0",
          "logIndex": "0x2",
          "removed": false
        },
        {
          "address": "0x73973d222c3fda5b2563d269da9e19cb125000f4",
          "topics": [
            "0xc0ac3eb1e8caef05b202043f34de8e3173fab712167584f7a2a9f4c302bd0e9c",
            "0xd655bc1e68a7ec2ad23f91c8dd045ee48e63ee62b544c83b92b95c6d2cd34f94",
            "0x00000000000000000000000038d4de42c9c5640a2799b372d27b01957e0a3673",
            "0x0000000000000000000000000000000000000000000000000000000000000052"
          ],
          "data": "0x000000000000000000000000a382b0e75c192d9cdf5c084e58b750cea7761bd0000000000000000000000000646dc5fc4009c4c84a424b6ae0f494b374bae1ce000000000000000000000000c02aaa39b223fe8d0a0e5c4f27ead9083c756cc2000000000000000000000000000000000000000000000000006e2255f4098000",
          "blockHash": "0x061909416ea4ad1d71f7c26246c9515726c6c5ba2fa4e41331b32daa8e5817d2",
          "blockNumber": "0x17b73bd",
          "blockTimestamp": "0x69e63812",
          "transactionHash": "0x7d73247b1fd6ba041c000ca3182241d43e1c8db29058b8651ab42e1f90bbe791",
          "transactionIndex": "0x0",
          "logIndex": "0x3",
          "removed": false
        }
      ],
      "logsBloom": "0x00000000000000000000000000000000000000000002000000000000000000002000000000000000000000000000020002000000090000000004100000100000000000000000001021000008000000000800000000000000000000000000000000000000004000000005000000000000000000000000041000000010000000000000000000000000000004000000000000100000000008000000000000000000000000000000000000000000000000000000000040000080400000000000000000000002000004000000000000000000000000000000000000000000001000000100200000000000000000000000000000000000100000000000000000000000",
      "type": "0x2",
      "transactionHash": "0x7d73247b1fd6ba041c000ca3182241d43e1c8db29058b8651ab42e1f90bbe791",
      "transactionIndex": "0x0",
      "blockHash": "0x061909416ea4ad1d71f7c26246c9515726c6c5ba2fa4e41331b32daa8e5817d2",
      "blockNumber": "0x17b73bd",
      "gasUsed": "0x201ee",
      "effectiveGasPrice": "0xf4248",
      "blobGasPrice": "0x1",
      "from": "0xa382b0e75c192d9cdf5c084e58b750cea7761bd0",
      "to": "0x73973d222c3fda5b2563d269da9e19cb125000f4",
      "contractAddress": null
    }
  ],
  "libraries": [],
  "pending": [],
  "returns": {},
  "timestamp": 1778453766305,
  "chain": 31337,
  "commit": "f87d399"
}