{
  "transactions": [
    {
      "hash": "0xc424b65d650dd38c45f6d56348ecd9bf0e86e5d158363ef087abeb1754fab494",
      "transactionType": "CALL",
      "contractName": null,
      "contractAddress": "0x8fa71914948544c60e3379064567dcf0e6564d27",
      "function": "settle((uint256,address),(uint8,bool,address,uint256,address,uint256,address,uint64,uint64,uint256),(uint8,bytes32,bytes32))",
      "arguments": [
        "(0, 0xc5aDfC119364CFE2297e4414dB04834d8702475B)",
        "(0, false, 0xA5f104F8f78d5ba9AEC4a383c0927337Fd4E997B, 30, 0xC02aaA39b223FE8D0A0e5C4F27eAD9083C756Cc2, 494000000000000000, 0xcbe5659df21Cbcfabe4da962F7a9081F26B3ed82, 1772813314, 1779360972, 20)",
        "(27, 0x8ada4e7281ee82d7242c90a8034c322c5c9295cc4f71c27781045e12753c5e9d, 0x213668619b6739d1d5efb2782346164e6cd237c118860cf04af0eb05bff42159)"
      ],
      "transaction": {
        "from": "0xc5adfc119364cfe2297e4414db04834d8702475b",
        "to": "0x8fa71914948544c60e3379064567dcf0e6564d27",
        "gas": "0x2c4bb",
        "value": "0x0",
        "input": "0x3bae3e790000000000000000000000000000000000000000000000000000000000000000000000000000000000000000c5adfc119364cfe2297e4414db04834d8702475b00000000000000000000000000000000000000000000000000000000000000000000000000000000000000000000000000000000000000000000000000000000000000000000000000000000a5f104f8f78d5ba9aec4a383c0927337fd4e997b000000000000000000000000000000000000000000000000000000000000001e000000000000000000000000c02aaa39b223fe8d0a0e5c4f27ead9083c756cc200000000000000000000000000000000000000000000000006db0a61f70b0000000000000000000000000000cbe5659df21cbcfabe4da962f7a9081f26b3ed820000000000000000000000000000000000000000000000000000000069aafc02000000000000000000000000000000000000000000000000000000006a0ee4cc0000000000000000000000000000000000000000000000000000000000000014000000000000000000000000000000000000000000000000000000000000001b8ada4e7281ee82d7242c90a8034c322c5c9295cc4f71c27781045e12753c5e9d213668619b6739d1d5efb2782346164e6cd237c118860cf04af0eb05bff42159",
        "nonce": "0x44",
        "chainId": "0x7a69"
      },
      "additionalContracts": [],
      "isFixedGasLimit": false
    }
  ],
  "receipts": [
    {
      "status": "0x1",
      "cumulativeGasUsed": "0x2011d",
      "logs": [
        {
          "address": "0xc02aaa39b223fe8d0a0e5c4f27ead9083c756cc2",
          "topics": [
            "0xddf252ad1be2c89b69c2b068fc378daa952ba7f163c4a11628f55a4df523b3ef",
            "0x000000000000000000000000c5adfc119364cfe2297e4414db04834d8702475b",
            "0x0000000000000000000000001804c8ab1f12e6bbf3894d4083f33e07309d1f38"
          ],
          "data": "0x00000000000000000000000000000000000000000000000000118ce76130c000",
          "blockHash": "0x68d09c09da52724f3dcdc99c37dc673bbfa18b424c30183d06db7455af9e0bd6",
          "blockNumber": "0x17b8396",
          "blockTimestamp": "0x69fdba08",
          "transactionHash": "0xc424b65d650dd38c45f6d56348ecd9bf0e86e5d158363ef087abeb1754fab494",
          "transactionIndex": "0x0",
          "logIndex": "0x0",
          "removed": false
        },
        {
          "address": "0xc02aaa39b223fe8d0a0e5c4f27ead9083c756cc2",
          "topics": [
            "0xddf252ad1be2c89b69c2b068fc378daa952ba7f163c4a11628f55a4df523b3ef",
            "0x000000000000000000000000c5adfc119364cfe2297e4414db04834d8702475b",
            "0x000000000000000000000000cbe5659df21cbcfabe4da962f7a9081f26b3ed82"
          ],
          "data": "0x00000000000000000000000000000000000000000000000006c97d7a95da4000",
          "blockHash": "0x68d09c09da52724f3dcdc99c37dc673bbfa18b424c30183d06db7455af9e0bd6",
          "blockNumber": "0x17b8396",
          "blockTimestamp": "0x69fdba08",
          "transactionHash": "0xc424b65d650dd38c45f6d56348ecd9bf0e86e5d158363ef087abeb1754fab494",
          "transactionIndex": "0x0",
          "logIndex": "0x1",
          "removed": false
        },
        {
          "address": "0xa5f104f8f78d5ba9aec4a383c0927337fd4e997b",
          "topics": [
            "0xddf252ad1be2c89b69c2b068fc378daa952ba7f163c4a11628f55a4df523b3ef",
            "0x000000000000000000000000cbe5659df21cbcfabe4da962f7a9081f26b3ed82",
            "0x000000000000000000000000c5adfc119364cfe2297e4414db04834d8702475b",
            "0x000000000000000000000000000000000000000000000000000000000000001e"
          ],
          "data": "0x",
          "blockHash": "0x68d09c09da52724f3dcdc99c37dc673bbfa18b424c30183d06db7455af9e0bd6",
          "blockNumber": "0x17b8396",
          "blockTimestamp": "0x69fdba08",
          "transactionHash": "0xc424b65d650dd38c45f6d56348ecd9bf0e86e5d158363ef087abeb1754fab494",
          "transactionIndex": "0x0",
          "logIndex": "0x2",
          "removed": false
        },
        {
          "address": "0x8fa71914948544c60e3379064567dcf0e6564d27",
          "topics": [
            "0xc0ac3eb1e8caef05b202043f34de8e3173fab712167584f7a2a9f4c302bd0e9c",
            "0x13f0db59bbbf54860368d51c6cd3cea5bedd76c3dd794cc8e34cc829f2f66341",
            "0x000000000000000000000000a5f104f8f78d5ba9aec4a383c0927337fd4e997b",
            "0x000000000000000000000000000000000000000000000000000000000000001e"
          ],
          "data": "0x000000000000000000000000cbe5659df21cbcfabe4da962f7a9081f26b3ed82000000000000000000000000c5adfc119364cfe2297e4414db04834d8702475b000000000000000000000000c02aaa39b223fe8d0a0e5c4f27ead9083c756cc200000000000000000000000000000000000000000000000006db0a61f70b0000",
          "blockHash": "0x68d09c09da52724f3dcdc99c37dc673bbfa18b424c30183d06db7455af9e0bd6",
          "blockNumber": "0x17b8396",
          "blockTimestamp": "0x69fdba08",
          "transactionHash": "0xc424b65d650dd38c45f6d56348ecd9bf0e86e5d158363ef087abeb1754fab494",
          "transactionIndex": "0x0",
          "logIndex": "0x3",
          "removed": false
        }
      ],
      "logsBloom": "0x00000000000000000000010000000000000000000000000000000000000000000000800000000000000000000400000002000000080000000000000000100000000000000000008000010008000000000000000001000000080000000000000200000000000000000001000000000000000000000000000000000010200000000800000000040000000004000000000000000000000000000000000000000000100000200000000400000000000020000000000000000080000000000000000000000002000004000400000000000000000000000000020080000000000000000100200000000000080000000000000000000000004000002000000000000000",
      "type": "0x2",
      "transactionHash": "0xc424b65d650dd38c45f6d56348ecd9bf0e86e5d158363ef087abeb1754fab494",
      "transactionIndex": "0x0",
      "blockHash": "0x68d09c09da52724f3dcdc99c37dc673bbfa18b424c30183d06db7455af9e0bd6",
      "blockNumber": "0x17b8396",
      "gasUsed": "0x2011d",
      "effectiveGasPrice": "0x1ba81c",
      "blobGasPrice": "0x1",
      "from": "0xc5adfc119364cfe2297e4414db04834d8702475b",
      "to": "0x8fa71914948544c60e3379064567dcf0e6564d27",
      "contractAddress": null
    }
  ],
  "libraries": [],
  "pending": [],
  "returns": {},
  "timestamp": 1778506540624,
  "chain": 31337,
  "commit": "59e30a9"
}