{
  "transactions": [
    {
      "hash": "0x31b2d78eaceb3a82e04cd1311d6b1d5b3b4253c6bab25ccf41832a4d27b5cdf1",
      "transactionType": "CALL",
      "contractName": null,
      "contractAddress": "0x8fa71914948544c60e3379064567dcf0e6564d27",
      "function": "settle((uint256,address),(uint8,bool,address,uint256,address,uint256,address,uint64,uint64,uint256),(uint8,bytes32,bytes32))",
      "arguments": [
        "(0, 0x08312E82df563A1639b81f49bb41247759700e30)",
        "(0, false, 0xA5f104F8f78d5ba9AEC4a383c0927337Fd4E997B, 385, 0xC02aaA39b223FE8D0A0e5C4F27eAD9083C756Cc2, 194000000000000000, 0x646dC5Fc4009C4C84a424B6aE0f494b374bAE1Ce, 1773600813, 1778573473, 5)",
        "(27, 0x27115ccd46565f437a026bb089480829d89aa0364b779fab0390ce978224ceb9, 0x4bd233879c65499b0851c6962d631aac066e2adad8497831deff50ba34cca190)"
      ],
      "transaction": {
        "from": "0x08312e82df563a1639b81f49bb41247759700e30",
        "to": "0x8fa71914948544c60e3379064567dcf0e6564d27",
        "gas": "0x2c4bb",
        "value": "0x0",
        "input": "0x3bae3e79000000000000000000000000000000000000000000000000000000000000000000000000000000000000000008312e82df563a1639b81f49bb41247759700e3000000000000000000000000000000000000000000000000000000000000000000000000000000000000000000000000000000000000000000000000000000000000000000000000000000000a5f104f8f78d5ba9aec4a383c0927337fd4e997b0000000000000000000000000000000000000000000000000000000000000181000000000000000000000000c02aaa39b223fe8d0a0e5c4f27ead9083c756cc200000000000000000000000000000000000000000000000002b139f8de6d0000000000000000000000000000646dc5fc4009c4c84a424b6ae0f494b374bae1ce0000000000000000000000000000000000000000000000000000000069b7002d000000000000000000000000000000000000000000000000000000006a02e0a10000000000000000000000000000000000000000000000000000000000000005000000000000000000000000000000000000000000000000000000000000001b27115ccd46565f437a026bb089480829d89aa0364b779fab0390ce978224ceb94bd233879c65499b0851c6962d631aac066e2adad8497831deff50ba34cca190",
        "nonce": "0x3b",
        "chainId": "0x7a69"
      },
      "additionalContracts": [],
      "isFixedGasLimit": false
    }
  ],
  "receipts": [
    {
      "status": "0x1",
      "cumulativeGasUsed": "0x2011d",
      "logs": [
        {
          "address": "0xc02aaa39b223fe8d0a0e5c4f27ead9083c756cc2",
          "topics": [
            "0xddf252ad1be2c89b69c2b068fc378daa952ba7f163c4a11628f55a4df523b3ef",
            "0x00000000000000000000000008312e82df563a1639b81f49bb41247759700e30",
            "0x0000000000000000000000001804c8ab1f12e6bbf3894d4083f33e07309d1f38"
          ],
          "data": "0x0000000000000000000000000000000000000000000000000006e46b72dd4000",
          "blockHash": "0x3b21ccd8ef7bae21f4029137da8728b2d8ecb42f0ea960b610bfb832d742e581",
          "blockNumber": "0x17b8338",
          "blockTimestamp": "0x69e786a6",
          "transactionHash": "0x31b2d78eaceb3a82e04cd1311d6b1d5b3b4253c6bab25ccf41832a4d27b5cdf1",
          "transactionIndex": "0x0",
          "logIndex": "0x0",
          "removed": false
        },
        {
          "address": "0xc02aaa39b223fe8d0a0e5c4f27ead9083c756cc2",
          "topics": [
            "0xddf252ad1be2c89b69c2b068fc378daa952ba7f163c4a11628f55a4df523b3ef",
            "0x00000000000000000000000008312e82df563a1639b81f49bb41247759700e30",
            "0x000000000000000000000000646dc5fc4009c4c84a424b6ae0f494b374bae1ce"
          ],
          "data": "0x00000000000000000000000000000000000000000000000002aa558d6b8fc000",
          "blockHash": "0x3b21ccd8ef7bae21f4029137da8728b2d8ecb42f0ea960b610bfb832d742e581",
          "blockNumber": "0x17b8338",
          "blockTimestamp": "0x69e786a6",
          "transactionHash": "0x31b2d78eaceb3a82e04cd1311d6b1d5b3b4253c6bab25ccf41832a4d27b5cdf1",
          "transactionIndex": "0x0",
          "logIndex": "0x1",
          "removed": false
        },
        {
          "address": "0xa5f104f8f78d5ba9aec4a383c0927337fd4e997b",
          "topics": [
            "0xddf252ad1be2c89b69c2b068fc378daa952ba7f163c4a11628f55a4df523b3ef",
            "0x000000000000000000000000646dc5fc4009c4c84a424b6ae0f494b374bae1ce",
            "0x00000000000000000000000008312e82df563a1639b81f49bb41247759700e30",
            "0x0000000000000000000000000000000000000000000000000000000000000181"
          ],
          "data": "0x",
          "blockHash": "0x3b21ccd8ef7bae21f4029137da8728b2d8ecb42f0ea960b610bfb832d742e581",
          "blockNumber": "0x17b8338",
          "blockTimestamp": "0x69e786a6",
          "transactionHash": "0x31b2d78eaceb3a82e04cd1311d6b1d5b3b4253c6bab25ccf41832a4d27b5cdf1",
          "transactionIndex": "0x0",
          "logIndex": "0x2",
          "removed": false
        },
        {
          "address": "0x8fa71914948544c60e3379064567dcf0e6564d27",
          "topics": [
            "0xc0ac3eb1e8caef05b202043f34de8e3173fab712167584f7a2a9f4c302bd0e9c",
            "0x51303a19bb3553991da1757e046e3f19adeabcc303c565f6d943ed49638e5bd8",
            "0x000000000000000000000000a5f104f8f78d5ba9aec4a383c0927337fd4e997b",
            "0x0000000000000000000000000000000000000000000000000000000000000181"
          ],
          "data": "0x000000000000000000000000646dc5fc4009c4c84a424b6ae0f494b374bae1ce00000000000000000000000008312e82df563a1639b81f49bb41247759700e30000000000000000000000000c02aaa39b223fe8d0a0e5c4f27ead9083c756cc200000000000000000000000000000000000000000000000002b139f8de6d0000",
          "blockHash": "0x3b21ccd8ef7bae21f4029137da8728b2d8ecb42f0ea960b610bfb832d742e581",
          "blockNumber": "0x17b8338",
          "blockTimestamp": "0x69e786a6",
          "transactionHash": "0x31b2d78eaceb3a82e04cd1311d6b1d5b3b4253c6bab25ccf41832a4d27b5cdf1",
          "transactionIndex": "0x0",
          "logIndex": "0x3",
          "removed": false
        }
      ],
      "logsBloom": "0x00000000000000000000010001000000000000000002000000000000000000000000000000100000000000000000000002000000090000000000000000100000000000000000000000010008000000000000000000000000080000000000000000000000000000000005000000000000000000000000000000000010200000000800000800040000000004000000000001000000000000000000000000000000000000200000000400000000000000000000000004010080200000000000000000000002000004000000000000000000000000000000000080000000000000000100200000000000000000000000000000000000004000000000000000800000",
      "type": "0x2",
      "transactionHash": "0x31b2d78eaceb3a82e04cd1311d6b1d5b3b4253c6bab25ccf41832a4d27b5cdf1",
      "transactionIndex": "0x0",
      "blockHash": "0x3b21ccd8ef7bae21f4029137da8728b2d8ecb42f0ea960b610bfb832d742e581",
      "blockNumber": "0x17b8338",
      "gasUsed": "0x2011d",
      "effectiveGasPrice": "0x1ba81c",
      "blobGasPrice": "0x1",
      "from": "0x08312e82df563a1639b81f49bb41247759700e30",
      "to": "0x8fa71914948544c60e3379064567dcf0e6564d27",
      "contractAddress": null
    }
  ],
  "libraries": [],
  "pending": [],
  "returns": {},
  "timestamp": 1778506435864,
  "chain": 31337,
  "commit": "59e30a9"
}