{
  "transactions": [
    {
      "hash": "0xbf3a6317c1de0afb7a4081b5c585293879199d4d6832d8e5763e6286b241b3c6",
      "transactionType": "CALL",
      "contractName": null,
      "contractAddress": "0x8fa71914948544c60e3379064567dcf0e6564d27",
      "function": "settle((uint256,address),(uint8,bool,address,uint256,address,uint256,address,uint64,uint64,uint256),(uint8,bytes32,bytes32))",
      "arguments": [
        "(0, 0xE233420d38D286C2F2Cf8dEe6564F132FBDB09DB)",
        "(0, false, 0xA5f104F8f78d5ba9AEC4a383c0927337Fd4E997B, 194, 0xC02aaA39b223FE8D0A0e5C4F27eAD9083C756Cc2, 28000000000000000, 0xcbe5659df21Cbcfabe4da962F7a9081F26B3ed82, 1773255999, 1778918287, 2)",
        "(28, 0xbb30c7d2e2a8a51da6bac7c5a2cc4572a3eac13e3fca0c11440811de23c640e6, 0x32762854e44531ab847ab86a7802f88429808d501d9878d60108399fa3a8f36b)"
      ],
      "transaction": {
        "from": "0xe233420d38d286c2f2cf8dee6564f132fbdb09db",
        "to": "0x8fa71914948544c60e3379064567dcf0e6564d27",
        "gas": "0x2c4c7",
        "value": "0x0",
        "input": "0x3bae3e790000000000000000000000000000000000000000000000000000000000000000000000000000000000000000e233420d38d286c2f2cf8dee6564f132fbdb09db00000000000000000000000000000000000000000000000000000000000000000000000000000000000000000000000000000000000000000000000000000000000000000000000000000000a5f104f8f78d5ba9aec4a383c0927337fd4e997b00000000000000000000000000000000000000000000000000000000000000c2000000000000000000000000c02aaa39b223fe8d0a0e5c4f27ead9083c756cc2000000000000000000000000000000000000000000000000006379da05b60000000000000000000000000000cbe5659df21cbcfabe4da962f7a9081f26b3ed820000000000000000000000000000000000000000000000000000000069b1bd3f000000000000000000000000000000000000000000000000000000006a08238f0000000000000000000000000000000000000000000000000000000000000002000000000000000000000000000000000000000000000000000000000000001cbb30c7d2e2a8a51da6bac7c5a2cc4572a3eac13e3fca0c11440811de23c640e632762854e44531ab847ab86a7802f88429808d501d9878d60108399fa3a8f36b",
        "nonce": "0x35",
        "chainId": "0x7a69"
      },
      "additionalContracts": [],
      "isFixedGasLimit": false
    }
  ],
  "receipts": [
    {
      "status": "0x1",
      "cumulativeGasUsed": "0x20125",
      "logs": [
        {
          "address": "0xc02aaa39b223fe8d0a0e5c4f27ead9083c756cc2",
          "topics": [
            "0xddf252ad1be2c89b69c2b068fc378daa952ba7f163c4a11628f55a4df523b3ef",
            "0x000000000000000000000000e233420d38d286c2f2cf8dee6564f132fbdb09db",
            "0x0000000000000000000000001804c8ab1f12e6bbf3894d4083f33e07309d1f38"
          ],
          "data": "0x0000000000000000000000000000000000000000000000000000fea894898000",
          "blockHash": "0x4f21b8028af8d74805c4a0daa4b7293bdacc0ad80b88e2be305f1f87c870b7ff",
          "blockNumber": "0x17b831f",
          "blockTimestamp": "0x69df551e",
          "transactionHash": "0xbf3a6317c1de0afb7a4081b5c585293879199d4d6832d8e5763e6286b241b3c6",
          "transactionIndex": "0x0",
          "logIndex": "0x0",
          "removed": false
        },
        {
          "address": "0xc02aaa39b223fe8d0a0e5c4f27ead9083c756cc2",
          "topics": [
            "0xddf252ad1be2c89b69c2b068fc378daa952ba7f163c4a11628f55a4df523b3ef",
            "0x000000000000000000000000e233420d38d286c2f2cf8dee6564f132fbdb09db",
            "0x000000000000000000000000cbe5659df21cbcfabe4da962f7a9081f26b3ed82"
          ],
          "data": "0x00000000000000000000000000000000000000000000000000627b31712c8000",
          "blockHash": "0x4f21b8028af8d74805c4a0daa4b7293bdacc0ad80b88e2be305f1f87c870b7ff",
          "blockNumber": "0x17b831f",
          "blockTimestamp": "0x69df551e",
          "transactionHash": "0xbf3a6317c1de0afb7a4081b5c585293879199d4d6832d8e5763e6286b241b3c6",
          "transactionIndex": "0x0",
          "logIndex": "0x1",
          "removed": false
        },
        {
          "address": "0xa5f104f8f78d5ba9aec4a383c0927337fd4e997b",
          "topics": [
            "0xddf252ad1be2c89b69c2b068fc378daa952ba7f163c4a11628f55a4df523b3ef",
            "0x000000000000000000000000cbe5659df21cbcfabe4da962f7a9081f26b3ed82",
            "0x000000000000000000000000e233420d38d286c2f2cf8dee6564f132fbdb09db",
            "0x00000000000000000000000000000000000000000000000000000000000000c2"
          ],
          "data": "0x",
          "blockHash": "0x4f21b8028af8d74805c4a0daa4b7293bdacc0ad80b88e2be305f1f87c870b7ff",
          "blockNumber": "0x17b831f",
          "blockTimestamp": "0x69df551e",
          "transactionHash": "0xbf3a6317c1de0afb7a4081b5c585293879199d4d6832d8e5763e6286b241b3c6",
          "transactionIndex": "0x0",
          "logIndex": "0x2",
          "removed": false
        },
        {
          "address": "0x8fa71914948544c60e3379064567dcf0e6564d27",
          "topics": [
            "0xc0ac3eb1e8caef05b202043f34de8e3173fab712167584f7a2a9f4c302bd0e9c",
            "0xcc7383c8780c71bb7b7587544e10c5d0cea0b202c5b21ecd710218082179654e",
            "0x000000000000000000000000a5f104f8f78d5ba9aec4a383c0927337fd4e997b",
            "0x00000000000000000000000000000000000000000000000000000000000000c2"
          ],
          "data": "0x000000000000000000000000cbe5659df21cbcfabe4da962f7a9081f26b3ed82000000000000000000000000e233420d38d286c2f2cf8dee6564f132fbdb09db000000000000000000000000c02aaa39b223fe8d0a0e5c4f27ead9083c756cc2000000000000000000000000000000000000000000000000006379da05b60000",
          "blockHash": "0x4f21b8028af8d74805c4a0daa4b7293bdacc0ad80b88e2be305f1f87c870b7ff",
          "blockNumber": "0x17b831f",
          "blockTimestamp": "0x69df551e",
          "transactionHash": "0xbf3a6317c1de0afb7a4081b5c585293879199d4d6832d8e5763e6286b241b3c6",
          "transactionIndex": "0x0",
          "logIndex": "0x3",
          "removed": false
        }
      ],
      "logsBloom": "0x000000000000000000000100000000000000000000000080000000000000000000000000000000000000000000000000020000000800000000000000001000000000000000000000000100080000000000000000000000000800000000000000000000010002000040010000000000000000000000000000000000102000000008000000000400000000040000000000000000000000000000000000000000000000002000000004000000008000000000000000000000800000000000000000000000120000040004000000000000000000000000020200c0000000000000000100200000000000000000000000000000000000004000000040000000000000",
      "type": "0x2",
      "transactionHash": "0xbf3a6317c1de0afb7a4081b5c585293879199d4d6832d8e5763e6286b241b3c6",
      "transactionIndex": "0x0",
      "blockHash": "0x4f21b8028af8d74805c4a0daa4b7293bdacc0ad80b88e2be305f1f87c870b7ff",
      "blockNumber": "0x17b831f",
      "gasUsed": "0x20125",
      "effectiveGasPrice": "0x1ba81c",
      "blobGasPrice": "0x1",
      "from": "0xe233420d38d286c2f2cf8dee6564f132fbdb09db",
      "to": "0x8fa71914948544c60e3379064567dcf0e6564d27",
      "contractAddress": null
    }
  ],
  "libraries": [],
  "pending": [],
  "returns": {},
  "timestamp": 1778506407986,
  "chain": 31337,
  "commit": "59e30a9"
}