{
  "transactions": [
    {
      "hash": "0x10bb4119c185db603d3c5a79dfca487327713e12d04b6554d7e7f153324439ce",
      "transactionType": "CALL",
      "contractName": null,
      "contractAddress": "0x73973d222c3fda5b2563d269da9e19cb125000f4",
      "function": "settle((uint256,address),(uint8,bool,address,uint256,address,uint256,address,uint64,uint64,uint256),(uint8,bytes32,bytes32))",
      "arguments": [
        "(481, 0x646dC5Fc4009C4C84a424B6aE0f494b374bAE1Ce)",
        "(1, false, 0x38D4dE42C9c5640A2799B372D27B01957E0a3673, 481, 0xC02aaA39b223FE8D0A0e5C4F27eAD9083C756Cc2, 11000000000000000, 0xa382b0E75C192D9CDF5c084E58b750Cea7761Bd0, 1773208099, 1778857539, 6)",
        "(28, 0x15d9c47230961a25be9a8ec6b599aaf11f5d1a754410b2eae5fdbb8c13ac346f, 0x7a915c64a0427d0976d0073f34b1e42a54225accfb7b90f6fe872895f9a93933)"
      ],
      "transaction": {
        "from": "0x646dc5fc4009c4c84a424b6ae0f494b374bae1ce",
        "to": "0x73973d222c3fda5b2563d269da9e19cb125000f4",
        "gas": "0x2c5fe",
        "value": "0x0",
        "input": "0x3bae3e7900000000000000000000000000000000000000000000000000000000000001e1000000000000000000000000646dc5fc4009c4c84a424b6ae0f494b374bae1ce0000000000000000000000000000000000000000000000000000000000000001000000000000000000000000000000000000000000000000000000000000000000000000000000000000000038d4de42c9c5640a2799b372d27b01957e0a367300000000000000000000000000000000000000000000000000000000000001e1000000000000000000000000c02aaa39b223fe8d0a0e5c4f27ead9083c756cc20000000000000000000000000000000000000000000000000027147114878000000000000000000000000000a382b0e75c192d9cdf5c084e58b750cea7761bd00000000000000000000000000000000000000000000000000000000069b10223000000000000000000000000000000000000000000000000000000006a0736430000000000000000000000000000000000000000000000000000000000000006000000000000000000000000000000000000000000000000000000000000001c15d9c47230961a25be9a8ec6b599aaf11f5d1a754410b2eae5fdbb8c13ac346f7a915c64a0427d0976d0073f34b1e42a54225accfb7b90f6fe872895f9a93933",
        "nonce": "0x8a",
        "chainId": "0x7a69"
      },
      "additionalContracts": [],
      "isFixedGasLimit": false
    }
  ],
  "receipts": [
    {
      "status": "0x1",
      "cumulativeGasUsed": "0x20206",
      "logs": [
        {
          "address": "0xc02aaa39b223fe8d0a0e5c4f27ead9083c756cc2",
          "topics": [
            "0xddf252ad1be2c89b69c2b068fc378daa952ba7f163c4a11628f55a4df523b3ef",
            "0x000000000000000000000000a382b0e75c192d9cdf5c084e58b750cea7761bd0",
            "0x0000000000000000000000001804c8ab1f12e6bbf3894d4083f33e07309d1f38"
          ],
          "data": "0x0000000000000000000000000000000000000000000000000000640b5eece000",
          "blockHash": "0x148193d4a451fea4d48c753ac3a74d5e8c03cbe170df7cb26a094b5201a36b51",
          "blockNumber": "0x17b7390",
          "blockTimestamp": "0x69ddd497",
          "transactionHash": "0x10bb4119c185db603d3c5a79dfca487327713e12d04b6554d7e7f153324439ce",
          "transactionIndex": "0x0",
          "logIndex": "0x0",
          "removed": false
        },
        {
          "address": "0xc02aaa39b223fe8d0a0e5c4f27ead9083c756cc2",
          "topics": [
            "0xddf252ad1be2c89b69c2b068fc378daa952ba7f163c4a11628f55a4df523b3ef",
            "0x000000000000000000000000a382b0e75c192d9cdf5c084e58b750cea7761bd0",
            "0x000000000000000000000000646dc5fc4009c4c84a424b6ae0f494b374bae1ce"
          ],
          "data": "0x0000000000000000000000000000000000000000000000000026b065b59aa000",
          "blockHash": "0x148193d4a451fea4d48c753ac3a74d5e8c03cbe170df7cb26a094b5201a36b51",
          "blockNumber": "0x17b7390",
          "blockTimestamp": "0x69ddd497",
          "transactionHash": "0x10bb4119c185db603d3c5a79dfca487327713e12d04b6554d7e7f153324439ce",
          "transactionIndex": "0x0",
          "logIndex": "0x1",
          "removed": false
        },
        {
          "address": "0x38d4de42c9c5640a2799b372d27b01957e0a3673",
          "topics": [
            "0xddf252ad1be2c89b69c2b068fc378daa952ba7f163c4a11628f55a4df523b3ef",
            "0x000000000000000000000000646dc5fc4009c4c84a424b6ae0f494b374bae1ce",
            "0x000000000000000000000000a382b0e75c192d9cdf5c084e58b750cea7761bd0",
            "0x00000000000000000000000000000000000000000000000000000000000001e1"
          ],
          "data": "0x",
          "blockHash": "0x148193d4a451fea4d48c753ac3a74d5e8c03cbe170df7cb26a094b5201a36b51",
          "blockNumber": "0x17b7390",
          "blockTimestamp": "0x69ddd497",
          "transactionHash": "0x10bb4119c185db603d3c5a79dfca487327713e12d04b6554d7e7f153324439ce",
          "transactionIndex": "0x0",
          "logIndex": "0x2",
          "removed": false
        },
        {
          "address": "0x73973d222c3fda5b2563d269da9e19cb125000f4",
          "topics": [
            "0xc0ac3eb1e8caef05b202043f34de8e3173fab712167584f7a2a9f4c302bd0e9c",
            "0xe95150a7f48eee0c46989949b6966248b30a82aefc9c21efeb4e6161578fe9c0",
            "0x00000000000000000000000038d4de42c9c5640a2799b372d27b01957e0a3673",
            "0x00000000000000000000000000000000000000000000000000000000000001e1"
          ],
          "data": "0x000000000000000000000000646dc5fc4009c4c84a424b6ae0f494b374bae1ce000000000000000000000000a382b0e75c192d9cdf5c084e58b750cea7761bd0000000000000000000000000c02aaa39b223fe8d0a0e5c4f27ead9083c756cc20000000000000000000000000000000000000000000000000027147114878000",
          "blockHash": "0x148193d4a451fea4d48c753ac3a74d5e8c03cbe170df7cb26a094b5201a36b51",
          "blockNumber": "0x17b7390",
          "blockTimestamp": "0x69ddd497",
          "transactionHash": "0x10bb4119c185db603d3c5a79dfca487327713e12d04b6554d7e7f153324439ce",
          "transactionIndex": "0x0",
          "logIndex": "0x3",
          "removed": false
        }
      ],
      "logsBloom": "0x00000000000000000000000000000000000000000002000000000000000000000000000080000000000000000000020002000000890000000004100000100000000000000000001021000008000000000000000000000001000000000000000000000000000000000007000000000000000000000000040000000010000000000000200000000000000004000000000000100000000008000000000000000000000000000000000000000000000000000000000000000080400000000000000000000002000004000000000000000800000000000000000000000000000000000100200000000000000000000000000000000000100000000000000000000000",
      "type": "0x2",
      "transactionHash": "0x10bb4119c185db603d3c5a79dfca487327713e12d04b6554d7e7f153324439ce",
      "transactionIndex": "0x0",
      "blockHash": "0x148193d4a451fea4d48c753ac3a74d5e8c03cbe170df7cb26a094b5201a36b51",
      "blockNumber": "0x17b7390",
      "gasUsed": "0x20206",
      "effectiveGasPrice": "0xf4248",
      "blobGasPrice": "0x1",
      "from": "0x646dc5fc4009c4c84a424b6ae0f494b374bae1ce",
      "to": "0x73973d222c3fda5b2563d269da9e19cb125000f4",
      "contractAddress": null
    }
  ],
  "libraries": [],
  "pending": [],
  "returns": {},
  "timestamp": 1778453691219,
  "chain": 31337,
  "commit": "f87d399"
}