{
  "transactions": [
    {
      "hash": "0x415ccf41f471339695f8346b6a1922f336e27cb91795d993ef76b496dd4e92cc",
      "transactionType": "CALL",
      "contractName": null,
      "contractAddress": "0x8fa71914948544c60e3379064567dcf0e6564d27",
      "function": "settle((uint256,address),(uint8,bool,address,uint256,address,uint256,address,uint64,uint64,uint256),(uint8,bytes32,bytes32))",
      "arguments": [
        "(0, 0x2c2dbA75492E0C4A1D10B41303167aEC59586C9c)",
        "(0, false, 0xA5f104F8f78d5ba9AEC4a383c0927337Fd4E997B, 398, 0xC02aaA39b223FE8D0A0e5C4F27eAD9083C756Cc2, 28000000000000000, 0x646dC5Fc4009C4C84a424B6aE0f494b374bAE1Ce, 1772007703, 1780166583, 10)",
        "(27, 0xd2aac17c90e5d6a0bf0cc162ac4a0624c43f669e4af2a51ac5506bfb690fef58, 0x2c9832b6669d6e4c1f0441d3ab2990dc84b1da149a34e01665e1466bc326120c)"
      ],
      "transaction": {
        "from": "0x2c2dba75492e0c4a1d10b41303167aec59586c9c",
        "to": "0x8fa71914948544c60e3379064567dcf0e6564d27",
        "gas": "0x2c4bb",
        "value": "0x0",
        "input": "0x3bae3e7900000000000000000000000000000000000000000000000000000000000000000000000000000000000000002c2dba75492e0c4a1d10b41303167aec59586c9c00000000000000000000000000000000000000000000000000000000000000000000000000000000000000000000000000000000000000000000000000000000000000000000000000000000a5f104f8f78d5ba9aec4a383c0927337fd4e997b000000000000000000000000000000000000000000000000000000000000018e000000000000000000000000c02aaa39b223fe8d0a0e5c4f27ead9083c756cc2000000000000000000000000000000000000000000000000006379da05b60000000000000000000000000000646dc5fc4009c4c84a424b6ae0f494b374bae1ce00000000000000000000000000000000000000000000000000000000699eb117000000000000000000000000000000000000000000000000000000006a1b2fb7000000000000000000000000000000000000000000000000000000000000000a000000000000000000000000000000000000000000000000000000000000001bd2aac17c90e5d6a0bf0cc162ac4a0624c43f669e4af2a51ac5506bfb690fef582c9832b6669d6e4c1f0441d3ab2990dc84b1da149a34e01665e1466bc326120c",
        "nonce": "0x35",
        "chainId": "0x7a69"
      },
      "additionalContracts": [],
      "isFixedGasLimit": false
    }
  ],
  "receipts": [
    {
      "status": "0x1",
      "cumulativeGasUsed": "0x2011d",
      "logs": [
        {
          "address": "0xc02aaa39b223fe8d0a0e5c4f27ead9083c756cc2",
          "topics": [
            "0xddf252ad1be2c89b69c2b068fc378daa952ba7f163c4a11628f55a4df523b3ef",
            "0x0000000000000000000000002c2dba75492e0c4a1d10b41303167aec59586c9c",
            "0x0000000000000000000000001804c8ab1f12e6bbf3894d4083f33e07309d1f38"
          ],
          "data": "0x0000000000000000000000000000000000000000000000000000fea894898000",
          "blockHash": "0x80e16d51a288acd3bb242784375ab1f3706b10d9846d012b913a3a8aa39dc0d2",
          "blockNumber": "0x17b837a",
          "blockTimestamp": "0x69f72887",
          "transactionHash": "0x415ccf41f471339695f8346b6a1922f336e27cb91795d993ef76b496dd4e92cc",
          "transactionIndex": "0x0",
          "logIndex": "0x0",
          "removed": false
        },
        {
          "address": "0xc02aaa39b223fe8d0a0e5c4f27ead9083c756cc2",
          "topics": [
            "0xddf252ad1be2c89b69c2b068fc378daa952ba7f163c4a11628f55a4df523b3ef",
            "0x0000000000000000000000002c2dba75492e0c4a1d10b41303167aec59586c9c",
            "0x000000000000000000000000646dc5fc4009c4c84a424b6ae0f494b374bae1ce"
          ],
          "data": "0x00000000000000000000000000000000000000000000000000627b31712c8000",
          "blockHash": "0x80e16d51a288acd3bb242784375ab1f3706b10d9846d012b913a3a8aa39dc0d2",
          "blockNumber": "0x17b837a",
          "blockTimestamp": "0x69f72887",
          "transactionHash": "0x415ccf41f471339695f8346b6a1922f336e27cb91795d993ef76b496dd4e92cc",
          "transactionIndex": "0x0",
          "logIndex": "0x1",
          "removed": false
        },
        {
          "address": "0xa5f104f8f78d5ba9aec4a383c0927337fd4e997b",
          "topics": [
            "0xddf252ad1be2c89b69c2b068fc378daa952ba7f163c4a11628f55a4df523b3ef",
            "0x000000000000000000000000646dc5fc4009c4c84a424b6ae0f494b374bae1ce",
            "0x0000000000000000000000002c2dba75492e0c4a1d10b41303167aec59586c9c",
            "0x000000000000000000000000000000000000000000000000000000000000018e"
          ],
          "data": "0x",
          "blockHash": "0x80e16d51a288acd3bb242784375ab1f3706b10d9846d012b913a3a8aa39dc0d2",
          "blockNumber": "0x17b837a",
          "blockTimestamp": "0x69f72887",
          "transactionHash": "0x415ccf41f471339695f8346b6a1922f336e27cb91795d993ef76b496dd4e92cc",
          "transactionIndex": "0x0",
          "logIndex": "0x2",
          "removed": false
        },
        {
          "address": "0x8fa71914948544c60e3379064567dcf0e6564d27",
          "topics": [
            "0xc0ac3eb1e8caef05b202043f34de8e3173fab712167584f7a2a9f4c302bd0e9c",
            "0x69e6bbd9a58bdd9c7a69291ca917add8c7b4826f0231003d9f57a41b66a9723c",
            "0x000000000000000000000000a5f104f8f78d5ba9aec4a383c0927337fd4e997b",
            "0x000000000000000000000000000000000000000000000000000000000000018e"
          ],
          "data": "0x000000000000000000000000646dc5fc4009c4c84a424b6ae0f494b374bae1ce0000000000000000000000002c2dba75492e0c4a1d10b41303167aec59586c9c000000000000000000000000c02aaa39b223fe8d0a0e5c4f27ead9083c756cc2000000000000000000000000000000000000000000000000006379da05b60000",
          "blockHash": "0x80e16d51a288acd3bb242784375ab1f3706b10d9846d012b913a3a8aa39dc0d2",
          "blockNumber": "0x17b837a",
          "blockTimestamp": "0x69f72887",
          "transactionHash": "0x415ccf41f471339695f8346b6a1922f336e27cb91795d993ef76b496dd4e92cc",
          "transactionIndex": "0x0",
          "logIndex": "0x3",
          "removed": false
        }
      ],
      "logsBloom": "0x00000000000000000000010000000000000000000002000000000000000000000000000010000000001000000000000002000000090000000000000800100000000200000000000000010008000000000000000000000000080000000000000000000000200004000005000000000000000000000000000000000010200000000800000000040100000004000000000000000000000000000000000000000000000000200000000400000000000000000000000000000080000000040000000000000002000004000000000000000000000000000000000080000000000000000100280000000000000000000000000000000000000000000000000000000000",
      "type": "0x2",
      "transactionHash": "0x415ccf41f471339695f8346b6a1922f336e27cb91795d993ef76b496dd4e92cc",
      "transactionIndex": "0x0",
      "blockHash": "0x80e16d51a288acd3bb242784375ab1f3706b10d9846d012b913a3a8aa39dc0d2",
      "blockNumber": "0x17b837a",
      "gasUsed": "0x2011d",
      "effectiveGasPrice": "0x1ba81c",
      "blobGasPrice": "0x1",
      "from": "0x2c2dba75492e0c4a1d10b41303167aec59586c9c",
      "to": "0x8fa71914948544c60e3379064567dcf0e6564d27",
      "contractAddress": null
    }
  ],
  "libraries": [],
  "pending": [],
  "returns": {},
  "timestamp": 1778506504381,
  "chain": 31337,
  "commit": "59e30a9"
}