{
  "transactions": [
    {
      "hash": "0x06c6b10bdd7536544c305967a32ed5490966e1a190cc1763f8ac313d3c96aa99",
      "transactionType": "CALL",
      "contractName": null,
      "contractAddress": "0x73973d222c3fda5b2563d269da9e19cb125000f4",
      "function": "settle((uint256,address),(uint8,bool,address,uint256,address,uint256,address,uint64,uint64,uint256),(uint8,bytes32,bytes32))",
      "arguments": [
        "(0, 0xc5aDfC119364CFE2297e4414dB04834d8702475B)",
        "(0, false, 0x38D4dE42C9c5640A2799B372D27B01957E0a3673, 150, 0xC02aaA39b223FE8D0A0e5C4F27eAD9083C756Cc2, 1142000000000000000, 0x1302F142Fc55B165647d3Bd5dec227f569A2A907, 1772601012, 1779464626, 11)",
        "(28, 0xbcf3b11ed1475017417dfedb990d08650af131d1dbc080f4249a1605b0182c7e, 0x61e2a8c1d73138002d639c5ae7c9bf302788ebb68464a7dd3edc56d37a55c445)"
      ],
      "transaction": {
        "from": "0xc5adfc119364cfe2297e4414db04834d8702475b",
        "to": "0x73973d222c3fda5b2563d269da9e19cb125000f4",
        "gas": "0x2c4c7",
        "value": "0x0",
        "input": "0x3bae3e790000000000000000000000000000000000000000000000000000000000000000000000000000000000000000c5adfc119364cfe2297e4414db04834d8702475b0000000000000000000000000000000000000000000000000000000000000000000000000000000000000000000000000000000000000000000000000000000000000000000000000000000038d4de42c9c5640a2799b372d27b01957e0a36730000000000000000000000000000000000000000000000000000000000000096000000000000000000000000c02aaa39b223fe8d0a0e5c4f27ead9083c756cc20000000000000000000000000000000000000000000000000fd932f30d7f00000000000000000000000000001302f142fc55b165647d3bd5dec227f569a2a9070000000000000000000000000000000000000000000000000000000069a7beb4000000000000000000000000000000000000000000000000000000006a1079b2000000000000000000000000000000000000000000000000000000000000000b000000000000000000000000000000000000000000000000000000000000001cbcf3b11ed1475017417dfedb990d08650af131d1dbc080f4249a1605b0182c7e61e2a8c1d73138002d639c5ae7c9bf302788ebb68464a7dd3edc56d37a55c445",
        "nonce": "0x6b",
        "chainId": "0x7a69"
      },
      "additionalContracts": [],
      "isFixedGasLimit": false
    }
  ],
  "receipts": [
    {
      "status": "0x1",
      "cumulativeGasUsed": "0x20125",
      "logs": [
        {
          "address": "0xc02aaa39b223fe8d0a0e5c4f27ead9083c756cc2",
          "topics": [
            "0xddf252ad1be2c89b69c2b068fc378daa952ba7f163c4a11628f55a4df523b3ef",
            "0x000000000000000000000000c5adfc119364cfe2297e4414db04834d8702475b",
            "0x0000000000000000000000001804c8ab1f12e6bbf3894d4083f33e07309d1f38"
          ],
          "data": "0x0000000000000000000000000000000000000000000000000028926df355c000",
          "blockHash": "0x8dffd7b0661e895723987859fb9cea3661bde691aacaeaa37d533db40e7b2fa4",
          "blockNumber": "0x17b73d3",
          "blockTimestamp": "0x69e9faa2",
          "transactionHash": "0x06c6b10bdd7536544c305967a32ed5490966e1a190cc1763f8ac313d3c96aa99",
          "transactionIndex": "0x0",
          "logIndex": "0x0",
          "removed": false
        },
        {
          "address": "0xc02aaa39b223fe8d0a0e5c4f27ead9083c756cc2",
          "topics": [
            "0xddf252ad1be2c89b69c2b068fc378daa952ba7f163c4a11628f55a4df523b3ef",
            "0x000000000000000000000000c5adfc119364cfe2297e4414db04834d8702475b",
            "0x0000000000000000000000001302f142fc55b165647d3bd5dec227f569a2a907"
          ],
          "data": "0x0000000000000000000000000000000000000000000000000fb0a0851a294000",
          "blockHash": "0x8dffd7b0661e895723987859fb9cea3661bde691aacaeaa37d533db40e7b2fa4",
          "blockNumber": "0x17b73d3",
          "blockTimestamp": "0x69e9faa2",
          "transactionHash": "0x06c6b10bdd7536544c305967a32ed5490966e1a190cc1763f8ac313d3c96aa99",
          "transactionIndex": "0x0",
          "logIndex": "0x1",
          "removed": false
        },
        {
          "address": "0x38d4de42c9c5640a2799b372d27b01957e0a3673",
          "topics": [
            "0xddf252ad1be2c89b69c2b068fc378daa952ba7f163c4a11628f55a4df523b3ef",
            "0x0000000000000000000000001302f142fc55b165647d3bd5dec227f569a2a907",
            "0x000000000000000000000000c5adfc119364cfe2297e4414db04834d8702475b",
            "0x0000000000000000000000000000000000000000000000000000000000000096"
          ],
          "data": "0x",
          "blockHash": "0x8dffd7b0661e895723987859fb9cea3661bde691aacaeaa37d533db40e7b2fa4",
          "blockNumber": "0x17b73d3",
          "blockTimestamp": "0x69e9faa2",
          "transactionHash": "0x06c6b10bdd7536544c305967a32ed5490966e1a190cc1763f8ac313d3c96aa99",
          "transactionIndex": "0x0",
          "logIndex": "0x2",
          "removed": false
        },
        {
          "address": "0x73973d222c3fda5b2563d269da9e19cb125000f4",
          "topics": [
            "0xc0ac3eb1e8caef05b202043f34de8e3173fab712167584f7a2a9f4c302bd0e9c",
            "0xc7aa2d27b1a41e9b0ae614cef4e23d5d4d0c76d7d088b0f75b08568f6960881e",
            "0x00000000000000000000000038d4de42c9c5640a2799b372d27b01957e0a3673",
            "0x0000000000000000000000000000000000000000000000000000000000000096"
          ],
          "data": "0x0000000000000000000000001302f142fc55b165647d3bd5dec227f569a2a907000000000000000000000000c5adfc119364cfe2297e4414db04834d8702475b000000000000000000000000c02aaa39b223fe8d0a0e5c4f27ead9083c756cc20000000000000000000000000000000000000000000000000fd932f30d7f0000",
          "blockHash": "0x8dffd7b0661e895723987859fb9cea3661bde691aacaeaa37d533db40e7b2fa4",
          "blockNumber": "0x17b73d3",
          "blockTimestamp": "0x69e9faa2",
          "transactionHash": "0x06c6b10bdd7536544c305967a32ed5490966e1a190cc1763f8ac313d3c96aa99",
          "transactionIndex": "0x0",
          "logIndex": "0x3",
          "removed": false
        }
      ],
      "logsBloom": "0x00000000000000000000000000000000000000000002000000000000000000000000000000000000000000000000020002000000080000000004100000100000000000000000001021000008000000000000000000000000000000000000000200400000000000000001000000000400000000000000000000000010000000000000000000000000000004000000000000000000000008000000000000000000000000000000000000000280000120000000000000001080400000000000000000000002000004000000000200000000008000000000000000000000000000000100200000000000000040000000000000000000000000002000000000000000",
      "type": "0x2",
      "transactionHash": "0x06c6b10bdd7536544c305967a32ed5490966e1a190cc1763f8ac313d3c96aa99",
      "transactionIndex": "0x0",
      "blockHash": "0x8dffd7b0661e895723987859fb9cea3661bde691aacaeaa37d533db40e7b2fa4",
      "blockNumber": "0x17b73d3",
      "gasUsed": "0x20125",
      "effectiveGasPrice": "0xf4248",
      "blobGasPrice": "0x1",
      "from": "0xc5adfc119364cfe2297e4414db04834d8702475b",
      "to": "0x73973d222c3fda5b2563d269da9e19cb125000f4",
      "contractAddress": null
    }
  ],
  "libraries": [],
  "pending": [],
  "returns": {},
  "timestamp": 1778453785639,
  "chain": 31337,
  "commit": "f87d399"
}