{
  "transactions": [
    {
      "hash": "0xa4a0fd4925109f0ab4a62e4332efe767acb6c3cf7a0392b8476ce5525d767666",
      "transactionType": "CALL",
      "contractName": null,
      "contractAddress": "0x8fa71914948544c60e3379064567dcf0e6564d27",
      "function": "settle((uint256,address),(uint8,bool,address,uint256,address,uint256,address,uint64,uint64,uint256),(uint8,bytes32,bytes32))",
      "arguments": [
        "(0, 0xe3745C151faB59B0740f4312b2B027F07D096639)",
        "(0, false, 0xA5f104F8f78d5ba9AEC4a383c0927337Fd4E997B, 78, 0xC02aaA39b223FE8D0A0e5C4F27eAD9083C756Cc2, 58000000000000000, 0x646dC5Fc4009C4C84a424B6aE0f494b374bAE1Ce, 1773167262, 1779007024, 18)",
        "(28, 0x92fd78959696f2946ca05a4bb9f751889b87574489aff9336296209f625ee795, 0x52248d2ca75cfca5549488771c11742bebafc3afb8449e347d241eca45cab71b)"
      ],
      "transaction": {
        "from": "0xe3745c151fab59b0740f4312b2b027f07d096639",
        "to": "0x8fa71914948544c60e3379064567dcf0e6564d27",
        "gas": "0x2c4c7",
        "value": "0x0",
        "input": "0x3bae3e790000000000000000000000000000000000000000000000000000000000000000000000000000000000000000e3745c151fab59b0740f4312b2b027f07d09663900000000000000000000000000000000000000000000000000000000000000000000000000000000000000000000000000000000000000000000000000000000000000000000000000000000a5f104f8f78d5ba9aec4a383c0927337fd4e997b000000000000000000000000000000000000000000000000000000000000004e000000000000000000000000c02aaa39b223fe8d0a0e5c4f27ead9083c756cc200000000000000000000000000000000000000000000000000ce0eb154f90000000000000000000000000000646dc5fc4009c4c84a424b6ae0f494b374bae1ce0000000000000000000000000000000000000000000000000000000069b0629e000000000000000000000000000000000000000000000000000000006a097e300000000000000000000000000000000000000000000000000000000000000012000000000000000000000000000000000000000000000000000000000000001c92fd78959696f2946ca05a4bb9f751889b87574489aff9336296209f625ee79552248d2ca75cfca5549488771c11742bebafc3afb8449e347d241eca45cab71b",
        "nonce": "0x55",
        "chainId": "0x7a69"
      },
      "additionalContracts": [],
      "isFixedGasLimit": false
    }
  ],
  "receipts": [
    {
      "status": "0x1",
      "cumulativeGasUsed": "0x20125",
      "logs": [
        {
          "address": "0xc02aaa39b223fe8d0a0e5c4f27ead9083c756cc2",
          "topics": [
            "0xddf252ad1be2c89b69c2b068fc378daa952ba7f163c4a11628f55a4df523b3ef",
            "0x000000000000000000000000e3745c151fab59b0740f4312b2b027f07d096639",
            "0x0000000000000000000000001804c8ab1f12e6bbf3894d4083f33e07309d1f38"
          ],
          "data": "0x00000000000000000000000000000000000000000000000000020f81c5f84000",
          "blockHash": "0x3c162576c82a5f56b84721387320718d98f9b00af44efcec1c631d8047693000",
          "blockNumber": "0x17b838b",
          "blockTimestamp": "0x69fb0e24",
          "transactionHash": "0xa4a0fd4925109f0ab4a62e4332efe767acb6c3cf7a0392b8476ce5525d767666",
          "transactionIndex": "0x0",
          "logIndex": "0x0",
          "removed": false
        },
        {
          "address": "0xc02aaa39b223fe8d0a0e5c4f27ead9083c756cc2",
          "topics": [
            "0xddf252ad1be2c89b69c2b068fc378daa952ba7f163c4a11628f55a4df523b3ef",
            "0x000000000000000000000000e3745c151fab59b0740f4312b2b027f07d096639",
            "0x000000000000000000000000646dc5fc4009c4c84a424b6ae0f494b374bae1ce"
          ],
          "data": "0x00000000000000000000000000000000000000000000000000cbff2f8f00c000",
          "blockHash": "0x3c162576c82a5f56b84721387320718d98f9b00af44efcec1c631d8047693000",
          "blockNumber": "0x17b838b",
          "blockTimestamp": "0x69fb0e24",
          "transactionHash": "0xa4a0fd4925109f0ab4a62e4332efe767acb6c3cf7a0392b8476ce5525d767666",
          "transactionIndex": "0x0",
          "logIndex": "0x1",
          "removed": false
        },
        {
          "address": "0xa5f104f8f78d5ba9aec4a383c0927337fd4e997b",
          "topics": [
            "0xddf252ad1be2c89b69c2b068fc378daa952ba7f163c4a11628f55a4df523b3ef",
            "0x000000000000000000000000646dc5fc4009c4c84a424b6ae0f494b374bae1ce",
            "0x000000000000000000000000e3745c151fab59b0740f4312b2b027f07d096639",
            "0x000000000000000000000000000000000000000000000000000000000000004e"
          ],
          "data": "0x",
          "blockHash": "0x3c162576c82a5f56b84721387320718d98f9b00af44efcec1c631d8047693000",
          "blockNumber": "0x17b838b",
          "blockTimestamp": "0x69fb0e24",
          "transactionHash": "0xa4a0fd4925109f0ab4a62e4332efe767acb6c3cf7a0392b8476ce5525d767666",
          "transactionIndex": "0x0",
          "logIndex": "0x2",
          "removed": false
        },
        {
          "address": "0x8fa71914948544c60e3379064567dcf0e6564d27",
          "topics": [
            "0xc0ac3eb1e8caef05b202043f34de8e3173fab712167584f7a2a9f4c302bd0e9c",
            "0x076d10c4d670f9e781722bbaa3915189aa5146d57fd2c09253aad4de88225bad",
            "0x000000000000000000000000a5f104f8f78d5ba9aec4a383c0927337fd4e997b",
            "0x000000000000000000000000000000000000000000000000000000000000004e"
          ],
          "data": "0x000000000000000000000000646dc5fc4009c4c84a424b6ae0f494b374bae1ce000000000000000000000000e3745c151fab59b0740f4312b2b027f07d096639000000000000000000000000c02aaa39b223fe8d0a0e5c4f27ead9083c756cc200000000000000000000000000000000000000000000000000ce0eb154f90000",
          "blockHash": "0x3c162576c82a5f56b84721387320718d98f9b00af44efcec1c631d8047693000",
          "blockNumber": "0x17b838b",
          "blockTimestamp": "0x69fb0e24",
          "transactionHash": "0xa4a0fd4925109f0ab4a62e4332efe767acb6c3cf7a0392b8476ce5525d767666",
          "transactionIndex": "0x0",
          "logIndex": "0x3",
          "removed": false
        }
      ],
      "logsBloom": "0x00000000000000000000010000000000000000000102000000000000000000000000000000000000000000000000000042000000090000002000000000100000000000000000000000010008000000000000000000000000080000000000000000000000000000000005000000000010000000000000000000000010200000000800000000040000000004000000000000000020000000000000400000000000000000200000000400000000000000000000000000000080000000000000000000000002000004000000000000000000000000000000000080000040000000000100200000000000000000000000000000000000000000000080000000000000",
      "type": "0x2",
      "transactionHash": "0xa4a0fd4925109f0ab4a62e4332efe767acb6c3cf7a0392b8476ce5525d767666",
      "transactionIndex": "0x0",
      "blockHash": "0x3c162576c82a5f56b84721387320718d98f9b00af44efcec1c631d8047693000",
      "blockNumber": "0x17b838b",
      "gasUsed": "0x20125",
      "effectiveGasPrice": "0x1ba81c",
      "blobGasPrice": "0x1",
      "from": "0xe3745c151fab59b0740f4312b2b027f07d096639",
      "to": "0x8fa71914948544c60e3379064567dcf0e6564d27",
      "contractAddress": null
    }
  ],
  "libraries": [],
  "pending": [],
  "returns": {},
  "timestamp": 1778506527382,
  "chain": 31337,
  "commit": "59e30a9"
}