{
  "transactions": [
    {
      "hash": "0x337008c074ee20c7f6526a974bd7bd4e14c7f8c15d2c0819d36823d32c67a513",
      "transactionType": "CALL",
      "contractName": null,
      "contractAddress": "0x8fa71914948544c60e3379064567dcf0e6564d27",
      "function": "settle((uint256,address),(uint8,bool,address,uint256,address,uint256,address,uint64,uint64,uint256),(uint8,bytes32,bytes32))",
      "arguments": [
        "(0, 0x1302F142Fc55B165647d3Bd5dec227f569A2A907)",
        "(0, false, 0xA5f104F8f78d5ba9AEC4a383c0927337Fd4E997B, 348, 0xC02aaA39b223FE8D0A0e5C4F27eAD9083C756Cc2, 45000000000000000, 0xa382b0E75C192D9CDF5c084E58b750Cea7761Bd0, 1772300236, 1779874050, 9)",
        "(27, 0x54549b77212e2a92872592b2f583f198e5764891f0978f85f6f005e8683d9f5f, 0x1b902785792ebae6c101443c2f1cac9096fc70bb3203938fd9edb15a42ebd928)"
      ],
      "transaction": {
        "from": "0x1302f142fc55b165647d3bd5dec227f569a2a907",
        "to": "0x8fa71914948544c60e3379064567dcf0e6564d27",
        "gas": "0x2ee7f",
        "value": "0x0",
        "input": "0x3bae3e7900000000000000000000000000000000000000000000000000000000000000000000000000000000000000001302f142fc55b165647d3bd5dec227f569a2a90700000000000000000000000000000000000000000000000000000000000000000000000000000000000000000000000000000000000000000000000000000000000000000000000000000000a5f104f8f78d5ba9aec4a383c0927337fd4e997b000000000000000000000000000000000000000000000000000000000000015c000000000000000000000000c02aaa39b223fe8d0a0e5c4f27ead9083c756cc2000000000000000000000000000000000000000000000000009fdf42f6e48000000000000000000000000000a382b0e75c192d9cdf5c084e58b750cea7761bd00000000000000000000000000000000000000000000000000000000069a327cc000000000000000000000000000000000000000000000000000000006a16b9020000000000000000000000000000000000000000000000000000000000000009000000000000000000000000000000000000000000000000000000000000001b54549b77212e2a92872592b2f583f198e5764891f0978f85f6f005e8683d9f5f1b902785792ebae6c101443c2f1cac9096fc70bb3203938fd9edb15a42ebd928",
        "nonce": "0x3d",
        "chainId": "0x7a69"
      },
      "additionalContracts": [],
      "isFixedGasLimit": false
    }
  ],
  "receipts": [
    {
      "status": "0x1",
      "cumulativeGasUsed": "0x20129",
      "logs": [
        {
          "address": "0xc02aaa39b223fe8d0a0e5c4f27ead9083c756cc2",
          "topics": [
            "0xddf252ad1be2c89b69c2b068fc378daa952ba7f163c4a11628f55a4df523b3ef",
            "0x0000000000000000000000001302f142fc55b165647d3bd5dec227f569a2a907",
            "0x0000000000000000000000001804c8ab1f12e6bbf3894d4083f33e07309d1f38"
          ],
          "data": "0x00000000000000000000000000000000000000000000000000019945ca262000",
          "blockHash": "0x6d2e11b102b207f07d4f149f848d025a91b6c1daa827e32f22b06b7f6717ac0c",
          "blockNumber": "0x17b8370",
          "blockTimestamp": "0x69f50f94",
          "transactionHash": "0x337008c074ee20c7f6526a974bd7bd4e14c7f8c15d2c0819d36823d32c67a513",
          "transactionIndex": "0x0",
          "logIndex": "0x0",
          "removed": false
        },
        {
          "address": "0xc02aaa39b223fe8d0a0e5c4f27ead9083c756cc2",
          "topics": [
            "0xddf252ad1be2c89b69c2b068fc378daa952ba7f163c4a11628f55a4df523b3ef",
            "0x0000000000000000000000001302f142fc55b165647d3bd5dec227f569a2a907",
            "0x000000000000000000000000a382b0e75c192d9cdf5c084e58b750cea7761bd0"
          ],
          "data": "0x000000000000000000000000000000000000000000000000009e45fd2cbe6000",
          "blockHash": "0x6d2e11b102b207f07d4f149f848d025a91b6c1daa827e32f22b06b7f6717ac0c",
          "blockNumber": "0x17b8370",
          "blockTimestamp": "0x69f50f94",
          "transactionHash": "0x337008c074ee20c7f6526a974bd7bd4e14c7f8c15d2c0819d36823d32c67a513",
          "transactionIndex": "0x0",
          "logIndex": "0x1",
          "removed": false
        },
        {
          "address": "0xa5f104f8f78d5ba9aec4a383c0927337fd4e997b",
          "topics": [
            "0xddf252ad1be2c89b69c2b068fc378daa952ba7f163c4a11628f55a4df523b3ef",
            "0x000000000000000000000000a382b0e75c192d9cdf5c084e58b750cea7761bd0",
            "0x0000000000000000000000001302f142fc55b165647d3bd5dec227f569a2a907",
            "0x000000000000000000000000000000000000000000000000000000000000015c"
          ],
          "data": "0x",
          "blockHash": "0x6d2e11b102b207f07d4f149f848d025a91b6c1daa827e32f22b06b7f6717ac0c",
          "blockNumber": "0x17b8370",
          "blockTimestamp": "0x69f50f94",
          "transactionHash": "0x337008c074ee20c7f6526a974bd7bd4e14c7f8c15d2c0819d36823d32c67a513",
          "transactionIndex": "0x0",
          "logIndex": "0x2",
          "removed": false
        },
        {
          "address": "0x8fa71914948544c60e3379064567dcf0e6564d27",
          "topics": [
            "0xc0ac3eb1e8caef05b202043f34de8e3173fab712167584f7a2a9f4c302bd0e9c",
            "0xfd87cee0a4a06b1c953124056d94e749fa2df93cf1ee63d2f900a4a473f8ac07",
            "0x000000000000000000000000a5f104f8f78d5ba9aec4a383c0927337fd4e997b",
            "0x000000000000000000000000000000000000000000000000000000000000015c"
          ],
          "data": "0x000000000000000000000000a382b0e75c192d9cdf5c084e58b750cea7761bd00000000000000000000000001302f142fc55b165647d3bd5dec227f569a2a907000000000000000000000000c02aaa39b223fe8d0a0e5c4f27ead9083c756cc2000000000000000000000000000000000000000000000000009fdf42f6e48000",
          "blockHash": "0x6d2e11b102b207f07d4f149f848d025a91b6c1daa827e32f22b06b7f6717ac0c",
          "blockNumber": "0x17b8370",
          "blockTimestamp": "0x69f50f94",
          "transactionHash": "0x337008c074ee20c7f6526a974bd7bd4e14c7f8c15d2c0819d36823d32c67a513",
          "transactionIndex": "0x0",
          "logIndex": "0x3",
          "removed": false
        }
      ],
      "logsBloom": "0x00000000000000000000010000000000000000000000000000000000000000000000000000000000000000000000000002000000080000000000000000100000000000000000000000010008400000000000000000000000080000000000000000000000000000000001000000000000000000000000040001000010200000000800000000040000000004000000000000100000000000000000000000000000000000200000000400000000200100000000000000000880000000000000000000000002000004000000000200000000000000000000000080800000000000000100200000000000000040000000000000000000100000000000000000010000",
      "type": "0x2",
      "transactionHash": "0x337008c074ee20c7f6526a974bd7bd4e14c7f8c15d2c0819d36823d32c67a513",
      "transactionIndex": "0x0",
      "blockHash": "0x6d2e11b102b207f07d4f149f848d025a91b6c1daa827e32f22b06b7f6717ac0c",
      "blockNumber": "0x17b8370",
      "gasUsed": "0x20129",
      "effectiveGasPrice": "0x1ba81c",
      "blobGasPrice": "0x1",
      "from": "0x1302f142fc55b165647d3bd5dec227f569a2a907",
      "to": "0x8fa71914948544c60e3379064567dcf0e6564d27",
      "contractAddress": null
    }
  ],
  "libraries": [],
  "pending": [],
  "returns": {},
  "timestamp": 1778506495371,
  "chain": 31337,
  "commit": "59e30a9"
}