{
  "transactions": [
    {
      "hash": "0xad05bea9d7fabc6a9b3318e19437537f5ad43d832f1b33aec91e36d0906085b2",
      "transactionType": "CALL",
      "contractName": null,
      "contractAddress": "0x8fa71914948544c60e3379064567dcf0e6564d27",
      "function": "settle((uint256,address),(uint8,bool,address,uint256,address,uint256,address,uint64,uint64,uint256),(uint8,bytes32,bytes32))",
      "arguments": [
        "(0, 0x2c2dbA75492E0C4A1D10B41303167aEC59586C9c)",
        "(0, false, 0xA5f104F8f78d5ba9AEC4a383c0927337Fd4E997B, 272, 0xC02aaA39b223FE8D0A0e5C4F27eAD9083C756Cc2, 33000000000000000, 0x1302F142Fc55B165647d3Bd5dec227f569A2A907, 1773071200, 1779103086, 13)",
        "(28, 0x72a2f92543897a2d57c0107f13a36931f3156cef705472b247a0765ed6aac567, 0x2ca843468af058b99bbce2b58f0c312739a2536e4c60cf2b22b859fdf921bd3e)"
      ],
      "transaction": {
        "from": "0x2c2dba75492e0c4a1d10b41303167aec59586c9c",
        "to": "0x8fa71914948544c60e3379064567dcf0e6564d27",
        "gas": "0x2c4e8",
        "value": "0x0",
        "input": "0x3bae3e7900000000000000000000000000000000000000000000000000000000000000000000000000000000000000002c2dba75492e0c4a1d10b41303167aec59586c9c00000000000000000000000000000000000000000000000000000000000000000000000000000000000000000000000000000000000000000000000000000000000000000000000000000000a5f104f8f78d5ba9aec4a383c0927337fd4e997b0000000000000000000000000000000000000000000000000000000000000110000000000000000000000000c02aaa39b223fe8d0a0e5c4f27ead9083c756cc200000000000000000000000000000000000000000000000000753d533d9680000000000000000000000000001302f142fc55b165647d3bd5dec227f569a2a9070000000000000000000000000000000000000000000000000000000069aeeb60000000000000000000000000000000000000000000000000000000006a0af56e000000000000000000000000000000000000000000000000000000000000000d000000000000000000000000000000000000000000000000000000000000001c72a2f92543897a2d57c0107f13a36931f3156cef705472b247a0765ed6aac5672ca843468af058b99bbce2b58f0c312739a2536e4c60cf2b22b859fdf921bd3e",
        "nonce": "0x37",
        "chainId": "0x7a69"
      },
      "additionalContracts": [],
      "isFixedGasLimit": false
    }
  ],
  "receipts": [
    {
      "status": "0x1",
      "cumulativeGasUsed": "0x2013d",
      "logs": [
        {
          "address": "0xc02aaa39b223fe8d0a0e5c4f27ead9083c756cc2",
          "topics": [
            "0xddf252ad1be2c89b69c2b068fc378daa952ba7f163c4a11628f55a4df523b3ef",
            "0x0000000000000000000000002c2dba75492e0c4a1d10b41303167aec59586c9c",
            "0x0000000000000000000000001804c8ab1f12e6bbf3894d4083f33e07309d1f38"
          ],
          "data": "0x00000000000000000000000000000000000000000000000000012c221cc6a000",
          "blockHash": "0xc66168c960809b2fcccdcb2d79cbfe99c06cb91f8a7b660141a62d687368bb2b",
          "blockNumber": "0x17b838c",
          "blockTimestamp": "0x69fb4c50",
          "transactionHash": "0xad05bea9d7fabc6a9b3318e19437537f5ad43d832f1b33aec91e36d0906085b2",
          "transactionIndex": "0x0",
          "logIndex": "0x0",
          "removed": false
        },
        {
          "address": "0xc02aaa39b223fe8d0a0e5c4f27ead9083c756cc2",
          "topics": [
            "0xddf252ad1be2c89b69c2b068fc378daa952ba7f163c4a11628f55a4df523b3ef",
            "0x0000000000000000000000002c2dba75492e0c4a1d10b41303167aec59586c9c",
            "0x0000000000000000000000001302f142fc55b165647d3bd5dec227f569a2a907"
          ],
          "data": "0x0000000000000000000000000000000000000000000000000074113120cfe000",
          "blockHash": "0xc66168c960809b2fcccdcb2d79cbfe99c06cb91f8a7b660141a62d687368bb2b",
          "blockNumber": "0x17b838c",
          "blockTimestamp": "0x69fb4c50",
          "transactionHash": "0xad05bea9d7fabc6a9b3318e19437537f5ad43d832f1b33aec91e36d0906085b2",
          "transactionIndex": "0x0",
          "logIndex": "0x1",
          "removed": false
        },
        {
          "address": "0xa5f104f8f78d5ba9aec4a383c0927337fd4e997b",
          "topics": [
            "0xddf252ad1be2c89b69c2b068fc378daa952ba7f163c4a11628f55a4df523b3ef",
            "0x0000000000000000000000001302f142fc55b165647d3bd5dec227f569a2a907",
            "0x0000000000000000000000002c2dba75492e0c4a1d10b41303167aec59586c9c",
            "0x0000000000000000000000000000000000000000000000000000000000000110"
          ],
          "data": "0x",
          "blockHash": "0xc66168c960809b2fcccdcb2d79cbfe99c06cb91f8a7b660141a62d687368bb2b",
          "blockNumber": "0x17b838c",
          "blockTimestamp": "0x69fb4c50",
          "transactionHash": "0xad05bea9d7fabc6a9b3318e19437537f5ad43d832f1b33aec91e36d0906085b2",
          "transactionIndex": "0x0",
          "logIndex": "0x2",
          "removed": false
        },
        {
          "address": "0x8fa71914948544c60e3379064567dcf0e6564d27",
          "topics": [
            "0xc0ac3eb1e8caef05b202043f34de8e3173fab712167584f7a2a9f4c302bd0e9c",
            "0xd1a3add482699bfe0d6f27e1324b4c7d4bbedfcd191a4101dac415060233b874",
            "0x000000000000000000000000a5f104f8f78d5ba9aec4a383c0927337fd4e997b",
            "0x0000000000000000000000000000000000000000000000000000000000000110"
          ],
          "data": "0x0000000000000000000000001302f142fc55b165647d3bd5dec227f569a2a9070000000000000000000000002c2dba75492e0c4a1d10b41303167aec59586c9c000000000000000000000000c02aaa39b223fe8d0a0e5c4f27ead9083c756cc200000000000000000000000000000000000000000000000000753d533d968000",
          "blockHash": "0xc66168c960809b2fcccdcb2d79cbfe99c06cb91f8a7b660141a62d687368bb2b",
          "blockNumber": "0x17b838c",
          "blockTimestamp": "0x69fb4c50",
          "transactionHash": "0xad05bea9d7fabc6a9b3318e19437537f5ad43d832f1b33aec91e36d0906085b2",
          "transactionIndex": "0x0",
          "logIndex": "0x3",
          "removed": false
        }
      ],
      "logsBloom": "0x00000000000000000000010000000000000000000000000000000000000000000000000000000000000000000000000002000000080000000000000800100000000200000000000000010008000000000000000000000000080000000000000000100000000004000001000000000000000000000000000000000010200000000800000000040000000004000000000000000000000000000000000000000000000000200000000400000000000100000000000080000080000000000000000000000002000004000000000204040000000000000000000080000000000000000100200000000000000040000000000000000000000000000001000000000000",
      "type": "0x2",
      "transactionHash": "0xad05bea9d7fabc6a9b3318e19437537f5ad43d832f1b33aec91e36d0906085b2",
      "transactionIndex": "0x0",
      "blockHash": "0xc66168c960809b2fcccdcb2d79cbfe99c06cb91f8a7b660141a62d687368bb2b",
      "blockNumber": "0x17b838c",
      "gasUsed": "0x2013d",
      "effectiveGasPrice": "0x1ba81c",
      "blobGasPrice": "0x1",
      "from": "0x2c2dba75492e0c4a1d10b41303167aec59586c9c",
      "to": "0x8fa71914948544c60e3379064567dcf0e6564d27",
      "contractAddress": null
    }
  ],
  "libraries": [],
  "pending": [],
  "returns": {},
  "timestamp": 1778506530176,
  "chain": 31337,
  "commit": "59e30a9"
}