{
  "transactions": [
    {
      "hash": "0xeb49ec6d2ff56d45b97a333cb5885f4b994a5ee718f1b1de2f82db86821322cc",
      "transactionType": "CALL",
      "contractName": null,
      "contractAddress": "0x73973d222c3fda5b2563d269da9e19cb125000f4",
      "function": "settle((uint256,address),(uint8,bool,address,uint256,address,uint256,address,uint64,uint64,uint256),(uint8,bytes32,bytes32))",
      "arguments": [
        "(99, 0x2c2dbA75492E0C4A1D10B41303167aEC59586C9c)",
        "(1, false, 0x38D4dE42C9c5640A2799B372D27B01957E0a3673, 99, 0xC02aaA39b223FE8D0A0e5C4F27eAD9083C756Cc2, 83000000000000000, 0x4b75AeC40561C03e03d4D1C421dF194a3031A134, 1772414050, 1779651588, 3)",
        "(28, 0xeed34064ff758a387d2d99104a308b987e8c89485e1c17e5bad1d28b75a34b3b, 0x1fe4cbf109c929d0610027247fab956d26a3fc2875dcc66681443d5ac1115b9b)"
      ],
      "transaction": {
        "from": "0x2c2dba75492e0c4a1d10b41303167aec59586c9c",
        "to": "0x73973d222c3fda5b2563d269da9e19cb125000f4",
        "gas": "0x2c5dc",
        "value": "0x0",
        "input": "0x3bae3e7900000000000000000000000000000000000000000000000000000000000000630000000000000000000000002c2dba75492e0c4a1d10b41303167aec59586c9c0000000000000000000000000000000000000000000000000000000000000001000000000000000000000000000000000000000000000000000000000000000000000000000000000000000038d4de42c9c5640a2799b372d27b01957e0a36730000000000000000000000000000000000000000000000000000000000000063000000000000000000000000c02aaa39b223fe8d0a0e5c4f27ead9083c756cc20000000000000000000000000000000000000000000000000126e00f6c5b80000000000000000000000000004b75aec40561c03e03d4d1c421df194a3031a1340000000000000000000000000000000000000000000000000000000069a4e462000000000000000000000000000000000000000000000000000000006a1354040000000000000000000000000000000000000000000000000000000000000003000000000000000000000000000000000000000000000000000000000000001ceed34064ff758a387d2d99104a308b987e8c89485e1c17e5bad1d28b75a34b3b1fe4cbf109c929d0610027247fab956d26a3fc2875dcc66681443d5ac1115b9b",
        "nonce": "0x67",
        "chainId": "0x7a69"
      },
      "additionalContracts": [],
      "isFixedGasLimit": false
    }
  ],
  "receipts": [
    {
      "status": "0x1",
      "cumulativeGasUsed": "0x201ee",
      "logs": [
        {
          "address": "0xc02aaa39b223fe8d0a0e5c4f27ead9083c756cc2",
          "topics": [
            "0xddf252ad1be2c89b69c2b068fc378daa952ba7f163c4a11628f55a4df523b3ef",
            "0x0000000000000000000000004b75aec40561c03e03d4d1c421df194a3031a134",
            "0x0000000000000000000000001804c8ab1f12e6bbf3894d4083f33e07309d1f38"
          ],
          "data": "0x0000000000000000000000000000000000000000000000000002f2e16f29e000",
          "blockHash": "0x158ce5a161bab86ff0edd23d16d461fbde044656f64e2995734f8519a6df96d2",
          "blockNumber": "0x17b73a2",
          "blockTimestamp": "0x69e13872",
          "transactionHash": "0xeb49ec6d2ff56d45b97a333cb5885f4b994a5ee718f1b1de2f82db86821322cc",
          "transactionIndex": "0x0",
          "logIndex": "0x0",
          "removed": false
        },
        {
          "address": "0xc02aaa39b223fe8d0a0e5c4f27ead9083c756cc2",
          "topics": [
            "0xddf252ad1be2c89b69c2b068fc378daa952ba7f163c4a11628f55a4df523b3ef",
            "0x0000000000000000000000004b75aec40561c03e03d4d1c421df194a3031a134",
            "0x0000000000000000000000002c2dba75492e0c4a1d10b41303167aec59586c9c"
          ],
          "data": "0x0000000000000000000000000000000000000000000000000123ed2dfd31a000",
          "blockHash": "0x158ce5a161bab86ff0edd23d16d461fbde044656f64e2995734f8519a6df96d2",
          "blockNumber": "0x17b73a2",
          "blockTimestamp": "0x69e13872",
          "transactionHash": "0xeb49ec6d2ff56d45b97a333cb5885f4b994a5ee718f1b1de2f82db86821322cc",
          "transactionIndex": "0x0",
          "logIndex": "0x1",
          "removed": false
        },
        {
          "address": "0x38d4de42c9c5640a2799b372d27b01957e0a3673",
          "topics": [
            "0xddf252ad1be2c89b69c2b068fc378daa952ba7f163c4a11628f55a4df523b3ef",
            "0x0000000000000000000000002c2dba75492e0c4a1d10b41303167aec59586c9c",
            "0x0000000000000000000000004b75aec40561c03e03d4d1c421df194a3031a134",
            "0x0000000000000000000000000000000000000000000000000000000000000063"
          ],
          "data": "0x",
          "blockHash": "0x158ce5a161bab86ff0edd23d16d461fbde044656f64e2995734f8519a6df96d2",
          "blockNumber": "0x17b73a2",
          "blockTimestamp": "0x69e13872",
          "transactionHash": "0xeb49ec6d2ff56d45b97a333cb5885f4b994a5ee718f1b1de2f82db86821322cc",
          "transactionIndex": "0x0",
          "logIndex": "0x2",
          "removed": false
        },
        {
          "address": "0x73973d222c3fda5b2563d269da9e19cb125000f4",
          "topics": [
            "0xc0ac3eb1e8caef05b202043f34de8e3173fab712167584f7a2a9f4c302bd0e9c",
            "0xbbab8b17e1026b3877a33c5c60f8750e199b59ed37efa7cac0a84bc80d90e6b1",
            "0x00000000000000000000000038d4de42c9c5640a2799b372d27b01957e0a3673",
            "0x0000000000000000000000000000000000000000000000000000000000000063"
          ],
          "data": "0x0000000000000000000000002c2dba75492e0c4a1d10b41303167aec59586c9c0000000000000000000000004b75aec40561c03e03d4d1c421df194a3031a134000000000000000000000000c02aaa39b223fe8d0a0e5c4f27ead9083c756cc20000000000000000000000000000000000000000000000000126e00f6c5b8000",
          "blockHash": "0x158ce5a161bab86ff0edd23d16d461fbde044656f64e2995734f8519a6df96d2",
          "blockNumber": "0x17b73a2",
          "blockTimestamp": "0x69e13872",
          "transactionHash": "0xeb49ec6d2ff56d45b97a333cb5885f4b994a5ee718f1b1de2f82db86821322cc",
          "transactionIndex": "0x0",
          "logIndex": "0x3",
          "removed": false
        }
      ],
      "logsBloom": "0x00000000000000000000000000000000000000000002000000000000000000000000000000000000000000000000020002000000080000000004100800100000000200000000001021000008000000000000000000000000000000000000000000000000000004000001000000000004000000000000000000000010000000000000000000000000000004000000000000000000000008000000000000002000400000000000000000000000000400000000000000000080c20000000000000000000002000004000000000000000000000000000000000000000000000000000100200000000000000000000000000002002000000008000000000000000000",
      "type": "0x2",
      "transactionHash": "0xeb49ec6d2ff56d45b97a333cb5885f4b994a5ee718f1b1de2f82db86821322cc",
      "transactionIndex": "0x0",
      "blockHash": "0x158ce5a161bab86ff0edd23d16d461fbde044656f64e2995734f8519a6df96d2",
      "blockNumber": "0x17b73a2",
      "gasUsed": "0x201ee",
      "effectiveGasPrice": "0xf4248",
      "blobGasPrice": "0x1",
      "from": "0x2c2dba75492e0c4a1d10b41303167aec59586c9c",
      "to": "0x73973d222c3fda5b2563d269da9e19cb125000f4",
      "contractAddress": null
    }
  ],
  "libraries": [],
  "pending": [],
  "returns": {},
  "timestamp": 1778453707195,
  "chain": 31337,
  "commit": "f87d399"
}