{
  "transactions": [
    {
      "hash": "0x7a86aaa51556d0ea1f0c78ce1c5f2707fbc9de99f0a11b93c2d9df9b4c963e45",
      "transactionType": "CALL",
      "contractName": null,
      "contractAddress": "0x73973d222c3fda5b2563d269da9e19cb125000f4",
      "function": "settle((uint256,address),(uint8,bool,address,uint256,address,uint256,address,uint64,uint64,uint256),(uint8,bytes32,bytes32))",
      "arguments": [
        "(190, 0x1302F142Fc55B165647d3Bd5dec227f569A2A907)",
        "(1, false, 0x38D4dE42C9c5640A2799B372D27B01957E0a3673, 190, 0xC02aaA39b223FE8D0A0e5C4F27eAD9083C756Cc2, 385000000000000000, 0xE233420d38D286C2F2Cf8dEe6564F132FBDB09DB, 1772055625, 1780010013, 2)",
        "(28, 0xdeb2bf681f2f42bb8e87cf9a8ae16c2a5e99c3983c5fb8641ad9962e7107da48, 0x34efa99f7d2ea830e54b57ef8b208506ce61a5b2d57132b011f3d685f8a47bed)"
      ],
      "transaction": {
        "from": "0x1302f142fc55b165647d3bd5dec227f569a2a907",
        "to": "0x73973d222c3fda5b2563d269da9e19cb125000f4",
        "gas": "0x2efb0",
        "value": "0x0",
        "input": "0x3bae3e7900000000000000000000000000000000000000000000000000000000000000be0000000000000000000000001302f142fc55b165647d3bd5dec227f569a2a9070000000000000000000000000000000000000000000000000000000000000001000000000000000000000000000000000000000000000000000000000000000000000000000000000000000038d4de42c9c5640a2799b372d27b01957e0a367300000000000000000000000000000000000000000000000000000000000000be000000000000000000000000c02aaa39b223fe8d0a0e5c4f27ead9083c756cc20000000000000000000000000000000000000000000000000557cb75ce868000000000000000000000000000e233420d38d286c2f2cf8dee6564f132fbdb09db00000000000000000000000000000000000000000000000000000000699f6c49000000000000000000000000000000000000000000000000000000006a18cc1d0000000000000000000000000000000000000000000000000000000000000002000000000000000000000000000000000000000000000000000000000000001cdeb2bf681f2f42bb8e87cf9a8ae16c2a5e99c3983c5fb8641ad9962e7107da4834efa99f7d2ea830e54b57ef8b208506ce61a5b2d57132b011f3d685f8a47bed",
        "nonce": "0x6d",
        "chainId": "0x7a69"
      },
      "additionalContracts": [],
      "isFixedGasLimit": false
    }
  ],
  "receipts": [
    {
      "status": "0x1",
      "cumulativeGasUsed": "0x201fa",
      "logs": [
        {
          "address": "0xc02aaa39b223fe8d0a0e5c4f27ead9083c756cc2",
          "topics": [
            "0xddf252ad1be2c89b69c2b068fc378daa952ba7f163c4a11628f55a4df523b3ef",
            "0x000000000000000000000000e233420d38d286c2f2cf8dee6564f132fbdb09db",
            "0x0000000000000000000000001804c8ab1f12e6bbf3894d4083f33e07309d1f38"
          ],
          "data": "0x000000000000000000000000000000000000000000000000000dad8dfa62a000",
          "blockHash": "0x31b074b8837ecbb7e7489bbb9854727acd339a3ccb24eb20317d47c208a7b22d",
          "blockNumber": "0x17b73a9",
          "blockTimestamp": "0x69e289f3",
          "transactionHash": "0x7a86aaa51556d0ea1f0c78ce1c5f2707fbc9de99f0a11b93c2d9df9b4c963e45",
          "transactionIndex": "0x0",
          "logIndex": "0x0",
          "removed": false
        },
        {
          "address": "0xc02aaa39b223fe8d0a0e5c4f27ead9083c756cc2",
          "topics": [
            "0xddf252ad1be2c89b69c2b068fc378daa952ba7f163c4a11628f55a4df523b3ef",
            "0x000000000000000000000000e233420d38d286c2f2cf8dee6564f132fbdb09db",
            "0x0000000000000000000000001302f142fc55b165647d3bd5dec227f569a2a907"
          ],
          "data": "0x000000000000000000000000000000000000000000000000054a1de7d423e000",
          "blockHash": "0x31b074b8837ecbb7e7489bbb9854727acd339a3ccb24eb20317d47c208a7b22d",
          "blockNumber": "0x17b73a9",
          "blockTimestamp": "0x69e289f3",
          "transactionHash": "0x7a86aaa51556d0ea1f0c78ce1c5f2707fbc9de99f0a11b93c2d9df9b4c963e45",
          "transactionIndex": "0x0",
          "logIndex": "0x1",
          "removed": false
        },
        {
          "address": "0x38d4de42c9c5640a2799b372d27b01957e0a3673",
          "topics": [
            "0xddf252ad1be2c89b69c2b068fc378daa952ba7f163c4a11628f55a4df523b3ef",
            "0x0000000000000000000000001302f142fc55b165647d3bd5dec227f569a2a907",
            "0x000000000000000000000000e233420d38d286c2f2cf8dee6564f132fbdb09db",
            "0x00000000000000000000000000000000000000000000000000000000000000be"
          ],
          "data": "0x",
          "blockHash": "0x31b074b8837ecbb7e7489bbb9854727acd339a3ccb24eb20317d47c208a7b22d",
          "blockNumber": "0x17b73a9",
          "blockTimestamp": "0x69e289f3",
          "transactionHash": "0x7a86aaa51556d0ea1f0c78ce1c5f2707fbc9de99f0a11b93c2d9df9b4c963e45",
          "transactionIndex": "0x0",
          "logIndex": "0x2",
          "removed": false
        },
        {
          "address": "0x73973d222c3fda5b2563d269da9e19cb125000f4",
          "topics": [
            "0xc0ac3eb1e8caef05b202043f34de8e3173fab712167584f7a2a9f4c302bd0e9c",
            "0xb39c8231bc291367bbafdbbc09770716115b0cfe1007d6fd35f2957edd67b15c",
            "0x00000000000000000000000038d4de42c9c5640a2799b372d27b01957e0a3673",
            "0x00000000000000000000000000000000000000000000000000000000000000be"
          ],
          "data": "0x0000000000000000000000001302f142fc55b165647d3bd5dec227f569a2a907000000000000000000000000e233420d38d286c2f2cf8dee6564f132fbdb09db000000000000000000000000c02aaa39b223fe8d0a0e5c4f27ead9083c756cc20000000000000000000000000000000000000000000000000557cb75ce868000",
          "blockHash": "0x31b074b8837ecbb7e7489bbb9854727acd339a3ccb24eb20317d47c208a7b22d",
          "blockNumber": "0x17b73a9",
          "blockTimestamp": "0x69e289f3",
          "transactionHash": "0x7a86aaa51556d0ea1f0c78ce1c5f2707fbc9de99f0a11b93c2d9df9b4c963e45",
          "transactionIndex": "0x0",
          "logIndex": "0x3",
          "removed": false
        }
      ],
      "logsBloom": "0x00000000000000000002000000000000000000000002000000000000000000000000000000000000000000000000020002000000080000000004100000100000000000000000001021000008000000000000000000000000000000000000000000000001000000000001000000000000000000000000000000000010000000000000000200000000000014000000000000000000000008000000000000000000000000000000000000000000000100000000000000010080400000000000000000000012000004000000000200000000000000000002000000000000000000000100200000000000000044000000000400000000000000000000000000000000",
      "type": "0x2",
      "transactionHash": "0x7a86aaa51556d0ea1f0c78ce1c5f2707fbc9de99f0a11b93c2d9df9b4c963e45",
      "transactionIndex": "0x0",
      "blockHash": "0x31b074b8837ecbb7e7489bbb9854727acd339a3ccb24eb20317d47c208a7b22d",
      "blockNumber": "0x17b73a9",
      "gasUsed": "0x201fa",
      "effectiveGasPrice": "0xf4248",
      "blobGasPrice": "0x1",
      "from": "0x1302f142fc55b165647d3bd5dec227f569a2a907",
      "to": "0x73973d222c3fda5b2563d269da9e19cb125000f4",
      "contractAddress": null
    }
  ],
  "libraries": [],
  "pending": [],
  "returns": {},
  "timestamp": 1778453713801,
  "chain": 31337,
  "commit": "f87d399"
}