{
  "transactions": [
    {
      "hash": "0xad6a0f7bf638965d4480d4b7d48deffae441938a3e305eb98ac9398022f2be2f",
      "transactionType": "CALL",
      "contractName": null,
      "contractAddress": "0x8fa71914948544c60e3379064567dcf0e6564d27",
      "function": "settle((uint256,address),(uint8,bool,address,uint256,address,uint256,address,uint64,uint64,uint256),(uint8,bytes32,bytes32))",
      "arguments": [
        "(0, 0xcbe5659df21Cbcfabe4da962F7a9081F26B3ed82)",
        "(0, false, 0xA5f104F8f78d5ba9AEC4a383c0927337Fd4E997B, 192, 0xC02aaA39b223FE8D0A0e5C4F27eAD9083C756Cc2, 46000000000000000, 0xa382b0E75C192D9CDF5c084E58b750Cea7761Bd0, 1773435204, 1778739082, 7)",
        "(27, 0xf95c4930ae970f0b2114237fa9fbac281f88d360d4e66cb588a030d824e3280f, 0x15e8a4bcb3c7fecc47403235703b6606310490984e48352f4da6011a4242c3fe)"
      ],
      "transaction": {
        "from": "0xcbe5659df21cbcfabe4da962f7a9081f26b3ed82",
        "to": "0x8fa71914948544c60e3379064567dcf0e6564d27",
        "gas": "0x2ee5b",
        "value": "0x0",
        "input": "0x3bae3e790000000000000000000000000000000000000000000000000000000000000000000000000000000000000000cbe5659df21cbcfabe4da962f7a9081f26b3ed8200000000000000000000000000000000000000000000000000000000000000000000000000000000000000000000000000000000000000000000000000000000000000000000000000000000a5f104f8f78d5ba9aec4a383c0927337fd4e997b00000000000000000000000000000000000000000000000000000000000000c0000000000000000000000000c02aaa39b223fe8d0a0e5c4f27ead9083c756cc200000000000000000000000000000000000000000000000000a36cc19bab0000000000000000000000000000a382b0e75c192d9cdf5c084e58b750cea7761bd00000000000000000000000000000000000000000000000000000000069b47944000000000000000000000000000000000000000000000000000000006a05678a0000000000000000000000000000000000000000000000000000000000000007000000000000000000000000000000000000000000000000000000000000001bf95c4930ae970f0b2114237fa9fbac281f88d360d4e66cb588a030d824e3280f15e8a4bcb3c7fecc47403235703b6606310490984e48352f4da6011a4242c3fe",
        "nonce": "0x40",
        "chainId": "0x7a69"
      },
      "additionalContracts": [],
      "isFixedGasLimit": false
    }
  ],
  "receipts": [
    {
      "status": "0x1",
      "cumulativeGasUsed": "0x20111",
      "logs": [
        {
          "address": "0xc02aaa39b223fe8d0a0e5c4f27ead9083c756cc2",
          "topics": [
            "0xddf252ad1be2c89b69c2b068fc378daa952ba7f163c4a11628f55a4df523b3ef",
            "0x000000000000000000000000cbe5659df21cbcfabe4da962f7a9081f26b3ed82",
            "0x0000000000000000000000001804c8ab1f12e6bbf3894d4083f33e07309d1f38"
          ],
          "data": "0x0000000000000000000000000000000000000000000000000001a25e1898c000",
          "blockHash": "0x729169b90e8a351ff564ca7f2e558f5ad20d5d5917d05c7b83f4fde349a97e5e",
          "blockNumber": "0x17b8357",
          "blockTimestamp": "0x69efd134",
          "transactionHash": "0xad6a0f7bf638965d4480d4b7d48deffae441938a3e305eb98ac9398022f2be2f",
          "transactionIndex": "0x0",
          "logIndex": "0x0",
          "removed": false
        },
        {
          "address": "0xc02aaa39b223fe8d0a0e5c4f27ead9083c756cc2",
          "topics": [
            "0xddf252ad1be2c89b69c2b068fc378daa952ba7f163c4a11628f55a4df523b3ef",
            "0x000000000000000000000000cbe5659df21cbcfabe4da962f7a9081f26b3ed82",
            "0x000000000000000000000000a382b0e75c192d9cdf5c084e58b750cea7761bd0"
          ],
          "data": "0x00000000000000000000000000000000000000000000000000a1ca6383124000",
          "blockHash": "0x729169b90e8a351ff564ca7f2e558f5ad20d5d5917d05c7b83f4fde349a97e5e",
          "blockNumber": "0x17b8357",
          "blockTimestamp": "0x69efd134",
          "transactionHash": "0xad6a0f7bf638965d4480d4b7d48deffae441938a3e305eb98ac9398022f2be2f",
          "transactionIndex": "0x0",
          "logIndex": "0x1",
          "removed": false
        },
        {
          "address": "0xa5f104f8f78d5ba9aec4a383c0927337fd4e997b",
          "topics": [
            "0xddf252ad1be2c89b69c2b068fc378daa952ba7f163c4a11628f55a4df523b3ef",
            "0x000000000000000000000000a382b0e75c192d9cdf5c084e58b750cea7761bd0",
            "0x000000000000000000000000cbe5659df21cbcfabe4da962f7a9081f26b3ed82",
            "0x00000000000000000000000000000000000000000000000000000000000000c0"
          ],
          "data": "0x",
          "blockHash": "0x729169b90e8a351ff564ca7f2e558f5ad20d5d5917d05c7b83f4fde349a97e5e",
          "blockNumber": "0x17b8357",
          "blockTimestamp": "0x69efd134",
          "transactionHash": "0xad6a0f7bf638965d4480d4b7d48deffae441938a3e305eb98ac9398022f2be2f",
          "transactionIndex": "0x0",
          "logIndex": "0x2",
          "removed": false
        },
        {
          "address": "0x8fa71914948544c60e3379064567dcf0e6564d27",
          "topics": [
            "0xc0ac3eb1e8caef05b202043f34de8e3173fab712167584f7a2a9f4c302bd0e9c",
            "0x6f4fd5c59285b7f863e272305cd6ec983f343d92c4da2b0e7391d0c6aa9d1930",
            "0x000000000000000000000000a5f104f8f78d5ba9aec4a383c0927337fd4e997b",
            "0x00000000000000000000000000000000000000000000000000000000000000c0"
          ],
          "data": "0x000000000000000000000000a382b0e75c192d9cdf5c084e58b750cea7761bd0000000000000000000000000cbe5659df21cbcfabe4da962f7a9081f26b3ed82000000000000000000000000c02aaa39b223fe8d0a0e5c4f27ead9083c756cc200000000000000000000000000000000000000000000000000a36cc19bab0000",
          "blockHash": "0x729169b90e8a351ff564ca7f2e558f5ad20d5d5917d05c7b83f4fde349a97e5e",
          "blockNumber": "0x17b8357",
          "blockTimestamp": "0x69efd134",
          "transactionHash": "0xad6a0f7bf638965d4480d4b7d48deffae441938a3e305eb98ac9398022f2be2f",
          "transactionIndex": "0x0",
          "logIndex": "0x3",
          "removed": false
        }
      ],
      "logsBloom": "0x00000000000000000000010000000000000000000000000000000000000000000000000000000000000002000000000002000000080000000000020000100000000000000000000000010008000000000000000000000000080000000000000000000000000000000001000000000000000000000000040000000010200000400800000000040000000004000000010000100000000000000000000000001000000000200000000400000000000000000000000000000080000000000000000000000002000004000400000000000000000000000000020080000000000000000100200000000000008000000000000000000000104000000000000000000000",
      "type": "0x2",
      "transactionHash": "0xad6a0f7bf638965d4480d4b7d48deffae441938a3e305eb98ac9398022f2be2f",
      "transactionIndex": "0x0",
      "blockHash": "0x729169b90e8a351ff564ca7f2e558f5ad20d5d5917d05c7b83f4fde349a97e5e",
      "blockNumber": "0x17b8357",
      "gasUsed": "0x20111",
      "effectiveGasPrice": "0x1ba81c",
      "blobGasPrice": "0x1",
      "from": "0xcbe5659df21cbcfabe4da962f7a9081f26b3ed82",
      "to": "0x8fa71914948544c60e3379064567dcf0e6564d27",
      "contractAddress": null
    }
  ],
  "libraries": [],
  "pending": [],
  "returns": {},
  "timestamp": 1778506472293,
  "chain": 31337,
  "commit": "59e30a9"
}