{
  "transactions": [
    {
      "hash": "0xb327676779a1557ee8de2fa03b4d12913cdb6eb71f7551151c37a8300766716f",
      "transactionType": "CALL",
      "contractName": null,
      "contractAddress": "0x8fa71914948544c60e3379064567dcf0e6564d27",
      "function": "settle((uint256,address),(uint8,bool,address,uint256,address,uint256,address,uint64,uint64,uint256),(uint8,bytes32,bytes32))",
      "arguments": [
        "(347, 0x646dC5Fc4009C4C84a424B6aE0f494b374bAE1Ce)",
        "(1, false, 0xA5f104F8f78d5ba9AEC4a383c0927337Fd4E997B, 347, 0xC02aaA39b223FE8D0A0e5C4F27eAD9083C756Cc2, 32000000000000000, 0xe3745C151faB59B0740f4312b2B027F07D096639, 1773452366, 1778610896, 4)",
        "(27, 0x79d65b4c4141dc6e2c53c1c3586e8dba284774a7f46a5576b0000df3f5f32a87, 0x3c0a669bf8d824476e0e50eccfee66fda5b6392242ed9039889e31b4c2f209f8)"
      ],
      "transaction": {
        "from": "0x646dc5fc4009c4c84a424b6ae0f494b374bae1ce",
        "to": "0x8fa71914948544c60e3379064567dcf0e6564d27",
        "gas": "0x2ef81",
        "value": "0x0",
        "input": "0x3bae3e79000000000000000000000000000000000000000000000000000000000000015b000000000000000000000000646dc5fc4009c4c84a424b6ae0f494b374bae1ce00000000000000000000000000000000000000000000000000000000000000010000000000000000000000000000000000000000000000000000000000000000000000000000000000000000a5f104f8f78d5ba9aec4a383c0927337fd4e997b000000000000000000000000000000000000000000000000000000000000015b000000000000000000000000c02aaa39b223fe8d0a0e5c4f27ead9083c756cc20000000000000000000000000000000000000000000000000071afd498d00000000000000000000000000000e3745c151fab59b0740f4312b2b027f07d0966390000000000000000000000000000000000000000000000000000000069b4bc4e000000000000000000000000000000000000000000000000000000006a0372d00000000000000000000000000000000000000000000000000000000000000004000000000000000000000000000000000000000000000000000000000000001b79d65b4c4141dc6e2c53c1c3586e8dba284774a7f46a5576b0000df3f5f32a873c0a669bf8d824476e0e50eccfee66fda5b6392242ed9039889e31b4c2f209f8",
        "nonce": "0x3f",
        "chainId": "0x7a69"
      },
      "additionalContracts": [],
      "isFixedGasLimit": false
    }
  ],
  "receipts": [
    {
      "status": "0x1",
      "cumulativeGasUsed": "0x201da",
      "logs": [
        {
          "address": "0xc02aaa39b223fe8d0a0e5c4f27ead9083c756cc2",
          "topics": [
            "0xddf252ad1be2c89b69c2b068fc378daa952ba7f163c4a11628f55a4df523b3ef",
            "0x000000000000000000000000e3745c151fab59b0740f4312b2b027f07d096639",
            "0x0000000000000000000000001804c8ab1f12e6bbf3894d4083f33e07309d1f38"
          ],
          "data": "0x00000000000000000000000000000000000000000000000000012309ce540000",
          "blockHash": "0x1919ebe26fce8394aeeb8348dbb457aeff46f9736d1e75465ea32170622a7583",
          "blockNumber": "0x17b7114",
          "blockTimestamp": "0x69dd1e42",
          "transactionHash": "0xb327676779a1557ee8de2fa03b4d12913cdb6eb71f7551151c37a8300766716f",
          "transactionIndex": "0x0",
          "logIndex": "0x0",
          "removed": false
        },
        {
          "address": "0xc02aaa39b223fe8d0a0e5c4f27ead9083c756cc2",
          "topics": [
            "0xddf252ad1be2c89b69c2b068fc378daa952ba7f163c4a11628f55a4df523b3ef",
            "0x000000000000000000000000e3745c151fab59b0740f4312b2b027f07d096639",
            "0x000000000000000000000000646dc5fc4009c4c84a424b6ae0f494b374bae1ce"
          ],
          "data": "0x00000000000000000000000000000000000000000000000000708ccaca7c0000",
          "blockHash": "0x1919ebe26fce8394aeeb8348dbb457aeff46f9736d1e75465ea32170622a7583",
          "blockNumber": "0x17b7114",
          "blockTimestamp": "0x69dd1e42",
          "transactionHash": "0xb327676779a1557ee8de2fa03b4d12913cdb6eb71f7551151c37a8300766716f",
          "transactionIndex": "0x0",
          "logIndex": "0x1",
          "removed": false
        },
        {
          "address": "0xa5f104f8f78d5ba9aec4a383c0927337fd4e997b",
          "topics": [
            "0xddf252ad1be2c89b69c2b068fc378daa952ba7f163c4a11628f55a4df523b3ef",
            "0x000000000000000000000000646dc5fc4009c4c84a424b6ae0f494b374bae1ce",
            "0x000000000000000000000000e3745c151fab59b0740f4312b2b027f07d096639",
            "0x000000000000000000000000000000000000000000000000000000000000015b"
          ],
          "data": "0x",
          "blockHash": "0x1919ebe26fce8394aeeb8348dbb457aeff46f9736d1e75465ea32170622a7583",
          "blockNumber": "0x17b7114",
          "blockTimestamp": "0x69dd1e42",
          "transactionHash": "0xb327676779a1557ee8de2fa03b4d12913cdb6eb71f7551151c37a8300766716f",
          "transactionIndex": "0x0",
          "logIndex": "0x2",
          "removed": false
        },
        {
          "address": "0x8fa71914948544c60e3379064567dcf0e6564d27",
          "topics": [
            "0xc0ac3eb1e8caef05b202043f34de8e3173fab712167584f7a2a9f4c302bd0e9c",
            "0x32a97ccf26ebfbc508099de9ef912fcdad0297ab14a072952600510b7342e62e",
            "0x000000000000000000000000a5f104f8f78d5ba9aec4a383c0927337fd4e997b",
            "0x000000000000000000000000000000000000000000000000000000000000015b"
          ],
          "data": "0x000000000000000000000000646dc5fc4009c4c84a424b6ae0f494b374bae1ce000000000000000000000000e3745c151fab59b0740f4312b2b027f07d096639000000000000000000000000c02aaa39b223fe8d0a0e5c4f27ead9083c756cc20000000000000000000000000000000000000000000000000071afd498d00000",
          "blockHash": "0x1919ebe26fce8394aeeb8348dbb457aeff46f9736d1e75465ea32170622a7583",
          "blockNumber": "0x17b7114",
          "blockTimestamp": "0x69dd1e42",
          "transactionHash": "0xb327676779a1557ee8de2fa03b4d12913cdb6eb71f7551151c37a8300766716f",
          "transactionIndex": "0x0",
          "logIndex": "0x3",
          "removed": false
        }
      ],
      "logsBloom": "0x00000000000000000000010000000000000000000102000000000000000000000000000000000000000000000000000042000000090000000000000000100000000080000000000000010008000000000000000000000000080000000000000000000000000000400005000020000000000000000000000000000010200000000800000000040000000004000000000000000000000000000000001000000000000000200000000400000000000000000000000000000080000000000000800000000002000004000000000000000000000000000000000080000048000000000100200000000000000000000000000000000000000000000000000000000000",
      "type": "0x2",
      "transactionHash": "0xb327676779a1557ee8de2fa03b4d12913cdb6eb71f7551151c37a8300766716f",
      "transactionIndex": "0x0",
      "blockHash": "0x1919ebe26fce8394aeeb8348dbb457aeff46f9736d1e75465ea32170622a7583",
      "blockNumber": "0x17b7114",
      "gasUsed": "0x201da",
      "effectiveGasPrice": "0x154c2b",
      "blobGasPrice": "0x1",
      "from": "0x646dc5fc4009c4c84a424b6ae0f494b374bae1ce",
      "to": "0x8fa71914948544c60e3379064567dcf0e6564d27",
      "contractAddress": null
    }
  ],
  "libraries": [],
  "pending": [],
  "returns": {},
  "timestamp": 1778450900128,
  "chain": 31337,
  "commit": "f87d399"
}