{
  "transactions": [
    {
      "hash": "0x8b5a33c5f4c385952f57b02ed0ab87f4a876b5db129ecfffdd52d5403ca1cad4",
      "transactionType": "CALL",
      "contractName": null,
      "contractAddress": "0x73973d222c3fda5b2563d269da9e19cb125000f4",
      "function": "settle((uint256,address),(uint8,bool,address,uint256,address,uint256,address,uint64,uint64,uint256),(uint8,bytes32,bytes32))",
      "arguments": [
        "(245, 0x2c2dbA75492E0C4A1D10B41303167aEC59586C9c)",
        "(1, false, 0x38D4dE42C9c5640A2799B372D27B01957E0a3673, 245, 0xC02aaA39b223FE8D0A0e5C4F27eAD9083C756Cc2, 175000000000000000, 0x1302F142Fc55B165647d3Bd5dec227f569A2A907, 1773310238, 1778755400, 8)",
        "(28, 0x15fcf59ffcae11e73133e0360a082c37230e86c55d33fae1f94a81c78d26f600, 0x0ad8175cf43a2ed703c19fefaedcff0920068b0c05204a1d6444e4df752be42e)"
      ],
      "transaction": {
        "from": "0x2c2dba75492e0c4a1d10b41303167aec59586c9c",
        "to": "0x73973d222c3fda5b2563d269da9e19cb125000f4",
        "gas": "0x2c5dc",
        "value": "0x0",
        "input": "0x3bae3e7900000000000000000000000000000000000000000000000000000000000000f50000000000000000000000002c2dba75492e0c4a1d10b41303167aec59586c9c0000000000000000000000000000000000000000000000000000000000000001000000000000000000000000000000000000000000000000000000000000000000000000000000000000000038d4de42c9c5640a2799b372d27b01957e0a367300000000000000000000000000000000000000000000000000000000000000f5000000000000000000000000c02aaa39b223fe8d0a0e5c4f27ead9083c756cc2000000000000000000000000000000000000000000000000026db992a3b180000000000000000000000000001302f142fc55b165647d3bd5dec227f569a2a9070000000000000000000000000000000000000000000000000000000069b2911e000000000000000000000000000000000000000000000000000000006a05a7480000000000000000000000000000000000000000000000000000000000000008000000000000000000000000000000000000000000000000000000000000001c15fcf59ffcae11e73133e0360a082c37230e86c55d33fae1f94a81c78d26f6000ad8175cf43a2ed703c19fefaedcff0920068b0c05204a1d6444e4df752be42e",
        "nonce": "0x62",
        "chainId": "0x7a69"
      },
      "additionalContracts": [],
      "isFixedGasLimit": false
    }
  ],
  "receipts": [
    {
      "status": "0x1",
      "cumulativeGasUsed": "0x201ee",
      "logs": [
        {
          "address": "0xc02aaa39b223fe8d0a0e5c4f27ead9083c756cc2",
          "topics": [
            "0xddf252ad1be2c89b69c2b068fc378daa952ba7f163c4a11628f55a4df523b3ef",
            "0x0000000000000000000000001302f142fc55b165647d3bd5dec227f569a2a907",
            "0x0000000000000000000000001804c8ab1f12e6bbf3894d4083f33e07309d1f38"
          ],
          "data": "0x0000000000000000000000000000000000000000000000000006379da05b6000",
          "blockHash": "0xa7f5627e6a5b5ea3119ebfd42358c919c8a6c5b7c90bf094c638df92f73335af",
          "blockNumber": "0x17b738c",
          "blockTimestamp": "0x69dd13bd",
          "transactionHash": "0x8b5a33c5f4c385952f57b02ed0ab87f4a876b5db129ecfffdd52d5403ca1cad4",
          "transactionIndex": "0x0",
          "logIndex": "0x0",
          "removed": false
        },
        {
          "address": "0xc02aaa39b223fe8d0a0e5c4f27ead9083c756cc2",
          "topics": [
            "0xddf252ad1be2c89b69c2b068fc378daa952ba7f163c4a11628f55a4df523b3ef",
            "0x0000000000000000000000001302f142fc55b165647d3bd5dec227f569a2a907",
            "0x0000000000000000000000002c2dba75492e0c4a1d10b41303167aec59586c9c"
          ],
          "data": "0x000000000000000000000000000000000000000000000000026781f503562000",
          "blockHash": "0xa7f5627e6a5b5ea3119ebfd42358c919c8a6c5b7c90bf094c638df92f73335af",
          "blockNumber": "0x17b738c",
          "blockTimestamp": "0x69dd13bd",
          "transactionHash": "0x8b5a33c5f4c385952f57b02ed0ab87f4a876b5db129ecfffdd52d5403ca1cad4",
          "transactionIndex": "0x0",
          "logIndex": "0x1",
          "removed": false
        },
        {
          "address": "0x38d4de42c9c5640a2799b372d27b01957e0a3673",
          "topics": [
            "0xddf252ad1be2c89b69c2b068fc378daa952ba7f163c4a11628f55a4df523b3ef",
            "0x0000000000000000000000002c2dba75492e0c4a1d10b41303167aec59586c9c",
            "0x0000000000000000000000001302f142fc55b165647d3bd5dec227f569a2a907",
            "0x00000000000000000000000000000000000000000000000000000000000000f5"
          ],
          "data": "0x",
          "blockHash": "0xa7f5627e6a5b5ea3119ebfd42358c919c8a6c5b7c90bf094c638df92f73335af",
          "blockNumber": "0x17b738c",
          "blockTimestamp": "0x69dd13bd",
          "transactionHash": "0x8b5a33c5f4c385952f57b02ed0ab87f4a876b5db129ecfffdd52d5403ca1cad4",
          "transactionIndex": "0x0",
          "logIndex": "0x2",
          "removed": false
        },
        {
          "address": "0x73973d222c3fda5b2563d269da9e19cb125000f4",
          "topics": [
            "0xc0ac3eb1e8caef05b202043f34de8e3173fab712167584f7a2a9f4c302bd0e9c",
            "0xee045f7203cec6153c4689a302db8ec4e3e4b0b12953fd35ad3fdc2f326af5bb",
            "0x00000000000000000000000038d4de42c9c5640a2799b372d27b01957e0a3673",
            "0x00000000000000000000000000000000000000000000000000000000000000f5"
          ],
          "data": "0x0000000000000000000000002c2dba75492e0c4a1d10b41303167aec59586c9c0000000000000000000000001302f142fc55b165647d3bd5dec227f569a2a907000000000000000000000000c02aaa39b223fe8d0a0e5c4f27ead9083c756cc2000000000000000000000000000000000000000000000000026db992a3b18000",
          "blockHash": "0xa7f5627e6a5b5ea3119ebfd42358c919c8a6c5b7c90bf094c638df92f73335af",
          "blockNumber": "0x17b738c",
          "blockTimestamp": "0x69dd13bd",
          "transactionHash": "0x8b5a33c5f4c385952f57b02ed0ab87f4a876b5db129ecfffdd52d5403ca1cad4",
          "transactionIndex": "0x0",
          "logIndex": "0x3",
          "removed": false
        }
      ],
      "logsBloom": "0x00000000000000000001000200000000000000000002000000000000000000004000000000000000000000000000020002000000081000000004100800100000000200000000001021000008000000000000000000000000000000000000000000000000000004000001000000100000000000000000000000000010000000000000000000000000000004000000000000000000000008000000000000000000000000000000000000000000000100000000000000000080400000000000000000000002000004000000000200000000000000080000000000000000000000000100200000000000000040000000000000000000000000000000000000000000",
      "type": "0x2",
      "transactionHash": "0x8b5a33c5f4c385952f57b02ed0ab87f4a876b5db129ecfffdd52d5403ca1cad4",
      "transactionIndex": "0x0",
      "blockHash": "0xa7f5627e6a5b5ea3119ebfd42358c919c8a6c5b7c90bf094c638df92f73335af",
      "blockNumber": "0x17b738c",
      "gasUsed": "0x201ee",
      "effectiveGasPrice": "0xf4248",
      "blobGasPrice": "0x1",
      "from": "0x2c2dba75492e0c4a1d10b41303167aec59586c9c",
      "to": "0x73973d222c3fda5b2563d269da9e19cb125000f4",
      "contractAddress": null
    }
  ],
  "libraries": [],
  "pending": [],
  "returns": {},
  "timestamp": 1778453687633,
  "chain": 31337,
  "commit": "f87d399"
}