{
  "transactions": [
    {
      "hash": "0x63d4f3e15af7549f52786aae40965a62529080c78acb4b47346422029beb5eaf",
      "transactionType": "CALL",
      "contractName": null,
      "contractAddress": "0x8fa71914948544c60e3379064567dcf0e6564d27",
      "function": "settle((uint256,address),(uint8,bool,address,uint256,address,uint256,address,uint64,uint64,uint256),(uint8,bytes32,bytes32))",
      "arguments": [
        "(473, 0xe3745C151faB59B0740f4312b2B027F07D096639)",
        "(1, false, 0xA5f104F8f78d5ba9AEC4a383c0927337Fd4E997B, 473, 0xC02aaA39b223FE8D0A0e5C4F27eAD9083C756Cc2, 80000000000000000, 0xcbe5659df21Cbcfabe4da962F7a9081F26B3ed82, 1772203557, 1779970729, 18)",
        "(27, 0x605b9d12ee2e2c88001f65781eda32fbf809b8435633b8f7c2231fa09cee23d1, 0x2871636a6d31ec42d78a93ff4ba94072f1afab802d587a778358ddc245e15f97)"
      ],
      "transaction": {
        "from": "0xe3745c151fab59b0740f4312b2b027f07d096639",
        "to": "0x8fa71914948544c60e3379064567dcf0e6564d27",
        "gas": "0x2c5d2",
        "value": "0x0",
        "input": "0x3bae3e7900000000000000000000000000000000000000000000000000000000000001d9000000000000000000000000e3745c151fab59b0740f4312b2b027f07d09663900000000000000000000000000000000000000000000000000000000000000010000000000000000000000000000000000000000000000000000000000000000000000000000000000000000a5f104f8f78d5ba9aec4a383c0927337fd4e997b00000000000000000000000000000000000000000000000000000000000001d9000000000000000000000000c02aaa39b223fe8d0a0e5c4f27ead9083c756cc2000000000000000000000000000000000000000000000000011c37937e080000000000000000000000000000cbe5659df21cbcfabe4da962f7a9081f26b3ed820000000000000000000000000000000000000000000000000000000069a1ae25000000000000000000000000000000000000000000000000000000006a1832a90000000000000000000000000000000000000000000000000000000000000012000000000000000000000000000000000000000000000000000000000000001b605b9d12ee2e2c88001f65781eda32fbf809b8435633b8f7c2231fa09cee23d12871636a6d31ec42d78a93ff4ba94072f1afab802d587a778358ddc245e15f97",
        "nonce": "0x52",
        "chainId": "0x7a69"
      },
      "additionalContracts": [],
      "isFixedGasLimit": false
    }
  ],
  "receipts": [
    {
      "status": "0x1",
      "cumulativeGasUsed": "0x201e6",
      "logs": [
        {
          "address": "0xc02aaa39b223fe8d0a0e5c4f27ead9083c756cc2",
          "topics": [
            "0xddf252ad1be2c89b69c2b068fc378daa952ba7f163c4a11628f55a4df523b3ef",
            "0x000000000000000000000000cbe5659df21cbcfabe4da962f7a9081f26b3ed82",
            "0x0000000000000000000000001804c8ab1f12e6bbf3894d4083f33e07309d1f38"
          ],
          "data": "0x0000000000000000000000000000000000000000000000000002d79883d20000",
          "blockHash": "0x4e6ce84ee6e1d8f4d73942112df4f30f0181be152187e54d243340e139354f13",
          "blockNumber": "0x17b8374",
          "blockTimestamp": "0x69f5e65d",
          "transactionHash": "0x63d4f3e15af7549f52786aae40965a62529080c78acb4b47346422029beb5eaf",
          "transactionIndex": "0x0",
          "logIndex": "0x0",
          "removed": false
        },
        {
          "address": "0xc02aaa39b223fe8d0a0e5c4f27ead9083c756cc2",
          "topics": [
            "0xddf252ad1be2c89b69c2b068fc378daa952ba7f163c4a11628f55a4df523b3ef",
            "0x000000000000000000000000cbe5659df21cbcfabe4da962f7a9081f26b3ed82",
            "0x000000000000000000000000e3745c151fab59b0740f4312b2b027f07d096639"
          ],
          "data": "0x00000000000000000000000000000000000000000000000001195ffafa360000",
          "blockHash": "0x4e6ce84ee6e1d8f4d73942112df4f30f0181be152187e54d243340e139354f13",
          "blockNumber": "0x17b8374",
          "blockTimestamp": "0x69f5e65d",
          "transactionHash": "0x63d4f3e15af7549f52786aae40965a62529080c78acb4b47346422029beb5eaf",
          "transactionIndex": "0x0",
          "logIndex": "0x1",
          "removed": false
        },
        {
          "address": "0xa5f104f8f78d5ba9aec4a383c0927337fd4e997b",
          "topics": [
            "0xddf252ad1be2c89b69c2b068fc378daa952ba7f163c4a11628f55a4df523b3ef",
            "0x000000000000000000000000e3745c151fab59b0740f4312b2b027f07d096639",
            "0x000000000000000000000000cbe5659df21cbcfabe4da962f7a9081f26b3ed82",
            "0x00000000000000000000000000000000000000000000000000000000000001d9"
          ],
          "data": "0x",
          "blockHash": "0x4e6ce84ee6e1d8f4d73942112df4f30f0181be152187e54d243340e139354f13",
          "blockNumber": "0x17b8374",
          "blockTimestamp": "0x69f5e65d",
          "transactionHash": "0x63d4f3e15af7549f52786aae40965a62529080c78acb4b47346422029beb5eaf",
          "transactionIndex": "0x0",
          "logIndex": "0x2",
          "removed": false
        },
        {
          "address": "0x8fa71914948544c60e3379064567dcf0e6564d27",
          "topics": [
            "0xc0ac3eb1e8caef05b202043f34de8e3173fab712167584f7a2a9f4c302bd0e9c",
            "0x70dac57f3a566879bc9e5798f159b589180bf45c40fb1ff57e5ebc2d76772e39",
            "0x000000000000000000000000a5f104f8f78d5ba9aec4a383c0927337fd4e997b",
            "0x00000000000000000000000000000000000000000000000000000000000001d9"
          ],
          "data": "0x000000000000000000000000e3745c151fab59b0740f4312b2b027f07d096639000000000000000000000000cbe5659df21cbcfabe4da962f7a9081f26b3ed82000000000000000000000000c02aaa39b223fe8d0a0e5c4f27ead9083c756cc2000000000000000000000000000000000000000000000000011c37937e080000",
          "blockHash": "0x4e6ce84ee6e1d8f4d73942112df4f30f0181be152187e54d243340e139354f13",
          "blockNumber": "0x17b8374",
          "blockTimestamp": "0x69f5e65d",
          "transactionHash": "0x63d4f3e15af7549f52786aae40965a62529080c78acb4b47346422029beb5eaf",
          "transactionIndex": "0x0",
          "logIndex": "0x3",
          "removed": false
        }
      ],
      "logsBloom": "0x00000000020000002000010000000000000000000100000000000000000000000000000000000000000000000002000042000000080000000000000000100000000400000000004000010008000000000000000000000000080000000000000000000000000000000001000000040000000000000000000000000010200000000800000000040000000004000000000000000000000000000000000000000000000000200000000400000000000000000000000000000080000000000000000000000002000004000400000000000000000000000000020080000040000000000100200000000000000000000000000000000000004000000000000000000000",
      "type": "0x2",
      "transactionHash": "0x63d4f3e15af7549f52786aae40965a62529080c78acb4b47346422029beb5eaf",
      "transactionIndex": "0x0",
      "blockHash": "0x4e6ce84ee6e1d8f4d73942112df4f30f0181be152187e54d243340e139354f13",
      "blockNumber": "0x17b8374",
      "gasUsed": "0x201e6",
      "effectiveGasPrice": "0x1ba81c",
      "blobGasPrice": "0x1",
      "from": "0xe3745c151fab59b0740f4312b2b027f07d096639",
      "to": "0x8fa71914948544c60e3379064567dcf0e6564d27",
      "contractAddress": null
    }
  ],
  "libraries": [],
  "pending": [],
  "returns": {},
  "timestamp": 1778506499197,
  "chain": 31337,
  "commit": "59e30a9"
}