{
  "transactions": [
    {
      "hash": "0x8822f978ab98db7c71a16169d4a31ad54c32686435d3931f82c0e24afdea921d",
      "transactionType": "CALL",
      "contractName": null,
      "contractAddress": "0x8fa71914948544c60e3379064567dcf0e6564d27",
      "function": "settle((uint256,address),(uint8,bool,address,uint256,address,uint256,address,uint64,uint64,uint256),(uint8,bytes32,bytes32))",
      "arguments": [
        "(0, 0xa382b0E75C192D9CDF5c084E58b750Cea7761Bd0)",
        "(0, false, 0xA5f104F8f78d5ba9AEC4a383c0927337Fd4E997B, 215, 0xC02aaA39b223FE8D0A0e5C4F27eAD9083C756Cc2, 168000000000000000, 0x08312E82df563A1639b81f49bb41247759700e30, 1773207174, 1778967112, 15)",
        "(27, 0x04b6ae82731d8aec70719a59c4f3ffc7c80335b1ccfb0d8c0769ed3b45a71915, 0x3838e3ef1edadc13ac9026206377c2234d43ee22909752b8d67f1458733073de)"
      ],
      "transaction": {
        "from": "0xa382b0e75c192d9cdf5c084e58b750cea7761bd0",
        "to": "0x8fa71914948544c60e3379064567dcf0e6564d27",
        "gas": "0x2c4bb",
        "value": "0x0",
        "input": "0x3bae3e790000000000000000000000000000000000000000000000000000000000000000000000000000000000000000a382b0e75c192d9cdf5c084e58b750cea7761bd000000000000000000000000000000000000000000000000000000000000000000000000000000000000000000000000000000000000000000000000000000000000000000000000000000000a5f104f8f78d5ba9aec4a383c0927337fd4e997b00000000000000000000000000000000000000000000000000000000000000d7000000000000000000000000c02aaa39b223fe8d0a0e5c4f27ead9083c756cc20000000000000000000000000000000000000000000000000254db1c2244000000000000000000000000000008312e82df563a1639b81f49bb41247759700e300000000000000000000000000000000000000000000000000000000069b0fe86000000000000000000000000000000000000000000000000000000006a08e248000000000000000000000000000000000000000000000000000000000000000f000000000000000000000000000000000000000000000000000000000000001b04b6ae82731d8aec70719a59c4f3ffc7c80335b1ccfb0d8c0769ed3b45a719153838e3ef1edadc13ac9026206377c2234d43ee22909752b8d67f1458733073de",
        "nonce": "0x2c",
        "chainId": "0x7a69"
      },
      "additionalContracts": [],
      "isFixedGasLimit": false
    }
  ],
  "receipts": [
    {
      "status": "0x1",
      "cumulativeGasUsed": "0x2011d",
      "logs": [
        {
          "address": "0xc02aaa39b223fe8d0a0e5c4f27ead9083c756cc2",
          "topics": [
            "0xddf252ad1be2c89b69c2b068fc378daa952ba7f163c4a11628f55a4df523b3ef",
            "0x000000000000000000000000a382b0e75c192d9cdf5c084e58b750cea7761bd0",
            "0x0000000000000000000000001804c8ab1f12e6bbf3894d4083f33e07309d1f38"
          ],
          "data": "0x0000000000000000000000000000000000000000000000000005f7f37b390000",
          "blockHash": "0x8cd8279e2b53d9752a660b24d76b5053440e733c9a8de296a25ee539e215063f",
          "blockNumber": "0x17b838a",
          "blockTimestamp": "0x69facff5",
          "transactionHash": "0x8822f978ab98db7c71a16169d4a31ad54c32686435d3931f82c0e24afdea921d",
          "transactionIndex": "0x0",
          "logIndex": "0x0",
          "removed": false
        },
        {
          "address": "0xc02aaa39b223fe8d0a0e5c4f27ead9083c756cc2",
          "topics": [
            "0xddf252ad1be2c89b69c2b068fc378daa952ba7f163c4a11628f55a4df523b3ef",
            "0x000000000000000000000000a382b0e75c192d9cdf5c084e58b750cea7761bd0",
            "0x00000000000000000000000008312e82df563a1639b81f49bb41247759700e30"
          ],
          "data": "0x000000000000000000000000000000000000000000000000024ee328a70b0000",
          "blockHash": "0x8cd8279e2b53d9752a660b24d76b5053440e733c9a8de296a25ee539e215063f",
          "blockNumber": "0x17b838a",
          "blockTimestamp": "0x69facff5",
          "transactionHash": "0x8822f978ab98db7c71a16169d4a31ad54c32686435d3931f82c0e24afdea921d",
          "transactionIndex": "0x0",
          "logIndex": "0x1",
          "removed": false
        },
        {
          "address": "0xa5f104f8f78d5ba9aec4a383c0927337fd4e997b",
          "topics": [
            "0xddf252ad1be2c89b69c2b068fc378daa952ba7f163c4a11628f55a4df523b3ef",
            "0x00000000000000000000000008312e82df563a1639b81f49bb41247759700e30",
            "0x000000000000000000000000a382b0e75c192d9cdf5c084e58b750cea7761bd0",
            "0x00000000000000000000000000000000000000000000000000000000000000d7"
          ],
          "data": "0x",
          "blockHash": "0x8cd8279e2b53d9752a660b24d76b5053440e733c9a8de296a25ee539e215063f",
          "blockNumber": "0x17b838a",
          "blockTimestamp": "0x69facff5",
          "transactionHash": "0x8822f978ab98db7c71a16169d4a31ad54c32686435d3931f82c0e24afdea921d",
          "transactionIndex": "0x0",
          "logIndex": "0x2",
          "removed": false
        },
        {
          "address": "0x8fa71914948544c60e3379064567dcf0e6564d27",
          "topics": [
            "0xc0ac3eb1e8caef05b202043f34de8e3173fab712167584f7a2a9f4c302bd0e9c",
            "0x0813c9feaa2b1df1f614d6193d8fa0689c280a69f61a70e076bd77b38f5873d2",
            "0x000000000000000000000000a5f104f8f78d5ba9aec4a383c0927337fd4e997b",
            "0x00000000000000000000000000000000000000000000000000000000000000d7"
          ],
          "data": "0x00000000000000000000000008312e82df563a1639b81f49bb41247759700e30000000000000000000000000a382b0e75c192d9cdf5c084e58b750cea7761bd0000000000000000000000000c02aaa39b223fe8d0a0e5c4f27ead9083c756cc20000000000000000000000000000000000000000000000000254db1c22440000",
          "blockHash": "0x8cd8279e2b53d9752a660b24d76b5053440e733c9a8de296a25ee539e215063f",
          "blockNumber": "0x17b838a",
          "blockTimestamp": "0x69facff5",
          "transactionHash": "0x8822f978ab98db7c71a16169d4a31ad54c32686435d3931f82c0e24afdea921d",
          "transactionIndex": "0x0",
          "logIndex": "0x3",
          "removed": false
        }
      ],
      "logsBloom": "0x00000000000000000000010001000000000000000000000000000000000000000000000000100000000000000000000002000000080000000000000000100000000000000000000000010008000000000000000000000000080000000000000000000000000000000001000000000000000000000000040000000010200000000800000000040000000004000000000000100000000000000000002000000000000000200000000400000000001000000000200000000080000000000000000200000002000004000000000000000000000000000000000080000000000000000180220000000000000000000000000000000000104000000000000000000000",
      "type": "0x2",
      "transactionHash": "0x8822f978ab98db7c71a16169d4a31ad54c32686435d3931f82c0e24afdea921d",
      "transactionIndex": "0x0",
      "blockHash": "0x8cd8279e2b53d9752a660b24d76b5053440e733c9a8de296a25ee539e215063f",
      "blockNumber": "0x17b838a",
      "gasUsed": "0x2011d",
      "effectiveGasPrice": "0x1ba81c",
      "blobGasPrice": "0x1",
      "from": "0xa382b0e75c192d9cdf5c084e58b750cea7761bd0",
      "to": "0x8fa71914948544c60e3379064567dcf0e6564d27",
      "contractAddress": null
    }
  ],
  "libraries": [],
  "pending": [],
  "returns": {},
  "timestamp": 1778506525925,
  "chain": 31337,
  "commit": "59e30a9"
}