{
  "transactions": [
    {
      "hash": "0x6a6779c184c3671e7ce365d2101586d33e398a745019f355250dc4cc9470b45c",
      "transactionType": "CALL",
      "contractName": null,
      "contractAddress": "0x8fa71914948544c60e3379064567dcf0e6564d27",
      "function": "settle((uint256,address),(uint8,bool,address,uint256,address,uint256,address,uint64,uint64,uint256),(uint8,bytes32,bytes32))",
      "arguments": [
        "(85, 0x2c2dbA75492E0C4A1D10B41303167aEC59586C9c)",
        "(1, false, 0xA5f104F8f78d5ba9AEC4a383c0927337Fd4E997B, 85, 0xC02aaA39b223FE8D0A0e5C4F27eAD9083C756Cc2, 199000000000000000, 0x08312E82df563A1639b81f49bb41247759700e30, 1771931360, 1780242926, 3)",
        "(27, 0x5737e16ba4d4902c36d1188faa77f831c9caf3cf9c496860a885625a7c0c2850, 0x7f1eab6ccac519fae051828ce81c77d21b0b1d2b704422eac8cae2098d2cbb2d)"
      ],
      "transaction": {
        "from": "0x2c2dba75492e0c4a1d10b41303167aec59586c9c",
        "to": "0x8fa71914948544c60e3379064567dcf0e6564d27",
        "gas": "0x2c5d2",
        "value": "0x0",
        "input": "0x3bae3e7900000000000000000000000000000000000000000000000000000000000000550000000000000000000000002c2dba75492e0c4a1d10b41303167aec59586c9c00000000000000000000000000000000000000000000000000000000000000010000000000000000000000000000000000000000000000000000000000000000000000000000000000000000a5f104f8f78d5ba9aec4a383c0927337fd4e997b0000000000000000000000000000000000000000000000000000000000000055000000000000000000000000c02aaa39b223fe8d0a0e5c4f27ead9083c756cc200000000000000000000000000000000000000000000000002c2fd72164d800000000000000000000000000008312e82df563a1639b81f49bb41247759700e3000000000000000000000000000000000000000000000000000000000699d86e0000000000000000000000000000000000000000000000000000000006a1c59ee0000000000000000000000000000000000000000000000000000000000000003000000000000000000000000000000000000000000000000000000000000001b5737e16ba4d4902c36d1188faa77f831c9caf3cf9c496860a885625a7c0c28507f1eab6ccac519fae051828ce81c77d21b0b1d2b704422eac8cae2098d2cbb2d",
        "nonce": "0x2f",
        "chainId": "0x7a69"
      },
      "additionalContracts": [],
      "isFixedGasLimit": false
    }
  ],
  "receipts": [
    {
      "status": "0x1",
      "cumulativeGasUsed": "0x201e6",
      "logs": [
        {
          "address": "0xc02aaa39b223fe8d0a0e5c4f27ead9083c756cc2",
          "topics": [
            "0xddf252ad1be2c89b69c2b068fc378daa952ba7f163c4a11628f55a4df523b3ef",
            "0x00000000000000000000000008312e82df563a1639b81f49bb41247759700e30",
            "0x0000000000000000000000001804c8ab1f12e6bbf3894d4083f33e07309d1f38"
          ],
          "data": "0x000000000000000000000000000000000000000000000000000711e4fb1a6000",
          "blockHash": "0x31801fbefea656f796e9952debd897a47c821c5306f8e1a00a572826d5949f2a",
          "blockNumber": "0x17b8330",
          "blockTimestamp": "0x69e524af",
          "transactionHash": "0x6a6779c184c3671e7ce365d2101586d33e398a745019f355250dc4cc9470b45c",
          "transactionIndex": "0x0",
          "logIndex": "0x0",
          "removed": false
        },
        {
          "address": "0xc02aaa39b223fe8d0a0e5c4f27ead9083c756cc2",
          "topics": [
            "0xddf252ad1be2c89b69c2b068fc378daa952ba7f163c4a11628f55a4df523b3ef",
            "0x00000000000000000000000008312e82df563a1639b81f49bb41247759700e30",
            "0x0000000000000000000000002c2dba75492e0c4a1d10b41303167aec59586c9c"
          ],
          "data": "0x00000000000000000000000000000000000000000000000002bbeb8d1b332000",
          "blockHash": "0x31801fbefea656f796e9952debd897a47c821c5306f8e1a00a572826d5949f2a",
          "blockNumber": "0x17b8330",
          "blockTimestamp": "0x69e524af",
          "transactionHash": "0x6a6779c184c3671e7ce365d2101586d33e398a745019f355250dc4cc9470b45c",
          "transactionIndex": "0x0",
          "logIndex": "0x1",
          "removed": false
        },
        {
          "address": "0xa5f104f8f78d5ba9aec4a383c0927337fd4e997b",
          "topics": [
            "0xddf252ad1be2c89b69c2b068fc378daa952ba7f163c4a11628f55a4df523b3ef",
            "0x0000000000000000000000002c2dba75492e0c4a1d10b41303167aec59586c9c",
            "0x00000000000000000000000008312e82df563a1639b81f49bb41247759700e30",
            "0x0000000000000000000000000000000000000000000000000000000000000055"
          ],
          "data": "0x",
          "blockHash": "0x31801fbefea656f796e9952debd897a47c821c5306f8e1a00a572826d5949f2a",
          "blockNumber": "0x17b8330",
          "blockTimestamp": "0x69e524af",
          "transactionHash": "0x6a6779c184c3671e7ce365d2101586d33e398a745019f355250dc4cc9470b45c",
          "transactionIndex": "0x0",
          "logIndex": "0x2",
          "removed": false
        },
        {
          "address": "0x8fa71914948544c60e3379064567dcf0e6564d27",
          "topics": [
            "0xc0ac3eb1e8caef05b202043f34de8e3173fab712167584f7a2a9f4c302bd0e9c",
            "0x24adf3c1cb0ca675c93b003faff1f823dadf9ee293662fd551e6674a3cad5c8f",
            "0x000000000000000000000000a5f104f8f78d5ba9aec4a383c0927337fd4e997b",
            "0x0000000000000000000000000000000000000000000000000000000000000055"
          ],
          "data": "0x0000000000000000000000002c2dba75492e0c4a1d10b41303167aec59586c9c00000000000000000000000008312e82df563a1639b81f49bb41247759700e30000000000000000000000000c02aaa39b223fe8d0a0e5c4f27ead9083c756cc200000000000000000000000000000000000000000000000002c2fd72164d8000",
          "blockHash": "0x31801fbefea656f796e9952debd897a47c821c5306f8e1a00a572826d5949f2a",
          "blockNumber": "0x17b8330",
          "blockTimestamp": "0x69e524af",
          "transactionHash": "0x6a6779c184c3671e7ce365d2101586d33e398a745019f355250dc4cc9470b45c",
          "transactionIndex": "0x0",
          "logIndex": "0x3",
          "removed": false
        }
      ],
      "logsBloom": "0x00000000000000000000010001000000000000000000000000000000000000000000000000100000000000000000000002000000080000000000000800100000000200000000200000010008000000000000000000000000080000000000000000000000000004000001000000000000000000000000000000000010200000000800000000040000000004000000000000000000004000000000000000000000000000200000000400008000000000000000000020000080000000000004000000000002000004004000000000000000000000000000000080000000000000000100200000000000000000000000000000000000004000000000000000000000",
      "type": "0x2",
      "transactionHash": "0x6a6779c184c3671e7ce365d2101586d33e398a745019f355250dc4cc9470b45c",
      "transactionIndex": "0x0",
      "blockHash": "0x31801fbefea656f796e9952debd897a47c821c5306f8e1a00a572826d5949f2a",
      "blockNumber": "0x17b8330",
      "gasUsed": "0x201e6",
      "effectiveGasPrice": "0x1ba81c",
      "blobGasPrice": "0x1",
      "from": "0x2c2dba75492e0c4a1d10b41303167aec59586c9c",
      "to": "0x8fa71914948544c60e3379064567dcf0e6564d27",
      "contractAddress": null
    }
  ],
  "libraries": [],
  "pending": [],
  "returns": {},
  "timestamp": 1778506423524,
  "chain": 31337,
  "commit": "59e30a9"
}