{
  "transactions": [
    {
      "hash": "0xd9b8307641f9800613a04510842e93cb541efe83a051607cd16ff07e16c3b7aa",
      "transactionType": "CALL",
      "contractName": null,
      "contractAddress": "0x73973d222c3fda5b2563d269da9e19cb125000f4",
      "function": "settle((uint256,address),(uint8,bool,address,uint256,address,uint256,address,uint64,uint64,uint256),(uint8,bytes32,bytes32))",
      "arguments": [
        "(0, 0x646dC5Fc4009C4C84a424B6aE0f494b374bAE1Ce)",
        "(0, false, 0x38D4dE42C9c5640A2799B372D27B01957E0a3673, 275, 0xC02aaA39b223FE8D0A0e5C4F27eAD9083C756Cc2, 818000000000000000, 0x08312E82df563A1639b81f49bb41247759700e30, 1772159668, 1779905970, 1)",
        "(28, 0xa6aa8cb466c9b2aa90e1e8dec801a390ea53b354544a239fe31311078ce5d840, 0x69012a213ecb456afeca3de99bc951dfdccf171becba63dc270aad97244db0d1)"
      ],
      "transaction": {
        "from": "0x646dc5fc4009c4c84a424b6ae0f494b374bae1ce",
        "to": "0x73973d222c3fda5b2563d269da9e19cb125000f4",
        "gas": "0x2c4e8",
        "value": "0x0",
        "input": "0x3bae3e790000000000000000000000000000000000000000000000000000000000000000000000000000000000000000646dc5fc4009c4c84a424b6ae0f494b374bae1ce0000000000000000000000000000000000000000000000000000000000000000000000000000000000000000000000000000000000000000000000000000000000000000000000000000000038d4de42c9c5640a2799b372d27b01957e0a36730000000000000000000000000000000000000000000000000000000000000113000000000000000000000000c02aaa39b223fe8d0a0e5c4f27ead9083c756cc20000000000000000000000000000000000000000000000000b5a1eaa8245000000000000000000000000000008312e82df563a1639b81f49bb41247759700e300000000000000000000000000000000000000000000000000000000069a102b4000000000000000000000000000000000000000000000000000000006a1735b20000000000000000000000000000000000000000000000000000000000000001000000000000000000000000000000000000000000000000000000000000001ca6aa8cb466c9b2aa90e1e8dec801a390ea53b354544a239fe31311078ce5d84069012a213ecb456afeca3de99bc951dfdccf171becba63dc270aad97244db0d1",
        "nonce": "0x93",
        "chainId": "0x7a69"
      },
      "additionalContracts": [],
      "isFixedGasLimit": false
    }
  ],
  "receipts": [
    {
      "status": "0x1",
      "cumulativeGasUsed": "0x2013d",
      "logs": [
        {
          "address": "0xc02aaa39b223fe8d0a0e5c4f27ead9083c756cc2",
          "topics": [
            "0xddf252ad1be2c89b69c2b068fc378daa952ba7f163c4a11628f55a4df523b3ef",
            "0x000000000000000000000000646dc5fc4009c4c84a424b6ae0f494b374bae1ce",
            "0x0000000000000000000000001804c8ab1f12e6bbf3894d4083f33e07309d1f38"
          ],
          "data": "0x000000000000000000000000000000000000000000000000001d0faaaa434000",
          "blockHash": "0xa26be9246fa85d5ca4c09c44b0f1a120ddf6abf2277f684c8016bb5971baa293",
          "blockNumber": "0x17b73a7",
          "blockTimestamp": "0x69e22985",
          "transactionHash": "0xd9b8307641f9800613a04510842e93cb541efe83a051607cd16ff07e16c3b7aa",
          "transactionIndex": "0x0",
          "logIndex": "0x0",
          "removed": false
        },
        {
          "address": "0xc02aaa39b223fe8d0a0e5c4f27ead9083c756cc2",
          "topics": [
            "0xddf252ad1be2c89b69c2b068fc378daa952ba7f163c4a11628f55a4df523b3ef",
            "0x000000000000000000000000646dc5fc4009c4c84a424b6ae0f494b374bae1ce",
            "0x00000000000000000000000008312e82df563a1639b81f49bb41247759700e30"
          ],
          "data": "0x0000000000000000000000000000000000000000000000000b3d0effd801c000",
          "blockHash": "0xa26be9246fa85d5ca4c09c44b0f1a120ddf6abf2277f684c8016bb5971baa293",
          "blockNumber": "0x17b73a7",
          "blockTimestamp": "0x69e22985",
          "transactionHash": "0xd9b8307641f9800613a04510842e93cb541efe83a051607cd16ff07e16c3b7aa",
          "transactionIndex": "0x0",
          "logIndex": "0x1",
          "removed": false
        },
        {
          "address": "0x38d4de42c9c5640a2799b372d27b01957e0a3673",
          "topics": [
            "0xddf252ad1be2c89b69c2b068fc378daa952ba7f163c4a11628f55a4df523b3ef",
            "0x00000000000000000000000008312e82df563a1639b81f49bb41247759700e30",
            "0x000000000000000000000000646dc5fc4009c4c84a424b6ae0f494b374bae1ce",
            "0x0000000000000000000000000000000000000000000000000000000000000113"
          ],
          "data": "0x",
          "blockHash": "0xa26be9246fa85d5ca4c09c44b0f1a120ddf6abf2277f684c8016bb5971baa293",
          "blockNumber": "0x17b73a7",
          "blockTimestamp": "0x69e22985",
          "transactionHash": "0xd9b8307641f9800613a04510842e93cb541efe83a051607cd16ff07e16c3b7aa",
          "transactionIndex": "0x0",
          "logIndex": "0x2",
          "removed": false
        },
        {
          "address": "0x73973d222c3fda5b2563d269da9e19cb125000f4",
          "topics": [
            "0xc0ac3eb1e8caef05b202043f34de8e3173fab712167584f7a2a9f4c302bd0e9c",
            "0xa3c48c4d56a2ebc824af3d1b1ecfc3d0786687104206093cbea9e77991abe5d0",
            "0x00000000000000000000000038d4de42c9c5640a2799b372d27b01957e0a3673",
            "0x0000000000000000000000000000000000000000000000000000000000000113"
          ],
          "data": "0x00000000000000000000000008312e82df563a1639b81f49bb41247759700e30000000000000000000000000646dc5fc4009c4c84a424b6ae0f494b374bae1ce000000000000000000000000c02aaa39b223fe8d0a0e5c4f27ead9083c756cc20000000000000000000000000000000000000000000000000b5a1eaa82450000",
          "blockHash": "0xa26be9246fa85d5ca4c09c44b0f1a120ddf6abf2277f684c8016bb5971baa293",
          "blockNumber": "0x17b73a7",
          "blockTimestamp": "0x69e22985",
          "transactionHash": "0xd9b8307641f9800613a04510842e93cb541efe83a051607cd16ff07e16c3b7aa",
          "transactionIndex": "0x0",
          "logIndex": "0x3",
          "removed": false
        }
      ],
      "logsBloom": "0x00000000000000000000000001000000010000000002000000000000000000000000000000100000000000000000020002000000090000000004100000100000000000000000001021000008000000000000000000000000000000008000000000000000000000000005000000004000000000000000000000000010000000000000000000000000000004000000000000000000000008000000000000000000010000000000000000000000000000000000000000000080400000000000000000000002000004000000000000000000000000000008000000000000000000000100204000000000000000000000000000000000004000000000000000000000",
      "type": "0x2",
      "transactionHash": "0xd9b8307641f9800613a04510842e93cb541efe83a051607cd16ff07e16c3b7aa",
      "transactionIndex": "0x0",
      "blockHash": "0xa26be9246fa85d5ca4c09c44b0f1a120ddf6abf2277f684c8016bb5971baa293",
      "blockNumber": "0x17b73a7",
      "gasUsed": "0x2013d",
      "effectiveGasPrice": "0xf4248",
      "blobGasPrice": "0x1",
      "from": "0x646dc5fc4009c4c84a424b6ae0f494b374bae1ce",
      "to": "0x73973d222c3fda5b2563d269da9e19cb125000f4",
      "contractAddress": null
    }
  ],
  "libraries": [],
  "pending": [],
  "returns": {},
  "timestamp": 1778453712031,
  "chain": 31337,
  "commit": "f87d399"
}