{
  "transactions": [
    {
      "hash": "0x449be7dda9ee60c61323910737d3017dfd1313a1819e7bf276cd43d72de24e18",
      "transactionType": "CALL",
      "contractName": null,
      "contractAddress": "0x73973d222c3fda5b2563d269da9e19cb125000f4",
      "function": "settle((uint256,address),(uint8,bool,address,uint256,address,uint256,address,uint64,uint64,uint256),(uint8,bytes32,bytes32))",
      "arguments": [
        "(93, 0xcbe5659df21Cbcfabe4da962F7a9081F26B3ed82)",
        "(1, false, 0x38D4dE42C9c5640A2799B372D27B01957E0a3673, 93, 0xC02aaA39b223FE8D0A0e5C4F27eAD9083C756Cc2, 26000000000000000, 0x08312E82df563A1639b81f49bb41247759700e30, 1773063526, 1779002112, 5)",
        "(27, 0x1d9df02718ed456ed527f1d339cf1c5ab0cd87b08587ca1a01e787f57902a593, 0x2a29715945a4981c9570a47e17549bd110ac01cd1e936558b43f3be813685791)"
      ],
      "transaction": {
        "from": "0xcbe5659df21cbcfabe4da962f7a9081f26b3ed82",
        "to": "0x73973d222c3fda5b2563d269da9e19cb125000f4",
        "gas": "0x2ef5e",
        "value": "0x0",
        "input": "0x3bae3e79000000000000000000000000000000000000000000000000000000000000005d000000000000000000000000cbe5659df21cbcfabe4da962f7a9081f26b3ed820000000000000000000000000000000000000000000000000000000000000001000000000000000000000000000000000000000000000000000000000000000000000000000000000000000038d4de42c9c5640a2799b372d27b01957e0a3673000000000000000000000000000000000000000000000000000000000000005d000000000000000000000000c02aaa39b223fe8d0a0e5c4f27ead9083c756cc2000000000000000000000000000000000000000000000000005c5edcbc29000000000000000000000000000008312e82df563a1639b81f49bb41247759700e300000000000000000000000000000000000000000000000000000000069aecd66000000000000000000000000000000000000000000000000000000006a096b000000000000000000000000000000000000000000000000000000000000000005000000000000000000000000000000000000000000000000000000000000001b1d9df02718ed456ed527f1d339cf1c5ab0cd87b08587ca1a01e787f57902a5932a29715945a4981c9570a47e17549bd110ac01cd1e936558b43f3be813685791",
        "nonce": "0x6a",
        "chainId": "0x7a69"
      },
      "additionalContracts": [],
      "isFixedGasLimit": false
    }
  ],
  "receipts": [
    {
      "status": "0x1",
      "cumulativeGasUsed": "0x201c2",
      "logs": [
        {
          "address": "0xc02aaa39b223fe8d0a0e5c4f27ead9083c756cc2",
          "topics": [
            "0xddf252ad1be2c89b69c2b068fc378daa952ba7f163c4a11628f55a4df523b3ef",
            "0x00000000000000000000000008312e82df563a1639b81f49bb41247759700e30",
            "0x0000000000000000000000001804c8ab1f12e6bbf3894d4083f33e07309d1f38"
          ],
          "data": "0x0000000000000000000000000000000000000000000000000000ec77f7a44000",
          "blockHash": "0xb2aaeb42e6f969ab88d58318baf3a7b3acbb5d19403bc709738c1d3bedff59a5",
          "blockNumber": "0x17b7394",
          "blockTimestamp": "0x69de9572",
          "transactionHash": "0x449be7dda9ee60c61323910737d3017dfd1313a1819e7bf276cd43d72de24e18",
          "transactionIndex": "0x0",
          "logIndex": "0x0",
          "removed": false
        },
        {
          "address": "0xc02aaa39b223fe8d0a0e5c4f27ead9083c756cc2",
          "topics": [
            "0xddf252ad1be2c89b69c2b068fc378daa952ba7f163c4a11628f55a4df523b3ef",
            "0x00000000000000000000000008312e82df563a1639b81f49bb41247759700e30",
            "0x000000000000000000000000cbe5659df21cbcfabe4da962f7a9081f26b3ed82"
          ],
          "data": "0x000000000000000000000000000000000000000000000000005b7264c484c000",
          "blockHash": "0xb2aaeb42e6f969ab88d58318baf3a7b3acbb5d19403bc709738c1d3bedff59a5",
          "blockNumber": "0x17b7394",
          "blockTimestamp": "0x69de9572",
          "transactionHash": "0x449be7dda9ee60c61323910737d3017dfd1313a1819e7bf276cd43d72de24e18",
          "transactionIndex": "0x0",
          "logIndex": "0x1",
          "removed": false
        },
        {
          "address": "0x38d4de42c9c5640a2799b372d27b01957e0a3673",
          "topics": [
            "0xddf252ad1be2c89b69c2b068fc378daa952ba7f163c4a11628f55a4df523b3ef",
            "0x000000000000000000000000cbe5659df21cbcfabe4da962f7a9081f26b3ed82",
            "0x00000000000000000000000008312e82df563a1639b81f49bb41247759700e30",
            "0x000000000000000000000000000000000000000000000000000000000000005d"
          ],
          "data": "0x",
          "blockHash": "0xb2aaeb42e6f969ab88d58318baf3a7b3acbb5d19403bc709738c1d3bedff59a5",
          "blockNumber": "0x17b7394",
          "blockTimestamp": "0x69de9572",
          "transactionHash": "0x449be7dda9ee60c61323910737d3017dfd1313a1819e7bf276cd43d72de24e18",
          "transactionIndex": "0x0",
          "logIndex": "0x2",
          "removed": false
        },
        {
          "address": "0x73973d222c3fda5b2563d269da9e19cb125000f4",
          "topics": [
            "0xc0ac3eb1e8caef05b202043f34de8e3173fab712167584f7a2a9f4c302bd0e9c",
            "0x9f48560d7c187bfa7bba158186d3c565020f69d1a96671c4738791ee35eae736",
            "0x00000000000000000000000038d4de42c9c5640a2799b372d27b01957e0a3673",
            "0x000000000000000000000000000000000000000000000000000000000000005d"
          ],
          "data": "0x000000000000000000000000cbe5659df21cbcfabe4da962f7a9081f26b3ed8200000000000000000000000008312e82df563a1639b81f49bb41247759700e30000000000000000000000000c02aaa39b223fe8d0a0e5c4f27ead9083c756cc2000000000000000000000000000000000000000000000000005c5edcbc290000",
          "blockHash": "0xb2aaeb42e6f969ab88d58318baf3a7b3acbb5d19403bc709738c1d3bedff59a5",
          "blockNumber": "0x17b7394",
          "blockTimestamp": "0x69de9572",
          "transactionHash": "0x449be7dda9ee60c61323910737d3017dfd1313a1819e7bf276cd43d72de24e18",
          "transactionIndex": "0x0",
          "logIndex": "0x3",
          "removed": false
        }
      ],
      "logsBloom": "0x00000000000000000000000001000000000000000002000000000000000000000000000000100000000000000000020003000000080000000004100002100000000000000000001021000008000000000000000000000000000000000000000000000000000000000001000000000000000001000000000000000010000000000000000000000000000004000000000004000000000008000000000000000000000000000000000000000000000200000000000000200080400000000000000000000002000004000400000000000000000000000000020000000000000000000100200000000000000000000000000000000000004000000000000000000000",
      "type": "0x2",
      "transactionHash": "0x449be7dda9ee60c61323910737d3017dfd1313a1819e7bf276cd43d72de24e18",
      "transactionIndex": "0x0",
      "blockHash": "0xb2aaeb42e6f969ab88d58318baf3a7b3acbb5d19403bc709738c1d3bedff59a5",
      "blockNumber": "0x17b7394",
      "gasUsed": "0x201c2",
      "effectiveGasPrice": "0xf4248",
      "blobGasPrice": "0x1",
      "from": "0xcbe5659df21cbcfabe4da962f7a9081f26b3ed82",
      "to": "0x73973d222c3fda5b2563d269da9e19cb125000f4",
      "contractAddress": null
    }
  ],
  "libraries": [],
  "pending": [],
  "returns": {},
  "timestamp": 1778453695058,
  "chain": 31337,
  "commit": "f87d399"
}