{
  "transactions": [
    {
      "hash": "0x3b605ebc2141b77c08be31eb9f11b6289d77e250d2c1be5de1a7d5bbff067095",
      "transactionType": "CALL",
      "contractName": null,
      "contractAddress": "0x8fa71914948544c60e3379064567dcf0e6564d27",
      "function": "settle((uint256,address),(uint8,bool,address,uint256,address,uint256,address,uint64,uint64,uint256),(uint8,bytes32,bytes32))",
      "arguments": [
        "(417, 0x1302F142Fc55B165647d3Bd5dec227f569A2A907)",
        "(1, false, 0xA5f104F8f78d5ba9AEC4a383c0927337Fd4E997B, 417, 0xC02aaA39b223FE8D0A0e5C4F27eAD9083C756Cc2, 32000000000000000, 0xc5aDfC119364CFE2297e4414dB04834d8702475B, 1772628964, 1779545322, 5)",
        "(28, 0x82064a20b497dceaf7df922912f729ba8072df9a8bd924adf3c089df10033229, 0x7fc149aae361971364eed3f1815c2087fdaba8aa7fdab241feed30246598877b)"
      ],
      "transaction": {
        "from": "0x1302f142fc55b165647d3bd5dec227f569a2a907",
        "to": "0x8fa71914948544c60e3379064567dcf0e6564d27",
        "gas": "0x2efb0",
        "value": "0x0",
        "input": "0x3bae3e7900000000000000000000000000000000000000000000000000000000000001a10000000000000000000000001302f142fc55b165647d3bd5dec227f569a2a90700000000000000000000000000000000000000000000000000000000000000010000000000000000000000000000000000000000000000000000000000000000000000000000000000000000a5f104f8f78d5ba9aec4a383c0927337fd4e997b00000000000000000000000000000000000000000000000000000000000001a1000000000000000000000000c02aaa39b223fe8d0a0e5c4f27ead9083c756cc20000000000000000000000000000000000000000000000000071afd498d00000000000000000000000000000c5adfc119364cfe2297e4414db04834d8702475b0000000000000000000000000000000000000000000000000000000069a82be4000000000000000000000000000000000000000000000000000000006a11b4ea0000000000000000000000000000000000000000000000000000000000000005000000000000000000000000000000000000000000000000000000000000001c82064a20b497dceaf7df922912f729ba8072df9a8bd924adf3c089df100332297fc149aae361971364eed3f1815c2087fdaba8aa7fdab241feed30246598877b",
        "nonce": "0x3b",
        "chainId": "0x7a69"
      },
      "additionalContracts": [],
      "isFixedGasLimit": false
    }
  ],
  "receipts": [
    {
      "status": "0x1",
      "cumulativeGasUsed": "0x201fa",
      "logs": [
        {
          "address": "0xc02aaa39b223fe8d0a0e5c4f27ead9083c756cc2",
          "topics": [
            "0xddf252ad1be2c89b69c2b068fc378daa952ba7f163c4a11628f55a4df523b3ef",
            "0x000000000000000000000000c5adfc119364cfe2297e4414db04834d8702475b",
            "0x0000000000000000000000001804c8ab1f12e6bbf3894d4083f33e07309d1f38"
          ],
          "data": "0x00000000000000000000000000000000000000000000000000012309ce540000",
          "blockHash": "0xb18594a5813f5f4ae7cc65debbdcaecca40b5302b88e3cc20af45ccfa135b91b",
          "blockNumber": "0x17b8367",
          "blockTimestamp": "0x69f32c53",
          "transactionHash": "0x3b605ebc2141b77c08be31eb9f11b6289d77e250d2c1be5de1a7d5bbff067095",
          "transactionIndex": "0x0",
          "logIndex": "0x0",
          "removed": false
        },
        {
          "address": "0xc02aaa39b223fe8d0a0e5c4f27ead9083c756cc2",
          "topics": [
            "0xddf252ad1be2c89b69c2b068fc378daa952ba7f163c4a11628f55a4df523b3ef",
            "0x000000000000000000000000c5adfc119364cfe2297e4414db04834d8702475b",
            "0x0000000000000000000000001302f142fc55b165647d3bd5dec227f569a2a907"
          ],
          "data": "0x00000000000000000000000000000000000000000000000000708ccaca7c0000",
          "blockHash": "0xb18594a5813f5f4ae7cc65debbdcaecca40b5302b88e3cc20af45ccfa135b91b",
          "blockNumber": "0x17b8367",
          "blockTimestamp": "0x69f32c53",
          "transactionHash": "0x3b605ebc2141b77c08be31eb9f11b6289d77e250d2c1be5de1a7d5bbff067095",
          "transactionIndex": "0x0",
          "logIndex": "0x1",
          "removed": false
        },
        {
          "address": "0xa5f104f8f78d5ba9aec4a383c0927337fd4e997b",
          "topics": [
            "0xddf252ad1be2c89b69c2b068fc378daa952ba7f163c4a11628f55a4df523b3ef",
            "0x0000000000000000000000001302f142fc55b165647d3bd5dec227f569a2a907",
            "0x000000000000000000000000c5adfc119364cfe2297e4414db04834d8702475b",
            "0x00000000000000000000000000000000000000000000000000000000000001a1"
          ],
          "data": "0x",
          "blockHash": "0xb18594a5813f5f4ae7cc65debbdcaecca40b5302b88e3cc20af45ccfa135b91b",
          "blockNumber": "0x17b8367",
          "blockTimestamp": "0x69f32c53",
          "transactionHash": "0x3b605ebc2141b77c08be31eb9f11b6289d77e250d2c1be5de1a7d5bbff067095",
          "transactionIndex": "0x0",
          "logIndex": "0x2",
          "removed": false
        },
        {
          "address": "0x8fa71914948544c60e3379064567dcf0e6564d27",
          "topics": [
            "0xc0ac3eb1e8caef05b202043f34de8e3173fab712167584f7a2a9f4c302bd0e9c",
            "0xbbf5b0f6b8a832012e0d804a7e2934c2141640c86a4492058eb4ff5aa78d7ad5",
            "0x000000000000000000000000a5f104f8f78d5ba9aec4a383c0927337fd4e997b",
            "0x00000000000000000000000000000000000000000000000000000000000001a1"
          ],
          "data": "0x0000000000000000000000001302f142fc55b165647d3bd5dec227f569a2a907000000000000000000000000c5adfc119364cfe2297e4414db04834d8702475b000000000000000000000000c02aaa39b223fe8d0a0e5c4f27ead9083c756cc20000000000000000000000000000000000000000000000000071afd498d00000",
          "blockHash": "0xb18594a5813f5f4ae7cc65debbdcaecca40b5302b88e3cc20af45ccfa135b91b",
          "blockNumber": "0x17b8367",
          "blockTimestamp": "0x69f32c53",
          "transactionHash": "0x3b605ebc2141b77c08be31eb9f11b6289d77e250d2c1be5de1a7d5bbff067095",
          "transactionIndex": "0x0",
          "logIndex": "0x3",
          "removed": false
        }
      ],
      "logsBloom": "0x00000000000000000000010000020000000000000000000000000000000000000000000000000000000000000000000002000000080000000000000400100000000000000000000000010008000000000000000000000000080000000000000200000000000000000001000000000000000000000000000000000010200000000800000400040000000004000000000800000000000000004000000000000000000000200000000400000000000120000000000000000080000000000000000000000002000004000000000200000000000000000000000080000000001000000100200000000000000040000000000000000000000000002000000000000000",
      "type": "0x2",
      "transactionHash": "0x3b605ebc2141b77c08be31eb9f11b6289d77e250d2c1be5de1a7d5bbff067095",
      "transactionIndex": "0x0",
      "blockHash": "0xb18594a5813f5f4ae7cc65debbdcaecca40b5302b88e3cc20af45ccfa135b91b",
      "blockNumber": "0x17b8367",
      "gasUsed": "0x201fa",
      "effectiveGasPrice": "0x1ba81c",
      "blobGasPrice": "0x1",
      "from": "0x1302f142fc55b165647d3bd5dec227f569a2a907",
      "to": "0x8fa71914948544c60e3379064567dcf0e6564d27",
      "contractAddress": null
    }
  ],
  "libraries": [],
  "pending": [],
  "returns": {},
  "timestamp": 1778506487496,
  "chain": 31337,
  "commit": "59e30a9"
}