{
  "transactions": [
    {
      "hash": "0x77c4a61f1a4826fbd09471266f07cfdcd434867fec80b90f8b83ea5baec6fea3",
      "transactionType": "CALL",
      "contractName": null,
      "contractAddress": "0x8fa71914948544c60e3379064567dcf0e6564d27",
      "function": "settle((uint256,address),(uint8,bool,address,uint256,address,uint256,address,uint64,uint64,uint256),(uint8,bytes32,bytes32))",
      "arguments": [
        "(0, 0xE233420d38D286C2F2Cf8dEe6564F132FBDB09DB)",
        "(0, false, 0xA5f104F8f78d5ba9AEC4a383c0927337Fd4E997B, 380, 0xC02aaA39b223FE8D0A0e5C4F27eAD9083C756Cc2, 329000000000000000, 0x08312E82df563A1639b81f49bb41247759700e30, 1772615616, 1779558670, 11)",
        "(28, 0x4ab9cc34cb63a214c199e37f141b67355f6d7b00787f52754fef2ae1ae4e2f4d, 0x37e51e7622b1aaa299eb3954c007319f904263742b84596848eff641bf47f663)"
      ],
      "transaction": {
        "from": "0xe233420d38d286c2f2cf8dee6564f132fbdb09db",
        "to": "0x8fa71914948544c60e3379064567dcf0e6564d27",
        "gas": "0x2c4e8",
        "value": "0x0",
        "input": "0x3bae3e790000000000000000000000000000000000000000000000000000000000000000000000000000000000000000e233420d38d286c2f2cf8dee6564f132fbdb09db00000000000000000000000000000000000000000000000000000000000000000000000000000000000000000000000000000000000000000000000000000000000000000000000000000000a5f104f8f78d5ba9aec4a383c0927337fd4e997b000000000000000000000000000000000000000000000000000000000000017c000000000000000000000000c02aaa39b223fe8d0a0e5c4f27ead9083c756cc20000000000000000000000000000000000000000000000000490d7c1c31a800000000000000000000000000008312e82df563a1639b81f49bb41247759700e300000000000000000000000000000000000000000000000000000000069a7f7c0000000000000000000000000000000000000000000000000000000006a11e90e000000000000000000000000000000000000000000000000000000000000000b000000000000000000000000000000000000000000000000000000000000001c4ab9cc34cb63a214c199e37f141b67355f6d7b00787f52754fef2ae1ae4e2f4d37e51e7622b1aaa299eb3954c007319f904263742b84596848eff641bf47f663",
        "nonce": "0x37",
        "chainId": "0x7a69"
      },
      "additionalContracts": [],
      "isFixedGasLimit": false
    }
  ],
  "receipts": [
    {
      "status": "0x1",
      "cumulativeGasUsed": "0x2013d",
      "logs": [
        {
          "address": "0xc02aaa39b223fe8d0a0e5c4f27ead9083c756cc2",
          "topics": [
            "0xddf252ad1be2c89b69c2b068fc378daa952ba7f163c4a11628f55a4df523b3ef",
            "0x000000000000000000000000e233420d38d286c2f2cf8dee6564f132fbdb09db",
            "0x0000000000000000000000001804c8ab1f12e6bbf3894d4083f33e07309d1f38"
          ],
          "data": "0x000000000000000000000000000000000000000000000000000bb03cd14fa000",
          "blockHash": "0xc4c329e477071a80644af45c56a5eab6be5f41d72d6f528926d565a3e5e9a20a",
          "blockNumber": "0x17b8368",
          "blockTimestamp": "0x69f36206",
          "transactionHash": "0x77c4a61f1a4826fbd09471266f07cfdcd434867fec80b90f8b83ea5baec6fea3",
          "transactionIndex": "0x0",
          "logIndex": "0x0",
          "removed": false
        },
        {
          "address": "0xc02aaa39b223fe8d0a0e5c4f27ead9083c756cc2",
          "topics": [
            "0xddf252ad1be2c89b69c2b068fc378daa952ba7f163c4a11628f55a4df523b3ef",
            "0x000000000000000000000000e233420d38d286c2f2cf8dee6564f132fbdb09db",
            "0x00000000000000000000000008312e82df563a1639b81f49bb41247759700e30"
          ],
          "data": "0x00000000000000000000000000000000000000000000000004852784f1cae000",
          "blockHash": "0xc4c329e477071a80644af45c56a5eab6be5f41d72d6f528926d565a3e5e9a20a",
          "blockNumber": "0x17b8368",
          "blockTimestamp": "0x69f36206",
          "transactionHash": "0x77c4a61f1a4826fbd09471266f07cfdcd434867fec80b90f8b83ea5baec6fea3",
          "transactionIndex": "0x0",
          "logIndex": "0x1",
          "removed": false
        },
        {
          "address": "0xa5f104f8f78d5ba9aec4a383c0927337fd4e997b",
          "topics": [
            "0xddf252ad1be2c89b69c2b068fc378daa952ba7f163c4a11628f55a4df523b3ef",
            "0x00000000000000000000000008312e82df563a1639b81f49bb41247759700e30",
            "0x000000000000000000000000e233420d38d286c2f2cf8dee6564f132fbdb09db",
            "0x000000000000000000000000000000000000000000000000000000000000017c"
          ],
          "data": "0x",
          "blockHash": "0xc4c329e477071a80644af45c56a5eab6be5f41d72d6f528926d565a3e5e9a20a",
          "blockNumber": "0x17b8368",
          "blockTimestamp": "0x69f36206",
          "transactionHash": "0x77c4a61f1a4826fbd09471266f07cfdcd434867fec80b90f8b83ea5baec6fea3",
          "transactionIndex": "0x0",
          "logIndex": "0x2",
          "removed": false
        },
        {
          "address": "0x8fa71914948544c60e3379064567dcf0e6564d27",
          "topics": [
            "0xc0ac3eb1e8caef05b202043f34de8e3173fab712167584f7a2a9f4c302bd0e9c",
            "0x94bbd8fabec518f0106c6cf29db81f50f2ca6401862fb027a6a17397951162c4",
            "0x000000000000000000000000a5f104f8f78d5ba9aec4a383c0927337fd4e997b",
            "0x000000000000000000000000000000000000000000000000000000000000017c"
          ],
          "data": "0x00000000000000000000000008312e82df563a1639b81f49bb41247759700e30000000000000000000000000e233420d38d286c2f2cf8dee6564f132fbdb09db000000000000000000000000c02aaa39b223fe8d0a0e5c4f27ead9083c756cc20000000000000000000000000000000000000000000000000490d7c1c31a8000",
          "blockHash": "0xc4c329e477071a80644af45c56a5eab6be5f41d72d6f528926d565a3e5e9a20a",
          "blockNumber": "0x17b8368",
          "blockTimestamp": "0x69f36206",
          "transactionHash": "0x77c4a61f1a4826fbd09471266f07cfdcd434867fec80b90f8b83ea5baec6fea3",
          "transactionIndex": "0x0",
          "logIndex": "0x3",
          "removed": false
        }
      ],
      "logsBloom": "0x00000000000000000000010001000020000000000000000000000000000000000000000000100000000000000000000002000000080000004000000000100000000000000000000000010008000000000000000000000000080000000000000000000001000000000001000001000000000000000000000000000010200000000800000000040000000004000000000000000000000000200000000000000000000100200000000400000000000000000000000000000080000000000000000000000012000004000000000000000000000000000002000080000000002000000100200000000000000000000000000000000000004000000000000000000000",
      "type": "0x2",
      "transactionHash": "0x77c4a61f1a4826fbd09471266f07cfdcd434867fec80b90f8b83ea5baec6fea3",
      "transactionIndex": "0x0",
      "blockHash": "0xc4c329e477071a80644af45c56a5eab6be5f41d72d6f528926d565a3e5e9a20a",
      "blockNumber": "0x17b8368",
      "gasUsed": "0x2013d",
      "effectiveGasPrice": "0x1ba81c",
      "blobGasPrice": "0x1",
      "from": "0xe233420d38d286c2f2cf8dee6564f132fbdb09db",
      "to": "0x8fa71914948544c60e3379064567dcf0e6564d27",
      "contractAddress": null
    }
  ],
  "libraries": [],
  "pending": [],
  "returns": {},
  "timestamp": 1778506488300,
  "chain": 31337,
  "commit": "59e30a9"
}