{
  "transactions": [
    {
      "hash": "0x07870360e71961a502fde8e80f56b05b96bf4c7e7f4807b1ecd0b788520536bb",
      "transactionType": "CALL",
      "contractName": null,
      "contractAddress": "0x8fa71914948544c60e3379064567dcf0e6564d27",
      "function": "settle((uint256,address),(uint8,bool,address,uint256,address,uint256,address,uint64,uint64,uint256),(uint8,bytes32,bytes32))",
      "arguments": [
        "(385, 0x4b75AeC40561C03e03d4D1C421dF194a3031A134)",
        "(1, false, 0xA5f104F8f78d5ba9AEC4a383c0927337Fd4E997B, 385, 0xC02aaA39b223FE8D0A0e5C4F27eAD9083C756Cc2, 190000000000000000, 0x646dC5Fc4009C4C84a424B6aE0f494b374bAE1Ce, 1772326908, 1779847378, 2)",
        "(28, 0x0d1ae918d04a6414355a0f0a06afe0d8ce46c253cf9614f53526be0840a77f60, 0x2f2c713bcd9d3fc42831aad1711a45c40226101249699dc158d099fd8fa5cd3b)"
      ],
      "transaction": {
        "from": "0x4b75aec40561c03e03d4d1c421df194a3031a134",
        "to": "0x8fa71914948544c60e3379064567dcf0e6564d27",
        "gas": "0x2c5fe",
        "value": "0x0",
        "input": "0x3bae3e7900000000000000000000000000000000000000000000000000000000000001810000000000000000000000004b75aec40561c03e03d4d1c421df194a3031a13400000000000000000000000000000000000000000000000000000000000000010000000000000000000000000000000000000000000000000000000000000000000000000000000000000000a5f104f8f78d5ba9aec4a383c0927337fd4e997b0000000000000000000000000000000000000000000000000000000000000181000000000000000000000000c02aaa39b223fe8d0a0e5c4f27ead9083c756cc200000000000000000000000000000000000000000000000002a303fe4b530000000000000000000000000000646dc5fc4009c4c84a424b6ae0f494b374bae1ce0000000000000000000000000000000000000000000000000000000069a38ffc000000000000000000000000000000000000000000000000000000006a1650d20000000000000000000000000000000000000000000000000000000000000002000000000000000000000000000000000000000000000000000000000000001c0d1ae918d04a6414355a0f0a06afe0d8ce46c253cf9614f53526be0840a77f602f2c713bcd9d3fc42831aad1711a45c40226101249699dc158d099fd8fa5cd3b",
        "nonce": "0x28",
        "chainId": "0x7a69"
      },
      "additionalContracts": [],
      "isFixedGasLimit": false
    }
  ],
  "receipts": [
    {
      "status": "0x1",
      "cumulativeGasUsed": "0x20206",
      "logs": [
        {
          "address": "0xc02aaa39b223fe8d0a0e5c4f27ead9083c756cc2",
          "topics": [
            "0xddf252ad1be2c89b69c2b068fc378daa952ba7f163c4a11628f55a4df523b3ef",
            "0x000000000000000000000000646dc5fc4009c4c84a424b6ae0f494b374bae1ce",
            "0x0000000000000000000000001804c8ab1f12e6bbf3894d4083f33e07309d1f38"
          ],
          "data": "0x0000000000000000000000000000000000000000000000000006c00a3912c000",
          "blockHash": "0x3e5ffd1bfc0d178bf745a316e03a0284bce5cb53513d31316ae000256cda0b55",
          "blockNumber": "0x17b8328",
          "blockTimestamp": "0x69e268a8",
          "transactionHash": "0x07870360e71961a502fde8e80f56b05b96bf4c7e7f4807b1ecd0b788520536bb",
          "transactionIndex": "0x0",
          "logIndex": "0x0",
          "removed": false
        },
        {
          "address": "0xc02aaa39b223fe8d0a0e5c4f27ead9083c756cc2",
          "topics": [
            "0xddf252ad1be2c89b69c2b068fc378daa952ba7f163c4a11628f55a4df523b3ef",
            "0x000000000000000000000000646dc5fc4009c4c84a424b6ae0f494b374bae1ce",
            "0x0000000000000000000000004b75aec40561c03e03d4d1c421df194a3031a134"
          ],
          "data": "0x000000000000000000000000000000000000000000000000029c43f412404000",
          "blockHash": "0x3e5ffd1bfc0d178bf745a316e03a0284bce5cb53513d31316ae000256cda0b55",
          "blockNumber": "0x17b8328",
          "blockTimestamp": "0x69e268a8",
          "transactionHash": "0x07870360e71961a502fde8e80f56b05b96bf4c7e7f4807b1ecd0b788520536bb",
          "transactionIndex": "0x0",
          "logIndex": "0x1",
          "removed": false
        },
        {
          "address": "0xa5f104f8f78d5ba9aec4a383c0927337fd4e997b",
          "topics": [
            "0xddf252ad1be2c89b69c2b068fc378daa952ba7f163c4a11628f55a4df523b3ef",
            "0x0000000000000000000000004b75aec40561c03e03d4d1c421df194a3031a134",
            "0x000000000000000000000000646dc5fc4009c4c84a424b6ae0f494b374bae1ce",
            "0x0000000000000000000000000000000000000000000000000000000000000181"
          ],
          "data": "0x",
          "blockHash": "0x3e5ffd1bfc0d178bf745a316e03a0284bce5cb53513d31316ae000256cda0b55",
          "blockNumber": "0x17b8328",
          "blockTimestamp": "0x69e268a8",
          "transactionHash": "0x07870360e71961a502fde8e80f56b05b96bf4c7e7f4807b1ecd0b788520536bb",
          "transactionIndex": "0x0",
          "logIndex": "0x2",
          "removed": false
        },
        {
          "address": "0x8fa71914948544c60e3379064567dcf0e6564d27",
          "topics": [
            "0xc0ac3eb1e8caef05b202043f34de8e3173fab712167584f7a2a9f4c302bd0e9c",
            "0x30ae22a57c56203132aff8bf5f7cccc021d43176711110575b644138bb7ea8e4",
            "0x000000000000000000000000a5f104f8f78d5ba9aec4a383c0927337fd4e997b",
            "0x0000000000000000000000000000000000000000000000000000000000000181"
          ],
          "data": "0x0000000000000000000000004b75aec40561c03e03d4d1c421df194a3031a134000000000000000000000000646dc5fc4009c4c84a424b6ae0f494b374bae1ce000000000000000000000000c02aaa39b223fe8d0a0e5c4f27ead9083c756cc200000000000000000000000000000000000000000000000002a303fe4b530000",
          "blockHash": "0x3e5ffd1bfc0d178bf745a316e03a0284bce5cb53513d31316ae000256cda0b55",
          "blockNumber": "0x17b8328",
          "blockTimestamp": "0x69e268a8",
          "transactionHash": "0x07870360e71961a502fde8e80f56b05b96bf4c7e7f4807b1ecd0b788520536bb",
          "transactionIndex": "0x0",
          "logIndex": "0x3",
          "removed": false
        }
      ],
      "logsBloom": "0x00000000000000000000010020000000000000000002000000000000000000000000000000000000000000000000000002000000090000000000000000100000000000000000000000010008000000000000000000000000080000000000000000000000000000000005000000000000000000000000000000000010200000000800000000040000000004000000000001000000000000000000000000002080000000200000000400000000000400000000400004000080220000000000000000000002000004000000000000000000000000000000000080000000000000000100200000000000000000000000000000000000000000000000000000000000",
      "type": "0x2",
      "transactionHash": "0x07870360e71961a502fde8e80f56b05b96bf4c7e7f4807b1ecd0b788520536bb",
      "transactionIndex": "0x0",
      "blockHash": "0x3e5ffd1bfc0d178bf745a316e03a0284bce5cb53513d31316ae000256cda0b55",
      "blockNumber": "0x17b8328",
      "gasUsed": "0x20206",
      "effectiveGasPrice": "0x1ba81c",
      "blobGasPrice": "0x1",
      "from": "0x4b75aec40561c03e03d4d1c421df194a3031a134",
      "to": "0x8fa71914948544c60e3379064567dcf0e6564d27",
      "contractAddress": null
    }
  ],
  "libraries": [],
  "pending": [],
  "returns": {},
  "timestamp": 1778506416391,
  "chain": 31337,
  "commit": "59e30a9"
}