{
  "transactions": [
    {
      "hash": "0x9f695e59a16e2127e5f42e58e32fa1ce4d33abd6b88bf75d82e507b0350536c0",
      "transactionType": "CALL",
      "contractName": null,
      "contractAddress": "0x8fa71914948544c60e3379064567dcf0e6564d27",
      "function": "settle((uint256,address),(uint8,bool,address,uint256,address,uint256,address,uint64,uint64,uint256),(uint8,bytes32,bytes32))",
      "arguments": [
        "(188, 0x08312E82df563A1639b81f49bb41247759700e30)",
        "(1, false, 0xA5f104F8f78d5ba9AEC4a383c0927337Fd4E997B, 188, 0xC02aaA39b223FE8D0A0e5C4F27eAD9083C756Cc2, 19000000000000000, 0xcbe5659df21Cbcfabe4da962F7a9081F26B3ed82, 1772717544, 1779456742, 23)",
        "(27, 0xc6669fd765bdae9748d954573620cf7d0399cade3efd05f88816ffc31429ca83, 0x7f0fe90493ee07eab21320a1e5067fb14e1b31a6164e1b72e16368ec48986fca)"
      ],
      "transaction": {
        "from": "0x08312e82df563a1639b81f49bb41247759700e30",
        "to": "0x8fa71914948544c60e3379064567dcf0e6564d27",
        "gas": "0x2ef81",
        "value": "0x0",
        "input": "0x3bae3e7900000000000000000000000000000000000000000000000000000000000000bc00000000000000000000000008312e82df563a1639b81f49bb41247759700e3000000000000000000000000000000000000000000000000000000000000000010000000000000000000000000000000000000000000000000000000000000000000000000000000000000000a5f104f8f78d5ba9aec4a383c0927337fd4e997b00000000000000000000000000000000000000000000000000000000000000bc000000000000000000000000c02aaa39b223fe8d0a0e5c4f27ead9083c756cc2000000000000000000000000000000000000000000000000004380663abb8000000000000000000000000000cbe5659df21cbcfabe4da962f7a9081f26b3ed820000000000000000000000000000000000000000000000000000000069a985e8000000000000000000000000000000000000000000000000000000006a105ae60000000000000000000000000000000000000000000000000000000000000017000000000000000000000000000000000000000000000000000000000000001bc6669fd765bdae9748d954573620cf7d0399cade3efd05f88816ffc31429ca837f0fe90493ee07eab21320a1e5067fb14e1b31a6164e1b72e16368ec48986fca",
        "nonce": "0x42",
        "chainId": "0x7a69"
      },
      "additionalContracts": [],
      "isFixedGasLimit": false
    }
  ],
  "receipts": [
    {
      "status": "0x1",
      "cumulativeGasUsed": "0x201da",
      "logs": [
        {
          "address": "0xc02aaa39b223fe8d0a0e5c4f27ead9083c756cc2",
          "topics": [
            "0xddf252ad1be2c89b69c2b068fc378daa952ba7f163c4a11628f55a4df523b3ef",
            "0x000000000000000000000000cbe5659df21cbcfabe4da962f7a9081f26b3ed82",
            "0x0000000000000000000000001804c8ab1f12e6bbf3894d4083f33e07309d1f38"
          ],
          "data": "0x0000000000000000000000000000000000000000000000000000accdd281e000",
          "blockHash": "0xa710228a60ac6399457a689a54effd871c74383317bce56181905a584ef521bf",
          "blockNumber": "0x17b8397",
          "blockTimestamp": "0x69fdf833",
          "transactionHash": "0x9f695e59a16e2127e5f42e58e32fa1ce4d33abd6b88bf75d82e507b0350536c0",
          "transactionIndex": "0x0",
          "logIndex": "0x0",
          "removed": false
        },
        {
          "address": "0xc02aaa39b223fe8d0a0e5c4f27ead9083c756cc2",
          "topics": [
            "0xddf252ad1be2c89b69c2b068fc378daa952ba7f163c4a11628f55a4df523b3ef",
            "0x000000000000000000000000cbe5659df21cbcfabe4da962f7a9081f26b3ed82",
            "0x00000000000000000000000008312e82df563a1639b81f49bb41247759700e30"
          ],
          "data": "0x0000000000000000000000000000000000000000000000000042d3986839a000",
          "blockHash": "0xa710228a60ac6399457a689a54effd871c74383317bce56181905a584ef521bf",
          "blockNumber": "0x17b8397",
          "blockTimestamp": "0x69fdf833",
          "transactionHash": "0x9f695e59a16e2127e5f42e58e32fa1ce4d33abd6b88bf75d82e507b0350536c0",
          "transactionIndex": "0x0",
          "logIndex": "0x1",
          "removed": false
        },
        {
          "address": "0xa5f104f8f78d5ba9aec4a383c0927337fd4e997b",
          "topics": [
            "0xddf252ad1be2c89b69c2b068fc378daa952ba7f163c4a11628f55a4df523b3ef",
            "0x00000000000000000000000008312e82df563a1639b81f49bb41247759700e30",
            "0x000000000000000000000000cbe5659df21cbcfabe4da962f7a9081f26b3ed82",
            "0x00000000000000000000000000000000000000000000000000000000000000bc"
          ],
          "data": "0x",
          "blockHash": "0xa710228a60ac6399457a689a54effd871c74383317bce56181905a584ef521bf",
          "blockNumber": "0x17b8397",
          "blockTimestamp": "0x69fdf833",
          "transactionHash": "0x9f695e59a16e2127e5f42e58e32fa1ce4d33abd6b88bf75d82e507b0350536c0",
          "transactionIndex": "0x0",
          "logIndex": "0x2",
          "removed": false
        },
        {
          "address": "0x8fa71914948544c60e3379064567dcf0e6564d27",
          "topics": [
            "0xc0ac3eb1e8caef05b202043f34de8e3173fab712167584f7a2a9f4c302bd0e9c",
            "0x3f82ba921f6c82fb4dab4b05d7a122038084a33d139d9938c9968badc326dd65",
            "0x000000000000000000000000a5f104f8f78d5ba9aec4a383c0927337fd4e997b",
            "0x00000000000000000000000000000000000000000000000000000000000000bc"
          ],
          "data": "0x00000000000000000000000008312e82df563a1639b81f49bb41247759700e30000000000000000000000000cbe5659df21cbcfabe4da962f7a9081f26b3ed82000000000000000000000000c02aaa39b223fe8d0a0e5c4f27ead9083c756cc2000000000000000000000000000000000000000000000000004380663abb8000",
          "blockHash": "0xa710228a60ac6399457a689a54effd871c74383317bce56181905a584ef521bf",
          "blockNumber": "0x17b8397",
          "blockTimestamp": "0x69fdf833",
          "transactionHash": "0x9f695e59a16e2127e5f42e58e32fa1ce4d33abd6b88bf75d82e507b0350536c0",
          "transactionIndex": "0x0",
          "logIndex": "0x3",
          "removed": false
        }
      ],
      "logsBloom": "0x00000000000000000000010001000000000000000000000000000000800000000000000000100000000000000000000002000000080000000000000000100000001000000000000000010008000000000000000000000000080000000000000000000000000000000001000000000001000000000000000000000010200000000800000000040000000004000000000000000000000000000000000000000000000000200000000400000000000000000000000000000080000000000000000000000002000004000400000000000000000000000000060080000000000000000100200000000000000000000000000000000000004080020000000000000000",
      "type": "0x2",
      "transactionHash": "0x9f695e59a16e2127e5f42e58e32fa1ce4d33abd6b88bf75d82e507b0350536c0",
      "transactionIndex": "0x0",
      "blockHash": "0xa710228a60ac6399457a689a54effd871c74383317bce56181905a584ef521bf",
      "blockNumber": "0x17b8397",
      "gasUsed": "0x201da",
      "effectiveGasPrice": "0x1ba81c",
      "blobGasPrice": "0x1",
      "from": "0x08312e82df563a1639b81f49bb41247759700e30",
      "to": "0x8fa71914948544c60e3379064567dcf0e6564d27",
      "contractAddress": null
    }
  ],
  "libraries": [],
  "pending": [],
  "returns": {},
  "timestamp": 1778506541585,
  "chain": 31337,
  "commit": "59e30a9"
}