{
  "transactions": [
    {
      "hash": "0x7237ce6e6373234c13cac0c471bed92cf1e604cb988a50c20cc3e749f71a561e",
      "transactionType": "CALL",
      "contractName": null,
      "contractAddress": "0x8fa71914948544c60e3379064567dcf0e6564d27",
      "function": "settle((uint256,address),(uint8,bool,address,uint256,address,uint256,address,uint64,uint64,uint256),(uint8,bytes32,bytes32))",
      "arguments": [
        "(213, 0xE233420d38D286C2F2Cf8dEe6564F132FBDB09DB)",
        "(1, false, 0xA5f104F8f78d5ba9AEC4a383c0927337Fd4E997B, 213, 0xC02aaA39b223FE8D0A0e5C4F27eAD9083C756Cc2, 24000000000000000, 0x2c2dbA75492E0C4A1D10B41303167aEC59586C9c, 1772044191, 1780130095, 13)",
        "(27, 0xa2a37cdd57e56915dfb3e6fc92896f15fb5a2aa4b84344a4c162d8c996b9a83e, 0x43ca7a355b5f86e4d17fbb8b916bf3afb079b58ea808fb319dcd5ac68ccc395b)"
      ],
      "transaction": {
        "from": "0xe233420d38d286c2f2cf8dee6564f132fbdb09db",
        "to": "0x8fa71914948544c60e3379064567dcf0e6564d27",
        "gas": "0x2c5b0",
        "value": "0x0",
        "input": "0x3bae3e7900000000000000000000000000000000000000000000000000000000000000d5000000000000000000000000e233420d38d286c2f2cf8dee6564f132fbdb09db00000000000000000000000000000000000000000000000000000000000000010000000000000000000000000000000000000000000000000000000000000000000000000000000000000000a5f104f8f78d5ba9aec4a383c0927337fd4e997b00000000000000000000000000000000000000000000000000000000000000d5000000000000000000000000c02aaa39b223fe8d0a0e5c4f27ead9083c756cc2000000000000000000000000000000000000000000000000005543df729c00000000000000000000000000002c2dba75492e0c4a1d10b41303167aec59586c9c00000000000000000000000000000000000000000000000000000000699f3f9f000000000000000000000000000000000000000000000000000000006a1aa12f000000000000000000000000000000000000000000000000000000000000000d000000000000000000000000000000000000000000000000000000000000001ba2a37cdd57e56915dfb3e6fc92896f15fb5a2aa4b84344a4c162d8c996b9a83e43ca7a355b5f86e4d17fbb8b916bf3afb079b58ea808fb319dcd5ac68ccc395b",
        "nonce": "0x3c",
        "chainId": "0x7a69"
      },
      "additionalContracts": [],
      "isFixedGasLimit": false
    }
  ],
  "receipts": [
    {
      "status": "0x1",
      "cumulativeGasUsed": "0x201ce",
      "logs": [
        {
          "address": "0xc02aaa39b223fe8d0a0e5c4f27ead9083c756cc2",
          "topics": [
            "0xddf252ad1be2c89b69c2b068fc378daa952ba7f163c4a11628f55a4df523b3ef",
            "0x0000000000000000000000002c2dba75492e0c4a1d10b41303167aec59586c9c",
            "0x0000000000000000000000001804c8ab1f12e6bbf3894d4083f33e07309d1f38"
          ],
          "data": "0x0000000000000000000000000000000000000000000000000000da475abf0000",
          "blockHash": "0xef85dad71dd2392395caeb48353b9b1e7cedd65a155c14568fcde798dbfb21b7",
          "blockNumber": "0x17b83a4",
          "blockTimestamp": "0x6a012071",
          "transactionHash": "0x7237ce6e6373234c13cac0c471bed92cf1e604cb988a50c20cc3e749f71a561e",
          "transactionIndex": "0x0",
          "logIndex": "0x0",
          "removed": false
        },
        {
          "address": "0xc02aaa39b223fe8d0a0e5c4f27ead9083c756cc2",
          "topics": [
            "0xddf252ad1be2c89b69c2b068fc378daa952ba7f163c4a11628f55a4df523b3ef",
            "0x0000000000000000000000002c2dba75492e0c4a1d10b41303167aec59586c9c",
            "0x000000000000000000000000e233420d38d286c2f2cf8dee6564f132fbdb09db"
          ],
          "data": "0x0000000000000000000000000000000000000000000000000054699817dd0000",
          "blockHash": "0xef85dad71dd2392395caeb48353b9b1e7cedd65a155c14568fcde798dbfb21b7",
          "blockNumber": "0x17b83a4",
          "blockTimestamp": "0x6a012071",
          "transactionHash": "0x7237ce6e6373234c13cac0c471bed92cf1e604cb988a50c20cc3e749f71a561e",
          "transactionIndex": "0x0",
          "logIndex": "0x1",
          "removed": false
        },
        {
          "address": "0xa5f104f8f78d5ba9aec4a383c0927337fd4e997b",
          "topics": [
            "0xddf252ad1be2c89b69c2b068fc378daa952ba7f163c4a11628f55a4df523b3ef",
            "0x000000000000000000000000e233420d38d286c2f2cf8dee6564f132fbdb09db",
            "0x0000000000000000000000002c2dba75492e0c4a1d10b41303167aec59586c9c",
            "0x00000000000000000000000000000000000000000000000000000000000000d5"
          ],
          "data": "0x",
          "blockHash": "0xef85dad71dd2392395caeb48353b9b1e7cedd65a155c14568fcde798dbfb21b7",
          "blockNumber": "0x17b83a4",
          "blockTimestamp": "0x6a012071",
          "transactionHash": "0x7237ce6e6373234c13cac0c471bed92cf1e604cb988a50c20cc3e749f71a561e",
          "transactionIndex": "0x0",
          "logIndex": "0x2",
          "removed": false
        },
        {
          "address": "0x8fa71914948544c60e3379064567dcf0e6564d27",
          "topics": [
            "0xc0ac3eb1e8caef05b202043f34de8e3173fab712167584f7a2a9f4c302bd0e9c",
            "0x5eda956b05eaedcb4f99569efcf4c33231754dfd6cba818ff97b2e697bffda60",
            "0x000000000000000000000000a5f104f8f78d5ba9aec4a383c0927337fd4e997b",
            "0x00000000000000000000000000000000000000000000000000000000000000d5"
          ],
          "data": "0x000000000000000000000000e233420d38d286c2f2cf8dee6564f132fbdb09db0000000000000000000000002c2dba75492e0c4a1d10b41303167aec59586c9c000000000000000000000000c02aaa39b223fe8d0a0e5c4f27ead9083c756cc2000000000000000000000000000000000000000000000000005543df729c0000",
          "blockHash": "0xef85dad71dd2392395caeb48353b9b1e7cedd65a155c14568fcde798dbfb21b7",
          "blockNumber": "0x17b83a4",
          "blockTimestamp": "0x6a012071",
          "transactionHash": "0x7237ce6e6373234c13cac0c471bed92cf1e604cb988a50c20cc3e749f71a561e",
          "transactionIndex": "0x0",
          "logIndex": "0x3",
          "removed": false
        }
      ],
      "logsBloom": "0x00000000000000000000010000000000000000000000000000000000000000000000000000000000000000000000000002000000080000000000000800100000000202000000000000010008000000000000000000000000080000000000000000000001000004000001000000000000000000000000000000000010200000000800000000040000000004000000000000000000000000000000000000000000000000200000000400000000000080004000001000000080000000000000000000000012000004000000000000000020000000000002000080000000000000000100200000000000000000000800000000000000000000000000000000000000",
      "type": "0x2",
      "transactionHash": "0x7237ce6e6373234c13cac0c471bed92cf1e604cb988a50c20cc3e749f71a561e",
      "transactionIndex": "0x0",
      "blockHash": "0xef85dad71dd2392395caeb48353b9b1e7cedd65a155c14568fcde798dbfb21b7",
      "blockNumber": "0x17b83a4",
      "gasUsed": "0x201ce",
      "effectiveGasPrice": "0x1ba81c",
      "blobGasPrice": "0x1",
      "from": "0xe233420d38d286c2f2cf8dee6564f132fbdb09db",
      "to": "0x8fa71914948544c60e3379064567dcf0e6564d27",
      "contractAddress": null
    }
  ],
  "libraries": [],
  "pending": [],
  "returns": {},
  "timestamp": 1778506553624,
  "chain": 31337,
  "commit": "59e30a9"
}