{
  "transactions": [
    {
      "hash": "0x0743ceeed7992b04674e2c125f27760f2cfa4e9fae7e312da57f8246307de319",
      "transactionType": "CALL",
      "contractName": null,
      "contractAddress": "0x8fa71914948544c60e3379064567dcf0e6564d27",
      "function": "settle((uint256,address),(uint8,bool,address,uint256,address,uint256,address,uint64,uint64,uint256),(uint8,bytes32,bytes32))",
      "arguments": [
        "(0, 0x646dC5Fc4009C4C84a424B6aE0f494b374bAE1Ce)",
        "(0, false, 0xA5f104F8f78d5ba9AEC4a383c0927337Fd4E997B, 226, 0xC02aaA39b223FE8D0A0e5C4F27eAD9083C756Cc2, 25000000000000000, 0xa382b0E75C192D9CDF5c084E58b750Cea7761Bd0, 1772708116, 1779466170, 12)",
        "(28, 0x2300c3af3c2223b014e2056064f0d68aafa4ba75513c0a53cde8e35be68698b7, 0x07642816ba151f396a7f8f38b9397f672aba69b770d0d4e8170a09c1a0749d98)"
      ],
      "transaction": {
        "from": "0x646dc5fc4009c4c84a424b6ae0f494b374bae1ce",
        "to": "0x8fa71914948544c60e3379064567dcf0e6564d27",
        "gas": "0x2c4c7",
        "value": "0x0",
        "input": "0x3bae3e790000000000000000000000000000000000000000000000000000000000000000000000000000000000000000646dc5fc4009c4c84a424b6ae0f494b374bae1ce00000000000000000000000000000000000000000000000000000000000000000000000000000000000000000000000000000000000000000000000000000000000000000000000000000000a5f104f8f78d5ba9aec4a383c0927337fd4e997b00000000000000000000000000000000000000000000000000000000000000e2000000000000000000000000c02aaa39b223fe8d0a0e5c4f27ead9083c756cc20000000000000000000000000000000000000000000000000058d15e17628000000000000000000000000000a382b0e75c192d9cdf5c084e58b750cea7761bd00000000000000000000000000000000000000000000000000000000069a96114000000000000000000000000000000000000000000000000000000006a107fba000000000000000000000000000000000000000000000000000000000000000c000000000000000000000000000000000000000000000000000000000000001c2300c3af3c2223b014e2056064f0d68aafa4ba75513c0a53cde8e35be68698b707642816ba151f396a7f8f38b9397f672aba69b770d0d4e8170a09c1a0749d98",
        "nonce": "0x61",
        "chainId": "0x7a69"
      },
      "additionalContracts": [],
      "isFixedGasLimit": false
    }
  ],
  "receipts": [
    {
      "status": "0x1",
      "cumulativeGasUsed": "0x20125",
      "logs": [
        {
          "address": "0xc02aaa39b223fe8d0a0e5c4f27ead9083c756cc2",
          "topics": [
            "0xddf252ad1be2c89b69c2b068fc378daa952ba7f163c4a11628f55a4df523b3ef",
            "0x000000000000000000000000646dc5fc4009c4c84a424b6ae0f494b374bae1ce",
            "0x0000000000000000000000001804c8ab1f12e6bbf3894d4083f33e07309d1f38"
          ],
          "data": "0x0000000000000000000000000000000000000000000000000000e35fa931a000",
          "blockHash": "0xb1e7dda61f1f7cc9e367596a92243fb43a64ad7328ab376235b9f403c7433fa0",
          "blockNumber": "0x17b8398",
          "blockTimestamp": "0x69fe365f",
          "transactionHash": "0x0743ceeed7992b04674e2c125f27760f2cfa4e9fae7e312da57f8246307de319",
          "transactionIndex": "0x0",
          "logIndex": "0x0",
          "removed": false
        },
        {
          "address": "0xc02aaa39b223fe8d0a0e5c4f27ead9083c756cc2",
          "topics": [
            "0xddf252ad1be2c89b69c2b068fc378daa952ba7f163c4a11628f55a4df523b3ef",
            "0x000000000000000000000000646dc5fc4009c4c84a424b6ae0f494b374bae1ce",
            "0x000000000000000000000000a382b0e75c192d9cdf5c084e58b750cea7761bd0"
          ],
          "data": "0x0000000000000000000000000000000000000000000000000057edfe6e30e000",
          "blockHash": "0xb1e7dda61f1f7cc9e367596a92243fb43a64ad7328ab376235b9f403c7433fa0",
          "blockNumber": "0x17b8398",
          "blockTimestamp": "0x69fe365f",
          "transactionHash": "0x0743ceeed7992b04674e2c125f27760f2cfa4e9fae7e312da57f8246307de319",
          "transactionIndex": "0x0",
          "logIndex": "0x1",
          "removed": false
        },
        {
          "address": "0xa5f104f8f78d5ba9aec4a383c0927337fd4e997b",
          "topics": [
            "0xddf252ad1be2c89b69c2b068fc378daa952ba7f163c4a11628f55a4df523b3ef",
            "0x000000000000000000000000a382b0e75c192d9cdf5c084e58b750cea7761bd0",
            "0x000000000000000000000000646dc5fc4009c4c84a424b6ae0f494b374bae1ce",
            "0x00000000000000000000000000000000000000000000000000000000000000e2"
          ],
          "data": "0x",
          "blockHash": "0xb1e7dda61f1f7cc9e367596a92243fb43a64ad7328ab376235b9f403c7433fa0",
          "blockNumber": "0x17b8398",
          "blockTimestamp": "0x69fe365f",
          "transactionHash": "0x0743ceeed7992b04674e2c125f27760f2cfa4e9fae7e312da57f8246307de319",
          "transactionIndex": "0x0",
          "logIndex": "0x2",
          "removed": false
        },
        {
          "address": "0x8fa71914948544c60e3379064567dcf0e6564d27",
          "topics": [
            "0xc0ac3eb1e8caef05b202043f34de8e3173fab712167584f7a2a9f4c302bd0e9c",
            "0x6d2e4c0079f15c79a0bafd9114a5c29705c0b524393b104cdc2b6deb9595288a",
            "0x000000000000000000000000a5f104f8f78d5ba9aec4a383c0927337fd4e997b",
            "0x00000000000000000000000000000000000000000000000000000000000000e2"
          ],
          "data": "0x000000000000000000000000a382b0e75c192d9cdf5c084e58b750cea7761bd0000000000000000000000000646dc5fc4009c4c84a424b6ae0f494b374bae1ce000000000000000000000000c02aaa39b223fe8d0a0e5c4f27ead9083c756cc20000000000000000000000000000000000000000000000000058d15e17628000",
          "blockHash": "0xb1e7dda61f1f7cc9e367596a92243fb43a64ad7328ab376235b9f403c7433fa0",
          "blockNumber": "0x17b8398",
          "blockTimestamp": "0x69fe365f",
          "transactionHash": "0x0743ceeed7992b04674e2c125f27760f2cfa4e9fae7e312da57f8246307de319",
          "transactionIndex": "0x0",
          "logIndex": "0x3",
          "removed": false
        }
      ],
      "logsBloom": "0x00000000000000000000010000000000000000000002000000000000000000000000000000200000000000400000000002000000090000000000000000100000000000080000000000010008000000000200000000000000080000000000000000000000000000000005000000000000000000000000040000000010200000000800000000040000000004000000000000100000000000000000000000000000000000200000000400000000000000000000000000000080000000000000000000000002000004000000000000000000000000000000000080001000000000000100200000000000000000000000000000000000100000000000000000010000",
      "type": "0x2",
      "transactionHash": "0x0743ceeed7992b04674e2c125f27760f2cfa4e9fae7e312da57f8246307de319",
      "transactionIndex": "0x0",
      "blockHash": "0xb1e7dda61f1f7cc9e367596a92243fb43a64ad7328ab376235b9f403c7433fa0",
      "blockNumber": "0x17b8398",
      "gasUsed": "0x20125",
      "effectiveGasPrice": "0x1ba81c",
      "blobGasPrice": "0x1",
      "from": "0x646dc5fc4009c4c84a424b6ae0f494b374bae1ce",
      "to": "0x8fa71914948544c60e3379064567dcf0e6564d27",
      "contractAddress": null
    }
  ],
  "libraries": [],
  "pending": [],
  "returns": {},
  "timestamp": 1778506542395,
  "chain": 31337,
  "commit": "59e30a9"
}