{
  "transactions": [
    {
      "hash": "0xe749361b5afd57393906a448db9ba88d23ce29543a094589b7e1f1a99786e023",
      "transactionType": "CALL",
      "contractName": null,
      "contractAddress": "0x73973d222c3fda5b2563d269da9e19cb125000f4",
      "function": "settle((uint256,address),(uint8,bool,address,uint256,address,uint256,address,uint64,uint64,uint256),(uint8,bytes32,bytes32))",
      "arguments": [
        "(0, 0x646dC5Fc4009C4C84a424B6aE0f494b374bAE1Ce)",
        "(0, false, 0x38D4dE42C9c5640A2799B372D27B01957E0a3673, 335, 0xC02aaA39b223FE8D0A0e5C4F27eAD9083C756Cc2, 153000000000000000, 0x1302F142Fc55B165647d3Bd5dec227f569A2A907, 1773198275, 1778867363, 1)",
        "(27, 0xa1a199685ad96459a426f57ed2d3cca67d776accece7887b738215c739bffc1e, 0x6be392377885e381459aa75826c3a3c0a92f4b6fe4029faf9ef799eb003a78b6)"
      ],
      "transaction": {
        "from": "0x646dc5fc4009c4c84a424b6ae0f494b374bae1ce",
        "to": "0x73973d222c3fda5b2563d269da9e19cb125000f4",
        "gas": "0x2ee7f",
        "value": "0x0",
        "input": "0x3bae3e790000000000000000000000000000000000000000000000000000000000000000000000000000000000000000646dc5fc4009c4c84a424b6ae0f494b374bae1ce0000000000000000000000000000000000000000000000000000000000000000000000000000000000000000000000000000000000000000000000000000000000000000000000000000000038d4de42c9c5640a2799b372d27b01957e0a3673000000000000000000000000000000000000000000000000000000000000014f000000000000000000000000c02aaa39b223fe8d0a0e5c4f27ead9083c756cc2000000000000000000000000000000000000000000000000021f90b07aa280000000000000000000000000001302f142fc55b165647d3bd5dec227f569a2a9070000000000000000000000000000000000000000000000000000000069b0dbc3000000000000000000000000000000000000000000000000000000006a075ca30000000000000000000000000000000000000000000000000000000000000001000000000000000000000000000000000000000000000000000000000000001ba1a199685ad96459a426f57ed2d3cca67d776accece7887b738215c739bffc1e6be392377885e381459aa75826c3a3c0a92f4b6fe4029faf9ef799eb003a78b6",
        "nonce": "0x8b",
        "chainId": "0x7a69"
      },
      "additionalContracts": [],
      "isFixedGasLimit": false
    }
  ],
  "receipts": [
    {
      "status": "0x1",
      "cumulativeGasUsed": "0x20129",
      "logs": [
        {
          "address": "0xc02aaa39b223fe8d0a0e5c4f27ead9083c756cc2",
          "topics": [
            "0xddf252ad1be2c89b69c2b068fc378daa952ba7f163c4a11628f55a4df523b3ef",
            "0x000000000000000000000000646dc5fc4009c4c84a424b6ae0f494b374bae1ce",
            "0x0000000000000000000000001804c8ab1f12e6bbf3894d4083f33e07309d1f38"
          ],
          "data": "0x00000000000000000000000000000000000000000000000000056f86e281a000",
          "blockHash": "0xe22febd54ae36e80dfe947c818ec470732536157b2d23421a87312e24ff10f66",
          "blockNumber": "0x17b7391",
          "blockTimestamp": "0x69de04d0",
          "transactionHash": "0xe749361b5afd57393906a448db9ba88d23ce29543a094589b7e1f1a99786e023",
          "transactionIndex": "0x0",
          "logIndex": "0x0",
          "removed": false
        },
        {
          "address": "0xc02aaa39b223fe8d0a0e5c4f27ead9083c756cc2",
          "topics": [
            "0xddf252ad1be2c89b69c2b068fc378daa952ba7f163c4a11628f55a4df523b3ef",
            "0x000000000000000000000000646dc5fc4009c4c84a424b6ae0f494b374bae1ce",
            "0x0000000000000000000000001302f142fc55b165647d3bd5dec227f569a2a907"
          ],
          "data": "0x000000000000000000000000000000000000000000000000021a21299820e000",
          "blockHash": "0xe22febd54ae36e80dfe947c818ec470732536157b2d23421a87312e24ff10f66",
          "blockNumber": "0x17b7391",
          "blockTimestamp": "0x69de04d0",
          "transactionHash": "0xe749361b5afd57393906a448db9ba88d23ce29543a094589b7e1f1a99786e023",
          "transactionIndex": "0x0",
          "logIndex": "0x1",
          "removed": false
        },
        {
          "address": "0x38d4de42c9c5640a2799b372d27b01957e0a3673",
          "topics": [
            "0xddf252ad1be2c89b69c2b068fc378daa952ba7f163c4a11628f55a4df523b3ef",
            "0x0000000000000000000000001302f142fc55b165647d3bd5dec227f569a2a907",
            "0x000000000000000000000000646dc5fc4009c4c84a424b6ae0f494b374bae1ce",
            "0x000000000000000000000000000000000000000000000000000000000000014f"
          ],
          "data": "0x",
          "blockHash": "0xe22febd54ae36e80dfe947c818ec470732536157b2d23421a87312e24ff10f66",
          "blockNumber": "0x17b7391",
          "blockTimestamp": "0x69de04d0",
          "transactionHash": "0xe749361b5afd57393906a448db9ba88d23ce29543a094589b7e1f1a99786e023",
          "transactionIndex": "0x0",
          "logIndex": "0x2",
          "removed": false
        },
        {
          "address": "0x73973d222c3fda5b2563d269da9e19cb125000f4",
          "topics": [
            "0xc0ac3eb1e8caef05b202043f34de8e3173fab712167584f7a2a9f4c302bd0e9c",
            "0x907092962f9416a05b5ab2021bf7b087e5107bc7ff393734e73bb33da107e003",
            "0x00000000000000000000000038d4de42c9c5640a2799b372d27b01957e0a3673",
            "0x000000000000000000000000000000000000000000000000000000000000014f"
          ],
          "data": "0x0000000000000000000000001302f142fc55b165647d3bd5dec227f569a2a907000000000000000000000000646dc5fc4009c4c84a424b6ae0f494b374bae1ce000000000000000000000000c02aaa39b223fe8d0a0e5c4f27ead9083c756cc2000000000000000000000000000000000000000000000000021f90b07aa28000",
          "blockHash": "0xe22febd54ae36e80dfe947c818ec470732536157b2d23421a87312e24ff10f66",
          "blockNumber": "0x17b7391",
          "blockTimestamp": "0x69de04d0",
          "transactionHash": "0xe749361b5afd57393906a448db9ba88d23ce29543a094589b7e1f1a99786e023",
          "transactionIndex": "0x0",
          "logIndex": "0x3",
          "removed": false
        }
      ],
      "logsBloom": "0x00000000000000000000000000000000000000000002000000000000000000000000000000000000000000004000020002000000090000000004100000100000000000000000011021000008000000000000000000000000000000000010000000000000000000000005000000000008000000000000000000000010000000000000000000000000000004000000000000000000000008000000000000000020000000000000000000000000000100000000000000000080400000000000000000000002000004000000000240000000000000000000000000000000000000000100200000000000000040000000000000000000000000000000000000000000",
      "type": "0x2",
      "transactionHash": "0xe749361b5afd57393906a448db9ba88d23ce29543a094589b7e1f1a99786e023",
      "transactionIndex": "0x0",
      "blockHash": "0xe22febd54ae36e80dfe947c818ec470732536157b2d23421a87312e24ff10f66",
      "blockNumber": "0x17b7391",
      "gasUsed": "0x20129",
      "effectiveGasPrice": "0xf4248",
      "blobGasPrice": "0x1",
      "from": "0x646dc5fc4009c4c84a424b6ae0f494b374bae1ce",
      "to": "0x73973d222c3fda5b2563d269da9e19cb125000f4",
      "contractAddress": null
    }
  ],
  "libraries": [],
  "pending": [],
  "returns": {},
  "timestamp": 1778453692061,
  "chain": 31337,
  "commit": "f87d399"
}