{
  "transactions": [
    {
      "hash": "0x56c64a253f0fb14e03c9e2871c2db980805efd8febd90c004091aaf754a30e83",
      "transactionType": "CALL",
      "contractName": null,
      "contractAddress": "0x8fa71914948544c60e3379064567dcf0e6564d27",
      "function": "settle((uint256,address),(uint8,bool,address,uint256,address,uint256,address,uint64,uint64,uint256),(uint8,bytes32,bytes32))",
      "arguments": [
        "(0, 0x4b75AeC40561C03e03d4D1C421dF194a3031A134)",
        "(0, false, 0xA5f104F8f78d5ba9AEC4a383c0927337Fd4E997B, 376, 0xC02aaA39b223FE8D0A0e5C4F27eAD9083C756Cc2, 26000000000000000, 0xcbe5659df21Cbcfabe4da962F7a9081F26B3ed82, 1772668159, 1779506127, 16)",
        "(27, 0x7e1dc998f8030bbc463f8b64ecc002d0ef36478cb1debe1c32c0b7bbad49b52a, 0x0787893abfbe8e70fa6da7b6185d55f137280723539e269297228a51df3a07e6)"
      ],
      "transaction": {
        "from": "0x4b75aec40561c03e03d4d1c421df194a3031a134",
        "to": "0x8fa71914948544c60e3379064567dcf0e6564d27",
        "gas": "0x2c4bb",
        "value": "0x0",
        "input": "0x3bae3e7900000000000000000000000000000000000000000000000000000000000000000000000000000000000000004b75aec40561c03e03d4d1c421df194a3031a13400000000000000000000000000000000000000000000000000000000000000000000000000000000000000000000000000000000000000000000000000000000000000000000000000000000a5f104f8f78d5ba9aec4a383c0927337fd4e997b0000000000000000000000000000000000000000000000000000000000000178000000000000000000000000c02aaa39b223fe8d0a0e5c4f27ead9083c756cc2000000000000000000000000000000000000000000000000005c5edcbc290000000000000000000000000000cbe5659df21cbcfabe4da962f7a9081f26b3ed820000000000000000000000000000000000000000000000000000000069a8c4ff000000000000000000000000000000000000000000000000000000006a111bcf0000000000000000000000000000000000000000000000000000000000000010000000000000000000000000000000000000000000000000000000000000001b7e1dc998f8030bbc463f8b64ecc002d0ef36478cb1debe1c32c0b7bbad49b52a0787893abfbe8e70fa6da7b6185d55f137280723539e269297228a51df3a07e6",
        "nonce": "0x2b",
        "chainId": "0x7a69"
      },
      "additionalContracts": [],
      "isFixedGasLimit": false
    }
  ],
  "receipts": [
    {
      "status": "0x1",
      "cumulativeGasUsed": "0x2011d",
      "logs": [
        {
          "address": "0xc02aaa39b223fe8d0a0e5c4f27ead9083c756cc2",
          "topics": [
            "0xddf252ad1be2c89b69c2b068fc378daa952ba7f163c4a11628f55a4df523b3ef",
            "0x0000000000000000000000004b75aec40561c03e03d4d1c421df194a3031a134",
            "0x0000000000000000000000001804c8ab1f12e6bbf3894d4083f33e07309d1f38"
          ],
          "data": "0x0000000000000000000000000000000000000000000000000000ec77f7a44000",
          "blockHash": "0xa9149d4f12acd507c21f6a3fa1490757dbd8225eab62ba082f28a2baf9e409c9",
          "blockNumber": "0x17b8366",
          "blockTimestamp": "0x69f2f6a1",
          "transactionHash": "0x56c64a253f0fb14e03c9e2871c2db980805efd8febd90c004091aaf754a30e83",
          "transactionIndex": "0x0",
          "logIndex": "0x0",
          "removed": false
        },
        {
          "address": "0xc02aaa39b223fe8d0a0e5c4f27ead9083c756cc2",
          "topics": [
            "0xddf252ad1be2c89b69c2b068fc378daa952ba7f163c4a11628f55a4df523b3ef",
            "0x0000000000000000000000004b75aec40561c03e03d4d1c421df194a3031a134",
            "0x000000000000000000000000cbe5659df21cbcfabe4da962f7a9081f26b3ed82"
          ],
          "data": "0x000000000000000000000000000000000000000000000000005b7264c484c000",
          "blockHash": "0xa9149d4f12acd507c21f6a3fa1490757dbd8225eab62ba082f28a2baf9e409c9",
          "blockNumber": "0x17b8366",
          "blockTimestamp": "0x69f2f6a1",
          "transactionHash": "0x56c64a253f0fb14e03c9e2871c2db980805efd8febd90c004091aaf754a30e83",
          "transactionIndex": "0x0",
          "logIndex": "0x1",
          "removed": false
        },
        {
          "address": "0xa5f104f8f78d5ba9aec4a383c0927337fd4e997b",
          "topics": [
            "0xddf252ad1be2c89b69c2b068fc378daa952ba7f163c4a11628f55a4df523b3ef",
            "0x000000000000000000000000cbe5659df21cbcfabe4da962f7a9081f26b3ed82",
            "0x0000000000000000000000004b75aec40561c03e03d4d1c421df194a3031a134",
            "0x0000000000000000000000000000000000000000000000000000000000000178"
          ],
          "data": "0x",
          "blockHash": "0xa9149d4f12acd507c21f6a3fa1490757dbd8225eab62ba082f28a2baf9e409c9",
          "blockNumber": "0x17b8366",
          "blockTimestamp": "0x69f2f6a1",
          "transactionHash": "0x56c64a253f0fb14e03c9e2871c2db980805efd8febd90c004091aaf754a30e83",
          "transactionIndex": "0x0",
          "logIndex": "0x2",
          "removed": false
        },
        {
          "address": "0x8fa71914948544c60e3379064567dcf0e6564d27",
          "topics": [
            "0xc0ac3eb1e8caef05b202043f34de8e3173fab712167584f7a2a9f4c302bd0e9c",
            "0x88346e439bf9a6fa969dbb3175df6cdaad49037df312dc2903cdba7dd02c36f9",
            "0x000000000000000000000000a5f104f8f78d5ba9aec4a383c0927337fd4e997b",
            "0x0000000000000000000000000000000000000000000000000000000000000178"
          ],
          "data": "0x000000000000000000000000cbe5659df21cbcfabe4da962f7a9081f26b3ed820000000000000000000000004b75aec40561c03e03d4d1c421df194a3031a134000000000000000000000000c02aaa39b223fe8d0a0e5c4f27ead9083c756cc2000000000000000000000000000000000000000000000000005c5edcbc290000",
          "blockHash": "0xa9149d4f12acd507c21f6a3fa1490757dbd8225eab62ba082f28a2baf9e409c9",
          "blockNumber": "0x17b8366",
          "blockTimestamp": "0x69f2f6a1",
          "transactionHash": "0x56c64a253f0fb14e03c9e2871c2db980805efd8febd90c004091aaf754a30e83",
          "transactionIndex": "0x0",
          "logIndex": "0x3",
          "removed": false
        }
      ],
      "logsBloom": "0x00000000000000000000010000000000000000000000000000000000000000000000000000000000000000000000000002000000080000000000000000100000000000000000000000090008000000000000000000000000080000000000000800000000000000004001000000000000000000000000000000000010200000000800000000040000000004000000000000000000000000000200000000002000000000200000000400000000000400000000000000000080020000000000000000000002000004000400000000000000000000000000020080000000000000000100204000000000000000000000000000000008004000000000000000000000",
      "type": "0x2",
      "transactionHash": "0x56c64a253f0fb14e03c9e2871c2db980805efd8febd90c004091aaf754a30e83",
      "transactionIndex": "0x0",
      "blockHash": "0xa9149d4f12acd507c21f6a3fa1490757dbd8225eab62ba082f28a2baf9e409c9",
      "blockNumber": "0x17b8366",
      "gasUsed": "0x2011d",
      "effectiveGasPrice": "0x1ba81c",
      "blobGasPrice": "0x1",
      "from": "0x4b75aec40561c03e03d4d1c421df194a3031a134",
      "to": "0x8fa71914948544c60e3379064567dcf0e6564d27",
      "contractAddress": null
    }
  ],
  "libraries": [],
  "pending": [],
  "returns": {},
  "timestamp": 1778506486659,
  "chain": 31337,
  "commit": "59e30a9"
}