{
  "transactions": [
    {
      "hash": "0xfc563b5fc4e7a06acea7d4f3cf3a6af2d578de2b49c5f476a4b63e6c77e8ef22",
      "transactionType": "CALL",
      "contractName": null,
      "contractAddress": "0x73973d222c3fda5b2563d269da9e19cb125000f4",
      "function": "settle((uint256,address),(uint8,bool,address,uint256,address,uint256,address,uint64,uint64,uint256),(uint8,bytes32,bytes32))",
      "arguments": [
        "(20, 0x2c2dbA75492E0C4A1D10B41303167aEC59586C9c)",
        "(1, false, 0x38D4dE42C9c5640A2799B372D27B01957E0a3673, 20, 0xC02aaA39b223FE8D0A0e5C4F27eAD9083C756Cc2, 382000000000000000, 0xa382b0E75C192D9CDF5c084E58b750Cea7761Bd0, 1772488043, 1779577595, 3)",
        "(27, 0x55cd17b5dd98a927ffa4ac6827f4359cb8ff04a3d44828390587cff5386cda8d, 0x00252ab0d1ec58d8602420f706d816a8aa188c500cf077d06a82e56154074e15)"
      ],
      "transaction": {
        "from": "0x2c2dba75492e0c4a1d10b41303167aec59586c9c",
        "to": "0x73973d222c3fda5b2563d269da9e19cb125000f4",
        "gas": "0x2c5b0",
        "value": "0x0",
        "input": "0x3bae3e7900000000000000000000000000000000000000000000000000000000000000140000000000000000000000002c2dba75492e0c4a1d10b41303167aec59586c9c0000000000000000000000000000000000000000000000000000000000000001000000000000000000000000000000000000000000000000000000000000000000000000000000000000000038d4de42c9c5640a2799b372d27b01957e0a36730000000000000000000000000000000000000000000000000000000000000014000000000000000000000000c02aaa39b223fe8d0a0e5c4f27ead9083c756cc2000000000000000000000000000000000000000000000000054d22f9e0330000000000000000000000000000a382b0e75c192d9cdf5c084e58b750cea7761bd00000000000000000000000000000000000000000000000000000000069a6056b000000000000000000000000000000000000000000000000000000006a1232fb0000000000000000000000000000000000000000000000000000000000000003000000000000000000000000000000000000000000000000000000000000001b55cd17b5dd98a927ffa4ac6827f4359cb8ff04a3d44828390587cff5386cda8d00252ab0d1ec58d8602420f706d816a8aa188c500cf077d06a82e56154074e15",
        "nonce": "0x65",
        "chainId": "0x7a69"
      },
      "additionalContracts": [],
      "isFixedGasLimit": false
    }
  ],
  "receipts": [
    {
      "status": "0x1",
      "cumulativeGasUsed": "0x201ce",
      "logs": [
        {
          "address": "0xc02aaa39b223fe8d0a0e5c4f27ead9083c756cc2",
          "topics": [
            "0xddf252ad1be2c89b69c2b068fc378daa952ba7f163c4a11628f55a4df523b3ef",
            "0x000000000000000000000000a382b0e75c192d9cdf5c084e58b750cea7761bd0",
            "0x0000000000000000000000001804c8ab1f12e6bbf3894d4083f33e07309d1f38"
          ],
          "data": "0x000000000000000000000000000000000000000000000000000d92450f0ac000",
          "blockHash": "0x3ce213bdf76833b6dc6a57c06d27ead577cb33514e6a8e8797bee1669faaa431",
          "blockNumber": "0x17b739f",
          "blockTimestamp": "0x69e0a7ce",
          "transactionHash": "0xfc563b5fc4e7a06acea7d4f3cf3a6af2d578de2b49c5f476a4b63e6c77e8ef22",
          "transactionIndex": "0x0",
          "logIndex": "0x0",
          "removed": false
        },
        {
          "address": "0xc02aaa39b223fe8d0a0e5c4f27ead9083c756cc2",
          "topics": [
            "0xddf252ad1be2c89b69c2b068fc378daa952ba7f163c4a11628f55a4df523b3ef",
            "0x000000000000000000000000a382b0e75c192d9cdf5c084e58b750cea7761bd0",
            "0x0000000000000000000000002c2dba75492e0c4a1d10b41303167aec59586c9c"
          ],
          "data": "0x000000000000000000000000000000000000000000000000053f90b4d1284000",
          "blockHash": "0x3ce213bdf76833b6dc6a57c06d27ead577cb33514e6a8e8797bee1669faaa431",
          "blockNumber": "0x17b739f",
          "blockTimestamp": "0x69e0a7ce",
          "transactionHash": "0xfc563b5fc4e7a06acea7d4f3cf3a6af2d578de2b49c5f476a4b63e6c77e8ef22",
          "transactionIndex": "0x0",
          "logIndex": "0x1",
          "removed": false
        },
        {
          "address": "0x38d4de42c9c5640a2799b372d27b01957e0a3673",
          "topics": [
            "0xddf252ad1be2c89b69c2b068fc378daa952ba7f163c4a11628f55a4df523b3ef",
            "0x0000000000000000000000002c2dba75492e0c4a1d10b41303167aec59586c9c",
            "0x000000000000000000000000a382b0e75c192d9cdf5c084e58b750cea7761bd0",
            "0x0000000000000000000000000000000000000000000000000000000000000014"
          ],
          "data": "0x",
          "blockHash": "0x3ce213bdf76833b6dc6a57c06d27ead577cb33514e6a8e8797bee1669faaa431",
          "blockNumber": "0x17b739f",
          "blockTimestamp": "0x69e0a7ce",
          "transactionHash": "0xfc563b5fc4e7a06acea7d4f3cf3a6af2d578de2b49c5f476a4b63e6c77e8ef22",
          "transactionIndex": "0x0",
          "logIndex": "0x2",
          "removed": false
        },
        {
          "address": "0x73973d222c3fda5b2563d269da9e19cb125000f4",
          "topics": [
            "0xc0ac3eb1e8caef05b202043f34de8e3173fab712167584f7a2a9f4c302bd0e9c",
            "0xb2f12ff450390e63698713614d5f48a705fb7312058081884eeb4ce43789c691",
            "0x00000000000000000000000038d4de42c9c5640a2799b372d27b01957e0a3673",
            "0x0000000000000000000000000000000000000000000000000000000000000014"
          ],
          "data": "0x0000000000000000000000002c2dba75492e0c4a1d10b41303167aec59586c9c000000000000000000000000a382b0e75c192d9cdf5c084e58b750cea7761bd0000000000000000000000000c02aaa39b223fe8d0a0e5c4f27ead9083c756cc2000000000000000000000000000000000000000000000000054d22f9e0330000",
          "blockHash": "0x3ce213bdf76833b6dc6a57c06d27ead577cb33514e6a8e8797bee1669faaa431",
          "blockNumber": "0x17b739f",
          "blockTimestamp": "0x69e0a7ce",
          "transactionHash": "0xfc563b5fc4e7a06acea7d4f3cf3a6af2d578de2b49c5f476a4b63e6c77e8ef22",
          "transactionIndex": "0x0",
          "logIndex": "0x3",
          "removed": false
        }
      ],
      "logsBloom": "0x00000000000000000000000000000000000000000002000000000000000000000000000000000000000000000000020002002000080000200004100800100000000200000000001021000008000000000000000000000000000000000000000000000000000004004001000000000000000000000000040000000010000000000000000000000000000004000000000000100000000408000000000000000000000000000000000020000000000000000000000000000080400000000000001000000002000004000000000000000000000000000000000000000000000000000100200000000000000000000000000000000000100000000000000000000000",
      "type": "0x2",
      "transactionHash": "0xfc563b5fc4e7a06acea7d4f3cf3a6af2d578de2b49c5f476a4b63e6c77e8ef22",
      "transactionIndex": "0x0",
      "blockHash": "0x3ce213bdf76833b6dc6a57c06d27ead577cb33514e6a8e8797bee1669faaa431",
      "blockNumber": "0x17b739f",
      "gasUsed": "0x201ce",
      "effectiveGasPrice": "0xf4248",
      "blobGasPrice": "0x1",
      "from": "0x2c2dba75492e0c4a1d10b41303167aec59586c9c",
      "to": "0x73973d222c3fda5b2563d269da9e19cb125000f4",
      "contractAddress": null
    }
  ],
  "libraries": [],
  "pending": [],
  "returns": {},
  "timestamp": 1778453704476,
  "chain": 31337,
  "commit": "f87d399"
}