{
  "transactions": [
    {
      "hash": "0x69cae0c589506511213330e44058a9251cdfe0bde65165aabd3ca29bce5e8226",
      "transactionType": "CALL",
      "contractName": null,
      "contractAddress": "0x8fa71914948544c60e3379064567dcf0e6564d27",
      "function": "settle((uint256,address),(uint8,bool,address,uint256,address,uint256,address,uint64,uint64,uint256),(uint8,bytes32,bytes32))",
      "arguments": [
        "(0, 0x08312E82df563A1639b81f49bb41247759700e30)",
        "(0, false, 0xA5f104F8f78d5ba9AEC4a383c0927337Fd4E997B, 29, 0xC02aaA39b223FE8D0A0e5C4F27eAD9083C756Cc2, 11000000000000000, 0xe3745C151faB59B0740f4312b2B027F07D096639, 1772998537, 1779175749, 5)",
        "(28, 0x4e2ae6bd570ef306fa088b57e947e609126a6e609cebf2215b2524962aa38841, 0x55f2a68834b1aa4d8ab53ddf7497d4b52d0a2e5ac55aaa545938c2d35c2d74d2)"
      ],
      "transaction": {
        "from": "0x08312e82df563a1639b81f49bb41247759700e30",
        "to": "0x8fa71914948544c60e3379064567dcf0e6564d27",
        "gas": "0x2ee8a",
        "value": "0x0",
        "input": "0x3bae3e79000000000000000000000000000000000000000000000000000000000000000000000000000000000000000008312e82df563a1639b81f49bb41247759700e3000000000000000000000000000000000000000000000000000000000000000000000000000000000000000000000000000000000000000000000000000000000000000000000000000000000a5f104f8f78d5ba9aec4a383c0927337fd4e997b000000000000000000000000000000000000000000000000000000000000001d000000000000000000000000c02aaa39b223fe8d0a0e5c4f27ead9083c756cc20000000000000000000000000000000000000000000000000027147114878000000000000000000000000000e3745c151fab59b0740f4312b2b027f07d0966390000000000000000000000000000000000000000000000000000000069adcf89000000000000000000000000000000000000000000000000000000006a0c11450000000000000000000000000000000000000000000000000000000000000005000000000000000000000000000000000000000000000000000000000000001c4e2ae6bd570ef306fa088b57e947e609126a6e609cebf2215b2524962aa3884155f2a68834b1aa4d8ab53ddf7497d4b52d0a2e5ac55aaa545938c2d35c2d74d2",
        "nonce": "0x3d",
        "chainId": "0x7a69"
      },
      "additionalContracts": [],
      "isFixedGasLimit": false
    }
  ],
  "receipts": [
    {
      "status": "0x1",
      "cumulativeGasUsed": "0x20131",
      "logs": [
        {
          "address": "0xc02aaa39b223fe8d0a0e5c4f27ead9083c756cc2",
          "topics": [
            "0xddf252ad1be2c89b69c2b068fc378daa952ba7f163c4a11628f55a4df523b3ef",
            "0x00000000000000000000000008312e82df563a1639b81f49bb41247759700e30",
            "0x0000000000000000000000001804c8ab1f12e6bbf3894d4083f33e07309d1f38"
          ],
          "data": "0x0000000000000000000000000000000000000000000000000000640b5eece000",
          "blockHash": "0xc75190adbcab1d147f2902307a0b41ef0d8f718fbdf9a8ecb41b1f77e34965fe",
          "blockNumber": "0x17b8346",
          "blockTimestamp": "0x69eb5378",
          "transactionHash": "0x69cae0c589506511213330e44058a9251cdfe0bde65165aabd3ca29bce5e8226",
          "transactionIndex": "0x0",
          "logIndex": "0x0",
          "removed": false
        },
        {
          "address": "0xc02aaa39b223fe8d0a0e5c4f27ead9083c756cc2",
          "topics": [
            "0xddf252ad1be2c89b69c2b068fc378daa952ba7f163c4a11628f55a4df523b3ef",
            "0x00000000000000000000000008312e82df563a1639b81f49bb41247759700e30",
            "0x000000000000000000000000e3745c151fab59b0740f4312b2b027f07d096639"
          ],
          "data": "0x0000000000000000000000000000000000000000000000000026b065b59aa000",
          "blockHash": "0xc75190adbcab1d147f2902307a0b41ef0d8f718fbdf9a8ecb41b1f77e34965fe",
          "blockNumber": "0x17b8346",
          "blockTimestamp": "0x69eb5378",
          "transactionHash": "0x69cae0c589506511213330e44058a9251cdfe0bde65165aabd3ca29bce5e8226",
          "transactionIndex": "0x0",
          "logIndex": "0x1",
          "removed": false
        },
        {
          "address": "0xa5f104f8f78d5ba9aec4a383c0927337fd4e997b",
          "topics": [
            "0xddf252ad1be2c89b69c2b068fc378daa952ba7f163c4a11628f55a4df523b3ef",
            "0x000000000000000000000000e3745c151fab59b0740f4312b2b027f07d096639",
            "0x00000000000000000000000008312e82df563a1639b81f49bb41247759700e30",
            "0x000000000000000000000000000000000000000000000000000000000000001d"
          ],
          "data": "0x",
          "blockHash": "0xc75190adbcab1d147f2902307a0b41ef0d8f718fbdf9a8ecb41b1f77e34965fe",
          "blockNumber": "0x17b8346",
          "blockTimestamp": "0x69eb5378",
          "transactionHash": "0x69cae0c589506511213330e44058a9251cdfe0bde65165aabd3ca29bce5e8226",
          "transactionIndex": "0x0",
          "logIndex": "0x2",
          "removed": false
        },
        {
          "address": "0x8fa71914948544c60e3379064567dcf0e6564d27",
          "topics": [
            "0xc0ac3eb1e8caef05b202043f34de8e3173fab712167584f7a2a9f4c302bd0e9c",
            "0xe3687cc8ed45e443ed53df26e0571e23feb603484b2ad688ba154b76b87446ce",
            "0x000000000000000000000000a5f104f8f78d5ba9aec4a383c0927337fd4e997b",
            "0x000000000000000000000000000000000000000000000000000000000000001d"
          ],
          "data": "0x000000000000000000000000e3745c151fab59b0740f4312b2b027f07d09663900000000000000000000000008312e82df563a1639b81f49bb41247759700e30000000000000000000000000c02aaa39b223fe8d0a0e5c4f27ead9083c756cc20000000000000000000000000000000000000000000000000027147114878000",
          "blockHash": "0xc75190adbcab1d147f2902307a0b41ef0d8f718fbdf9a8ecb41b1f77e34965fe",
          "blockNumber": "0x17b8346",
          "blockTimestamp": "0x69eb5378",
          "transactionHash": "0x69cae0c589506511213330e44058a9251cdfe0bde65165aabd3ca29bce5e8226",
          "transactionIndex": "0x0",
          "logIndex": "0x3",
          "removed": false
        }
      ],
      "logsBloom": "0x00000080000000000000010001000000000000000100000000000000000000000000000000100000000000000000000042000000080000000000000210100000000000000000000000010008000000000000000000000010080000000000000000000000000000000001000000000000000000000000000000000010200000000800000004040000000004000000000000000000000000000000000000000000000000202000000400000000000000000000000000000080000000000000000000000002000004000000000000000000000000000000000080000040000000000100200000000000000000000000000000000000004000000000000000000000",
      "type": "0x2",
      "transactionHash": "0x69cae0c589506511213330e44058a9251cdfe0bde65165aabd3ca29bce5e8226",
      "transactionIndex": "0x0",
      "blockHash": "0xc75190adbcab1d147f2902307a0b41ef0d8f718fbdf9a8ecb41b1f77e34965fe",
      "blockNumber": "0x17b8346",
      "gasUsed": "0x20131",
      "effectiveGasPrice": "0x1ba81c",
      "blobGasPrice": "0x1",
      "from": "0x08312e82df563a1639b81f49bb41247759700e30",
      "to": "0x8fa71914948544c60e3379064567dcf0e6564d27",
      "contractAddress": null
    }
  ],
  "libraries": [],
  "pending": [],
  "returns": {},
  "timestamp": 1778506447782,
  "chain": 31337,
  "commit": "59e30a9"
}