{
  "transactions": [
    {
      "hash": "0xb63e221ff273c724d2187c40d8b32bf78e89a7914f3e15e7a3ff3ea11ef6a226",
      "transactionType": "CALL",
      "contractName": null,
      "contractAddress": "0x8fa71914948544c60e3379064567dcf0e6564d27",
      "function": "settle((uint256,address),(uint8,bool,address,uint256,address,uint256,address,uint64,uint64,uint256),(uint8,bytes32,bytes32))",
      "arguments": [
        "(0, 0xa382b0E75C192D9CDF5c084E58b750Cea7761Bd0)",
        "(0, false, 0xA5f104F8f78d5ba9AEC4a383c0927337Fd4E997B, 354, 0xC02aaA39b223FE8D0A0e5C4F27eAD9083C756Cc2, 52000000000000000, 0x1302F142Fc55B165647d3Bd5dec227f569A2A907, 1771999567, 1780174719, 7)",
        "(27, 0x8be67a65d6e93b934f1e707b16c1f7e5f8d74017e0f1467eb762ddf3cc0d2736, 0x64408731c77df273bd582bfe102fd98fe86d3df090afb14874881f0dbf6d9009)"
      ],
      "transaction": {
        "from": "0xa382b0e75c192d9cdf5c084e58b750cea7761bd0",
        "to": "0x8fa71914948544c60e3379064567dcf0e6564d27",
        "gas": "0x2c4bb",
        "value": "0x0",
        "input": "0x3bae3e790000000000000000000000000000000000000000000000000000000000000000000000000000000000000000a382b0e75c192d9cdf5c084e58b750cea7761bd000000000000000000000000000000000000000000000000000000000000000000000000000000000000000000000000000000000000000000000000000000000000000000000000000000000a5f104f8f78d5ba9aec4a383c0927337fd4e997b0000000000000000000000000000000000000000000000000000000000000162000000000000000000000000c02aaa39b223fe8d0a0e5c4f27ead9083c756cc200000000000000000000000000000000000000000000000000b8bdb9785200000000000000000000000000001302f142fc55b165647d3bd5dec227f569a2a90700000000000000000000000000000000000000000000000000000000699e914f000000000000000000000000000000000000000000000000000000006a1b4f7f0000000000000000000000000000000000000000000000000000000000000007000000000000000000000000000000000000000000000000000000000000001b8be67a65d6e93b934f1e707b16c1f7e5f8d74017e0f1467eb762ddf3cc0d273664408731c77df273bd582bfe102fd98fe86d3df090afb14874881f0dbf6d9009",
        "nonce": "0x2b",
        "chainId": "0x7a69"
      },
      "additionalContracts": [],
      "isFixedGasLimit": false
    }
  ],
  "receipts": [
    {
      "status": "0x1",
      "cumulativeGasUsed": "0x2011d",
      "logs": [
        {
          "address": "0xc02aaa39b223fe8d0a0e5c4f27ead9083c756cc2",
          "topics": [
            "0xddf252ad1be2c89b69c2b068fc378daa952ba7f163c4a11628f55a4df523b3ef",
            "0x000000000000000000000000a382b0e75c192d9cdf5c084e58b750cea7761bd0",
            "0x0000000000000000000000001804c8ab1f12e6bbf3894d4083f33e07309d1f38"
          ],
          "data": "0x0000000000000000000000000000000000000000000000000001d8efef488000",
          "blockHash": "0x03f8bf678efc8e4f498e5460059b26774dfc23b2b1fda0ae3b780ee0b0448b73",
          "blockNumber": "0x17b837d",
          "blockTimestamp": "0x69f7c9a0",
          "transactionHash": "0xb63e221ff273c724d2187c40d8b32bf78e89a7914f3e15e7a3ff3ea11ef6a226",
          "transactionIndex": "0x0",
          "logIndex": "0x0",
          "removed": false
        },
        {
          "address": "0xc02aaa39b223fe8d0a0e5c4f27ead9083c756cc2",
          "topics": [
            "0xddf252ad1be2c89b69c2b068fc378daa952ba7f163c4a11628f55a4df523b3ef",
            "0x000000000000000000000000a382b0e75c192d9cdf5c084e58b750cea7761bd0",
            "0x0000000000000000000000001302f142fc55b165647d3bd5dec227f569a2a907"
          ],
          "data": "0x00000000000000000000000000000000000000000000000000b6e4c989098000",
          "blockHash": "0x03f8bf678efc8e4f498e5460059b26774dfc23b2b1fda0ae3b780ee0b0448b73",
          "blockNumber": "0x17b837d",
          "blockTimestamp": "0x69f7c9a0",
          "transactionHash": "0xb63e221ff273c724d2187c40d8b32bf78e89a7914f3e15e7a3ff3ea11ef6a226",
          "transactionIndex": "0x0",
          "logIndex": "0x1",
          "removed": false
        },
        {
          "address": "0xa5f104f8f78d5ba9aec4a383c0927337fd4e997b",
          "topics": [
            "0xddf252ad1be2c89b69c2b068fc378daa952ba7f163c4a11628f55a4df523b3ef",
            "0x0000000000000000000000001302f142fc55b165647d3bd5dec227f569a2a907",
            "0x000000000000000000000000a382b0e75c192d9cdf5c084e58b750cea7761bd0",
            "0x0000000000000000000000000000000000000000000000000000000000000162"
          ],
          "data": "0x",
          "blockHash": "0x03f8bf678efc8e4f498e5460059b26774dfc23b2b1fda0ae3b780ee0b0448b73",
          "blockNumber": "0x17b837d",
          "blockTimestamp": "0x69f7c9a0",
          "transactionHash": "0xb63e221ff273c724d2187c40d8b32bf78e89a7914f3e15e7a3ff3ea11ef6a226",
          "transactionIndex": "0x0",
          "logIndex": "0x2",
          "removed": false
        },
        {
          "address": "0x8fa71914948544c60e3379064567dcf0e6564d27",
          "topics": [
            "0xc0ac3eb1e8caef05b202043f34de8e3173fab712167584f7a2a9f4c302bd0e9c",
            "0x39e892a841e44628f7e4e35661aea352b11b8583b297e8eb804f7a8a223f4368",
            "0x000000000000000000000000a5f104f8f78d5ba9aec4a383c0927337fd4e997b",
            "0x0000000000000000000000000000000000000000000000000000000000000162"
          ],
          "data": "0x0000000000000000000000001302f142fc55b165647d3bd5dec227f569a2a907000000000000000000000000a382b0e75c192d9cdf5c084e58b750cea7761bd0000000000000000000000000c02aaa39b223fe8d0a0e5c4f27ead9083c756cc200000000000000000000000000000000000000000000000000b8bdb978520000",
          "blockHash": "0x03f8bf678efc8e4f498e5460059b26774dfc23b2b1fda0ae3b780ee0b0448b73",
          "blockNumber": "0x17b837d",
          "blockTimestamp": "0x69f7c9a0",
          "transactionHash": "0xb63e221ff273c724d2187c40d8b32bf78e89a7914f3e15e7a3ff3ea11ef6a226",
          "transactionIndex": "0x0",
          "logIndex": "0x3",
          "removed": false
        }
      ],
      "logsBloom": "0x00000000000000000000010000000000000000000000000000000000000000000000000000000000000000000000000002000000080000000000000000100000000000000000000000010008010000000000000000000000080000000000000000000000000000000001000000000000000000000000048000000010200000000800000000040000000004000000000000100000000000000000000000000000000000200000000400000000000100000000000000000080000000000000000000000002000004000000800200000000000000000000000082000200000000000100200800000000000040000000000000000000100000000000000000000000",
      "type": "0x2",
      "transactionHash": "0xb63e221ff273c724d2187c40d8b32bf78e89a7914f3e15e7a3ff3ea11ef6a226",
      "transactionIndex": "0x0",
      "blockHash": "0x03f8bf678efc8e4f498e5460059b26774dfc23b2b1fda0ae3b780ee0b0448b73",
      "blockNumber": "0x17b837d",
      "gasUsed": "0x2011d",
      "effectiveGasPrice": "0x1ba81c",
      "blobGasPrice": "0x1",
      "from": "0xa382b0e75c192d9cdf5c084e58b750cea7761bd0",
      "to": "0x8fa71914948544c60e3379064567dcf0e6564d27",
      "contractAddress": null
    }
  ],
  "libraries": [],
  "pending": [],
  "returns": {},
  "timestamp": 1778506507022,
  "chain": 31337,
  "commit": "59e30a9"
}