{
  "transactions": [
    {
      "hash": "0xc6ce41a47dbceef50b72ba5540b8f88b8ad9792de22cb195580e9568292428f4",
      "transactionType": "CALL",
      "contractName": null,
      "contractAddress": "0x8fa71914948544c60e3379064567dcf0e6564d27",
      "function": "settle((uint256,address),(uint8,bool,address,uint256,address,uint256,address,uint64,uint64,uint256),(uint8,bytes32,bytes32))",
      "arguments": [
        "(0, 0xc5aDfC119364CFE2297e4414dB04834d8702475B)",
        "(0, false, 0xA5f104F8f78d5ba9AEC4a383c0927337Fd4E997B, 411, 0xC02aaA39b223FE8D0A0e5C4F27eAD9083C756Cc2, 25000000000000000, 0x2c2dbA75492E0C4A1D10B41303167aEC59586C9c, 1773160988, 1779013298, 8)",
        "(28, 0xb1202a4d8ddc2f79308942a6a66059464d911e76a5209092afc8910dc5dba7ed, 0x6b7e81c5193e9281ce6eb7b58290ef504b234d30d496046675a7b07450503ef9)"
      ],
      "transaction": {
        "from": "0xc5adfc119364cfe2297e4414db04834d8702475b",
        "to": "0x8fa71914948544c60e3379064567dcf0e6564d27",
        "gas": "0x2c4e8",
        "value": "0x0",
        "input": "0x3bae3e790000000000000000000000000000000000000000000000000000000000000000000000000000000000000000c5adfc119364cfe2297e4414db04834d8702475b00000000000000000000000000000000000000000000000000000000000000000000000000000000000000000000000000000000000000000000000000000000000000000000000000000000a5f104f8f78d5ba9aec4a383c0927337fd4e997b000000000000000000000000000000000000000000000000000000000000019b000000000000000000000000c02aaa39b223fe8d0a0e5c4f27ead9083c756cc20000000000000000000000000000000000000000000000000058d15e176280000000000000000000000000002c2dba75492e0c4a1d10b41303167aec59586c9c0000000000000000000000000000000000000000000000000000000069b04a1c000000000000000000000000000000000000000000000000000000006a0996b20000000000000000000000000000000000000000000000000000000000000008000000000000000000000000000000000000000000000000000000000000001cb1202a4d8ddc2f79308942a6a66059464d911e76a5209092afc8910dc5dba7ed6b7e81c5193e9281ce6eb7b58290ef504b234d30d496046675a7b07450503ef9",
        "nonce": "0x3b",
        "chainId": "0x7a69"
      },
      "additionalContracts": [],
      "isFixedGasLimit": false
    }
  ],
  "receipts": [
    {
      "status": "0x1",
      "cumulativeGasUsed": "0x2013d",
      "logs": [
        {
          "address": "0xc02aaa39b223fe8d0a0e5c4f27ead9083c756cc2",
          "topics": [
            "0xddf252ad1be2c89b69c2b068fc378daa952ba7f163c4a11628f55a4df523b3ef",
            "0x000000000000000000000000c5adfc119364cfe2297e4414db04834d8702475b",
            "0x0000000000000000000000001804c8ab1f12e6bbf3894d4083f33e07309d1f38"
          ],
          "data": "0x0000000000000000000000000000000000000000000000000000e35fa931a000",
          "blockHash": "0x17c18564273c52c84e3ea7e1dc06ef75228380f600435580d4b3c8bc8c5ce52b",
          "blockNumber": "0x17b835b",
          "blockTimestamp": "0x69f0a7fd",
          "transactionHash": "0xc6ce41a47dbceef50b72ba5540b8f88b8ad9792de22cb195580e9568292428f4",
          "transactionIndex": "0x0",
          "logIndex": "0x0",
          "removed": false
        },
        {
          "address": "0xc02aaa39b223fe8d0a0e5c4f27ead9083c756cc2",
          "topics": [
            "0xddf252ad1be2c89b69c2b068fc378daa952ba7f163c4a11628f55a4df523b3ef",
            "0x000000000000000000000000c5adfc119364cfe2297e4414db04834d8702475b",
            "0x0000000000000000000000002c2dba75492e0c4a1d10b41303167aec59586c9c"
          ],
          "data": "0x0000000000000000000000000000000000000000000000000057edfe6e30e000",
          "blockHash": "0x17c18564273c52c84e3ea7e1dc06ef75228380f600435580d4b3c8bc8c5ce52b",
          "blockNumber": "0x17b835b",
          "blockTimestamp": "0x69f0a7fd",
          "transactionHash": "0xc6ce41a47dbceef50b72ba5540b8f88b8ad9792de22cb195580e9568292428f4",
          "transactionIndex": "0x0",
          "logIndex": "0x1",
          "removed": false
        },
        {
          "address": "0xa5f104f8f78d5ba9aec4a383c0927337fd4e997b",
          "topics": [
            "0xddf252ad1be2c89b69c2b068fc378daa952ba7f163c4a11628f55a4df523b3ef",
            "0x0000000000000000000000002c2dba75492e0c4a1d10b41303167aec59586c9c",
            "0x000000000000000000000000c5adfc119364cfe2297e4414db04834d8702475b",
            "0x000000000000000000000000000000000000000000000000000000000000019b"
          ],
          "data": "0x",
          "blockHash": "0x17c18564273c52c84e3ea7e1dc06ef75228380f600435580d4b3c8bc8c5ce52b",
          "blockNumber": "0x17b835b",
          "blockTimestamp": "0x69f0a7fd",
          "transactionHash": "0xc6ce41a47dbceef50b72ba5540b8f88b8ad9792de22cb195580e9568292428f4",
          "transactionIndex": "0x0",
          "logIndex": "0x2",
          "removed": false
        },
        {
          "address": "0x8fa71914948544c60e3379064567dcf0e6564d27",
          "topics": [
            "0xc0ac3eb1e8caef05b202043f34de8e3173fab712167584f7a2a9f4c302bd0e9c",
            "0x291292620ebe8ef2ea84aa58d13af76f37f8ab3495885d9c1bde9163f7eb1e29",
            "0x000000000000000000000000a5f104f8f78d5ba9aec4a383c0927337fd4e997b",
            "0x000000000000000000000000000000000000000000000000000000000000019b"
          ],
          "data": "0x0000000000000000000000002c2dba75492e0c4a1d10b41303167aec59586c9c000000000000000000000000c5adfc119364cfe2297e4414db04834d8702475b000000000000000000000000c02aaa39b223fe8d0a0e5c4f27ead9083c756cc20000000000000000000000000000000000000000000000000058d15e17628000",
          "blockHash": "0x17c18564273c52c84e3ea7e1dc06ef75228380f600435580d4b3c8bc8c5ce52b",
          "blockNumber": "0x17b835b",
          "blockTimestamp": "0x69f0a7fd",
          "transactionHash": "0xc6ce41a47dbceef50b72ba5540b8f88b8ad9792de22cb195580e9568292428f4",
          "transactionIndex": "0x0",
          "logIndex": "0x3",
          "removed": false
        }
      ],
      "logsBloom": "0x00000000000000000000010000000000000000000000000000000000000000000000000000000000000000000000000002000000080000000000000800100000000200000000000000010008000000000000000000000000080000000000000200000000000004000081400000000000000000000000000000000010200000000800000000040000000004000000000000000000000000000000100000000000000000200000200400000000000020000000000000000080000000000000000000000002000004000000000000020000000000000000000080000000000000000100200000000000000000000000000000000000000000002000000000000000",
      "type": "0x2",
      "transactionHash": "0xc6ce41a47dbceef50b72ba5540b8f88b8ad9792de22cb195580e9568292428f4",
      "transactionIndex": "0x0",
      "blockHash": "0x17c18564273c52c84e3ea7e1dc06ef75228380f600435580d4b3c8bc8c5ce52b",
      "blockNumber": "0x17b835b",
      "gasUsed": "0x2013d",
      "effectiveGasPrice": "0x1ba81c",
      "blobGasPrice": "0x1",
      "from": "0xc5adfc119364cfe2297e4414db04834d8702475b",
      "to": "0x8fa71914948544c60e3379064567dcf0e6564d27",
      "contractAddress": null
    }
  ],
  "libraries": [],
  "pending": [],
  "returns": {},
  "timestamp": 1778506476037,
  "chain": 31337,
  "commit": "59e30a9"
}