{
  "transactions": [
    {
      "hash": "0xc225f6c9322add3b9c0995152665ef0a558f55bacff299bfb5a764431a95b9b8",
      "transactionType": "CALL",
      "contractName": null,
      "contractAddress": "0x8fa71914948544c60e3379064567dcf0e6564d27",
      "function": "settle((uint256,address),(uint8,bool,address,uint256,address,uint256,address,uint64,uint64,uint256),(uint8,bytes32,bytes32))",
      "arguments": [
        "(0, 0xE233420d38D286C2F2Cf8dEe6564F132FBDB09DB)",
        "(0, false, 0xA5f104F8f78d5ba9AEC4a383c0927337Fd4E997B, 196, 0xC02aaA39b223FE8D0A0e5C4F27eAD9083C756Cc2, 26000000000000000, 0xe3745C151faB59B0740f4312b2B027F07D096639, 1773010796, 1779163490, 16)",
        "(28, 0x9625695bbb324ed87e508872fdbeab647a79cdc1105ea93805139e4ecfd31e06, 0x7c801786af403fcc76badcda057ff16a0affd8854c8cc79d576f20597bd1f632)"
      ],
      "transaction": {
        "from": "0xe233420d38d286c2f2cf8dee6564f132fbdb09db",
        "to": "0x8fa71914948544c60e3379064567dcf0e6564d27",
        "gas": "0x2c4c7",
        "value": "0x0",
        "input": "0x3bae3e790000000000000000000000000000000000000000000000000000000000000000000000000000000000000000e233420d38d286c2f2cf8dee6564f132fbdb09db00000000000000000000000000000000000000000000000000000000000000000000000000000000000000000000000000000000000000000000000000000000000000000000000000000000a5f104f8f78d5ba9aec4a383c0927337fd4e997b00000000000000000000000000000000000000000000000000000000000000c4000000000000000000000000c02aaa39b223fe8d0a0e5c4f27ead9083c756cc2000000000000000000000000000000000000000000000000005c5edcbc290000000000000000000000000000e3745c151fab59b0740f4312b2b027f07d0966390000000000000000000000000000000000000000000000000000000069adff6c000000000000000000000000000000000000000000000000000000006a0be1620000000000000000000000000000000000000000000000000000000000000010000000000000000000000000000000000000000000000000000000000000001c9625695bbb324ed87e508872fdbeab647a79cdc1105ea93805139e4ecfd31e067c801786af403fcc76badcda057ff16a0affd8854c8cc79d576f20597bd1f632",
        "nonce": "0x3b",
        "chainId": "0x7a69"
      },
      "additionalContracts": [],
      "isFixedGasLimit": false
    }
  ],
  "receipts": [
    {
      "status": "0x1",
      "cumulativeGasUsed": "0x20125",
      "logs": [
        {
          "address": "0xc02aaa39b223fe8d0a0e5c4f27ead9083c756cc2",
          "topics": [
            "0xddf252ad1be2c89b69c2b068fc378daa952ba7f163c4a11628f55a4df523b3ef",
            "0x000000000000000000000000e233420d38d286c2f2cf8dee6564f132fbdb09db",
            "0x0000000000000000000000001804c8ab1f12e6bbf3894d4083f33e07309d1f38"
          ],
          "data": "0x0000000000000000000000000000000000000000000000000000ec77f7a44000",
          "blockHash": "0x01f218e8ea242cd8bf1b0305c6976a158d1b8e262de3fedf1bb2c2441430f4cb",
          "blockNumber": "0x17b838d",
          "blockTimestamp": "0x69fb8a7c",
          "transactionHash": "0xc225f6c9322add3b9c0995152665ef0a558f55bacff299bfb5a764431a95b9b8",
          "transactionIndex": "0x0",
          "logIndex": "0x0",
          "removed": false
        },
        {
          "address": "0xc02aaa39b223fe8d0a0e5c4f27ead9083c756cc2",
          "topics": [
            "0xddf252ad1be2c89b69c2b068fc378daa952ba7f163c4a11628f55a4df523b3ef",
            "0x000000000000000000000000e233420d38d286c2f2cf8dee6564f132fbdb09db",
            "0x000000000000000000000000e3745c151fab59b0740f4312b2b027f07d096639"
          ],
          "data": "0x000000000000000000000000000000000000000000000000005b7264c484c000",
          "blockHash": "0x01f218e8ea242cd8bf1b0305c6976a158d1b8e262de3fedf1bb2c2441430f4cb",
          "blockNumber": "0x17b838d",
          "blockTimestamp": "0x69fb8a7c",
          "transactionHash": "0xc225f6c9322add3b9c0995152665ef0a558f55bacff299bfb5a764431a95b9b8",
          "transactionIndex": "0x0",
          "logIndex": "0x1",
          "removed": false
        },
        {
          "address": "0xa5f104f8f78d5ba9aec4a383c0927337fd4e997b",
          "topics": [
            "0xddf252ad1be2c89b69c2b068fc378daa952ba7f163c4a11628f55a4df523b3ef",
            "0x000000000000000000000000e3745c151fab59b0740f4312b2b027f07d096639",
            "0x000000000000000000000000e233420d38d286c2f2cf8dee6564f132fbdb09db",
            "0x00000000000000000000000000000000000000000000000000000000000000c4"
          ],
          "data": "0x",
          "blockHash": "0x01f218e8ea242cd8bf1b0305c6976a158d1b8e262de3fedf1bb2c2441430f4cb",
          "blockNumber": "0x17b838d",
          "blockTimestamp": "0x69fb8a7c",
          "transactionHash": "0xc225f6c9322add3b9c0995152665ef0a558f55bacff299bfb5a764431a95b9b8",
          "transactionIndex": "0x0",
          "logIndex": "0x2",
          "removed": false
        },
        {
          "address": "0x8fa71914948544c60e3379064567dcf0e6564d27",
          "topics": [
            "0xc0ac3eb1e8caef05b202043f34de8e3173fab712167584f7a2a9f4c302bd0e9c",
            "0x6c3dc5a2041bdc3aaabb6936d75df2d91413aedcc1cdd15060330d7bc677e2ea",
            "0x000000000000000000000000a5f104f8f78d5ba9aec4a383c0927337fd4e997b",
            "0x00000000000000000000000000000000000000000000000000000000000000c4"
          ],
          "data": "0x000000000000000000000000e3745c151fab59b0740f4312b2b027f07d096639000000000000000000000000e233420d38d286c2f2cf8dee6564f132fbdb09db000000000000000000000000c02aaa39b223fe8d0a0e5c4f27ead9083c756cc2000000000000000000000000000000000000000000000000005c5edcbc290000",
          "blockHash": "0x01f218e8ea242cd8bf1b0305c6976a158d1b8e262de3fedf1bb2c2441430f4cb",
          "blockNumber": "0x17b838d",
          "blockTimestamp": "0x69fb8a7c",
          "transactionHash": "0xc225f6c9322add3b9c0995152665ef0a558f55bacff299bfb5a764431a95b9b8",
          "transactionIndex": "0x0",
          "logIndex": "0x3",
          "removed": false
        }
      ],
      "logsBloom": "0x00000000000040000000010000000000000000000100000000000000000000000000000000000000000000000000000042000000080000000000000000100000000000000000000000010008000000000000000000000020080000000000000000000001000000000001000000004000000000000000000000000010200000000800000040040000000004000000000000000000000000000000000000001000000000200000000400000000000000000000000000000080000000000000000000000012000004000000000000000000000000000002000080000040000000000100200000000000000000000000000000000000008000000000000000000000",
      "type": "0x2",
      "transactionHash": "0xc225f6c9322add3b9c0995152665ef0a558f55bacff299bfb5a764431a95b9b8",
      "transactionIndex": "0x0",
      "blockHash": "0x01f218e8ea242cd8bf1b0305c6976a158d1b8e262de3fedf1bb2c2441430f4cb",
      "blockNumber": "0x17b838d",
      "gasUsed": "0x20125",
      "effectiveGasPrice": "0x1ba81c",
      "blobGasPrice": "0x1",
      "from": "0xe233420d38d286c2f2cf8dee6564f132fbdb09db",
      "to": "0x8fa71914948544c60e3379064567dcf0e6564d27",
      "contractAddress": null
    }
  ],
  "libraries": [],
  "pending": [],
  "returns": {},
  "timestamp": 1778506532997,
  "chain": 31337,
  "commit": "59e30a9"
}