{
  "transactions": [
    {
      "hash": "0xbb632cb75115ffb05ae6dd5fb87e048371ecebd14c2c5a826fdc3122900cad57",
      "transactionType": "CALL",
      "contractName": null,
      "contractAddress": "0x73973d222c3fda5b2563d269da9e19cb125000f4",
      "function": "settle((uint256,address),(uint8,bool,address,uint256,address,uint256,address,uint64,uint64,uint256),(uint8,bytes32,bytes32))",
      "arguments": [
        "(469, 0x4b75AeC40561C03e03d4D1C421dF194a3031A134)",
        "(1, false, 0x38D4dE42C9c5640A2799B372D27B01957E0a3673, 469, 0xC02aaA39b223FE8D0A0e5C4F27eAD9083C756Cc2, 30000000000000000, 0x646dC5Fc4009C4C84a424B6aE0f494b374bAE1Ce, 1771969179, 1780096459, 9)",
        "(28, 0xe6e5dfeafe61ed2bc24454d80751477c58df7e8aa028c0d69c0f2daadac582f4, 0x3418c0d531dea22f69df238e08a532d4d194f674a645551f13612e0ce9770edc)"
      ],
      "transaction": {
        "from": "0x4b75aec40561c03e03d4d1c421df194a3031a134",
        "to": "0x73973d222c3fda5b2563d269da9e19cb125000f4",
        "gas": "0x2efb0",
        "value": "0x0",
        "input": "0x3bae3e7900000000000000000000000000000000000000000000000000000000000001d50000000000000000000000004b75aec40561c03e03d4d1c421df194a3031a1340000000000000000000000000000000000000000000000000000000000000001000000000000000000000000000000000000000000000000000000000000000000000000000000000000000038d4de42c9c5640a2799b372d27b01957e0a367300000000000000000000000000000000000000000000000000000000000001d5000000000000000000000000c02aaa39b223fe8d0a0e5c4f27ead9083c756cc2000000000000000000000000000000000000000000000000006a94d74f430000000000000000000000000000646dc5fc4009c4c84a424b6ae0f494b374bae1ce00000000000000000000000000000000000000000000000000000000699e1a9b000000000000000000000000000000000000000000000000000000006a1a1dcb0000000000000000000000000000000000000000000000000000000000000009000000000000000000000000000000000000000000000000000000000000001ce6e5dfeafe61ed2bc24454d80751477c58df7e8aa028c0d69c0f2daadac582f43418c0d531dea22f69df238e08a532d4d194f674a645551f13612e0ce9770edc",
        "nonce": "0x60",
        "chainId": "0x7a69"
      },
      "additionalContracts": [],
      "isFixedGasLimit": false
    }
  ],
  "receipts": [
    {
      "status": "0x1",
      "cumulativeGasUsed": "0x201fa",
      "logs": [
        {
          "address": "0xc02aaa39b223fe8d0a0e5c4f27ead9083c756cc2",
          "topics": [
            "0xddf252ad1be2c89b69c2b068fc378daa952ba7f163c4a11628f55a4df523b3ef",
            "0x000000000000000000000000646dc5fc4009c4c84a424b6ae0f494b374bae1ce",
            "0x0000000000000000000000001804c8ab1f12e6bbf3894d4083f33e07309d1f38"
          ],
          "data": "0x000000000000000000000000000000000000000000000000000110d9316ec000",
          "blockHash": "0x749d8271fe6a6041c47e38feefcfd165396d85a81e3f6c4171a9fe975f2acc00",
          "blockNumber": "0x17b73e6",
          "blockTimestamp": "0x69ed39f4",
          "transactionHash": "0xbb632cb75115ffb05ae6dd5fb87e048371ecebd14c2c5a826fdc3122900cad57",
          "transactionIndex": "0x0",
          "logIndex": "0x0",
          "removed": false
        },
        {
          "address": "0xc02aaa39b223fe8d0a0e5c4f27ead9083c756cc2",
          "topics": [
            "0xddf252ad1be2c89b69c2b068fc378daa952ba7f163c4a11628f55a4df523b3ef",
            "0x000000000000000000000000646dc5fc4009c4c84a424b6ae0f494b374bae1ce",
            "0x0000000000000000000000004b75aec40561c03e03d4d1c421df194a3031a134"
          ],
          "data": "0x000000000000000000000000000000000000000000000000006983fe1dd44000",
          "blockHash": "0x749d8271fe6a6041c47e38feefcfd165396d85a81e3f6c4171a9fe975f2acc00",
          "blockNumber": "0x17b73e6",
          "blockTimestamp": "0x69ed39f4",
          "transactionHash": "0xbb632cb75115ffb05ae6dd5fb87e048371ecebd14c2c5a826fdc3122900cad57",
          "transactionIndex": "0x0",
          "logIndex": "0x1",
          "removed": false
        },
        {
          "address": "0x38d4de42c9c5640a2799b372d27b01957e0a3673",
          "topics": [
            "0xddf252ad1be2c89b69c2b068fc378daa952ba7f163c4a11628f55a4df523b3ef",
            "0x0000000000000000000000004b75aec40561c03e03d4d1c421df194a3031a134",
            "0x000000000000000000000000646dc5fc4009c4c84a424b6ae0f494b374bae1ce",
            "0x00000000000000000000000000000000000000000000000000000000000001d5"
          ],
          "data": "0x",
          "blockHash": "0x749d8271fe6a6041c47e38feefcfd165396d85a81e3f6c4171a9fe975f2acc00",
          "blockNumber": "0x17b73e6",
          "blockTimestamp": "0x69ed39f4",
          "transactionHash": "0xbb632cb75115ffb05ae6dd5fb87e048371ecebd14c2c5a826fdc3122900cad57",
          "transactionIndex": "0x0",
          "logIndex": "0x2",
          "removed": false
        },
        {
          "address": "0x73973d222c3fda5b2563d269da9e19cb125000f4",
          "topics": [
            "0xc0ac3eb1e8caef05b202043f34de8e3173fab712167584f7a2a9f4c302bd0e9c",
            "0x924b3728a9ba70ba1681dd00651ae66e8905f08a3cc5cdaffa8a4dfdbef1e13b",
            "0x00000000000000000000000038d4de42c9c5640a2799b372d27b01957e0a3673",
            "0x00000000000000000000000000000000000000000000000000000000000001d5"
          ],
          "data": "0x0000000000000000000000004b75aec40561c03e03d4d1c421df194a3031a134000000000000000000000000646dc5fc4009c4c84a424b6ae0f494b374bae1ce000000000000000000000000c02aaa39b223fe8d0a0e5c4f27ead9083c756cc2000000000000000000000000000000000000000000000000006a94d74f430000",
          "blockHash": "0x749d8271fe6a6041c47e38feefcfd165396d85a81e3f6c4171a9fe975f2acc00",
          "blockNumber": "0x17b73e6",
          "blockTimestamp": "0x69ed39f4",
          "transactionHash": "0xbb632cb75115ffb05ae6dd5fb87e048371ecebd14c2c5a826fdc3122900cad57",
          "transactionIndex": "0x0",
          "logIndex": "0x3",
          "removed": false
        }
      ],
      "logsBloom": "0x00000000000000000000000000000000100000000002000000020000000000000000000200000000000000000000020002000000090000000004100000120000000000000000001021000008000000002000000000000000000000000000000000000000000000000005000000000000000000000000000000000010000000000000000000000000000004000000000000000000000008000000000000002000000000000000000000000000000400000000000000000080420000000000000000000002000004000000000000000000000000000000000000000000000000000100200000000000000000000000000000000000000000000000000000000000",
      "type": "0x2",
      "transactionHash": "0xbb632cb75115ffb05ae6dd5fb87e048371ecebd14c2c5a826fdc3122900cad57",
      "transactionIndex": "0x0",
      "blockHash": "0x749d8271fe6a6041c47e38feefcfd165396d85a81e3f6c4171a9fe975f2acc00",
      "blockNumber": "0x17b73e6",
      "gasUsed": "0x201fa",
      "effectiveGasPrice": "0xf4248",
      "blobGasPrice": "0x1",
      "from": "0x4b75aec40561c03e03d4d1c421df194a3031a134",
      "to": "0x73973d222c3fda5b2563d269da9e19cb125000f4",
      "contractAddress": null
    }
  ],
  "libraries": [],
  "pending": [],
  "returns": {},
  "timestamp": 1778453802351,
  "chain": 31337,
  "commit": "f87d399"
}