{
  "transactions": [
    {
      "hash": "0xc7122fc67e751beef3bb99c711a2530d3a93d6672b4987a60dc165828a9cc9f8",
      "transactionType": "CALL",
      "contractName": null,
      "contractAddress": "0x73973d222c3fda5b2563d269da9e19cb125000f4",
      "function": "settle((uint256,address),(uint8,bool,address,uint256,address,uint256,address,uint64,uint64,uint256),(uint8,bytes32,bytes32))",
      "arguments": [
        "(0, 0xc5aDfC119364CFE2297e4414dB04834d8702475B)",
        "(0, false, 0x38D4dE42C9c5640A2799B372D27B01957E0a3673, 369, 0xC02aaA39b223FE8D0A0e5C4F27eAD9083C756Cc2, 23000000000000000, 0x1302F142Fc55B165647d3Bd5dec227f569A2A907, 1773360001, 1778705637, 2)",
        "(28, 0xfbcd7392a234161b71cbcbb5e76e73a7a41b308f2f995abb969ddb3b43916aaa, 0x4da7dcd19bc4c4a2c84595f5851e4d0de8fdc5172bb630fb0f18cbd7216e0c09)"
      ],
      "transaction": {
        "from": "0xc5adfc119364cfe2297e4414db04834d8702475b",
        "to": "0x73973d222c3fda5b2563d269da9e19cb125000f4",
        "gas": "0x2c4e8",
        "value": "0x0",
        "input": "0x3bae3e790000000000000000000000000000000000000000000000000000000000000000000000000000000000000000c5adfc119364cfe2297e4414db04834d8702475b0000000000000000000000000000000000000000000000000000000000000000000000000000000000000000000000000000000000000000000000000000000000000000000000000000000038d4de42c9c5640a2799b372d27b01957e0a36730000000000000000000000000000000000000000000000000000000000000171000000000000000000000000c02aaa39b223fe8d0a0e5c4f27ead9083c756cc20000000000000000000000000000000000000000000000000051b660cdd580000000000000000000000000001302f142fc55b165647d3bd5dec227f569a2a9070000000000000000000000000000000000000000000000000000000069b35381000000000000000000000000000000000000000000000000000000006a04e4e50000000000000000000000000000000000000000000000000000000000000002000000000000000000000000000000000000000000000000000000000000001cfbcd7392a234161b71cbcbb5e76e73a7a41b308f2f995abb969ddb3b43916aaa4da7dcd19bc4c4a2c84595f5851e4d0de8fdc5172bb630fb0f18cbd7216e0c09",
        "nonce": "0x62",
        "chainId": "0x7a69"
      },
      "additionalContracts": [],
      "isFixedGasLimit": false
    }
  ],
  "receipts": [
    {
      "status": "0x1",
      "cumulativeGasUsed": "0x2013d",
      "logs": [
        {
          "address": "0xc02aaa39b223fe8d0a0e5c4f27ead9083c756cc2",
          "topics": [
            "0xddf252ad1be2c89b69c2b068fc378daa952ba7f163c4a11628f55a4df523b3ef",
            "0x000000000000000000000000c5adfc119364cfe2297e4414db04834d8702475b",
            "0x0000000000000000000000001804c8ab1f12e6bbf3894d4083f33e07309d1f38"
          ],
          "data": "0x0000000000000000000000000000000000000000000000000000d12f0c4c6000",
          "blockHash": "0xd003a78dcf5fe8f511f910d6dd97bc22478cd877d601251fc7ee20b683168481",
          "blockNumber": "0x17b738b",
          "blockTimestamp": "0x69dce384",
          "transactionHash": "0xc7122fc67e751beef3bb99c711a2530d3a93d6672b4987a60dc165828a9cc9f8",
          "transactionIndex": "0x0",
          "logIndex": "0x0",
          "removed": false
        },
        {
          "address": "0xc02aaa39b223fe8d0a0e5c4f27ead9083c756cc2",
          "topics": [
            "0xddf252ad1be2c89b69c2b068fc378daa952ba7f163c4a11628f55a4df523b3ef",
            "0x000000000000000000000000c5adfc119364cfe2297e4414db04834d8702475b",
            "0x0000000000000000000000001302f142fc55b165647d3bd5dec227f569a2a907"
          ],
          "data": "0x0000000000000000000000000000000000000000000000000050e531c1892000",
          "blockHash": "0xd003a78dcf5fe8f511f910d6dd97bc22478cd877d601251fc7ee20b683168481",
          "blockNumber": "0x17b738b",
          "blockTimestamp": "0x69dce384",
          "transactionHash": "0xc7122fc67e751beef3bb99c711a2530d3a93d6672b4987a60dc165828a9cc9f8",
          "transactionIndex": "0x0",
          "logIndex": "0x1",
          "removed": false
        },
        {
          "address": "0x38d4de42c9c5640a2799b372d27b01957e0a3673",
          "topics": [
            "0xddf252ad1be2c89b69c2b068fc378daa952ba7f163c4a11628f55a4df523b3ef",
            "0x0000000000000000000000001302f142fc55b165647d3bd5dec227f569a2a907",
            "0x000000000000000000000000c5adfc119364cfe2297e4414db04834d8702475b",
            "0x0000000000000000000000000000000000000000000000000000000000000171"
          ],
          "data": "0x",
          "blockHash": "0xd003a78dcf5fe8f511f910d6dd97bc22478cd877d601251fc7ee20b683168481",
          "blockNumber": "0x17b738b",
          "blockTimestamp": "0x69dce384",
          "transactionHash": "0xc7122fc67e751beef3bb99c711a2530d3a93d6672b4987a60dc165828a9cc9f8",
          "transactionIndex": "0x0",
          "logIndex": "0x2",
          "removed": false
        },
        {
          "address": "0x73973d222c3fda5b2563d269da9e19cb125000f4",
          "topics": [
            "0xc0ac3eb1e8caef05b202043f34de8e3173fab712167584f7a2a9f4c302bd0e9c",
            "0x211ca70c6c59121caf2c9b3014bf22878eff1161cf68130b3ff9f5fd920068f8",
            "0x00000000000000000000000038d4de42c9c5640a2799b372d27b01957e0a3673",
            "0x0000000000000000000000000000000000000000000000000000000000000171"
          ],
          "data": "0x0000000000000000000000001302f142fc55b165647d3bd5dec227f569a2a907000000000000000000000000c5adfc119364cfe2297e4414db04834d8702475b000000000000000000000000c02aaa39b223fe8d0a0e5c4f27ead9083c756cc20000000000000000000000000000000000000000000000000051b660cdd58000",
          "blockHash": "0xd003a78dcf5fe8f511f910d6dd97bc22478cd877d601251fc7ee20b683168481",
          "blockNumber": "0x17b738b",
          "blockTimestamp": "0x69dce384",
          "transactionHash": "0xc7122fc67e751beef3bb99c711a2530d3a93d6672b4987a60dc165828a9cc9f8",
          "transactionIndex": "0x0",
          "logIndex": "0x3",
          "removed": false
        }
      ],
      "logsBloom": "0x00000000000000000000000000000000000000000002000000000000000000800000000000000000000000000000020002000000080000000004100000100000000000000000001021100008000000000000000000000000010000000000000200000000000000000001000000000000000000000000000000000010000000000000080000000000000004000000000000000000000008000000000000000000000000000000000000400000000120000000000000000080400000000000000000000002000004000000000200000000000000000000000000000000000000000100200000000000000040000000000000000000020000002000000000000000",
      "type": "0x2",
      "transactionHash": "0xc7122fc67e751beef3bb99c711a2530d3a93d6672b4987a60dc165828a9cc9f8",
      "transactionIndex": "0x0",
      "blockHash": "0xd003a78dcf5fe8f511f910d6dd97bc22478cd877d601251fc7ee20b683168481",
      "blockNumber": "0x17b738b",
      "gasUsed": "0x2013d",
      "effectiveGasPrice": "0xf4248",
      "blobGasPrice": "0x1",
      "from": "0xc5adfc119364cfe2297e4414db04834d8702475b",
      "to": "0x73973d222c3fda5b2563d269da9e19cb125000f4",
      "contractAddress": null
    }
  ],
  "libraries": [],
  "pending": [],
  "returns": {},
  "timestamp": 1778453686751,
  "chain": 31337,
  "commit": "f87d399"
}