{
  "transactions": [
    {
      "hash": "0x58303331aff6d1c57d90e4e49ef45abb87be725d1cd3325a419d405c9a19b643",
      "transactionType": "CALL",
      "contractName": null,
      "contractAddress": "0x8fa71914948544c60e3379064567dcf0e6564d27",
      "function": "settle((uint256,address),(uint8,bool,address,uint256,address,uint256,address,uint64,uint64,uint256),(uint8,bytes32,bytes32))",
      "arguments": [
        "(0, 0xc5aDfC119364CFE2297e4414dB04834d8702475B)",
        "(0, false, 0xA5f104F8f78d5ba9AEC4a383c0927337Fd4E997B, 147, 0xC02aaA39b223FE8D0A0e5C4F27eAD9083C756Cc2, 42000000000000000, 0xe3745C151faB59B0740f4312b2B027F07D096639, 1772950339, 1779112923, 2)",
        "(28, 0x27eb2ed681854dd35067f2c5ba875f2f9141ed93ba189db17aeee86192f66b74, 0x2dc9b8f982fbd31614df4b159f7b2245502b96da102936fd206c2324c8952528)"
      ],
      "transaction": {
        "from": "0xc5adfc119364cfe2297e4414db04834d8702475b",
        "to": "0x8fa71914948544c60e3379064567dcf0e6564d27",
        "gas": "0x2c4c7",
        "value": "0x0",
        "input": "0x3bae3e790000000000000000000000000000000000000000000000000000000000000000000000000000000000000000c5adfc119364cfe2297e4414db04834d8702475b00000000000000000000000000000000000000000000000000000000000000000000000000000000000000000000000000000000000000000000000000000000000000000000000000000000a5f104f8f78d5ba9aec4a383c0927337fd4e997b0000000000000000000000000000000000000000000000000000000000000093000000000000000000000000c02aaa39b223fe8d0a0e5c4f27ead9083c756cc2000000000000000000000000000000000000000000000000009536c708910000000000000000000000000000e3745c151fab59b0740f4312b2b027f07d0966390000000000000000000000000000000000000000000000000000000069ad1343000000000000000000000000000000000000000000000000000000006a0b1bdb0000000000000000000000000000000000000000000000000000000000000002000000000000000000000000000000000000000000000000000000000000001c27eb2ed681854dd35067f2c5ba875f2f9141ed93ba189db17aeee86192f66b742dc9b8f982fbd31614df4b159f7b2245502b96da102936fd206c2324c8952528",
        "nonce": "0x35",
        "chainId": "0x7a69"
      },
      "additionalContracts": [],
      "isFixedGasLimit": false
    }
  ],
  "receipts": [
    {
      "status": "0x1",
      "cumulativeGasUsed": "0x20125",
      "logs": [
        {
          "address": "0xc02aaa39b223fe8d0a0e5c4f27ead9083c756cc2",
          "topics": [
            "0xddf252ad1be2c89b69c2b068fc378daa952ba7f163c4a11628f55a4df523b3ef",
            "0x000000000000000000000000c5adfc119364cfe2297e4414db04834d8702475b",
            "0x0000000000000000000000001804c8ab1f12e6bbf3894d4083f33e07309d1f38"
          ],
          "data": "0x00000000000000000000000000000000000000000000000000017dfcdece4000",
          "blockHash": "0x48d0edd2fcd80fc694bd85c898592ed5decdc6c91d05c1c5d336c6ea03471ba8",
          "blockNumber": "0x17b7119",
          "blockTimestamp": "0x69ded3c6",
          "transactionHash": "0x58303331aff6d1c57d90e4e49ef45abb87be725d1cd3325a419d405c9a19b643",
          "transactionIndex": "0x0",
          "logIndex": "0x0",
          "removed": false
        },
        {
          "address": "0xc02aaa39b223fe8d0a0e5c4f27ead9083c756cc2",
          "topics": [
            "0xddf252ad1be2c89b69c2b068fc378daa952ba7f163c4a11628f55a4df523b3ef",
            "0x000000000000000000000000c5adfc119364cfe2297e4414db04834d8702475b",
            "0x000000000000000000000000e3745c151fab59b0740f4312b2b027f07d096639"
          ],
          "data": "0x0000000000000000000000000000000000000000000000000093b8ca29c2c000",
          "blockHash": "0x48d0edd2fcd80fc694bd85c898592ed5decdc6c91d05c1c5d336c6ea03471ba8",
          "blockNumber": "0x17b7119",
          "blockTimestamp": "0x69ded3c6",
          "transactionHash": "0x58303331aff6d1c57d90e4e49ef45abb87be725d1cd3325a419d405c9a19b643",
          "transactionIndex": "0x0",
          "logIndex": "0x1",
          "removed": false
        },
        {
          "address": "0xa5f104f8f78d5ba9aec4a383c0927337fd4e997b",
          "topics": [
            "0xddf252ad1be2c89b69c2b068fc378daa952ba7f163c4a11628f55a4df523b3ef",
            "0x000000000000000000000000e3745c151fab59b0740f4312b2b027f07d096639",
            "0x000000000000000000000000c5adfc119364cfe2297e4414db04834d8702475b",
            "0x0000000000000000000000000000000000000000000000000000000000000093"
          ],
          "data": "0x",
          "blockHash": "0x48d0edd2fcd80fc694bd85c898592ed5decdc6c91d05c1c5d336c6ea03471ba8",
          "blockNumber": "0x17b7119",
          "blockTimestamp": "0x69ded3c6",
          "transactionHash": "0x58303331aff6d1c57d90e4e49ef45abb87be725d1cd3325a419d405c9a19b643",
          "transactionIndex": "0x0",
          "logIndex": "0x2",
          "removed": false
        },
        {
          "address": "0x8fa71914948544c60e3379064567dcf0e6564d27",
          "topics": [
            "0xc0ac3eb1e8caef05b202043f34de8e3173fab712167584f7a2a9f4c302bd0e9c",
            "0xde55a06724b41f89a48bf3e1c42d0239870a293afe2da0dc9e1a3878b8a8f8c7",
            "0x000000000000000000000000a5f104f8f78d5ba9aec4a383c0927337fd4e997b",
            "0x0000000000000000000000000000000000000000000000000000000000000093"
          ],
          "data": "0x000000000000000000000000e3745c151fab59b0740f4312b2b027f07d096639000000000000000000000000c5adfc119364cfe2297e4414db04834d8702475b000000000000000000000000c02aaa39b223fe8d0a0e5c4f27ead9083c756cc2000000000000000000000000000000000000000000000000009536c708910000",
          "blockHash": "0x48d0edd2fcd80fc694bd85c898592ed5decdc6c91d05c1c5d336c6ea03471ba8",
          "blockNumber": "0x17b7119",
          "blockTimestamp": "0x69ded3c6",
          "transactionHash": "0x58303331aff6d1c57d90e4e49ef45abb87be725d1cd3325a419d405c9a19b643",
          "transactionIndex": "0x0",
          "logIndex": "0x3",
          "removed": false
        }
      ],
      "logsBloom": "0x00000000000000000000010000000000000000000100000000000000000000000000000000000000000000000000000042000000080000000000000000100000000000400000000000010008000000000000000000000000080000000000000200000000000000000001010000000000000000000000000008000010200000000800000000040000000004000000000000000000000000000000000000000000000000200000000400000000000020000000000000000080000000000000000400000002000004000000000000000000000000000000000080000040000000000100200004000000000000000000000004000000000000002000000000000000",
      "type": "0x2",
      "transactionHash": "0x58303331aff6d1c57d90e4e49ef45abb87be725d1cd3325a419d405c9a19b643",
      "transactionIndex": "0x0",
      "blockHash": "0x48d0edd2fcd80fc694bd85c898592ed5decdc6c91d05c1c5d336c6ea03471ba8",
      "blockNumber": "0x17b7119",
      "gasUsed": "0x20125",
      "effectiveGasPrice": "0x154c2b",
      "blobGasPrice": "0x1",
      "from": "0xc5adfc119364cfe2297e4414db04834d8702475b",
      "to": "0x8fa71914948544c60e3379064567dcf0e6564d27",
      "contractAddress": null
    }
  ],
  "libraries": [],
  "pending": [],
  "returns": {},
  "timestamp": 1778450904231,
  "chain": 31337,
  "commit": "f87d399"
}