{
  "transactions": [
    {
      "hash": "0xb3b586e294fef66cee4768000a31ff93d8454492078dcf4144643ffd488acf07",
      "transactionType": "CALL",
      "contractName": null,
      "contractAddress": "0x8fa71914948544c60e3379064567dcf0e6564d27",
      "function": "settle((uint256,address),(uint8,bool,address,uint256,address,uint256,address,uint64,uint64,uint256),(uint8,bytes32,bytes32))",
      "arguments": [
        "(349, 0xe3745C151faB59B0740f4312b2B027F07D096639)",
        "(1, false, 0xA5f104F8f78d5ba9AEC4a383c0927337Fd4E997B, 349, 0xC02aaA39b223FE8D0A0e5C4F27eAD9083C756Cc2, 31000000000000000, 0xa382b0E75C192D9CDF5c084E58b750Cea7761Bd0, 1771967620, 1780206666, 11)",
        "(27, 0x2f32b8786602816495b715f7f3846d2080fac0cea8695eb805305b77673c8042, 0x1cd1d2e42b75be7e57cfa55858bce049b7f0049e1e21901877dbc0385530d9a6)"
      ],
      "transaction": {
        "from": "0xe3745c151fab59b0740f4312b2b027f07d096639",
        "to": "0x8fa71914948544c60e3379064567dcf0e6564d27",
        "gas": "0x2efa4",
        "value": "0x0",
        "input": "0x3bae3e79000000000000000000000000000000000000000000000000000000000000015d000000000000000000000000e3745c151fab59b0740f4312b2b027f07d09663900000000000000000000000000000000000000000000000000000000000000010000000000000000000000000000000000000000000000000000000000000000000000000000000000000000a5f104f8f78d5ba9aec4a383c0927337fd4e997b000000000000000000000000000000000000000000000000000000000000015d000000000000000000000000c02aaa39b223fe8d0a0e5c4f27ead9083c756cc2000000000000000000000000000000000000000000000000006e2255f4098000000000000000000000000000a382b0e75c192d9cdf5c084e58b750cea7761bd000000000000000000000000000000000000000000000000000000000699e1484000000000000000000000000000000000000000000000000000000006a1bcc4a000000000000000000000000000000000000000000000000000000000000000b000000000000000000000000000000000000000000000000000000000000001b2f32b8786602816495b715f7f3846d2080fac0cea8695eb805305b77673c80421cd1d2e42b75be7e57cfa55858bce049b7f0049e1e21901877dbc0385530d9a6",
        "nonce": "0x53",
        "chainId": "0x7a69"
      },
      "additionalContracts": [],
      "isFixedGasLimit": false
    }
  ],
  "receipts": [
    {
      "status": "0x1",
      "cumulativeGasUsed": "0x201f2",
      "logs": [
        {
          "address": "0xc02aaa39b223fe8d0a0e5c4f27ead9083c756cc2",
          "topics": [
            "0xddf252ad1be2c89b69c2b068fc378daa952ba7f163c4a11628f55a4df523b3ef",
            "0x000000000000000000000000a382b0e75c192d9cdf5c084e58b750cea7761bd0",
            "0x0000000000000000000000001804c8ab1f12e6bbf3894d4083f33e07309d1f38"
          ],
          "data": "0x000000000000000000000000000000000000000000000000000119f17fe16000",
          "blockHash": "0xfc072a615a26f306d68e6f49c941824a84d5454c0bfd62571c73b5cee1bf8b5a",
          "blockNumber": "0x17b837e",
          "blockTimestamp": "0x69f7ff4f",
          "transactionHash": "0xb3b586e294fef66cee4768000a31ff93d8454492078dcf4144643ffd488acf07",
          "transactionIndex": "0x0",
          "logIndex": "0x0",
          "removed": false
        },
        {
          "address": "0xc02aaa39b223fe8d0a0e5c4f27ead9083c756cc2",
          "topics": [
            "0xddf252ad1be2c89b69c2b068fc378daa952ba7f163c4a11628f55a4df523b3ef",
            "0x000000000000000000000000a382b0e75c192d9cdf5c084e58b750cea7761bd0",
            "0x000000000000000000000000e3745c151fab59b0740f4312b2b027f07d096639"
          ],
          "data": "0x000000000000000000000000000000000000000000000000006d086474282000",
          "blockHash": "0xfc072a615a26f306d68e6f49c941824a84d5454c0bfd62571c73b5cee1bf8b5a",
          "blockNumber": "0x17b837e",
          "blockTimestamp": "0x69f7ff4f",
          "transactionHash": "0xb3b586e294fef66cee4768000a31ff93d8454492078dcf4144643ffd488acf07",
          "transactionIndex": "0x0",
          "logIndex": "0x1",
          "removed": false
        },
        {
          "address": "0xa5f104f8f78d5ba9aec4a383c0927337fd4e997b",
          "topics": [
            "0xddf252ad1be2c89b69c2b068fc378daa952ba7f163c4a11628f55a4df523b3ef",
            "0x000000000000000000000000e3745c151fab59b0740f4312b2b027f07d096639",
            "0x000000000000000000000000a382b0e75c192d9cdf5c084e58b750cea7761bd0",
            "0x000000000000000000000000000000000000000000000000000000000000015d"
          ],
          "data": "0x",
          "blockHash": "0xfc072a615a26f306d68e6f49c941824a84d5454c0bfd62571c73b5cee1bf8b5a",
          "blockNumber": "0x17b837e",
          "blockTimestamp": "0x69f7ff4f",
          "transactionHash": "0xb3b586e294fef66cee4768000a31ff93d8454492078dcf4144643ffd488acf07",
          "transactionIndex": "0x0",
          "logIndex": "0x2",
          "removed": false
        },
        {
          "address": "0x8fa71914948544c60e3379064567dcf0e6564d27",
          "topics": [
            "0xc0ac3eb1e8caef05b202043f34de8e3173fab712167584f7a2a9f4c302bd0e9c",
            "0xeca02e6af47ee285e613081be15ca24b7f5ebe6d363fc61136200b574bf6f983",
            "0x000000000000000000000000a5f104f8f78d5ba9aec4a383c0927337fd4e997b",
            "0x000000000000000000000000000000000000000000000000000000000000015d"
          ],
          "data": "0x000000000000000000000000e3745c151fab59b0740f4312b2b027f07d096639000000000000000000000000a382b0e75c192d9cdf5c084e58b750cea7761bd0000000000000000000000000c02aaa39b223fe8d0a0e5c4f27ead9083c756cc2000000000000000000000000000000000000000000000000006e2255f4098000",
          "blockHash": "0xfc072a615a26f306d68e6f49c941824a84d5454c0bfd62571c73b5cee1bf8b5a",
          "blockNumber": "0x17b837e",
          "blockTimestamp": "0x69f7ff4f",
          "transactionHash": "0xb3b586e294fef66cee4768000a31ff93d8454492078dcf4144643ffd488acf07",
          "transactionIndex": "0x0",
          "logIndex": "0x3",
          "removed": false
        }
      ],
      "logsBloom": "0x00000000000000000000010000000000000000000100000000000000000000000000000000000000000000000000000042000000080000000000000000100000000000000000000000010008100100000000001000000000080000000000000000000000000000000001000000002000000000000000040000000010200000000800000000040000000004000000000000100000000000000000000000000000000000200000000400000000000000000000000000000080000000000000000000000002000004000000000000000000000000000000000081000040000000000100200000000000000000000000000000000000100000400000000000000000",
      "type": "0x2",
      "transactionHash": "0xb3b586e294fef66cee4768000a31ff93d8454492078dcf4144643ffd488acf07",
      "transactionIndex": "0x0",
      "blockHash": "0xfc072a615a26f306d68e6f49c941824a84d5454c0bfd62571c73b5cee1bf8b5a",
      "blockNumber": "0x17b837e",
      "gasUsed": "0x201f2",
      "effectiveGasPrice": "0x1ba81c",
      "blobGasPrice": "0x1",
      "from": "0xe3745c151fab59b0740f4312b2b027f07d096639",
      "to": "0x8fa71914948544c60e3379064567dcf0e6564d27",
      "contractAddress": null
    }
  ],
  "libraries": [],
  "pending": [],
  "returns": {},
  "timestamp": 1778506507858,
  "chain": 31337,
  "commit": "59e30a9"
}