{
  "transactions": [
    {
      "hash": "0xb3e4b75a4c0cc82dc2abdf1243a5f1417ee58ea4434b2f389e38d05506f0c766",
      "transactionType": "CALL",
      "contractName": null,
      "contractAddress": "0x73973d222c3fda5b2563d269da9e19cb125000f4",
      "function": "settle((uint256,address),(uint8,bool,address,uint256,address,uint256,address,uint64,uint64,uint256),(uint8,bytes32,bytes32))",
      "arguments": [
        "(416, 0xc5aDfC119364CFE2297e4414dB04834d8702475B)",
        "(1, false, 0x38D4dE42C9c5640A2799B372D27B01957E0a3673, 416, 0xC02aaA39b223FE8D0A0e5C4F27eAD9083C756Cc2, 25000000000000000, 0x1302F142Fc55B165647d3Bd5dec227f569A2A907, 1773081218, 1778984420, 14)",
        "(28, 0x5dd43228d32f547e7111e039f674de0dcf9c4718e0b1e19825a367b8358c9a7b, 0x4f6bb0d6c75caccb26b11c1f924dfa92e9f65b6cf9e2232faba04d04f5ade71e)"
      ],
      "transaction": {
        "from": "0xc5adfc119364cfe2297e4414db04834d8702475b",
        "to": "0x73973d222c3fda5b2563d269da9e19cb125000f4",
        "gas": "0x2c5fe",
        "value": "0x0",
        "input": "0x3bae3e7900000000000000000000000000000000000000000000000000000000000001a0000000000000000000000000c5adfc119364cfe2297e4414db04834d8702475b0000000000000000000000000000000000000000000000000000000000000001000000000000000000000000000000000000000000000000000000000000000000000000000000000000000038d4de42c9c5640a2799b372d27b01957e0a367300000000000000000000000000000000000000000000000000000000000001a0000000000000000000000000c02aaa39b223fe8d0a0e5c4f27ead9083c756cc20000000000000000000000000000000000000000000000000058d15e176280000000000000000000000000001302f142fc55b165647d3bd5dec227f569a2a9070000000000000000000000000000000000000000000000000000000069af1282000000000000000000000000000000000000000000000000000000006a0925e4000000000000000000000000000000000000000000000000000000000000000e000000000000000000000000000000000000000000000000000000000000001c5dd43228d32f547e7111e039f674de0dcf9c4718e0b1e19825a367b8358c9a7b4f6bb0d6c75caccb26b11c1f924dfa92e9f65b6cf9e2232faba04d04f5ade71e",
        "nonce": "0x69",
        "chainId": "0x7a69"
      },
      "additionalContracts": [],
      "isFixedGasLimit": false
    }
  ],
  "receipts": [
    {
      "status": "0x1",
      "cumulativeGasUsed": "0x20206",
      "logs": [
        {
          "address": "0xc02aaa39b223fe8d0a0e5c4f27ead9083c756cc2",
          "topics": [
            "0xddf252ad1be2c89b69c2b068fc378daa952ba7f163c4a11628f55a4df523b3ef",
            "0x0000000000000000000000001302f142fc55b165647d3bd5dec227f569a2a907",
            "0x0000000000000000000000001804c8ab1f12e6bbf3894d4083f33e07309d1f38"
          ],
          "data": "0x0000000000000000000000000000000000000000000000000000e35fa931a000",
          "blockHash": "0x4f574fe07fdc3fddf477528160ab30e4ecc814764baddf6fa19934367f91b216",
          "blockNumber": "0x17b73ca",
          "blockTimestamp": "0x69e870da",
          "transactionHash": "0xb3e4b75a4c0cc82dc2abdf1243a5f1417ee58ea4434b2f389e38d05506f0c766",
          "transactionIndex": "0x0",
          "logIndex": "0x0",
          "removed": false
        },
        {
          "address": "0xc02aaa39b223fe8d0a0e5c4f27ead9083c756cc2",
          "topics": [
            "0xddf252ad1be2c89b69c2b068fc378daa952ba7f163c4a11628f55a4df523b3ef",
            "0x0000000000000000000000001302f142fc55b165647d3bd5dec227f569a2a907",
            "0x000000000000000000000000c5adfc119364cfe2297e4414db04834d8702475b"
          ],
          "data": "0x0000000000000000000000000000000000000000000000000057edfe6e30e000",
          "blockHash": "0x4f574fe07fdc3fddf477528160ab30e4ecc814764baddf6fa19934367f91b216",
          "blockNumber": "0x17b73ca",
          "blockTimestamp": "0x69e870da",
          "transactionHash": "0xb3e4b75a4c0cc82dc2abdf1243a5f1417ee58ea4434b2f389e38d05506f0c766",
          "transactionIndex": "0x0",
          "logIndex": "0x1",
          "removed": false
        },
        {
          "address": "0x38d4de42c9c5640a2799b372d27b01957e0a3673",
          "topics": [
            "0xddf252ad1be2c89b69c2b068fc378daa952ba7f163c4a11628f55a4df523b3ef",
            "0x000000000000000000000000c5adfc119364cfe2297e4414db04834d8702475b",
            "0x0000000000000000000000001302f142fc55b165647d3bd5dec227f569a2a907",
            "0x00000000000000000000000000000000000000000000000000000000000001a0"
          ],
          "data": "0x",
          "blockHash": "0x4f574fe07fdc3fddf477528160ab30e4ecc814764baddf6fa19934367f91b216",
          "blockNumber": "0x17b73ca",
          "blockTimestamp": "0x69e870da",
          "transactionHash": "0xb3e4b75a4c0cc82dc2abdf1243a5f1417ee58ea4434b2f389e38d05506f0c766",
          "transactionIndex": "0x0",
          "logIndex": "0x2",
          "removed": false
        },
        {
          "address": "0x73973d222c3fda5b2563d269da9e19cb125000f4",
          "topics": [
            "0xc0ac3eb1e8caef05b202043f34de8e3173fab712167584f7a2a9f4c302bd0e9c",
            "0x5dead70e2291550f11c726694afc11b2b505ff9c23235876cb17c04be9d2b85b",
            "0x00000000000000000000000038d4de42c9c5640a2799b372d27b01957e0a3673",
            "0x00000000000000000000000000000000000000000000000000000000000001a0"
          ],
          "data": "0x000000000000000000000000c5adfc119364cfe2297e4414db04834d8702475b0000000000000000000000001302f142fc55b165647d3bd5dec227f569a2a907000000000000000000000000c02aaa39b223fe8d0a0e5c4f27ead9083c756cc20000000000000000000000000000000000000000000000000058d15e17628000",
          "blockHash": "0x4f574fe07fdc3fddf477528160ab30e4ecc814764baddf6fa19934367f91b216",
          "blockNumber": "0x17b73ca",
          "blockTimestamp": "0x69e870da",
          "transactionHash": "0xb3e4b75a4c0cc82dc2abdf1243a5f1417ee58ea4434b2f389e38d05506f0c766",
          "transactionIndex": "0x0",
          "logIndex": "0x3",
          "removed": false
        }
      ],
      "logsBloom": "0x00000000000000000000000000000000000000000002000000000000000000000000000000000000000000000000020002000000080000000004100000108000000000000000001021000008000000000000010000000000000000000000000200000000000000000001000000000000000000000000000000000010000000000000000000000000000004000000000000000000000008000000000000000000000000000000000000000000000120000200000000000080400000000000000000000002000004000000000200000001000000000000040000000000000000000100200000000000000040000000000002000000000000002000000000000000",
      "type": "0x2",
      "transactionHash": "0xb3e4b75a4c0cc82dc2abdf1243a5f1417ee58ea4434b2f389e38d05506f0c766",
      "transactionIndex": "0x0",
      "blockHash": "0x4f574fe07fdc3fddf477528160ab30e4ecc814764baddf6fa19934367f91b216",
      "blockNumber": "0x17b73ca",
      "gasUsed": "0x20206",
      "effectiveGasPrice": "0xf4248",
      "blobGasPrice": "0x1",
      "from": "0xc5adfc119364cfe2297e4414db04834d8702475b",
      "to": "0x73973d222c3fda5b2563d269da9e19cb125000f4",
      "contractAddress": null
    }
  ],
  "libraries": [],
  "pending": [],
  "returns": {},
  "timestamp": 1778453777741,
  "chain": 31337,
  "commit": "f87d399"
}