{
  "transactions": [
    {
      "hash": "0xc5c5bc3c6bdf1c9c133a9541516b36880bce08cc7f7c63d3cd9c9a4815c6f3b3",
      "transactionType": "CALL",
      "contractName": null,
      "contractAddress": "0x8fa71914948544c60e3379064567dcf0e6564d27",
      "function": "settle((uint256,address),(uint8,bool,address,uint256,address,uint256,address,uint64,uint64,uint256),(uint8,bytes32,bytes32))",
      "arguments": [
        "(48, 0x4b75AeC40561C03e03d4D1C421dF194a3031A134)",
        "(1, false, 0xA5f104F8f78d5ba9AEC4a383c0927337Fd4E997B, 48, 0xC02aaA39b223FE8D0A0e5C4F27eAD9083C756Cc2, 21000000000000000, 0x08312E82df563A1639b81f49bb41247759700e30, 1772935816, 1779238470, 2)",
        "(28, 0xc65580c5b94cade473d027c999d8cd42575f00e0b797acb7a8c8c95bcaaa3904, 0x4773040d330a0f34e7e0b4acb46dd94899b84f144619e217952f5cca08786393)"
      ],
      "transaction": {
        "from": "0x4b75aec40561c03e03d4d1c421df194a3031a134",
        "to": "0x8fa71914948544c60e3379064567dcf0e6564d27",
        "gas": "0x2ef8d",
        "value": "0x0",
        "input": "0x3bae3e7900000000000000000000000000000000000000000000000000000000000000300000000000000000000000004b75aec40561c03e03d4d1c421df194a3031a13400000000000000000000000000000000000000000000000000000000000000010000000000000000000000000000000000000000000000000000000000000000000000000000000000000000a5f104f8f78d5ba9aec4a383c0927337fd4e997b0000000000000000000000000000000000000000000000000000000000000030000000000000000000000000c02aaa39b223fe8d0a0e5c4f27ead9083c756cc2000000000000000000000000000000000000000000000000004a9b638448800000000000000000000000000008312e82df563a1639b81f49bb41247759700e300000000000000000000000000000000000000000000000000000000069acda88000000000000000000000000000000000000000000000000000000006a0d06460000000000000000000000000000000000000000000000000000000000000002000000000000000000000000000000000000000000000000000000000000001cc65580c5b94cade473d027c999d8cd42575f00e0b797acb7a8c8c95bcaaa39044773040d330a0f34e7e0b4acb46dd94899b84f144619e217952f5cca08786393",
        "nonce": "0x27",
        "chainId": "0x7a69"
      },
      "additionalContracts": [],
      "isFixedGasLimit": false
    }
  ],
  "receipts": [
    {
      "status": "0x1",
      "cumulativeGasUsed": "0x201e2",
      "logs": [
        {
          "address": "0xc02aaa39b223fe8d0a0e5c4f27ead9083c756cc2",
          "topics": [
            "0xddf252ad1be2c89b69c2b068fc378daa952ba7f163c4a11628f55a4df523b3ef",
            "0x00000000000000000000000008312e82df563a1639b81f49bb41247759700e30",
            "0x0000000000000000000000001804c8ab1f12e6bbf3894d4083f33e07309d1f38"
          ],
          "data": "0x0000000000000000000000000000000000000000000000000000befe6f672000",
          "blockHash": "0x08679ecd94f8508403cff2d3a976d709d6844984fc66f7fe15d265ce572bd739",
          "blockNumber": "0x17b8321",
          "blockTimestamp": "0x69e00421",
          "transactionHash": "0xc5c5bc3c6bdf1c9c133a9541516b36880bce08cc7f7c63d3cd9c9a4815c6f3b3",
          "transactionIndex": "0x0",
          "logIndex": "0x0",
          "removed": false
        },
        {
          "address": "0xc02aaa39b223fe8d0a0e5c4f27ead9083c756cc2",
          "topics": [
            "0xddf252ad1be2c89b69c2b068fc378daa952ba7f163c4a11628f55a4df523b3ef",
            "0x00000000000000000000000008312e82df563a1639b81f49bb41247759700e30",
            "0x0000000000000000000000004b75aec40561c03e03d4d1c421df194a3031a134"
          ],
          "data": "0x0000000000000000000000000000000000000000000000000049dc6514e16000",
          "blockHash": "0x08679ecd94f8508403cff2d3a976d709d6844984fc66f7fe15d265ce572bd739",
          "blockNumber": "0x17b8321",
          "blockTimestamp": "0x69e00421",
          "transactionHash": "0xc5c5bc3c6bdf1c9c133a9541516b36880bce08cc7f7c63d3cd9c9a4815c6f3b3",
          "transactionIndex": "0x0",
          "logIndex": "0x1",
          "removed": false
        },
        {
          "address": "0xa5f104f8f78d5ba9aec4a383c0927337fd4e997b",
          "topics": [
            "0xddf252ad1be2c89b69c2b068fc378daa952ba7f163c4a11628f55a4df523b3ef",
            "0x0000000000000000000000004b75aec40561c03e03d4d1c421df194a3031a134",
            "0x00000000000000000000000008312e82df563a1639b81f49bb41247759700e30",
            "0x0000000000000000000000000000000000000000000000000000000000000030"
          ],
          "data": "0x",
          "blockHash": "0x08679ecd94f8508403cff2d3a976d709d6844984fc66f7fe15d265ce572bd739",
          "blockNumber": "0x17b8321",
          "blockTimestamp": "0x69e00421",
          "transactionHash": "0xc5c5bc3c6bdf1c9c133a9541516b36880bce08cc7f7c63d3cd9c9a4815c6f3b3",
          "transactionIndex": "0x0",
          "logIndex": "0x2",
          "removed": false
        },
        {
          "address": "0x8fa71914948544c60e3379064567dcf0e6564d27",
          "topics": [
            "0xc0ac3eb1e8caef05b202043f34de8e3173fab712167584f7a2a9f4c302bd0e9c",
            "0x867858bfcba3a05aa217d6dc49adcf11bf9e725ffcb9ebc8372c15527921db68",
            "0x000000000000000000000000a5f104f8f78d5ba9aec4a383c0927337fd4e997b",
            "0x0000000000000000000000000000000000000000000000000000000000000030"
          ],
          "data": "0x0000000000000000000000004b75aec40561c03e03d4d1c421df194a3031a13400000000000000000000000008312e82df563a1639b81f49bb41247759700e30000000000000000000000000c02aaa39b223fe8d0a0e5c4f27ead9083c756cc2000000000000000000000000000000000000000000000000004a9b6384488000",
          "blockHash": "0x08679ecd94f8508403cff2d3a976d709d6844984fc66f7fe15d265ce572bd739",
          "blockNumber": "0x17b8321",
          "blockTimestamp": "0x69e00421",
          "transactionHash": "0xc5c5bc3c6bdf1c9c133a9541516b36880bce08cc7f7c63d3cd9c9a4815c6f3b3",
          "transactionIndex": "0x0",
          "logIndex": "0x3",
          "removed": false
        }
      ],
      "logsBloom": "0x02000000000000000000010001000000000000000000000000000000000000000000000000100000000000000000000002000000080000000000000000100000000000000000000000010008000000000000000000000000080000000000000000000000000000000001000000000000000000000000000000000090200000000800000000040000000004000400000000000000000000000000000000002000000000200000000400000000000400000000000002000082020000000000000000000002000004000000000000000000000000000000000080000000000020000100200000000000000000000000000000000000004000000000000000000000",
      "type": "0x2",
      "transactionHash": "0xc5c5bc3c6bdf1c9c133a9541516b36880bce08cc7f7c63d3cd9c9a4815c6f3b3",
      "transactionIndex": "0x0",
      "blockHash": "0x08679ecd94f8508403cff2d3a976d709d6844984fc66f7fe15d265ce572bd739",
      "blockNumber": "0x17b8321",
      "gasUsed": "0x201e2",
      "effectiveGasPrice": "0x1ba81c",
      "blobGasPrice": "0x1",
      "from": "0x4b75aec40561c03e03d4d1c421df194a3031a134",
      "to": "0x8fa71914948544c60e3379064567dcf0e6564d27",
      "contractAddress": null
    }
  ],
  "libraries": [],
  "pending": [],
  "returns": {},
  "timestamp": 1778506409645,
  "chain": 31337,
  "commit": "59e30a9"
}