{
  "transactions": [
    {
      "hash": "0x14ac670d361fb257bd0f8a7dc2bf2718973c2174922737da2544bad2763d8626",
      "transactionType": "CALL",
      "contractName": null,
      "contractAddress": "0x8fa71914948544c60e3379064567dcf0e6564d27",
      "function": "settle((uint256,address),(uint8,bool,address,uint256,address,uint256,address,uint64,uint64,uint256),(uint8,bytes32,bytes32))",
      "arguments": [
        "(0, 0x646dC5Fc4009C4C84a424B6aE0f494b374bAE1Ce)",
        "(0, false, 0xA5f104F8f78d5ba9AEC4a383c0927337Fd4E997B, 409, 0xC02aaA39b223FE8D0A0e5C4F27eAD9083C756Cc2, 28000000000000000, 0x08312E82df563A1639b81f49bb41247759700e30, 1773167849, 1779006437, 12)",
        "(28, 0xfca9f8cf3fb320d8e7c593cf76d1ad3e2447251783ffd6c58712848160caf203, 0x19bca7eb7c7a1c69597086e8a8a1f42eb419c297c6a358aef66e747166df695a)"
      ],
      "transaction": {
        "from": "0x646dc5fc4009c4c84a424b6ae0f494b374bae1ce",
        "to": "0x8fa71914948544c60e3379064567dcf0e6564d27",
        "gas": "0x2ee8a",
        "value": "0x0",
        "input": "0x3bae3e790000000000000000000000000000000000000000000000000000000000000000000000000000000000000000646dc5fc4009c4c84a424b6ae0f494b374bae1ce00000000000000000000000000000000000000000000000000000000000000000000000000000000000000000000000000000000000000000000000000000000000000000000000000000000a5f104f8f78d5ba9aec4a383c0927337fd4e997b0000000000000000000000000000000000000000000000000000000000000199000000000000000000000000c02aaa39b223fe8d0a0e5c4f27ead9083c756cc2000000000000000000000000000000000000000000000000006379da05b6000000000000000000000000000008312e82df563a1639b81f49bb41247759700e300000000000000000000000000000000000000000000000000000000069b064e9000000000000000000000000000000000000000000000000000000006a097be5000000000000000000000000000000000000000000000000000000000000000c000000000000000000000000000000000000000000000000000000000000001cfca9f8cf3fb320d8e7c593cf76d1ad3e2447251783ffd6c58712848160caf20319bca7eb7c7a1c69597086e8a8a1f42eb419c297c6a358aef66e747166df695a",
        "nonce": "0x58",
        "chainId": "0x7a69"
      },
      "additionalContracts": [],
      "isFixedGasLimit": false
    }
  ],
  "receipts": [
    {
      "status": "0x1",
      "cumulativeGasUsed": "0x20131",
      "logs": [
        {
          "address": "0xc02aaa39b223fe8d0a0e5c4f27ead9083c756cc2",
          "topics": [
            "0xddf252ad1be2c89b69c2b068fc378daa952ba7f163c4a11628f55a4df523b3ef",
            "0x000000000000000000000000646dc5fc4009c4c84a424b6ae0f494b374bae1ce",
            "0x0000000000000000000000001804c8ab1f12e6bbf3894d4083f33e07309d1f38"
          ],
          "data": "0x0000000000000000000000000000000000000000000000000000fea894898000",
          "blockHash": "0x123dca2a52ecc1f6770a54f60199370faa563e19593597dc76b7cefce7caa39a",
          "blockNumber": "0x17b835a",
          "blockTimestamp": "0x69f0724d",
          "transactionHash": "0x14ac670d361fb257bd0f8a7dc2bf2718973c2174922737da2544bad2763d8626",
          "transactionIndex": "0x0",
          "logIndex": "0x0",
          "removed": false
        },
        {
          "address": "0xc02aaa39b223fe8d0a0e5c4f27ead9083c756cc2",
          "topics": [
            "0xddf252ad1be2c89b69c2b068fc378daa952ba7f163c4a11628f55a4df523b3ef",
            "0x000000000000000000000000646dc5fc4009c4c84a424b6ae0f494b374bae1ce",
            "0x00000000000000000000000008312e82df563a1639b81f49bb41247759700e30"
          ],
          "data": "0x00000000000000000000000000000000000000000000000000627b31712c8000",
          "blockHash": "0x123dca2a52ecc1f6770a54f60199370faa563e19593597dc76b7cefce7caa39a",
          "blockNumber": "0x17b835a",
          "blockTimestamp": "0x69f0724d",
          "transactionHash": "0x14ac670d361fb257bd0f8a7dc2bf2718973c2174922737da2544bad2763d8626",
          "transactionIndex": "0x0",
          "logIndex": "0x1",
          "removed": false
        },
        {
          "address": "0xa5f104f8f78d5ba9aec4a383c0927337fd4e997b",
          "topics": [
            "0xddf252ad1be2c89b69c2b068fc378daa952ba7f163c4a11628f55a4df523b3ef",
            "0x00000000000000000000000008312e82df563a1639b81f49bb41247759700e30",
            "0x000000000000000000000000646dc5fc4009c4c84a424b6ae0f494b374bae1ce",
            "0x0000000000000000000000000000000000000000000000000000000000000199"
          ],
          "data": "0x",
          "blockHash": "0x123dca2a52ecc1f6770a54f60199370faa563e19593597dc76b7cefce7caa39a",
          "blockNumber": "0x17b835a",
          "blockTimestamp": "0x69f0724d",
          "transactionHash": "0x14ac670d361fb257bd0f8a7dc2bf2718973c2174922737da2544bad2763d8626",
          "transactionIndex": "0x0",
          "logIndex": "0x2",
          "removed": false
        },
        {
          "address": "0x8fa71914948544c60e3379064567dcf0e6564d27",
          "topics": [
            "0xc0ac3eb1e8caef05b202043f34de8e3173fab712167584f7a2a9f4c302bd0e9c",
            "0xc18ed9b6e2e0faf7b9987dcab309e6aa1d4d85abdd0fc279b85156855406ecf8",
            "0x000000000000000000000000a5f104f8f78d5ba9aec4a383c0927337fd4e997b",
            "0x0000000000000000000000000000000000000000000000000000000000000199"
          ],
          "data": "0x00000000000000000000000008312e82df563a1639b81f49bb41247759700e30000000000000000000000000646dc5fc4009c4c84a424b6ae0f494b374bae1ce000000000000000000000000c02aaa39b223fe8d0a0e5c4f27ead9083c756cc2000000000000000000000000000000000000000000000000006379da05b60000",
          "blockHash": "0x123dca2a52ecc1f6770a54f60199370faa563e19593597dc76b7cefce7caa39a",
          "blockNumber": "0x17b835a",
          "blockTimestamp": "0x69f0724d",
          "transactionHash": "0x14ac670d361fb257bd0f8a7dc2bf2718973c2174922737da2544bad2763d8626",
          "transactionIndex": "0x0",
          "logIndex": "0x3",
          "removed": false
        }
      ],
      "logsBloom": "0x00000000000000000000010001000000000000000002000000000000000000000000000000100000000000000000000002000000090000000000000000100200000000000000000000010008000000002000000000000000080000000000000000008000000000000005000000000000000000000000000000000010200000000800000000040000000004000000800000000000000000000000000000040000000000200000000400800000000000000000000000000080000000000000000000000002000004000000000000000000000000000000000080000000000000000100200000000000000000000000000000000000004000000000000000000000",
      "type": "0x2",
      "transactionHash": "0x14ac670d361fb257bd0f8a7dc2bf2718973c2174922737da2544bad2763d8626",
      "transactionIndex": "0x0",
      "blockHash": "0x123dca2a52ecc1f6770a54f60199370faa563e19593597dc76b7cefce7caa39a",
      "blockNumber": "0x17b835a",
      "gasUsed": "0x20131",
      "effectiveGasPrice": "0x1ba81c",
      "blobGasPrice": "0x1",
      "from": "0x646dc5fc4009c4c84a424b6ae0f494b374bae1ce",
      "to": "0x8fa71914948544c60e3379064567dcf0e6564d27",
      "contractAddress": null
    }
  ],
  "libraries": [],
  "pending": [],
  "returns": {},
  "timestamp": 1778506475149,
  "chain": 31337,
  "commit": "59e30a9"
}