{
  "transactions": [
    {
      "hash": "0x06b39f52a296ecb7d5212ed8854587cb88293a02433b042e719de90707276534",
      "transactionType": "CALL",
      "contractName": null,
      "contractAddress": "0x8fa71914948544c60e3379064567dcf0e6564d27",
      "function": "settle((uint256,address),(uint8,bool,address,uint256,address,uint256,address,uint64,uint64,uint256),(uint8,bytes32,bytes32))",
      "arguments": [
        "(439, 0x646dC5Fc4009C4C84a424B6aE0f494b374bAE1Ce)",
        "(1, false, 0xA5f104F8f78d5ba9AEC4a383c0927337Fd4E997B, 439, 0xC02aaA39b223FE8D0A0e5C4F27eAD9083C756Cc2, 31000000000000000, 0x2c2dbA75492E0C4A1D10B41303167aEC59586C9c, 1773323862, 1778850424, 6)",
        "(27, 0xb31a422ef05f25b0762156bc45b9df28d4cde39cfd58699ad651c8bddb3415db, 0x7b1106fe80bceaf1ad553df24d8df284b7778323e08e98eac9f8cdde4b4e4650)"
      ],
      "transaction": {
        "from": "0x646dc5fc4009c4c84a424b6ae0f494b374bae1ce",
        "to": "0x8fa71914948544c60e3379064567dcf0e6564d27",
        "gas": "0x2efa4",
        "value": "0x0",
        "input": "0x3bae3e7900000000000000000000000000000000000000000000000000000000000001b7000000000000000000000000646dc5fc4009c4c84a424b6ae0f494b374bae1ce00000000000000000000000000000000000000000000000000000000000000010000000000000000000000000000000000000000000000000000000000000000000000000000000000000000a5f104f8f78d5ba9aec4a383c0927337fd4e997b00000000000000000000000000000000000000000000000000000000000001b7000000000000000000000000c02aaa39b223fe8d0a0e5c4f27ead9083c756cc2000000000000000000000000000000000000000000000000006e2255f40980000000000000000000000000002c2dba75492e0c4a1d10b41303167aec59586c9c0000000000000000000000000000000000000000000000000000000069b2c656000000000000000000000000000000000000000000000000000000006a071a780000000000000000000000000000000000000000000000000000000000000006000000000000000000000000000000000000000000000000000000000000001bb31a422ef05f25b0762156bc45b9df28d4cde39cfd58699ad651c8bddb3415db7b1106fe80bceaf1ad553df24d8df284b7778323e08e98eac9f8cdde4b4e4650",
        "nonce": "0x4f",
        "chainId": "0x7a69"
      },
      "additionalContracts": [],
      "isFixedGasLimit": false
    }
  ],
  "receipts": [
    {
      "status": "0x1",
      "cumulativeGasUsed": "0x201f2",
      "logs": [
        {
          "address": "0xc02aaa39b223fe8d0a0e5c4f27ead9083c756cc2",
          "topics": [
            "0xddf252ad1be2c89b69c2b068fc378daa952ba7f163c4a11628f55a4df523b3ef",
            "0x0000000000000000000000002c2dba75492e0c4a1d10b41303167aec59586c9c",
            "0x0000000000000000000000001804c8ab1f12e6bbf3894d4083f33e07309d1f38"
          ],
          "data": "0x000000000000000000000000000000000000000000000000000119f17fe16000",
          "blockHash": "0x22b36f9c062c106c1f0b871708b8ca6cb2fbd285893ed0fdec35c73067574c97",
          "blockNumber": "0x17b833f",
          "blockTimestamp": "0x69e96d0e",
          "transactionHash": "0x06b39f52a296ecb7d5212ed8854587cb88293a02433b042e719de90707276534",
          "transactionIndex": "0x0",
          "logIndex": "0x0",
          "removed": false
        },
        {
          "address": "0xc02aaa39b223fe8d0a0e5c4f27ead9083c756cc2",
          "topics": [
            "0xddf252ad1be2c89b69c2b068fc378daa952ba7f163c4a11628f55a4df523b3ef",
            "0x0000000000000000000000002c2dba75492e0c4a1d10b41303167aec59586c9c",
            "0x000000000000000000000000646dc5fc4009c4c84a424b6ae0f494b374bae1ce"
          ],
          "data": "0x000000000000000000000000000000000000000000000000006d086474282000",
          "blockHash": "0x22b36f9c062c106c1f0b871708b8ca6cb2fbd285893ed0fdec35c73067574c97",
          "blockNumber": "0x17b833f",
          "blockTimestamp": "0x69e96d0e",
          "transactionHash": "0x06b39f52a296ecb7d5212ed8854587cb88293a02433b042e719de90707276534",
          "transactionIndex": "0x0",
          "logIndex": "0x1",
          "removed": false
        },
        {
          "address": "0xa5f104f8f78d5ba9aec4a383c0927337fd4e997b",
          "topics": [
            "0xddf252ad1be2c89b69c2b068fc378daa952ba7f163c4a11628f55a4df523b3ef",
            "0x000000000000000000000000646dc5fc4009c4c84a424b6ae0f494b374bae1ce",
            "0x0000000000000000000000002c2dba75492e0c4a1d10b41303167aec59586c9c",
            "0x00000000000000000000000000000000000000000000000000000000000001b7"
          ],
          "data": "0x",
          "blockHash": "0x22b36f9c062c106c1f0b871708b8ca6cb2fbd285893ed0fdec35c73067574c97",
          "blockNumber": "0x17b833f",
          "blockTimestamp": "0x69e96d0e",
          "transactionHash": "0x06b39f52a296ecb7d5212ed8854587cb88293a02433b042e719de90707276534",
          "transactionIndex": "0x0",
          "logIndex": "0x2",
          "removed": false
        },
        {
          "address": "0x8fa71914948544c60e3379064567dcf0e6564d27",
          "topics": [
            "0xc0ac3eb1e8caef05b202043f34de8e3173fab712167584f7a2a9f4c302bd0e9c",
            "0xb68a5fc0ab58a3e804d15366d91413572cefe7f6eb902d683c31ee785833ed19",
            "0x000000000000000000000000a5f104f8f78d5ba9aec4a383c0927337fd4e997b",
            "0x00000000000000000000000000000000000000000000000000000000000001b7"
          ],
          "data": "0x000000000000000000000000646dc5fc4009c4c84a424b6ae0f494b374bae1ce0000000000000000000000002c2dba75492e0c4a1d10b41303167aec59586c9c000000000000000000000000c02aaa39b223fe8d0a0e5c4f27ead9083c756cc2000000000000000000000000000000000000000000000000006e2255f4098000",
          "blockHash": "0x22b36f9c062c106c1f0b871708b8ca6cb2fbd285893ed0fdec35c73067574c97",
          "blockNumber": "0x17b833f",
          "blockTimestamp": "0x69e96d0e",
          "transactionHash": "0x06b39f52a296ecb7d5212ed8854587cb88293a02433b042e719de90707276534",
          "transactionIndex": "0x0",
          "logIndex": "0x3",
          "removed": false
        }
      ],
      "logsBloom": "0x00000000000000000000010000000000000000000002000000000000000000000000000000000000000000000000000002400000090000000000000800104000000200000000000000010008000000000000000000000000080000000000000000000000000004000005000000000000020000000000000000000010200000000800000000040000000004000000000000000000000000000000000400000000040000200000000400000000000000000000000000000080000000000000000000000002000004008000000000000000000000000000000080000000000000000100200000000000000000000000000000000000000000000000000000000000",
      "type": "0x2",
      "transactionHash": "0x06b39f52a296ecb7d5212ed8854587cb88293a02433b042e719de90707276534",
      "transactionIndex": "0x0",
      "blockHash": "0x22b36f9c062c106c1f0b871708b8ca6cb2fbd285893ed0fdec35c73067574c97",
      "blockNumber": "0x17b833f",
      "gasUsed": "0x201f2",
      "effectiveGasPrice": "0x1ba81c",
      "blobGasPrice": "0x1",
      "from": "0x646dc5fc4009c4c84a424b6ae0f494b374bae1ce",
      "to": "0x8fa71914948544c60e3379064567dcf0e6564d27",
      "contractAddress": null
    }
  ],
  "libraries": [],
  "pending": [],
  "returns": {},
  "timestamp": 1778506442067,
  "chain": 31337,
  "commit": "59e30a9"
}