{
  "transactions": [
    {
      "hash": "0xc7b3b1b1f8108fbd2782a9882f2cd446294cdde59468ce8d8ccf1c8decb10638",
      "transactionType": "CALL",
      "contractName": null,
      "contractAddress": "0x8fa71914948544c60e3379064567dcf0e6564d27",
      "function": "settle((uint256,address),(uint8,bool,address,uint256,address,uint256,address,uint64,uint64,uint256),(uint8,bytes32,bytes32))",
      "arguments": [
        "(30, 0xe3745C151faB59B0740f4312b2B027F07D096639)",
        "(1, false, 0xA5f104F8f78d5ba9AEC4a383c0927337Fd4E997B, 30, 0xC02aaA39b223FE8D0A0e5C4F27eAD9083C756Cc2, 497000000000000000, 0xcbe5659df21Cbcfabe4da962F7a9081F26B3ed82, 1772904804, 1779269482, 6)",
        "(27, 0xf441b9080bd2e3d2f31ada4e1c70d6cf6c5c3553a2481a46e14b147fb4ecba46, 0x0b094205b1030cbd0d302ccf405a2f766964589ecd3ec58d8601d9c2e52b9387)"
      ],
      "transaction": {
        "from": "0xe3745c151fab59b0740f4312b2b027f07d096639",
        "to": "0x8fa71914948544c60e3379064567dcf0e6564d27",
        "gas": "0x2c5d2",
        "value": "0x0",
        "input": "0x3bae3e79000000000000000000000000000000000000000000000000000000000000001e000000000000000000000000e3745c151fab59b0740f4312b2b027f07d09663900000000000000000000000000000000000000000000000000000000000000010000000000000000000000000000000000000000000000000000000000000000000000000000000000000000a5f104f8f78d5ba9aec4a383c0927337fd4e997b000000000000000000000000000000000000000000000000000000000000001e000000000000000000000000c02aaa39b223fe8d0a0e5c4f27ead9083c756cc200000000000000000000000000000000000000000000000006e5b2dde55e8000000000000000000000000000cbe5659df21cbcfabe4da962f7a9081f26b3ed820000000000000000000000000000000000000000000000000000000069ac6164000000000000000000000000000000000000000000000000000000006a0d7f6a0000000000000000000000000000000000000000000000000000000000000006000000000000000000000000000000000000000000000000000000000000001bf441b9080bd2e3d2f31ada4e1c70d6cf6c5c3553a2481a46e14b147fb4ecba460b094205b1030cbd0d302ccf405a2f766964589ecd3ec58d8601d9c2e52b9387",
        "nonce": "0x4a",
        "chainId": "0x7a69"
      },
      "additionalContracts": [],
      "isFixedGasLimit": false
    }
  ],
  "receipts": [
    {
      "status": "0x1",
      "cumulativeGasUsed": "0x201e6",
      "logs": [
        {
          "address": "0xc02aaa39b223fe8d0a0e5c4f27ead9083c756cc2",
          "topics": [
            "0xddf252ad1be2c89b69c2b068fc378daa952ba7f163c4a11628f55a4df523b3ef",
            "0x000000000000000000000000cbe5659df21cbcfabe4da962f7a9081f26b3ed82",
            "0x0000000000000000000000001804c8ab1f12e6bbf3894d4083f33e07309d1f38"
          ],
          "data": "0x0000000000000000000000000000000000000000000000000011a8304c88a000",
          "blockHash": "0x1e9ebad9de70fbcc65161926aaf9781aad465fb3c92ed82f17695c1011c51bed",
          "blockNumber": "0x17b8349",
          "blockTimestamp": "0x69ec23ee",
          "transactionHash": "0xc7b3b1b1f8108fbd2782a9882f2cd446294cdde59468ce8d8ccf1c8decb10638",
          "transactionIndex": "0x0",
          "logIndex": "0x0",
          "removed": false
        },
        {
          "address": "0xc02aaa39b223fe8d0a0e5c4f27ead9083c756cc2",
          "topics": [
            "0xddf252ad1be2c89b69c2b068fc378daa952ba7f163c4a11628f55a4df523b3ef",
            "0x000000000000000000000000cbe5659df21cbcfabe4da962f7a9081f26b3ed82",
            "0x000000000000000000000000e3745c151fab59b0740f4312b2b027f07d096639"
          ],
          "data": "0x00000000000000000000000000000000000000000000000006d40aad98d5e000",
          "blockHash": "0x1e9ebad9de70fbcc65161926aaf9781aad465fb3c92ed82f17695c1011c51bed",
          "blockNumber": "0x17b8349",
          "blockTimestamp": "0x69ec23ee",
          "transactionHash": "0xc7b3b1b1f8108fbd2782a9882f2cd446294cdde59468ce8d8ccf1c8decb10638",
          "transactionIndex": "0x0",
          "logIndex": "0x1",
          "removed": false
        },
        {
          "address": "0xa5f104f8f78d5ba9aec4a383c0927337fd4e997b",
          "topics": [
            "0xddf252ad1be2c89b69c2b068fc378daa952ba7f163c4a11628f55a4df523b3ef",
            "0x000000000000000000000000e3745c151fab59b0740f4312b2b027f07d096639",
            "0x000000000000000000000000cbe5659df21cbcfabe4da962f7a9081f26b3ed82",
            "0x000000000000000000000000000000000000000000000000000000000000001e"
          ],
          "data": "0x",
          "blockHash": "0x1e9ebad9de70fbcc65161926aaf9781aad465fb3c92ed82f17695c1011c51bed",
          "blockNumber": "0x17b8349",
          "blockTimestamp": "0x69ec23ee",
          "transactionHash": "0xc7b3b1b1f8108fbd2782a9882f2cd446294cdde59468ce8d8ccf1c8decb10638",
          "transactionIndex": "0x0",
          "logIndex": "0x2",
          "removed": false
        },
        {
          "address": "0x8fa71914948544c60e3379064567dcf0e6564d27",
          "topics": [
            "0xc0ac3eb1e8caef05b202043f34de8e3173fab712167584f7a2a9f4c302bd0e9c",
            "0x9e1e4e0a2d40949688649afa3090cf8f41e20cef9d1c880363d53100345def5d",
            "0x000000000000000000000000a5f104f8f78d5ba9aec4a383c0927337fd4e997b",
            "0x000000000000000000000000000000000000000000000000000000000000001e"
          ],
          "data": "0x000000000000000000000000e3745c151fab59b0740f4312b2b027f07d096639000000000000000000000000cbe5659df21cbcfabe4da962f7a9081f26b3ed82000000000000000000000000c02aaa39b223fe8d0a0e5c4f27ead9083c756cc200000000000000000000000000000000000000000000000006e5b2dde55e8000",
          "blockHash": "0x1e9ebad9de70fbcc65161926aaf9781aad465fb3c92ed82f17695c1011c51bed",
          "blockNumber": "0x17b8349",
          "blockTimestamp": "0x69ec23ee",
          "transactionHash": "0xc7b3b1b1f8108fbd2782a9882f2cd446294cdde59468ce8d8ccf1c8decb10638",
          "transactionIndex": "0x0",
          "logIndex": "0x3",
          "removed": false
        }
      ],
      "logsBloom": "0x00000000000000000000010000000000000000000100000000000000000000000000000000000000000000000400000042000000080000000000000000100000000000000000008000010008000000000000000000020000080000000000000000000000000000000001000000000000000000000000000000000010200100000800000000040000000004000000000000000000000000000000000000000000000000200000000400000000000000000000000000000080000000000000000000000002000004000400000000010000000000000000020080000040000000000100200000000000080000000000000000000000004000000000000000000000",
      "type": "0x2",
      "transactionHash": "0xc7b3b1b1f8108fbd2782a9882f2cd446294cdde59468ce8d8ccf1c8decb10638",
      "transactionIndex": "0x0",
      "blockHash": "0x1e9ebad9de70fbcc65161926aaf9781aad465fb3c92ed82f17695c1011c51bed",
      "blockNumber": "0x17b8349",
      "gasUsed": "0x201e6",
      "effectiveGasPrice": "0x1ba81c",
      "blobGasPrice": "0x1",
      "from": "0xe3745c151fab59b0740f4312b2b027f07d096639",
      "to": "0x8fa71914948544c60e3379064567dcf0e6564d27",
      "contractAddress": null
    }
  ],
  "libraries": [],
  "pending": [],
  "returns": {},
  "timestamp": 1778506450369,
  "chain": 31337,
  "commit": "59e30a9"
}