{
  "transactions": [
    {
      "hash": "0x0118bbf60cb7925f008de83e0c431c07bd3b50c91c03ea811fdcf37bf92136c4",
      "transactionType": "CALL",
      "contractName": null,
      "contractAddress": "0x73973d222c3fda5b2563d269da9e19cb125000f4",
      "function": "settle((uint256,address),(uint8,bool,address,uint256,address,uint256,address,uint64,uint64,uint256),(uint8,bytes32,bytes32))",
      "arguments": [
        "(414, 0x2c2dbA75492E0C4A1D10B41303167aEC59586C9c)",
        "(1, false, 0x38D4dE42C9c5640A2799B372D27B01957E0a3673, 414, 0xC02aaA39b223FE8D0A0e5C4F27eAD9083C756Cc2, 28000000000000000, 0xa382b0E75C192D9CDF5c084E58b750Cea7761Bd0, 1772444986, 1779620652, 5)",
        "(27, 0x696f79a953387c6b262640981bad27fe5ff7ca10481432ec3f711271d9f8f210, 0x431f40c50e1af5ad21bfe8862f62eb1a649dd45e54adf4e067aa44afccab301c)"
      ],
      "transaction": {
        "from": "0x2c2dba75492e0c4a1d10b41303167aec59586c9c",
        "to": "0x73973d222c3fda5b2563d269da9e19cb125000f4",
        "gas": "0x2c5d2",
        "value": "0x0",
        "input": "0x3bae3e79000000000000000000000000000000000000000000000000000000000000019e0000000000000000000000002c2dba75492e0c4a1d10b41303167aec59586c9c0000000000000000000000000000000000000000000000000000000000000001000000000000000000000000000000000000000000000000000000000000000000000000000000000000000038d4de42c9c5640a2799b372d27b01957e0a3673000000000000000000000000000000000000000000000000000000000000019e000000000000000000000000c02aaa39b223fe8d0a0e5c4f27ead9083c756cc2000000000000000000000000000000000000000000000000006379da05b60000000000000000000000000000a382b0e75c192d9cdf5c084e58b750cea7761bd00000000000000000000000000000000000000000000000000000000069a55d3a000000000000000000000000000000000000000000000000000000006a12db2c0000000000000000000000000000000000000000000000000000000000000005000000000000000000000000000000000000000000000000000000000000001b696f79a953387c6b262640981bad27fe5ff7ca10481432ec3f711271d9f8f210431f40c50e1af5ad21bfe8862f62eb1a649dd45e54adf4e067aa44afccab301c",
        "nonce": "0x66",
        "chainId": "0x7a69"
      },
      "additionalContracts": [],
      "isFixedGasLimit": false
    }
  ],
  "receipts": [
    {
      "status": "0x1",
      "cumulativeGasUsed": "0x201e6",
      "logs": [
        {
          "address": "0xc02aaa39b223fe8d0a0e5c4f27ead9083c756cc2",
          "topics": [
            "0xddf252ad1be2c89b69c2b068fc378daa952ba7f163c4a11628f55a4df523b3ef",
            "0x000000000000000000000000a382b0e75c192d9cdf5c084e58b750cea7761bd0",
            "0x0000000000000000000000001804c8ab1f12e6bbf3894d4083f33e07309d1f38"
          ],
          "data": "0x0000000000000000000000000000000000000000000000000000fea894898000",
          "blockHash": "0x495b50c62a0c529351903d6db16e4c79fa0078d9a564a9609236157ebd6d6074",
          "blockNumber": "0x17b73a1",
          "blockTimestamp": "0x69e1083c",
          "transactionHash": "0x0118bbf60cb7925f008de83e0c431c07bd3b50c91c03ea811fdcf37bf92136c4",
          "transactionIndex": "0x0",
          "logIndex": "0x0",
          "removed": false
        },
        {
          "address": "0xc02aaa39b223fe8d0a0e5c4f27ead9083c756cc2",
          "topics": [
            "0xddf252ad1be2c89b69c2b068fc378daa952ba7f163c4a11628f55a4df523b3ef",
            "0x000000000000000000000000a382b0e75c192d9cdf5c084e58b750cea7761bd0",
            "0x0000000000000000000000002c2dba75492e0c4a1d10b41303167aec59586c9c"
          ],
          "data": "0x00000000000000000000000000000000000000000000000000627b31712c8000",
          "blockHash": "0x495b50c62a0c529351903d6db16e4c79fa0078d9a564a9609236157ebd6d6074",
          "blockNumber": "0x17b73a1",
          "blockTimestamp": "0x69e1083c",
          "transactionHash": "0x0118bbf60cb7925f008de83e0c431c07bd3b50c91c03ea811fdcf37bf92136c4",
          "transactionIndex": "0x0",
          "logIndex": "0x1",
          "removed": false
        },
        {
          "address": "0x38d4de42c9c5640a2799b372d27b01957e0a3673",
          "topics": [
            "0xddf252ad1be2c89b69c2b068fc378daa952ba7f163c4a11628f55a4df523b3ef",
            "0x0000000000000000000000002c2dba75492e0c4a1d10b41303167aec59586c9c",
            "0x000000000000000000000000a382b0e75c192d9cdf5c084e58b750cea7761bd0",
            "0x000000000000000000000000000000000000000000000000000000000000019e"
          ],
          "data": "0x",
          "blockHash": "0x495b50c62a0c529351903d6db16e4c79fa0078d9a564a9609236157ebd6d6074",
          "blockNumber": "0x17b73a1",
          "blockTimestamp": "0x69e1083c",
          "transactionHash": "0x0118bbf60cb7925f008de83e0c431c07bd3b50c91c03ea811fdcf37bf92136c4",
          "transactionIndex": "0x0",
          "logIndex": "0x2",
          "removed": false
        },
        {
          "address": "0x73973d222c3fda5b2563d269da9e19cb125000f4",
          "topics": [
            "0xc0ac3eb1e8caef05b202043f34de8e3173fab712167584f7a2a9f4c302bd0e9c",
            "0x28489ba417b3784ffd44bed4de610f9d8679a3f49f50cc72948f6d4953ddb5ca",
            "0x00000000000000000000000038d4de42c9c5640a2799b372d27b01957e0a3673",
            "0x000000000000000000000000000000000000000000000000000000000000019e"
          ],
          "data": "0x0000000000000000000000002c2dba75492e0c4a1d10b41303167aec59586c9c000000000000000000000000a382b0e75c192d9cdf5c084e58b750cea7761bd0000000000000000000000000c02aaa39b223fe8d0a0e5c4f27ead9083c756cc2000000000000000000000000000000000000000000000000006379da05b60000",
          "blockHash": "0x495b50c62a0c529351903d6db16e4c79fa0078d9a564a9609236157ebd6d6074",
          "blockNumber": "0x17b73a1",
          "blockTimestamp": "0x69e1083c",
          "transactionHash": "0x0118bbf60cb7925f008de83e0c431c07bd3b50c91c03ea811fdcf37bf92136c4",
          "transactionIndex": "0x0",
          "logIndex": "0x3",
          "removed": false
        }
      ],
      "logsBloom": "0x00000000000000000000400000000000000000000002000000000000000000000000000000000000000000000000020002000000080000000004100800100000000200000000001021000008000000000000000000000000000000000000000080000000000004000001000000000000000000000000040200000010000000000000000000000000000004000000000000100000000008000000000000000000000000000000000000040000000000000000000000000080400000000000000000000002000004000000000000000004000000000000000000000000001000000100200000000000000000000000000000000000100000000000000000000000",
      "type": "0x2",
      "transactionHash": "0x0118bbf60cb7925f008de83e0c431c07bd3b50c91c03ea811fdcf37bf92136c4",
      "transactionIndex": "0x0",
      "blockHash": "0x495b50c62a0c529351903d6db16e4c79fa0078d9a564a9609236157ebd6d6074",
      "blockNumber": "0x17b73a1",
      "gasUsed": "0x201e6",
      "effectiveGasPrice": "0xf4248",
      "blobGasPrice": "0x1",
      "from": "0x2c2dba75492e0c4a1d10b41303167aec59586c9c",
      "to": "0x73973d222c3fda5b2563d269da9e19cb125000f4",
      "contractAddress": null
    }
  ],
  "libraries": [],
  "pending": [],
  "returns": {},
  "timestamp": 1778453706375,
  "chain": 31337,
  "commit": "f87d399"
}