{
  "transactions": [
    {
      "hash": "0x293ada1d58b657986e61beed4fb4a9ed81ca760692b092b841cc22478320775c",
      "transactionType": "CALL",
      "contractName": null,
      "contractAddress": "0x73973d222c3fda5b2563d269da9e19cb125000f4",
      "function": "settle((uint256,address),(uint8,bool,address,uint256,address,uint256,address,uint64,uint64,uint256),(uint8,bytes32,bytes32))",
      "arguments": [
        "(224, 0xa382b0E75C192D9CDF5c084E58b750Cea7761Bd0)",
        "(1, false, 0x38D4dE42C9c5640A2799B372D27B01957E0a3673, 224, 0xC02aaA39b223FE8D0A0e5C4F27eAD9083C756Cc2, 31000000000000000, 0xcbe5659df21Cbcfabe4da962F7a9081F26B3ed82, 1773162508, 1778903130, 10)",
        "(27, 0xf02277900e2ec541d442cb33d8f9429264b739ae5ddd57319b3b65842aff5a94, 0x7fda3b82df6922e14ec228d6b0366f5470e4fa55c4e5dc75b708c0b8ab3b42e8)"
      ],
      "transaction": {
        "from": "0xa382b0e75c192d9cdf5c084e58b750cea7761bd0",
        "to": "0x73973d222c3fda5b2563d269da9e19cb125000f4",
        "gas": "0x2ef81",
        "value": "0x0",
        "input": "0x3bae3e7900000000000000000000000000000000000000000000000000000000000000e0000000000000000000000000a382b0e75c192d9cdf5c084e58b750cea7761bd00000000000000000000000000000000000000000000000000000000000000001000000000000000000000000000000000000000000000000000000000000000000000000000000000000000038d4de42c9c5640a2799b372d27b01957e0a367300000000000000000000000000000000000000000000000000000000000000e0000000000000000000000000c02aaa39b223fe8d0a0e5c4f27ead9083c756cc2000000000000000000000000000000000000000000000000006e2255f4098000000000000000000000000000cbe5659df21cbcfabe4da962f7a9081f26b3ed820000000000000000000000000000000000000000000000000000000069b0500c000000000000000000000000000000000000000000000000000000006a07e85a000000000000000000000000000000000000000000000000000000000000000a000000000000000000000000000000000000000000000000000000000000001bf02277900e2ec541d442cb33d8f9429264b739ae5ddd57319b3b65842aff5a947fda3b82df6922e14ec228d6b0366f5470e4fa55c4e5dc75b708c0b8ab3b42e8",
        "nonce": "0x5c",
        "chainId": "0x7a69"
      },
      "additionalContracts": [],
      "isFixedGasLimit": false
    }
  ],
  "receipts": [
    {
      "status": "0x1",
      "cumulativeGasUsed": "0x201da",
      "logs": [
        {
          "address": "0xc02aaa39b223fe8d0a0e5c4f27ead9083c756cc2",
          "topics": [
            "0xddf252ad1be2c89b69c2b068fc378daa952ba7f163c4a11628f55a4df523b3ef",
            "0x000000000000000000000000cbe5659df21cbcfabe4da962f7a9081f26b3ed82",
            "0x0000000000000000000000001804c8ab1f12e6bbf3894d4083f33e07309d1f38"
          ],
          "data": "0x000000000000000000000000000000000000000000000000000119f17fe16000",
          "blockHash": "0xf550c0f7c7ab93ea1f96c84236b3fe7a0dcdc9734ccf8d86987dfcf8cccee14b",
          "blockNumber": "0x17b73c6",
          "blockTimestamp": "0x69e7c1d8",
          "transactionHash": "0x293ada1d58b657986e61beed4fb4a9ed81ca760692b092b841cc22478320775c",
          "transactionIndex": "0x0",
          "logIndex": "0x0",
          "removed": false
        },
        {
          "address": "0xc02aaa39b223fe8d0a0e5c4f27ead9083c756cc2",
          "topics": [
            "0xddf252ad1be2c89b69c2b068fc378daa952ba7f163c4a11628f55a4df523b3ef",
            "0x000000000000000000000000cbe5659df21cbcfabe4da962f7a9081f26b3ed82",
            "0x000000000000000000000000a382b0e75c192d9cdf5c084e58b750cea7761bd0"
          ],
          "data": "0x000000000000000000000000000000000000000000000000006d086474282000",
          "blockHash": "0xf550c0f7c7ab93ea1f96c84236b3fe7a0dcdc9734ccf8d86987dfcf8cccee14b",
          "blockNumber": "0x17b73c6",
          "blockTimestamp": "0x69e7c1d8",
          "transactionHash": "0x293ada1d58b657986e61beed4fb4a9ed81ca760692b092b841cc22478320775c",
          "transactionIndex": "0x0",
          "logIndex": "0x1",
          "removed": false
        },
        {
          "address": "0x38d4de42c9c5640a2799b372d27b01957e0a3673",
          "topics": [
            "0xddf252ad1be2c89b69c2b068fc378daa952ba7f163c4a11628f55a4df523b3ef",
            "0x000000000000000000000000a382b0e75c192d9cdf5c084e58b750cea7761bd0",
            "0x000000000000000000000000cbe5659df21cbcfabe4da962f7a9081f26b3ed82",
            "0x00000000000000000000000000000000000000000000000000000000000000e0"
          ],
          "data": "0x",
          "blockHash": "0xf550c0f7c7ab93ea1f96c84236b3fe7a0dcdc9734ccf8d86987dfcf8cccee14b",
          "blockNumber": "0x17b73c6",
          "blockTimestamp": "0x69e7c1d8",
          "transactionHash": "0x293ada1d58b657986e61beed4fb4a9ed81ca760692b092b841cc22478320775c",
          "transactionIndex": "0x0",
          "logIndex": "0x2",
          "removed": false
        },
        {
          "address": "0x73973d222c3fda5b2563d269da9e19cb125000f4",
          "topics": [
            "0xc0ac3eb1e8caef05b202043f34de8e3173fab712167584f7a2a9f4c302bd0e9c",
            "0x4d8d8da4e363dec19e88ab87b06c2684c3c9c5ecdaf469c3eaffa676cf8065d1",
            "0x00000000000000000000000038d4de42c9c5640a2799b372d27b01957e0a3673",
            "0x00000000000000000000000000000000000000000000000000000000000000e0"
          ],
          "data": "0x000000000000000000000000a382b0e75c192d9cdf5c084e58b750cea7761bd0000000000000000000000000cbe5659df21cbcfabe4da962f7a9081f26b3ed82000000000000000000000000c02aaa39b223fe8d0a0e5c4f27ead9083c756cc2000000000000000000000000000000000000000000000000006e2255f4098000",
          "blockHash": "0xf550c0f7c7ab93ea1f96c84236b3fe7a0dcdc9734ccf8d86987dfcf8cccee14b",
          "blockNumber": "0x17b73c6",
          "blockTimestamp": "0x69e7c1d8",
          "transactionHash": "0x293ada1d58b657986e61beed4fb4a9ed81ca760692b092b841cc22478320775c",
          "transactionIndex": "0x0",
          "logIndex": "0x3",
          "removed": false
        }
      ],
      "logsBloom": "0x00000000000000000000000000000000000000000002000008000000000000000000000000000000000000000000020002000000080000000004100000100000000000000000001021000008000000000000000000000000000000000000000000000000000000000001000000000000000000000000040000020010000000000000400000000000000004000000000000100000000008080000000000000000000000000000000000000000000000000000000400000080400000000000000000000002000004000400000000000000000000000000020008000000000000000100200000000000000000000000000000000000104000000000000000000000",
      "type": "0x2",
      "transactionHash": "0x293ada1d58b657986e61beed4fb4a9ed81ca760692b092b841cc22478320775c",
      "transactionIndex": "0x0",
      "blockHash": "0xf550c0f7c7ab93ea1f96c84236b3fe7a0dcdc9734ccf8d86987dfcf8cccee14b",
      "blockNumber": "0x17b73c6",
      "gasUsed": "0x201da",
      "effectiveGasPrice": "0xf4248",
      "blobGasPrice": "0x1",
      "from": "0xa382b0e75c192d9cdf5c084e58b750cea7761bd0",
      "to": "0x73973d222c3fda5b2563d269da9e19cb125000f4",
      "contractAddress": null
    }
  ],
  "libraries": [],
  "pending": [],
  "returns": {},
  "timestamp": 1778453774323,
  "chain": 31337,
  "commit": "f87d399"
}