{
  "transactions": [
    {
      "hash": "0x6d37a762f38d6e93466e18cc578a1b44aff5898c941c2a1e0347cc975a72200a",
      "transactionType": "CALL",
      "contractName": null,
      "contractAddress": "0x73973d222c3fda5b2563d269da9e19cb125000f4",
      "function": "settle((uint256,address),(uint8,bool,address,uint256,address,uint256,address,uint64,uint64,uint256),(uint8,bytes32,bytes32))",
      "arguments": [
        "(51, 0xe3745C151faB59B0740f4312b2B027F07D096639)",
        "(1, false, 0x38D4dE42C9c5640A2799B372D27B01957E0a3673, 51, 0xC02aaA39b223FE8D0A0e5C4F27eAD9083C756Cc2, 25000000000000000, 0xcbe5659df21Cbcfabe4da962F7a9081F26B3ed82, 1773178708, 1778886930, 7)",
        "(28, 0x86b12b1d1d4da6d76320194ab3ffa6394051f1efe3095a854d953db5bc3476aa, 0x1267ec6ec2ced4170c829c9633110884dd5c10b887b9272394c778aadfd08225)"
      ],
      "transaction": {
        "from": "0xe3745c151fab59b0740f4312b2b027f07d096639",
        "to": "0x73973d222c3fda5b2563d269da9e19cb125000f4",
        "gas": "0x2c5dc",
        "value": "0x0",
        "input": "0x3bae3e790000000000000000000000000000000000000000000000000000000000000033000000000000000000000000e3745c151fab59b0740f4312b2b027f07d0966390000000000000000000000000000000000000000000000000000000000000001000000000000000000000000000000000000000000000000000000000000000000000000000000000000000038d4de42c9c5640a2799b372d27b01957e0a36730000000000000000000000000000000000000000000000000000000000000033000000000000000000000000c02aaa39b223fe8d0a0e5c4f27ead9083c756cc20000000000000000000000000000000000000000000000000058d15e17628000000000000000000000000000cbe5659df21cbcfabe4da962f7a9081f26b3ed820000000000000000000000000000000000000000000000000000000069b08f54000000000000000000000000000000000000000000000000000000006a07a9120000000000000000000000000000000000000000000000000000000000000007000000000000000000000000000000000000000000000000000000000000001c86b12b1d1d4da6d76320194ab3ffa6394051f1efe3095a854d953db5bc3476aa1267ec6ec2ced4170c829c9633110884dd5c10b887b9272394c778aadfd08225",
        "nonce": "0x7f",
        "chainId": "0x7a69"
      },
      "additionalContracts": [],
      "isFixedGasLimit": false
    }
  ],
  "receipts": [
    {
      "status": "0x1",
      "cumulativeGasUsed": "0x201ee",
      "logs": [
        {
          "address": "0xc02aaa39b223fe8d0a0e5c4f27ead9083c756cc2",
          "topics": [
            "0xddf252ad1be2c89b69c2b068fc378daa952ba7f163c4a11628f55a4df523b3ef",
            "0x000000000000000000000000cbe5659df21cbcfabe4da962f7a9081f26b3ed82",
            "0x0000000000000000000000001804c8ab1f12e6bbf3894d4083f33e07309d1f38"
          ],
          "data": "0x0000000000000000000000000000000000000000000000000000e35fa931a000",
          "blockHash": "0x81880dda86f4670e075dee31a800e8e9d35670d7cbb93856ebd6c4de6a628597",
          "blockNumber": "0x17b73c5",
          "blockTimestamp": "0x69e79616",
          "transactionHash": "0x6d37a762f38d6e93466e18cc578a1b44aff5898c941c2a1e0347cc975a72200a",
          "transactionIndex": "0x0",
          "logIndex": "0x0",
          "removed": false
        },
        {
          "address": "0xc02aaa39b223fe8d0a0e5c4f27ead9083c756cc2",
          "topics": [
            "0xddf252ad1be2c89b69c2b068fc378daa952ba7f163c4a11628f55a4df523b3ef",
            "0x000000000000000000000000cbe5659df21cbcfabe4da962f7a9081f26b3ed82",
            "0x000000000000000000000000e3745c151fab59b0740f4312b2b027f07d096639"
          ],
          "data": "0x0000000000000000000000000000000000000000000000000057edfe6e30e000",
          "blockHash": "0x81880dda86f4670e075dee31a800e8e9d35670d7cbb93856ebd6c4de6a628597",
          "blockNumber": "0x17b73c5",
          "blockTimestamp": "0x69e79616",
          "transactionHash": "0x6d37a762f38d6e93466e18cc578a1b44aff5898c941c2a1e0347cc975a72200a",
          "transactionIndex": "0x0",
          "logIndex": "0x1",
          "removed": false
        },
        {
          "address": "0x38d4de42c9c5640a2799b372d27b01957e0a3673",
          "topics": [
            "0xddf252ad1be2c89b69c2b068fc378daa952ba7f163c4a11628f55a4df523b3ef",
            "0x000000000000000000000000e3745c151fab59b0740f4312b2b027f07d096639",
            "0x000000000000000000000000cbe5659df21cbcfabe4da962f7a9081f26b3ed82",
            "0x0000000000000000000000000000000000000000000000000000000000000033"
          ],
          "data": "0x",
          "blockHash": "0x81880dda86f4670e075dee31a800e8e9d35670d7cbb93856ebd6c4de6a628597",
          "blockNumber": "0x17b73c5",
          "blockTimestamp": "0x69e79616",
          "transactionHash": "0x6d37a762f38d6e93466e18cc578a1b44aff5898c941c2a1e0347cc975a72200a",
          "transactionIndex": "0x0",
          "logIndex": "0x2",
          "removed": false
        },
        {
          "address": "0x73973d222c3fda5b2563d269da9e19cb125000f4",
          "topics": [
            "0xc0ac3eb1e8caef05b202043f34de8e3173fab712167584f7a2a9f4c302bd0e9c",
            "0x9cbe8f2ac20b4541b15710c4b154316899fb82a8b0d43a4be8214d62d75aeae0",
            "0x00000000000000000000000038d4de42c9c5640a2799b372d27b01957e0a3673",
            "0x0000000000000000000000000000000000000000000000000000000000000033"
          ],
          "data": "0x000000000000000000000000e3745c151fab59b0740f4312b2b027f07d096639000000000000000000000000cbe5659df21cbcfabe4da962f7a9081f26b3ed82000000000000000000000000c02aaa39b223fe8d0a0e5c4f27ead9083c756cc20000000000000000000000000000000000000000000000000058d15e17628000",
          "blockHash": "0x81880dda86f4670e075dee31a800e8e9d35670d7cbb93856ebd6c4de6a628597",
          "blockNumber": "0x17b73c5",
          "blockTimestamp": "0x69e79616",
          "transactionHash": "0x6d37a762f38d6e93466e18cc578a1b44aff5898c941c2a1e0347cc975a72200a",
          "transactionIndex": "0x0",
          "logIndex": "0x3",
          "removed": false
        }
      ],
      "logsBloom": "0x00000000000000000000000000000000000000000102000000000000000000000000000000000000000000000000020042000000080000000004100000100000000000000000001021000008000000000000000000000000000000000000000800000000000000000001000000000000000000000000000000000010000000000000000040000000000004000000000000000000000008000000000000000000000001000000000000000080000000000000000000000084400000000000000000000002000004000400000000000000000000000000020000000040000000000100200000000000000000000000000000000000004000000000000000080000",
      "type": "0x2",
      "transactionHash": "0x6d37a762f38d6e93466e18cc578a1b44aff5898c941c2a1e0347cc975a72200a",
      "transactionIndex": "0x0",
      "blockHash": "0x81880dda86f4670e075dee31a800e8e9d35670d7cbb93856ebd6c4de6a628597",
      "blockNumber": "0x17b73c5",
      "gasUsed": "0x201ee",
      "effectiveGasPrice": "0xf4248",
      "blobGasPrice": "0x1",
      "from": "0xe3745c151fab59b0740f4312b2b027f07d096639",
      "to": "0x73973d222c3fda5b2563d269da9e19cb125000f4",
      "contractAddress": null
    }
  ],
  "libraries": [],
  "pending": [],
  "returns": {},
  "timestamp": 1778453773518,
  "chain": 31337,
  "commit": "f87d399"
}