{
  "transactions": [
    {
      "hash": "0x3091a73c6d2cbaa6ba8ec6cd0a6fa1fa025fd328a1c6ef87dc8899a539985b80",
      "transactionType": "CALL",
      "contractName": null,
      "contractAddress": "0x8fa71914948544c60e3379064567dcf0e6564d27",
      "function": "settle((uint256,address),(uint8,bool,address,uint256,address,uint256,address,uint64,uint64,uint256),(uint8,bytes32,bytes32))",
      "arguments": [
        "(0, 0x08312E82df563A1639b81f49bb41247759700e30)",
        "(0, false, 0xA5f104F8f78d5ba9AEC4a383c0927337Fd4E997B, 304, 0xC02aaA39b223FE8D0A0e5C4F27eAD9083C756Cc2, 13000000000000000, 0xcbe5659df21Cbcfabe4da962F7a9081F26B3ed82, 1773431218, 1778743068, 22)",
        "(28, 0x22052248314acee87358c92d318d5749542b1b7a898269f0b0111a4a61b6c7f7, 0x0a6ec2c2417691095f374b4ada10baf7acba381c3f03f73ad87894f3e155d38d)"
      ],
      "transaction": {
        "from": "0x08312e82df563a1639b81f49bb41247759700e30",
        "to": "0x8fa71914948544c60e3379064567dcf0e6564d27",
        "gas": "0x2c4e8",
        "value": "0x0",
        "input": "0x3bae3e79000000000000000000000000000000000000000000000000000000000000000000000000000000000000000008312e82df563a1639b81f49bb41247759700e3000000000000000000000000000000000000000000000000000000000000000000000000000000000000000000000000000000000000000000000000000000000000000000000000000000000a5f104f8f78d5ba9aec4a383c0927337fd4e997b0000000000000000000000000000000000000000000000000000000000000130000000000000000000000000c02aaa39b223fe8d0a0e5c4f27ead9083c756cc2000000000000000000000000000000000000000000000000002e2f6e5e148000000000000000000000000000cbe5659df21cbcfabe4da962f7a9081f26b3ed820000000000000000000000000000000000000000000000000000000069b469b2000000000000000000000000000000000000000000000000000000006a05771c0000000000000000000000000000000000000000000000000000000000000016000000000000000000000000000000000000000000000000000000000000001c22052248314acee87358c92d318d5749542b1b7a898269f0b0111a4a61b6c7f70a6ec2c2417691095f374b4ada10baf7acba381c3f03f73ad87894f3e155d38d",
        "nonce": "0x3f",
        "chainId": "0x7a69"
      },
      "additionalContracts": [],
      "isFixedGasLimit": false
    }
  ],
  "receipts": [
    {
      "status": "0x1",
      "cumulativeGasUsed": "0x2013d",
      "logs": [
        {
          "address": "0xc02aaa39b223fe8d0a0e5c4f27ead9083c756cc2",
          "topics": [
            "0xddf252ad1be2c89b69c2b068fc378daa952ba7f163c4a11628f55a4df523b3ef",
            "0x00000000000000000000000008312e82df563a1639b81f49bb41247759700e30",
            "0x0000000000000000000000001804c8ab1f12e6bbf3894d4083f33e07309d1f38"
          ],
          "data": "0x0000000000000000000000000000000000000000000000000000763bfbd22000",
          "blockHash": "0xa5b73cd721763426975983aa094d9f8722672ed8cc63b903959226675cf17647",
          "blockNumber": "0x17b8383",
          "blockTimestamp": "0x69f91cbf",
          "transactionHash": "0x3091a73c6d2cbaa6ba8ec6cd0a6fa1fa025fd328a1c6ef87dc8899a539985b80",
          "transactionIndex": "0x0",
          "logIndex": "0x0",
          "removed": false
        },
        {
          "address": "0xc02aaa39b223fe8d0a0e5c4f27ead9083c756cc2",
          "topics": [
            "0xddf252ad1be2c89b69c2b068fc378daa952ba7f163c4a11628f55a4df523b3ef",
            "0x00000000000000000000000008312e82df563a1639b81f49bb41247759700e30",
            "0x000000000000000000000000cbe5659df21cbcfabe4da962f7a9081f26b3ed82"
          ],
          "data": "0x000000000000000000000000000000000000000000000000002db93262426000",
          "blockHash": "0xa5b73cd721763426975983aa094d9f8722672ed8cc63b903959226675cf17647",
          "blockNumber": "0x17b8383",
          "blockTimestamp": "0x69f91cbf",
          "transactionHash": "0x3091a73c6d2cbaa6ba8ec6cd0a6fa1fa025fd328a1c6ef87dc8899a539985b80",
          "transactionIndex": "0x0",
          "logIndex": "0x1",
          "removed": false
        },
        {
          "address": "0xa5f104f8f78d5ba9aec4a383c0927337fd4e997b",
          "topics": [
            "0xddf252ad1be2c89b69c2b068fc378daa952ba7f163c4a11628f55a4df523b3ef",
            "0x000000000000000000000000cbe5659df21cbcfabe4da962f7a9081f26b3ed82",
            "0x00000000000000000000000008312e82df563a1639b81f49bb41247759700e30",
            "0x0000000000000000000000000000000000000000000000000000000000000130"
          ],
          "data": "0x",
          "blockHash": "0xa5b73cd721763426975983aa094d9f8722672ed8cc63b903959226675cf17647",
          "blockNumber": "0x17b8383",
          "blockTimestamp": "0x69f91cbf",
          "transactionHash": "0x3091a73c6d2cbaa6ba8ec6cd0a6fa1fa025fd328a1c6ef87dc8899a539985b80",
          "transactionIndex": "0x0",
          "logIndex": "0x2",
          "removed": false
        },
        {
          "address": "0x8fa71914948544c60e3379064567dcf0e6564d27",
          "topics": [
            "0xc0ac3eb1e8caef05b202043f34de8e3173fab712167584f7a2a9f4c302bd0e9c",
            "0x2c7adb9bfb4ac156ef1a9d7d825b628c0870f68febb6b6a802df61d843f56211",
            "0x000000000000000000000000a5f104f8f78d5ba9aec4a383c0927337fd4e997b",
            "0x0000000000000000000000000000000000000000000000000000000000000130"
          ],
          "data": "0x000000000000000000000000cbe5659df21cbcfabe4da962f7a9081f26b3ed8200000000000000000000000008312e82df563a1639b81f49bb41247759700e30000000000000000000000000c02aaa39b223fe8d0a0e5c4f27ead9083c756cc2000000000000000000000000000000000000000000000000002e2f6e5e148000",
          "blockHash": "0xa5b73cd721763426975983aa094d9f8722672ed8cc63b903959226675cf17647",
          "blockNumber": "0x17b8383",
          "blockTimestamp": "0x69f91cbf",
          "transactionHash": "0x3091a73c6d2cbaa6ba8ec6cd0a6fa1fa025fd328a1c6ef87dc8899a539985b80",
          "transactionIndex": "0x0",
          "logIndex": "0x3",
          "removed": false
        }
      ],
      "logsBloom": "0x00000000000000000000050001000000000000010000000000000000000000000000000000100000000000000000000002000000080000000000000000100100000000000000000000010008000000000000040000000000080000000000000000000000000000000001000000000000000000000000000000000010200200000800000000040000000004000000000000000000000000000000000000000000000000200000000400010000000000000000000000000080000000000000000000000002000004000400000000000000000000000000020080000000000000000100200000000000000000000000000000000000004000000000000000000000",
      "type": "0x2",
      "transactionHash": "0x3091a73c6d2cbaa6ba8ec6cd0a6fa1fa025fd328a1c6ef87dc8899a539985b80",
      "transactionIndex": "0x0",
      "blockHash": "0xa5b73cd721763426975983aa094d9f8722672ed8cc63b903959226675cf17647",
      "blockNumber": "0x17b8383",
      "gasUsed": "0x2013d",
      "effectiveGasPrice": "0x1ba81c",
      "blobGasPrice": "0x1",
      "from": "0x08312e82df563a1639b81f49bb41247759700e30",
      "to": "0x8fa71914948544c60e3379064567dcf0e6564d27",
      "contractAddress": null
    }
  ],
  "libraries": [],
  "pending": [],
  "returns": {},
  "timestamp": 1778506517805,
  "chain": 31337,
  "commit": "59e30a9"
}