{
  "transactions": [
    {
      "hash": "0x37e4a42ef93894355373793c7ce99b66bb48e041b9cac0c727811320783db058",
      "transactionType": "CALL",
      "contractName": null,
      "contractAddress": "0x8fa71914948544c60e3379064567dcf0e6564d27",
      "function": "settle((uint256,address),(uint8,bool,address,uint256,address,uint256,address,uint64,uint64,uint256),(uint8,bytes32,bytes32))",
      "arguments": [
        "(0, 0x08312E82df563A1639b81f49bb41247759700e30)",
        "(0, false, 0xA5f104F8f78d5ba9AEC4a383c0927337Fd4E997B, 176, 0xC02aaA39b223FE8D0A0e5C4F27eAD9083C756Cc2, 57000000000000000, 0xE233420d38D286C2F2Cf8dEe6564F132FBDB09DB, 1772163259, 1780011027, 17)",
        "(28, 0x5d035e2ffe64ad45fff0216ece3f6ae0bff224e5778e8ce669406b8d2b85fe82, 0x0d7e4acc1cb4b210b820120f2673f02b11d745dc5685a6ce0af36a06da8338ff)"
      ],
      "transaction": {
        "from": "0x08312e82df563a1639b81f49bb41247759700e30",
        "to": "0x8fa71914948544c60e3379064567dcf0e6564d27",
        "gas": "0x2ee8a",
        "value": "0x0",
        "input": "0x3bae3e79000000000000000000000000000000000000000000000000000000000000000000000000000000000000000008312e82df563a1639b81f49bb41247759700e3000000000000000000000000000000000000000000000000000000000000000000000000000000000000000000000000000000000000000000000000000000000000000000000000000000000a5f104f8f78d5ba9aec4a383c0927337fd4e997b00000000000000000000000000000000000000000000000000000000000000b0000000000000000000000000c02aaa39b223fe8d0a0e5c4f27ead9083c756cc200000000000000000000000000000000000000000000000000ca8132b0328000000000000000000000000000e233420d38d286c2f2cf8dee6564f132fbdb09db0000000000000000000000000000000000000000000000000000000069a110bb000000000000000000000000000000000000000000000000000000006a18d0130000000000000000000000000000000000000000000000000000000000000011000000000000000000000000000000000000000000000000000000000000001c5d035e2ffe64ad45fff0216ece3f6ae0bff224e5778e8ce669406b8d2b85fe820d7e4acc1cb4b210b820120f2673f02b11d745dc5685a6ce0af36a06da8338ff",
        "nonce": "0x45",
        "chainId": "0x7a69"
      },
      "additionalContracts": [],
      "isFixedGasLimit": false
    }
  ],
  "receipts": [
    {
      "status": "0x1",
      "cumulativeGasUsed": "0x20131",
      "logs": [
        {
          "address": "0xc02aaa39b223fe8d0a0e5c4f27ead9083c756cc2",
          "topics": [
            "0xddf252ad1be2c89b69c2b068fc378daa952ba7f163c4a11628f55a4df523b3ef",
            "0x00000000000000000000000008312e82df563a1639b81f49bb41247759700e30",
            "0x0000000000000000000000001804c8ab1f12e6bbf3894d4083f33e07309d1f38"
          ],
          "data": "0x000000000000000000000000000000000000000000000000000206697785a000",
          "blockHash": "0x4336bc2881c8361d8e31200ad5fbdae21786c67a21e3713dca5c49f3333829b9",
          "blockNumber": "0x17b83a0",
          "blockTimestamp": "0x6a0027bf",
          "transactionHash": "0x37e4a42ef93894355373793c7ce99b66bb48e041b9cac0c727811320783db058",
          "transactionIndex": "0x0",
          "logIndex": "0x0",
          "removed": false
        },
        {
          "address": "0xc02aaa39b223fe8d0a0e5c4f27ead9083c756cc2",
          "topics": [
            "0xddf252ad1be2c89b69c2b068fc378daa952ba7f163c4a11628f55a4df523b3ef",
            "0x00000000000000000000000008312e82df563a1639b81f49bb41247759700e30",
            "0x000000000000000000000000e233420d38d286c2f2cf8dee6564f132fbdb09db"
          ],
          "data": "0x00000000000000000000000000000000000000000000000000c87ac938ace000",
          "blockHash": "0x4336bc2881c8361d8e31200ad5fbdae21786c67a21e3713dca5c49f3333829b9",
          "blockNumber": "0x17b83a0",
          "blockTimestamp": "0x6a0027bf",
          "transactionHash": "0x37e4a42ef93894355373793c7ce99b66bb48e041b9cac0c727811320783db058",
          "transactionIndex": "0x0",
          "logIndex": "0x1",
          "removed": false
        },
        {
          "address": "0xa5f104f8f78d5ba9aec4a383c0927337fd4e997b",
          "topics": [
            "0xddf252ad1be2c89b69c2b068fc378daa952ba7f163c4a11628f55a4df523b3ef",
            "0x000000000000000000000000e233420d38d286c2f2cf8dee6564f132fbdb09db",
            "0x00000000000000000000000008312e82df563a1639b81f49bb41247759700e30",
            "0x00000000000000000000000000000000000000000000000000000000000000b0"
          ],
          "data": "0x",
          "blockHash": "0x4336bc2881c8361d8e31200ad5fbdae21786c67a21e3713dca5c49f3333829b9",
          "blockNumber": "0x17b83a0",
          "blockTimestamp": "0x6a0027bf",
          "transactionHash": "0x37e4a42ef93894355373793c7ce99b66bb48e041b9cac0c727811320783db058",
          "transactionIndex": "0x0",
          "logIndex": "0x2",
          "removed": false
        },
        {
          "address": "0x8fa71914948544c60e3379064567dcf0e6564d27",
          "topics": [
            "0xc0ac3eb1e8caef05b202043f34de8e3173fab712167584f7a2a9f4c302bd0e9c",
            "0x99709ecd7e58e8aad39311c7453f35450d20fde81fc96b4742352f37980459c0",
            "0x000000000000000000000000a5f104f8f78d5ba9aec4a383c0927337fd4e997b",
            "0x00000000000000000000000000000000000000000000000000000000000000b0"
          ],
          "data": "0x000000000000000000000000e233420d38d286c2f2cf8dee6564f132fbdb09db00000000000000000000000008312e82df563a1639b81f49bb41247759700e30000000000000000000000000c02aaa39b223fe8d0a0e5c4f27ead9083c756cc200000000000000000000000000000000000000000000000000ca8132b0328000",
          "blockHash": "0x4336bc2881c8361d8e31200ad5fbdae21786c67a21e3713dca5c49f3333829b9",
          "blockNumber": "0x17b83a0",
          "blockTimestamp": "0x6a0027bf",
          "transactionHash": "0x37e4a42ef93894355373793c7ce99b66bb48e041b9cac0c727811320783db058",
          "transactionIndex": "0x0",
          "logIndex": "0x3",
          "removed": false
        }
      ],
      "logsBloom": "0x00000000000000000000110001000000000000000000000000000000000000000000000000100000000000000000000002000000080000000000000000100000000000000000000000010008000000000000000000000000080000000000000000000001080000000001000000000000000000000000000000000010200000000800000000040000000004000000080000000000000000000000000000000000000000200000000400000000000000000000000000000080000000000000000000000012000004000000000000000000000000000002000080000000000000000100200000010000040000000000000001000000004000000000000000000000",
      "type": "0x2",
      "transactionHash": "0x37e4a42ef93894355373793c7ce99b66bb48e041b9cac0c727811320783db058",
      "transactionIndex": "0x0",
      "blockHash": "0x4336bc2881c8361d8e31200ad5fbdae21786c67a21e3713dca5c49f3333829b9",
      "blockNumber": "0x17b83a0",
      "gasUsed": "0x20131",
      "effectiveGasPrice": "0x1ba81c",
      "blobGasPrice": "0x1",
      "from": "0x08312e82df563a1639b81f49bb41247759700e30",
      "to": "0x8fa71914948544c60e3379064567dcf0e6564d27",
      "contractAddress": null
    }
  ],
  "libraries": [],
  "pending": [],
  "returns": {},
  "timestamp": 1778506549835,
  "chain": 31337,
  "commit": "59e30a9"
}