{
  "transactions": [
    {
      "hash": "0xff1ef58335f4eb9b02962d0c5e3cec2daec21632f8e4c7ba3184642fc8bbeda3",
      "transactionType": "CALL",
      "contractName": null,
      "contractAddress": "0x8fa71914948544c60e3379064567dcf0e6564d27",
      "function": "settle((uint256,address),(uint8,bool,address,uint256,address,uint256,address,uint64,uint64,uint256),(uint8,bytes32,bytes32))",
      "arguments": [
        "(282, 0x646dC5Fc4009C4C84a424B6aE0f494b374bAE1Ce)",
        "(1, false, 0xA5f104F8f78d5ba9AEC4a383c0927337Fd4E997B, 282, 0xC02aaA39b223FE8D0A0e5C4F27eAD9083C756Cc2, 13000000000000000, 0xcbe5659df21Cbcfabe4da962F7a9081F26B3ed82, 1773477439, 1778696847, 7)",
        "(28, 0x2d55f34c2be5efb16f9d71cbe2afe771eb92573bb626c745dc716eda32cfae96, 0x6022d8b5ec22ee4f12855a3653bd8a326587aff2fbd26ad2463b81ebaef5c03b)"
      ],
      "transaction": {
        "from": "0x646dc5fc4009c4c84a424b6ae0f494b374bae1ce",
        "to": "0x8fa71914948544c60e3379064567dcf0e6564d27",
        "gas": "0x2c5fe",
        "value": "0x0",
        "input": "0x3bae3e79000000000000000000000000000000000000000000000000000000000000011a000000000000000000000000646dc5fc4009c4c84a424b6ae0f494b374bae1ce00000000000000000000000000000000000000000000000000000000000000010000000000000000000000000000000000000000000000000000000000000000000000000000000000000000a5f104f8f78d5ba9aec4a383c0927337fd4e997b000000000000000000000000000000000000000000000000000000000000011a000000000000000000000000c02aaa39b223fe8d0a0e5c4f27ead9083c756cc2000000000000000000000000000000000000000000000000002e2f6e5e148000000000000000000000000000cbe5659df21cbcfabe4da962f7a9081f26b3ed820000000000000000000000000000000000000000000000000000000069b51e3f000000000000000000000000000000000000000000000000000000006a04c28f0000000000000000000000000000000000000000000000000000000000000007000000000000000000000000000000000000000000000000000000000000001c2d55f34c2be5efb16f9d71cbe2afe771eb92573bb626c745dc716eda32cfae966022d8b5ec22ee4f12855a3653bd8a326587aff2fbd26ad2463b81ebaef5c03b",
        "nonce": "0x4e",
        "chainId": "0x7a69"
      },
      "additionalContracts": [],
      "isFixedGasLimit": false
    }
  ],
  "receipts": [
    {
      "status": "0x1",
      "cumulativeGasUsed": "0x20206",
      "logs": [
        {
          "address": "0xc02aaa39b223fe8d0a0e5c4f27ead9083c756cc2",
          "topics": [
            "0xddf252ad1be2c89b69c2b068fc378daa952ba7f163c4a11628f55a4df523b3ef",
            "0x000000000000000000000000cbe5659df21cbcfabe4da962f7a9081f26b3ed82",
            "0x0000000000000000000000001804c8ab1f12e6bbf3894d4083f33e07309d1f38"
          ],
          "data": "0x0000000000000000000000000000000000000000000000000000763bfbd22000",
          "blockHash": "0xee8a518748fc1493560a0b4644acc7b5d22ee769dd69a76d18d6665c74ce3921",
          "blockNumber": "0x17b833b",
          "blockTimestamp": "0x69e8571a",
          "transactionHash": "0xff1ef58335f4eb9b02962d0c5e3cec2daec21632f8e4c7ba3184642fc8bbeda3",
          "transactionIndex": "0x0",
          "logIndex": "0x0",
          "removed": false
        },
        {
          "address": "0xc02aaa39b223fe8d0a0e5c4f27ead9083c756cc2",
          "topics": [
            "0xddf252ad1be2c89b69c2b068fc378daa952ba7f163c4a11628f55a4df523b3ef",
            "0x000000000000000000000000cbe5659df21cbcfabe4da962f7a9081f26b3ed82",
            "0x000000000000000000000000646dc5fc4009c4c84a424b6ae0f494b374bae1ce"
          ],
          "data": "0x000000000000000000000000000000000000000000000000002db93262426000",
          "blockHash": "0xee8a518748fc1493560a0b4644acc7b5d22ee769dd69a76d18d6665c74ce3921",
          "blockNumber": "0x17b833b",
          "blockTimestamp": "0x69e8571a",
          "transactionHash": "0xff1ef58335f4eb9b02962d0c5e3cec2daec21632f8e4c7ba3184642fc8bbeda3",
          "transactionIndex": "0x0",
          "logIndex": "0x1",
          "removed": false
        },
        {
          "address": "0xa5f104f8f78d5ba9aec4a383c0927337fd4e997b",
          "topics": [
            "0xddf252ad1be2c89b69c2b068fc378daa952ba7f163c4a11628f55a4df523b3ef",
            "0x000000000000000000000000646dc5fc4009c4c84a424b6ae0f494b374bae1ce",
            "0x000000000000000000000000cbe5659df21cbcfabe4da962f7a9081f26b3ed82",
            "0x000000000000000000000000000000000000000000000000000000000000011a"
          ],
          "data": "0x",
          "blockHash": "0xee8a518748fc1493560a0b4644acc7b5d22ee769dd69a76d18d6665c74ce3921",
          "blockNumber": "0x17b833b",
          "blockTimestamp": "0x69e8571a",
          "transactionHash": "0xff1ef58335f4eb9b02962d0c5e3cec2daec21632f8e4c7ba3184642fc8bbeda3",
          "transactionIndex": "0x0",
          "logIndex": "0x2",
          "removed": false
        },
        {
          "address": "0x8fa71914948544c60e3379064567dcf0e6564d27",
          "topics": [
            "0xc0ac3eb1e8caef05b202043f34de8e3173fab712167584f7a2a9f4c302bd0e9c",
            "0x267ca76d974338faabe194bf2d21ad3c223e691f28d8c5cde0198be1e0eb35cd",
            "0x000000000000000000000000a5f104f8f78d5ba9aec4a383c0927337fd4e997b",
            "0x000000000000000000000000000000000000000000000000000000000000011a"
          ],
          "data": "0x000000000000000000000000646dc5fc4009c4c84a424b6ae0f494b374bae1ce000000000000000000000000cbe5659df21cbcfabe4da962f7a9081f26b3ed82000000000000000000000000c02aaa39b223fe8d0a0e5c4f27ead9083c756cc2000000000000000000000000000000000000000000000000002e2f6e5e148000",
          "blockHash": "0xee8a518748fc1493560a0b4644acc7b5d22ee769dd69a76d18d6665c74ce3921",
          "blockNumber": "0x17b833b",
          "blockTimestamp": "0x69e8571a",
          "transactionHash": "0xff1ef58335f4eb9b02962d0c5e3cec2daec21632f8e4c7ba3184642fc8bbeda3",
          "transactionIndex": "0x0",
          "logIndex": "0x3",
          "removed": false
        }
      ],
      "logsBloom": "0x00000000000002000000010400000000000000000002000000000000000000000000000000000000000000000000000002000400090000000040000000100000000000000000000000010008000000000000000000000000080000000000000000000000000000000005000000000000000000000000000000000010200000000800000000040000000004000000000000002000000000000000000000000000000000200000000400000000000000000000000000000080000000000000000000000002000004000400000000000000000000000000020080000000000000000100200000000000000000000000000000000000004000000000000000000000",
      "type": "0x2",
      "transactionHash": "0xff1ef58335f4eb9b02962d0c5e3cec2daec21632f8e4c7ba3184642fc8bbeda3",
      "transactionIndex": "0x0",
      "blockHash": "0xee8a518748fc1493560a0b4644acc7b5d22ee769dd69a76d18d6665c74ce3921",
      "blockNumber": "0x17b833b",
      "gasUsed": "0x20206",
      "effectiveGasPrice": "0x1ba81c",
      "blobGasPrice": "0x1",
      "from": "0x646dc5fc4009c4c84a424b6ae0f494b374bae1ce",
      "to": "0x8fa71914948544c60e3379064567dcf0e6564d27",
      "contractAddress": null
    }
  ],
  "libraries": [],
  "pending": [],
  "returns": {},
  "timestamp": 1778506438496,
  "chain": 31337,
  "commit": "59e30a9"
}