{
  "transactions": [
    {
      "hash": "0x3005e82fd9b0d2d847132582be575829dfa7b51bfd77489295794d4425ea5167",
      "transactionType": "CALL",
      "contractName": null,
      "contractAddress": "0x73973d222c3fda5b2563d269da9e19cb125000f4",
      "function": "settle((uint256,address),(uint8,bool,address,uint256,address,uint256,address,uint64,uint64,uint256),(uint8,bytes32,bytes32))",
      "arguments": [
        "(0, 0x646dC5Fc4009C4C84a424B6aE0f494b374bAE1Ce)",
        "(0, false, 0x38D4dE42C9c5640A2799B372D27B01957E0a3673, 411, 0xC02aaA39b223FE8D0A0e5C4F27eAD9083C756Cc2, 24000000000000000, 0xE233420d38D286C2F2Cf8dEe6564F132FBDB09DB, 1771653700, 1780411938, 1)",
        "(27, 0xee8964a52bc9cf1c671da95f2907307b8f2a07d84af2cce0c3375fce40ff975e, 0x30b26a6fa68caa9945016e16babdc8958e5ad0f9572b8e6e8f5dd6c0fc8c5159)"
      ],
      "transaction": {
        "from": "0x646dc5fc4009c4c84a424b6ae0f494b374bae1ce",
        "to": "0x73973d222c3fda5b2563d269da9e19cb125000f4",
        "gas": "0x2c4bb",
        "value": "0x0",
        "input": "0x3bae3e790000000000000000000000000000000000000000000000000000000000000000000000000000000000000000646dc5fc4009c4c84a424b6ae0f494b374bae1ce0000000000000000000000000000000000000000000000000000000000000000000000000000000000000000000000000000000000000000000000000000000000000000000000000000000038d4de42c9c5640a2799b372d27b01957e0a3673000000000000000000000000000000000000000000000000000000000000019b000000000000000000000000c02aaa39b223fe8d0a0e5c4f27ead9083c756cc2000000000000000000000000000000000000000000000000005543df729c0000000000000000000000000000e233420d38d286c2f2cf8dee6564f132fbdb09db0000000000000000000000000000000000000000000000000000000069994a44000000000000000000000000000000000000000000000000000000006a1eee220000000000000000000000000000000000000000000000000000000000000001000000000000000000000000000000000000000000000000000000000000001bee8964a52bc9cf1c671da95f2907307b8f2a07d84af2cce0c3375fce40ff975e30b26a6fa68caa9945016e16babdc8958e5ad0f9572b8e6e8f5dd6c0fc8c5159",
        "nonce": "0x99",
        "chainId": "0x7a69"
      },
      "additionalContracts": [],
      "isFixedGasLimit": false
    }
  ],
  "receipts": [
    {
      "status": "0x1",
      "cumulativeGasUsed": "0x2011d",
      "logs": [
        {
          "address": "0xc02aaa39b223fe8d0a0e5c4f27ead9083c756cc2",
          "topics": [
            "0xddf252ad1be2c89b69c2b068fc378daa952ba7f163c4a11628f55a4df523b3ef",
            "0x000000000000000000000000646dc5fc4009c4c84a424b6ae0f494b374bae1ce",
            "0x0000000000000000000000001804c8ab1f12e6bbf3894d4083f33e07309d1f38"
          ],
          "data": "0x0000000000000000000000000000000000000000000000000000da475abf0000",
          "blockHash": "0x8011edcfad0e209523afd0de1efaa614f0632c78146a2fb228c7d1c607d8928a",
          "blockNumber": "0x17b73b4",
          "blockTimestamp": "0x69e49c51",
          "transactionHash": "0x3005e82fd9b0d2d847132582be575829dfa7b51bfd77489295794d4425ea5167",
          "transactionIndex": "0x0",
          "logIndex": "0x0",
          "removed": false
        },
        {
          "address": "0xc02aaa39b223fe8d0a0e5c4f27ead9083c756cc2",
          "topics": [
            "0xddf252ad1be2c89b69c2b068fc378daa952ba7f163c4a11628f55a4df523b3ef",
            "0x000000000000000000000000646dc5fc4009c4c84a424b6ae0f494b374bae1ce",
            "0x000000000000000000000000e233420d38d286c2f2cf8dee6564f132fbdb09db"
          ],
          "data": "0x0000000000000000000000000000000000000000000000000054699817dd0000",
          "blockHash": "0x8011edcfad0e209523afd0de1efaa614f0632c78146a2fb228c7d1c607d8928a",
          "blockNumber": "0x17b73b4",
          "blockTimestamp": "0x69e49c51",
          "transactionHash": "0x3005e82fd9b0d2d847132582be575829dfa7b51bfd77489295794d4425ea5167",
          "transactionIndex": "0x0",
          "logIndex": "0x1",
          "removed": false
        },
        {
          "address": "0x38d4de42c9c5640a2799b372d27b01957e0a3673",
          "topics": [
            "0xddf252ad1be2c89b69c2b068fc378daa952ba7f163c4a11628f55a4df523b3ef",
            "0x000000000000000000000000e233420d38d286c2f2cf8dee6564f132fbdb09db",
            "0x000000000000000000000000646dc5fc4009c4c84a424b6ae0f494b374bae1ce",
            "0x000000000000000000000000000000000000000000000000000000000000019b"
          ],
          "data": "0x",
          "blockHash": "0x8011edcfad0e209523afd0de1efaa614f0632c78146a2fb228c7d1c607d8928a",
          "blockNumber": "0x17b73b4",
          "blockTimestamp": "0x69e49c51",
          "transactionHash": "0x3005e82fd9b0d2d847132582be575829dfa7b51bfd77489295794d4425ea5167",
          "transactionIndex": "0x0",
          "logIndex": "0x2",
          "removed": false
        },
        {
          "address": "0x73973d222c3fda5b2563d269da9e19cb125000f4",
          "topics": [
            "0xc0ac3eb1e8caef05b202043f34de8e3173fab712167584f7a2a9f4c302bd0e9c",
            "0xb0a9fa779a362e59d7384e099830a2dfe7bdeebd40bb2de0bf8f5234fa0c8002",
            "0x00000000000000000000000038d4de42c9c5640a2799b372d27b01957e0a3673",
            "0x000000000000000000000000000000000000000000000000000000000000019b"
          ],
          "data": "0x000000000000000000000000e233420d38d286c2f2cf8dee6564f132fbdb09db000000000000000000000000646dc5fc4009c4c84a424b6ae0f494b374bae1ce000000000000000000000000c02aaa39b223fe8d0a0e5c4f27ead9083c756cc2000000000000000000000000000000000000000000000000005543df729c0000",
          "blockHash": "0x8011edcfad0e209523afd0de1efaa614f0632c78146a2fb228c7d1c607d8928a",
          "blockNumber": "0x17b73b4",
          "blockTimestamp": "0x69e49c51",
          "transactionHash": "0x3005e82fd9b0d2d847132582be575829dfa7b51bfd77489295794d4425ea5167",
          "transactionIndex": "0x0",
          "logIndex": "0x3",
          "removed": false
        }
      ],
      "logsBloom": "0x00000000000000000000000000000000000000000002000000000000000000000000000000000000000000000000020002000000090000000004100000100000000000000000001021000008000000000000000000000000000000000000000400000001000000000005400000000000000000000000000000000010000000000000000000000000000004000000000000000000000008000000100000000010000000000000200000000000000000000000000000000080400000000000000000000012000104000000000000000000000000000002000000000000000000000100200000000000000000000000000000000000000000000000000000000000",
      "type": "0x2",
      "transactionHash": "0x3005e82fd9b0d2d847132582be575829dfa7b51bfd77489295794d4425ea5167",
      "transactionIndex": "0x0",
      "blockHash": "0x8011edcfad0e209523afd0de1efaa614f0632c78146a2fb228c7d1c607d8928a",
      "blockNumber": "0x17b73b4",
      "gasUsed": "0x2011d",
      "effectiveGasPrice": "0xf4248",
      "blobGasPrice": "0x1",
      "from": "0x646dc5fc4009c4c84a424b6ae0f494b374bae1ce",
      "to": "0x73973d222c3fda5b2563d269da9e19cb125000f4",
      "contractAddress": null
    }
  ],
  "libraries": [],
  "pending": [],
  "returns": {},
  "timestamp": 1778453723217,
  "chain": 31337,
  "commit": "f87d399"
}