{
  "transactions": [
    {
      "hash": "0xfcc1c54ebf22cfe0d9c2c7eb8f35548828fe417bcd4426e7ab22d50147a6f58b",
      "transactionType": "CALL",
      "contractName": null,
      "contractAddress": "0x73973d222c3fda5b2563d269da9e19cb125000f4",
      "function": "settle((uint256,address),(uint8,bool,address,uint256,address,uint256,address,uint64,uint64,uint256),(uint8,bytes32,bytes32))",
      "arguments": [
        "(0, 0x646dC5Fc4009C4C84a424B6aE0f494b374bAE1Ce)",
        "(0, false, 0x38D4dE42C9c5640A2799B372D27B01957E0a3673, 304, 0xC02aaA39b223FE8D0A0e5C4F27eAD9083C756Cc2, 15000000000000000, 0xcbe5659df21Cbcfabe4da962F7a9081F26B3ed82, 1773419925, 1778645713, 6)",
        "(27, 0xddf7777ec8ec24f79be3f08e31fcaf3e67b6269c6f5381d2200b9261c2f91c33, 0x66aa00a0563d67397a01c736ac4d12da11654c8ea8b6be9f9a0cd03b2ea192a4)"
      ],
      "transaction": {
        "from": "0x646dc5fc4009c4c84a424b6ae0f494b374bae1ce",
        "to": "0x73973d222c3fda5b2563d269da9e19cb125000f4",
        "gas": "0x2c4bb",
        "value": "0x0",
        "input": "0x3bae3e790000000000000000000000000000000000000000000000000000000000000000000000000000000000000000646dc5fc4009c4c84a424b6ae0f494b374bae1ce0000000000000000000000000000000000000000000000000000000000000000000000000000000000000000000000000000000000000000000000000000000000000000000000000000000038d4de42c9c5640a2799b372d27b01957e0a36730000000000000000000000000000000000000000000000000000000000000130000000000000000000000000c02aaa39b223fe8d0a0e5c4f27ead9083c756cc200000000000000000000000000000000000000000000000000354a6ba7a18000000000000000000000000000cbe5659df21cbcfabe4da962f7a9081f26b3ed820000000000000000000000000000000000000000000000000000000069b43d95000000000000000000000000000000000000000000000000000000006a03fad10000000000000000000000000000000000000000000000000000000000000006000000000000000000000000000000000000000000000000000000000000001bddf7777ec8ec24f79be3f08e31fcaf3e67b6269c6f5381d2200b9261c2f91c3366aa00a0563d67397a01c736ac4d12da11654c8ea8b6be9f9a0cd03b2ea192a4",
        "nonce": "0x9a",
        "chainId": "0x7a69"
      },
      "additionalContracts": [],
      "isFixedGasLimit": false
    }
  ],
  "receipts": [
    {
      "status": "0x1",
      "cumulativeGasUsed": "0x2011d",
      "logs": [
        {
          "address": "0xc02aaa39b223fe8d0a0e5c4f27ead9083c756cc2",
          "topics": [
            "0xddf252ad1be2c89b69c2b068fc378daa952ba7f163c4a11628f55a4df523b3ef",
            "0x000000000000000000000000646dc5fc4009c4c84a424b6ae0f494b374bae1ce",
            "0x0000000000000000000000001804c8ab1f12e6bbf3894d4083f33e07309d1f38"
          ],
          "data": "0x0000000000000000000000000000000000000000000000000000886c98b76000",
          "blockHash": "0xe58d6b894e56c3b20bf11396cdfd8936ecd88f9870a1c0c226a49ef88ed33b85",
          "blockNumber": "0x17b73bf",
          "blockTimestamp": "0x69e68f91",
          "transactionHash": "0xfcc1c54ebf22cfe0d9c2c7eb8f35548828fe417bcd4426e7ab22d50147a6f58b",
          "transactionIndex": "0x0",
          "logIndex": "0x0",
          "removed": false
        },
        {
          "address": "0xc02aaa39b223fe8d0a0e5c4f27ead9083c756cc2",
          "topics": [
            "0xddf252ad1be2c89b69c2b068fc378daa952ba7f163c4a11628f55a4df523b3ef",
            "0x000000000000000000000000646dc5fc4009c4c84a424b6ae0f494b374bae1ce",
            "0x000000000000000000000000cbe5659df21cbcfabe4da962f7a9081f26b3ed82"
          ],
          "data": "0x0000000000000000000000000000000000000000000000000034c1ff0eea2000",
          "blockHash": "0xe58d6b894e56c3b20bf11396cdfd8936ecd88f9870a1c0c226a49ef88ed33b85",
          "blockNumber": "0x17b73bf",
          "blockTimestamp": "0x69e68f91",
          "transactionHash": "0xfcc1c54ebf22cfe0d9c2c7eb8f35548828fe417bcd4426e7ab22d50147a6f58b",
          "transactionIndex": "0x0",
          "logIndex": "0x1",
          "removed": false
        },
        {
          "address": "0x38d4de42c9c5640a2799b372d27b01957e0a3673",
          "topics": [
            "0xddf252ad1be2c89b69c2b068fc378daa952ba7f163c4a11628f55a4df523b3ef",
            "0x000000000000000000000000cbe5659df21cbcfabe4da962f7a9081f26b3ed82",
            "0x000000000000000000000000646dc5fc4009c4c84a424b6ae0f494b374bae1ce",
            "0x0000000000000000000000000000000000000000000000000000000000000130"
          ],
          "data": "0x",
          "blockHash": "0xe58d6b894e56c3b20bf11396cdfd8936ecd88f9870a1c0c226a49ef88ed33b85",
          "blockNumber": "0x17b73bf",
          "blockTimestamp": "0x69e68f91",
          "transactionHash": "0xfcc1c54ebf22cfe0d9c2c7eb8f35548828fe417bcd4426e7ab22d50147a6f58b",
          "transactionIndex": "0x0",
          "logIndex": "0x2",
          "removed": false
        },
        {
          "address": "0x73973d222c3fda5b2563d269da9e19cb125000f4",
          "topics": [
            "0xc0ac3eb1e8caef05b202043f34de8e3173fab712167584f7a2a9f4c302bd0e9c",
            "0x283c48c5735d0c9ff24bbcaf93d8d2178e1e193d053546d278d02d325d4aaa18",
            "0x00000000000000000000000038d4de42c9c5640a2799b372d27b01957e0a3673",
            "0x0000000000000000000000000000000000000000000000000000000000000130"
          ],
          "data": "0x000000000000000000000000cbe5659df21cbcfabe4da962f7a9081f26b3ed82000000000000000000000000646dc5fc4009c4c84a424b6ae0f494b374bae1ce000000000000000000000000c02aaa39b223fe8d0a0e5c4f27ead9083c756cc200000000000000000000000000000000000000000000000000354a6ba7a18000",
          "blockHash": "0xe58d6b894e56c3b20bf11396cdfd8936ecd88f9870a1c0c226a49ef88ed33b85",
          "blockNumber": "0x17b73bf",
          "blockTimestamp": "0x69e68f91",
          "transactionHash": "0xfcc1c54ebf22cfe0d9c2c7eb8f35548828fe417bcd4426e7ab22d50147a6f58b",
          "transactionIndex": "0x0",
          "logIndex": "0x3",
          "removed": false
        }
      ],
      "logsBloom": "0x00000000000000000000040000000000000000010002000000000000000000000000000000000000000000000000020002000000090000000004100000100100000200000000001021000008000000000000000000000000000000000000000000000000000000000005000000000000000000000000000000000010000000000000000000000000000004000000000000000000000008000200000000000000020000000000000000000000000000000000000000000080400000000000000000000002000004000400000000000000000000000000020000000000000000000100200000000000000000000000000000000000004000000000000000000000",
      "type": "0x2",
      "transactionHash": "0xfcc1c54ebf22cfe0d9c2c7eb8f35548828fe417bcd4426e7ab22d50147a6f58b",
      "transactionIndex": "0x0",
      "blockHash": "0xe58d6b894e56c3b20bf11396cdfd8936ecd88f9870a1c0c226a49ef88ed33b85",
      "blockNumber": "0x17b73bf",
      "gasUsed": "0x2011d",
      "effectiveGasPrice": "0xf4248",
      "blobGasPrice": "0x1",
      "from": "0x646dc5fc4009c4c84a424b6ae0f494b374bae1ce",
      "to": "0x73973d222c3fda5b2563d269da9e19cb125000f4",
      "contractAddress": null
    }
  ],
  "libraries": [],
  "pending": [],
  "returns": {},
  "timestamp": 1778453768369,
  "chain": 31337,
  "commit": "f87d399"
}