{
  "transactions": [
    {
      "hash": "0x51e9702e30c7894fedf7a6e4dcc98cea24ccf7f1d18ea1ec960d044347474577",
      "transactionType": "CALL",
      "contractName": null,
      "contractAddress": "0x73973d222c3fda5b2563d269da9e19cb125000f4",
      "function": "settle((uint256,address),(uint8,bool,address,uint256,address,uint256,address,uint64,uint64,uint256),(uint8,bytes32,bytes32))",
      "arguments": [
        "(379, 0x646dC5Fc4009C4C84a424B6aE0f494b374bAE1Ce)",
        "(1, false, 0x38D4dE42C9c5640A2799B372D27B01957E0a3673, 379, 0xC02aaA39b223FE8D0A0e5C4F27eAD9083C756Cc2, 31000000000000000, 0x08312E82df563A1639b81f49bb41247759700e30, 1772133824, 1779931814, 10)",
        "(28, 0xb4bd632628bbe7a2f427d07a2ff4d27fa9c3de51ce5682d798f7c634f4160209, 0x7378bd2656b9f6fa1ee69f562ebae654aeac869c052e1df1fdf5e67eec06ebd7)"
      ],
      "transaction": {
        "from": "0x646dc5fc4009c4c84a424b6ae0f494b374bae1ce",
        "to": "0x73973d222c3fda5b2563d269da9e19cb125000f4",
        "gas": "0x2c5fe",
        "value": "0x0",
        "input": "0x3bae3e79000000000000000000000000000000000000000000000000000000000000017b000000000000000000000000646dc5fc4009c4c84a424b6ae0f494b374bae1ce0000000000000000000000000000000000000000000000000000000000000001000000000000000000000000000000000000000000000000000000000000000000000000000000000000000038d4de42c9c5640a2799b372d27b01957e0a3673000000000000000000000000000000000000000000000000000000000000017b000000000000000000000000c02aaa39b223fe8d0a0e5c4f27ead9083c756cc2000000000000000000000000000000000000000000000000006e2255f409800000000000000000000000000008312e82df563a1639b81f49bb41247759700e300000000000000000000000000000000000000000000000000000000069a09dc0000000000000000000000000000000000000000000000000000000006a179aa6000000000000000000000000000000000000000000000000000000000000000a000000000000000000000000000000000000000000000000000000000000001cb4bd632628bbe7a2f427d07a2ff4d27fa9c3de51ce5682d798f7c634f41602097378bd2656b9f6fa1ee69f562ebae654aeac869c052e1df1fdf5e67eec06ebd7",
        "nonce": "0xa2",
        "chainId": "0x7a69"
      },
      "additionalContracts": [],
      "isFixedGasLimit": false
    }
  ],
  "receipts": [
    {
      "status": "0x1",
      "cumulativeGasUsed": "0x20206",
      "logs": [
        {
          "address": "0xc02aaa39b223fe8d0a0e5c4f27ead9083c756cc2",
          "topics": [
            "0xddf252ad1be2c89b69c2b068fc378daa952ba7f163c4a11628f55a4df523b3ef",
            "0x00000000000000000000000008312e82df563a1639b81f49bb41247759700e30",
            "0x0000000000000000000000001804c8ab1f12e6bbf3894d4083f33e07309d1f38"
          ],
          "data": "0x000000000000000000000000000000000000000000000000000119f17fe16000",
          "blockHash": "0xd4a1a2a55938b83fc0ba3b84a80ac010fa6cad4bdc7d7d48d55a01493c3a907c",
          "blockNumber": "0x17b73e2",
          "blockTimestamp": "0x69ec8aef",
          "transactionHash": "0x51e9702e30c7894fedf7a6e4dcc98cea24ccf7f1d18ea1ec960d044347474577",
          "transactionIndex": "0x0",
          "logIndex": "0x0",
          "removed": false
        },
        {
          "address": "0xc02aaa39b223fe8d0a0e5c4f27ead9083c756cc2",
          "topics": [
            "0xddf252ad1be2c89b69c2b068fc378daa952ba7f163c4a11628f55a4df523b3ef",
            "0x00000000000000000000000008312e82df563a1639b81f49bb41247759700e30",
            "0x000000000000000000000000646dc5fc4009c4c84a424b6ae0f494b374bae1ce"
          ],
          "data": "0x000000000000000000000000000000000000000000000000006d086474282000",
          "blockHash": "0xd4a1a2a55938b83fc0ba3b84a80ac010fa6cad4bdc7d7d48d55a01493c3a907c",
          "blockNumber": "0x17b73e2",
          "blockTimestamp": "0x69ec8aef",
          "transactionHash": "0x51e9702e30c7894fedf7a6e4dcc98cea24ccf7f1d18ea1ec960d044347474577",
          "transactionIndex": "0x0",
          "logIndex": "0x1",
          "removed": false
        },
        {
          "address": "0x38d4de42c9c5640a2799b372d27b01957e0a3673",
          "topics": [
            "0xddf252ad1be2c89b69c2b068fc378daa952ba7f163c4a11628f55a4df523b3ef",
            "0x000000000000000000000000646dc5fc4009c4c84a424b6ae0f494b374bae1ce",
            "0x00000000000000000000000008312e82df563a1639b81f49bb41247759700e30",
            "0x000000000000000000000000000000000000000000000000000000000000017b"
          ],
          "data": "0x",
          "blockHash": "0xd4a1a2a55938b83fc0ba3b84a80ac010fa6cad4bdc7d7d48d55a01493c3a907c",
          "blockNumber": "0x17b73e2",
          "blockTimestamp": "0x69ec8aef",
          "transactionHash": "0x51e9702e30c7894fedf7a6e4dcc98cea24ccf7f1d18ea1ec960d044347474577",
          "transactionIndex": "0x0",
          "logIndex": "0x2",
          "removed": false
        },
        {
          "address": "0x73973d222c3fda5b2563d269da9e19cb125000f4",
          "topics": [
            "0xc0ac3eb1e8caef05b202043f34de8e3173fab712167584f7a2a9f4c302bd0e9c",
            "0xb833748c6a8c2b02c0b16ae7c82882d884d65cb82c7339296bb5bfaf76afca3e",
            "0x00000000000000000000000038d4de42c9c5640a2799b372d27b01957e0a3673",
            "0x000000000000000000000000000000000000000000000000000000000000017b"
          ],
          "data": "0x000000000000000000000000646dc5fc4009c4c84a424b6ae0f494b374bae1ce00000000000000000000000008312e82df563a1639b81f49bb41247759700e30000000000000000000000000c02aaa39b223fe8d0a0e5c4f27ead9083c756cc2000000000000000000000000000000000000000000000000006e2255f4098000",
          "blockHash": "0xd4a1a2a55938b83fc0ba3b84a80ac010fa6cad4bdc7d7d48d55a01493c3a907c",
          "blockNumber": "0x17b73e2",
          "blockTimestamp": "0x69ec8aef",
          "transactionHash": "0x51e9702e30c7894fedf7a6e4dcc98cea24ccf7f1d18ea1ec960d044347474577",
          "transactionIndex": "0x0",
          "logIndex": "0x3",
          "removed": false
        }
      ],
      "logsBloom": "0x00000000000000000000000001000000000000000002000100000000000000000000000000100000000000000100020002000000090000000004100000100000000000000000001021000008000040000000000000000000000000000000000000000000000000000005000000000000000000000000000000000010000000000000000000000000000004000000000000000000000008000000000000000000000000000000010000000000000000000000000000000080400000000000000000000002000004000000000000000000000000000000000000000000000000200100200000000000000000000000000000000000004000000000000000000000",
      "type": "0x2",
      "transactionHash": "0x51e9702e30c7894fedf7a6e4dcc98cea24ccf7f1d18ea1ec960d044347474577",
      "transactionIndex": "0x0",
      "blockHash": "0xd4a1a2a55938b83fc0ba3b84a80ac010fa6cad4bdc7d7d48d55a01493c3a907c",
      "blockNumber": "0x17b73e2",
      "gasUsed": "0x20206",
      "effectiveGasPrice": "0xf4248",
      "blobGasPrice": "0x1",
      "from": "0x646dc5fc4009c4c84a424b6ae0f494b374bae1ce",
      "to": "0x73973d222c3fda5b2563d269da9e19cb125000f4",
      "contractAddress": null
    }
  ],
  "libraries": [],
  "pending": [],
  "returns": {},
  "timestamp": 1778453798929,
  "chain": 31337,
  "commit": "f87d399"
}