{
  "transactions": [
    {
      "hash": "0xf7fe086ae2cf14ce960e1d852424dd7f6be28b92ede77dabf093296fd8bbb360",
      "transactionType": "CALL",
      "contractName": null,
      "contractAddress": "0x73973d222c3fda5b2563d269da9e19cb125000f4",
      "function": "settle((uint256,address),(uint8,bool,address,uint256,address,uint256,address,uint64,uint64,uint256),(uint8,bytes32,bytes32))",
      "arguments": [
        "(0, 0x646dC5Fc4009C4C84a424B6aE0f494b374bAE1Ce)",
        "(0, false, 0x38D4dE42C9c5640A2799B372D27B01957E0a3673, 274, 0xC02aaA39b223FE8D0A0e5C4F27eAD9083C756Cc2, 13000000000000000, 0x4b75AeC40561C03e03d4D1C421dF194a3031A134, 1772372436, 1779693202, 4)",
        "(28, 0x7cee98749fffbf0c6968aaa00dc118c1e9589701bcdd4a6d469b83e5552f718c, 0x23c376caa9c4e5459fcdb70cc3bdf9e12dc98713b6dd2e9a218f61c1d047572c)"
      ],
      "transaction": {
        "from": "0x646dc5fc4009c4c84a424b6ae0f494b374bae1ce",
        "to": "0x73973d222c3fda5b2563d269da9e19cb125000f4",
        "gas": "0x2c4e8",
        "value": "0x0",
        "input": "0x3bae3e790000000000000000000000000000000000000000000000000000000000000000000000000000000000000000646dc5fc4009c4c84a424b6ae0f494b374bae1ce0000000000000000000000000000000000000000000000000000000000000000000000000000000000000000000000000000000000000000000000000000000000000000000000000000000038d4de42c9c5640a2799b372d27b01957e0a36730000000000000000000000000000000000000000000000000000000000000112000000000000000000000000c02aaa39b223fe8d0a0e5c4f27ead9083c756cc2000000000000000000000000000000000000000000000000002e2f6e5e1480000000000000000000000000004b75aec40561c03e03d4d1c421df194a3031a1340000000000000000000000000000000000000000000000000000000069a441d4000000000000000000000000000000000000000000000000000000006a13f6920000000000000000000000000000000000000000000000000000000000000004000000000000000000000000000000000000000000000000000000000000001c7cee98749fffbf0c6968aaa00dc118c1e9589701bcdd4a6d469b83e5552f718c23c376caa9c4e5459fcdb70cc3bdf9e12dc98713b6dd2e9a218f61c1d047572c",
        "nonce": "0xa1",
        "chainId": "0x7a69"
      },
      "additionalContracts": [],
      "isFixedGasLimit": false
    }
  ],
  "receipts": [
    {
      "status": "0x1",
      "cumulativeGasUsed": "0x2013d",
      "logs": [
        {
          "address": "0xc02aaa39b223fe8d0a0e5c4f27ead9083c756cc2",
          "topics": [
            "0xddf252ad1be2c89b69c2b068fc378daa952ba7f163c4a11628f55a4df523b3ef",
            "0x000000000000000000000000646dc5fc4009c4c84a424b6ae0f494b374bae1ce",
            "0x0000000000000000000000001804c8ab1f12e6bbf3894d4083f33e07309d1f38"
          ],
          "data": "0x0000000000000000000000000000000000000000000000000000763bfbd22000",
          "blockHash": "0x15c51fd903061000b52aa65af5ba723d64421d39084fa3f7fe8f8c9686bd6863",
          "blockNumber": "0x17b73da",
          "blockTimestamp": "0x69eb2ce9",
          "transactionHash": "0xf7fe086ae2cf14ce960e1d852424dd7f6be28b92ede77dabf093296fd8bbb360",
          "transactionIndex": "0x0",
          "logIndex": "0x0",
          "removed": false
        },
        {
          "address": "0xc02aaa39b223fe8d0a0e5c4f27ead9083c756cc2",
          "topics": [
            "0xddf252ad1be2c89b69c2b068fc378daa952ba7f163c4a11628f55a4df523b3ef",
            "0x000000000000000000000000646dc5fc4009c4c84a424b6ae0f494b374bae1ce",
            "0x0000000000000000000000004b75aec40561c03e03d4d1c421df194a3031a134"
          ],
          "data": "0x000000000000000000000000000000000000000000000000002db93262426000",
          "blockHash": "0x15c51fd903061000b52aa65af5ba723d64421d39084fa3f7fe8f8c9686bd6863",
          "blockNumber": "0x17b73da",
          "blockTimestamp": "0x69eb2ce9",
          "transactionHash": "0xf7fe086ae2cf14ce960e1d852424dd7f6be28b92ede77dabf093296fd8bbb360",
          "transactionIndex": "0x0",
          "logIndex": "0x1",
          "removed": false
        },
        {
          "address": "0x38d4de42c9c5640a2799b372d27b01957e0a3673",
          "topics": [
            "0xddf252ad1be2c89b69c2b068fc378daa952ba7f163c4a11628f55a4df523b3ef",
            "0x0000000000000000000000004b75aec40561c03e03d4d1c421df194a3031a134",
            "0x000000000000000000000000646dc5fc4009c4c84a424b6ae0f494b374bae1ce",
            "0x0000000000000000000000000000000000000000000000000000000000000112"
          ],
          "data": "0x",
          "blockHash": "0x15c51fd903061000b52aa65af5ba723d64421d39084fa3f7fe8f8c9686bd6863",
          "blockNumber": "0x17b73da",
          "blockTimestamp": "0x69eb2ce9",
          "transactionHash": "0xf7fe086ae2cf14ce960e1d852424dd7f6be28b92ede77dabf093296fd8bbb360",
          "transactionIndex": "0x0",
          "logIndex": "0x2",
          "removed": false
        },
        {
          "address": "0x73973d222c3fda5b2563d269da9e19cb125000f4",
          "topics": [
            "0xc0ac3eb1e8caef05b202043f34de8e3173fab712167584f7a2a9f4c302bd0e9c",
            "0x879e50bb3f45db4c3c2269a09f3a7e7f1fe6a00c84c0207208cc4ff7aa33c625",
            "0x00000000000000000000000038d4de42c9c5640a2799b372d27b01957e0a3673",
            "0x0000000000000000000000000000000000000000000000000000000000000112"
          ],
          "data": "0x0000000000000000000000004b75aec40561c03e03d4d1c421df194a3031a134000000000000000000000000646dc5fc4009c4c84a424b6ae0f494b374bae1ce000000000000000000000000c02aaa39b223fe8d0a0e5c4f27ead9083c756cc2000000000000000000000000000000000000000000000000002e2f6e5e148000",
          "blockHash": "0x15c51fd903061000b52aa65af5ba723d64421d39084fa3f7fe8f8c9686bd6863",
          "blockNumber": "0x17b73da",
          "blockTimestamp": "0x69eb2ce9",
          "transactionHash": "0xf7fe086ae2cf14ce960e1d852424dd7f6be28b92ede77dabf093296fd8bbb360",
          "transactionIndex": "0x0",
          "logIndex": "0x3",
          "removed": false
        }
      ],
      "logsBloom": "0x0000000000000000000000000000000000000000000200000000000000000000000000000000000000000000000002000200000009000000000410000010000000000000000000102100000800000000000000000000000000000080000000000100000000000000000500000000000000000000000000000000001000000000000000000000000000000400000000000000000000000800000000000000200000000000000000000000000000040000040000000000008042000000000000000000000200000c000000000000000000000000000000000000000000000000040100200000000000000000000000000000000000000000000000000000200000",
      "type": "0x2",
      "transactionHash": "0xf7fe086ae2cf14ce960e1d852424dd7f6be28b92ede77dabf093296fd8bbb360",
      "transactionIndex": "0x0",
      "blockHash": "0x15c51fd903061000b52aa65af5ba723d64421d39084fa3f7fe8f8c9686bd6863",
      "blockNumber": "0x17b73da",
      "gasUsed": "0x2013d",
      "effectiveGasPrice": "0xf4248",
      "blobGasPrice": "0x1",
      "from": "0x646dc5fc4009c4c84a424b6ae0f494b374bae1ce",
      "to": "0x73973d222c3fda5b2563d269da9e19cb125000f4",
      "contractAddress": null
    }
  ],
  "libraries": [],
  "pending": [],
  "returns": {},
  "timestamp": 1778453791863,
  "chain": 31337,
  "commit": "f87d399"
}