{
  "transactions": [
    {
      "hash": "0xf8fc26517d8fac010295fe0fa620a09408192f1088e9e9da247c559237d68d0c",
      "transactionType": "CALL",
      "contractName": null,
      "contractAddress": "0x8fa71914948544c60e3379064567dcf0e6564d27",
      "function": "settle((uint256,address),(uint8,bool,address,uint256,address,uint256,address,uint64,uint64,uint256),(uint8,bytes32,bytes32))",
      "arguments": [
        "(170, 0x646dC5Fc4009C4C84a424B6aE0f494b374bAE1Ce)",
        "(1, false, 0xA5f104F8f78d5ba9AEC4a383c0927337Fd4E997B, 170, 0xC02aaA39b223FE8D0A0e5C4F27eAD9083C756Cc2, 382000000000000000, 0x1302F142Fc55B165647d3Bd5dec227f569A2A907, 1772719657, 1779454629, 9)",
        "(27, 0xf6fdc7510b9e46125ec99cedeb77fa4557fa1f8d26ef1e28780b0be0b3dc7c69, 0x6fd4eb4e97425d97023c2eb741a4a4dac1367f30fde342fc52a142b942f85ac7)"
      ],
      "transaction": {
        "from": "0x646dc5fc4009c4c84a424b6ae0f494b374bae1ce",
        "to": "0x8fa71914948544c60e3379064567dcf0e6564d27",
        "gas": "0x2ef81",
        "value": "0x0",
        "input": "0x3bae3e7900000000000000000000000000000000000000000000000000000000000000aa000000000000000000000000646dc5fc4009c4c84a424b6ae0f494b374bae1ce00000000000000000000000000000000000000000000000000000000000000010000000000000000000000000000000000000000000000000000000000000000000000000000000000000000a5f104f8f78d5ba9aec4a383c0927337fd4e997b00000000000000000000000000000000000000000000000000000000000000aa000000000000000000000000c02aaa39b223fe8d0a0e5c4f27ead9083c756cc2000000000000000000000000000000000000000000000000054d22f9e03300000000000000000000000000001302f142fc55b165647d3bd5dec227f569a2a9070000000000000000000000000000000000000000000000000000000069a98e29000000000000000000000000000000000000000000000000000000006a1052a50000000000000000000000000000000000000000000000000000000000000009000000000000000000000000000000000000000000000000000000000000001bf6fdc7510b9e46125ec99cedeb77fa4557fa1f8d26ef1e28780b0be0b3dc7c696fd4eb4e97425d97023c2eb741a4a4dac1367f30fde342fc52a142b942f85ac7",
        "nonce": "0x59",
        "chainId": "0x7a69"
      },
      "additionalContracts": [],
      "isFixedGasLimit": false
    }
  ],
  "receipts": [
    {
      "status": "0x1",
      "cumulativeGasUsed": "0x201da",
      "logs": [
        {
          "address": "0xc02aaa39b223fe8d0a0e5c4f27ead9083c756cc2",
          "topics": [
            "0xddf252ad1be2c89b69c2b068fc378daa952ba7f163c4a11628f55a4df523b3ef",
            "0x0000000000000000000000001302f142fc55b165647d3bd5dec227f569a2a907",
            "0x0000000000000000000000001804c8ab1f12e6bbf3894d4083f33e07309d1f38"
          ],
          "data": "0x000000000000000000000000000000000000000000000000000d92450f0ac000",
          "blockHash": "0xb6010a6607fc3b1f882dc14cc5b0c06699101503d28155ae6c3bc22c0076eff4",
          "blockNumber": "0x17b8362",
          "blockTimestamp": "0x69f21fd9",
          "transactionHash": "0xf8fc26517d8fac010295fe0fa620a09408192f1088e9e9da247c559237d68d0c",
          "transactionIndex": "0x0",
          "logIndex": "0x0",
          "removed": false
        },
        {
          "address": "0xc02aaa39b223fe8d0a0e5c4f27ead9083c756cc2",
          "topics": [
            "0xddf252ad1be2c89b69c2b068fc378daa952ba7f163c4a11628f55a4df523b3ef",
            "0x0000000000000000000000001302f142fc55b165647d3bd5dec227f569a2a907",
            "0x000000000000000000000000646dc5fc4009c4c84a424b6ae0f494b374bae1ce"
          ],
          "data": "0x000000000000000000000000000000000000000000000000053f90b4d1284000",
          "blockHash": "0xb6010a6607fc3b1f882dc14cc5b0c06699101503d28155ae6c3bc22c0076eff4",
          "blockNumber": "0x17b8362",
          "blockTimestamp": "0x69f21fd9",
          "transactionHash": "0xf8fc26517d8fac010295fe0fa620a09408192f1088e9e9da247c559237d68d0c",
          "transactionIndex": "0x0",
          "logIndex": "0x1",
          "removed": false
        },
        {
          "address": "0xa5f104f8f78d5ba9aec4a383c0927337fd4e997b",
          "topics": [
            "0xddf252ad1be2c89b69c2b068fc378daa952ba7f163c4a11628f55a4df523b3ef",
            "0x000000000000000000000000646dc5fc4009c4c84a424b6ae0f494b374bae1ce",
            "0x0000000000000000000000001302f142fc55b165647d3bd5dec227f569a2a907",
            "0x00000000000000000000000000000000000000000000000000000000000000aa"
          ],
          "data": "0x",
          "blockHash": "0xb6010a6607fc3b1f882dc14cc5b0c06699101503d28155ae6c3bc22c0076eff4",
          "blockNumber": "0x17b8362",
          "blockTimestamp": "0x69f21fd9",
          "transactionHash": "0xf8fc26517d8fac010295fe0fa620a09408192f1088e9e9da247c559237d68d0c",
          "transactionIndex": "0x0",
          "logIndex": "0x2",
          "removed": false
        },
        {
          "address": "0x8fa71914948544c60e3379064567dcf0e6564d27",
          "topics": [
            "0xc0ac3eb1e8caef05b202043f34de8e3173fab712167584f7a2a9f4c302bd0e9c",
            "0xf4942fe75734203aed25a6517965502f5b81ae50f24fb33327778d24de9161a3",
            "0x000000000000000000000000a5f104f8f78d5ba9aec4a383c0927337fd4e997b",
            "0x00000000000000000000000000000000000000000000000000000000000000aa"
          ],
          "data": "0x000000000000000000000000646dc5fc4009c4c84a424b6ae0f494b374bae1ce0000000000000000000000001302f142fc55b165647d3bd5dec227f569a2a907000000000000000000000000c02aaa39b223fe8d0a0e5c4f27ead9083c756cc2000000000000000000000000000000000000000000000000054d22f9e0330000",
          "blockHash": "0xb6010a6607fc3b1f882dc14cc5b0c06699101503d28155ae6c3bc22c0076eff4",
          "blockNumber": "0x17b8362",
          "blockTimestamp": "0x69f21fd9",
          "transactionHash": "0xf8fc26517d8fac010295fe0fa620a09408192f1088e9e9da247c559237d68d0c",
          "transactionIndex": "0x0",
          "logIndex": "0x3",
          "removed": false
        }
      ],
      "logsBloom": "0x00000000000000000000018000000000000000000002000000000000000000000000000000000000000000000000000002000000090000000000000000100000000002100000000000010008000000000000000000000000080000000000200000000000000000000005000000000000000000000000000000000010200000000800000100040000000004000000000000010000000000000000000000000000000000200000000400000000000100000000000000000080000000000000000000000002000004000000000200000000000000000000000080000000000000000100200000000000000040000000000000000000000000000000000000000000",
      "type": "0x2",
      "transactionHash": "0xf8fc26517d8fac010295fe0fa620a09408192f1088e9e9da247c559237d68d0c",
      "transactionIndex": "0x0",
      "blockHash": "0xb6010a6607fc3b1f882dc14cc5b0c06699101503d28155ae6c3bc22c0076eff4",
      "blockNumber": "0x17b8362",
      "gasUsed": "0x201da",
      "effectiveGasPrice": "0x1ba81c",
      "blobGasPrice": "0x1",
      "from": "0x646dc5fc4009c4c84a424b6ae0f494b374bae1ce",
      "to": "0x8fa71914948544c60e3379064567dcf0e6564d27",
      "contractAddress": null
    }
  ],
  "libraries": [],
  "pending": [],
  "returns": {},
  "timestamp": 1778506482620,
  "chain": 31337,
  "commit": "59e30a9"
}