{
  "transactions": [
    {
      "hash": "0x6ed27997f61baa3a3601eef680c85d2fb5cc47fc81e68429dfb79306984b0758",
      "transactionType": "CALL",
      "contractName": null,
      "contractAddress": "0x73973d222c3fda5b2563d269da9e19cb125000f4",
      "function": "settle((uint256,address),(uint8,bool,address,uint256,address,uint256,address,uint64,uint64,uint256),(uint8,bytes32,bytes32))",
      "arguments": [
        "(159, 0xe3745C151faB59B0740f4312b2B027F07D096639)",
        "(1, false, 0x38D4dE42C9c5640A2799B372D27B01957E0a3673, 159, 0xC02aaA39b223FE8D0A0e5C4F27eAD9083C756Cc2, 57000000000000000, 0xa382b0E75C192D9CDF5c084E58b750Cea7761Bd0, 1772432790, 1779632848, 10)",
        "(27, 0x6b92ee6a2128f88997a5ec0b4ed2fce0373a65d87380c51b27b5cde91768751e, 0x6341536c9e87d6c4e5a95c1de0fecdab2b72bfc0a76e217986a87456854c934d)"
      ],
      "transaction": {
        "from": "0xe3745c151fab59b0740f4312b2b027f07d096639",
        "to": "0x73973d222c3fda5b2563d269da9e19cb125000f4",
        "gas": "0x2ef81",
        "value": "0x0",
        "input": "0x3bae3e79000000000000000000000000000000000000000000000000000000000000009f000000000000000000000000e3745c151fab59b0740f4312b2b027f07d0966390000000000000000000000000000000000000000000000000000000000000001000000000000000000000000000000000000000000000000000000000000000000000000000000000000000038d4de42c9c5640a2799b372d27b01957e0a3673000000000000000000000000000000000000000000000000000000000000009f000000000000000000000000c02aaa39b223fe8d0a0e5c4f27ead9083c756cc200000000000000000000000000000000000000000000000000ca8132b0328000000000000000000000000000a382b0e75c192d9cdf5c084e58b750cea7761bd00000000000000000000000000000000000000000000000000000000069a52d96000000000000000000000000000000000000000000000000000000006a130ad0000000000000000000000000000000000000000000000000000000000000000a000000000000000000000000000000000000000000000000000000000000001b6b92ee6a2128f88997a5ec0b4ed2fce0373a65d87380c51b27b5cde91768751e6341536c9e87d6c4e5a95c1de0fecdab2b72bfc0a76e217986a87456854c934d",
        "nonce": "0x81",
        "chainId": "0x7a69"
      },
      "additionalContracts": [],
      "isFixedGasLimit": false
    }
  ],
  "receipts": [
    {
      "status": "0x1",
      "cumulativeGasUsed": "0x201da",
      "logs": [
        {
          "address": "0xc02aaa39b223fe8d0a0e5c4f27ead9083c756cc2",
          "topics": [
            "0xddf252ad1be2c89b69c2b068fc378daa952ba7f163c4a11628f55a4df523b3ef",
            "0x000000000000000000000000a382b0e75c192d9cdf5c084e58b750cea7761bd0",
            "0x0000000000000000000000001804c8ab1f12e6bbf3894d4083f33e07309d1f38"
          ],
          "data": "0x000000000000000000000000000000000000000000000000000206697785a000",
          "blockHash": "0x02785e89669f683592ea1321f5ed1a0db3150a190712d4db4045c045ee43fa72",
          "blockNumber": "0x17b73d7",
          "blockTimestamp": "0x69eaa9a7",
          "transactionHash": "0x6ed27997f61baa3a3601eef680c85d2fb5cc47fc81e68429dfb79306984b0758",
          "transactionIndex": "0x0",
          "logIndex": "0x0",
          "removed": false
        },
        {
          "address": "0xc02aaa39b223fe8d0a0e5c4f27ead9083c756cc2",
          "topics": [
            "0xddf252ad1be2c89b69c2b068fc378daa952ba7f163c4a11628f55a4df523b3ef",
            "0x000000000000000000000000a382b0e75c192d9cdf5c084e58b750cea7761bd0",
            "0x000000000000000000000000e3745c151fab59b0740f4312b2b027f07d096639"
          ],
          "data": "0x00000000000000000000000000000000000000000000000000c87ac938ace000",
          "blockHash": "0x02785e89669f683592ea1321f5ed1a0db3150a190712d4db4045c045ee43fa72",
          "blockNumber": "0x17b73d7",
          "blockTimestamp": "0x69eaa9a7",
          "transactionHash": "0x6ed27997f61baa3a3601eef680c85d2fb5cc47fc81e68429dfb79306984b0758",
          "transactionIndex": "0x0",
          "logIndex": "0x1",
          "removed": false
        },
        {
          "address": "0x38d4de42c9c5640a2799b372d27b01957e0a3673",
          "topics": [
            "0xddf252ad1be2c89b69c2b068fc378daa952ba7f163c4a11628f55a4df523b3ef",
            "0x000000000000000000000000e3745c151fab59b0740f4312b2b027f07d096639",
            "0x000000000000000000000000a382b0e75c192d9cdf5c084e58b750cea7761bd0",
            "0x000000000000000000000000000000000000000000000000000000000000009f"
          ],
          "data": "0x",
          "blockHash": "0x02785e89669f683592ea1321f5ed1a0db3150a190712d4db4045c045ee43fa72",
          "blockNumber": "0x17b73d7",
          "blockTimestamp": "0x69eaa9a7",
          "transactionHash": "0x6ed27997f61baa3a3601eef680c85d2fb5cc47fc81e68429dfb79306984b0758",
          "transactionIndex": "0x0",
          "logIndex": "0x2",
          "removed": false
        },
        {
          "address": "0x73973d222c3fda5b2563d269da9e19cb125000f4",
          "topics": [
            "0xc0ac3eb1e8caef05b202043f34de8e3173fab712167584f7a2a9f4c302bd0e9c",
            "0x771ded400d8ca71374e22862e38c70d9c8b1e26c7767acecf9196fd48bac933f",
            "0x00000000000000000000000038d4de42c9c5640a2799b372d27b01957e0a3673",
            "0x000000000000000000000000000000000000000000000000000000000000009f"
          ],
          "data": "0x000000000000000000000000e3745c151fab59b0740f4312b2b027f07d096639000000000000000000000000a382b0e75c192d9cdf5c084e58b750cea7761bd0000000000000000000000000c02aaa39b223fe8d0a0e5c4f27ead9083c756cc200000000000000000000000000000000000000000000000000ca8132b0328000",
          "blockHash": "0x02785e89669f683592ea1321f5ed1a0db3150a190712d4db4045c045ee43fa72",
          "blockNumber": "0x17b73d7",
          "blockTimestamp": "0x69eaa9a7",
          "transactionHash": "0x6ed27997f61baa3a3601eef680c85d2fb5cc47fc81e68429dfb79306984b0758",
          "transactionIndex": "0x0",
          "logIndex": "0x3",
          "removed": false
        }
      ],
      "logsBloom": "0x00000000000000000000000000000000000000000102200000000000000000000000000000000000000000008000020042000000080000000004100000100000000000000000001021000008000000000000000000000000000000000000000000000000000000000001000000000000000000000000040000000010000000000000000000000002000004000000000000100000000008000001000000000000000000000000000000000000000000000000000000000080400000000000000000000002000004000000000000000000000000000000000000000040000000000100200000000000000000000000000000400040100000000000000000000000",
      "type": "0x2",
      "transactionHash": "0x6ed27997f61baa3a3601eef680c85d2fb5cc47fc81e68429dfb79306984b0758",
      "transactionIndex": "0x0",
      "blockHash": "0x02785e89669f683592ea1321f5ed1a0db3150a190712d4db4045c045ee43fa72",
      "blockNumber": "0x17b73d7",
      "gasUsed": "0x201da",
      "effectiveGasPrice": "0xf4248",
      "blobGasPrice": "0x1",
      "from": "0xe3745c151fab59b0740f4312b2b027f07d096639",
      "to": "0x73973d222c3fda5b2563d269da9e19cb125000f4",
      "contractAddress": null
    }
  ],
  "libraries": [],
  "pending": [],
  "returns": {},
  "timestamp": 1778453789136,
  "chain": 31337,
  "commit": "f87d399"
}