{
  "transactions": [
    {
      "hash": "0x82d2806e0d6475eb7831c0b4c9e3f8dc5cb80338b8434167d5c4c14e625a0595",
      "transactionType": "CALL",
      "contractName": null,
      "contractAddress": "0x73973d222c3fda5b2563d269da9e19cb125000f4",
      "function": "settle((uint256,address),(uint8,bool,address,uint256,address,uint256,address,uint64,uint64,uint256),(uint8,bytes32,bytes32))",
      "arguments": [
        "(0, 0x646dC5Fc4009C4C84a424B6aE0f494b374bAE1Ce)",
        "(0, false, 0x38D4dE42C9c5640A2799B372D27B01957E0a3673, 455, 0xC02aaA39b223FE8D0A0e5C4F27eAD9083C756Cc2, 147000000000000000, 0xc5aDfC119364CFE2297e4414dB04834d8702475B, 1771947957, 1780117681, 1)",
        "(27, 0x37157da61995c56388fa6803745c3d6c45d8bc8284f9423ab40905633514f590, 0x6fd87f653ca0d7a9a821848a9f561023465e4183e3fa0bdc5c0b67f0f2f5ec50)"
      ],
      "transaction": {
        "from": "0x646dc5fc4009c4c84a424b6ae0f494b374bae1ce",
        "to": "0x73973d222c3fda5b2563d269da9e19cb125000f4",
        "gas": "0x2c4dd",
        "value": "0x0",
        "input": "0x3bae3e790000000000000000000000000000000000000000000000000000000000000000000000000000000000000000646dc5fc4009c4c84a424b6ae0f494b374bae1ce0000000000000000000000000000000000000000000000000000000000000000000000000000000000000000000000000000000000000000000000000000000000000000000000000000000038d4de42c9c5640a2799b372d27b01957e0a367300000000000000000000000000000000000000000000000000000000000001c7000000000000000000000000c02aaa39b223fe8d0a0e5c4f27ead9083c756cc2000000000000000000000000000000000000000000000000020a3fb89dfb8000000000000000000000000000c5adfc119364cfe2297e4414db04834d8702475b00000000000000000000000000000000000000000000000000000000699dc7b5000000000000000000000000000000000000000000000000000000006a1a70b10000000000000000000000000000000000000000000000000000000000000001000000000000000000000000000000000000000000000000000000000000001b37157da61995c56388fa6803745c3d6c45d8bc8284f9423ab40905633514f5906fd87f653ca0d7a9a821848a9f561023465e4183e3fa0bdc5c0b67f0f2f5ec50",
        "nonce": "0x94",
        "chainId": "0x7a69"
      },
      "additionalContracts": [],
      "isFixedGasLimit": false
    }
  ],
  "receipts": [
    {
      "status": "0x1",
      "cumulativeGasUsed": "0x20135",
      "logs": [
        {
          "address": "0xc02aaa39b223fe8d0a0e5c4f27ead9083c756cc2",
          "topics": [
            "0xddf252ad1be2c89b69c2b068fc378daa952ba7f163c4a11628f55a4df523b3ef",
            "0x000000000000000000000000646dc5fc4009c4c84a424b6ae0f494b374bae1ce",
            "0x0000000000000000000000001804c8ab1f12e6bbf3894d4083f33e07309d1f38"
          ],
          "data": "0x000000000000000000000000000000000000000000000000000538f50bd1e000",
          "blockHash": "0xfc4d07ea099a7b270bc41c55a818bf2853df092816860c9feff6543e2b6ace79",
          "blockNumber": "0x17b73aa",
          "blockTimestamp": "0x69e2ba2c",
          "transactionHash": "0x82d2806e0d6475eb7831c0b4c9e3f8dc5cb80338b8434167d5c4c14e625a0595",
          "transactionIndex": "0x0",
          "logIndex": "0x0",
          "removed": false
        },
        {
          "address": "0xc02aaa39b223fe8d0a0e5c4f27ead9083c756cc2",
          "topics": [
            "0xddf252ad1be2c89b69c2b068fc378daa952ba7f163c4a11628f55a4df523b3ef",
            "0x000000000000000000000000646dc5fc4009c4c84a424b6ae0f494b374bae1ce",
            "0x000000000000000000000000c5adfc119364cfe2297e4414db04834d8702475b"
          ],
          "data": "0x000000000000000000000000000000000000000000000000020506c39229a000",
          "blockHash": "0xfc4d07ea099a7b270bc41c55a818bf2853df092816860c9feff6543e2b6ace79",
          "blockNumber": "0x17b73aa",
          "blockTimestamp": "0x69e2ba2c",
          "transactionHash": "0x82d2806e0d6475eb7831c0b4c9e3f8dc5cb80338b8434167d5c4c14e625a0595",
          "transactionIndex": "0x0",
          "logIndex": "0x1",
          "removed": false
        },
        {
          "address": "0x38d4de42c9c5640a2799b372d27b01957e0a3673",
          "topics": [
            "0xddf252ad1be2c89b69c2b068fc378daa952ba7f163c4a11628f55a4df523b3ef",
            "0x000000000000000000000000c5adfc119364cfe2297e4414db04834d8702475b",
            "0x000000000000000000000000646dc5fc4009c4c84a424b6ae0f494b374bae1ce",
            "0x00000000000000000000000000000000000000000000000000000000000001c7"
          ],
          "data": "0x",
          "blockHash": "0xfc4d07ea099a7b270bc41c55a818bf2853df092816860c9feff6543e2b6ace79",
          "blockNumber": "0x17b73aa",
          "blockTimestamp": "0x69e2ba2c",
          "transactionHash": "0x82d2806e0d6475eb7831c0b4c9e3f8dc5cb80338b8434167d5c4c14e625a0595",
          "transactionIndex": "0x0",
          "logIndex": "0x2",
          "removed": false
        },
        {
          "address": "0x73973d222c3fda5b2563d269da9e19cb125000f4",
          "topics": [
            "0xc0ac3eb1e8caef05b202043f34de8e3173fab712167584f7a2a9f4c302bd0e9c",
            "0x00367570937876c5d4dc6f13f2c3c8ea6c741a7b867e6819ee46ffa62874e414",
            "0x00000000000000000000000038d4de42c9c5640a2799b372d27b01957e0a3673",
            "0x00000000000000000000000000000000000000000000000000000000000001c7"
          ],
          "data": "0x000000000000000000000000c5adfc119364cfe2297e4414db04834d8702475b000000000000000000000000646dc5fc4009c4c84a424b6ae0f494b374bae1ce000000000000000000000000c02aaa39b223fe8d0a0e5c4f27ead9083c756cc2000000000000000000000000000000000000000000000000020a3fb89dfb8000",
          "blockHash": "0xfc4d07ea099a7b270bc41c55a818bf2853df092816860c9feff6543e2b6ace79",
          "blockNumber": "0x17b73aa",
          "blockTimestamp": "0x69e2ba2c",
          "transactionHash": "0x82d2806e0d6475eb7831c0b4c9e3f8dc5cb80338b8434167d5c4c14e625a0595",
          "transactionIndex": "0x0",
          "logIndex": "0x3",
          "removed": false
        }
      ],
      "logsBloom": "0x00000000000000000000004000000000000020000002000000000000000000000000000000000000000010000000020002000000090000000004100000100000000000000000001021000008000000000000000000000000000000000000000200000000000000000005000000000000000000000000000000000010000000000000000000000000000004000000000000000000000008000000000000000200000000000000000000000000000020000000020000000080400000000000000000000002000004000000000000000000000000000000000000000000000000000100200001000000000000000000000000000000000000002000000000000000",
      "type": "0x2",
      "transactionHash": "0x82d2806e0d6475eb7831c0b4c9e3f8dc5cb80338b8434167d5c4c14e625a0595",
      "transactionIndex": "0x0",
      "blockHash": "0xfc4d07ea099a7b270bc41c55a818bf2853df092816860c9feff6543e2b6ace79",
      "blockNumber": "0x17b73aa",
      "gasUsed": "0x20135",
      "effectiveGasPrice": "0xf4248",
      "blobGasPrice": "0x1",
      "from": "0x646dc5fc4009c4c84a424b6ae0f494b374bae1ce",
      "to": "0x73973d222c3fda5b2563d269da9e19cb125000f4",
      "contractAddress": null
    }
  ],
  "libraries": [],
  "pending": [],
  "returns": {},
  "timestamp": 1778453714584,
  "chain": 31337,
  "commit": "f87d399"
}