{
  "transactions": [
    {
      "hash": "0xcf79e47c97ee0102dac1490e95335c8d1ea3c0dcc821e100ceb142e88059d3e1",
      "transactionType": "CALL",
      "contractName": null,
      "contractAddress": "0x8fa71914948544c60e3379064567dcf0e6564d27",
      "function": "settle((uint256,address),(uint8,bool,address,uint256,address,uint256,address,uint64,uint64,uint256),(uint8,bytes32,bytes32))",
      "arguments": [
        "(0, 0xe3745C151faB59B0740f4312b2B027F07D096639)",
        "(0, false, 0xA5f104F8f78d5ba9AEC4a383c0927337Fd4E997B, 290, 0xC02aaA39b223FE8D0A0e5C4F27eAD9083C756Cc2, 360000000000000000, 0x4b75AeC40561C03e03d4D1C421dF194a3031A134, 1772429581, 1779744705, 3)",
        "(27, 0x5668edf7c37afe8d60ae2f5edfefc39363213619c8f5e6b74db79cadc536722e, 0x1d5fa8f364b301383bfe32a1157360152be38717128bef364fb87be9bd0cf7db)"
      ],
      "transaction": {
        "from": "0xe3745c151fab59b0740f4312b2b027f07d096639",
        "to": "0x8fa71914948544c60e3379064567dcf0e6564d27",
        "gas": "0x2ee7f",
        "value": "0x0",
        "input": "0x3bae3e790000000000000000000000000000000000000000000000000000000000000000000000000000000000000000e3745c151fab59b0740f4312b2b027f07d09663900000000000000000000000000000000000000000000000000000000000000000000000000000000000000000000000000000000000000000000000000000000000000000000000000000000a5f104f8f78d5ba9aec4a383c0927337fd4e997b0000000000000000000000000000000000000000000000000000000000000122000000000000000000000000c02aaa39b223fe8d0a0e5c4f27ead9083c756cc200000000000000000000000000000000000000000000000004fefa17b72400000000000000000000000000004b75aec40561c03e03d4d1c421df194a3031a1340000000000000000000000000000000000000000000000000000000069a5210d000000000000000000000000000000000000000000000000000000006a14bfc10000000000000000000000000000000000000000000000000000000000000003000000000000000000000000000000000000000000000000000000000000001b5668edf7c37afe8d60ae2f5edfefc39363213619c8f5e6b74db79cadc536722e1d5fa8f364b301383bfe32a1157360152be38717128bef364fb87be9bd0cf7db",
        "nonce": "0x50",
        "chainId": "0x7a69"
      },
      "additionalContracts": [],
      "isFixedGasLimit": false
    }
  ],
  "receipts": [
    {
      "status": "0x1",
      "cumulativeGasUsed": "0x20129",
      "logs": [
        {
          "address": "0xc02aaa39b223fe8d0a0e5c4f27ead9083c756cc2",
          "topics": [
            "0xddf252ad1be2c89b69c2b068fc378daa952ba7f163c4a11628f55a4df523b3ef",
            "0x000000000000000000000000e3745c151fab59b0740f4312b2b027f07d096639",
            "0x0000000000000000000000001804c8ab1f12e6bbf3894d4083f33e07309d1f38"
          ],
          "data": "0x000000000000000000000000000000000000000000000000000cca2e51310000",
          "blockHash": "0x03e602f078a8b82c826df6ff30625744ff998b55374746e0f1b60ead1dd9814e",
          "blockNumber": "0x17b836d",
          "blockTimestamp": "0x69f46e7f",
          "transactionHash": "0xcf79e47c97ee0102dac1490e95335c8d1ea3c0dcc821e100ceb142e88059d3e1",
          "transactionIndex": "0x0",
          "logIndex": "0x0",
          "removed": false
        },
        {
          "address": "0xc02aaa39b223fe8d0a0e5c4f27ead9083c756cc2",
          "topics": [
            "0xddf252ad1be2c89b69c2b068fc378daa952ba7f163c4a11628f55a4df523b3ef",
            "0x000000000000000000000000e3745c151fab59b0740f4312b2b027f07d096639",
            "0x0000000000000000000000004b75aec40561c03e03d4d1c421df194a3031a134"
          ],
          "data": "0x00000000000000000000000000000000000000000000000004f22fe965f30000",
          "blockHash": "0x03e602f078a8b82c826df6ff30625744ff998b55374746e0f1b60ead1dd9814e",
          "blockNumber": "0x17b836d",
          "blockTimestamp": "0x69f46e7f",
          "transactionHash": "0xcf79e47c97ee0102dac1490e95335c8d1ea3c0dcc821e100ceb142e88059d3e1",
          "transactionIndex": "0x0",
          "logIndex": "0x1",
          "removed": false
        },
        {
          "address": "0xa5f104f8f78d5ba9aec4a383c0927337fd4e997b",
          "topics": [
            "0xddf252ad1be2c89b69c2b068fc378daa952ba7f163c4a11628f55a4df523b3ef",
            "0x0000000000000000000000004b75aec40561c03e03d4d1c421df194a3031a134",
            "0x000000000000000000000000e3745c151fab59b0740f4312b2b027f07d096639",
            "0x0000000000000000000000000000000000000000000000000000000000000122"
          ],
          "data": "0x",
          "blockHash": "0x03e602f078a8b82c826df6ff30625744ff998b55374746e0f1b60ead1dd9814e",
          "blockNumber": "0x17b836d",
          "blockTimestamp": "0x69f46e7f",
          "transactionHash": "0xcf79e47c97ee0102dac1490e95335c8d1ea3c0dcc821e100ceb142e88059d3e1",
          "transactionIndex": "0x0",
          "logIndex": "0x2",
          "removed": false
        },
        {
          "address": "0x8fa71914948544c60e3379064567dcf0e6564d27",
          "topics": [
            "0xc0ac3eb1e8caef05b202043f34de8e3173fab712167584f7a2a9f4c302bd0e9c",
            "0x3631b04682eb71fd7f1f0ac98f28c194acfc96eac1048205becf1eb0bc0dd7d5",
            "0x000000000000000000000000a5f104f8f78d5ba9aec4a383c0927337fd4e997b",
            "0x0000000000000000000000000000000000000000000000000000000000000122"
          ],
          "data": "0x0000000000000000000000004b75aec40561c03e03d4d1c421df194a3031a134000000000000000000000000e3745c151fab59b0740f4312b2b027f07d096639000000000000000000000000c02aaa39b223fe8d0a0e5c4f27ead9083c756cc200000000000000000000000000000000000000000000000004fefa17b7240000",
          "blockHash": "0x03e602f078a8b82c826df6ff30625744ff998b55374746e0f1b60ead1dd9814e",
          "blockNumber": "0x17b836d",
          "blockTimestamp": "0x69f46e7f",
          "transactionHash": "0xcf79e47c97ee0102dac1490e95335c8d1ea3c0dcc821e100ceb142e88059d3e1",
          "transactionIndex": "0x0",
          "logIndex": "0x3",
          "removed": false
        }
      ],
      "logsBloom": "0x00000000000000000000010000000000000000000100000000000000000000000000000000000000000000000000200042000000080000000000000000100000000000000000000000010008000000000000000000000000080000000000000000000000000000000001000000000000000000000000000000000010200000000800000000040000020004000000000000000000000000000000000008002000000000200000000400200000001400000000000010000080020000000000000000000002000004000000000000000000000000000000000080000040000000000100200000000000000000000000000000000000000000000000000000000000",
      "type": "0x2",
      "transactionHash": "0xcf79e47c97ee0102dac1490e95335c8d1ea3c0dcc821e100ceb142e88059d3e1",
      "transactionIndex": "0x0",
      "blockHash": "0x03e602f078a8b82c826df6ff30625744ff998b55374746e0f1b60ead1dd9814e",
      "blockNumber": "0x17b836d",
      "gasUsed": "0x20129",
      "effectiveGasPrice": "0x1ba81c",
      "blobGasPrice": "0x1",
      "from": "0xe3745c151fab59b0740f4312b2b027f07d096639",
      "to": "0x8fa71914948544c60e3379064567dcf0e6564d27",
      "contractAddress": null
    }
  ],
  "libraries": [],
  "pending": [],
  "returns": {},
  "timestamp": 1778506492790,
  "chain": 31337,
  "commit": "59e30a9"
}