{
  "transactions": [
    {
      "hash": "0x4dfb9677b2f4db540af9bb6a8aaf7c2ebf9adcf745a17a30c14670a54f3bfb78",
      "transactionType": "CALL",
      "contractName": null,
      "contractAddress": "0x73973d222c3fda5b2563d269da9e19cb125000f4",
      "function": "settle((uint256,address),(uint8,bool,address,uint256,address,uint256,address,uint64,uint64,uint256),(uint8,bytes32,bytes32))",
      "arguments": [
        "(0, 0x646dC5Fc4009C4C84a424B6aE0f494b374bAE1Ce)",
        "(0, false, 0x38D4dE42C9c5640A2799B372D27B01957E0a3673, 49, 0xC02aaA39b223FE8D0A0e5C4F27eAD9083C756Cc2, 28000000000000000, 0x2c2dbA75492E0C4A1D10B41303167aEC59586C9c, 1772935598, 1779130040, 1)",
        "(28, 0x39f66f5b2350b3435a6aa5feb5e8a182140d2f39bb53d04618d3b48e4c2f0901, 0x5e9858a4b44ee3f59adc1500dc63191f2b036189e0a404f6c73bcd4119f5430c)"
      ],
      "transaction": {
        "from": "0x646dc5fc4009c4c84a424b6ae0f494b374bae1ce",
        "to": "0x73973d222c3fda5b2563d269da9e19cb125000f4",
        "gas": "0x2ee67",
        "value": "0x0",
        "input": "0x3bae3e790000000000000000000000000000000000000000000000000000000000000000000000000000000000000000646dc5fc4009c4c84a424b6ae0f494b374bae1ce0000000000000000000000000000000000000000000000000000000000000000000000000000000000000000000000000000000000000000000000000000000000000000000000000000000038d4de42c9c5640a2799b372d27b01957e0a36730000000000000000000000000000000000000000000000000000000000000031000000000000000000000000c02aaa39b223fe8d0a0e5c4f27ead9083c756cc2000000000000000000000000000000000000000000000000006379da05b600000000000000000000000000002c2dba75492e0c4a1d10b41303167aec59586c9c0000000000000000000000000000000000000000000000000000000069acd9ae000000000000000000000000000000000000000000000000000000006a0b5eb80000000000000000000000000000000000000000000000000000000000000001000000000000000000000000000000000000000000000000000000000000001c39f66f5b2350b3435a6aa5feb5e8a182140d2f39bb53d04618d3b48e4c2f09015e9858a4b44ee3f59adc1500dc63191f2b036189e0a404f6c73bcd4119f5430c",
        "nonce": "0x8c",
        "chainId": "0x7a69"
      },
      "additionalContracts": [],
      "isFixedGasLimit": false
    }
  ],
  "receipts": [
    {
      "status": "0x1",
      "cumulativeGasUsed": "0x20119",
      "logs": [
        {
          "address": "0xc02aaa39b223fe8d0a0e5c4f27ead9083c756cc2",
          "topics": [
            "0xddf252ad1be2c89b69c2b068fc378daa952ba7f163c4a11628f55a4df523b3ef",
            "0x000000000000000000000000646dc5fc4009c4c84a424b6ae0f494b374bae1ce",
            "0x0000000000000000000000001804c8ab1f12e6bbf3894d4083f33e07309d1f38"
          ],
          "data": "0x0000000000000000000000000000000000000000000000000000fea894898000",
          "blockHash": "0xc41dc7504a89749853d990958841fa50a1a4bd5fde00a651c8424e2cbea85d19",
          "blockNumber": "0x17b7396",
          "blockTimestamp": "0x69def5e2",
          "transactionHash": "0x4dfb9677b2f4db540af9bb6a8aaf7c2ebf9adcf745a17a30c14670a54f3bfb78",
          "transactionIndex": "0x0",
          "logIndex": "0x0",
          "removed": false
        },
        {
          "address": "0xc02aaa39b223fe8d0a0e5c4f27ead9083c756cc2",
          "topics": [
            "0xddf252ad1be2c89b69c2b068fc378daa952ba7f163c4a11628f55a4df523b3ef",
            "0x000000000000000000000000646dc5fc4009c4c84a424b6ae0f494b374bae1ce",
            "0x0000000000000000000000002c2dba75492e0c4a1d10b41303167aec59586c9c"
          ],
          "data": "0x00000000000000000000000000000000000000000000000000627b31712c8000",
          "blockHash": "0xc41dc7504a89749853d990958841fa50a1a4bd5fde00a651c8424e2cbea85d19",
          "blockNumber": "0x17b7396",
          "blockTimestamp": "0x69def5e2",
          "transactionHash": "0x4dfb9677b2f4db540af9bb6a8aaf7c2ebf9adcf745a17a30c14670a54f3bfb78",
          "transactionIndex": "0x0",
          "logIndex": "0x1",
          "removed": false
        },
        {
          "address": "0x38d4de42c9c5640a2799b372d27b01957e0a3673",
          "topics": [
            "0xddf252ad1be2c89b69c2b068fc378daa952ba7f163c4a11628f55a4df523b3ef",
            "0x0000000000000000000000002c2dba75492e0c4a1d10b41303167aec59586c9c",
            "0x000000000000000000000000646dc5fc4009c4c84a424b6ae0f494b374bae1ce",
            "0x0000000000000000000000000000000000000000000000000000000000000031"
          ],
          "data": "0x",
          "blockHash": "0xc41dc7504a89749853d990958841fa50a1a4bd5fde00a651c8424e2cbea85d19",
          "blockNumber": "0x17b7396",
          "blockTimestamp": "0x69def5e2",
          "transactionHash": "0x4dfb9677b2f4db540af9bb6a8aaf7c2ebf9adcf745a17a30c14670a54f3bfb78",
          "transactionIndex": "0x0",
          "logIndex": "0x2",
          "removed": false
        },
        {
          "address": "0x73973d222c3fda5b2563d269da9e19cb125000f4",
          "topics": [
            "0xc0ac3eb1e8caef05b202043f34de8e3173fab712167584f7a2a9f4c302bd0e9c",
            "0x0102eec18ac2d4a4ee3b6f0edecd375051aadce61fe2ae4748072f342349ea3b",
            "0x00000000000000000000000038d4de42c9c5640a2799b372d27b01957e0a3673",
            "0x0000000000000000000000000000000000000000000000000000000000000031"
          ],
          "data": "0x0000000000000000000000002c2dba75492e0c4a1d10b41303167aec59586c9c000000000000000000000000646dc5fc4009c4c84a424b6ae0f494b374bae1ce000000000000000000000000c02aaa39b223fe8d0a0e5c4f27ead9083c756cc2000000000000000000000000000000000000000000000000006379da05b60000",
          "blockHash": "0xc41dc7504a89749853d990958841fa50a1a4bd5fde00a651c8424e2cbea85d19",
          "blockNumber": "0x17b7396",
          "blockTimestamp": "0x69def5e2",
          "transactionHash": "0x4dfb9677b2f4db540af9bb6a8aaf7c2ebf9adcf745a17a30c14670a54f3bfb78",
          "transactionIndex": "0x0",
          "logIndex": "0x3",
          "removed": false
        }
      ],
      "logsBloom": "0x00000000000000000000000000000000000000000002000000000000000000000000000000000000020000000000020002000000090000000004100800100000040200000000001021000008000000000000000000000001000000000000000000000000000004000005000000000000000040000000000000000010000000000000000000000000000004000000000000000000000008000000000000000000000000000000000000000000000000000000000000000080400000000000000000000002000004000000010000000000000000400000000000000000000000000100200000000000000000000000000000000000000000000000000000000000",
      "type": "0x2",
      "transactionHash": "0x4dfb9677b2f4db540af9bb6a8aaf7c2ebf9adcf745a17a30c14670a54f3bfb78",
      "transactionIndex": "0x0",
      "blockHash": "0xc41dc7504a89749853d990958841fa50a1a4bd5fde00a651c8424e2cbea85d19",
      "blockNumber": "0x17b7396",
      "gasUsed": "0x20119",
      "effectiveGasPrice": "0xf4248",
      "blobGasPrice": "0x1",
      "from": "0x646dc5fc4009c4c84a424b6ae0f494b374bae1ce",
      "to": "0x73973d222c3fda5b2563d269da9e19cb125000f4",
      "contractAddress": null
    }
  ],
  "libraries": [],
  "pending": [],
  "returns": {},
  "timestamp": 1778453696714,
  "chain": 31337,
  "commit": "f87d399"
}