{
  "transactions": [
    {
      "hash": "0x306b40f0c239ac5378b60f0a87bf5d0a13cde28d7e2cbf0721a9fa52c606ce98",
      "transactionType": "CALL",
      "contractName": null,
      "contractAddress": "0x8fa71914948544c60e3379064567dcf0e6564d27",
      "function": "settle((uint256,address),(uint8,bool,address,uint256,address,uint256,address,uint64,uint64,uint256),(uint8,bytes32,bytes32))",
      "arguments": [
        "(39, 0x1302F142Fc55B165647d3Bd5dec227f569A2A907)",
        "(1, false, 0xA5f104F8f78d5ba9AEC4a383c0927337Fd4E997B, 39, 0xC02aaA39b223FE8D0A0e5C4F27eAD9083C756Cc2, 50000000000000000, 0x4b75AeC40561C03e03d4D1C421dF194a3031A134, 1772148298, 1780025988, 0)",
        "(28, 0x1eca3683ed0d6cfcdc4af2475e30b882be31c8ce747f5df15cdb08bf8dd218d0, 0x534d38ceabd7c4df0e6c27f05fa8319774896a818beb47df6e016fc4d617dd0b)"
      ],
      "transaction": {
        "from": "0x1302f142fc55b165647d3bd5dec227f569a2a907",
        "to": "0x8fa71914948544c60e3379064567dcf0e6564d27",
        "gas": "0x2c5bb",
        "value": "0x0",
        "input": "0x3bae3e7900000000000000000000000000000000000000000000000000000000000000270000000000000000000000001302f142fc55b165647d3bd5dec227f569a2a90700000000000000000000000000000000000000000000000000000000000000010000000000000000000000000000000000000000000000000000000000000000000000000000000000000000a5f104f8f78d5ba9aec4a383c0927337fd4e997b0000000000000000000000000000000000000000000000000000000000000027000000000000000000000000c02aaa39b223fe8d0a0e5c4f27ead9083c756cc200000000000000000000000000000000000000000000000000b1a2bc2ec500000000000000000000000000004b75aec40561c03e03d4d1c421df194a3031a1340000000000000000000000000000000000000000000000000000000069a0d64a000000000000000000000000000000000000000000000000000000006a190a840000000000000000000000000000000000000000000000000000000000000000000000000000000000000000000000000000000000000000000000000000001c1eca3683ed0d6cfcdc4af2475e30b882be31c8ce747f5df15cdb08bf8dd218d0534d38ceabd7c4df0e6c27f05fa8319774896a818beb47df6e016fc4d617dd0b",
        "nonce": "0x39",
        "chainId": "0x7a69"
      },
      "additionalContracts": [],
      "isFixedGasLimit": false
    }
  ],
  "receipts": [
    {
      "status": "0x1",
      "cumulativeGasUsed": "0x201d6",
      "logs": [
        {
          "address": "0xc02aaa39b223fe8d0a0e5c4f27ead9083c756cc2",
          "topics": [
            "0xddf252ad1be2c89b69c2b068fc378daa952ba7f163c4a11628f55a4df523b3ef",
            "0x0000000000000000000000004b75aec40561c03e03d4d1c421df194a3031a134",
            "0x0000000000000000000000001804c8ab1f12e6bbf3894d4083f33e07309d1f38"
          ],
          "data": "0x0000000000000000000000000000000000000000000000000001c6bf52634000",
          "blockHash": "0x17150c6c5cc2f2c38fcc740fe72e03ca70b4677f75f4c1f5a1cf7fd00fa6ca66",
          "blockNumber": "0x17b8353",
          "blockTimestamp": "0x69eedacf",
          "transactionHash": "0x306b40f0c239ac5378b60f0a87bf5d0a13cde28d7e2cbf0721a9fa52c606ce98",
          "transactionIndex": "0x0",
          "logIndex": "0x0",
          "removed": false
        },
        {
          "address": "0xc02aaa39b223fe8d0a0e5c4f27ead9083c756cc2",
          "topics": [
            "0xddf252ad1be2c89b69c2b068fc378daa952ba7f163c4a11628f55a4df523b3ef",
            "0x0000000000000000000000004b75aec40561c03e03d4d1c421df194a3031a134",
            "0x0000000000000000000000001302f142fc55b165647d3bd5dec227f569a2a907"
          ],
          "data": "0x00000000000000000000000000000000000000000000000000afdbfcdc61c000",
          "blockHash": "0x17150c6c5cc2f2c38fcc740fe72e03ca70b4677f75f4c1f5a1cf7fd00fa6ca66",
          "blockNumber": "0x17b8353",
          "blockTimestamp": "0x69eedacf",
          "transactionHash": "0x306b40f0c239ac5378b60f0a87bf5d0a13cde28d7e2cbf0721a9fa52c606ce98",
          "transactionIndex": "0x0",
          "logIndex": "0x1",
          "removed": false
        },
        {
          "address": "0xa5f104f8f78d5ba9aec4a383c0927337fd4e997b",
          "topics": [
            "0xddf252ad1be2c89b69c2b068fc378daa952ba7f163c4a11628f55a4df523b3ef",
            "0x0000000000000000000000001302f142fc55b165647d3bd5dec227f569a2a907",
            "0x0000000000000000000000004b75aec40561c03e03d4d1c421df194a3031a134",
            "0x0000000000000000000000000000000000000000000000000000000000000027"
          ],
          "data": "0x",
          "blockHash": "0x17150c6c5cc2f2c38fcc740fe72e03ca70b4677f75f4c1f5a1cf7fd00fa6ca66",
          "blockNumber": "0x17b8353",
          "blockTimestamp": "0x69eedacf",
          "transactionHash": "0x306b40f0c239ac5378b60f0a87bf5d0a13cde28d7e2cbf0721a9fa52c606ce98",
          "transactionIndex": "0x0",
          "logIndex": "0x2",
          "removed": false
        },
        {
          "address": "0x8fa71914948544c60e3379064567dcf0e6564d27",
          "topics": [
            "0xc0ac3eb1e8caef05b202043f34de8e3173fab712167584f7a2a9f4c302bd0e9c",
            "0x882176c7e59299f3183630142916efeb46782138e7d3ac90b7a29cc245a81c83",
            "0x000000000000000000000000a5f104f8f78d5ba9aec4a383c0927337fd4e997b",
            "0x0000000000000000000000000000000000000000000000000000000000000027"
          ],
          "data": "0x0000000000000000000000001302f142fc55b165647d3bd5dec227f569a2a9070000000000000000000000004b75aec40561c03e03d4d1c421df194a3031a134000000000000000000000000c02aaa39b223fe8d0a0e5c4f27ead9083c756cc200000000000000000000000000000000000000000000000000b1a2bc2ec50000",
          "blockHash": "0x17150c6c5cc2f2c38fcc740fe72e03ca70b4677f75f4c1f5a1cf7fd00fa6ca66",
          "blockNumber": "0x17b8353",
          "blockTimestamp": "0x69eedacf",
          "transactionHash": "0x306b40f0c239ac5378b60f0a87bf5d0a13cde28d7e2cbf0721a9fa52c606ce98",
          "transactionIndex": "0x0",
          "logIndex": "0x3",
          "removed": false
        }
      ],
      "logsBloom": "0x00000000000000000000010000000000000000000000000000000000000000000002000000000000000000000000000002000000080000000000000000100000000000000000000000010008000040000000000000000000080000000000000000000000000000000001000000000000000000000000000000000010200000000800000000040000000004000000000000000000000000000200000000002000000000200000000400000000000500000000000000000080020000000000000000000002000044000000000200000000000000000000000080000000000000000100200000000000000040100000000008000000000000000000000000000000",
      "type": "0x2",
      "transactionHash": "0x306b40f0c239ac5378b60f0a87bf5d0a13cde28d7e2cbf0721a9fa52c606ce98",
      "transactionIndex": "0x0",
      "blockHash": "0x17150c6c5cc2f2c38fcc740fe72e03ca70b4677f75f4c1f5a1cf7fd00fa6ca66",
      "blockNumber": "0x17b8353",
      "gasUsed": "0x201d6",
      "effectiveGasPrice": "0x1ba81c",
      "blobGasPrice": "0x1",
      "from": "0x1302f142fc55b165647d3bd5dec227f569a2a907",
      "to": "0x8fa71914948544c60e3379064567dcf0e6564d27",
      "contractAddress": null
    }
  ],
  "libraries": [],
  "pending": [],
  "returns": {},
  "timestamp": 1778506459739,
  "chain": 31337,
  "commit": "59e30a9"
}