{
  "transactions": [
    {
      "hash": "0xeaa9aa24c11c5e6b1cd86fb4fe933280e11152d49684d6b3dc93d2ffe807154d",
      "transactionType": "CALL",
      "contractName": null,
      "contractAddress": "0x8fa71914948544c60e3379064567dcf0e6564d27",
      "function": "settle((uint256,address),(uint8,bool,address,uint256,address,uint256,address,uint64,uint64,uint256),(uint8,bytes32,bytes32))",
      "arguments": [
        "(0, 0xE233420d38D286C2F2Cf8dEe6564F132FBDB09DB)",
        "(0, false, 0xA5f104F8f78d5ba9AEC4a383c0927337Fd4E997B, 194, 0xC02aaA39b223FE8D0A0e5C4F27eAD9083C756Cc2, 28000000000000000, 0xcbe5659df21Cbcfabe4da962F7a9081F26B3ed82, 1773221617, 1778841645, 2)",
        "(27, 0x323ae771999ca10f2679a39623cb3cd2a093599734771462ae36f7ae9bf11f5a, 0x6a82d3ba6422aee41dfd452be5281b4cc1ebd20d37b2fb4af67c85a895765cdc)"
      ],
      "transaction": {
        "from": "0xe233420d38d286c2f2cf8dee6564f132fbdb09db",
        "to": "0x8fa71914948544c60e3379064567dcf0e6564d27",
        "gas": "0x2ee5b",
        "value": "0x0",
        "input": "0x3bae3e790000000000000000000000000000000000000000000000000000000000000000000000000000000000000000e233420d38d286c2f2cf8dee6564f132fbdb09db00000000000000000000000000000000000000000000000000000000000000000000000000000000000000000000000000000000000000000000000000000000000000000000000000000000a5f104f8f78d5ba9aec4a383c0927337fd4e997b00000000000000000000000000000000000000000000000000000000000000c2000000000000000000000000c02aaa39b223fe8d0a0e5c4f27ead9083c756cc2000000000000000000000000000000000000000000000000006379da05b60000000000000000000000000000cbe5659df21cbcfabe4da962f7a9081f26b3ed820000000000000000000000000000000000000000000000000000000069b136f1000000000000000000000000000000000000000000000000000000006a06f82d0000000000000000000000000000000000000000000000000000000000000002000000000000000000000000000000000000000000000000000000000000001b323ae771999ca10f2679a39623cb3cd2a093599734771462ae36f7ae9bf11f5a6a82d3ba6422aee41dfd452be5281b4cc1ebd20d37b2fb4af67c85a895765cdc",
        "nonce": "0x35",
        "chainId": "0x7a69"
      },
      "additionalContracts": [],
      "isFixedGasLimit": false
    }
  ],
  "receipts": [
    {
      "status": "0x1",
      "cumulativeGasUsed": "0x20111",
      "logs": [
        {
          "address": "0xc02aaa39b223fe8d0a0e5c4f27ead9083c756cc2",
          "topics": [
            "0xddf252ad1be2c89b69c2b068fc378daa952ba7f163c4a11628f55a4df523b3ef",
            "0x000000000000000000000000e233420d38d286c2f2cf8dee6564f132fbdb09db",
            "0x0000000000000000000000001804c8ab1f12e6bbf3894d4083f33e07309d1f38"
          ],
          "data": "0x0000000000000000000000000000000000000000000000000000fea894898000",
          "blockHash": "0xe64749a419aa2020e6a8264e2ff596bbe808637b1d98d6435c554650c52eda61",
          "blockNumber": "0x17b7115",
          "blockTimestamp": "0x69dd75c3",
          "transactionHash": "0xeaa9aa24c11c5e6b1cd86fb4fe933280e11152d49684d6b3dc93d2ffe807154d",
          "transactionIndex": "0x0",
          "logIndex": "0x0",
          "removed": false
        },
        {
          "address": "0xc02aaa39b223fe8d0a0e5c4f27ead9083c756cc2",
          "topics": [
            "0xddf252ad1be2c89b69c2b068fc378daa952ba7f163c4a11628f55a4df523b3ef",
            "0x000000000000000000000000e233420d38d286c2f2cf8dee6564f132fbdb09db",
            "0x000000000000000000000000cbe5659df21cbcfabe4da962f7a9081f26b3ed82"
          ],
          "data": "0x00000000000000000000000000000000000000000000000000627b31712c8000",
          "blockHash": "0xe64749a419aa2020e6a8264e2ff596bbe808637b1d98d6435c554650c52eda61",
          "blockNumber": "0x17b7115",
          "blockTimestamp": "0x69dd75c3",
          "transactionHash": "0xeaa9aa24c11c5e6b1cd86fb4fe933280e11152d49684d6b3dc93d2ffe807154d",
          "transactionIndex": "0x0",
          "logIndex": "0x1",
          "removed": false
        },
        {
          "address": "0xa5f104f8f78d5ba9aec4a383c0927337fd4e997b",
          "topics": [
            "0xddf252ad1be2c89b69c2b068fc378daa952ba7f163c4a11628f55a4df523b3ef",
            "0x000000000000000000000000cbe5659df21cbcfabe4da962f7a9081f26b3ed82",
            "0x000000000000000000000000e233420d38d286c2f2cf8dee6564f132fbdb09db",
            "0x00000000000000000000000000000000000000000000000000000000000000c2"
          ],
          "data": "0x",
          "blockHash": "0xe64749a419aa2020e6a8264e2ff596bbe808637b1d98d6435c554650c52eda61",
          "blockNumber": "0x17b7115",
          "blockTimestamp": "0x69dd75c3",
          "transactionHash": "0xeaa9aa24c11c5e6b1cd86fb4fe933280e11152d49684d6b3dc93d2ffe807154d",
          "transactionIndex": "0x0",
          "logIndex": "0x2",
          "removed": false
        },
        {
          "address": "0x8fa71914948544c60e3379064567dcf0e6564d27",
          "topics": [
            "0xc0ac3eb1e8caef05b202043f34de8e3173fab712167584f7a2a9f4c302bd0e9c",
            "0xeb392bf2f1d954b328c14ca70f3a1eca33403d43858342f4f41ad721a823d79a",
            "0x000000000000000000000000a5f104f8f78d5ba9aec4a383c0927337fd4e997b",
            "0x00000000000000000000000000000000000000000000000000000000000000c2"
          ],
          "data": "0x000000000000000000000000cbe5659df21cbcfabe4da962f7a9081f26b3ed82000000000000000000000000e233420d38d286c2f2cf8dee6564f132fbdb09db000000000000000000000000c02aaa39b223fe8d0a0e5c4f27ead9083c756cc2000000000000000000000000000000000000000000000000006379da05b60000",
          "blockHash": "0xe64749a419aa2020e6a8264e2ff596bbe808637b1d98d6435c554650c52eda61",
          "blockNumber": "0x17b7115",
          "blockTimestamp": "0x69dd75c3",
          "transactionHash": "0xeaa9aa24c11c5e6b1cd86fb4fe933280e11152d49684d6b3dc93d2ffe807154d",
          "transactionIndex": "0x0",
          "logIndex": "0x3",
          "removed": false
        }
      ],
      "logsBloom": "0x000000000000000000000100000000000000000000000080000000000000080000000000000000000000000000000000020000000800000000000000001000000000000000000000000100080000000000000000000000000800000000000000000000010002000000010000000000000000000000000000000000102000000008000000000400000000040000000000000000000000000080000000000000000000002000000004000000000000000000000000000000800000000000000000000000120000040004000000000000000000000000020200c0000000001000000100200000000000000000000000000000000000004000000000000000000000",
      "type": "0x2",
      "transactionHash": "0xeaa9aa24c11c5e6b1cd86fb4fe933280e11152d49684d6b3dc93d2ffe807154d",
      "transactionIndex": "0x0",
      "blockHash": "0xe64749a419aa2020e6a8264e2ff596bbe808637b1d98d6435c554650c52eda61",
      "blockNumber": "0x17b7115",
      "gasUsed": "0x20111",
      "effectiveGasPrice": "0x154c2b",
      "blobGasPrice": "0x1",
      "from": "0xe233420d38d286c2f2cf8dee6564f132fbdb09db",
      "to": "0x8fa71914948544c60e3379064567dcf0e6564d27",
      "contractAddress": null
    }
  ],
  "libraries": [],
  "pending": [],
  "returns": {},
  "timestamp": 1778450900945,
  "chain": 31337,
  "commit": "f87d399"
}