{
  "transactions": [
    {
      "hash": "0xccc266bca2da7f65b99718e553ad1741e467cb868c479b22bb0355f4a081508f",
      "transactionType": "CALL",
      "contractName": null,
      "contractAddress": "0x8fa71914948544c60e3379064567dcf0e6564d27",
      "function": "settle((uint256,address),(uint8,bool,address,uint256,address,uint256,address,uint64,uint64,uint256),(uint8,bytes32,bytes32))",
      "arguments": [
        "(0, 0x646dC5Fc4009C4C84a424B6aE0f494b374bAE1Ce)",
        "(0, false, 0xA5f104F8f78d5ba9AEC4a383c0927337Fd4E997B, 285, 0xC02aaA39b223FE8D0A0e5C4F27eAD9083C756Cc2, 171000000000000000, 0x1302F142Fc55B165647d3Bd5dec227f569A2A907, 1772438698, 1779735588, 1)",
        "(28, 0x9bcd58179518add0edc891ef2a798b58c8c9bbfad8f797193beb61b7050322d4, 0x439edd9c0e7a459f5252a350354d79fc4a4760b2d239f12bae55fe0eb4bcd6f4)"
      ],
      "transaction": {
        "from": "0x646dc5fc4009c4c84a424b6ae0f494b374bae1ce",
        "to": "0x8fa71914948544c60e3379064567dcf0e6564d27",
        "gas": "0x2eead",
        "value": "0x0",
        "input": "0x3bae3e790000000000000000000000000000000000000000000000000000000000000000000000000000000000000000646dc5fc4009c4c84a424b6ae0f494b374bae1ce00000000000000000000000000000000000000000000000000000000000000000000000000000000000000000000000000000000000000000000000000000000000000000000000000000000a5f104f8f78d5ba9aec4a383c0927337fd4e997b000000000000000000000000000000000000000000000000000000000000011d000000000000000000000000c02aaa39b223fe8d0a0e5c4f27ead9083c756cc2000000000000000000000000000000000000000000000000025f8398109780000000000000000000000000001302f142fc55b165647d3bd5dec227f569a2a9070000000000000000000000000000000000000000000000000000000069a544aa000000000000000000000000000000000000000000000000000000006a149c240000000000000000000000000000000000000000000000000000000000000001000000000000000000000000000000000000000000000000000000000000001c9bcd58179518add0edc891ef2a798b58c8c9bbfad8f797193beb61b7050322d4439edd9c0e7a459f5252a350354d79fc4a4760b2d239f12bae55fe0eb4bcd6f4",
        "nonce": "0x46",
        "chainId": "0x7a69"
      },
      "additionalContracts": [],
      "isFixedGasLimit": false
    }
  ],
  "receipts": [
    {
      "status": "0x1",
      "cumulativeGasUsed": "0x20149",
      "logs": [
        {
          "address": "0xc02aaa39b223fe8d0a0e5c4f27ead9083c756cc2",
          "topics": [
            "0xddf252ad1be2c89b69c2b068fc378daa952ba7f163c4a11628f55a4df523b3ef",
            "0x000000000000000000000000646dc5fc4009c4c84a424b6ae0f494b374bae1ce",
            "0x0000000000000000000000001804c8ab1f12e6bbf3894d4083f33e07309d1f38"
          ],
          "data": "0x0000000000000000000000000000000000000000000000000006133c6690e000",
          "blockHash": "0xe1caf8dbe4864f9f8434410024cdc6724dcf3e6f2d55ce05f545a6390a2e6581",
          "blockNumber": "0x17b8327",
          "blockTimestamp": "0x69e21129",
          "transactionHash": "0xccc266bca2da7f65b99718e553ad1741e467cb868c479b22bb0355f4a081508f",
          "transactionIndex": "0x0",
          "logIndex": "0x0",
          "removed": false
        },
        {
          "address": "0xc02aaa39b223fe8d0a0e5c4f27ead9083c756cc2",
          "topics": [
            "0xddf252ad1be2c89b69c2b068fc378daa952ba7f163c4a11628f55a4df523b3ef",
            "0x000000000000000000000000646dc5fc4009c4c84a424b6ae0f494b374bae1ce",
            "0x0000000000000000000000001302f142fc55b165647d3bd5dec227f569a2a907"
          ],
          "data": "0x0000000000000000000000000000000000000000000000000259705baa06a000",
          "blockHash": "0xe1caf8dbe4864f9f8434410024cdc6724dcf3e6f2d55ce05f545a6390a2e6581",
          "blockNumber": "0x17b8327",
          "blockTimestamp": "0x69e21129",
          "transactionHash": "0xccc266bca2da7f65b99718e553ad1741e467cb868c479b22bb0355f4a081508f",
          "transactionIndex": "0x0",
          "logIndex": "0x1",
          "removed": false
        },
        {
          "address": "0xa5f104f8f78d5ba9aec4a383c0927337fd4e997b",
          "topics": [
            "0xddf252ad1be2c89b69c2b068fc378daa952ba7f163c4a11628f55a4df523b3ef",
            "0x0000000000000000000000001302f142fc55b165647d3bd5dec227f569a2a907",
            "0x000000000000000000000000646dc5fc4009c4c84a424b6ae0f494b374bae1ce",
            "0x000000000000000000000000000000000000000000000000000000000000011d"
          ],
          "data": "0x",
          "blockHash": "0xe1caf8dbe4864f9f8434410024cdc6724dcf3e6f2d55ce05f545a6390a2e6581",
          "blockNumber": "0x17b8327",
          "blockTimestamp": "0x69e21129",
          "transactionHash": "0xccc266bca2da7f65b99718e553ad1741e467cb868c479b22bb0355f4a081508f",
          "transactionIndex": "0x0",
          "logIndex": "0x2",
          "removed": false
        },
        {
          "address": "0x8fa71914948544c60e3379064567dcf0e6564d27",
          "topics": [
            "0xc0ac3eb1e8caef05b202043f34de8e3173fab712167584f7a2a9f4c302bd0e9c",
            "0x968f9859cef6fe5a2850488ac9193a6fe0072c1a9f37e1e4d57d3bc6d1e44ea0",
            "0x000000000000000000000000a5f104f8f78d5ba9aec4a383c0927337fd4e997b",
            "0x000000000000000000000000000000000000000000000000000000000000011d"
          ],
          "data": "0x0000000000000000000000001302f142fc55b165647d3bd5dec227f569a2a907000000000000000000000000646dc5fc4009c4c84a424b6ae0f494b374bae1ce000000000000000000000000c02aaa39b223fe8d0a0e5c4f27ead9083c756cc2000000000000000000000000000000000000000000000000025f839810978000",
          "blockHash": "0xe1caf8dbe4864f9f8434410024cdc6724dcf3e6f2d55ce05f545a6390a2e6581",
          "blockNumber": "0x17b8327",
          "blockTimestamp": "0x69e21129",
          "transactionHash": "0xccc266bca2da7f65b99718e553ad1741e467cb868c479b22bb0355f4a081508f",
          "transactionIndex": "0x0",
          "logIndex": "0x3",
          "removed": false
        }
      ],
      "logsBloom": "0x00000000000000000000010000000000000000000002080000000000000000000000000000000000000000000000000002000000090000000000000000100000000000000000000000010008000001000000000000000000080000000000000000000000000000000005000000000000000000000000000000000010210000000810000000040000000004000800000000000000000000000000000000000000000000200000000400000000000100000000000000000080000000000000000000000002000004000000000200000000000000000000000080000000000001000100200000000000000040000000000000000000000000000000000000000000",
      "type": "0x2",
      "transactionHash": "0xccc266bca2da7f65b99718e553ad1741e467cb868c479b22bb0355f4a081508f",
      "transactionIndex": "0x0",
      "blockHash": "0xe1caf8dbe4864f9f8434410024cdc6724dcf3e6f2d55ce05f545a6390a2e6581",
      "blockNumber": "0x17b8327",
      "gasUsed": "0x20149",
      "effectiveGasPrice": "0x1ba81c",
      "blobGasPrice": "0x1",
      "from": "0x646dc5fc4009c4c84a424b6ae0f494b374bae1ce",
      "to": "0x8fa71914948544c60e3379064567dcf0e6564d27",
      "contractAddress": null
    }
  ],
  "libraries": [],
  "pending": [],
  "returns": {},
  "timestamp": 1778506415319,
  "chain": 31337,
  "commit": "59e30a9"
}