{
  "transactions": [
    {
      "hash": "0x7f524712c86f5ccaca004d63fbd2f05a6588de196fa3b11ee383f4ce859b8d44",
      "transactionType": "CALL",
      "contractName": null,
      "contractAddress": "0x8fa71914948544c60e3379064567dcf0e6564d27",
      "function": "settle((uint256,address),(uint8,bool,address,uint256,address,uint256,address,uint64,uint64,uint256),(uint8,bytes32,bytes32))",
      "arguments": [
        "(297, 0xc5aDfC119364CFE2297e4414dB04834d8702475B)",
        "(1, false, 0xA5f104F8f78d5ba9AEC4a383c0927337Fd4E997B, 297, 0xC02aaA39b223FE8D0A0e5C4F27eAD9083C756Cc2, 80000000000000000, 0xe3745C151faB59B0740f4312b2B027F07D096639, 1773555264, 1778619022, 8)",
        "(27, 0x20f43bf2cc7b6ae56084ee3055de64045c1a83b5ee3514734256f6ada93de414, 0x58f00951d96db092cddd1f50b9486d0d40bfd979e07e967575d712efbc616e8c)"
      ],
      "transaction": {
        "from": "0xc5adfc119364cfe2297e4414db04834d8702475b",
        "to": "0x8fa71914948544c60e3379064567dcf0e6564d27",
        "gas": "0x2efa4",
        "value": "0x0",
        "input": "0x3bae3e790000000000000000000000000000000000000000000000000000000000000129000000000000000000000000c5adfc119364cfe2297e4414db04834d8702475b00000000000000000000000000000000000000000000000000000000000000010000000000000000000000000000000000000000000000000000000000000000000000000000000000000000a5f104f8f78d5ba9aec4a383c0927337fd4e997b0000000000000000000000000000000000000000000000000000000000000129000000000000000000000000c02aaa39b223fe8d0a0e5c4f27ead9083c756cc2000000000000000000000000000000000000000000000000011c37937e080000000000000000000000000000e3745c151fab59b0740f4312b2b027f07d0966390000000000000000000000000000000000000000000000000000000069b64e40000000000000000000000000000000000000000000000000000000006a03928e0000000000000000000000000000000000000000000000000000000000000008000000000000000000000000000000000000000000000000000000000000001b20f43bf2cc7b6ae56084ee3055de64045c1a83b5ee3514734256f6ada93de41458f00951d96db092cddd1f50b9486d0d40bfd979e07e967575d712efbc616e8c",
        "nonce": "0x37",
        "chainId": "0x7a69"
      },
      "additionalContracts": [],
      "isFixedGasLimit": false
    }
  ],
  "receipts": [
    {
      "status": "0x1",
      "cumulativeGasUsed": "0x201f2",
      "logs": [
        {
          "address": "0xc02aaa39b223fe8d0a0e5c4f27ead9083c756cc2",
          "topics": [
            "0xddf252ad1be2c89b69c2b068fc378daa952ba7f163c4a11628f55a4df523b3ef",
            "0x000000000000000000000000e3745c151fab59b0740f4312b2b027f07d096639",
            "0x0000000000000000000000001804c8ab1f12e6bbf3894d4083f33e07309d1f38"
          ],
          "data": "0x0000000000000000000000000000000000000000000000000002d79883d20000",
          "blockHash": "0x11a9470c076f9097f8b65640d107c8b47d0fa3d50b2a3e80db3ae69357dbe4a6",
          "blockNumber": "0x17b833a",
          "blockTimestamp": "0x69e8119d",
          "transactionHash": "0x7f524712c86f5ccaca004d63fbd2f05a6588de196fa3b11ee383f4ce859b8d44",
          "transactionIndex": "0x0",
          "logIndex": "0x0",
          "removed": false
        },
        {
          "address": "0xc02aaa39b223fe8d0a0e5c4f27ead9083c756cc2",
          "topics": [
            "0xddf252ad1be2c89b69c2b068fc378daa952ba7f163c4a11628f55a4df523b3ef",
            "0x000000000000000000000000e3745c151fab59b0740f4312b2b027f07d096639",
            "0x000000000000000000000000c5adfc119364cfe2297e4414db04834d8702475b"
          ],
          "data": "0x00000000000000000000000000000000000000000000000001195ffafa360000",
          "blockHash": "0x11a9470c076f9097f8b65640d107c8b47d0fa3d50b2a3e80db3ae69357dbe4a6",
          "blockNumber": "0x17b833a",
          "blockTimestamp": "0x69e8119d",
          "transactionHash": "0x7f524712c86f5ccaca004d63fbd2f05a6588de196fa3b11ee383f4ce859b8d44",
          "transactionIndex": "0x0",
          "logIndex": "0x1",
          "removed": false
        },
        {
          "address": "0xa5f104f8f78d5ba9aec4a383c0927337fd4e997b",
          "topics": [
            "0xddf252ad1be2c89b69c2b068fc378daa952ba7f163c4a11628f55a4df523b3ef",
            "0x000000000000000000000000c5adfc119364cfe2297e4414db04834d8702475b",
            "0x000000000000000000000000e3745c151fab59b0740f4312b2b027f07d096639",
            "0x0000000000000000000000000000000000000000000000000000000000000129"
          ],
          "data": "0x",
          "blockHash": "0x11a9470c076f9097f8b65640d107c8b47d0fa3d50b2a3e80db3ae69357dbe4a6",
          "blockNumber": "0x17b833a",
          "blockTimestamp": "0x69e8119d",
          "transactionHash": "0x7f524712c86f5ccaca004d63fbd2f05a6588de196fa3b11ee383f4ce859b8d44",
          "transactionIndex": "0x0",
          "logIndex": "0x2",
          "removed": false
        },
        {
          "address": "0x8fa71914948544c60e3379064567dcf0e6564d27",
          "topics": [
            "0xc0ac3eb1e8caef05b202043f34de8e3173fab712167584f7a2a9f4c302bd0e9c",
            "0x8a555887b5c42593392eb440342543d4242802960232e18cd444c399779ff15e",
            "0x000000000000000000000000a5f104f8f78d5ba9aec4a383c0927337fd4e997b",
            "0x0000000000000000000000000000000000000000000000000000000000000129"
          ],
          "data": "0x000000000000000000000000c5adfc119364cfe2297e4414db04834d8702475b000000000000000000000000e3745c151fab59b0740f4312b2b027f07d096639000000000000000000000000c02aaa39b223fe8d0a0e5c4f27ead9083c756cc2000000000000000000000000000000000000000000000000011c37937e080000",
          "blockHash": "0x11a9470c076f9097f8b65640d107c8b47d0fa3d50b2a3e80db3ae69357dbe4a6",
          "blockNumber": "0x17b833a",
          "blockTimestamp": "0x69e8119d",
          "transactionHash": "0x7f524712c86f5ccaca004d63fbd2f05a6588de196fa3b11ee383f4ce859b8d44",
          "transactionIndex": "0x0",
          "logIndex": "0x3",
          "removed": false
        }
      ],
      "logsBloom": "0x00000000000000000000010000000000000000000100000000000000000000000000000000000000000000000000000042000000080000000000000000100000000000000000010000010008000000000000000000000000082000000080000200000000000000000001000000000000000000000000000000000010200000000800000000040000000004000000000000000000000000000000000000000000000000200000000400000000000020000000000000000080000000000000004000000002000004000000000000000000000010000000000080000040000000000900200000000000000000000000000000000000000000002000000000000000",
      "type": "0x2",
      "transactionHash": "0x7f524712c86f5ccaca004d63fbd2f05a6588de196fa3b11ee383f4ce859b8d44",
      "transactionIndex": "0x0",
      "blockHash": "0x11a9470c076f9097f8b65640d107c8b47d0fa3d50b2a3e80db3ae69357dbe4a6",
      "blockNumber": "0x17b833a",
      "gasUsed": "0x201f2",
      "effectiveGasPrice": "0x1ba81c",
      "blobGasPrice": "0x1",
      "from": "0xc5adfc119364cfe2297e4414db04834d8702475b",
      "to": "0x8fa71914948544c60e3379064567dcf0e6564d27",
      "contractAddress": null
    }
  ],
  "libraries": [],
  "pending": [],
  "returns": {},
  "timestamp": 1778506437560,
  "chain": 31337,
  "commit": "59e30a9"
}