{
  "transactions": [
    {
      "hash": "0xe3a63dbf4ef4d58f90be5cfdaa8d29fc66da2cd1c83baefa96b26f910eebec71",
      "transactionType": "CALL",
      "contractName": null,
      "contractAddress": "0x8fa71914948544c60e3379064567dcf0e6564d27",
      "function": "settle((uint256,address),(uint8,bool,address,uint256,address,uint256,address,uint64,uint64,uint256),(uint8,bytes32,bytes32))",
      "arguments": [
        "(0, 0xe3745C151faB59B0740f4312b2B027F07D096639)",
        "(0, false, 0xA5f104F8f78d5ba9AEC4a383c0927337Fd4E997B, 375, 0xC02aaA39b223FE8D0A0e5C4F27eAD9083C756Cc2, 1042000000000000000, 0x08312E82df563A1639b81f49bb41247759700e30, 1772613480, 1779560806, 10)",
        "(28, 0xd9117c1e5717182366485fc3dee2cd54de3bae20ce3e52fe5926283cd0549040, 0x4e8886afd637d1aaf0198f34a51cc1708ea8f302bb5dd54c14d0ffb1af5e7336)"
      ],
      "transaction": {
        "from": "0xe3745c151fab59b0740f4312b2b027f07d096639",
        "to": "0x8fa71914948544c60e3379064567dcf0e6564d27",
        "gas": "0x2c4e8",
        "value": "0x0",
        "input": "0x3bae3e790000000000000000000000000000000000000000000000000000000000000000000000000000000000000000e3745c151fab59b0740f4312b2b027f07d09663900000000000000000000000000000000000000000000000000000000000000000000000000000000000000000000000000000000000000000000000000000000000000000000000000000000a5f104f8f78d5ba9aec4a383c0927337fd4e997b0000000000000000000000000000000000000000000000000000000000000177000000000000000000000000c02aaa39b223fe8d0a0e5c4f27ead9083c756cc20000000000000000000000000000000000000000000000000e75ed7aaff5000000000000000000000000000008312e82df563a1639b81f49bb41247759700e300000000000000000000000000000000000000000000000000000000069a7ef68000000000000000000000000000000000000000000000000000000006a11f166000000000000000000000000000000000000000000000000000000000000000a000000000000000000000000000000000000000000000000000000000000001cd9117c1e5717182366485fc3dee2cd54de3bae20ce3e52fe5926283cd05490404e8886afd637d1aaf0198f34a51cc1708ea8f302bb5dd54c14d0ffb1af5e7336",
        "nonce": "0x4e",
        "chainId": "0x7a69"
      },
      "additionalContracts": [],
      "isFixedGasLimit": false
    }
  ],
  "receipts": [
    {
      "status": "0x1",
      "cumulativeGasUsed": "0x2013d",
      "logs": [
        {
          "address": "0xc02aaa39b223fe8d0a0e5c4f27ead9083c756cc2",
          "topics": [
            "0xddf252ad1be2c89b69c2b068fc378daa952ba7f163c4a11628f55a4df523b3ef",
            "0x000000000000000000000000e3745c151fab59b0740f4312b2b027f07d096639",
            "0x0000000000000000000000001804c8ab1f12e6bbf3894d4083f33e07309d1f38"
          ],
          "data": "0x000000000000000000000000000000000000000000000000002504ef4e8f4000",
          "blockHash": "0x7d7d0b3661cac7de735901034a27f5d3d6dfd2729bd98d80e039cfb9c9aa64ca",
          "blockNumber": "0x17b8369",
          "blockTimestamp": "0x69f397ba",
          "transactionHash": "0xe3a63dbf4ef4d58f90be5cfdaa8d29fc66da2cd1c83baefa96b26f910eebec71",
          "transactionIndex": "0x0",
          "logIndex": "0x0",
          "removed": false
        },
        {
          "address": "0xc02aaa39b223fe8d0a0e5c4f27ead9083c756cc2",
          "topics": [
            "0xddf252ad1be2c89b69c2b068fc378daa952ba7f163c4a11628f55a4df523b3ef",
            "0x000000000000000000000000e3745c151fab59b0740f4312b2b027f07d096639",
            "0x00000000000000000000000008312e82df563a1639b81f49bb41247759700e30"
          ],
          "data": "0x0000000000000000000000000000000000000000000000000e50e88b6165c000",
          "blockHash": "0x7d7d0b3661cac7de735901034a27f5d3d6dfd2729bd98d80e039cfb9c9aa64ca",
          "blockNumber": "0x17b8369",
          "blockTimestamp": "0x69f397ba",
          "transactionHash": "0xe3a63dbf4ef4d58f90be5cfdaa8d29fc66da2cd1c83baefa96b26f910eebec71",
          "transactionIndex": "0x0",
          "logIndex": "0x1",
          "removed": false
        },
        {
          "address": "0xa5f104f8f78d5ba9aec4a383c0927337fd4e997b",
          "topics": [
            "0xddf252ad1be2c89b69c2b068fc378daa952ba7f163c4a11628f55a4df523b3ef",
            "0x00000000000000000000000008312e82df563a1639b81f49bb41247759700e30",
            "0x000000000000000000000000e3745c151fab59b0740f4312b2b027f07d096639",
            "0x0000000000000000000000000000000000000000000000000000000000000177"
          ],
          "data": "0x",
          "blockHash": "0x7d7d0b3661cac7de735901034a27f5d3d6dfd2729bd98d80e039cfb9c9aa64ca",
          "blockNumber": "0x17b8369",
          "blockTimestamp": "0x69f397ba",
          "transactionHash": "0xe3a63dbf4ef4d58f90be5cfdaa8d29fc66da2cd1c83baefa96b26f910eebec71",
          "transactionIndex": "0x0",
          "logIndex": "0x2",
          "removed": false
        },
        {
          "address": "0x8fa71914948544c60e3379064567dcf0e6564d27",
          "topics": [
            "0xc0ac3eb1e8caef05b202043f34de8e3173fab712167584f7a2a9f4c302bd0e9c",
            "0x76f9fbe28520f35f089cda36e2ddf7a6f4e28b0ee23b00bd97723ccf75026fb3",
            "0x000000000000000000000000a5f104f8f78d5ba9aec4a383c0927337fd4e997b",
            "0x0000000000000000000000000000000000000000000000000000000000000177"
          ],
          "data": "0x00000000000000000000000008312e82df563a1639b81f49bb41247759700e30000000000000000000000000e3745c151fab59b0740f4312b2b027f07d096639000000000000000000000000c02aaa39b223fe8d0a0e5c4f27ead9083c756cc20000000000000000000000000000000000000000000000000e75ed7aaff50000",
          "blockHash": "0x7d7d0b3661cac7de735901034a27f5d3d6dfd2729bd98d80e039cfb9c9aa64ca",
          "blockNumber": "0x17b8369",
          "blockTimestamp": "0x69f397ba",
          "transactionHash": "0xe3a63dbf4ef4d58f90be5cfdaa8d29fc66da2cd1c83baefa96b26f910eebec71",
          "transactionIndex": "0x0",
          "logIndex": "0x3",
          "removed": false
        }
      ],
      "logsBloom": "0x00000000000000000000010001000000000000000100000000000000000000000000000000100000000000000000000042000000080000400000000000100000000000000000000000010008000000040000000000000000080000000000000000000000000000000001000000000000000000000000000000000010200000000800000000041000000004000000000000010000001000000000000000000000000000200000000400000000000000000000000000000080000000000000000000000002000004000000000000000000000000000000000080000040000000000100200000000000000000000000000000000000004000000080000000000000",
      "type": "0x2",
      "transactionHash": "0xe3a63dbf4ef4d58f90be5cfdaa8d29fc66da2cd1c83baefa96b26f910eebec71",
      "transactionIndex": "0x0",
      "blockHash": "0x7d7d0b3661cac7de735901034a27f5d3d6dfd2729bd98d80e039cfb9c9aa64ca",
      "blockNumber": "0x17b8369",
      "gasUsed": "0x2013d",
      "effectiveGasPrice": "0x1ba81c",
      "blobGasPrice": "0x1",
      "from": "0xe3745c151fab59b0740f4312b2b027f07d096639",
      "to": "0x8fa71914948544c60e3379064567dcf0e6564d27",
      "contractAddress": null
    }
  ],
  "libraries": [],
  "pending": [],
  "returns": {},
  "timestamp": 1778506489186,
  "chain": 31337,
  "commit": "59e30a9"
}