{
  "transactions": [
    {
      "hash": "0x5824c12fa29de5919a92b10db4aababe62827bfc923810f3f30f414f7a769bd6",
      "transactionType": "CALL",
      "contractName": null,
      "contractAddress": "0x73973d222c3fda5b2563d269da9e19cb125000f4",
      "function": "settle((uint256,address),(uint8,bool,address,uint256,address,uint256,address,uint64,uint64,uint256),(uint8,bytes32,bytes32))",
      "arguments": [
        "(276, 0xa382b0E75C192D9CDF5c084E58b750Cea7761Bd0)",
        "(1, false, 0x38D4dE42C9c5640A2799B372D27B01957E0a3673, 276, 0xC02aaA39b223FE8D0A0e5C4F27eAD9083C756Cc2, 51000000000000000, 0xcbe5659df21Cbcfabe4da962F7a9081F26B3ed82, 1772032887, 1780032751, 11)",
        "(28, 0x2f8b4ac8765bbabab3a9f976e36fb58116bf360c2f54cf914f076d1439052eed, 0x4115a8c125f3452918a687b40ce3c27d771621168fe9ff441537ed2e937a2e0b)"
      ],
      "transaction": {
        "from": "0xa382b0e75c192d9cdf5c084e58b750cea7761bd0",
        "to": "0x73973d222c3fda5b2563d269da9e19cb125000f4",
        "gas": "0x2c5fe",
        "value": "0x0",
        "input": "0x3bae3e790000000000000000000000000000000000000000000000000000000000000114000000000000000000000000a382b0e75c192d9cdf5c084e58b750cea7761bd00000000000000000000000000000000000000000000000000000000000000001000000000000000000000000000000000000000000000000000000000000000000000000000000000000000038d4de42c9c5640a2799b372d27b01957e0a36730000000000000000000000000000000000000000000000000000000000000114000000000000000000000000c02aaa39b223fe8d0a0e5c4f27ead9083c756cc200000000000000000000000000000000000000000000000000b5303ad38b8000000000000000000000000000cbe5659df21cbcfabe4da962f7a9081f26b3ed8200000000000000000000000000000000000000000000000000000000699f1377000000000000000000000000000000000000000000000000000000006a1924ef000000000000000000000000000000000000000000000000000000000000000b000000000000000000000000000000000000000000000000000000000000001c2f8b4ac8765bbabab3a9f976e36fb58116bf360c2f54cf914f076d1439052eed4115a8c125f3452918a687b40ce3c27d771621168fe9ff441537ed2e937a2e0b",
        "nonce": "0x5f",
        "chainId": "0x7a69"
      },
      "additionalContracts": [],
      "isFixedGasLimit": false
    }
  ],
  "receipts": [
    {
      "status": "0x1",
      "cumulativeGasUsed": "0x20206",
      "logs": [
        {
          "address": "0xc02aaa39b223fe8d0a0e5c4f27ead9083c756cc2",
          "topics": [
            "0xddf252ad1be2c89b69c2b068fc378daa952ba7f163c4a11628f55a4df523b3ef",
            "0x000000000000000000000000cbe5659df21cbcfabe4da962f7a9081f26b3ed82",
            "0x0000000000000000000000001804c8ab1f12e6bbf3894d4083f33e07309d1f38"
          ],
          "data": "0x0000000000000000000000000000000000000000000000000001cfd7a0d5e000",
          "blockHash": "0xbf47005ad6013cb2fe51029f30ce37d2f5fae624eb5336752526ab51b41def01",
          "blockNumber": "0x17b73e4",
          "blockTimestamp": "0x69ece272",
          "transactionHash": "0x5824c12fa29de5919a92b10db4aababe62827bfc923810f3f30f414f7a769bd6",
          "transactionIndex": "0x0",
          "logIndex": "0x0",
          "removed": false
        },
        {
          "address": "0xc02aaa39b223fe8d0a0e5c4f27ead9083c756cc2",
          "topics": [
            "0xddf252ad1be2c89b69c2b068fc378daa952ba7f163c4a11628f55a4df523b3ef",
            "0x000000000000000000000000cbe5659df21cbcfabe4da962f7a9081f26b3ed82",
            "0x000000000000000000000000a382b0e75c192d9cdf5c084e58b750cea7761bd0"
          ],
          "data": "0x00000000000000000000000000000000000000000000000000b3606332b5a000",
          "blockHash": "0xbf47005ad6013cb2fe51029f30ce37d2f5fae624eb5336752526ab51b41def01",
          "blockNumber": "0x17b73e4",
          "blockTimestamp": "0x69ece272",
          "transactionHash": "0x5824c12fa29de5919a92b10db4aababe62827bfc923810f3f30f414f7a769bd6",
          "transactionIndex": "0x0",
          "logIndex": "0x1",
          "removed": false
        },
        {
          "address": "0x38d4de42c9c5640a2799b372d27b01957e0a3673",
          "topics": [
            "0xddf252ad1be2c89b69c2b068fc378daa952ba7f163c4a11628f55a4df523b3ef",
            "0x000000000000000000000000a382b0e75c192d9cdf5c084e58b750cea7761bd0",
            "0x000000000000000000000000cbe5659df21cbcfabe4da962f7a9081f26b3ed82",
            "0x0000000000000000000000000000000000000000000000000000000000000114"
          ],
          "data": "0x",
          "blockHash": "0xbf47005ad6013cb2fe51029f30ce37d2f5fae624eb5336752526ab51b41def01",
          "blockNumber": "0x17b73e4",
          "blockTimestamp": "0x69ece272",
          "transactionHash": "0x5824c12fa29de5919a92b10db4aababe62827bfc923810f3f30f414f7a769bd6",
          "transactionIndex": "0x0",
          "logIndex": "0x2",
          "removed": false
        },
        {
          "address": "0x73973d222c3fda5b2563d269da9e19cb125000f4",
          "topics": [
            "0xc0ac3eb1e8caef05b202043f34de8e3173fab712167584f7a2a9f4c302bd0e9c",
            "0xb59f9e83e9261fd55c8dce2466a5a5cd8e7f0710a754bb5ab859c5be9a60ca77",
            "0x00000000000000000000000038d4de42c9c5640a2799b372d27b01957e0a3673",
            "0x0000000000000000000000000000000000000000000000000000000000000114"
          ],
          "data": "0x000000000000000000000000a382b0e75c192d9cdf5c084e58b750cea7761bd0000000000000000000000000cbe5659df21cbcfabe4da962f7a9081f26b3ed82000000000000000000000000c02aaa39b223fe8d0a0e5c4f27ead9083c756cc200000000000000000000000000000000000000000000000000b5303ad38b8000",
          "blockHash": "0xbf47005ad6013cb2fe51029f30ce37d2f5fae624eb5336752526ab51b41def01",
          "blockNumber": "0x17b73e4",
          "blockTimestamp": "0x69ece272",
          "transactionHash": "0x5824c12fa29de5919a92b10db4aababe62827bfc923810f3f30f414f7a769bd6",
          "transactionIndex": "0x0",
          "logIndex": "0x3",
          "removed": false
        }
      ],
      "logsBloom": "0x00000000000000000000000000000000000000000002000000000000000000000000000000000000001000000000020002000000080000000004100000100000000000000000001021000008000000000000000000000000000000000000000000000000000000000001000000000000010000000000040000000010000000000000000000001000000004000000000000100000000008000000000000000000000000000000000000000000000008008000000000000080400000000000000000000002000004000400000000000000000000000000020000000000000000000100200000000000000000000000000000000020104000000000000000000000",
      "type": "0x2",
      "transactionHash": "0x5824c12fa29de5919a92b10db4aababe62827bfc923810f3f30f414f7a769bd6",
      "transactionIndex": "0x0",
      "blockHash": "0xbf47005ad6013cb2fe51029f30ce37d2f5fae624eb5336752526ab51b41def01",
      "blockNumber": "0x17b73e4",
      "gasUsed": "0x20206",
      "effectiveGasPrice": "0xf4248",
      "blobGasPrice": "0x1",
      "from": "0xa382b0e75c192d9cdf5c084e58b750cea7761bd0",
      "to": "0x73973d222c3fda5b2563d269da9e19cb125000f4",
      "contractAddress": null
    }
  ],
  "libraries": [],
  "pending": [],
  "returns": {},
  "timestamp": 1778453800568,
  "chain": 31337,
  "commit": "f87d399"
}