{
  "transactions": [
    {
      "hash": "0x5d9f33c7b0cad5765b5c4724934d0ae8f71b47e1ed523b48fdd07e86766ad93c",
      "transactionType": "CALL",
      "contractName": null,
      "contractAddress": "0x8fa71914948544c60e3379064567dcf0e6564d27",
      "function": "settle((uint256,address),(uint8,bool,address,uint256,address,uint256,address,uint64,uint64,uint256),(uint8,bytes32,bytes32))",
      "arguments": [
        "(0, 0x646dC5Fc4009C4C84a424B6aE0f494b374bAE1Ce)",
        "(0, false, 0xA5f104F8f78d5ba9AEC4a383c0927337Fd4E997B, 141, 0xC02aaA39b223FE8D0A0e5C4F27eAD9083C756Cc2, 37000000000000000, 0x08312E82df563A1639b81f49bb41247759700e30, 1772246837, 1779927449, 0)",
        "(27, 0xce2e8e9d2cf45959ac4d491a21acca01e15d01884d3f3ef220102ddc619f5e05, 0x652111512af94af8e58189de7d140e3a06485b03a2e90ab880b2253f254a727f)"
      ],
      "transaction": {
        "from": "0x646dc5fc4009c4c84a424b6ae0f494b374bae1ce",
        "to": "0x8fa71914948544c60e3379064567dcf0e6564d27",
        "gas": "0x2ee5b",
        "value": "0x0",
        "input": "0x3bae3e790000000000000000000000000000000000000000000000000000000000000000000000000000000000000000646dc5fc4009c4c84a424b6ae0f494b374bae1ce00000000000000000000000000000000000000000000000000000000000000000000000000000000000000000000000000000000000000000000000000000000000000000000000000000000a5f104f8f78d5ba9aec4a383c0927337fd4e997b000000000000000000000000000000000000000000000000000000000000008d000000000000000000000000c02aaa39b223fe8d0a0e5c4f27ead9083c756cc20000000000000000000000000000000000000000000000000083734dd0b0800000000000000000000000000008312e82df563a1639b81f49bb41247759700e300000000000000000000000000000000000000000000000000000000069a25735000000000000000000000000000000000000000000000000000000006a1789990000000000000000000000000000000000000000000000000000000000000000000000000000000000000000000000000000000000000000000000000000001bce2e8e9d2cf45959ac4d491a21acca01e15d01884d3f3ef220102ddc619f5e05652111512af94af8e58189de7d140e3a06485b03a2e90ab880b2253f254a727f",
        "nonce": "0x49",
        "chainId": "0x7a69"
      },
      "additionalContracts": [],
      "isFixedGasLimit": false
    }
  ],
  "receipts": [
    {
      "status": "0x1",
      "cumulativeGasUsed": "0x20111",
      "logs": [
        {
          "address": "0xc02aaa39b223fe8d0a0e5c4f27ead9083c756cc2",
          "topics": [
            "0xddf252ad1be2c89b69c2b068fc378daa952ba7f163c4a11628f55a4df523b3ef",
            "0x000000000000000000000000646dc5fc4009c4c84a424b6ae0f494b374bae1ce",
            "0x0000000000000000000000001804c8ab1f12e6bbf3894d4083f33e07309d1f38"
          ],
          "data": "0x0000000000000000000000000000000000000000000000000001508356912000",
          "blockHash": "0x86baa53e639c75eb66f35232ce36d8cb21c7933bcef45d15b51b8ca70373a058",
          "blockNumber": "0x17b832b",
          "blockTimestamp": "0x69e36f2b",
          "transactionHash": "0x5d9f33c7b0cad5765b5c4724934d0ae8f71b47e1ed523b48fdd07e86766ad93c",
          "transactionIndex": "0x0",
          "logIndex": "0x0",
          "removed": false
        },
        {
          "address": "0xc02aaa39b223fe8d0a0e5c4f27ead9083c756cc2",
          "topics": [
            "0xddf252ad1be2c89b69c2b068fc378daa952ba7f163c4a11628f55a4df523b3ef",
            "0x000000000000000000000000646dc5fc4009c4c84a424b6ae0f494b374bae1ce",
            "0x00000000000000000000000008312e82df563a1639b81f49bb41247759700e30"
          ],
          "data": "0x000000000000000000000000000000000000000000000000008222ca7a1f6000",
          "blockHash": "0x86baa53e639c75eb66f35232ce36d8cb21c7933bcef45d15b51b8ca70373a058",
          "blockNumber": "0x17b832b",
          "blockTimestamp": "0x69e36f2b",
          "transactionHash": "0x5d9f33c7b0cad5765b5c4724934d0ae8f71b47e1ed523b48fdd07e86766ad93c",
          "transactionIndex": "0x0",
          "logIndex": "0x1",
          "removed": false
        },
        {
          "address": "0xa5f104f8f78d5ba9aec4a383c0927337fd4e997b",
          "topics": [
            "0xddf252ad1be2c89b69c2b068fc378daa952ba7f163c4a11628f55a4df523b3ef",
            "0x00000000000000000000000008312e82df563a1639b81f49bb41247759700e30",
            "0x000000000000000000000000646dc5fc4009c4c84a424b6ae0f494b374bae1ce",
            "0x000000000000000000000000000000000000000000000000000000000000008d"
          ],
          "data": "0x",
          "blockHash": "0x86baa53e639c75eb66f35232ce36d8cb21c7933bcef45d15b51b8ca70373a058",
          "blockNumber": "0x17b832b",
          "blockTimestamp": "0x69e36f2b",
          "transactionHash": "0x5d9f33c7b0cad5765b5c4724934d0ae8f71b47e1ed523b48fdd07e86766ad93c",
          "transactionIndex": "0x0",
          "logIndex": "0x2",
          "removed": false
        },
        {
          "address": "0x8fa71914948544c60e3379064567dcf0e6564d27",
          "topics": [
            "0xc0ac3eb1e8caef05b202043f34de8e3173fab712167584f7a2a9f4c302bd0e9c",
            "0xbd21f0207c4052e89c0e91b2622e124ba791a8f67d1bd97500532b985a3218ee",
            "0x000000000000000000000000a5f104f8f78d5ba9aec4a383c0927337fd4e997b",
            "0x000000000000000000000000000000000000000000000000000000000000008d"
          ],
          "data": "0x00000000000000000000000008312e82df563a1639b81f49bb41247759700e30000000000000000000000000646dc5fc4009c4c84a424b6ae0f494b374bae1ce000000000000000000000000c02aaa39b223fe8d0a0e5c4f27ead9083c756cc20000000000000000000000000000000000000000000000000083734dd0b08000",
          "blockHash": "0x86baa53e639c75eb66f35232ce36d8cb21c7933bcef45d15b51b8ca70373a058",
          "blockNumber": "0x17b832b",
          "blockTimestamp": "0x69e36f2b",
          "transactionHash": "0x5d9f33c7b0cad5765b5c4724934d0ae8f71b47e1ed523b48fdd07e86766ad93c",
          "transactionIndex": "0x0",
          "logIndex": "0x3",
          "removed": false
        }
      ],
      "logsBloom": "0x00000000000000000000010201000000000000000002000000000000000000000000000000100000000000000000000002000000090000000000040000100000000000000000000000010008000000000000000000000000080000000000000000000000000000000005000000000000000000000000000000000010200000000800000000040000000004000000000000000000000000000000000002000000000000200000000400000000000000000000000000000080000000000000000000004002000004000000000000000000000000000000000080000000000000000100200004000000000000000010000000000000004000000000000000000000",
      "type": "0x2",
      "transactionHash": "0x5d9f33c7b0cad5765b5c4724934d0ae8f71b47e1ed523b48fdd07e86766ad93c",
      "transactionIndex": "0x0",
      "blockHash": "0x86baa53e639c75eb66f35232ce36d8cb21c7933bcef45d15b51b8ca70373a058",
      "blockNumber": "0x17b832b",
      "gasUsed": "0x20111",
      "effectiveGasPrice": "0x1ba81c",
      "blobGasPrice": "0x1",
      "from": "0x646dc5fc4009c4c84a424b6ae0f494b374bae1ce",
      "to": "0x8fa71914948544c60e3379064567dcf0e6564d27",
      "contractAddress": null
    }
  ],
  "libraries": [],
  "pending": [],
  "returns": {},
  "timestamp": 1778506419262,
  "chain": 31337,
  "commit": "59e30a9"
}