{
  "transactions": [
    {
      "hash": "0xf271668ad986df1533a3d9343a68e1b825ae763008085a5abf1163b529bf4b86",
      "transactionType": "CALL",
      "contractName": null,
      "contractAddress": "0x8fa71914948544c60e3379064567dcf0e6564d27",
      "function": "settle((uint256,address),(uint8,bool,address,uint256,address,uint256,address,uint64,uint64,uint256),(uint8,bytes32,bytes32))",
      "arguments": [
        "(346, 0x1302F142Fc55B165647d3Bd5dec227f569A2A907)",
        "(1, false, 0xA5f104F8f78d5ba9AEC4a383c0927337Fd4E997B, 346, 0xC02aaA39b223FE8D0A0e5C4F27eAD9083C756Cc2, 26000000000000000, 0xa382b0E75C192D9CDF5c084E58b750Cea7761Bd0, 1772867194, 1779307092, 4)",
        "(28, 0x0e22901c35e6570b59c14ed1117995d50f039efe3bead9edec1a47aa162b32c1, 0x6b332aec131e6edcbc51829a536efbb5291ce992a377916d5ece1efe0b8d2569)"
      ],
      "transaction": {
        "from": "0x1302f142fc55b165647d3bd5dec227f569a2a907",
        "to": "0x8fa71914948544c60e3379064567dcf0e6564d27",
        "gas": "0x2efb0",
        "value": "0x0",
        "input": "0x3bae3e79000000000000000000000000000000000000000000000000000000000000015a0000000000000000000000001302f142fc55b165647d3bd5dec227f569a2a90700000000000000000000000000000000000000000000000000000000000000010000000000000000000000000000000000000000000000000000000000000000000000000000000000000000a5f104f8f78d5ba9aec4a383c0927337fd4e997b000000000000000000000000000000000000000000000000000000000000015a000000000000000000000000c02aaa39b223fe8d0a0e5c4f27ead9083c756cc2000000000000000000000000000000000000000000000000005c5edcbc290000000000000000000000000000a382b0e75c192d9cdf5c084e58b750cea7761bd00000000000000000000000000000000000000000000000000000000069abce7a000000000000000000000000000000000000000000000000000000006a0e12540000000000000000000000000000000000000000000000000000000000000004000000000000000000000000000000000000000000000000000000000000001c0e22901c35e6570b59c14ed1117995d50f039efe3bead9edec1a47aa162b32c16b332aec131e6edcbc51829a536efbb5291ce992a377916d5ece1efe0b8d2569",
        "nonce": "0x35",
        "chainId": "0x7a69"
      },
      "additionalContracts": [],
      "isFixedGasLimit": false
    }
  ],
  "receipts": [
    {
      "status": "0x1",
      "cumulativeGasUsed": "0x201fa",
      "logs": [
        {
          "address": "0xc02aaa39b223fe8d0a0e5c4f27ead9083c756cc2",
          "topics": [
            "0xddf252ad1be2c89b69c2b068fc378daa952ba7f163c4a11628f55a4df523b3ef",
            "0x000000000000000000000000a382b0e75c192d9cdf5c084e58b750cea7761bd0",
            "0x0000000000000000000000001804c8ab1f12e6bbf3894d4083f33e07309d1f38"
          ],
          "data": "0x0000000000000000000000000000000000000000000000000000ec77f7a44000",
          "blockHash": "0x0574f4fb2a4a68cafea410f9c777220e1e17688f88def708e45845f369b8cc88",
          "blockNumber": "0x17b834a",
          "blockTimestamp": "0x69ec696b",
          "transactionHash": "0xf271668ad986df1533a3d9343a68e1b825ae763008085a5abf1163b529bf4b86",
          "transactionIndex": "0x0",
          "logIndex": "0x0",
          "removed": false
        },
        {
          "address": "0xc02aaa39b223fe8d0a0e5c4f27ead9083c756cc2",
          "topics": [
            "0xddf252ad1be2c89b69c2b068fc378daa952ba7f163c4a11628f55a4df523b3ef",
            "0x000000000000000000000000a382b0e75c192d9cdf5c084e58b750cea7761bd0",
            "0x0000000000000000000000001302f142fc55b165647d3bd5dec227f569a2a907"
          ],
          "data": "0x000000000000000000000000000000000000000000000000005b7264c484c000",
          "blockHash": "0x0574f4fb2a4a68cafea410f9c777220e1e17688f88def708e45845f369b8cc88",
          "blockNumber": "0x17b834a",
          "blockTimestamp": "0x69ec696b",
          "transactionHash": "0xf271668ad986df1533a3d9343a68e1b825ae763008085a5abf1163b529bf4b86",
          "transactionIndex": "0x0",
          "logIndex": "0x1",
          "removed": false
        },
        {
          "address": "0xa5f104f8f78d5ba9aec4a383c0927337fd4e997b",
          "topics": [
            "0xddf252ad1be2c89b69c2b068fc378daa952ba7f163c4a11628f55a4df523b3ef",
            "0x0000000000000000000000001302f142fc55b165647d3bd5dec227f569a2a907",
            "0x000000000000000000000000a382b0e75c192d9cdf5c084e58b750cea7761bd0",
            "0x000000000000000000000000000000000000000000000000000000000000015a"
          ],
          "data": "0x",
          "blockHash": "0x0574f4fb2a4a68cafea410f9c777220e1e17688f88def708e45845f369b8cc88",
          "blockNumber": "0x17b834a",
          "blockTimestamp": "0x69ec696b",
          "transactionHash": "0xf271668ad986df1533a3d9343a68e1b825ae763008085a5abf1163b529bf4b86",
          "transactionIndex": "0x0",
          "logIndex": "0x2",
          "removed": false
        },
        {
          "address": "0x8fa71914948544c60e3379064567dcf0e6564d27",
          "topics": [
            "0xc0ac3eb1e8caef05b202043f34de8e3173fab712167584f7a2a9f4c302bd0e9c",
            "0x59a1b607557a44fe67b491141947a2c882032951af9b24617f2f74e894a326df",
            "0x000000000000000000000000a5f104f8f78d5ba9aec4a383c0927337fd4e997b",
            "0x000000000000000000000000000000000000000000000000000000000000015a"
          ],
          "data": "0x0000000000000000000000001302f142fc55b165647d3bd5dec227f569a2a907000000000000000000000000a382b0e75c192d9cdf5c084e58b750cea7761bd0000000000000000000000000c02aaa39b223fe8d0a0e5c4f27ead9083c756cc2000000000000000000000000000000000000000000000000005c5edcbc290000",
          "blockHash": "0x0574f4fb2a4a68cafea410f9c777220e1e17688f88def708e45845f369b8cc88",
          "blockNumber": "0x17b834a",
          "blockTimestamp": "0x69ec696b",
          "transactionHash": "0xf271668ad986df1533a3d9343a68e1b825ae763008085a5abf1163b529bf4b86",
          "transactionIndex": "0x0",
          "logIndex": "0x3",
          "removed": false
        }
      ],
      "logsBloom": "0x00000000000000000000010000000000000000000000000000000000000000000004000000000000000000000000000002000000080000000000000000100000000000000000000000010008000000000000000000000000080000000000000000000000000000000001000000020000000000000000040000000010200000000800000000040000000004000000000000100000004000000000000040000000000000200000000c00000000000100000000000000000080000000000000000000000002000004000000000200000000000000000000000080000000000000000100200000000000000040004000000000000000100000000000000000000000",
      "type": "0x2",
      "transactionHash": "0xf271668ad986df1533a3d9343a68e1b825ae763008085a5abf1163b529bf4b86",
      "transactionIndex": "0x0",
      "blockHash": "0x0574f4fb2a4a68cafea410f9c777220e1e17688f88def708e45845f369b8cc88",
      "blockNumber": "0x17b834a",
      "gasUsed": "0x201fa",
      "effectiveGasPrice": "0x1ba81c",
      "blobGasPrice": "0x1",
      "from": "0x1302f142fc55b165647d3bd5dec227f569a2a907",
      "to": "0x8fa71914948544c60e3379064567dcf0e6564d27",
      "contractAddress": null
    }
  ],
  "libraries": [],
  "pending": [],
  "returns": {},
  "timestamp": 1778506451427,
  "chain": 31337,
  "commit": "59e30a9"
}