{
  "transactions": [
    {
      "hash": "0xa4f7d3624b7618433e5eca8de89b82553e7d90114437129e5e9fd96634e98106",
      "transactionType": "CALL",
      "contractName": null,
      "contractAddress": "0x8fa71914948544c60e3379064567dcf0e6564d27",
      "function": "settle((uint256,address),(uint8,bool,address,uint256,address,uint256,address,uint64,uint64,uint256),(uint8,bytes32,bytes32))",
      "arguments": [
        "(0, 0x08312E82df563A1639b81f49bb41247759700e30)",
        "(0, false, 0xA5f104F8f78d5ba9AEC4a383c0927337Fd4E997B, 110, 0xC02aaA39b223FE8D0A0e5C4F27eAD9083C756Cc2, 345000000000000000, 0xE233420d38D286C2F2Cf8dEe6564F132FBDB09DB, 1773417523, 1778756763, 5)",
        "(27, 0xd408b711124ca5ae4866667d0781478700d101ea6a6afe594d9045d466f7f78f, 0x6b3993a6a9a18e49f0668b01961c04d62e0f0670dd66cc97b23e14a01dc3902c)"
      ],
      "transaction": {
        "from": "0x08312e82df563a1639b81f49bb41247759700e30",
        "to": "0x8fa71914948544c60e3379064567dcf0e6564d27",
        "gas": "0x2c4bb",
        "value": "0x0",
        "input": "0x3bae3e79000000000000000000000000000000000000000000000000000000000000000000000000000000000000000008312e82df563a1639b81f49bb41247759700e3000000000000000000000000000000000000000000000000000000000000000000000000000000000000000000000000000000000000000000000000000000000000000000000000000000000a5f104f8f78d5ba9aec4a383c0927337fd4e997b000000000000000000000000000000000000000000000000000000000000006e000000000000000000000000c02aaa39b223fe8d0a0e5c4f27ead9083c756cc200000000000000000000000000000000000000000000000004c9afac0f828000000000000000000000000000e233420d38d286c2f2cf8dee6564f132fbdb09db0000000000000000000000000000000000000000000000000000000069b43433000000000000000000000000000000000000000000000000000000006a05ac9b0000000000000000000000000000000000000000000000000000000000000005000000000000000000000000000000000000000000000000000000000000001bd408b711124ca5ae4866667d0781478700d101ea6a6afe594d9045d466f7f78f6b3993a6a9a18e49f0668b01961c04d62e0f0670dd66cc97b23e14a01dc3902c",
        "nonce": "0x3c",
        "chainId": "0x7a69"
      },
      "additionalContracts": [],
      "isFixedGasLimit": false
    }
  ],
  "receipts": [
    {
      "status": "0x1",
      "cumulativeGasUsed": "0x2011d",
      "logs": [
        {
          "address": "0xc02aaa39b223fe8d0a0e5c4f27ead9083c756cc2",
          "topics": [
            "0xddf252ad1be2c89b69c2b068fc378daa952ba7f163c4a11628f55a4df523b3ef",
            "0x00000000000000000000000008312e82df563a1639b81f49bb41247759700e30",
            "0x0000000000000000000000001804c8ab1f12e6bbf3894d4083f33e07309d1f38"
          ],
          "data": "0x000000000000000000000000000000000000000000000000000c41c1b879a000",
          "blockHash": "0xfa68827eba62f83da0351cb07a5ddb92414cc048f4e71a6a90ddc5ea7f40576e",
          "blockNumber": "0x17b833e",
          "blockTimestamp": "0x69e92792",
          "transactionHash": "0xa4f7d3624b7618433e5eca8de89b82553e7d90114437129e5e9fd96634e98106",
          "transactionIndex": "0x0",
          "logIndex": "0x0",
          "removed": false
        },
        {
          "address": "0xc02aaa39b223fe8d0a0e5c4f27ead9083c756cc2",
          "topics": [
            "0xddf252ad1be2c89b69c2b068fc378daa952ba7f163c4a11628f55a4df523b3ef",
            "0x00000000000000000000000008312e82df563a1639b81f49bb41247759700e30",
            "0x000000000000000000000000e233420d38d286c2f2cf8dee6564f132fbdb09db"
          ],
          "data": "0x00000000000000000000000000000000000000000000000004bd6dea5708e000",
          "blockHash": "0xfa68827eba62f83da0351cb07a5ddb92414cc048f4e71a6a90ddc5ea7f40576e",
          "blockNumber": "0x17b833e",
          "blockTimestamp": "0x69e92792",
          "transactionHash": "0xa4f7d3624b7618433e5eca8de89b82553e7d90114437129e5e9fd96634e98106",
          "transactionIndex": "0x0",
          "logIndex": "0x1",
          "removed": false
        },
        {
          "address": "0xa5f104f8f78d5ba9aec4a383c0927337fd4e997b",
          "topics": [
            "0xddf252ad1be2c89b69c2b068fc378daa952ba7f163c4a11628f55a4df523b3ef",
            "0x000000000000000000000000e233420d38d286c2f2cf8dee6564f132fbdb09db",
            "0x00000000000000000000000008312e82df563a1639b81f49bb41247759700e30",
            "0x000000000000000000000000000000000000000000000000000000000000006e"
          ],
          "data": "0x",
          "blockHash": "0xfa68827eba62f83da0351cb07a5ddb92414cc048f4e71a6a90ddc5ea7f40576e",
          "blockNumber": "0x17b833e",
          "blockTimestamp": "0x69e92792",
          "transactionHash": "0xa4f7d3624b7618433e5eca8de89b82553e7d90114437129e5e9fd96634e98106",
          "transactionIndex": "0x0",
          "logIndex": "0x2",
          "removed": false
        },
        {
          "address": "0x8fa71914948544c60e3379064567dcf0e6564d27",
          "topics": [
            "0xc0ac3eb1e8caef05b202043f34de8e3173fab712167584f7a2a9f4c302bd0e9c",
            "0x9f07ca1de70bb460fa8a37a06e1d30e977182ab9eab0f6beebfb1cb980e78ad3",
            "0x000000000000000000000000a5f104f8f78d5ba9aec4a383c0927337fd4e997b",
            "0x000000000000000000000000000000000000000000000000000000000000006e"
          ],
          "data": "0x000000000000000000000000e233420d38d286c2f2cf8dee6564f132fbdb09db00000000000000000000000008312e82df563a1639b81f49bb41247759700e30000000000000000000000000c02aaa39b223fe8d0a0e5c4f27ead9083c756cc200000000000000000000000000000000000000000000000004c9afac0f828000",
          "blockHash": "0xfa68827eba62f83da0351cb07a5ddb92414cc048f4e71a6a90ddc5ea7f40576e",
          "blockNumber": "0x17b833e",
          "blockTimestamp": "0x69e92792",
          "transactionHash": "0xa4f7d3624b7618433e5eca8de89b82553e7d90114437129e5e9fd96634e98106",
          "transactionIndex": "0x0",
          "logIndex": "0x3",
          "removed": false
        }
      ],
      "logsBloom": "0x00000000000000000000010001000000000000000000000000000000000000000000000000100000000000000000000002000000080000000000000000100000000040000000000000010008000000000000000000000000080000000000000000000001000000000001000000000000000000000000000000001010200000000800000000040000000004000000000000000000000010000000000000000000000000200000000400000000000000000000000000000080000000000000000080000012100004000000000000000000000000000002000080010000000000000100200000000000000000000000000000000000004000000000000000000000",
      "type": "0x2",
      "transactionHash": "0xa4f7d3624b7618433e5eca8de89b82553e7d90114437129e5e9fd96634e98106",
      "transactionIndex": "0x0",
      "blockHash": "0xfa68827eba62f83da0351cb07a5ddb92414cc048f4e71a6a90ddc5ea7f40576e",
      "blockNumber": "0x17b833e",
      "gasUsed": "0x2011d",
      "effectiveGasPrice": "0x1ba81c",
      "blobGasPrice": "0x1",
      "from": "0x08312e82df563a1639b81f49bb41247759700e30",
      "to": "0x8fa71914948544c60e3379064567dcf0e6564d27",
      "contractAddress": null
    }
  ],
  "libraries": [],
  "pending": [],
  "returns": {},
  "timestamp": 1778506441283,
  "chain": 31337,
  "commit": "59e30a9"
}