{
  "transactions": [
    {
      "hash": "0x694d4a4cecb4319e68efdebde43949343bfe3cfacfe2eae7757947ee9daedb52",
      "transactionType": "CALL",
      "contractName": null,
      "contractAddress": "0x8fa71914948544c60e3379064567dcf0e6564d27",
      "function": "settle((uint256,address),(uint8,bool,address,uint256,address,uint256,address,uint64,uint64,uint256),(uint8,bytes32,bytes32))",
      "arguments": [
        "(0, 0x646dC5Fc4009C4C84a424B6aE0f494b374bAE1Ce)",
        "(0, false, 0xA5f104F8f78d5ba9AEC4a383c0927337Fd4E997B, 294, 0xC02aaA39b223FE8D0A0e5C4F27eAD9083C756Cc2, 28000000000000000, 0x08312E82df563A1639b81f49bb41247759700e30, 1772302234, 1779872052, 1)",
        "(27, 0x6387e4bc73ebdce058de7ce027061eae56b29f80673446e9bd952d0ba8b1999d, 0x28818702ac7018d45db184f9aa4dbf25d06be2ae0a831b081f219c19ca31784c)"
      ],
      "transaction": {
        "from": "0x646dc5fc4009c4c84a424b6ae0f494b374bae1ce",
        "to": "0x8fa71914948544c60e3379064567dcf0e6564d27",
        "gas": "0x2c4bb",
        "value": "0x0",
        "input": "0x3bae3e790000000000000000000000000000000000000000000000000000000000000000000000000000000000000000646dc5fc4009c4c84a424b6ae0f494b374bae1ce00000000000000000000000000000000000000000000000000000000000000000000000000000000000000000000000000000000000000000000000000000000000000000000000000000000a5f104f8f78d5ba9aec4a383c0927337fd4e997b0000000000000000000000000000000000000000000000000000000000000126000000000000000000000000c02aaa39b223fe8d0a0e5c4f27ead9083c756cc2000000000000000000000000000000000000000000000000006379da05b6000000000000000000000000000008312e82df563a1639b81f49bb41247759700e300000000000000000000000000000000000000000000000000000000069a32f9a000000000000000000000000000000000000000000000000000000006a16b1340000000000000000000000000000000000000000000000000000000000000001000000000000000000000000000000000000000000000000000000000000001b6387e4bc73ebdce058de7ce027061eae56b29f80673446e9bd952d0ba8b1999d28818702ac7018d45db184f9aa4dbf25d06be2ae0a831b081f219c19ca31784c",
        "nonce": "0x48",
        "chainId": "0x7a69"
      },
      "additionalContracts": [],
      "isFixedGasLimit": false
    }
  ],
  "receipts": [
    {
      "status": "0x1",
      "cumulativeGasUsed": "0x2011d",
      "logs": [
        {
          "address": "0xc02aaa39b223fe8d0a0e5c4f27ead9083c756cc2",
          "topics": [
            "0xddf252ad1be2c89b69c2b068fc378daa952ba7f163c4a11628f55a4df523b3ef",
            "0x000000000000000000000000646dc5fc4009c4c84a424b6ae0f494b374bae1ce",
            "0x0000000000000000000000001804c8ab1f12e6bbf3894d4083f33e07309d1f38"
          ],
          "data": "0x0000000000000000000000000000000000000000000000000000fea894898000",
          "blockHash": "0x42e175921ea9bb4c0bbe2cadc680c8552fefd51fa8fbd589ba1cbf0f3370e3c6",
          "blockNumber": "0x17b832a",
          "blockTimestamp": "0x69e317a9",
          "transactionHash": "0x694d4a4cecb4319e68efdebde43949343bfe3cfacfe2eae7757947ee9daedb52",
          "transactionIndex": "0x0",
          "logIndex": "0x0",
          "removed": false
        },
        {
          "address": "0xc02aaa39b223fe8d0a0e5c4f27ead9083c756cc2",
          "topics": [
            "0xddf252ad1be2c89b69c2b068fc378daa952ba7f163c4a11628f55a4df523b3ef",
            "0x000000000000000000000000646dc5fc4009c4c84a424b6ae0f494b374bae1ce",
            "0x00000000000000000000000008312e82df563a1639b81f49bb41247759700e30"
          ],
          "data": "0x00000000000000000000000000000000000000000000000000627b31712c8000",
          "blockHash": "0x42e175921ea9bb4c0bbe2cadc680c8552fefd51fa8fbd589ba1cbf0f3370e3c6",
          "blockNumber": "0x17b832a",
          "blockTimestamp": "0x69e317a9",
          "transactionHash": "0x694d4a4cecb4319e68efdebde43949343bfe3cfacfe2eae7757947ee9daedb52",
          "transactionIndex": "0x0",
          "logIndex": "0x1",
          "removed": false
        },
        {
          "address": "0xa5f104f8f78d5ba9aec4a383c0927337fd4e997b",
          "topics": [
            "0xddf252ad1be2c89b69c2b068fc378daa952ba7f163c4a11628f55a4df523b3ef",
            "0x00000000000000000000000008312e82df563a1639b81f49bb41247759700e30",
            "0x000000000000000000000000646dc5fc4009c4c84a424b6ae0f494b374bae1ce",
            "0x0000000000000000000000000000000000000000000000000000000000000126"
          ],
          "data": "0x",
          "blockHash": "0x42e175921ea9bb4c0bbe2cadc680c8552fefd51fa8fbd589ba1cbf0f3370e3c6",
          "blockNumber": "0x17b832a",
          "blockTimestamp": "0x69e317a9",
          "transactionHash": "0x694d4a4cecb4319e68efdebde43949343bfe3cfacfe2eae7757947ee9daedb52",
          "transactionIndex": "0x0",
          "logIndex": "0x2",
          "removed": false
        },
        {
          "address": "0x8fa71914948544c60e3379064567dcf0e6564d27",
          "topics": [
            "0xc0ac3eb1e8caef05b202043f34de8e3173fab712167584f7a2a9f4c302bd0e9c",
            "0x010cd2886b1f73dafdd7184f6649d1c1b9c37e821db7afcd590a074240f00454",
            "0x000000000000000000000000a5f104f8f78d5ba9aec4a383c0927337fd4e997b",
            "0x0000000000000000000000000000000000000000000000000000000000000126"
          ],
          "data": "0x00000000000000000000000008312e82df563a1639b81f49bb41247759700e30000000000000000000000000646dc5fc4009c4c84a424b6ae0f494b374bae1ce000000000000000000000000c02aaa39b223fe8d0a0e5c4f27ead9083c756cc2000000000000000000000000000000000000000000000000006379da05b60000",
          "blockHash": "0x42e175921ea9bb4c0bbe2cadc680c8552fefd51fa8fbd589ba1cbf0f3370e3c6",
          "blockNumber": "0x17b832a",
          "blockTimestamp": "0x69e317a9",
          "transactionHash": "0x694d4a4cecb4319e68efdebde43949343bfe3cfacfe2eae7757947ee9daedb52",
          "transactionIndex": "0x0",
          "logIndex": "0x3",
          "removed": false
        }
      ],
      "logsBloom": "0x000000800000000000000100010000000000000000020000000000000000000000000000001000000000000000000000020000000900000000000004001000000000000000000000000100080000000000000000000000000800000000000000000000000000000400050000000000000000000000000000000000102000000008000000000400000000040000000000000000000000000000000000000000000000002000000004000000000000080000000000000000800000000000000000000000020200040000000000000000000000000000000000a0000000000000000100200000000000000000000000000000000000004000000000000000000000",
      "type": "0x2",
      "transactionHash": "0x694d4a4cecb4319e68efdebde43949343bfe3cfacfe2eae7757947ee9daedb52",
      "transactionIndex": "0x0",
      "blockHash": "0x42e175921ea9bb4c0bbe2cadc680c8552fefd51fa8fbd589ba1cbf0f3370e3c6",
      "blockNumber": "0x17b832a",
      "gasUsed": "0x2011d",
      "effectiveGasPrice": "0x1ba81c",
      "blobGasPrice": "0x1",
      "from": "0x646dc5fc4009c4c84a424b6ae0f494b374bae1ce",
      "to": "0x8fa71914948544c60e3379064567dcf0e6564d27",
      "contractAddress": null
    }
  ],
  "libraries": [],
  "pending": [],
  "returns": {},
  "timestamp": 1778506418413,
  "chain": 31337,
  "commit": "59e30a9"
}