{
  "transactions": [
    {
      "hash": "0x9ffcd6ebcf5df197f74c7e6373e50735e73e8621966a3aaa516264197be9d8d4",
      "transactionType": "CALL",
      "contractName": null,
      "contractAddress": "0x8fa71914948544c60e3379064567dcf0e6564d27",
      "function": "settle((uint256,address),(uint8,bool,address,uint256,address,uint256,address,uint64,uint64,uint256),(uint8,bytes32,bytes32))",
      "arguments": [
        "(246, 0x646dC5Fc4009C4C84a424B6aE0f494b374bAE1Ce)",
        "(1, false, 0xA5f104F8f78d5ba9AEC4a383c0927337Fd4E997B, 246, 0xC02aaA39b223FE8D0A0e5C4F27eAD9083C756Cc2, 17000000000000000, 0x2c2dbA75492E0C4A1D10B41303167aEC59586C9c, 1772820193, 1779354093, 15)",
        "(28, 0xf7bbeb5e24e2c24b269d6a7defa851dfa1a8b6f45c8cb16d2ead40b1aa853851, 0x330741682eb56290706237584f24cf22b249581a5c49cd40e2f5feaef7bed4fd)"
      ],
      "transaction": {
        "from": "0x646dc5fc4009c4c84a424b6ae0f494b374bae1ce",
        "to": "0x8fa71914948544c60e3379064567dcf0e6564d27",
        "gas": "0x2c5dc",
        "value": "0x0",
        "input": "0x3bae3e7900000000000000000000000000000000000000000000000000000000000000f6000000000000000000000000646dc5fc4009c4c84a424b6ae0f494b374bae1ce00000000000000000000000000000000000000000000000000000000000000010000000000000000000000000000000000000000000000000000000000000000000000000000000000000000a5f104f8f78d5ba9aec4a383c0927337fd4e997b00000000000000000000000000000000000000000000000000000000000000f6000000000000000000000000c02aaa39b223fe8d0a0e5c4f27ead9083c756cc2000000000000000000000000000000000000000000000000003c6568f12e80000000000000000000000000002c2dba75492e0c4a1d10b41303167aec59586c9c0000000000000000000000000000000000000000000000000000000069ab16e1000000000000000000000000000000000000000000000000000000006a0ec9ed000000000000000000000000000000000000000000000000000000000000000f000000000000000000000000000000000000000000000000000000000000001cf7bbeb5e24e2c24b269d6a7defa851dfa1a8b6f45c8cb16d2ead40b1aa853851330741682eb56290706237584f24cf22b249581a5c49cd40e2f5feaef7bed4fd",
        "nonce": "0x60",
        "chainId": "0x7a69"
      },
      "additionalContracts": [],
      "isFixedGasLimit": false
    }
  ],
  "receipts": [
    {
      "status": "0x1",
      "cumulativeGasUsed": "0x201ee",
      "logs": [
        {
          "address": "0xc02aaa39b223fe8d0a0e5c4f27ead9083c756cc2",
          "topics": [
            "0xddf252ad1be2c89b69c2b068fc378daa952ba7f163c4a11628f55a4df523b3ef",
            "0x0000000000000000000000002c2dba75492e0c4a1d10b41303167aec59586c9c",
            "0x0000000000000000000000001804c8ab1f12e6bbf3894d4083f33e07309d1f38"
          ],
          "data": "0x00000000000000000000000000000000000000000000000000009a9d359ca000",
          "blockHash": "0x4c5e1d0cebd0c35ebad01bfb252717dba38a5ab2cdb7761120cf8ee57d9047a0",
          "blockNumber": "0x17b8395",
          "blockTimestamp": "0x69fd7bde",
          "transactionHash": "0x9ffcd6ebcf5df197f74c7e6373e50735e73e8621966a3aaa516264197be9d8d4",
          "transactionIndex": "0x0",
          "logIndex": "0x0",
          "removed": false
        },
        {
          "address": "0xc02aaa39b223fe8d0a0e5c4f27ead9083c756cc2",
          "topics": [
            "0xddf252ad1be2c89b69c2b068fc378daa952ba7f163c4a11628f55a4df523b3ef",
            "0x0000000000000000000000002c2dba75492e0c4a1d10b41303167aec59586c9c",
            "0x000000000000000000000000646dc5fc4009c4c84a424b6ae0f494b374bae1ce"
          ],
          "data": "0x000000000000000000000000000000000000000000000000003bcacbbb91e000",
          "blockHash": "0x4c5e1d0cebd0c35ebad01bfb252717dba38a5ab2cdb7761120cf8ee57d9047a0",
          "blockNumber": "0x17b8395",
          "blockTimestamp": "0x69fd7bde",
          "transactionHash": "0x9ffcd6ebcf5df197f74c7e6373e50735e73e8621966a3aaa516264197be9d8d4",
          "transactionIndex": "0x0",
          "logIndex": "0x1",
          "removed": false
        },
        {
          "address": "0xa5f104f8f78d5ba9aec4a383c0927337fd4e997b",
          "topics": [
            "0xddf252ad1be2c89b69c2b068fc378daa952ba7f163c4a11628f55a4df523b3ef",
            "0x000000000000000000000000646dc5fc4009c4c84a424b6ae0f494b374bae1ce",
            "0x0000000000000000000000002c2dba75492e0c4a1d10b41303167aec59586c9c",
            "0x00000000000000000000000000000000000000000000000000000000000000f6"
          ],
          "data": "0x",
          "blockHash": "0x4c5e1d0cebd0c35ebad01bfb252717dba38a5ab2cdb7761120cf8ee57d9047a0",
          "blockNumber": "0x17b8395",
          "blockTimestamp": "0x69fd7bde",
          "transactionHash": "0x9ffcd6ebcf5df197f74c7e6373e50735e73e8621966a3aaa516264197be9d8d4",
          "transactionIndex": "0x0",
          "logIndex": "0x2",
          "removed": false
        },
        {
          "address": "0x8fa71914948544c60e3379064567dcf0e6564d27",
          "topics": [
            "0xc0ac3eb1e8caef05b202043f34de8e3173fab712167584f7a2a9f4c302bd0e9c",
            "0x84d338605c662dc731e32fd83b1b14d917274d631da887ac98e737ca176b8723",
            "0x000000000000000000000000a5f104f8f78d5ba9aec4a383c0927337fd4e997b",
            "0x00000000000000000000000000000000000000000000000000000000000000f6"
          ],
          "data": "0x000000000000000000000000646dc5fc4009c4c84a424b6ae0f494b374bae1ce0000000000000000000000002c2dba75492e0c4a1d10b41303167aec59586c9c000000000000000000000000c02aaa39b223fe8d0a0e5c4f27ead9083c756cc2000000000000000000000000000000000000000000000000003c6568f12e8000",
          "blockHash": "0x4c5e1d0cebd0c35ebad01bfb252717dba38a5ab2cdb7761120cf8ee57d9047a0",
          "blockNumber": "0x17b8395",
          "blockTimestamp": "0x69fd7bde",
          "transactionHash": "0x9ffcd6ebcf5df197f74c7e6373e50735e73e8621966a3aaa516264197be9d8d4",
          "transactionIndex": "0x0",
          "logIndex": "0x3",
          "removed": false
        }
      ],
      "logsBloom": "0x00000000000000000000010000000800000000000002000000000000000000000000004000000000000000000000000002000000090000000000000800100000008200000000000000010008000000000000000000000000080000000000000004000000000004000005000000000000000000000000000000000010200000800800000000040000000004000010000000000000000000000000000000000000000000200000000400000000000000000000000000000080000000000000000000000002000004000000000000000000000000000000000080000000000000000100200000000000000000000000000000000000000000000000000000000000",
      "type": "0x2",
      "transactionHash": "0x9ffcd6ebcf5df197f74c7e6373e50735e73e8621966a3aaa516264197be9d8d4",
      "transactionIndex": "0x0",
      "blockHash": "0x4c5e1d0cebd0c35ebad01bfb252717dba38a5ab2cdb7761120cf8ee57d9047a0",
      "blockNumber": "0x17b8395",
      "gasUsed": "0x201ee",
      "effectiveGasPrice": "0x1ba81c",
      "blobGasPrice": "0x1",
      "from": "0x646dc5fc4009c4c84a424b6ae0f494b374bae1ce",
      "to": "0x8fa71914948544c60e3379064567dcf0e6564d27",
      "contractAddress": null
    }
  ],
  "libraries": [],
  "pending": [],
  "returns": {},
  "timestamp": 1778506539763,
  "chain": 31337,
  "commit": "59e30a9"
}