{
  "transactions": [
    {
      "hash": "0x829db0a36aa6cf0ff0e90a2e0be0dc94c86ad78431af30fc89a9f621497b21a9",
      "transactionType": "CALL",
      "contractName": null,
      "contractAddress": "0x8fa71914948544c60e3379064567dcf0e6564d27",
      "function": "settle((uint256,address),(uint8,bool,address,uint256,address,uint256,address,uint64,uint64,uint256),(uint8,bytes32,bytes32))",
      "arguments": [
        "(0, 0x646dC5Fc4009C4C84a424B6aE0f494b374bAE1Ce)",
        "(0, false, 0xA5f104F8f78d5ba9AEC4a383c0927337Fd4E997B, 149, 0xC02aaA39b223FE8D0A0e5C4F27eAD9083C756Cc2, 31000000000000000, 0xcbe5659df21Cbcfabe4da962F7a9081F26B3ed82, 1773559269, 1778615017, 0)",
        "(28, 0x06918ab0542cbed59488f01ae855f406e3b5fbd9da066f0460869af4f388d18e, 0x287f40eba8110ff7e7947bfb75261ee823193a30424cbd46022a57a19fce182c)"
      ],
      "transaction": {
        "from": "0x646dc5fc4009c4c84a424b6ae0f494b374bae1ce",
        "to": "0x8fa71914948544c60e3379064567dcf0e6564d27",
        "gas": "0x2c4c7",
        "value": "0x0",
        "input": "0x3bae3e790000000000000000000000000000000000000000000000000000000000000000000000000000000000000000646dc5fc4009c4c84a424b6ae0f494b374bae1ce00000000000000000000000000000000000000000000000000000000000000000000000000000000000000000000000000000000000000000000000000000000000000000000000000000000a5f104f8f78d5ba9aec4a383c0927337fd4e997b0000000000000000000000000000000000000000000000000000000000000095000000000000000000000000c02aaa39b223fe8d0a0e5c4f27ead9083c756cc2000000000000000000000000000000000000000000000000006e2255f4098000000000000000000000000000cbe5659df21cbcfabe4da962f7a9081f26b3ed820000000000000000000000000000000000000000000000000000000069b65de5000000000000000000000000000000000000000000000000000000006a0382e90000000000000000000000000000000000000000000000000000000000000000000000000000000000000000000000000000000000000000000000000000001c06918ab0542cbed59488f01ae855f406e3b5fbd9da066f0460869af4f388d18e287f40eba8110ff7e7947bfb75261ee823193a30424cbd46022a57a19fce182c",
        "nonce": "0x3f",
        "chainId": "0x7a69"
      },
      "additionalContracts": [],
      "isFixedGasLimit": false
    }
  ],
  "receipts": [
    {
      "status": "0x1",
      "cumulativeGasUsed": "0x20125",
      "logs": [
        {
          "address": "0xc02aaa39b223fe8d0a0e5c4f27ead9083c756cc2",
          "topics": [
            "0xddf252ad1be2c89b69c2b068fc378daa952ba7f163c4a11628f55a4df523b3ef",
            "0x000000000000000000000000646dc5fc4009c4c84a424b6ae0f494b374bae1ce",
            "0x0000000000000000000000001804c8ab1f12e6bbf3894d4083f33e07309d1f38"
          ],
          "data": "0x000000000000000000000000000000000000000000000000000119f17fe16000",
          "blockHash": "0x3919f21811faf22acc67be1e6a3c42e3dc80b4c635778d9f0e414c221605b31b",
          "blockNumber": "0x17b831a",
          "blockTimestamp": "0x69dd9f9a",
          "transactionHash": "0x829db0a36aa6cf0ff0e90a2e0be0dc94c86ad78431af30fc89a9f621497b21a9",
          "transactionIndex": "0x0",
          "logIndex": "0x0",
          "removed": false
        },
        {
          "address": "0xc02aaa39b223fe8d0a0e5c4f27ead9083c756cc2",
          "topics": [
            "0xddf252ad1be2c89b69c2b068fc378daa952ba7f163c4a11628f55a4df523b3ef",
            "0x000000000000000000000000646dc5fc4009c4c84a424b6ae0f494b374bae1ce",
            "0x000000000000000000000000cbe5659df21cbcfabe4da962f7a9081f26b3ed82"
          ],
          "data": "0x000000000000000000000000000000000000000000000000006d086474282000",
          "blockHash": "0x3919f21811faf22acc67be1e6a3c42e3dc80b4c635778d9f0e414c221605b31b",
          "blockNumber": "0x17b831a",
          "blockTimestamp": "0x69dd9f9a",
          "transactionHash": "0x829db0a36aa6cf0ff0e90a2e0be0dc94c86ad78431af30fc89a9f621497b21a9",
          "transactionIndex": "0x0",
          "logIndex": "0x1",
          "removed": false
        },
        {
          "address": "0xa5f104f8f78d5ba9aec4a383c0927337fd4e997b",
          "topics": [
            "0xddf252ad1be2c89b69c2b068fc378daa952ba7f163c4a11628f55a4df523b3ef",
            "0x000000000000000000000000cbe5659df21cbcfabe4da962f7a9081f26b3ed82",
            "0x000000000000000000000000646dc5fc4009c4c84a424b6ae0f494b374bae1ce",
            "0x0000000000000000000000000000000000000000000000000000000000000095"
          ],
          "data": "0x",
          "blockHash": "0x3919f21811faf22acc67be1e6a3c42e3dc80b4c635778d9f0e414c221605b31b",
          "blockNumber": "0x17b831a",
          "blockTimestamp": "0x69dd9f9a",
          "transactionHash": "0x829db0a36aa6cf0ff0e90a2e0be0dc94c86ad78431af30fc89a9f621497b21a9",
          "transactionIndex": "0x0",
          "logIndex": "0x2",
          "removed": false
        },
        {
          "address": "0x8fa71914948544c60e3379064567dcf0e6564d27",
          "topics": [
            "0xc0ac3eb1e8caef05b202043f34de8e3173fab712167584f7a2a9f4c302bd0e9c",
            "0x3638ef88b72ea7274cdb0f544314ef8cdb4ed10ff0c55e11d304361a9402cb7a",
            "0x000000000000000000000000a5f104f8f78d5ba9aec4a383c0927337fd4e997b",
            "0x0000000000000000000000000000000000000000000000000000000000000095"
          ],
          "data": "0x000000000000000000000000cbe5659df21cbcfabe4da962f7a9081f26b3ed82000000000000000000000000646dc5fc4009c4c84a424b6ae0f494b374bae1ce000000000000000000000000c02aaa39b223fe8d0a0e5c4f27ead9083c756cc2000000000000000000000000000000000000000000000000006e2255f4098000",
          "blockHash": "0x3919f21811faf22acc67be1e6a3c42e3dc80b4c635778d9f0e414c221605b31b",
          "blockNumber": "0x17b831a",
          "blockTimestamp": "0x69dd9f9a",
          "transactionHash": "0x829db0a36aa6cf0ff0e90a2e0be0dc94c86ad78431af30fc89a9f621497b21a9",
          "transactionIndex": "0x0",
          "logIndex": "0x3",
          "removed": false
        }
      ],
      "logsBloom": "0x00000000000000000000010000000000000000000002000000000000000000000000000000000000000000000000000002000000090000000000000000100000000002000000000000010008000000000000000080000000080000000000800000000000000000000005000000000000000100000000000000000010200000000800000000040000000004000000000000000000000000000000000000000000000000200000000400000000000000000000000000000080000000000000000000000002000004000400000000080000000000400000020080000000000000000100200000000000000000000000000000000000004000000000000000000000",
      "type": "0x2",
      "transactionHash": "0x829db0a36aa6cf0ff0e90a2e0be0dc94c86ad78431af30fc89a9f621497b21a9",
      "transactionIndex": "0x0",
      "blockHash": "0x3919f21811faf22acc67be1e6a3c42e3dc80b4c635778d9f0e414c221605b31b",
      "blockNumber": "0x17b831a",
      "gasUsed": "0x20125",
      "effectiveGasPrice": "0x1ba81c",
      "blobGasPrice": "0x1",
      "from": "0x646dc5fc4009c4c84a424b6ae0f494b374bae1ce",
      "to": "0x8fa71914948544c60e3379064567dcf0e6564d27",
      "contractAddress": null
    }
  ],
  "libraries": [],
  "pending": [],
  "returns": {},
  "timestamp": 1778506403492,
  "chain": 31337,
  "commit": "59e30a9"
}