{
  "transactions": [
    {
      "hash": "0x5d80b1a46e57b4bfae01f0c96e3e187f82138cf0dca37bf5f07f5fd6734dc22d",
      "transactionType": "CALL",
      "contractName": null,
      "contractAddress": "0x8fa71914948544c60e3379064567dcf0e6564d27",
      "function": "settle((uint256,address),(uint8,bool,address,uint256,address,uint256,address,uint64,uint64,uint256),(uint8,bytes32,bytes32))",
      "arguments": [
        "(207, 0xe3745C151faB59B0740f4312b2B027F07D096639)",
        "(1, false, 0xA5f104F8f78d5ba9AEC4a383c0927337Fd4E997B, 207, 0xC02aaA39b223FE8D0A0e5C4F27eAD9083C756Cc2, 20000000000000000, 0x08312E82df563A1639b81f49bb41247759700e30, 1773421575, 1778752711, 21)",
        "(28, 0x110977eb5e88404e21a22a40f31eb56a97977770043eab73a99c18d76c373b15, 0x4b45b14eb190504dc738f823bfd6bad86dcd5f5cd322ec7674f40bf74918ed2f)"
      ],
      "transaction": {
        "from": "0xe3745c151fab59b0740f4312b2b027f07d096639",
        "to": "0x8fa71914948544c60e3379064567dcf0e6564d27",
        "gas": "0x2ef8d",
        "value": "0x0",
        "input": "0x3bae3e7900000000000000000000000000000000000000000000000000000000000000cf000000000000000000000000e3745c151fab59b0740f4312b2b027f07d09663900000000000000000000000000000000000000000000000000000000000000010000000000000000000000000000000000000000000000000000000000000000000000000000000000000000a5f104f8f78d5ba9aec4a383c0927337fd4e997b00000000000000000000000000000000000000000000000000000000000000cf000000000000000000000000c02aaa39b223fe8d0a0e5c4f27ead9083c756cc200000000000000000000000000000000000000000000000000470de4df82000000000000000000000000000008312e82df563a1639b81f49bb41247759700e300000000000000000000000000000000000000000000000000000000069b44407000000000000000000000000000000000000000000000000000000006a059cc70000000000000000000000000000000000000000000000000000000000000015000000000000000000000000000000000000000000000000000000000000001c110977eb5e88404e21a22a40f31eb56a97977770043eab73a99c18d76c373b154b45b14eb190504dc738f823bfd6bad86dcd5f5cd322ec7674f40bf74918ed2f",
        "nonce": "0x54",
        "chainId": "0x7a69"
      },
      "additionalContracts": [],
      "isFixedGasLimit": false
    }
  ],
  "receipts": [
    {
      "status": "0x1",
      "cumulativeGasUsed": "0x201e2",
      "logs": [
        {
          "address": "0xc02aaa39b223fe8d0a0e5c4f27ead9083c756cc2",
          "topics": [
            "0xddf252ad1be2c89b69c2b068fc378daa952ba7f163c4a11628f55a4df523b3ef",
            "0x00000000000000000000000008312e82df563a1639b81f49bb41247759700e30",
            "0x0000000000000000000000001804c8ab1f12e6bbf3894d4083f33e07309d1f38"
          ],
          "data": "0x0000000000000000000000000000000000000000000000000000b5e620f48000",
          "blockHash": "0xc988643e19c9c8ef5b9cc238ed13619b969967bee58e7a78a700c0da1ea85328",
          "blockNumber": "0x17b8385",
          "blockTimestamp": "0x69f99918",
          "transactionHash": "0x5d80b1a46e57b4bfae01f0c96e3e187f82138cf0dca37bf5f07f5fd6734dc22d",
          "transactionIndex": "0x0",
          "logIndex": "0x0",
          "removed": false
        },
        {
          "address": "0xc02aaa39b223fe8d0a0e5c4f27ead9083c756cc2",
          "topics": [
            "0xddf252ad1be2c89b69c2b068fc378daa952ba7f163c4a11628f55a4df523b3ef",
            "0x00000000000000000000000008312e82df563a1639b81f49bb41247759700e30",
            "0x000000000000000000000000e3745c151fab59b0740f4312b2b027f07d096639"
          ],
          "data": "0x000000000000000000000000000000000000000000000000004657febe8d8000",
          "blockHash": "0xc988643e19c9c8ef5b9cc238ed13619b969967bee58e7a78a700c0da1ea85328",
          "blockNumber": "0x17b8385",
          "blockTimestamp": "0x69f99918",
          "transactionHash": "0x5d80b1a46e57b4bfae01f0c96e3e187f82138cf0dca37bf5f07f5fd6734dc22d",
          "transactionIndex": "0x0",
          "logIndex": "0x1",
          "removed": false
        },
        {
          "address": "0xa5f104f8f78d5ba9aec4a383c0927337fd4e997b",
          "topics": [
            "0xddf252ad1be2c89b69c2b068fc378daa952ba7f163c4a11628f55a4df523b3ef",
            "0x000000000000000000000000e3745c151fab59b0740f4312b2b027f07d096639",
            "0x00000000000000000000000008312e82df563a1639b81f49bb41247759700e30",
            "0x00000000000000000000000000000000000000000000000000000000000000cf"
          ],
          "data": "0x",
          "blockHash": "0xc988643e19c9c8ef5b9cc238ed13619b969967bee58e7a78a700c0da1ea85328",
          "blockNumber": "0x17b8385",
          "blockTimestamp": "0x69f99918",
          "transactionHash": "0x5d80b1a46e57b4bfae01f0c96e3e187f82138cf0dca37bf5f07f5fd6734dc22d",
          "transactionIndex": "0x0",
          "logIndex": "0x2",
          "removed": false
        },
        {
          "address": "0x8fa71914948544c60e3379064567dcf0e6564d27",
          "topics": [
            "0xc0ac3eb1e8caef05b202043f34de8e3173fab712167584f7a2a9f4c302bd0e9c",
            "0x6f8044671b83ecffd7dcf2ea6c81a210c46e0b3506024beb05e8b74331a4df1d",
            "0x000000000000000000000000a5f104f8f78d5ba9aec4a383c0927337fd4e997b",
            "0x00000000000000000000000000000000000000000000000000000000000000cf"
          ],
          "data": "0x000000000000000000000000e3745c151fab59b0740f4312b2b027f07d09663900000000000000000000000008312e82df563a1639b81f49bb41247759700e30000000000000000000000000c02aaa39b223fe8d0a0e5c4f27ead9083c756cc200000000000000000000000000000000000000000000000000470de4df820000",
          "blockHash": "0xc988643e19c9c8ef5b9cc238ed13619b969967bee58e7a78a700c0da1ea85328",
          "blockNumber": "0x17b8385",
          "blockTimestamp": "0x69f99918",
          "transactionHash": "0x5d80b1a46e57b4bfae01f0c96e3e187f82138cf0dca37bf5f07f5fd6734dc22d",
          "transactionIndex": "0x0",
          "logIndex": "0x3",
          "removed": false
        }
      ],
      "logsBloom": "0x00000000000000000000010001000000000000000101000000000000000000000000000000100000000000000000000042000000080000000000000000100000000000000000000000010008000000000000000000000000080000000000000000000000000000000101000000000000000000000000000000000010200000000800000000040000000004000000000000000000000000040000000000000000000000200000800400000000000000000000000000000080000000000000000000000002000004000000000000000000000000000010000082000040000000000100200000000000000000000000000000000000004000000000000000000000",
      "type": "0x2",
      "transactionHash": "0x5d80b1a46e57b4bfae01f0c96e3e187f82138cf0dca37bf5f07f5fd6734dc22d",
      "transactionIndex": "0x0",
      "blockHash": "0xc988643e19c9c8ef5b9cc238ed13619b969967bee58e7a78a700c0da1ea85328",
      "blockNumber": "0x17b8385",
      "gasUsed": "0x201e2",
      "effectiveGasPrice": "0x1ba81c",
      "blobGasPrice": "0x1",
      "from": "0xe3745c151fab59b0740f4312b2b027f07d096639",
      "to": "0x8fa71914948544c60e3379064567dcf0e6564d27",
      "contractAddress": null
    }
  ],
  "libraries": [],
  "pending": [],
  "returns": {},
  "timestamp": 1778506519538,
  "chain": 31337,
  "commit": "59e30a9"
}