{
  "transactions": [
    {
      "hash": "0x1a4d70fed4a0b60529972da18f9cf6e022837d4f19df07f328df7604b9fac9ee",
      "transactionType": "CALL",
      "contractName": null,
      "contractAddress": "0x8fa71914948544c60e3379064567dcf0e6564d27",
      "function": "settle((uint256,address),(uint8,bool,address,uint256,address,uint256,address,uint64,uint64,uint256),(uint8,bytes32,bytes32))",
      "arguments": [
        "(276, 0x4b75AeC40561C03e03d4D1C421dF194a3031A134)",
        "(1, false, 0xA5f104F8f78d5ba9AEC4a383c0927337Fd4E997B, 276, 0xC02aaA39b223FE8D0A0e5C4F27eAD9083C756Cc2, 51000000000000000, 0x1302F142Fc55B165647d3Bd5dec227f569A2A907, 1772319050, 1779855236, 16)",
        "(27, 0x807cae452c3a26c361de642a92bbafa44dcc7ce4b1ef8d666097fafa3063ed65, 0x501e2b7f88e052730e62098d26d51c4ab7ce3019f37384a49c6a4f0eb603a110)"
      ],
      "transaction": {
        "from": "0x4b75aec40561c03e03d4d1c421df194a3031a134",
        "to": "0x8fa71914948544c60e3379064567dcf0e6564d27",
        "gas": "0x2efa4",
        "value": "0x0",
        "input": "0x3bae3e7900000000000000000000000000000000000000000000000000000000000001140000000000000000000000004b75aec40561c03e03d4d1c421df194a3031a13400000000000000000000000000000000000000000000000000000000000000010000000000000000000000000000000000000000000000000000000000000000000000000000000000000000a5f104f8f78d5ba9aec4a383c0927337fd4e997b0000000000000000000000000000000000000000000000000000000000000114000000000000000000000000c02aaa39b223fe8d0a0e5c4f27ead9083c756cc200000000000000000000000000000000000000000000000000b5303ad38b80000000000000000000000000001302f142fc55b165647d3bd5dec227f569a2a9070000000000000000000000000000000000000000000000000000000069a3714a000000000000000000000000000000000000000000000000000000006a166f840000000000000000000000000000000000000000000000000000000000000010000000000000000000000000000000000000000000000000000000000000001b807cae452c3a26c361de642a92bbafa44dcc7ce4b1ef8d666097fafa3063ed65501e2b7f88e052730e62098d26d51c4ab7ce3019f37384a49c6a4f0eb603a110",
        "nonce": "0x2d",
        "chainId": "0x7a69"
      },
      "additionalContracts": [],
      "isFixedGasLimit": false
    }
  ],
  "receipts": [
    {
      "status": "0x1",
      "cumulativeGasUsed": "0x201f2",
      "logs": [
        {
          "address": "0xc02aaa39b223fe8d0a0e5c4f27ead9083c756cc2",
          "topics": [
            "0xddf252ad1be2c89b69c2b068fc378daa952ba7f163c4a11628f55a4df523b3ef",
            "0x0000000000000000000000001302f142fc55b165647d3bd5dec227f569a2a907",
            "0x0000000000000000000000001804c8ab1f12e6bbf3894d4083f33e07309d1f38"
          ],
          "data": "0x0000000000000000000000000000000000000000000000000001cfd7a0d5e000",
          "blockHash": "0x6f4f1f51b407c0f400c743d356b78c37fc17c7d3113327aea993b2f8d7585345",
          "blockNumber": "0x17b839d",
          "blockTimestamp": "0x69ff6d3a",
          "transactionHash": "0x1a4d70fed4a0b60529972da18f9cf6e022837d4f19df07f328df7604b9fac9ee",
          "transactionIndex": "0x0",
          "logIndex": "0x0",
          "removed": false
        },
        {
          "address": "0xc02aaa39b223fe8d0a0e5c4f27ead9083c756cc2",
          "topics": [
            "0xddf252ad1be2c89b69c2b068fc378daa952ba7f163c4a11628f55a4df523b3ef",
            "0x0000000000000000000000001302f142fc55b165647d3bd5dec227f569a2a907",
            "0x0000000000000000000000004b75aec40561c03e03d4d1c421df194a3031a134"
          ],
          "data": "0x00000000000000000000000000000000000000000000000000b3606332b5a000",
          "blockHash": "0x6f4f1f51b407c0f400c743d356b78c37fc17c7d3113327aea993b2f8d7585345",
          "blockNumber": "0x17b839d",
          "blockTimestamp": "0x69ff6d3a",
          "transactionHash": "0x1a4d70fed4a0b60529972da18f9cf6e022837d4f19df07f328df7604b9fac9ee",
          "transactionIndex": "0x0",
          "logIndex": "0x1",
          "removed": false
        },
        {
          "address": "0xa5f104f8f78d5ba9aec4a383c0927337fd4e997b",
          "topics": [
            "0xddf252ad1be2c89b69c2b068fc378daa952ba7f163c4a11628f55a4df523b3ef",
            "0x0000000000000000000000004b75aec40561c03e03d4d1c421df194a3031a134",
            "0x0000000000000000000000001302f142fc55b165647d3bd5dec227f569a2a907",
            "0x0000000000000000000000000000000000000000000000000000000000000114"
          ],
          "data": "0x",
          "blockHash": "0x6f4f1f51b407c0f400c743d356b78c37fc17c7d3113327aea993b2f8d7585345",
          "blockNumber": "0x17b839d",
          "blockTimestamp": "0x69ff6d3a",
          "transactionHash": "0x1a4d70fed4a0b60529972da18f9cf6e022837d4f19df07f328df7604b9fac9ee",
          "transactionIndex": "0x0",
          "logIndex": "0x2",
          "removed": false
        },
        {
          "address": "0x8fa71914948544c60e3379064567dcf0e6564d27",
          "topics": [
            "0xc0ac3eb1e8caef05b202043f34de8e3173fab712167584f7a2a9f4c302bd0e9c",
            "0x34c65450992a4b42f5efbb02ea97c8322135a100c355c12da8b446cc2f2cf37f",
            "0x000000000000000000000000a5f104f8f78d5ba9aec4a383c0927337fd4e997b",
            "0x0000000000000000000000000000000000000000000000000000000000000114"
          ],
          "data": "0x0000000000000000000000004b75aec40561c03e03d4d1c421df194a3031a1340000000000000000000000001302f142fc55b165647d3bd5dec227f569a2a907000000000000000000000000c02aaa39b223fe8d0a0e5c4f27ead9083c756cc200000000000000000000000000000000000000000000000000b5303ad38b8000",
          "blockHash": "0x6f4f1f51b407c0f400c743d356b78c37fc17c7d3113327aea993b2f8d7585345",
          "blockNumber": "0x17b839d",
          "blockTimestamp": "0x69ff6d3a",
          "transactionHash": "0x1a4d70fed4a0b60529972da18f9cf6e022837d4f19df07f328df7604b9fac9ee",
          "transactionIndex": "0x0",
          "logIndex": "0x3",
          "removed": false
        }
      ],
      "logsBloom": "0x00000000002000000000010000000000000000000000000000000000000000000000000000000000001000000000000002000000080000000000000000100000000000000000000000010008000000000000000000000000080000000000000000000000000000000001000000000000000000000000000000000010200000000800000000041000000004000000000000000000000000000000004000002000000000200000000400000000000500008000000000000080020000000000000000000002000004000000000200000000000000000000000080000000000010000100200000000000000040000000000000000000000000000000000000000000",
      "type": "0x2",
      "transactionHash": "0x1a4d70fed4a0b60529972da18f9cf6e022837d4f19df07f328df7604b9fac9ee",
      "transactionIndex": "0x0",
      "blockHash": "0x6f4f1f51b407c0f400c743d356b78c37fc17c7d3113327aea993b2f8d7585345",
      "blockNumber": "0x17b839d",
      "gasUsed": "0x201f2",
      "effectiveGasPrice": "0x1ba81c",
      "blobGasPrice": "0x1",
      "from": "0x4b75aec40561c03e03d4d1c421df194a3031a134",
      "to": "0x8fa71914948544c60e3379064567dcf0e6564d27",
      "contractAddress": null
    }
  ],
  "libraries": [],
  "pending": [],
  "returns": {},
  "timestamp": 1778506546718,
  "chain": 31337,
  "commit": "59e30a9"
}