{
  "transactions": [
    {
      "hash": "0xf607ba7e16156791ac5fe8347949fa54b5246866719c1320db26bfee56815809",
      "transactionType": "CALL",
      "contractName": null,
      "contractAddress": "0x8fa71914948544c60e3379064567dcf0e6564d27",
      "function": "settle((uint256,address),(uint8,bool,address,uint256,address,uint256,address,uint64,uint64,uint256),(uint8,bytes32,bytes32))",
      "arguments": [
        "(465, 0xcbe5659df21Cbcfabe4da962F7a9081F26B3ed82)",
        "(1, false, 0xA5f104F8f78d5ba9AEC4a383c0927337Fd4E997B, 465, 0xC02aaA39b223FE8D0A0e5C4F27eAD9083C756Cc2, 207000000000000000, 0x1302F142Fc55B165647d3Bd5dec227f569A2A907, 1773184684, 1778878578, 3)",
        "(27, 0xcf22f0e6d33d9c5b360e2349784839cb913626133e573fcccb7feac3a146dfb7, 0x7a58c39f715d4f8a6b2f9a5d0003e2bf751476f5c69a9594b1515a3a7b60eed2)"
      ],
      "transaction": {
        "from": "0xcbe5659df21cbcfabe4da962f7a9081f26b3ed82",
        "to": "0x8fa71914948544c60e3379064567dcf0e6564d27",
        "gas": "0x2efa4",
        "value": "0x0",
        "input": "0x3bae3e7900000000000000000000000000000000000000000000000000000000000001d1000000000000000000000000cbe5659df21cbcfabe4da962f7a9081f26b3ed8200000000000000000000000000000000000000000000000000000000000000010000000000000000000000000000000000000000000000000000000000000000000000000000000000000000a5f104f8f78d5ba9aec4a383c0927337fd4e997b00000000000000000000000000000000000000000000000000000000000001d1000000000000000000000000c02aaa39b223fe8d0a0e5c4f27ead9083c756cc200000000000000000000000000000000000000000000000002df69673c8180000000000000000000000000001302f142fc55b165647d3bd5dec227f569a2a9070000000000000000000000000000000000000000000000000000000069b0a6ac000000000000000000000000000000000000000000000000000000006a0788720000000000000000000000000000000000000000000000000000000000000003000000000000000000000000000000000000000000000000000000000000001bcf22f0e6d33d9c5b360e2349784839cb913626133e573fcccb7feac3a146dfb77a58c39f715d4f8a6b2f9a5d0003e2bf751476f5c69a9594b1515a3a7b60eed2",
        "nonce": "0x3d",
        "chainId": "0x7a69"
      },
      "additionalContracts": [],
      "isFixedGasLimit": false
    }
  ],
  "receipts": [
    {
      "status": "0x1",
      "cumulativeGasUsed": "0x201f2",
      "logs": [
        {
          "address": "0xc02aaa39b223fe8d0a0e5c4f27ead9083c756cc2",
          "topics": [
            "0xddf252ad1be2c89b69c2b068fc378daa952ba7f163c4a11628f55a4df523b3ef",
            "0x0000000000000000000000001302f142fc55b165647d3bd5dec227f569a2a907",
            "0x0000000000000000000000001804c8ab1f12e6bbf3894d4083f33e07309d1f38"
          ],
          "data": "0x00000000000000000000000000000000000000000000000000075aa76eaf6000",
          "blockHash": "0xbf153db451188fcd3e8b306a16624c89e6330069034a2ff305b6ed4b4faf4583",
          "blockNumber": "0x17b7116",
          "blockTimestamp": "0x69ddcd46",
          "transactionHash": "0xf607ba7e16156791ac5fe8347949fa54b5246866719c1320db26bfee56815809",
          "transactionIndex": "0x0",
          "logIndex": "0x0",
          "removed": false
        },
        {
          "address": "0xc02aaa39b223fe8d0a0e5c4f27ead9083c756cc2",
          "topics": [
            "0xddf252ad1be2c89b69c2b068fc378daa952ba7f163c4a11628f55a4df523b3ef",
            "0x0000000000000000000000001302f142fc55b165647d3bd5dec227f569a2a907",
            "0x000000000000000000000000cbe5659df21cbcfabe4da962f7a9081f26b3ed82"
          ],
          "data": "0x00000000000000000000000000000000000000000000000002d80ebfcdd22000",
          "blockHash": "0xbf153db451188fcd3e8b306a16624c89e6330069034a2ff305b6ed4b4faf4583",
          "blockNumber": "0x17b7116",
          "blockTimestamp": "0x69ddcd46",
          "transactionHash": "0xf607ba7e16156791ac5fe8347949fa54b5246866719c1320db26bfee56815809",
          "transactionIndex": "0x0",
          "logIndex": "0x1",
          "removed": false
        },
        {
          "address": "0xa5f104f8f78d5ba9aec4a383c0927337fd4e997b",
          "topics": [
            "0xddf252ad1be2c89b69c2b068fc378daa952ba7f163c4a11628f55a4df523b3ef",
            "0x000000000000000000000000cbe5659df21cbcfabe4da962f7a9081f26b3ed82",
            "0x0000000000000000000000001302f142fc55b165647d3bd5dec227f569a2a907",
            "0x00000000000000000000000000000000000000000000000000000000000001d1"
          ],
          "data": "0x",
          "blockHash": "0xbf153db451188fcd3e8b306a16624c89e6330069034a2ff305b6ed4b4faf4583",
          "blockNumber": "0x17b7116",
          "blockTimestamp": "0x69ddcd46",
          "transactionHash": "0xf607ba7e16156791ac5fe8347949fa54b5246866719c1320db26bfee56815809",
          "transactionIndex": "0x0",
          "logIndex": "0x2",
          "removed": false
        },
        {
          "address": "0x8fa71914948544c60e3379064567dcf0e6564d27",
          "topics": [
            "0xc0ac3eb1e8caef05b202043f34de8e3173fab712167584f7a2a9f4c302bd0e9c",
            "0xb4a35977e46b165e568a517f59dbe0353e26fcd2944de6aa46811e90cc6c3ea5",
            "0x000000000000000000000000a5f104f8f78d5ba9aec4a383c0927337fd4e997b",
            "0x00000000000000000000000000000000000000000000000000000000000001d1"
          ],
          "data": "0x000000000000000000000000cbe5659df21cbcfabe4da962f7a9081f26b3ed820000000000000000000000001302f142fc55b165647d3bd5dec227f569a2a907000000000000000000000000c02aaa39b223fe8d0a0e5c4f27ead9083c756cc200000000000000000000000000000000000000000000000002df69673c818000",
          "blockHash": "0xbf153db451188fcd3e8b306a16624c89e6330069034a2ff305b6ed4b4faf4583",
          "blockNumber": "0x17b7116",
          "blockTimestamp": "0x69ddcd46",
          "transactionHash": "0xf607ba7e16156791ac5fe8347949fa54b5246866719c1320db26bfee56815809",
          "transactionIndex": "0x0",
          "logIndex": "0x3",
          "removed": false
        }
      ],
      "logsBloom": "0x00000000000000000000010000000000000000000000000000000000000000200000000000000000000000000000000002000000080000000000000000100000000000000000000000010008001000000000000000000000080000000000000000000000000000000001000000000000000000000000000000000010200000000840000000040000000004000000000040000000000000000000000000000000000000200000000400000000000100000000000000000080000000000000000000000002000004000400000200000000000000000000020080000000010000000100200000000000000040000000000000000000004000000000040000000000",
      "type": "0x2",
      "transactionHash": "0xf607ba7e16156791ac5fe8347949fa54b5246866719c1320db26bfee56815809",
      "transactionIndex": "0x0",
      "blockHash": "0xbf153db451188fcd3e8b306a16624c89e6330069034a2ff305b6ed4b4faf4583",
      "blockNumber": "0x17b7116",
      "gasUsed": "0x201f2",
      "effectiveGasPrice": "0x154c2b",
      "blobGasPrice": "0x1",
      "from": "0xcbe5659df21cbcfabe4da962f7a9081f26b3ed82",
      "to": "0x8fa71914948544c60e3379064567dcf0e6564d27",
      "contractAddress": null
    }
  ],
  "libraries": [],
  "pending": [],
  "returns": {},
  "timestamp": 1778450901736,
  "chain": 31337,
  "commit": "f87d399"
}