{
  "transactions": [
    {
      "hash": "0xde41cef41c6f54fe87ceefe8ef5282a43b57095c75f6248317bdafc997d57935",
      "transactionType": "CALL",
      "contractName": null,
      "contractAddress": "0x73973d222c3fda5b2563d269da9e19cb125000f4",
      "function": "settle((uint256,address),(uint8,bool,address,uint256,address,uint256,address,uint64,uint64,uint256),(uint8,bytes32,bytes32))",
      "arguments": [
        "(423, 0xE233420d38D286C2F2Cf8dEe6564F132FBDB09DB)",
        "(1, false, 0x38D4dE42C9c5640A2799B372D27B01957E0a3673, 423, 0xC02aaA39b223FE8D0A0e5C4F27eAD9083C756Cc2, 36000000000000000, 0x2c2dbA75492E0C4A1D10B41303167aEC59586C9c, 1772770873, 1779294765, 8)",
        "(27, 0x2725932758697069faea1965cdee476540ebffad2225ded1c55b7f5a67ce09ac, 0x49bfc514955afa300972e7ddc14f63b6fd5f6e8e168362dac7ea753163d15e67)"
      ],
      "transaction": {
        "from": "0xe233420d38d286c2f2cf8dee6564f132fbdb09db",
        "to": "0x73973d222c3fda5b2563d269da9e19cb125000f4",
        "gas": "0x2c5d2",
        "value": "0x0",
        "input": "0x3bae3e7900000000000000000000000000000000000000000000000000000000000001a7000000000000000000000000e233420d38d286c2f2cf8dee6564f132fbdb09db0000000000000000000000000000000000000000000000000000000000000001000000000000000000000000000000000000000000000000000000000000000000000000000000000000000038d4de42c9c5640a2799b372d27b01957e0a367300000000000000000000000000000000000000000000000000000000000001a7000000000000000000000000c02aaa39b223fe8d0a0e5c4f27ead9083c756cc2000000000000000000000000000000000000000000000000007fe5cf2bea00000000000000000000000000002c2dba75492e0c4a1d10b41303167aec59586c9c0000000000000000000000000000000000000000000000000000000069aa5639000000000000000000000000000000000000000000000000000000006a0de22d0000000000000000000000000000000000000000000000000000000000000008000000000000000000000000000000000000000000000000000000000000001b2725932758697069faea1965cdee476540ebffad2225ded1c55b7f5a67ce09ac49bfc514955afa300972e7ddc14f63b6fd5f6e8e168362dac7ea753163d15e67",
        "nonce": "0x70",
        "chainId": "0x7a69"
      },
      "additionalContracts": [],
      "isFixedGasLimit": false
    }
  ],
  "receipts": [
    {
      "status": "0x1",
      "cumulativeGasUsed": "0x201e6",
      "logs": [
        {
          "address": "0xc02aaa39b223fe8d0a0e5c4f27ead9083c756cc2",
          "topics": [
            "0xddf252ad1be2c89b69c2b068fc378daa952ba7f163c4a11628f55a4df523b3ef",
            "0x0000000000000000000000002c2dba75492e0c4a1d10b41303167aec59586c9c",
            "0x0000000000000000000000001804c8ab1f12e6bbf3894d4083f33e07309d1f38"
          ],
          "data": "0x0000000000000000000000000000000000000000000000000001476b081e8000",
          "blockHash": "0x64e64255140c07fd0ced51decdaded92aa9fd5d500b40dde030a1315927811fd",
          "blockNumber": "0x17b73d1",
          "blockTimestamp": "0x69e9a323",
          "transactionHash": "0xde41cef41c6f54fe87ceefe8ef5282a43b57095c75f6248317bdafc997d57935",
          "transactionIndex": "0x0",
          "logIndex": "0x0",
          "removed": false
        },
        {
          "address": "0xc02aaa39b223fe8d0a0e5c4f27ead9083c756cc2",
          "topics": [
            "0xddf252ad1be2c89b69c2b068fc378daa952ba7f163c4a11628f55a4df523b3ef",
            "0x0000000000000000000000002c2dba75492e0c4a1d10b41303167aec59586c9c",
            "0x000000000000000000000000e233420d38d286c2f2cf8dee6564f132fbdb09db"
          ],
          "data": "0x000000000000000000000000000000000000000000000000007e9e6423cb8000",
          "blockHash": "0x64e64255140c07fd0ced51decdaded92aa9fd5d500b40dde030a1315927811fd",
          "blockNumber": "0x17b73d1",
          "blockTimestamp": "0x69e9a323",
          "transactionHash": "0xde41cef41c6f54fe87ceefe8ef5282a43b57095c75f6248317bdafc997d57935",
          "transactionIndex": "0x0",
          "logIndex": "0x1",
          "removed": false
        },
        {
          "address": "0x38d4de42c9c5640a2799b372d27b01957e0a3673",
          "topics": [
            "0xddf252ad1be2c89b69c2b068fc378daa952ba7f163c4a11628f55a4df523b3ef",
            "0x000000000000000000000000e233420d38d286c2f2cf8dee6564f132fbdb09db",
            "0x0000000000000000000000002c2dba75492e0c4a1d10b41303167aec59586c9c",
            "0x00000000000000000000000000000000000000000000000000000000000001a7"
          ],
          "data": "0x",
          "blockHash": "0x64e64255140c07fd0ced51decdaded92aa9fd5d500b40dde030a1315927811fd",
          "blockNumber": "0x17b73d1",
          "blockTimestamp": "0x69e9a323",
          "transactionHash": "0xde41cef41c6f54fe87ceefe8ef5282a43b57095c75f6248317bdafc997d57935",
          "transactionIndex": "0x0",
          "logIndex": "0x2",
          "removed": false
        },
        {
          "address": "0x73973d222c3fda5b2563d269da9e19cb125000f4",
          "topics": [
            "0xc0ac3eb1e8caef05b202043f34de8e3173fab712167584f7a2a9f4c302bd0e9c",
            "0x9fa46566f50014aeec81145c212ed4d80cb6165015eb242278bdbea558f22f1a",
            "0x00000000000000000000000038d4de42c9c5640a2799b372d27b01957e0a3673",
            "0x00000000000000000000000000000000000000000000000000000000000001a7"
          ],
          "data": "0x000000000000000000000000e233420d38d286c2f2cf8dee6564f132fbdb09db0000000000000000000000002c2dba75492e0c4a1d10b41303167aec59586c9c000000000000000000000000c02aaa39b223fe8d0a0e5c4f27ead9083c756cc2000000000000000000000000000000000000000000000000007fe5cf2bea0000",
          "blockHash": "0x64e64255140c07fd0ced51decdaded92aa9fd5d500b40dde030a1315927811fd",
          "blockNumber": "0x17b73d1",
          "blockTimestamp": "0x69e9a323",
          "transactionHash": "0xde41cef41c6f54fe87ceefe8ef5282a43b57095c75f6248317bdafc997d57935",
          "transactionIndex": "0x0",
          "logIndex": "0x3",
          "removed": false
        }
      ],
      "logsBloom": "0x00000000100000000000000000000000000000000002000000000000000000000000000080000000000000000000020002000000080000000004100800100000000200000000001021000008000000000000000000000000000000000000000000000001000004000001000000000000000000000000000000000410000000000000000000000000000004000000000000000000000008000000000000000000000000000000000000000000000000000000000000000080400000000000000000000012000204000000000000000000000000000002000000000000000000000110200000000000000000004000000000000000000000000000000000000000",
      "type": "0x2",
      "transactionHash": "0xde41cef41c6f54fe87ceefe8ef5282a43b57095c75f6248317bdafc997d57935",
      "transactionIndex": "0x0",
      "blockHash": "0x64e64255140c07fd0ced51decdaded92aa9fd5d500b40dde030a1315927811fd",
      "blockNumber": "0x17b73d1",
      "gasUsed": "0x201e6",
      "effectiveGasPrice": "0xf4248",
      "blobGasPrice": "0x1",
      "from": "0xe233420d38d286c2f2cf8dee6564f132fbdb09db",
      "to": "0x73973d222c3fda5b2563d269da9e19cb125000f4",
      "contractAddress": null
    }
  ],
  "libraries": [],
  "pending": [],
  "returns": {},
  "timestamp": 1778453783919,
  "chain": 31337,
  "commit": "f87d399"
}