{
  "transactions": [
    {
      "hash": "0xd2c37131d57a40ac020bf11d7749087c2532ecde48d927fc474d0259e5e2377e",
      "transactionType": "CALL",
      "contractName": null,
      "contractAddress": "0x8fa71914948544c60e3379064567dcf0e6564d27",
      "function": "settle((uint256,address),(uint8,bool,address,uint256,address,uint256,address,uint64,uint64,uint256),(uint8,bytes32,bytes32))",
      "arguments": [
        "(33, 0x646dC5Fc4009C4C84a424B6aE0f494b374bAE1Ce)",
        "(1, false, 0xA5f104F8f78d5ba9AEC4a383c0927337Fd4E997B, 33, 0xC02aaA39b223FE8D0A0e5C4F27eAD9083C756Cc2, 99000000000000000, 0xcbe5659df21Cbcfabe4da962F7a9081F26B3ed82, 1773298297, 1778875989, 17)",
        "(28, 0xfe0829cb82dfdda255fa001fe6a92749297c990321a33a36ed163c47e8310b31, 0x2c8b218d9587ea39612a99d05dc0efa6fa00e1b92df2f299cb5a6c8d8441672b)"
      ],
      "transaction": {
        "from": "0x646dc5fc4009c4c84a424b6ae0f494b374bae1ce",
        "to": "0x8fa71914948544c60e3379064567dcf0e6564d27",
        "gas": "0x2ef8d",
        "value": "0x0",
        "input": "0x3bae3e790000000000000000000000000000000000000000000000000000000000000021000000000000000000000000646dc5fc4009c4c84a424b6ae0f494b374bae1ce00000000000000000000000000000000000000000000000000000000000000010000000000000000000000000000000000000000000000000000000000000000000000000000000000000000a5f104f8f78d5ba9aec4a383c0927337fd4e997b0000000000000000000000000000000000000000000000000000000000000021000000000000000000000000c02aaa39b223fe8d0a0e5c4f27ead9083c756cc2000000000000000000000000000000000000000000000000015fb7f9b8c38000000000000000000000000000cbe5659df21cbcfabe4da962f7a9081f26b3ed820000000000000000000000000000000000000000000000000000000069b26279000000000000000000000000000000000000000000000000000000006a077e550000000000000000000000000000000000000000000000000000000000000011000000000000000000000000000000000000000000000000000000000000001cfe0829cb82dfdda255fa001fe6a92749297c990321a33a36ed163c47e8310b312c8b218d9587ea39612a99d05dc0efa6fa00e1b92df2f299cb5a6c8d8441672b",
        "nonce": "0x57",
        "chainId": "0x7a69"
      },
      "additionalContracts": [],
      "isFixedGasLimit": false
    }
  ],
  "receipts": [
    {
      "status": "0x1",
      "cumulativeGasUsed": "0x201e2",
      "logs": [
        {
          "address": "0xc02aaa39b223fe8d0a0e5c4f27ead9083c756cc2",
          "topics": [
            "0xddf252ad1be2c89b69c2b068fc378daa952ba7f163c4a11628f55a4df523b3ef",
            "0x000000000000000000000000cbe5659df21cbcfabe4da962f7a9081f26b3ed82",
            "0x0000000000000000000000001804c8ab1f12e6bbf3894d4083f33e07309d1f38"
          ],
          "data": "0x000000000000000000000000000000000000000000000000000384665653e000",
          "blockHash": "0x239530ab977f679818ae22b67ab7f65be49c2c7aeb8df2ebad7e0c9bb27b6207",
          "blockNumber": "0x17b8359",
          "blockTimestamp": "0x69f03c99",
          "transactionHash": "0xd2c37131d57a40ac020bf11d7749087c2532ecde48d927fc474d0259e5e2377e",
          "transactionIndex": "0x0",
          "logIndex": "0x0",
          "removed": false
        },
        {
          "address": "0xc02aaa39b223fe8d0a0e5c4f27ead9083c756cc2",
          "topics": [
            "0xddf252ad1be2c89b69c2b068fc378daa952ba7f163c4a11628f55a4df523b3ef",
            "0x000000000000000000000000cbe5659df21cbcfabe4da962f7a9081f26b3ed82",
            "0x000000000000000000000000646dc5fc4009c4c84a424b6ae0f494b374bae1ce"
          ],
          "data": "0x000000000000000000000000000000000000000000000000015c3393626fa000",
          "blockHash": "0x239530ab977f679818ae22b67ab7f65be49c2c7aeb8df2ebad7e0c9bb27b6207",
          "blockNumber": "0x17b8359",
          "blockTimestamp": "0x69f03c99",
          "transactionHash": "0xd2c37131d57a40ac020bf11d7749087c2532ecde48d927fc474d0259e5e2377e",
          "transactionIndex": "0x0",
          "logIndex": "0x1",
          "removed": false
        },
        {
          "address": "0xa5f104f8f78d5ba9aec4a383c0927337fd4e997b",
          "topics": [
            "0xddf252ad1be2c89b69c2b068fc378daa952ba7f163c4a11628f55a4df523b3ef",
            "0x000000000000000000000000646dc5fc4009c4c84a424b6ae0f494b374bae1ce",
            "0x000000000000000000000000cbe5659df21cbcfabe4da962f7a9081f26b3ed82",
            "0x0000000000000000000000000000000000000000000000000000000000000021"
          ],
          "data": "0x",
          "blockHash": "0x239530ab977f679818ae22b67ab7f65be49c2c7aeb8df2ebad7e0c9bb27b6207",
          "blockNumber": "0x17b8359",
          "blockTimestamp": "0x69f03c99",
          "transactionHash": "0xd2c37131d57a40ac020bf11d7749087c2532ecde48d927fc474d0259e5e2377e",
          "transactionIndex": "0x0",
          "logIndex": "0x2",
          "removed": false
        },
        {
          "address": "0x8fa71914948544c60e3379064567dcf0e6564d27",
          "topics": [
            "0xc0ac3eb1e8caef05b202043f34de8e3173fab712167584f7a2a9f4c302bd0e9c",
            "0x3f0000b2e4aaa1b659edc98f9854fb4226630f395833edf2d89d2445a475d1b4",
            "0x000000000000000000000000a5f104f8f78d5ba9aec4a383c0927337fd4e997b",
            "0x0000000000000000000000000000000000000000000000000000000000000021"
          ],
          "data": "0x000000000000000000000000646dc5fc4009c4c84a424b6ae0f494b374bae1ce000000000000000000000000cbe5659df21cbcfabe4da962f7a9081f26b3ed82000000000000000000000000c02aaa39b223fe8d0a0e5c4f27ead9083c756cc2000000000000000000000000000000000000000000000000015fb7f9b8c38000",
          "blockHash": "0x239530ab977f679818ae22b67ab7f65be49c2c7aeb8df2ebad7e0c9bb27b6207",
          "blockNumber": "0x17b8359",
          "blockTimestamp": "0x69f03c99",
          "transactionHash": "0xd2c37131d57a40ac020bf11d7749087c2532ecde48d927fc474d0259e5e2377e",
          "transactionIndex": "0x0",
          "logIndex": "0x3",
          "removed": false
        }
      ],
      "logsBloom": "0x00000000000000000000010000000000000000000002000000000000000000020000000000000000000000000000000002000000090000000000000000100000000000000000000000010008000000000000000000000000080000001000000000000000000400000005000000000000000000000000000000000010240000000800000000040000000004000000000000000000000000000000000000000000000000200000000400000000000000000000000800000080000000000000000000000002000004100400000000000000000000000000020080000000000000000100200000000000000000000000000000000000004000000000000000000000",
      "type": "0x2",
      "transactionHash": "0xd2c37131d57a40ac020bf11d7749087c2532ecde48d927fc474d0259e5e2377e",
      "transactionIndex": "0x0",
      "blockHash": "0x239530ab977f679818ae22b67ab7f65be49c2c7aeb8df2ebad7e0c9bb27b6207",
      "blockNumber": "0x17b8359",
      "gasUsed": "0x201e2",
      "effectiveGasPrice": "0x1ba81c",
      "blobGasPrice": "0x1",
      "from": "0x646dc5fc4009c4c84a424b6ae0f494b374bae1ce",
      "to": "0x8fa71914948544c60e3379064567dcf0e6564d27",
      "contractAddress": null
    }
  ],
  "libraries": [],
  "pending": [],
  "returns": {},
  "timestamp": 1778506474325,
  "chain": 31337,
  "commit": "59e30a9"
}