{
  "transactions": [
    {
      "hash": "0x75a42ac5bc40547579a4f024066056b786ee2a2e4de6b71ced7984dc06f373aa",
      "transactionType": "CALL",
      "contractName": null,
      "contractAddress": "0x8fa71914948544c60e3379064567dcf0e6564d27",
      "function": "settle((uint256,address),(uint8,bool,address,uint256,address,uint256,address,uint64,uint64,uint256),(uint8,bytes32,bytes32))",
      "arguments": [
        "(429, 0x1302F142Fc55B165647d3Bd5dec227f569A2A907)",
        "(1, false, 0xA5f104F8f78d5ba9AEC4a383c0927337Fd4E997B, 429, 0xC02aaA39b223FE8D0A0e5C4F27eAD9083C756Cc2, 89000000000000000, 0xc5aDfC119364CFE2297e4414dB04834d8702475B, 1772627210, 1779547076, 2)",
        "(28, 0x4d8425aff4b62c9affd8d152bcfb3d4c651f6a4ed7efcb780164fafda5626adc, 0x73b6d2b3f11a27f43ea6de1394688916c256388036f33308f94f17380e3461ba)"
      ],
      "transaction": {
        "from": "0x1302f142fc55b165647d3bd5dec227f569a2a907",
        "to": "0x8fa71914948544c60e3379064567dcf0e6564d27",
        "gas": "0x2efd3",
        "value": "0x0",
        "input": "0x3bae3e7900000000000000000000000000000000000000000000000000000000000001ad0000000000000000000000001302f142fc55b165647d3bd5dec227f569a2a90700000000000000000000000000000000000000000000000000000000000000010000000000000000000000000000000000000000000000000000000000000000000000000000000000000000a5f104f8f78d5ba9aec4a383c0927337fd4e997b00000000000000000000000000000000000000000000000000000000000001ad000000000000000000000000c02aaa39b223fe8d0a0e5c4f27ead9083c756cc2000000000000000000000000000000000000000000000000013c310749028000000000000000000000000000c5adfc119364cfe2297e4414db04834d8702475b0000000000000000000000000000000000000000000000000000000069a8250a000000000000000000000000000000000000000000000000000000006a11bbc40000000000000000000000000000000000000000000000000000000000000002000000000000000000000000000000000000000000000000000000000000001c4d8425aff4b62c9affd8d152bcfb3d4c651f6a4ed7efcb780164fafda5626adc73b6d2b3f11a27f43ea6de1394688916c256388036f33308f94f17380e3461ba",
        "nonce": "0x36",
        "chainId": "0x7a69"
      },
      "additionalContracts": [],
      "isFixedGasLimit": false
    }
  ],
  "receipts": [
    {
      "status": "0x1",
      "cumulativeGasUsed": "0x20212",
      "logs": [
        {
          "address": "0xc02aaa39b223fe8d0a0e5c4f27ead9083c756cc2",
          "topics": [
            "0xddf252ad1be2c89b69c2b068fc378daa952ba7f163c4a11628f55a4df523b3ef",
            "0x000000000000000000000000c5adfc119364cfe2297e4414db04834d8702475b",
            "0x0000000000000000000000001804c8ab1f12e6bbf3894d4083f33e07309d1f38"
          ],
          "data": "0x0000000000000000000000000000000000000000000000000003297345d9a000",
          "blockHash": "0x904ef14d94bda5e5118fa93563ac70eb0d62713964722a74b16865675bffc159",
          "blockNumber": "0x17b834d",
          "blockTimestamp": "0x69ed39e3",
          "transactionHash": "0x75a42ac5bc40547579a4f024066056b786ee2a2e4de6b71ced7984dc06f373aa",
          "transactionIndex": "0x0",
          "logIndex": "0x0",
          "removed": false
        },
        {
          "address": "0xc02aaa39b223fe8d0a0e5c4f27ead9083c756cc2",
          "topics": [
            "0xddf252ad1be2c89b69c2b068fc378daa952ba7f163c4a11628f55a4df523b3ef",
            "0x000000000000000000000000c5adfc119364cfe2297e4414db04834d8702475b",
            "0x0000000000000000000000001302f142fc55b165647d3bd5dec227f569a2a907"
          ],
          "data": "0x000000000000000000000000000000000000000000000000013907940328e000",
          "blockHash": "0x904ef14d94bda5e5118fa93563ac70eb0d62713964722a74b16865675bffc159",
          "blockNumber": "0x17b834d",
          "blockTimestamp": "0x69ed39e3",
          "transactionHash": "0x75a42ac5bc40547579a4f024066056b786ee2a2e4de6b71ced7984dc06f373aa",
          "transactionIndex": "0x0",
          "logIndex": "0x1",
          "removed": false
        },
        {
          "address": "0xa5f104f8f78d5ba9aec4a383c0927337fd4e997b",
          "topics": [
            "0xddf252ad1be2c89b69c2b068fc378daa952ba7f163c4a11628f55a4df523b3ef",
            "0x0000000000000000000000001302f142fc55b165647d3bd5dec227f569a2a907",
            "0x000000000000000000000000c5adfc119364cfe2297e4414db04834d8702475b",
            "0x00000000000000000000000000000000000000000000000000000000000001ad"
          ],
          "data": "0x",
          "blockHash": "0x904ef14d94bda5e5118fa93563ac70eb0d62713964722a74b16865675bffc159",
          "blockNumber": "0x17b834d",
          "blockTimestamp": "0x69ed39e3",
          "transactionHash": "0x75a42ac5bc40547579a4f024066056b786ee2a2e4de6b71ced7984dc06f373aa",
          "transactionIndex": "0x0",
          "logIndex": "0x2",
          "removed": false
        },
        {
          "address": "0x8fa71914948544c60e3379064567dcf0e6564d27",
          "topics": [
            "0xc0ac3eb1e8caef05b202043f34de8e3173fab712167584f7a2a9f4c302bd0e9c",
            "0xdd8c45dc61ac8d7236d8ecae6784f7444429f247abab9dc8354676210ac53550",
            "0x000000000000000000000000a5f104f8f78d5ba9aec4a383c0927337fd4e997b",
            "0x00000000000000000000000000000000000000000000000000000000000001ad"
          ],
          "data": "0x0000000000000000000000001302f142fc55b165647d3bd5dec227f569a2a907000000000000000000000000c5adfc119364cfe2297e4414db04834d8702475b000000000000000000000000c02aaa39b223fe8d0a0e5c4f27ead9083c756cc2000000000000000000000000000000000000000000000000013c310749028000",
          "blockHash": "0x904ef14d94bda5e5118fa93563ac70eb0d62713964722a74b16865675bffc159",
          "blockNumber": "0x17b834d",
          "blockTimestamp": "0x69ed39e3",
          "transactionHash": "0x75a42ac5bc40547579a4f024066056b786ee2a2e4de6b71ced7984dc06f373aa",
          "transactionIndex": "0x0",
          "logIndex": "0x3",
          "removed": false
        }
      ],
      "logsBloom": "0x00000000000000000000010000000000000000000000000000000000000000000000000000000010000000000000000002000000080000000000000000100000000000000000000000010008000000000000000000000000080000000000000200000000000000000001000000000008000000000000010000000010200000000800000000040000000004000000001000000000000000000080000000000000000000200000000400000000000120000000000000000080000000400000000000000002000004000000000200000000000000000000000080000000000000000100200000000000000040000000000000000000000000002000000000000000",
      "type": "0x2",
      "transactionHash": "0x75a42ac5bc40547579a4f024066056b786ee2a2e4de6b71ced7984dc06f373aa",
      "transactionIndex": "0x0",
      "blockHash": "0x904ef14d94bda5e5118fa93563ac70eb0d62713964722a74b16865675bffc159",
      "blockNumber": "0x17b834d",
      "gasUsed": "0x20212",
      "effectiveGasPrice": "0x1ba81c",
      "blobGasPrice": "0x1",
      "from": "0x1302f142fc55b165647d3bd5dec227f569a2a907",
      "to": "0x8fa71914948544c60e3379064567dcf0e6564d27",
      "contractAddress": null
    }
  ],
  "libraries": [],
  "pending": [],
  "returns": {},
  "timestamp": 1778506454380,
  "chain": 31337,
  "commit": "59e30a9"
}