{
  "transactions": [
    {
      "hash": "0x8c7aaa99f61344fc12bb071f6c8b3f0b8468c88abb7a7f5600661f7f2b905256",
      "transactionType": "CALL",
      "contractName": null,
      "contractAddress": "0x8fa71914948544c60e3379064567dcf0e6564d27",
      "function": "settle((uint256,address),(uint8,bool,address,uint256,address,uint256,address,uint64,uint64,uint256),(uint8,bytes32,bytes32))",
      "arguments": [
        "(342, 0x2c2dbA75492E0C4A1D10B41303167aEC59586C9c)",
        "(1, false, 0xA5f104F8f78d5ba9AEC4a383c0927337Fd4E997B, 342, 0xC02aaA39b223FE8D0A0e5C4F27eAD9083C756Cc2, 35000000000000000, 0xcbe5659df21Cbcfabe4da962F7a9081F26B3ed82, 1773583936, 1778590350, 9)",
        "(28, 0xd066047d57435ab11d61f5011cd74260f577b8321b1cd31a8a9922d9db9d884e, 0x3c1aeddcab7f87f0f2f8cf55f9c836a4405d6f0aa5cb774e0ceef357fd8286ce)"
      ],
      "transaction": {
        "from": "0x2c2dba75492e0c4a1d10b41303167aec59586c9c",
        "to": "0x8fa71914948544c60e3379064567dcf0e6564d27",
        "gas": "0x2c5fe",
        "value": "0x0",
        "input": "0x3bae3e7900000000000000000000000000000000000000000000000000000000000001560000000000000000000000002c2dba75492e0c4a1d10b41303167aec59586c9c00000000000000000000000000000000000000000000000000000000000000010000000000000000000000000000000000000000000000000000000000000000000000000000000000000000a5f104f8f78d5ba9aec4a383c0927337fd4e997b0000000000000000000000000000000000000000000000000000000000000156000000000000000000000000c02aaa39b223fe8d0a0e5c4f27ead9083c756cc2000000000000000000000000000000000000000000000000007c585087238000000000000000000000000000cbe5659df21cbcfabe4da962f7a9081f26b3ed820000000000000000000000000000000000000000000000000000000069b6be40000000000000000000000000000000000000000000000000000000006a03228e0000000000000000000000000000000000000000000000000000000000000009000000000000000000000000000000000000000000000000000000000000001cd066047d57435ab11d61f5011cd74260f577b8321b1cd31a8a9922d9db9d884e3c1aeddcab7f87f0f2f8cf55f9c836a4405d6f0aa5cb774e0ceef357fd8286ce",
        "nonce": "0x32",
        "chainId": "0x7a69"
      },
      "additionalContracts": [],
      "isFixedGasLimit": false
    }
  ],
  "receipts": [
    {
      "status": "0x1",
      "cumulativeGasUsed": "0x20206",
      "logs": [
        {
          "address": "0xc02aaa39b223fe8d0a0e5c4f27ead9083c756cc2",
          "topics": [
            "0xddf252ad1be2c89b69c2b068fc378daa952ba7f163c4a11628f55a4df523b3ef",
            "0x000000000000000000000000cbe5659df21cbcfabe4da962f7a9081f26b3ed82",
            "0x0000000000000000000000001804c8ab1f12e6bbf3894d4083f33e07309d1f38"
          ],
          "data": "0x00000000000000000000000000000000000000000000000000013e52b9abe000",
          "blockHash": "0x238a98782c86a8739ab0efa53830a658fc2cbbd6bb11ab40e600b3db8900013b",
          "blockNumber": "0x17b8339",
          "blockTimestamp": "0x69e7cc21",
          "transactionHash": "0x8c7aaa99f61344fc12bb071f6c8b3f0b8468c88abb7a7f5600661f7f2b905256",
          "transactionIndex": "0x0",
          "logIndex": "0x0",
          "removed": false
        },
        {
          "address": "0xc02aaa39b223fe8d0a0e5c4f27ead9083c756cc2",
          "topics": [
            "0xddf252ad1be2c89b69c2b068fc378daa952ba7f163c4a11628f55a4df523b3ef",
            "0x000000000000000000000000cbe5659df21cbcfabe4da962f7a9081f26b3ed82",
            "0x0000000000000000000000002c2dba75492e0c4a1d10b41303167aec59586c9c"
          ],
          "data": "0x000000000000000000000000000000000000000000000000007b19fdcd77a000",
          "blockHash": "0x238a98782c86a8739ab0efa53830a658fc2cbbd6bb11ab40e600b3db8900013b",
          "blockNumber": "0x17b8339",
          "blockTimestamp": "0x69e7cc21",
          "transactionHash": "0x8c7aaa99f61344fc12bb071f6c8b3f0b8468c88abb7a7f5600661f7f2b905256",
          "transactionIndex": "0x0",
          "logIndex": "0x1",
          "removed": false
        },
        {
          "address": "0xa5f104f8f78d5ba9aec4a383c0927337fd4e997b",
          "topics": [
            "0xddf252ad1be2c89b69c2b068fc378daa952ba7f163c4a11628f55a4df523b3ef",
            "0x0000000000000000000000002c2dba75492e0c4a1d10b41303167aec59586c9c",
            "0x000000000000000000000000cbe5659df21cbcfabe4da962f7a9081f26b3ed82",
            "0x0000000000000000000000000000000000000000000000000000000000000156"
          ],
          "data": "0x",
          "blockHash": "0x238a98782c86a8739ab0efa53830a658fc2cbbd6bb11ab40e600b3db8900013b",
          "blockNumber": "0x17b8339",
          "blockTimestamp": "0x69e7cc21",
          "transactionHash": "0x8c7aaa99f61344fc12bb071f6c8b3f0b8468c88abb7a7f5600661f7f2b905256",
          "transactionIndex": "0x0",
          "logIndex": "0x2",
          "removed": false
        },
        {
          "address": "0x8fa71914948544c60e3379064567dcf0e6564d27",
          "topics": [
            "0xc0ac3eb1e8caef05b202043f34de8e3173fab712167584f7a2a9f4c302bd0e9c",
            "0xf3a1e8c1f80b308647349d81a7ee301666bcbeabaa53c399a6826e84229df991",
            "0x000000000000000000000000a5f104f8f78d5ba9aec4a383c0927337fd4e997b",
            "0x0000000000000000000000000000000000000000000000000000000000000156"
          ],
          "data": "0x0000000000000000000000002c2dba75492e0c4a1d10b41303167aec59586c9c000000000000000000000000cbe5659df21cbcfabe4da962f7a9081f26b3ed82000000000000000000000000c02aaa39b223fe8d0a0e5c4f27ead9083c756cc2000000000000000000000000000000000000000000000000007c585087238000",
          "blockHash": "0x238a98782c86a8739ab0efa53830a658fc2cbbd6bb11ab40e600b3db8900013b",
          "blockNumber": "0x17b8339",
          "blockTimestamp": "0x69e7cc21",
          "transactionHash": "0x8c7aaa99f61344fc12bb071f6c8b3f0b8468c88abb7a7f5600661f7f2b905256",
          "transactionIndex": "0x0",
          "logIndex": "0x3",
          "removed": false
        }
      ],
      "logsBloom": "0x00000000000000000000010000000000000000000000000000000000000000000000000000000080000000000000000002000000080000000000000800100000000200000000000000010008000000000000000000000000081000000000000000000000000004000001000000000000000000000000000000400010200000000800000000040000000004000000000000000000000000000000000000000000000008200000000400000008000000000000000000000080000000000000000000000002000004000400000000000000000000000000020080000000000000000100200000000000000000000000000000000000004000000000000000400000",
      "type": "0x2",
      "transactionHash": "0x8c7aaa99f61344fc12bb071f6c8b3f0b8468c88abb7a7f5600661f7f2b905256",
      "transactionIndex": "0x0",
      "blockHash": "0x238a98782c86a8739ab0efa53830a658fc2cbbd6bb11ab40e600b3db8900013b",
      "blockNumber": "0x17b8339",
      "gasUsed": "0x20206",
      "effectiveGasPrice": "0x1ba81c",
      "blobGasPrice": "0x1",
      "from": "0x2c2dba75492e0c4a1d10b41303167aec59586c9c",
      "to": "0x8fa71914948544c60e3379064567dcf0e6564d27",
      "contractAddress": null
    }
  ],
  "libraries": [],
  "pending": [],
  "returns": {},
  "timestamp": 1778506436678,
  "chain": 31337,
  "commit": "59e30a9"
}