{
  "transactions": [
    {
      "hash": "0x302bc9afdb965ea06e939a4082914873336b407f673231ad2ed22f2b511222a7",
      "transactionType": "CALL",
      "contractName": null,
      "contractAddress": "0x8fa71914948544c60e3379064567dcf0e6564d27",
      "function": "settle((uint256,address),(uint8,bool,address,uint256,address,uint256,address,uint64,uint64,uint256),(uint8,bytes32,bytes32))",
      "arguments": [
        "(0, 0x646dC5Fc4009C4C84a424B6aE0f494b374bAE1Ce)",
        "(0, false, 0xA5f104F8f78d5ba9AEC4a383c0927337Fd4E997B, 138, 0xC02aaA39b223FE8D0A0e5C4F27eAD9083C756Cc2, 31000000000000000, 0xE233420d38D286C2F2Cf8dEe6564F132FBDB09DB, 1773462124, 1778712162, 1)",
        "(28, 0x5787c1f1f0006459c56761247d09610f4dcf88f036929737a279fbd6f6589b82, 0x5c693d09afd0ddbd13b83c342f3c0ebb64fdb850e8a1f6a97107fce47fd261b1)"
      ],
      "transaction": {
        "from": "0x646dc5fc4009c4c84a424b6ae0f494b374bae1ce",
        "to": "0x8fa71914948544c60e3379064567dcf0e6564d27",
        "gas": "0x2c4c7",
        "value": "0x0",
        "input": "0x3bae3e790000000000000000000000000000000000000000000000000000000000000000000000000000000000000000646dc5fc4009c4c84a424b6ae0f494b374bae1ce00000000000000000000000000000000000000000000000000000000000000000000000000000000000000000000000000000000000000000000000000000000000000000000000000000000a5f104f8f78d5ba9aec4a383c0927337fd4e997b000000000000000000000000000000000000000000000000000000000000008a000000000000000000000000c02aaa39b223fe8d0a0e5c4f27ead9083c756cc2000000000000000000000000000000000000000000000000006e2255f4098000000000000000000000000000e233420d38d286c2f2cf8dee6564f132fbdb09db0000000000000000000000000000000000000000000000000000000069b4e26c000000000000000000000000000000000000000000000000000000006a04fe620000000000000000000000000000000000000000000000000000000000000001000000000000000000000000000000000000000000000000000000000000001c5787c1f1f0006459c56761247d09610f4dcf88f036929737a279fbd6f6589b825c693d09afd0ddbd13b83c342f3c0ebb64fdb850e8a1f6a97107fce47fd261b1",
        "nonce": "0x40",
        "chainId": "0x7a69"
      },
      "additionalContracts": [],
      "isFixedGasLimit": false
    }
  ],
  "receipts": [
    {
      "status": "0x1",
      "cumulativeGasUsed": "0x20125",
      "logs": [
        {
          "address": "0xc02aaa39b223fe8d0a0e5c4f27ead9083c756cc2",
          "topics": [
            "0xddf252ad1be2c89b69c2b068fc378daa952ba7f163c4a11628f55a4df523b3ef",
            "0x000000000000000000000000646dc5fc4009c4c84a424b6ae0f494b374bae1ce",
            "0x0000000000000000000000001804c8ab1f12e6bbf3894d4083f33e07309d1f38"
          ],
          "data": "0x000000000000000000000000000000000000000000000000000119f17fe16000",
          "blockHash": "0xe5e065b385d80f0abcf03d2d6f12bb7cb11d1e2824d8b90f497f0307b18b9857",
          "blockNumber": "0x17b831b",
          "blockTimestamp": "0x69ddf71b",
          "transactionHash": "0x302bc9afdb965ea06e939a4082914873336b407f673231ad2ed22f2b511222a7",
          "transactionIndex": "0x0",
          "logIndex": "0x0",
          "removed": false
        },
        {
          "address": "0xc02aaa39b223fe8d0a0e5c4f27ead9083c756cc2",
          "topics": [
            "0xddf252ad1be2c89b69c2b068fc378daa952ba7f163c4a11628f55a4df523b3ef",
            "0x000000000000000000000000646dc5fc4009c4c84a424b6ae0f494b374bae1ce",
            "0x000000000000000000000000e233420d38d286c2f2cf8dee6564f132fbdb09db"
          ],
          "data": "0x000000000000000000000000000000000000000000000000006d086474282000",
          "blockHash": "0xe5e065b385d80f0abcf03d2d6f12bb7cb11d1e2824d8b90f497f0307b18b9857",
          "blockNumber": "0x17b831b",
          "blockTimestamp": "0x69ddf71b",
          "transactionHash": "0x302bc9afdb965ea06e939a4082914873336b407f673231ad2ed22f2b511222a7",
          "transactionIndex": "0x0",
          "logIndex": "0x1",
          "removed": false
        },
        {
          "address": "0xa5f104f8f78d5ba9aec4a383c0927337fd4e997b",
          "topics": [
            "0xddf252ad1be2c89b69c2b068fc378daa952ba7f163c4a11628f55a4df523b3ef",
            "0x000000000000000000000000e233420d38d286c2f2cf8dee6564f132fbdb09db",
            "0x000000000000000000000000646dc5fc4009c4c84a424b6ae0f494b374bae1ce",
            "0x000000000000000000000000000000000000000000000000000000000000008a"
          ],
          "data": "0x",
          "blockHash": "0xe5e065b385d80f0abcf03d2d6f12bb7cb11d1e2824d8b90f497f0307b18b9857",
          "blockNumber": "0x17b831b",
          "blockTimestamp": "0x69ddf71b",
          "transactionHash": "0x302bc9afdb965ea06e939a4082914873336b407f673231ad2ed22f2b511222a7",
          "transactionIndex": "0x0",
          "logIndex": "0x2",
          "removed": false
        },
        {
          "address": "0x8fa71914948544c60e3379064567dcf0e6564d27",
          "topics": [
            "0xc0ac3eb1e8caef05b202043f34de8e3173fab712167584f7a2a9f4c302bd0e9c",
            "0x635e6b39224311a1faff33259ed3e69cdb07483f83876eb66978c0f06158ba68",
            "0x000000000000000000000000a5f104f8f78d5ba9aec4a383c0927337fd4e997b",
            "0x000000000000000000000000000000000000000000000000000000000000008a"
          ],
          "data": "0x000000000000000000000000e233420d38d286c2f2cf8dee6564f132fbdb09db000000000000000000000000646dc5fc4009c4c84a424b6ae0f494b374bae1ce000000000000000000000000c02aaa39b223fe8d0a0e5c4f27ead9083c756cc2000000000000000000000000000000000000000000000000006e2255f4098000",
          "blockHash": "0xe5e065b385d80f0abcf03d2d6f12bb7cb11d1e2824d8b90f497f0307b18b9857",
          "blockNumber": "0x17b831b",
          "blockTimestamp": "0x69ddf71b",
          "transactionHash": "0x302bc9afdb965ea06e939a4082914873336b407f673231ad2ed22f2b511222a7",
          "transactionIndex": "0x0",
          "logIndex": "0x3",
          "removed": false
        }
      ],
      "logsBloom": "0x00000000000000000000010000000000000000000002000000000000000000000000000000000000000000000000000002000000090000000000000000100000000000000008000000010008000000000000000000000000080000000000000000000001000000008005000000000000000000000000000000000010200000000800000000040000000004200000000000000000000000080000000000000000000000200000000400002000000000000000000000000080000000000000000000000012000004000000000000000000000000000002001080000000000000000100200000000000000000000000000000000000000000000000000000000000",
      "type": "0x2",
      "transactionHash": "0x302bc9afdb965ea06e939a4082914873336b407f673231ad2ed22f2b511222a7",
      "transactionIndex": "0x0",
      "blockHash": "0xe5e065b385d80f0abcf03d2d6f12bb7cb11d1e2824d8b90f497f0307b18b9857",
      "blockNumber": "0x17b831b",
      "gasUsed": "0x20125",
      "effectiveGasPrice": "0x1ba81c",
      "blobGasPrice": "0x1",
      "from": "0x646dc5fc4009c4c84a424b6ae0f494b374bae1ce",
      "to": "0x8fa71914948544c60e3379064567dcf0e6564d27",
      "contractAddress": null
    }
  ],
  "libraries": [],
  "pending": [],
  "returns": {},
  "timestamp": 1778506404425,
  "chain": 31337,
  "commit": "59e30a9"
}