{
  "transactions": [
    {
      "hash": "0x23c98e061a509c61c780bac193e7a406b7fa0013eea06a14278f6efb6a6b8b07",
      "transactionType": "CALL",
      "contractName": null,
      "contractAddress": "0x8fa71914948544c60e3379064567dcf0e6564d27",
      "function": "settle((uint256,address),(uint8,bool,address,uint256,address,uint256,address,uint64,uint64,uint256),(uint8,bytes32,bytes32))",
      "arguments": [
        "(18, 0xcbe5659df21Cbcfabe4da962F7a9081F26B3ed82)",
        "(1, false, 0xA5f104F8f78d5ba9AEC4a383c0927337Fd4E997B, 18, 0xC02aaA39b223FE8D0A0e5C4F27eAD9083C756Cc2, 31000000000000000, 0x2c2dbA75492E0C4A1D10B41303167aEC59586C9c, 1772704544, 1779469742, 9)",
        "(28, 0xd447e4bb64d74dc1352fe527acf928aadf60df9353f8a7853cf923005fa8a34f, 0x4e8d8267d7bef81e3f2718612d35c46eeab17d0ffe7e9bd5e9d302083091e5f0)"
      ],
      "transaction": {
        "from": "0xcbe5659df21cbcfabe4da962f7a9081f26b3ed82",
        "to": "0x8fa71914948544c60e3379064567dcf0e6564d27",
        "gas": "0x2ef8d",
        "value": "0x0",
        "input": "0x3bae3e790000000000000000000000000000000000000000000000000000000000000012000000000000000000000000cbe5659df21cbcfabe4da962f7a9081f26b3ed8200000000000000000000000000000000000000000000000000000000000000010000000000000000000000000000000000000000000000000000000000000000000000000000000000000000a5f104f8f78d5ba9aec4a383c0927337fd4e997b0000000000000000000000000000000000000000000000000000000000000012000000000000000000000000c02aaa39b223fe8d0a0e5c4f27ead9083c756cc2000000000000000000000000000000000000000000000000006e2255f40980000000000000000000000000002c2dba75492e0c4a1d10b41303167aec59586c9c0000000000000000000000000000000000000000000000000000000069a95320000000000000000000000000000000000000000000000000000000006a108dae0000000000000000000000000000000000000000000000000000000000000009000000000000000000000000000000000000000000000000000000000000001cd447e4bb64d74dc1352fe527acf928aadf60df9353f8a7853cf923005fa8a34f4e8d8267d7bef81e3f2718612d35c46eeab17d0ffe7e9bd5e9d302083091e5f0",
        "nonce": "0x41",
        "chainId": "0x7a69"
      },
      "additionalContracts": [],
      "isFixedGasLimit": false
    }
  ],
  "receipts": [
    {
      "status": "0x1",
      "cumulativeGasUsed": "0x201e2",
      "logs": [
        {
          "address": "0xc02aaa39b223fe8d0a0e5c4f27ead9083c756cc2",
          "topics": [
            "0xddf252ad1be2c89b69c2b068fc378daa952ba7f163c4a11628f55a4df523b3ef",
            "0x0000000000000000000000002c2dba75492e0c4a1d10b41303167aec59586c9c",
            "0x0000000000000000000000001804c8ab1f12e6bbf3894d4083f33e07309d1f38"
          ],
          "data": "0x000000000000000000000000000000000000000000000000000119f17fe16000",
          "blockHash": "0xa1d7182dbc98b15ecbdf3ae285a0b4c03a81e3e8a99125b8c8f490bf3e2a4710",
          "blockNumber": "0x17b8364",
          "blockTimestamp": "0x69f28b40",
          "transactionHash": "0x23c98e061a509c61c780bac193e7a406b7fa0013eea06a14278f6efb6a6b8b07",
          "transactionIndex": "0x0",
          "logIndex": "0x0",
          "removed": false
        },
        {
          "address": "0xc02aaa39b223fe8d0a0e5c4f27ead9083c756cc2",
          "topics": [
            "0xddf252ad1be2c89b69c2b068fc378daa952ba7f163c4a11628f55a4df523b3ef",
            "0x0000000000000000000000002c2dba75492e0c4a1d10b41303167aec59586c9c",
            "0x000000000000000000000000cbe5659df21cbcfabe4da962f7a9081f26b3ed82"
          ],
          "data": "0x000000000000000000000000000000000000000000000000006d086474282000",
          "blockHash": "0xa1d7182dbc98b15ecbdf3ae285a0b4c03a81e3e8a99125b8c8f490bf3e2a4710",
          "blockNumber": "0x17b8364",
          "blockTimestamp": "0x69f28b40",
          "transactionHash": "0x23c98e061a509c61c780bac193e7a406b7fa0013eea06a14278f6efb6a6b8b07",
          "transactionIndex": "0x0",
          "logIndex": "0x1",
          "removed": false
        },
        {
          "address": "0xa5f104f8f78d5ba9aec4a383c0927337fd4e997b",
          "topics": [
            "0xddf252ad1be2c89b69c2b068fc378daa952ba7f163c4a11628f55a4df523b3ef",
            "0x000000000000000000000000cbe5659df21cbcfabe4da962f7a9081f26b3ed82",
            "0x0000000000000000000000002c2dba75492e0c4a1d10b41303167aec59586c9c",
            "0x0000000000000000000000000000000000000000000000000000000000000012"
          ],
          "data": "0x",
          "blockHash": "0xa1d7182dbc98b15ecbdf3ae285a0b4c03a81e3e8a99125b8c8f490bf3e2a4710",
          "blockNumber": "0x17b8364",
          "blockTimestamp": "0x69f28b40",
          "transactionHash": "0x23c98e061a509c61c780bac193e7a406b7fa0013eea06a14278f6efb6a6b8b07",
          "transactionIndex": "0x0",
          "logIndex": "0x2",
          "removed": false
        },
        {
          "address": "0x8fa71914948544c60e3379064567dcf0e6564d27",
          "topics": [
            "0xc0ac3eb1e8caef05b202043f34de8e3173fab712167584f7a2a9f4c302bd0e9c",
            "0x3f85fa86c70fda63ef2b092592987c3853d696de756c109280c4e25574f90d0b",
            "0x000000000000000000000000a5f104f8f78d5ba9aec4a383c0927337fd4e997b",
            "0x0000000000000000000000000000000000000000000000000000000000000012"
          ],
          "data": "0x000000000000000000000000cbe5659df21cbcfabe4da962f7a9081f26b3ed820000000000000000000000002c2dba75492e0c4a1d10b41303167aec59586c9c000000000000000000000000c02aaa39b223fe8d0a0e5c4f27ead9083c756cc2000000000000000000000000000000000000000000000000006e2255f4098000",
          "blockHash": "0xa1d7182dbc98b15ecbdf3ae285a0b4c03a81e3e8a99125b8c8f490bf3e2a4710",
          "blockNumber": "0x17b8364",
          "blockTimestamp": "0x69f28b40",
          "transactionHash": "0x23c98e061a509c61c780bac193e7a406b7fa0013eea06a14278f6efb6a6b8b07",
          "transactionIndex": "0x0",
          "logIndex": "0x3",
          "removed": false
        }
      ],
      "logsBloom": "0x000000000000000000000100000000000000000000000000000000000000000000000000000000000000000000000000020000000800000000000008001000000002000000000000000100080000000000000000000000000800000000000000000000000000040000010000000000000000000000000000000000102000000008000008000400000000040000000400000000000000000000000000000000000000002000000004000000000000000000000000000000c0000000000000000000000002000004000400000000000000200000000000020080000000000000000100200000000000000000000000010000000000004000000000000000000000",
      "type": "0x2",
      "transactionHash": "0x23c98e061a509c61c780bac193e7a406b7fa0013eea06a14278f6efb6a6b8b07",
      "transactionIndex": "0x0",
      "blockHash": "0xa1d7182dbc98b15ecbdf3ae285a0b4c03a81e3e8a99125b8c8f490bf3e2a4710",
      "blockNumber": "0x17b8364",
      "gasUsed": "0x201e2",
      "effectiveGasPrice": "0x1ba81c",
      "blobGasPrice": "0x1",
      "from": "0xcbe5659df21cbcfabe4da962f7a9081f26b3ed82",
      "to": "0x8fa71914948544c60e3379064567dcf0e6564d27",
      "contractAddress": null
    }
  ],
  "libraries": [],
  "pending": [],
  "returns": {},
  "timestamp": 1778506484861,
  "chain": 31337,
  "commit": "59e30a9"
}