{
  "transactions": [
    {
      "hash": "0x7175eec4d48a0b6e96cd5a276f6afb431e8972b4aa9a1756a0dbcdce2b06bd8e",
      "transactionType": "CALL",
      "contractName": null,
      "contractAddress": "0x8fa71914948544c60e3379064567dcf0e6564d27",
      "function": "settle((uint256,address),(uint8,bool,address,uint256,address,uint256,address,uint64,uint64,uint256),(uint8,bytes32,bytes32))",
      "arguments": [
        "(0, 0x08312E82df563A1639b81f49bb41247759700e30)",
        "(0, false, 0xA5f104F8f78d5ba9AEC4a383c0927337Fd4E997B, 280, 0xC02aaA39b223FE8D0A0e5C4F27eAD9083C756Cc2, 390000000000000000, 0x646dC5Fc4009C4C84a424B6aE0f494b374bAE1Ce, 1772844507, 1779329779, 20)",
        "(28, 0xffbec87c0d7312e765699cf798cbca0e571ec854faa7a19f3effb6f16f61aaa4, 0x1b7341bf9fb4514ee09f3181308ac1aee8f36d3923ecfd3fa7eeff5310c666b1)"
      ],
      "transaction": {
        "from": "0x08312e82df563a1639b81f49bb41247759700e30",
        "to": "0x8fa71914948544c60e3379064567dcf0e6564d27",
        "gas": "0x2c4e8",
        "value": "0x0",
        "input": "0x3bae3e79000000000000000000000000000000000000000000000000000000000000000000000000000000000000000008312e82df563a1639b81f49bb41247759700e3000000000000000000000000000000000000000000000000000000000000000000000000000000000000000000000000000000000000000000000000000000000000000000000000000000000a5f104f8f78d5ba9aec4a383c0927337fd4e997b0000000000000000000000000000000000000000000000000000000000000118000000000000000000000000c02aaa39b223fe8d0a0e5c4f27ead9083c756cc200000000000000000000000000000000000000000000000005698eef06670000000000000000000000000000646dc5fc4009c4c84a424b6ae0f494b374bae1ce0000000000000000000000000000000000000000000000000000000069ab75db000000000000000000000000000000000000000000000000000000006a0e6af30000000000000000000000000000000000000000000000000000000000000014000000000000000000000000000000000000000000000000000000000000001cffbec87c0d7312e765699cf798cbca0e571ec854faa7a19f3effb6f16f61aaa41b7341bf9fb4514ee09f3181308ac1aee8f36d3923ecfd3fa7eeff5310c666b1",
        "nonce": "0x41",
        "chainId": "0x7a69"
      },
      "additionalContracts": [],
      "isFixedGasLimit": false
    }
  ],
  "receipts": [
    {
      "status": "0x1",
      "cumulativeGasUsed": "0x2013d",
      "logs": [
        {
          "address": "0xc02aaa39b223fe8d0a0e5c4f27ead9083c756cc2",
          "topics": [
            "0xddf252ad1be2c89b69c2b068fc378daa952ba7f163c4a11628f55a4df523b3ef",
            "0x00000000000000000000000008312e82df563a1639b81f49bb41247759700e30",
            "0x0000000000000000000000001804c8ab1f12e6bbf3894d4083f33e07309d1f38"
          ],
          "data": "0x000000000000000000000000000000000000000000000000000ddb07829fc000",
          "blockHash": "0x2cff62dd1c12926775bf430662e67be2f0d198cab770f318ed1cd1d012a5028f",
          "blockNumber": "0x17b8392",
          "blockTimestamp": "0x69fcc158",
          "transactionHash": "0x7175eec4d48a0b6e96cd5a276f6afb431e8972b4aa9a1756a0dbcdce2b06bd8e",
          "transactionIndex": "0x0",
          "logIndex": "0x0",
          "removed": false
        },
        {
          "address": "0xc02aaa39b223fe8d0a0e5c4f27ead9083c756cc2",
          "topics": [
            "0xddf252ad1be2c89b69c2b068fc378daa952ba7f163c4a11628f55a4df523b3ef",
            "0x00000000000000000000000008312e82df563a1639b81f49bb41247759700e30",
            "0x000000000000000000000000646dc5fc4009c4c84a424b6ae0f494b374bae1ce"
          ],
          "data": "0x000000000000000000000000000000000000000000000000055bb3e783c74000",
          "blockHash": "0x2cff62dd1c12926775bf430662e67be2f0d198cab770f318ed1cd1d012a5028f",
          "blockNumber": "0x17b8392",
          "blockTimestamp": "0x69fcc158",
          "transactionHash": "0x7175eec4d48a0b6e96cd5a276f6afb431e8972b4aa9a1756a0dbcdce2b06bd8e",
          "transactionIndex": "0x0",
          "logIndex": "0x1",
          "removed": false
        },
        {
          "address": "0xa5f104f8f78d5ba9aec4a383c0927337fd4e997b",
          "topics": [
            "0xddf252ad1be2c89b69c2b068fc378daa952ba7f163c4a11628f55a4df523b3ef",
            "0x000000000000000000000000646dc5fc4009c4c84a424b6ae0f494b374bae1ce",
            "0x00000000000000000000000008312e82df563a1639b81f49bb41247759700e30",
            "0x0000000000000000000000000000000000000000000000000000000000000118"
          ],
          "data": "0x",
          "blockHash": "0x2cff62dd1c12926775bf430662e67be2f0d198cab770f318ed1cd1d012a5028f",
          "blockNumber": "0x17b8392",
          "blockTimestamp": "0x69fcc158",
          "transactionHash": "0x7175eec4d48a0b6e96cd5a276f6afb431e8972b4aa9a1756a0dbcdce2b06bd8e",
          "transactionIndex": "0x0",
          "logIndex": "0x2",
          "removed": false
        },
        {
          "address": "0x8fa71914948544c60e3379064567dcf0e6564d27",
          "topics": [
            "0xc0ac3eb1e8caef05b202043f34de8e3173fab712167584f7a2a9f4c302bd0e9c",
            "0xde083d5c1cc2bd4debf20e6b20251401c5ecb333a48aa29356f53d534e1569db",
            "0x000000000000000000000000a5f104f8f78d5ba9aec4a383c0927337fd4e997b",
            "0x0000000000000000000000000000000000000000000000000000000000000118"
          ],
          "data": "0x000000000000000000000000646dc5fc4009c4c84a424b6ae0f494b374bae1ce00000000000000000000000008312e82df563a1639b81f49bb41247759700e30000000000000000000000000c02aaa39b223fe8d0a0e5c4f27ead9083c756cc200000000000000000000000000000000000000000000000005698eef06670000",
          "blockHash": "0x2cff62dd1c12926775bf430662e67be2f0d198cab770f318ed1cd1d012a5028f",
          "blockNumber": "0x17b8392",
          "blockTimestamp": "0x69fcc158",
          "transactionHash": "0x7175eec4d48a0b6e96cd5a276f6afb431e8972b4aa9a1756a0dbcdce2b06bd8e",
          "transactionIndex": "0x0",
          "logIndex": "0x3",
          "removed": false
        }
      ],
      "logsBloom": "0x00000000000010000000010001000000000000000002000000000000000000000000000000100000000400000000000002000000090000000000000000100000000000000000000000010008000000000000000000000000080000800000000000000000000000000005000000020000000000000000000000000010200000000800000000040000000004000000000000000000000000000000000000000000000000200000000400000000000000000000000000000080000000000000000000000002000004000000000000000000000000000000800080000000000000000100208000000000000000000000000000000000004000000000000000000000",
      "type": "0x2",
      "transactionHash": "0x7175eec4d48a0b6e96cd5a276f6afb431e8972b4aa9a1756a0dbcdce2b06bd8e",
      "transactionIndex": "0x0",
      "blockHash": "0x2cff62dd1c12926775bf430662e67be2f0d198cab770f318ed1cd1d012a5028f",
      "blockNumber": "0x17b8392",
      "gasUsed": "0x2013d",
      "effectiveGasPrice": "0x1ba81c",
      "blobGasPrice": "0x1",
      "from": "0x08312e82df563a1639b81f49bb41247759700e30",
      "to": "0x8fa71914948544c60e3379064567dcf0e6564d27",
      "contractAddress": null
    }
  ],
  "libraries": [],
  "pending": [],
  "returns": {},
  "timestamp": 1778506537252,
  "chain": 31337,
  "commit": "59e30a9"
}