{
  "transactions": [
    {
      "hash": "0x82a66153734df507ce6c250b4925a102d0366ea9dbf5e06a83e051bbb6fdbb82",
      "transactionType": "CALL",
      "contractName": null,
      "contractAddress": "0x8fa71914948544c60e3379064567dcf0e6564d27",
      "function": "settle((uint256,address),(uint8,bool,address,uint256,address,uint256,address,uint64,uint64,uint256),(uint8,bytes32,bytes32))",
      "arguments": [
        "(36, 0xcbe5659df21Cbcfabe4da962F7a9081F26B3ed82)",
        "(1, false, 0xA5f104F8f78d5ba9AEC4a383c0927337Fd4E997B, 36, 0xC02aaA39b223FE8D0A0e5C4F27eAD9083C756Cc2, 48000000000000000, 0x1302F142Fc55B165647d3Bd5dec227f569A2A907, 1771809223, 1780365063, 4)",
        "(27, 0x47512261be48d90ef39110f8815b67babd822bd16ca9809fcc244fb954837e74, 0x0ce33d2d334c1ba2174423e076382c10523687276830988f19196a2228d225e5)"
      ],
      "transaction": {
        "from": "0xcbe5659df21cbcfabe4da962f7a9081f26b3ed82",
        "to": "0x8fa71914948544c60e3379064567dcf0e6564d27",
        "gas": "0x2c5b0",
        "value": "0x0",
        "input": "0x3bae3e790000000000000000000000000000000000000000000000000000000000000024000000000000000000000000cbe5659df21cbcfabe4da962f7a9081f26b3ed8200000000000000000000000000000000000000000000000000000000000000010000000000000000000000000000000000000000000000000000000000000000000000000000000000000000a5f104f8f78d5ba9aec4a383c0927337fd4e997b0000000000000000000000000000000000000000000000000000000000000024000000000000000000000000c02aaa39b223fe8d0a0e5c4f27ead9083c756cc200000000000000000000000000000000000000000000000000aa87bee53800000000000000000000000000001302f142fc55b165647d3bd5dec227f569a2a90700000000000000000000000000000000000000000000000000000000699ba9c7000000000000000000000000000000000000000000000000000000006a1e37070000000000000000000000000000000000000000000000000000000000000004000000000000000000000000000000000000000000000000000000000000001b47512261be48d90ef39110f8815b67babd822bd16ca9809fcc244fb954837e740ce33d2d334c1ba2174423e076382c10523687276830988f19196a2228d225e5",
        "nonce": "0x3f",
        "chainId": "0x7a69"
      },
      "additionalContracts": [],
      "isFixedGasLimit": false
    }
  ],
  "receipts": [
    {
      "status": "0x1",
      "cumulativeGasUsed": "0x201ce",
      "logs": [
        {
          "address": "0xc02aaa39b223fe8d0a0e5c4f27ead9083c756cc2",
          "topics": [
            "0xddf252ad1be2c89b69c2b068fc378daa952ba7f163c4a11628f55a4df523b3ef",
            "0x0000000000000000000000001302f142fc55b165647d3bd5dec227f569a2a907",
            "0x0000000000000000000000001804c8ab1f12e6bbf3894d4083f33e07309d1f38"
          ],
          "data": "0x0000000000000000000000000000000000000000000000000001b48eb57e0000",
          "blockHash": "0xa7298d0565c78a26f679646e5a126b0340724599227d47539c54d8c934a57fa6",
          "blockNumber": "0x17b8355",
          "blockTimestamp": "0x69ef65ca",
          "transactionHash": "0x82a66153734df507ce6c250b4925a102d0366ea9dbf5e06a83e051bbb6fdbb82",
          "transactionIndex": "0x0",
          "logIndex": "0x0",
          "removed": false
        },
        {
          "address": "0xc02aaa39b223fe8d0a0e5c4f27ead9083c756cc2",
          "topics": [
            "0xddf252ad1be2c89b69c2b068fc378daa952ba7f163c4a11628f55a4df523b3ef",
            "0x0000000000000000000000001302f142fc55b165647d3bd5dec227f569a2a907",
            "0x000000000000000000000000cbe5659df21cbcfabe4da962f7a9081f26b3ed82"
          ],
          "data": "0x00000000000000000000000000000000000000000000000000a8d3302fba0000",
          "blockHash": "0xa7298d0565c78a26f679646e5a126b0340724599227d47539c54d8c934a57fa6",
          "blockNumber": "0x17b8355",
          "blockTimestamp": "0x69ef65ca",
          "transactionHash": "0x82a66153734df507ce6c250b4925a102d0366ea9dbf5e06a83e051bbb6fdbb82",
          "transactionIndex": "0x0",
          "logIndex": "0x1",
          "removed": false
        },
        {
          "address": "0xa5f104f8f78d5ba9aec4a383c0927337fd4e997b",
          "topics": [
            "0xddf252ad1be2c89b69c2b068fc378daa952ba7f163c4a11628f55a4df523b3ef",
            "0x000000000000000000000000cbe5659df21cbcfabe4da962f7a9081f26b3ed82",
            "0x0000000000000000000000001302f142fc55b165647d3bd5dec227f569a2a907",
            "0x0000000000000000000000000000000000000000000000000000000000000024"
          ],
          "data": "0x",
          "blockHash": "0xa7298d0565c78a26f679646e5a126b0340724599227d47539c54d8c934a57fa6",
          "blockNumber": "0x17b8355",
          "blockTimestamp": "0x69ef65ca",
          "transactionHash": "0x82a66153734df507ce6c250b4925a102d0366ea9dbf5e06a83e051bbb6fdbb82",
          "transactionIndex": "0x0",
          "logIndex": "0x2",
          "removed": false
        },
        {
          "address": "0x8fa71914948544c60e3379064567dcf0e6564d27",
          "topics": [
            "0xc0ac3eb1e8caef05b202043f34de8e3173fab712167584f7a2a9f4c302bd0e9c",
            "0x957eb17845fd4eb8a48ab99291288e951f25017ba589146992ed795f7edf460d",
            "0x000000000000000000000000a5f104f8f78d5ba9aec4a383c0927337fd4e997b",
            "0x0000000000000000000000000000000000000000000000000000000000000024"
          ],
          "data": "0x000000000000000000000000cbe5659df21cbcfabe4da962f7a9081f26b3ed820000000000000000000000001302f142fc55b165647d3bd5dec227f569a2a907000000000000000000000000c02aaa39b223fe8d0a0e5c4f27ead9083c756cc200000000000000000000000000000000000000000000000000aa87bee5380000",
          "blockHash": "0xa7298d0565c78a26f679646e5a126b0340724599227d47539c54d8c934a57fa6",
          "blockNumber": "0x17b8355",
          "blockTimestamp": "0x69ef65ca",
          "transactionHash": "0x82a66153734df507ce6c250b4925a102d0366ea9dbf5e06a83e051bbb6fdbb82",
          "transactionIndex": "0x0",
          "logIndex": "0x3",
          "removed": false
        }
      ],
      "logsBloom": "0x00000000000000000000010002000000000000000000000000000000000000000000000000000000000000000000000002000000080000000000000000100000000000000000000000010008000000000000000000000000080000000000000000000000000800000001000000000000000000000000000000000010200000000800000000040000000004000008200000000000000000000000000000000000000000200002000400000000000100000000000000000080000000000000000000000002000004000400000200000000000000000000020080000000000000000100200000000000000040000000000000000000004000000000000000000000",
      "type": "0x2",
      "transactionHash": "0x82a66153734df507ce6c250b4925a102d0366ea9dbf5e06a83e051bbb6fdbb82",
      "transactionIndex": "0x0",
      "blockHash": "0xa7298d0565c78a26f679646e5a126b0340724599227d47539c54d8c934a57fa6",
      "blockNumber": "0x17b8355",
      "gasUsed": "0x201ce",
      "effectiveGasPrice": "0x1ba81c",
      "blobGasPrice": "0x1",
      "from": "0xcbe5659df21cbcfabe4da962f7a9081f26b3ed82",
      "to": "0x8fa71914948544c60e3379064567dcf0e6564d27",
      "contractAddress": null
    }
  ],
  "libraries": [],
  "pending": [],
  "returns": {},
  "timestamp": 1778506461418,
  "chain": 31337,
  "commit": "59e30a9"
}