{
  "transactions": [
    {
      "hash": "0xa961ce806c7cda449fc09a2deb550f81c7d877a8861644a8d98e82def0af9985",
      "transactionType": "CALL",
      "contractName": null,
      "contractAddress": "0x73973d222c3fda5b2563d269da9e19cb125000f4",
      "function": "settle((uint256,address),(uint8,bool,address,uint256,address,uint256,address,uint64,uint64,uint256),(uint8,bytes32,bytes32))",
      "arguments": [
        "(0, 0xc5aDfC119364CFE2297e4414dB04834d8702475B)",
        "(0, false, 0x38D4dE42C9c5640A2799B372D27B01957E0a3673, 212, 0xC02aaA39b223FE8D0A0e5C4F27eAD9083C756Cc2, 20000000000000000, 0x2c2dbA75492E0C4A1D10B41303167aEC59586C9c, 1771823011, 1780242627, 2)",
        "(28, 0x3fef8a9fb6e8c120d7dc6955208111676ecbb4ee08d50fe21c1b39c6e1907b66, 0x6407fec9f47956256a5bf2b6528f6f877f6daab14da6389f912df2f9afb822f3)"
      ],
      "transaction": {
        "from": "0xc5adfc119364cfe2297e4414db04834d8702475b",
        "to": "0x73973d222c3fda5b2563d269da9e19cb125000f4",
        "gas": "0x2c4c7",
        "value": "0x0",
        "input": "0x3bae3e790000000000000000000000000000000000000000000000000000000000000000000000000000000000000000c5adfc119364cfe2297e4414db04834d8702475b0000000000000000000000000000000000000000000000000000000000000000000000000000000000000000000000000000000000000000000000000000000000000000000000000000000038d4de42c9c5640a2799b372d27b01957e0a367300000000000000000000000000000000000000000000000000000000000000d4000000000000000000000000c02aaa39b223fe8d0a0e5c4f27ead9083c756cc200000000000000000000000000000000000000000000000000470de4df8200000000000000000000000000002c2dba75492e0c4a1d10b41303167aec59586c9c00000000000000000000000000000000000000000000000000000000699bdfa3000000000000000000000000000000000000000000000000000000006a1c58c30000000000000000000000000000000000000000000000000000000000000002000000000000000000000000000000000000000000000000000000000000001c3fef8a9fb6e8c120d7dc6955208111676ecbb4ee08d50fe21c1b39c6e1907b666407fec9f47956256a5bf2b6528f6f877f6daab14da6389f912df2f9afb822f3",
        "nonce": "0x65",
        "chainId": "0x7a69"
      },
      "additionalContracts": [],
      "isFixedGasLimit": false
    }
  ],
  "receipts": [
    {
      "status": "0x1",
      "cumulativeGasUsed": "0x20125",
      "logs": [
        {
          "address": "0xc02aaa39b223fe8d0a0e5c4f27ead9083c756cc2",
          "topics": [
            "0xddf252ad1be2c89b69c2b068fc378daa952ba7f163c4a11628f55a4df523b3ef",
            "0x000000000000000000000000c5adfc119364cfe2297e4414db04834d8702475b",
            "0x0000000000000000000000001804c8ab1f12e6bbf3894d4083f33e07309d1f38"
          ],
          "data": "0x0000000000000000000000000000000000000000000000000000b5e620f48000",
          "blockHash": "0xa381d3e6fdbbc265153ba6f7593d98445ff0c4cb49d712f496223438c7d6edd6",
          "blockNumber": "0x17b73ae",
          "blockTimestamp": "0x69e37b05",
          "transactionHash": "0xa961ce806c7cda449fc09a2deb550f81c7d877a8861644a8d98e82def0af9985",
          "transactionIndex": "0x0",
          "logIndex": "0x0",
          "removed": false
        },
        {
          "address": "0xc02aaa39b223fe8d0a0e5c4f27ead9083c756cc2",
          "topics": [
            "0xddf252ad1be2c89b69c2b068fc378daa952ba7f163c4a11628f55a4df523b3ef",
            "0x000000000000000000000000c5adfc119364cfe2297e4414db04834d8702475b",
            "0x0000000000000000000000002c2dba75492e0c4a1d10b41303167aec59586c9c"
          ],
          "data": "0x000000000000000000000000000000000000000000000000004657febe8d8000",
          "blockHash": "0xa381d3e6fdbbc265153ba6f7593d98445ff0c4cb49d712f496223438c7d6edd6",
          "blockNumber": "0x17b73ae",
          "blockTimestamp": "0x69e37b05",
          "transactionHash": "0xa961ce806c7cda449fc09a2deb550f81c7d877a8861644a8d98e82def0af9985",
          "transactionIndex": "0x0",
          "logIndex": "0x1",
          "removed": false
        },
        {
          "address": "0x38d4de42c9c5640a2799b372d27b01957e0a3673",
          "topics": [
            "0xddf252ad1be2c89b69c2b068fc378daa952ba7f163c4a11628f55a4df523b3ef",
            "0x0000000000000000000000002c2dba75492e0c4a1d10b41303167aec59586c9c",
            "0x000000000000000000000000c5adfc119364cfe2297e4414db04834d8702475b",
            "0x00000000000000000000000000000000000000000000000000000000000000d4"
          ],
          "data": "0x",
          "blockHash": "0xa381d3e6fdbbc265153ba6f7593d98445ff0c4cb49d712f496223438c7d6edd6",
          "blockNumber": "0x17b73ae",
          "blockTimestamp": "0x69e37b05",
          "transactionHash": "0xa961ce806c7cda449fc09a2deb550f81c7d877a8861644a8d98e82def0af9985",
          "transactionIndex": "0x0",
          "logIndex": "0x2",
          "removed": false
        },
        {
          "address": "0x73973d222c3fda5b2563d269da9e19cb125000f4",
          "topics": [
            "0xc0ac3eb1e8caef05b202043f34de8e3173fab712167584f7a2a9f4c302bd0e9c",
            "0x35e4166fbba9e027cd68c1beca958084ba44cb1a1a3cd5f574e535d44203f21b",
            "0x00000000000000000000000038d4de42c9c5640a2799b372d27b01957e0a3673",
            "0x00000000000000000000000000000000000000000000000000000000000000d4"
          ],
          "data": "0x0000000000000000000000002c2dba75492e0c4a1d10b41303167aec59586c9c000000000000000000000000c5adfc119364cfe2297e4414db04834d8702475b000000000000000000000000c02aaa39b223fe8d0a0e5c4f27ead9083c756cc200000000000000000000000000000000000000000000000000470de4df820000",
          "blockHash": "0xa381d3e6fdbbc265153ba6f7593d98445ff0c4cb49d712f496223438c7d6edd6",
          "blockNumber": "0x17b73ae",
          "blockTimestamp": "0x69e37b05",
          "transactionHash": "0xa961ce806c7cda449fc09a2deb550f81c7d877a8861644a8d98e82def0af9985",
          "transactionIndex": "0x0",
          "logIndex": "0x3",
          "removed": false
        }
      ],
      "logsBloom": "0x00000000000000000000000000000001000000000002000000000000000000000000020000000000000200000000020002000000080000000204100800100000000200000000001021000008000000000000000000000000000000000000000200000000000004000001000000000000000000000000000000000010000000000000000000000000000004000000000000000000000008000000000000000000000000000000000000000000000020000000200000000080400000000000000000000002000004000000000008000000000000000000000000000000000000000100200000000000000000000000000000000000000000002000000000000000",
      "type": "0x2",
      "transactionHash": "0xa961ce806c7cda449fc09a2deb550f81c7d877a8861644a8d98e82def0af9985",
      "transactionIndex": "0x0",
      "blockHash": "0xa381d3e6fdbbc265153ba6f7593d98445ff0c4cb49d712f496223438c7d6edd6",
      "blockNumber": "0x17b73ae",
      "gasUsed": "0x20125",
      "effectiveGasPrice": "0xf4248",
      "blobGasPrice": "0x1",
      "from": "0xc5adfc119364cfe2297e4414db04834d8702475b",
      "to": "0x73973d222c3fda5b2563d269da9e19cb125000f4",
      "contractAddress": null
    }
  ],
  "libraries": [],
  "pending": [],
  "returns": {},
  "timestamp": 1778453717926,
  "chain": 31337,
  "commit": "f87d399"
}