{
  "transactions": [
    {
      "hash": "0x201f02a35da476dfaf0299ee19511c29686eb8f90eda97998ff36c178f12b141",
      "transactionType": "CALL",
      "contractName": null,
      "contractAddress": "0x73973d222c3fda5b2563d269da9e19cb125000f4",
      "function": "settle((uint256,address),(uint8,bool,address,uint256,address,uint256,address,uint64,uint64,uint256),(uint8,bytes32,bytes32))",
      "arguments": [
        "(494, 0x646dC5Fc4009C4C84a424B6aE0f494b374bAE1Ce)",
        "(1, false, 0x38D4dE42C9c5640A2799B372D27B01957E0a3673, 494, 0xC02aaA39b223FE8D0A0e5C4F27eAD9083C756Cc2, 29000000000000000, 0x2c2dbA75492E0C4A1D10B41303167aEC59586C9c, 1773342037, 1778723601, 9)",
        "(28, 0xecf56c2098407e896f91ec6af54f847f02cdfce9033fa9356706d08be0eabc6a, 0x7702511d46322856f3d0f87aff3ae4f38e9e9b8bedafa30d8c23a97410ff0a0a)"
      ],
      "transaction": {
        "from": "0x646dc5fc4009c4c84a424b6ae0f494b374bae1ce",
        "to": "0x73973d222c3fda5b2563d269da9e19cb125000f4",
        "gas": "0x2c5fe",
        "value": "0x0",
        "input": "0x3bae3e7900000000000000000000000000000000000000000000000000000000000001ee000000000000000000000000646dc5fc4009c4c84a424b6ae0f494b374bae1ce0000000000000000000000000000000000000000000000000000000000000001000000000000000000000000000000000000000000000000000000000000000000000000000000000000000038d4de42c9c5640a2799b372d27b01957e0a367300000000000000000000000000000000000000000000000000000000000001ee000000000000000000000000c02aaa39b223fe8d0a0e5c4f27ead9083c756cc200000000000000000000000000000000000000000000000000670758aa7c80000000000000000000000000002c2dba75492e0c4a1d10b41303167aec59586c9c0000000000000000000000000000000000000000000000000000000069b30d55000000000000000000000000000000000000000000000000000000006a052b110000000000000000000000000000000000000000000000000000000000000009000000000000000000000000000000000000000000000000000000000000001cecf56c2098407e896f91ec6af54f847f02cdfce9033fa9356706d08be0eabc6a7702511d46322856f3d0f87aff3ae4f38e9e9b8bedafa30d8c23a97410ff0a0a",
        "nonce": "0x9b",
        "chainId": "0x7a69"
      },
      "additionalContracts": [],
      "isFixedGasLimit": false
    }
  ],
  "receipts": [
    {
      "status": "0x1",
      "cumulativeGasUsed": "0x20206",
      "logs": [
        {
          "address": "0xc02aaa39b223fe8d0a0e5c4f27ead9083c756cc2",
          "topics": [
            "0xddf252ad1be2c89b69c2b068fc378daa952ba7f163c4a11628f55a4df523b3ef",
            "0x0000000000000000000000002c2dba75492e0c4a1d10b41303167aec59586c9c",
            "0x0000000000000000000000001804c8ab1f12e6bbf3894d4083f33e07309d1f38"
          ],
          "data": "0x000000000000000000000000000000000000000000000000000107c0e2fc2000",
          "blockHash": "0x7bc2a09957f24a663eeae405ee93e444830032fd019ee1f5b16036ac54e6083f",
          "blockNumber": "0x17b73c1",
          "blockTimestamp": "0x69e6e714",
          "transactionHash": "0x201f02a35da476dfaf0299ee19511c29686eb8f90eda97998ff36c178f12b141",
          "transactionIndex": "0x0",
          "logIndex": "0x0",
          "removed": false
        },
        {
          "address": "0xc02aaa39b223fe8d0a0e5c4f27ead9083c756cc2",
          "topics": [
            "0xddf252ad1be2c89b69c2b068fc378daa952ba7f163c4a11628f55a4df523b3ef",
            "0x0000000000000000000000002c2dba75492e0c4a1d10b41303167aec59586c9c",
            "0x000000000000000000000000646dc5fc4009c4c84a424b6ae0f494b374bae1ce"
          ],
          "data": "0x0000000000000000000000000000000000000000000000000065ff97c7806000",
          "blockHash": "0x7bc2a09957f24a663eeae405ee93e444830032fd019ee1f5b16036ac54e6083f",
          "blockNumber": "0x17b73c1",
          "blockTimestamp": "0x69e6e714",
          "transactionHash": "0x201f02a35da476dfaf0299ee19511c29686eb8f90eda97998ff36c178f12b141",
          "transactionIndex": "0x0",
          "logIndex": "0x1",
          "removed": false
        },
        {
          "address": "0x38d4de42c9c5640a2799b372d27b01957e0a3673",
          "topics": [
            "0xddf252ad1be2c89b69c2b068fc378daa952ba7f163c4a11628f55a4df523b3ef",
            "0x000000000000000000000000646dc5fc4009c4c84a424b6ae0f494b374bae1ce",
            "0x0000000000000000000000002c2dba75492e0c4a1d10b41303167aec59586c9c",
            "0x00000000000000000000000000000000000000000000000000000000000001ee"
          ],
          "data": "0x",
          "blockHash": "0x7bc2a09957f24a663eeae405ee93e444830032fd019ee1f5b16036ac54e6083f",
          "blockNumber": "0x17b73c1",
          "blockTimestamp": "0x69e6e714",
          "transactionHash": "0x201f02a35da476dfaf0299ee19511c29686eb8f90eda97998ff36c178f12b141",
          "transactionIndex": "0x0",
          "logIndex": "0x2",
          "removed": false
        },
        {
          "address": "0x73973d222c3fda5b2563d269da9e19cb125000f4",
          "topics": [
            "0xc0ac3eb1e8caef05b202043f34de8e3173fab712167584f7a2a9f4c302bd0e9c",
            "0xdcdd81cc85890b69bfda81274452fa2aa6209436af9e3aa250a60a70c804cb62",
            "0x00000000000000000000000038d4de42c9c5640a2799b372d27b01957e0a3673",
            "0x00000000000000000000000000000000000000000000000000000000000001ee"
          ],
          "data": "0x000000000000000000000000646dc5fc4009c4c84a424b6ae0f494b374bae1ce0000000000000000000000002c2dba75492e0c4a1d10b41303167aec59586c9c000000000000000000000000c02aaa39b223fe8d0a0e5c4f27ead9083c756cc200000000000000000000000000000000000000000000000000670758aa7c8000",
          "blockHash": "0x7bc2a09957f24a663eeae405ee93e444830032fd019ee1f5b16036ac54e6083f",
          "blockNumber": "0x17b73c1",
          "blockTimestamp": "0x69e6e714",
          "transactionHash": "0x201f02a35da476dfaf0299ee19511c29686eb8f90eda97998ff36c178f12b141",
          "transactionIndex": "0x0",
          "logIndex": "0x3",
          "removed": false
        }
      ],
      "logsBloom": "0x00000000000000000000100000000000000000000002000000010000000000000000000000000000000000000000020002000000090000000004100800100000000200000000001021000008000000000000000000000000000000000000000000000000000004000005000000000000000000000000000000000010000000100000000000000000000004000000000000000000000008000000000000000000000000000000000000000000000000000000000000000080400000000000020000000002000004000000000000000001000000000000000000000000000000000100200000000000000000000000000000000000000000000000000000200000",
      "type": "0x2",
      "transactionHash": "0x201f02a35da476dfaf0299ee19511c29686eb8f90eda97998ff36c178f12b141",
      "transactionIndex": "0x0",
      "blockHash": "0x7bc2a09957f24a663eeae405ee93e444830032fd019ee1f5b16036ac54e6083f",
      "blockNumber": "0x17b73c1",
      "gasUsed": "0x20206",
      "effectiveGasPrice": "0xf4248",
      "blobGasPrice": "0x1",
      "from": "0x646dc5fc4009c4c84a424b6ae0f494b374bae1ce",
      "to": "0x73973d222c3fda5b2563d269da9e19cb125000f4",
      "contractAddress": null
    }
  ],
  "libraries": [],
  "pending": [],
  "returns": {},
  "timestamp": 1778453770149,
  "chain": 31337,
  "commit": "f87d399"
}