{
  "transactions": [
    {
      "hash": "0x5eb76a39364b8bdd999b5803a5d559c6e42b18d5eb85cd3b3042e6301fe8753c",
      "transactionType": "CALL",
      "contractName": null,
      "contractAddress": "0x73973d222c3fda5b2563d269da9e19cb125000f4",
      "function": "settle((uint256,address),(uint8,bool,address,uint256,address,uint256,address,uint64,uint64,uint256),(uint8,bytes32,bytes32))",
      "arguments": [
        "(0, 0x646dC5Fc4009C4C84a424B6aE0f494b374bAE1Ce)",
        "(0, false, 0x38D4dE42C9c5640A2799B372D27B01957E0a3673, 126, 0xC02aaA39b223FE8D0A0e5C4F27eAD9083C756Cc2, 18000000000000000, 0x4b75AeC40561C03e03d4D1C421dF194a3031A134, 1771926741, 1780138897, 1)",
        "(27, 0xeaa1b389789695b87070a23666ef47ded91a0677c636827e8e35f4bfd7c7b37b, 0x1ee1eb5a934c96a7e487e899c2baff484a5dae9405335a0eee090d1958b269ce)"
      ],
      "transaction": {
        "from": "0x646dc5fc4009c4c84a424b6ae0f494b374bae1ce",
        "to": "0x73973d222c3fda5b2563d269da9e19cb125000f4",
        "gas": "0x2ee5b",
        "value": "0x0",
        "input": "0x3bae3e790000000000000000000000000000000000000000000000000000000000000000000000000000000000000000646dc5fc4009c4c84a424b6ae0f494b374bae1ce0000000000000000000000000000000000000000000000000000000000000000000000000000000000000000000000000000000000000000000000000000000000000000000000000000000038d4de42c9c5640a2799b372d27b01957e0a3673000000000000000000000000000000000000000000000000000000000000007e000000000000000000000000c02aaa39b223fe8d0a0e5c4f27ead9083c756cc2000000000000000000000000000000000000000000000000003ff2e795f500000000000000000000000000004b75aec40561c03e03d4d1c421df194a3031a13400000000000000000000000000000000000000000000000000000000699d74d5000000000000000000000000000000000000000000000000000000006a1ac3910000000000000000000000000000000000000000000000000000000000000001000000000000000000000000000000000000000000000000000000000000001beaa1b389789695b87070a23666ef47ded91a0677c636827e8e35f4bfd7c7b37b1ee1eb5a934c96a7e487e899c2baff484a5dae9405335a0eee090d1958b269ce",
        "nonce": "0x95",
        "chainId": "0x7a69"
      },
      "additionalContracts": [],
      "isFixedGasLimit": false
    }
  ],
  "receipts": [
    {
      "status": "0x1",
      "cumulativeGasUsed": "0x20111",
      "logs": [
        {
          "address": "0xc02aaa39b223fe8d0a0e5c4f27ead9083c756cc2",
          "topics": [
            "0xddf252ad1be2c89b69c2b068fc378daa952ba7f163c4a11628f55a4df523b3ef",
            "0x000000000000000000000000646dc5fc4009c4c84a424b6ae0f494b374bae1ce",
            "0x0000000000000000000000001804c8ab1f12e6bbf3894d4083f33e07309d1f38"
          ],
          "data": "0x0000000000000000000000000000000000000000000000000000a3b5840f4000",
          "blockHash": "0x98a667db250a87fc32a806e83ccda571fdecf0decd553afa9ecb86c5edddde9a",
          "blockNumber": "0x17b73ab",
          "blockTimestamp": "0x69e2ea61",
          "transactionHash": "0x5eb76a39364b8bdd999b5803a5d559c6e42b18d5eb85cd3b3042e6301fe8753c",
          "transactionIndex": "0x0",
          "logIndex": "0x0",
          "removed": false
        },
        {
          "address": "0xc02aaa39b223fe8d0a0e5c4f27ead9083c756cc2",
          "topics": [
            "0xddf252ad1be2c89b69c2b068fc378daa952ba7f163c4a11628f55a4df523b3ef",
            "0x000000000000000000000000646dc5fc4009c4c84a424b6ae0f494b374bae1ce",
            "0x0000000000000000000000004b75aec40561c03e03d4d1c421df194a3031a134"
          ],
          "data": "0x000000000000000000000000000000000000000000000000003f4f3211e5c000",
          "blockHash": "0x98a667db250a87fc32a806e83ccda571fdecf0decd553afa9ecb86c5edddde9a",
          "blockNumber": "0x17b73ab",
          "blockTimestamp": "0x69e2ea61",
          "transactionHash": "0x5eb76a39364b8bdd999b5803a5d559c6e42b18d5eb85cd3b3042e6301fe8753c",
          "transactionIndex": "0x0",
          "logIndex": "0x1",
          "removed": false
        },
        {
          "address": "0x38d4de42c9c5640a2799b372d27b01957e0a3673",
          "topics": [
            "0xddf252ad1be2c89b69c2b068fc378daa952ba7f163c4a11628f55a4df523b3ef",
            "0x0000000000000000000000004b75aec40561c03e03d4d1c421df194a3031a134",
            "0x000000000000000000000000646dc5fc4009c4c84a424b6ae0f494b374bae1ce",
            "0x000000000000000000000000000000000000000000000000000000000000007e"
          ],
          "data": "0x",
          "blockHash": "0x98a667db250a87fc32a806e83ccda571fdecf0decd553afa9ecb86c5edddde9a",
          "blockNumber": "0x17b73ab",
          "blockTimestamp": "0x69e2ea61",
          "transactionHash": "0x5eb76a39364b8bdd999b5803a5d559c6e42b18d5eb85cd3b3042e6301fe8753c",
          "transactionIndex": "0x0",
          "logIndex": "0x2",
          "removed": false
        },
        {
          "address": "0x73973d222c3fda5b2563d269da9e19cb125000f4",
          "topics": [
            "0xc0ac3eb1e8caef05b202043f34de8e3173fab712167584f7a2a9f4c302bd0e9c",
            "0xe96371933834239333e01e820b1da24d6a28e264bb61e876ff1876c9c14bba13",
            "0x00000000000000000000000038d4de42c9c5640a2799b372d27b01957e0a3673",
            "0x000000000000000000000000000000000000000000000000000000000000007e"
          ],
          "data": "0x0000000000000000000000004b75aec40561c03e03d4d1c421df194a3031a134000000000000000000000000646dc5fc4009c4c84a424b6ae0f494b374bae1ce000000000000000000000000c02aaa39b223fe8d0a0e5c4f27ead9083c756cc2000000000000000000000000000000000000000000000000003ff2e795f50000",
          "blockHash": "0x98a667db250a87fc32a806e83ccda571fdecf0decd553afa9ecb86c5edddde9a",
          "blockNumber": "0x17b73ab",
          "blockTimestamp": "0x69e2ea61",
          "transactionHash": "0x5eb76a39364b8bdd999b5803a5d559c6e42b18d5eb85cd3b3042e6301fe8753c",
          "transactionIndex": "0x0",
          "logIndex": "0x3",
          "removed": false
        }
      ],
      "logsBloom": "0x00000000000000000000000000000000000000000002000000000400000000000000000000000000000000000000020002000000090000000004100000100000000000000000001025000008000000000000000000000000000000000000000000000000000000000005000000000000000000000000000000000010000000000000000000000000000004000000000000000000800008000000000000002000000000000000000000000000000400000000000000000080420000008000000000000002000004001000000000000000000000000000000000000000000000000100200000000000000000000000000000000000000000000000000000000000",
      "type": "0x2",
      "transactionHash": "0x5eb76a39364b8bdd999b5803a5d559c6e42b18d5eb85cd3b3042e6301fe8753c",
      "transactionIndex": "0x0",
      "blockHash": "0x98a667db250a87fc32a806e83ccda571fdecf0decd553afa9ecb86c5edddde9a",
      "blockNumber": "0x17b73ab",
      "gasUsed": "0x20111",
      "effectiveGasPrice": "0xf4248",
      "blobGasPrice": "0x1",
      "from": "0x646dc5fc4009c4c84a424b6ae0f494b374bae1ce",
      "to": "0x73973d222c3fda5b2563d269da9e19cb125000f4",
      "contractAddress": null
    }
  ],
  "libraries": [],
  "pending": [],
  "returns": {},
  "timestamp": 1778453715463,
  "chain": 31337,
  "commit": "f87d399"
}