{
  "transactions": [
    {
      "hash": "0xa65dd529d0bfcf9b18fdc67686c6477733679b886cc4a279ce943dea2e7340d3",
      "transactionType": "CALL",
      "contractName": null,
      "contractAddress": "0x8fa71914948544c60e3379064567dcf0e6564d27",
      "function": "settle((uint256,address),(uint8,bool,address,uint256,address,uint256,address,uint64,uint64,uint256),(uint8,bytes32,bytes32))",
      "arguments": [
        "(0, 0xc5aDfC119364CFE2297e4414dB04834d8702475B)",
        "(0, false, 0xA5f104F8f78d5ba9AEC4a383c0927337Fd4E997B, 318, 0xC02aaA39b223FE8D0A0e5C4F27eAD9083C756Cc2, 51000000000000000, 0xE233420d38D286C2F2Cf8dEe6564F132FBDB09DB, 1772138136, 1780036150, 2)",
        "(27, 0xeab3f06a573bffe2e5e76d004891216cc1c95ae5b132496907df45235a919285, 0x575263e25d11aeced53339225bd87a6c235d42a278e6b8a01463bc2cddf4e3a2)"
      ],
      "transaction": {
        "from": "0xc5adfc119364cfe2297e4414db04834d8702475b",
        "to": "0x8fa71914948544c60e3379064567dcf0e6564d27",
        "gas": "0x2c4bb",
        "value": "0x0",
        "input": "0x3bae3e790000000000000000000000000000000000000000000000000000000000000000000000000000000000000000c5adfc119364cfe2297e4414db04834d8702475b00000000000000000000000000000000000000000000000000000000000000000000000000000000000000000000000000000000000000000000000000000000000000000000000000000000a5f104f8f78d5ba9aec4a383c0927337fd4e997b000000000000000000000000000000000000000000000000000000000000013e000000000000000000000000c02aaa39b223fe8d0a0e5c4f27ead9083c756cc200000000000000000000000000000000000000000000000000b5303ad38b8000000000000000000000000000e233420d38d286c2f2cf8dee6564f132fbdb09db0000000000000000000000000000000000000000000000000000000069a0ae98000000000000000000000000000000000000000000000000000000006a1932360000000000000000000000000000000000000000000000000000000000000002000000000000000000000000000000000000000000000000000000000000001beab3f06a573bffe2e5e76d004891216cc1c95ae5b132496907df45235a919285575263e25d11aeced53339225bd87a6c235d42a278e6b8a01463bc2cddf4e3a2",
        "nonce": "0x35",
        "chainId": "0x7a69"
      },
      "additionalContracts": [],
      "isFixedGasLimit": false
    }
  ],
  "receipts": [
    {
      "status": "0x1",
      "cumulativeGasUsed": "0x2011d",
      "logs": [
        {
          "address": "0xc02aaa39b223fe8d0a0e5c4f27ead9083c756cc2",
          "topics": [
            "0xddf252ad1be2c89b69c2b068fc378daa952ba7f163c4a11628f55a4df523b3ef",
            "0x000000000000000000000000c5adfc119364cfe2297e4414db04834d8702475b",
            "0x0000000000000000000000001804c8ab1f12e6bbf3894d4083f33e07309d1f38"
          ],
          "data": "0x0000000000000000000000000000000000000000000000000001cfd7a0d5e000",
          "blockHash": "0x965f3bc9911d1ed41f83eeb29f58a494823db2752be6460461bb706475ea0457",
          "blockNumber": "0x17b832c",
          "blockTimestamp": "0x69e3c6ae",
          "transactionHash": "0xa65dd529d0bfcf9b18fdc67686c6477733679b886cc4a279ce943dea2e7340d3",
          "transactionIndex": "0x0",
          "logIndex": "0x0",
          "removed": false
        },
        {
          "address": "0xc02aaa39b223fe8d0a0e5c4f27ead9083c756cc2",
          "topics": [
            "0xddf252ad1be2c89b69c2b068fc378daa952ba7f163c4a11628f55a4df523b3ef",
            "0x000000000000000000000000c5adfc119364cfe2297e4414db04834d8702475b",
            "0x000000000000000000000000e233420d38d286c2f2cf8dee6564f132fbdb09db"
          ],
          "data": "0x00000000000000000000000000000000000000000000000000b3606332b5a000",
          "blockHash": "0x965f3bc9911d1ed41f83eeb29f58a494823db2752be6460461bb706475ea0457",
          "blockNumber": "0x17b832c",
          "blockTimestamp": "0x69e3c6ae",
          "transactionHash": "0xa65dd529d0bfcf9b18fdc67686c6477733679b886cc4a279ce943dea2e7340d3",
          "transactionIndex": "0x0",
          "logIndex": "0x1",
          "removed": false
        },
        {
          "address": "0xa5f104f8f78d5ba9aec4a383c0927337fd4e997b",
          "topics": [
            "0xddf252ad1be2c89b69c2b068fc378daa952ba7f163c4a11628f55a4df523b3ef",
            "0x000000000000000000000000e233420d38d286c2f2cf8dee6564f132fbdb09db",
            "0x000000000000000000000000c5adfc119364cfe2297e4414db04834d8702475b",
            "0x000000000000000000000000000000000000000000000000000000000000013e"
          ],
          "data": "0x",
          "blockHash": "0x965f3bc9911d1ed41f83eeb29f58a494823db2752be6460461bb706475ea0457",
          "blockNumber": "0x17b832c",
          "blockTimestamp": "0x69e3c6ae",
          "transactionHash": "0xa65dd529d0bfcf9b18fdc67686c6477733679b886cc4a279ce943dea2e7340d3",
          "transactionIndex": "0x0",
          "logIndex": "0x2",
          "removed": false
        },
        {
          "address": "0x8fa71914948544c60e3379064567dcf0e6564d27",
          "topics": [
            "0xc0ac3eb1e8caef05b202043f34de8e3173fab712167584f7a2a9f4c302bd0e9c",
            "0x160057be860f0778a5a5160ca3b882e92c3b886fa1c26acc8ca914da66b13d16",
            "0x000000000000000000000000a5f104f8f78d5ba9aec4a383c0927337fd4e997b",
            "0x000000000000000000000000000000000000000000000000000000000000013e"
          ],
          "data": "0x000000000000000000000000e233420d38d286c2f2cf8dee6564f132fbdb09db000000000000000000000000c5adfc119364cfe2297e4414db04834d8702475b000000000000000000000000c02aaa39b223fe8d0a0e5c4f27ead9083c756cc200000000000000000000000000000000000000000000000000b5303ad38b8000",
          "blockHash": "0x965f3bc9911d1ed41f83eeb29f58a494823db2752be6460461bb706475ea0457",
          "blockNumber": "0x17b832c",
          "blockTimestamp": "0x69e3c6ae",
          "transactionHash": "0xa65dd529d0bfcf9b18fdc67686c6477733679b886cc4a279ce943dea2e7340d3",
          "transactionIndex": "0x0",
          "logIndex": "0x3",
          "removed": false
        }
      ],
      "logsBloom": "0x00000000000000000000010000000000000000000000000000000000000000000000000000000000000000000000000002000000080000000000000000108000000000000000040000010008000000000000000000000000080040000000000200000001000000000001000000000000000000000000000000000010200000000800000000040004000004000000000000000000000000000000000000000000000000200000000400000000000020000000000000000080000000000000000000000012000004000000000000000000000000000002000080000000000000008100200000000000000000000040000000000000000000002000000000000000",
      "type": "0x2",
      "transactionHash": "0xa65dd529d0bfcf9b18fdc67686c6477733679b886cc4a279ce943dea2e7340d3",
      "transactionIndex": "0x0",
      "blockHash": "0x965f3bc9911d1ed41f83eeb29f58a494823db2752be6460461bb706475ea0457",
      "blockNumber": "0x17b832c",
      "gasUsed": "0x2011d",
      "effectiveGasPrice": "0x1ba81c",
      "blobGasPrice": "0x1",
      "from": "0xc5adfc119364cfe2297e4414db04834d8702475b",
      "to": "0x8fa71914948544c60e3379064567dcf0e6564d27",
      "contractAddress": null
    }
  ],
  "libraries": [],
  "pending": [],
  "returns": {},
  "timestamp": 1778506420102,
  "chain": 31337,
  "commit": "59e30a9"
}