{
  "transactions": [
    {
      "hash": "0xc1c3678e3d2cf5ec5feff003ebdcf34a10c4dceef89a7ce6af231fd0a758f7f7",
      "transactionType": "CALL",
      "contractName": null,
      "contractAddress": "0x8fa71914948544c60e3379064567dcf0e6564d27",
      "function": "settle((uint256,address),(uint8,bool,address,uint256,address,uint256,address,uint64,uint64,uint256),(uint8,bytes32,bytes32))",
      "arguments": [
        "(184, 0xe3745C151faB59B0740f4312b2B027F07D096639)",
        "(1, false, 0xA5f104F8f78d5ba9AEC4a383c0927337Fd4E997B, 184, 0xC02aaA39b223FE8D0A0e5C4F27eAD9083C756Cc2, 13000000000000000, 0x08312E82df563A1639b81f49bb41247759700e30, 1773075884, 1779098402, 7)",
        "(27, 0xaf204c05e9638752ee4fa663bf99dea96b50a972a17d0c359ae90d924c4d3415, 0x51afc0482963601d3fef88c047a55c415734de87e10cbaf096675ffdab543428)"
      ],
      "transaction": {
        "from": "0xe3745c151fab59b0740f4312b2b027f07d096639",
        "to": "0x8fa71914948544c60e3379064567dcf0e6564d27",
        "gas": "0x2ef81",
        "value": "0x0",
        "input": "0x3bae3e7900000000000000000000000000000000000000000000000000000000000000b8000000000000000000000000e3745c151fab59b0740f4312b2b027f07d09663900000000000000000000000000000000000000000000000000000000000000010000000000000000000000000000000000000000000000000000000000000000000000000000000000000000a5f104f8f78d5ba9aec4a383c0927337fd4e997b00000000000000000000000000000000000000000000000000000000000000b8000000000000000000000000c02aaa39b223fe8d0a0e5c4f27ead9083c756cc2000000000000000000000000000000000000000000000000002e2f6e5e14800000000000000000000000000008312e82df563a1639b81f49bb41247759700e300000000000000000000000000000000000000000000000000000000069aefdac000000000000000000000000000000000000000000000000000000006a0ae3220000000000000000000000000000000000000000000000000000000000000007000000000000000000000000000000000000000000000000000000000000001baf204c05e9638752ee4fa663bf99dea96b50a972a17d0c359ae90d924c4d341551afc0482963601d3fef88c047a55c415734de87e10cbaf096675ffdab543428",
        "nonce": "0x48",
        "chainId": "0x7a69"
      },
      "additionalContracts": [],
      "isFixedGasLimit": false
    }
  ],
  "receipts": [
    {
      "status": "0x1",
      "cumulativeGasUsed": "0x201da",
      "logs": [
        {
          "address": "0xc02aaa39b223fe8d0a0e5c4f27ead9083c756cc2",
          "topics": [
            "0xddf252ad1be2c89b69c2b068fc378daa952ba7f163c4a11628f55a4df523b3ef",
            "0x00000000000000000000000008312e82df563a1639b81f49bb41247759700e30",
            "0x0000000000000000000000001804c8ab1f12e6bbf3894d4083f33e07309d1f38"
          ],
          "data": "0x0000000000000000000000000000000000000000000000000000763bfbd22000",
          "blockHash": "0x15225bcdde093eccb697205368664ac3f32a6c169be47b71356dbca67d49477e",
          "blockNumber": "0x17b8343",
          "blockTimestamp": "0x69ea8302",
          "transactionHash": "0xc1c3678e3d2cf5ec5feff003ebdcf34a10c4dceef89a7ce6af231fd0a758f7f7",
          "transactionIndex": "0x0",
          "logIndex": "0x0",
          "removed": false
        },
        {
          "address": "0xc02aaa39b223fe8d0a0e5c4f27ead9083c756cc2",
          "topics": [
            "0xddf252ad1be2c89b69c2b068fc378daa952ba7f163c4a11628f55a4df523b3ef",
            "0x00000000000000000000000008312e82df563a1639b81f49bb41247759700e30",
            "0x000000000000000000000000e3745c151fab59b0740f4312b2b027f07d096639"
          ],
          "data": "0x000000000000000000000000000000000000000000000000002db93262426000",
          "blockHash": "0x15225bcdde093eccb697205368664ac3f32a6c169be47b71356dbca67d49477e",
          "blockNumber": "0x17b8343",
          "blockTimestamp": "0x69ea8302",
          "transactionHash": "0xc1c3678e3d2cf5ec5feff003ebdcf34a10c4dceef89a7ce6af231fd0a758f7f7",
          "transactionIndex": "0x0",
          "logIndex": "0x1",
          "removed": false
        },
        {
          "address": "0xa5f104f8f78d5ba9aec4a383c0927337fd4e997b",
          "topics": [
            "0xddf252ad1be2c89b69c2b068fc378daa952ba7f163c4a11628f55a4df523b3ef",
            "0x000000000000000000000000e3745c151fab59b0740f4312b2b027f07d096639",
            "0x00000000000000000000000008312e82df563a1639b81f49bb41247759700e30",
            "0x00000000000000000000000000000000000000000000000000000000000000b8"
          ],
          "data": "0x",
          "blockHash": "0x15225bcdde093eccb697205368664ac3f32a6c169be47b71356dbca67d49477e",
          "blockNumber": "0x17b8343",
          "blockTimestamp": "0x69ea8302",
          "transactionHash": "0xc1c3678e3d2cf5ec5feff003ebdcf34a10c4dceef89a7ce6af231fd0a758f7f7",
          "transactionIndex": "0x0",
          "logIndex": "0x2",
          "removed": false
        },
        {
          "address": "0x8fa71914948544c60e3379064567dcf0e6564d27",
          "topics": [
            "0xc0ac3eb1e8caef05b202043f34de8e3173fab712167584f7a2a9f4c302bd0e9c",
            "0x4f21271ec20a11c0df10279b3e63fa01d91e84b15e12d23f96ef0c83ff60d8f2",
            "0x000000000000000000000000a5f104f8f78d5ba9aec4a383c0927337fd4e997b",
            "0x00000000000000000000000000000000000000000000000000000000000000b8"
          ],
          "data": "0x000000000000000000000000e3745c151fab59b0740f4312b2b027f07d09663900000000000000000000000008312e82df563a1639b81f49bb41247759700e30000000000000000000000000c02aaa39b223fe8d0a0e5c4f27ead9083c756cc2000000000000000000000000000000000000000000000000002e2f6e5e148000",
          "blockHash": "0x15225bcdde093eccb697205368664ac3f32a6c169be47b71356dbca67d49477e",
          "blockNumber": "0x17b8343",
          "blockTimestamp": "0x69ea8302",
          "transactionHash": "0xc1c3678e3d2cf5ec5feff003ebdcf34a10c4dceef89a7ce6af231fd0a758f7f7",
          "transactionIndex": "0x0",
          "logIndex": "0x3",
          "removed": false
        }
      ],
      "logsBloom": "0x00000000000000000000010001000000000000000100000000000000000000000004000000100000000000000000000042000000080000000000000000100000000000000000000000010008000000000000000000000000080000000000000000000000000000000001000000000000000000000000000000000010200000000800000000040000000004000000000000000000000000000000000000000000000000200000000400000000000000000000000000000080000000000000000000000002000004000000000000000004000000000000800080000040300000000100200000000000000000000000000000004000004000000000000000000000",
      "type": "0x2",
      "transactionHash": "0xc1c3678e3d2cf5ec5feff003ebdcf34a10c4dceef89a7ce6af231fd0a758f7f7",
      "transactionIndex": "0x0",
      "blockHash": "0x15225bcdde093eccb697205368664ac3f32a6c169be47b71356dbca67d49477e",
      "blockNumber": "0x17b8343",
      "gasUsed": "0x201da",
      "effectiveGasPrice": "0x1ba81c",
      "blobGasPrice": "0x1",
      "from": "0xe3745c151fab59b0740f4312b2b027f07d096639",
      "to": "0x8fa71914948544c60e3379064567dcf0e6564d27",
      "contractAddress": null
    }
  ],
  "libraries": [],
  "pending": [],
  "returns": {},
  "timestamp": 1778506445364,
  "chain": 31337,
  "commit": "59e30a9"
}