{
  "transactions": [
    {
      "hash": "0x621599ac5fbfadeabacf36bf482b1eb52521d891ca60f8e5e82b7ebf373ffe58",
      "transactionType": "CALL",
      "contractName": null,
      "contractAddress": "0x73973d222c3fda5b2563d269da9e19cb125000f4",
      "function": "settle((uint256,address),(uint8,bool,address,uint256,address,uint256,address,uint64,uint64,uint256),(uint8,bytes32,bytes32))",
      "arguments": [
        "(321, 0x4b75AeC40561C03e03d4D1C421dF194a3031A134)",
        "(1, false, 0x38D4dE42C9c5640A2799B372D27B01957E0a3673, 321, 0xC02aaA39b223FE8D0A0e5C4F27eAD9083C756Cc2, 13000000000000000, 0x08312E82df563A1639b81f49bb41247759700e30, 1771793969, 1780271669, 9)",
        "(28, 0x4e969f00b709aad5715461bfdd9aecc35d83868ecc4603f203d398d508a654bd, 0x582427e49f4c18f205ae7e1c00f7f93f3042dc0616ec045c81de4b1d7bb023c9)"
      ],
      "transaction": {
        "from": "0x4b75aec40561c03e03d4d1c421df194a3031a134",
        "to": "0x73973d222c3fda5b2563d269da9e19cb125000f4",
        "gas": "0x2c5dc",
        "value": "0x0",
        "input": "0x3bae3e7900000000000000000000000000000000000000000000000000000000000001410000000000000000000000004b75aec40561c03e03d4d1c421df194a3031a1340000000000000000000000000000000000000000000000000000000000000001000000000000000000000000000000000000000000000000000000000000000000000000000000000000000038d4de42c9c5640a2799b372d27b01957e0a36730000000000000000000000000000000000000000000000000000000000000141000000000000000000000000c02aaa39b223fe8d0a0e5c4f27ead9083c756cc2000000000000000000000000000000000000000000000000002e2f6e5e14800000000000000000000000000008312e82df563a1639b81f49bb41247759700e3000000000000000000000000000000000000000000000000000000000699b6e31000000000000000000000000000000000000000000000000000000006a1cca350000000000000000000000000000000000000000000000000000000000000009000000000000000000000000000000000000000000000000000000000000001c4e969f00b709aad5715461bfdd9aecc35d83868ecc4603f203d398d508a654bd582427e49f4c18f205ae7e1c00f7f93f3042dc0616ec045c81de4b1d7bb023c9",
        "nonce": "0x61",
        "chainId": "0x7a69"
      },
      "additionalContracts": [],
      "isFixedGasLimit": false
    }
  ],
  "receipts": [
    {
      "status": "0x1",
      "cumulativeGasUsed": "0x201ee",
      "logs": [
        {
          "address": "0xc02aaa39b223fe8d0a0e5c4f27ead9083c756cc2",
          "topics": [
            "0xddf252ad1be2c89b69c2b068fc378daa952ba7f163c4a11628f55a4df523b3ef",
            "0x00000000000000000000000008312e82df563a1639b81f49bb41247759700e30",
            "0x0000000000000000000000001804c8ab1f12e6bbf3894d4083f33e07309d1f38"
          ],
          "data": "0x0000000000000000000000000000000000000000000000000000763bfbd22000",
          "blockHash": "0xb87e498d438c041100ed7a96a57a2b68e3f173abc0b41e5459181f954c046dd1",
          "blockNumber": "0x17b73ea",
          "blockTimestamp": "0x69ee14b8",
          "transactionHash": "0x621599ac5fbfadeabacf36bf482b1eb52521d891ca60f8e5e82b7ebf373ffe58",
          "transactionIndex": "0x0",
          "logIndex": "0x0",
          "removed": false
        },
        {
          "address": "0xc02aaa39b223fe8d0a0e5c4f27ead9083c756cc2",
          "topics": [
            "0xddf252ad1be2c89b69c2b068fc378daa952ba7f163c4a11628f55a4df523b3ef",
            "0x00000000000000000000000008312e82df563a1639b81f49bb41247759700e30",
            "0x0000000000000000000000004b75aec40561c03e03d4d1c421df194a3031a134"
          ],
          "data": "0x000000000000000000000000000000000000000000000000002db93262426000",
          "blockHash": "0xb87e498d438c041100ed7a96a57a2b68e3f173abc0b41e5459181f954c046dd1",
          "blockNumber": "0x17b73ea",
          "blockTimestamp": "0x69ee14b8",
          "transactionHash": "0x621599ac5fbfadeabacf36bf482b1eb52521d891ca60f8e5e82b7ebf373ffe58",
          "transactionIndex": "0x0",
          "logIndex": "0x1",
          "removed": false
        },
        {
          "address": "0x38d4de42c9c5640a2799b372d27b01957e0a3673",
          "topics": [
            "0xddf252ad1be2c89b69c2b068fc378daa952ba7f163c4a11628f55a4df523b3ef",
            "0x0000000000000000000000004b75aec40561c03e03d4d1c421df194a3031a134",
            "0x00000000000000000000000008312e82df563a1639b81f49bb41247759700e30",
            "0x0000000000000000000000000000000000000000000000000000000000000141"
          ],
          "data": "0x",
          "blockHash": "0xb87e498d438c041100ed7a96a57a2b68e3f173abc0b41e5459181f954c046dd1",
          "blockNumber": "0x17b73ea",
          "blockTimestamp": "0x69ee14b8",
          "transactionHash": "0x621599ac5fbfadeabacf36bf482b1eb52521d891ca60f8e5e82b7ebf373ffe58",
          "transactionIndex": "0x0",
          "logIndex": "0x2",
          "removed": false
        },
        {
          "address": "0x73973d222c3fda5b2563d269da9e19cb125000f4",
          "topics": [
            "0xc0ac3eb1e8caef05b202043f34de8e3173fab712167584f7a2a9f4c302bd0e9c",
            "0x69b86087cd99eed2f0efcedc6bc5da4b19806940ffa305a0c52f6813aae4183b",
            "0x00000000000000000000000038d4de42c9c5640a2799b372d27b01957e0a3673",
            "0x0000000000000000000000000000000000000000000000000000000000000141"
          ],
          "data": "0x0000000000000000000000004b75aec40561c03e03d4d1c421df194a3031a13400000000000000000000000008312e82df563a1639b81f49bb41247759700e30000000000000000000000000c02aaa39b223fe8d0a0e5c4f27ead9083c756cc2000000000000000000000000000000000000000000000000002e2f6e5e148000",
          "blockHash": "0xb87e498d438c041100ed7a96a57a2b68e3f173abc0b41e5459181f954c046dd1",
          "blockNumber": "0x17b73ea",
          "blockTimestamp": "0x69ee14b8",
          "transactionHash": "0x621599ac5fbfadeabacf36bf482b1eb52521d891ca60f8e5e82b7ebf373ffe58",
          "transactionIndex": "0x0",
          "logIndex": "0x3",
          "removed": false
        }
      ],
      "logsBloom": "0x00000000000000000000000001000000000000000002000000000000000000000000000000100000000000000000020002000000080000000004100000100800000000000000001021000008000000000000000000000000000000000000000000000000000000000001000000000000000000000000000000000010000000000000000000000000200004000004000000000000000008000000000000002000000000000000000004000000000400000000000000100080420000000000000000000002000004000000000000000000000000000000000000000000000000000100200000000000000000000000000000000000004000000000000000400000",
      "type": "0x2",
      "transactionHash": "0x621599ac5fbfadeabacf36bf482b1eb52521d891ca60f8e5e82b7ebf373ffe58",
      "transactionIndex": "0x0",
      "blockHash": "0xb87e498d438c041100ed7a96a57a2b68e3f173abc0b41e5459181f954c046dd1",
      "blockNumber": "0x17b73ea",
      "gasUsed": "0x201ee",
      "effectiveGasPrice": "0xf4248",
      "blobGasPrice": "0x1",
      "from": "0x4b75aec40561c03e03d4d1c421df194a3031a134",
      "to": "0x73973d222c3fda5b2563d269da9e19cb125000f4",
      "contractAddress": null
    }
  ],
  "libraries": [],
  "pending": [],
  "returns": {},
  "timestamp": 1778453806609,
  "chain": 31337,
  "commit": "f87d399"
}