{
  "transactions": [
    {
      "hash": "0xf859ca0ff1e8537b9111c54372989806627e236b199eaddd8c4ce3693922f374",
      "transactionType": "CALL",
      "contractName": null,
      "contractAddress": "0x73973d222c3fda5b2563d269da9e19cb125000f4",
      "function": "settle((uint256,address),(uint8,bool,address,uint256,address,uint256,address,uint64,uint64,uint256),(uint8,bytes32,bytes32))",
      "arguments": [
        "(159, 0x08312E82df563A1639b81f49bb41247759700e30)",
        "(1, false, 0x38D4dE42C9c5640A2799B372D27B01957E0a3673, 159, 0xC02aaA39b223FE8D0A0e5C4F27eAD9083C756Cc2, 58000000000000000, 0xe3745C151faB59B0740f4312b2B027F07D096639, 1771636055, 1780429583, 4)",
        "(28, 0xecc1206ace93a929f9471786bd7b4f5519831d56211cc14ce4c7e37ec5aa8b78, 0x2f7c5f9fa9841f1ee119a9250d8d07ecf30ba67d2bd354e3e33c2f1f95f5fedc)"
      ],
      "transaction": {
        "from": "0x08312e82df563a1639b81f49bb41247759700e30",
        "to": "0x73973d222c3fda5b2563d269da9e19cb125000f4",
        "gas": "0x2ef8d",
        "value": "0x0",
        "input": "0x3bae3e79000000000000000000000000000000000000000000000000000000000000009f00000000000000000000000008312e82df563a1639b81f49bb41247759700e300000000000000000000000000000000000000000000000000000000000000001000000000000000000000000000000000000000000000000000000000000000000000000000000000000000038d4de42c9c5640a2799b372d27b01957e0a3673000000000000000000000000000000000000000000000000000000000000009f000000000000000000000000c02aaa39b223fe8d0a0e5c4f27ead9083c756cc200000000000000000000000000000000000000000000000000ce0eb154f90000000000000000000000000000e3745c151fab59b0740f4312b2b027f07d0966390000000000000000000000000000000000000000000000000000000069990557000000000000000000000000000000000000000000000000000000006a1f330f0000000000000000000000000000000000000000000000000000000000000004000000000000000000000000000000000000000000000000000000000000001cecc1206ace93a929f9471786bd7b4f5519831d56211cc14ce4c7e37ec5aa8b782f7c5f9fa9841f1ee119a9250d8d07ecf30ba67d2bd354e3e33c2f1f95f5fedc",
        "nonce": "0x69",
        "chainId": "0x7a69"
      },
      "additionalContracts": [],
      "isFixedGasLimit": false
    }
  ],
  "receipts": [
    {
      "status": "0x1",
      "cumulativeGasUsed": "0x201e2",
      "logs": [
        {
          "address": "0xc02aaa39b223fe8d0a0e5c4f27ead9083c756cc2",
          "topics": [
            "0xddf252ad1be2c89b69c2b068fc378daa952ba7f163c4a11628f55a4df523b3ef",
            "0x000000000000000000000000e3745c151fab59b0740f4312b2b027f07d096639",
            "0x0000000000000000000000001804c8ab1f12e6bbf3894d4083f33e07309d1f38"
          ],
          "data": "0x00000000000000000000000000000000000000000000000000020f81c5f84000",
          "blockHash": "0xc1e28ff569dea9adf6cd3fb6d85c84c1fcef26a761145b367c2cecf50ee8eab7",
          "blockNumber": "0x17b73b5",
          "blockTimestamp": "0x69e4cc86",
          "transactionHash": "0xf859ca0ff1e8537b9111c54372989806627e236b199eaddd8c4ce3693922f374",
          "transactionIndex": "0x0",
          "logIndex": "0x0",
          "removed": false
        },
        {
          "address": "0xc02aaa39b223fe8d0a0e5c4f27ead9083c756cc2",
          "topics": [
            "0xddf252ad1be2c89b69c2b068fc378daa952ba7f163c4a11628f55a4df523b3ef",
            "0x000000000000000000000000e3745c151fab59b0740f4312b2b027f07d096639",
            "0x00000000000000000000000008312e82df563a1639b81f49bb41247759700e30"
          ],
          "data": "0x00000000000000000000000000000000000000000000000000cbff2f8f00c000",
          "blockHash": "0xc1e28ff569dea9adf6cd3fb6d85c84c1fcef26a761145b367c2cecf50ee8eab7",
          "blockNumber": "0x17b73b5",
          "blockTimestamp": "0x69e4cc86",
          "transactionHash": "0xf859ca0ff1e8537b9111c54372989806627e236b199eaddd8c4ce3693922f374",
          "transactionIndex": "0x0",
          "logIndex": "0x1",
          "removed": false
        },
        {
          "address": "0x38d4de42c9c5640a2799b372d27b01957e0a3673",
          "topics": [
            "0xddf252ad1be2c89b69c2b068fc378daa952ba7f163c4a11628f55a4df523b3ef",
            "0x00000000000000000000000008312e82df563a1639b81f49bb41247759700e30",
            "0x000000000000000000000000e3745c151fab59b0740f4312b2b027f07d096639",
            "0x000000000000000000000000000000000000000000000000000000000000009f"
          ],
          "data": "0x",
          "blockHash": "0xc1e28ff569dea9adf6cd3fb6d85c84c1fcef26a761145b367c2cecf50ee8eab7",
          "blockNumber": "0x17b73b5",
          "blockTimestamp": "0x69e4cc86",
          "transactionHash": "0xf859ca0ff1e8537b9111c54372989806627e236b199eaddd8c4ce3693922f374",
          "transactionIndex": "0x0",
          "logIndex": "0x2",
          "removed": false
        },
        {
          "address": "0x73973d222c3fda5b2563d269da9e19cb125000f4",
          "topics": [
            "0xc0ac3eb1e8caef05b202043f34de8e3173fab712167584f7a2a9f4c302bd0e9c",
            "0xed58ac698280f38ab978d03e72ee1252338d420d8890598a8dd6bea7f29b61fb",
            "0x00000000000000000000000038d4de42c9c5640a2799b372d27b01957e0a3673",
            "0x000000000000000000000000000000000000000000000000000000000000009f"
          ],
          "data": "0x00000000000000000000000008312e82df563a1639b81f49bb41247759700e30000000000000000000000000e3745c151fab59b0740f4312b2b027f07d096639000000000000000000000000c02aaa39b223fe8d0a0e5c4f27ead9083c756cc200000000000000000000000000000000000000000000000000ce0eb154f90000",
          "blockHash": "0xc1e28ff569dea9adf6cd3fb6d85c84c1fcef26a761145b367c2cecf50ee8eab7",
          "blockNumber": "0x17b73b5",
          "blockTimestamp": "0x69e4cc86",
          "transactionHash": "0xf859ca0ff1e8537b9111c54372989806627e236b199eaddd8c4ce3693922f374",
          "transactionIndex": "0x0",
          "logIndex": "0x3",
          "removed": false
        }
      ],
      "logsBloom": "0x00000000000000000000000001000000000000000102000000000000000000000000000000100000000000000000020042000000080000000004100000100000000000000000001021000008000000000000000000000000000000000000000000000000000000000001002000000000000000000000000000000010000000000000000000000002000004000000000000000000000008000001000000000000000000000000000400000000000000000000000000000080400000000000000000000002000004000000000000000000000000000000000000000040000000000100200000000000000000000000000000000040004000000000000004000000",
      "type": "0x2",
      "transactionHash": "0xf859ca0ff1e8537b9111c54372989806627e236b199eaddd8c4ce3693922f374",
      "transactionIndex": "0x0",
      "blockHash": "0xc1e28ff569dea9adf6cd3fb6d85c84c1fcef26a761145b367c2cecf50ee8eab7",
      "blockNumber": "0x17b73b5",
      "gasUsed": "0x201e2",
      "effectiveGasPrice": "0xf4248",
      "blobGasPrice": "0x1",
      "from": "0x08312e82df563a1639b81f49bb41247759700e30",
      "to": "0x73973d222c3fda5b2563d269da9e19cb125000f4",
      "contractAddress": null
    }
  ],
  "libraries": [],
  "pending": [],
  "returns": {},
  "timestamp": 1778453724088,
  "chain": 31337,
  "commit": "f87d399"
}