{
  "transactions": [
    {
      "hash": "0x82411ca4b33a2f4e0f7cddc794832b7bddf8b495252643d4f80709869dbbf84c",
      "transactionType": "CALL",
      "contractName": null,
      "contractAddress": "0x73973d222c3fda5b2563d269da9e19cb125000f4",
      "function": "settle((uint256,address),(uint8,bool,address,uint256,address,uint256,address,uint64,uint64,uint256),(uint8,bytes32,bytes32))",
      "arguments": [
        "(450, 0x4b75AeC40561C03e03d4D1C421dF194a3031A134)",
        "(1, false, 0x38D4dE42C9c5640A2799B372D27B01957E0a3673, 450, 0xC02aaA39b223FE8D0A0e5C4F27eAD9083C756Cc2, 1033000000000000000, 0x08312E82df563A1639b81f49bb41247759700e30, 1771601800, 1780463838, 7)",
        "(28, 0xd79baea98d848a56a3c6dd138cfa5ff1539178d36434c178052cf1016a31b0ab, 0x35213cf68d0210779e2017f04fa345bbb73daa98579171b78160314e36905f8b)"
      ],
      "transaction": {
        "from": "0x4b75aec40561c03e03d4d1c421df194a3031a134",
        "to": "0x73973d222c3fda5b2563d269da9e19cb125000f4",
        "gas": "0x2efd3",
        "value": "0x0",
        "input": "0x3bae3e7900000000000000000000000000000000000000000000000000000000000001c20000000000000000000000004b75aec40561c03e03d4d1c421df194a3031a1340000000000000000000000000000000000000000000000000000000000000001000000000000000000000000000000000000000000000000000000000000000000000000000000000000000038d4de42c9c5640a2799b372d27b01957e0a367300000000000000000000000000000000000000000000000000000000000001c2000000000000000000000000c02aaa39b223fe8d0a0e5c4f27ead9083c756cc20000000000000000000000000000000000000000000000000e55f406e4fa800000000000000000000000000008312e82df563a1639b81f49bb41247759700e300000000000000000000000000000000000000000000000000000000069987f88000000000000000000000000000000000000000000000000000000006a1fb8de0000000000000000000000000000000000000000000000000000000000000007000000000000000000000000000000000000000000000000000000000000001cd79baea98d848a56a3c6dd138cfa5ff1539178d36434c178052cf1016a31b0ab35213cf68d0210779e2017f04fa345bbb73daa98579171b78160314e36905f8b",
        "nonce": "0x5f",
        "chainId": "0x7a69"
      },
      "additionalContracts": [],
      "isFixedGasLimit": false
    }
  ],
  "receipts": [
    {
      "status": "0x1",
      "cumulativeGasUsed": "0x20212",
      "logs": [
        {
          "address": "0xc02aaa39b223fe8d0a0e5c4f27ead9083c756cc2",
          "topics": [
            "0xddf252ad1be2c89b69c2b068fc378daa952ba7f163c4a11628f55a4df523b3ef",
            "0x00000000000000000000000008312e82df563a1639b81f49bb41247759700e30",
            "0x0000000000000000000000001804c8ab1f12e6bbf3894d4083f33e07309d1f38"
          ],
          "data": "0x0000000000000000000000000000000000000000000000000024b3148c87a000",
          "blockHash": "0x1f3e9c1a3798933a61a3b4b9a357718995569fc3d19f2f704768cec103c4b8c2",
          "blockNumber": "0x17b73b7",
          "blockTimestamp": "0x69e52cf2",
          "transactionHash": "0x82411ca4b33a2f4e0f7cddc794832b7bddf8b495252643d4f80709869dbbf84c",
          "transactionIndex": "0x0",
          "logIndex": "0x0",
          "removed": false
        },
        {
          "address": "0xc02aaa39b223fe8d0a0e5c4f27ead9083c756cc2",
          "topics": [
            "0xddf252ad1be2c89b69c2b068fc378daa952ba7f163c4a11628f55a4df523b3ef",
            "0x00000000000000000000000008312e82df563a1639b81f49bb41247759700e30",
            "0x0000000000000000000000004b75aec40561c03e03d4d1c421df194a3031a134"
          ],
          "data": "0x0000000000000000000000000000000000000000000000000e3140f25872e000",
          "blockHash": "0x1f3e9c1a3798933a61a3b4b9a357718995569fc3d19f2f704768cec103c4b8c2",
          "blockNumber": "0x17b73b7",
          "blockTimestamp": "0x69e52cf2",
          "transactionHash": "0x82411ca4b33a2f4e0f7cddc794832b7bddf8b495252643d4f80709869dbbf84c",
          "transactionIndex": "0x0",
          "logIndex": "0x1",
          "removed": false
        },
        {
          "address": "0x38d4de42c9c5640a2799b372d27b01957e0a3673",
          "topics": [
            "0xddf252ad1be2c89b69c2b068fc378daa952ba7f163c4a11628f55a4df523b3ef",
            "0x0000000000000000000000004b75aec40561c03e03d4d1c421df194a3031a134",
            "0x00000000000000000000000008312e82df563a1639b81f49bb41247759700e30",
            "0x00000000000000000000000000000000000000000000000000000000000001c2"
          ],
          "data": "0x",
          "blockHash": "0x1f3e9c1a3798933a61a3b4b9a357718995569fc3d19f2f704768cec103c4b8c2",
          "blockNumber": "0x17b73b7",
          "blockTimestamp": "0x69e52cf2",
          "transactionHash": "0x82411ca4b33a2f4e0f7cddc794832b7bddf8b495252643d4f80709869dbbf84c",
          "transactionIndex": "0x0",
          "logIndex": "0x2",
          "removed": false
        },
        {
          "address": "0x73973d222c3fda5b2563d269da9e19cb125000f4",
          "topics": [
            "0xc0ac3eb1e8caef05b202043f34de8e3173fab712167584f7a2a9f4c302bd0e9c",
            "0x5dae2f3c884c853498e0db68991e8e3e87d3eb44ac4b02ba0145402e63a973c9",
            "0x00000000000000000000000038d4de42c9c5640a2799b372d27b01957e0a3673",
            "0x00000000000000000000000000000000000000000000000000000000000001c2"
          ],
          "data": "0x0000000000000000000000004b75aec40561c03e03d4d1c421df194a3031a13400000000000000000000000008312e82df563a1639b81f49bb41247759700e30000000000000000000000000c02aaa39b223fe8d0a0e5c4f27ead9083c756cc20000000000000000000000000000000000000000000000000e55f406e4fa8000",
          "blockHash": "0x1f3e9c1a3798933a61a3b4b9a357718995569fc3d19f2f704768cec103c4b8c2",
          "blockNumber": "0x17b73b7",
          "blockTimestamp": "0x69e52cf2",
          "transactionHash": "0x82411ca4b33a2f4e0f7cddc794832b7bddf8b495252643d4f80709869dbbf84c",
          "transactionIndex": "0x0",
          "logIndex": "0x3",
          "removed": false
        }
      ],
      "logsBloom": "0x00000000000000000002000001400000000000000002000000000000000000000000000000100000000000000000020002000000080000000404100000100000000000000000001021000008000000000000000000000000000000000000000000000000000000000001000000000000000000000000000000000010000000000000000000000100000004000000000000000000000008000000000000002000000000000000000000000000000400000000000000000080420000000000000000000002000004000000000000000000000000000000200100000000000000000100200000000000000000000000000000000000004000000000000000000000",
      "type": "0x2",
      "transactionHash": "0x82411ca4b33a2f4e0f7cddc794832b7bddf8b495252643d4f80709869dbbf84c",
      "transactionIndex": "0x0",
      "blockHash": "0x1f3e9c1a3798933a61a3b4b9a357718995569fc3d19f2f704768cec103c4b8c2",
      "blockNumber": "0x17b73b7",
      "gasUsed": "0x20212",
      "effectiveGasPrice": "0xf4248",
      "blobGasPrice": "0x1",
      "from": "0x4b75aec40561c03e03d4d1c421df194a3031a134",
      "to": "0x73973d222c3fda5b2563d269da9e19cb125000f4",
      "contractAddress": null
    }
  ],
  "libraries": [],
  "pending": [],
  "returns": {},
  "timestamp": 1778453725715,
  "chain": 31337,
  "commit": "f87d399"
}