{
  "transactions": [
    {
      "hash": "0xe536306c190c8f2d3a5d3797d20d8bc5214aa5024879256e667de752c248e4cd",
      "transactionType": "CALL",
      "contractName": null,
      "contractAddress": "0x73973d222c3fda5b2563d269da9e19cb125000f4",
      "function": "settle((uint256,address),(uint8,bool,address,uint256,address,uint256,address,uint64,uint64,uint256),(uint8,bytes32,bytes32))",
      "arguments": [
        "(60, 0xcbe5659df21Cbcfabe4da962F7a9081F26B3ed82)",
        "(1, false, 0x38D4dE42C9c5640A2799B372D27B01957E0a3673, 60, 0xC02aaA39b223FE8D0A0e5C4F27eAD9083C756Cc2, 486000000000000000, 0x08312E82df563A1639b81f49bb41247759700e30, 1772727894, 1779337744, 4)",
        "(28, 0x572be1c393260c372c3e2c0bf86c15a4f5275cfdc4f23405bb77164aaa09b47f, 0x560dd892047c560f528e7a0def4a02c844e86987a436c88c726d27affa80c99f)"
      ],
      "transaction": {
        "from": "0xcbe5659df21cbcfabe4da962f7a9081f26b3ed82",
        "to": "0x73973d222c3fda5b2563d269da9e19cb125000f4",
        "gas": "0x2c5dc",
        "value": "0x0",
        "input": "0x3bae3e79000000000000000000000000000000000000000000000000000000000000003c000000000000000000000000cbe5659df21cbcfabe4da962f7a9081f26b3ed820000000000000000000000000000000000000000000000000000000000000001000000000000000000000000000000000000000000000000000000000000000000000000000000000000000038d4de42c9c5640a2799b372d27b01957e0a3673000000000000000000000000000000000000000000000000000000000000003c000000000000000000000000c02aaa39b223fe8d0a0e5c4f27ead9083c756cc200000000000000000000000000000000000000000000000006be9e6cd0d7000000000000000000000000000008312e82df563a1639b81f49bb41247759700e300000000000000000000000000000000000000000000000000000000069a9ae56000000000000000000000000000000000000000000000000000000006a0e8a100000000000000000000000000000000000000000000000000000000000000004000000000000000000000000000000000000000000000000000000000000001c572be1c393260c372c3e2c0bf86c15a4f5275cfdc4f23405bb77164aaa09b47f560dd892047c560f528e7a0def4a02c844e86987a436c88c726d27affa80c99f",
        "nonce": "0x6b",
        "chainId": "0x7a69"
      },
      "additionalContracts": [],
      "isFixedGasLimit": false
    }
  ],
  "receipts": [
    {
      "status": "0x1",
      "cumulativeGasUsed": "0x201ee",
      "logs": [
        {
          "address": "0xc02aaa39b223fe8d0a0e5c4f27ead9083c756cc2",
          "topics": [
            "0xddf252ad1be2c89b69c2b068fc378daa952ba7f163c4a11628f55a4df523b3ef",
            "0x00000000000000000000000008312e82df563a1639b81f49bb41247759700e30",
            "0x0000000000000000000000001804c8ab1f12e6bbf3894d4083f33e07309d1f38"
          ],
          "data": "0x00000000000000000000000000000000000000000000000000114424ed9bc000",
          "blockHash": "0xbd8abdf4e603a00465ad7d1ffb67a1811656b6c68d17bcda40751e1cc6a9040b",
          "blockNumber": "0x17b739a",
          "blockTimestamp": "0x69dfb6bc",
          "transactionHash": "0xe536306c190c8f2d3a5d3797d20d8bc5214aa5024879256e667de752c248e4cd",
          "transactionIndex": "0x0",
          "logIndex": "0x0",
          "removed": false
        },
        {
          "address": "0xc02aaa39b223fe8d0a0e5c4f27ead9083c756cc2",
          "topics": [
            "0xddf252ad1be2c89b69c2b068fc378daa952ba7f163c4a11628f55a4df523b3ef",
            "0x00000000000000000000000008312e82df563a1639b81f49bb41247759700e30",
            "0x000000000000000000000000cbe5659df21cbcfabe4da962f7a9081f26b3ed82"
          ],
          "data": "0x00000000000000000000000000000000000000000000000006ad5a47e33b4000",
          "blockHash": "0xbd8abdf4e603a00465ad7d1ffb67a1811656b6c68d17bcda40751e1cc6a9040b",
          "blockNumber": "0x17b739a",
          "blockTimestamp": "0x69dfb6bc",
          "transactionHash": "0xe536306c190c8f2d3a5d3797d20d8bc5214aa5024879256e667de752c248e4cd",
          "transactionIndex": "0x0",
          "logIndex": "0x1",
          "removed": false
        },
        {
          "address": "0x38d4de42c9c5640a2799b372d27b01957e0a3673",
          "topics": [
            "0xddf252ad1be2c89b69c2b068fc378daa952ba7f163c4a11628f55a4df523b3ef",
            "0x000000000000000000000000cbe5659df21cbcfabe4da962f7a9081f26b3ed82",
            "0x00000000000000000000000008312e82df563a1639b81f49bb41247759700e30",
            "0x000000000000000000000000000000000000000000000000000000000000003c"
          ],
          "data": "0x",
          "blockHash": "0xbd8abdf4e603a00465ad7d1ffb67a1811656b6c68d17bcda40751e1cc6a9040b",
          "blockNumber": "0x17b739a",
          "blockTimestamp": "0x69dfb6bc",
          "transactionHash": "0xe536306c190c8f2d3a5d3797d20d8bc5214aa5024879256e667de752c248e4cd",
          "transactionIndex": "0x0",
          "logIndex": "0x2",
          "removed": false
        },
        {
          "address": "0x73973d222c3fda5b2563d269da9e19cb125000f4",
          "topics": [
            "0xc0ac3eb1e8caef05b202043f34de8e3173fab712167584f7a2a9f4c302bd0e9c",
            "0x56854b7b27d8867db0ff345ff1b6c30c6057dacf360809919e4eccd04dc1347a",
            "0x00000000000000000000000038d4de42c9c5640a2799b372d27b01957e0a3673",
            "0x000000000000000000000000000000000000000000000000000000000000003c"
          ],
          "data": "0x000000000000000000000000cbe5659df21cbcfabe4da962f7a9081f26b3ed8200000000000000000000000008312e82df563a1639b81f49bb41247759700e30000000000000000000000000c02aaa39b223fe8d0a0e5c4f27ead9083c756cc200000000000000000000000000000000000000000000000006be9e6cd0d70000",
          "blockHash": "0xbd8abdf4e603a00465ad7d1ffb67a1811656b6c68d17bcda40751e1cc6a9040b",
          "blockNumber": "0x17b739a",
          "blockTimestamp": "0x69dfb6bc",
          "transactionHash": "0xe536306c190c8f2d3a5d3797d20d8bc5214aa5024879256e667de752c248e4cd",
          "transactionIndex": "0x0",
          "logIndex": "0x3",
          "removed": false
        }
      ],
      "logsBloom": "0x00000000000001000020000001040000000000000002000000000000000000000000000000100800080000000000020002000000080000000004100000100000000000000000001021000008000000000000000000000000000000000000000000000000000000000001000000000000000000000000000000000010000000000000000000000000000004000000000000000000000008000000000000000000000000000000000000000000000000000000000000000080400000000000000000000002000004080400000000000000000000000000020000000000000000000100200000000000000000000000000000000000004000000000000000000000",
      "type": "0x2",
      "transactionHash": "0xe536306c190c8f2d3a5d3797d20d8bc5214aa5024879256e667de752c248e4cd",
      "transactionIndex": "0x0",
      "blockHash": "0xbd8abdf4e603a00465ad7d1ffb67a1811656b6c68d17bcda40751e1cc6a9040b",
      "blockNumber": "0x17b739a",
      "gasUsed": "0x201ee",
      "effectiveGasPrice": "0xf4248",
      "blobGasPrice": "0x1",
      "from": "0xcbe5659df21cbcfabe4da962f7a9081f26b3ed82",
      "to": "0x73973d222c3fda5b2563d269da9e19cb125000f4",
      "contractAddress": null
    }
  ],
  "libraries": [],
  "pending": [],
  "returns": {},
  "timestamp": 1778453700256,
  "chain": 31337,
  "commit": "f87d399"
}