{
  "transactions": [
    {
      "hash": "0x56f0303f9c1bc67a9128a1545328ce9c9298ce2eebfc1f822d271bfeba1f8e35",
      "transactionType": "CALL",
      "contractName": null,
      "contractAddress": "0x73973d222c3fda5b2563d269da9e19cb125000f4",
      "function": "settle((uint256,address),(uint8,bool,address,uint256,address,uint256,address,uint64,uint64,uint256),(uint8,bytes32,bytes32))",
      "arguments": [
        "(0, 0x646dC5Fc4009C4C84a424B6aE0f494b374bAE1Ce)",
        "(0, false, 0x38D4dE42C9c5640A2799B372D27B01957E0a3673, 495, 0xC02aaA39b223FE8D0A0e5C4F27eAD9083C756Cc2, 195000000000000000, 0xcbe5659df21Cbcfabe4da962F7a9081F26B3ed82, 1772520964, 1779544674, 1)",
        "(27, 0xec82b65d944ad7ce50b56880951204faa48a188604b450596ae2416bcb11cd29, 0x36b2b2759875a18bef7497e54dd742c8663683371dd111a2d4cd0098d197f17a)"
      ],
      "transaction": {
        "from": "0x646dc5fc4009c4c84a424b6ae0f494b374bae1ce",
        "to": "0x73973d222c3fda5b2563d269da9e19cb125000f4",
        "gas": "0x2ee7f",
        "value": "0x0",
        "input": "0x3bae3e790000000000000000000000000000000000000000000000000000000000000000000000000000000000000000646dc5fc4009c4c84a424b6ae0f494b374bae1ce0000000000000000000000000000000000000000000000000000000000000000000000000000000000000000000000000000000000000000000000000000000000000000000000000000000038d4de42c9c5640a2799b372d27b01957e0a367300000000000000000000000000000000000000000000000000000000000001ef000000000000000000000000c02aaa39b223fe8d0a0e5c4f27ead9083c756cc200000000000000000000000000000000000000000000000002b4c77783338000000000000000000000000000cbe5659df21cbcfabe4da962f7a9081f26b3ed820000000000000000000000000000000000000000000000000000000069a68604000000000000000000000000000000000000000000000000000000006a11b2620000000000000000000000000000000000000000000000000000000000000001000000000000000000000000000000000000000000000000000000000000001bec82b65d944ad7ce50b56880951204faa48a188604b450596ae2416bcb11cd2936b2b2759875a18bef7497e54dd742c8663683371dd111a2d4cd0098d197f17a",
        "nonce": "0x8e",
        "chainId": "0x7a69"
      },
      "additionalContracts": [],
      "isFixedGasLimit": false
    }
  ],
  "receipts": [
    {
      "status": "0x1",
      "cumulativeGasUsed": "0x20129",
      "logs": [
        {
          "address": "0xc02aaa39b223fe8d0a0e5c4f27ead9083c756cc2",
          "topics": [
            "0xddf252ad1be2c89b69c2b068fc378daa952ba7f163c4a11628f55a4df523b3ef",
            "0x000000000000000000000000646dc5fc4009c4c84a424b6ae0f494b374bae1ce",
            "0x0000000000000000000000001804c8ab1f12e6bbf3894d4083f33e07309d1f38"
          ],
          "data": "0x0000000000000000000000000000000000000000000000000006ed83c14fe000",
          "blockHash": "0xdb90e747a2e4f73b66a50b6551c6915aac77a4e97cb5b846d82bf4347c3aa2da",
          "blockNumber": "0x17b739e",
          "blockTimestamp": "0x69e07796",
          "transactionHash": "0x56f0303f9c1bc67a9128a1545328ce9c9298ce2eebfc1f822d271bfeba1f8e35",
          "transactionIndex": "0x0",
          "logIndex": "0x0",
          "removed": false
        },
        {
          "address": "0xc02aaa39b223fe8d0a0e5c4f27ead9083c756cc2",
          "topics": [
            "0xddf252ad1be2c89b69c2b068fc378daa952ba7f163c4a11628f55a4df523b3ef",
            "0x000000000000000000000000646dc5fc4009c4c84a424b6ae0f494b374bae1ce",
            "0x000000000000000000000000cbe5659df21cbcfabe4da962f7a9081f26b3ed82"
          ],
          "data": "0x00000000000000000000000000000000000000000000000002add9f3c1e3a000",
          "blockHash": "0xdb90e747a2e4f73b66a50b6551c6915aac77a4e97cb5b846d82bf4347c3aa2da",
          "blockNumber": "0x17b739e",
          "blockTimestamp": "0x69e07796",
          "transactionHash": "0x56f0303f9c1bc67a9128a1545328ce9c9298ce2eebfc1f822d271bfeba1f8e35",
          "transactionIndex": "0x0",
          "logIndex": "0x1",
          "removed": false
        },
        {
          "address": "0x38d4de42c9c5640a2799b372d27b01957e0a3673",
          "topics": [
            "0xddf252ad1be2c89b69c2b068fc378daa952ba7f163c4a11628f55a4df523b3ef",
            "0x000000000000000000000000cbe5659df21cbcfabe4da962f7a9081f26b3ed82",
            "0x000000000000000000000000646dc5fc4009c4c84a424b6ae0f494b374bae1ce",
            "0x00000000000000000000000000000000000000000000000000000000000001ef"
          ],
          "data": "0x",
          "blockHash": "0xdb90e747a2e4f73b66a50b6551c6915aac77a4e97cb5b846d82bf4347c3aa2da",
          "blockNumber": "0x17b739e",
          "blockTimestamp": "0x69e07796",
          "transactionHash": "0x56f0303f9c1bc67a9128a1545328ce9c9298ce2eebfc1f822d271bfeba1f8e35",
          "transactionIndex": "0x0",
          "logIndex": "0x2",
          "removed": false
        },
        {
          "address": "0x73973d222c3fda5b2563d269da9e19cb125000f4",
          "topics": [
            "0xc0ac3eb1e8caef05b202043f34de8e3173fab712167584f7a2a9f4c302bd0e9c",
            "0x1884bbbbb5fd108ea0163e1c21fe024e28f882d097a86f683d122eefce6c3686",
            "0x00000000000000000000000038d4de42c9c5640a2799b372d27b01957e0a3673",
            "0x00000000000000000000000000000000000000000000000000000000000001ef"
          ],
          "data": "0x000000000000000000000000cbe5659df21cbcfabe4da962f7a9081f26b3ed82000000000000000000000000646dc5fc4009c4c84a424b6ae0f494b374bae1ce000000000000000000000000c02aaa39b223fe8d0a0e5c4f27ead9083c756cc200000000000000000000000000000000000000000000000002b4c77783338000",
          "blockHash": "0xdb90e747a2e4f73b66a50b6551c6915aac77a4e97cb5b846d82bf4347c3aa2da",
          "blockNumber": "0x17b739e",
          "blockTimestamp": "0x69e07796",
          "transactionHash": "0x56f0303f9c1bc67a9128a1545328ce9c9298ce2eebfc1f822d271bfeba1f8e35",
          "transactionIndex": "0x0",
          "logIndex": "0x3",
          "removed": false
        }
      ],
      "logsBloom": "0x00000000000000000000000000000000000000000002000000000000000000000000100000000000000000000000020002000000090000000004100000100000000000000000001021000008000000000000000000000000000000000000000000000000000080000005000000000000000000000000000000000010000000000000000000010000000004000000000000000000000008000000000000000000000000000000000000000000000000000000000000000080400000000000000000000002000004100400000000000000000000000000020000000000000000000100200000000040000000000000001000000000004000000000000000000000",
      "type": "0x2",
      "transactionHash": "0x56f0303f9c1bc67a9128a1545328ce9c9298ce2eebfc1f822d271bfeba1f8e35",
      "transactionIndex": "0x0",
      "blockHash": "0xdb90e747a2e4f73b66a50b6551c6915aac77a4e97cb5b846d82bf4347c3aa2da",
      "blockNumber": "0x17b739e",
      "gasUsed": "0x20129",
      "effectiveGasPrice": "0xf4248",
      "blobGasPrice": "0x1",
      "from": "0x646dc5fc4009c4c84a424b6ae0f494b374bae1ce",
      "to": "0x73973d222c3fda5b2563d269da9e19cb125000f4",
      "contractAddress": null
    }
  ],
  "libraries": [],
  "pending": [],
  "returns": {},
  "timestamp": 1778453703653,
  "chain": 31337,
  "commit": "f87d399"
}