{
  "transactions": [
    {
      "hash": "0xbe5002bbcc9c3cef24a002bb081754620837e2ce408a70a3dd0b9fc7f87bc174",
      "transactionType": "CALL",
      "contractName": null,
      "contractAddress": "0x73973d222c3fda5b2563d269da9e19cb125000f4",
      "function": "settle((uint256,address),(uint8,bool,address,uint256,address,uint256,address,uint64,uint64,uint256),(uint8,bytes32,bytes32))",
      "arguments": [
        "(417, 0x646dC5Fc4009C4C84a424B6aE0f494b374bAE1Ce)",
        "(1, false, 0x38D4dE42C9c5640A2799B372D27B01957E0a3673, 417, 0xC02aaA39b223FE8D0A0e5C4F27eAD9083C756Cc2, 28000000000000000, 0x08312E82df563A1639b81f49bb41247759700e30, 1771860628, 1780205010, 6)",
        "(28, 0xd55a3b61440c3300acd2bea9055d9276348daf6e67b275914b70afe73b57db00, 0x76c4ab82a1748abe6848b74b223e95c22edb5a831c44f53140d4d25363da0e99)"
      ],
      "transaction": {
        "from": "0x646dc5fc4009c4c84a424b6ae0f494b374bae1ce",
        "to": "0x73973d222c3fda5b2563d269da9e19cb125000f4",
        "gas": "0x2ef8d",
        "value": "0x0",
        "input": "0x3bae3e7900000000000000000000000000000000000000000000000000000000000001a1000000000000000000000000646dc5fc4009c4c84a424b6ae0f494b374bae1ce0000000000000000000000000000000000000000000000000000000000000001000000000000000000000000000000000000000000000000000000000000000000000000000000000000000038d4de42c9c5640a2799b372d27b01957e0a367300000000000000000000000000000000000000000000000000000000000001a1000000000000000000000000c02aaa39b223fe8d0a0e5c4f27ead9083c756cc2000000000000000000000000000000000000000000000000006379da05b6000000000000000000000000000008312e82df563a1639b81f49bb41247759700e3000000000000000000000000000000000000000000000000000000000699c7294000000000000000000000000000000000000000000000000000000006a1bc5d20000000000000000000000000000000000000000000000000000000000000006000000000000000000000000000000000000000000000000000000000000001cd55a3b61440c3300acd2bea9055d9276348daf6e67b275914b70afe73b57db0076c4ab82a1748abe6848b74b223e95c22edb5a831c44f53140d4d25363da0e99",
        "nonce": "0x96",
        "chainId": "0x7a69"
      },
      "additionalContracts": [],
      "isFixedGasLimit": false
    }
  ],
  "receipts": [
    {
      "status": "0x1",
      "cumulativeGasUsed": "0x201e2",
      "logs": [
        {
          "address": "0xc02aaa39b223fe8d0a0e5c4f27ead9083c756cc2",
          "topics": [
            "0xddf252ad1be2c89b69c2b068fc378daa952ba7f163c4a11628f55a4df523b3ef",
            "0x00000000000000000000000008312e82df563a1639b81f49bb41247759700e30",
            "0x0000000000000000000000001804c8ab1f12e6bbf3894d4083f33e07309d1f38"
          ],
          "data": "0x0000000000000000000000000000000000000000000000000000fea894898000",
          "blockHash": "0xf6ae4621f99d5e15e3e1597ceac0c385941334cc560affe99113c9cbcefa75a3",
          "blockNumber": "0x17b73ac",
          "blockTimestamp": "0x69e31a97",
          "transactionHash": "0xbe5002bbcc9c3cef24a002bb081754620837e2ce408a70a3dd0b9fc7f87bc174",
          "transactionIndex": "0x0",
          "logIndex": "0x0",
          "removed": false
        },
        {
          "address": "0xc02aaa39b223fe8d0a0e5c4f27ead9083c756cc2",
          "topics": [
            "0xddf252ad1be2c89b69c2b068fc378daa952ba7f163c4a11628f55a4df523b3ef",
            "0x00000000000000000000000008312e82df563a1639b81f49bb41247759700e30",
            "0x000000000000000000000000646dc5fc4009c4c84a424b6ae0f494b374bae1ce"
          ],
          "data": "0x00000000000000000000000000000000000000000000000000627b31712c8000",
          "blockHash": "0xf6ae4621f99d5e15e3e1597ceac0c385941334cc560affe99113c9cbcefa75a3",
          "blockNumber": "0x17b73ac",
          "blockTimestamp": "0x69e31a97",
          "transactionHash": "0xbe5002bbcc9c3cef24a002bb081754620837e2ce408a70a3dd0b9fc7f87bc174",
          "transactionIndex": "0x0",
          "logIndex": "0x1",
          "removed": false
        },
        {
          "address": "0x38d4de42c9c5640a2799b372d27b01957e0a3673",
          "topics": [
            "0xddf252ad1be2c89b69c2b068fc378daa952ba7f163c4a11628f55a4df523b3ef",
            "0x000000000000000000000000646dc5fc4009c4c84a424b6ae0f494b374bae1ce",
            "0x00000000000000000000000008312e82df563a1639b81f49bb41247759700e30",
            "0x00000000000000000000000000000000000000000000000000000000000001a1"
          ],
          "data": "0x",
          "blockHash": "0xf6ae4621f99d5e15e3e1597ceac0c385941334cc560affe99113c9cbcefa75a3",
          "blockNumber": "0x17b73ac",
          "blockTimestamp": "0x69e31a97",
          "transactionHash": "0xbe5002bbcc9c3cef24a002bb081754620837e2ce408a70a3dd0b9fc7f87bc174",
          "transactionIndex": "0x0",
          "logIndex": "0x2",
          "removed": false
        },
        {
          "address": "0x73973d222c3fda5b2563d269da9e19cb125000f4",
          "topics": [
            "0xc0ac3eb1e8caef05b202043f34de8e3173fab712167584f7a2a9f4c302bd0e9c",
            "0x56c768fe925f7d2ed9d6b9b8997b4b7ae4130ddff75d204ed3714f119a31e7d6",
            "0x00000000000000000000000038d4de42c9c5640a2799b372d27b01957e0a3673",
            "0x00000000000000000000000000000000000000000000000000000000000001a1"
          ],
          "data": "0x000000000000000000000000646dc5fc4009c4c84a424b6ae0f494b374bae1ce00000000000000000000000008312e82df563a1639b81f49bb41247759700e30000000000000000000000000c02aaa39b223fe8d0a0e5c4f27ead9083c756cc2000000000000000000000000000000000000000000000000006379da05b60000",
          "blockHash": "0xf6ae4621f99d5e15e3e1597ceac0c385941334cc560affe99113c9cbcefa75a3",
          "blockNumber": "0x17b73ac",
          "blockTimestamp": "0x69e31a97",
          "transactionHash": "0xbe5002bbcc9c3cef24a002bb081754620837e2ce408a70a3dd0b9fc7f87bc174",
          "transactionIndex": "0x0",
          "logIndex": "0x3",
          "removed": false
        }
      ],
      "logsBloom": "0x00000000000000000000000001000000000000000002000000000000000000000000000000100000000000000000020002000000090000000004100000100000000000000000001021000008000000020000000000000000000000000000000000000000000000000005000000000000000001000000000000000010000000000000000400000000000004000000001800000000000008000000000000000000000000000000000000000000000000000000000000000080400000000000000000000002000004000000000000000000000000000000000000000000001000000100200000000000000000000000000000000000004000000000000000000000",
      "type": "0x2",
      "transactionHash": "0xbe5002bbcc9c3cef24a002bb081754620837e2ce408a70a3dd0b9fc7f87bc174",
      "transactionIndex": "0x0",
      "blockHash": "0xf6ae4621f99d5e15e3e1597ceac0c385941334cc560affe99113c9cbcefa75a3",
      "blockNumber": "0x17b73ac",
      "gasUsed": "0x201e2",
      "effectiveGasPrice": "0xf4248",
      "blobGasPrice": "0x1",
      "from": "0x646dc5fc4009c4c84a424b6ae0f494b374bae1ce",
      "to": "0x73973d222c3fda5b2563d269da9e19cb125000f4",
      "contractAddress": null
    }
  ],
  "libraries": [],
  "pending": [],
  "returns": {},
  "timestamp": 1778453716244,
  "chain": 31337,
  "commit": "f87d399"
}