{
  "transactions": [
    {
      "hash": "0x7abc4041f7f0c136ff4efbee90babb7f055e7f4af4eb53e1a757be61a32b1e87",
      "transactionType": "CALL",
      "contractName": null,
      "contractAddress": "0x8fa71914948544c60e3379064567dcf0e6564d27",
      "function": "settle((uint256,address),(uint8,bool,address,uint256,address,uint256,address,uint64,uint64,uint256),(uint8,bytes32,bytes32))",
      "arguments": [
        "(0, 0xE233420d38D286C2F2Cf8dEe6564F132FBDB09DB)",
        "(0, false, 0xA5f104F8f78d5ba9AEC4a383c0927337Fd4E997B, 176, 0xC02aaA39b223FE8D0A0e5C4F27eAD9083C756Cc2, 58000000000000000, 0x08312E82df563A1639b81f49bb41247759700e30, 1772884281, 1779290005, 8)",
        "(27, 0xc2f99589296d9838b13b42d32b170cf5808c772f91e3b0895ff8edb28d9acf72, 0x4c0dea3dd765581189a90de1df2424dfc00e79c2d2cb1fbb23d54233e1991095)"
      ],
      "transaction": {
        "from": "0xe233420d38d286c2f2cf8dee6564f132fbdb09db",
        "to": "0x8fa71914948544c60e3379064567dcf0e6564d27",
        "gas": "0x2ee5b",
        "value": "0x0",
        "input": "0x3bae3e790000000000000000000000000000000000000000000000000000000000000000000000000000000000000000e233420d38d286c2f2cf8dee6564f132fbdb09db00000000000000000000000000000000000000000000000000000000000000000000000000000000000000000000000000000000000000000000000000000000000000000000000000000000a5f104f8f78d5ba9aec4a383c0927337fd4e997b00000000000000000000000000000000000000000000000000000000000000b0000000000000000000000000c02aaa39b223fe8d0a0e5c4f27ead9083c756cc200000000000000000000000000000000000000000000000000ce0eb154f9000000000000000000000000000008312e82df563a1639b81f49bb41247759700e300000000000000000000000000000000000000000000000000000000069ac1139000000000000000000000000000000000000000000000000000000006a0dcf950000000000000000000000000000000000000000000000000000000000000008000000000000000000000000000000000000000000000000000000000000001bc2f99589296d9838b13b42d32b170cf5808c772f91e3b0895ff8edb28d9acf724c0dea3dd765581189a90de1df2424dfc00e79c2d2cb1fbb23d54233e1991095",
        "nonce": "0x36",
        "chainId": "0x7a69"
      },
      "additionalContracts": [],
      "isFixedGasLimit": false
    }
  ],
  "receipts": [
    {
      "status": "0x1",
      "cumulativeGasUsed": "0x20111",
      "logs": [
        {
          "address": "0xc02aaa39b223fe8d0a0e5c4f27ead9083c756cc2",
          "topics": [
            "0xddf252ad1be2c89b69c2b068fc378daa952ba7f163c4a11628f55a4df523b3ef",
            "0x000000000000000000000000e233420d38d286c2f2cf8dee6564f132fbdb09db",
            "0x0000000000000000000000001804c8ab1f12e6bbf3894d4083f33e07309d1f38"
          ],
          "data": "0x00000000000000000000000000000000000000000000000000020f81c5f84000",
          "blockHash": "0xbeba5cc14a9dd90fd6d5bb5639ce4953aea5bf7f4a1d30fcb79f748a9b3ee395",
          "blockNumber": "0x17b8360",
          "blockTimestamp": "0x69f1b476",
          "transactionHash": "0x7abc4041f7f0c136ff4efbee90babb7f055e7f4af4eb53e1a757be61a32b1e87",
          "transactionIndex": "0x0",
          "logIndex": "0x0",
          "removed": false
        },
        {
          "address": "0xc02aaa39b223fe8d0a0e5c4f27ead9083c756cc2",
          "topics": [
            "0xddf252ad1be2c89b69c2b068fc378daa952ba7f163c4a11628f55a4df523b3ef",
            "0x000000000000000000000000e233420d38d286c2f2cf8dee6564f132fbdb09db",
            "0x00000000000000000000000008312e82df563a1639b81f49bb41247759700e30"
          ],
          "data": "0x00000000000000000000000000000000000000000000000000cbff2f8f00c000",
          "blockHash": "0xbeba5cc14a9dd90fd6d5bb5639ce4953aea5bf7f4a1d30fcb79f748a9b3ee395",
          "blockNumber": "0x17b8360",
          "blockTimestamp": "0x69f1b476",
          "transactionHash": "0x7abc4041f7f0c136ff4efbee90babb7f055e7f4af4eb53e1a757be61a32b1e87",
          "transactionIndex": "0x0",
          "logIndex": "0x1",
          "removed": false
        },
        {
          "address": "0xa5f104f8f78d5ba9aec4a383c0927337fd4e997b",
          "topics": [
            "0xddf252ad1be2c89b69c2b068fc378daa952ba7f163c4a11628f55a4df523b3ef",
            "0x00000000000000000000000008312e82df563a1639b81f49bb41247759700e30",
            "0x000000000000000000000000e233420d38d286c2f2cf8dee6564f132fbdb09db",
            "0x00000000000000000000000000000000000000000000000000000000000000b0"
          ],
          "data": "0x",
          "blockHash": "0xbeba5cc14a9dd90fd6d5bb5639ce4953aea5bf7f4a1d30fcb79f748a9b3ee395",
          "blockNumber": "0x17b8360",
          "blockTimestamp": "0x69f1b476",
          "transactionHash": "0x7abc4041f7f0c136ff4efbee90babb7f055e7f4af4eb53e1a757be61a32b1e87",
          "transactionIndex": "0x0",
          "logIndex": "0x2",
          "removed": false
        },
        {
          "address": "0x8fa71914948544c60e3379064567dcf0e6564d27",
          "topics": [
            "0xc0ac3eb1e8caef05b202043f34de8e3173fab712167584f7a2a9f4c302bd0e9c",
            "0x9567bf147ff2dec2b133ad27a96fdf5810b530fff46ad9ebdcc047464754c5ab",
            "0x000000000000000000000000a5f104f8f78d5ba9aec4a383c0927337fd4e997b",
            "0x00000000000000000000000000000000000000000000000000000000000000b0"
          ],
          "data": "0x00000000000000000000000008312e82df563a1639b81f49bb41247759700e30000000000000000000000000e233420d38d286c2f2cf8dee6564f132fbdb09db000000000000000000000000c02aaa39b223fe8d0a0e5c4f27ead9083c756cc200000000000000000000000000000000000000000000000000ce0eb154f90000",
          "blockHash": "0xbeba5cc14a9dd90fd6d5bb5639ce4953aea5bf7f4a1d30fcb79f748a9b3ee395",
          "blockNumber": "0x17b8360",
          "blockTimestamp": "0x69f1b476",
          "transactionHash": "0x7abc4041f7f0c136ff4efbee90babb7f055e7f4af4eb53e1a757be61a32b1e87",
          "transactionIndex": "0x0",
          "logIndex": "0x3",
          "removed": false
        }
      ],
      "logsBloom": "0x00000000000000000000010001000000000000000000000000000000000020000000000000100000000000000000000002000000080000000000000000100000000000000000000000010008000000000000000000000000080000000000000000000001000000000001000000000000000000000000000000000010200000000800000000040000000004000000080000000000000000000000000000000000000000200000000400000000000000000000000000000080000000000000000000000012000004000000000000000000000000000002000080000000000000000100210000010000000000000000000001002000004000000000000000000000",
      "type": "0x2",
      "transactionHash": "0x7abc4041f7f0c136ff4efbee90babb7f055e7f4af4eb53e1a757be61a32b1e87",
      "transactionIndex": "0x0",
      "blockHash": "0xbeba5cc14a9dd90fd6d5bb5639ce4953aea5bf7f4a1d30fcb79f748a9b3ee395",
      "blockNumber": "0x17b8360",
      "gasUsed": "0x20111",
      "effectiveGasPrice": "0x1ba81c",
      "blobGasPrice": "0x1",
      "from": "0xe233420d38d286c2f2cf8dee6564f132fbdb09db",
      "to": "0x8fa71914948544c60e3379064567dcf0e6564d27",
      "contractAddress": null
    }
  ],
  "libraries": [],
  "pending": [],
  "returns": {},
  "timestamp": 1778506480587,
  "chain": 31337,
  "commit": "59e30a9"
}