{
  "transactions": [
    {
      "hash": "0x2ce1aeee9996abd8a1dc0d405d813505d2f05fe30a67b11a75f4fb6a2df33c86",
      "transactionType": "CALL",
      "contractName": null,
      "contractAddress": "0x8fa71914948544c60e3379064567dcf0e6564d27",
      "function": "settle((uint256,address),(uint8,bool,address,uint256,address,uint256,address,uint64,uint64,uint256),(uint8,bytes32,bytes32))",
      "arguments": [
        "(0, 0xa382b0E75C192D9CDF5c084E58b750Cea7761Bd0)",
        "(0, false, 0xA5f104F8f78d5ba9AEC4a383c0927337Fd4E997B, 31, 0xC02aaA39b223FE8D0A0e5C4F27eAD9083C756Cc2, 10000000000000000, 0xE233420d38D286C2F2Cf8dEe6564F132FBDB09DB, 1772139360, 1780034926, 15)",
        "(27, 0xf0817d732ce7b02ed5f7b6e97d3ea4d6dc58ad6be4dc2005ef6f3b2042b5cf76, 0x2eeeb5d8bcfdd5b1db3a7705cbf6ec985549814296aa896d5f91efbee603033f)"
      ],
      "transaction": {
        "from": "0xa382b0e75c192d9cdf5c084e58b750cea7761bd0",
        "to": "0x8fa71914948544c60e3379064567dcf0e6564d27",
        "gas": "0x2ee5b",
        "value": "0x0",
        "input": "0x3bae3e790000000000000000000000000000000000000000000000000000000000000000000000000000000000000000a382b0e75c192d9cdf5c084e58b750cea7761bd000000000000000000000000000000000000000000000000000000000000000000000000000000000000000000000000000000000000000000000000000000000000000000000000000000000a5f104f8f78d5ba9aec4a383c0927337fd4e997b000000000000000000000000000000000000000000000000000000000000001f000000000000000000000000c02aaa39b223fe8d0a0e5c4f27ead9083c756cc2000000000000000000000000000000000000000000000000002386f26fc10000000000000000000000000000e233420d38d286c2f2cf8dee6564f132fbdb09db0000000000000000000000000000000000000000000000000000000069a0b360000000000000000000000000000000000000000000000000000000006a192d6e000000000000000000000000000000000000000000000000000000000000000f000000000000000000000000000000000000000000000000000000000000001bf0817d732ce7b02ed5f7b6e97d3ea4d6dc58ad6be4dc2005ef6f3b2042b5cf762eeeb5d8bcfdd5b1db3a7705cbf6ec985549814296aa896d5f91efbee603033f",
        "nonce": "0x2f",
        "chainId": "0x7a69"
      },
      "additionalContracts": [],
      "isFixedGasLimit": false
    }
  ],
  "receipts": [
    {
      "status": "0x1",
      "cumulativeGasUsed": "0x20111",
      "logs": [
        {
          "address": "0xc02aaa39b223fe8d0a0e5c4f27ead9083c756cc2",
          "topics": [
            "0xddf252ad1be2c89b69c2b068fc378daa952ba7f163c4a11628f55a4df523b3ef",
            "0x000000000000000000000000a382b0e75c192d9cdf5c084e58b750cea7761bd0",
            "0x0000000000000000000000001804c8ab1f12e6bbf3894d4083f33e07309d1f38"
          ],
          "data": "0x00000000000000000000000000000000000000000000000000005af3107a4000",
          "blockHash": "0x8c4f2bb880cb831f8a11d7713603f5f290d4878c8af11db99d7c967090332c30",
          "blockNumber": "0x17b83a2",
          "blockTimestamp": "0x6a00a416",
          "transactionHash": "0x2ce1aeee9996abd8a1dc0d405d813505d2f05fe30a67b11a75f4fb6a2df33c86",
          "transactionIndex": "0x0",
          "logIndex": "0x0",
          "removed": false
        },
        {
          "address": "0xc02aaa39b223fe8d0a0e5c4f27ead9083c756cc2",
          "topics": [
            "0xddf252ad1be2c89b69c2b068fc378daa952ba7f163c4a11628f55a4df523b3ef",
            "0x000000000000000000000000a382b0e75c192d9cdf5c084e58b750cea7761bd0",
            "0x000000000000000000000000e233420d38d286c2f2cf8dee6564f132fbdb09db"
          ],
          "data": "0x00000000000000000000000000000000000000000000000000232bff5f46c000",
          "blockHash": "0x8c4f2bb880cb831f8a11d7713603f5f290d4878c8af11db99d7c967090332c30",
          "blockNumber": "0x17b83a2",
          "blockTimestamp": "0x6a00a416",
          "transactionHash": "0x2ce1aeee9996abd8a1dc0d405d813505d2f05fe30a67b11a75f4fb6a2df33c86",
          "transactionIndex": "0x0",
          "logIndex": "0x1",
          "removed": false
        },
        {
          "address": "0xa5f104f8f78d5ba9aec4a383c0927337fd4e997b",
          "topics": [
            "0xddf252ad1be2c89b69c2b068fc378daa952ba7f163c4a11628f55a4df523b3ef",
            "0x000000000000000000000000e233420d38d286c2f2cf8dee6564f132fbdb09db",
            "0x000000000000000000000000a382b0e75c192d9cdf5c084e58b750cea7761bd0",
            "0x000000000000000000000000000000000000000000000000000000000000001f"
          ],
          "data": "0x",
          "blockHash": "0x8c4f2bb880cb831f8a11d7713603f5f290d4878c8af11db99d7c967090332c30",
          "blockNumber": "0x17b83a2",
          "blockTimestamp": "0x6a00a416",
          "transactionHash": "0x2ce1aeee9996abd8a1dc0d405d813505d2f05fe30a67b11a75f4fb6a2df33c86",
          "transactionIndex": "0x0",
          "logIndex": "0x2",
          "removed": false
        },
        {
          "address": "0x8fa71914948544c60e3379064567dcf0e6564d27",
          "topics": [
            "0xc0ac3eb1e8caef05b202043f34de8e3173fab712167584f7a2a9f4c302bd0e9c",
            "0x0082b26b20157d5ac1d84802850bc94e72ea23ad7d36abb76378c6075bd2221c",
            "0x000000000000000000000000a5f104f8f78d5ba9aec4a383c0927337fd4e997b",
            "0x000000000000000000000000000000000000000000000000000000000000001f"
          ],
          "data": "0x000000000000000000000000e233420d38d286c2f2cf8dee6564f132fbdb09db000000000000000000000000a382b0e75c192d9cdf5c084e58b750cea7761bd0000000000000000000000000c02aaa39b223fe8d0a0e5c4f27ead9083c756cc2000000000000000000000000000000000000000000000000002386f26fc10000",
          "blockHash": "0x8c4f2bb880cb831f8a11d7713603f5f290d4878c8af11db99d7c967090332c30",
          "blockNumber": "0x17b83a2",
          "blockTimestamp": "0x6a00a416",
          "transactionHash": "0x2ce1aeee9996abd8a1dc0d405d813505d2f05fe30a67b11a75f4fb6a2df33c86",
          "transactionIndex": "0x0",
          "logIndex": "0x3",
          "removed": false
        }
      ],
      "logsBloom": "0x00000000000000000000010400000000040000000000000000000000000000000000000000000000000000000000000002000000880000000000000000100000000000000000000000010008000000000000000000000000080000000000000000000001000000000001000000000000000000000000040000000010200000000800000000040000000004000000000000100000000000000000000000000000000000200008000400000000000000000000000000000080000000000001000000000012000004000000000000000000000000000002000080000000000000000100200000000000000000000000000000000000100000000100000000000000",
      "type": "0x2",
      "transactionHash": "0x2ce1aeee9996abd8a1dc0d405d813505d2f05fe30a67b11a75f4fb6a2df33c86",
      "transactionIndex": "0x0",
      "blockHash": "0x8c4f2bb880cb831f8a11d7713603f5f290d4878c8af11db99d7c967090332c30",
      "blockNumber": "0x17b83a2",
      "gasUsed": "0x20111",
      "effectiveGasPrice": "0x1ba81c",
      "blobGasPrice": "0x1",
      "from": "0xa382b0e75c192d9cdf5c084e58b750cea7761bd0",
      "to": "0x8fa71914948544c60e3379064567dcf0e6564d27",
      "contractAddress": null
    }
  ],
  "libraries": [],
  "pending": [],
  "returns": {},
  "timestamp": 1778506551849,
  "chain": 31337,
  "commit": "59e30a9"
}