{
  "transactions": [
    {
      "hash": "0xfa951302f5f5a0c704c5c00b1994f318f8d89f99d7d82e8da9d5cfce1b880abb",
      "transactionType": "CALL",
      "contractName": null,
      "contractAddress": "0x73973d222c3fda5b2563d269da9e19cb125000f4",
      "function": "settle((uint256,address),(uint8,bool,address,uint256,address,uint256,address,uint64,uint64,uint256),(uint8,bytes32,bytes32))",
      "arguments": [
        "(421, 0x1302F142Fc55B165647d3Bd5dec227f569A2A907)",
        "(1, false, 0x38D4dE42C9c5640A2799B372D27B01957E0a3673, 421, 0xC02aaA39b223FE8D0A0e5C4F27eAD9083C756Cc2, 11000000000000000, 0xc5aDfC119364CFE2297e4414dB04834d8702475B, 1771816137, 1780249501, 12)",
        "(27, 0x8aa10e788c313d7e096d4a1ae782aae8c6608fcd3d548f7b2c28ad2c4b26efbe, 0x4011fad56136c71481471c09219533197d81ec0c01ad8ec46c5a9c047a6a492f)"
      ],
      "transaction": {
        "from": "0x1302f142fc55b165647d3bd5dec227f569a2a907",
        "to": "0x73973d222c3fda5b2563d269da9e19cb125000f4",
        "gas": "0x2efa4",
        "value": "0x0",
        "input": "0x3bae3e7900000000000000000000000000000000000000000000000000000000000001a50000000000000000000000001302f142fc55b165647d3bd5dec227f569a2a9070000000000000000000000000000000000000000000000000000000000000001000000000000000000000000000000000000000000000000000000000000000000000000000000000000000038d4de42c9c5640a2799b372d27b01957e0a367300000000000000000000000000000000000000000000000000000000000001a5000000000000000000000000c02aaa39b223fe8d0a0e5c4f27ead9083c756cc20000000000000000000000000000000000000000000000000027147114878000000000000000000000000000c5adfc119364cfe2297e4414db04834d8702475b00000000000000000000000000000000000000000000000000000000699bc4c9000000000000000000000000000000000000000000000000000000006a1c739d000000000000000000000000000000000000000000000000000000000000000c000000000000000000000000000000000000000000000000000000000000001b8aa10e788c313d7e096d4a1ae782aae8c6608fcd3d548f7b2c28ad2c4b26efbe4011fad56136c71481471c09219533197d81ec0c01ad8ec46c5a9c047a6a492f",
        "nonce": "0x73",
        "chainId": "0x7a69"
      },
      "additionalContracts": [],
      "isFixedGasLimit": false
    }
  ],
  "receipts": [
    {
      "status": "0x1",
      "cumulativeGasUsed": "0x201f2",
      "logs": [
        {
          "address": "0xc02aaa39b223fe8d0a0e5c4f27ead9083c756cc2",
          "topics": [
            "0xddf252ad1be2c89b69c2b068fc378daa952ba7f163c4a11628f55a4df523b3ef",
            "0x000000000000000000000000c5adfc119364cfe2297e4414db04834d8702475b",
            "0x0000000000000000000000001804c8ab1f12e6bbf3894d4083f33e07309d1f38"
          ],
          "data": "0x0000000000000000000000000000000000000000000000000000640b5eece000",
          "blockHash": "0x16d59652b559f99e2ab505f948e15a2245b3e1eac18f87f3537a97503216afa2",
          "blockNumber": "0x17b73e9",
          "blockTimestamp": "0x69edbd37",
          "transactionHash": "0xfa951302f5f5a0c704c5c00b1994f318f8d89f99d7d82e8da9d5cfce1b880abb",
          "transactionIndex": "0x0",
          "logIndex": "0x0",
          "removed": false
        },
        {
          "address": "0xc02aaa39b223fe8d0a0e5c4f27ead9083c756cc2",
          "topics": [
            "0xddf252ad1be2c89b69c2b068fc378daa952ba7f163c4a11628f55a4df523b3ef",
            "0x000000000000000000000000c5adfc119364cfe2297e4414db04834d8702475b",
            "0x0000000000000000000000001302f142fc55b165647d3bd5dec227f569a2a907"
          ],
          "data": "0x0000000000000000000000000000000000000000000000000026b065b59aa000",
          "blockHash": "0x16d59652b559f99e2ab505f948e15a2245b3e1eac18f87f3537a97503216afa2",
          "blockNumber": "0x17b73e9",
          "blockTimestamp": "0x69edbd37",
          "transactionHash": "0xfa951302f5f5a0c704c5c00b1994f318f8d89f99d7d82e8da9d5cfce1b880abb",
          "transactionIndex": "0x0",
          "logIndex": "0x1",
          "removed": false
        },
        {
          "address": "0x38d4de42c9c5640a2799b372d27b01957e0a3673",
          "topics": [
            "0xddf252ad1be2c89b69c2b068fc378daa952ba7f163c4a11628f55a4df523b3ef",
            "0x0000000000000000000000001302f142fc55b165647d3bd5dec227f569a2a907",
            "0x000000000000000000000000c5adfc119364cfe2297e4414db04834d8702475b",
            "0x00000000000000000000000000000000000000000000000000000000000001a5"
          ],
          "data": "0x",
          "blockHash": "0x16d59652b559f99e2ab505f948e15a2245b3e1eac18f87f3537a97503216afa2",
          "blockNumber": "0x17b73e9",
          "blockTimestamp": "0x69edbd37",
          "transactionHash": "0xfa951302f5f5a0c704c5c00b1994f318f8d89f99d7d82e8da9d5cfce1b880abb",
          "transactionIndex": "0x0",
          "logIndex": "0x2",
          "removed": false
        },
        {
          "address": "0x73973d222c3fda5b2563d269da9e19cb125000f4",
          "topics": [
            "0xc0ac3eb1e8caef05b202043f34de8e3173fab712167584f7a2a9f4c302bd0e9c",
            "0x050b7050aa1e877154836c08b2d1f8c4edbbe404c28414534055efbade99c755",
            "0x00000000000000000000000038d4de42c9c5640a2799b372d27b01957e0a3673",
            "0x00000000000000000000000000000000000000000000000000000000000001a5"
          ],
          "data": "0x0000000000000000000000001302f142fc55b165647d3bd5dec227f569a2a907000000000000000000000000c5adfc119364cfe2297e4414db04834d8702475b000000000000000000000000c02aaa39b223fe8d0a0e5c4f27ead9083c756cc20000000000000000000000000000000000000000000000000027147114878000",
          "blockHash": "0x16d59652b559f99e2ab505f948e15a2245b3e1eac18f87f3537a97503216afa2",
          "blockNumber": "0x17b73e9",
          "blockTimestamp": "0x69edbd37",
          "transactionHash": "0xfa951302f5f5a0c704c5c00b1994f318f8d89f99d7d82e8da9d5cfce1b880abb",
          "transactionIndex": "0x0",
          "logIndex": "0x3",
          "removed": false
        }
      ],
      "logsBloom": "0x00000000000000000000000000000000000000000002000000000000000000000000000008000000000000000001020002000000080000000004100000100000000000000000001021000008000000000000000001000000000000000000000200000000000001000001000200000000000000000000000000000010000000000000000000000000000004000000000000000000000008000000000000000000000000000000000000000000000120000000002000000080400000000000000000000002000004000000000200000000000000000000000000000000000000000100200000000000000040000000000000000000000000002000000000000000",
      "type": "0x2",
      "transactionHash": "0xfa951302f5f5a0c704c5c00b1994f318f8d89f99d7d82e8da9d5cfce1b880abb",
      "transactionIndex": "0x0",
      "blockHash": "0x16d59652b559f99e2ab505f948e15a2245b3e1eac18f87f3537a97503216afa2",
      "blockNumber": "0x17b73e9",
      "gasUsed": "0x201f2",
      "effectiveGasPrice": "0xf4248",
      "blobGasPrice": "0x1",
      "from": "0x1302f142fc55b165647d3bd5dec227f569a2a907",
      "to": "0x73973d222c3fda5b2563d269da9e19cb125000f4",
      "contractAddress": null
    }
  ],
  "libraries": [],
  "pending": [],
  "returns": {},
  "timestamp": 1778453805115,
  "chain": 31337,
  "commit": "f87d399"
}