{
  "transactions": [
    {
      "hash": "0x6ca9e732b492d0653277bc9908cc6d9096c8fdafe5ef0e2a500398e0718209fb",
      "transactionType": "CALL",
      "contractName": null,
      "contractAddress": "0x73973d222c3fda5b2563d269da9e19cb125000f4",
      "function": "settle((uint256,address),(uint8,bool,address,uint256,address,uint256,address,uint64,uint64,uint256),(uint8,bytes32,bytes32))",
      "arguments": [
        "(0, 0x08312E82df563A1639b81f49bb41247759700e30)",
        "(0, false, 0x38D4dE42C9c5640A2799B372D27B01957E0a3673, 315, 0xC02aaA39b223FE8D0A0e5C4F27eAD9083C756Cc2, 225000000000000000, 0xc5aDfC119364CFE2297e4414dB04834d8702475B, 1772405159, 1779660479, 5)",
        "(27, 0xfe64ad02ea99d4ca6b8621890de701bb976464f50c016b8fb238f1d2db40aab5, 0x4c21cccd4a3f8f9ce7195002db2960e20fda6a5159084dd2bdbec56bd5dd2a52)"
      ],
      "transaction": {
        "from": "0x08312e82df563a1639b81f49bb41247759700e30",
        "to": "0x73973d222c3fda5b2563d269da9e19cb125000f4",
        "gas": "0x2c4dd",
        "value": "0x0",
        "input": "0x3bae3e79000000000000000000000000000000000000000000000000000000000000000000000000000000000000000008312e82df563a1639b81f49bb41247759700e300000000000000000000000000000000000000000000000000000000000000000000000000000000000000000000000000000000000000000000000000000000000000000000000000000000038d4de42c9c5640a2799b372d27b01957e0a3673000000000000000000000000000000000000000000000000000000000000013b000000000000000000000000c02aaa39b223fe8d0a0e5c4f27ead9083c756cc2000000000000000000000000000000000000000000000000031f5c4ed2768000000000000000000000000000c5adfc119364cfe2297e4414db04834d8702475b0000000000000000000000000000000000000000000000000000000069a4c1a7000000000000000000000000000000000000000000000000000000006a1376bf0000000000000000000000000000000000000000000000000000000000000005000000000000000000000000000000000000000000000000000000000000001bfe64ad02ea99d4ca6b8621890de701bb976464f50c016b8fb238f1d2db40aab54c21cccd4a3f8f9ce7195002db2960e20fda6a5159084dd2bdbec56bd5dd2a52",
        "nonce": "0x6a",
        "chainId": "0x7a69"
      },
      "additionalContracts": [],
      "isFixedGasLimit": false
    }
  ],
  "receipts": [
    {
      "status": "0x1",
      "cumulativeGasUsed": "0x20135",
      "logs": [
        {
          "address": "0xc02aaa39b223fe8d0a0e5c4f27ead9083c756cc2",
          "topics": [
            "0xddf252ad1be2c89b69c2b068fc378daa952ba7f163c4a11628f55a4df523b3ef",
            "0x00000000000000000000000008312e82df563a1639b81f49bb41247759700e30",
            "0x0000000000000000000000001804c8ab1f12e6bbf3894d4083f33e07309d1f38"
          ],
          "data": "0x0000000000000000000000000000000000000000000000000007fe5cf2bea000",
          "blockHash": "0xe8b2fa76af5032d31f3ee546dd198a8f9b7edb56c9201c01b603cf91965284d6",
          "blockNumber": "0x17b73d8",
          "blockTimestamp": "0x69ead566",
          "transactionHash": "0x6ca9e732b492d0653277bc9908cc6d9096c8fdafe5ef0e2a500398e0718209fb",
          "transactionIndex": "0x0",
          "logIndex": "0x0",
          "removed": false
        },
        {
          "address": "0xc02aaa39b223fe8d0a0e5c4f27ead9083c756cc2",
          "topics": [
            "0xddf252ad1be2c89b69c2b068fc378daa952ba7f163c4a11628f55a4df523b3ef",
            "0x00000000000000000000000008312e82df563a1639b81f49bb41247759700e30",
            "0x000000000000000000000000c5adfc119364cfe2297e4414db04834d8702475b"
          ],
          "data": "0x00000000000000000000000000000000000000000000000003175df1dfb7e000",
          "blockHash": "0xe8b2fa76af5032d31f3ee546dd198a8f9b7edb56c9201c01b603cf91965284d6",
          "blockNumber": "0x17b73d8",
          "blockTimestamp": "0x69ead566",
          "transactionHash": "0x6ca9e732b492d0653277bc9908cc6d9096c8fdafe5ef0e2a500398e0718209fb",
          "transactionIndex": "0x0",
          "logIndex": "0x1",
          "removed": false
        },
        {
          "address": "0x38d4de42c9c5640a2799b372d27b01957e0a3673",
          "topics": [
            "0xddf252ad1be2c89b69c2b068fc378daa952ba7f163c4a11628f55a4df523b3ef",
            "0x000000000000000000000000c5adfc119364cfe2297e4414db04834d8702475b",
            "0x00000000000000000000000008312e82df563a1639b81f49bb41247759700e30",
            "0x000000000000000000000000000000000000000000000000000000000000013b"
          ],
          "data": "0x",
          "blockHash": "0xe8b2fa76af5032d31f3ee546dd198a8f9b7edb56c9201c01b603cf91965284d6",
          "blockNumber": "0x17b73d8",
          "blockTimestamp": "0x69ead566",
          "transactionHash": "0x6ca9e732b492d0653277bc9908cc6d9096c8fdafe5ef0e2a500398e0718209fb",
          "transactionIndex": "0x0",
          "logIndex": "0x2",
          "removed": false
        },
        {
          "address": "0x73973d222c3fda5b2563d269da9e19cb125000f4",
          "topics": [
            "0xc0ac3eb1e8caef05b202043f34de8e3173fab712167584f7a2a9f4c302bd0e9c",
            "0x1181d88ce2de74ae874b0eb8cbd65b0b52e589e2702e578e5ce57af74373a908",
            "0x00000000000000000000000038d4de42c9c5640a2799b372d27b01957e0a3673",
            "0x000000000000000000000000000000000000000000000000000000000000013b"
          ],
          "data": "0x000000000000000000000000c5adfc119364cfe2297e4414db04834d8702475b00000000000000000000000008312e82df563a1639b81f49bb41247759700e30000000000000000000000000c02aaa39b223fe8d0a0e5c4f27ead9083c756cc2000000000000000000000000000000000000000000000000031f5c4ed2768000",
          "blockHash": "0xe8b2fa76af5032d31f3ee546dd198a8f9b7edb56c9201c01b603cf91965284d6",
          "blockNumber": "0x17b73d8",
          "blockTimestamp": "0x69ead566",
          "transactionHash": "0x6ca9e732b492d0653277bc9908cc6d9096c8fdafe5ef0e2a500398e0718209fb",
          "transactionIndex": "0x0",
          "logIndex": "0x3",
          "removed": false
        }
      ],
      "logsBloom": "0x00000200000000000000000001000000000000000002000000002000000000000000000000100000000000000000020002000000080000000004100000100000000000000000001021000008000000000000000000000000000000040040000200000000000000000001000000000000000000000000000000000010000000000000000000000000000004000000000000000000000008000000000000000000000000000000000000000000000020000000000000000080400000000000000000000002000004000000080000000000000000000000000000000000000000000100200800000000000000000000000000000000004000002000000000000000",
      "type": "0x2",
      "transactionHash": "0x6ca9e732b492d0653277bc9908cc6d9096c8fdafe5ef0e2a500398e0718209fb",
      "transactionIndex": "0x0",
      "blockHash": "0xe8b2fa76af5032d31f3ee546dd198a8f9b7edb56c9201c01b603cf91965284d6",
      "blockNumber": "0x17b73d8",
      "gasUsed": "0x20135",
      "effectiveGasPrice": "0xf4248",
      "blobGasPrice": "0x1",
      "from": "0x08312e82df563a1639b81f49bb41247759700e30",
      "to": "0x73973d222c3fda5b2563d269da9e19cb125000f4",
      "contractAddress": null
    }
  ],
  "libraries": [],
  "pending": [],
  "returns": {},
  "timestamp": 1778453789955,
  "chain": 31337,
  "commit": "f87d399"
}