{
  "transactions": [
    {
      "hash": "0x86e24d4fa5aefc35941c1dbcfe4153d238309a91f41c3c4969db42f3c12b5837",
      "transactionType": "CALL",
      "contractName": null,
      "contractAddress": "0x8fa71914948544c60e3379064567dcf0e6564d27",
      "function": "settle((uint256,address),(uint8,bool,address,uint256,address,uint256,address,uint64,uint64,uint256),(uint8,bytes32,bytes32))",
      "arguments": [
        "(157, 0xcbe5659df21Cbcfabe4da962F7a9081F26B3ed82)",
        "(1, false, 0xA5f104F8f78d5ba9AEC4a383c0927337Fd4E997B, 157, 0xC02aaA39b223FE8D0A0e5C4F27eAD9083C756Cc2, 17000000000000000, 0x08312E82df563A1639b81f49bb41247759700e30, 1772516935, 1779546327, 4)",
        "(28, 0xdd6f0758e08179e850ae266274039d02fb70ac50dc0231d70528f0965d6b7c91, 0x4666faa6e8dddcfdd0b0ad96a69e4b4310da1c599446b1d20a092411a2939c3e)"
      ],
      "transaction": {
        "from": "0xcbe5659df21cbcfabe4da962f7a9081f26b3ed82",
        "to": "0x8fa71914948544c60e3379064567dcf0e6564d27",
        "gas": "0x2c5dc",
        "value": "0x0",
        "input": "0x3bae3e79000000000000000000000000000000000000000000000000000000000000009d000000000000000000000000cbe5659df21cbcfabe4da962f7a9081f26b3ed8200000000000000000000000000000000000000000000000000000000000000010000000000000000000000000000000000000000000000000000000000000000000000000000000000000000a5f104f8f78d5ba9aec4a383c0927337fd4e997b000000000000000000000000000000000000000000000000000000000000009d000000000000000000000000c02aaa39b223fe8d0a0e5c4f27ead9083c756cc2000000000000000000000000000000000000000000000000003c6568f12e800000000000000000000000000008312e82df563a1639b81f49bb41247759700e300000000000000000000000000000000000000000000000000000000069a67647000000000000000000000000000000000000000000000000000000006a11b8d70000000000000000000000000000000000000000000000000000000000000004000000000000000000000000000000000000000000000000000000000000001cdd6f0758e08179e850ae266274039d02fb70ac50dc0231d70528f0965d6b7c914666faa6e8dddcfdd0b0ad96a69e4b4310da1c599446b1d20a092411a2939c3e",
        "nonce": "0x3e",
        "chainId": "0x7a69"
      },
      "additionalContracts": [],
      "isFixedGasLimit": false
    }
  ],
  "receipts": [
    {
      "status": "0x1",
      "cumulativeGasUsed": "0x201ee",
      "logs": [
        {
          "address": "0xc02aaa39b223fe8d0a0e5c4f27ead9083c756cc2",
          "topics": [
            "0xddf252ad1be2c89b69c2b068fc378daa952ba7f163c4a11628f55a4df523b3ef",
            "0x00000000000000000000000008312e82df563a1639b81f49bb41247759700e30",
            "0x0000000000000000000000001804c8ab1f12e6bbf3894d4083f33e07309d1f38"
          ],
          "data": "0x00000000000000000000000000000000000000000000000000009a9d359ca000",
          "blockHash": "0xb844183ae4cc328bb440727f4dc91592077916175bb6f8e176c510dac9f0bdab",
          "blockNumber": "0x17b711f",
          "blockTimestamp": "0x69e0e0cc",
          "transactionHash": "0x86e24d4fa5aefc35941c1dbcfe4153d238309a91f41c3c4969db42f3c12b5837",
          "transactionIndex": "0x0",
          "logIndex": "0x0",
          "removed": false
        },
        {
          "address": "0xc02aaa39b223fe8d0a0e5c4f27ead9083c756cc2",
          "topics": [
            "0xddf252ad1be2c89b69c2b068fc378daa952ba7f163c4a11628f55a4df523b3ef",
            "0x00000000000000000000000008312e82df563a1639b81f49bb41247759700e30",
            "0x000000000000000000000000cbe5659df21cbcfabe4da962f7a9081f26b3ed82"
          ],
          "data": "0x000000000000000000000000000000000000000000000000003bcacbbb91e000",
          "blockHash": "0xb844183ae4cc328bb440727f4dc91592077916175bb6f8e176c510dac9f0bdab",
          "blockNumber": "0x17b711f",
          "blockTimestamp": "0x69e0e0cc",
          "transactionHash": "0x86e24d4fa5aefc35941c1dbcfe4153d238309a91f41c3c4969db42f3c12b5837",
          "transactionIndex": "0x0",
          "logIndex": "0x1",
          "removed": false
        },
        {
          "address": "0xa5f104f8f78d5ba9aec4a383c0927337fd4e997b",
          "topics": [
            "0xddf252ad1be2c89b69c2b068fc378daa952ba7f163c4a11628f55a4df523b3ef",
            "0x000000000000000000000000cbe5659df21cbcfabe4da962f7a9081f26b3ed82",
            "0x00000000000000000000000008312e82df563a1639b81f49bb41247759700e30",
            "0x000000000000000000000000000000000000000000000000000000000000009d"
          ],
          "data": "0x",
          "blockHash": "0xb844183ae4cc328bb440727f4dc91592077916175bb6f8e176c510dac9f0bdab",
          "blockNumber": "0x17b711f",
          "blockTimestamp": "0x69e0e0cc",
          "transactionHash": "0x86e24d4fa5aefc35941c1dbcfe4153d238309a91f41c3c4969db42f3c12b5837",
          "transactionIndex": "0x0",
          "logIndex": "0x2",
          "removed": false
        },
        {
          "address": "0x8fa71914948544c60e3379064567dcf0e6564d27",
          "topics": [
            "0xc0ac3eb1e8caef05b202043f34de8e3173fab712167584f7a2a9f4c302bd0e9c",
            "0x75cf85989574d3f5131424c4f80121f0537063221a00686690f9d8e5659d227f",
            "0x000000000000000000000000a5f104f8f78d5ba9aec4a383c0927337fd4e997b",
            "0x000000000000000000000000000000000000000000000000000000000000009d"
          ],
          "data": "0x000000000000000000000000cbe5659df21cbcfabe4da962f7a9081f26b3ed8200000000000000000000000008312e82df563a1639b81f49bb41247759700e30000000000000000000000000c02aaa39b223fe8d0a0e5c4f27ead9083c756cc2000000000000000000000000000000000000000000000000003c6568f12e8000",
          "blockHash": "0xb844183ae4cc328bb440727f4dc91592077916175bb6f8e176c510dac9f0bdab",
          "blockNumber": "0x17b711f",
          "blockTimestamp": "0x69e0e0cc",
          "transactionHash": "0x86e24d4fa5aefc35941c1dbcfe4153d238309a91f41c3c4969db42f3c12b5837",
          "transactionIndex": "0x0",
          "logIndex": "0x3",
          "removed": false
        }
      ],
      "logsBloom": "0x00000000000000000000010001000000000000000000002000000000000000000000000000100000000000000000000002000000080000000000000000100000000000000000100000010008000000000000000000000000080000000000000000000000000000000001000000000000000000000000000000000210200000000800000000040000000004000000000000000000000000000000001000000000000000200000000400000000000000000000400000000080000000000000000000000002000004000400000000000000000000000000020080000000000000000100200000000000000000000000000010000000004000000000000000000000",
      "type": "0x2",
      "transactionHash": "0x86e24d4fa5aefc35941c1dbcfe4153d238309a91f41c3c4969db42f3c12b5837",
      "transactionIndex": "0x0",
      "blockHash": "0xb844183ae4cc328bb440727f4dc91592077916175bb6f8e176c510dac9f0bdab",
      "blockNumber": "0x17b711f",
      "gasUsed": "0x201ee",
      "effectiveGasPrice": "0x154c2b",
      "blobGasPrice": "0x1",
      "from": "0xcbe5659df21cbcfabe4da962f7a9081f26b3ed82",
      "to": "0x8fa71914948544c60e3379064567dcf0e6564d27",
      "contractAddress": null
    }
  ],
  "libraries": [],
  "pending": [],
  "returns": {},
  "timestamp": 1778450909374,
  "chain": 31337,
  "commit": "f87d399"
}