{
  "transactions": [
    {
      "hash": "0xab3bbbf1310a85b5c5069235f9ff26ad97c1c1aa319ea28764abef9f948d9afc",
      "transactionType": "CALL",
      "contractName": null,
      "contractAddress": "0x73973d222c3fda5b2563d269da9e19cb125000f4",
      "function": "settle((uint256,address),(uint8,bool,address,uint256,address,uint256,address,uint64,uint64,uint256),(uint8,bytes32,bytes32))",
      "arguments": [
        "(91, 0x2c2dbA75492E0C4A1D10B41303167aEC59586C9c)",
        "(1, false, 0x38D4dE42C9c5640A2799B372D27B01957E0a3673, 91, 0xC02aaA39b223FE8D0A0e5C4F27eAD9083C756Cc2, 10000000000000000, 0xe3745C151faB59B0740f4312b2B027F07D096639, 1771677813, 1780387825, 9)",
        "(27, 0x13396b1a00b37bd1d697ab4fed6b3f0dcc7eb03411c84f5f7ba4588df901d05e, 0x1a9d7084314e354b5a022be13b933dd9083225212a6f7fee7d18e89f83d7e575)"
      ],
      "transaction": {
        "from": "0x2c2dba75492e0c4a1d10b41303167aec59586c9c",
        "to": "0x73973d222c3fda5b2563d269da9e19cb125000f4",
        "gas": "0x2ef5e",
        "value": "0x0",
        "input": "0x3bae3e79000000000000000000000000000000000000000000000000000000000000005b0000000000000000000000002c2dba75492e0c4a1d10b41303167aec59586c9c0000000000000000000000000000000000000000000000000000000000000001000000000000000000000000000000000000000000000000000000000000000000000000000000000000000038d4de42c9c5640a2799b372d27b01957e0a3673000000000000000000000000000000000000000000000000000000000000005b000000000000000000000000c02aaa39b223fe8d0a0e5c4f27ead9083c756cc2000000000000000000000000000000000000000000000000002386f26fc10000000000000000000000000000e3745c151fab59b0740f4312b2b027f07d096639000000000000000000000000000000000000000000000000000000006999a875000000000000000000000000000000000000000000000000000000006a1e8ff10000000000000000000000000000000000000000000000000000000000000009000000000000000000000000000000000000000000000000000000000000001b13396b1a00b37bd1d697ab4fed6b3f0dcc7eb03411c84f5f7ba4588df901d05e1a9d7084314e354b5a022be13b933dd9083225212a6f7fee7d18e89f83d7e575",
        "nonce": "0x6f",
        "chainId": "0x7a69"
      },
      "additionalContracts": [],
      "isFixedGasLimit": false
    }
  ],
  "receipts": [
    {
      "status": "0x1",
      "cumulativeGasUsed": "0x201c2",
      "logs": [
        {
          "address": "0xc02aaa39b223fe8d0a0e5c4f27ead9083c756cc2",
          "topics": [
            "0xddf252ad1be2c89b69c2b068fc378daa952ba7f163c4a11628f55a4df523b3ef",
            "0x000000000000000000000000e3745c151fab59b0740f4312b2b027f07d096639",
            "0x0000000000000000000000001804c8ab1f12e6bbf3894d4083f33e07309d1f38"
          ],
          "data": "0x00000000000000000000000000000000000000000000000000005af3107a4000",
          "blockHash": "0xb3ded691f615c52a67ff1c91d6ebc6cd73c43404cab8cf2891e2e0aebd5b7577",
          "blockNumber": "0x17b73ed",
          "blockTimestamp": "0x69ee97fb",
          "transactionHash": "0xab3bbbf1310a85b5c5069235f9ff26ad97c1c1aa319ea28764abef9f948d9afc",
          "transactionIndex": "0x0",
          "logIndex": "0x0",
          "removed": false
        },
        {
          "address": "0xc02aaa39b223fe8d0a0e5c4f27ead9083c756cc2",
          "topics": [
            "0xddf252ad1be2c89b69c2b068fc378daa952ba7f163c4a11628f55a4df523b3ef",
            "0x000000000000000000000000e3745c151fab59b0740f4312b2b027f07d096639",
            "0x0000000000000000000000002c2dba75492e0c4a1d10b41303167aec59586c9c"
          ],
          "data": "0x00000000000000000000000000000000000000000000000000232bff5f46c000",
          "blockHash": "0xb3ded691f615c52a67ff1c91d6ebc6cd73c43404cab8cf2891e2e0aebd5b7577",
          "blockNumber": "0x17b73ed",
          "blockTimestamp": "0x69ee97fb",
          "transactionHash": "0xab3bbbf1310a85b5c5069235f9ff26ad97c1c1aa319ea28764abef9f948d9afc",
          "transactionIndex": "0x0",
          "logIndex": "0x1",
          "removed": false
        },
        {
          "address": "0x38d4de42c9c5640a2799b372d27b01957e0a3673",
          "topics": [
            "0xddf252ad1be2c89b69c2b068fc378daa952ba7f163c4a11628f55a4df523b3ef",
            "0x0000000000000000000000002c2dba75492e0c4a1d10b41303167aec59586c9c",
            "0x000000000000000000000000e3745c151fab59b0740f4312b2b027f07d096639",
            "0x000000000000000000000000000000000000000000000000000000000000005b"
          ],
          "data": "0x",
          "blockHash": "0xb3ded691f615c52a67ff1c91d6ebc6cd73c43404cab8cf2891e2e0aebd5b7577",
          "blockNumber": "0x17b73ed",
          "blockTimestamp": "0x69ee97fb",
          "transactionHash": "0xab3bbbf1310a85b5c5069235f9ff26ad97c1c1aa319ea28764abef9f948d9afc",
          "transactionIndex": "0x0",
          "logIndex": "0x2",
          "removed": false
        },
        {
          "address": "0x73973d222c3fda5b2563d269da9e19cb125000f4",
          "topics": [
            "0xc0ac3eb1e8caef05b202043f34de8e3173fab712167584f7a2a9f4c302bd0e9c",
            "0x70067374f38b9abb439172991ed55100e4506f9b8394c7bec0da20e1cad1d56c",
            "0x00000000000000000000000038d4de42c9c5640a2799b372d27b01957e0a3673",
            "0x000000000000000000000000000000000000000000000000000000000000005b"
          ],
          "data": "0x0000000000000000000000002c2dba75492e0c4a1d10b41303167aec59586c9c000000000000000000000000e3745c151fab59b0740f4312b2b027f07d096639000000000000000000000000c02aaa39b223fe8d0a0e5c4f27ead9083c756cc2000000000000000000000000000000000000000000000000002386f26fc10000",
          "blockHash": "0xb3ded691f615c52a67ff1c91d6ebc6cd73c43404cab8cf2891e2e0aebd5b7577",
          "blockNumber": "0x17b73ed",
          "blockTimestamp": "0x69ee97fb",
          "transactionHash": "0xab3bbbf1310a85b5c5069235f9ff26ad97c1c1aa319ea28764abef9f948d9afc",
          "transactionIndex": "0x0",
          "logIndex": "0x3",
          "removed": false
        }
      ],
      "logsBloom": "0x00000000000000008000000000000000000000000102000000000000000000000000000000000000000020000000020042000000080000000004100800100000000200000000001021000008000000000000000000000000000000000000000040000800000004000001000000000000000000000000000000000010000000000000000000000000000004000000000000000000000008000000000000000080000000000000000000000000000000000000000000000080400000000000000000000002000004000000000000000000000000000000000000000040000000000100200000000000000000000000000000000000000000000000200000000000",
      "type": "0x2",
      "transactionHash": "0xab3bbbf1310a85b5c5069235f9ff26ad97c1c1aa319ea28764abef9f948d9afc",
      "transactionIndex": "0x0",
      "blockHash": "0xb3ded691f615c52a67ff1c91d6ebc6cd73c43404cab8cf2891e2e0aebd5b7577",
      "blockNumber": "0x17b73ed",
      "gasUsed": "0x201c2",
      "effectiveGasPrice": "0xf4248",
      "blobGasPrice": "0x1",
      "from": "0x2c2dba75492e0c4a1d10b41303167aec59586c9c",
      "to": "0x73973d222c3fda5b2563d269da9e19cb125000f4",
      "contractAddress": null
    }
  ],
  "libraries": [],
  "pending": [],
  "returns": {},
  "timestamp": 1778453809503,
  "chain": 31337,
  "commit": "f87d399"
}