{
  "transactions": [
    {
      "hash": "0xdd6a79892d12798e82263610a6a8b13669954c327276bff134fedcbed5e62585",
      "transactionType": "CALL",
      "contractName": null,
      "contractAddress": "0x73973d222c3fda5b2563d269da9e19cb125000f4",
      "function": "settle((uint256,address),(uint8,bool,address,uint256,address,uint256,address,uint64,uint64,uint256),(uint8,bytes32,bytes32))",
      "arguments": [
        "(0, 0x646dC5Fc4009C4C84a424B6aE0f494b374bAE1Ce)",
        "(0, false, 0x38D4dE42C9c5640A2799B372D27B01957E0a3673, 115, 0xC02aaA39b223FE8D0A0e5C4F27eAD9083C756Cc2, 207000000000000000, 0xE233420d38D286C2F2Cf8dEe6564F132FBDB09DB, 1773257122, 1778808516, 0)",
        "(28, 0x3b91775c7eb4b317ce124c527acb427d10da36248bac6abb6c250bfebcd8eb98, 0x09559e189e56c0213e426e45fd102afd80c117fb3bb52b8110193af4298f9d46)"
      ],
      "transaction": {
        "from": "0x646dc5fc4009c4c84a424b6ae0f494b374bae1ce",
        "to": "0x73973d222c3fda5b2563d269da9e19cb125000f4",
        "gas": "0x2ee8a",
        "value": "0x0",
        "input": "0x3bae3e790000000000000000000000000000000000000000000000000000000000000000000000000000000000000000646dc5fc4009c4c84a424b6ae0f494b374bae1ce0000000000000000000000000000000000000000000000000000000000000000000000000000000000000000000000000000000000000000000000000000000000000000000000000000000038d4de42c9c5640a2799b372d27b01957e0a36730000000000000000000000000000000000000000000000000000000000000073000000000000000000000000c02aaa39b223fe8d0a0e5c4f27ead9083c756cc200000000000000000000000000000000000000000000000002df69673c818000000000000000000000000000e233420d38d286c2f2cf8dee6564f132fbdb09db0000000000000000000000000000000000000000000000000000000069b1c1a2000000000000000000000000000000000000000000000000000000006a0676c40000000000000000000000000000000000000000000000000000000000000000000000000000000000000000000000000000000000000000000000000000001c3b91775c7eb4b317ce124c527acb427d10da36248bac6abb6c250bfebcd8eb9809559e189e56c0213e426e45fd102afd80c117fb3bb52b8110193af4298f9d46",
        "nonce": "0x89",
        "chainId": "0x7a69"
      },
      "additionalContracts": [],
      "isFixedGasLimit": false
    }
  ],
  "receipts": [
    {
      "status": "0x1",
      "cumulativeGasUsed": "0x20131",
      "logs": [
        {
          "address": "0xc02aaa39b223fe8d0a0e5c4f27ead9083c756cc2",
          "topics": [
            "0xddf252ad1be2c89b69c2b068fc378daa952ba7f163c4a11628f55a4df523b3ef",
            "0x000000000000000000000000646dc5fc4009c4c84a424b6ae0f494b374bae1ce",
            "0x0000000000000000000000001804c8ab1f12e6bbf3894d4083f33e07309d1f38"
          ],
          "data": "0x00000000000000000000000000000000000000000000000000075aa76eaf6000",
          "blockHash": "0x1fb257e21030891229337d2e3fd7d430830f9dc68f2fd57fe1cebc8bb1d2e150",
          "blockNumber": "0x17b738e",
          "blockTimestamp": "0x69dd7428",
          "transactionHash": "0xdd6a79892d12798e82263610a6a8b13669954c327276bff134fedcbed5e62585",
          "transactionIndex": "0x0",
          "logIndex": "0x0",
          "removed": false
        },
        {
          "address": "0xc02aaa39b223fe8d0a0e5c4f27ead9083c756cc2",
          "topics": [
            "0xddf252ad1be2c89b69c2b068fc378daa952ba7f163c4a11628f55a4df523b3ef",
            "0x000000000000000000000000646dc5fc4009c4c84a424b6ae0f494b374bae1ce",
            "0x000000000000000000000000e233420d38d286c2f2cf8dee6564f132fbdb09db"
          ],
          "data": "0x00000000000000000000000000000000000000000000000002d80ebfcdd22000",
          "blockHash": "0x1fb257e21030891229337d2e3fd7d430830f9dc68f2fd57fe1cebc8bb1d2e150",
          "blockNumber": "0x17b738e",
          "blockTimestamp": "0x69dd7428",
          "transactionHash": "0xdd6a79892d12798e82263610a6a8b13669954c327276bff134fedcbed5e62585",
          "transactionIndex": "0x0",
          "logIndex": "0x1",
          "removed": false
        },
        {
          "address": "0x38d4de42c9c5640a2799b372d27b01957e0a3673",
          "topics": [
            "0xddf252ad1be2c89b69c2b068fc378daa952ba7f163c4a11628f55a4df523b3ef",
            "0x000000000000000000000000e233420d38d286c2f2cf8dee6564f132fbdb09db",
            "0x000000000000000000000000646dc5fc4009c4c84a424b6ae0f494b374bae1ce",
            "0x0000000000000000000000000000000000000000000000000000000000000073"
          ],
          "data": "0x",
          "blockHash": "0x1fb257e21030891229337d2e3fd7d430830f9dc68f2fd57fe1cebc8bb1d2e150",
          "blockNumber": "0x17b738e",
          "blockTimestamp": "0x69dd7428",
          "transactionHash": "0xdd6a79892d12798e82263610a6a8b13669954c327276bff134fedcbed5e62585",
          "transactionIndex": "0x0",
          "logIndex": "0x2",
          "removed": false
        },
        {
          "address": "0x73973d222c3fda5b2563d269da9e19cb125000f4",
          "topics": [
            "0xc0ac3eb1e8caef05b202043f34de8e3173fab712167584f7a2a9f4c302bd0e9c",
            "0x92a0d237312f6826e7bc9a73a9403e2239a46801e90157068763c16aaf8e8d4e",
            "0x00000000000000000000000038d4de42c9c5640a2799b372d27b01957e0a3673",
            "0x0000000000000000000000000000000000000000000000000000000000000073"
          ],
          "data": "0x000000000000000000000000e233420d38d286c2f2cf8dee6564f132fbdb09db000000000000000000000000646dc5fc4009c4c84a424b6ae0f494b374bae1ce000000000000000000000000c02aaa39b223fe8d0a0e5c4f27ead9083c756cc200000000000000000000000000000000000000000000000002df69673c818000",
          "blockHash": "0x1fb257e21030891229337d2e3fd7d430830f9dc68f2fd57fe1cebc8bb1d2e150",
          "blockNumber": "0x17b738e",
          "blockTimestamp": "0x69dd7428",
          "transactionHash": "0xdd6a79892d12798e82263610a6a8b13669954c327276bff134fedcbed5e62585",
          "transactionIndex": "0x0",
          "logIndex": "0x3",
          "removed": false
        }
      ],
      "logsBloom": "0x00000000000000000000000008000000000000000002000000000000000000000000000000000000000000002000020002000000090000000004100000900000000000000000001021000008000000000000000000000000000000000080000000000001000000000005000000000000000000000000000000100010000000000000000000000000000004000000000000000000000008000000000000000000000000000000000000001000000000000000000000000080400000000000000000000012000004000000000000000000000000000002000000000000000000000100200000000000000000000000000000000000000000000000000000000000",
      "type": "0x2",
      "transactionHash": "0xdd6a79892d12798e82263610a6a8b13669954c327276bff134fedcbed5e62585",
      "transactionIndex": "0x0",
      "blockHash": "0x1fb257e21030891229337d2e3fd7d430830f9dc68f2fd57fe1cebc8bb1d2e150",
      "blockNumber": "0x17b738e",
      "gasUsed": "0x20131",
      "effectiveGasPrice": "0xf4248",
      "blobGasPrice": "0x1",
      "from": "0x646dc5fc4009c4c84a424b6ae0f494b374bae1ce",
      "to": "0x73973d222c3fda5b2563d269da9e19cb125000f4",
      "contractAddress": null
    }
  ],
  "libraries": [],
  "pending": [],
  "returns": {},
  "timestamp": 1778453689510,
  "chain": 31337,
  "commit": "f87d399"
}