{
  "transactions": [
    {
      "hash": "0x56ef907cdeec5b91aaba5b6602a6a35e8aea873040843882211aa81689f05ae9",
      "transactionType": "CALL",
      "contractName": null,
      "contractAddress": "0x8fa71914948544c60e3379064567dcf0e6564d27",
      "function": "settle((uint256,address),(uint8,bool,address,uint256,address,uint256,address,uint64,uint64,uint256),(uint8,bytes32,bytes32))",
      "arguments": [
        "(484, 0x1302F142Fc55B165647d3Bd5dec227f569A2A907)",
        "(1, false, 0xA5f104F8f78d5ba9AEC4a383c0927337Fd4E997B, 484, 0xC02aaA39b223FE8D0A0e5C4F27eAD9083C756Cc2, 63000000000000000, 0xcbe5659df21Cbcfabe4da962F7a9081F26B3ed82, 1772887867, 1779286419, 19)",
        "(27, 0x881f8c91408dd8d42159822637be28f74911bc76add4b805ed64112a61caa1ff, 0x0ab4283e3a7dd7a238e806de064b21a01e461228ce2b0c26bdb6e87772159fcc)"
      ],
      "transaction": {
        "from": "0x1302f142fc55b165647d3bd5dec227f569a2a907",
        "to": "0x8fa71914948544c60e3379064567dcf0e6564d27",
        "gas": "0x2efa4",
        "value": "0x0",
        "input": "0x3bae3e7900000000000000000000000000000000000000000000000000000000000001e40000000000000000000000001302f142fc55b165647d3bd5dec227f569a2a90700000000000000000000000000000000000000000000000000000000000000010000000000000000000000000000000000000000000000000000000000000000000000000000000000000000a5f104f8f78d5ba9aec4a383c0927337fd4e997b00000000000000000000000000000000000000000000000000000000000001e4000000000000000000000000c02aaa39b223fe8d0a0e5c4f27ead9083c756cc200000000000000000000000000000000000000000000000000dfd22a8cd98000000000000000000000000000cbe5659df21cbcfabe4da962f7a9081f26b3ed820000000000000000000000000000000000000000000000000000000069ac1f3b000000000000000000000000000000000000000000000000000000006a0dc1930000000000000000000000000000000000000000000000000000000000000013000000000000000000000000000000000000000000000000000000000000001b881f8c91408dd8d42159822637be28f74911bc76add4b805ed64112a61caa1ff0ab4283e3a7dd7a238e806de064b21a01e461228ce2b0c26bdb6e87772159fcc",
        "nonce": "0x3a",
        "chainId": "0x7a69"
      },
      "additionalContracts": [],
      "isFixedGasLimit": false
    }
  ],
  "receipts": [
    {
      "status": "0x1",
      "cumulativeGasUsed": "0x201f2",
      "logs": [
        {
          "address": "0xc02aaa39b223fe8d0a0e5c4f27ead9083c756cc2",
          "topics": [
            "0xddf252ad1be2c89b69c2b068fc378daa952ba7f163c4a11628f55a4df523b3ef",
            "0x000000000000000000000000cbe5659df21cbcfabe4da962f7a9081f26b3ed82",
            "0x0000000000000000000000001804c8ab1f12e6bbf3894d4083f33e07309d1f38"
          ],
          "data": "0x00000000000000000000000000000000000000000000000000023cfb4e356000",
          "blockHash": "0x4b2815e92ac09605f2be7b1b2a9b60bfe25a2275b36e26d0e2b3b75126e20a9a",
          "blockNumber": "0x17b835f",
          "blockTimestamp": "0x69f17ec6",
          "transactionHash": "0x56ef907cdeec5b91aaba5b6602a6a35e8aea873040843882211aa81689f05ae9",
          "transactionIndex": "0x0",
          "logIndex": "0x0",
          "removed": false
        },
        {
          "address": "0xc02aaa39b223fe8d0a0e5c4f27ead9083c756cc2",
          "topics": [
            "0xddf252ad1be2c89b69c2b068fc378daa952ba7f163c4a11628f55a4df523b3ef",
            "0x000000000000000000000000cbe5659df21cbcfabe4da962f7a9081f26b3ed82",
            "0x0000000000000000000000001302f142fc55b165647d3bd5dec227f569a2a907"
          ],
          "data": "0x00000000000000000000000000000000000000000000000000dd952f3ea42000",
          "blockHash": "0x4b2815e92ac09605f2be7b1b2a9b60bfe25a2275b36e26d0e2b3b75126e20a9a",
          "blockNumber": "0x17b835f",
          "blockTimestamp": "0x69f17ec6",
          "transactionHash": "0x56ef907cdeec5b91aaba5b6602a6a35e8aea873040843882211aa81689f05ae9",
          "transactionIndex": "0x0",
          "logIndex": "0x1",
          "removed": false
        },
        {
          "address": "0xa5f104f8f78d5ba9aec4a383c0927337fd4e997b",
          "topics": [
            "0xddf252ad1be2c89b69c2b068fc378daa952ba7f163c4a11628f55a4df523b3ef",
            "0x0000000000000000000000001302f142fc55b165647d3bd5dec227f569a2a907",
            "0x000000000000000000000000cbe5659df21cbcfabe4da962f7a9081f26b3ed82",
            "0x00000000000000000000000000000000000000000000000000000000000001e4"
          ],
          "data": "0x",
          "blockHash": "0x4b2815e92ac09605f2be7b1b2a9b60bfe25a2275b36e26d0e2b3b75126e20a9a",
          "blockNumber": "0x17b835f",
          "blockTimestamp": "0x69f17ec6",
          "transactionHash": "0x56ef907cdeec5b91aaba5b6602a6a35e8aea873040843882211aa81689f05ae9",
          "transactionIndex": "0x0",
          "logIndex": "0x2",
          "removed": false
        },
        {
          "address": "0x8fa71914948544c60e3379064567dcf0e6564d27",
          "topics": [
            "0xc0ac3eb1e8caef05b202043f34de8e3173fab712167584f7a2a9f4c302bd0e9c",
            "0x07d135d2639f92235c288430db780148effdeed6af9d133a357c3a7895590bb9",
            "0x000000000000000000000000a5f104f8f78d5ba9aec4a383c0927337fd4e997b",
            "0x00000000000000000000000000000000000000000000000000000000000001e4"
          ],
          "data": "0x0000000000000000000000001302f142fc55b165647d3bd5dec227f569a2a907000000000000000000000000cbe5659df21cbcfabe4da962f7a9081f26b3ed82000000000000000000000000c02aaa39b223fe8d0a0e5c4f27ead9083c756cc200000000000000000000000000000000000000000000000000dfd22a8cd98000",
          "blockHash": "0x4b2815e92ac09605f2be7b1b2a9b60bfe25a2275b36e26d0e2b3b75126e20a9a",
          "blockNumber": "0x17b835f",
          "blockTimestamp": "0x69f17ec6",
          "transactionHash": "0x56ef907cdeec5b91aaba5b6602a6a35e8aea873040843882211aa81689f05ae9",
          "transactionIndex": "0x0",
          "logIndex": "0x3",
          "removed": false
        }
      ],
      "logsBloom": "0x00000000000000000000010000000000040000000000000000000000000000000000000000000000000000000000000002000000080000000000000000100000000000000000000000010008000000000000000001000000080000000000000000000000008000000001000000000000000000000000000000000010200000000800100000040000000004000000000000000000000000000000001000000000000000200000000400000000000100000000000000000080000000000000000000000002000004000400000200000000000000000000020080000000000000000100200000000000000040000000000000000000004000000004000000000000",
      "type": "0x2",
      "transactionHash": "0x56ef907cdeec5b91aaba5b6602a6a35e8aea873040843882211aa81689f05ae9",
      "transactionIndex": "0x0",
      "blockHash": "0x4b2815e92ac09605f2be7b1b2a9b60bfe25a2275b36e26d0e2b3b75126e20a9a",
      "blockNumber": "0x17b835f",
      "gasUsed": "0x201f2",
      "effectiveGasPrice": "0x1ba81c",
      "blobGasPrice": "0x1",
      "from": "0x1302f142fc55b165647d3bd5dec227f569a2a907",
      "to": "0x8fa71914948544c60e3379064567dcf0e6564d27",
      "contractAddress": null
    }
  ],
  "libraries": [],
  "pending": [],
  "returns": {},
  "timestamp": 1778506479583,
  "chain": 31337,
  "commit": "59e30a9"
}