{
  "transactions": [
    {
      "hash": "0xb58b0975bd8854eacc58490a58a823f8c828e0195ae5f8453b09f2cdd3f1b9e8",
      "transactionType": "CALL",
      "contractName": null,
      "contractAddress": "0x8fa71914948544c60e3379064567dcf0e6564d27",
      "function": "settle((uint256,address),(uint8,bool,address,uint256,address,uint256,address,uint64,uint64,uint256),(uint8,bytes32,bytes32))",
      "arguments": [
        "(331, 0x1302F142Fc55B165647d3Bd5dec227f569A2A907)",
        "(1, false, 0xA5f104F8f78d5ba9AEC4a383c0927337Fd4E997B, 331, 0xC02aaA39b223FE8D0A0e5C4F27eAD9083C756Cc2, 10000000000000000, 0x4b75AeC40561C03e03d4D1C421dF194a3031A134, 1772094292, 1780079994, 12)",
        "(27, 0x0bd33b86c2acac2e5aaaee0245f45febd0046d7694aeb9246480df8b03a5f299, 0x75879f3f8f838cd6ed020951dd71ac994d6e0fa47d63ac5c78a53e91b33e23f1)"
      ],
      "transaction": {
        "from": "0x1302f142fc55b165647d3bd5dec227f569a2a907",
        "to": "0x8fa71914948544c60e3379064567dcf0e6564d27",
        "gas": "0x2c5d2",
        "value": "0x0",
        "input": "0x3bae3e79000000000000000000000000000000000000000000000000000000000000014b0000000000000000000000001302f142fc55b165647d3bd5dec227f569a2a90700000000000000000000000000000000000000000000000000000000000000010000000000000000000000000000000000000000000000000000000000000000000000000000000000000000a5f104f8f78d5ba9aec4a383c0927337fd4e997b000000000000000000000000000000000000000000000000000000000000014b000000000000000000000000c02aaa39b223fe8d0a0e5c4f27ead9083c756cc2000000000000000000000000000000000000000000000000002386f26fc100000000000000000000000000004b75aec40561c03e03d4d1c421df194a3031a1340000000000000000000000000000000000000000000000000000000069a00354000000000000000000000000000000000000000000000000000000006a19dd7a000000000000000000000000000000000000000000000000000000000000000c000000000000000000000000000000000000000000000000000000000000001b0bd33b86c2acac2e5aaaee0245f45febd0046d7694aeb9246480df8b03a5f29975879f3f8f838cd6ed020951dd71ac994d6e0fa47d63ac5c78a53e91b33e23f1",
        "nonce": "0x3f",
        "chainId": "0x7a69"
      },
      "additionalContracts": [],
      "isFixedGasLimit": false
    }
  ],
  "receipts": [
    {
      "status": "0x1",
      "cumulativeGasUsed": "0x201e6",
      "logs": [
        {
          "address": "0xc02aaa39b223fe8d0a0e5c4f27ead9083c756cc2",
          "topics": [
            "0xddf252ad1be2c89b69c2b068fc378daa952ba7f163c4a11628f55a4df523b3ef",
            "0x0000000000000000000000004b75aec40561c03e03d4d1c421df194a3031a134",
            "0x0000000000000000000000001804c8ab1f12e6bbf3894d4083f33e07309d1f38"
          ],
          "data": "0x00000000000000000000000000000000000000000000000000005af3107a4000",
          "blockHash": "0x2914a8da239b08ea72dfcea66b2dc2485dfdc709fd8e5005d30b9be43752d403",
          "blockNumber": "0x17b83a3",
          "blockTimestamp": "0x6a00e243",
          "transactionHash": "0xb58b0975bd8854eacc58490a58a823f8c828e0195ae5f8453b09f2cdd3f1b9e8",
          "transactionIndex": "0x0",
          "logIndex": "0x0",
          "removed": false
        },
        {
          "address": "0xc02aaa39b223fe8d0a0e5c4f27ead9083c756cc2",
          "topics": [
            "0xddf252ad1be2c89b69c2b068fc378daa952ba7f163c4a11628f55a4df523b3ef",
            "0x0000000000000000000000004b75aec40561c03e03d4d1c421df194a3031a134",
            "0x0000000000000000000000001302f142fc55b165647d3bd5dec227f569a2a907"
          ],
          "data": "0x00000000000000000000000000000000000000000000000000232bff5f46c000",
          "blockHash": "0x2914a8da239b08ea72dfcea66b2dc2485dfdc709fd8e5005d30b9be43752d403",
          "blockNumber": "0x17b83a3",
          "blockTimestamp": "0x6a00e243",
          "transactionHash": "0xb58b0975bd8854eacc58490a58a823f8c828e0195ae5f8453b09f2cdd3f1b9e8",
          "transactionIndex": "0x0",
          "logIndex": "0x1",
          "removed": false
        },
        {
          "address": "0xa5f104f8f78d5ba9aec4a383c0927337fd4e997b",
          "topics": [
            "0xddf252ad1be2c89b69c2b068fc378daa952ba7f163c4a11628f55a4df523b3ef",
            "0x0000000000000000000000001302f142fc55b165647d3bd5dec227f569a2a907",
            "0x0000000000000000000000004b75aec40561c03e03d4d1c421df194a3031a134",
            "0x000000000000000000000000000000000000000000000000000000000000014b"
          ],
          "data": "0x",
          "blockHash": "0x2914a8da239b08ea72dfcea66b2dc2485dfdc709fd8e5005d30b9be43752d403",
          "blockNumber": "0x17b83a3",
          "blockTimestamp": "0x6a00e243",
          "transactionHash": "0xb58b0975bd8854eacc58490a58a823f8c828e0195ae5f8453b09f2cdd3f1b9e8",
          "transactionIndex": "0x0",
          "logIndex": "0x2",
          "removed": false
        },
        {
          "address": "0x8fa71914948544c60e3379064567dcf0e6564d27",
          "topics": [
            "0xc0ac3eb1e8caef05b202043f34de8e3173fab712167584f7a2a9f4c302bd0e9c",
            "0xfd23ceac3b7c348826b67e44bec18e140595b84e64673c5833c8b7b47bb3405f",
            "0x000000000000000000000000a5f104f8f78d5ba9aec4a383c0927337fd4e997b",
            "0x000000000000000000000000000000000000000000000000000000000000014b"
          ],
          "data": "0x0000000000000000000000001302f142fc55b165647d3bd5dec227f569a2a9070000000000000000000000004b75aec40561c03e03d4d1c421df194a3031a134000000000000000000000000c02aaa39b223fe8d0a0e5c4f27ead9083c756cc2000000000000000000000000000000000000000000000000002386f26fc10000",
          "blockHash": "0x2914a8da239b08ea72dfcea66b2dc2485dfdc709fd8e5005d30b9be43752d403",
          "blockNumber": "0x17b83a3",
          "blockTimestamp": "0x6a00e243",
          "transactionHash": "0xb58b0975bd8854eacc58490a58a823f8c828e0195ae5f8453b09f2cdd3f1b9e8",
          "transactionIndex": "0x0",
          "logIndex": "0x3",
          "removed": false
        }
      ],
      "logsBloom": "0x00000000000000000000010000000000000000000000000000000000000000000000000000000000000000000000000002000000080000000000000000100000000000000400000000011008000000000000000000000000080000000000000000000000000000000001000000000000000000000000000000000010200000000800000000040000000004000000000000000004000000000000000000002000000000200000000408000000000500000000000000000080060000000000000000000002000004000000000200000000000000020000000080000000000000000100200000000000000040000000000000000000000000000000000000000000",
      "type": "0x2",
      "transactionHash": "0xb58b0975bd8854eacc58490a58a823f8c828e0195ae5f8453b09f2cdd3f1b9e8",
      "transactionIndex": "0x0",
      "blockHash": "0x2914a8da239b08ea72dfcea66b2dc2485dfdc709fd8e5005d30b9be43752d403",
      "blockNumber": "0x17b83a3",
      "gasUsed": "0x201e6",
      "effectiveGasPrice": "0x1ba81c",
      "blobGasPrice": "0x1",
      "from": "0x1302f142fc55b165647d3bd5dec227f569a2a907",
      "to": "0x8fa71914948544c60e3379064567dcf0e6564d27",
      "contractAddress": null
    }
  ],
  "libraries": [],
  "pending": [],
  "returns": {},
  "timestamp": 1778506552781,
  "chain": 31337,
  "commit": "59e30a9"
}