{
  "transactions": [
    {
      "hash": "0x29fffe4e16c87bb783e181d59a12b936e9499b5ce6c33660ced4158f2ba8ca4c",
      "transactionType": "CALL",
      "contractName": null,
      "contractAddress": "0x73973d222c3fda5b2563d269da9e19cb125000f4",
      "function": "settle((uint256,address),(uint8,bool,address,uint256,address,uint256,address,uint64,uint64,uint256),(uint8,bytes32,bytes32))",
      "arguments": [
        "(235, 0xcbe5659df21Cbcfabe4da962F7a9081F26B3ed82)",
        "(1, false, 0x38D4dE42C9c5640A2799B372D27B01957E0a3673, 235, 0xC02aaA39b223FE8D0A0e5C4F27eAD9083C756Cc2, 198000000000000000, 0xe3745C151faB59B0740f4312b2B027F07D096639, 1773397599, 1778668039, 14)",
        "(27, 0xe5929609c0879c5b1f6fd28a7675a1cd9457adf2751b082b5d9406b9cfa8dac3, 0x1cfc0f34c5dfc00f2b182cc13a5258423818e44df41dde68c6b6e0c266ce8ca2)"
      ],
      "transaction": {
        "from": "0xcbe5659df21cbcfabe4da962f7a9081f26b3ed82",
        "to": "0x73973d222c3fda5b2563d269da9e19cb125000f4",
        "gas": "0x2ef81",
        "value": "0x0",
        "input": "0x3bae3e7900000000000000000000000000000000000000000000000000000000000000eb000000000000000000000000cbe5659df21cbcfabe4da962f7a9081f26b3ed820000000000000000000000000000000000000000000000000000000000000001000000000000000000000000000000000000000000000000000000000000000000000000000000000000000038d4de42c9c5640a2799b372d27b01957e0a367300000000000000000000000000000000000000000000000000000000000000eb000000000000000000000000c02aaa39b223fe8d0a0e5c4f27ead9083c756cc200000000000000000000000000000000000000000000000002bf6ff371870000000000000000000000000000e3745c151fab59b0740f4312b2b027f07d0966390000000000000000000000000000000000000000000000000000000069b3e65f000000000000000000000000000000000000000000000000000000006a045207000000000000000000000000000000000000000000000000000000000000000e000000000000000000000000000000000000000000000000000000000000001be5929609c0879c5b1f6fd28a7675a1cd9457adf2751b082b5d9406b9cfa8dac31cfc0f34c5dfc00f2b182cc13a5258423818e44df41dde68c6b6e0c266ce8ca2",
        "nonce": "0x6d",
        "chainId": "0x7a69"
      },
      "additionalContracts": [],
      "isFixedGasLimit": false
    }
  ],
  "receipts": [
    {
      "status": "0x1",
      "cumulativeGasUsed": "0x201da",
      "logs": [
        {
          "address": "0xc02aaa39b223fe8d0a0e5c4f27ead9083c756cc2",
          "topics": [
            "0xddf252ad1be2c89b69c2b068fc378daa952ba7f163c4a11628f55a4df523b3ef",
            "0x000000000000000000000000e3745c151fab59b0740f4312b2b027f07d096639",
            "0x0000000000000000000000001804c8ab1f12e6bbf3894d4083f33e07309d1f38"
          ],
          "data": "0x000000000000000000000000000000000000000000000000000708ccaca7c000",
          "blockHash": "0x175f5a25eb985fdecb0d344d07a21aa3c4d5f3782fcc2ef0aaf5e1f0cf68403e",
          "blockNumber": "0x17b73c0",
          "blockTimestamp": "0x69e6bb52",
          "transactionHash": "0x29fffe4e16c87bb783e181d59a12b936e9499b5ce6c33660ced4158f2ba8ca4c",
          "transactionIndex": "0x0",
          "logIndex": "0x0",
          "removed": false
        },
        {
          "address": "0xc02aaa39b223fe8d0a0e5c4f27ead9083c756cc2",
          "topics": [
            "0xddf252ad1be2c89b69c2b068fc378daa952ba7f163c4a11628f55a4df523b3ef",
            "0x000000000000000000000000e3745c151fab59b0740f4312b2b027f07d096639",
            "0x000000000000000000000000cbe5659df21cbcfabe4da962f7a9081f26b3ed82"
          ],
          "data": "0x00000000000000000000000000000000000000000000000002b86726c4df4000",
          "blockHash": "0x175f5a25eb985fdecb0d344d07a21aa3c4d5f3782fcc2ef0aaf5e1f0cf68403e",
          "blockNumber": "0x17b73c0",
          "blockTimestamp": "0x69e6bb52",
          "transactionHash": "0x29fffe4e16c87bb783e181d59a12b936e9499b5ce6c33660ced4158f2ba8ca4c",
          "transactionIndex": "0x0",
          "logIndex": "0x1",
          "removed": false
        },
        {
          "address": "0x38d4de42c9c5640a2799b372d27b01957e0a3673",
          "topics": [
            "0xddf252ad1be2c89b69c2b068fc378daa952ba7f163c4a11628f55a4df523b3ef",
            "0x000000000000000000000000cbe5659df21cbcfabe4da962f7a9081f26b3ed82",
            "0x000000000000000000000000e3745c151fab59b0740f4312b2b027f07d096639",
            "0x00000000000000000000000000000000000000000000000000000000000000eb"
          ],
          "data": "0x",
          "blockHash": "0x175f5a25eb985fdecb0d344d07a21aa3c4d5f3782fcc2ef0aaf5e1f0cf68403e",
          "blockNumber": "0x17b73c0",
          "blockTimestamp": "0x69e6bb52",
          "transactionHash": "0x29fffe4e16c87bb783e181d59a12b936e9499b5ce6c33660ced4158f2ba8ca4c",
          "transactionIndex": "0x0",
          "logIndex": "0x2",
          "removed": false
        },
        {
          "address": "0x73973d222c3fda5b2563d269da9e19cb125000f4",
          "topics": [
            "0xc0ac3eb1e8caef05b202043f34de8e3173fab712167584f7a2a9f4c302bd0e9c",
            "0x4e14d1b3533a0aa512515d6e8209abc5bc8500194a1ad0821e4de293e6e634b1",
            "0x00000000000000000000000038d4de42c9c5640a2799b372d27b01957e0a3673",
            "0x00000000000000000000000000000000000000000000000000000000000000eb"
          ],
          "data": "0x000000000000000000000000cbe5659df21cbcfabe4da962f7a9081f26b3ed82000000000000000000000000e3745c151fab59b0740f4312b2b027f07d096639000000000000000000000000c02aaa39b223fe8d0a0e5c4f27ead9083c756cc200000000000000000000000000000000000000000000000002bf6ff371870000",
          "blockHash": "0x175f5a25eb985fdecb0d344d07a21aa3c4d5f3782fcc2ef0aaf5e1f0cf68403e",
          "blockNumber": "0x17b73c0",
          "blockTimestamp": "0x69e6bb52",
          "transactionHash": "0x29fffe4e16c87bb783e181d59a12b936e9499b5ce6c33660ced4158f2ba8ca4c",
          "transactionIndex": "0x0",
          "logIndex": "0x3",
          "removed": false
        }
      ],
      "logsBloom": "0x00000000000000000000000000000000000000000102000000000000000000000000000000000000000000000000020042000000080000000004100000100000000010000000001021000008010000000000000000000000000000000000000000000000000000000001000000000000000000000000004000000010000000000000000000000000000004000002000000000000000008000020000000000000000000000000000000000000000000000000000000000080400000000000000000000002000004000400000000000000000000000000020000000040000000000100200000000000000000000000000000000000004000000000000000000000",
      "type": "0x2",
      "transactionHash": "0x29fffe4e16c87bb783e181d59a12b936e9499b5ce6c33660ced4158f2ba8ca4c",
      "transactionIndex": "0x0",
      "blockHash": "0x175f5a25eb985fdecb0d344d07a21aa3c4d5f3782fcc2ef0aaf5e1f0cf68403e",
      "blockNumber": "0x17b73c0",
      "gasUsed": "0x201da",
      "effectiveGasPrice": "0xf4248",
      "blobGasPrice": "0x1",
      "from": "0xcbe5659df21cbcfabe4da962f7a9081f26b3ed82",
      "to": "0x73973d222c3fda5b2563d269da9e19cb125000f4",
      "contractAddress": null
    }
  ],
  "libraries": [],
  "pending": [],
  "returns": {},
  "timestamp": 1778453769197,
  "chain": 31337,
  "commit": "f87d399"
}