{
  "transactions": [
    {
      "hash": "0x3a1f94fd1d7065272a303c7d9d4b41fac740d8a669149d4b0f859fd428f8f49a",
      "transactionType": "CALL",
      "contractName": null,
      "contractAddress": "0x73973d222c3fda5b2563d269da9e19cb125000f4",
      "function": "settle((uint256,address),(uint8,bool,address,uint256,address,uint256,address,uint64,uint64,uint256),(uint8,bytes32,bytes32))",
      "arguments": [
        "(174, 0x1302F142Fc55B165647d3Bd5dec227f569A2A907)",
        "(1, false, 0x38D4dE42C9c5640A2799B372D27B01957E0a3673, 174, 0xC02aaA39b223FE8D0A0e5C4F27eAD9083C756Cc2, 25000000000000000, 0xa382b0E75C192D9CDF5c084E58b750Cea7761Bd0, 1772575701, 1779489937, 4)",
        "(28, 0x2733ce8b0260f817cfe8c7dbdd5f01c9ed3f9ad5dc14dde5cdcfe51c2c483c0b, 0x02dcebb7c44c5d3f9f201526eb803fe58a86f68d70b5378cfd2ef34b2fcdc6ae)"
      ],
      "transaction": {
        "from": "0x1302f142fc55b165647d3bd5dec227f569a2a907",
        "to": "0x73973d222c3fda5b2563d269da9e19cb125000f4",
        "gas": "0x2c5dc",
        "value": "0x0",
        "input": "0x3bae3e7900000000000000000000000000000000000000000000000000000000000000ae0000000000000000000000001302f142fc55b165647d3bd5dec227f569a2a9070000000000000000000000000000000000000000000000000000000000000001000000000000000000000000000000000000000000000000000000000000000000000000000000000000000038d4de42c9c5640a2799b372d27b01957e0a367300000000000000000000000000000000000000000000000000000000000000ae000000000000000000000000c02aaa39b223fe8d0a0e5c4f27ead9083c756cc20000000000000000000000000000000000000000000000000058d15e17628000000000000000000000000000a382b0e75c192d9cdf5c084e58b750cea7761bd00000000000000000000000000000000000000000000000000000000069a75bd5000000000000000000000000000000000000000000000000000000006a10dc910000000000000000000000000000000000000000000000000000000000000004000000000000000000000000000000000000000000000000000000000000001c2733ce8b0260f817cfe8c7dbdd5f01c9ed3f9ad5dc14dde5cdcfe51c2c483c0b02dcebb7c44c5d3f9f201526eb803fe58a86f68d70b5378cfd2ef34b2fcdc6ae",
        "nonce": "0x6c",
        "chainId": "0x7a69"
      },
      "additionalContracts": [],
      "isFixedGasLimit": false
    }
  ],
  "receipts": [
    {
      "status": "0x1",
      "cumulativeGasUsed": "0x201ee",
      "logs": [
        {
          "address": "0xc02aaa39b223fe8d0a0e5c4f27ead9083c756cc2",
          "topics": [
            "0xddf252ad1be2c89b69c2b068fc378daa952ba7f163c4a11628f55a4df523b3ef",
            "0x000000000000000000000000a382b0e75c192d9cdf5c084e58b750cea7761bd0",
            "0x0000000000000000000000001804c8ab1f12e6bbf3894d4083f33e07309d1f38"
          ],
          "data": "0x0000000000000000000000000000000000000000000000000000e35fa931a000",
          "blockHash": "0xf08f8efc8d1446bc6e58ec7d09217eb845fdf8a6a395adf02ef9af1dc37db23a",
          "blockNumber": "0x17b739d",
          "blockTimestamp": "0x69e0475f",
          "transactionHash": "0x3a1f94fd1d7065272a303c7d9d4b41fac740d8a669149d4b0f859fd428f8f49a",
          "transactionIndex": "0x0",
          "logIndex": "0x0",
          "removed": false
        },
        {
          "address": "0xc02aaa39b223fe8d0a0e5c4f27ead9083c756cc2",
          "topics": [
            "0xddf252ad1be2c89b69c2b068fc378daa952ba7f163c4a11628f55a4df523b3ef",
            "0x000000000000000000000000a382b0e75c192d9cdf5c084e58b750cea7761bd0",
            "0x0000000000000000000000001302f142fc55b165647d3bd5dec227f569a2a907"
          ],
          "data": "0x0000000000000000000000000000000000000000000000000057edfe6e30e000",
          "blockHash": "0xf08f8efc8d1446bc6e58ec7d09217eb845fdf8a6a395adf02ef9af1dc37db23a",
          "blockNumber": "0x17b739d",
          "blockTimestamp": "0x69e0475f",
          "transactionHash": "0x3a1f94fd1d7065272a303c7d9d4b41fac740d8a669149d4b0f859fd428f8f49a",
          "transactionIndex": "0x0",
          "logIndex": "0x1",
          "removed": false
        },
        {
          "address": "0x38d4de42c9c5640a2799b372d27b01957e0a3673",
          "topics": [
            "0xddf252ad1be2c89b69c2b068fc378daa952ba7f163c4a11628f55a4df523b3ef",
            "0x0000000000000000000000001302f142fc55b165647d3bd5dec227f569a2a907",
            "0x000000000000000000000000a382b0e75c192d9cdf5c084e58b750cea7761bd0",
            "0x00000000000000000000000000000000000000000000000000000000000000ae"
          ],
          "data": "0x",
          "blockHash": "0xf08f8efc8d1446bc6e58ec7d09217eb845fdf8a6a395adf02ef9af1dc37db23a",
          "blockNumber": "0x17b739d",
          "blockTimestamp": "0x69e0475f",
          "transactionHash": "0x3a1f94fd1d7065272a303c7d9d4b41fac740d8a669149d4b0f859fd428f8f49a",
          "transactionIndex": "0x0",
          "logIndex": "0x2",
          "removed": false
        },
        {
          "address": "0x73973d222c3fda5b2563d269da9e19cb125000f4",
          "topics": [
            "0xc0ac3eb1e8caef05b202043f34de8e3173fab712167584f7a2a9f4c302bd0e9c",
            "0x2f025ef32cc5c2cbaf0ecc3fcf8f16ef4def7004e7500ce8ab7ab57f2281bca5",
            "0x00000000000000000000000038d4de42c9c5640a2799b372d27b01957e0a3673",
            "0x00000000000000000000000000000000000000000000000000000000000000ae"
          ],
          "data": "0x0000000000000000000000001302f142fc55b165647d3bd5dec227f569a2a907000000000000000000000000a382b0e75c192d9cdf5c084e58b750cea7761bd0000000000000000000000000c02aaa39b223fe8d0a0e5c4f27ead9083c756cc20000000000000000000000000000000000000000000000000058d15e17628000",
          "blockHash": "0xf08f8efc8d1446bc6e58ec7d09217eb845fdf8a6a395adf02ef9af1dc37db23a",
          "blockNumber": "0x17b739d",
          "blockTimestamp": "0x69e0475f",
          "transactionHash": "0x3a1f94fd1d7065272a303c7d9d4b41fac740d8a669149d4b0f859fd428f8f49a",
          "transactionIndex": "0x0",
          "logIndex": "0x3",
          "removed": false
        }
      ],
      "logsBloom": "0x00000000000000000000000000000000000000002002000000000000000000000000000000000000000000000000020002000000080100110004100000100000000000000000001021000008000000000000000000000000000000000000000000000000000000000001000000000000000000000000040000000010000000000000000000000000000004800000000000100000000008000000000000000000000000000000000000000000000100000000000000000080400000000000000000000002000004000000000200000000000000000000000000000000000000000100200000000000000040000000000000000000100000000000000000008000",
      "type": "0x2",
      "transactionHash": "0x3a1f94fd1d7065272a303c7d9d4b41fac740d8a669149d4b0f859fd428f8f49a",
      "transactionIndex": "0x0",
      "blockHash": "0xf08f8efc8d1446bc6e58ec7d09217eb845fdf8a6a395adf02ef9af1dc37db23a",
      "blockNumber": "0x17b739d",
      "gasUsed": "0x201ee",
      "effectiveGasPrice": "0xf4248",
      "blobGasPrice": "0x1",
      "from": "0x1302f142fc55b165647d3bd5dec227f569a2a907",
      "to": "0x73973d222c3fda5b2563d269da9e19cb125000f4",
      "contractAddress": null
    }
  ],
  "libraries": [],
  "pending": [],
  "returns": {},
  "timestamp": 1778453702798,
  "chain": 31337,
  "commit": "f87d399"
}