{
  "transactions": [
    {
      "hash": "0x85dad7e668c7b310826ed9c2da9a38fa656dfc3fe5a4dd0c79da7085c284dc14",
      "transactionType": "CALL",
      "contractName": null,
      "contractAddress": "0x73973d222c3fda5b2563d269da9e19cb125000f4",
      "function": "settle((uint256,address),(uint8,bool,address,uint256,address,uint256,address,uint64,uint64,uint256),(uint8,bytes32,bytes32))",
      "arguments": [
        "(0, 0xe3745C151faB59B0740f4312b2B027F07D096639)",
        "(0, false, 0x38D4dE42C9c5640A2799B372D27B01957E0a3673, 40, 0xC02aaA39b223FE8D0A0e5C4F27eAD9083C756Cc2, 385000000000000000, 0xE233420d38D286C2F2Cf8dEe6564F132FBDB09DB, 1773545011, 1778520627, 3)",
        "(27, 0x5fc7cc87244a94c9c1e839f1e88ad1c037c8a113e8b044e073534136a0a93f21, 0x4b2b5b9b01e83d0afc0de4e013566324298b1422bbde74d34776897d70ed50fb)"
      ],
      "transaction": {
        "from": "0xe3745c151fab59b0740f4312b2b027f07d096639",
        "to": "0x73973d222c3fda5b2563d269da9e19cb125000f4",
        "gas": "0x2ee7f",
        "value": "0x0",
        "input": "0x3bae3e790000000000000000000000000000000000000000000000000000000000000000000000000000000000000000e3745c151fab59b0740f4312b2b027f07d0966390000000000000000000000000000000000000000000000000000000000000000000000000000000000000000000000000000000000000000000000000000000000000000000000000000000038d4de42c9c5640a2799b372d27b01957e0a36730000000000000000000000000000000000000000000000000000000000000028000000000000000000000000c02aaa39b223fe8d0a0e5c4f27ead9083c756cc20000000000000000000000000000000000000000000000000557cb75ce868000000000000000000000000000e233420d38d286c2f2cf8dee6564f132fbdb09db0000000000000000000000000000000000000000000000000000000069b62633000000000000000000000000000000000000000000000000000000006a0212330000000000000000000000000000000000000000000000000000000000000003000000000000000000000000000000000000000000000000000000000000001b5fc7cc87244a94c9c1e839f1e88ad1c037c8a113e8b044e073534136a0a93f214b2b5b9b01e83d0afc0de4e013566324298b1422bbde74d34776897d70ed50fb",
        "nonce": "0x7d",
        "chainId": "0x7a69"
      },
      "additionalContracts": [],
      "isFixedGasLimit": false
    }
  ],
  "receipts": [
    {
      "status": "0x1",
      "cumulativeGasUsed": "0x20129",
      "logs": [
        {
          "address": "0xc02aaa39b223fe8d0a0e5c4f27ead9083c756cc2",
          "topics": [
            "0xddf252ad1be2c89b69c2b068fc378daa952ba7f163c4a11628f55a4df523b3ef",
            "0x000000000000000000000000e3745c151fab59b0740f4312b2b027f07d096639",
            "0x0000000000000000000000001804c8ab1f12e6bbf3894d4083f33e07309d1f38"
          ],
          "data": "0x000000000000000000000000000000000000000000000000000dad8dfa62a000",
          "blockHash": "0xf620dfdefee5caa42f0df20436b53206243bdb0917eb468303c59c9575f4a273",
          "blockNumber": "0x17b73ba",
          "blockTimestamp": "0x69e5b4cc",
          "transactionHash": "0x85dad7e668c7b310826ed9c2da9a38fa656dfc3fe5a4dd0c79da7085c284dc14",
          "transactionIndex": "0x0",
          "logIndex": "0x0",
          "removed": false
        },
        {
          "address": "0xc02aaa39b223fe8d0a0e5c4f27ead9083c756cc2",
          "topics": [
            "0xddf252ad1be2c89b69c2b068fc378daa952ba7f163c4a11628f55a4df523b3ef",
            "0x000000000000000000000000e3745c151fab59b0740f4312b2b027f07d096639",
            "0x000000000000000000000000e233420d38d286c2f2cf8dee6564f132fbdb09db"
          ],
          "data": "0x000000000000000000000000000000000000000000000000054a1de7d423e000",
          "blockHash": "0xf620dfdefee5caa42f0df20436b53206243bdb0917eb468303c59c9575f4a273",
          "blockNumber": "0x17b73ba",
          "blockTimestamp": "0x69e5b4cc",
          "transactionHash": "0x85dad7e668c7b310826ed9c2da9a38fa656dfc3fe5a4dd0c79da7085c284dc14",
          "transactionIndex": "0x0",
          "logIndex": "0x1",
          "removed": false
        },
        {
          "address": "0x38d4de42c9c5640a2799b372d27b01957e0a3673",
          "topics": [
            "0xddf252ad1be2c89b69c2b068fc378daa952ba7f163c4a11628f55a4df523b3ef",
            "0x000000000000000000000000e233420d38d286c2f2cf8dee6564f132fbdb09db",
            "0x000000000000000000000000e3745c151fab59b0740f4312b2b027f07d096639",
            "0x0000000000000000000000000000000000000000000000000000000000000028"
          ],
          "data": "0x",
          "blockHash": "0xf620dfdefee5caa42f0df20436b53206243bdb0917eb468303c59c9575f4a273",
          "blockNumber": "0x17b73ba",
          "blockTimestamp": "0x69e5b4cc",
          "transactionHash": "0x85dad7e668c7b310826ed9c2da9a38fa656dfc3fe5a4dd0c79da7085c284dc14",
          "transactionIndex": "0x0",
          "logIndex": "0x2",
          "removed": false
        },
        {
          "address": "0x73973d222c3fda5b2563d269da9e19cb125000f4",
          "topics": [
            "0xc0ac3eb1e8caef05b202043f34de8e3173fab712167584f7a2a9f4c302bd0e9c",
            "0xa5e62347dc4c8564f91cc159779789e8a4d652132d8412aa5ff5155b013b1974",
            "0x00000000000000000000000038d4de42c9c5640a2799b372d27b01957e0a3673",
            "0x0000000000000000000000000000000000000000000000000000000000000028"
          ],
          "data": "0x000000000000000000000000e233420d38d286c2f2cf8dee6564f132fbdb09db000000000000000000000000e3745c151fab59b0740f4312b2b027f07d096639000000000000000000000000c02aaa39b223fe8d0a0e5c4f27ead9083c756cc20000000000000000000000000000000000000000000000000557cb75ce868000",
          "blockHash": "0xf620dfdefee5caa42f0df20436b53206243bdb0917eb468303c59c9575f4a273",
          "blockNumber": "0x17b73ba",
          "blockTimestamp": "0x69e5b4cc",
          "transactionHash": "0x85dad7e668c7b310826ed9c2da9a38fa656dfc3fe5a4dd0c79da7085c284dc14",
          "transactionIndex": "0x0",
          "logIndex": "0x3",
          "removed": false
        }
      ],
      "logsBloom": "0x00000000000000000000000000000000000002000102000000000000000000000000000000000000000000000000020042000000080000000004100000100000000000000000001021000008000000000000000000000000000000000000000000000001000000000001000000000000000000400000000000000010000000000000000000000000000004000000000000000000000008000000000000000000000000000100000000000000000000000000000000000080400000000000000000000012000084000000000000000000000020000002000000000048000000000100200000000000000000000000000000000000000000000000000000000000",
      "type": "0x2",
      "transactionHash": "0x85dad7e668c7b310826ed9c2da9a38fa656dfc3fe5a4dd0c79da7085c284dc14",
      "transactionIndex": "0x0",
      "blockHash": "0xf620dfdefee5caa42f0df20436b53206243bdb0917eb468303c59c9575f4a273",
      "blockNumber": "0x17b73ba",
      "gasUsed": "0x20129",
      "effectiveGasPrice": "0xf4248",
      "blobGasPrice": "0x1",
      "from": "0xe3745c151fab59b0740f4312b2b027f07d096639",
      "to": "0x73973d222c3fda5b2563d269da9e19cb125000f4",
      "contractAddress": null
    }
  ],
  "libraries": [],
  "pending": [],
  "returns": {},
  "timestamp": 1778453763751,
  "chain": 31337,
  "commit": "f87d399"
}