{
  "transactions": [
    {
      "hash": "0xae72d409fac300f1905593c77f82374be9d050b5e8109e06656a761520c0cb5c",
      "transactionType": "CALL",
      "contractName": null,
      "contractAddress": "0x8fa71914948544c60e3379064567dcf0e6564d27",
      "function": "settle((uint256,address),(uint8,bool,address,uint256,address,uint256,address,uint64,uint64,uint256),(uint8,bytes32,bytes32))",
      "arguments": [
        "(100, 0x646dC5Fc4009C4C84a424B6aE0f494b374bAE1Ce)",
        "(1, false, 0xA5f104F8f78d5ba9AEC4a383c0927337Fd4E997B, 100, 0xC02aaA39b223FE8D0A0e5C4F27eAD9083C756Cc2, 915000000000000000, 0x4b75AeC40561C03e03d4D1C421dF194a3031A134, 1771955423, 1780218863, 5)",
        "(27, 0xf41fa2546a7caf9a9d136d6045f6fa04465ff7d80b2c3864c740da5c982530cd, 0x36eef37d796021277f1c4134dfeb846579bf52d1f5a4ccb33022049d5f1bf3ce)"
      ],
      "transaction": {
        "from": "0x646dc5fc4009c4c84a424b6ae0f494b374bae1ce",
        "to": "0x8fa71914948544c60e3379064567dcf0e6564d27",
        "gas": "0x2c5d2",
        "value": "0x0",
        "input": "0x3bae3e790000000000000000000000000000000000000000000000000000000000000064000000000000000000000000646dc5fc4009c4c84a424b6ae0f494b374bae1ce00000000000000000000000000000000000000000000000000000000000000010000000000000000000000000000000000000000000000000000000000000000000000000000000000000000a5f104f8f78d5ba9aec4a383c0927337fd4e997b0000000000000000000000000000000000000000000000000000000000000064000000000000000000000000c02aaa39b223fe8d0a0e5c4f27ead9083c756cc20000000000000000000000000000000000000000000000000cb2bba6f17b80000000000000000000000000004b75aec40561c03e03d4d1c421df194a3031a13400000000000000000000000000000000000000000000000000000000699de4df000000000000000000000000000000000000000000000000000000006a1bfbef0000000000000000000000000000000000000000000000000000000000000005000000000000000000000000000000000000000000000000000000000000001bf41fa2546a7caf9a9d136d6045f6fa04465ff7d80b2c3864c740da5c982530cd36eef37d796021277f1c4134dfeb846579bf52d1f5a4ccb33022049d5f1bf3ce",
        "nonce": "0x5e",
        "chainId": "0x7a69"
      },
      "additionalContracts": [],
      "isFixedGasLimit": false
    }
  ],
  "receipts": [
    {
      "status": "0x1",
      "cumulativeGasUsed": "0x201e6",
      "logs": [
        {
          "address": "0xc02aaa39b223fe8d0a0e5c4f27ead9083c756cc2",
          "topics": [
            "0xddf252ad1be2c89b69c2b068fc378daa952ba7f163c4a11628f55a4df523b3ef",
            "0x0000000000000000000000004b75aec40561c03e03d4d1c421df194a3031a134",
            "0x0000000000000000000000001804c8ab1f12e6bbf3894d4083f33e07309d1f38"
          ],
          "data": "0x000000000000000000000000000000000000000000000000002081e063b1e000",
          "blockHash": "0x8ec6c39ad84d15ec974ddddd41ca6a897ac568559cb30826a49379e16d159ae8",
          "blockNumber": "0x17b837f",
          "blockTimestamp": "0x69f83500",
          "transactionHash": "0xae72d409fac300f1905593c77f82374be9d050b5e8109e06656a761520c0cb5c",
          "transactionIndex": "0x0",
          "logIndex": "0x0",
          "removed": false
        },
        {
          "address": "0xc02aaa39b223fe8d0a0e5c4f27ead9083c756cc2",
          "topics": [
            "0xddf252ad1be2c89b69c2b068fc378daa952ba7f163c4a11628f55a4df523b3ef",
            "0x0000000000000000000000004b75aec40561c03e03d4d1c421df194a3031a134",
            "0x000000000000000000000000646dc5fc4009c4c84a424b6ae0f494b374bae1ce"
          ],
          "data": "0x0000000000000000000000000000000000000000000000000c9239c68dc9a000",
          "blockHash": "0x8ec6c39ad84d15ec974ddddd41ca6a897ac568559cb30826a49379e16d159ae8",
          "blockNumber": "0x17b837f",
          "blockTimestamp": "0x69f83500",
          "transactionHash": "0xae72d409fac300f1905593c77f82374be9d050b5e8109e06656a761520c0cb5c",
          "transactionIndex": "0x0",
          "logIndex": "0x1",
          "removed": false
        },
        {
          "address": "0xa5f104f8f78d5ba9aec4a383c0927337fd4e997b",
          "topics": [
            "0xddf252ad1be2c89b69c2b068fc378daa952ba7f163c4a11628f55a4df523b3ef",
            "0x000000000000000000000000646dc5fc4009c4c84a424b6ae0f494b374bae1ce",
            "0x0000000000000000000000004b75aec40561c03e03d4d1c421df194a3031a134",
            "0x0000000000000000000000000000000000000000000000000000000000000064"
          ],
          "data": "0x",
          "blockHash": "0x8ec6c39ad84d15ec974ddddd41ca6a897ac568559cb30826a49379e16d159ae8",
          "blockNumber": "0x17b837f",
          "blockTimestamp": "0x69f83500",
          "transactionHash": "0xae72d409fac300f1905593c77f82374be9d050b5e8109e06656a761520c0cb5c",
          "transactionIndex": "0x0",
          "logIndex": "0x2",
          "removed": false
        },
        {
          "address": "0x8fa71914948544c60e3379064567dcf0e6564d27",
          "topics": [
            "0xc0ac3eb1e8caef05b202043f34de8e3173fab712167584f7a2a9f4c302bd0e9c",
            "0x3a77fa164bd87383fcf8eed2b5d8c22a6134ecdb1b1afd851a803bb0d4b0d477",
            "0x000000000000000000000000a5f104f8f78d5ba9aec4a383c0927337fd4e997b",
            "0x0000000000000000000000000000000000000000000000000000000000000064"
          ],
          "data": "0x000000000000000000000000646dc5fc4009c4c84a424b6ae0f494b374bae1ce0000000000000000000000004b75aec40561c03e03d4d1c421df194a3031a134000000000000000000000000c02aaa39b223fe8d0a0e5c4f27ead9083c756cc20000000000000000000000000000000000000000000000000cb2bba6f17b8000",
          "blockHash": "0x8ec6c39ad84d15ec974ddddd41ca6a897ac568559cb30826a49379e16d159ae8",
          "blockNumber": "0x17b837f",
          "blockTimestamp": "0x69f83500",
          "transactionHash": "0xae72d409fac300f1905593c77f82374be9d050b5e8109e06656a761520c0cb5c",
          "transactionIndex": "0x0",
          "logIndex": "0x3",
          "removed": false
        }
      ],
      "logsBloom": "0x00000000000000000000010000000000000000000002000000000000000000000000000000000000000000000000000002010000090000000000000000180000000000000000000000010008000000000000000000000000080000000000000000000000000000000005000000000000000000000000000000000010200000000800000000040000000004000000000000800000000000000000000000002000000000200000000400000000000400000000000000000080020000000000100000000002000004000000000000000000000000000000000080000000000000000100200000000000000000000000000000000000010000008000000000000000",
      "type": "0x2",
      "transactionHash": "0xae72d409fac300f1905593c77f82374be9d050b5e8109e06656a761520c0cb5c",
      "transactionIndex": "0x0",
      "blockHash": "0x8ec6c39ad84d15ec974ddddd41ca6a897ac568559cb30826a49379e16d159ae8",
      "blockNumber": "0x17b837f",
      "gasUsed": "0x201e6",
      "effectiveGasPrice": "0x1ba81c",
      "blobGasPrice": "0x1",
      "from": "0x646dc5fc4009c4c84a424b6ae0f494b374bae1ce",
      "to": "0x8fa71914948544c60e3379064567dcf0e6564d27",
      "contractAddress": null
    }
  ],
  "libraries": [],
  "pending": [],
  "returns": {},
  "timestamp": 1778506508657,
  "chain": 31337,
  "commit": "59e30a9"
}