{
  "transactions": [
    {
      "hash": "0x8f01822d8f0c7718e6ca4662e72e5527f97d0ee9f258126587600265abc17bf4",
      "transactionType": "CALL",
      "contractName": null,
      "contractAddress": "0x73973d222c3fda5b2563d269da9e19cb125000f4",
      "function": "settle((uint256,address),(uint8,bool,address,uint256,address,uint256,address,uint64,uint64,uint256),(uint8,bytes32,bytes32))",
      "arguments": [
        "(0, 0x646dC5Fc4009C4C84a424B6aE0f494b374bAE1Ce)",
        "(0, false, 0x38D4dE42C9c5640A2799B372D27B01957E0a3673, 3, 0xC02aaA39b223FE8D0A0e5C4F27eAD9083C756Cc2, 15000000000000000, 0x4b75AeC40561C03e03d4D1C421dF194a3031A134, 1772584978, 1779480660, 0)",
        "(28, 0xd10eee924a588cb69b25d82449ac06982a3713078e498a5236a4bb2e84b1cbd3, 0x33fa50a115b1d6a23d59c14accf82e85651fee6403ecd96582f36bbe9c968cc3)"
      ],
      "transaction": {
        "from": "0x646dc5fc4009c4c84a424b6ae0f494b374bae1ce",
        "to": "0x73973d222c3fda5b2563d269da9e19cb125000f4",
        "gas": "0x2c4c7",
        "value": "0x0",
        "input": "0x3bae3e790000000000000000000000000000000000000000000000000000000000000000000000000000000000000000646dc5fc4009c4c84a424b6ae0f494b374bae1ce0000000000000000000000000000000000000000000000000000000000000000000000000000000000000000000000000000000000000000000000000000000000000000000000000000000038d4de42c9c5640a2799b372d27b01957e0a36730000000000000000000000000000000000000000000000000000000000000003000000000000000000000000c02aaa39b223fe8d0a0e5c4f27ead9083c756cc200000000000000000000000000000000000000000000000000354a6ba7a180000000000000000000000000004b75aec40561c03e03d4d1c421df194a3031a1340000000000000000000000000000000000000000000000000000000069a78012000000000000000000000000000000000000000000000000000000006a10b8540000000000000000000000000000000000000000000000000000000000000000000000000000000000000000000000000000000000000000000000000000001cd10eee924a588cb69b25d82449ac06982a3713078e498a5236a4bb2e84b1cbd333fa50a115b1d6a23d59c14accf82e85651fee6403ecd96582f36bbe9c968cc3",
        "nonce": "0x8d",
        "chainId": "0x7a69"
      },
      "additionalContracts": [],
      "isFixedGasLimit": false
    }
  ],
  "receipts": [
    {
      "status": "0x1",
      "cumulativeGasUsed": "0x20125",
      "logs": [
        {
          "address": "0xc02aaa39b223fe8d0a0e5c4f27ead9083c756cc2",
          "topics": [
            "0xddf252ad1be2c89b69c2b068fc378daa952ba7f163c4a11628f55a4df523b3ef",
            "0x000000000000000000000000646dc5fc4009c4c84a424b6ae0f494b374bae1ce",
            "0x0000000000000000000000001804c8ab1f12e6bbf3894d4083f33e07309d1f38"
          ],
          "data": "0x0000000000000000000000000000000000000000000000000000886c98b76000",
          "blockHash": "0xf84cd7ec8c8a22237ebe4df5b9ea77657ec20f9eacfdbf93ef5d8d7bf6efac5c",
          "blockNumber": "0x17b739c",
          "blockTimestamp": "0x69e01729",
          "transactionHash": "0x8f01822d8f0c7718e6ca4662e72e5527f97d0ee9f258126587600265abc17bf4",
          "transactionIndex": "0x0",
          "logIndex": "0x0",
          "removed": false
        },
        {
          "address": "0xc02aaa39b223fe8d0a0e5c4f27ead9083c756cc2",
          "topics": [
            "0xddf252ad1be2c89b69c2b068fc378daa952ba7f163c4a11628f55a4df523b3ef",
            "0x000000000000000000000000646dc5fc4009c4c84a424b6ae0f494b374bae1ce",
            "0x0000000000000000000000004b75aec40561c03e03d4d1c421df194a3031a134"
          ],
          "data": "0x0000000000000000000000000000000000000000000000000034c1ff0eea2000",
          "blockHash": "0xf84cd7ec8c8a22237ebe4df5b9ea77657ec20f9eacfdbf93ef5d8d7bf6efac5c",
          "blockNumber": "0x17b739c",
          "blockTimestamp": "0x69e01729",
          "transactionHash": "0x8f01822d8f0c7718e6ca4662e72e5527f97d0ee9f258126587600265abc17bf4",
          "transactionIndex": "0x0",
          "logIndex": "0x1",
          "removed": false
        },
        {
          "address": "0x38d4de42c9c5640a2799b372d27b01957e0a3673",
          "topics": [
            "0xddf252ad1be2c89b69c2b068fc378daa952ba7f163c4a11628f55a4df523b3ef",
            "0x0000000000000000000000004b75aec40561c03e03d4d1c421df194a3031a134",
            "0x000000000000000000000000646dc5fc4009c4c84a424b6ae0f494b374bae1ce",
            "0x0000000000000000000000000000000000000000000000000000000000000003"
          ],
          "data": "0x",
          "blockHash": "0xf84cd7ec8c8a22237ebe4df5b9ea77657ec20f9eacfdbf93ef5d8d7bf6efac5c",
          "blockNumber": "0x17b739c",
          "blockTimestamp": "0x69e01729",
          "transactionHash": "0x8f01822d8f0c7718e6ca4662e72e5527f97d0ee9f258126587600265abc17bf4",
          "transactionIndex": "0x0",
          "logIndex": "0x2",
          "removed": false
        },
        {
          "address": "0x73973d222c3fda5b2563d269da9e19cb125000f4",
          "topics": [
            "0xc0ac3eb1e8caef05b202043f34de8e3173fab712167584f7a2a9f4c302bd0e9c",
            "0x9ee6e16cf0d49ff67e1832672ca35c5746b6d416d02b3be27e68264c2fc700c4",
            "0x00000000000000000000000038d4de42c9c5640a2799b372d27b01957e0a3673",
            "0x0000000000000000000000000000000000000000000000000000000000000003"
          ],
          "data": "0x0000000000000000000000004b75aec40561c03e03d4d1c421df194a3031a134000000000000000000000000646dc5fc4009c4c84a424b6ae0f494b374bae1ce000000000000000000000000c02aaa39b223fe8d0a0e5c4f27ead9083c756cc200000000000000000000000000000000000000000000000000354a6ba7a18000",
          "blockHash": "0xf84cd7ec8c8a22237ebe4df5b9ea77657ec20f9eacfdbf93ef5d8d7bf6efac5c",
          "blockNumber": "0x17b739c",
          "blockTimestamp": "0x69e01729",
          "transactionHash": "0x8f01822d8f0c7718e6ca4662e72e5527f97d0ee9f258126587600265abc17bf4",
          "transactionIndex": "0x0",
          "logIndex": "0x3",
          "removed": false
        }
      ],
      "logsBloom": "0x000000000000000000000000000000000000000000020010000000000000000000000000000000000000000000000200020000000b0000000004100000100000000000000000001021000008000000000000000000000000000000000000000000000000000000000005000000000000000000000000000020000010000000000000000000000000000004000000000000000000000008000000000000002000000000000000000000000000000400000000000000800080420000000000400000000002000004000000000000000000000000000000000000000000000000000100200000000000000000000000001000000000000000000000000000000000",
      "type": "0x2",
      "transactionHash": "0x8f01822d8f0c7718e6ca4662e72e5527f97d0ee9f258126587600265abc17bf4",
      "transactionIndex": "0x0",
      "blockHash": "0xf84cd7ec8c8a22237ebe4df5b9ea77657ec20f9eacfdbf93ef5d8d7bf6efac5c",
      "blockNumber": "0x17b739c",
      "gasUsed": "0x20125",
      "effectiveGasPrice": "0xf4248",
      "blobGasPrice": "0x1",
      "from": "0x646dc5fc4009c4c84a424b6ae0f494b374bae1ce",
      "to": "0x73973d222c3fda5b2563d269da9e19cb125000f4",
      "contractAddress": null
    }
  ],
  "libraries": [],
  "pending": [],
  "returns": {},
  "timestamp": 1778453702006,
  "chain": 31337,
  "commit": "f87d399"
}