{
  "transactions": [
    {
      "hash": "0xa297aa692cab944affd58075196501c6688f1e5b119b14c39ee028b49fbb46e2",
      "transactionType": "CALL",
      "contractName": null,
      "contractAddress": "0x73973d222c3fda5b2563d269da9e19cb125000f4",
      "function": "settle((uint256,address),(uint8,bool,address,uint256,address,uint256,address,uint64,uint64,uint256),(uint8,bytes32,bytes32))",
      "arguments": [
        "(0, 0xc5aDfC119364CFE2297e4414dB04834d8702475B)",
        "(0, false, 0x38D4dE42C9c5640A2799B372D27B01957E0a3673, 337, 0xC02aaA39b223FE8D0A0e5C4F27eAD9083C756Cc2, 16000000000000000, 0x646dC5Fc4009C4C84a424B6aE0f494b374bAE1Ce, 1772780928, 1779284710, 2)",
        "(27, 0x41180bec859b725a7bc9e22d8f84919b83669ed4f1b15627b783c5e64652334c, 0x08a8a9be5f05be8d6fa150b795fe549f7e08f1daad96ff6d8d95ed9ed990f027)"
      ],
      "transaction": {
        "from": "0xc5adfc119364cfe2297e4414db04834d8702475b",
        "to": "0x73973d222c3fda5b2563d269da9e19cb125000f4",
        "gas": "0x2c4bb",
        "value": "0x0",
        "input": "0x3bae3e790000000000000000000000000000000000000000000000000000000000000000000000000000000000000000c5adfc119364cfe2297e4414db04834d8702475b0000000000000000000000000000000000000000000000000000000000000000000000000000000000000000000000000000000000000000000000000000000000000000000000000000000038d4de42c9c5640a2799b372d27b01957e0a36730000000000000000000000000000000000000000000000000000000000000151000000000000000000000000c02aaa39b223fe8d0a0e5c4f27ead9083c756cc20000000000000000000000000000000000000000000000000038d7ea4c680000000000000000000000000000646dc5fc4009c4c84a424b6ae0f494b374bae1ce0000000000000000000000000000000000000000000000000000000069aa7d80000000000000000000000000000000000000000000000000000000006a0dbae60000000000000000000000000000000000000000000000000000000000000002000000000000000000000000000000000000000000000000000000000000001b41180bec859b725a7bc9e22d8f84919b83669ed4f1b15627b783c5e64652334c08a8a9be5f05be8d6fa150b795fe549f7e08f1daad96ff6d8d95ed9ed990f027",
        "nonce": "0x64",
        "chainId": "0x7a69"
      },
      "additionalContracts": [],
      "isFixedGasLimit": false
    }
  ],
  "receipts": [
    {
      "status": "0x1",
      "cumulativeGasUsed": "0x2011d",
      "logs": [
        {
          "address": "0xc02aaa39b223fe8d0a0e5c4f27ead9083c756cc2",
          "topics": [
            "0xddf252ad1be2c89b69c2b068fc378daa952ba7f163c4a11628f55a4df523b3ef",
            "0x000000000000000000000000c5adfc119364cfe2297e4414db04834d8702475b",
            "0x0000000000000000000000001804c8ab1f12e6bbf3894d4083f33e07309d1f38"
          ],
          "data": "0x00000000000000000000000000000000000000000000000000009184e72a0000",
          "blockHash": "0x0bc50a0c712a75004ee6cec2a1369c4718c00e092f963b21b4cc637b9e5430d5",
          "blockNumber": "0x17b7399",
          "blockTimestamp": "0x69df8684",
          "transactionHash": "0xa297aa692cab944affd58075196501c6688f1e5b119b14c39ee028b49fbb46e2",
          "transactionIndex": "0x0",
          "logIndex": "0x0",
          "removed": false
        },
        {
          "address": "0xc02aaa39b223fe8d0a0e5c4f27ead9083c756cc2",
          "topics": [
            "0xddf252ad1be2c89b69c2b068fc378daa952ba7f163c4a11628f55a4df523b3ef",
            "0x000000000000000000000000c5adfc119364cfe2297e4414db04834d8702475b",
            "0x000000000000000000000000646dc5fc4009c4c84a424b6ae0f494b374bae1ce"
          ],
          "data": "0x00000000000000000000000000000000000000000000000000384665653e0000",
          "blockHash": "0x0bc50a0c712a75004ee6cec2a1369c4718c00e092f963b21b4cc637b9e5430d5",
          "blockNumber": "0x17b7399",
          "blockTimestamp": "0x69df8684",
          "transactionHash": "0xa297aa692cab944affd58075196501c6688f1e5b119b14c39ee028b49fbb46e2",
          "transactionIndex": "0x0",
          "logIndex": "0x1",
          "removed": false
        },
        {
          "address": "0x38d4de42c9c5640a2799b372d27b01957e0a3673",
          "topics": [
            "0xddf252ad1be2c89b69c2b068fc378daa952ba7f163c4a11628f55a4df523b3ef",
            "0x000000000000000000000000646dc5fc4009c4c84a424b6ae0f494b374bae1ce",
            "0x000000000000000000000000c5adfc119364cfe2297e4414db04834d8702475b",
            "0x0000000000000000000000000000000000000000000000000000000000000151"
          ],
          "data": "0x",
          "blockHash": "0x0bc50a0c712a75004ee6cec2a1369c4718c00e092f963b21b4cc637b9e5430d5",
          "blockNumber": "0x17b7399",
          "blockTimestamp": "0x69df8684",
          "transactionHash": "0xa297aa692cab944affd58075196501c6688f1e5b119b14c39ee028b49fbb46e2",
          "transactionIndex": "0x0",
          "logIndex": "0x2",
          "removed": false
        },
        {
          "address": "0x73973d222c3fda5b2563d269da9e19cb125000f4",
          "topics": [
            "0xc0ac3eb1e8caef05b202043f34de8e3173fab712167584f7a2a9f4c302bd0e9c",
            "0x17bc012bb092494d5521a7f49c884d2bab20113a719dd2f9de2aeeaa1c6d2ce8",
            "0x00000000000000000000000038d4de42c9c5640a2799b372d27b01957e0a3673",
            "0x0000000000000000000000000000000000000000000000000000000000000151"
          ],
          "data": "0x000000000000000000000000646dc5fc4009c4c84a424b6ae0f494b374bae1ce000000000000000000000000c5adfc119364cfe2297e4414db04834d8702475b000000000000000000000000c02aaa39b223fe8d0a0e5c4f27ead9083c756cc20000000000000000000000000000000000000000000000000038d7ea4c680000",
          "blockHash": "0x0bc50a0c712a75004ee6cec2a1369c4718c00e092f963b21b4cc637b9e5430d5",
          "blockNumber": "0x17b7399",
          "blockTimestamp": "0x69df8684",
          "transactionHash": "0xa297aa692cab944affd58075196501c6688f1e5b119b14c39ee028b49fbb46e2",
          "transactionIndex": "0x0",
          "logIndex": "0x3",
          "removed": false
        }
      ],
      "logsBloom": "0x00000000000000000000000000000000000000000002000040000000000000000040000000000000000000000000020002000000090000000004100000100000000002000000001021000008000000000000000000000000000000000000000200000000000000000005000000000000000000000000000000000010000000000000000000000000000004000000000000000000000048000000000000000000000000000000000000000000000220000000000000000080400000000000000000000002000004008000000000000000000000000000000000000000000000000100200000000000000000000000000000000000000000002000000000000000",
      "type": "0x2",
      "transactionHash": "0xa297aa692cab944affd58075196501c6688f1e5b119b14c39ee028b49fbb46e2",
      "transactionIndex": "0x0",
      "blockHash": "0x0bc50a0c712a75004ee6cec2a1369c4718c00e092f963b21b4cc637b9e5430d5",
      "blockNumber": "0x17b7399",
      "gasUsed": "0x2011d",
      "effectiveGasPrice": "0xf4248",
      "blobGasPrice": "0x1",
      "from": "0xc5adfc119364cfe2297e4414db04834d8702475b",
      "to": "0x73973d222c3fda5b2563d269da9e19cb125000f4",
      "contractAddress": null
    }
  ],
  "libraries": [],
  "pending": [],
  "returns": {},
  "timestamp": 1778453699226,
  "chain": 31337,
  "commit": "f87d399"
}