{
  "transactions": [
    {
      "hash": "0x9282b0a3f34161fc459856b3eff5d04a8b8114cce5309daa9986808bd53e2b60",
      "transactionType": "CALL",
      "contractName": null,
      "contractAddress": "0x73973d222c3fda5b2563d269da9e19cb125000f4",
      "function": "settle((uint256,address),(uint8,bool,address,uint256,address,uint256,address,uint64,uint64,uint256),(uint8,bytes32,bytes32))",
      "arguments": [
        "(0, 0x1302F142Fc55B165647d3Bd5dec227f569A2A907)",
        "(0, false, 0x38D4dE42C9c5640A2799B372D27B01957E0a3673, 302, 0xC02aaA39b223FE8D0A0e5C4F27eAD9083C756Cc2, 8000000000000000, 0x646dC5Fc4009C4C84a424B6aE0f494b374bAE1Ce, 1771836265, 1780229373, 1)",
        "(27, 0x71bcb0a10b2bca729e8f298e7713f922cf57ebffd6b0b68a490fd85276785f92, 0x2202637b4f827edf1e0bb343520895b423a89d83fd56c235ccb0eefc26be8216)"
      ],
      "transaction": {
        "from": "0x1302f142fc55b165647d3bd5dec227f569a2a907",
        "to": "0x73973d222c3fda5b2563d269da9e19cb125000f4",
        "gas": "0x2c4bb",
        "value": "0x0",
        "input": "0x3bae3e7900000000000000000000000000000000000000000000000000000000000000000000000000000000000000001302f142fc55b165647d3bd5dec227f569a2a9070000000000000000000000000000000000000000000000000000000000000000000000000000000000000000000000000000000000000000000000000000000000000000000000000000000038d4de42c9c5640a2799b372d27b01957e0a3673000000000000000000000000000000000000000000000000000000000000012e000000000000000000000000c02aaa39b223fe8d0a0e5c4f27ead9083c756cc2000000000000000000000000000000000000000000000000001c6bf526340000000000000000000000000000646dc5fc4009c4c84a424b6ae0f494b374bae1ce00000000000000000000000000000000000000000000000000000000699c1369000000000000000000000000000000000000000000000000000000006a1c24fd0000000000000000000000000000000000000000000000000000000000000001000000000000000000000000000000000000000000000000000000000000001b71bcb0a10b2bca729e8f298e7713f922cf57ebffd6b0b68a490fd85276785f922202637b4f827edf1e0bb343520895b423a89d83fd56c235ccb0eefc26be8216",
        "nonce": "0x6e",
        "chainId": "0x7a69"
      },
      "additionalContracts": [],
      "isFixedGasLimit": false
    }
  ],
  "receipts": [
    {
      "status": "0x1",
      "cumulativeGasUsed": "0x2011d",
      "logs": [
        {
          "address": "0xc02aaa39b223fe8d0a0e5c4f27ead9083c756cc2",
          "topics": [
            "0xddf252ad1be2c89b69c2b068fc378daa952ba7f163c4a11628f55a4df523b3ef",
            "0x0000000000000000000000001302f142fc55b165647d3bd5dec227f569a2a907",
            "0x0000000000000000000000001804c8ab1f12e6bbf3894d4083f33e07309d1f38"
          ],
          "data": "0x000000000000000000000000000000000000000000000000000048c273950000",
          "blockHash": "0x8265e07d9cceb5ef6c1c71ed1dea4e6f6dbe7a63583e1cd493019062b06081aa",
          "blockNumber": "0x17b73ad",
          "blockTimestamp": "0x69e34ace",
          "transactionHash": "0x9282b0a3f34161fc459856b3eff5d04a8b8114cce5309daa9986808bd53e2b60",
          "transactionIndex": "0x0",
          "logIndex": "0x0",
          "removed": false
        },
        {
          "address": "0xc02aaa39b223fe8d0a0e5c4f27ead9083c756cc2",
          "topics": [
            "0xddf252ad1be2c89b69c2b068fc378daa952ba7f163c4a11628f55a4df523b3ef",
            "0x0000000000000000000000001302f142fc55b165647d3bd5dec227f569a2a907",
            "0x000000000000000000000000646dc5fc4009c4c84a424b6ae0f494b374bae1ce"
          ],
          "data": "0x000000000000000000000000000000000000000000000000001c2332b29f0000",
          "blockHash": "0x8265e07d9cceb5ef6c1c71ed1dea4e6f6dbe7a63583e1cd493019062b06081aa",
          "blockNumber": "0x17b73ad",
          "blockTimestamp": "0x69e34ace",
          "transactionHash": "0x9282b0a3f34161fc459856b3eff5d04a8b8114cce5309daa9986808bd53e2b60",
          "transactionIndex": "0x0",
          "logIndex": "0x1",
          "removed": false
        },
        {
          "address": "0x38d4de42c9c5640a2799b372d27b01957e0a3673",
          "topics": [
            "0xddf252ad1be2c89b69c2b068fc378daa952ba7f163c4a11628f55a4df523b3ef",
            "0x000000000000000000000000646dc5fc4009c4c84a424b6ae0f494b374bae1ce",
            "0x0000000000000000000000001302f142fc55b165647d3bd5dec227f569a2a907",
            "0x000000000000000000000000000000000000000000000000000000000000012e"
          ],
          "data": "0x",
          "blockHash": "0x8265e07d9cceb5ef6c1c71ed1dea4e6f6dbe7a63583e1cd493019062b06081aa",
          "blockNumber": "0x17b73ad",
          "blockTimestamp": "0x69e34ace",
          "transactionHash": "0x9282b0a3f34161fc459856b3eff5d04a8b8114cce5309daa9986808bd53e2b60",
          "transactionIndex": "0x0",
          "logIndex": "0x2",
          "removed": false
        },
        {
          "address": "0x73973d222c3fda5b2563d269da9e19cb125000f4",
          "topics": [
            "0xc0ac3eb1e8caef05b202043f34de8e3173fab712167584f7a2a9f4c302bd0e9c",
            "0x996c518eca426f99f55f0f90725cfcc1682f78ec3e4c0e15ba2a0cc5f148350e",
            "0x00000000000000000000000038d4de42c9c5640a2799b372d27b01957e0a3673",
            "0x000000000000000000000000000000000000000000000000000000000000012e"
          ],
          "data": "0x000000000000000000000000646dc5fc4009c4c84a424b6ae0f494b374bae1ce0000000000000000000000001302f142fc55b165647d3bd5dec227f569a2a907000000000000000000000000c02aaa39b223fe8d0a0e5c4f27ead9083c756cc2000000000000000000000000000000000000000000000000001c6bf526340000",
          "blockHash": "0x8265e07d9cceb5ef6c1c71ed1dea4e6f6dbe7a63583e1cd493019062b06081aa",
          "blockNumber": "0x17b73ad",
          "blockTimestamp": "0x69e34ace",
          "transactionHash": "0x9282b0a3f34161fc459856b3eff5d04a8b8114cce5309daa9986808bd53e2b60",
          "transactionIndex": "0x0",
          "logIndex": "0x3",
          "removed": false
        }
      ],
      "logsBloom": "0x00000000000000000000000000000000020000000002000000000000000000000000000000000000000000000000020002000000090000000004100000100000000000000000001021000408800000000008000000000000000000000000200000000000000000000005000000000000000000000000000000000010000000000000000000000000000004000000000000000000000008000000000000000000000000000000000000000000000100000000000000000080400000000000000000000002000004000000000200000000000000000000000000000000000000000100200000000000800040000000000000000000000000000000000000000000",
      "type": "0x2",
      "transactionHash": "0x9282b0a3f34161fc459856b3eff5d04a8b8114cce5309daa9986808bd53e2b60",
      "transactionIndex": "0x0",
      "blockHash": "0x8265e07d9cceb5ef6c1c71ed1dea4e6f6dbe7a63583e1cd493019062b06081aa",
      "blockNumber": "0x17b73ad",
      "gasUsed": "0x2011d",
      "effectiveGasPrice": "0xf4248",
      "blobGasPrice": "0x1",
      "from": "0x1302f142fc55b165647d3bd5dec227f569a2a907",
      "to": "0x73973d222c3fda5b2563d269da9e19cb125000f4",
      "contractAddress": null
    }
  ],
  "libraries": [],
  "pending": [],
  "returns": {},
  "timestamp": 1778453717040,
  "chain": 31337,
  "commit": "f87d399"
}