{
  "transactions": [
    {
      "hash": "0x3f840415118e54f2fcd06243adb13ad03a09c85d52bfbb9570029e4a04f7c7ec",
      "transactionType": "CALL",
      "contractName": null,
      "contractAddress": "0x8fa71914948544c60e3379064567dcf0e6564d27",
      "function": "settle((uint256,address),(uint8,bool,address,uint256,address,uint256,address,uint64,uint64,uint256),(uint8,bytes32,bytes32))",
      "arguments": [
        "(0, 0xc5aDfC119364CFE2297e4414dB04834d8702475B)",
        "(0, false, 0xA5f104F8f78d5ba9AEC4a383c0927337Fd4E997B, 413, 0xC02aaA39b223FE8D0A0e5C4F27eAD9083C756Cc2, 19000000000000000, 0xcbe5659df21Cbcfabe4da962F7a9081F26B3ed82, 1773607638, 1778566648, 5)",
        "(27, 0xfb2a65862bd73be47c1c7caf5f4d5ec4c7894b7de1e8dd1dcbafea9ba87b2111, 0x251995e8b74cd855c8ea97cb8f47c3ad8dd8bd6196ffd72c1c22cfbc3092c87f)"
      ],
      "transaction": {
        "from": "0xc5adfc119364cfe2297e4414db04834d8702475b",
        "to": "0x8fa71914948544c60e3379064567dcf0e6564d27",
        "gas": "0x2ee7f",
        "value": "0x0",
        "input": "0x3bae3e790000000000000000000000000000000000000000000000000000000000000000000000000000000000000000c5adfc119364cfe2297e4414db04834d8702475b00000000000000000000000000000000000000000000000000000000000000000000000000000000000000000000000000000000000000000000000000000000000000000000000000000000a5f104f8f78d5ba9aec4a383c0927337fd4e997b000000000000000000000000000000000000000000000000000000000000019d000000000000000000000000c02aaa39b223fe8d0a0e5c4f27ead9083c756cc2000000000000000000000000000000000000000000000000004380663abb8000000000000000000000000000cbe5659df21cbcfabe4da962f7a9081f26b3ed820000000000000000000000000000000000000000000000000000000069b71ad6000000000000000000000000000000000000000000000000000000006a02c5f80000000000000000000000000000000000000000000000000000000000000005000000000000000000000000000000000000000000000000000000000000001bfb2a65862bd73be47c1c7caf5f4d5ec4c7894b7de1e8dd1dcbafea9ba87b2111251995e8b74cd855c8ea97cb8f47c3ad8dd8bd6196ffd72c1c22cfbc3092c87f",
        "nonce": "0x36",
        "chainId": "0x7a69"
      },
      "additionalContracts": [],
      "isFixedGasLimit": false
    }
  ],
  "receipts": [
    {
      "status": "0x1",
      "cumulativeGasUsed": "0x20129",
      "logs": [
        {
          "address": "0xc02aaa39b223fe8d0a0e5c4f27ead9083c756cc2",
          "topics": [
            "0xddf252ad1be2c89b69c2b068fc378daa952ba7f163c4a11628f55a4df523b3ef",
            "0x000000000000000000000000c5adfc119364cfe2297e4414db04834d8702475b",
            "0x0000000000000000000000001804c8ab1f12e6bbf3894d4083f33e07309d1f38"
          ],
          "data": "0x0000000000000000000000000000000000000000000000000000accdd281e000",
          "blockHash": "0x4d60ae05d391363964e0f50113b5b269d8a2b0c36cf8dd5cab0c4a69aed30121",
          "blockNumber": "0x17b8337",
          "blockTimestamp": "0x69e74127",
          "transactionHash": "0x3f840415118e54f2fcd06243adb13ad03a09c85d52bfbb9570029e4a04f7c7ec",
          "transactionIndex": "0x0",
          "logIndex": "0x0",
          "removed": false
        },
        {
          "address": "0xc02aaa39b223fe8d0a0e5c4f27ead9083c756cc2",
          "topics": [
            "0xddf252ad1be2c89b69c2b068fc378daa952ba7f163c4a11628f55a4df523b3ef",
            "0x000000000000000000000000c5adfc119364cfe2297e4414db04834d8702475b",
            "0x000000000000000000000000cbe5659df21cbcfabe4da962f7a9081f26b3ed82"
          ],
          "data": "0x0000000000000000000000000000000000000000000000000042d3986839a000",
          "blockHash": "0x4d60ae05d391363964e0f50113b5b269d8a2b0c36cf8dd5cab0c4a69aed30121",
          "blockNumber": "0x17b8337",
          "blockTimestamp": "0x69e74127",
          "transactionHash": "0x3f840415118e54f2fcd06243adb13ad03a09c85d52bfbb9570029e4a04f7c7ec",
          "transactionIndex": "0x0",
          "logIndex": "0x1",
          "removed": false
        },
        {
          "address": "0xa5f104f8f78d5ba9aec4a383c0927337fd4e997b",
          "topics": [
            "0xddf252ad1be2c89b69c2b068fc378daa952ba7f163c4a11628f55a4df523b3ef",
            "0x000000000000000000000000cbe5659df21cbcfabe4da962f7a9081f26b3ed82",
            "0x000000000000000000000000c5adfc119364cfe2297e4414db04834d8702475b",
            "0x000000000000000000000000000000000000000000000000000000000000019d"
          ],
          "data": "0x",
          "blockHash": "0x4d60ae05d391363964e0f50113b5b269d8a2b0c36cf8dd5cab0c4a69aed30121",
          "blockNumber": "0x17b8337",
          "blockTimestamp": "0x69e74127",
          "transactionHash": "0x3f840415118e54f2fcd06243adb13ad03a09c85d52bfbb9570029e4a04f7c7ec",
          "transactionIndex": "0x0",
          "logIndex": "0x2",
          "removed": false
        },
        {
          "address": "0x8fa71914948544c60e3379064567dcf0e6564d27",
          "topics": [
            "0xc0ac3eb1e8caef05b202043f34de8e3173fab712167584f7a2a9f4c302bd0e9c",
            "0x359aeb3f290255a054fc3575adc80672a4c4d9e999e2eb737a52e4bfd056ea01",
            "0x000000000000000000000000a5f104f8f78d5ba9aec4a383c0927337fd4e997b",
            "0x000000000000000000000000000000000000000000000000000000000000019d"
          ],
          "data": "0x000000000000000000000000cbe5659df21cbcfabe4da962f7a9081f26b3ed82000000000000000000000000c5adfc119364cfe2297e4414db04834d8702475b000000000000000000000000c02aaa39b223fe8d0a0e5c4f27ead9083c756cc2000000000000000000000000000000000000000000000000004380663abb8000",
          "blockHash": "0x4d60ae05d391363964e0f50113b5b269d8a2b0c36cf8dd5cab0c4a69aed30121",
          "blockNumber": "0x17b8337",
          "blockTimestamp": "0x69e74127",
          "transactionHash": "0x3f840415118e54f2fcd06243adb13ad03a09c85d52bfbb9570029e4a04f7c7ec",
          "transactionIndex": "0x0",
          "logIndex": "0x3",
          "removed": false
        }
      ],
      "logsBloom": "0x00000000000000000000010000000000000000000000000000000000000000000000000000000000000000000000000002000000080000000000100800100000000000000000000000010008000000000000000000000000080000000000000200000000000000000001000000000000000000000000000000000010200000000800000000040000010004000000000000000000400000000000000000000000000000200000000400000000000020000000000000000080000000000000000000000002000004000400000000000100000000000000020080000000000000000100200000000000000000000000000000000000004000002000000000000000",
      "type": "0x2",
      "transactionHash": "0x3f840415118e54f2fcd06243adb13ad03a09c85d52bfbb9570029e4a04f7c7ec",
      "transactionIndex": "0x0",
      "blockHash": "0x4d60ae05d391363964e0f50113b5b269d8a2b0c36cf8dd5cab0c4a69aed30121",
      "blockNumber": "0x17b8337",
      "gasUsed": "0x20129",
      "effectiveGasPrice": "0x1ba81c",
      "blobGasPrice": "0x1",
      "from": "0xc5adfc119364cfe2297e4414db04834d8702475b",
      "to": "0x8fa71914948544c60e3379064567dcf0e6564d27",
      "contractAddress": null
    }
  ],
  "libraries": [],
  "pending": [],
  "returns": {},
  "timestamp": 1778506434994,
  "chain": 31337,
  "commit": "59e30a9"
}