{
  "transactions": [
    {
      "hash": "0x09bd270959a8e0240aa8e9e2c995850d9ea0e37dc87a61dc5f6b467d5fce617e",
      "transactionType": "CALL",
      "contractName": null,
      "contractAddress": "0x73973d222c3fda5b2563d269da9e19cb125000f4",
      "function": "settle((uint256,address),(uint8,bool,address,uint256,address,uint256,address,uint64,uint64,uint256),(uint8,bytes32,bytes32))",
      "arguments": [
        "(118, 0x2c2dbA75492E0C4A1D10B41303167aEC59586C9c)",
        "(1, false, 0x38D4dE42C9c5640A2799B372D27B01957E0a3673, 118, 0xC02aaA39b223FE8D0A0e5C4F27eAD9083C756Cc2, 40000000000000000, 0xe3745C151faB59B0740f4312b2B027F07D096639, 1772509072, 1779556566, 10)",
        "(28, 0x0c3d8d1c012039547854ed6dc51b8c34327489bc161a77413a3e20a7652c5a38, 0x5c1005020304fa0695cd92823be148dece79641bdc00e5e37ff83e043579d06e)"
      ],
      "transaction": {
        "from": "0x2c2dba75492e0c4a1d10b41303167aec59586c9c",
        "to": "0x73973d222c3fda5b2563d269da9e19cb125000f4",
        "gas": "0x2c5bb",
        "value": "0x0",
        "input": "0x3bae3e7900000000000000000000000000000000000000000000000000000000000000760000000000000000000000002c2dba75492e0c4a1d10b41303167aec59586c9c0000000000000000000000000000000000000000000000000000000000000001000000000000000000000000000000000000000000000000000000000000000000000000000000000000000038d4de42c9c5640a2799b372d27b01957e0a36730000000000000000000000000000000000000000000000000000000000000076000000000000000000000000c02aaa39b223fe8d0a0e5c4f27ead9083c756cc2000000000000000000000000000000000000000000000000008e1bc9bf040000000000000000000000000000e3745c151fab59b0740f4312b2b027f07d0966390000000000000000000000000000000000000000000000000000000069a65790000000000000000000000000000000000000000000000000000000006a11e0d6000000000000000000000000000000000000000000000000000000000000000a000000000000000000000000000000000000000000000000000000000000001c0c3d8d1c012039547854ed6dc51b8c34327489bc161a77413a3e20a7652c5a385c1005020304fa0695cd92823be148dece79641bdc00e5e37ff83e043579d06e",
        "nonce": "0x6d",
        "chainId": "0x7a69"
      },
      "additionalContracts": [],
      "isFixedGasLimit": false
    }
  ],
  "receipts": [
    {
      "status": "0x1",
      "cumulativeGasUsed": "0x201d6",
      "logs": [
        {
          "address": "0xc02aaa39b223fe8d0a0e5c4f27ead9083c756cc2",
          "topics": [
            "0xddf252ad1be2c89b69c2b068fc378daa952ba7f163c4a11628f55a4df523b3ef",
            "0x000000000000000000000000e3745c151fab59b0740f4312b2b027f07d096639",
            "0x0000000000000000000000001804c8ab1f12e6bbf3894d4083f33e07309d1f38"
          ],
          "data": "0x00000000000000000000000000000000000000000000000000016bcc41e90000",
          "blockHash": "0xf8aa19fc4c94e15044ded932590b3baf0011d3c8dad24e7bd856be9f7c587b29",
          "blockNumber": "0x17b73d5",
          "blockTimestamp": "0x69ea5225",
          "transactionHash": "0x09bd270959a8e0240aa8e9e2c995850d9ea0e37dc87a61dc5f6b467d5fce617e",
          "transactionIndex": "0x0",
          "logIndex": "0x0",
          "removed": false
        },
        {
          "address": "0xc02aaa39b223fe8d0a0e5c4f27ead9083c756cc2",
          "topics": [
            "0xddf252ad1be2c89b69c2b068fc378daa952ba7f163c4a11628f55a4df523b3ef",
            "0x000000000000000000000000e3745c151fab59b0740f4312b2b027f07d096639",
            "0x0000000000000000000000002c2dba75492e0c4a1d10b41303167aec59586c9c"
          ],
          "data": "0x000000000000000000000000000000000000000000000000008caffd7d1b0000",
          "blockHash": "0xf8aa19fc4c94e15044ded932590b3baf0011d3c8dad24e7bd856be9f7c587b29",
          "blockNumber": "0x17b73d5",
          "blockTimestamp": "0x69ea5225",
          "transactionHash": "0x09bd270959a8e0240aa8e9e2c995850d9ea0e37dc87a61dc5f6b467d5fce617e",
          "transactionIndex": "0x0",
          "logIndex": "0x1",
          "removed": false
        },
        {
          "address": "0x38d4de42c9c5640a2799b372d27b01957e0a3673",
          "topics": [
            "0xddf252ad1be2c89b69c2b068fc378daa952ba7f163c4a11628f55a4df523b3ef",
            "0x0000000000000000000000002c2dba75492e0c4a1d10b41303167aec59586c9c",
            "0x000000000000000000000000e3745c151fab59b0740f4312b2b027f07d096639",
            "0x0000000000000000000000000000000000000000000000000000000000000076"
          ],
          "data": "0x",
          "blockHash": "0xf8aa19fc4c94e15044ded932590b3baf0011d3c8dad24e7bd856be9f7c587b29",
          "blockNumber": "0x17b73d5",
          "blockTimestamp": "0x69ea5225",
          "transactionHash": "0x09bd270959a8e0240aa8e9e2c995850d9ea0e37dc87a61dc5f6b467d5fce617e",
          "transactionIndex": "0x0",
          "logIndex": "0x2",
          "removed": false
        },
        {
          "address": "0x73973d222c3fda5b2563d269da9e19cb125000f4",
          "topics": [
            "0xc0ac3eb1e8caef05b202043f34de8e3173fab712167584f7a2a9f4c302bd0e9c",
            "0xda366200c3dafee5f2c4d39453ac195671031ee3e1b99cbf2a02455bdfefc518",
            "0x00000000000000000000000038d4de42c9c5640a2799b372d27b01957e0a3673",
            "0x0000000000000000000000000000000000000000000000000000000000000076"
          ],
          "data": "0x0000000000000000000000002c2dba75492e0c4a1d10b41303167aec59586c9c000000000000000000000000e3745c151fab59b0740f4312b2b027f07d096639000000000000000000000000c02aaa39b223fe8d0a0e5c4f27ead9083c756cc2000000000000000000000000000000000000000000000000008e1bc9bf040000",
          "blockHash": "0xf8aa19fc4c94e15044ded932590b3baf0011d3c8dad24e7bd856be9f7c587b29",
          "blockNumber": "0x17b73d5",
          "blockTimestamp": "0x69ea5225",
          "transactionHash": "0x09bd270959a8e0240aa8e9e2c995850d9ea0e37dc87a61dc5f6b467d5fce617e",
          "transactionIndex": "0x0",
          "logIndex": "0x3",
          "removed": false
        }
      ],
      "logsBloom": "0x00000020000000000000000000000000000000000102000000000000000000200000000004000000000000000000020042000000080000000004100800100000000200000000001021000008000000000008000000000000000000100000000000000000000004000001000000000000000000000000000000000010000000000000000000000000000004000000000000000000000008000000000000000000000000000000000000000000000000000000000000000080400008000000000000000002000004000000000000000000000000000000000000000040000000000100200000000000000000000000000000000000000000000000000000000000",
      "type": "0x2",
      "transactionHash": "0x09bd270959a8e0240aa8e9e2c995850d9ea0e37dc87a61dc5f6b467d5fce617e",
      "transactionIndex": "0x0",
      "blockHash": "0xf8aa19fc4c94e15044ded932590b3baf0011d3c8dad24e7bd856be9f7c587b29",
      "blockNumber": "0x17b73d5",
      "gasUsed": "0x201d6",
      "effectiveGasPrice": "0xf4248",
      "blobGasPrice": "0x1",
      "from": "0x2c2dba75492e0c4a1d10b41303167aec59586c9c",
      "to": "0x73973d222c3fda5b2563d269da9e19cb125000f4",
      "contractAddress": null
    }
  ],
  "libraries": [],
  "pending": [],
  "returns": {},
  "timestamp": 1778453787326,
  "chain": 31337,
  "commit": "f87d399"
}