{
  "transactions": [
    {
      "hash": "0xc893989b6073b9f026d111320f7f966dbbb9dcd3cada8911049f547e5f30a887",
      "transactionType": "CALL",
      "contractName": null,
      "contractAddress": "0x73973d222c3fda5b2563d269da9e19cb125000f4",
      "function": "settle((uint256,address),(uint8,bool,address,uint256,address,uint256,address,uint64,uint64,uint256),(uint8,bytes32,bytes32))",
      "arguments": [
        "(171, 0x08312E82df563A1639b81f49bb41247759700e30)",
        "(1, false, 0x38D4dE42C9c5640A2799B372D27B01957E0a3673, 171, 0xC02aaA39b223FE8D0A0e5C4F27eAD9083C756Cc2, 23000000000000000, 0xc5aDfC119364CFE2297e4414dB04834d8702475B, 1773216565, 1778849073, 2)",
        "(27, 0xa77abb96ba754feb88a439d22f638ab2f84f084d01bb774fd8f4aff7a08c0aab, 0x247afd2887d3553b4138acaa25d70032beca80a7cee558ee9c470b4b466e481d)"
      ],
      "transaction": {
        "from": "0x08312e82df563a1639b81f49bb41247759700e30",
        "to": "0x73973d222c3fda5b2563d269da9e19cb125000f4",
        "gas": "0x2c5b0",
        "value": "0x0",
        "input": "0x3bae3e7900000000000000000000000000000000000000000000000000000000000000ab00000000000000000000000008312e82df563a1639b81f49bb41247759700e300000000000000000000000000000000000000000000000000000000000000001000000000000000000000000000000000000000000000000000000000000000000000000000000000000000038d4de42c9c5640a2799b372d27b01957e0a367300000000000000000000000000000000000000000000000000000000000000ab000000000000000000000000c02aaa39b223fe8d0a0e5c4f27ead9083c756cc20000000000000000000000000000000000000000000000000051b660cdd58000000000000000000000000000c5adfc119364cfe2297e4414db04834d8702475b0000000000000000000000000000000000000000000000000000000069b12335000000000000000000000000000000000000000000000000000000006a0715310000000000000000000000000000000000000000000000000000000000000002000000000000000000000000000000000000000000000000000000000000001ba77abb96ba754feb88a439d22f638ab2f84f084d01bb774fd8f4aff7a08c0aab247afd2887d3553b4138acaa25d70032beca80a7cee558ee9c470b4b466e481d",
        "nonce": "0x67",
        "chainId": "0x7a69"
      },
      "additionalContracts": [],
      "isFixedGasLimit": false
    }
  ],
  "receipts": [
    {
      "status": "0x1",
      "cumulativeGasUsed": "0x201ce",
      "logs": [
        {
          "address": "0xc02aaa39b223fe8d0a0e5c4f27ead9083c756cc2",
          "topics": [
            "0xddf252ad1be2c89b69c2b068fc378daa952ba7f163c4a11628f55a4df523b3ef",
            "0x000000000000000000000000c5adfc119364cfe2297e4414db04834d8702475b",
            "0x0000000000000000000000001804c8ab1f12e6bbf3894d4083f33e07309d1f38"
          ],
          "data": "0x0000000000000000000000000000000000000000000000000000d12f0c4c6000",
          "blockHash": "0xd5cb10c3879a3a29b97a14ddcb0c60ff4ca35467fabc4719dae43cc5d5916255",
          "blockNumber": "0x17b738f",
          "blockTimestamp": "0x69dda45f",
          "transactionHash": "0xc893989b6073b9f026d111320f7f966dbbb9dcd3cada8911049f547e5f30a887",
          "transactionIndex": "0x0",
          "logIndex": "0x0",
          "removed": false
        },
        {
          "address": "0xc02aaa39b223fe8d0a0e5c4f27ead9083c756cc2",
          "topics": [
            "0xddf252ad1be2c89b69c2b068fc378daa952ba7f163c4a11628f55a4df523b3ef",
            "0x000000000000000000000000c5adfc119364cfe2297e4414db04834d8702475b",
            "0x00000000000000000000000008312e82df563a1639b81f49bb41247759700e30"
          ],
          "data": "0x0000000000000000000000000000000000000000000000000050e531c1892000",
          "blockHash": "0xd5cb10c3879a3a29b97a14ddcb0c60ff4ca35467fabc4719dae43cc5d5916255",
          "blockNumber": "0x17b738f",
          "blockTimestamp": "0x69dda45f",
          "transactionHash": "0xc893989b6073b9f026d111320f7f966dbbb9dcd3cada8911049f547e5f30a887",
          "transactionIndex": "0x0",
          "logIndex": "0x1",
          "removed": false
        },
        {
          "address": "0x38d4de42c9c5640a2799b372d27b01957e0a3673",
          "topics": [
            "0xddf252ad1be2c89b69c2b068fc378daa952ba7f163c4a11628f55a4df523b3ef",
            "0x00000000000000000000000008312e82df563a1639b81f49bb41247759700e30",
            "0x000000000000000000000000c5adfc119364cfe2297e4414db04834d8702475b",
            "0x00000000000000000000000000000000000000000000000000000000000000ab"
          ],
          "data": "0x",
          "blockHash": "0xd5cb10c3879a3a29b97a14ddcb0c60ff4ca35467fabc4719dae43cc5d5916255",
          "blockNumber": "0x17b738f",
          "blockTimestamp": "0x69dda45f",
          "transactionHash": "0xc893989b6073b9f026d111320f7f966dbbb9dcd3cada8911049f547e5f30a887",
          "transactionIndex": "0x0",
          "logIndex": "0x2",
          "removed": false
        },
        {
          "address": "0x73973d222c3fda5b2563d269da9e19cb125000f4",
          "topics": [
            "0xc0ac3eb1e8caef05b202043f34de8e3173fab712167584f7a2a9f4c302bd0e9c",
            "0x351997831e4704b538fbffa89fd41d19a8f94c35baa82be909fc0750c4bd98bf",
            "0x00000000000000000000000038d4de42c9c5640a2799b372d27b01957e0a3673",
            "0x00000000000000000000000000000000000000000000000000000000000000ab"
          ],
          "data": "0x00000000000000000000000008312e82df563a1639b81f49bb41247759700e30000000000000000000000000c5adfc119364cfe2297e4414db04834d8702475b000000000000000000000000c02aaa39b223fe8d0a0e5c4f27ead9083c756cc20000000000000000000000000000000000000000000000000051b660cdd58000",
          "blockHash": "0xd5cb10c3879a3a29b97a14ddcb0c60ff4ca35467fabc4719dae43cc5d5916255",
          "blockNumber": "0x17b738f",
          "blockTimestamp": "0x69dda45f",
          "transactionHash": "0xc893989b6073b9f026d111320f7f966dbbb9dcd3cada8911049f547e5f30a887",
          "transactionIndex": "0x0",
          "logIndex": "0x3",
          "removed": false
        }
      ],
      "logsBloom": "0x00000000000000000000000001000000000000000002000000000000000000000000000000100000000000000400020002000000080000000004100000100000000000000000001021000008000000000000000000000000000000000000000280000000000000000001000000000000000020000000000000800010000000000000000000000000000004000000000000000000000008000000000000000000000000000000000000000000000020000000000100000080400000000000000000000002000004000000000000000000000000000000000000000000000020000100200000000000000000000000000000000000004000002000000000000000",
      "type": "0x2",
      "transactionHash": "0xc893989b6073b9f026d111320f7f966dbbb9dcd3cada8911049f547e5f30a887",
      "transactionIndex": "0x0",
      "blockHash": "0xd5cb10c3879a3a29b97a14ddcb0c60ff4ca35467fabc4719dae43cc5d5916255",
      "blockNumber": "0x17b738f",
      "gasUsed": "0x201ce",
      "effectiveGasPrice": "0xf4248",
      "blobGasPrice": "0x1",
      "from": "0x08312e82df563a1639b81f49bb41247759700e30",
      "to": "0x73973d222c3fda5b2563d269da9e19cb125000f4",
      "contractAddress": null
    }
  ],
  "libraries": [],
  "pending": [],
  "returns": {},
  "timestamp": 1778453690366,
  "chain": 31337,
  "commit": "f87d399"
}