{
  "transactions": [
    {
      "hash": "0xb01ed00cc5fed69282c6c20ca3fbc5b519948b1e9899e821514b190faf530fd0",
      "transactionType": "CALL",
      "contractName": null,
      "contractAddress": "0x73973d222c3fda5b2563d269da9e19cb125000f4",
      "function": "settle((uint256,address),(uint8,bool,address,uint256,address,uint256,address,uint64,uint64,uint256),(uint8,bytes32,bytes32))",
      "arguments": [
        "(467, 0x2c2dbA75492E0C4A1D10B41303167aEC59586C9c)",
        "(1, false, 0x38D4dE42C9c5640A2799B372D27B01957E0a3673, 467, 0xC02aaA39b223FE8D0A0e5C4F27eAD9083C756Cc2, 26000000000000000, 0x4b75AeC40561C03e03d4D1C421dF194a3031A134, 1773082647, 1778982991, 8)",
        "(28, 0x2d656e851933054f9711935c26141613f924f2613f73dd058807798663f81930, 0x62ffad537366ac2d3c46caddb3d81206ca869763e54d0cc8a2cd10e2d895f7db)"
      ],
      "transaction": {
        "from": "0x2c2dba75492e0c4a1d10b41303167aec59586c9c",
        "to": "0x73973d222c3fda5b2563d269da9e19cb125000f4",
        "gas": "0x2efb0",
        "value": "0x0",
        "input": "0x3bae3e7900000000000000000000000000000000000000000000000000000000000001d30000000000000000000000002c2dba75492e0c4a1d10b41303167aec59586c9c0000000000000000000000000000000000000000000000000000000000000001000000000000000000000000000000000000000000000000000000000000000000000000000000000000000038d4de42c9c5640a2799b372d27b01957e0a367300000000000000000000000000000000000000000000000000000000000001d3000000000000000000000000c02aaa39b223fe8d0a0e5c4f27ead9083c756cc2000000000000000000000000000000000000000000000000005c5edcbc2900000000000000000000000000004b75aec40561c03e03d4d1c421df194a3031a1340000000000000000000000000000000000000000000000000000000069af1817000000000000000000000000000000000000000000000000000000006a09204f0000000000000000000000000000000000000000000000000000000000000008000000000000000000000000000000000000000000000000000000000000001c2d656e851933054f9711935c26141613f924f2613f73dd058807798663f8193062ffad537366ac2d3c46caddb3d81206ca869763e54d0cc8a2cd10e2d895f7db",
        "nonce": "0x6c",
        "chainId": "0x7a69"
      },
      "additionalContracts": [],
      "isFixedGasLimit": false
    }
  ],
  "receipts": [
    {
      "status": "0x1",
      "cumulativeGasUsed": "0x201fa",
      "logs": [
        {
          "address": "0xc02aaa39b223fe8d0a0e5c4f27ead9083c756cc2",
          "topics": [
            "0xddf252ad1be2c89b69c2b068fc378daa952ba7f163c4a11628f55a4df523b3ef",
            "0x0000000000000000000000004b75aec40561c03e03d4d1c421df194a3031a134",
            "0x0000000000000000000000001804c8ab1f12e6bbf3894d4083f33e07309d1f38"
          ],
          "data": "0x0000000000000000000000000000000000000000000000000000ec77f7a44000",
          "blockHash": "0x329845dc54dd91b08e07784a44cad023ff08263405ae1d2bf88c3b2af9cc1f12",
          "blockNumber": "0x17b73c8",
          "blockTimestamp": "0x69e8195a",
          "transactionHash": "0xb01ed00cc5fed69282c6c20ca3fbc5b519948b1e9899e821514b190faf530fd0",
          "transactionIndex": "0x0",
          "logIndex": "0x0",
          "removed": false
        },
        {
          "address": "0xc02aaa39b223fe8d0a0e5c4f27ead9083c756cc2",
          "topics": [
            "0xddf252ad1be2c89b69c2b068fc378daa952ba7f163c4a11628f55a4df523b3ef",
            "0x0000000000000000000000004b75aec40561c03e03d4d1c421df194a3031a134",
            "0x0000000000000000000000002c2dba75492e0c4a1d10b41303167aec59586c9c"
          ],
          "data": "0x000000000000000000000000000000000000000000000000005b7264c484c000",
          "blockHash": "0x329845dc54dd91b08e07784a44cad023ff08263405ae1d2bf88c3b2af9cc1f12",
          "blockNumber": "0x17b73c8",
          "blockTimestamp": "0x69e8195a",
          "transactionHash": "0xb01ed00cc5fed69282c6c20ca3fbc5b519948b1e9899e821514b190faf530fd0",
          "transactionIndex": "0x0",
          "logIndex": "0x1",
          "removed": false
        },
        {
          "address": "0x38d4de42c9c5640a2799b372d27b01957e0a3673",
          "topics": [
            "0xddf252ad1be2c89b69c2b068fc378daa952ba7f163c4a11628f55a4df523b3ef",
            "0x0000000000000000000000002c2dba75492e0c4a1d10b41303167aec59586c9c",
            "0x0000000000000000000000004b75aec40561c03e03d4d1c421df194a3031a134",
            "0x00000000000000000000000000000000000000000000000000000000000001d3"
          ],
          "data": "0x",
          "blockHash": "0x329845dc54dd91b08e07784a44cad023ff08263405ae1d2bf88c3b2af9cc1f12",
          "blockNumber": "0x17b73c8",
          "blockTimestamp": "0x69e8195a",
          "transactionHash": "0xb01ed00cc5fed69282c6c20ca3fbc5b519948b1e9899e821514b190faf530fd0",
          "transactionIndex": "0x0",
          "logIndex": "0x2",
          "removed": false
        },
        {
          "address": "0x73973d222c3fda5b2563d269da9e19cb125000f4",
          "topics": [
            "0xc0ac3eb1e8caef05b202043f34de8e3173fab712167584f7a2a9f4c302bd0e9c",
            "0xf3bfe874babb7ff6679bb8ab890b771bdc3f13e9f5aba8922e2696c351c3be7e",
            "0x00000000000000000000000038d4de42c9c5640a2799b372d27b01957e0a3673",
            "0x00000000000000000000000000000000000000000000000000000000000001d3"
          ],
          "data": "0x0000000000000000000000002c2dba75492e0c4a1d10b41303167aec59586c9c0000000000000000000000004b75aec40561c03e03d4d1c421df194a3031a134000000000000000000000000c02aaa39b223fe8d0a0e5c4f27ead9083c756cc2000000000000000000000000000000000000000000000000005c5edcbc290000",
          "blockHash": "0x329845dc54dd91b08e07784a44cad023ff08263405ae1d2bf88c3b2af9cc1f12",
          "blockNumber": "0x17b73c8",
          "blockTimestamp": "0x69e8195a",
          "transactionHash": "0xb01ed00cc5fed69282c6c20ca3fbc5b519948b1e9899e821514b190faf530fd0",
          "transactionIndex": "0x0",
          "logIndex": "0x3",
          "removed": false
        }
      ],
      "logsBloom": "0x00000000000000000000000000000000000001000002020000000000000000000000000000000000000000000000020022000000080000000004100800100000000200000000001021000008000000000000000000000000000000000000000000000000000004000001000000000000000000000000000000000010000000000000000000000000000004000000000000000000000008000200000000002000000000000000000000000000000400000000000000002080420000000000000000000002000004000000000000000000000000000100000000000000000000000100200000000000000000000000000000000000000000000000000000000000",
      "type": "0x2",
      "transactionHash": "0xb01ed00cc5fed69282c6c20ca3fbc5b519948b1e9899e821514b190faf530fd0",
      "transactionIndex": "0x0",
      "blockHash": "0x329845dc54dd91b08e07784a44cad023ff08263405ae1d2bf88c3b2af9cc1f12",
      "blockNumber": "0x17b73c8",
      "gasUsed": "0x201fa",
      "effectiveGasPrice": "0xf4248",
      "blobGasPrice": "0x1",
      "from": "0x2c2dba75492e0c4a1d10b41303167aec59586c9c",
      "to": "0x73973d222c3fda5b2563d269da9e19cb125000f4",
      "contractAddress": null
    }
  ],
  "libraries": [],
  "pending": [],
  "returns": {},
  "timestamp": 1778453776135,
  "chain": 31337,
  "commit": "f87d399"
}