{
  "transactions": [
    {
      "hash": "0x350ceae956fe40db63253e3096699cdde8f200eed6e26b8baf9b05cba8c6496e",
      "transactionType": "CALL",
      "contractName": null,
      "contractAddress": "0x8fa71914948544c60e3379064567dcf0e6564d27",
      "function": "settle((uint256,address),(uint8,bool,address,uint256,address,uint256,address,uint64,uint64,uint256),(uint8,bytes32,bytes32))",
      "arguments": [
        "(131, 0xc5aDfC119364CFE2297e4414dB04834d8702475B)",
        "(1, false, 0xA5f104F8f78d5ba9AEC4a383c0927337Fd4E997B, 131, 0xC02aaA39b223FE8D0A0e5C4F27eAD9083C756Cc2, 12000000000000000, 0x1302F142Fc55B165647d3Bd5dec227f569A2A907, 1773070901, 1779103385, 8)",
        "(28, 0x393df7a250e47baa2c0fcefd399c536c41a51f5866ce9cf92ddcbe8cdb8a88cc, 0x69119552f8436888bd68acea74d6876c86ca1350f04a1fb767ea825955ed7e9a)"
      ],
      "transaction": {
        "from": "0xc5adfc119364cfe2297e4414db04834d8702475b",
        "to": "0x8fa71914948544c60e3379064567dcf0e6564d27",
        "gas": "0x2ef8d",
        "value": "0x0",
        "input": "0x3bae3e790000000000000000000000000000000000000000000000000000000000000083000000000000000000000000c5adfc119364cfe2297e4414db04834d8702475b00000000000000000000000000000000000000000000000000000000000000010000000000000000000000000000000000000000000000000000000000000000000000000000000000000000a5f104f8f78d5ba9aec4a383c0927337fd4e997b0000000000000000000000000000000000000000000000000000000000000083000000000000000000000000c02aaa39b223fe8d0a0e5c4f27ead9083c756cc2000000000000000000000000000000000000000000000000002aa1efb94e00000000000000000000000000001302f142fc55b165647d3bd5dec227f569a2a9070000000000000000000000000000000000000000000000000000000069aeea35000000000000000000000000000000000000000000000000000000006a0af6990000000000000000000000000000000000000000000000000000000000000008000000000000000000000000000000000000000000000000000000000000001c393df7a250e47baa2c0fcefd399c536c41a51f5866ce9cf92ddcbe8cdb8a88cc69119552f8436888bd68acea74d6876c86ca1350f04a1fb767ea825955ed7e9a",
        "nonce": "0x3c",
        "chainId": "0x7a69"
      },
      "additionalContracts": [],
      "isFixedGasLimit": false
    }
  ],
  "receipts": [
    {
      "status": "0x1",
      "cumulativeGasUsed": "0x201e2",
      "logs": [
        {
          "address": "0xc02aaa39b223fe8d0a0e5c4f27ead9083c756cc2",
          "topics": [
            "0xddf252ad1be2c89b69c2b068fc378daa952ba7f163c4a11628f55a4df523b3ef",
            "0x0000000000000000000000001302f142fc55b165647d3bd5dec227f569a2a907",
            "0x0000000000000000000000001804c8ab1f12e6bbf3894d4083f33e07309d1f38"
          ],
          "data": "0x00000000000000000000000000000000000000000000000000006d23ad5f8000",
          "blockHash": "0x382891aaf1c74da344f1d10c3d795ff2f9f726d1a5e884d39ae88f3d0d527e42",
          "blockNumber": "0x17b835d",
          "blockTimestamp": "0x69f1135f",
          "transactionHash": "0x350ceae956fe40db63253e3096699cdde8f200eed6e26b8baf9b05cba8c6496e",
          "transactionIndex": "0x0",
          "logIndex": "0x0",
          "removed": false
        },
        {
          "address": "0xc02aaa39b223fe8d0a0e5c4f27ead9083c756cc2",
          "topics": [
            "0xddf252ad1be2c89b69c2b068fc378daa952ba7f163c4a11628f55a4df523b3ef",
            "0x0000000000000000000000001302f142fc55b165647d3bd5dec227f569a2a907",
            "0x000000000000000000000000c5adfc119364cfe2297e4414db04834d8702475b"
          ],
          "data": "0x000000000000000000000000000000000000000000000000002a34cc0bee8000",
          "blockHash": "0x382891aaf1c74da344f1d10c3d795ff2f9f726d1a5e884d39ae88f3d0d527e42",
          "blockNumber": "0x17b835d",
          "blockTimestamp": "0x69f1135f",
          "transactionHash": "0x350ceae956fe40db63253e3096699cdde8f200eed6e26b8baf9b05cba8c6496e",
          "transactionIndex": "0x0",
          "logIndex": "0x1",
          "removed": false
        },
        {
          "address": "0xa5f104f8f78d5ba9aec4a383c0927337fd4e997b",
          "topics": [
            "0xddf252ad1be2c89b69c2b068fc378daa952ba7f163c4a11628f55a4df523b3ef",
            "0x000000000000000000000000c5adfc119364cfe2297e4414db04834d8702475b",
            "0x0000000000000000000000001302f142fc55b165647d3bd5dec227f569a2a907",
            "0x0000000000000000000000000000000000000000000000000000000000000083"
          ],
          "data": "0x",
          "blockHash": "0x382891aaf1c74da344f1d10c3d795ff2f9f726d1a5e884d39ae88f3d0d527e42",
          "blockNumber": "0x17b835d",
          "blockTimestamp": "0x69f1135f",
          "transactionHash": "0x350ceae956fe40db63253e3096699cdde8f200eed6e26b8baf9b05cba8c6496e",
          "transactionIndex": "0x0",
          "logIndex": "0x2",
          "removed": false
        },
        {
          "address": "0x8fa71914948544c60e3379064567dcf0e6564d27",
          "topics": [
            "0xc0ac3eb1e8caef05b202043f34de8e3173fab712167584f7a2a9f4c302bd0e9c",
            "0x8e07765ae39e51ad9e642c666cf1964773d6b13b6ffdbe2b771678dc0595f949",
            "0x000000000000000000000000a5f104f8f78d5ba9aec4a383c0927337fd4e997b",
            "0x0000000000000000000000000000000000000000000000000000000000000083"
          ],
          "data": "0x000000000000000000000000c5adfc119364cfe2297e4414db04834d8702475b0000000000000000000000001302f142fc55b165647d3bd5dec227f569a2a907000000000000000000000000c02aaa39b223fe8d0a0e5c4f27ead9083c756cc2000000000000000000000000000000000000000000000000002aa1efb94e0000",
          "blockHash": "0x382891aaf1c74da344f1d10c3d795ff2f9f726d1a5e884d39ae88f3d0d527e42",
          "blockNumber": "0x17b835d",
          "blockTimestamp": "0x69f1135f",
          "transactionHash": "0x350ceae956fe40db63253e3096699cdde8f200eed6e26b8baf9b05cba8c6496e",
          "transactionIndex": "0x0",
          "logIndex": "0x3",
          "removed": false
        }
      ],
      "logsBloom": "0x0000000000000000000001000000000000000000000000000000000000000000000000000000000000000000000000000a000000080000000000000000100000000000000000000000010008000000000000000000000000080000000000000200000000000000000001000000000000000000000000000000000010200000000800000000040000000004000080000000000000000000000000000000000000000000200000000400000000000120000000000000000080000000000000000000000002000004000000100200000000000000000000000080000400000000000100200000000000000040000000800002000000000000002000000000000000",
      "type": "0x2",
      "transactionHash": "0x350ceae956fe40db63253e3096699cdde8f200eed6e26b8baf9b05cba8c6496e",
      "transactionIndex": "0x0",
      "blockHash": "0x382891aaf1c74da344f1d10c3d795ff2f9f726d1a5e884d39ae88f3d0d527e42",
      "blockNumber": "0x17b835d",
      "gasUsed": "0x201e2",
      "effectiveGasPrice": "0x1ba81c",
      "blobGasPrice": "0x1",
      "from": "0xc5adfc119364cfe2297e4414db04834d8702475b",
      "to": "0x8fa71914948544c60e3379064567dcf0e6564d27",
      "contractAddress": null
    }
  ],
  "libraries": [],
  "pending": [],
  "returns": {},
  "timestamp": 1778506477777,
  "chain": 31337,
  "commit": "59e30a9"
}