{
  "transactions": [
    {
      "hash": "0x7c8263036e13f2d1ee0feaa211f25da5e9d681e6b3eee566058cef7687a55fbe",
      "transactionType": "CALL",
      "contractName": null,
      "contractAddress": "0x8fa71914948544c60e3379064567dcf0e6564d27",
      "function": "settle((uint256,address),(uint8,bool,address,uint256,address,uint256,address,uint64,uint64,uint256),(uint8,bytes32,bytes32))",
      "arguments": [
        "(59, 0xc5aDfC119364CFE2297e4414dB04834d8702475B)",
        "(1, false, 0xA5f104F8f78d5ba9AEC4a383c0927337Fd4E997B, 59, 0xC02aaA39b223FE8D0A0e5C4F27eAD9083C756Cc2, 15000000000000000, 0x2c2dbA75492E0C4A1D10B41303167aEC59586C9c, 1773321504, 1778852782, 12)",
        "(27, 0x543d11f4f7d6abbf0c775705623deea6bec5367a570f73ff9b318dfe253d7449, 0x46a4db5702f917f848bf6669c7ca10dbc9bf191a74964e86139d8c46069d2c6e)"
      ],
      "transaction": {
        "from": "0xc5adfc119364cfe2297e4414db04834d8702475b",
        "to": "0x8fa71914948544c60e3379064567dcf0e6564d27",
        "gas": "0x2ef81",
        "value": "0x0",
        "input": "0x3bae3e79000000000000000000000000000000000000000000000000000000000000003b000000000000000000000000c5adfc119364cfe2297e4414db04834d8702475b00000000000000000000000000000000000000000000000000000000000000010000000000000000000000000000000000000000000000000000000000000000000000000000000000000000a5f104f8f78d5ba9aec4a383c0927337fd4e997b000000000000000000000000000000000000000000000000000000000000003b000000000000000000000000c02aaa39b223fe8d0a0e5c4f27ead9083c756cc200000000000000000000000000000000000000000000000000354a6ba7a180000000000000000000000000002c2dba75492e0c4a1d10b41303167aec59586c9c0000000000000000000000000000000000000000000000000000000069b2bd20000000000000000000000000000000000000000000000000000000006a0723ae000000000000000000000000000000000000000000000000000000000000000c000000000000000000000000000000000000000000000000000000000000001b543d11f4f7d6abbf0c775705623deea6bec5367a570f73ff9b318dfe253d744946a4db5702f917f848bf6669c7ca10dbc9bf191a74964e86139d8c46069d2c6e",
        "nonce": "0x41",
        "chainId": "0x7a69"
      },
      "additionalContracts": [],
      "isFixedGasLimit": false
    }
  ],
  "receipts": [
    {
      "status": "0x1",
      "cumulativeGasUsed": "0x201da",
      "logs": [
        {
          "address": "0xc02aaa39b223fe8d0a0e5c4f27ead9083c756cc2",
          "topics": [
            "0xddf252ad1be2c89b69c2b068fc378daa952ba7f163c4a11628f55a4df523b3ef",
            "0x0000000000000000000000002c2dba75492e0c4a1d10b41303167aec59586c9c",
            "0x0000000000000000000000001804c8ab1f12e6bbf3894d4083f33e07309d1f38"
          ],
          "data": "0x0000000000000000000000000000000000000000000000000000886c98b76000",
          "blockHash": "0x60efdefb7e62e2e0d8f9d20aff5b61e817cae90ee3d50e2b85336054b7d23335",
          "blockNumber": "0x17b8386",
          "blockTimestamp": "0x69f9d746",
          "transactionHash": "0x7c8263036e13f2d1ee0feaa211f25da5e9d681e6b3eee566058cef7687a55fbe",
          "transactionIndex": "0x0",
          "logIndex": "0x0",
          "removed": false
        },
        {
          "address": "0xc02aaa39b223fe8d0a0e5c4f27ead9083c756cc2",
          "topics": [
            "0xddf252ad1be2c89b69c2b068fc378daa952ba7f163c4a11628f55a4df523b3ef",
            "0x0000000000000000000000002c2dba75492e0c4a1d10b41303167aec59586c9c",
            "0x000000000000000000000000c5adfc119364cfe2297e4414db04834d8702475b"
          ],
          "data": "0x0000000000000000000000000000000000000000000000000034c1ff0eea2000",
          "blockHash": "0x60efdefb7e62e2e0d8f9d20aff5b61e817cae90ee3d50e2b85336054b7d23335",
          "blockNumber": "0x17b8386",
          "blockTimestamp": "0x69f9d746",
          "transactionHash": "0x7c8263036e13f2d1ee0feaa211f25da5e9d681e6b3eee566058cef7687a55fbe",
          "transactionIndex": "0x0",
          "logIndex": "0x1",
          "removed": false
        },
        {
          "address": "0xa5f104f8f78d5ba9aec4a383c0927337fd4e997b",
          "topics": [
            "0xddf252ad1be2c89b69c2b068fc378daa952ba7f163c4a11628f55a4df523b3ef",
            "0x000000000000000000000000c5adfc119364cfe2297e4414db04834d8702475b",
            "0x0000000000000000000000002c2dba75492e0c4a1d10b41303167aec59586c9c",
            "0x000000000000000000000000000000000000000000000000000000000000003b"
          ],
          "data": "0x",
          "blockHash": "0x60efdefb7e62e2e0d8f9d20aff5b61e817cae90ee3d50e2b85336054b7d23335",
          "blockNumber": "0x17b8386",
          "blockTimestamp": "0x69f9d746",
          "transactionHash": "0x7c8263036e13f2d1ee0feaa211f25da5e9d681e6b3eee566058cef7687a55fbe",
          "transactionIndex": "0x0",
          "logIndex": "0x2",
          "removed": false
        },
        {
          "address": "0x8fa71914948544c60e3379064567dcf0e6564d27",
          "topics": [
            "0xc0ac3eb1e8caef05b202043f34de8e3173fab712167584f7a2a9f4c302bd0e9c",
            "0xeb9c1d3a81d353eb6bbd23b5a6732194815ca179ee64c7be42cf79adab6596d9",
            "0x000000000000000000000000a5f104f8f78d5ba9aec4a383c0927337fd4e997b",
            "0x000000000000000000000000000000000000000000000000000000000000003b"
          ],
          "data": "0x000000000000000000000000c5adfc119364cfe2297e4414db04834d8702475b0000000000000000000000002c2dba75492e0c4a1d10b41303167aec59586c9c000000000000000000000000c02aaa39b223fe8d0a0e5c4f27ead9083c756cc200000000000000000000000000000000000000000000000000354a6ba7a18000",
          "blockHash": "0x60efdefb7e62e2e0d8f9d20aff5b61e817cae90ee3d50e2b85336054b7d23335",
          "blockNumber": "0x17b8386",
          "blockTimestamp": "0x69f9d746",
          "transactionHash": "0x7c8263036e13f2d1ee0feaa211f25da5e9d681e6b3eee566058cef7687a55fbe",
          "transactionIndex": "0x0",
          "logIndex": "0x3",
          "removed": false
        }
      ],
      "logsBloom": "0x00000000200000000000010000000000000000000000000000000000000000000000000000000000000000000000000002000000080000000000000800100000000200000000000000010008000000000000000000000000080000000000000200000000100004000001000000000020000000000000000000000010200000000800000800040000000004000000000000000000000000000000000000000000000000200000000400000000000020000000000000000080000000000000000000000002000004001000000000000000000000000000000080000002000000000100200000000000000000000000000000000000000000002000000000000000",
      "type": "0x2",
      "transactionHash": "0x7c8263036e13f2d1ee0feaa211f25da5e9d681e6b3eee566058cef7687a55fbe",
      "transactionIndex": "0x0",
      "blockHash": "0x60efdefb7e62e2e0d8f9d20aff5b61e817cae90ee3d50e2b85336054b7d23335",
      "blockNumber": "0x17b8386",
      "gasUsed": "0x201da",
      "effectiveGasPrice": "0x1ba81c",
      "blobGasPrice": "0x1",
      "from": "0xc5adfc119364cfe2297e4414db04834d8702475b",
      "to": "0x8fa71914948544c60e3379064567dcf0e6564d27",
      "contractAddress": null
    }
  ],
  "libraries": [],
  "pending": [],
  "returns": {},
  "timestamp": 1778506520445,
  "chain": 31337,
  "commit": "59e30a9"
}