{
  "transactions": [
    {
      "hash": "0x2526f44083c13fcc20b4c61deda678635a55dbcf77b7c77afd2c97d5f9fa66e0",
      "transactionType": "CALL",
      "contractName": null,
      "contractAddress": "0x8fa71914948544c60e3379064567dcf0e6564d27",
      "function": "settle((uint256,address),(uint8,bool,address,uint256,address,uint256,address,uint64,uint64,uint256),(uint8,bytes32,bytes32))",
      "arguments": [
        "(177, 0xe3745C151faB59B0740f4312b2B027F07D096639)",
        "(1, false, 0xA5f104F8f78d5ba9AEC4a383c0927337Fd4E997B, 177, 0xC02aaA39b223FE8D0A0e5C4F27eAD9083C756Cc2, 30000000000000000, 0x08312E82df563A1639b81f49bb41247759700e30, 1772482092, 1779692194, 13)",
        "(28, 0x32c8bb0ce51cc146e52f4f6a5005e9e9cb79dfb13673fce283bef22ae3fcd069, 0x33b420867d52c57b76f3f29c2183ede9afd3dbe14427df74e2e74a65997c486e)"
      ],
      "transaction": {
        "from": "0xe3745c151fab59b0740f4312b2b027f07d096639",
        "to": "0x8fa71914948544c60e3379064567dcf0e6564d27",
        "gas": "0x2ef8d",
        "value": "0x0",
        "input": "0x3bae3e7900000000000000000000000000000000000000000000000000000000000000b1000000000000000000000000e3745c151fab59b0740f4312b2b027f07d09663900000000000000000000000000000000000000000000000000000000000000010000000000000000000000000000000000000000000000000000000000000000000000000000000000000000a5f104f8f78d5ba9aec4a383c0927337fd4e997b00000000000000000000000000000000000000000000000000000000000000b1000000000000000000000000c02aaa39b223fe8d0a0e5c4f27ead9083c756cc2000000000000000000000000000000000000000000000000006a94d74f43000000000000000000000000000008312e82df563a1639b81f49bb41247759700e300000000000000000000000000000000000000000000000000000000069a5ee2c000000000000000000000000000000000000000000000000000000006a13f2a2000000000000000000000000000000000000000000000000000000000000000d000000000000000000000000000000000000000000000000000000000000001c32c8bb0ce51cc146e52f4f6a5005e9e9cb79dfb13673fce283bef22ae3fcd06933b420867d52c57b76f3f29c2183ede9afd3dbe14427df74e2e74a65997c486e",
        "nonce": "0x4f",
        "chainId": "0x7a69"
      },
      "additionalContracts": [],
      "isFixedGasLimit": false
    }
  ],
  "receipts": [
    {
      "status": "0x1",
      "cumulativeGasUsed": "0x201e2",
      "logs": [
        {
          "address": "0xc02aaa39b223fe8d0a0e5c4f27ead9083c756cc2",
          "topics": [
            "0xddf252ad1be2c89b69c2b068fc378daa952ba7f163c4a11628f55a4df523b3ef",
            "0x00000000000000000000000008312e82df563a1639b81f49bb41247759700e30",
            "0x0000000000000000000000001804c8ab1f12e6bbf3894d4083f33e07309d1f38"
          ],
          "data": "0x000000000000000000000000000000000000000000000000000110d9316ec000",
          "blockHash": "0x86f0d156c1b07c48dff60c12f92ce328fef7e43613b315f0dedd9d3474e00f05",
          "blockNumber": "0x17b836b",
          "blockTimestamp": "0x69f4031a",
          "transactionHash": "0x2526f44083c13fcc20b4c61deda678635a55dbcf77b7c77afd2c97d5f9fa66e0",
          "transactionIndex": "0x0",
          "logIndex": "0x0",
          "removed": false
        },
        {
          "address": "0xc02aaa39b223fe8d0a0e5c4f27ead9083c756cc2",
          "topics": [
            "0xddf252ad1be2c89b69c2b068fc378daa952ba7f163c4a11628f55a4df523b3ef",
            "0x00000000000000000000000008312e82df563a1639b81f49bb41247759700e30",
            "0x000000000000000000000000e3745c151fab59b0740f4312b2b027f07d096639"
          ],
          "data": "0x000000000000000000000000000000000000000000000000006983fe1dd44000",
          "blockHash": "0x86f0d156c1b07c48dff60c12f92ce328fef7e43613b315f0dedd9d3474e00f05",
          "blockNumber": "0x17b836b",
          "blockTimestamp": "0x69f4031a",
          "transactionHash": "0x2526f44083c13fcc20b4c61deda678635a55dbcf77b7c77afd2c97d5f9fa66e0",
          "transactionIndex": "0x0",
          "logIndex": "0x1",
          "removed": false
        },
        {
          "address": "0xa5f104f8f78d5ba9aec4a383c0927337fd4e997b",
          "topics": [
            "0xddf252ad1be2c89b69c2b068fc378daa952ba7f163c4a11628f55a4df523b3ef",
            "0x000000000000000000000000e3745c151fab59b0740f4312b2b027f07d096639",
            "0x00000000000000000000000008312e82df563a1639b81f49bb41247759700e30",
            "0x00000000000000000000000000000000000000000000000000000000000000b1"
          ],
          "data": "0x",
          "blockHash": "0x86f0d156c1b07c48dff60c12f92ce328fef7e43613b315f0dedd9d3474e00f05",
          "blockNumber": "0x17b836b",
          "blockTimestamp": "0x69f4031a",
          "transactionHash": "0x2526f44083c13fcc20b4c61deda678635a55dbcf77b7c77afd2c97d5f9fa66e0",
          "transactionIndex": "0x0",
          "logIndex": "0x2",
          "removed": false
        },
        {
          "address": "0x8fa71914948544c60e3379064567dcf0e6564d27",
          "topics": [
            "0xc0ac3eb1e8caef05b202043f34de8e3173fab712167584f7a2a9f4c302bd0e9c",
            "0x15bf107c9ed38f7e781dc99947ca0ce736c8f5cdf8511192d57705fce06e46ec",
            "0x000000000000000000000000a5f104f8f78d5ba9aec4a383c0927337fd4e997b",
            "0x00000000000000000000000000000000000000000000000000000000000000b1"
          ],
          "data": "0x000000000000000000000000e3745c151fab59b0740f4312b2b027f07d09663900000000000000000000000008312e82df563a1639b81f49bb41247759700e30000000000000000000000000c02aaa39b223fe8d0a0e5c4f27ead9083c756cc2000000000000000000000000000000000000000000000000006a94d74f430000",
          "blockHash": "0x86f0d156c1b07c48dff60c12f92ce328fef7e43613b315f0dedd9d3474e00f05",
          "blockNumber": "0x17b836b",
          "blockTimestamp": "0x69f4031a",
          "transactionHash": "0x2526f44083c13fcc20b4c61deda678635a55dbcf77b7c77afd2c97d5f9fa66e0",
          "transactionIndex": "0x0",
          "logIndex": "0x3",
          "removed": false
        }
      ],
      "logsBloom": "0x00000000000000000000010001000000000000000100000000000000000000000000000000100000000000000000000042008000080000000000000000100000000000000000000004010008000000000000000000000000080000000000000000000000400009000001000000000000000000000000000000000010200000000800000000040000000004000000000000008000000000000000000000000000000000200000000400000000000000000000000000000080000000000000000000000002000004000000000000000000000000000000000080000040000000000100200000000000000000000000000000000000004000000000000000000000",
      "type": "0x2",
      "transactionHash": "0x2526f44083c13fcc20b4c61deda678635a55dbcf77b7c77afd2c97d5f9fa66e0",
      "transactionIndex": "0x0",
      "blockHash": "0x86f0d156c1b07c48dff60c12f92ce328fef7e43613b315f0dedd9d3474e00f05",
      "blockNumber": "0x17b836b",
      "gasUsed": "0x201e2",
      "effectiveGasPrice": "0x1ba81c",
      "blobGasPrice": "0x1",
      "from": "0xe3745c151fab59b0740f4312b2b027f07d096639",
      "to": "0x8fa71914948544c60e3379064567dcf0e6564d27",
      "contractAddress": null
    }
  ],
  "libraries": [],
  "pending": [],
  "returns": {},
  "timestamp": 1778506490981,
  "chain": 31337,
  "commit": "59e30a9"
}