{
  "transactions": [
    {
      "hash": "0xe19ec2a9897e155cefb15ad0d0b8f342fe14e954c3914fde4cdf87532fbc1fe4",
      "transactionType": "CALL",
      "contractName": null,
      "contractAddress": "0x73973d222c3fda5b2563d269da9e19cb125000f4",
      "function": "settle((uint256,address),(uint8,bool,address,uint256,address,uint256,address,uint64,uint64,uint256),(uint8,bytes32,bytes32))",
      "arguments": [
        "(104, 0xa382b0E75C192D9CDF5c084E58b750Cea7761Bd0)",
        "(1, false, 0x38D4dE42C9c5640A2799B372D27B01957E0a3673, 104, 0xC02aaA39b223FE8D0A0e5C4F27eAD9083C756Cc2, 11000000000000000, 0xc5aDfC119364CFE2297e4414dB04834d8702475B, 1772292704, 1779772934, 7)",
        "(28, 0x6dc0970eb57bad72b86c953d5b1be4155e340e199cbc1687883936db1c4b4e28, 0x1ae2655f01ca4a62f884010ed46886069e830d17adb16cb5b9bc53d632796515)"
      ],
      "transaction": {
        "from": "0xa382b0e75c192d9cdf5c084e58b750cea7761bd0",
        "to": "0x73973d222c3fda5b2563d269da9e19cb125000f4",
        "gas": "0x2c5dc",
        "value": "0x0",
        "input": "0x3bae3e790000000000000000000000000000000000000000000000000000000000000068000000000000000000000000a382b0e75c192d9cdf5c084e58b750cea7761bd00000000000000000000000000000000000000000000000000000000000000001000000000000000000000000000000000000000000000000000000000000000000000000000000000000000038d4de42c9c5640a2799b372d27b01957e0a36730000000000000000000000000000000000000000000000000000000000000068000000000000000000000000c02aaa39b223fe8d0a0e5c4f27ead9083c756cc20000000000000000000000000000000000000000000000000027147114878000000000000000000000000000c5adfc119364cfe2297e4414db04834d8702475b0000000000000000000000000000000000000000000000000000000069a30a60000000000000000000000000000000000000000000000000000000006a152e060000000000000000000000000000000000000000000000000000000000000007000000000000000000000000000000000000000000000000000000000000001c6dc0970eb57bad72b86c953d5b1be4155e340e199cbc1687883936db1c4b4e281ae2655f01ca4a62f884010ed46886069e830d17adb16cb5b9bc53d632796515",
        "nonce": "0x5e",
        "chainId": "0x7a69"
      },
      "additionalContracts": [],
      "isFixedGasLimit": false
    }
  ],
  "receipts": [
    {
      "status": "0x1",
      "cumulativeGasUsed": "0x201ee",
      "logs": [
        {
          "address": "0xc02aaa39b223fe8d0a0e5c4f27ead9083c756cc2",
          "topics": [
            "0xddf252ad1be2c89b69c2b068fc378daa952ba7f163c4a11628f55a4df523b3ef",
            "0x000000000000000000000000c5adfc119364cfe2297e4414db04834d8702475b",
            "0x0000000000000000000000001804c8ab1f12e6bbf3894d4083f33e07309d1f38"
          ],
          "data": "0x0000000000000000000000000000000000000000000000000000640b5eece000",
          "blockHash": "0x9dbdd21dc4a7f96d15b25190d33259e5b54aa6b9f5b26ed48e41f3c7b1ac9bbb",
          "blockNumber": "0x17b73df",
          "blockTimestamp": "0x69ec07ae",
          "transactionHash": "0xe19ec2a9897e155cefb15ad0d0b8f342fe14e954c3914fde4cdf87532fbc1fe4",
          "transactionIndex": "0x0",
          "logIndex": "0x0",
          "removed": false
        },
        {
          "address": "0xc02aaa39b223fe8d0a0e5c4f27ead9083c756cc2",
          "topics": [
            "0xddf252ad1be2c89b69c2b068fc378daa952ba7f163c4a11628f55a4df523b3ef",
            "0x000000000000000000000000c5adfc119364cfe2297e4414db04834d8702475b",
            "0x000000000000000000000000a382b0e75c192d9cdf5c084e58b750cea7761bd0"
          ],
          "data": "0x0000000000000000000000000000000000000000000000000026b065b59aa000",
          "blockHash": "0x9dbdd21dc4a7f96d15b25190d33259e5b54aa6b9f5b26ed48e41f3c7b1ac9bbb",
          "blockNumber": "0x17b73df",
          "blockTimestamp": "0x69ec07ae",
          "transactionHash": "0xe19ec2a9897e155cefb15ad0d0b8f342fe14e954c3914fde4cdf87532fbc1fe4",
          "transactionIndex": "0x0",
          "logIndex": "0x1",
          "removed": false
        },
        {
          "address": "0x38d4de42c9c5640a2799b372d27b01957e0a3673",
          "topics": [
            "0xddf252ad1be2c89b69c2b068fc378daa952ba7f163c4a11628f55a4df523b3ef",
            "0x000000000000000000000000a382b0e75c192d9cdf5c084e58b750cea7761bd0",
            "0x000000000000000000000000c5adfc119364cfe2297e4414db04834d8702475b",
            "0x0000000000000000000000000000000000000000000000000000000000000068"
          ],
          "data": "0x",
          "blockHash": "0x9dbdd21dc4a7f96d15b25190d33259e5b54aa6b9f5b26ed48e41f3c7b1ac9bbb",
          "blockNumber": "0x17b73df",
          "blockTimestamp": "0x69ec07ae",
          "transactionHash": "0xe19ec2a9897e155cefb15ad0d0b8f342fe14e954c3914fde4cdf87532fbc1fe4",
          "transactionIndex": "0x0",
          "logIndex": "0x2",
          "removed": false
        },
        {
          "address": "0x73973d222c3fda5b2563d269da9e19cb125000f4",
          "topics": [
            "0xc0ac3eb1e8caef05b202043f34de8e3173fab712167584f7a2a9f4c302bd0e9c",
            "0xd442bd90ecd64949a3298aac7cf8e4ca07d3e07a3a95221931b28fefea79a269",
            "0x00000000000000000000000038d4de42c9c5640a2799b372d27b01957e0a3673",
            "0x0000000000000000000000000000000000000000000000000000000000000068"
          ],
          "data": "0x000000000000000000000000a382b0e75c192d9cdf5c084e58b750cea7761bd0000000000000000000000000c5adfc119364cfe2297e4414db04834d8702475b000000000000000000000000c02aaa39b223fe8d0a0e5c4f27ead9083c756cc20000000000000000000000000000000000000000000000000027147114878000",
          "blockHash": "0x9dbdd21dc4a7f96d15b25190d33259e5b54aa6b9f5b26ed48e41f3c7b1ac9bbb",
          "blockNumber": "0x17b73df",
          "blockTimestamp": "0x69ec07ae",
          "transactionHash": "0xe19ec2a9897e155cefb15ad0d0b8f342fe14e954c3914fde4cdf87532fbc1fe4",
          "transactionIndex": "0x0",
          "logIndex": "0x3",
          "removed": false
        }
      ],
      "logsBloom": "0x00000000000000000000000000000000000000000002000001000000000000000000000000000000000000000000020002000000080000000004100000100000000000000000001021000008000000000000000000000000000000000000000200000000000000000001000000000000000000000000040000000011000000000000000000000000000004000000000000100000000008000000000000000000000000000000000000000000000020000000000000000080400000000020000000000002000004000000000000000000000000000000000800000000000000000100200000000000000000000000200000000000100000102000000000000000",
      "type": "0x2",
      "transactionHash": "0xe19ec2a9897e155cefb15ad0d0b8f342fe14e954c3914fde4cdf87532fbc1fe4",
      "transactionIndex": "0x0",
      "blockHash": "0x9dbdd21dc4a7f96d15b25190d33259e5b54aa6b9f5b26ed48e41f3c7b1ac9bbb",
      "blockNumber": "0x17b73df",
      "gasUsed": "0x201ee",
      "effectiveGasPrice": "0xf4248",
      "blobGasPrice": "0x1",
      "from": "0xa382b0e75c192d9cdf5c084e58b750cea7761bd0",
      "to": "0x73973d222c3fda5b2563d269da9e19cb125000f4",
      "contractAddress": null
    }
  ],
  "libraries": [],
  "pending": [],
  "returns": {},
  "timestamp": 1778453796345,
  "chain": 31337,
  "commit": "f87d399"
}