{
  "transactions": [
    {
      "hash": "0xaed0aa836339e091df5fd97c402698eeafbaf568267b6ba9edcf5412175ced7b",
      "transactionType": "CALL",
      "contractName": null,
      "contractAddress": "0x73973d222c3fda5b2563d269da9e19cb125000f4",
      "function": "settle((uint256,address),(uint8,bool,address,uint256,address,uint256,address,uint64,uint64,uint256),(uint8,bytes32,bytes32))",
      "arguments": [
        "(22, 0xcbe5659df21Cbcfabe4da962F7a9081F26B3ed82)",
        "(1, false, 0x38D4dE42C9c5640A2799B372D27B01957E0a3673, 22, 0xC02aaA39b223FE8D0A0e5C4F27eAD9083C756Cc2, 85000000000000000, 0xc5aDfC119364CFE2297e4414dB04834d8702475B, 1773585507, 1778480131, 6)",
        "(28, 0x8ef8717d2588b1230203689380ac03299bc4a925f0ae2c56314e6d8b07fc71bf, 0x5eedebbecc82013bad2e17036c8abcb4882b3807057a9e1870ff1f88294c207f)"
      ],
      "transaction": {
        "from": "0xcbe5659df21cbcfabe4da962f7a9081f26b3ed82",
        "to": "0x73973d222c3fda5b2563d269da9e19cb125000f4",
        "gas": "0x2efb0",
        "value": "0x0",
        "input": "0x3bae3e790000000000000000000000000000000000000000000000000000000000000016000000000000000000000000cbe5659df21cbcfabe4da962f7a9081f26b3ed820000000000000000000000000000000000000000000000000000000000000001000000000000000000000000000000000000000000000000000000000000000000000000000000000000000038d4de42c9c5640a2799b372d27b01957e0a36730000000000000000000000000000000000000000000000000000000000000016000000000000000000000000c02aaa39b223fe8d0a0e5c4f27ead9083c756cc2000000000000000000000000000000000000000000000000012dfb0cb5e88000000000000000000000000000c5adfc119364cfe2297e4414db04834d8702475b0000000000000000000000000000000000000000000000000000000069b6c463000000000000000000000000000000000000000000000000000000006a0174030000000000000000000000000000000000000000000000000000000000000006000000000000000000000000000000000000000000000000000000000000001c8ef8717d2588b1230203689380ac03299bc4a925f0ae2c56314e6d8b07fc71bf5eedebbecc82013bad2e17036c8abcb4882b3807057a9e1870ff1f88294c207f",
        "nonce": "0x6c",
        "chainId": "0x7a69"
      },
      "additionalContracts": [],
      "isFixedGasLimit": false
    }
  ],
  "receipts": [
    {
      "status": "0x1",
      "cumulativeGasUsed": "0x201fa",
      "logs": [
        {
          "address": "0xc02aaa39b223fe8d0a0e5c4f27ead9083c756cc2",
          "topics": [
            "0xddf252ad1be2c89b69c2b068fc378daa952ba7f163c4a11628f55a4df523b3ef",
            "0x000000000000000000000000c5adfc119364cfe2297e4414db04834d8702475b",
            "0x0000000000000000000000001804c8ab1f12e6bbf3894d4083f33e07309d1f38"
          ],
          "data": "0x000000000000000000000000000000000000000000000000000305120c0f2000",
          "blockHash": "0x491dfdef3e3b70ff3be09049bcbc347643157a7ec27e5dc69466348487f85173",
          "blockNumber": "0x17b73b9",
          "blockTimestamp": "0x69e5890c",
          "transactionHash": "0xaed0aa836339e091df5fd97c402698eeafbaf568267b6ba9edcf5412175ced7b",
          "transactionIndex": "0x0",
          "logIndex": "0x0",
          "removed": false
        },
        {
          "address": "0xc02aaa39b223fe8d0a0e5c4f27ead9083c756cc2",
          "topics": [
            "0xddf252ad1be2c89b69c2b068fc378daa952ba7f163c4a11628f55a4df523b3ef",
            "0x000000000000000000000000c5adfc119364cfe2297e4414db04834d8702475b",
            "0x000000000000000000000000cbe5659df21cbcfabe4da962f7a9081f26b3ed82"
          ],
          "data": "0x000000000000000000000000000000000000000000000000012af5faa9d96000",
          "blockHash": "0x491dfdef3e3b70ff3be09049bcbc347643157a7ec27e5dc69466348487f85173",
          "blockNumber": "0x17b73b9",
          "blockTimestamp": "0x69e5890c",
          "transactionHash": "0xaed0aa836339e091df5fd97c402698eeafbaf568267b6ba9edcf5412175ced7b",
          "transactionIndex": "0x0",
          "logIndex": "0x1",
          "removed": false
        },
        {
          "address": "0x38d4de42c9c5640a2799b372d27b01957e0a3673",
          "topics": [
            "0xddf252ad1be2c89b69c2b068fc378daa952ba7f163c4a11628f55a4df523b3ef",
            "0x000000000000000000000000cbe5659df21cbcfabe4da962f7a9081f26b3ed82",
            "0x000000000000000000000000c5adfc119364cfe2297e4414db04834d8702475b",
            "0x0000000000000000000000000000000000000000000000000000000000000016"
          ],
          "data": "0x",
          "blockHash": "0x491dfdef3e3b70ff3be09049bcbc347643157a7ec27e5dc69466348487f85173",
          "blockNumber": "0x17b73b9",
          "blockTimestamp": "0x69e5890c",
          "transactionHash": "0xaed0aa836339e091df5fd97c402698eeafbaf568267b6ba9edcf5412175ced7b",
          "transactionIndex": "0x0",
          "logIndex": "0x2",
          "removed": false
        },
        {
          "address": "0x73973d222c3fda5b2563d269da9e19cb125000f4",
          "topics": [
            "0xc0ac3eb1e8caef05b202043f34de8e3173fab712167584f7a2a9f4c302bd0e9c",
            "0x54cf92cae6ff347f25f937bc6b89d7eac86c88546b2e47387c9d9a76e3f8c09a",
            "0x00000000000000000000000038d4de42c9c5640a2799b372d27b01957e0a3673",
            "0x0000000000000000000000000000000000000000000000000000000000000016"
          ],
          "data": "0x000000000000000000000000cbe5659df21cbcfabe4da962f7a9081f26b3ed82000000000000000000000000c5adfc119364cfe2297e4414db04834d8702475b000000000000000000000000c02aaa39b223fe8d0a0e5c4f27ead9083c756cc2000000000000000000000000000000000000000000000000012dfb0cb5e88000",
          "blockHash": "0x491dfdef3e3b70ff3be09049bcbc347643157a7ec27e5dc69466348487f85173",
          "blockNumber": "0x17b73b9",
          "blockTimestamp": "0x69e5890c",
          "transactionHash": "0xaed0aa836339e091df5fd97c402698eeafbaf568267b6ba9edcf5412175ced7b",
          "transactionIndex": "0x0",
          "logIndex": "0x3",
          "removed": false
        }
      ],
      "logsBloom": "0x00000000000000000000000000100000000000000002000000000800000000000000000000000000000000000000020002000000080000000004100000100000000000000000001821000008000000000000000000000000000000000000000200000000000000000001000000000000200000000000000000000010000000000000000000000000000004000000000000000000000008000000000000000000000000000000000000000000000020000000000000000080400000000000000000000002000004000400000000000000000000000000020000000000000000000100200000000080000000000000000000000000004000002008000000000000",
      "type": "0x2",
      "transactionHash": "0xaed0aa836339e091df5fd97c402698eeafbaf568267b6ba9edcf5412175ced7b",
      "transactionIndex": "0x0",
      "blockHash": "0x491dfdef3e3b70ff3be09049bcbc347643157a7ec27e5dc69466348487f85173",
      "blockNumber": "0x17b73b9",
      "gasUsed": "0x201fa",
      "effectiveGasPrice": "0xf4248",
      "blobGasPrice": "0x1",
      "from": "0xcbe5659df21cbcfabe4da962f7a9081f26b3ed82",
      "to": "0x73973d222c3fda5b2563d269da9e19cb125000f4",
      "contractAddress": null
    }
  ],
  "libraries": [],
  "pending": [],
  "returns": {},
  "timestamp": 1778453762914,
  "chain": 31337,
  "commit": "f87d399"
}