{
  "transactions": [
    {
      "hash": "0x129b9393593534543979e58ec200548868468969c85f660c28b2ec8c7f469c11",
      "transactionType": "CALL",
      "contractName": null,
      "contractAddress": "0x8fa71914948544c60e3379064567dcf0e6564d27",
      "function": "settle((uint256,address),(uint8,bool,address,uint256,address,uint256,address,uint64,uint64,uint256),(uint8,bytes32,bytes32))",
      "arguments": [
        "(0, 0xE233420d38D286C2F2Cf8dEe6564F132FBDB09DB)",
        "(0, false, 0xA5f104F8f78d5ba9AEC4a383c0927337Fd4E997B, 334, 0xC02aaA39b223FE8D0A0e5C4F27eAD9083C756Cc2, 13000000000000000, 0xa382b0E75C192D9CDF5c084E58b750Cea7761Bd0, 1772188238, 1779986048, 8)",
        "(27, 0x694e0235b2e57914ec6dabb1fc2addb4bef8af5db4ac9159c8ed402181c54dad, 0x3489e35ed05ffae27d254cf65049316e66547133ec2547a1befb8242b426eb8c)"
      ],
      "transaction": {
        "from": "0xe233420d38d286c2f2cf8dee6564f132fbdb09db",
        "to": "0x8fa71914948544c60e3379064567dcf0e6564d27",
        "gas": "0x2ee7f",
        "value": "0x0",
        "input": "0x3bae3e790000000000000000000000000000000000000000000000000000000000000000000000000000000000000000e233420d38d286c2f2cf8dee6564f132fbdb09db00000000000000000000000000000000000000000000000000000000000000000000000000000000000000000000000000000000000000000000000000000000000000000000000000000000a5f104f8f78d5ba9aec4a383c0927337fd4e997b000000000000000000000000000000000000000000000000000000000000014e000000000000000000000000c02aaa39b223fe8d0a0e5c4f27ead9083c756cc2000000000000000000000000000000000000000000000000002e2f6e5e148000000000000000000000000000a382b0e75c192d9cdf5c084e58b750cea7761bd00000000000000000000000000000000000000000000000000000000069a1724e000000000000000000000000000000000000000000000000000000006a186e800000000000000000000000000000000000000000000000000000000000000008000000000000000000000000000000000000000000000000000000000000001b694e0235b2e57914ec6dabb1fc2addb4bef8af5db4ac9159c8ed402181c54dad3489e35ed05ffae27d254cf65049316e66547133ec2547a1befb8242b426eb8c",
        "nonce": "0x3a",
        "chainId": "0x7a69"
      },
      "additionalContracts": [],
      "isFixedGasLimit": false
    }
  ],
  "receipts": [
    {
      "status": "0x1",
      "cumulativeGasUsed": "0x20129",
      "logs": [
        {
          "address": "0xc02aaa39b223fe8d0a0e5c4f27ead9083c756cc2",
          "topics": [
            "0xddf252ad1be2c89b69c2b068fc378daa952ba7f163c4a11628f55a4df523b3ef",
            "0x000000000000000000000000e233420d38d286c2f2cf8dee6564f132fbdb09db",
            "0x0000000000000000000000001804c8ab1f12e6bbf3894d4083f33e07309d1f38"
          ],
          "data": "0x0000000000000000000000000000000000000000000000000000763bfbd22000",
          "blockHash": "0xe74f6e9d10569572ae267f22b9ee6322b7a3dc2694c469bc0a3674be00c05076",
          "blockNumber": "0x17b8375",
          "blockTimestamp": "0x69f61c0e",
          "transactionHash": "0x129b9393593534543979e58ec200548868468969c85f660c28b2ec8c7f469c11",
          "transactionIndex": "0x0",
          "logIndex": "0x0",
          "removed": false
        },
        {
          "address": "0xc02aaa39b223fe8d0a0e5c4f27ead9083c756cc2",
          "topics": [
            "0xddf252ad1be2c89b69c2b068fc378daa952ba7f163c4a11628f55a4df523b3ef",
            "0x000000000000000000000000e233420d38d286c2f2cf8dee6564f132fbdb09db",
            "0x000000000000000000000000a382b0e75c192d9cdf5c084e58b750cea7761bd0"
          ],
          "data": "0x000000000000000000000000000000000000000000000000002db93262426000",
          "blockHash": "0xe74f6e9d10569572ae267f22b9ee6322b7a3dc2694c469bc0a3674be00c05076",
          "blockNumber": "0x17b8375",
          "blockTimestamp": "0x69f61c0e",
          "transactionHash": "0x129b9393593534543979e58ec200548868468969c85f660c28b2ec8c7f469c11",
          "transactionIndex": "0x0",
          "logIndex": "0x1",
          "removed": false
        },
        {
          "address": "0xa5f104f8f78d5ba9aec4a383c0927337fd4e997b",
          "topics": [
            "0xddf252ad1be2c89b69c2b068fc378daa952ba7f163c4a11628f55a4df523b3ef",
            "0x000000000000000000000000a382b0e75c192d9cdf5c084e58b750cea7761bd0",
            "0x000000000000000000000000e233420d38d286c2f2cf8dee6564f132fbdb09db",
            "0x000000000000000000000000000000000000000000000000000000000000014e"
          ],
          "data": "0x",
          "blockHash": "0xe74f6e9d10569572ae267f22b9ee6322b7a3dc2694c469bc0a3674be00c05076",
          "blockNumber": "0x17b8375",
          "blockTimestamp": "0x69f61c0e",
          "transactionHash": "0x129b9393593534543979e58ec200548868468969c85f660c28b2ec8c7f469c11",
          "transactionIndex": "0x0",
          "logIndex": "0x2",
          "removed": false
        },
        {
          "address": "0x8fa71914948544c60e3379064567dcf0e6564d27",
          "topics": [
            "0xc0ac3eb1e8caef05b202043f34de8e3173fab712167584f7a2a9f4c302bd0e9c",
            "0x8628b3b9a9739f0938fbb82a9b999cda7273df55f5577a5a4778daab3f8c4dd6",
            "0x000000000000000000000000a5f104f8f78d5ba9aec4a383c0927337fd4e997b",
            "0x000000000000000000000000000000000000000000000000000000000000014e"
          ],
          "data": "0x000000000000000000000000a382b0e75c192d9cdf5c084e58b750cea7761bd0000000000000000000000000e233420d38d286c2f2cf8dee6564f132fbdb09db000000000000000000000000c02aaa39b223fe8d0a0e5c4f27ead9083c756cc2000000000000000000000000000000000000000000000000002e2f6e5e148000",
          "blockHash": "0xe74f6e9d10569572ae267f22b9ee6322b7a3dc2694c469bc0a3674be00c05076",
          "blockNumber": "0x17b8375",
          "blockTimestamp": "0x69f61c0e",
          "transactionHash": "0x129b9393593534543979e58ec200548868468969c85f660c28b2ec8c7f469c11",
          "transactionIndex": "0x0",
          "logIndex": "0x3",
          "removed": false
        }
      ],
      "logsBloom": "0x00000000000000000000010000000000000000000000000000000000000000000000000000000000020000000000000002020000080000000000000000100000000000000000000000010008000000000000000000000000080000000000000000000001000000000001000000000000000000000000040000000010a00000100800000000040000000004000000000000100000000000000000000000000000000000200000000400000000000000000000000200008080000000000000000000000012000004000000000000000000000000000002000080000000000000000100200000000000000000000000000000000000100000000000000000000000",
      "type": "0x2",
      "transactionHash": "0x129b9393593534543979e58ec200548868468969c85f660c28b2ec8c7f469c11",
      "transactionIndex": "0x0",
      "blockHash": "0xe74f6e9d10569572ae267f22b9ee6322b7a3dc2694c469bc0a3674be00c05076",
      "blockNumber": "0x17b8375",
      "gasUsed": "0x20129",
      "effectiveGasPrice": "0x1ba81c",
      "blobGasPrice": "0x1",
      "from": "0xe233420d38d286c2f2cf8dee6564f132fbdb09db",
      "to": "0x8fa71914948544c60e3379064567dcf0e6564d27",
      "contractAddress": null
    }
  ],
  "libraries": [],
  "pending": [],
  "returns": {},
  "timestamp": 1778506500047,
  "chain": 31337,
  "commit": "59e30a9"
}