{
  "transactions": [
    {
      "hash": "0x3e2aff33ce7c7723bea8e57bd2227582bd6875f5fcf8034b49ed92488432182b",
      "transactionType": "CALL",
      "contractName": null,
      "contractAddress": "0x73973d222c3fda5b2563d269da9e19cb125000f4",
      "function": "settle((uint256,address),(uint8,bool,address,uint256,address,uint256,address,uint64,uint64,uint256),(uint8,bytes32,bytes32))",
      "arguments": [
        "(112, 0xcbe5659df21Cbcfabe4da962F7a9081F26B3ed82)",
        "(1, false, 0x38D4dE42C9c5640A2799B372D27B01957E0a3673, 112, 0xC02aaA39b223FE8D0A0e5C4F27eAD9083C756Cc2, 32000000000000000, 0x08312E82df563A1639b81f49bb41247759700e30, 1772837564, 1779228074, 8)",
        "(27, 0x57c3b26017bcaf40c7d97dc618cb3b7d736927bbc8b7eec1af4d970565146fab, 0x60d7daa8628a83b1bd7ed222fbb5bc2d1c5230f205a0cb0874b77342c785ff99)"
      ],
      "transaction": {
        "from": "0xcbe5659df21cbcfabe4da962f7a9081f26b3ed82",
        "to": "0x73973d222c3fda5b2563d269da9e19cb125000f4",
        "gas": "0x2c5b0",
        "value": "0x0",
        "input": "0x3bae3e790000000000000000000000000000000000000000000000000000000000000070000000000000000000000000cbe5659df21cbcfabe4da962f7a9081f26b3ed820000000000000000000000000000000000000000000000000000000000000001000000000000000000000000000000000000000000000000000000000000000000000000000000000000000038d4de42c9c5640a2799b372d27b01957e0a36730000000000000000000000000000000000000000000000000000000000000070000000000000000000000000c02aaa39b223fe8d0a0e5c4f27ead9083c756cc20000000000000000000000000000000000000000000000000071afd498d0000000000000000000000000000008312e82df563a1639b81f49bb41247759700e300000000000000000000000000000000000000000000000000000000069ab5abc000000000000000000000000000000000000000000000000000000006a0cddaa0000000000000000000000000000000000000000000000000000000000000008000000000000000000000000000000000000000000000000000000000000001b57c3b26017bcaf40c7d97dc618cb3b7d736927bbc8b7eec1af4d970565146fab60d7daa8628a83b1bd7ed222fbb5bc2d1c5230f205a0cb0874b77342c785ff99",
        "nonce": "0x6e",
        "chainId": "0x7a69"
      },
      "additionalContracts": [],
      "isFixedGasLimit": false
    }
  ],
  "receipts": [
    {
      "status": "0x1",
      "cumulativeGasUsed": "0x201ce",
      "logs": [
        {
          "address": "0xc02aaa39b223fe8d0a0e5c4f27ead9083c756cc2",
          "topics": [
            "0xddf252ad1be2c89b69c2b068fc378daa952ba7f163c4a11628f55a4df523b3ef",
            "0x00000000000000000000000008312e82df563a1639b81f49bb41247759700e30",
            "0x0000000000000000000000001804c8ab1f12e6bbf3894d4083f33e07309d1f38"
          ],
          "data": "0x00000000000000000000000000000000000000000000000000012309ce540000",
          "blockHash": "0xa4acc4b4b8e2ccd888ff79eb12edefd7926c5f69837a9859671d5ae0e04fe78d",
          "blockNumber": "0x17b73d0",
          "blockTimestamp": "0x69e97761",
          "transactionHash": "0x3e2aff33ce7c7723bea8e57bd2227582bd6875f5fcf8034b49ed92488432182b",
          "transactionIndex": "0x0",
          "logIndex": "0x0",
          "removed": false
        },
        {
          "address": "0xc02aaa39b223fe8d0a0e5c4f27ead9083c756cc2",
          "topics": [
            "0xddf252ad1be2c89b69c2b068fc378daa952ba7f163c4a11628f55a4df523b3ef",
            "0x00000000000000000000000008312e82df563a1639b81f49bb41247759700e30",
            "0x000000000000000000000000cbe5659df21cbcfabe4da962f7a9081f26b3ed82"
          ],
          "data": "0x00000000000000000000000000000000000000000000000000708ccaca7c0000",
          "blockHash": "0xa4acc4b4b8e2ccd888ff79eb12edefd7926c5f69837a9859671d5ae0e04fe78d",
          "blockNumber": "0x17b73d0",
          "blockTimestamp": "0x69e97761",
          "transactionHash": "0x3e2aff33ce7c7723bea8e57bd2227582bd6875f5fcf8034b49ed92488432182b",
          "transactionIndex": "0x0",
          "logIndex": "0x1",
          "removed": false
        },
        {
          "address": "0x38d4de42c9c5640a2799b372d27b01957e0a3673",
          "topics": [
            "0xddf252ad1be2c89b69c2b068fc378daa952ba7f163c4a11628f55a4df523b3ef",
            "0x000000000000000000000000cbe5659df21cbcfabe4da962f7a9081f26b3ed82",
            "0x00000000000000000000000008312e82df563a1639b81f49bb41247759700e30",
            "0x0000000000000000000000000000000000000000000000000000000000000070"
          ],
          "data": "0x",
          "blockHash": "0xa4acc4b4b8e2ccd888ff79eb12edefd7926c5f69837a9859671d5ae0e04fe78d",
          "blockNumber": "0x17b73d0",
          "blockTimestamp": "0x69e97761",
          "transactionHash": "0x3e2aff33ce7c7723bea8e57bd2227582bd6875f5fcf8034b49ed92488432182b",
          "transactionIndex": "0x0",
          "logIndex": "0x2",
          "removed": false
        },
        {
          "address": "0x73973d222c3fda5b2563d269da9e19cb125000f4",
          "topics": [
            "0xc0ac3eb1e8caef05b202043f34de8e3173fab712167584f7a2a9f4c302bd0e9c",
            "0x1e242901030a641102d33f9cea08867934ee36f35c6595935876f741f512d646",
            "0x00000000000000000000000038d4de42c9c5640a2799b372d27b01957e0a3673",
            "0x0000000000000000000000000000000000000000000000000000000000000070"
          ],
          "data": "0x000000000000000000000000cbe5659df21cbcfabe4da962f7a9081f26b3ed8200000000000000000000000008312e82df563a1639b81f49bb41247759700e30000000000000000000000000c02aaa39b223fe8d0a0e5c4f27ead9083c756cc20000000000000000000000000000000000000000000000000071afd498d00000",
          "blockHash": "0xa4acc4b4b8e2ccd888ff79eb12edefd7926c5f69837a9859671d5ae0e04fe78d",
          "blockNumber": "0x17b73d0",
          "blockTimestamp": "0x69e97761",
          "transactionHash": "0x3e2aff33ce7c7723bea8e57bd2227582bd6875f5fcf8034b49ed92488432182b",
          "transactionIndex": "0x0",
          "logIndex": "0x3",
          "removed": false
        }
      ],
      "logsBloom": "0x00000000000000000000000001000000000008000002000000000000000000000000000000100000000000000000020002000000080000000004100000100000000000000000001021000008000000000000000000000000000000000000000000000000000000000001000000000000000000000000000000000010000000008000000000000000000004000000000000000000000008000000000000000000000000000000000000000000400000000000000000000080400000000010000000000002000004000400000000000000000000008000020000000000000000000100200000800000000000000000000000000000004000000000000000000000",
      "type": "0x2",
      "transactionHash": "0x3e2aff33ce7c7723bea8e57bd2227582bd6875f5fcf8034b49ed92488432182b",
      "transactionIndex": "0x0",
      "blockHash": "0xa4acc4b4b8e2ccd888ff79eb12edefd7926c5f69837a9859671d5ae0e04fe78d",
      "blockNumber": "0x17b73d0",
      "gasUsed": "0x201ce",
      "effectiveGasPrice": "0xf4248",
      "blobGasPrice": "0x1",
      "from": "0xcbe5659df21cbcfabe4da962f7a9081f26b3ed82",
      "to": "0x73973d222c3fda5b2563d269da9e19cb125000f4",
      "contractAddress": null
    }
  ],
  "libraries": [],
  "pending": [],
  "returns": {},
  "timestamp": 1778453783034,
  "chain": 31337,
  "commit": "f87d399"
}