{
  "transactions": [
    {
      "hash": "0x42774696f4370caf1c74e4d541f15bba68b7636149668201db1e537f7f7587d7",
      "transactionType": "CALL",
      "contractName": null,
      "contractAddress": "0x8fa71914948544c60e3379064567dcf0e6564d27",
      "function": "settle((uint256,address),(uint8,bool,address,uint256,address,uint256,address,uint64,uint64,uint256),(uint8,bytes32,bytes32))",
      "arguments": [
        "(310, 0x1302F142Fc55B165647d3Bd5dec227f569A2A907)",
        "(1, false, 0xA5f104F8f78d5ba9AEC4a383c0927337Fd4E997B, 310, 0xC02aaA39b223FE8D0A0e5C4F27eAD9083C756Cc2, 395000000000000000, 0xcbe5659df21Cbcfabe4da962F7a9081F26B3ed82, 1772971561, 1779202725, 8)",
        "(27, 0x907e2ae36f44d78f638a06c412541d8e04aa5f9e6297765e0c8f38501372d09c, 0x1e414eb2a003fb4353171a09047d963ddc161d49dc4b1b0c64e3149de6b654ce)"
      ],
      "transaction": {
        "from": "0x1302f142fc55b165647d3bd5dec227f569a2a907",
        "to": "0x8fa71914948544c60e3379064567dcf0e6564d27",
        "gas": "0x2c5f2",
        "value": "0x0",
        "input": "0x3bae3e7900000000000000000000000000000000000000000000000000000000000001360000000000000000000000001302f142fc55b165647d3bd5dec227f569a2a90700000000000000000000000000000000000000000000000000000000000000010000000000000000000000000000000000000000000000000000000000000000000000000000000000000000a5f104f8f78d5ba9aec4a383c0927337fd4e997b0000000000000000000000000000000000000000000000000000000000000136000000000000000000000000c02aaa39b223fe8d0a0e5c4f27ead9083c756cc2000000000000000000000000000000000000000000000000057b52683e478000000000000000000000000000cbe5659df21cbcfabe4da962f7a9081f26b3ed820000000000000000000000000000000000000000000000000000000069ad6629000000000000000000000000000000000000000000000000000000006a0c7aa50000000000000000000000000000000000000000000000000000000000000008000000000000000000000000000000000000000000000000000000000000001b907e2ae36f44d78f638a06c412541d8e04aa5f9e6297765e0c8f38501372d09c1e414eb2a003fb4353171a09047d963ddc161d49dc4b1b0c64e3149de6b654ce",
        "nonce": "0x34",
        "chainId": "0x7a69"
      },
      "additionalContracts": [],
      "isFixedGasLimit": false
    }
  ],
  "receipts": [
    {
      "status": "0x1",
      "cumulativeGasUsed": "0x201fe",
      "logs": [
        {
          "address": "0xc02aaa39b223fe8d0a0e5c4f27ead9083c756cc2",
          "topics": [
            "0xddf252ad1be2c89b69c2b068fc378daa952ba7f163c4a11628f55a4df523b3ef",
            "0x000000000000000000000000cbe5659df21cbcfabe4da962f7a9081f26b3ed82",
            "0x0000000000000000000000001804c8ab1f12e6bbf3894d4083f33e07309d1f38"
          ],
          "data": "0x000000000000000000000000000000000000000000000000000e08810adce000",
          "blockHash": "0x3baa46b60b63fad62ff589de06554be1b5d3b179964b752886d75fafbe32f630",
          "blockNumber": "0x17b8347",
          "blockTimestamp": "0x69eb98f7",
          "transactionHash": "0x42774696f4370caf1c74e4d541f15bba68b7636149668201db1e537f7f7587d7",
          "transactionIndex": "0x0",
          "logIndex": "0x0",
          "removed": false
        },
        {
          "address": "0xc02aaa39b223fe8d0a0e5c4f27ead9083c756cc2",
          "topics": [
            "0xddf252ad1be2c89b69c2b068fc378daa952ba7f163c4a11628f55a4df523b3ef",
            "0x000000000000000000000000cbe5659df21cbcfabe4da962f7a9081f26b3ed82",
            "0x0000000000000000000000001302f142fc55b165647d3bd5dec227f569a2a907"
          ],
          "data": "0x000000000000000000000000000000000000000000000000056d49e7336aa000",
          "blockHash": "0x3baa46b60b63fad62ff589de06554be1b5d3b179964b752886d75fafbe32f630",
          "blockNumber": "0x17b8347",
          "blockTimestamp": "0x69eb98f7",
          "transactionHash": "0x42774696f4370caf1c74e4d541f15bba68b7636149668201db1e537f7f7587d7",
          "transactionIndex": "0x0",
          "logIndex": "0x1",
          "removed": false
        },
        {
          "address": "0xa5f104f8f78d5ba9aec4a383c0927337fd4e997b",
          "topics": [
            "0xddf252ad1be2c89b69c2b068fc378daa952ba7f163c4a11628f55a4df523b3ef",
            "0x0000000000000000000000001302f142fc55b165647d3bd5dec227f569a2a907",
            "0x000000000000000000000000cbe5659df21cbcfabe4da962f7a9081f26b3ed82",
            "0x0000000000000000000000000000000000000000000000000000000000000136"
          ],
          "data": "0x",
          "blockHash": "0x3baa46b60b63fad62ff589de06554be1b5d3b179964b752886d75fafbe32f630",
          "blockNumber": "0x17b8347",
          "blockTimestamp": "0x69eb98f7",
          "transactionHash": "0x42774696f4370caf1c74e4d541f15bba68b7636149668201db1e537f7f7587d7",
          "transactionIndex": "0x0",
          "logIndex": "0x2",
          "removed": false
        },
        {
          "address": "0x8fa71914948544c60e3379064567dcf0e6564d27",
          "topics": [
            "0xc0ac3eb1e8caef05b202043f34de8e3173fab712167584f7a2a9f4c302bd0e9c",
            "0x37f6bdf3646cdda317639e1196202e4797ad4378827d11b46ced808a23a1c4ac",
            "0x000000000000000000000000a5f104f8f78d5ba9aec4a383c0927337fd4e997b",
            "0x0000000000000000000000000000000000000000000000000000000000000136"
          ],
          "data": "0x0000000000000000000000001302f142fc55b165647d3bd5dec227f569a2a907000000000000000000000000cbe5659df21cbcfabe4da962f7a9081f26b3ed82000000000000000000000000c02aaa39b223fe8d0a0e5c4f27ead9083c756cc2000000000000000000000000000000000000000000000000057b52683e478000",
          "blockHash": "0x3baa46b60b63fad62ff589de06554be1b5d3b179964b752886d75fafbe32f630",
          "blockNumber": "0x17b8347",
          "blockTimestamp": "0x69eb98f7",
          "transactionHash": "0x42774696f4370caf1c74e4d541f15bba68b7636149668201db1e537f7f7587d7",
          "transactionIndex": "0x0",
          "logIndex": "0x3",
          "removed": false
        }
      ],
      "logsBloom": "0x00000000000000000000010000000000000000000000000000000000000000000000000000040000000000000000000002000000080000000000000000100000000000000000000000090008000000000000000000000000080000000008000000000000000000000001000000000000000000000000000000000010200000000800000000040000000004000000000000000000000000000000000000000000000000200000000400000000000100000000000000000080000000000000000000100002040004000400000200000000000000000000020080001000000000000100200000000000000040000000000000000000004000000000000000000000",
      "type": "0x2",
      "transactionHash": "0x42774696f4370caf1c74e4d541f15bba68b7636149668201db1e537f7f7587d7",
      "transactionIndex": "0x0",
      "blockHash": "0x3baa46b60b63fad62ff589de06554be1b5d3b179964b752886d75fafbe32f630",
      "blockNumber": "0x17b8347",
      "gasUsed": "0x201fe",
      "effectiveGasPrice": "0x1ba81c",
      "blobGasPrice": "0x1",
      "from": "0x1302f142fc55b165647d3bd5dec227f569a2a907",
      "to": "0x8fa71914948544c60e3379064567dcf0e6564d27",
      "contractAddress": null
    }
  ],
  "libraries": [],
  "pending": [],
  "returns": {},
  "timestamp": 1778506448711,
  "chain": 31337,
  "commit": "59e30a9"
}