{
  "transactions": [
    {
      "hash": "0xc0c4cc85e9bc4270145dbffed4afca20cdabe7d79dfb962d03c45504f585606f",
      "transactionType": "CALL",
      "contractName": null,
      "contractAddress": "0x8fa71914948544c60e3379064567dcf0e6564d27",
      "function": "settle((uint256,address),(uint8,bool,address,uint256,address,uint256,address,uint64,uint64,uint256),(uint8,bytes32,bytes32))",
      "arguments": [
        "(0, 0xc5aDfC119364CFE2297e4414dB04834d8702475B)",
        "(0, false, 0xA5f104F8f78d5ba9AEC4a383c0927337Fd4E997B, 311, 0xC02aaA39b223FE8D0A0e5C4F27eAD9083C756Cc2, 19000000000000000, 0xe3745C151faB59B0740f4312b2B027F07D096639, 1772768935, 1779405351, 11)",
        "(27, 0x0bfc99c4093e15f614477c98de64a1a3ff12e2a927b8f93b314408b3eefb8ecf, 0x64e5f900191a59d75d37913808b1c007ae402940b1d9a4f22f1941eb3f8d5b79)"
      ],
      "transaction": {
        "from": "0xc5adfc119364cfe2297e4414db04834d8702475b",
        "to": "0x8fa71914948544c60e3379064567dcf0e6564d27",
        "gas": "0x2c4bb",
        "value": "0x0",
        "input": "0x3bae3e790000000000000000000000000000000000000000000000000000000000000000000000000000000000000000c5adfc119364cfe2297e4414db04834d8702475b00000000000000000000000000000000000000000000000000000000000000000000000000000000000000000000000000000000000000000000000000000000000000000000000000000000a5f104f8f78d5ba9aec4a383c0927337fd4e997b0000000000000000000000000000000000000000000000000000000000000137000000000000000000000000c02aaa39b223fe8d0a0e5c4f27ead9083c756cc2000000000000000000000000000000000000000000000000004380663abb8000000000000000000000000000e3745c151fab59b0740f4312b2b027f07d0966390000000000000000000000000000000000000000000000000000000069aa4ea7000000000000000000000000000000000000000000000000000000006a0f9227000000000000000000000000000000000000000000000000000000000000000b000000000000000000000000000000000000000000000000000000000000001b0bfc99c4093e15f614477c98de64a1a3ff12e2a927b8f93b314408b3eefb8ecf64e5f900191a59d75d37913808b1c007ae402940b1d9a4f22f1941eb3f8d5b79",
        "nonce": "0x3d",
        "chainId": "0x7a69"
      },
      "additionalContracts": [],
      "isFixedGasLimit": false
    }
  ],
  "receipts": [
    {
      "status": "0x1",
      "cumulativeGasUsed": "0x2011d",
      "logs": [
        {
          "address": "0xc02aaa39b223fe8d0a0e5c4f27ead9083c756cc2",
          "topics": [
            "0xddf252ad1be2c89b69c2b068fc378daa952ba7f163c4a11628f55a4df523b3ef",
            "0x000000000000000000000000c5adfc119364cfe2297e4414db04834d8702475b",
            "0x0000000000000000000000001804c8ab1f12e6bbf3894d4083f33e07309d1f38"
          ],
          "data": "0x0000000000000000000000000000000000000000000000000000accdd281e000",
          "blockHash": "0xaa50cbeedde68562d52e970d22c24172dabcc9ff0a07e4f4ebe984f5a2a5598b",
          "blockNumber": "0x17b8361",
          "blockTimestamp": "0x69f1ea27",
          "transactionHash": "0xc0c4cc85e9bc4270145dbffed4afca20cdabe7d79dfb962d03c45504f585606f",
          "transactionIndex": "0x0",
          "logIndex": "0x0",
          "removed": false
        },
        {
          "address": "0xc02aaa39b223fe8d0a0e5c4f27ead9083c756cc2",
          "topics": [
            "0xddf252ad1be2c89b69c2b068fc378daa952ba7f163c4a11628f55a4df523b3ef",
            "0x000000000000000000000000c5adfc119364cfe2297e4414db04834d8702475b",
            "0x000000000000000000000000e3745c151fab59b0740f4312b2b027f07d096639"
          ],
          "data": "0x0000000000000000000000000000000000000000000000000042d3986839a000",
          "blockHash": "0xaa50cbeedde68562d52e970d22c24172dabcc9ff0a07e4f4ebe984f5a2a5598b",
          "blockNumber": "0x17b8361",
          "blockTimestamp": "0x69f1ea27",
          "transactionHash": "0xc0c4cc85e9bc4270145dbffed4afca20cdabe7d79dfb962d03c45504f585606f",
          "transactionIndex": "0x0",
          "logIndex": "0x1",
          "removed": false
        },
        {
          "address": "0xa5f104f8f78d5ba9aec4a383c0927337fd4e997b",
          "topics": [
            "0xddf252ad1be2c89b69c2b068fc378daa952ba7f163c4a11628f55a4df523b3ef",
            "0x000000000000000000000000e3745c151fab59b0740f4312b2b027f07d096639",
            "0x000000000000000000000000c5adfc119364cfe2297e4414db04834d8702475b",
            "0x0000000000000000000000000000000000000000000000000000000000000137"
          ],
          "data": "0x",
          "blockHash": "0xaa50cbeedde68562d52e970d22c24172dabcc9ff0a07e4f4ebe984f5a2a5598b",
          "blockNumber": "0x17b8361",
          "blockTimestamp": "0x69f1ea27",
          "transactionHash": "0xc0c4cc85e9bc4270145dbffed4afca20cdabe7d79dfb962d03c45504f585606f",
          "transactionIndex": "0x0",
          "logIndex": "0x2",
          "removed": false
        },
        {
          "address": "0x8fa71914948544c60e3379064567dcf0e6564d27",
          "topics": [
            "0xc0ac3eb1e8caef05b202043f34de8e3173fab712167584f7a2a9f4c302bd0e9c",
            "0x3a4a38a40bc4baab7ad25d3b24f8a430911bd205986020cb20cc63849c4b1930",
            "0x000000000000000000000000a5f104f8f78d5ba9aec4a383c0927337fd4e997b",
            "0x0000000000000000000000000000000000000000000000000000000000000137"
          ],
          "data": "0x000000000000000000000000e3745c151fab59b0740f4312b2b027f07d096639000000000000000000000000c5adfc119364cfe2297e4414db04834d8702475b000000000000000000000000c02aaa39b223fe8d0a0e5c4f27ead9083c756cc2000000000000000000000000000000000000000000000000004380663abb8000",
          "blockHash": "0xaa50cbeedde68562d52e970d22c24172dabcc9ff0a07e4f4ebe984f5a2a5598b",
          "blockNumber": "0x17b8361",
          "blockTimestamp": "0x69f1ea27",
          "transactionHash": "0xc0c4cc85e9bc4270145dbffed4afca20cdabe7d79dfb962d03c45504f585606f",
          "transactionIndex": "0x0",
          "logIndex": "0x3",
          "removed": false
        }
      ],
      "logsBloom": "0x00000000000000000000010000000000000000000100000000000000000000000000000000000000000000000000000042000000080000000000000000100000000001000000000000010008000000000000000000000000080000000000000200000000000000000001000000000000000000000000000000000010200000000800000010040000000004000000000000000002000000000000000000000000000000210000004400000000000020000000000000000080000000000000000000000002000004000000000000000000000000000000000080000040000000000100200000000000000000000000000000000000000008002000000000000000",
      "type": "0x2",
      "transactionHash": "0xc0c4cc85e9bc4270145dbffed4afca20cdabe7d79dfb962d03c45504f585606f",
      "transactionIndex": "0x0",
      "blockHash": "0xaa50cbeedde68562d52e970d22c24172dabcc9ff0a07e4f4ebe984f5a2a5598b",
      "blockNumber": "0x17b8361",
      "gasUsed": "0x2011d",
      "effectiveGasPrice": "0x1ba81c",
      "blobGasPrice": "0x1",
      "from": "0xc5adfc119364cfe2297e4414db04834d8702475b",
      "to": "0x8fa71914948544c60e3379064567dcf0e6564d27",
      "contractAddress": null
    }
  ],
  "libraries": [],
  "pending": [],
  "returns": {},
  "timestamp": 1778506481530,
  "chain": 31337,
  "commit": "59e30a9"
}