{
  "transactions": [
    {
      "hash": "0xaccbf790a4e29e31f780c55a19a00d8fe42ca5de82e67be78ba75b8656a43808",
      "transactionType": "CALL",
      "contractName": null,
      "contractAddress": "0x8fa71914948544c60e3379064567dcf0e6564d27",
      "function": "settle((uint256,address),(uint8,bool,address,uint256,address,uint256,address,uint64,uint64,uint256),(uint8,bytes32,bytes32))",
      "arguments": [
        "(0, 0x08312E82df563A1639b81f49bb41247759700e30)",
        "(0, false, 0xA5f104F8f78d5ba9AEC4a383c0927337Fd4E997B, 463, 0xC02aaA39b223FE8D0A0e5C4F27eAD9083C756Cc2, 22000000000000000, 0x646dC5Fc4009C4C84a424B6aE0f494b374bAE1Ce, 1772460673, 1779713613, 21)",
        "(27, 0x49e90e36b6099b7036bca69468b6ff2faeb85b15e5db05b2e5a95f074a3ea47c, 0x4fb5d6ad2bbca2a51befac5cf55ff7af8f3af631ccd40b0279a95cdcf2d7e243)"
      ],
      "transaction": {
        "from": "0x08312e82df563a1639b81f49bb41247759700e30",
        "to": "0x8fa71914948544c60e3379064567dcf0e6564d27",
        "gas": "0x2c4bb",
        "value": "0x0",
        "input": "0x3bae3e79000000000000000000000000000000000000000000000000000000000000000000000000000000000000000008312e82df563a1639b81f49bb41247759700e3000000000000000000000000000000000000000000000000000000000000000000000000000000000000000000000000000000000000000000000000000000000000000000000000000000000a5f104f8f78d5ba9aec4a383c0927337fd4e997b00000000000000000000000000000000000000000000000000000000000001cf000000000000000000000000c02aaa39b223fe8d0a0e5c4f27ead9083c756cc2000000000000000000000000000000000000000000000000004e28e2290f0000000000000000000000000000646dc5fc4009c4c84a424b6ae0f494b374bae1ce0000000000000000000000000000000000000000000000000000000069a59a81000000000000000000000000000000000000000000000000000000006a14464d0000000000000000000000000000000000000000000000000000000000000015000000000000000000000000000000000000000000000000000000000000001b49e90e36b6099b7036bca69468b6ff2faeb85b15e5db05b2e5a95f074a3ea47c4fb5d6ad2bbca2a51befac5cf55ff7af8f3af631ccd40b0279a95cdcf2d7e243",
        "nonce": "0x44",
        "chainId": "0x7a69"
      },
      "additionalContracts": [],
      "isFixedGasLimit": false
    }
  ],
  "receipts": [
    {
      "status": "0x1",
      "cumulativeGasUsed": "0x2011d",
      "logs": [
        {
          "address": "0xc02aaa39b223fe8d0a0e5c4f27ead9083c756cc2",
          "topics": [
            "0xddf252ad1be2c89b69c2b068fc378daa952ba7f163c4a11628f55a4df523b3ef",
            "0x00000000000000000000000008312e82df563a1639b81f49bb41247759700e30",
            "0x0000000000000000000000001804c8ab1f12e6bbf3894d4083f33e07309d1f38"
          ],
          "data": "0x0000000000000000000000000000000000000000000000000000c816bdd9c000",
          "blockHash": "0xad7dd0bf08b17e256799e059edee65035e47325c1a9047670fd794752e410d81",
          "blockNumber": "0x17b839c",
          "blockTimestamp": "0x69ff2f0e",
          "transactionHash": "0xaccbf790a4e29e31f780c55a19a00d8fe42ca5de82e67be78ba75b8656a43808",
          "transactionIndex": "0x0",
          "logIndex": "0x0",
          "removed": false
        },
        {
          "address": "0xc02aaa39b223fe8d0a0e5c4f27ead9083c756cc2",
          "topics": [
            "0xddf252ad1be2c89b69c2b068fc378daa952ba7f163c4a11628f55a4df523b3ef",
            "0x00000000000000000000000008312e82df563a1639b81f49bb41247759700e30",
            "0x000000000000000000000000646dc5fc4009c4c84a424b6ae0f494b374bae1ce"
          ],
          "data": "0x000000000000000000000000000000000000000000000000004d60cb6b354000",
          "blockHash": "0xad7dd0bf08b17e256799e059edee65035e47325c1a9047670fd794752e410d81",
          "blockNumber": "0x17b839c",
          "blockTimestamp": "0x69ff2f0e",
          "transactionHash": "0xaccbf790a4e29e31f780c55a19a00d8fe42ca5de82e67be78ba75b8656a43808",
          "transactionIndex": "0x0",
          "logIndex": "0x1",
          "removed": false
        },
        {
          "address": "0xa5f104f8f78d5ba9aec4a383c0927337fd4e997b",
          "topics": [
            "0xddf252ad1be2c89b69c2b068fc378daa952ba7f163c4a11628f55a4df523b3ef",
            "0x000000000000000000000000646dc5fc4009c4c84a424b6ae0f494b374bae1ce",
            "0x00000000000000000000000008312e82df563a1639b81f49bb41247759700e30",
            "0x00000000000000000000000000000000000000000000000000000000000001cf"
          ],
          "data": "0x",
          "blockHash": "0xad7dd0bf08b17e256799e059edee65035e47325c1a9047670fd794752e410d81",
          "blockNumber": "0x17b839c",
          "blockTimestamp": "0x69ff2f0e",
          "transactionHash": "0xaccbf790a4e29e31f780c55a19a00d8fe42ca5de82e67be78ba75b8656a43808",
          "transactionIndex": "0x0",
          "logIndex": "0x2",
          "removed": false
        },
        {
          "address": "0x8fa71914948544c60e3379064567dcf0e6564d27",
          "topics": [
            "0xc0ac3eb1e8caef05b202043f34de8e3173fab712167584f7a2a9f4c302bd0e9c",
            "0x235d1dd212f87c149c96b691941328944c83c59eb4fb66d95554ba57c1d63e8b",
            "0x000000000000000000000000a5f104f8f78d5ba9aec4a383c0927337fd4e997b",
            "0x00000000000000000000000000000000000000000000000000000000000001cf"
          ],
          "data": "0x000000000000000000000000646dc5fc4009c4c84a424b6ae0f494b374bae1ce00000000000000000000000008312e82df563a1639b81f49bb41247759700e30000000000000000000000000c02aaa39b223fe8d0a0e5c4f27ead9083c756cc2000000000000000000000000000000000000000000000000004e28e2290f0000",
          "blockHash": "0xad7dd0bf08b17e256799e059edee65035e47325c1a9047670fd794752e410d81",
          "blockNumber": "0x17b839c",
          "blockTimestamp": "0x69ff2f0e",
          "transactionHash": "0xaccbf790a4e29e31f780c55a19a00d8fe42ca5de82e67be78ba75b8656a43808",
          "transactionIndex": "0x0",
          "logIndex": "0x3",
          "removed": false
        }
      ],
      "logsBloom": "0x00000000000000000000010001000000000000000002000000000000000000000000000000100000000000000000000002000000090000000000000000100000000002000000000000010008000000000000000000000000080000000000000000080000000000000005000000000000000000000000000000000010200000000800000000040008000004000000000000000000080000000000000000000000000000200000000400000000000000000000000000000080000000000000000000000002000004000000000000000000000000000000000090000000000000000100200000000000000000000000000000000000004000080000000000000000",
      "type": "0x2",
      "transactionHash": "0xaccbf790a4e29e31f780c55a19a00d8fe42ca5de82e67be78ba75b8656a43808",
      "transactionIndex": "0x0",
      "blockHash": "0xad7dd0bf08b17e256799e059edee65035e47325c1a9047670fd794752e410d81",
      "blockNumber": "0x17b839c",
      "gasUsed": "0x2011d",
      "effectiveGasPrice": "0x1ba81c",
      "blobGasPrice": "0x1",
      "from": "0x08312e82df563a1639b81f49bb41247759700e30",
      "to": "0x8fa71914948544c60e3379064567dcf0e6564d27",
      "contractAddress": null
    }
  ],
  "libraries": [],
  "pending": [],
  "returns": {},
  "timestamp": 1778506545788,
  "chain": 31337,
  "commit": "59e30a9"
}