{
  "transactions": [
    {
      "hash": "0x74885abbffb1c1df58d597a723bd077c131a6d9bd940e1558793b67e43316042",
      "transactionType": "CALL",
      "contractName": null,
      "contractAddress": "0x73973d222c3fda5b2563d269da9e19cb125000f4",
      "function": "settle((uint256,address),(uint8,bool,address,uint256,address,uint256,address,uint64,uint64,uint256),(uint8,bytes32,bytes32))",
      "arguments": [
        "(0, 0x2c2dbA75492E0C4A1D10B41303167aEC59586C9c)",
        "(0, false, 0x38D4dE42C9c5640A2799B372D27B01957E0a3673, 395, 0xC02aaA39b223FE8D0A0e5C4F27eAD9083C756Cc2, 179000000000000000, 0xe3745C151faB59B0740f4312b2B027F07D096639, 1771622844, 1780442794, 3)",
        "(28, 0xb62ae7c669798bdb8445e328979dc25fe9bdf7473047d82ce7bc1af4a4e6bdec, 0x71eb48082c302e00010a55408e34497658420dbb498e88e0ef51c5e54880e5b9)"
      ],
      "transaction": {
        "from": "0x2c2dba75492e0c4a1d10b41303167aec59586c9c",
        "to": "0x73973d222c3fda5b2563d269da9e19cb125000f4",
        "gas": "0x2c4e8",
        "value": "0x0",
        "input": "0x3bae3e7900000000000000000000000000000000000000000000000000000000000000000000000000000000000000002c2dba75492e0c4a1d10b41303167aec59586c9c0000000000000000000000000000000000000000000000000000000000000000000000000000000000000000000000000000000000000000000000000000000000000000000000000000000038d4de42c9c5640a2799b372d27b01957e0a3673000000000000000000000000000000000000000000000000000000000000018b000000000000000000000000c02aaa39b223fe8d0a0e5c4f27ead9083c756cc2000000000000000000000000000000000000000000000000027bef8d36cb8000000000000000000000000000e3745c151fab59b0740f4312b2b027f07d096639000000000000000000000000000000000000000000000000000000006998d1bc000000000000000000000000000000000000000000000000000000006a1f66aa0000000000000000000000000000000000000000000000000000000000000003000000000000000000000000000000000000000000000000000000000000001cb62ae7c669798bdb8445e328979dc25fe9bdf7473047d82ce7bc1af4a4e6bdec71eb48082c302e00010a55408e34497658420dbb498e88e0ef51c5e54880e5b9",
        "nonce": "0x6a",
        "chainId": "0x7a69"
      },
      "additionalContracts": [],
      "isFixedGasLimit": false
    }
  ],
  "receipts": [
    {
      "status": "0x1",
      "cumulativeGasUsed": "0x2013d",
      "logs": [
        {
          "address": "0xc02aaa39b223fe8d0a0e5c4f27ead9083c756cc2",
          "topics": [
            "0xddf252ad1be2c89b69c2b068fc378daa952ba7f163c4a11628f55a4df523b3ef",
            "0x0000000000000000000000002c2dba75492e0c4a1d10b41303167aec59586c9c",
            "0x0000000000000000000000001804c8ab1f12e6bbf3894d4083f33e07309d1f38"
          ],
          "data": "0x00000000000000000000000000000000000000000000000000065bfeda25e000",
          "blockHash": "0xf4b728ed03eff7e3cf9f914dab0c06b67f2b659730873985e4219d409767f9a4",
          "blockNumber": "0x17b73b6",
          "blockTimestamp": "0x69e4fcbb",
          "transactionHash": "0x74885abbffb1c1df58d597a723bd077c131a6d9bd940e1558793b67e43316042",
          "transactionIndex": "0x0",
          "logIndex": "0x0",
          "removed": false
        },
        {
          "address": "0xc02aaa39b223fe8d0a0e5c4f27ead9083c756cc2",
          "topics": [
            "0xddf252ad1be2c89b69c2b068fc378daa952ba7f163c4a11628f55a4df523b3ef",
            "0x0000000000000000000000002c2dba75492e0c4a1d10b41303167aec59586c9c",
            "0x000000000000000000000000e3745c151fab59b0740f4312b2b027f07d096639"
          ],
          "data": "0x0000000000000000000000000000000000000000000000000275938e5ca5a000",
          "blockHash": "0xf4b728ed03eff7e3cf9f914dab0c06b67f2b659730873985e4219d409767f9a4",
          "blockNumber": "0x17b73b6",
          "blockTimestamp": "0x69e4fcbb",
          "transactionHash": "0x74885abbffb1c1df58d597a723bd077c131a6d9bd940e1558793b67e43316042",
          "transactionIndex": "0x0",
          "logIndex": "0x1",
          "removed": false
        },
        {
          "address": "0x38d4de42c9c5640a2799b372d27b01957e0a3673",
          "topics": [
            "0xddf252ad1be2c89b69c2b068fc378daa952ba7f163c4a11628f55a4df523b3ef",
            "0x000000000000000000000000e3745c151fab59b0740f4312b2b027f07d096639",
            "0x0000000000000000000000002c2dba75492e0c4a1d10b41303167aec59586c9c",
            "0x000000000000000000000000000000000000000000000000000000000000018b"
          ],
          "data": "0x",
          "blockHash": "0xf4b728ed03eff7e3cf9f914dab0c06b67f2b659730873985e4219d409767f9a4",
          "blockNumber": "0x17b73b6",
          "blockTimestamp": "0x69e4fcbb",
          "transactionHash": "0x74885abbffb1c1df58d597a723bd077c131a6d9bd940e1558793b67e43316042",
          "transactionIndex": "0x0",
          "logIndex": "0x2",
          "removed": false
        },
        {
          "address": "0x73973d222c3fda5b2563d269da9e19cb125000f4",
          "topics": [
            "0xc0ac3eb1e8caef05b202043f34de8e3173fab712167584f7a2a9f4c302bd0e9c",
            "0x321e9678d542f95584e6958ca8504c2be95829bba1d6b5511f25cf48518854a6",
            "0x00000000000000000000000038d4de42c9c5640a2799b372d27b01957e0a3673",
            "0x000000000000000000000000000000000000000000000000000000000000018b"
          ],
          "data": "0x000000000000000000000000e3745c151fab59b0740f4312b2b027f07d0966390000000000000000000000002c2dba75492e0c4a1d10b41303167aec59586c9c000000000000000000000000c02aaa39b223fe8d0a0e5c4f27ead9083c756cc2000000000000000000000000000000000000000000000000027bef8d36cb8000",
          "blockHash": "0xf4b728ed03eff7e3cf9f914dab0c06b67f2b659730873985e4219d409767f9a4",
          "blockNumber": "0x17b73b6",
          "blockTimestamp": "0x69e4fcbb",
          "transactionHash": "0x74885abbffb1c1df58d597a723bd077c131a6d9bd940e1558793b67e43316042",
          "transactionIndex": "0x0",
          "logIndex": "0x3",
          "removed": false
        }
      ],
      "logsBloom": "0x00000000000000000000000000000000000000000102000000000000000000000000000000000000000000000000020042000000080000000004100800100000000200000000001021000008000000000000000000000000000000000000000000000000000004000011000000000000000000000000000000000010000000000000000000000000002004000000000000000000000008000000000000000000000000000000000000000000000000000800008000000080400000000000000000000002000004000000080000000000000000000000000000000040000000000100200000000000000000000000000000000000000000000000000000010000",
      "type": "0x2",
      "transactionHash": "0x74885abbffb1c1df58d597a723bd077c131a6d9bd940e1558793b67e43316042",
      "transactionIndex": "0x0",
      "blockHash": "0xf4b728ed03eff7e3cf9f914dab0c06b67f2b659730873985e4219d409767f9a4",
      "blockNumber": "0x17b73b6",
      "gasUsed": "0x2013d",
      "effectiveGasPrice": "0xf4248",
      "blobGasPrice": "0x1",
      "from": "0x2c2dba75492e0c4a1d10b41303167aec59586c9c",
      "to": "0x73973d222c3fda5b2563d269da9e19cb125000f4",
      "contractAddress": null
    }
  ],
  "libraries": [],
  "pending": [],
  "returns": {},
  "timestamp": 1778453724884,
  "chain": 31337,
  "commit": "f87d399"
}