{
  "transactions": [
    {
      "hash": "0xbbc3f18a1d9208fbb233658c53a0c7bcfdf54d91caadca1214064d710b71a083",
      "transactionType": "CALL",
      "contractName": null,
      "contractAddress": "0x8fa71914948544c60e3379064567dcf0e6564d27",
      "function": "settle((uint256,address),(uint8,bool,address,uint256,address,uint256,address,uint64,uint64,uint256),(uint8,bytes32,bytes32))",
      "arguments": [
        "(0, 0x646dC5Fc4009C4C84a424B6aE0f494b374bAE1Ce)",
        "(0, false, 0xA5f104F8f78d5ba9AEC4a383c0927337Fd4E997B, 72, 0xC02aaA39b223FE8D0A0e5C4F27eAD9083C756Cc2, 50000000000000000, 0xE233420d38D286C2F2Cf8dEe6564F132FBDB09DB, 1773021162, 1779153124, 4)",
        "(27, 0x4eeda87940d00ad1d1508f5d577e5a9ea0e7138a384a56927a2db3d935d86e34, 0x23effa309960146bf21003f58f264d94e912691063711da15dc50048ca5a37a9)"
      ],
      "transaction": {
        "from": "0x646dc5fc4009c4c84a424b6ae0f494b374bae1ce",
        "to": "0x8fa71914948544c60e3379064567dcf0e6564d27",
        "gas": "0x2c49b",
        "value": "0x0",
        "input": "0x3bae3e790000000000000000000000000000000000000000000000000000000000000000000000000000000000000000646dc5fc4009c4c84a424b6ae0f494b374bae1ce00000000000000000000000000000000000000000000000000000000000000000000000000000000000000000000000000000000000000000000000000000000000000000000000000000000a5f104f8f78d5ba9aec4a383c0927337fd4e997b0000000000000000000000000000000000000000000000000000000000000048000000000000000000000000c02aaa39b223fe8d0a0e5c4f27ead9083c756cc200000000000000000000000000000000000000000000000000b1a2bc2ec50000000000000000000000000000e233420d38d286c2f2cf8dee6564f132fbdb09db0000000000000000000000000000000000000000000000000000000069ae27ea000000000000000000000000000000000000000000000000000000006a0bb8e40000000000000000000000000000000000000000000000000000000000000004000000000000000000000000000000000000000000000000000000000000001b4eeda87940d00ad1d1508f5d577e5a9ea0e7138a384a56927a2db3d935d86e3423effa309960146bf21003f58f264d94e912691063711da15dc50048ca5a37a9",
        "nonce": "0x52",
        "chainId": "0x7a69"
      },
      "additionalContracts": [],
      "isFixedGasLimit": false
    }
  ],
  "receipts": [
    {
      "status": "0x1",
      "cumulativeGasUsed": "0x20105",
      "logs": [
        {
          "address": "0xc02aaa39b223fe8d0a0e5c4f27ead9083c756cc2",
          "topics": [
            "0xddf252ad1be2c89b69c2b068fc378daa952ba7f163c4a11628f55a4df523b3ef",
            "0x000000000000000000000000646dc5fc4009c4c84a424b6ae0f494b374bae1ce",
            "0x0000000000000000000000001804c8ab1f12e6bbf3894d4083f33e07309d1f38"
          ],
          "data": "0x0000000000000000000000000000000000000000000000000001c6bf52634000",
          "blockHash": "0xebfc2ec3226fb3a45fe6d1141e5aa0a88382b6a6f3852a2eed415a69d2be9e3d",
          "blockNumber": "0x17b8345",
          "blockTimestamp": "0x69eb0dfa",
          "transactionHash": "0xbbc3f18a1d9208fbb233658c53a0c7bcfdf54d91caadca1214064d710b71a083",
          "transactionIndex": "0x0",
          "logIndex": "0x0",
          "removed": false
        },
        {
          "address": "0xc02aaa39b223fe8d0a0e5c4f27ead9083c756cc2",
          "topics": [
            "0xddf252ad1be2c89b69c2b068fc378daa952ba7f163c4a11628f55a4df523b3ef",
            "0x000000000000000000000000646dc5fc4009c4c84a424b6ae0f494b374bae1ce",
            "0x000000000000000000000000e233420d38d286c2f2cf8dee6564f132fbdb09db"
          ],
          "data": "0x00000000000000000000000000000000000000000000000000afdbfcdc61c000",
          "blockHash": "0xebfc2ec3226fb3a45fe6d1141e5aa0a88382b6a6f3852a2eed415a69d2be9e3d",
          "blockNumber": "0x17b8345",
          "blockTimestamp": "0x69eb0dfa",
          "transactionHash": "0xbbc3f18a1d9208fbb233658c53a0c7bcfdf54d91caadca1214064d710b71a083",
          "transactionIndex": "0x0",
          "logIndex": "0x1",
          "removed": false
        },
        {
          "address": "0xa5f104f8f78d5ba9aec4a383c0927337fd4e997b",
          "topics": [
            "0xddf252ad1be2c89b69c2b068fc378daa952ba7f163c4a11628f55a4df523b3ef",
            "0x000000000000000000000000e233420d38d286c2f2cf8dee6564f132fbdb09db",
            "0x000000000000000000000000646dc5fc4009c4c84a424b6ae0f494b374bae1ce",
            "0x0000000000000000000000000000000000000000000000000000000000000048"
          ],
          "data": "0x",
          "blockHash": "0xebfc2ec3226fb3a45fe6d1141e5aa0a88382b6a6f3852a2eed415a69d2be9e3d",
          "blockNumber": "0x17b8345",
          "blockTimestamp": "0x69eb0dfa",
          "transactionHash": "0xbbc3f18a1d9208fbb233658c53a0c7bcfdf54d91caadca1214064d710b71a083",
          "transactionIndex": "0x0",
          "logIndex": "0x2",
          "removed": false
        },
        {
          "address": "0x8fa71914948544c60e3379064567dcf0e6564d27",
          "topics": [
            "0xc0ac3eb1e8caef05b202043f34de8e3173fab712167584f7a2a9f4c302bd0e9c",
            "0x5f5aa9b55a7eb983f1f07b06253ed3c33f7e4c0103e3d834106682f66b287d4b",
            "0x000000000000000000000000a5f104f8f78d5ba9aec4a383c0927337fd4e997b",
            "0x0000000000000000000000000000000000000000000000000000000000000048"
          ],
          "data": "0x000000000000000000000000e233420d38d286c2f2cf8dee6564f132fbdb09db000000000000000000000000646dc5fc4009c4c84a424b6ae0f494b374bae1ce000000000000000000000000c02aaa39b223fe8d0a0e5c4f27ead9083c756cc200000000000000000000000000000000000000000000000000b1a2bc2ec50000",
          "blockHash": "0xebfc2ec3226fb3a45fe6d1141e5aa0a88382b6a6f3852a2eed415a69d2be9e3d",
          "blockNumber": "0x17b8345",
          "blockTimestamp": "0x69eb0dfa",
          "transactionHash": "0xbbc3f18a1d9208fbb233658c53a0c7bcfdf54d91caadca1214064d710b71a083",
          "transactionIndex": "0x0",
          "logIndex": "0x3",
          "removed": false
        }
      ],
      "logsBloom": "0x00000000000000002000010000000000000080000002000000000000000000000000000000000000000000000000000002000000090000000000000000100000000000000000000000010008000000000000000000000000080000000000001000000001000000000005000000100000000000000000000000000010200000000800000000040000000004000000000000000000000000000000000000000000000000200000000400000000080000000000000000000080000000000000000000000012000004000000000000000000000000000042000080000000000000000100200000000000000000000000000000000000000000000000000000000000",
      "type": "0x2",
      "transactionHash": "0xbbc3f18a1d9208fbb233658c53a0c7bcfdf54d91caadca1214064d710b71a083",
      "transactionIndex": "0x0",
      "blockHash": "0xebfc2ec3226fb3a45fe6d1141e5aa0a88382b6a6f3852a2eed415a69d2be9e3d",
      "blockNumber": "0x17b8345",
      "gasUsed": "0x20105",
      "effectiveGasPrice": "0x1ba81c",
      "blobGasPrice": "0x1",
      "from": "0x646dc5fc4009c4c84a424b6ae0f494b374bae1ce",
      "to": "0x8fa71914948544c60e3379064567dcf0e6564d27",
      "contractAddress": null
    }
  ],
  "libraries": [],
  "pending": [],
  "returns": {},
  "timestamp": 1778506446992,
  "chain": 31337,
  "commit": "59e30a9"
}