{
  "transactions": [
    {
      "hash": "0x7f958d899986ade0184fec539041a8cc670c0142ef5348f999441b078c6dabaf",
      "transactionType": "CALL",
      "contractName": null,
      "contractAddress": "0x8fa71914948544c60e3379064567dcf0e6564d27",
      "function": "settle((uint256,address),(uint8,bool,address,uint256,address,uint256,address,uint64,uint64,uint256),(uint8,bytes32,bytes32))",
      "arguments": [
        "(0, 0xc5aDfC119364CFE2297e4414dB04834d8702475B)",
        "(0, false, 0xA5f104F8f78d5ba9AEC4a383c0927337Fd4E997B, 318, 0xC02aaA39b223FE8D0A0e5C4F27eAD9083C756Cc2, 51000000000000000, 0xE233420d38D286C2F2Cf8dEe6564F132FBDB09DB, 1772754044, 1779309218, 2)",
        "(27, 0x8c567d659f3dc2b804cdb7bd5ac0595c8ccbb2f664c9598f7814cb3585c49967, 0x3d85598b78fc6dc728914895d91c96c36e91380a0be309ce228e6ec8ac91a755)"
      ],
      "transaction": {
        "from": "0xc5adfc119364cfe2297e4414db04834d8702475b",
        "to": "0x8fa71914948544c60e3379064567dcf0e6564d27",
        "gas": "0x2ee7f",
        "value": "0x0",
        "input": "0x3bae3e790000000000000000000000000000000000000000000000000000000000000000000000000000000000000000c5adfc119364cfe2297e4414db04834d8702475b00000000000000000000000000000000000000000000000000000000000000000000000000000000000000000000000000000000000000000000000000000000000000000000000000000000a5f104f8f78d5ba9aec4a383c0927337fd4e997b000000000000000000000000000000000000000000000000000000000000013e000000000000000000000000c02aaa39b223fe8d0a0e5c4f27ead9083c756cc200000000000000000000000000000000000000000000000000b5303ad38b8000000000000000000000000000e233420d38d286c2f2cf8dee6564f132fbdb09db0000000000000000000000000000000000000000000000000000000069aa147c000000000000000000000000000000000000000000000000000000006a0e1aa20000000000000000000000000000000000000000000000000000000000000002000000000000000000000000000000000000000000000000000000000000001b8c567d659f3dc2b804cdb7bd5ac0595c8ccbb2f664c9598f7814cb3585c499673d85598b78fc6dc728914895d91c96c36e91380a0be309ce228e6ec8ac91a755",
        "nonce": "0x36",
        "chainId": "0x7a69"
      },
      "additionalContracts": [],
      "isFixedGasLimit": false
    }
  ],
  "receipts": [
    {
      "status": "0x1",
      "cumulativeGasUsed": "0x20129",
      "logs": [
        {
          "address": "0xc02aaa39b223fe8d0a0e5c4f27ead9083c756cc2",
          "topics": [
            "0xddf252ad1be2c89b69c2b068fc378daa952ba7f163c4a11628f55a4df523b3ef",
            "0x000000000000000000000000c5adfc119364cfe2297e4414db04834d8702475b",
            "0x0000000000000000000000001804c8ab1f12e6bbf3894d4083f33e07309d1f38"
          ],
          "data": "0x0000000000000000000000000000000000000000000000000001cfd7a0d5e000",
          "blockHash": "0xda9ee3fb2d78222ca6686b758ad64e2c893c051b5f900df92f11dbb247ca929d",
          "blockNumber": "0x17b711b",
          "blockTimestamp": "0x69df82ca",
          "transactionHash": "0x7f958d899986ade0184fec539041a8cc670c0142ef5348f999441b078c6dabaf",
          "transactionIndex": "0x0",
          "logIndex": "0x0",
          "removed": false
        },
        {
          "address": "0xc02aaa39b223fe8d0a0e5c4f27ead9083c756cc2",
          "topics": [
            "0xddf252ad1be2c89b69c2b068fc378daa952ba7f163c4a11628f55a4df523b3ef",
            "0x000000000000000000000000c5adfc119364cfe2297e4414db04834d8702475b",
            "0x000000000000000000000000e233420d38d286c2f2cf8dee6564f132fbdb09db"
          ],
          "data": "0x00000000000000000000000000000000000000000000000000b3606332b5a000",
          "blockHash": "0xda9ee3fb2d78222ca6686b758ad64e2c893c051b5f900df92f11dbb247ca929d",
          "blockNumber": "0x17b711b",
          "blockTimestamp": "0x69df82ca",
          "transactionHash": "0x7f958d899986ade0184fec539041a8cc670c0142ef5348f999441b078c6dabaf",
          "transactionIndex": "0x0",
          "logIndex": "0x1",
          "removed": false
        },
        {
          "address": "0xa5f104f8f78d5ba9aec4a383c0927337fd4e997b",
          "topics": [
            "0xddf252ad1be2c89b69c2b068fc378daa952ba7f163c4a11628f55a4df523b3ef",
            "0x000000000000000000000000e233420d38d286c2f2cf8dee6564f132fbdb09db",
            "0x000000000000000000000000c5adfc119364cfe2297e4414db04834d8702475b",
            "0x000000000000000000000000000000000000000000000000000000000000013e"
          ],
          "data": "0x",
          "blockHash": "0xda9ee3fb2d78222ca6686b758ad64e2c893c051b5f900df92f11dbb247ca929d",
          "blockNumber": "0x17b711b",
          "blockTimestamp": "0x69df82ca",
          "transactionHash": "0x7f958d899986ade0184fec539041a8cc670c0142ef5348f999441b078c6dabaf",
          "transactionIndex": "0x0",
          "logIndex": "0x2",
          "removed": false
        },
        {
          "address": "0x8fa71914948544c60e3379064567dcf0e6564d27",
          "topics": [
            "0xc0ac3eb1e8caef05b202043f34de8e3173fab712167584f7a2a9f4c302bd0e9c",
            "0x8f4423c2fe30610cf107316a7db320e6fac3424659c6283c1dd1ca0522d81df7",
            "0x000000000000000000000000a5f104f8f78d5ba9aec4a383c0927337fd4e997b",
            "0x000000000000000000000000000000000000000000000000000000000000013e"
          ],
          "data": "0x000000000000000000000000e233420d38d286c2f2cf8dee6564f132fbdb09db000000000000000000000000c5adfc119364cfe2297e4414db04834d8702475b000000000000000000000000c02aaa39b223fe8d0a0e5c4f27ead9083c756cc200000000000000000000000000000000000000000000000000b5303ad38b8000",
          "blockHash": "0xda9ee3fb2d78222ca6686b758ad64e2c893c051b5f900df92f11dbb247ca929d",
          "blockNumber": "0x17b711b",
          "blockTimestamp": "0x69df82ca",
          "transactionHash": "0x7f958d899986ade0184fec539041a8cc670c0142ef5348f999441b078c6dabaf",
          "transactionIndex": "0x0",
          "logIndex": "0x3",
          "removed": false
        }
      ],
      "logsBloom": "0x00000000000000000000010000000000000000000000000000000000000000000000000000000000000000000000000002000000080000000000000000100000000000000000000000010008000000000000000000000000080000000000000200000001000000000001000000000004000000000000400000000010200000000800000000040004000004000000000000000000000000000000000000000000000000200000000400000000000020000000000000000080000000000000000000000012000004000000000000000000000000000002000080000000000000008100200000000000000000000040000000000080000000002000000000000000",
      "type": "0x2",
      "transactionHash": "0x7f958d899986ade0184fec539041a8cc670c0142ef5348f999441b078c6dabaf",
      "transactionIndex": "0x0",
      "blockHash": "0xda9ee3fb2d78222ca6686b758ad64e2c893c051b5f900df92f11dbb247ca929d",
      "blockNumber": "0x17b711b",
      "gasUsed": "0x20129",
      "effectiveGasPrice": "0x154c2b",
      "blobGasPrice": "0x1",
      "from": "0xc5adfc119364cfe2297e4414db04834d8702475b",
      "to": "0x8fa71914948544c60e3379064567dcf0e6564d27",
      "contractAddress": null
    }
  ],
  "libraries": [],
  "pending": [],
  "returns": {},
  "timestamp": 1778450905961,
  "chain": 31337,
  "commit": "f87d399"
}