{
  "transactions": [
    {
      "hash": "0xac7d01fa93b72fa96778396eb546debf101b19ba9da911ee79bf6d10f2d3696d",
      "transactionType": "CALL",
      "contractName": null,
      "contractAddress": "0x8fa71914948544c60e3379064567dcf0e6564d27",
      "function": "settle((uint256,address),(uint8,bool,address,uint256,address,uint256,address,uint64,uint64,uint256),(uint8,bytes32,bytes32))",
      "arguments": [
        "(225, 0xa382b0E75C192D9CDF5c084E58b750Cea7761Bd0)",
        "(1, false, 0xA5f104F8f78d5ba9AEC4a383c0927337Fd4E997B, 225, 0xC02aaA39b223FE8D0A0e5C4F27eAD9083C756Cc2, 1128000000000000000, 0x08312E82df563A1639b81f49bb41247759700e30, 1772144500, 1780029786, 22)",
        "(28, 0x2c8258da596a2717dc01573b8204b75da22b8061793fe79ba87bbcf8da493751, 0x066ed165e2c7564129f829803b7ffcbf049a0acc62e7fb9da75737cbcbc61216)"
      ],
      "transaction": {
        "from": "0xa382b0e75c192d9cdf5c084e58b750cea7761bd0",
        "to": "0x8fa71914948544c60e3379064567dcf0e6564d27",
        "gas": "0x2c5dc",
        "value": "0x0",
        "input": "0x3bae3e7900000000000000000000000000000000000000000000000000000000000000e1000000000000000000000000a382b0e75c192d9cdf5c084e58b750cea7761bd000000000000000000000000000000000000000000000000000000000000000010000000000000000000000000000000000000000000000000000000000000000000000000000000000000000a5f104f8f78d5ba9aec4a383c0927337fd4e997b00000000000000000000000000000000000000000000000000000000000000e1000000000000000000000000c02aaa39b223fe8d0a0e5c4f27ead9083c756cc20000000000000000000000000000000000000000000000000fa776060aa4000000000000000000000000000008312e82df563a1639b81f49bb41247759700e300000000000000000000000000000000000000000000000000000000069a0c774000000000000000000000000000000000000000000000000000000006a19195a0000000000000000000000000000000000000000000000000000000000000016000000000000000000000000000000000000000000000000000000000000001c2c8258da596a2717dc01573b8204b75da22b8061793fe79ba87bbcf8da493751066ed165e2c7564129f829803b7ffcbf049a0acc62e7fb9da75737cbcbc61216",
        "nonce": "0x2e",
        "chainId": "0x7a69"
      },
      "additionalContracts": [],
      "isFixedGasLimit": false
    }
  ],
  "receipts": [
    {
      "status": "0x1",
      "cumulativeGasUsed": "0x201ee",
      "logs": [
        {
          "address": "0xc02aaa39b223fe8d0a0e5c4f27ead9083c756cc2",
          "topics": [
            "0xddf252ad1be2c89b69c2b068fc378daa952ba7f163c4a11628f55a4df523b3ef",
            "0x00000000000000000000000008312e82df563a1639b81f49bb41247759700e30",
            "0x0000000000000000000000001804c8ab1f12e6bbf3894d4083f33e07309d1f38"
          ],
          "data": "0x00000000000000000000000000000000000000000000000000281319a9110000",
          "blockHash": "0x51b16f583daa52b2721f49a02df8ab19efe8403ce5c53db8ca60889c7db0dabd",
          "blockNumber": "0x17b83a1",
          "blockTimestamp": "0x6a0065ea",
          "transactionHash": "0xac7d01fa93b72fa96778396eb546debf101b19ba9da911ee79bf6d10f2d3696d",
          "transactionIndex": "0x0",
          "logIndex": "0x0",
          "removed": false
        },
        {
          "address": "0xc02aaa39b223fe8d0a0e5c4f27ead9083c756cc2",
          "topics": [
            "0xddf252ad1be2c89b69c2b068fc378daa952ba7f163c4a11628f55a4df523b3ef",
            "0x00000000000000000000000008312e82df563a1639b81f49bb41247759700e30",
            "0x000000000000000000000000a382b0e75c192d9cdf5c084e58b750cea7761bd0"
          ],
          "data": "0x0000000000000000000000000000000000000000000000000f7f62ec61930000",
          "blockHash": "0x51b16f583daa52b2721f49a02df8ab19efe8403ce5c53db8ca60889c7db0dabd",
          "blockNumber": "0x17b83a1",
          "blockTimestamp": "0x6a0065ea",
          "transactionHash": "0xac7d01fa93b72fa96778396eb546debf101b19ba9da911ee79bf6d10f2d3696d",
          "transactionIndex": "0x0",
          "logIndex": "0x1",
          "removed": false
        },
        {
          "address": "0xa5f104f8f78d5ba9aec4a383c0927337fd4e997b",
          "topics": [
            "0xddf252ad1be2c89b69c2b068fc378daa952ba7f163c4a11628f55a4df523b3ef",
            "0x000000000000000000000000a382b0e75c192d9cdf5c084e58b750cea7761bd0",
            "0x00000000000000000000000008312e82df563a1639b81f49bb41247759700e30",
            "0x00000000000000000000000000000000000000000000000000000000000000e1"
          ],
          "data": "0x",
          "blockHash": "0x51b16f583daa52b2721f49a02df8ab19efe8403ce5c53db8ca60889c7db0dabd",
          "blockNumber": "0x17b83a1",
          "blockTimestamp": "0x6a0065ea",
          "transactionHash": "0xac7d01fa93b72fa96778396eb546debf101b19ba9da911ee79bf6d10f2d3696d",
          "transactionIndex": "0x0",
          "logIndex": "0x2",
          "removed": false
        },
        {
          "address": "0x8fa71914948544c60e3379064567dcf0e6564d27",
          "topics": [
            "0xc0ac3eb1e8caef05b202043f34de8e3173fab712167584f7a2a9f4c302bd0e9c",
            "0x7d1e673ebaa38e77af5c2209431f2ae68698521cf05c128464c06abd240f4850",
            "0x000000000000000000000000a5f104f8f78d5ba9aec4a383c0927337fd4e997b",
            "0x00000000000000000000000000000000000000000000000000000000000000e1"
          ],
          "data": "0x000000000000000000000000a382b0e75c192d9cdf5c084e58b750cea7761bd000000000000000000000000008312e82df563a1639b81f49bb41247759700e30000000000000000000000000c02aaa39b223fe8d0a0e5c4f27ead9083c756cc20000000000000000000000000000000000000000000000000fa776060aa40000",
          "blockHash": "0x51b16f583daa52b2721f49a02df8ab19efe8403ce5c53db8ca60889c7db0dabd",
          "blockNumber": "0x17b83a1",
          "blockTimestamp": "0x6a0065ea",
          "transactionHash": "0xac7d01fa93b72fa96778396eb546debf101b19ba9da911ee79bf6d10f2d3696d",
          "transactionIndex": "0x0",
          "logIndex": "0x3",
          "removed": false
        }
      ],
      "logsBloom": "0x00000000000000000000010001000000000000000000000000000000000000002000000000100000000000000000000002000000080000000000000000100000000000000000000000090008000000000000000000000000080000000000000080000000000000000001000001000000000000000001040000000010200000000800000000040000000004000000000000100000000000000000000000000000000000200000000400000000000000000000000000000080000000000000000000000002000004000000000000000000000000000000000080000000000000000100200000000000000000000000000000000000104000000000000000000000",
      "type": "0x2",
      "transactionHash": "0xac7d01fa93b72fa96778396eb546debf101b19ba9da911ee79bf6d10f2d3696d",
      "transactionIndex": "0x0",
      "blockHash": "0x51b16f583daa52b2721f49a02df8ab19efe8403ce5c53db8ca60889c7db0dabd",
      "blockNumber": "0x17b83a1",
      "gasUsed": "0x201ee",
      "effectiveGasPrice": "0x1ba81c",
      "blobGasPrice": "0x1",
      "from": "0xa382b0e75c192d9cdf5c084e58b750cea7761bd0",
      "to": "0x8fa71914948544c60e3379064567dcf0e6564d27",
      "contractAddress": null
    }
  ],
  "libraries": [],
  "pending": [],
  "returns": {},
  "timestamp": 1778506550804,
  "chain": 31337,
  "commit": "59e30a9"
}