{
  "transactions": [
    {
      "hash": "0xf8c30c159fd8906b8ac78c1fcb747166e3073cc269559c39b88ad757d9742120",
      "transactionType": "CALL",
      "contractName": null,
      "contractAddress": "0x8fa71914948544c60e3379064567dcf0e6564d27",
      "function": "settle((uint256,address),(uint8,bool,address,uint256,address,uint256,address,uint64,uint64,uint256),(uint8,bytes32,bytes32))",
      "arguments": [
        "(451, 0xe3745C151faB59B0740f4312b2B027F07D096639)",
        "(1, false, 0xA5f104F8f78d5ba9AEC4a383c0927337Fd4E997B, 451, 0xC02aaA39b223FE8D0A0e5C4F27eAD9083C756Cc2, 60000000000000000, 0x2c2dbA75492E0C4A1D10B41303167aEC59586C9c, 1773438395, 1778735891, 7)",
        "(28, 0xb69460aa69cecad1a4cda011afd90cc9e6869fe63b02d834a6d91f7ebf5de872, 0x029f59dfa18bf24f0b61c44f7136cbf658baada8910d84839036013488443420)"
      ],
      "transaction": {
        "from": "0xe3745c151fab59b0740f4312b2b027f07d096639",
        "to": "0x8fa71914948544c60e3379064567dcf0e6564d27",
        "gas": "0x2efb0",
        "value": "0x0",
        "input": "0x3bae3e7900000000000000000000000000000000000000000000000000000000000001c3000000000000000000000000e3745c151fab59b0740f4312b2b027f07d09663900000000000000000000000000000000000000000000000000000000000000010000000000000000000000000000000000000000000000000000000000000000000000000000000000000000a5f104f8f78d5ba9aec4a383c0927337fd4e997b00000000000000000000000000000000000000000000000000000000000001c3000000000000000000000000c02aaa39b223fe8d0a0e5c4f27ead9083c756cc200000000000000000000000000000000000000000000000000d529ae9e8600000000000000000000000000002c2dba75492e0c4a1d10b41303167aec59586c9c0000000000000000000000000000000000000000000000000000000069b485bb000000000000000000000000000000000000000000000000000000006a055b130000000000000000000000000000000000000000000000000000000000000007000000000000000000000000000000000000000000000000000000000000001cb69460aa69cecad1a4cda011afd90cc9e6869fe63b02d834a6d91f7ebf5de872029f59dfa18bf24f0b61c44f7136cbf658baada8910d84839036013488443420",
        "nonce": "0x47",
        "chainId": "0x7a69"
      },
      "additionalContracts": [],
      "isFixedGasLimit": false
    }
  ],
  "receipts": [
    {
      "status": "0x1",
      "cumulativeGasUsed": "0x201fa",
      "logs": [
        {
          "address": "0xc02aaa39b223fe8d0a0e5c4f27ead9083c756cc2",
          "topics": [
            "0xddf252ad1be2c89b69c2b068fc378daa952ba7f163c4a11628f55a4df523b3ef",
            "0x0000000000000000000000002c2dba75492e0c4a1d10b41303167aec59586c9c",
            "0x0000000000000000000000001804c8ab1f12e6bbf3894d4083f33e07309d1f38"
          ],
          "data": "0x000000000000000000000000000000000000000000000000000221b262dd8000",
          "blockHash": "0x806687371395ae9a5d743499d334a845e739c3dfd7241eb272283bb36dfa7706",
          "blockNumber": "0x17b833d",
          "blockTimestamp": "0x69e8e217",
          "transactionHash": "0xf8c30c159fd8906b8ac78c1fcb747166e3073cc269559c39b88ad757d9742120",
          "transactionIndex": "0x0",
          "logIndex": "0x0",
          "removed": false
        },
        {
          "address": "0xc02aaa39b223fe8d0a0e5c4f27ead9083c756cc2",
          "topics": [
            "0xddf252ad1be2c89b69c2b068fc378daa952ba7f163c4a11628f55a4df523b3ef",
            "0x0000000000000000000000002c2dba75492e0c4a1d10b41303167aec59586c9c",
            "0x000000000000000000000000e3745c151fab59b0740f4312b2b027f07d096639"
          ],
          "data": "0x00000000000000000000000000000000000000000000000000d307fc3ba88000",
          "blockHash": "0x806687371395ae9a5d743499d334a845e739c3dfd7241eb272283bb36dfa7706",
          "blockNumber": "0x17b833d",
          "blockTimestamp": "0x69e8e217",
          "transactionHash": "0xf8c30c159fd8906b8ac78c1fcb747166e3073cc269559c39b88ad757d9742120",
          "transactionIndex": "0x0",
          "logIndex": "0x1",
          "removed": false
        },
        {
          "address": "0xa5f104f8f78d5ba9aec4a383c0927337fd4e997b",
          "topics": [
            "0xddf252ad1be2c89b69c2b068fc378daa952ba7f163c4a11628f55a4df523b3ef",
            "0x000000000000000000000000e3745c151fab59b0740f4312b2b027f07d096639",
            "0x0000000000000000000000002c2dba75492e0c4a1d10b41303167aec59586c9c",
            "0x00000000000000000000000000000000000000000000000000000000000001c3"
          ],
          "data": "0x",
          "blockHash": "0x806687371395ae9a5d743499d334a845e739c3dfd7241eb272283bb36dfa7706",
          "blockNumber": "0x17b833d",
          "blockTimestamp": "0x69e8e217",
          "transactionHash": "0xf8c30c159fd8906b8ac78c1fcb747166e3073cc269559c39b88ad757d9742120",
          "transactionIndex": "0x0",
          "logIndex": "0x2",
          "removed": false
        },
        {
          "address": "0x8fa71914948544c60e3379064567dcf0e6564d27",
          "topics": [
            "0xc0ac3eb1e8caef05b202043f34de8e3173fab712167584f7a2a9f4c302bd0e9c",
            "0xe5a9f9e5fd1c72e5e13daf84c400229b1a8bc33d598e46bdda59345e5296359c",
            "0x000000000000000000000000a5f104f8f78d5ba9aec4a383c0927337fd4e997b",
            "0x00000000000000000000000000000000000000000000000000000000000001c3"
          ],
          "data": "0x000000000000000000000000e3745c151fab59b0740f4312b2b027f07d0966390000000000000000000000002c2dba75492e0c4a1d10b41303167aec59586c9c000000000000000000000000c02aaa39b223fe8d0a0e5c4f27ead9083c756cc200000000000000000000000000000000000000000000000000d529ae9e860000",
          "blockHash": "0x806687371395ae9a5d743499d334a845e739c3dfd7241eb272283bb36dfa7706",
          "blockNumber": "0x17b833d",
          "blockTimestamp": "0x69e8e217",
          "transactionHash": "0xf8c30c159fd8906b8ac78c1fcb747166e3073cc269559c39b88ad757d9742120",
          "transactionIndex": "0x0",
          "logIndex": "0x3",
          "removed": false
        }
      ],
      "logsBloom": "0x00000000000000000000010000000000000000000100000000000000000000000000000000000000000000000800000042000000080000000000000800100000000200000000000000010008000000000000000000000000080000000000000000000000000004000001000000000000000000000000000000000010200000000800000000040000000004000000000000400000000000000000000000000000000000200100000400000000000000000000000000000080000000000000000000000002000004000000000000000000000000000000000080200040000000000100200000000000000000000000080000000000000000000200000000000000",
      "type": "0x2",
      "transactionHash": "0xf8c30c159fd8906b8ac78c1fcb747166e3073cc269559c39b88ad757d9742120",
      "transactionIndex": "0x0",
      "blockHash": "0x806687371395ae9a5d743499d334a845e739c3dfd7241eb272283bb36dfa7706",
      "blockNumber": "0x17b833d",
      "gasUsed": "0x201fa",
      "effectiveGasPrice": "0x1ba81c",
      "blobGasPrice": "0x1",
      "from": "0xe3745c151fab59b0740f4312b2b027f07d096639",
      "to": "0x8fa71914948544c60e3379064567dcf0e6564d27",
      "contractAddress": null
    }
  ],
  "libraries": [],
  "pending": [],
  "returns": {},
  "timestamp": 1778506440293,
  "chain": 31337,
  "commit": "59e30a9"
}