{
  "transactions": [
    {
      "hash": "0xd15d6a687eb3ca25d6dd32eb5848f64268c35cb9ec0d14c3a9f887428d28a2be",
      "transactionType": "CALL",
      "contractName": null,
      "contractAddress": "0x73973d222c3fda5b2563d269da9e19cb125000f4",
      "function": "settle((uint256,address),(uint8,bool,address,uint256,address,uint256,address,uint64,uint64,uint256),(uint8,bytes32,bytes32))",
      "arguments": [
        "(326, 0xE233420d38D286C2F2Cf8dEe6564F132FBDB09DB)",
        "(1, false, 0x38D4dE42C9c5640A2799B372D27B01957E0a3673, 326, 0xC02aaA39b223FE8D0A0e5C4F27eAD9083C756Cc2, 7000000000000000, 0xe3745C151faB59B0740f4312b2B027F07D096639, 1772101447, 1779964191, 5)",
        "(27, 0x208fffc919524648f1e559bf0498d6496e51539ac78505466ee4552e622f90c5, 0x2785c1557a3282e225f05a695af2636389cb11b57b45308954878e1d60e298b3)"
      ],
      "transaction": {
        "from": "0xe233420d38d286c2f2cf8dee6564f132fbdb09db",
        "to": "0x73973d222c3fda5b2563d269da9e19cb125000f4",
        "gas": "0x2efa4",
        "value": "0x0",
        "input": "0x3bae3e790000000000000000000000000000000000000000000000000000000000000146000000000000000000000000e233420d38d286c2f2cf8dee6564f132fbdb09db0000000000000000000000000000000000000000000000000000000000000001000000000000000000000000000000000000000000000000000000000000000000000000000000000000000038d4de42c9c5640a2799b372d27b01957e0a36730000000000000000000000000000000000000000000000000000000000000146000000000000000000000000c02aaa39b223fe8d0a0e5c4f27ead9083c756cc20000000000000000000000000000000000000000000000000018de76816d8000000000000000000000000000e3745c151fab59b0740f4312b2b027f07d0966390000000000000000000000000000000000000000000000000000000069a01f47000000000000000000000000000000000000000000000000000000006a18191f0000000000000000000000000000000000000000000000000000000000000005000000000000000000000000000000000000000000000000000000000000001b208fffc919524648f1e559bf0498d6496e51539ac78505466ee4552e622f90c52785c1557a3282e225f05a695af2636389cb11b57b45308954878e1d60e298b3",
        "nonce": "0x6e",
        "chainId": "0x7a69"
      },
      "additionalContracts": [],
      "isFixedGasLimit": false
    }
  ],
  "receipts": [
    {
      "status": "0x1",
      "cumulativeGasUsed": "0x201f2",
      "logs": [
        {
          "address": "0xc02aaa39b223fe8d0a0e5c4f27ead9083c756cc2",
          "topics": [
            "0xddf252ad1be2c89b69c2b068fc378daa952ba7f163c4a11628f55a4df523b3ef",
            "0x000000000000000000000000e3745c151fab59b0740f4312b2b027f07d096639",
            "0x0000000000000000000000001804c8ab1f12e6bbf3894d4083f33e07309d1f38"
          ],
          "data": "0x00000000000000000000000000000000000000000000000000003faa25226000",
          "blockHash": "0x05940a7339ffcbefbc136e1cb7af4206a615ed157ebb459fe12acb477a43eb9a",
          "blockNumber": "0x17b73a8",
          "blockTimestamp": "0x69e259bc",
          "transactionHash": "0xd15d6a687eb3ca25d6dd32eb5848f64268c35cb9ec0d14c3a9f887428d28a2be",
          "transactionIndex": "0x0",
          "logIndex": "0x0",
          "removed": false
        },
        {
          "address": "0xc02aaa39b223fe8d0a0e5c4f27ead9083c756cc2",
          "topics": [
            "0xddf252ad1be2c89b69c2b068fc378daa952ba7f163c4a11628f55a4df523b3ef",
            "0x000000000000000000000000e3745c151fab59b0740f4312b2b027f07d096639",
            "0x000000000000000000000000e233420d38d286c2f2cf8dee6564f132fbdb09db"
          ],
          "data": "0x00000000000000000000000000000000000000000000000000189ecc5c4b2000",
          "blockHash": "0x05940a7339ffcbefbc136e1cb7af4206a615ed157ebb459fe12acb477a43eb9a",
          "blockNumber": "0x17b73a8",
          "blockTimestamp": "0x69e259bc",
          "transactionHash": "0xd15d6a687eb3ca25d6dd32eb5848f64268c35cb9ec0d14c3a9f887428d28a2be",
          "transactionIndex": "0x0",
          "logIndex": "0x1",
          "removed": false
        },
        {
          "address": "0x38d4de42c9c5640a2799b372d27b01957e0a3673",
          "topics": [
            "0xddf252ad1be2c89b69c2b068fc378daa952ba7f163c4a11628f55a4df523b3ef",
            "0x000000000000000000000000e233420d38d286c2f2cf8dee6564f132fbdb09db",
            "0x000000000000000000000000e3745c151fab59b0740f4312b2b027f07d096639",
            "0x0000000000000000000000000000000000000000000000000000000000000146"
          ],
          "data": "0x",
          "blockHash": "0x05940a7339ffcbefbc136e1cb7af4206a615ed157ebb459fe12acb477a43eb9a",
          "blockNumber": "0x17b73a8",
          "blockTimestamp": "0x69e259bc",
          "transactionHash": "0xd15d6a687eb3ca25d6dd32eb5848f64268c35cb9ec0d14c3a9f887428d28a2be",
          "transactionIndex": "0x0",
          "logIndex": "0x2",
          "removed": false
        },
        {
          "address": "0x73973d222c3fda5b2563d269da9e19cb125000f4",
          "topics": [
            "0xc0ac3eb1e8caef05b202043f34de8e3173fab712167584f7a2a9f4c302bd0e9c",
            "0x2efe721487c9ce2c2a4894b7acbce748853b371f9a4f1ceaa3307624952c7df3",
            "0x00000000000000000000000038d4de42c9c5640a2799b372d27b01957e0a3673",
            "0x0000000000000000000000000000000000000000000000000000000000000146"
          ],
          "data": "0x000000000000000000000000e233420d38d286c2f2cf8dee6564f132fbdb09db000000000000000000000000e3745c151fab59b0740f4312b2b027f07d096639000000000000000000000000c02aaa39b223fe8d0a0e5c4f27ead9083c756cc20000000000000000000000000000000000000000000000000018de76816d8000",
          "blockHash": "0x05940a7339ffcbefbc136e1cb7af4206a615ed157ebb459fe12acb477a43eb9a",
          "blockNumber": "0x17b73a8",
          "blockTimestamp": "0x69e259bc",
          "transactionHash": "0xd15d6a687eb3ca25d6dd32eb5848f64268c35cb9ec0d14c3a9f887428d28a2be",
          "transactionIndex": "0x0",
          "logIndex": "0x3",
          "removed": false
        }
      ],
      "logsBloom": "0x00000000000000000000000000000000000000000102000000000000000000000000000000000000000000000000020042000100080000000004100000100000000000000000021021000008000000000000000000000000000000000000000000000001000000000001000000000000000000000000000000000010000000000000000000000000000004000000000000000000000008008000000000010000000000000000000000000000000000000000000000000080400000000000000000000012000004000000000000000000000000000002000000000040000010000100200000000000000000000000000000000020000000000000000000000000",
      "type": "0x2",
      "transactionHash": "0xd15d6a687eb3ca25d6dd32eb5848f64268c35cb9ec0d14c3a9f887428d28a2be",
      "transactionIndex": "0x0",
      "blockHash": "0x05940a7339ffcbefbc136e1cb7af4206a615ed157ebb459fe12acb477a43eb9a",
      "blockNumber": "0x17b73a8",
      "gasUsed": "0x201f2",
      "effectiveGasPrice": "0xf4248",
      "blobGasPrice": "0x1",
      "from": "0xe233420d38d286c2f2cf8dee6564f132fbdb09db",
      "to": "0x73973d222c3fda5b2563d269da9e19cb125000f4",
      "contractAddress": null
    }
  ],
  "libraries": [],
  "pending": [],
  "returns": {},
  "timestamp": 1778453713046,
  "chain": 31337,
  "commit": "f87d399"
}