{
  "transactions": [
    {
      "hash": "0x9be226205f7e258e6cda4f39fc870d70ce0df5ca06bc0244a225bb46c3e4407c",
      "transactionType": "CALL",
      "contractName": null,
      "contractAddress": "0x8fa71914948544c60e3379064567dcf0e6564d27",
      "function": "settle((uint256,address),(uint8,bool,address,uint256,address,uint256,address,uint64,uint64,uint256),(uint8,bytes32,bytes32))",
      "arguments": [
        "(173, 0xe3745C151faB59B0740f4312b2B027F07D096639)",
        "(1, false, 0xA5f104F8f78d5ba9AEC4a383c0927337Fd4E997B, 173, 0xC02aaA39b223FE8D0A0e5C4F27eAD9083C756Cc2, 30000000000000000, 0xE233420d38D286C2F2Cf8dEe6564F132FBDB09DB, 1772703157, 1779471129, 12)",
        "(28, 0xab4e7d3838e268231e98056f44644a229acdf3d7a89ebef5de2cf303bd31ae6a, 0x00dc1077c7dcb2fa0561e81e09ed3b16cf3e99ab4b2f0bce311c0a583669a3e2)"
      ],
      "transaction": {
        "from": "0xe3745c151fab59b0740f4312b2b027f07d096639",
        "to": "0x8fa71914948544c60e3379064567dcf0e6564d27",
        "gas": "0x2c5bb",
        "value": "0x0",
        "input": "0x3bae3e7900000000000000000000000000000000000000000000000000000000000000ad000000000000000000000000e3745c151fab59b0740f4312b2b027f07d09663900000000000000000000000000000000000000000000000000000000000000010000000000000000000000000000000000000000000000000000000000000000000000000000000000000000a5f104f8f78d5ba9aec4a383c0927337fd4e997b00000000000000000000000000000000000000000000000000000000000000ad000000000000000000000000c02aaa39b223fe8d0a0e5c4f27ead9083c756cc2000000000000000000000000000000000000000000000000006a94d74f430000000000000000000000000000e233420d38d286c2f2cf8dee6564f132fbdb09db0000000000000000000000000000000000000000000000000000000069a94db5000000000000000000000000000000000000000000000000000000006a109319000000000000000000000000000000000000000000000000000000000000000c000000000000000000000000000000000000000000000000000000000000001cab4e7d3838e268231e98056f44644a229acdf3d7a89ebef5de2cf303bd31ae6a00dc1077c7dcb2fa0561e81e09ed3b16cf3e99ab4b2f0bce311c0a583669a3e2",
        "nonce": "0x4d",
        "chainId": "0x7a69"
      },
      "additionalContracts": [],
      "isFixedGasLimit": false
    }
  ],
  "receipts": [
    {
      "status": "0x1",
      "cumulativeGasUsed": "0x201d6",
      "logs": [
        {
          "address": "0xc02aaa39b223fe8d0a0e5c4f27ead9083c756cc2",
          "topics": [
            "0xddf252ad1be2c89b69c2b068fc378daa952ba7f163c4a11628f55a4df523b3ef",
            "0x000000000000000000000000e233420d38d286c2f2cf8dee6564f132fbdb09db",
            "0x0000000000000000000000001804c8ab1f12e6bbf3894d4083f33e07309d1f38"
          ],
          "data": "0x000000000000000000000000000000000000000000000000000110d9316ec000",
          "blockHash": "0xcac1931a87c184c36c6a0df70aee80f5300c2c7c8ba3f9b7dd48b904d36e63c9",
          "blockNumber": "0x17b8365",
          "blockTimestamp": "0x69f2c0f0",
          "transactionHash": "0x9be226205f7e258e6cda4f39fc870d70ce0df5ca06bc0244a225bb46c3e4407c",
          "transactionIndex": "0x0",
          "logIndex": "0x0",
          "removed": false
        },
        {
          "address": "0xc02aaa39b223fe8d0a0e5c4f27ead9083c756cc2",
          "topics": [
            "0xddf252ad1be2c89b69c2b068fc378daa952ba7f163c4a11628f55a4df523b3ef",
            "0x000000000000000000000000e233420d38d286c2f2cf8dee6564f132fbdb09db",
            "0x000000000000000000000000e3745c151fab59b0740f4312b2b027f07d096639"
          ],
          "data": "0x000000000000000000000000000000000000000000000000006983fe1dd44000",
          "blockHash": "0xcac1931a87c184c36c6a0df70aee80f5300c2c7c8ba3f9b7dd48b904d36e63c9",
          "blockNumber": "0x17b8365",
          "blockTimestamp": "0x69f2c0f0",
          "transactionHash": "0x9be226205f7e258e6cda4f39fc870d70ce0df5ca06bc0244a225bb46c3e4407c",
          "transactionIndex": "0x0",
          "logIndex": "0x1",
          "removed": false
        },
        {
          "address": "0xa5f104f8f78d5ba9aec4a383c0927337fd4e997b",
          "topics": [
            "0xddf252ad1be2c89b69c2b068fc378daa952ba7f163c4a11628f55a4df523b3ef",
            "0x000000000000000000000000e3745c151fab59b0740f4312b2b027f07d096639",
            "0x000000000000000000000000e233420d38d286c2f2cf8dee6564f132fbdb09db",
            "0x00000000000000000000000000000000000000000000000000000000000000ad"
          ],
          "data": "0x",
          "blockHash": "0xcac1931a87c184c36c6a0df70aee80f5300c2c7c8ba3f9b7dd48b904d36e63c9",
          "blockNumber": "0x17b8365",
          "blockTimestamp": "0x69f2c0f0",
          "transactionHash": "0x9be226205f7e258e6cda4f39fc870d70ce0df5ca06bc0244a225bb46c3e4407c",
          "transactionIndex": "0x0",
          "logIndex": "0x2",
          "removed": false
        },
        {
          "address": "0x8fa71914948544c60e3379064567dcf0e6564d27",
          "topics": [
            "0xc0ac3eb1e8caef05b202043f34de8e3173fab712167584f7a2a9f4c302bd0e9c",
            "0xd2ade879ef7b4a08c547d4b00469ec83f2a7f76b2a6bb25a48fa7a40ad363dc8",
            "0x000000000000000000000000a5f104f8f78d5ba9aec4a383c0927337fd4e997b",
            "0x00000000000000000000000000000000000000000000000000000000000000ad"
          ],
          "data": "0x000000000000000000000000e3745c151fab59b0740f4312b2b027f07d096639000000000000000000000000e233420d38d286c2f2cf8dee6564f132fbdb09db000000000000000000000000c02aaa39b223fe8d0a0e5c4f27ead9083c756cc2000000000000000000000000000000000000000000000000006a94d74f430000",
          "blockHash": "0xcac1931a87c184c36c6a0df70aee80f5300c2c7c8ba3f9b7dd48b904d36e63c9",
          "blockNumber": "0x17b8365",
          "blockTimestamp": "0x69f2c0f0",
          "transactionHash": "0x9be226205f7e258e6cda4f39fc870d70ce0df5ca06bc0244a225bb46c3e4407c",
          "transactionIndex": "0x0",
          "logIndex": "0x3",
          "removed": false
        }
      ],
      "logsBloom": "0x00000000000000000000010000000000000000000100000000000001000000000000000000000000000000000000000042000000080000000000000000100000000000000000000000010008000000000040000000800000080000000000000000000241000000000001000000000000000000000000000100000010200000000800000000040000000004000000000000000000000000000000000000000000000000200000000400000000000000000000000000000080000000000000000000000012000004000000000000000000000000000002000080000040000000000100200000000000000000000000000000000000000000000000000000000000",
      "type": "0x2",
      "transactionHash": "0x9be226205f7e258e6cda4f39fc870d70ce0df5ca06bc0244a225bb46c3e4407c",
      "transactionIndex": "0x0",
      "blockHash": "0xcac1931a87c184c36c6a0df70aee80f5300c2c7c8ba3f9b7dd48b904d36e63c9",
      "blockNumber": "0x17b8365",
      "gasUsed": "0x201d6",
      "effectiveGasPrice": "0x1ba81c",
      "blobGasPrice": "0x1",
      "from": "0xe3745c151fab59b0740f4312b2b027f07d096639",
      "to": "0x8fa71914948544c60e3379064567dcf0e6564d27",
      "contractAddress": null
    }
  ],
  "libraries": [],
  "pending": [],
  "returns": {},
  "timestamp": 1778506485835,
  "chain": 31337,
  "commit": "59e30a9"
}