{
  "transactions": [
    {
      "hash": "0x049d2f34543f32132d63421fc4e3dce08f5e7d92d58c31febe5c7525a34e4a3f",
      "transactionType": "CALL",
      "contractName": null,
      "contractAddress": "0x73973d222c3fda5b2563d269da9e19cb125000f4",
      "function": "settle((uint256,address),(uint8,bool,address,uint256,address,uint256,address,uint64,uint64,uint256),(uint8,bytes32,bytes32))",
      "arguments": [
        "(0, 0x1302F142Fc55B165647d3Bd5dec227f569A2A907)",
        "(0, false, 0x38D4dE42C9c5640A2799B372D27B01957E0a3673, 286, 0xC02aaA39b223FE8D0A0e5C4F27eAD9083C756Cc2, 74000000000000000, 0x646dC5Fc4009C4C84a424B6aE0f494b374bAE1Ce, 1773017230, 1779048408, 0)",
        "(28, 0x62be4b54fd3af5459231fc0d03b81704e7d83e67091c4b3aa96c056586905d69, 0x38178b6b3d42800f924d1eefbb9897e0c4465842c8515dacac57065dc87ec1ef)"
      ],
      "transaction": {
        "from": "0x1302f142fc55b165647d3bd5dec227f569a2a907",
        "to": "0x73973d222c3fda5b2563d269da9e19cb125000f4",
        "gas": "0x2ee8a",
        "value": "0x0",
        "input": "0x3bae3e7900000000000000000000000000000000000000000000000000000000000000000000000000000000000000001302f142fc55b165647d3bd5dec227f569a2a9070000000000000000000000000000000000000000000000000000000000000000000000000000000000000000000000000000000000000000000000000000000000000000000000000000000038d4de42c9c5640a2799b372d27b01957e0a3673000000000000000000000000000000000000000000000000000000000000011e000000000000000000000000c02aaa39b223fe8d0a0e5c4f27ead9083c756cc20000000000000000000000000000000000000000000000000106e69ba1610000000000000000000000000000646dc5fc4009c4c84a424b6ae0f494b374bae1ce0000000000000000000000000000000000000000000000000000000069ae188e000000000000000000000000000000000000000000000000000000006a0a1fd80000000000000000000000000000000000000000000000000000000000000000000000000000000000000000000000000000000000000000000000000000001c62be4b54fd3af5459231fc0d03b81704e7d83e67091c4b3aa96c056586905d6938178b6b3d42800f924d1eefbb9897e0c4465842c8515dacac57065dc87ec1ef",
        "nonce": "0x6b",
        "chainId": "0x7a69"
      },
      "additionalContracts": [],
      "isFixedGasLimit": false
    }
  ],
  "receipts": [
    {
      "status": "0x1",
      "cumulativeGasUsed": "0x20131",
      "logs": [
        {
          "address": "0xc02aaa39b223fe8d0a0e5c4f27ead9083c756cc2",
          "topics": [
            "0xddf252ad1be2c89b69c2b068fc378daa952ba7f163c4a11628f55a4df523b3ef",
            "0x0000000000000000000000001302f142fc55b165647d3bd5dec227f569a2a907",
            "0x0000000000000000000000001804c8ab1f12e6bbf3894d4083f33e07309d1f38"
          ],
          "data": "0x0000000000000000000000000000000000000000000000000002a106ad224000",
          "blockHash": "0xdd36ce543f61829ee7fbc5abbb4fc17b9d6e97a99220b154940f8e9325c3a826",
          "blockNumber": "0x17b7395",
          "blockTimestamp": "0x69dec5a9",
          "transactionHash": "0x049d2f34543f32132d63421fc4e3dce08f5e7d92d58c31febe5c7525a34e4a3f",
          "transactionIndex": "0x0",
          "logIndex": "0x0",
          "removed": false
        },
        {
          "address": "0xc02aaa39b223fe8d0a0e5c4f27ead9083c756cc2",
          "topics": [
            "0xddf252ad1be2c89b69c2b068fc378daa952ba7f163c4a11628f55a4df523b3ef",
            "0x0000000000000000000000001302f142fc55b165647d3bd5dec227f569a2a907",
            "0x000000000000000000000000646dc5fc4009c4c84a424b6ae0f494b374bae1ce"
          ],
          "data": "0x00000000000000000000000000000000000000000000000001044594f43ec000",
          "blockHash": "0xdd36ce543f61829ee7fbc5abbb4fc17b9d6e97a99220b154940f8e9325c3a826",
          "blockNumber": "0x17b7395",
          "blockTimestamp": "0x69dec5a9",
          "transactionHash": "0x049d2f34543f32132d63421fc4e3dce08f5e7d92d58c31febe5c7525a34e4a3f",
          "transactionIndex": "0x0",
          "logIndex": "0x1",
          "removed": false
        },
        {
          "address": "0x38d4de42c9c5640a2799b372d27b01957e0a3673",
          "topics": [
            "0xddf252ad1be2c89b69c2b068fc378daa952ba7f163c4a11628f55a4df523b3ef",
            "0x000000000000000000000000646dc5fc4009c4c84a424b6ae0f494b374bae1ce",
            "0x0000000000000000000000001302f142fc55b165647d3bd5dec227f569a2a907",
            "0x000000000000000000000000000000000000000000000000000000000000011e"
          ],
          "data": "0x",
          "blockHash": "0xdd36ce543f61829ee7fbc5abbb4fc17b9d6e97a99220b154940f8e9325c3a826",
          "blockNumber": "0x17b7395",
          "blockTimestamp": "0x69dec5a9",
          "transactionHash": "0x049d2f34543f32132d63421fc4e3dce08f5e7d92d58c31febe5c7525a34e4a3f",
          "transactionIndex": "0x0",
          "logIndex": "0x2",
          "removed": false
        },
        {
          "address": "0x73973d222c3fda5b2563d269da9e19cb125000f4",
          "topics": [
            "0xc0ac3eb1e8caef05b202043f34de8e3173fab712167584f7a2a9f4c302bd0e9c",
            "0x5aba5cfc2e259ee7e28a698c7afd5cfb7ca4d017fa3b88ae12cd84f43b084689",
            "0x00000000000000000000000038d4de42c9c5640a2799b372d27b01957e0a3673",
            "0x000000000000000000000000000000000000000000000000000000000000011e"
          ],
          "data": "0x000000000000000000000000646dc5fc4009c4c84a424b6ae0f494b374bae1ce0000000000000000000000001302f142fc55b165647d3bd5dec227f569a2a907000000000000000000000000c02aaa39b223fe8d0a0e5c4f27ead9083c756cc20000000000000000000000000000000000000000000000000106e69ba1610000",
          "blockHash": "0xdd36ce543f61829ee7fbc5abbb4fc17b9d6e97a99220b154940f8e9325c3a826",
          "blockNumber": "0x17b7395",
          "blockTimestamp": "0x69dec5a9",
          "transactionHash": "0x049d2f34543f32132d63421fc4e3dce08f5e7d92d58c31febe5c7525a34e4a3f",
          "transactionIndex": "0x0",
          "logIndex": "0x3",
          "removed": false
        }
      ],
      "logsBloom": "0x00000000000000000000000000000000000000000002000000000000000000000000000000000000100000000000020002000000090000000004100000100000000000000000001021000008000000000000000000000000000000000000000000000000000000000405000000000000000000000000000000000010000000000000000000000200000004000000000000000000000008000000000000040000040000000000000000000000000100000000000000000080400000000000000000000002000004000000000200000000000000000000000000000000000000000100200000000000000040000000080000000000000000000000000000000000",
      "type": "0x2",
      "transactionHash": "0x049d2f34543f32132d63421fc4e3dce08f5e7d92d58c31febe5c7525a34e4a3f",
      "transactionIndex": "0x0",
      "blockHash": "0xdd36ce543f61829ee7fbc5abbb4fc17b9d6e97a99220b154940f8e9325c3a826",
      "blockNumber": "0x17b7395",
      "gasUsed": "0x20131",
      "effectiveGasPrice": "0xf4248",
      "blobGasPrice": "0x1",
      "from": "0x1302f142fc55b165647d3bd5dec227f569a2a907",
      "to": "0x73973d222c3fda5b2563d269da9e19cb125000f4",
      "contractAddress": null
    }
  ],
  "libraries": [],
  "pending": [],
  "returns": {},
  "timestamp": 1778453695870,
  "chain": 31337,
  "commit": "f87d399"
}