{
  "transactions": [
    {
      "hash": "0x0a7f15be608caac7f4f991b715893e9904433a414f62bec4920a20ea94d2d22b",
      "transactionType": "CALL",
      "contractName": null,
      "contractAddress": "0x8fa71914948544c60e3379064567dcf0e6564d27",
      "function": "settle((uint256,address),(uint8,bool,address,uint256,address,uint256,address,uint64,uint64,uint256),(uint8,bytes32,bytes32))",
      "arguments": [
        "(465, 0xcbe5659df21Cbcfabe4da962F7a9081F26B3ed82)",
        "(1, false, 0xA5f104F8f78d5ba9AEC4a383c0927337Fd4E997B, 465, 0xC02aaA39b223FE8D0A0e5C4F27eAD9083C756Cc2, 207000000000000000, 0x1302F142Fc55B165647d3Bd5dec227f569A2A907, 1771933952, 1780240334, 3)",
        "(28, 0x50775eadd89dbee8c260652740b17934e72a5ab9148fd5fe20ebca48a113643f, 0x0eec6e4b241034928dab0a4e13f735c08fafcd84882b8ecceffb470c5121b340)"
      ],
      "transaction": {
        "from": "0xcbe5659df21cbcfabe4da962f7a9081f26b3ed82",
        "to": "0x8fa71914948544c60e3379064567dcf0e6564d27",
        "gas": "0x2c5fe",
        "value": "0x0",
        "input": "0x3bae3e7900000000000000000000000000000000000000000000000000000000000001d1000000000000000000000000cbe5659df21cbcfabe4da962f7a9081f26b3ed8200000000000000000000000000000000000000000000000000000000000000010000000000000000000000000000000000000000000000000000000000000000000000000000000000000000a5f104f8f78d5ba9aec4a383c0927337fd4e997b00000000000000000000000000000000000000000000000000000000000001d1000000000000000000000000c02aaa39b223fe8d0a0e5c4f27ead9083c756cc200000000000000000000000000000000000000000000000002df69673c8180000000000000000000000000001302f142fc55b165647d3bd5dec227f569a2a90700000000000000000000000000000000000000000000000000000000699d9100000000000000000000000000000000000000000000000000000000006a1c4fce0000000000000000000000000000000000000000000000000000000000000003000000000000000000000000000000000000000000000000000000000000001c50775eadd89dbee8c260652740b17934e72a5ab9148fd5fe20ebca48a113643f0eec6e4b241034928dab0a4e13f735c08fafcd84882b8ecceffb470c5121b340",
        "nonce": "0x3e",
        "chainId": "0x7a69"
      },
      "additionalContracts": [],
      "isFixedGasLimit": false
    }
  ],
  "receipts": [
    {
      "status": "0x1",
      "cumulativeGasUsed": "0x20206",
      "logs": [
        {
          "address": "0xc02aaa39b223fe8d0a0e5c4f27ead9083c756cc2",
          "topics": [
            "0xddf252ad1be2c89b69c2b068fc378daa952ba7f163c4a11628f55a4df523b3ef",
            "0x0000000000000000000000001302f142fc55b165647d3bd5dec227f569a2a907",
            "0x0000000000000000000000001804c8ab1f12e6bbf3894d4083f33e07309d1f38"
          ],
          "data": "0x00000000000000000000000000000000000000000000000000075aa76eaf6000",
          "blockHash": "0x171f4a0b570aeeaeb3760e28e4792784d1fb68b359abca689c8c0ed743da9b74",
          "blockNumber": "0x17b832f",
          "blockTimestamp": "0x69e4cd2d",
          "transactionHash": "0x0a7f15be608caac7f4f991b715893e9904433a414f62bec4920a20ea94d2d22b",
          "transactionIndex": "0x0",
          "logIndex": "0x0",
          "removed": false
        },
        {
          "address": "0xc02aaa39b223fe8d0a0e5c4f27ead9083c756cc2",
          "topics": [
            "0xddf252ad1be2c89b69c2b068fc378daa952ba7f163c4a11628f55a4df523b3ef",
            "0x0000000000000000000000001302f142fc55b165647d3bd5dec227f569a2a907",
            "0x000000000000000000000000cbe5659df21cbcfabe4da962f7a9081f26b3ed82"
          ],
          "data": "0x00000000000000000000000000000000000000000000000002d80ebfcdd22000",
          "blockHash": "0x171f4a0b570aeeaeb3760e28e4792784d1fb68b359abca689c8c0ed743da9b74",
          "blockNumber": "0x17b832f",
          "blockTimestamp": "0x69e4cd2d",
          "transactionHash": "0x0a7f15be608caac7f4f991b715893e9904433a414f62bec4920a20ea94d2d22b",
          "transactionIndex": "0x0",
          "logIndex": "0x1",
          "removed": false
        },
        {
          "address": "0xa5f104f8f78d5ba9aec4a383c0927337fd4e997b",
          "topics": [
            "0xddf252ad1be2c89b69c2b068fc378daa952ba7f163c4a11628f55a4df523b3ef",
            "0x000000000000000000000000cbe5659df21cbcfabe4da962f7a9081f26b3ed82",
            "0x0000000000000000000000001302f142fc55b165647d3bd5dec227f569a2a907",
            "0x00000000000000000000000000000000000000000000000000000000000001d1"
          ],
          "data": "0x",
          "blockHash": "0x171f4a0b570aeeaeb3760e28e4792784d1fb68b359abca689c8c0ed743da9b74",
          "blockNumber": "0x17b832f",
          "blockTimestamp": "0x69e4cd2d",
          "transactionHash": "0x0a7f15be608caac7f4f991b715893e9904433a414f62bec4920a20ea94d2d22b",
          "transactionIndex": "0x0",
          "logIndex": "0x2",
          "removed": false
        },
        {
          "address": "0x8fa71914948544c60e3379064567dcf0e6564d27",
          "topics": [
            "0xc0ac3eb1e8caef05b202043f34de8e3173fab712167584f7a2a9f4c302bd0e9c",
            "0x4c35b9cb8f3a75f36afd52b8589dc097d97dfeb00388059ba7bd66b837e3e6c2",
            "0x000000000000000000000000a5f104f8f78d5ba9aec4a383c0927337fd4e997b",
            "0x00000000000000000000000000000000000000000000000000000000000001d1"
          ],
          "data": "0x000000000000000000000000cbe5659df21cbcfabe4da962f7a9081f26b3ed820000000000000000000000001302f142fc55b165647d3bd5dec227f569a2a907000000000000000000000000c02aaa39b223fe8d0a0e5c4f27ead9083c756cc200000000000000000000000000000000000000000000000002df69673c818000",
          "blockHash": "0x171f4a0b570aeeaeb3760e28e4792784d1fb68b359abca689c8c0ed743da9b74",
          "blockNumber": "0x17b832f",
          "blockTimestamp": "0x69e4cd2d",
          "transactionHash": "0x0a7f15be608caac7f4f991b715893e9904433a414f62bec4920a20ea94d2d22b",
          "transactionIndex": "0x0",
          "logIndex": "0x3",
          "removed": false
        }
      ],
      "logsBloom": "0x00000000000000004000010000000000000000000000000000000000000000200000000000000000000000000000000002000000080000000000000000100000000000000000000000010008000000000000000000000000080000000000000000000000000000000001000000000004000000000000000000000010200000000800000000040000000004000000000040000000001000000000000000000000000000200000000400000000000100000000000000000080000000000000000000000002000004000400000200000000000000000000020080000000010000000100200000000000000040000000000000000000004000000000000000000000",
      "type": "0x2",
      "transactionHash": "0x0a7f15be608caac7f4f991b715893e9904433a414f62bec4920a20ea94d2d22b",
      "transactionIndex": "0x0",
      "blockHash": "0x171f4a0b570aeeaeb3760e28e4792784d1fb68b359abca689c8c0ed743da9b74",
      "blockNumber": "0x17b832f",
      "gasUsed": "0x20206",
      "effectiveGasPrice": "0x1ba81c",
      "blobGasPrice": "0x1",
      "from": "0xcbe5659df21cbcfabe4da962f7a9081f26b3ed82",
      "to": "0x8fa71914948544c60e3379064567dcf0e6564d27",
      "contractAddress": null
    }
  ],
  "libraries": [],
  "pending": [],
  "returns": {},
  "timestamp": 1778506422639,
  "chain": 31337,
  "commit": "59e30a9"
}