{
  "transactions": [
    {
      "hash": "0x4c45a617f7bc87061f1eeeb15a7b7f92b513a10f35c5805b0e8f1036a998d26a",
      "transactionType": "CALL",
      "contractName": null,
      "contractAddress": "0x8fa71914948544c60e3379064567dcf0e6564d27",
      "function": "settle((uint256,address),(uint8,bool,address,uint256,address,uint256,address,uint64,uint64,uint256),(uint8,bytes32,bytes32))",
      "arguments": [
        "(0, 0xc5aDfC119364CFE2297e4414dB04834d8702475B)",
        "(0, false, 0xA5f104F8f78d5ba9AEC4a383c0927337Fd4E997B, 443, 0xC02aaA39b223FE8D0A0e5C4F27eAD9083C756Cc2, 25000000000000000, 0x4b75AeC40561C03e03d4D1C421dF194a3031A134, 1772842669, 1779331617, 11)",
        "(28, 0x8fd1165d5a090e05ca99ed1567a4efe1f123d1421e7235fa898af9c2767f3af9, 0x4d2f8e64920935f1465dc10e23c68cecbcc277a7e467d98a17aee8c9602fb66f)"
      ],
      "transaction": {
        "from": "0xc5adfc119364cfe2297e4414db04834d8702475b",
        "to": "0x8fa71914948544c60e3379064567dcf0e6564d27",
        "gas": "0x2c4e8",
        "value": "0x0",
        "input": "0x3bae3e790000000000000000000000000000000000000000000000000000000000000000000000000000000000000000c5adfc119364cfe2297e4414db04834d8702475b00000000000000000000000000000000000000000000000000000000000000000000000000000000000000000000000000000000000000000000000000000000000000000000000000000000a5f104f8f78d5ba9aec4a383c0927337fd4e997b00000000000000000000000000000000000000000000000000000000000001bb000000000000000000000000c02aaa39b223fe8d0a0e5c4f27ead9083c756cc20000000000000000000000000000000000000000000000000058d15e176280000000000000000000000000004b75aec40561c03e03d4d1c421df194a3031a1340000000000000000000000000000000000000000000000000000000069ab6ead000000000000000000000000000000000000000000000000000000006a0e7221000000000000000000000000000000000000000000000000000000000000000b000000000000000000000000000000000000000000000000000000000000001c8fd1165d5a090e05ca99ed1567a4efe1f123d1421e7235fa898af9c2767f3af94d2f8e64920935f1465dc10e23c68cecbcc277a7e467d98a17aee8c9602fb66f",
        "nonce": "0x43",
        "chainId": "0x7a69"
      },
      "additionalContracts": [],
      "isFixedGasLimit": false
    }
  ],
  "receipts": [
    {
      "status": "0x1",
      "cumulativeGasUsed": "0x2013d",
      "logs": [
        {
          "address": "0xc02aaa39b223fe8d0a0e5c4f27ead9083c756cc2",
          "topics": [
            "0xddf252ad1be2c89b69c2b068fc378daa952ba7f163c4a11628f55a4df523b3ef",
            "0x000000000000000000000000c5adfc119364cfe2297e4414db04834d8702475b",
            "0x0000000000000000000000001804c8ab1f12e6bbf3894d4083f33e07309d1f38"
          ],
          "data": "0x0000000000000000000000000000000000000000000000000000e35fa931a000",
          "blockHash": "0x10370307d3606eea92d89c2f2c43e448e0ed411cf3b31b544f459d2be367e7b1",
          "blockNumber": "0x17b8393",
          "blockTimestamp": "0x69fcff84",
          "transactionHash": "0x4c45a617f7bc87061f1eeeb15a7b7f92b513a10f35c5805b0e8f1036a998d26a",
          "transactionIndex": "0x0",
          "logIndex": "0x0",
          "removed": false
        },
        {
          "address": "0xc02aaa39b223fe8d0a0e5c4f27ead9083c756cc2",
          "topics": [
            "0xddf252ad1be2c89b69c2b068fc378daa952ba7f163c4a11628f55a4df523b3ef",
            "0x000000000000000000000000c5adfc119364cfe2297e4414db04834d8702475b",
            "0x0000000000000000000000004b75aec40561c03e03d4d1c421df194a3031a134"
          ],
          "data": "0x0000000000000000000000000000000000000000000000000057edfe6e30e000",
          "blockHash": "0x10370307d3606eea92d89c2f2c43e448e0ed411cf3b31b544f459d2be367e7b1",
          "blockNumber": "0x17b8393",
          "blockTimestamp": "0x69fcff84",
          "transactionHash": "0x4c45a617f7bc87061f1eeeb15a7b7f92b513a10f35c5805b0e8f1036a998d26a",
          "transactionIndex": "0x0",
          "logIndex": "0x1",
          "removed": false
        },
        {
          "address": "0xa5f104f8f78d5ba9aec4a383c0927337fd4e997b",
          "topics": [
            "0xddf252ad1be2c89b69c2b068fc378daa952ba7f163c4a11628f55a4df523b3ef",
            "0x0000000000000000000000004b75aec40561c03e03d4d1c421df194a3031a134",
            "0x000000000000000000000000c5adfc119364cfe2297e4414db04834d8702475b",
            "0x00000000000000000000000000000000000000000000000000000000000001bb"
          ],
          "data": "0x",
          "blockHash": "0x10370307d3606eea92d89c2f2c43e448e0ed411cf3b31b544f459d2be367e7b1",
          "blockNumber": "0x17b8393",
          "blockTimestamp": "0x69fcff84",
          "transactionHash": "0x4c45a617f7bc87061f1eeeb15a7b7f92b513a10f35c5805b0e8f1036a998d26a",
          "transactionIndex": "0x0",
          "logIndex": "0x2",
          "removed": false
        },
        {
          "address": "0x8fa71914948544c60e3379064567dcf0e6564d27",
          "topics": [
            "0xc0ac3eb1e8caef05b202043f34de8e3173fab712167584f7a2a9f4c302bd0e9c",
            "0x65334d4328287c52b00cc7a664312d7586ffdc74a92b40239e52b96ef4df9609",
            "0x000000000000000000000000a5f104f8f78d5ba9aec4a383c0927337fd4e997b",
            "0x00000000000000000000000000000000000000000000000000000000000001bb"
          ],
          "data": "0x0000000000000000000000004b75aec40561c03e03d4d1c421df194a3031a134000000000000000000000000c5adfc119364cfe2297e4414db04834d8702475b000000000000000000000000c02aaa39b223fe8d0a0e5c4f27ead9083c756cc20000000000000000000000000000000000000000000000000058d15e17628000",
          "blockHash": "0x10370307d3606eea92d89c2f2c43e448e0ed411cf3b31b544f459d2be367e7b1",
          "blockNumber": "0x17b8393",
          "blockTimestamp": "0x69fcff84",
          "transactionHash": "0x4c45a617f7bc87061f1eeeb15a7b7f92b513a10f35c5805b0e8f1036a998d26a",
          "transactionIndex": "0x0",
          "logIndex": "0x3",
          "removed": false
        }
      ],
      "logsBloom": "0x00000000000000000000010000001000000000000000000000000000000000000000000000100000000000000000000002000000080000000000000000100000000000000000000000010008000000000000002000000000080000000000000200000000000000000001000000000000000000000000000000000010200000000800000000040000000004000000000000000000000000000000000040002000000000200000000400000000000420000000000000000080020000000000000000000002000004000000000000000000000000000000000080000014000000000100200000000000000000000000000000000000000000002000000000000000",
      "type": "0x2",
      "transactionHash": "0x4c45a617f7bc87061f1eeeb15a7b7f92b513a10f35c5805b0e8f1036a998d26a",
      "transactionIndex": "0x0",
      "blockHash": "0x10370307d3606eea92d89c2f2c43e448e0ed411cf3b31b544f459d2be367e7b1",
      "blockNumber": "0x17b8393",
      "gasUsed": "0x2013d",
      "effectiveGasPrice": "0x1ba81c",
      "blobGasPrice": "0x1",
      "from": "0xc5adfc119364cfe2297e4414db04834d8702475b",
      "to": "0x8fa71914948544c60e3379064567dcf0e6564d27",
      "contractAddress": null
    }
  ],
  "libraries": [],
  "pending": [],
  "returns": {},
  "timestamp": 1778506538097,
  "chain": 31337,
  "commit": "59e30a9"
}