{
  "transactions": [
    {
      "hash": "0x607521980baa4e69b2dd5e7e516c4853c8acbda521dde35838bab11b9831af18",
      "transactionType": "CALL",
      "contractName": null,
      "contractAddress": "0x8fa71914948544c60e3379064567dcf0e6564d27",
      "function": "settle((uint256,address),(uint8,bool,address,uint256,address,uint256,address,uint64,uint64,uint256),(uint8,bytes32,bytes32))",
      "arguments": [
        "(0, 0x646dC5Fc4009C4C84a424B6aE0f494b374bAE1Ce)",
        "(0, false, 0xA5f104F8f78d5ba9AEC4a383c0927337Fd4E997B, 247, 0xC02aaA39b223FE8D0A0e5C4F27eAD9083C756Cc2, 16000000000000000, 0xcbe5659df21Cbcfabe4da962F7a9081F26B3ed82, 1772548456, 1779625830, 4)",
        "(28, 0xf1fd7af3ddac5bf77cf9180bc0dda4e0232e7e914ce0a8f0f914b220e166d4b7, 0x4b3b3a30d59266f9052b38295cc60b836221d9f01beae3e53c4c39a091d707f6)"
      ],
      "transaction": {
        "from": "0x646dc5fc4009c4c84a424b6ae0f494b374bae1ce",
        "to": "0x8fa71914948544c60e3379064567dcf0e6564d27",
        "gas": "0x2c4c7",
        "value": "0x0",
        "input": "0x3bae3e790000000000000000000000000000000000000000000000000000000000000000000000000000000000000000646dc5fc4009c4c84a424b6ae0f494b374bae1ce00000000000000000000000000000000000000000000000000000000000000000000000000000000000000000000000000000000000000000000000000000000000000000000000000000000a5f104f8f78d5ba9aec4a383c0927337fd4e997b00000000000000000000000000000000000000000000000000000000000000f7000000000000000000000000c02aaa39b223fe8d0a0e5c4f27ead9083c756cc20000000000000000000000000000000000000000000000000038d7ea4c680000000000000000000000000000cbe5659df21cbcfabe4da962f7a9081f26b3ed820000000000000000000000000000000000000000000000000000000069a6f168000000000000000000000000000000000000000000000000000000006a12ef660000000000000000000000000000000000000000000000000000000000000004000000000000000000000000000000000000000000000000000000000000001cf1fd7af3ddac5bf77cf9180bc0dda4e0232e7e914ce0a8f0f914b220e166d4b74b3b3a30d59266f9052b38295cc60b836221d9f01beae3e53c4c39a091d707f6",
        "nonce": "0x53",
        "chainId": "0x7a69"
      },
      "additionalContracts": [],
      "isFixedGasLimit": false
    }
  ],
  "receipts": [
    {
      "status": "0x1",
      "cumulativeGasUsed": "0x20125",
      "logs": [
        {
          "address": "0xc02aaa39b223fe8d0a0e5c4f27ead9083c756cc2",
          "topics": [
            "0xddf252ad1be2c89b69c2b068fc378daa952ba7f163c4a11628f55a4df523b3ef",
            "0x000000000000000000000000646dc5fc4009c4c84a424b6ae0f494b374bae1ce",
            "0x0000000000000000000000001804c8ab1f12e6bbf3894d4083f33e07309d1f38"
          ],
          "data": "0x00000000000000000000000000000000000000000000000000009184e72a0000",
          "blockHash": "0xbb2fbf4f9a8248b649d6fb8444450cd2f553a001b9bc822af8e9694e2d10ebb2",
          "blockNumber": "0x17b834e",
          "blockTimestamp": "0x69ed7f5f",
          "transactionHash": "0x607521980baa4e69b2dd5e7e516c4853c8acbda521dde35838bab11b9831af18",
          "transactionIndex": "0x0",
          "logIndex": "0x0",
          "removed": false
        },
        {
          "address": "0xc02aaa39b223fe8d0a0e5c4f27ead9083c756cc2",
          "topics": [
            "0xddf252ad1be2c89b69c2b068fc378daa952ba7f163c4a11628f55a4df523b3ef",
            "0x000000000000000000000000646dc5fc4009c4c84a424b6ae0f494b374bae1ce",
            "0x000000000000000000000000cbe5659df21cbcfabe4da962f7a9081f26b3ed82"
          ],
          "data": "0x00000000000000000000000000000000000000000000000000384665653e0000",
          "blockHash": "0xbb2fbf4f9a8248b649d6fb8444450cd2f553a001b9bc822af8e9694e2d10ebb2",
          "blockNumber": "0x17b834e",
          "blockTimestamp": "0x69ed7f5f",
          "transactionHash": "0x607521980baa4e69b2dd5e7e516c4853c8acbda521dde35838bab11b9831af18",
          "transactionIndex": "0x0",
          "logIndex": "0x1",
          "removed": false
        },
        {
          "address": "0xa5f104f8f78d5ba9aec4a383c0927337fd4e997b",
          "topics": [
            "0xddf252ad1be2c89b69c2b068fc378daa952ba7f163c4a11628f55a4df523b3ef",
            "0x000000000000000000000000cbe5659df21cbcfabe4da962f7a9081f26b3ed82",
            "0x000000000000000000000000646dc5fc4009c4c84a424b6ae0f494b374bae1ce",
            "0x00000000000000000000000000000000000000000000000000000000000000f7"
          ],
          "data": "0x",
          "blockHash": "0xbb2fbf4f9a8248b649d6fb8444450cd2f553a001b9bc822af8e9694e2d10ebb2",
          "blockNumber": "0x17b834e",
          "blockTimestamp": "0x69ed7f5f",
          "transactionHash": "0x607521980baa4e69b2dd5e7e516c4853c8acbda521dde35838bab11b9831af18",
          "transactionIndex": "0x0",
          "logIndex": "0x2",
          "removed": false
        },
        {
          "address": "0x8fa71914948544c60e3379064567dcf0e6564d27",
          "topics": [
            "0xc0ac3eb1e8caef05b202043f34de8e3173fab712167584f7a2a9f4c302bd0e9c",
            "0x450aaa92852ee232c98b499dd1c1e5f74f155511f384021de36461e41acea8d8",
            "0x000000000000000000000000a5f104f8f78d5ba9aec4a383c0927337fd4e997b",
            "0x00000000000000000000000000000000000000000000000000000000000000f7"
          ],
          "data": "0x000000000000000000000000cbe5659df21cbcfabe4da962f7a9081f26b3ed82000000000000000000000000646dc5fc4009c4c84a424b6ae0f494b374bae1ce000000000000000000000000c02aaa39b223fe8d0a0e5c4f27ead9083c756cc20000000000000000000000000000000000000000000000000038d7ea4c680000",
          "blockHash": "0xbb2fbf4f9a8248b649d6fb8444450cd2f553a001b9bc822af8e9694e2d10ebb2",
          "blockNumber": "0x17b834e",
          "blockTimestamp": "0x69ed7f5f",
          "transactionHash": "0x607521980baa4e69b2dd5e7e516c4853c8acbda521dde35838bab11b9831af18",
          "transactionIndex": "0x0",
          "logIndex": "0x3",
          "removed": false
        }
      ],
      "logsBloom": "0x00000000000000000000010000000000000000000002000000000000000000000000002000000000400000000000000002000000090000000000000000100000000000000000000000010008000000000000000000000000080000000000000000000000000000000005000000000000000000000800000000000010200000000800000000040000000004000000000000000000000000000000000000000000000000200000000400000000000000000000000000000080040000000000000000000002000004000400000000100000000000000000021080000000000000000100200000000000000000000000000000000000004000000000000000000000",
      "type": "0x2",
      "transactionHash": "0x607521980baa4e69b2dd5e7e516c4853c8acbda521dde35838bab11b9831af18",
      "transactionIndex": "0x0",
      "blockHash": "0xbb2fbf4f9a8248b649d6fb8444450cd2f553a001b9bc822af8e9694e2d10ebb2",
      "blockNumber": "0x17b834e",
      "gasUsed": "0x20125",
      "effectiveGasPrice": "0x1ba81c",
      "blobGasPrice": "0x1",
      "from": "0x646dc5fc4009c4c84a424b6ae0f494b374bae1ce",
      "to": "0x8fa71914948544c60e3379064567dcf0e6564d27",
      "contractAddress": null
    }
  ],
  "libraries": [],
  "pending": [],
  "returns": {},
  "timestamp": 1778506455259,
  "chain": 31337,
  "commit": "59e30a9"
}