{
  "transactions": [
    {
      "hash": "0x8d90abbb056d32f0d67a09573fcbc70bb27163c82e74e4b632073cf1b73e6361",
      "transactionType": "CALL",
      "contractName": null,
      "contractAddress": "0x73973d222c3fda5b2563d269da9e19cb125000f4",
      "function": "settle((uint256,address),(uint8,bool,address,uint256,address,uint256,address,uint64,uint64,uint256),(uint8,bytes32,bytes32))",
      "arguments": [
        "(0, 0x2c2dbA75492E0C4A1D10B41303167aEC59586C9c)",
        "(0, false, 0x38D4dE42C9c5640A2799B372D27B01957E0a3673, 389, 0xC02aaA39b223FE8D0A0e5C4F27eAD9083C756Cc2, 22000000000000000, 0x646dC5Fc4009C4C84a424B6aE0f494b374bAE1Ce, 1772238169, 1779827469, 3)",
        "(27, 0x4b0d94b6a7db0b5a3da01e2da6e88bdbb3d73fe3bbf42aff3936c13cb8ad5a34, 0x473b1549522ff3e54d57f635a06b2aa6f547c3b753c382b79e1e1af440829fb7)"
      ],
      "transaction": {
        "from": "0x2c2dba75492e0c4a1d10b41303167aec59586c9c",
        "to": "0x73973d222c3fda5b2563d269da9e19cb125000f4",
        "gas": "0x2c4bb",
        "value": "0x0",
        "input": "0x3bae3e7900000000000000000000000000000000000000000000000000000000000000000000000000000000000000002c2dba75492e0c4a1d10b41303167aec59586c9c0000000000000000000000000000000000000000000000000000000000000000000000000000000000000000000000000000000000000000000000000000000000000000000000000000000038d4de42c9c5640a2799b372d27b01957e0a36730000000000000000000000000000000000000000000000000000000000000185000000000000000000000000c02aaa39b223fe8d0a0e5c4f27ead9083c756cc2000000000000000000000000000000000000000000000000004e28e2290f0000000000000000000000000000646dc5fc4009c4c84a424b6ae0f494b374bae1ce0000000000000000000000000000000000000000000000000000000069a23559000000000000000000000000000000000000000000000000000000006a16030d0000000000000000000000000000000000000000000000000000000000000003000000000000000000000000000000000000000000000000000000000000001b4b0d94b6a7db0b5a3da01e2da6e88bdbb3d73fe3bbf42aff3936c13cb8ad5a34473b1549522ff3e54d57f635a06b2aa6f547c3b753c382b79e1e1af440829fb7",
        "nonce": "0x68",
        "chainId": "0x7a69"
      },
      "additionalContracts": [],
      "isFixedGasLimit": false
    }
  ],
  "receipts": [
    {
      "status": "0x1",
      "cumulativeGasUsed": "0x2011d",
      "logs": [
        {
          "address": "0xc02aaa39b223fe8d0a0e5c4f27ead9083c756cc2",
          "topics": [
            "0xddf252ad1be2c89b69c2b068fc378daa952ba7f163c4a11628f55a4df523b3ef",
            "0x0000000000000000000000002c2dba75492e0c4a1d10b41303167aec59586c9c",
            "0x0000000000000000000000001804c8ab1f12e6bbf3894d4083f33e07309d1f38"
          ],
          "data": "0x0000000000000000000000000000000000000000000000000000c816bdd9c000",
          "blockHash": "0xc7507b9a93453c766f1782544d4a9a1f2ca03fc2afc62e9903ce1d6852561e1a",
          "blockNumber": "0x17b73a5",
          "blockTimestamp": "0x69e1c919",
          "transactionHash": "0x8d90abbb056d32f0d67a09573fcbc70bb27163c82e74e4b632073cf1b73e6361",
          "transactionIndex": "0x0",
          "logIndex": "0x0",
          "removed": false
        },
        {
          "address": "0xc02aaa39b223fe8d0a0e5c4f27ead9083c756cc2",
          "topics": [
            "0xddf252ad1be2c89b69c2b068fc378daa952ba7f163c4a11628f55a4df523b3ef",
            "0x0000000000000000000000002c2dba75492e0c4a1d10b41303167aec59586c9c",
            "0x000000000000000000000000646dc5fc4009c4c84a424b6ae0f494b374bae1ce"
          ],
          "data": "0x000000000000000000000000000000000000000000000000004d60cb6b354000",
          "blockHash": "0xc7507b9a93453c766f1782544d4a9a1f2ca03fc2afc62e9903ce1d6852561e1a",
          "blockNumber": "0x17b73a5",
          "blockTimestamp": "0x69e1c919",
          "transactionHash": "0x8d90abbb056d32f0d67a09573fcbc70bb27163c82e74e4b632073cf1b73e6361",
          "transactionIndex": "0x0",
          "logIndex": "0x1",
          "removed": false
        },
        {
          "address": "0x38d4de42c9c5640a2799b372d27b01957e0a3673",
          "topics": [
            "0xddf252ad1be2c89b69c2b068fc378daa952ba7f163c4a11628f55a4df523b3ef",
            "0x000000000000000000000000646dc5fc4009c4c84a424b6ae0f494b374bae1ce",
            "0x0000000000000000000000002c2dba75492e0c4a1d10b41303167aec59586c9c",
            "0x0000000000000000000000000000000000000000000000000000000000000185"
          ],
          "data": "0x",
          "blockHash": "0xc7507b9a93453c766f1782544d4a9a1f2ca03fc2afc62e9903ce1d6852561e1a",
          "blockNumber": "0x17b73a5",
          "blockTimestamp": "0x69e1c919",
          "transactionHash": "0x8d90abbb056d32f0d67a09573fcbc70bb27163c82e74e4b632073cf1b73e6361",
          "transactionIndex": "0x0",
          "logIndex": "0x2",
          "removed": false
        },
        {
          "address": "0x73973d222c3fda5b2563d269da9e19cb125000f4",
          "topics": [
            "0xc0ac3eb1e8caef05b202043f34de8e3173fab712167584f7a2a9f4c302bd0e9c",
            "0xc9e738587649e0543b26ee7a1142cf4eac1fb9cdca7be8a7b14cad22c4eee2e1",
            "0x00000000000000000000000038d4de42c9c5640a2799b372d27b01957e0a3673",
            "0x0000000000000000000000000000000000000000000000000000000000000185"
          ],
          "data": "0x000000000000000000000000646dc5fc4009c4c84a424b6ae0f494b374bae1ce0000000000000000000000002c2dba75492e0c4a1d10b41303167aec59586c9c000000000000000000000000c02aaa39b223fe8d0a0e5c4f27ead9083c756cc2000000000000000000000000000000000000000000000000004e28e2290f0000",
          "blockHash": "0xc7507b9a93453c766f1782544d4a9a1f2ca03fc2afc62e9903ce1d6852561e1a",
          "blockNumber": "0x17b73a5",
          "blockTimestamp": "0x69e1c919",
          "transactionHash": "0x8d90abbb056d32f0d67a09573fcbc70bb27163c82e74e4b632073cf1b73e6361",
          "transactionIndex": "0x0",
          "logIndex": "0x3",
          "removed": false
        }
      ],
      "logsBloom": "0x80000000000000000000000000000000000000000002001000000010000000000000000000000000000000000000020002000000090000000004100800100000000200000000001021000008000000000000000000000000000000000000000000000000000004000005000000000000000000000000000000000010000000000000000000000000000004000000000000000000000008000000000000000000000000000000000000200000000000000000000000000080400000000100000000000002000004000000000000000000000000000000000000000000000000000100200000000000000200000000000000000000000000000000000000000000",
      "type": "0x2",
      "transactionHash": "0x8d90abbb056d32f0d67a09573fcbc70bb27163c82e74e4b632073cf1b73e6361",
      "transactionIndex": "0x0",
      "blockHash": "0xc7507b9a93453c766f1782544d4a9a1f2ca03fc2afc62e9903ce1d6852561e1a",
      "blockNumber": "0x17b73a5",
      "gasUsed": "0x2011d",
      "effectiveGasPrice": "0xf4248",
      "blobGasPrice": "0x1",
      "from": "0x2c2dba75492e0c4a1d10b41303167aec59586c9c",
      "to": "0x73973d222c3fda5b2563d269da9e19cb125000f4",
      "contractAddress": null
    }
  ],
  "libraries": [],
  "pending": [],
  "returns": {},
  "timestamp": 1778453709972,
  "chain": 31337,
  "commit": "f87d399"
}