{
  "transactions": [
    {
      "hash": "0x16f7696c0f3a26c26b4aa74568a25937596c7777472ebf63a048052ceab9edf4",
      "transactionType": "CALL",
      "contractName": null,
      "contractAddress": "0x8fa71914948544c60e3379064567dcf0e6564d27",
      "function": "settle((uint256,address),(uint8,bool,address,uint256,address,uint256,address,uint64,uint64,uint256),(uint8,bytes32,bytes32))",
      "arguments": [
        "(0, 0x646dC5Fc4009C4C84a424B6aE0f494b374bAE1Ce)",
        "(0, false, 0xA5f104F8f78d5ba9AEC4a383c0927337Fd4E997B, 54, 0xC02aaA39b223FE8D0A0e5C4F27eAD9083C756Cc2, 27000000000000000, 0xe3745C151faB59B0740f4312b2B027F07D096639, 1772314195, 1779860091, 0)",
        "(27, 0xff5a238913e2fa296a42eee8056d6e8a830e9cd6d9185f6ea9cfe729c33d9a2e, 0x620314aa1a8d31bc07b8310ac63c822bddb58eace316fbb505f0d2d63fcb9e66)"
      ],
      "transaction": {
        "from": "0x646dc5fc4009c4c84a424b6ae0f494b374bae1ce",
        "to": "0x8fa71914948544c60e3379064567dcf0e6564d27",
        "gas": "0x2ee5b",
        "value": "0x0",
        "input": "0x3bae3e790000000000000000000000000000000000000000000000000000000000000000000000000000000000000000646dc5fc4009c4c84a424b6ae0f494b374bae1ce00000000000000000000000000000000000000000000000000000000000000000000000000000000000000000000000000000000000000000000000000000000000000000000000000000000a5f104f8f78d5ba9aec4a383c0927337fd4e997b0000000000000000000000000000000000000000000000000000000000000036000000000000000000000000c02aaa39b223fe8d0a0e5c4f27ead9083c756cc2000000000000000000000000000000000000000000000000005fec5b60ef8000000000000000000000000000e3745c151fab59b0740f4312b2b027f07d0966390000000000000000000000000000000000000000000000000000000069a35e53000000000000000000000000000000000000000000000000000000006a16827b0000000000000000000000000000000000000000000000000000000000000000000000000000000000000000000000000000000000000000000000000000001bff5a238913e2fa296a42eee8056d6e8a830e9cd6d9185f6ea9cfe729c33d9a2e620314aa1a8d31bc07b8310ac63c822bddb58eace316fbb505f0d2d63fcb9e66",
        "nonce": "0x47",
        "chainId": "0x7a69"
      },
      "additionalContracts": [],
      "isFixedGasLimit": false
    }
  ],
  "receipts": [
    {
      "status": "0x1",
      "cumulativeGasUsed": "0x20111",
      "logs": [
        {
          "address": "0xc02aaa39b223fe8d0a0e5c4f27ead9083c756cc2",
          "topics": [
            "0xddf252ad1be2c89b69c2b068fc378daa952ba7f163c4a11628f55a4df523b3ef",
            "0x000000000000000000000000646dc5fc4009c4c84a424b6ae0f494b374bae1ce",
            "0x0000000000000000000000001804c8ab1f12e6bbf3894d4083f33e07309d1f38"
          ],
          "data": "0x0000000000000000000000000000000000000000000000000000f5904616e000",
          "blockHash": "0x1ae71a7134852e4fe20d3bb790cc76fe46da6bc7b87b7ed06deb5d716efaaec9",
          "blockNumber": "0x17b8329",
          "blockTimestamp": "0x69e2c028",
          "transactionHash": "0x16f7696c0f3a26c26b4aa74568a25937596c7777472ebf63a048052ceab9edf4",
          "transactionIndex": "0x0",
          "logIndex": "0x0",
          "removed": false
        },
        {
          "address": "0xc02aaa39b223fe8d0a0e5c4f27ead9083c756cc2",
          "topics": [
            "0xddf252ad1be2c89b69c2b068fc378daa952ba7f163c4a11628f55a4df523b3ef",
            "0x000000000000000000000000646dc5fc4009c4c84a424b6ae0f494b374bae1ce",
            "0x000000000000000000000000e3745c151fab59b0740f4312b2b027f07d096639"
          ],
          "data": "0x000000000000000000000000000000000000000000000000005ef6cb1ad8a000",
          "blockHash": "0x1ae71a7134852e4fe20d3bb790cc76fe46da6bc7b87b7ed06deb5d716efaaec9",
          "blockNumber": "0x17b8329",
          "blockTimestamp": "0x69e2c028",
          "transactionHash": "0x16f7696c0f3a26c26b4aa74568a25937596c7777472ebf63a048052ceab9edf4",
          "transactionIndex": "0x0",
          "logIndex": "0x1",
          "removed": false
        },
        {
          "address": "0xa5f104f8f78d5ba9aec4a383c0927337fd4e997b",
          "topics": [
            "0xddf252ad1be2c89b69c2b068fc378daa952ba7f163c4a11628f55a4df523b3ef",
            "0x000000000000000000000000e3745c151fab59b0740f4312b2b027f07d096639",
            "0x000000000000000000000000646dc5fc4009c4c84a424b6ae0f494b374bae1ce",
            "0x0000000000000000000000000000000000000000000000000000000000000036"
          ],
          "data": "0x",
          "blockHash": "0x1ae71a7134852e4fe20d3bb790cc76fe46da6bc7b87b7ed06deb5d716efaaec9",
          "blockNumber": "0x17b8329",
          "blockTimestamp": "0x69e2c028",
          "transactionHash": "0x16f7696c0f3a26c26b4aa74568a25937596c7777472ebf63a048052ceab9edf4",
          "transactionIndex": "0x0",
          "logIndex": "0x2",
          "removed": false
        },
        {
          "address": "0x8fa71914948544c60e3379064567dcf0e6564d27",
          "topics": [
            "0xc0ac3eb1e8caef05b202043f34de8e3173fab712167584f7a2a9f4c302bd0e9c",
            "0xa5cc30a61cd2e4e59fc1520ea1615594b35e30e5302e90e6d6f3bcd7300dd5ca",
            "0x000000000000000000000000a5f104f8f78d5ba9aec4a383c0927337fd4e997b",
            "0x0000000000000000000000000000000000000000000000000000000000000036"
          ],
          "data": "0x000000000000000000000000e3745c151fab59b0740f4312b2b027f07d096639000000000000000000000000646dc5fc4009c4c84a424b6ae0f494b374bae1ce000000000000000000000000c02aaa39b223fe8d0a0e5c4f27ead9083c756cc2000000000000000000000000000000000000000000000000005fec5b60ef8000",
          "blockHash": "0x1ae71a7134852e4fe20d3bb790cc76fe46da6bc7b87b7ed06deb5d716efaaec9",
          "blockNumber": "0x17b8329",
          "blockTimestamp": "0x69e2c028",
          "transactionHash": "0x16f7696c0f3a26c26b4aa74568a25937596c7777472ebf63a048052ceab9edf4",
          "transactionIndex": "0x0",
          "logIndex": "0x3",
          "removed": false
        }
      ],
      "logsBloom": "0x00000000000000000000010000000000000000000102000000000000000000000000000000000000000000000000000042000000090000000000000000100000000000000000000000010008000000000000000000000000080000000000000000000000000000000005000000000000000000000000000000000010200000000801000000040000000004000000000000000000000000000000000000000000000000200000000400000000000000000000000000000080000000000002000000000002000004000000000000000000000000000008400080000040000000000100200000000000000002000000000000000000000000008000000000000000",
      "type": "0x2",
      "transactionHash": "0x16f7696c0f3a26c26b4aa74568a25937596c7777472ebf63a048052ceab9edf4",
      "transactionIndex": "0x0",
      "blockHash": "0x1ae71a7134852e4fe20d3bb790cc76fe46da6bc7b87b7ed06deb5d716efaaec9",
      "blockNumber": "0x17b8329",
      "gasUsed": "0x20111",
      "effectiveGasPrice": "0x1ba81c",
      "blobGasPrice": "0x1",
      "from": "0x646dc5fc4009c4c84a424b6ae0f494b374bae1ce",
      "to": "0x8fa71914948544c60e3379064567dcf0e6564d27",
      "contractAddress": null
    }
  ],
  "libraries": [],
  "pending": [],
  "returns": {},
  "timestamp": 1778506417408,
  "chain": 31337,
  "commit": "59e30a9"
}