{
  "transactions": [
    {
      "hash": "0x5e3a8653a5600213394d6d9f50c3ed3bdadf5dc4116d6578db78d502c96651cf",
      "transactionType": "CALL",
      "contractName": null,
      "contractAddress": "0x73973d222c3fda5b2563d269da9e19cb125000f4",
      "function": "settle((uint256,address),(uint8,bool,address,uint256,address,uint256,address,uint64,uint64,uint256),(uint8,bytes32,bytes32))",
      "arguments": [
        "(140, 0x646dC5Fc4009C4C84a424B6aE0f494b374bAE1Ce)",
        "(1, false, 0x38D4dE42C9c5640A2799B372D27B01957E0a3673, 140, 0xC02aaA39b223FE8D0A0e5C4F27eAD9083C756Cc2, 389000000000000000, 0xcbe5659df21Cbcfabe4da962F7a9081F26B3ed82, 1772755092, 1779310546, 8)",
        "(28, 0x7a0429ef902b7d7722a49900e1e1d2a49ba9bc7c386944c66630b05499f6909c, 0x48155692f51ccfcda89d372328cf074d7c557ad2c1dbbee97513c56efa90ac12)"
      ],
      "transaction": {
        "from": "0x646dc5fc4009c4c84a424b6ae0f494b374bae1ce",
        "to": "0x73973d222c3fda5b2563d269da9e19cb125000f4",
        "gas": "0x2c5dc",
        "value": "0x0",
        "input": "0x3bae3e79000000000000000000000000000000000000000000000000000000000000008c000000000000000000000000646dc5fc4009c4c84a424b6ae0f494b374bae1ce0000000000000000000000000000000000000000000000000000000000000001000000000000000000000000000000000000000000000000000000000000000000000000000000000000000038d4de42c9c5640a2799b372d27b01957e0a3673000000000000000000000000000000000000000000000000000000000000008c000000000000000000000000c02aaa39b223fe8d0a0e5c4f27ead9083c756cc20000000000000000000000000000000000000000000000000566017061a08000000000000000000000000000cbe5659df21cbcfabe4da962f7a9081f26b3ed820000000000000000000000000000000000000000000000000000000069aa1894000000000000000000000000000000000000000000000000000000006a0e1fd20000000000000000000000000000000000000000000000000000000000000008000000000000000000000000000000000000000000000000000000000000001c7a0429ef902b7d7722a49900e1e1d2a49ba9bc7c386944c66630b05499f6909c48155692f51ccfcda89d372328cf074d7c557ad2c1dbbee97513c56efa90ac12",
        "nonce": "0xa0",
        "chainId": "0x7a69"
      },
      "additionalContracts": [],
      "isFixedGasLimit": false
    }
  ],
  "receipts": [
    {
      "status": "0x1",
      "cumulativeGasUsed": "0x201ee",
      "logs": [
        {
          "address": "0xc02aaa39b223fe8d0a0e5c4f27ead9083c756cc2",
          "topics": [
            "0xddf252ad1be2c89b69c2b068fc378daa952ba7f163c4a11628f55a4df523b3ef",
            "0x000000000000000000000000cbe5659df21cbcfabe4da962f7a9081f26b3ed82",
            "0x0000000000000000000000001804c8ab1f12e6bbf3894d4083f33e07309d1f38"
          ],
          "data": "0x000000000000000000000000000000000000000000000000000dd1ef342d2000",
          "blockHash": "0x55608333f7dcdec0936935e19ded5158aeb91b8d74b41674ba83a31d4372e1a1",
          "blockNumber": "0x17b73d2",
          "blockTimestamp": "0x69e9cee2",
          "transactionHash": "0x5e3a8653a5600213394d6d9f50c3ed3bdadf5dc4116d6578db78d502c96651cf",
          "transactionIndex": "0x0",
          "logIndex": "0x0",
          "removed": false
        },
        {
          "address": "0xc02aaa39b223fe8d0a0e5c4f27ead9083c756cc2",
          "topics": [
            "0xddf252ad1be2c89b69c2b068fc378daa952ba7f163c4a11628f55a4df523b3ef",
            "0x000000000000000000000000cbe5659df21cbcfabe4da962f7a9081f26b3ed82",
            "0x000000000000000000000000646dc5fc4009c4c84a424b6ae0f494b374bae1ce"
          ],
          "data": "0x00000000000000000000000000000000000000000000000005582f812d736000",
          "blockHash": "0x55608333f7dcdec0936935e19ded5158aeb91b8d74b41674ba83a31d4372e1a1",
          "blockNumber": "0x17b73d2",
          "blockTimestamp": "0x69e9cee2",
          "transactionHash": "0x5e3a8653a5600213394d6d9f50c3ed3bdadf5dc4116d6578db78d502c96651cf",
          "transactionIndex": "0x0",
          "logIndex": "0x1",
          "removed": false
        },
        {
          "address": "0x38d4de42c9c5640a2799b372d27b01957e0a3673",
          "topics": [
            "0xddf252ad1be2c89b69c2b068fc378daa952ba7f163c4a11628f55a4df523b3ef",
            "0x000000000000000000000000646dc5fc4009c4c84a424b6ae0f494b374bae1ce",
            "0x000000000000000000000000cbe5659df21cbcfabe4da962f7a9081f26b3ed82",
            "0x000000000000000000000000000000000000000000000000000000000000008c"
          ],
          "data": "0x",
          "blockHash": "0x55608333f7dcdec0936935e19ded5158aeb91b8d74b41674ba83a31d4372e1a1",
          "blockNumber": "0x17b73d2",
          "blockTimestamp": "0x69e9cee2",
          "transactionHash": "0x5e3a8653a5600213394d6d9f50c3ed3bdadf5dc4116d6578db78d502c96651cf",
          "transactionIndex": "0x0",
          "logIndex": "0x2",
          "removed": false
        },
        {
          "address": "0x73973d222c3fda5b2563d269da9e19cb125000f4",
          "topics": [
            "0xc0ac3eb1e8caef05b202043f34de8e3173fab712167584f7a2a9f4c302bd0e9c",
            "0x38e9e325bc681cef3d9691f2b6760e6cd22232ae77a45c756a8c6c43c263e866",
            "0x00000000000000000000000038d4de42c9c5640a2799b372d27b01957e0a3673",
            "0x000000000000000000000000000000000000000000000000000000000000008c"
          ],
          "data": "0x000000000000000000000000646dc5fc4009c4c84a424b6ae0f494b374bae1ce000000000000000000000000cbe5659df21cbcfabe4da962f7a9081f26b3ed82000000000000000000000000c02aaa39b223fe8d0a0e5c4f27ead9083c756cc20000000000000000000000000000000000000000000000000566017061a08000",
          "blockHash": "0x55608333f7dcdec0936935e19ded5158aeb91b8d74b41674ba83a31d4372e1a1",
          "blockNumber": "0x17b73d2",
          "blockTimestamp": "0x69e9cee2",
          "transactionHash": "0x5e3a8653a5600213394d6d9f50c3ed3bdadf5dc4116d6578db78d502c96651cf",
          "transactionIndex": "0x0",
          "logIndex": "0x3",
          "removed": false
        }
      ],
      "logsBloom": "0x00000000000000000000000000000000000000000002000000008000000000000000000000000000000000000000020002000000090000000004100000100000000000000000041021000008002000000000000000000000000000000000000000000000000000000005000000000000000000000000000000000010000000000000000000000000000004000000000000000000200008000000000000000020000000000000000000000000000000000000000000000080400000000000000000000002000004000400000000000000000000000000020004000000000000000100200000000000000000000000000000000000004000000000000000000000",
      "type": "0x2",
      "transactionHash": "0x5e3a8653a5600213394d6d9f50c3ed3bdadf5dc4116d6578db78d502c96651cf",
      "transactionIndex": "0x0",
      "blockHash": "0x55608333f7dcdec0936935e19ded5158aeb91b8d74b41674ba83a31d4372e1a1",
      "blockNumber": "0x17b73d2",
      "gasUsed": "0x201ee",
      "effectiveGasPrice": "0xf4248",
      "blobGasPrice": "0x1",
      "from": "0x646dc5fc4009c4c84a424b6ae0f494b374bae1ce",
      "to": "0x73973d222c3fda5b2563d269da9e19cb125000f4",
      "contractAddress": null
    }
  ],
  "libraries": [],
  "pending": [],
  "returns": {},
  "timestamp": 1778453784815,
  "chain": 31337,
  "commit": "f87d399"
}