{
  "transactions": [
    {
      "hash": "0xe440eb7a5743c904fe69f18fece9e7e5a9e742e98d259b49b10929df53382886",
      "transactionType": "CALL",
      "contractName": null,
      "contractAddress": "0x73973d222c3fda5b2563d269da9e19cb125000f4",
      "function": "settle((uint256,address),(uint8,bool,address,uint256,address,uint256,address,uint64,uint64,uint256),(uint8,bytes32,bytes32))",
      "arguments": [
        "(324, 0x1302F142Fc55B165647d3Bd5dec227f569A2A907)",
        "(1, false, 0x38D4dE42C9c5640A2799B372D27B01957E0a3673, 324, 0xC02aaA39b223FE8D0A0e5C4F27eAD9083C756Cc2, 16000000000000000, 0x2c2dbA75492E0C4A1D10B41303167aEC59586C9c, 1772564083, 1779501555, 6)",
        "(28, 0xa2e61dfab6d034f5ae47f2f28486a5fece99e559a807b927291b90e53eea1dfe, 0x7f0549493fbd9ff9a94b5560feaeb4976f5b9074ac25bc61064bb00b31b39646)"
      ],
      "transaction": {
        "from": "0x1302f142fc55b165647d3bd5dec227f569a2a907",
        "to": "0x73973d222c3fda5b2563d269da9e19cb125000f4",
        "gas": "0x2efb0",
        "value": "0x0",
        "input": "0x3bae3e7900000000000000000000000000000000000000000000000000000000000001440000000000000000000000001302f142fc55b165647d3bd5dec227f569a2a9070000000000000000000000000000000000000000000000000000000000000001000000000000000000000000000000000000000000000000000000000000000000000000000000000000000038d4de42c9c5640a2799b372d27b01957e0a36730000000000000000000000000000000000000000000000000000000000000144000000000000000000000000c02aaa39b223fe8d0a0e5c4f27ead9083c756cc20000000000000000000000000000000000000000000000000038d7ea4c6800000000000000000000000000002c2dba75492e0c4a1d10b41303167aec59586c9c0000000000000000000000000000000000000000000000000000000069a72e73000000000000000000000000000000000000000000000000000000006a1109f30000000000000000000000000000000000000000000000000000000000000006000000000000000000000000000000000000000000000000000000000000001ca2e61dfab6d034f5ae47f2f28486a5fece99e559a807b927291b90e53eea1dfe7f0549493fbd9ff9a94b5560feaeb4976f5b9074ac25bc61064bb00b31b39646",
        "nonce": "0x71",
        "chainId": "0x7a69"
      },
      "additionalContracts": [],
      "isFixedGasLimit": false
    }
  ],
  "receipts": [
    {
      "status": "0x1",
      "cumulativeGasUsed": "0x201fa",
      "logs": [
        {
          "address": "0xc02aaa39b223fe8d0a0e5c4f27ead9083c756cc2",
          "topics": [
            "0xddf252ad1be2c89b69c2b068fc378daa952ba7f163c4a11628f55a4df523b3ef",
            "0x0000000000000000000000002c2dba75492e0c4a1d10b41303167aec59586c9c",
            "0x0000000000000000000000001804c8ab1f12e6bbf3894d4083f33e07309d1f38"
          ],
          "data": "0x00000000000000000000000000000000000000000000000000009184e72a0000",
          "blockHash": "0x80ce7fc8f1c26a15227b7122d9d1886b5983db3467d0fc3a59711cf7b7b55e9e",
          "blockNumber": "0x17b73d4",
          "blockTimestamp": "0x69ea2663",
          "transactionHash": "0xe440eb7a5743c904fe69f18fece9e7e5a9e742e98d259b49b10929df53382886",
          "transactionIndex": "0x0",
          "logIndex": "0x0",
          "removed": false
        },
        {
          "address": "0xc02aaa39b223fe8d0a0e5c4f27ead9083c756cc2",
          "topics": [
            "0xddf252ad1be2c89b69c2b068fc378daa952ba7f163c4a11628f55a4df523b3ef",
            "0x0000000000000000000000002c2dba75492e0c4a1d10b41303167aec59586c9c",
            "0x0000000000000000000000001302f142fc55b165647d3bd5dec227f569a2a907"
          ],
          "data": "0x00000000000000000000000000000000000000000000000000384665653e0000",
          "blockHash": "0x80ce7fc8f1c26a15227b7122d9d1886b5983db3467d0fc3a59711cf7b7b55e9e",
          "blockNumber": "0x17b73d4",
          "blockTimestamp": "0x69ea2663",
          "transactionHash": "0xe440eb7a5743c904fe69f18fece9e7e5a9e742e98d259b49b10929df53382886",
          "transactionIndex": "0x0",
          "logIndex": "0x1",
          "removed": false
        },
        {
          "address": "0x38d4de42c9c5640a2799b372d27b01957e0a3673",
          "topics": [
            "0xddf252ad1be2c89b69c2b068fc378daa952ba7f163c4a11628f55a4df523b3ef",
            "0x0000000000000000000000001302f142fc55b165647d3bd5dec227f569a2a907",
            "0x0000000000000000000000002c2dba75492e0c4a1d10b41303167aec59586c9c",
            "0x0000000000000000000000000000000000000000000000000000000000000144"
          ],
          "data": "0x",
          "blockHash": "0x80ce7fc8f1c26a15227b7122d9d1886b5983db3467d0fc3a59711cf7b7b55e9e",
          "blockNumber": "0x17b73d4",
          "blockTimestamp": "0x69ea2663",
          "transactionHash": "0xe440eb7a5743c904fe69f18fece9e7e5a9e742e98d259b49b10929df53382886",
          "transactionIndex": "0x0",
          "logIndex": "0x2",
          "removed": false
        },
        {
          "address": "0x73973d222c3fda5b2563d269da9e19cb125000f4",
          "topics": [
            "0xc0ac3eb1e8caef05b202043f34de8e3173fab712167584f7a2a9f4c302bd0e9c",
            "0xacdb83381f5ce33c31d8f248dbc44fc08331945d157c35bb07e25cdd865bc356",
            "0x00000000000000000000000038d4de42c9c5640a2799b372d27b01957e0a3673",
            "0x0000000000000000000000000000000000000000000000000000000000000144"
          ],
          "data": "0x0000000000000000000000001302f142fc55b165647d3bd5dec227f569a2a9070000000000000000000000002c2dba75492e0c4a1d10b41303167aec59586c9c000000000000000000000000c02aaa39b223fe8d0a0e5c4f27ead9083c756cc20000000000000000000000000000000000000000000000000038d7ea4c680000",
          "blockHash": "0x80ce7fc8f1c26a15227b7122d9d1886b5983db3467d0fc3a59711cf7b7b55e9e",
          "blockNumber": "0x17b73d4",
          "blockTimestamp": "0x69ea2663",
          "transactionHash": "0xe440eb7a5743c904fe69f18fece9e7e5a9e742e98d259b49b10929df53382886",
          "transactionIndex": "0x0",
          "logIndex": "0x3",
          "removed": false
        }
      ],
      "logsBloom": "0x00000000000000000000000000000002000000000002000000000000000000000000000000000000000000000000020002000000080200000004100800100000000200000000001021000008000000000000000000000000000000000000000000000000000004040001000000000000000000000000000000000090000000000000000000000000000004000000000000000000000008000000000010000000000000000000000000000000000100000000000000000080400800000000000000000002000004000000000200000000000000000000000000000000000000000100200000000000000040000000000000000000000000000000000000000000",
      "type": "0x2",
      "transactionHash": "0xe440eb7a5743c904fe69f18fece9e7e5a9e742e98d259b49b10929df53382886",
      "transactionIndex": "0x0",
      "blockHash": "0x80ce7fc8f1c26a15227b7122d9d1886b5983db3467d0fc3a59711cf7b7b55e9e",
      "blockNumber": "0x17b73d4",
      "gasUsed": "0x201fa",
      "effectiveGasPrice": "0xf4248",
      "blobGasPrice": "0x1",
      "from": "0x1302f142fc55b165647d3bd5dec227f569a2a907",
      "to": "0x73973d222c3fda5b2563d269da9e19cb125000f4",
      "contractAddress": null
    }
  ],
  "libraries": [],
  "pending": [],
  "returns": {},
  "timestamp": 1778453786435,
  "chain": 31337,
  "commit": "f87d399"
}