{
  "transactions": [
    {
      "hash": "0x799f05f458f32e4567cc26c025822dd140fc60eba9005990d2bffa629da1c445",
      "transactionType": "CALL",
      "contractName": null,
      "contractAddress": "0x8fa71914948544c60e3379064567dcf0e6564d27",
      "function": "settle((uint256,address),(uint8,bool,address,uint256,address,uint256,address,uint64,uint64,uint256),(uint8,bytes32,bytes32))",
      "arguments": [
        "(381, 0x646dC5Fc4009C4C84a424B6aE0f494b374bAE1Ce)",
        "(1, false, 0xA5f104F8f78d5ba9AEC4a383c0927337Fd4E997B, 381, 0xC02aaA39b223FE8D0A0e5C4F27eAD9083C756Cc2, 37000000000000000, 0xa382b0E75C192D9CDF5c084E58b750Cea7761Bd0, 1773199372, 1778974914, 5)",
        "(28, 0xc6823a017e929aa80bbe8ac299c108d967ac277c8855ab134713a95b4665b8ab, 0x07f2e0d2974d72b9ba97429e743ea8bba92197ae87f2c83c60dd922102220bee)"
      ],
      "transaction": {
        "from": "0x646dc5fc4009c4c84a424b6ae0f494b374bae1ce",
        "to": "0x8fa71914948544c60e3379064567dcf0e6564d27",
        "gas": "0x2efb0",
        "value": "0x0",
        "input": "0x3bae3e79000000000000000000000000000000000000000000000000000000000000017d000000000000000000000000646dc5fc4009c4c84a424b6ae0f494b374bae1ce00000000000000000000000000000000000000000000000000000000000000010000000000000000000000000000000000000000000000000000000000000000000000000000000000000000a5f104f8f78d5ba9aec4a383c0927337fd4e997b000000000000000000000000000000000000000000000000000000000000017d000000000000000000000000c02aaa39b223fe8d0a0e5c4f27ead9083c756cc20000000000000000000000000000000000000000000000000083734dd0b08000000000000000000000000000a382b0e75c192d9cdf5c084e58b750cea7761bd00000000000000000000000000000000000000000000000000000000069b0e00c000000000000000000000000000000000000000000000000000000006a0900c20000000000000000000000000000000000000000000000000000000000000005000000000000000000000000000000000000000000000000000000000000001cc6823a017e929aa80bbe8ac299c108d967ac277c8855ab134713a95b4665b8ab07f2e0d2974d72b9ba97429e743ea8bba92197ae87f2c83c60dd922102220bee",
        "nonce": "0x50",
        "chainId": "0x7a69"
      },
      "additionalContracts": [],
      "isFixedGasLimit": false
    }
  ],
  "receipts": [
    {
      "status": "0x1",
      "cumulativeGasUsed": "0x201fa",
      "logs": [
        {
          "address": "0xc02aaa39b223fe8d0a0e5c4f27ead9083c756cc2",
          "topics": [
            "0xddf252ad1be2c89b69c2b068fc378daa952ba7f163c4a11628f55a4df523b3ef",
            "0x000000000000000000000000a382b0e75c192d9cdf5c084e58b750cea7761bd0",
            "0x0000000000000000000000001804c8ab1f12e6bbf3894d4083f33e07309d1f38"
          ],
          "data": "0x0000000000000000000000000000000000000000000000000001508356912000",
          "blockHash": "0xf2722b31c02631ea5cce62b1109d9c513561e8b2ad1222b6c08c068beaa3786f",
          "blockNumber": "0x17b8340",
          "blockTimestamp": "0x69e9b28a",
          "transactionHash": "0x799f05f458f32e4567cc26c025822dd140fc60eba9005990d2bffa629da1c445",
          "transactionIndex": "0x0",
          "logIndex": "0x0",
          "removed": false
        },
        {
          "address": "0xc02aaa39b223fe8d0a0e5c4f27ead9083c756cc2",
          "topics": [
            "0xddf252ad1be2c89b69c2b068fc378daa952ba7f163c4a11628f55a4df523b3ef",
            "0x000000000000000000000000a382b0e75c192d9cdf5c084e58b750cea7761bd0",
            "0x000000000000000000000000646dc5fc4009c4c84a424b6ae0f494b374bae1ce"
          ],
          "data": "0x000000000000000000000000000000000000000000000000008222ca7a1f6000",
          "blockHash": "0xf2722b31c02631ea5cce62b1109d9c513561e8b2ad1222b6c08c068beaa3786f",
          "blockNumber": "0x17b8340",
          "blockTimestamp": "0x69e9b28a",
          "transactionHash": "0x799f05f458f32e4567cc26c025822dd140fc60eba9005990d2bffa629da1c445",
          "transactionIndex": "0x0",
          "logIndex": "0x1",
          "removed": false
        },
        {
          "address": "0xa5f104f8f78d5ba9aec4a383c0927337fd4e997b",
          "topics": [
            "0xddf252ad1be2c89b69c2b068fc378daa952ba7f163c4a11628f55a4df523b3ef",
            "0x000000000000000000000000646dc5fc4009c4c84a424b6ae0f494b374bae1ce",
            "0x000000000000000000000000a382b0e75c192d9cdf5c084e58b750cea7761bd0",
            "0x000000000000000000000000000000000000000000000000000000000000017d"
          ],
          "data": "0x",
          "blockHash": "0xf2722b31c02631ea5cce62b1109d9c513561e8b2ad1222b6c08c068beaa3786f",
          "blockNumber": "0x17b8340",
          "blockTimestamp": "0x69e9b28a",
          "transactionHash": "0x799f05f458f32e4567cc26c025822dd140fc60eba9005990d2bffa629da1c445",
          "transactionIndex": "0x0",
          "logIndex": "0x2",
          "removed": false
        },
        {
          "address": "0x8fa71914948544c60e3379064567dcf0e6564d27",
          "topics": [
            "0xc0ac3eb1e8caef05b202043f34de8e3173fab712167584f7a2a9f4c302bd0e9c",
            "0x5f2a87c0dfe7f282aa2ca0e5a095902702a2408c8a5e323cf0987f3e5ddf2715",
            "0x000000000000000000000000a5f104f8f78d5ba9aec4a383c0927337fd4e997b",
            "0x000000000000000000000000000000000000000000000000000000000000017d"
          ],
          "data": "0x000000000000000000000000646dc5fc4009c4c84a424b6ae0f494b374bae1ce000000000000000000000000a382b0e75c192d9cdf5c084e58b750cea7761bd0000000000000000000000000c02aaa39b223fe8d0a0e5c4f27ead9083c756cc20000000000000000000000000000000000000000000000000083734dd0b08000",
          "blockHash": "0xf2722b31c02631ea5cce62b1109d9c513561e8b2ad1222b6c08c068beaa3786f",
          "blockNumber": "0x17b8340",
          "blockTimestamp": "0x69e9b28a",
          "transactionHash": "0x799f05f458f32e4567cc26c025822dd140fc60eba9005990d2bffa629da1c445",
          "transactionIndex": "0x0",
          "logIndex": "0x3",
          "removed": false
        }
      ],
      "logsBloom": "0x00000000000000000000010000000000000000000002000000000400000000000000000000000000000000000000000002000000090000000000000000100000000000000000000000010008000000000000000000000000080000000000000020000000800000000005000000000000000000010000040000000410200000000800000000040000000004000000000000100000000000000000000000000000000000200000000400000000000000000000000000000080000000000000000000000002000004000000000000000000000000000000000080000000000000000100200000000000000000000000000000000000100000000000400000000000",
      "type": "0x2",
      "transactionHash": "0x799f05f458f32e4567cc26c025822dd140fc60eba9005990d2bffa629da1c445",
      "transactionIndex": "0x0",
      "blockHash": "0xf2722b31c02631ea5cce62b1109d9c513561e8b2ad1222b6c08c068beaa3786f",
      "blockNumber": "0x17b8340",
      "gasUsed": "0x201fa",
      "effectiveGasPrice": "0x1ba81c",
      "blobGasPrice": "0x1",
      "from": "0x646dc5fc4009c4c84a424b6ae0f494b374bae1ce",
      "to": "0x8fa71914948544c60e3379064567dcf0e6564d27",
      "contractAddress": null
    }
  ],
  "libraries": [],
  "pending": [],
  "returns": {},
  "timestamp": 1778506442942,
  "chain": 31337,
  "commit": "59e30a9"
}