{
  "transactions": [
    {
      "hash": "0xb4c25f40fc1d9eaf8ef91325ec8e6c831ed1b4c06265135ac2d30c69d581d12b",
      "transactionType": "CALL",
      "contractName": null,
      "contractAddress": "0x73973d222c3fda5b2563d269da9e19cb125000f4",
      "function": "settle((uint256,address),(uint8,bool,address,uint256,address,uint256,address,uint64,uint64,uint256),(uint8,bytes32,bytes32))",
      "arguments": [
        "(0, 0x2c2dbA75492E0C4A1D10B41303167aEC59586C9c)",
        "(0, false, 0x38D4dE42C9c5640A2799B372D27B01957E0a3673, 377, 0xC02aaA39b223FE8D0A0e5C4F27eAD9083C756Cc2, 8000000000000000, 0x1302F142Fc55B165647d3Bd5dec227f569A2A907, 1773157193, 1778908445, 3)",
        "(28, 0xe410fbc06d4d8d1b4a372426b9708a2add354f3cd4ccea489a44e81030c56b53, 0x536a38c6c4b80e4659efdabccd3decc1ca0346dcf62dbc17bd50d3453f52d4d4)"
      ],
      "transaction": {
        "from": "0x2c2dba75492e0c4a1d10b41303167aec59586c9c",
        "to": "0x73973d222c3fda5b2563d269da9e19cb125000f4",
        "gas": "0x2ee8a",
        "value": "0x0",
        "input": "0x3bae3e7900000000000000000000000000000000000000000000000000000000000000000000000000000000000000002c2dba75492e0c4a1d10b41303167aec59586c9c0000000000000000000000000000000000000000000000000000000000000000000000000000000000000000000000000000000000000000000000000000000000000000000000000000000038d4de42c9c5640a2799b372d27b01957e0a36730000000000000000000000000000000000000000000000000000000000000179000000000000000000000000c02aaa39b223fe8d0a0e5c4f27ead9083c756cc2000000000000000000000000000000000000000000000000001c6bf5263400000000000000000000000000001302f142fc55b165647d3bd5dec227f569a2a9070000000000000000000000000000000000000000000000000000000069b03b49000000000000000000000000000000000000000000000000000000006a07fd1d0000000000000000000000000000000000000000000000000000000000000003000000000000000000000000000000000000000000000000000000000000001ce410fbc06d4d8d1b4a372426b9708a2add354f3cd4ccea489a44e81030c56b53536a38c6c4b80e4659efdabccd3decc1ca0346dcf62dbc17bd50d3453f52d4d4",
        "nonce": "0x63",
        "chainId": "0x7a69"
      },
      "additionalContracts": [],
      "isFixedGasLimit": false
    }
  ],
  "receipts": [
    {
      "status": "0x1",
      "cumulativeGasUsed": "0x20131",
      "logs": [
        {
          "address": "0xc02aaa39b223fe8d0a0e5c4f27ead9083c756cc2",
          "topics": [
            "0xddf252ad1be2c89b69c2b068fc378daa952ba7f163c4a11628f55a4df523b3ef",
            "0x0000000000000000000000002c2dba75492e0c4a1d10b41303167aec59586c9c",
            "0x0000000000000000000000001804c8ab1f12e6bbf3894d4083f33e07309d1f38"
          ],
          "data": "0x000000000000000000000000000000000000000000000000000048c273950000",
          "blockHash": "0xbc0f58773f1cdd1a37f8c4ef7516d99634b9690f4a5307487a62332e2cdfcb9c",
          "blockNumber": "0x17b7392",
          "blockTimestamp": "0x69de3504",
          "transactionHash": "0xb4c25f40fc1d9eaf8ef91325ec8e6c831ed1b4c06265135ac2d30c69d581d12b",
          "transactionIndex": "0x0",
          "logIndex": "0x0",
          "removed": false
        },
        {
          "address": "0xc02aaa39b223fe8d0a0e5c4f27ead9083c756cc2",
          "topics": [
            "0xddf252ad1be2c89b69c2b068fc378daa952ba7f163c4a11628f55a4df523b3ef",
            "0x0000000000000000000000002c2dba75492e0c4a1d10b41303167aec59586c9c",
            "0x0000000000000000000000001302f142fc55b165647d3bd5dec227f569a2a907"
          ],
          "data": "0x000000000000000000000000000000000000000000000000001c2332b29f0000",
          "blockHash": "0xbc0f58773f1cdd1a37f8c4ef7516d99634b9690f4a5307487a62332e2cdfcb9c",
          "blockNumber": "0x17b7392",
          "blockTimestamp": "0x69de3504",
          "transactionHash": "0xb4c25f40fc1d9eaf8ef91325ec8e6c831ed1b4c06265135ac2d30c69d581d12b",
          "transactionIndex": "0x0",
          "logIndex": "0x1",
          "removed": false
        },
        {
          "address": "0x38d4de42c9c5640a2799b372d27b01957e0a3673",
          "topics": [
            "0xddf252ad1be2c89b69c2b068fc378daa952ba7f163c4a11628f55a4df523b3ef",
            "0x0000000000000000000000001302f142fc55b165647d3bd5dec227f569a2a907",
            "0x0000000000000000000000002c2dba75492e0c4a1d10b41303167aec59586c9c",
            "0x0000000000000000000000000000000000000000000000000000000000000179"
          ],
          "data": "0x",
          "blockHash": "0xbc0f58773f1cdd1a37f8c4ef7516d99634b9690f4a5307487a62332e2cdfcb9c",
          "blockNumber": "0x17b7392",
          "blockTimestamp": "0x69de3504",
          "transactionHash": "0xb4c25f40fc1d9eaf8ef91325ec8e6c831ed1b4c06265135ac2d30c69d581d12b",
          "transactionIndex": "0x0",
          "logIndex": "0x2",
          "removed": false
        },
        {
          "address": "0x73973d222c3fda5b2563d269da9e19cb125000f4",
          "topics": [
            "0xc0ac3eb1e8caef05b202043f34de8e3173fab712167584f7a2a9f4c302bd0e9c",
            "0x3c5d440cc72d7224f79e9ec641bef6f537e1008d8c56c1d4257793c2d6192e0b",
            "0x00000000000000000000000038d4de42c9c5640a2799b372d27b01957e0a3673",
            "0x0000000000000000000000000000000000000000000000000000000000000179"
          ],
          "data": "0x0000000000000000000000001302f142fc55b165647d3bd5dec227f569a2a9070000000000000000000000002c2dba75492e0c4a1d10b41303167aec59586c9c000000000000000000000000c02aaa39b223fe8d0a0e5c4f27ead9083c756cc2000000000000000000000000000000000000000000000000001c6bf526340000",
          "blockHash": "0xbc0f58773f1cdd1a37f8c4ef7516d99634b9690f4a5307487a62332e2cdfcb9c",
          "blockNumber": "0x17b7392",
          "blockTimestamp": "0x69de3504",
          "transactionHash": "0xb4c25f40fc1d9eaf8ef91325ec8e6c831ed1b4c06265135ac2d30c69d581d12b",
          "transactionIndex": "0x0",
          "logIndex": "0x3",
          "removed": false
        }
      ],
      "logsBloom": "0x00000000000000000000000000000000000000000002000000000000000000000000000000000000000000000000020002000000080000000004100800100000000200000000001021000008000000000000000000000000000000000000000000000000080004000001000000000000000000000000000000000010000000000000000000000400000004000000000000800000000008004000000000000000000000000000000000000000000100000000000000000080400000000000000000000002000004000000000200000000004000000000000000000000000000000100200000020000000040000000000000000000000000000000000000000000",
      "type": "0x2",
      "transactionHash": "0xb4c25f40fc1d9eaf8ef91325ec8e6c831ed1b4c06265135ac2d30c69d581d12b",
      "transactionIndex": "0x0",
      "blockHash": "0xbc0f58773f1cdd1a37f8c4ef7516d99634b9690f4a5307487a62332e2cdfcb9c",
      "blockNumber": "0x17b7392",
      "gasUsed": "0x20131",
      "effectiveGasPrice": "0xf4248",
      "blobGasPrice": "0x1",
      "from": "0x2c2dba75492e0c4a1d10b41303167aec59586c9c",
      "to": "0x73973d222c3fda5b2563d269da9e19cb125000f4",
      "contractAddress": null
    }
  ],
  "libraries": [],
  "pending": [],
  "returns": {},
  "timestamp": 1778453692891,
  "chain": 31337,
  "commit": "f87d399"
}