{
  "transactions": [
    {
      "hash": "0x7a4d3117f921a2cd88a59bda6d22dbc4004968818f5c8a1698f0afe115940fdf",
      "transactionType": "CALL",
      "contractName": null,
      "contractAddress": "0x8fa71914948544c60e3379064567dcf0e6564d27",
      "function": "settle((uint256,address),(uint8,bool,address,uint256,address,uint256,address,uint64,uint64,uint256),(uint8,bytes32,bytes32))",
      "arguments": [
        "(0, 0xE233420d38D286C2F2Cf8dEe6564F132FBDB09DB)",
        "(0, false, 0xA5f104F8f78d5ba9AEC4a383c0927337Fd4E997B, 25, 0xC02aaA39b223FE8D0A0e5C4F27eAD9083C756Cc2, 1068000000000000000, 0x646dC5Fc4009C4C84a424B6aE0f494b374bAE1Ce, 1771977024, 1780197262, 16)",
        "(28, 0x5fc07ab7224ff2fd782d42ff95f8cdf73e356da04ff9f9dec3a46febc2496d5f, 0x39b472e12fbd4b73c9855900a940d6a2d859dd3c5ecac239e40b5ddbcb5521ab)"
      ],
      "transaction": {
        "from": "0xe233420d38d286c2f2cf8dee6564f132fbdb09db",
        "to": "0x8fa71914948544c60e3379064567dcf0e6564d27",
        "gas": "0x2c4c7",
        "value": "0x0",
        "input": "0x3bae3e790000000000000000000000000000000000000000000000000000000000000000000000000000000000000000e233420d38d286c2f2cf8dee6564f132fbdb09db00000000000000000000000000000000000000000000000000000000000000000000000000000000000000000000000000000000000000000000000000000000000000000000000000000000a5f104f8f78d5ba9aec4a383c0927337fd4e997b0000000000000000000000000000000000000000000000000000000000000019000000000000000000000000c02aaa39b223fe8d0a0e5c4f27ead9083c756cc20000000000000000000000000000000000000000000000000ed24c576c1e0000000000000000000000000000646dc5fc4009c4c84a424b6ae0f494b374bae1ce00000000000000000000000000000000000000000000000000000000699e3940000000000000000000000000000000000000000000000000000000006a1ba78e0000000000000000000000000000000000000000000000000000000000000010000000000000000000000000000000000000000000000000000000000000001c5fc07ab7224ff2fd782d42ff95f8cdf73e356da04ff9f9dec3a46febc2496d5f39b472e12fbd4b73c9855900a940d6a2d859dd3c5ecac239e40b5ddbcb5521ab",
        "nonce": "0x3d",
        "chainId": "0x7a69"
      },
      "additionalContracts": [],
      "isFixedGasLimit": false
    }
  ],
  "receipts": [
    {
      "status": "0x1",
      "cumulativeGasUsed": "0x20125",
      "logs": [
        {
          "address": "0xc02aaa39b223fe8d0a0e5c4f27ead9083c756cc2",
          "topics": [
            "0xddf252ad1be2c89b69c2b068fc378daa952ba7f163c4a11628f55a4df523b3ef",
            "0x000000000000000000000000e233420d38d286c2f2cf8dee6564f132fbdb09db",
            "0x0000000000000000000000001804c8ab1f12e6bbf3894d4083f33e07309d1f38"
          ],
          "data": "0x0000000000000000000000000000000000000000000000000025f16746338000",
          "blockHash": "0x0d6d7b221a98d38d28efecb8992a8fd11ea046f3e955e1783a6b9d84358c3f9a",
          "blockNumber": "0x17b83a6",
          "blockTimestamp": "0x6a019cc6",
          "transactionHash": "0x7a4d3117f921a2cd88a59bda6d22dbc4004968818f5c8a1698f0afe115940fdf",
          "transactionIndex": "0x0",
          "logIndex": "0x0",
          "removed": false
        },
        {
          "address": "0xc02aaa39b223fe8d0a0e5c4f27ead9083c756cc2",
          "topics": [
            "0xddf252ad1be2c89b69c2b068fc378daa952ba7f163c4a11628f55a4df523b3ef",
            "0x000000000000000000000000e233420d38d286c2f2cf8dee6564f132fbdb09db",
            "0x000000000000000000000000646dc5fc4009c4c84a424b6ae0f494b374bae1ce"
          ],
          "data": "0x0000000000000000000000000000000000000000000000000eac5af025ea8000",
          "blockHash": "0x0d6d7b221a98d38d28efecb8992a8fd11ea046f3e955e1783a6b9d84358c3f9a",
          "blockNumber": "0x17b83a6",
          "blockTimestamp": "0x6a019cc6",
          "transactionHash": "0x7a4d3117f921a2cd88a59bda6d22dbc4004968818f5c8a1698f0afe115940fdf",
          "transactionIndex": "0x0",
          "logIndex": "0x1",
          "removed": false
        },
        {
          "address": "0xa5f104f8f78d5ba9aec4a383c0927337fd4e997b",
          "topics": [
            "0xddf252ad1be2c89b69c2b068fc378daa952ba7f163c4a11628f55a4df523b3ef",
            "0x000000000000000000000000646dc5fc4009c4c84a424b6ae0f494b374bae1ce",
            "0x000000000000000000000000e233420d38d286c2f2cf8dee6564f132fbdb09db",
            "0x0000000000000000000000000000000000000000000000000000000000000019"
          ],
          "data": "0x",
          "blockHash": "0x0d6d7b221a98d38d28efecb8992a8fd11ea046f3e955e1783a6b9d84358c3f9a",
          "blockNumber": "0x17b83a6",
          "blockTimestamp": "0x6a019cc6",
          "transactionHash": "0x7a4d3117f921a2cd88a59bda6d22dbc4004968818f5c8a1698f0afe115940fdf",
          "transactionIndex": "0x0",
          "logIndex": "0x2",
          "removed": false
        },
        {
          "address": "0x8fa71914948544c60e3379064567dcf0e6564d27",
          "topics": [
            "0xc0ac3eb1e8caef05b202043f34de8e3173fab712167584f7a2a9f4c302bd0e9c",
            "0x9808f3aa615a2541110413c67f0be7878aa37e45a8424c727f6db21e4388816f",
            "0x000000000000000000000000a5f104f8f78d5ba9aec4a383c0927337fd4e997b",
            "0x0000000000000000000000000000000000000000000000000000000000000019"
          ],
          "data": "0x000000000000000000000000646dc5fc4009c4c84a424b6ae0f494b374bae1ce000000000000000000000000e233420d38d286c2f2cf8dee6564f132fbdb09db000000000000000000000000c02aaa39b223fe8d0a0e5c4f27ead9083c756cc20000000000000000000000000000000000000000000000000ed24c576c1e0000",
          "blockHash": "0x0d6d7b221a98d38d28efecb8992a8fd11ea046f3e955e1783a6b9d84358c3f9a",
          "blockNumber": "0x17b83a6",
          "blockTimestamp": "0x6a019cc6",
          "transactionHash": "0x7a4d3117f921a2cd88a59bda6d22dbc4004968818f5c8a1698f0afe115940fdf",
          "transactionIndex": "0x0",
          "logIndex": "0x3",
          "removed": false
        }
      ],
      "logsBloom": "0x00000000000000000000010000000000000000000002000000000000000000000000000000000000000000000000000002000000090000800000000000100000000000000000000000010008000000000000000000000000080000000000000000000001000000000005000000000000000000000000020000000010200000000800000000040000000004000000000000000000000000000000000000000000000000200000000400000000000000000000000000000080000000000000000000000012000004000000000000000000000000000002000080000000000000000100200004000000000000000000020000000000000000400000008000000000",
      "type": "0x2",
      "transactionHash": "0x7a4d3117f921a2cd88a59bda6d22dbc4004968818f5c8a1698f0afe115940fdf",
      "transactionIndex": "0x0",
      "blockHash": "0x0d6d7b221a98d38d28efecb8992a8fd11ea046f3e955e1783a6b9d84358c3f9a",
      "blockNumber": "0x17b83a6",
      "gasUsed": "0x20125",
      "effectiveGasPrice": "0x1ba81c",
      "blobGasPrice": "0x1",
      "from": "0xe233420d38d286c2f2cf8dee6564f132fbdb09db",
      "to": "0x8fa71914948544c60e3379064567dcf0e6564d27",
      "contractAddress": null
    }
  ],
  "libraries": [],
  "pending": [],
  "returns": {},
  "timestamp": 1778506555439,
  "chain": 31337,
  "commit": "59e30a9"
}