{
  "transactions": [
    {
      "hash": "0x6132fb3dd55e3a5059f2dd91971cce38796b4dd86b93cf99ea3b9727719e3dc9",
      "transactionType": "CALL",
      "contractName": null,
      "contractAddress": "0x73973d222c3fda5b2563d269da9e19cb125000f4",
      "function": "settle((uint256,address),(uint8,bool,address,uint256,address,uint256,address,uint64,uint64,uint256),(uint8,bytes32,bytes32))",
      "arguments": [
        "(0, 0x646dC5Fc4009C4C84a424B6aE0f494b374bAE1Ce)",
        "(0, false, 0x38D4dE42C9c5640A2799B372D27B01957E0a3673, 75, 0xC02aaA39b223FE8D0A0e5C4F27eAD9083C756Cc2, 1198000000000000000, 0xe3745C151faB59B0740f4312b2B027F07D096639, 1771702712, 1780362926, 6)",
        "(28, 0x3c75f540b2c22dc122a3872041fe7c02adc0a1675d97f1cad73d8667e24f20ad, 0x6ee3707372e54d4719450eb2a8e6f540e46ef8e87f20ca9e2998d059b2457126)"
      ],
      "transaction": {
        "from": "0x646dc5fc4009c4c84a424b6ae0f494b374bae1ce",
        "to": "0x73973d222c3fda5b2563d269da9e19cb125000f4",
        "gas": "0x2ee8a",
        "value": "0x0",
        "input": "0x3bae3e790000000000000000000000000000000000000000000000000000000000000000000000000000000000000000646dc5fc4009c4c84a424b6ae0f494b374bae1ce0000000000000000000000000000000000000000000000000000000000000000000000000000000000000000000000000000000000000000000000000000000000000000000000000000000038d4de42c9c5640a2799b372d27b01957e0a3673000000000000000000000000000000000000000000000000000000000000004b000000000000000000000000c02aaa39b223fe8d0a0e5c4f27ead9083c756cc200000000000000000000000000000000000000000000000010a026a718eb0000000000000000000000000000e3745c151fab59b0740f4312b2b027f07d09663900000000000000000000000000000000000000000000000000000000699a09b8000000000000000000000000000000000000000000000000000000006a1e2eae0000000000000000000000000000000000000000000000000000000000000006000000000000000000000000000000000000000000000000000000000000001c3c75f540b2c22dc122a3872041fe7c02adc0a1675d97f1cad73d8667e24f20ad6ee3707372e54d4719450eb2a8e6f540e46ef8e87f20ca9e2998d059b2457126",
        "nonce": "0xa5",
        "chainId": "0x7a69"
      },
      "additionalContracts": [],
      "isFixedGasLimit": false
    }
  ],
  "receipts": [
    {
      "status": "0x1",
      "cumulativeGasUsed": "0x20131",
      "logs": [
        {
          "address": "0xc02aaa39b223fe8d0a0e5c4f27ead9083c756cc2",
          "topics": [
            "0xddf252ad1be2c89b69c2b068fc378daa952ba7f163c4a11628f55a4df523b3ef",
            "0x000000000000000000000000646dc5fc4009c4c84a424b6ae0f494b374bae1ce",
            "0x0000000000000000000000001804c8ab1f12e6bbf3894d4083f33e07309d1f38"
          ],
          "data": "0x000000000000000000000000000000000000000000000000002a8fbf1c68c000",
          "blockHash": "0x0155bac881451cc8a86866b23de0acee077ef35dd944e8ef364d1261278f9567",
          "blockNumber": "0x17b73ec",
          "blockTimestamp": "0x69ee6c39",
          "transactionHash": "0x6132fb3dd55e3a5059f2dd91971cce38796b4dd86b93cf99ea3b9727719e3dc9",
          "transactionIndex": "0x0",
          "logIndex": "0x0",
          "removed": false
        },
        {
          "address": "0xc02aaa39b223fe8d0a0e5c4f27ead9083c756cc2",
          "topics": [
            "0xddf252ad1be2c89b69c2b068fc378daa952ba7f163c4a11628f55a4df523b3ef",
            "0x000000000000000000000000646dc5fc4009c4c84a424b6ae0f494b374bae1ce",
            "0x000000000000000000000000e3745c151fab59b0740f4312b2b027f07d096639"
          ],
          "data": "0x000000000000000000000000000000000000000000000000107596e7fc824000",
          "blockHash": "0x0155bac881451cc8a86866b23de0acee077ef35dd944e8ef364d1261278f9567",
          "blockNumber": "0x17b73ec",
          "blockTimestamp": "0x69ee6c39",
          "transactionHash": "0x6132fb3dd55e3a5059f2dd91971cce38796b4dd86b93cf99ea3b9727719e3dc9",
          "transactionIndex": "0x0",
          "logIndex": "0x1",
          "removed": false
        },
        {
          "address": "0x38d4de42c9c5640a2799b372d27b01957e0a3673",
          "topics": [
            "0xddf252ad1be2c89b69c2b068fc378daa952ba7f163c4a11628f55a4df523b3ef",
            "0x000000000000000000000000e3745c151fab59b0740f4312b2b027f07d096639",
            "0x000000000000000000000000646dc5fc4009c4c84a424b6ae0f494b374bae1ce",
            "0x000000000000000000000000000000000000000000000000000000000000004b"
          ],
          "data": "0x",
          "blockHash": "0x0155bac881451cc8a86866b23de0acee077ef35dd944e8ef364d1261278f9567",
          "blockNumber": "0x17b73ec",
          "blockTimestamp": "0x69ee6c39",
          "transactionHash": "0x6132fb3dd55e3a5059f2dd91971cce38796b4dd86b93cf99ea3b9727719e3dc9",
          "transactionIndex": "0x0",
          "logIndex": "0x2",
          "removed": false
        },
        {
          "address": "0x73973d222c3fda5b2563d269da9e19cb125000f4",
          "topics": [
            "0xc0ac3eb1e8caef05b202043f34de8e3173fab712167584f7a2a9f4c302bd0e9c",
            "0xf3477799049f12f230ba54d491b355aee3299228793ca1776c6bf9bd88c8212f",
            "0x00000000000000000000000038d4de42c9c5640a2799b372d27b01957e0a3673",
            "0x000000000000000000000000000000000000000000000000000000000000004b"
          ],
          "data": "0x000000000000000000000000e3745c151fab59b0740f4312b2b027f07d096639000000000000000000000000646dc5fc4009c4c84a424b6ae0f494b374bae1ce000000000000000000000000c02aaa39b223fe8d0a0e5c4f27ead9083c756cc200000000000000000000000000000000000000000000000010a026a718eb0000",
          "blockHash": "0x0155bac881451cc8a86866b23de0acee077ef35dd944e8ef364d1261278f9567",
          "blockNumber": "0x17b73ec",
          "blockTimestamp": "0x69ee6c39",
          "transactionHash": "0x6132fb3dd55e3a5059f2dd91971cce38796b4dd86b93cf99ea3b9727719e3dc9",
          "transactionIndex": "0x0",
          "logIndex": "0x3",
          "removed": false
        }
      ],
      "logsBloom": "0x00000000000000000001000000000000000000000102000000000000002000000000000000000000000000000000020042000000090000000004100000100000000000000000001021000008000000000000000000000000000000000000000000000000000000000005000000000000000000000040000000000010000000000000000000080000000004000000000000000000000008000000000000000000000000000000000000000000000400000000000000000080400000000000000000000002000004000000000000000000000000000000000000000040000000000100200000002000000000000000000000000000000000000000000000000000",
      "type": "0x2",
      "transactionHash": "0x6132fb3dd55e3a5059f2dd91971cce38796b4dd86b93cf99ea3b9727719e3dc9",
      "transactionIndex": "0x0",
      "blockHash": "0x0155bac881451cc8a86866b23de0acee077ef35dd944e8ef364d1261278f9567",
      "blockNumber": "0x17b73ec",
      "gasUsed": "0x20131",
      "effectiveGasPrice": "0xf4248",
      "blobGasPrice": "0x1",
      "from": "0x646dc5fc4009c4c84a424b6ae0f494b374bae1ce",
      "to": "0x73973d222c3fda5b2563d269da9e19cb125000f4",
      "contractAddress": null
    }
  ],
  "libraries": [],
  "pending": [],
  "returns": {},
  "timestamp": 1778453808423,
  "chain": 31337,
  "commit": "f87d399"
}