{
  "transactions": [
    {
      "hash": "0x63db130503829a5e3769d96c6d9c9dd61286bb075e4743fa1458ea05c943e7fc",
      "transactionType": "CALL",
      "contractName": null,
      "contractAddress": "0x73973d222c3fda5b2563d269da9e19cb125000f4",
      "function": "settle((uint256,address),(uint8,bool,address,uint256,address,uint256,address,uint64,uint64,uint256),(uint8,bytes32,bytes32))",
      "arguments": [
        "(0, 0x646dC5Fc4009C4C84a424B6aE0f494b374bAE1Ce)",
        "(0, false, 0x38D4dE42C9c5640A2799B372D27B01957E0a3673, 297, 0xC02aaA39b223FE8D0A0e5C4F27eAD9083C756Cc2, 82000000000000000, 0x2c2dbA75492E0C4A1D10B41303167aEC59586C9c, 1772011345, 1780054293, 4)",
        "(28, 0xb17ca47fa337618d056b2ed2288b5a47f9d34018d92198a480eba39235bd1c59, 0x5716ccd56cab89d751c561e9cd0ed6d4597e8d0201ee8e9993e42a46b71d186b)"
      ],
      "transaction": {
        "from": "0x646dc5fc4009c4c84a424b6ae0f494b374bae1ce",
        "to": "0x73973d222c3fda5b2563d269da9e19cb125000f4",
        "gas": "0x2c4e8",
        "value": "0x0",
        "input": "0x3bae3e790000000000000000000000000000000000000000000000000000000000000000000000000000000000000000646dc5fc4009c4c84a424b6ae0f494b374bae1ce0000000000000000000000000000000000000000000000000000000000000000000000000000000000000000000000000000000000000000000000000000000000000000000000000000000038d4de42c9c5640a2799b372d27b01957e0a36730000000000000000000000000000000000000000000000000000000000000129000000000000000000000000c02aaa39b223fe8d0a0e5c4f27ead9083c756cc200000000000000000000000000000000000000000000000001235290c79500000000000000000000000000002c2dba75492e0c4a1d10b41303167aec59586c9c00000000000000000000000000000000000000000000000000000000699ebf51000000000000000000000000000000000000000000000000000000006a1979150000000000000000000000000000000000000000000000000000000000000004000000000000000000000000000000000000000000000000000000000000001cb17ca47fa337618d056b2ed2288b5a47f9d34018d92198a480eba39235bd1c595716ccd56cab89d751c561e9cd0ed6d4597e8d0201ee8e9993e42a46b71d186b",
        "nonce": "0xa4",
        "chainId": "0x7a69"
      },
      "additionalContracts": [],
      "isFixedGasLimit": false
    }
  ],
  "receipts": [
    {
      "status": "0x1",
      "cumulativeGasUsed": "0x2013d",
      "logs": [
        {
          "address": "0xc02aaa39b223fe8d0a0e5c4f27ead9083c756cc2",
          "topics": [
            "0xddf252ad1be2c89b69c2b068fc378daa952ba7f163c4a11628f55a4df523b3ef",
            "0x000000000000000000000000646dc5fc4009c4c84a424b6ae0f494b374bae1ce",
            "0x0000000000000000000000001804c8ab1f12e6bbf3894d4083f33e07309d1f38"
          ],
          "data": "0x0000000000000000000000000000000000000000000000000002e9c920b74000",
          "blockHash": "0xe6e96e12e31d11b4daade8f36eff621ed7bb993e1052ea4f24f27727ee0e6874",
          "blockNumber": "0x17b73e5",
          "blockTimestamp": "0x69ed0e35",
          "transactionHash": "0x63db130503829a5e3769d96c6d9c9dd61286bb075e4743fa1458ea05c943e7fc",
          "transactionIndex": "0x0",
          "logIndex": "0x0",
          "removed": false
        },
        {
          "address": "0xc02aaa39b223fe8d0a0e5c4f27ead9083c756cc2",
          "topics": [
            "0xddf252ad1be2c89b69c2b068fc378daa952ba7f163c4a11628f55a4df523b3ef",
            "0x000000000000000000000000646dc5fc4009c4c84a424b6ae0f494b374bae1ce",
            "0x0000000000000000000000002c2dba75492e0c4a1d10b41303167aec59586c9c"
          ],
          "data": "0x000000000000000000000000000000000000000000000000012068c7a6ddc000",
          "blockHash": "0xe6e96e12e31d11b4daade8f36eff621ed7bb993e1052ea4f24f27727ee0e6874",
          "blockNumber": "0x17b73e5",
          "blockTimestamp": "0x69ed0e35",
          "transactionHash": "0x63db130503829a5e3769d96c6d9c9dd61286bb075e4743fa1458ea05c943e7fc",
          "transactionIndex": "0x0",
          "logIndex": "0x1",
          "removed": false
        },
        {
          "address": "0x38d4de42c9c5640a2799b372d27b01957e0a3673",
          "topics": [
            "0xddf252ad1be2c89b69c2b068fc378daa952ba7f163c4a11628f55a4df523b3ef",
            "0x0000000000000000000000002c2dba75492e0c4a1d10b41303167aec59586c9c",
            "0x000000000000000000000000646dc5fc4009c4c84a424b6ae0f494b374bae1ce",
            "0x0000000000000000000000000000000000000000000000000000000000000129"
          ],
          "data": "0x",
          "blockHash": "0xe6e96e12e31d11b4daade8f36eff621ed7bb993e1052ea4f24f27727ee0e6874",
          "blockNumber": "0x17b73e5",
          "blockTimestamp": "0x69ed0e35",
          "transactionHash": "0x63db130503829a5e3769d96c6d9c9dd61286bb075e4743fa1458ea05c943e7fc",
          "transactionIndex": "0x0",
          "logIndex": "0x2",
          "removed": false
        },
        {
          "address": "0x73973d222c3fda5b2563d269da9e19cb125000f4",
          "topics": [
            "0xc0ac3eb1e8caef05b202043f34de8e3173fab712167584f7a2a9f4c302bd0e9c",
            "0xe52b81f7cce7cd2673d4eb3a977ea7bd5ca88e48d78ca6d9086088b48a7bd51b",
            "0x00000000000000000000000038d4de42c9c5640a2799b372d27b01957e0a3673",
            "0x0000000000000000000000000000000000000000000000000000000000000129"
          ],
          "data": "0x0000000000000000000000002c2dba75492e0c4a1d10b41303167aec59586c9c000000000000000000000000646dc5fc4009c4c84a424b6ae0f494b374bae1ce000000000000000000000000c02aaa39b223fe8d0a0e5c4f27ead9083c756cc200000000000000000000000000000000000000000000000001235290c7950000",
          "blockHash": "0xe6e96e12e31d11b4daade8f36eff621ed7bb993e1052ea4f24f27727ee0e6874",
          "blockNumber": "0x17b73e5",
          "blockTimestamp": "0x69ed0e35",
          "transactionHash": "0x63db130503829a5e3769d96c6d9c9dd61286bb075e4743fa1458ea05c943e7fc",
          "transactionIndex": "0x0",
          "logIndex": "0x3",
          "removed": false
        }
      ],
      "logsBloom": "0x00000000000000000000000000000000000000000002000000000000000000000000000000000000000000000000020002000000090000000004100800100000000200000000011021000008000000000000000000000000000400000000000000000000000004000005000000000000000000000000000000000010000000000000000000000000000004000000000000000000000008000000000000000000000000000000000000000000000000000000000000000080400000100000004000000002000004000000000000000000000000000000000000000000000000008900200000000000000000000000000000000000000000000000000000000000",
      "type": "0x2",
      "transactionHash": "0x63db130503829a5e3769d96c6d9c9dd61286bb075e4743fa1458ea05c943e7fc",
      "transactionIndex": "0x0",
      "blockHash": "0xe6e96e12e31d11b4daade8f36eff621ed7bb993e1052ea4f24f27727ee0e6874",
      "blockNumber": "0x17b73e5",
      "gasUsed": "0x2013d",
      "effectiveGasPrice": "0xf4248",
      "blobGasPrice": "0x1",
      "from": "0x646dc5fc4009c4c84a424b6ae0f494b374bae1ce",
      "to": "0x73973d222c3fda5b2563d269da9e19cb125000f4",
      "contractAddress": null
    }
  ],
  "libraries": [],
  "pending": [],
  "returns": {},
  "timestamp": 1778453801429,
  "chain": 31337,
  "commit": "f87d399"
}