{
  "transactions": [
    {
      "hash": "0xb014bce4e0127c0c6fac0877f9af1fbf1ac6fe3a9bb55563a8e940393a5f87cc",
      "transactionType": "CALL",
      "contractName": null,
      "contractAddress": "0x73973d222c3fda5b2563d269da9e19cb125000f4",
      "function": "settle((uint256,address),(uint8,bool,address,uint256,address,uint256,address,uint64,uint64,uint256),(uint8,bytes32,bytes32))",
      "arguments": [
        "(338, 0x2c2dbA75492E0C4A1D10B41303167aEC59586C9c)",
        "(1, false, 0x38D4dE42C9c5640A2799B372D27B01957E0a3673, 338, 0xC02aaA39b223FE8D0A0e5C4F27eAD9083C756Cc2, 21000000000000000, 0xcbe5659df21Cbcfabe4da962F7a9081F26B3ed82, 1773394522, 1778671116, 2)",
        "(27, 0xb161b8e1bdc2aafc6b107a5a0bca9265784eae14b7ad5e714fe639902cefa627, 0x045bd7398e02f4106ec23ed97b8af367505027e68f504b777fb30d23a30690cd)"
      ],
      "transaction": {
        "from": "0x2c2dba75492e0c4a1d10b41303167aec59586c9c",
        "to": "0x73973d222c3fda5b2563d269da9e19cb125000f4",
        "gas": "0x2efa4",
        "value": "0x0",
        "input": "0x3bae3e7900000000000000000000000000000000000000000000000000000000000001520000000000000000000000002c2dba75492e0c4a1d10b41303167aec59586c9c0000000000000000000000000000000000000000000000000000000000000001000000000000000000000000000000000000000000000000000000000000000000000000000000000000000038d4de42c9c5640a2799b372d27b01957e0a36730000000000000000000000000000000000000000000000000000000000000152000000000000000000000000c02aaa39b223fe8d0a0e5c4f27ead9083c756cc2000000000000000000000000000000000000000000000000004a9b6384488000000000000000000000000000cbe5659df21cbcfabe4da962f7a9081f26b3ed820000000000000000000000000000000000000000000000000000000069b3da5a000000000000000000000000000000000000000000000000000000006a045e0c0000000000000000000000000000000000000000000000000000000000000002000000000000000000000000000000000000000000000000000000000000001bb161b8e1bdc2aafc6b107a5a0bca9265784eae14b7ad5e714fe639902cefa627045bd7398e02f4106ec23ed97b8af367505027e68f504b777fb30d23a30690cd",
        "nonce": "0x61",
        "chainId": "0x7a69"
      },
      "additionalContracts": [],
      "isFixedGasLimit": false
    }
  ],
  "receipts": [
    {
      "status": "0x1",
      "cumulativeGasUsed": "0x201f2",
      "logs": [
        {
          "address": "0xc02aaa39b223fe8d0a0e5c4f27ead9083c756cc2",
          "topics": [
            "0xddf252ad1be2c89b69c2b068fc378daa952ba7f163c4a11628f55a4df523b3ef",
            "0x000000000000000000000000cbe5659df21cbcfabe4da962f7a9081f26b3ed82",
            "0x0000000000000000000000001804c8ab1f12e6bbf3894d4083f33e07309d1f38"
          ],
          "data": "0x0000000000000000000000000000000000000000000000000000befe6f672000",
          "blockHash": "0x60886ad5b3acbb8302cb1ed8347365e92e9c81480977ed3e17b78bed70153fa9",
          "blockNumber": "0x17b738a",
          "blockTimestamp": "0x69dcb34c",
          "transactionHash": "0xb014bce4e0127c0c6fac0877f9af1fbf1ac6fe3a9bb55563a8e940393a5f87cc",
          "transactionIndex": "0x0",
          "logIndex": "0x0",
          "removed": false
        },
        {
          "address": "0xc02aaa39b223fe8d0a0e5c4f27ead9083c756cc2",
          "topics": [
            "0xddf252ad1be2c89b69c2b068fc378daa952ba7f163c4a11628f55a4df523b3ef",
            "0x000000000000000000000000cbe5659df21cbcfabe4da962f7a9081f26b3ed82",
            "0x0000000000000000000000002c2dba75492e0c4a1d10b41303167aec59586c9c"
          ],
          "data": "0x0000000000000000000000000000000000000000000000000049dc6514e16000",
          "blockHash": "0x60886ad5b3acbb8302cb1ed8347365e92e9c81480977ed3e17b78bed70153fa9",
          "blockNumber": "0x17b738a",
          "blockTimestamp": "0x69dcb34c",
          "transactionHash": "0xb014bce4e0127c0c6fac0877f9af1fbf1ac6fe3a9bb55563a8e940393a5f87cc",
          "transactionIndex": "0x0",
          "logIndex": "0x1",
          "removed": false
        },
        {
          "address": "0x38d4de42c9c5640a2799b372d27b01957e0a3673",
          "topics": [
            "0xddf252ad1be2c89b69c2b068fc378daa952ba7f163c4a11628f55a4df523b3ef",
            "0x0000000000000000000000002c2dba75492e0c4a1d10b41303167aec59586c9c",
            "0x000000000000000000000000cbe5659df21cbcfabe4da962f7a9081f26b3ed82",
            "0x0000000000000000000000000000000000000000000000000000000000000152"
          ],
          "data": "0x",
          "blockHash": "0x60886ad5b3acbb8302cb1ed8347365e92e9c81480977ed3e17b78bed70153fa9",
          "blockNumber": "0x17b738a",
          "blockTimestamp": "0x69dcb34c",
          "transactionHash": "0xb014bce4e0127c0c6fac0877f9af1fbf1ac6fe3a9bb55563a8e940393a5f87cc",
          "transactionIndex": "0x0",
          "logIndex": "0x2",
          "removed": false
        },
        {
          "address": "0x73973d222c3fda5b2563d269da9e19cb125000f4",
          "topics": [
            "0xc0ac3eb1e8caef05b202043f34de8e3173fab712167584f7a2a9f4c302bd0e9c",
            "0x30ee44b0251679d63f6a28418d27c52f1d01efa7c7638279ac443ba4fb440364",
            "0x00000000000000000000000038d4de42c9c5640a2799b372d27b01957e0a3673",
            "0x0000000000000000000000000000000000000000000000000000000000000152"
          ],
          "data": "0x0000000000000000000000002c2dba75492e0c4a1d10b41303167aec59586c9c000000000000000000000000cbe5659df21cbcfabe4da962f7a9081f26b3ed82000000000000000000000000c02aaa39b223fe8d0a0e5c4f27ead9083c756cc2000000000000000000000000000000000000000000000000004a9b6384488000",
          "blockHash": "0x60886ad5b3acbb8302cb1ed8347365e92e9c81480977ed3e17b78bed70153fa9",
          "blockNumber": "0x17b738a",
          "blockTimestamp": "0x69dcb34c",
          "transactionHash": "0xb014bce4e0127c0c6fac0877f9af1fbf1ac6fe3a9bb55563a8e940393a5f87cc",
          "transactionIndex": "0x0",
          "logIndex": "0x3",
          "removed": false
        }
      ],
      "logsBloom": "0x00000000000000000000000000000000000000000002000000000000000000000010000000000000000000000000020002000000080000000004100800100000000200000000001021000008000000000000000000000000000000000000000000000000000004000001000000000000000000000000000040000010400000000000000000000000000004080000000000000000000008000000000000000000000000000000000000000000000000000000000000000081400000000000000000000002000004000400000000000000000000000000020000000000000000000100200000000000000000020000000000000000004000000000000000000000",
      "type": "0x2",
      "transactionHash": "0xb014bce4e0127c0c6fac0877f9af1fbf1ac6fe3a9bb55563a8e940393a5f87cc",
      "transactionIndex": "0x0",
      "blockHash": "0x60886ad5b3acbb8302cb1ed8347365e92e9c81480977ed3e17b78bed70153fa9",
      "blockNumber": "0x17b738a",
      "gasUsed": "0x201f2",
      "effectiveGasPrice": "0xf4248",
      "blobGasPrice": "0x1",
      "from": "0x2c2dba75492e0c4a1d10b41303167aec59586c9c",
      "to": "0x73973d222c3fda5b2563d269da9e19cb125000f4",
      "contractAddress": null
    }
  ],
  "libraries": [],
  "pending": [],
  "returns": {},
  "timestamp": 1778453685691,
  "chain": 31337,
  "commit": "f87d399"
}