{
  "transactions": [
    {
      "hash": "0x4d4cca1aaa4b286cbab04e595ed7995e4caea21c82ebd1c1eabb8d5d7f2e8fbb",
      "transactionType": "CALL",
      "contractName": null,
      "contractAddress": "0x73973d222c3fda5b2563d269da9e19cb125000f4",
      "function": "settle((uint256,address),(uint8,bool,address,uint256,address,uint256,address,uint64,uint64,uint256),(uint8,bytes32,bytes32))",
      "arguments": [
        "(0, 0xc5aDfC119364CFE2297e4414dB04834d8702475B)",
        "(0, false, 0x38D4dE42C9c5640A2799B372D27B01957E0a3673, 394, 0xC02aaA39b223FE8D0A0e5C4F27eAD9083C756Cc2, 13000000000000000, 0xe3745C151faB59B0740f4312b2B027F07D096639, 1772802007, 1779263631, 2)",
        "(27, 0xcbe8ddaf53341c635ca979984cb5431405db42d398bd5335dc37c878147f1505, 0x38b8191999cd7105c38155f222eff09eceafdc9ce1d9ca95a52b81195371e9a9)"
      ],
      "transaction": {
        "from": "0xc5adfc119364cfe2297e4414db04834d8702475b",
        "to": "0x73973d222c3fda5b2563d269da9e19cb125000f4",
        "gas": "0x2ee7f",
        "value": "0x0",
        "input": "0x3bae3e790000000000000000000000000000000000000000000000000000000000000000000000000000000000000000c5adfc119364cfe2297e4414db04834d8702475b0000000000000000000000000000000000000000000000000000000000000000000000000000000000000000000000000000000000000000000000000000000000000000000000000000000038d4de42c9c5640a2799b372d27b01957e0a3673000000000000000000000000000000000000000000000000000000000000018a000000000000000000000000c02aaa39b223fe8d0a0e5c4f27ead9083c756cc2000000000000000000000000000000000000000000000000002e2f6e5e148000000000000000000000000000e3745c151fab59b0740f4312b2b027f07d0966390000000000000000000000000000000000000000000000000000000069aacfd7000000000000000000000000000000000000000000000000000000006a0d688f0000000000000000000000000000000000000000000000000000000000000002000000000000000000000000000000000000000000000000000000000000001bcbe8ddaf53341c635ca979984cb5431405db42d398bd5335dc37c878147f150538b8191999cd7105c38155f222eff09eceafdc9ce1d9ca95a52b81195371e9a9",
        "nonce": "0x63",
        "chainId": "0x7a69"
      },
      "additionalContracts": [],
      "isFixedGasLimit": false
    }
  ],
  "receipts": [
    {
      "status": "0x1",
      "cumulativeGasUsed": "0x20129",
      "logs": [
        {
          "address": "0xc02aaa39b223fe8d0a0e5c4f27ead9083c756cc2",
          "topics": [
            "0xddf252ad1be2c89b69c2b068fc378daa952ba7f163c4a11628f55a4df523b3ef",
            "0x000000000000000000000000c5adfc119364cfe2297e4414db04834d8702475b",
            "0x0000000000000000000000001804c8ab1f12e6bbf3894d4083f33e07309d1f38"
          ],
          "data": "0x0000000000000000000000000000000000000000000000000000763bfbd22000",
          "blockHash": "0x04acaff74b4e2e826ea8c4868d30227279ac0b9d23dcd6aec37e06554a609e96",
          "blockNumber": "0x17b7398",
          "blockTimestamp": "0x69df564d",
          "transactionHash": "0x4d4cca1aaa4b286cbab04e595ed7995e4caea21c82ebd1c1eabb8d5d7f2e8fbb",
          "transactionIndex": "0x0",
          "logIndex": "0x0",
          "removed": false
        },
        {
          "address": "0xc02aaa39b223fe8d0a0e5c4f27ead9083c756cc2",
          "topics": [
            "0xddf252ad1be2c89b69c2b068fc378daa952ba7f163c4a11628f55a4df523b3ef",
            "0x000000000000000000000000c5adfc119364cfe2297e4414db04834d8702475b",
            "0x000000000000000000000000e3745c151fab59b0740f4312b2b027f07d096639"
          ],
          "data": "0x000000000000000000000000000000000000000000000000002db93262426000",
          "blockHash": "0x04acaff74b4e2e826ea8c4868d30227279ac0b9d23dcd6aec37e06554a609e96",
          "blockNumber": "0x17b7398",
          "blockTimestamp": "0x69df564d",
          "transactionHash": "0x4d4cca1aaa4b286cbab04e595ed7995e4caea21c82ebd1c1eabb8d5d7f2e8fbb",
          "transactionIndex": "0x0",
          "logIndex": "0x1",
          "removed": false
        },
        {
          "address": "0x38d4de42c9c5640a2799b372d27b01957e0a3673",
          "topics": [
            "0xddf252ad1be2c89b69c2b068fc378daa952ba7f163c4a11628f55a4df523b3ef",
            "0x000000000000000000000000e3745c151fab59b0740f4312b2b027f07d096639",
            "0x000000000000000000000000c5adfc119364cfe2297e4414db04834d8702475b",
            "0x000000000000000000000000000000000000000000000000000000000000018a"
          ],
          "data": "0x",
          "blockHash": "0x04acaff74b4e2e826ea8c4868d30227279ac0b9d23dcd6aec37e06554a609e96",
          "blockNumber": "0x17b7398",
          "blockTimestamp": "0x69df564d",
          "transactionHash": "0x4d4cca1aaa4b286cbab04e595ed7995e4caea21c82ebd1c1eabb8d5d7f2e8fbb",
          "transactionIndex": "0x0",
          "logIndex": "0x2",
          "removed": false
        },
        {
          "address": "0x73973d222c3fda5b2563d269da9e19cb125000f4",
          "topics": [
            "0xc0ac3eb1e8caef05b202043f34de8e3173fab712167584f7a2a9f4c302bd0e9c",
            "0x86216a6775c3517c18abd58ba14e37d6064af7a457466f5021d13d99394ab912",
            "0x00000000000000000000000038d4de42c9c5640a2799b372d27b01957e0a3673",
            "0x000000000000000000000000000000000000000000000000000000000000018a"
          ],
          "data": "0x000000000000000000000000e3745c151fab59b0740f4312b2b027f07d096639000000000000000000000000c5adfc119364cfe2297e4414db04834d8702475b000000000000000000000000c02aaa39b223fe8d0a0e5c4f27ead9083c756cc2000000000000000000000000000000000000000000000000002e2f6e5e148000",
          "blockHash": "0x04acaff74b4e2e826ea8c4868d30227279ac0b9d23dcd6aec37e06554a609e96",
          "blockNumber": "0x17b7398",
          "blockTimestamp": "0x69df564d",
          "transactionHash": "0x4d4cca1aaa4b286cbab04e595ed7995e4caea21c82ebd1c1eabb8d5d7f2e8fbb",
          "transactionIndex": "0x0",
          "logIndex": "0x3",
          "removed": false
        }
      ],
      "logsBloom": "0x00000000000000000000400000000000000000000102004000000000000000000000000000000000000000000000020042000000080000000004100000100000000000000000001021000008000000000000000000000000000000000000000200000000000000000001000000000000000000000000000000000010000000000000000200000000000004000000000000000000000008000000000000000000000002000000000000000000000020000000000000000080400000000000000200000002000004000000000000000000000000000000000000000040000000000100200000000000000000000020000000000000000000002000000000000000",
      "type": "0x2",
      "transactionHash": "0x4d4cca1aaa4b286cbab04e595ed7995e4caea21c82ebd1c1eabb8d5d7f2e8fbb",
      "transactionIndex": "0x0",
      "blockHash": "0x04acaff74b4e2e826ea8c4868d30227279ac0b9d23dcd6aec37e06554a609e96",
      "blockNumber": "0x17b7398",
      "gasUsed": "0x20129",
      "effectiveGasPrice": "0xf4248",
      "blobGasPrice": "0x1",
      "from": "0xc5adfc119364cfe2297e4414db04834d8702475b",
      "to": "0x73973d222c3fda5b2563d269da9e19cb125000f4",
      "contractAddress": null
    }
  ],
  "libraries": [],
  "pending": [],
  "returns": {},
  "timestamp": 1778453698383,
  "chain": 31337,
  "commit": "f87d399"
}