{
  "transactions": [
    {
      "hash": "0xbb2a732dc050de9a1d56b0cfb262f424ac0852592d5ecb3848de6aa8538c8b57",
      "transactionType": "CALL",
      "contractName": null,
      "contractAddress": "0x8fa71914948544c60e3379064567dcf0e6564d27",
      "function": "settle((uint256,address),(uint8,bool,address,uint256,address,uint256,address,uint64,uint64,uint256),(uint8,bytes32,bytes32))",
      "arguments": [
        "(0, 0x1302F142Fc55B165647d3Bd5dec227f569A2A907)",
        "(0, false, 0xA5f104F8f78d5ba9AEC4a383c0927337Fd4E997B, 472, 0xC02aaA39b223FE8D0A0e5C4F27eAD9083C756Cc2, 35000000000000000, 0xE233420d38D286C2F2Cf8dEe6564F132FBDB09DB, 1772514157, 1779660129, 9)",
        "(28, 0xcd95a0ae215645350a8fd981253b841a39605467b1272032932501aad6441e66, 0x79f782508a6c7fff803315bf4f68d2eebbf89a7cda51439aad91bb09d2e71f11)"
      ],
      "transaction": {
        "from": "0x1302f142fc55b165647d3bd5dec227f569a2a907",
        "to": "0x8fa71914948544c60e3379064567dcf0e6564d27",
        "gas": "0x2c4e8",
        "value": "0x0",
        "input": "0x3bae3e7900000000000000000000000000000000000000000000000000000000000000000000000000000000000000001302f142fc55b165647d3bd5dec227f569a2a90700000000000000000000000000000000000000000000000000000000000000000000000000000000000000000000000000000000000000000000000000000000000000000000000000000000a5f104f8f78d5ba9aec4a383c0927337fd4e997b00000000000000000000000000000000000000000000000000000000000001d8000000000000000000000000c02aaa39b223fe8d0a0e5c4f27ead9083c756cc2000000000000000000000000000000000000000000000000007c585087238000000000000000000000000000e233420d38d286c2f2cf8dee6564f132fbdb09db0000000000000000000000000000000000000000000000000000000069a66b6d000000000000000000000000000000000000000000000000000000006a1375610000000000000000000000000000000000000000000000000000000000000009000000000000000000000000000000000000000000000000000000000000001ccd95a0ae215645350a8fd981253b841a39605467b1272032932501aad6441e6679f782508a6c7fff803315bf4f68d2eebbf89a7cda51439aad91bb09d2e71f11",
        "nonce": "0x37",
        "chainId": "0x7a69"
      },
      "additionalContracts": [],
      "isFixedGasLimit": false
    }
  ],
  "receipts": [
    {
      "status": "0x1",
      "cumulativeGasUsed": "0x2013d",
      "logs": [
        {
          "address": "0xc02aaa39b223fe8d0a0e5c4f27ead9083c756cc2",
          "topics": [
            "0xddf252ad1be2c89b69c2b068fc378daa952ba7f163c4a11628f55a4df523b3ef",
            "0x0000000000000000000000001302f142fc55b165647d3bd5dec227f569a2a907",
            "0x0000000000000000000000001804c8ab1f12e6bbf3894d4083f33e07309d1f38"
          ],
          "data": "0x00000000000000000000000000000000000000000000000000013e52b9abe000",
          "blockHash": "0xfecd4dc30b8927f305e95bf8e66b93e9280aabf987b7c897cd8850bbc369638f",
          "blockNumber": "0x17b834f",
          "blockTimestamp": "0x69edc4dc",
          "transactionHash": "0xbb2a732dc050de9a1d56b0cfb262f424ac0852592d5ecb3848de6aa8538c8b57",
          "transactionIndex": "0x0",
          "logIndex": "0x0",
          "removed": false
        },
        {
          "address": "0xc02aaa39b223fe8d0a0e5c4f27ead9083c756cc2",
          "topics": [
            "0xddf252ad1be2c89b69c2b068fc378daa952ba7f163c4a11628f55a4df523b3ef",
            "0x0000000000000000000000001302f142fc55b165647d3bd5dec227f569a2a907",
            "0x000000000000000000000000e233420d38d286c2f2cf8dee6564f132fbdb09db"
          ],
          "data": "0x000000000000000000000000000000000000000000000000007b19fdcd77a000",
          "blockHash": "0xfecd4dc30b8927f305e95bf8e66b93e9280aabf987b7c897cd8850bbc369638f",
          "blockNumber": "0x17b834f",
          "blockTimestamp": "0x69edc4dc",
          "transactionHash": "0xbb2a732dc050de9a1d56b0cfb262f424ac0852592d5ecb3848de6aa8538c8b57",
          "transactionIndex": "0x0",
          "logIndex": "0x1",
          "removed": false
        },
        {
          "address": "0xa5f104f8f78d5ba9aec4a383c0927337fd4e997b",
          "topics": [
            "0xddf252ad1be2c89b69c2b068fc378daa952ba7f163c4a11628f55a4df523b3ef",
            "0x000000000000000000000000e233420d38d286c2f2cf8dee6564f132fbdb09db",
            "0x0000000000000000000000001302f142fc55b165647d3bd5dec227f569a2a907",
            "0x00000000000000000000000000000000000000000000000000000000000001d8"
          ],
          "data": "0x",
          "blockHash": "0xfecd4dc30b8927f305e95bf8e66b93e9280aabf987b7c897cd8850bbc369638f",
          "blockNumber": "0x17b834f",
          "blockTimestamp": "0x69edc4dc",
          "transactionHash": "0xbb2a732dc050de9a1d56b0cfb262f424ac0852592d5ecb3848de6aa8538c8b57",
          "transactionIndex": "0x0",
          "logIndex": "0x2",
          "removed": false
        },
        {
          "address": "0x8fa71914948544c60e3379064567dcf0e6564d27",
          "topics": [
            "0xc0ac3eb1e8caef05b202043f34de8e3173fab712167584f7a2a9f4c302bd0e9c",
            "0x0148e279e5e9031918ee40b9464eeeb0a67154e087a36310b8d0d91a2aa0ded9",
            "0x000000000000000000000000a5f104f8f78d5ba9aec4a383c0927337fd4e997b",
            "0x00000000000000000000000000000000000000000000000000000000000001d8"
          ],
          "data": "0x000000000000000000000000e233420d38d286c2f2cf8dee6564f132fbdb09db0000000000000000000000001302f142fc55b165647d3bd5dec227f569a2a907000000000000000000000000c02aaa39b223fe8d0a0e5c4f27ead9083c756cc2000000000000000000000000000000000000000000000000007c585087238000",
          "blockHash": "0xfecd4dc30b8927f305e95bf8e66b93e9280aabf987b7c897cd8850bbc369638f",
          "blockNumber": "0x17b834f",
          "blockTimestamp": "0x69edc4dc",
          "transactionHash": "0xbb2a732dc050de9a1d56b0cfb262f424ac0852592d5ecb3848de6aa8538c8b57",
          "transactionIndex": "0x0",
          "logIndex": "0x3",
          "removed": false
        }
      ],
      "logsBloom": "0x00000000000000000000010000000000000000000000000000000000000000000400000000000000000000000000008002000000080000000000000000100000000000000000000000010008000000000000000000000000080000000000000000000001000000010001000000000000000000000000000000000010200000000800000000440000000404000000000000000010000000000000000000000000000000200000000400000000000100000000000000000080000000000000000000000012000004000000000200000000000000000002000080000000000000000100200000000000000040000000000000000000000000000000000000000000",
      "type": "0x2",
      "transactionHash": "0xbb2a732dc050de9a1d56b0cfb262f424ac0852592d5ecb3848de6aa8538c8b57",
      "transactionIndex": "0x0",
      "blockHash": "0xfecd4dc30b8927f305e95bf8e66b93e9280aabf987b7c897cd8850bbc369638f",
      "blockNumber": "0x17b834f",
      "gasUsed": "0x2013d",
      "effectiveGasPrice": "0x1ba81c",
      "blobGasPrice": "0x1",
      "from": "0x1302f142fc55b165647d3bd5dec227f569a2a907",
      "to": "0x8fa71914948544c60e3379064567dcf0e6564d27",
      "contractAddress": null
    }
  ],
  "libraries": [],
  "pending": [],
  "returns": {},
  "timestamp": 1778506456190,
  "chain": 31337,
  "commit": "59e30a9"
}