{
  "transactions": [
    {
      "hash": "0x3356e2baf8e0965bec047f3016fe9a64d59ae0060c0e19ec2565998fdf656a38",
      "transactionType": "CALL",
      "contractName": null,
      "contractAddress": "0x8fa71914948544c60e3379064567dcf0e6564d27",
      "function": "settle((uint256,address),(uint8,bool,address,uint256,address,uint256,address,uint64,uint64,uint256),(uint8,bytes32,bytes32))",
      "arguments": [
        "(278, 0x2c2dbA75492E0C4A1D10B41303167aEC59586C9c)",
        "(1, false, 0xA5f104F8f78d5ba9AEC4a383c0927337Fd4E997B, 278, 0xC02aaA39b223FE8D0A0e5C4F27eAD9083C756Cc2, 10000000000000000, 0x646dC5Fc4009C4C84a424B6aE0f494b374bAE1Ce, 1772206227, 1779968059, 14)",
        "(27, 0x8426d409576f05b2a917404fd5847718965b03959dbcacca9a7f479e021184fb, 0x2b85bc2a8a36b1a0ef5e31fdb668b26447aed43ce9c86333d2811761de858cb2)"
      ],
      "transaction": {
        "from": "0x2c2dba75492e0c4a1d10b41303167aec59586c9c",
        "to": "0x8fa71914948544c60e3379064567dcf0e6564d27",
        "gas": "0x2c5d2",
        "value": "0x0",
        "input": "0x3bae3e7900000000000000000000000000000000000000000000000000000000000001160000000000000000000000002c2dba75492e0c4a1d10b41303167aec59586c9c00000000000000000000000000000000000000000000000000000000000000010000000000000000000000000000000000000000000000000000000000000000000000000000000000000000a5f104f8f78d5ba9aec4a383c0927337fd4e997b0000000000000000000000000000000000000000000000000000000000000116000000000000000000000000c02aaa39b223fe8d0a0e5c4f27ead9083c756cc2000000000000000000000000000000000000000000000000002386f26fc10000000000000000000000000000646dc5fc4009c4c84a424b6ae0f494b374bae1ce0000000000000000000000000000000000000000000000000000000069a1b893000000000000000000000000000000000000000000000000000000006a18283b000000000000000000000000000000000000000000000000000000000000000e000000000000000000000000000000000000000000000000000000000000001b8426d409576f05b2a917404fd5847718965b03959dbcacca9a7f479e021184fb2b85bc2a8a36b1a0ef5e31fdb668b26447aed43ce9c86333d2811761de858cb2",
        "nonce": "0x34",
        "chainId": "0x7a69"
      },
      "additionalContracts": [],
      "isFixedGasLimit": false
    }
  ],
  "receipts": [
    {
      "status": "0x1",
      "cumulativeGasUsed": "0x201e6",
      "logs": [
        {
          "address": "0xc02aaa39b223fe8d0a0e5c4f27ead9083c756cc2",
          "topics": [
            "0xddf252ad1be2c89b69c2b068fc378daa952ba7f163c4a11628f55a4df523b3ef",
            "0x000000000000000000000000646dc5fc4009c4c84a424b6ae0f494b374bae1ce",
            "0x0000000000000000000000001804c8ab1f12e6bbf3894d4083f33e07309d1f38"
          ],
          "data": "0x00000000000000000000000000000000000000000000000000005af3107a4000",
          "blockHash": "0x9cb75e62815455e68d07c4ec4aac7a0fc8fddbbe1ba1fd64df06746925f8212e",
          "blockNumber": "0x17b8373",
          "blockTimestamp": "0x69f5b0ad",
          "transactionHash": "0x3356e2baf8e0965bec047f3016fe9a64d59ae0060c0e19ec2565998fdf656a38",
          "transactionIndex": "0x0",
          "logIndex": "0x0",
          "removed": false
        },
        {
          "address": "0xc02aaa39b223fe8d0a0e5c4f27ead9083c756cc2",
          "topics": [
            "0xddf252ad1be2c89b69c2b068fc378daa952ba7f163c4a11628f55a4df523b3ef",
            "0x000000000000000000000000646dc5fc4009c4c84a424b6ae0f494b374bae1ce",
            "0x0000000000000000000000002c2dba75492e0c4a1d10b41303167aec59586c9c"
          ],
          "data": "0x00000000000000000000000000000000000000000000000000232bff5f46c000",
          "blockHash": "0x9cb75e62815455e68d07c4ec4aac7a0fc8fddbbe1ba1fd64df06746925f8212e",
          "blockNumber": "0x17b8373",
          "blockTimestamp": "0x69f5b0ad",
          "transactionHash": "0x3356e2baf8e0965bec047f3016fe9a64d59ae0060c0e19ec2565998fdf656a38",
          "transactionIndex": "0x0",
          "logIndex": "0x1",
          "removed": false
        },
        {
          "address": "0xa5f104f8f78d5ba9aec4a383c0927337fd4e997b",
          "topics": [
            "0xddf252ad1be2c89b69c2b068fc378daa952ba7f163c4a11628f55a4df523b3ef",
            "0x0000000000000000000000002c2dba75492e0c4a1d10b41303167aec59586c9c",
            "0x000000000000000000000000646dc5fc4009c4c84a424b6ae0f494b374bae1ce",
            "0x0000000000000000000000000000000000000000000000000000000000000116"
          ],
          "data": "0x",
          "blockHash": "0x9cb75e62815455e68d07c4ec4aac7a0fc8fddbbe1ba1fd64df06746925f8212e",
          "blockNumber": "0x17b8373",
          "blockTimestamp": "0x69f5b0ad",
          "transactionHash": "0x3356e2baf8e0965bec047f3016fe9a64d59ae0060c0e19ec2565998fdf656a38",
          "transactionIndex": "0x0",
          "logIndex": "0x2",
          "removed": false
        },
        {
          "address": "0x8fa71914948544c60e3379064567dcf0e6564d27",
          "topics": [
            "0xc0ac3eb1e8caef05b202043f34de8e3173fab712167584f7a2a9f4c302bd0e9c",
            "0xe1da31057e1b5539781dad543f4134880e4df171d6b74e4bbf4316a6ca3a662c",
            "0x000000000000000000000000a5f104f8f78d5ba9aec4a383c0927337fd4e997b",
            "0x0000000000000000000000000000000000000000000000000000000000000116"
          ],
          "data": "0x0000000000000000000000002c2dba75492e0c4a1d10b41303167aec59586c9c000000000000000000000000646dc5fc4009c4c84a424b6ae0f494b374bae1ce000000000000000000000000c02aaa39b223fe8d0a0e5c4f27ead9083c756cc2000000000000000000000000000000000000000000000000002386f26fc10000",
          "blockHash": "0x9cb75e62815455e68d07c4ec4aac7a0fc8fddbbe1ba1fd64df06746925f8212e",
          "blockNumber": "0x17b8373",
          "blockTimestamp": "0x69f5b0ad",
          "transactionHash": "0x3356e2baf8e0965bec047f3016fe9a64d59ae0060c0e19ec2565998fdf656a38",
          "transactionIndex": "0x0",
          "logIndex": "0x3",
          "removed": false
        }
      ],
      "logsBloom": "0x00000000000000000000010000000000000000000102000000000000000000000000000000000000000000000000000002000000090000000000000800100000000200000000000000010008000000000000000000000000080000000000000000000000000404000005000000000000000000000000000000000010200000008800000000040000000004000000000000000000000000000000000000000000000000200000000400000000000000000000000000000080000000000000000000000002000004000000000000000000000000000000000080000000000000000100200000000000000000000000000000000000000006000000000000000010",
      "type": "0x2",
      "transactionHash": "0x3356e2baf8e0965bec047f3016fe9a64d59ae0060c0e19ec2565998fdf656a38",
      "transactionIndex": "0x0",
      "blockHash": "0x9cb75e62815455e68d07c4ec4aac7a0fc8fddbbe1ba1fd64df06746925f8212e",
      "blockNumber": "0x17b8373",
      "gasUsed": "0x201e6",
      "effectiveGasPrice": "0x1ba81c",
      "blobGasPrice": "0x1",
      "from": "0x2c2dba75492e0c4a1d10b41303167aec59586c9c",
      "to": "0x8fa71914948544c60e3379064567dcf0e6564d27",
      "contractAddress": null
    }
  ],
  "libraries": [],
  "pending": [],
  "returns": {},
  "timestamp": 1778506498195,
  "chain": 31337,
  "commit": "59e30a9"
}