{
  "transactions": [
    {
      "hash": "0xcbde0f4776c06fa0f50cc4403dce220866b2ae7efae9ad11cb53c75c5e98eff5",
      "transactionType": "CALL",
      "contractName": null,
      "contractAddress": "0x73973d222c3fda5b2563d269da9e19cb125000f4",
      "function": "settle((uint256,address),(uint8,bool,address,uint256,address,uint256,address,uint64,uint64,uint256),(uint8,bytes32,bytes32))",
      "arguments": [
        "(102, 0x1302F142Fc55B165647d3Bd5dec227f569A2A907)",
        "(1, false, 0x38D4dE42C9c5640A2799B372D27B01957E0a3673, 102, 0xC02aaA39b223FE8D0A0e5C4F27eAD9083C756Cc2, 34000000000000000, 0x646dC5Fc4009C4C84a424B6aE0f494b374bAE1Ce, 1772356382, 1779709256, 7)",
        "(28, 0x8de1952b26e420927f058984d95db884a94cbf931a2d7835794930fb8ce8e329, 0x7bec46d602c71d85d38251632bc31b0c3a5879116b9c6426b950009608e096b6)"
      ],
      "transaction": {
        "from": "0x1302f142fc55b165647d3bd5dec227f569a2a907",
        "to": "0x73973d222c3fda5b2563d269da9e19cb125000f4",
        "gas": "0x2c5bb",
        "value": "0x0",
        "input": "0x3bae3e7900000000000000000000000000000000000000000000000000000000000000660000000000000000000000001302f142fc55b165647d3bd5dec227f569a2a9070000000000000000000000000000000000000000000000000000000000000001000000000000000000000000000000000000000000000000000000000000000000000000000000000000000038d4de42c9c5640a2799b372d27b01957e0a36730000000000000000000000000000000000000000000000000000000000000066000000000000000000000000c02aaa39b223fe8d0a0e5c4f27ead9083c756cc20000000000000000000000000000000000000000000000000078cad1e25d0000000000000000000000000000646dc5fc4009c4c84a424b6ae0f494b374bae1ce0000000000000000000000000000000000000000000000000000000069a4031e000000000000000000000000000000000000000000000000000000006a1435480000000000000000000000000000000000000000000000000000000000000007000000000000000000000000000000000000000000000000000000000000001c8de1952b26e420927f058984d95db884a94cbf931a2d7835794930fb8ce8e3297bec46d602c71d85d38251632bc31b0c3a5879116b9c6426b950009608e096b6",
        "nonce": "0x72",
        "chainId": "0x7a69"
      },
      "additionalContracts": [],
      "isFixedGasLimit": false
    }
  ],
  "receipts": [
    {
      "status": "0x1",
      "cumulativeGasUsed": "0x201d6",
      "logs": [
        {
          "address": "0xc02aaa39b223fe8d0a0e5c4f27ead9083c756cc2",
          "topics": [
            "0xddf252ad1be2c89b69c2b068fc378daa952ba7f163c4a11628f55a4df523b3ef",
            "0x000000000000000000000000646dc5fc4009c4c84a424b6ae0f494b374bae1ce",
            "0x0000000000000000000000001804c8ab1f12e6bbf3894d4083f33e07309d1f38"
          ],
          "data": "0x0000000000000000000000000000000000000000000000000001353a6b394000",
          "blockHash": "0xb28a4ccdff8b51f6315299c4c4b265cd8e7bb26f8b15789adee27331f0ef3ec7",
          "blockNumber": "0x17b73dc",
          "blockTimestamp": "0x69eb846b",
          "transactionHash": "0xcbde0f4776c06fa0f50cc4403dce220866b2ae7efae9ad11cb53c75c5e98eff5",
          "transactionIndex": "0x0",
          "logIndex": "0x0",
          "removed": false
        },
        {
          "address": "0xc02aaa39b223fe8d0a0e5c4f27ead9083c756cc2",
          "topics": [
            "0xddf252ad1be2c89b69c2b068fc378daa952ba7f163c4a11628f55a4df523b3ef",
            "0x000000000000000000000000646dc5fc4009c4c84a424b6ae0f494b374bae1ce",
            "0x0000000000000000000000001302f142fc55b165647d3bd5dec227f569a2a907"
          ],
          "data": "0x000000000000000000000000000000000000000000000000007795977723c000",
          "blockHash": "0xb28a4ccdff8b51f6315299c4c4b265cd8e7bb26f8b15789adee27331f0ef3ec7",
          "blockNumber": "0x17b73dc",
          "blockTimestamp": "0x69eb846b",
          "transactionHash": "0xcbde0f4776c06fa0f50cc4403dce220866b2ae7efae9ad11cb53c75c5e98eff5",
          "transactionIndex": "0x0",
          "logIndex": "0x1",
          "removed": false
        },
        {
          "address": "0x38d4de42c9c5640a2799b372d27b01957e0a3673",
          "topics": [
            "0xddf252ad1be2c89b69c2b068fc378daa952ba7f163c4a11628f55a4df523b3ef",
            "0x0000000000000000000000001302f142fc55b165647d3bd5dec227f569a2a907",
            "0x000000000000000000000000646dc5fc4009c4c84a424b6ae0f494b374bae1ce",
            "0x0000000000000000000000000000000000000000000000000000000000000066"
          ],
          "data": "0x",
          "blockHash": "0xb28a4ccdff8b51f6315299c4c4b265cd8e7bb26f8b15789adee27331f0ef3ec7",
          "blockNumber": "0x17b73dc",
          "blockTimestamp": "0x69eb846b",
          "transactionHash": "0xcbde0f4776c06fa0f50cc4403dce220866b2ae7efae9ad11cb53c75c5e98eff5",
          "transactionIndex": "0x0",
          "logIndex": "0x2",
          "removed": false
        },
        {
          "address": "0x73973d222c3fda5b2563d269da9e19cb125000f4",
          "topics": [
            "0xc0ac3eb1e8caef05b202043f34de8e3173fab712167584f7a2a9f4c302bd0e9c",
            "0xa1a34813afebd771a59aaaafbd9272a97a200573e1db21cd958c80d00fc394b9",
            "0x00000000000000000000000038d4de42c9c5640a2799b372d27b01957e0a3673",
            "0x0000000000000000000000000000000000000000000000000000000000000066"
          ],
          "data": "0x0000000000000000000000001302f142fc55b165647d3bd5dec227f569a2a907000000000000000000000000646dc5fc4009c4c84a424b6ae0f494b374bae1ce000000000000000000000000c02aaa39b223fe8d0a0e5c4f27ead9083c756cc20000000000000000000000000000000000000000000000000078cad1e25d0000",
          "blockHash": "0xb28a4ccdff8b51f6315299c4c4b265cd8e7bb26f8b15789adee27331f0ef3ec7",
          "blockNumber": "0x17b73dc",
          "blockTimestamp": "0x69eb846b",
          "transactionHash": "0xcbde0f4776c06fa0f50cc4403dce220866b2ae7efae9ad11cb53c75c5e98eff5",
          "transactionIndex": "0x0",
          "logIndex": "0x3",
          "removed": false
        }
      ],
      "logsBloom": "0x00000000000000000000000000000000000000000002000000000000000000000000000000000000000000000000020002000000090100000004100000100000000000000000001021000008000000000000000000000000000000020000000000000000000000000005000000400000000000000000000000000010000000000000000000000000000004000000000000400000000008000000000000000000000000000000000000000000000100000000000000000080400000000000000000000002000004000000000200000000000000000000000000000000000000000100200000000400000040000000000002000000000000000000000000000000",
      "type": "0x2",
      "transactionHash": "0xcbde0f4776c06fa0f50cc4403dce220866b2ae7efae9ad11cb53c75c5e98eff5",
      "transactionIndex": "0x0",
      "blockHash": "0xb28a4ccdff8b51f6315299c4c4b265cd8e7bb26f8b15789adee27331f0ef3ec7",
      "blockNumber": "0x17b73dc",
      "gasUsed": "0x201d6",
      "effectiveGasPrice": "0xf4248",
      "blobGasPrice": "0x1",
      "from": "0x1302f142fc55b165647d3bd5dec227f569a2a907",
      "to": "0x73973d222c3fda5b2563d269da9e19cb125000f4",
      "contractAddress": null
    }
  ],
  "libraries": [],
  "pending": [],
  "returns": {},
  "timestamp": 1778453793685,
  "chain": 31337,
  "commit": "f87d399"
}