{
  "transactions": [
    {
      "hash": "0xee529315258f3af8caf8a4bb7165d555fc191445139e9c7d2347030a469d37bd",
      "transactionType": "CALL",
      "contractName": null,
      "contractAddress": "0x8fa71914948544c60e3379064567dcf0e6564d27",
      "function": "settle((uint256,address),(uint8,bool,address,uint256,address,uint256,address,uint64,uint64,uint256),(uint8,bytes32,bytes32))",
      "arguments": [
        "(0, 0xc5aDfC119364CFE2297e4414dB04834d8702475B)",
        "(0, false, 0xA5f104F8f78d5ba9AEC4a383c0927337Fd4E997B, 192, 0xC02aaA39b223FE8D0A0e5C4F27eAD9083C756Cc2, 47000000000000000, 0xcbe5659df21Cbcfabe4da962F7a9081F26B3ed82, 1772284092, 1779890194, 21)",
        "(27, 0x5041e28a363e13795b5515a2c2a926825fd08ea82fe9de9db30b45cfdd24897a, 0x70efa33925acea8f2cd3938bb24d338af5f7e9b66c4bb66f31d6b919bb3fab4b)"
      ],
      "transaction": {
        "from": "0xc5adfc119364cfe2297e4414db04834d8702475b",
        "to": "0x8fa71914948544c60e3379064567dcf0e6564d27",
        "gas": "0x2c4bb",
        "value": "0x0",
        "input": "0x3bae3e790000000000000000000000000000000000000000000000000000000000000000000000000000000000000000c5adfc119364cfe2297e4414db04834d8702475b00000000000000000000000000000000000000000000000000000000000000000000000000000000000000000000000000000000000000000000000000000000000000000000000000000000a5f104f8f78d5ba9aec4a383c0927337fd4e997b00000000000000000000000000000000000000000000000000000000000000c0000000000000000000000000c02aaa39b223fe8d0a0e5c4f27ead9083c756cc200000000000000000000000000000000000000000000000000a6fa4040718000000000000000000000000000cbe5659df21cbcfabe4da962f7a9081f26b3ed820000000000000000000000000000000000000000000000000000000069a2e8bc000000000000000000000000000000000000000000000000000000006a16f8120000000000000000000000000000000000000000000000000000000000000015000000000000000000000000000000000000000000000000000000000000001b5041e28a363e13795b5515a2c2a926825fd08ea82fe9de9db30b45cfdd24897a70efa33925acea8f2cd3938bb24d338af5f7e9b66c4bb66f31d6b919bb3fab4b",
        "nonce": "0x45",
        "chainId": "0x7a69"
      },
      "additionalContracts": [],
      "isFixedGasLimit": false
    }
  ],
  "receipts": [
    {
      "status": "0x1",
      "cumulativeGasUsed": "0x2011d",
      "logs": [
        {
          "address": "0xc02aaa39b223fe8d0a0e5c4f27ead9083c756cc2",
          "topics": [
            "0xddf252ad1be2c89b69c2b068fc378daa952ba7f163c4a11628f55a4df523b3ef",
            "0x000000000000000000000000c5adfc119364cfe2297e4414db04834d8702475b",
            "0x0000000000000000000000001804c8ab1f12e6bbf3894d4083f33e07309d1f38"
          ],
          "data": "0x0000000000000000000000000000000000000000000000000001ab76670b6000",
          "blockHash": "0x94f612c291a97ca940cf54906f6d2bf156757ac4b53898f2ce00fc4c6bbcf983",
          "blockNumber": "0x17b839e",
          "blockTimestamp": "0x69ffab67",
          "transactionHash": "0xee529315258f3af8caf8a4bb7165d555fc191445139e9c7d2347030a469d37bd",
          "transactionIndex": "0x0",
          "logIndex": "0x0",
          "removed": false
        },
        {
          "address": "0xc02aaa39b223fe8d0a0e5c4f27ead9083c756cc2",
          "topics": [
            "0xddf252ad1be2c89b69c2b068fc378daa952ba7f163c4a11628f55a4df523b3ef",
            "0x000000000000000000000000c5adfc119364cfe2297e4414db04834d8702475b",
            "0x000000000000000000000000cbe5659df21cbcfabe4da962f7a9081f26b3ed82"
          ],
          "data": "0x00000000000000000000000000000000000000000000000000a54ec9d9662000",
          "blockHash": "0x94f612c291a97ca940cf54906f6d2bf156757ac4b53898f2ce00fc4c6bbcf983",
          "blockNumber": "0x17b839e",
          "blockTimestamp": "0x69ffab67",
          "transactionHash": "0xee529315258f3af8caf8a4bb7165d555fc191445139e9c7d2347030a469d37bd",
          "transactionIndex": "0x0",
          "logIndex": "0x1",
          "removed": false
        },
        {
          "address": "0xa5f104f8f78d5ba9aec4a383c0927337fd4e997b",
          "topics": [
            "0xddf252ad1be2c89b69c2b068fc378daa952ba7f163c4a11628f55a4df523b3ef",
            "0x000000000000000000000000cbe5659df21cbcfabe4da962f7a9081f26b3ed82",
            "0x000000000000000000000000c5adfc119364cfe2297e4414db04834d8702475b",
            "0x00000000000000000000000000000000000000000000000000000000000000c0"
          ],
          "data": "0x",
          "blockHash": "0x94f612c291a97ca940cf54906f6d2bf156757ac4b53898f2ce00fc4c6bbcf983",
          "blockNumber": "0x17b839e",
          "blockTimestamp": "0x69ffab67",
          "transactionHash": "0xee529315258f3af8caf8a4bb7165d555fc191445139e9c7d2347030a469d37bd",
          "transactionIndex": "0x0",
          "logIndex": "0x2",
          "removed": false
        },
        {
          "address": "0x8fa71914948544c60e3379064567dcf0e6564d27",
          "topics": [
            "0xc0ac3eb1e8caef05b202043f34de8e3173fab712167584f7a2a9f4c302bd0e9c",
            "0xab4b39bb1560a07b7014aa92b2d838d2134461898819ae8b569eed5bb3dc4f54",
            "0x000000000000000000000000a5f104f8f78d5ba9aec4a383c0927337fd4e997b",
            "0x00000000000000000000000000000000000000000000000000000000000000c0"
          ],
          "data": "0x000000000000000000000000cbe5659df21cbcfabe4da962f7a9081f26b3ed82000000000000000000000000c5adfc119364cfe2297e4414db04834d8702475b000000000000000000000000c02aaa39b223fe8d0a0e5c4f27ead9083c756cc200000000000000000000000000000000000000000000000000a6fa4040718000",
          "blockHash": "0x94f612c291a97ca940cf54906f6d2bf156757ac4b53898f2ce00fc4c6bbcf983",
          "blockNumber": "0x17b839e",
          "blockTimestamp": "0x69ffab67",
          "transactionHash": "0xee529315258f3af8caf8a4bb7165d555fc191445139e9c7d2347030a469d37bd",
          "transactionIndex": "0x0",
          "logIndex": "0x3",
          "removed": false
        }
      ],
      "logsBloom": "0x00000000000000000000010000000000000000000000000000000000000000000000000000000000000002000000000002000000080040000000020000100000000000000000000000010008000000000000000000000000080000200000000200000000000000000001000000000000000000000000000000000010200000000800000000040000000004000000000000000000000000000000000000001000000000200000000400000000000020000000000000000080000000000000000000000002000004000400000000000000000000000000020080000000000000000100200000000000000000000000000000000000004000002000000000000000",
      "type": "0x2",
      "transactionHash": "0xee529315258f3af8caf8a4bb7165d555fc191445139e9c7d2347030a469d37bd",
      "transactionIndex": "0x0",
      "blockHash": "0x94f612c291a97ca940cf54906f6d2bf156757ac4b53898f2ce00fc4c6bbcf983",
      "blockNumber": "0x17b839e",
      "gasUsed": "0x2011d",
      "effectiveGasPrice": "0x1ba81c",
      "blobGasPrice": "0x1",
      "from": "0xc5adfc119364cfe2297e4414db04834d8702475b",
      "to": "0x8fa71914948544c60e3379064567dcf0e6564d27",
      "contractAddress": null
    }
  ],
  "libraries": [],
  "pending": [],
  "returns": {},
  "timestamp": 1778506547740,
  "chain": 31337,
  "commit": "59e30a9"
}