{
  "transactions": [
    {
      "hash": "0xd778d13d0ace6d25585572d141b8da1f15b0e65b5aaf787e4b18a6671b4cdbef",
      "transactionType": "CALL",
      "contractName": null,
      "contractAddress": "0x73973d222c3fda5b2563d269da9e19cb125000f4",
      "function": "settle((uint256,address),(uint8,bool,address,uint256,address,uint256,address,uint64,uint64,uint256),(uint8,bytes32,bytes32))",
      "arguments": [
        "(0, 0x646dC5Fc4009C4C84a424B6aE0f494b374bAE1Ce)",
        "(0, false, 0x38D4dE42C9c5640A2799B372D27B01957E0a3673, 9, 0xC02aaA39b223FE8D0A0e5C4F27eAD9083C756Cc2, 21000000000000000, 0xa382b0E75C192D9CDF5c084E58b750Cea7761Bd0, 1771739476, 1780326162, 0)",
        "(27, 0xbd518a075eae334fe9a866c874a135d2581dc96f874154672269c6a3fde0add4, 0x027eee9d17c0baa8142e96d44075d3d7469072bdb85dc5800a85eaef6419a100)"
      ],
      "transaction": {
        "from": "0x646dc5fc4009c4c84a424b6ae0f494b374bae1ce",
        "to": "0x73973d222c3fda5b2563d269da9e19cb125000f4",
        "gas": "0x2c49b",
        "value": "0x0",
        "input": "0x3bae3e790000000000000000000000000000000000000000000000000000000000000000000000000000000000000000646dc5fc4009c4c84a424b6ae0f494b374bae1ce0000000000000000000000000000000000000000000000000000000000000000000000000000000000000000000000000000000000000000000000000000000000000000000000000000000038d4de42c9c5640a2799b372d27b01957e0a36730000000000000000000000000000000000000000000000000000000000000009000000000000000000000000c02aaa39b223fe8d0a0e5c4f27ead9083c756cc2000000000000000000000000000000000000000000000000004a9b6384488000000000000000000000000000a382b0e75c192d9cdf5c084e58b750cea7761bd000000000000000000000000000000000000000000000000000000000699a9954000000000000000000000000000000000000000000000000000000006a1d9f120000000000000000000000000000000000000000000000000000000000000000000000000000000000000000000000000000000000000000000000000000001bbd518a075eae334fe9a866c874a135d2581dc96f874154672269c6a3fde0add4027eee9d17c0baa8142e96d44075d3d7469072bdb85dc5800a85eaef6419a100",
        "nonce": "0x98",
        "chainId": "0x7a69"
      },
      "additionalContracts": [],
      "isFixedGasLimit": false
    }
  ],
  "receipts": [
    {
      "status": "0x1",
      "cumulativeGasUsed": "0x20105",
      "logs": [
        {
          "address": "0xc02aaa39b223fe8d0a0e5c4f27ead9083c756cc2",
          "topics": [
            "0xddf252ad1be2c89b69c2b068fc378daa952ba7f163c4a11628f55a4df523b3ef",
            "0x000000000000000000000000646dc5fc4009c4c84a424b6ae0f494b374bae1ce",
            "0x0000000000000000000000001804c8ab1f12e6bbf3894d4083f33e07309d1f38"
          ],
          "data": "0x0000000000000000000000000000000000000000000000000000befe6f672000",
          "blockHash": "0xd10517949a383e84afd1cd589d59c9df5720e0274fcd0397311e9473e2ed1ce9",
          "blockNumber": "0x17b73b2",
          "blockTimestamp": "0x69e43be0",
          "transactionHash": "0xd778d13d0ace6d25585572d141b8da1f15b0e65b5aaf787e4b18a6671b4cdbef",
          "transactionIndex": "0x0",
          "logIndex": "0x0",
          "removed": false
        },
        {
          "address": "0xc02aaa39b223fe8d0a0e5c4f27ead9083c756cc2",
          "topics": [
            "0xddf252ad1be2c89b69c2b068fc378daa952ba7f163c4a11628f55a4df523b3ef",
            "0x000000000000000000000000646dc5fc4009c4c84a424b6ae0f494b374bae1ce",
            "0x000000000000000000000000a382b0e75c192d9cdf5c084e58b750cea7761bd0"
          ],
          "data": "0x0000000000000000000000000000000000000000000000000049dc6514e16000",
          "blockHash": "0xd10517949a383e84afd1cd589d59c9df5720e0274fcd0397311e9473e2ed1ce9",
          "blockNumber": "0x17b73b2",
          "blockTimestamp": "0x69e43be0",
          "transactionHash": "0xd778d13d0ace6d25585572d141b8da1f15b0e65b5aaf787e4b18a6671b4cdbef",
          "transactionIndex": "0x0",
          "logIndex": "0x1",
          "removed": false
        },
        {
          "address": "0x38d4de42c9c5640a2799b372d27b01957e0a3673",
          "topics": [
            "0xddf252ad1be2c89b69c2b068fc378daa952ba7f163c4a11628f55a4df523b3ef",
            "0x000000000000000000000000a382b0e75c192d9cdf5c084e58b750cea7761bd0",
            "0x000000000000000000000000646dc5fc4009c4c84a424b6ae0f494b374bae1ce",
            "0x0000000000000000000000000000000000000000000000000000000000000009"
          ],
          "data": "0x",
          "blockHash": "0xd10517949a383e84afd1cd589d59c9df5720e0274fcd0397311e9473e2ed1ce9",
          "blockNumber": "0x17b73b2",
          "blockTimestamp": "0x69e43be0",
          "transactionHash": "0xd778d13d0ace6d25585572d141b8da1f15b0e65b5aaf787e4b18a6671b4cdbef",
          "transactionIndex": "0x0",
          "logIndex": "0x2",
          "removed": false
        },
        {
          "address": "0x73973d222c3fda5b2563d269da9e19cb125000f4",
          "topics": [
            "0xc0ac3eb1e8caef05b202043f34de8e3173fab712167584f7a2a9f4c302bd0e9c",
            "0x2e68835517e9edf539d5503e3842eeb743fbfb7994632d53347196c0dbedbb6d",
            "0x00000000000000000000000038d4de42c9c5640a2799b372d27b01957e0a3673",
            "0x0000000000000000000000000000000000000000000000000000000000000009"
          ],
          "data": "0x000000000000000000000000a382b0e75c192d9cdf5c084e58b750cea7761bd0000000000000000000000000646dc5fc4009c4c84a424b6ae0f494b374bae1ce000000000000000000000000c02aaa39b223fe8d0a0e5c4f27ead9083c756cc2000000000000000000000000000000000000000000000000004a9b6384488000",
          "blockHash": "0xd10517949a383e84afd1cd589d59c9df5720e0274fcd0397311e9473e2ed1ce9",
          "blockNumber": "0x17b73b2",
          "blockTimestamp": "0x69e43be0",
          "transactionHash": "0xd778d13d0ace6d25585572d141b8da1f15b0e65b5aaf787e4b18a6671b4cdbef",
          "transactionIndex": "0x0",
          "logIndex": "0x3",
          "removed": false
        }
      ],
      "logsBloom": "0x00000000000000000000000000000000000000000002000000000000000000000000000000000000000000000000020002000000090000000004100000300000000000000000001021000008000000000000000000000000000000000000000000000000000000000005008000000000000000000000040000000010000000000000000000000000000004000000000000101000000008000000000000000000000000000000000000000000000000000000000000000080400000002000000000000002000004000800000000000000000000000000000000000000000000000100200000000000000000000000000000000000100000000000000000800000",
      "type": "0x2",
      "transactionHash": "0xd778d13d0ace6d25585572d141b8da1f15b0e65b5aaf787e4b18a6671b4cdbef",
      "transactionIndex": "0x0",
      "blockHash": "0xd10517949a383e84afd1cd589d59c9df5720e0274fcd0397311e9473e2ed1ce9",
      "blockNumber": "0x17b73b2",
      "gasUsed": "0x20105",
      "effectiveGasPrice": "0xf4248",
      "blobGasPrice": "0x1",
      "from": "0x646dc5fc4009c4c84a424b6ae0f494b374bae1ce",
      "to": "0x73973d222c3fda5b2563d269da9e19cb125000f4",
      "contractAddress": null
    }
  ],
  "libraries": [],
  "pending": [],
  "returns": {},
  "timestamp": 1778453721530,
  "chain": 31337,
  "commit": "f87d399"
}