{
  "transactions": [
    {
      "hash": "0x0dfc4b82bfb944e4578919d88070d356f923a6a85a30b3f90171ef5c68646c9b",
      "transactionType": "CALL",
      "contractName": null,
      "contractAddress": "0x73973d222c3fda5b2563d269da9e19cb125000f4",
      "function": "settle((uint256,address),(uint8,bool,address,uint256,address,uint256,address,uint64,uint64,uint256),(uint8,bytes32,bytes32))",
      "arguments": [
        "(0, 0x646dC5Fc4009C4C84a424B6aE0f494b374bAE1Ce)",
        "(0, false, 0x38D4dE42C9c5640A2799B372D27B01957E0a3673, 144, 0xC02aaA39b223FE8D0A0e5C4F27eAD9083C756Cc2, 36000000000000000, 0xcbe5659df21Cbcfabe4da962F7a9081F26B3ed82, 1773082162, 1778983476, 4)",
        "(28, 0x2c6cf2ee0b47da8837f2d29356bb52c0bc4c204508f1ca9020a11a4fca365535, 0x3f9c9566e64dca172051d4eac8d33e3f3e9b347f6f290225a48dd48200217d29)"
      ],
      "transaction": {
        "from": "0x646dc5fc4009c4c84a424b6ae0f494b374bae1ce",
        "to": "0x73973d222c3fda5b2563d269da9e19cb125000f4",
        "gas": "0x2ee67",
        "value": "0x0",
        "input": "0x3bae3e790000000000000000000000000000000000000000000000000000000000000000000000000000000000000000646dc5fc4009c4c84a424b6ae0f494b374bae1ce0000000000000000000000000000000000000000000000000000000000000000000000000000000000000000000000000000000000000000000000000000000000000000000000000000000038d4de42c9c5640a2799b372d27b01957e0a36730000000000000000000000000000000000000000000000000000000000000090000000000000000000000000c02aaa39b223fe8d0a0e5c4f27ead9083c756cc2000000000000000000000000000000000000000000000000007fe5cf2bea0000000000000000000000000000cbe5659df21cbcfabe4da962f7a9081f26b3ed820000000000000000000000000000000000000000000000000000000069af1632000000000000000000000000000000000000000000000000000000006a0922340000000000000000000000000000000000000000000000000000000000000004000000000000000000000000000000000000000000000000000000000000001c2c6cf2ee0b47da8837f2d29356bb52c0bc4c204508f1ca9020a11a4fca3655353f9c9566e64dca172051d4eac8d33e3f3e9b347f6f290225a48dd48200217d29",
        "nonce": "0x9d",
        "chainId": "0x7a69"
      },
      "additionalContracts": [],
      "isFixedGasLimit": false
    }
  ],
  "receipts": [
    {
      "status": "0x1",
      "cumulativeGasUsed": "0x20119",
      "logs": [
        {
          "address": "0xc02aaa39b223fe8d0a0e5c4f27ead9083c756cc2",
          "topics": [
            "0xddf252ad1be2c89b69c2b068fc378daa952ba7f163c4a11628f55a4df523b3ef",
            "0x000000000000000000000000646dc5fc4009c4c84a424b6ae0f494b374bae1ce",
            "0x0000000000000000000000001804c8ab1f12e6bbf3894d4083f33e07309d1f38"
          ],
          "data": "0x0000000000000000000000000000000000000000000000000001476b081e8000",
          "blockHash": "0x566557645e90abd2b6c2dff166b575247eba96a903c531d637978c777e14e9d5",
          "blockNumber": "0x17b73c9",
          "blockTimestamp": "0x69e84519",
          "transactionHash": "0x0dfc4b82bfb944e4578919d88070d356f923a6a85a30b3f90171ef5c68646c9b",
          "transactionIndex": "0x0",
          "logIndex": "0x0",
          "removed": false
        },
        {
          "address": "0xc02aaa39b223fe8d0a0e5c4f27ead9083c756cc2",
          "topics": [
            "0xddf252ad1be2c89b69c2b068fc378daa952ba7f163c4a11628f55a4df523b3ef",
            "0x000000000000000000000000646dc5fc4009c4c84a424b6ae0f494b374bae1ce",
            "0x000000000000000000000000cbe5659df21cbcfabe4da962f7a9081f26b3ed82"
          ],
          "data": "0x000000000000000000000000000000000000000000000000007e9e6423cb8000",
          "blockHash": "0x566557645e90abd2b6c2dff166b575247eba96a903c531d637978c777e14e9d5",
          "blockNumber": "0x17b73c9",
          "blockTimestamp": "0x69e84519",
          "transactionHash": "0x0dfc4b82bfb944e4578919d88070d356f923a6a85a30b3f90171ef5c68646c9b",
          "transactionIndex": "0x0",
          "logIndex": "0x1",
          "removed": false
        },
        {
          "address": "0x38d4de42c9c5640a2799b372d27b01957e0a3673",
          "topics": [
            "0xddf252ad1be2c89b69c2b068fc378daa952ba7f163c4a11628f55a4df523b3ef",
            "0x000000000000000000000000cbe5659df21cbcfabe4da962f7a9081f26b3ed82",
            "0x000000000000000000000000646dc5fc4009c4c84a424b6ae0f494b374bae1ce",
            "0x0000000000000000000000000000000000000000000000000000000000000090"
          ],
          "data": "0x",
          "blockHash": "0x566557645e90abd2b6c2dff166b575247eba96a903c531d637978c777e14e9d5",
          "blockNumber": "0x17b73c9",
          "blockTimestamp": "0x69e84519",
          "transactionHash": "0x0dfc4b82bfb944e4578919d88070d356f923a6a85a30b3f90171ef5c68646c9b",
          "transactionIndex": "0x0",
          "logIndex": "0x2",
          "removed": false
        },
        {
          "address": "0x73973d222c3fda5b2563d269da9e19cb125000f4",
          "topics": [
            "0xc0ac3eb1e8caef05b202043f34de8e3173fab712167584f7a2a9f4c302bd0e9c",
            "0x93b2368e9a529c89d9fc8c68b2d69802633574e24f78bd92e4dfbf22e6027240",
            "0x00000000000000000000000038d4de42c9c5640a2799b372d27b01957e0a3673",
            "0x0000000000000000000000000000000000000000000000000000000000000090"
          ],
          "data": "0x000000000000000000000000cbe5659df21cbcfabe4da962f7a9081f26b3ed82000000000000000000000000646dc5fc4009c4c84a424b6ae0f494b374bae1ce000000000000000000000000c02aaa39b223fe8d0a0e5c4f27ead9083c756cc2000000000000000000000000000000000000000000000000007fe5cf2bea0000",
          "blockHash": "0x566557645e90abd2b6c2dff166b575247eba96a903c531d637978c777e14e9d5",
          "blockNumber": "0x17b73c9",
          "blockTimestamp": "0x69e84519",
          "transactionHash": "0x0dfc4b82bfb944e4578919d88070d356f923a6a85a30b3f90171ef5c68646c9b",
          "transactionIndex": "0x0",
          "logIndex": "0x3",
          "removed": false
        }
      ],
      "logsBloom": "0x00000000000000000000000000000000000000000002000000000000000400000000000000000000000000000080020002000000090000000004100000100000000000000000001021000008000000000000000000000000000000000000000000000000000000000005000000000000000000000000000000000010000000000000000000000000000004000000000000000000000008000000002000000000000000000000000000000000000000000000000000000080400000000000000000000002000004000400000000000000000000000020020000000000000000000300200000000000000200000000000000000000004000000000000000000000",
      "type": "0x2",
      "transactionHash": "0x0dfc4b82bfb944e4578919d88070d356f923a6a85a30b3f90171ef5c68646c9b",
      "transactionIndex": "0x0",
      "blockHash": "0x566557645e90abd2b6c2dff166b575247eba96a903c531d637978c777e14e9d5",
      "blockNumber": "0x17b73c9",
      "gasUsed": "0x20119",
      "effectiveGasPrice": "0xf4248",
      "blobGasPrice": "0x1",
      "from": "0x646dc5fc4009c4c84a424b6ae0f494b374bae1ce",
      "to": "0x73973d222c3fda5b2563d269da9e19cb125000f4",
      "contractAddress": null
    }
  ],
  "libraries": [],
  "pending": [],
  "returns": {},
  "timestamp": 1778453776960,
  "chain": 31337,
  "commit": "f87d399"
}