{
  "transactions": [
    {
      "hash": "0x919e78d9c8b406f9492c2c20d269a69780f1b46173886049476835a27eac34fa",
      "transactionType": "CALL",
      "contractName": null,
      "contractAddress": "0x73973d222c3fda5b2563d269da9e19cb125000f4",
      "function": "settle((uint256,address),(uint8,bool,address,uint256,address,uint256,address,uint64,uint64,uint256),(uint8,bytes32,bytes32))",
      "arguments": [
        "(0, 0x646dC5Fc4009C4C84a424B6aE0f494b374bAE1Ce)",
        "(0, false, 0x38D4dE42C9c5640A2799B372D27B01957E0a3673, 46, 0xC02aaA39b223FE8D0A0e5C4F27eAD9083C756Cc2, 24000000000000000, 0x2c2dbA75492E0C4A1D10B41303167aEC59586C9c, 1772399221, 1779666417, 0)",
        "(27, 0x3b0c974d41153024d79dc2d1bdf4d8771fe1327d39078dadbd8c26c647b3bdf0, 0x69f66459cc4034420ed4550ebb832eaa223ab67d296bf78e7127918a86a81aa6)"
      ],
      "transaction": {
        "from": "0x646dc5fc4009c4c84a424b6ae0f494b374bae1ce",
        "to": "0x73973d222c3fda5b2563d269da9e19cb125000f4",
        "gas": "0x2c49b",
        "value": "0x0",
        "input": "0x3bae3e790000000000000000000000000000000000000000000000000000000000000000000000000000000000000000646dc5fc4009c4c84a424b6ae0f494b374bae1ce0000000000000000000000000000000000000000000000000000000000000000000000000000000000000000000000000000000000000000000000000000000000000000000000000000000038d4de42c9c5640a2799b372d27b01957e0a3673000000000000000000000000000000000000000000000000000000000000002e000000000000000000000000c02aaa39b223fe8d0a0e5c4f27ead9083c756cc2000000000000000000000000000000000000000000000000005543df729c00000000000000000000000000002c2dba75492e0c4a1d10b41303167aec59586c9c0000000000000000000000000000000000000000000000000000000069a4aa75000000000000000000000000000000000000000000000000000000006a138df10000000000000000000000000000000000000000000000000000000000000000000000000000000000000000000000000000000000000000000000000000001b3b0c974d41153024d79dc2d1bdf4d8771fe1327d39078dadbd8c26c647b3bdf069f66459cc4034420ed4550ebb832eaa223ab67d296bf78e7127918a86a81aa6",
        "nonce": "0x90",
        "chainId": "0x7a69"
      },
      "additionalContracts": [],
      "isFixedGasLimit": false
    }
  ],
  "receipts": [
    {
      "status": "0x1",
      "cumulativeGasUsed": "0x20105",
      "logs": [
        {
          "address": "0xc02aaa39b223fe8d0a0e5c4f27ead9083c756cc2",
          "topics": [
            "0xddf252ad1be2c89b69c2b068fc378daa952ba7f163c4a11628f55a4df523b3ef",
            "0x000000000000000000000000646dc5fc4009c4c84a424b6ae0f494b374bae1ce",
            "0x0000000000000000000000001804c8ab1f12e6bbf3894d4083f33e07309d1f38"
          ],
          "data": "0x0000000000000000000000000000000000000000000000000000da475abf0000",
          "blockHash": "0xf9d62fd1a20dd3c175f21ad4fbd558d60be80a12c15ee94392724368ecf614eb",
          "blockNumber": "0x17b73a3",
          "blockTimestamp": "0x69e168a9",
          "transactionHash": "0x919e78d9c8b406f9492c2c20d269a69780f1b46173886049476835a27eac34fa",
          "transactionIndex": "0x0",
          "logIndex": "0x0",
          "removed": false
        },
        {
          "address": "0xc02aaa39b223fe8d0a0e5c4f27ead9083c756cc2",
          "topics": [
            "0xddf252ad1be2c89b69c2b068fc378daa952ba7f163c4a11628f55a4df523b3ef",
            "0x000000000000000000000000646dc5fc4009c4c84a424b6ae0f494b374bae1ce",
            "0x0000000000000000000000002c2dba75492e0c4a1d10b41303167aec59586c9c"
          ],
          "data": "0x0000000000000000000000000000000000000000000000000054699817dd0000",
          "blockHash": "0xf9d62fd1a20dd3c175f21ad4fbd558d60be80a12c15ee94392724368ecf614eb",
          "blockNumber": "0x17b73a3",
          "blockTimestamp": "0x69e168a9",
          "transactionHash": "0x919e78d9c8b406f9492c2c20d269a69780f1b46173886049476835a27eac34fa",
          "transactionIndex": "0x0",
          "logIndex": "0x1",
          "removed": false
        },
        {
          "address": "0x38d4de42c9c5640a2799b372d27b01957e0a3673",
          "topics": [
            "0xddf252ad1be2c89b69c2b068fc378daa952ba7f163c4a11628f55a4df523b3ef",
            "0x0000000000000000000000002c2dba75492e0c4a1d10b41303167aec59586c9c",
            "0x000000000000000000000000646dc5fc4009c4c84a424b6ae0f494b374bae1ce",
            "0x000000000000000000000000000000000000000000000000000000000000002e"
          ],
          "data": "0x",
          "blockHash": "0xf9d62fd1a20dd3c175f21ad4fbd558d60be80a12c15ee94392724368ecf614eb",
          "blockNumber": "0x17b73a3",
          "blockTimestamp": "0x69e168a9",
          "transactionHash": "0x919e78d9c8b406f9492c2c20d269a69780f1b46173886049476835a27eac34fa",
          "transactionIndex": "0x0",
          "logIndex": "0x2",
          "removed": false
        },
        {
          "address": "0x73973d222c3fda5b2563d269da9e19cb125000f4",
          "topics": [
            "0xc0ac3eb1e8caef05b202043f34de8e3173fab712167584f7a2a9f4c302bd0e9c",
            "0xbb9f7e8eff39dbe21d739e22eee9aed0255f71f01e5d38a0048d2bcbb35b123f",
            "0x00000000000000000000000038d4de42c9c5640a2799b372d27b01957e0a3673",
            "0x000000000000000000000000000000000000000000000000000000000000002e"
          ],
          "data": "0x0000000000000000000000002c2dba75492e0c4a1d10b41303167aec59586c9c000000000000000000000000646dc5fc4009c4c84a424b6ae0f494b374bae1ce000000000000000000000000c02aaa39b223fe8d0a0e5c4f27ead9083c756cc2000000000000000000000000000000000000000000000000005543df729c0000",
          "blockHash": "0xf9d62fd1a20dd3c175f21ad4fbd558d60be80a12c15ee94392724368ecf614eb",
          "blockNumber": "0x17b73a3",
          "blockTimestamp": "0x69e168a9",
          "transactionHash": "0x919e78d9c8b406f9492c2c20d269a69780f1b46173886049476835a27eac34fa",
          "transactionIndex": "0x0",
          "logIndex": "0x3",
          "removed": false
        }
      ],
      "logsBloom": "0x040000000000000000000000000001000000000000020000000000000000000000000000000000000000000000000200020010000900010000041008001000000002000000000010a1000008000000000000000000000000000000000000000000000000000004000005000000000000000000000000000000000010000000100000000000000000000004000000000000000000000008000000000000000000000000000000000000000000000000000000000000000080400000000000000000000002000004000000000000000000000000000000000000000000000000000100200000000000000000000000000000000000000000000000000000000000",
      "type": "0x2",
      "transactionHash": "0x919e78d9c8b406f9492c2c20d269a69780f1b46173886049476835a27eac34fa",
      "transactionIndex": "0x0",
      "blockHash": "0xf9d62fd1a20dd3c175f21ad4fbd558d60be80a12c15ee94392724368ecf614eb",
      "blockNumber": "0x17b73a3",
      "gasUsed": "0x20105",
      "effectiveGasPrice": "0xf4248",
      "blobGasPrice": "0x1",
      "from": "0x646dc5fc4009c4c84a424b6ae0f494b374bae1ce",
      "to": "0x73973d222c3fda5b2563d269da9e19cb125000f4",
      "contractAddress": null
    }
  ],
  "libraries": [],
  "pending": [],
  "returns": {},
  "timestamp": 1778453708098,
  "chain": 31337,
  "commit": "f87d399"
}