{
  "transactions": [
    {
      "hash": "0xdb7ac4b1d06cd3c67b3915d1572e03c1b1fb35c2234aa7f637905b1f3964a292",
      "transactionType": "CALL",
      "contractName": null,
      "contractAddress": "0x73973d222c3fda5b2563d269da9e19cb125000f4",
      "function": "settle((uint256,address),(uint8,bool,address,uint256,address,uint256,address,uint64,uint64,uint256),(uint8,bytes32,bytes32))",
      "arguments": [
        "(0, 0x646dC5Fc4009C4C84a424B6aE0f494b374bAE1Ce)",
        "(0, false, 0x38D4dE42C9c5640A2799B372D27B01957E0a3673, 87, 0xC02aaA39b223FE8D0A0e5C4F27eAD9083C756Cc2, 21000000000000000, 0xa382b0E75C192D9CDF5c084E58b750Cea7761Bd0, 1773279456, 1778786182, 1)",
        "(28, 0xad10cdd543c5dc944bd34d6cccb69395d208a3d3bb34a414061bb74ebce8793a, 0x3bcff9bcf8df24f4bf07670129489dd25da8e948c17489f4d9bb8e29466e3cce)"
      ],
      "transaction": {
        "from": "0x646dc5fc4009c4c84a424b6ae0f494b374bae1ce",
        "to": "0x73973d222c3fda5b2563d269da9e19cb125000f4",
        "gas": "0x2ee8a",
        "value": "0x0",
        "input": "0x3bae3e790000000000000000000000000000000000000000000000000000000000000000000000000000000000000000646dc5fc4009c4c84a424b6ae0f494b374bae1ce0000000000000000000000000000000000000000000000000000000000000000000000000000000000000000000000000000000000000000000000000000000000000000000000000000000038d4de42c9c5640a2799b372d27b01957e0a36730000000000000000000000000000000000000000000000000000000000000057000000000000000000000000c02aaa39b223fe8d0a0e5c4f27ead9083c756cc2000000000000000000000000000000000000000000000000004a9b6384488000000000000000000000000000a382b0e75c192d9cdf5c084e58b750cea7761bd00000000000000000000000000000000000000000000000000000000069b218e0000000000000000000000000000000000000000000000000000000006a061f860000000000000000000000000000000000000000000000000000000000000001000000000000000000000000000000000000000000000000000000000000001cad10cdd543c5dc944bd34d6cccb69395d208a3d3bb34a414061bb74ebce8793a3bcff9bcf8df24f4bf07670129489dd25da8e948c17489f4d9bb8e29466e3cce",
        "nonce": "0x88",
        "chainId": "0x7a69"
      },
      "additionalContracts": [],
      "isFixedGasLimit": false
    }
  ],
  "receipts": [
    {
      "status": "0x1",
      "cumulativeGasUsed": "0x20131",
      "logs": [
        {
          "address": "0xc02aaa39b223fe8d0a0e5c4f27ead9083c756cc2",
          "topics": [
            "0xddf252ad1be2c89b69c2b068fc378daa952ba7f163c4a11628f55a4df523b3ef",
            "0x000000000000000000000000646dc5fc4009c4c84a424b6ae0f494b374bae1ce",
            "0x0000000000000000000000001804c8ab1f12e6bbf3894d4083f33e07309d1f38"
          ],
          "data": "0x0000000000000000000000000000000000000000000000000000befe6f672000",
          "blockHash": "0xaaac9b780f101dce2cb91ae2fa7d75f6449b8091b5fd9c76b8d5157d7e74beac",
          "blockNumber": "0x17b738d",
          "blockTimestamp": "0x69dd43f2",
          "transactionHash": "0xdb7ac4b1d06cd3c67b3915d1572e03c1b1fb35c2234aa7f637905b1f3964a292",
          "transactionIndex": "0x0",
          "logIndex": "0x0",
          "removed": false
        },
        {
          "address": "0xc02aaa39b223fe8d0a0e5c4f27ead9083c756cc2",
          "topics": [
            "0xddf252ad1be2c89b69c2b068fc378daa952ba7f163c4a11628f55a4df523b3ef",
            "0x000000000000000000000000646dc5fc4009c4c84a424b6ae0f494b374bae1ce",
            "0x000000000000000000000000a382b0e75c192d9cdf5c084e58b750cea7761bd0"
          ],
          "data": "0x0000000000000000000000000000000000000000000000000049dc6514e16000",
          "blockHash": "0xaaac9b780f101dce2cb91ae2fa7d75f6449b8091b5fd9c76b8d5157d7e74beac",
          "blockNumber": "0x17b738d",
          "blockTimestamp": "0x69dd43f2",
          "transactionHash": "0xdb7ac4b1d06cd3c67b3915d1572e03c1b1fb35c2234aa7f637905b1f3964a292",
          "transactionIndex": "0x0",
          "logIndex": "0x1",
          "removed": false
        },
        {
          "address": "0x38d4de42c9c5640a2799b372d27b01957e0a3673",
          "topics": [
            "0xddf252ad1be2c89b69c2b068fc378daa952ba7f163c4a11628f55a4df523b3ef",
            "0x000000000000000000000000a382b0e75c192d9cdf5c084e58b750cea7761bd0",
            "0x000000000000000000000000646dc5fc4009c4c84a424b6ae0f494b374bae1ce",
            "0x0000000000000000000000000000000000000000000000000000000000000057"
          ],
          "data": "0x",
          "blockHash": "0xaaac9b780f101dce2cb91ae2fa7d75f6449b8091b5fd9c76b8d5157d7e74beac",
          "blockNumber": "0x17b738d",
          "blockTimestamp": "0x69dd43f2",
          "transactionHash": "0xdb7ac4b1d06cd3c67b3915d1572e03c1b1fb35c2234aa7f637905b1f3964a292",
          "transactionIndex": "0x0",
          "logIndex": "0x2",
          "removed": false
        },
        {
          "address": "0x73973d222c3fda5b2563d269da9e19cb125000f4",
          "topics": [
            "0xc0ac3eb1e8caef05b202043f34de8e3173fab712167584f7a2a9f4c302bd0e9c",
            "0x2efe1b69c07ff573c4058feb5f81a9189ce4526e3d95185b4e7dc0adddddcc1e",
            "0x00000000000000000000000038d4de42c9c5640a2799b372d27b01957e0a3673",
            "0x0000000000000000000000000000000000000000000000000000000000000057"
          ],
          "data": "0x000000000000000000000000a382b0e75c192d9cdf5c084e58b750cea7761bd0000000000000000000000000646dc5fc4009c4c84a424b6ae0f494b374bae1ce000000000000000000000000c02aaa39b223fe8d0a0e5c4f27ead9083c756cc2000000000000000000000000000000000000000000000000004a9b6384488000",
          "blockHash": "0xaaac9b780f101dce2cb91ae2fa7d75f6449b8091b5fd9c76b8d5157d7e74beac",
          "blockNumber": "0x17b738d",
          "blockTimestamp": "0x69dd43f2",
          "transactionHash": "0xdb7ac4b1d06cd3c67b3915d1572e03c1b1fb35c2234aa7f637905b1f3964a292",
          "transactionIndex": "0x0",
          "logIndex": "0x3",
          "removed": false
        }
      ],
      "logsBloom": "0x00000000000000000000000000000000000000000002000000000000000000000000000000000000000000000000060002000000090000000004110000100000000000000000001021002008000000000000000000000000000000000000000000000000000000000005000000000000000000000000040000000010000000000000000000000000000004000000000000100000000008000000000000000000000000000000000000000000000000000000000000000080400000000000000000000002000004000000001000000000000000002000000000000000000000000100202000000000000000000000000000000000100000000000000000000000",
      "type": "0x2",
      "transactionHash": "0xdb7ac4b1d06cd3c67b3915d1572e03c1b1fb35c2234aa7f637905b1f3964a292",
      "transactionIndex": "0x0",
      "blockHash": "0xaaac9b780f101dce2cb91ae2fa7d75f6449b8091b5fd9c76b8d5157d7e74beac",
      "blockNumber": "0x17b738d",
      "gasUsed": "0x20131",
      "effectiveGasPrice": "0xf4248",
      "blobGasPrice": "0x1",
      "from": "0x646dc5fc4009c4c84a424b6ae0f494b374bae1ce",
      "to": "0x73973d222c3fda5b2563d269da9e19cb125000f4",
      "contractAddress": null
    }
  ],
  "libraries": [],
  "pending": [],
  "returns": {},
  "timestamp": 1778453688662,
  "chain": 31337,
  "commit": "f87d399"
}