{
  "transactions": [
    {
      "hash": "0xe9ad44fa64a41880f6f991c68f072087a539aeb9136e92d32fbc4c37be561217",
      "transactionType": "CALL",
      "contractName": null,
      "contractAddress": "0x8fa71914948544c60e3379064567dcf0e6564d27",
      "function": "settle((uint256,address),(uint8,bool,address,uint256,address,uint256,address,uint64,uint64,uint256),(uint8,bytes32,bytes32))",
      "arguments": [
        "(0, 0x646dC5Fc4009C4C84a424B6aE0f494b374bAE1Ce)",
        "(0, false, 0xA5f104F8f78d5ba9AEC4a383c0927337Fd4E997B, 258, 0xC02aaA39b223FE8D0A0e5C4F27eAD9083C756Cc2, 31000000000000000, 0x1302F142Fc55B165647d3Bd5dec227f569A2A907, 1773445946, 1778728340, 0)",
        "(28, 0x9f4ff32be5f681dc38b5abdefc71f663920f7eb9f5598052ca391a1a42907a98, 0x297861800614a95e423e413066cb0fd4eaa677bf1f4efacc9aac0da1d53db6fc)"
      ],
      "transaction": {
        "from": "0x646dc5fc4009c4c84a424b6ae0f494b374bae1ce",
        "to": "0x8fa71914948544c60e3379064567dcf0e6564d27",
        "gas": "0x2ee8a",
        "value": "0x0",
        "input": "0x3bae3e790000000000000000000000000000000000000000000000000000000000000000000000000000000000000000646dc5fc4009c4c84a424b6ae0f494b374bae1ce00000000000000000000000000000000000000000000000000000000000000000000000000000000000000000000000000000000000000000000000000000000000000000000000000000000a5f104f8f78d5ba9aec4a383c0927337fd4e997b0000000000000000000000000000000000000000000000000000000000000102000000000000000000000000c02aaa39b223fe8d0a0e5c4f27ead9083c756cc2000000000000000000000000000000000000000000000000006e2255f40980000000000000000000000000001302f142fc55b165647d3bd5dec227f569a2a9070000000000000000000000000000000000000000000000000000000069b4a33a000000000000000000000000000000000000000000000000000000006a053d940000000000000000000000000000000000000000000000000000000000000000000000000000000000000000000000000000000000000000000000000000001c9f4ff32be5f681dc38b5abdefc71f663920f7eb9f5598052ca391a1a42907a98297861800614a95e423e413066cb0fd4eaa677bf1f4efacc9aac0da1d53db6fc",
        "nonce": "0x41",
        "chainId": "0x7a69"
      },
      "additionalContracts": [],
      "isFixedGasLimit": false
    }
  ],
  "receipts": [
    {
      "status": "0x1",
      "cumulativeGasUsed": "0x20131",
      "logs": [
        {
          "address": "0xc02aaa39b223fe8d0a0e5c4f27ead9083c756cc2",
          "topics": [
            "0xddf252ad1be2c89b69c2b068fc378daa952ba7f163c4a11628f55a4df523b3ef",
            "0x000000000000000000000000646dc5fc4009c4c84a424b6ae0f494b374bae1ce",
            "0x0000000000000000000000001804c8ab1f12e6bbf3894d4083f33e07309d1f38"
          ],
          "data": "0x000000000000000000000000000000000000000000000000000119f17fe16000",
          "blockHash": "0x5625e7449f9096e5b799a1d5dcbed8c929f92c66343c405c7b121f7f1a703167",
          "blockNumber": "0x17b831c",
          "blockTimestamp": "0x69de4e9d",
          "transactionHash": "0xe9ad44fa64a41880f6f991c68f072087a539aeb9136e92d32fbc4c37be561217",
          "transactionIndex": "0x0",
          "logIndex": "0x0",
          "removed": false
        },
        {
          "address": "0xc02aaa39b223fe8d0a0e5c4f27ead9083c756cc2",
          "topics": [
            "0xddf252ad1be2c89b69c2b068fc378daa952ba7f163c4a11628f55a4df523b3ef",
            "0x000000000000000000000000646dc5fc4009c4c84a424b6ae0f494b374bae1ce",
            "0x0000000000000000000000001302f142fc55b165647d3bd5dec227f569a2a907"
          ],
          "data": "0x000000000000000000000000000000000000000000000000006d086474282000",
          "blockHash": "0x5625e7449f9096e5b799a1d5dcbed8c929f92c66343c405c7b121f7f1a703167",
          "blockNumber": "0x17b831c",
          "blockTimestamp": "0x69de4e9d",
          "transactionHash": "0xe9ad44fa64a41880f6f991c68f072087a539aeb9136e92d32fbc4c37be561217",
          "transactionIndex": "0x0",
          "logIndex": "0x1",
          "removed": false
        },
        {
          "address": "0xa5f104f8f78d5ba9aec4a383c0927337fd4e997b",
          "topics": [
            "0xddf252ad1be2c89b69c2b068fc378daa952ba7f163c4a11628f55a4df523b3ef",
            "0x0000000000000000000000001302f142fc55b165647d3bd5dec227f569a2a907",
            "0x000000000000000000000000646dc5fc4009c4c84a424b6ae0f494b374bae1ce",
            "0x0000000000000000000000000000000000000000000000000000000000000102"
          ],
          "data": "0x",
          "blockHash": "0x5625e7449f9096e5b799a1d5dcbed8c929f92c66343c405c7b121f7f1a703167",
          "blockNumber": "0x17b831c",
          "blockTimestamp": "0x69de4e9d",
          "transactionHash": "0xe9ad44fa64a41880f6f991c68f072087a539aeb9136e92d32fbc4c37be561217",
          "transactionIndex": "0x0",
          "logIndex": "0x2",
          "removed": false
        },
        {
          "address": "0x8fa71914948544c60e3379064567dcf0e6564d27",
          "topics": [
            "0xc0ac3eb1e8caef05b202043f34de8e3173fab712167584f7a2a9f4c302bd0e9c",
            "0xdf0a0dd9dc57033194588f13da8b24da2375d7e7f23a6f74ff31793a80a07f5f",
            "0x000000000000000000000000a5f104f8f78d5ba9aec4a383c0927337fd4e997b",
            "0x0000000000000000000000000000000000000000000000000000000000000102"
          ],
          "data": "0x0000000000000000000000001302f142fc55b165647d3bd5dec227f569a2a907000000000000000000000000646dc5fc4009c4c84a424b6ae0f494b374bae1ce000000000000000000000000c02aaa39b223fe8d0a0e5c4f27ead9083c756cc2000000000000000000000000000000000000000000000000006e2255f4098000",
          "blockHash": "0x5625e7449f9096e5b799a1d5dcbed8c929f92c66343c405c7b121f7f1a703167",
          "blockNumber": "0x17b831c",
          "blockTimestamp": "0x69de4e9d",
          "transactionHash": "0xe9ad44fa64a41880f6f991c68f072087a539aeb9136e92d32fbc4c37be561217",
          "transactionIndex": "0x0",
          "logIndex": "0x3",
          "removed": false
        }
      ],
      "logsBloom": "0x00001000000000000100010000000000000000000002000000000000000000000000000000000000000000000000000002000000090000000000000000100000000000000000000000010008000000000000000000000000080000000000000000000000000000000005000000000000000000000000000000000010200000000800000000040000200004000000000004000000000000000000000000000000000000200000000400000000000100000000040000000080000000000000000000000002000004000000000200010000000000000000000080000000000000000100200000000000000040000000000000000000000000000000000000000000",
      "type": "0x2",
      "transactionHash": "0xe9ad44fa64a41880f6f991c68f072087a539aeb9136e92d32fbc4c37be561217",
      "transactionIndex": "0x0",
      "blockHash": "0x5625e7449f9096e5b799a1d5dcbed8c929f92c66343c405c7b121f7f1a703167",
      "blockNumber": "0x17b831c",
      "gasUsed": "0x20131",
      "effectiveGasPrice": "0x1ba81c",
      "blobGasPrice": "0x1",
      "from": "0x646dc5fc4009c4c84a424b6ae0f494b374bae1ce",
      "to": "0x8fa71914948544c60e3379064567dcf0e6564d27",
      "contractAddress": null
    }
  ],
  "libraries": [],
  "pending": [],
  "returns": {},
  "timestamp": 1778506405331,
  "chain": 31337,
  "commit": "59e30a9"
}