{
  "transactions": [
    {
      "hash": "0x78b21cd25d3a78117310cd1f8efa3b020a100e15d8c90485cffbd9931a224825",
      "transactionType": "CALL",
      "contractName": null,
      "contractAddress": "0x8fa71914948544c60e3379064567dcf0e6564d27",
      "function": "settle((uint256,address),(uint8,bool,address,uint256,address,uint256,address,uint64,uint64,uint256),(uint8,bytes32,bytes32))",
      "arguments": [
        "(0, 0x1302F142Fc55B165647d3Bd5dec227f569A2A907)",
        "(0, false, 0xA5f104F8f78d5ba9AEC4a383c0927337Fd4E997B, 11, 0xC02aaA39b223FE8D0A0e5C4F27eAD9083C756Cc2, 68000000000000000, 0xe3745C151faB59B0740f4312b2B027F07D096639, 1772017249, 1780157037, 9)",
        "(27, 0x016fc843bb3014a3437a551dd5383423f94672bd83c385c9b4b1c4a78d1954ee, 0x701a43641f19bbdfb833ac92d82300359ef092519da87d19a24ceb77768c2b39)"
      ],
      "transaction": {
        "from": "0x1302f142fc55b165647d3bd5dec227f569a2a907",
        "to": "0x8fa71914948544c60e3379064567dcf0e6564d27",
        "gas": "0x2c49b",
        "value": "0x0",
        "input": "0x3bae3e7900000000000000000000000000000000000000000000000000000000000000000000000000000000000000001302f142fc55b165647d3bd5dec227f569a2a90700000000000000000000000000000000000000000000000000000000000000000000000000000000000000000000000000000000000000000000000000000000000000000000000000000000a5f104f8f78d5ba9aec4a383c0927337fd4e997b000000000000000000000000000000000000000000000000000000000000000b000000000000000000000000c02aaa39b223fe8d0a0e5c4f27ead9083c756cc200000000000000000000000000000000000000000000000000f195a3c4ba0000000000000000000000000000e3745c151fab59b0740f4312b2b027f07d09663900000000000000000000000000000000000000000000000000000000699ed661000000000000000000000000000000000000000000000000000000006a1b0a6d0000000000000000000000000000000000000000000000000000000000000009000000000000000000000000000000000000000000000000000000000000001b016fc843bb3014a3437a551dd5383423f94672bd83c385c9b4b1c4a78d1954ee701a43641f19bbdfb833ac92d82300359ef092519da87d19a24ceb77768c2b39",
        "nonce": "0x3e",
        "chainId": "0x7a69"
      },
      "additionalContracts": [],
      "isFixedGasLimit": false
    }
  ],
  "receipts": [
    {
      "status": "0x1",
      "cumulativeGasUsed": "0x20105",
      "logs": [
        {
          "address": "0xc02aaa39b223fe8d0a0e5c4f27ead9083c756cc2",
          "topics": [
            "0xddf252ad1be2c89b69c2b068fc378daa952ba7f163c4a11628f55a4df523b3ef",
            "0x0000000000000000000000001302f142fc55b165647d3bd5dec227f569a2a907",
            "0x0000000000000000000000001804c8ab1f12e6bbf3894d4083f33e07309d1f38"
          ],
          "data": "0x00000000000000000000000000000000000000000000000000026a74d6728000",
          "blockHash": "0x4f675728ba1972a224d74833b20f712a28ab0fadc7a4e3ac9bb1d401bc7d9599",
          "blockNumber": "0x17b8379",
          "blockTimestamp": "0x69f6f2d6",
          "transactionHash": "0x78b21cd25d3a78117310cd1f8efa3b020a100e15d8c90485cffbd9931a224825",
          "transactionIndex": "0x0",
          "logIndex": "0x0",
          "removed": false
        },
        {
          "address": "0xc02aaa39b223fe8d0a0e5c4f27ead9083c756cc2",
          "topics": [
            "0xddf252ad1be2c89b69c2b068fc378daa952ba7f163c4a11628f55a4df523b3ef",
            "0x0000000000000000000000001302f142fc55b165647d3bd5dec227f569a2a907",
            "0x000000000000000000000000e3745c151fab59b0740f4312b2b027f07d096639"
          ],
          "data": "0x00000000000000000000000000000000000000000000000000ef2b2eee478000",
          "blockHash": "0x4f675728ba1972a224d74833b20f712a28ab0fadc7a4e3ac9bb1d401bc7d9599",
          "blockNumber": "0x17b8379",
          "blockTimestamp": "0x69f6f2d6",
          "transactionHash": "0x78b21cd25d3a78117310cd1f8efa3b020a100e15d8c90485cffbd9931a224825",
          "transactionIndex": "0x0",
          "logIndex": "0x1",
          "removed": false
        },
        {
          "address": "0xa5f104f8f78d5ba9aec4a383c0927337fd4e997b",
          "topics": [
            "0xddf252ad1be2c89b69c2b068fc378daa952ba7f163c4a11628f55a4df523b3ef",
            "0x000000000000000000000000e3745c151fab59b0740f4312b2b027f07d096639",
            "0x0000000000000000000000001302f142fc55b165647d3bd5dec227f569a2a907",
            "0x000000000000000000000000000000000000000000000000000000000000000b"
          ],
          "data": "0x",
          "blockHash": "0x4f675728ba1972a224d74833b20f712a28ab0fadc7a4e3ac9bb1d401bc7d9599",
          "blockNumber": "0x17b8379",
          "blockTimestamp": "0x69f6f2d6",
          "transactionHash": "0x78b21cd25d3a78117310cd1f8efa3b020a100e15d8c90485cffbd9931a224825",
          "transactionIndex": "0x0",
          "logIndex": "0x2",
          "removed": false
        },
        {
          "address": "0x8fa71914948544c60e3379064567dcf0e6564d27",
          "topics": [
            "0xc0ac3eb1e8caef05b202043f34de8e3173fab712167584f7a2a9f4c302bd0e9c",
            "0x9791f339da8b104d782608c963766e5e1dfe32429faf8df5bfcbeff9a0b0d3de",
            "0x000000000000000000000000a5f104f8f78d5ba9aec4a383c0927337fd4e997b",
            "0x000000000000000000000000000000000000000000000000000000000000000b"
          ],
          "data": "0x000000000000000000000000e3745c151fab59b0740f4312b2b027f07d0966390000000000000000000000001302f142fc55b165647d3bd5dec227f569a2a907000000000000000000000000c02aaa39b223fe8d0a0e5c4f27ead9083c756cc200000000000000000000000000000000000000000000000000f195a3c4ba0000",
          "blockHash": "0x4f675728ba1972a224d74833b20f712a28ab0fadc7a4e3ac9bb1d401bc7d9599",
          "blockNumber": "0x17b8379",
          "blockTimestamp": "0x69f6f2d6",
          "transactionHash": "0x78b21cd25d3a78117310cd1f8efa3b020a100e15d8c90485cffbd9931a224825",
          "transactionIndex": "0x0",
          "logIndex": "0x3",
          "removed": false
        }
      ],
      "logsBloom": "0x00000000000000000000014000000000000000000100000000000000000000000000000000000000000000000000000042000000080000000000000000100000000002000000000000010008000000000000000000000000080000000000000000000000000000000001000000000000000000000008000000000010200000000800000000040000000004000000000000000000000000000000000000000000000000200000000400000000000100000000000000000080000040000000000000000002000004000000000200000000002000000000000080000040000000000100200000000000000040000000000000000000000000040000000000000000",
      "type": "0x2",
      "transactionHash": "0x78b21cd25d3a78117310cd1f8efa3b020a100e15d8c90485cffbd9931a224825",
      "transactionIndex": "0x0",
      "blockHash": "0x4f675728ba1972a224d74833b20f712a28ab0fadc7a4e3ac9bb1d401bc7d9599",
      "blockNumber": "0x17b8379",
      "gasUsed": "0x20105",
      "effectiveGasPrice": "0x1ba81c",
      "blobGasPrice": "0x1",
      "from": "0x1302f142fc55b165647d3bd5dec227f569a2a907",
      "to": "0x8fa71914948544c60e3379064567dcf0e6564d27",
      "contractAddress": null
    }
  ],
  "libraries": [],
  "pending": [],
  "returns": {},
  "timestamp": 1778506503490,
  "chain": 31337,
  "commit": "59e30a9"
}