{
  "transactions": [
    {
      "hash": "0xbcb8f784330225dec34f34c3a28508123815a463036babc7104a66461f57a301",
      "transactionType": "CALL",
      "contractName": null,
      "contractAddress": "0x73973d222c3fda5b2563d269da9e19cb125000f4",
      "function": "settle((uint256,address),(uint8,bool,address,uint256,address,uint256,address,uint64,uint64,uint256),(uint8,bytes32,bytes32))",
      "arguments": [
        "(74, 0xe3745C151faB59B0740f4312b2B027F07D096639)",
        "(1, false, 0x38D4dE42C9c5640A2799B372D27B01957E0a3673, 74, 0xC02aaA39b223FE8D0A0e5C4F27eAD9083C756Cc2, 35000000000000000, 0x4b75AeC40561C03e03d4D1C421dF194a3031A134, 1772325441, 1779740197, 5)",
        "(28, 0xa9f7abe949743b132c9660471e92128b8b2c32b57da7623f3dc5334b0c5c305b, 0x04dff15513672e190f1d51ae54c3f9b5ac66b35c4d867d79e56ecb03fd99fe9d)"
      ],
      "transaction": {
        "from": "0xe3745c151fab59b0740f4312b2b027f07d096639",
        "to": "0x73973d222c3fda5b2563d269da9e19cb125000f4",
        "gas": "0x2c5dc",
        "value": "0x0",
        "input": "0x3bae3e79000000000000000000000000000000000000000000000000000000000000004a000000000000000000000000e3745c151fab59b0740f4312b2b027f07d0966390000000000000000000000000000000000000000000000000000000000000001000000000000000000000000000000000000000000000000000000000000000000000000000000000000000038d4de42c9c5640a2799b372d27b01957e0a3673000000000000000000000000000000000000000000000000000000000000004a000000000000000000000000c02aaa39b223fe8d0a0e5c4f27ead9083c756cc2000000000000000000000000000000000000000000000000007c5850872380000000000000000000000000004b75aec40561c03e03d4d1c421df194a3031a1340000000000000000000000000000000000000000000000000000000069a38a41000000000000000000000000000000000000000000000000000000006a14ae250000000000000000000000000000000000000000000000000000000000000005000000000000000000000000000000000000000000000000000000000000001ca9f7abe949743b132c9660471e92128b8b2c32b57da7623f3dc5334b0c5c305b04dff15513672e190f1d51ae54c3f9b5ac66b35c4d867d79e56ecb03fd99fe9d",
        "nonce": "0x82",
        "chainId": "0x7a69"
      },
      "additionalContracts": [],
      "isFixedGasLimit": false
    }
  ],
  "receipts": [
    {
      "status": "0x1",
      "cumulativeGasUsed": "0x201ee",
      "logs": [
        {
          "address": "0xc02aaa39b223fe8d0a0e5c4f27ead9083c756cc2",
          "topics": [
            "0xddf252ad1be2c89b69c2b068fc378daa952ba7f163c4a11628f55a4df523b3ef",
            "0x0000000000000000000000004b75aec40561c03e03d4d1c421df194a3031a134",
            "0x0000000000000000000000001804c8ab1f12e6bbf3894d4083f33e07309d1f38"
          ],
          "data": "0x00000000000000000000000000000000000000000000000000013e52b9abe000",
          "blockHash": "0x4bb25b742af043871be88c16f75022820cbbe75cd68b28cc63df5c83504887b5",
          "blockNumber": "0x17b73dd",
          "blockTimestamp": "0x69ebb02b",
          "transactionHash": "0xbcb8f784330225dec34f34c3a28508123815a463036babc7104a66461f57a301",
          "transactionIndex": "0x0",
          "logIndex": "0x0",
          "removed": false
        },
        {
          "address": "0xc02aaa39b223fe8d0a0e5c4f27ead9083c756cc2",
          "topics": [
            "0xddf252ad1be2c89b69c2b068fc378daa952ba7f163c4a11628f55a4df523b3ef",
            "0x0000000000000000000000004b75aec40561c03e03d4d1c421df194a3031a134",
            "0x000000000000000000000000e3745c151fab59b0740f4312b2b027f07d096639"
          ],
          "data": "0x000000000000000000000000000000000000000000000000007b19fdcd77a000",
          "blockHash": "0x4bb25b742af043871be88c16f75022820cbbe75cd68b28cc63df5c83504887b5",
          "blockNumber": "0x17b73dd",
          "blockTimestamp": "0x69ebb02b",
          "transactionHash": "0xbcb8f784330225dec34f34c3a28508123815a463036babc7104a66461f57a301",
          "transactionIndex": "0x0",
          "logIndex": "0x1",
          "removed": false
        },
        {
          "address": "0x38d4de42c9c5640a2799b372d27b01957e0a3673",
          "topics": [
            "0xddf252ad1be2c89b69c2b068fc378daa952ba7f163c4a11628f55a4df523b3ef",
            "0x000000000000000000000000e3745c151fab59b0740f4312b2b027f07d096639",
            "0x0000000000000000000000004b75aec40561c03e03d4d1c421df194a3031a134",
            "0x000000000000000000000000000000000000000000000000000000000000004a"
          ],
          "data": "0x",
          "blockHash": "0x4bb25b742af043871be88c16f75022820cbbe75cd68b28cc63df5c83504887b5",
          "blockNumber": "0x17b73dd",
          "blockTimestamp": "0x69ebb02b",
          "transactionHash": "0xbcb8f784330225dec34f34c3a28508123815a463036babc7104a66461f57a301",
          "transactionIndex": "0x0",
          "logIndex": "0x2",
          "removed": false
        },
        {
          "address": "0x73973d222c3fda5b2563d269da9e19cb125000f4",
          "topics": [
            "0xc0ac3eb1e8caef05b202043f34de8e3173fab712167584f7a2a9f4c302bd0e9c",
            "0x178d25087fad4b9a1047f20ed5566d9be5aeb91fe5047e2bc509bf335affd97c",
            "0x00000000000000000000000038d4de42c9c5640a2799b372d27b01957e0a3673",
            "0x000000000000000000000000000000000000000000000000000000000000004a"
          ],
          "data": "0x000000000000000000000000e3745c151fab59b0740f4312b2b027f07d0966390000000000000000000000004b75aec40561c03e03d4d1c421df194a3031a134000000000000000000000000c02aaa39b223fe8d0a0e5c4f27ead9083c756cc2000000000000000000000000000000000000000000000000007c585087238000",
          "blockHash": "0x4bb25b742af043871be88c16f75022820cbbe75cd68b28cc63df5c83504887b5",
          "blockNumber": "0x17b73dd",
          "blockTimestamp": "0x69ebb02b",
          "transactionHash": "0xbcb8f784330225dec34f34c3a28508123815a463036babc7104a66461f57a301",
          "transactionIndex": "0x0",
          "logIndex": "0x3",
          "removed": false
        }
      ],
      "logsBloom": "0x00000000000000000000000000000000000040000102000000000000000000000000000000000000000000000000020042000000080000000004100000100000000000000040001021000008000000000000000000000000000000000000000000000000000000200001000000000000000000000000000000000010000000000000000000000000000004000000000000000000000008000000000000002000000000000000000000000000000400000000000000000080420000000400000100000002000004000000000000000000000000000000000000000040000000001100200000000000000000000000000000000000000000000000000000000000",
      "type": "0x2",
      "transactionHash": "0xbcb8f784330225dec34f34c3a28508123815a463036babc7104a66461f57a301",
      "transactionIndex": "0x0",
      "blockHash": "0x4bb25b742af043871be88c16f75022820cbbe75cd68b28cc63df5c83504887b5",
      "blockNumber": "0x17b73dd",
      "gasUsed": "0x201ee",
      "effectiveGasPrice": "0xf4248",
      "blobGasPrice": "0x1",
      "from": "0xe3745c151fab59b0740f4312b2b027f07d096639",
      "to": "0x73973d222c3fda5b2563d269da9e19cb125000f4",
      "contractAddress": null
    }
  ],
  "libraries": [],
  "pending": [],
  "returns": {},
  "timestamp": 1778453794492,
  "chain": 31337,
  "commit": "f87d399"
}