{
  "transactions": [
    {
      "hash": "0x9cb9b90d964607e78dbb578a96ee055076a77f081aeafc9251c5bfd9c1e24c0a",
      "transactionType": "CALL",
      "contractName": null,
      "contractAddress": "0x8fa71914948544c60e3379064567dcf0e6564d27",
      "function": "settle((uint256,address),(uint8,bool,address,uint256,address,uint256,address,uint64,uint64,uint256),(uint8,bytes32,bytes32))",
      "arguments": [
        "(0, 0x2c2dbA75492E0C4A1D10B41303167aEC59586C9c)",
        "(0, false, 0xA5f104F8f78d5ba9AEC4a383c0927337Fd4E997B, 425, 0xC02aaA39b223FE8D0A0e5C4F27eAD9083C756Cc2, 786000000000000000, 0xe3745C151faB59B0740f4312b2B027F07D096639, 1773292184, 1778882102, 19)",
        "(28, 0xdc172c6a4141d2f903ff1f45e696ac426045cb8a9ffc7d73c08240b82d16aefd, 0x385ee21b60fd04bccddb5a5d3d5926fa4da81c4c78a90e8f4eb547b4ca57679c)"
      ],
      "transaction": {
        "from": "0x2c2dba75492e0c4a1d10b41303167aec59586c9c",
        "to": "0x8fa71914948544c60e3379064567dcf0e6564d27",
        "gas": "0x2c4e8",
        "value": "0x0",
        "input": "0x3bae3e7900000000000000000000000000000000000000000000000000000000000000000000000000000000000000002c2dba75492e0c4a1d10b41303167aec59586c9c00000000000000000000000000000000000000000000000000000000000000000000000000000000000000000000000000000000000000000000000000000000000000000000000000000000a5f104f8f78d5ba9aec4a383c0927337fd4e997b00000000000000000000000000000000000000000000000000000000000001a9000000000000000000000000c02aaa39b223fe8d0a0e5c4f27ead9083c756cc20000000000000000000000000000000000000000000000000ae86ed5e9750000000000000000000000000000e3745c151fab59b0740f4312b2b027f07d0966390000000000000000000000000000000000000000000000000000000069b24a98000000000000000000000000000000000000000000000000000000006a0796360000000000000000000000000000000000000000000000000000000000000013000000000000000000000000000000000000000000000000000000000000001cdc172c6a4141d2f903ff1f45e696ac426045cb8a9ffc7d73c08240b82d16aefd385ee21b60fd04bccddb5a5d3d5926fa4da81c4c78a90e8f4eb547b4ca57679c",
        "nonce": "0x36",
        "chainId": "0x7a69"
      },
      "additionalContracts": [],
      "isFixedGasLimit": false
    }
  ],
  "receipts": [
    {
      "status": "0x1",
      "cumulativeGasUsed": "0x2013d",
      "logs": [
        {
          "address": "0xc02aaa39b223fe8d0a0e5c4f27ead9083c756cc2",
          "topics": [
            "0xddf252ad1be2c89b69c2b068fc378daa952ba7f163c4a11628f55a4df523b3ef",
            "0x0000000000000000000000002c2dba75492e0c4a1d10b41303167aec59586c9c",
            "0x0000000000000000000000001804c8ab1f12e6bbf3894d4083f33e07309d1f38"
          ],
          "data": "0x000000000000000000000000000000000000000000000000001beca0dbef4000",
          "blockHash": "0xd4d35bec0832e24f3aed87397614cc868e530bdf843c768bcedec8e1ba50df96",
          "blockNumber": "0x17b8388",
          "blockTimestamp": "0x69fa539b",
          "transactionHash": "0x9cb9b90d964607e78dbb578a96ee055076a77f081aeafc9251c5bfd9c1e24c0a",
          "transactionIndex": "0x0",
          "logIndex": "0x0",
          "removed": false
        },
        {
          "address": "0xc02aaa39b223fe8d0a0e5c4f27ead9083c756cc2",
          "topics": [
            "0xddf252ad1be2c89b69c2b068fc378daa952ba7f163c4a11628f55a4df523b3ef",
            "0x0000000000000000000000002c2dba75492e0c4a1d10b41303167aec59586c9c",
            "0x000000000000000000000000e3745c151fab59b0740f4312b2b027f07d096639"
          ],
          "data": "0x0000000000000000000000000000000000000000000000000acc82350d85c000",
          "blockHash": "0xd4d35bec0832e24f3aed87397614cc868e530bdf843c768bcedec8e1ba50df96",
          "blockNumber": "0x17b8388",
          "blockTimestamp": "0x69fa539b",
          "transactionHash": "0x9cb9b90d964607e78dbb578a96ee055076a77f081aeafc9251c5bfd9c1e24c0a",
          "transactionIndex": "0x0",
          "logIndex": "0x1",
          "removed": false
        },
        {
          "address": "0xa5f104f8f78d5ba9aec4a383c0927337fd4e997b",
          "topics": [
            "0xddf252ad1be2c89b69c2b068fc378daa952ba7f163c4a11628f55a4df523b3ef",
            "0x000000000000000000000000e3745c151fab59b0740f4312b2b027f07d096639",
            "0x0000000000000000000000002c2dba75492e0c4a1d10b41303167aec59586c9c",
            "0x00000000000000000000000000000000000000000000000000000000000001a9"
          ],
          "data": "0x",
          "blockHash": "0xd4d35bec0832e24f3aed87397614cc868e530bdf843c768bcedec8e1ba50df96",
          "blockNumber": "0x17b8388",
          "blockTimestamp": "0x69fa539b",
          "transactionHash": "0x9cb9b90d964607e78dbb578a96ee055076a77f081aeafc9251c5bfd9c1e24c0a",
          "transactionIndex": "0x0",
          "logIndex": "0x2",
          "removed": false
        },
        {
          "address": "0x8fa71914948544c60e3379064567dcf0e6564d27",
          "topics": [
            "0xc0ac3eb1e8caef05b202043f34de8e3173fab712167584f7a2a9f4c302bd0e9c",
            "0x30c92f7652a25731f11550f74586114597d30e615921600a4b551ddbb4c770a2",
            "0x000000000000000000000000a5f104f8f78d5ba9aec4a383c0927337fd4e997b",
            "0x00000000000000000000000000000000000000000000000000000000000001a9"
          ],
          "data": "0x000000000000000000000000e3745c151fab59b0740f4312b2b027f07d0966390000000000000000000000002c2dba75492e0c4a1d10b41303167aec59586c9c000000000000000000000000c02aaa39b223fe8d0a0e5c4f27ead9083c756cc20000000000000000000000000000000000000000000000000ae86ed5e9750000",
          "blockHash": "0xd4d35bec0832e24f3aed87397614cc868e530bdf843c768bcedec8e1ba50df96",
          "blockNumber": "0x17b8388",
          "blockTimestamp": "0x69fa539b",
          "transactionHash": "0x9cb9b90d964607e78dbb578a96ee055076a77f081aeafc9251c5bfd9c1e24c0a",
          "transactionIndex": "0x0",
          "logIndex": "0x3",
          "removed": false
        }
      ],
      "logsBloom": "0x00000000000000000000010004000000000000000100000000000000000000000000020000000000000000000000000042000000080000000000000800100000000200000000000000010008000000000000000000000000080000000000000000000000000004000001000000000000000000000000000000000010200000000800000000040000000004000000000001000000000000000000000000000000008000200000000440000000000000000000000000000080000000000000000000000002000004000000000000000000000000000000000080000040000000000100200000000000010000000000000000000000000000000000000000000000",
      "type": "0x2",
      "transactionHash": "0x9cb9b90d964607e78dbb578a96ee055076a77f081aeafc9251c5bfd9c1e24c0a",
      "transactionIndex": "0x0",
      "blockHash": "0xd4d35bec0832e24f3aed87397614cc868e530bdf843c768bcedec8e1ba50df96",
      "blockNumber": "0x17b8388",
      "gasUsed": "0x2013d",
      "effectiveGasPrice": "0x1ba81c",
      "blobGasPrice": "0x1",
      "from": "0x2c2dba75492e0c4a1d10b41303167aec59586c9c",
      "to": "0x8fa71914948544c60e3379064567dcf0e6564d27",
      "contractAddress": null
    }
  ],
  "libraries": [],
  "pending": [],
  "returns": {},
  "timestamp": 1778506522121,
  "chain": 31337,
  "commit": "59e30a9"
}