{
  "transactions": [
    {
      "hash": "0xfbd2f920a3452b6193c961ee81d70994d7d44ac2c7bed548d9b1469c8aa7120e",
      "transactionType": "CALL",
      "contractName": null,
      "contractAddress": "0x8fa71914948544c60e3379064567dcf0e6564d27",
      "function": "settle((uint256,address),(uint8,bool,address,uint256,address,uint256,address,uint64,uint64,uint256),(uint8,bytes32,bytes32))",
      "arguments": [
        "(0, 0x646dC5Fc4009C4C84a424B6aE0f494b374bAE1Ce)",
        "(0, false, 0xA5f104F8f78d5ba9AEC4a383c0927337Fd4E997B, 25, 0xC02aaA39b223FE8D0A0e5C4F27eAD9083C756Cc2, 1074000000000000000, 0xcbe5659df21Cbcfabe4da962F7a9081F26B3ed82, 1773654530, 1778519756, 12)",
        "(28, 0x3a545eba5e8241733976d61aeb05191f0776915587a714a047d8d82172c340a5, 0x1b040df5552243da6d972f32284d4d62e993a226d1d7c220e578aef4711bf947)"
      ],
      "transaction": {
        "from": "0x646dc5fc4009c4c84a424b6ae0f494b374bae1ce",
        "to": "0x8fa71914948544c60e3379064567dcf0e6564d27",
        "gas": "0x2ee8a",
        "value": "0x0",
        "input": "0x3bae3e790000000000000000000000000000000000000000000000000000000000000000000000000000000000000000646dc5fc4009c4c84a424b6ae0f494b374bae1ce00000000000000000000000000000000000000000000000000000000000000000000000000000000000000000000000000000000000000000000000000000000000000000000000000000000a5f104f8f78d5ba9aec4a383c0927337fd4e997b0000000000000000000000000000000000000000000000000000000000000019000000000000000000000000c02aaa39b223fe8d0a0e5c4f27ead9083c756cc20000000000000000000000000000000000000000000000000ee79d4f48c50000000000000000000000000000cbe5659df21cbcfabe4da962f7a9081f26b3ed820000000000000000000000000000000000000000000000000000000069b7d202000000000000000000000000000000000000000000000000000000006a020ecc000000000000000000000000000000000000000000000000000000000000000c000000000000000000000000000000000000000000000000000000000000001c3a545eba5e8241733976d61aeb05191f0776915587a714a047d8d82172c340a51b040df5552243da6d972f32284d4d62e993a226d1d7c220e578aef4711bf947",
        "nonce": "0x56",
        "chainId": "0x7a69"
      },
      "additionalContracts": [],
      "isFixedGasLimit": false
    }
  ],
  "receipts": [
    {
      "status": "0x1",
      "cumulativeGasUsed": "0x20131",
      "logs": [
        {
          "address": "0xc02aaa39b223fe8d0a0e5c4f27ead9083c756cc2",
          "topics": [
            "0xddf252ad1be2c89b69c2b068fc378daa952ba7f163c4a11628f55a4df523b3ef",
            "0x000000000000000000000000646dc5fc4009c4c84a424b6ae0f494b374bae1ce",
            "0x0000000000000000000000001804c8ab1f12e6bbf3894d4083f33e07309d1f38"
          ],
          "data": "0x000000000000000000000000000000000000000000000000002627f91ce34000",
          "blockHash": "0x96bd2fc4b7fe6460b72d45ff56444c7e9e85312543a85be46195bff708d514c3",
          "blockNumber": "0x17b8356",
          "blockTimestamp": "0x69ef9b82",
          "transactionHash": "0xfbd2f920a3452b6193c961ee81d70994d7d44ac2c7bed548d9b1469c8aa7120e",
          "transactionIndex": "0x0",
          "logIndex": "0x0",
          "removed": false
        },
        {
          "address": "0xc02aaa39b223fe8d0a0e5c4f27ead9083c756cc2",
          "topics": [
            "0xddf252ad1be2c89b69c2b068fc378daa952ba7f163c4a11628f55a4df523b3ef",
            "0x000000000000000000000000646dc5fc4009c4c84a424b6ae0f494b374bae1ce",
            "0x000000000000000000000000cbe5659df21cbcfabe4da962f7a9081f26b3ed82"
          ],
          "data": "0x0000000000000000000000000000000000000000000000000ec175562be1c000",
          "blockHash": "0x96bd2fc4b7fe6460b72d45ff56444c7e9e85312543a85be46195bff708d514c3",
          "blockNumber": "0x17b8356",
          "blockTimestamp": "0x69ef9b82",
          "transactionHash": "0xfbd2f920a3452b6193c961ee81d70994d7d44ac2c7bed548d9b1469c8aa7120e",
          "transactionIndex": "0x0",
          "logIndex": "0x1",
          "removed": false
        },
        {
          "address": "0xa5f104f8f78d5ba9aec4a383c0927337fd4e997b",
          "topics": [
            "0xddf252ad1be2c89b69c2b068fc378daa952ba7f163c4a11628f55a4df523b3ef",
            "0x000000000000000000000000cbe5659df21cbcfabe4da962f7a9081f26b3ed82",
            "0x000000000000000000000000646dc5fc4009c4c84a424b6ae0f494b374bae1ce",
            "0x0000000000000000000000000000000000000000000000000000000000000019"
          ],
          "data": "0x",
          "blockHash": "0x96bd2fc4b7fe6460b72d45ff56444c7e9e85312543a85be46195bff708d514c3",
          "blockNumber": "0x17b8356",
          "blockTimestamp": "0x69ef9b82",
          "transactionHash": "0xfbd2f920a3452b6193c961ee81d70994d7d44ac2c7bed548d9b1469c8aa7120e",
          "transactionIndex": "0x0",
          "logIndex": "0x2",
          "removed": false
        },
        {
          "address": "0x8fa71914948544c60e3379064567dcf0e6564d27",
          "topics": [
            "0xc0ac3eb1e8caef05b202043f34de8e3173fab712167584f7a2a9f4c302bd0e9c",
            "0xe8a8ab0c0a39e2ef107b2f1d1494aee0e5e847a3438bcf5465998c57f986cd32",
            "0x000000000000000000000000a5f104f8f78d5ba9aec4a383c0927337fd4e997b",
            "0x0000000000000000000000000000000000000000000000000000000000000019"
          ],
          "data": "0x000000000000000000000000cbe5659df21cbcfabe4da962f7a9081f26b3ed82000000000000000000000000646dc5fc4009c4c84a424b6ae0f494b374bae1ce000000000000000000000000c02aaa39b223fe8d0a0e5c4f27ead9083c756cc20000000000000000000000000000000000000000000000000ee79d4f48c50000",
          "blockHash": "0x96bd2fc4b7fe6460b72d45ff56444c7e9e85312543a85be46195bff708d514c3",
          "blockNumber": "0x17b8356",
          "blockTimestamp": "0x69ef9b82",
          "transactionHash": "0xfbd2f920a3452b6193c961ee81d70994d7d44ac2c7bed548d9b1469c8aa7120e",
          "transactionIndex": "0x0",
          "logIndex": "0x3",
          "removed": false
        }
      ],
      "logsBloom": "0x00000000000000000000010000000000000000000002000000000000000000000000000000000000000200000000000002000000090000800000000000100000000000000000000000010008000000000000000000000000080000000000000000000000000000000005000000000000000000000000020000000010200000000800000000040000000004000000000040000000000000000000000000000000000000200000000400000000000000000000000000000080000000000000000000000002000004000400000000000000000000000000020080000000000000040100200000000000000000000000000000000000004000000000008000000000",
      "type": "0x2",
      "transactionHash": "0xfbd2f920a3452b6193c961ee81d70994d7d44ac2c7bed548d9b1469c8aa7120e",
      "transactionIndex": "0x0",
      "blockHash": "0x96bd2fc4b7fe6460b72d45ff56444c7e9e85312543a85be46195bff708d514c3",
      "blockNumber": "0x17b8356",
      "gasUsed": "0x20131",
      "effectiveGasPrice": "0x1ba81c",
      "blobGasPrice": "0x1",
      "from": "0x646dc5fc4009c4c84a424b6ae0f494b374bae1ce",
      "to": "0x8fa71914948544c60e3379064567dcf0e6564d27",
      "contractAddress": null
    }
  ],
  "libraries": [],
  "pending": [],
  "returns": {},
  "timestamp": 1778506470545,
  "chain": 31337,
  "commit": "59e30a9"
}