{
  "transactions": [
    {
      "hash": "0x947e72e19f8191a6a701d49758e672578d9540d8017365e8f2a8162d6bbbb22b",
      "transactionType": "CALL",
      "contractName": null,
      "contractAddress": "0x8fa71914948544c60e3379064567dcf0e6564d27",
      "function": "settle((uint256,address),(uint8,bool,address,uint256,address,uint256,address,uint64,uint64,uint256),(uint8,bytes32,bytes32))",
      "arguments": [
        "(0, 0x1302F142Fc55B165647d3Bd5dec227f569A2A907)",
        "(0, false, 0xA5f104F8f78d5ba9AEC4a383c0927337Fd4E997B, 295, 0xC02aaA39b223FE8D0A0e5C4F27eAD9083C756Cc2, 200000000000000000, 0x646dC5Fc4009C4C84a424B6aE0f494b374bAE1Ce, 1772593445, 1779469817, 0)",
        "(27, 0x49f30207bfa8fd0a8fe227749ca394cf00cbea0d96ae076124167ecee61853ab, 0x1958b4dd9fd0a6e4ed2e90d372a5c0829409673be2d229b941eacae5dbe3b9c8)"
      ],
      "transaction": {
        "from": "0x1302f142fc55b165647d3bd5dec227f569a2a907",
        "to": "0x8fa71914948544c60e3379064567dcf0e6564d27",
        "gas": "0x2ee5b",
        "value": "0x0",
        "input": "0x3bae3e7900000000000000000000000000000000000000000000000000000000000000000000000000000000000000001302f142fc55b165647d3bd5dec227f569a2a90700000000000000000000000000000000000000000000000000000000000000000000000000000000000000000000000000000000000000000000000000000000000000000000000000000000a5f104f8f78d5ba9aec4a383c0927337fd4e997b0000000000000000000000000000000000000000000000000000000000000127000000000000000000000000c02aaa39b223fe8d0a0e5c4f27ead9083c756cc200000000000000000000000000000000000000000000000002c68af0bb140000000000000000000000000000646dc5fc4009c4c84a424b6ae0f494b374bae1ce0000000000000000000000000000000000000000000000000000000069a7a125000000000000000000000000000000000000000000000000000000006a108df90000000000000000000000000000000000000000000000000000000000000000000000000000000000000000000000000000000000000000000000000000001b49f30207bfa8fd0a8fe227749ca394cf00cbea0d96ae076124167ecee61853ab1958b4dd9fd0a6e4ed2e90d372a5c0829409673be2d229b941eacae5dbe3b9c8",
        "nonce": "0x33",
        "chainId": "0x7a69"
      },
      "additionalContracts": [],
      "isFixedGasLimit": false
    }
  ],
  "receipts": [
    {
      "status": "0x1",
      "cumulativeGasUsed": "0x20111",
      "logs": [
        {
          "address": "0xc02aaa39b223fe8d0a0e5c4f27ead9083c756cc2",
          "topics": [
            "0xddf252ad1be2c89b69c2b068fc378daa952ba7f163c4a11628f55a4df523b3ef",
            "0x0000000000000000000000001302f142fc55b165647d3bd5dec227f569a2a907",
            "0x0000000000000000000000001804c8ab1f12e6bbf3894d4083f33e07309d1f38"
          ],
          "data": "0x00000000000000000000000000000000000000000000000000071afd498d0000",
          "blockHash": "0x69bb20730ea4803eafd012cb9640b61aff6dae9debf53e125d5a80a15782b17e",
          "blockNumber": "0x17b711e",
          "blockTimestamp": "0x69e0894a",
          "transactionHash": "0x947e72e19f8191a6a701d49758e672578d9540d8017365e8f2a8162d6bbbb22b",
          "transactionIndex": "0x0",
          "logIndex": "0x0",
          "removed": false
        },
        {
          "address": "0xc02aaa39b223fe8d0a0e5c4f27ead9083c756cc2",
          "topics": [
            "0xddf252ad1be2c89b69c2b068fc378daa952ba7f163c4a11628f55a4df523b3ef",
            "0x0000000000000000000000001302f142fc55b165647d3bd5dec227f569a2a907",
            "0x000000000000000000000000646dc5fc4009c4c84a424b6ae0f494b374bae1ce"
          ],
          "data": "0x00000000000000000000000000000000000000000000000002bf6ff371870000",
          "blockHash": "0x69bb20730ea4803eafd012cb9640b61aff6dae9debf53e125d5a80a15782b17e",
          "blockNumber": "0x17b711e",
          "blockTimestamp": "0x69e0894a",
          "transactionHash": "0x947e72e19f8191a6a701d49758e672578d9540d8017365e8f2a8162d6bbbb22b",
          "transactionIndex": "0x0",
          "logIndex": "0x1",
          "removed": false
        },
        {
          "address": "0xa5f104f8f78d5ba9aec4a383c0927337fd4e997b",
          "topics": [
            "0xddf252ad1be2c89b69c2b068fc378daa952ba7f163c4a11628f55a4df523b3ef",
            "0x000000000000000000000000646dc5fc4009c4c84a424b6ae0f494b374bae1ce",
            "0x0000000000000000000000001302f142fc55b165647d3bd5dec227f569a2a907",
            "0x0000000000000000000000000000000000000000000000000000000000000127"
          ],
          "data": "0x",
          "blockHash": "0x69bb20730ea4803eafd012cb9640b61aff6dae9debf53e125d5a80a15782b17e",
          "blockNumber": "0x17b711e",
          "blockTimestamp": "0x69e0894a",
          "transactionHash": "0x947e72e19f8191a6a701d49758e672578d9540d8017365e8f2a8162d6bbbb22b",
          "transactionIndex": "0x0",
          "logIndex": "0x2",
          "removed": false
        },
        {
          "address": "0x8fa71914948544c60e3379064567dcf0e6564d27",
          "topics": [
            "0xc0ac3eb1e8caef05b202043f34de8e3173fab712167584f7a2a9f4c302bd0e9c",
            "0x798f8a8fa6e6ffd8f224fddaa096f279afd3e1931cbf2a643534a28eb95a2690",
            "0x000000000000000000000000a5f104f8f78d5ba9aec4a383c0927337fd4e997b",
            "0x0000000000000000000000000000000000000000000000000000000000000127"
          ],
          "data": "0x000000000000000000000000646dc5fc4009c4c84a424b6ae0f494b374bae1ce0000000000000000000000001302f142fc55b165647d3bd5dec227f569a2a907000000000000000000000000c02aaa39b223fe8d0a0e5c4f27ead9083c756cc200000000000000000000000000000000000000000000000002c68af0bb140000",
          "blockHash": "0x69bb20730ea4803eafd012cb9640b61aff6dae9debf53e125d5a80a15782b17e",
          "blockNumber": "0x17b711e",
          "blockTimestamp": "0x69e0894a",
          "transactionHash": "0x947e72e19f8191a6a701d49758e672578d9540d8017365e8f2a8162d6bbbb22b",
          "transactionIndex": "0x0",
          "logIndex": "0x3",
          "removed": false
        }
      ],
      "logsBloom": "0x00000000000000000000010000000000000000000002000000000000000000000000000000000000000000000000000002000000090000000000000000140000000000000000000000010008000000000000000000000000080000000000000000000000000000000005000000000000000000000000000000000010200000000800000200040000000004000000000000000000000000000100000000000000000000200000000400000000000100000000000000000080000000000000000000000002000004000100000200040000000000000000000080000000000000000100200000000000000040000040000000000000000000000000000000000000",
      "type": "0x2",
      "transactionHash": "0x947e72e19f8191a6a701d49758e672578d9540d8017365e8f2a8162d6bbbb22b",
      "transactionIndex": "0x0",
      "blockHash": "0x69bb20730ea4803eafd012cb9640b61aff6dae9debf53e125d5a80a15782b17e",
      "blockNumber": "0x17b711e",
      "gasUsed": "0x20111",
      "effectiveGasPrice": "0x154c2b",
      "blobGasPrice": "0x1",
      "from": "0x1302f142fc55b165647d3bd5dec227f569a2a907",
      "to": "0x8fa71914948544c60e3379064567dcf0e6564d27",
      "contractAddress": null
    }
  ],
  "libraries": [],
  "pending": [],
  "returns": {},
  "timestamp": 1778450908599,
  "chain": 31337,
  "commit": "f87d399"
}