{
  "transactions": [
    {
      "hash": "0x4941fb2e74884d78e75ddd4a95258fde432d6db6bea0f0d939a9ad502b55e0e5",
      "transactionType": "CALL",
      "contractName": null,
      "contractAddress": "0x8fa71914948544c60e3379064567dcf0e6564d27",
      "function": "settle((uint256,address),(uint8,bool,address,uint256,address,uint256,address,uint64,uint64,uint256),(uint8,bytes32,bytes32))",
      "arguments": [
        "(317, 0x2c2dbA75492E0C4A1D10B41303167aEC59586C9c)",
        "(1, false, 0xA5f104F8f78d5ba9AEC4a383c0927337Fd4E997B, 317, 0xC02aaA39b223FE8D0A0e5C4F27eAD9083C756Cc2, 23000000000000000, 0xe3745C151faB59B0740f4312b2B027F07D096639, 1772885857, 1779288429, 22)",
        "(27, 0x8b2e751708ee58aeb33d420a5f83644733327bd9e0ef77e05ee9c853b1159c18, 0x26a53950f85d7bca1f6db4a3607e5a4dd4557134c4d5655d5e75ada696dc609b)"
      ],
      "transaction": {
        "from": "0x2c2dba75492e0c4a1d10b41303167aec59586c9c",
        "to": "0x8fa71914948544c60e3379064567dcf0e6564d27",
        "gas": "0x2efa4",
        "value": "0x0",
        "input": "0x3bae3e79000000000000000000000000000000000000000000000000000000000000013d0000000000000000000000002c2dba75492e0c4a1d10b41303167aec59586c9c00000000000000000000000000000000000000000000000000000000000000010000000000000000000000000000000000000000000000000000000000000000000000000000000000000000a5f104f8f78d5ba9aec4a383c0927337fd4e997b000000000000000000000000000000000000000000000000000000000000013d000000000000000000000000c02aaa39b223fe8d0a0e5c4f27ead9083c756cc20000000000000000000000000000000000000000000000000051b660cdd58000000000000000000000000000e3745c151fab59b0740f4312b2b027f07d0966390000000000000000000000000000000000000000000000000000000069ac1761000000000000000000000000000000000000000000000000000000006a0dc96d0000000000000000000000000000000000000000000000000000000000000016000000000000000000000000000000000000000000000000000000000000001b8b2e751708ee58aeb33d420a5f83644733327bd9e0ef77e05ee9c853b1159c1826a53950f85d7bca1f6db4a3607e5a4dd4557134c4d5655d5e75ada696dc609b",
        "nonce": "0x39",
        "chainId": "0x7a69"
      },
      "additionalContracts": [],
      "isFixedGasLimit": false
    }
  ],
  "receipts": [
    {
      "status": "0x1",
      "cumulativeGasUsed": "0x201f2",
      "logs": [
        {
          "address": "0xc02aaa39b223fe8d0a0e5c4f27ead9083c756cc2",
          "topics": [
            "0xddf252ad1be2c89b69c2b068fc378daa952ba7f163c4a11628f55a4df523b3ef",
            "0x000000000000000000000000e3745c151fab59b0740f4312b2b027f07d096639",
            "0x0000000000000000000000001804c8ab1f12e6bbf3894d4083f33e07309d1f38"
          ],
          "data": "0x0000000000000000000000000000000000000000000000000000d12f0c4c6000",
          "blockHash": "0x2297b8a2f97ea11f9d4ba5cc38c440b66e64457b9f106b419821056671626a5f",
          "blockNumber": "0x17b8391",
          "blockTimestamp": "0x69fc832d",
          "transactionHash": "0x4941fb2e74884d78e75ddd4a95258fde432d6db6bea0f0d939a9ad502b55e0e5",
          "transactionIndex": "0x0",
          "logIndex": "0x0",
          "removed": false
        },
        {
          "address": "0xc02aaa39b223fe8d0a0e5c4f27ead9083c756cc2",
          "topics": [
            "0xddf252ad1be2c89b69c2b068fc378daa952ba7f163c4a11628f55a4df523b3ef",
            "0x000000000000000000000000e3745c151fab59b0740f4312b2b027f07d096639",
            "0x0000000000000000000000002c2dba75492e0c4a1d10b41303167aec59586c9c"
          ],
          "data": "0x0000000000000000000000000000000000000000000000000050e531c1892000",
          "blockHash": "0x2297b8a2f97ea11f9d4ba5cc38c440b66e64457b9f106b419821056671626a5f",
          "blockNumber": "0x17b8391",
          "blockTimestamp": "0x69fc832d",
          "transactionHash": "0x4941fb2e74884d78e75ddd4a95258fde432d6db6bea0f0d939a9ad502b55e0e5",
          "transactionIndex": "0x0",
          "logIndex": "0x1",
          "removed": false
        },
        {
          "address": "0xa5f104f8f78d5ba9aec4a383c0927337fd4e997b",
          "topics": [
            "0xddf252ad1be2c89b69c2b068fc378daa952ba7f163c4a11628f55a4df523b3ef",
            "0x0000000000000000000000002c2dba75492e0c4a1d10b41303167aec59586c9c",
            "0x000000000000000000000000e3745c151fab59b0740f4312b2b027f07d096639",
            "0x000000000000000000000000000000000000000000000000000000000000013d"
          ],
          "data": "0x",
          "blockHash": "0x2297b8a2f97ea11f9d4ba5cc38c440b66e64457b9f106b419821056671626a5f",
          "blockNumber": "0x17b8391",
          "blockTimestamp": "0x69fc832d",
          "transactionHash": "0x4941fb2e74884d78e75ddd4a95258fde432d6db6bea0f0d939a9ad502b55e0e5",
          "transactionIndex": "0x0",
          "logIndex": "0x2",
          "removed": false
        },
        {
          "address": "0x8fa71914948544c60e3379064567dcf0e6564d27",
          "topics": [
            "0xc0ac3eb1e8caef05b202043f34de8e3173fab712167584f7a2a9f4c302bd0e9c",
            "0x636a17f257888f7cba7fb868b7ff40903f97163f7163b48535aab5cdce9173c6",
            "0x000000000000000000000000a5f104f8f78d5ba9aec4a383c0927337fd4e997b",
            "0x000000000000000000000000000000000000000000000000000000000000013d"
          ],
          "data": "0x0000000000000000000000002c2dba75492e0c4a1d10b41303167aec59586c9c000000000000000000000000e3745c151fab59b0740f4312b2b027f07d096639000000000000000000000000c02aaa39b223fe8d0a0e5c4f27ead9083c756cc20000000000000000000000000000000000000000000000000051b660cdd58000",
          "blockHash": "0x2297b8a2f97ea11f9d4ba5cc38c440b66e64457b9f106b419821056671626a5f",
          "blockNumber": "0x17b8391",
          "blockTimestamp": "0x69fc832d",
          "transactionHash": "0x4941fb2e74884d78e75ddd4a95258fde432d6db6bea0f0d939a9ad502b55e0e5",
          "transactionIndex": "0x0",
          "logIndex": "0x3",
          "removed": false
        }
      ],
      "logsBloom": "0x01000040000000000000010000000000000000000100000000000001000000000000000000000000000000000000000042000000080000000000000800100000000200000000000000010008000000000000000000000000080000000000000000000000000004000001000000000000000000000000000400000010200000000800000000040000000004000000000000000000000000000000000000000000000000200000000400000800000000000000000000000080000000000000000000000002000004000000000000000000000000000000000080000040004000000100200000000000000000000000000000000000000000000000000000000000",
      "type": "0x2",
      "transactionHash": "0x4941fb2e74884d78e75ddd4a95258fde432d6db6bea0f0d939a9ad502b55e0e5",
      "transactionIndex": "0x0",
      "blockHash": "0x2297b8a2f97ea11f9d4ba5cc38c440b66e64457b9f106b419821056671626a5f",
      "blockNumber": "0x17b8391",
      "gasUsed": "0x201f2",
      "effectiveGasPrice": "0x1ba81c",
      "blobGasPrice": "0x1",
      "from": "0x2c2dba75492e0c4a1d10b41303167aec59586c9c",
      "to": "0x8fa71914948544c60e3379064567dcf0e6564d27",
      "contractAddress": null
    }
  ],
  "libraries": [],
  "pending": [],
  "returns": {},
  "timestamp": 1778506536439,
  "chain": 31337,
  "commit": "59e30a9"
}