{
  "transactions": [
    {
      "hash": "0x62ce2da7e1c919333a284c77df3fac8ffd1b17f2c18614b4b35c286837e27ac0",
      "transactionType": "CALL",
      "contractName": null,
      "contractAddress": "0x8fa71914948544c60e3379064567dcf0e6564d27",
      "function": "settle((uint256,address),(uint8,bool,address,uint256,address,uint256,address,uint64,uint64,uint256),(uint8,bytes32,bytes32))",
      "arguments": [
        "(379, 0x646dC5Fc4009C4C84a424B6aE0f494b374bAE1Ce)",
        "(1, false, 0xA5f104F8f78d5ba9AEC4a383c0927337Fd4E997B, 379, 0xC02aaA39b223FE8D0A0e5C4F27eAD9083C756Cc2, 30000000000000000, 0x2c2dbA75492E0C4A1D10B41303167aEC59586C9c, 1772182985, 1779991301, 10)",
        "(27, 0x6ba7d855164ac5caf40b87f99cdf92fa517fe41e897f7706be91cb2aff133089, 0x10a2b900f25307e34a5b89fa7cb0ed6475f07270a2e4d661a68dad81dd747a6f)"
      ],
      "transaction": {
        "from": "0x646dc5fc4009c4c84a424b6ae0f494b374bae1ce",
        "to": "0x8fa71914948544c60e3379064567dcf0e6564d27",
        "gas": "0x2ef81",
        "value": "0x0",
        "input": "0x3bae3e79000000000000000000000000000000000000000000000000000000000000017b000000000000000000000000646dc5fc4009c4c84a424b6ae0f494b374bae1ce00000000000000000000000000000000000000000000000000000000000000010000000000000000000000000000000000000000000000000000000000000000000000000000000000000000a5f104f8f78d5ba9aec4a383c0927337fd4e997b000000000000000000000000000000000000000000000000000000000000017b000000000000000000000000c02aaa39b223fe8d0a0e5c4f27ead9083c756cc2000000000000000000000000000000000000000000000000006a94d74f4300000000000000000000000000002c2dba75492e0c4a1d10b41303167aec59586c9c0000000000000000000000000000000000000000000000000000000069a15dc9000000000000000000000000000000000000000000000000000000006a188305000000000000000000000000000000000000000000000000000000000000000a000000000000000000000000000000000000000000000000000000000000001b6ba7d855164ac5caf40b87f99cdf92fa517fe41e897f7706be91cb2aff13308910a2b900f25307e34a5b89fa7cb0ed6475f07270a2e4d661a68dad81dd747a6f",
        "nonce": "0x5c",
        "chainId": "0x7a69"
      },
      "additionalContracts": [],
      "isFixedGasLimit": false
    }
  ],
  "receipts": [
    {
      "status": "0x1",
      "cumulativeGasUsed": "0x201da",
      "logs": [
        {
          "address": "0xc02aaa39b223fe8d0a0e5c4f27ead9083c756cc2",
          "topics": [
            "0xddf252ad1be2c89b69c2b068fc378daa952ba7f163c4a11628f55a4df523b3ef",
            "0x0000000000000000000000002c2dba75492e0c4a1d10b41303167aec59586c9c",
            "0x0000000000000000000000001804c8ab1f12e6bbf3894d4083f33e07309d1f38"
          ],
          "data": "0x000000000000000000000000000000000000000000000000000110d9316ec000",
          "blockHash": "0x549c9dc774eef929aaef83dbf62ccbb3dbf42bbe57977fddb342ecbc72bb6f1f",
          "blockNumber": "0x17b8376",
          "blockTimestamp": "0x69f651bf",
          "transactionHash": "0x62ce2da7e1c919333a284c77df3fac8ffd1b17f2c18614b4b35c286837e27ac0",
          "transactionIndex": "0x0",
          "logIndex": "0x0",
          "removed": false
        },
        {
          "address": "0xc02aaa39b223fe8d0a0e5c4f27ead9083c756cc2",
          "topics": [
            "0xddf252ad1be2c89b69c2b068fc378daa952ba7f163c4a11628f55a4df523b3ef",
            "0x0000000000000000000000002c2dba75492e0c4a1d10b41303167aec59586c9c",
            "0x000000000000000000000000646dc5fc4009c4c84a424b6ae0f494b374bae1ce"
          ],
          "data": "0x000000000000000000000000000000000000000000000000006983fe1dd44000",
          "blockHash": "0x549c9dc774eef929aaef83dbf62ccbb3dbf42bbe57977fddb342ecbc72bb6f1f",
          "blockNumber": "0x17b8376",
          "blockTimestamp": "0x69f651bf",
          "transactionHash": "0x62ce2da7e1c919333a284c77df3fac8ffd1b17f2c18614b4b35c286837e27ac0",
          "transactionIndex": "0x0",
          "logIndex": "0x1",
          "removed": false
        },
        {
          "address": "0xa5f104f8f78d5ba9aec4a383c0927337fd4e997b",
          "topics": [
            "0xddf252ad1be2c89b69c2b068fc378daa952ba7f163c4a11628f55a4df523b3ef",
            "0x000000000000000000000000646dc5fc4009c4c84a424b6ae0f494b374bae1ce",
            "0x0000000000000000000000002c2dba75492e0c4a1d10b41303167aec59586c9c",
            "0x000000000000000000000000000000000000000000000000000000000000017b"
          ],
          "data": "0x",
          "blockHash": "0x549c9dc774eef929aaef83dbf62ccbb3dbf42bbe57977fddb342ecbc72bb6f1f",
          "blockNumber": "0x17b8376",
          "blockTimestamp": "0x69f651bf",
          "transactionHash": "0x62ce2da7e1c919333a284c77df3fac8ffd1b17f2c18614b4b35c286837e27ac0",
          "transactionIndex": "0x0",
          "logIndex": "0x2",
          "removed": false
        },
        {
          "address": "0x8fa71914948544c60e3379064567dcf0e6564d27",
          "topics": [
            "0xc0ac3eb1e8caef05b202043f34de8e3173fab712167584f7a2a9f4c302bd0e9c",
            "0x2c23b54b82c092b0f13fc2ce6d4a476fddc676331826d154e5738b3a0c697242",
            "0x000000000000000000000000a5f104f8f78d5ba9aec4a383c0927337fd4e997b",
            "0x000000000000000000000000000000000000000000000000000000000000017b"
          ],
          "data": "0x000000000000000000000000646dc5fc4009c4c84a424b6ae0f494b374bae1ce0000000000000000000000002c2dba75492e0c4a1d10b41303167aec59586c9c000000000000000000000000c02aaa39b223fe8d0a0e5c4f27ead9083c756cc2000000000000000000000000000000000000000000000000006a94d74f430000",
          "blockHash": "0x549c9dc774eef929aaef83dbf62ccbb3dbf42bbe57977fddb342ecbc72bb6f1f",
          "blockNumber": "0x17b8376",
          "blockTimestamp": "0x69f651bf",
          "transactionHash": "0x62ce2da7e1c919333a284c77df3fac8ffd1b17f2c18614b4b35c286837e27ac0",
          "transactionIndex": "0x0",
          "logIndex": "0x3",
          "removed": false
        }
      ],
      "logsBloom": "0x00000000000000000100010000000000000000000002000000000000000000000000000000000000000000000100000002000000090000000000000800100000000200000000000000010008000000000000000000000000080000000000000000000000000004000005000000000000000000000000000000000010200000000800000000040000000004000000000000000000000000000000000000000000000000201000010400000000000000000000000000000080000000000000000000000002000004000000000000000000000000000004000080000000000000000100200000000000000000000000000000000000000000000000000000000000",
      "type": "0x2",
      "transactionHash": "0x62ce2da7e1c919333a284c77df3fac8ffd1b17f2c18614b4b35c286837e27ac0",
      "transactionIndex": "0x0",
      "blockHash": "0x549c9dc774eef929aaef83dbf62ccbb3dbf42bbe57977fddb342ecbc72bb6f1f",
      "blockNumber": "0x17b8376",
      "gasUsed": "0x201da",
      "effectiveGasPrice": "0x1ba81c",
      "blobGasPrice": "0x1",
      "from": "0x646dc5fc4009c4c84a424b6ae0f494b374bae1ce",
      "to": "0x8fa71914948544c60e3379064567dcf0e6564d27",
      "contractAddress": null
    }
  ],
  "libraries": [],
  "pending": [],
  "returns": {},
  "timestamp": 1778506500855,
  "chain": 31337,
  "commit": "59e30a9"
}