{
  "transactions": [
    {
      "hash": "0x2c8f7b68f554c06f9313f77d73b9a9490678ef48557aafd705d456e6fdacd189",
      "transactionType": "CALL",
      "contractName": null,
      "contractAddress": "0x8fa71914948544c60e3379064567dcf0e6564d27",
      "function": "settle((uint256,address),(uint8,bool,address,uint256,address,uint256,address,uint64,uint64,uint256),(uint8,bytes32,bytes32))",
      "arguments": [
        "(0, 0xE233420d38D286C2F2Cf8dEe6564F132FBDB09DB)",
        "(0, false, 0xA5f104F8f78d5ba9AEC4a383c0927337Fd4E997B, 8, 0xC02aaA39b223FE8D0A0e5C4F27eAD9083C756Cc2, 15000000000000000, 0xcbe5659df21Cbcfabe4da962F7a9081F26B3ed82, 1772548381, 1779625905, 11)",
        "(28, 0x2fb48d9a41fbac3e2a66b44c301c709d797058076769f0b4f78b2879117b80ec, 0x43b868bd60104b0892bcce6edd66391c2b5a891fdcf98617ffa2b5c5d3fd7ae0)"
      ],
      "transaction": {
        "from": "0xe233420d38d286c2f2cf8dee6564f132fbdb09db",
        "to": "0x8fa71914948544c60e3379064567dcf0e6564d27",
        "gas": "0x2ee8a",
        "value": "0x0",
        "input": "0x3bae3e790000000000000000000000000000000000000000000000000000000000000000000000000000000000000000e233420d38d286c2f2cf8dee6564f132fbdb09db00000000000000000000000000000000000000000000000000000000000000000000000000000000000000000000000000000000000000000000000000000000000000000000000000000000a5f104f8f78d5ba9aec4a383c0927337fd4e997b0000000000000000000000000000000000000000000000000000000000000008000000000000000000000000c02aaa39b223fe8d0a0e5c4f27ead9083c756cc200000000000000000000000000000000000000000000000000354a6ba7a18000000000000000000000000000cbe5659df21cbcfabe4da962f7a9081f26b3ed820000000000000000000000000000000000000000000000000000000069a6f11d000000000000000000000000000000000000000000000000000000006a12efb1000000000000000000000000000000000000000000000000000000000000000b000000000000000000000000000000000000000000000000000000000000001c2fb48d9a41fbac3e2a66b44c301c709d797058076769f0b4f78b2879117b80ec43b868bd60104b0892bcce6edd66391c2b5a891fdcf98617ffa2b5c5d3fd7ae0",
        "nonce": "0x38",
        "chainId": "0x7a69"
      },
      "additionalContracts": [],
      "isFixedGasLimit": false
    }
  ],
  "receipts": [
    {
      "status": "0x1",
      "cumulativeGasUsed": "0x20131",
      "logs": [
        {
          "address": "0xc02aaa39b223fe8d0a0e5c4f27ead9083c756cc2",
          "topics": [
            "0xddf252ad1be2c89b69c2b068fc378daa952ba7f163c4a11628f55a4df523b3ef",
            "0x000000000000000000000000e233420d38d286c2f2cf8dee6564f132fbdb09db",
            "0x0000000000000000000000001804c8ab1f12e6bbf3894d4083f33e07309d1f38"
          ],
          "data": "0x0000000000000000000000000000000000000000000000000000886c98b76000",
          "blockHash": "0xf8c0326bdcbc253ffa26273f40da6f5d65023d21a731c5a54f6e971bb73ac494",
          "blockNumber": "0x17b836a",
          "blockTimestamp": "0x69f3cd6a",
          "transactionHash": "0x2c8f7b68f554c06f9313f77d73b9a9490678ef48557aafd705d456e6fdacd189",
          "transactionIndex": "0x0",
          "logIndex": "0x0",
          "removed": false
        },
        {
          "address": "0xc02aaa39b223fe8d0a0e5c4f27ead9083c756cc2",
          "topics": [
            "0xddf252ad1be2c89b69c2b068fc378daa952ba7f163c4a11628f55a4df523b3ef",
            "0x000000000000000000000000e233420d38d286c2f2cf8dee6564f132fbdb09db",
            "0x000000000000000000000000cbe5659df21cbcfabe4da962f7a9081f26b3ed82"
          ],
          "data": "0x0000000000000000000000000000000000000000000000000034c1ff0eea2000",
          "blockHash": "0xf8c0326bdcbc253ffa26273f40da6f5d65023d21a731c5a54f6e971bb73ac494",
          "blockNumber": "0x17b836a",
          "blockTimestamp": "0x69f3cd6a",
          "transactionHash": "0x2c8f7b68f554c06f9313f77d73b9a9490678ef48557aafd705d456e6fdacd189",
          "transactionIndex": "0x0",
          "logIndex": "0x1",
          "removed": false
        },
        {
          "address": "0xa5f104f8f78d5ba9aec4a383c0927337fd4e997b",
          "topics": [
            "0xddf252ad1be2c89b69c2b068fc378daa952ba7f163c4a11628f55a4df523b3ef",
            "0x000000000000000000000000cbe5659df21cbcfabe4da962f7a9081f26b3ed82",
            "0x000000000000000000000000e233420d38d286c2f2cf8dee6564f132fbdb09db",
            "0x0000000000000000000000000000000000000000000000000000000000000008"
          ],
          "data": "0x",
          "blockHash": "0xf8c0326bdcbc253ffa26273f40da6f5d65023d21a731c5a54f6e971bb73ac494",
          "blockNumber": "0x17b836a",
          "blockTimestamp": "0x69f3cd6a",
          "transactionHash": "0x2c8f7b68f554c06f9313f77d73b9a9490678ef48557aafd705d456e6fdacd189",
          "transactionIndex": "0x0",
          "logIndex": "0x2",
          "removed": false
        },
        {
          "address": "0x8fa71914948544c60e3379064567dcf0e6564d27",
          "topics": [
            "0xc0ac3eb1e8caef05b202043f34de8e3173fab712167584f7a2a9f4c302bd0e9c",
            "0x527243bdb79acd860082e87e1cca062273ee2d68538679e2f7c97f1690c458b6",
            "0x000000000000000000000000a5f104f8f78d5ba9aec4a383c0927337fd4e997b",
            "0x0000000000000000000000000000000000000000000000000000000000000008"
          ],
          "data": "0x000000000000000000000000cbe5659df21cbcfabe4da962f7a9081f26b3ed82000000000000000000000000e233420d38d286c2f2cf8dee6564f132fbdb09db000000000000000000000000c02aaa39b223fe8d0a0e5c4f27ead9083c756cc200000000000000000000000000000000000000000000000000354a6ba7a18000",
          "blockHash": "0xf8c0326bdcbc253ffa26273f40da6f5d65023d21a731c5a54f6e971bb73ac494",
          "blockNumber": "0x17b836a",
          "blockTimestamp": "0x69f3cd6a",
          "transactionHash": "0x2c8f7b68f554c06f9313f77d73b9a9490678ef48557aafd705d456e6fdacd189",
          "transactionIndex": "0x0",
          "logIndex": "0x3",
          "removed": false
        }
      ],
      "logsBloom": "0x00000000000000000000010000000000000000000000000000100000000000000000000000000000000000000000000002000000080080000000000000100000000000000000000000010008000000000000000000000000080000000000000000000001000000000001000000000000000000000000000000000010200000100880000000040000000004000000000000000000000000000000000000000000000000200000010400000000000000000000000000000080000000000000000040000012000004000400000000000000000000000002020080000000000000000100200000000000000000000000000000000000004000000000000000000000",
      "type": "0x2",
      "transactionHash": "0x2c8f7b68f554c06f9313f77d73b9a9490678ef48557aafd705d456e6fdacd189",
      "transactionIndex": "0x0",
      "blockHash": "0xf8c0326bdcbc253ffa26273f40da6f5d65023d21a731c5a54f6e971bb73ac494",
      "blockNumber": "0x17b836a",
      "gasUsed": "0x20131",
      "effectiveGasPrice": "0x1ba81c",
      "blobGasPrice": "0x1",
      "from": "0xe233420d38d286c2f2cf8dee6564f132fbdb09db",
      "to": "0x8fa71914948544c60e3379064567dcf0e6564d27",
      "contractAddress": null
    }
  ],
  "libraries": [],
  "pending": [],
  "returns": {},
  "timestamp": 1778506490031,
  "chain": 31337,
  "commit": "59e30a9"
}