{
  "transactions": [
    {
      "hash": "0x654c0584013e35110070ef8aba758af29c54064ee32e13042dfd2961d38f4aaf",
      "transactionType": "CALL",
      "contractName": null,
      "contractAddress": "0x8fa71914948544c60e3379064567dcf0e6564d27",
      "function": "settle((uint256,address),(uint8,bool,address,uint256,address,uint256,address,uint64,uint64,uint256),(uint8,bytes32,bytes32))",
      "arguments": [
        "(49, 0xe3745C151faB59B0740f4312b2B027F07D096639)",
        "(1, false, 0xA5f104F8f78d5ba9AEC4a383c0927337Fd4E997B, 49, 0xC02aaA39b223FE8D0A0e5C4F27eAD9083C756Cc2, 28000000000000000, 0xE233420d38D286C2F2Cf8dEe6564F132FBDB09DB, 1772658408, 1779515878, 10)",
        "(28, 0xe01e3d2b5473474a5760f63c3cf8cdd7450aec48200ebc1546bb29399d241287, 0x494a82e8e2b3821e85f817aa588b8ba5f70a3867411248577495e9ec0b72592b)"
      ],
      "transaction": {
        "from": "0xe3745c151fab59b0740f4312b2b027f07d096639",
        "to": "0x8fa71914948544c60e3379064567dcf0e6564d27",
        "gas": "0x2ef8d",
        "value": "0x0",
        "input": "0x3bae3e790000000000000000000000000000000000000000000000000000000000000031000000000000000000000000e3745c151fab59b0740f4312b2b027f07d09663900000000000000000000000000000000000000000000000000000000000000010000000000000000000000000000000000000000000000000000000000000000000000000000000000000000a5f104f8f78d5ba9aec4a383c0927337fd4e997b0000000000000000000000000000000000000000000000000000000000000031000000000000000000000000c02aaa39b223fe8d0a0e5c4f27ead9083c756cc2000000000000000000000000000000000000000000000000006379da05b60000000000000000000000000000e233420d38d286c2f2cf8dee6564f132fbdb09db0000000000000000000000000000000000000000000000000000000069a89ee8000000000000000000000000000000000000000000000000000000006a1141e6000000000000000000000000000000000000000000000000000000000000000a000000000000000000000000000000000000000000000000000000000000001ce01e3d2b5473474a5760f63c3cf8cdd7450aec48200ebc1546bb29399d241287494a82e8e2b3821e85f817aa588b8ba5f70a3867411248577495e9ec0b72592b",
        "nonce": "0x4c",
        "chainId": "0x7a69"
      },
      "additionalContracts": [],
      "isFixedGasLimit": false
    }
  ],
  "receipts": [
    {
      "status": "0x1",
      "cumulativeGasUsed": "0x201e2",
      "logs": [
        {
          "address": "0xc02aaa39b223fe8d0a0e5c4f27ead9083c756cc2",
          "topics": [
            "0xddf252ad1be2c89b69c2b068fc378daa952ba7f163c4a11628f55a4df523b3ef",
            "0x000000000000000000000000e233420d38d286c2f2cf8dee6564f132fbdb09db",
            "0x0000000000000000000000001804c8ab1f12e6bbf3894d4083f33e07309d1f38"
          ],
          "data": "0x0000000000000000000000000000000000000000000000000000fea894898000",
          "blockHash": "0x7d14f9c772cbfe1887cecb75f1e14838ac11adae3b7117feef004d1a387b43eb",
          "blockNumber": "0x17b834c",
          "blockTimestamp": "0x69ecf468",
          "transactionHash": "0x654c0584013e35110070ef8aba758af29c54064ee32e13042dfd2961d38f4aaf",
          "transactionIndex": "0x0",
          "logIndex": "0x0",
          "removed": false
        },
        {
          "address": "0xc02aaa39b223fe8d0a0e5c4f27ead9083c756cc2",
          "topics": [
            "0xddf252ad1be2c89b69c2b068fc378daa952ba7f163c4a11628f55a4df523b3ef",
            "0x000000000000000000000000e233420d38d286c2f2cf8dee6564f132fbdb09db",
            "0x000000000000000000000000e3745c151fab59b0740f4312b2b027f07d096639"
          ],
          "data": "0x00000000000000000000000000000000000000000000000000627b31712c8000",
          "blockHash": "0x7d14f9c772cbfe1887cecb75f1e14838ac11adae3b7117feef004d1a387b43eb",
          "blockNumber": "0x17b834c",
          "blockTimestamp": "0x69ecf468",
          "transactionHash": "0x654c0584013e35110070ef8aba758af29c54064ee32e13042dfd2961d38f4aaf",
          "transactionIndex": "0x0",
          "logIndex": "0x1",
          "removed": false
        },
        {
          "address": "0xa5f104f8f78d5ba9aec4a383c0927337fd4e997b",
          "topics": [
            "0xddf252ad1be2c89b69c2b068fc378daa952ba7f163c4a11628f55a4df523b3ef",
            "0x000000000000000000000000e3745c151fab59b0740f4312b2b027f07d096639",
            "0x000000000000000000000000e233420d38d286c2f2cf8dee6564f132fbdb09db",
            "0x0000000000000000000000000000000000000000000000000000000000000031"
          ],
          "data": "0x",
          "blockHash": "0x7d14f9c772cbfe1887cecb75f1e14838ac11adae3b7117feef004d1a387b43eb",
          "blockNumber": "0x17b834c",
          "blockTimestamp": "0x69ecf468",
          "transactionHash": "0x654c0584013e35110070ef8aba758af29c54064ee32e13042dfd2961d38f4aaf",
          "transactionIndex": "0x0",
          "logIndex": "0x2",
          "removed": false
        },
        {
          "address": "0x8fa71914948544c60e3379064567dcf0e6564d27",
          "topics": [
            "0xc0ac3eb1e8caef05b202043f34de8e3173fab712167584f7a2a9f4c302bd0e9c",
            "0xd3be3c6c7cddfbf613a8ffed1f02d41caa7ed8e41dce2eae005571c0671ee918",
            "0x000000000000000000000000a5f104f8f78d5ba9aec4a383c0927337fd4e997b",
            "0x0000000000000000000000000000000000000000000000000000000000000031"
          ],
          "data": "0x000000000000000000000000e3745c151fab59b0740f4312b2b027f07d096639000000000000000000000000e233420d38d286c2f2cf8dee6564f132fbdb09db000000000000000000000000c02aaa39b223fe8d0a0e5c4f27ead9083c756cc2000000000000000000000000000000000000000000000000006379da05b60000",
          "blockHash": "0x7d14f9c772cbfe1887cecb75f1e14838ac11adae3b7117feef004d1a387b43eb",
          "blockNumber": "0x17b834c",
          "blockTimestamp": "0x69ecf468",
          "transactionHash": "0x654c0584013e35110070ef8aba758af29c54064ee32e13042dfd2961d38f4aaf",
          "transactionIndex": "0x0",
          "logIndex": "0x3",
          "removed": false
        }
      ],
      "logsBloom": "0x00000000000000000000010000000000000000000100000000000000000000000000000000000000000000000000800042000000880000000000000000100000040000000000000000010008000000000000000000000001080000000000000000000001000000000001000000000000000040000000000000000010200000000800000000040000000004000000000000000000000000000000000000000000000000200000000400000000000000000000000000000080000000000000000000000012000004000000000000000000000000000002000080000040000000000100200000000000000020000000000000000000000000000000000000000000",
      "type": "0x2",
      "transactionHash": "0x654c0584013e35110070ef8aba758af29c54064ee32e13042dfd2961d38f4aaf",
      "transactionIndex": "0x0",
      "blockHash": "0x7d14f9c772cbfe1887cecb75f1e14838ac11adae3b7117feef004d1a387b43eb",
      "blockNumber": "0x17b834c",
      "gasUsed": "0x201e2",
      "effectiveGasPrice": "0x1ba81c",
      "blobGasPrice": "0x1",
      "from": "0xe3745c151fab59b0740f4312b2b027f07d096639",
      "to": "0x8fa71914948544c60e3379064567dcf0e6564d27",
      "contractAddress": null
    }
  ],
  "libraries": [],
  "pending": [],
  "returns": {},
  "timestamp": 1778506453470,
  "chain": 31337,
  "commit": "59e30a9"
}