{
  "transactions": [
    {
      "hash": "0x2cf28f8e1c351eef6fb2571ea9ef91b7740ac2e154f65aef461a450c64e8ad52",
      "transactionType": "CALL",
      "contractName": null,
      "contractAddress": "0x8fa71914948544c60e3379064567dcf0e6564d27",
      "function": "settle((uint256,address),(uint8,bool,address,uint256,address,uint256,address,uint64,uint64,uint256),(uint8,bytes32,bytes32))",
      "arguments": [
        "(0, 0xc5aDfC119364CFE2297e4414dB04834d8702475B)",
        "(0, false, 0xA5f104F8f78d5ba9AEC4a383c0927337Fd4E997B, 108, 0xC02aaA39b223FE8D0A0e5C4F27eAD9083C756Cc2, 41000000000000000, 0x2c2dbA75492E0C4A1D10B41303167aEC59586C9c, 1773596444, 1778577842, 11)",
        "(27, 0x7ce112dc1bce9aef3cfe9eb8aa954bc11b5a93e9b2c7f998e2e7a00b107a9f98, 0x6aed1ec3b31156280a3ed08afd84fea3c220e8d550a18ac8275944a8a9e9c9a4)"
      ],
      "transaction": {
        "from": "0xc5adfc119364cfe2297e4414db04834d8702475b",
        "to": "0x8fa71914948544c60e3379064567dcf0e6564d27",
        "gas": "0x2c4bb",
        "value": "0x0",
        "input": "0x3bae3e790000000000000000000000000000000000000000000000000000000000000000000000000000000000000000c5adfc119364cfe2297e4414db04834d8702475b00000000000000000000000000000000000000000000000000000000000000000000000000000000000000000000000000000000000000000000000000000000000000000000000000000000a5f104f8f78d5ba9aec4a383c0927337fd4e997b000000000000000000000000000000000000000000000000000000000000006c000000000000000000000000c02aaa39b223fe8d0a0e5c4f27ead9083c756cc20000000000000000000000000000000000000000000000000091a94863ca80000000000000000000000000002c2dba75492e0c4a1d10b41303167aec59586c9c0000000000000000000000000000000000000000000000000000000069b6ef1c000000000000000000000000000000000000000000000000000000006a02f1b2000000000000000000000000000000000000000000000000000000000000000b000000000000000000000000000000000000000000000000000000000000001b7ce112dc1bce9aef3cfe9eb8aa954bc11b5a93e9b2c7f998e2e7a00b107a9f986aed1ec3b31156280a3ed08afd84fea3c220e8d550a18ac8275944a8a9e9c9a4",
        "nonce": "0x40",
        "chainId": "0x7a69"
      },
      "additionalContracts": [],
      "isFixedGasLimit": false
    }
  ],
  "receipts": [
    {
      "status": "0x1",
      "cumulativeGasUsed": "0x2011d",
      "logs": [
        {
          "address": "0xc02aaa39b223fe8d0a0e5c4f27ead9083c756cc2",
          "topics": [
            "0xddf252ad1be2c89b69c2b068fc378daa952ba7f163c4a11628f55a4df523b3ef",
            "0x000000000000000000000000c5adfc119364cfe2297e4414db04834d8702475b",
            "0x0000000000000000000000001804c8ab1f12e6bbf3894d4083f33e07309d1f38"
          ],
          "data": "0x000000000000000000000000000000000000000000000000000174e4905ba000",
          "blockHash": "0xbe8d0e635d9b16f6f8eb39ed1e26ac9c81ea72c1a8a717fe3f3ae3153f9dbf46",
          "blockNumber": "0x17b8382",
          "blockTimestamp": "0x69f8de94",
          "transactionHash": "0x2cf28f8e1c351eef6fb2571ea9ef91b7740ac2e154f65aef461a450c64e8ad52",
          "transactionIndex": "0x0",
          "logIndex": "0x0",
          "removed": false
        },
        {
          "address": "0xc02aaa39b223fe8d0a0e5c4f27ead9083c756cc2",
          "topics": [
            "0xddf252ad1be2c89b69c2b068fc378daa952ba7f163c4a11628f55a4df523b3ef",
            "0x000000000000000000000000c5adfc119364cfe2297e4414db04834d8702475b",
            "0x0000000000000000000000002c2dba75492e0c4a1d10b41303167aec59586c9c"
          ],
          "data": "0x00000000000000000000000000000000000000000000000000903463d36ee000",
          "blockHash": "0xbe8d0e635d9b16f6f8eb39ed1e26ac9c81ea72c1a8a717fe3f3ae3153f9dbf46",
          "blockNumber": "0x17b8382",
          "blockTimestamp": "0x69f8de94",
          "transactionHash": "0x2cf28f8e1c351eef6fb2571ea9ef91b7740ac2e154f65aef461a450c64e8ad52",
          "transactionIndex": "0x0",
          "logIndex": "0x1",
          "removed": false
        },
        {
          "address": "0xa5f104f8f78d5ba9aec4a383c0927337fd4e997b",
          "topics": [
            "0xddf252ad1be2c89b69c2b068fc378daa952ba7f163c4a11628f55a4df523b3ef",
            "0x0000000000000000000000002c2dba75492e0c4a1d10b41303167aec59586c9c",
            "0x000000000000000000000000c5adfc119364cfe2297e4414db04834d8702475b",
            "0x000000000000000000000000000000000000000000000000000000000000006c"
          ],
          "data": "0x",
          "blockHash": "0xbe8d0e635d9b16f6f8eb39ed1e26ac9c81ea72c1a8a717fe3f3ae3153f9dbf46",
          "blockNumber": "0x17b8382",
          "blockTimestamp": "0x69f8de94",
          "transactionHash": "0x2cf28f8e1c351eef6fb2571ea9ef91b7740ac2e154f65aef461a450c64e8ad52",
          "transactionIndex": "0x0",
          "logIndex": "0x2",
          "removed": false
        },
        {
          "address": "0x8fa71914948544c60e3379064567dcf0e6564d27",
          "topics": [
            "0xc0ac3eb1e8caef05b202043f34de8e3173fab712167584f7a2a9f4c302bd0e9c",
            "0x287bf1174a0207c2f98ff86ecd836ccdde61fcfb1535bde58844b1c7b8c482be",
            "0x000000000000000000000000a5f104f8f78d5ba9aec4a383c0927337fd4e997b",
            "0x000000000000000000000000000000000000000000000000000000000000006c"
          ],
          "data": "0x0000000000000000000000002c2dba75492e0c4a1d10b41303167aec59586c9c000000000000000000000000c5adfc119364cfe2297e4414db04834d8702475b000000000000000000000000c02aaa39b223fe8d0a0e5c4f27ead9083c756cc20000000000000000000000000000000000000000000000000091a94863ca8000",
          "blockHash": "0xbe8d0e635d9b16f6f8eb39ed1e26ac9c81ea72c1a8a717fe3f3ae3153f9dbf46",
          "blockNumber": "0x17b8382",
          "blockTimestamp": "0x69f8de94",
          "transactionHash": "0x2cf28f8e1c351eef6fb2571ea9ef91b7740ac2e154f65aef461a450c64e8ad52",
          "transactionIndex": "0x0",
          "logIndex": "0x3",
          "removed": false
        }
      ],
      "logsBloom": "0x00000000000000000000010000000000000000000000000000000000000000000000000000000000000000000000000002000000080000000000000800100000000200000000000000010008000000000000000000000000080000000000000200000080000004000001000000800000000000000000000000000010200000000800000000040000000004000000000000000000000004000000000000000000000000200000000400000000000020000000080000000080000000000000000000000002000004000000080000000000000000000000000080000000000000000100200000000000000000000000000000000000800000002000000000000000",
      "type": "0x2",
      "transactionHash": "0x2cf28f8e1c351eef6fb2571ea9ef91b7740ac2e154f65aef461a450c64e8ad52",
      "transactionIndex": "0x0",
      "blockHash": "0xbe8d0e635d9b16f6f8eb39ed1e26ac9c81ea72c1a8a717fe3f3ae3153f9dbf46",
      "blockNumber": "0x17b8382",
      "gasUsed": "0x2011d",
      "effectiveGasPrice": "0x1ba81c",
      "blobGasPrice": "0x1",
      "from": "0xc5adfc119364cfe2297e4414db04834d8702475b",
      "to": "0x8fa71914948544c60e3379064567dcf0e6564d27",
      "contractAddress": null
    }
  ],
  "libraries": [],
  "pending": [],
  "returns": {},
  "timestamp": 1778506516852,
  "chain": 31337,
  "commit": "59e30a9"
}