{
  "transactions": [
    {
      "hash": "0xa342433cc43b9be513ffdc59e3ef76950a15fab38f21ea242c1cda4cc372dfb8",
      "transactionType": "CALL",
      "contractName": null,
      "contractAddress": "0x73973d222c3fda5b2563d269da9e19cb125000f4",
      "function": "settle((uint256,address),(uint8,bool,address,uint256,address,uint256,address,uint64,uint64,uint256),(uint8,bytes32,bytes32))",
      "arguments": [
        "(211, 0x2c2dbA75492E0C4A1D10B41303167aEC59586C9c)",
        "(1, false, 0x38D4dE42C9c5640A2799B372D27B01957E0a3673, 211, 0xC02aaA39b223FE8D0A0e5C4F27eAD9083C756Cc2, 11000000000000000, 0x1302F142Fc55B165647d3Bd5dec227f569A2A907, 1772669653, 1779395985, 7)",
        "(28, 0xeb73675f01b7faf667e8a9f863cd01271fcb2022302b556a189b389e5367aac0, 0x2407eb93af6c50fdc5777ef5e3f37280cc605779f8f562c85f1e36c69e5867f2)"
      ],
      "transaction": {
        "from": "0x2c2dba75492e0c4a1d10b41303167aec59586c9c",
        "to": "0x73973d222c3fda5b2563d269da9e19cb125000f4",
        "gas": "0x2c5dc",
        "value": "0x0",
        "input": "0x3bae3e7900000000000000000000000000000000000000000000000000000000000000d30000000000000000000000002c2dba75492e0c4a1d10b41303167aec59586c9c0000000000000000000000000000000000000000000000000000000000000001000000000000000000000000000000000000000000000000000000000000000000000000000000000000000038d4de42c9c5640a2799b372d27b01957e0a367300000000000000000000000000000000000000000000000000000000000000d3000000000000000000000000c02aaa39b223fe8d0a0e5c4f27ead9083c756cc200000000000000000000000000000000000000000000000000271471148780000000000000000000000000001302f142fc55b165647d3bd5dec227f569a2a9070000000000000000000000000000000000000000000000000000000069a8cad5000000000000000000000000000000000000000000000000000000006a0f6d910000000000000000000000000000000000000000000000000000000000000007000000000000000000000000000000000000000000000000000000000000001ceb73675f01b7faf667e8a9f863cd01271fcb2022302b556a189b389e5367aac02407eb93af6c50fdc5777ef5e3f37280cc605779f8f562c85f1e36c69e5867f2",
        "nonce": "0x64",
        "chainId": "0x7a69"
      },
      "additionalContracts": [],
      "isFixedGasLimit": false
    }
  ],
  "receipts": [
    {
      "status": "0x1",
      "cumulativeGasUsed": "0x201ee",
      "logs": [
        {
          "address": "0xc02aaa39b223fe8d0a0e5c4f27ead9083c756cc2",
          "topics": [
            "0xddf252ad1be2c89b69c2b068fc378daa952ba7f163c4a11628f55a4df523b3ef",
            "0x0000000000000000000000001302f142fc55b165647d3bd5dec227f569a2a907",
            "0x0000000000000000000000001804c8ab1f12e6bbf3894d4083f33e07309d1f38"
          ],
          "data": "0x0000000000000000000000000000000000000000000000000000640b5eece000",
          "blockHash": "0xf0b65a34a10001322edb127958ef01e4c7d663fa171ed933fdd158e2f8574180",
          "blockNumber": "0x17b739b",
          "blockTimestamp": "0x69dfe6f5",
          "transactionHash": "0xa342433cc43b9be513ffdc59e3ef76950a15fab38f21ea242c1cda4cc372dfb8",
          "transactionIndex": "0x0",
          "logIndex": "0x0",
          "removed": false
        },
        {
          "address": "0xc02aaa39b223fe8d0a0e5c4f27ead9083c756cc2",
          "topics": [
            "0xddf252ad1be2c89b69c2b068fc378daa952ba7f163c4a11628f55a4df523b3ef",
            "0x0000000000000000000000001302f142fc55b165647d3bd5dec227f569a2a907",
            "0x0000000000000000000000002c2dba75492e0c4a1d10b41303167aec59586c9c"
          ],
          "data": "0x0000000000000000000000000000000000000000000000000026b065b59aa000",
          "blockHash": "0xf0b65a34a10001322edb127958ef01e4c7d663fa171ed933fdd158e2f8574180",
          "blockNumber": "0x17b739b",
          "blockTimestamp": "0x69dfe6f5",
          "transactionHash": "0xa342433cc43b9be513ffdc59e3ef76950a15fab38f21ea242c1cda4cc372dfb8",
          "transactionIndex": "0x0",
          "logIndex": "0x1",
          "removed": false
        },
        {
          "address": "0x38d4de42c9c5640a2799b372d27b01957e0a3673",
          "topics": [
            "0xddf252ad1be2c89b69c2b068fc378daa952ba7f163c4a11628f55a4df523b3ef",
            "0x0000000000000000000000002c2dba75492e0c4a1d10b41303167aec59586c9c",
            "0x0000000000000000000000001302f142fc55b165647d3bd5dec227f569a2a907",
            "0x00000000000000000000000000000000000000000000000000000000000000d3"
          ],
          "data": "0x",
          "blockHash": "0xf0b65a34a10001322edb127958ef01e4c7d663fa171ed933fdd158e2f8574180",
          "blockNumber": "0x17b739b",
          "blockTimestamp": "0x69dfe6f5",
          "transactionHash": "0xa342433cc43b9be513ffdc59e3ef76950a15fab38f21ea242c1cda4cc372dfb8",
          "transactionIndex": "0x0",
          "logIndex": "0x2",
          "removed": false
        },
        {
          "address": "0x73973d222c3fda5b2563d269da9e19cb125000f4",
          "topics": [
            "0xc0ac3eb1e8caef05b202043f34de8e3173fab712167584f7a2a9f4c302bd0e9c",
            "0xffa0492a0a3ca15b9546900a3e88e23f1e08e834482afcee12ec7421cadc6128",
            "0x00000000000000000000000038d4de42c9c5640a2799b372d27b01957e0a3673",
            "0x00000000000000000000000000000000000000000000000000000000000000d3"
          ],
          "data": "0x0000000000000000000000002c2dba75492e0c4a1d10b41303167aec59586c9c0000000000000000000000001302f142fc55b165647d3bd5dec227f569a2a907000000000000000000000000c02aaa39b223fe8d0a0e5c4f27ead9083c756cc20000000000000000000000000000000000000000000000000027147114878000",
          "blockHash": "0xf0b65a34a10001322edb127958ef01e4c7d663fa171ed933fdd158e2f8574180",
          "blockNumber": "0x17b739b",
          "blockTimestamp": "0x69dfe6f5",
          "transactionHash": "0xa342433cc43b9be513ffdc59e3ef76950a15fab38f21ea242c1cda4cc372dfb8",
          "transactionIndex": "0x0",
          "logIndex": "0x3",
          "removed": false
        }
      ],
      "logsBloom": "0x0000000000000000000400100000000000000000000200000000000000000000000000000000000002000000000002000200000008000000000410080010000000020000000000102100000a000000000000000000000000000000000000000000000000000004000001000000000000000000000000000000000010000000000000000000000000000004000000000000000000000008000000000000000000000000000000000000000000000100000000000000000080400000000000000000000002000004000000000200000000000004001000000000000000000000000100200000000000000040000000000000000000000000000000000000000000",
      "type": "0x2",
      "transactionHash": "0xa342433cc43b9be513ffdc59e3ef76950a15fab38f21ea242c1cda4cc372dfb8",
      "transactionIndex": "0x0",
      "blockHash": "0xf0b65a34a10001322edb127958ef01e4c7d663fa171ed933fdd158e2f8574180",
      "blockNumber": "0x17b739b",
      "gasUsed": "0x201ee",
      "effectiveGasPrice": "0xf4248",
      "blobGasPrice": "0x1",
      "from": "0x2c2dba75492e0c4a1d10b41303167aec59586c9c",
      "to": "0x73973d222c3fda5b2563d269da9e19cb125000f4",
      "contractAddress": null
    }
  ],
  "libraries": [],
  "pending": [],
  "returns": {},
  "timestamp": 1778453701126,
  "chain": 31337,
  "commit": "f87d399"
}