{
  "transactions": [
    {
      "hash": "0x479b946cb9df0869423c95ad225d84621cff79856c9f44f0a89b45e2da48a3b9",
      "transactionType": "CALL",
      "contractName": null,
      "contractAddress": "0x73973d222c3fda5b2563d269da9e19cb125000f4",
      "function": "settle((uint256,address),(uint8,bool,address,uint256,address,uint256,address,uint64,uint64,uint256),(uint8,bytes32,bytes32))",
      "arguments": [
        "(0, 0xE233420d38D286C2F2Cf8dEe6564F132FBDB09DB)",
        "(0, false, 0x38D4dE42C9c5640A2799B372D27B01957E0a3673, 398, 0xC02aaA39b223FE8D0A0e5C4F27eAD9083C756Cc2, 28000000000000000, 0xa382b0E75C192D9CDF5c084E58b750Cea7761Bd0, 1772842458, 1779223180, 2)",
        "(28, 0xc58e58ef3a50c37ee77cb87e41a18bea7a5606ea37a3453dadd6ff361cd650cb, 0x718c528b78d8e6ae53b1c19aa7d394398f0cdf345c34b31dda3dab7b6f84159b)"
      ],
      "transaction": {
        "from": "0xe233420d38d286c2f2cf8dee6564f132fbdb09db",
        "to": "0x73973d222c3fda5b2563d269da9e19cb125000f4",
        "gas": "0x2ee8a",
        "value": "0x0",
        "input": "0x3bae3e790000000000000000000000000000000000000000000000000000000000000000000000000000000000000000e233420d38d286c2f2cf8dee6564f132fbdb09db0000000000000000000000000000000000000000000000000000000000000000000000000000000000000000000000000000000000000000000000000000000000000000000000000000000038d4de42c9c5640a2799b372d27b01957e0a3673000000000000000000000000000000000000000000000000000000000000018e000000000000000000000000c02aaa39b223fe8d0a0e5c4f27ead9083c756cc2000000000000000000000000000000000000000000000000006379da05b60000000000000000000000000000a382b0e75c192d9cdf5c084e58b750cea7761bd00000000000000000000000000000000000000000000000000000000069ab6dda000000000000000000000000000000000000000000000000000000006a0cca8c0000000000000000000000000000000000000000000000000000000000000002000000000000000000000000000000000000000000000000000000000000001cc58e58ef3a50c37ee77cb87e41a18bea7a5606ea37a3453dadd6ff361cd650cb718c528b78d8e6ae53b1c19aa7d394398f0cdf345c34b31dda3dab7b6f84159b",
        "nonce": "0x6d",
        "chainId": "0x7a69"
      },
      "additionalContracts": [],
      "isFixedGasLimit": false
    }
  ],
  "receipts": [
    {
      "status": "0x1",
      "cumulativeGasUsed": "0x20131",
      "logs": [
        {
          "address": "0xc02aaa39b223fe8d0a0e5c4f27ead9083c756cc2",
          "topics": [
            "0xddf252ad1be2c89b69c2b068fc378daa952ba7f163c4a11628f55a4df523b3ef",
            "0x000000000000000000000000e233420d38d286c2f2cf8dee6564f132fbdb09db",
            "0x0000000000000000000000001804c8ab1f12e6bbf3894d4083f33e07309d1f38"
          ],
          "data": "0x0000000000000000000000000000000000000000000000000000fea894898000",
          "blockHash": "0xddc4e79a5b268448720f939bf3867ff7efd240ab8c46f90d52f083a55379cb89",
          "blockNumber": "0x17b7397",
          "blockTimestamp": "0x69df2617",
          "transactionHash": "0x479b946cb9df0869423c95ad225d84621cff79856c9f44f0a89b45e2da48a3b9",
          "transactionIndex": "0x0",
          "logIndex": "0x0",
          "removed": false
        },
        {
          "address": "0xc02aaa39b223fe8d0a0e5c4f27ead9083c756cc2",
          "topics": [
            "0xddf252ad1be2c89b69c2b068fc378daa952ba7f163c4a11628f55a4df523b3ef",
            "0x000000000000000000000000e233420d38d286c2f2cf8dee6564f132fbdb09db",
            "0x000000000000000000000000a382b0e75c192d9cdf5c084e58b750cea7761bd0"
          ],
          "data": "0x00000000000000000000000000000000000000000000000000627b31712c8000",
          "blockHash": "0xddc4e79a5b268448720f939bf3867ff7efd240ab8c46f90d52f083a55379cb89",
          "blockNumber": "0x17b7397",
          "blockTimestamp": "0x69df2617",
          "transactionHash": "0x479b946cb9df0869423c95ad225d84621cff79856c9f44f0a89b45e2da48a3b9",
          "transactionIndex": "0x0",
          "logIndex": "0x1",
          "removed": false
        },
        {
          "address": "0x38d4de42c9c5640a2799b372d27b01957e0a3673",
          "topics": [
            "0xddf252ad1be2c89b69c2b068fc378daa952ba7f163c4a11628f55a4df523b3ef",
            "0x000000000000000000000000a382b0e75c192d9cdf5c084e58b750cea7761bd0",
            "0x000000000000000000000000e233420d38d286c2f2cf8dee6564f132fbdb09db",
            "0x000000000000000000000000000000000000000000000000000000000000018e"
          ],
          "data": "0x",
          "blockHash": "0xddc4e79a5b268448720f939bf3867ff7efd240ab8c46f90d52f083a55379cb89",
          "blockNumber": "0x17b7397",
          "blockTimestamp": "0x69df2617",
          "transactionHash": "0x479b946cb9df0869423c95ad225d84621cff79856c9f44f0a89b45e2da48a3b9",
          "transactionIndex": "0x0",
          "logIndex": "0x2",
          "removed": false
        },
        {
          "address": "0x73973d222c3fda5b2563d269da9e19cb125000f4",
          "topics": [
            "0xc0ac3eb1e8caef05b202043f34de8e3173fab712167584f7a2a9f4c302bd0e9c",
            "0x62a822baeb5cc6a8440369e4d4c8a8c3e38eea1d18bab14b2459a5c762219a73",
            "0x00000000000000000000000038d4de42c9c5640a2799b372d27b01957e0a3673",
            "0x000000000000000000000000000000000000000000000000000000000000018e"
          ],
          "data": "0x000000000000000000000000a382b0e75c192d9cdf5c084e58b750cea7761bd0000000000000000000000000e233420d38d286c2f2cf8dee6564f132fbdb09db000000000000000000000000c02aaa39b223fe8d0a0e5c4f27ead9083c756cc2000000000000000000000000000000000000000000000000006379da05b60000",
          "blockHash": "0xddc4e79a5b268448720f939bf3867ff7efd240ab8c46f90d52f083a55379cb89",
          "blockNumber": "0x17b7397",
          "blockTimestamp": "0x69df2617",
          "transactionHash": "0x479b946cb9df0869423c95ad225d84621cff79856c9f44f0a89b45e2da48a3b9",
          "transactionIndex": "0x0",
          "logIndex": "0x3",
          "removed": false
        }
      ],
      "logsBloom": "0x00000000000000000000000000000000000000000002000000000000000000000000000000000000001000000000020002000000080000000004100000100000000000000000001021000008000000000000000000000000000000000000000000000001200000000001000000000000000000000000040800000010000000000000000000000000000004000000000000100000000008000000000000000000000000000000000000000000000000000000000000000090400000000000000000000012000004000000000000000000000000000002000000000000000000000100280000008000000000000000000000000000100000000000000000000000",
      "type": "0x2",
      "transactionHash": "0x479b946cb9df0869423c95ad225d84621cff79856c9f44f0a89b45e2da48a3b9",
      "transactionIndex": "0x0",
      "blockHash": "0xddc4e79a5b268448720f939bf3867ff7efd240ab8c46f90d52f083a55379cb89",
      "blockNumber": "0x17b7397",
      "gasUsed": "0x20131",
      "effectiveGasPrice": "0xf4248",
      "blobGasPrice": "0x1",
      "from": "0xe233420d38d286c2f2cf8dee6564f132fbdb09db",
      "to": "0x73973d222c3fda5b2563d269da9e19cb125000f4",
      "contractAddress": null
    }
  ],
  "libraries": [],
  "pending": [],
  "returns": {},
  "timestamp": 1778453697595,
  "chain": 31337,
  "commit": "f87d399"
}