{
  "transactions": [
    {
      "hash": "0x688b05489aa13d774392d1e565e3f4d56df3ccf2608ee752bd3d0b43fb83cfe5",
      "transactionType": "CALL",
      "contractName": null,
      "contractAddress": "0x8fa71914948544c60e3379064567dcf0e6564d27",
      "function": "settle((uint256,address),(uint8,bool,address,uint256,address,uint256,address,uint64,uint64,uint256),(uint8,bytes32,bytes32))",
      "arguments": [
        "(0, 0x08312E82df563A1639b81f49bb41247759700e30)",
        "(0, false, 0xA5f104F8f78d5ba9AEC4a383c0927337Fd4E997B, 310, 0xC02aaA39b223FE8D0A0e5C4F27eAD9083C756Cc2, 398000000000000000, 0xcbe5659df21Cbcfabe4da962F7a9081F26B3ed82, 1771878916, 1780295370, 14)",
        "(28, 0x9416e1ca0ab1b751840d3b7c8f24a08d912ace4a5dcff0c358680acb58cead4b, 0x205fcb5a7ab13340f2612826b88edaa6be9dd747563f81f2deeb01712b3f253b)"
      ],
      "transaction": {
        "from": "0x08312e82df563a1639b81f49bb41247759700e30",
        "to": "0x8fa71914948544c60e3379064567dcf0e6564d27",
        "gas": "0x2c4e8",
        "value": "0x0",
        "input": "0x3bae3e79000000000000000000000000000000000000000000000000000000000000000000000000000000000000000008312e82df563a1639b81f49bb41247759700e3000000000000000000000000000000000000000000000000000000000000000000000000000000000000000000000000000000000000000000000000000000000000000000000000000000000a5f104f8f78d5ba9aec4a383c0927337fd4e997b0000000000000000000000000000000000000000000000000000000000000136000000000000000000000000c02aaa39b223fe8d0a0e5c4f27ead9083c756cc20000000000000000000000000000000000000000000000000585fae42c9b0000000000000000000000000000cbe5659df21cbcfabe4da962f7a9081f26b3ed8200000000000000000000000000000000000000000000000000000000699cba04000000000000000000000000000000000000000000000000000000006a1d26ca000000000000000000000000000000000000000000000000000000000000000e000000000000000000000000000000000000000000000000000000000000001c9416e1ca0ab1b751840d3b7c8f24a08d912ace4a5dcff0c358680acb58cead4b205fcb5a7ab13340f2612826b88edaa6be9dd747563f81f2deeb01712b3f253b",
        "nonce": "0x3e",
        "chainId": "0x7a69"
      },
      "additionalContracts": [],
      "isFixedGasLimit": false
    }
  ],
  "receipts": [
    {
      "status": "0x1",
      "cumulativeGasUsed": "0x2013d",
      "logs": [
        {
          "address": "0xc02aaa39b223fe8d0a0e5c4f27ead9083c756cc2",
          "topics": [
            "0xddf252ad1be2c89b69c2b068fc378daa952ba7f163c4a11628f55a4df523b3ef",
            "0x00000000000000000000000008312e82df563a1639b81f49bb41247759700e30",
            "0x0000000000000000000000001804c8ab1f12e6bbf3894d4083f33e07309d1f38"
          ],
          "data": "0x000000000000000000000000000000000000000000000000000e23c9f634c000",
          "blockHash": "0x1a735ffdb705ef51ef6708ce4bf1a2f19366e846d9d70370b5cb822080dd0cda",
          "blockNumber": "0x17b8380",
          "blockTimestamp": "0x69f86ab2",
          "transactionHash": "0x688b05489aa13d774392d1e565e3f4d56df3ccf2608ee752bd3d0b43fb83cfe5",
          "transactionIndex": "0x0",
          "logIndex": "0x0",
          "removed": false
        },
        {
          "address": "0xc02aaa39b223fe8d0a0e5c4f27ead9083c756cc2",
          "topics": [
            "0xddf252ad1be2c89b69c2b068fc378daa952ba7f163c4a11628f55a4df523b3ef",
            "0x00000000000000000000000008312e82df563a1639b81f49bb41247759700e30",
            "0x000000000000000000000000cbe5659df21cbcfabe4da962f7a9081f26b3ed82"
          ],
          "data": "0x0000000000000000000000000000000000000000000000000577d71a36664000",
          "blockHash": "0x1a735ffdb705ef51ef6708ce4bf1a2f19366e846d9d70370b5cb822080dd0cda",
          "blockNumber": "0x17b8380",
          "blockTimestamp": "0x69f86ab2",
          "transactionHash": "0x688b05489aa13d774392d1e565e3f4d56df3ccf2608ee752bd3d0b43fb83cfe5",
          "transactionIndex": "0x0",
          "logIndex": "0x1",
          "removed": false
        },
        {
          "address": "0xa5f104f8f78d5ba9aec4a383c0927337fd4e997b",
          "topics": [
            "0xddf252ad1be2c89b69c2b068fc378daa952ba7f163c4a11628f55a4df523b3ef",
            "0x000000000000000000000000cbe5659df21cbcfabe4da962f7a9081f26b3ed82",
            "0x00000000000000000000000008312e82df563a1639b81f49bb41247759700e30",
            "0x0000000000000000000000000000000000000000000000000000000000000136"
          ],
          "data": "0x",
          "blockHash": "0x1a735ffdb705ef51ef6708ce4bf1a2f19366e846d9d70370b5cb822080dd0cda",
          "blockNumber": "0x17b8380",
          "blockTimestamp": "0x69f86ab2",
          "transactionHash": "0x688b05489aa13d774392d1e565e3f4d56df3ccf2608ee752bd3d0b43fb83cfe5",
          "transactionIndex": "0x0",
          "logIndex": "0x2",
          "removed": false
        },
        {
          "address": "0x8fa71914948544c60e3379064567dcf0e6564d27",
          "topics": [
            "0xc0ac3eb1e8caef05b202043f34de8e3173fab712167584f7a2a9f4c302bd0e9c",
            "0x1deee321f16e116b01861442012788ceaf1e636684005604d0fab8379b005d7a",
            "0x000000000000000000000000a5f104f8f78d5ba9aec4a383c0927337fd4e997b",
            "0x0000000000000000000000000000000000000000000000000000000000000136"
          ],
          "data": "0x000000000000000000000000cbe5659df21cbcfabe4da962f7a9081f26b3ed8200000000000000000000000008312e82df563a1639b81f49bb41247759700e30000000000000000000000000c02aaa39b223fe8d0a0e5c4f27ead9083c756cc20000000000000000000000000000000000000000000000000585fae42c9b0000",
          "blockHash": "0x1a735ffdb705ef51ef6708ce4bf1a2f19366e846d9d70370b5cb822080dd0cda",
          "blockNumber": "0x17b8380",
          "blockTimestamp": "0x69f86ab2",
          "transactionHash": "0x688b05489aa13d774392d1e565e3f4d56df3ccf2608ee752bd3d0b43fb83cfe5",
          "transactionIndex": "0x0",
          "logIndex": "0x3",
          "removed": false
        }
      ],
      "logsBloom": "0x00000000000000000000010001000000000100000000000000000000000000000000000000100000000000000000000002000000080000000000000000100000000000000000080000090008000000000000000000000000080000000008000000000000000000000001000000000000000000000000000000000010200000000800000000040000000004000000000000000000000000000000000000000000000000200000000400000000000000000000000000000080000000000000000000000002040004000400000000000000000008000000020080000000000000000100200000000000000000000000000000000000004000000000000000000000",
      "type": "0x2",
      "transactionHash": "0x688b05489aa13d774392d1e565e3f4d56df3ccf2608ee752bd3d0b43fb83cfe5",
      "transactionIndex": "0x0",
      "blockHash": "0x1a735ffdb705ef51ef6708ce4bf1a2f19366e846d9d70370b5cb822080dd0cda",
      "blockNumber": "0x17b8380",
      "gasUsed": "0x2013d",
      "effectiveGasPrice": "0x1ba81c",
      "blobGasPrice": "0x1",
      "from": "0x08312e82df563a1639b81f49bb41247759700e30",
      "to": "0x8fa71914948544c60e3379064567dcf0e6564d27",
      "contractAddress": null
    }
  ],
  "libraries": [],
  "pending": [],
  "returns": {},
  "timestamp": 1778506509537,
  "chain": 31337,
  "commit": "59e30a9"
}