{
  "transactions": [
    {
      "hash": "0x07fd508330805f996ea630e5d3ad539066cdad1135ef79e18495f116059f226e",
      "transactionType": "CALL",
      "contractName": null,
      "contractAddress": "0x73973d222c3fda5b2563d269da9e19cb125000f4",
      "function": "settle((uint256,address),(uint8,bool,address,uint256,address,uint256,address,uint64,uint64,uint256),(uint8,bytes32,bytes32))",
      "arguments": [
        "(0, 0xE233420d38D286C2F2Cf8dEe6564F132FBDB09DB)",
        "(0, false, 0x38D4dE42C9c5640A2799B372D27B01957E0a3673, 154, 0xC02aaA39b223FE8D0A0e5C4F27eAD9083C756Cc2, 64000000000000000, 0xa382b0E75C192D9CDF5c084E58b750Cea7761Bd0, 1773531125, 1778534513, 8)",
        "(27, 0x40a53ca791542cbe333dbc400972f2aee8c8face40e397038ba14b5e86e8352f, 0x307a148a1fd6c6f497e17cacb123a26cf8d2b7daecfd739c8df3d568d4ab5a5f)"
      ],
      "transaction": {
        "from": "0xe233420d38d286c2f2cf8dee6564f132fbdb09db",
        "to": "0x73973d222c3fda5b2563d269da9e19cb125000f4",
        "gas": "0x2ee5b",
        "value": "0x0",
        "input": "0x3bae3e790000000000000000000000000000000000000000000000000000000000000000000000000000000000000000e233420d38d286c2f2cf8dee6564f132fbdb09db0000000000000000000000000000000000000000000000000000000000000000000000000000000000000000000000000000000000000000000000000000000000000000000000000000000038d4de42c9c5640a2799b372d27b01957e0a3673000000000000000000000000000000000000000000000000000000000000009a000000000000000000000000c02aaa39b223fe8d0a0e5c4f27ead9083c756cc200000000000000000000000000000000000000000000000000e35fa931a00000000000000000000000000000a382b0e75c192d9cdf5c084e58b750cea7761bd00000000000000000000000000000000000000000000000000000000069b5eff5000000000000000000000000000000000000000000000000000000006a0248710000000000000000000000000000000000000000000000000000000000000008000000000000000000000000000000000000000000000000000000000000001b40a53ca791542cbe333dbc400972f2aee8c8face40e397038ba14b5e86e8352f307a148a1fd6c6f497e17cacb123a26cf8d2b7daecfd739c8df3d568d4ab5a5f",
        "nonce": "0x6f",
        "chainId": "0x7a69"
      },
      "additionalContracts": [],
      "isFixedGasLimit": false
    }
  ],
  "receipts": [
    {
      "status": "0x1",
      "cumulativeGasUsed": "0x20111",
      "logs": [
        {
          "address": "0xc02aaa39b223fe8d0a0e5c4f27ead9083c756cc2",
          "topics": [
            "0xddf252ad1be2c89b69c2b068fc378daa952ba7f163c4a11628f55a4df523b3ef",
            "0x000000000000000000000000e233420d38d286c2f2cf8dee6564f132fbdb09db",
            "0x0000000000000000000000001804c8ab1f12e6bbf3894d4083f33e07309d1f38"
          ],
          "data": "0x000000000000000000000000000000000000000000000000000246139ca80000",
          "blockHash": "0x252b437b1992076143451aac8239e4a9fa17cf6ad39322363656d8e4058c5fb9",
          "blockNumber": "0x17b73bb",
          "blockTimestamp": "0x69e5e08d",
          "transactionHash": "0x07fd508330805f996ea630e5d3ad539066cdad1135ef79e18495f116059f226e",
          "transactionIndex": "0x0",
          "logIndex": "0x0",
          "removed": false
        },
        {
          "address": "0xc02aaa39b223fe8d0a0e5c4f27ead9083c756cc2",
          "topics": [
            "0xddf252ad1be2c89b69c2b068fc378daa952ba7f163c4a11628f55a4df523b3ef",
            "0x000000000000000000000000e233420d38d286c2f2cf8dee6564f132fbdb09db",
            "0x000000000000000000000000a382b0e75c192d9cdf5c084e58b750cea7761bd0"
          ],
          "data": "0x00000000000000000000000000000000000000000000000000e1199594f80000",
          "blockHash": "0x252b437b1992076143451aac8239e4a9fa17cf6ad39322363656d8e4058c5fb9",
          "blockNumber": "0x17b73bb",
          "blockTimestamp": "0x69e5e08d",
          "transactionHash": "0x07fd508330805f996ea630e5d3ad539066cdad1135ef79e18495f116059f226e",
          "transactionIndex": "0x0",
          "logIndex": "0x1",
          "removed": false
        },
        {
          "address": "0x38d4de42c9c5640a2799b372d27b01957e0a3673",
          "topics": [
            "0xddf252ad1be2c89b69c2b068fc378daa952ba7f163c4a11628f55a4df523b3ef",
            "0x000000000000000000000000a382b0e75c192d9cdf5c084e58b750cea7761bd0",
            "0x000000000000000000000000e233420d38d286c2f2cf8dee6564f132fbdb09db",
            "0x000000000000000000000000000000000000000000000000000000000000009a"
          ],
          "data": "0x",
          "blockHash": "0x252b437b1992076143451aac8239e4a9fa17cf6ad39322363656d8e4058c5fb9",
          "blockNumber": "0x17b73bb",
          "blockTimestamp": "0x69e5e08d",
          "transactionHash": "0x07fd508330805f996ea630e5d3ad539066cdad1135ef79e18495f116059f226e",
          "transactionIndex": "0x0",
          "logIndex": "0x2",
          "removed": false
        },
        {
          "address": "0x73973d222c3fda5b2563d269da9e19cb125000f4",
          "topics": [
            "0xc0ac3eb1e8caef05b202043f34de8e3173fab712167584f7a2a9f4c302bd0e9c",
            "0x8411f097041316b6a10ad9b2ca0f0d0332de4ce0b82152444b592925e6d1a885",
            "0x00000000000000000000000038d4de42c9c5640a2799b372d27b01957e0a3673",
            "0x000000000000000000000000000000000000000000000000000000000000009a"
          ],
          "data": "0x000000000000000000000000a382b0e75c192d9cdf5c084e58b750cea7761bd0000000000000000000000000e233420d38d286c2f2cf8dee6564f132fbdb09db000000000000000000000000c02aaa39b223fe8d0a0e5c4f27ead9083c756cc200000000000000000000000000000000000000000000000000e35fa931a00000",
          "blockHash": "0x252b437b1992076143451aac8239e4a9fa17cf6ad39322363656d8e4058c5fb9",
          "blockNumber": "0x17b73bb",
          "blockTimestamp": "0x69e5e08d",
          "transactionHash": "0x07fd508330805f996ea630e5d3ad539066cdad1135ef79e18495f116059f226e",
          "transactionIndex": "0x0",
          "logIndex": "0x3",
          "removed": false
        }
      ],
      "logsBloom": "0x00000000000000000000000000000000000000000002000000000000000000000000000000000000000000000000020002000000080000000004100000100000000000000000001021000008000008000000000000000000000000000000000000000001040000000001000000000000000000000000040000000010000000000000000000000000000004000020000000100000000008000000000000000000000200000000000000000000000000008000000000000080400000000000000000000012000004000000000000000000000000000002000004000000000000000100200000000000000000000000000000000000100000000000000000000000",
      "type": "0x2",
      "transactionHash": "0x07fd508330805f996ea630e5d3ad539066cdad1135ef79e18495f116059f226e",
      "transactionIndex": "0x0",
      "blockHash": "0x252b437b1992076143451aac8239e4a9fa17cf6ad39322363656d8e4058c5fb9",
      "blockNumber": "0x17b73bb",
      "gasUsed": "0x20111",
      "effectiveGasPrice": "0xf4248",
      "blobGasPrice": "0x1",
      "from": "0xe233420d38d286c2f2cf8dee6564f132fbdb09db",
      "to": "0x73973d222c3fda5b2563d269da9e19cb125000f4",
      "contractAddress": null
    }
  ],
  "libraries": [],
  "pending": [],
  "returns": {},
  "timestamp": 1778453764631,
  "chain": 31337,
  "commit": "f87d399"
}