{
  "transactions": [
    {
      "hash": "0xe45f1c5a6378a65f91d12c74e5a54c2b1be3b2b5f04ee0e5e1f24cc92448b045",
      "transactionType": "CALL",
      "contractName": null,
      "contractAddress": "0x8fa71914948544c60e3379064567dcf0e6564d27",
      "function": "settle((uint256,address),(uint8,bool,address,uint256,address,uint256,address,uint64,uint64,uint256),(uint8,bytes32,bytes32))",
      "arguments": [
        "(0, 0xe3745C151faB59B0740f4312b2B027F07D096639)",
        "(0, false, 0xA5f104F8f78d5ba9AEC4a383c0927337Fd4E997B, 365, 0xC02aaA39b223FE8D0A0e5C4F27eAD9083C756Cc2, 162000000000000000, 0x4b75AeC40561C03e03d4D1C421dF194a3031A134, 1772204348, 1779969938, 10)",
        "(27, 0x8fe0327cc837d6a954b4110588930134ca62656747a4ba8dbd53f66cc1672d52, 0x369d68eae951ea9b0f8bc8b578b9c1dc12b97c8f9037fcc3950b3db3624a6774)"
      ],
      "transaction": {
        "from": "0xe3745c151fab59b0740f4312b2b027f07d096639",
        "to": "0x8fa71914948544c60e3379064567dcf0e6564d27",
        "gas": "0x2ee7f",
        "value": "0x0",
        "input": "0x3bae3e790000000000000000000000000000000000000000000000000000000000000000000000000000000000000000e3745c151fab59b0740f4312b2b027f07d09663900000000000000000000000000000000000000000000000000000000000000000000000000000000000000000000000000000000000000000000000000000000000000000000000000000000a5f104f8f78d5ba9aec4a383c0927337fd4e997b000000000000000000000000000000000000000000000000000000000000016d000000000000000000000000c02aaa39b223fe8d0a0e5c4f27ead9083c756cc2000000000000000000000000000000000000000000000000023f8a24459d00000000000000000000000000004b75aec40561c03e03d4d1c421df194a3031a1340000000000000000000000000000000000000000000000000000000069a1b13c000000000000000000000000000000000000000000000000000000006a182f92000000000000000000000000000000000000000000000000000000000000000a000000000000000000000000000000000000000000000000000000000000001b8fe0327cc837d6a954b4110588930134ca62656747a4ba8dbd53f66cc1672d52369d68eae951ea9b0f8bc8b578b9c1dc12b97c8f9037fcc3950b3db3624a6774",
        "nonce": "0x57",
        "chainId": "0x7a69"
      },
      "additionalContracts": [],
      "isFixedGasLimit": false
    }
  ],
  "receipts": [
    {
      "status": "0x1",
      "cumulativeGasUsed": "0x20129",
      "logs": [
        {
          "address": "0xc02aaa39b223fe8d0a0e5c4f27ead9083c756cc2",
          "topics": [
            "0xddf252ad1be2c89b69c2b068fc378daa952ba7f163c4a11628f55a4df523b3ef",
            "0x000000000000000000000000e3745c151fab59b0740f4312b2b027f07d096639",
            "0x0000000000000000000000001804c8ab1f12e6bbf3894d4083f33e07309d1f38"
          ],
          "data": "0x0000000000000000000000000000000000000000000000000005c161a4894000",
          "blockHash": "0x71d48173d87254a80c1441a97dcd80a6dd56350f05a32821a1b2a8bc2fc1711f",
          "blockNumber": "0x17b839f",
          "blockTimestamp": "0x69ffe995",
          "transactionHash": "0xe45f1c5a6378a65f91d12c74e5a54c2b1be3b2b5f04ee0e5e1f24cc92448b045",
          "transactionIndex": "0x0",
          "logIndex": "0x0",
          "removed": false
        },
        {
          "address": "0xc02aaa39b223fe8d0a0e5c4f27ead9083c756cc2",
          "topics": [
            "0xddf252ad1be2c89b69c2b068fc378daa952ba7f163c4a11628f55a4df523b3ef",
            "0x000000000000000000000000e3745c151fab59b0740f4312b2b027f07d096639",
            "0x0000000000000000000000004b75aec40561c03e03d4d1c421df194a3031a134"
          ],
          "data": "0x0000000000000000000000000000000000000000000000000239c8c2a113c000",
          "blockHash": "0x71d48173d87254a80c1441a97dcd80a6dd56350f05a32821a1b2a8bc2fc1711f",
          "blockNumber": "0x17b839f",
          "blockTimestamp": "0x69ffe995",
          "transactionHash": "0xe45f1c5a6378a65f91d12c74e5a54c2b1be3b2b5f04ee0e5e1f24cc92448b045",
          "transactionIndex": "0x0",
          "logIndex": "0x1",
          "removed": false
        },
        {
          "address": "0xa5f104f8f78d5ba9aec4a383c0927337fd4e997b",
          "topics": [
            "0xddf252ad1be2c89b69c2b068fc378daa952ba7f163c4a11628f55a4df523b3ef",
            "0x0000000000000000000000004b75aec40561c03e03d4d1c421df194a3031a134",
            "0x000000000000000000000000e3745c151fab59b0740f4312b2b027f07d096639",
            "0x000000000000000000000000000000000000000000000000000000000000016d"
          ],
          "data": "0x",
          "blockHash": "0x71d48173d87254a80c1441a97dcd80a6dd56350f05a32821a1b2a8bc2fc1711f",
          "blockNumber": "0x17b839f",
          "blockTimestamp": "0x69ffe995",
          "transactionHash": "0xe45f1c5a6378a65f91d12c74e5a54c2b1be3b2b5f04ee0e5e1f24cc92448b045",
          "transactionIndex": "0x0",
          "logIndex": "0x2",
          "removed": false
        },
        {
          "address": "0x8fa71914948544c60e3379064567dcf0e6564d27",
          "topics": [
            "0xc0ac3eb1e8caef05b202043f34de8e3173fab712167584f7a2a9f4c302bd0e9c",
            "0x5ff5813ffbe64895e21c7bf2ac3c99f7ff5bd6a35b151b07d86e18f072c7d797",
            "0x000000000000000000000000a5f104f8f78d5ba9aec4a383c0927337fd4e997b",
            "0x000000000000000000000000000000000000000000000000000000000000016d"
          ],
          "data": "0x0000000000000000000000004b75aec40561c03e03d4d1c421df194a3031a134000000000000000000000000e3745c151fab59b0740f4312b2b027f07d096639000000000000000000000000c02aaa39b223fe8d0a0e5c4f27ead9083c756cc2000000000000000000000000000000000000000000000000023f8a24459d0000",
          "blockHash": "0x71d48173d87254a80c1441a97dcd80a6dd56350f05a32821a1b2a8bc2fc1711f",
          "blockNumber": "0x17b839f",
          "blockTimestamp": "0x69ffe995",
          "transactionHash": "0xe45f1c5a6378a65f91d12c74e5a54c2b1be3b2b5f04ee0e5e1f24cc92448b045",
          "transactionIndex": "0x0",
          "logIndex": "0x3",
          "removed": false
        }
      ],
      "logsBloom": "0x00000000000000000000010000000000000000000100000000000000000000000000000000000000000000000000000042000000080000000000000040100000000000000000000000010008000000000000000000000000080000000000000000000000000000000001000000000000000000000000000000000010200000000800000000040000000004400000000000000000800800000000000000002000000000200000000400000000000400000040000000000080020000000000000000000002000004000000000000010000000000000000000080000040000000000100200000000000000000000000000000000000000000000000000000000000",
      "type": "0x2",
      "transactionHash": "0xe45f1c5a6378a65f91d12c74e5a54c2b1be3b2b5f04ee0e5e1f24cc92448b045",
      "transactionIndex": "0x0",
      "blockHash": "0x71d48173d87254a80c1441a97dcd80a6dd56350f05a32821a1b2a8bc2fc1711f",
      "blockNumber": "0x17b839f",
      "gasUsed": "0x20129",
      "effectiveGasPrice": "0x1ba81c",
      "blobGasPrice": "0x1",
      "from": "0xe3745c151fab59b0740f4312b2b027f07d096639",
      "to": "0x8fa71914948544c60e3379064567dcf0e6564d27",
      "contractAddress": null
    }
  ],
  "libraries": [],
  "pending": [],
  "returns": {},
  "timestamp": 1778506548850,
  "chain": 31337,
  "commit": "59e30a9"
}