{
  "transactions": [
    {
      "hash": "0x160b91d02ecdc7875627a87fbf714757de528d27c537b2988102cd925cbc5f2a",
      "transactionType": "CALL",
      "contractName": null,
      "contractAddress": "0x8fa71914948544c60e3379064567dcf0e6564d27",
      "function": "settle((uint256,address),(uint8,bool,address,uint256,address,uint256,address,uint64,uint64,uint256),(uint8,bytes32,bytes32))",
      "arguments": [
        "(0, 0xc5aDfC119364CFE2297e4414dB04834d8702475B)",
        "(0, false, 0xA5f104F8f78d5ba9AEC4a383c0927337Fd4E997B, 326, 0xC02aaA39b223FE8D0A0e5C4F27eAD9083C756Cc2, 7000000000000000, 0x2c2dbA75492E0C4A1D10B41303167aEC59586C9c, 1773590369, 1778472893, 2)",
        "(28, 0x6219801379786ef62ea707d85cea7ba7698234872efee3c5678e23e9c7c55f00, 0x7579a827f27702fe3fc85e5c9da0ebb886c85b5c9ab8fc3b73b237545cfa74cf)"
      ],
      "transaction": {
        "from": "0xc5adfc119364cfe2297e4414db04834d8702475b",
        "to": "0x8fa71914948544c60e3379064567dcf0e6564d27",
        "gas": "0x2ee8a",
        "value": "0x0",
        "input": "0x3bae3e790000000000000000000000000000000000000000000000000000000000000000000000000000000000000000c5adfc119364cfe2297e4414db04834d8702475b00000000000000000000000000000000000000000000000000000000000000000000000000000000000000000000000000000000000000000000000000000000000000000000000000000000a5f104f8f78d5ba9aec4a383c0927337fd4e997b0000000000000000000000000000000000000000000000000000000000000146000000000000000000000000c02aaa39b223fe8d0a0e5c4f27ead9083c756cc20000000000000000000000000000000000000000000000000018de76816d80000000000000000000000000002c2dba75492e0c4a1d10b41303167aec59586c9c0000000000000000000000000000000000000000000000000000000069b6d761000000000000000000000000000000000000000000000000000000006a0157bd0000000000000000000000000000000000000000000000000000000000000002000000000000000000000000000000000000000000000000000000000000001c6219801379786ef62ea707d85cea7ba7698234872efee3c5678e23e9c7c55f007579a827f27702fe3fc85e5c9da0ebb886c85b5c9ab8fc3b73b237545cfa74cf",
        "nonce": "0x34",
        "chainId": "0x7a69"
      },
      "additionalContracts": [],
      "isFixedGasLimit": false
    }
  ],
  "receipts": [
    {
      "status": "0x1",
      "cumulativeGasUsed": "0x20131",
      "logs": [
        {
          "address": "0xc02aaa39b223fe8d0a0e5c4f27ead9083c756cc2",
          "topics": [
            "0xddf252ad1be2c89b69c2b068fc378daa952ba7f163c4a11628f55a4df523b3ef",
            "0x000000000000000000000000c5adfc119364cfe2297e4414db04834d8702475b",
            "0x0000000000000000000000001804c8ab1f12e6bbf3894d4083f33e07309d1f38"
          ],
          "data": "0x00000000000000000000000000000000000000000000000000003faa25226000",
          "blockHash": "0xa136e574cb3c5a0ae5b310bfb2fc797a81a014934fbfc870da1113331329c409",
          "blockNumber": "0x17b7112",
          "blockTimestamp": "0x69dc6f41",
          "transactionHash": "0x160b91d02ecdc7875627a87fbf714757de528d27c537b2988102cd925cbc5f2a",
          "transactionIndex": "0x0",
          "logIndex": "0x0",
          "removed": false
        },
        {
          "address": "0xc02aaa39b223fe8d0a0e5c4f27ead9083c756cc2",
          "topics": [
            "0xddf252ad1be2c89b69c2b068fc378daa952ba7f163c4a11628f55a4df523b3ef",
            "0x000000000000000000000000c5adfc119364cfe2297e4414db04834d8702475b",
            "0x0000000000000000000000002c2dba75492e0c4a1d10b41303167aec59586c9c"
          ],
          "data": "0x00000000000000000000000000000000000000000000000000189ecc5c4b2000",
          "blockHash": "0xa136e574cb3c5a0ae5b310bfb2fc797a81a014934fbfc870da1113331329c409",
          "blockNumber": "0x17b7112",
          "blockTimestamp": "0x69dc6f41",
          "transactionHash": "0x160b91d02ecdc7875627a87fbf714757de528d27c537b2988102cd925cbc5f2a",
          "transactionIndex": "0x0",
          "logIndex": "0x1",
          "removed": false
        },
        {
          "address": "0xa5f104f8f78d5ba9aec4a383c0927337fd4e997b",
          "topics": [
            "0xddf252ad1be2c89b69c2b068fc378daa952ba7f163c4a11628f55a4df523b3ef",
            "0x0000000000000000000000002c2dba75492e0c4a1d10b41303167aec59586c9c",
            "0x000000000000000000000000c5adfc119364cfe2297e4414db04834d8702475b",
            "0x0000000000000000000000000000000000000000000000000000000000000146"
          ],
          "data": "0x",
          "blockHash": "0xa136e574cb3c5a0ae5b310bfb2fc797a81a014934fbfc870da1113331329c409",
          "blockNumber": "0x17b7112",
          "blockTimestamp": "0x69dc6f41",
          "transactionHash": "0x160b91d02ecdc7875627a87fbf714757de528d27c537b2988102cd925cbc5f2a",
          "transactionIndex": "0x0",
          "logIndex": "0x2",
          "removed": false
        },
        {
          "address": "0x8fa71914948544c60e3379064567dcf0e6564d27",
          "topics": [
            "0xc0ac3eb1e8caef05b202043f34de8e3173fab712167584f7a2a9f4c302bd0e9c",
            "0x388197a7e6d0d0f4c13d1a1087656db35aac1cb7e892c653b86e6c89a8f80aa1",
            "0x000000000000000000000000a5f104f8f78d5ba9aec4a383c0927337fd4e997b",
            "0x0000000000000000000000000000000000000000000000000000000000000146"
          ],
          "data": "0x0000000000000000000000002c2dba75492e0c4a1d10b41303167aec59586c9c000000000000000000000000c5adfc119364cfe2297e4414db04834d8702475b000000000000000000000000c02aaa39b223fe8d0a0e5c4f27ead9083c756cc20000000000000000000000000000000000000000000000000018de76816d8000",
          "blockHash": "0xa136e574cb3c5a0ae5b310bfb2fc797a81a014934fbfc870da1113331329c409",
          "blockNumber": "0x17b7112",
          "blockTimestamp": "0x69dc6f41",
          "transactionHash": "0x160b91d02ecdc7875627a87fbf714757de528d27c537b2988102cd925cbc5f2a",
          "transactionIndex": "0x0",
          "logIndex": "0x3",
          "removed": false
        }
      ],
      "logsBloom": "0x00000000000000000000010000000400000000000000000000000000000000000000000000000000000000000000000002000100080000000000000800100000000200000000000000010008000000000000000000000000080000000000000200000000000004000001000000000000000000000000000000000010200000000800000000040000000004000000000000000000000000008000000000000000000000200000000400000000000024000000000000000080000000000000000000000002000004000000000000000000000000000000000080000000000000000100200000000000000200000000000000000020000000002000000000000000",
      "type": "0x2",
      "transactionHash": "0x160b91d02ecdc7875627a87fbf714757de528d27c537b2988102cd925cbc5f2a",
      "transactionIndex": "0x0",
      "blockHash": "0xa136e574cb3c5a0ae5b310bfb2fc797a81a014934fbfc870da1113331329c409",
      "blockNumber": "0x17b7112",
      "gasUsed": "0x20131",
      "effectiveGasPrice": "0x154c2b",
      "blobGasPrice": "0x1",
      "from": "0xc5adfc119364cfe2297e4414db04834d8702475b",
      "to": "0x8fa71914948544c60e3379064567dcf0e6564d27",
      "contractAddress": null
    }
  ],
  "libraries": [],
  "pending": [],
  "returns": {},
  "timestamp": 1778450898456,
  "chain": 31337,
  "commit": "f87d399"
}