{
  "transactions": [
    {
      "hash": "0x502b60dd3b28d82d05395a008745dd5785c8161490b14be5f49c1c616e58a7c6",
      "transactionType": "CALL",
      "contractName": null,
      "contractAddress": "0x8fa71914948544c60e3379064567dcf0e6564d27",
      "function": "settle((uint256,address),(uint8,bool,address,uint256,address,uint256,address,uint64,uint64,uint256),(uint8,bytes32,bytes32))",
      "arguments": [
        "(0, 0x646dC5Fc4009C4C84a424B6aE0f494b374bAE1Ce)",
        "(0, false, 0xA5f104F8f78d5ba9AEC4a383c0927337Fd4E997B, 394, 0xC02aaA39b223FE8D0A0e5C4F27eAD9083C756Cc2, 13000000000000000, 0x08312E82df563A1639b81f49bb41247759700e30, 1773174307, 1778999979, 6)",
        "(27, 0x21e400167b749d2631461e5901ff14a1b271daa9d8958e33ad7b1a7b47f4eeb4, 0x2233447532c3dad09402c6107ba3b8ab232be467391978a0ca70f442fa8c98cd)"
      ],
      "transaction": {
        "from": "0x646dc5fc4009c4c84a424b6ae0f494b374bae1ce",
        "to": "0x8fa71914948544c60e3379064567dcf0e6564d27",
        "gas": "0x2c4bb",
        "value": "0x0",
        "input": "0x3bae3e790000000000000000000000000000000000000000000000000000000000000000000000000000000000000000646dc5fc4009c4c84a424b6ae0f494b374bae1ce00000000000000000000000000000000000000000000000000000000000000000000000000000000000000000000000000000000000000000000000000000000000000000000000000000000a5f104f8f78d5ba9aec4a383c0927337fd4e997b000000000000000000000000000000000000000000000000000000000000018a000000000000000000000000c02aaa39b223fe8d0a0e5c4f27ead9083c756cc2000000000000000000000000000000000000000000000000002e2f6e5e14800000000000000000000000000008312e82df563a1639b81f49bb41247759700e300000000000000000000000000000000000000000000000000000000069b07e23000000000000000000000000000000000000000000000000000000006a0962ab0000000000000000000000000000000000000000000000000000000000000006000000000000000000000000000000000000000000000000000000000000001b21e400167b749d2631461e5901ff14a1b271daa9d8958e33ad7b1a7b47f4eeb42233447532c3dad09402c6107ba3b8ab232be467391978a0ca70f442fa8c98cd",
        "nonce": "0x51",
        "chainId": "0x7a69"
      },
      "additionalContracts": [],
      "isFixedGasLimit": false
    }
  ],
  "receipts": [
    {
      "status": "0x1",
      "cumulativeGasUsed": "0x2011d",
      "logs": [
        {
          "address": "0xc02aaa39b223fe8d0a0e5c4f27ead9083c756cc2",
          "topics": [
            "0xddf252ad1be2c89b69c2b068fc378daa952ba7f163c4a11628f55a4df523b3ef",
            "0x000000000000000000000000646dc5fc4009c4c84a424b6ae0f494b374bae1ce",
            "0x0000000000000000000000001804c8ab1f12e6bbf3894d4083f33e07309d1f38"
          ],
          "data": "0x0000000000000000000000000000000000000000000000000000763bfbd22000",
          "blockHash": "0x5aa62bbe8f9afbeab2044ddad1d6b45414eb5cedc4e50de8d16181268e10c4e4",
          "blockNumber": "0x17b8341",
          "blockTimestamp": "0x69e9f808",
          "transactionHash": "0x502b60dd3b28d82d05395a008745dd5785c8161490b14be5f49c1c616e58a7c6",
          "transactionIndex": "0x0",
          "logIndex": "0x0",
          "removed": false
        },
        {
          "address": "0xc02aaa39b223fe8d0a0e5c4f27ead9083c756cc2",
          "topics": [
            "0xddf252ad1be2c89b69c2b068fc378daa952ba7f163c4a11628f55a4df523b3ef",
            "0x000000000000000000000000646dc5fc4009c4c84a424b6ae0f494b374bae1ce",
            "0x00000000000000000000000008312e82df563a1639b81f49bb41247759700e30"
          ],
          "data": "0x000000000000000000000000000000000000000000000000002db93262426000",
          "blockHash": "0x5aa62bbe8f9afbeab2044ddad1d6b45414eb5cedc4e50de8d16181268e10c4e4",
          "blockNumber": "0x17b8341",
          "blockTimestamp": "0x69e9f808",
          "transactionHash": "0x502b60dd3b28d82d05395a008745dd5785c8161490b14be5f49c1c616e58a7c6",
          "transactionIndex": "0x0",
          "logIndex": "0x1",
          "removed": false
        },
        {
          "address": "0xa5f104f8f78d5ba9aec4a383c0927337fd4e997b",
          "topics": [
            "0xddf252ad1be2c89b69c2b068fc378daa952ba7f163c4a11628f55a4df523b3ef",
            "0x00000000000000000000000008312e82df563a1639b81f49bb41247759700e30",
            "0x000000000000000000000000646dc5fc4009c4c84a424b6ae0f494b374bae1ce",
            "0x000000000000000000000000000000000000000000000000000000000000018a"
          ],
          "data": "0x",
          "blockHash": "0x5aa62bbe8f9afbeab2044ddad1d6b45414eb5cedc4e50de8d16181268e10c4e4",
          "blockNumber": "0x17b8341",
          "blockTimestamp": "0x69e9f808",
          "transactionHash": "0x502b60dd3b28d82d05395a008745dd5785c8161490b14be5f49c1c616e58a7c6",
          "transactionIndex": "0x0",
          "logIndex": "0x2",
          "removed": false
        },
        {
          "address": "0x8fa71914948544c60e3379064567dcf0e6564d27",
          "topics": [
            "0xc0ac3eb1e8caef05b202043f34de8e3173fab712167584f7a2a9f4c302bd0e9c",
            "0xf78fe06004c1760c736d144fb86b4cf2360af41a6a6da87f9d021d56edf58bc7",
            "0x000000000000000000000000a5f104f8f78d5ba9aec4a383c0927337fd4e997b",
            "0x000000000000000000000000000000000000000000000000000000000000018a"
          ],
          "data": "0x00000000000000000000000008312e82df563a1639b81f49bb41247759700e30000000000000000000000000646dc5fc4009c4c84a424b6ae0f494b374bae1ce000000000000000000000000c02aaa39b223fe8d0a0e5c4f27ead9083c756cc2000000000000000000000000000000000000000000000000002e2f6e5e148000",
          "blockHash": "0x5aa62bbe8f9afbeab2044ddad1d6b45414eb5cedc4e50de8d16181268e10c4e4",
          "blockNumber": "0x17b8341",
          "blockTimestamp": "0x69e9f808",
          "transactionHash": "0x502b60dd3b28d82d05395a008745dd5785c8161490b14be5f49c1c616e58a7c6",
          "transactionIndex": "0x0",
          "logIndex": "0x3",
          "removed": false
        }
      ],
      "logsBloom": "0x00000000000000000000010001000000000000000002000000000000000000000000000000100000200000000000000002000000090000000000000000100000000000000020000000010008000000000000000000000000080000000000000000000000000000000005000000000000000000000000000000000010200000000800000200040000000004000000000000000000000000000000000000000000000002200000000400000000000000000000000000000080000000000000000200000002000004000000000000000000000000000000000080000000000000000100200000000000000000000000000000000000004000000000004000000000",
      "type": "0x2",
      "transactionHash": "0x502b60dd3b28d82d05395a008745dd5785c8161490b14be5f49c1c616e58a7c6",
      "transactionIndex": "0x0",
      "blockHash": "0x5aa62bbe8f9afbeab2044ddad1d6b45414eb5cedc4e50de8d16181268e10c4e4",
      "blockNumber": "0x17b8341",
      "gasUsed": "0x2011d",
      "effectiveGasPrice": "0x1ba81c",
      "blobGasPrice": "0x1",
      "from": "0x646dc5fc4009c4c84a424b6ae0f494b374bae1ce",
      "to": "0x8fa71914948544c60e3379064567dcf0e6564d27",
      "contractAddress": null
    }
  ],
  "libraries": [],
  "pending": [],
  "returns": {},
  "timestamp": 1778506443746,
  "chain": 31337,
  "commit": "59e30a9"
}