{
  "transactions": [
    {
      "hash": "0x0d749810740750fa9945272421f71f2553e16b9b44c70c497f694413b54a3629",
      "transactionType": "CALL",
      "contractName": null,
      "contractAddress": "0x8fa71914948544c60e3379064567dcf0e6564d27",
      "function": "settle((uint256,address),(uint8,bool,address,uint256,address,uint256,address,uint64,uint64,uint256),(uint8,bytes32,bytes32))",
      "arguments": [
        "(0, 0x646dC5Fc4009C4C84a424B6aE0f494b374bAE1Ce)",
        "(0, false, 0xA5f104F8f78d5ba9AEC4a383c0927337Fd4E997B, 282, 0xC02aaA39b223FE8D0A0e5C4F27eAD9083C756Cc2, 14000000000000000, 0x2c2dbA75492E0C4A1D10B41303167aEC59586C9c, 1772760330, 1779413956, 1)",
        "(27, 0x75b805edd2cb1aba48f9fea8cf3747333b05a9ce296fdc15acac04944c55fa93, 0x27702a36bec17c2f4f5496d174ed08bb14c86970726127602e3484ded900cc70)"
      ],
      "transaction": {
        "from": "0x646dc5fc4009c4c84a424b6ae0f494b374bae1ce",
        "to": "0x8fa71914948544c60e3379064567dcf0e6564d27",
        "gas": "0x2ee5b",
        "value": "0x0",
        "input": "0x3bae3e790000000000000000000000000000000000000000000000000000000000000000000000000000000000000000646dc5fc4009c4c84a424b6ae0f494b374bae1ce00000000000000000000000000000000000000000000000000000000000000000000000000000000000000000000000000000000000000000000000000000000000000000000000000000000a5f104f8f78d5ba9aec4a383c0927337fd4e997b000000000000000000000000000000000000000000000000000000000000011a000000000000000000000000c02aaa39b223fe8d0a0e5c4f27ead9083c756cc20000000000000000000000000000000000000000000000000031bced02db00000000000000000000000000002c2dba75492e0c4a1d10b41303167aec59586c9c0000000000000000000000000000000000000000000000000000000069aa2d0a000000000000000000000000000000000000000000000000000000006a0fb3c40000000000000000000000000000000000000000000000000000000000000001000000000000000000000000000000000000000000000000000000000000001b75b805edd2cb1aba48f9fea8cf3747333b05a9ce296fdc15acac04944c55fa9327702a36bec17c2f4f5496d174ed08bb14c86970726127602e3484ded900cc70",
        "nonce": "0x42",
        "chainId": "0x7a69"
      },
      "additionalContracts": [],
      "isFixedGasLimit": false
    }
  ],
  "receipts": [
    {
      "status": "0x1",
      "cumulativeGasUsed": "0x20111",
      "logs": [
        {
          "address": "0xc02aaa39b223fe8d0a0e5c4f27ead9083c756cc2",
          "topics": [
            "0xddf252ad1be2c89b69c2b068fc378daa952ba7f163c4a11628f55a4df523b3ef",
            "0x000000000000000000000000646dc5fc4009c4c84a424b6ae0f494b374bae1ce",
            "0x0000000000000000000000001804c8ab1f12e6bbf3894d4083f33e07309d1f38"
          ],
          "data": "0x00000000000000000000000000000000000000000000000000007f544a44c000",
          "blockHash": "0x2af7893d51d0506023213a6eec10b3a2135d999c058ba028d978d921ae480cec",
          "blockNumber": "0x17b8322",
          "blockTimestamp": "0x69e05ba4",
          "transactionHash": "0x0d749810740750fa9945272421f71f2553e16b9b44c70c497f694413b54a3629",
          "transactionIndex": "0x0",
          "logIndex": "0x0",
          "removed": false
        },
        {
          "address": "0xc02aaa39b223fe8d0a0e5c4f27ead9083c756cc2",
          "topics": [
            "0xddf252ad1be2c89b69c2b068fc378daa952ba7f163c4a11628f55a4df523b3ef",
            "0x000000000000000000000000646dc5fc4009c4c84a424b6ae0f494b374bae1ce",
            "0x0000000000000000000000002c2dba75492e0c4a1d10b41303167aec59586c9c"
          ],
          "data": "0x00000000000000000000000000000000000000000000000000313d98b8964000",
          "blockHash": "0x2af7893d51d0506023213a6eec10b3a2135d999c058ba028d978d921ae480cec",
          "blockNumber": "0x17b8322",
          "blockTimestamp": "0x69e05ba4",
          "transactionHash": "0x0d749810740750fa9945272421f71f2553e16b9b44c70c497f694413b54a3629",
          "transactionIndex": "0x0",
          "logIndex": "0x1",
          "removed": false
        },
        {
          "address": "0xa5f104f8f78d5ba9aec4a383c0927337fd4e997b",
          "topics": [
            "0xddf252ad1be2c89b69c2b068fc378daa952ba7f163c4a11628f55a4df523b3ef",
            "0x0000000000000000000000002c2dba75492e0c4a1d10b41303167aec59586c9c",
            "0x000000000000000000000000646dc5fc4009c4c84a424b6ae0f494b374bae1ce",
            "0x000000000000000000000000000000000000000000000000000000000000011a"
          ],
          "data": "0x",
          "blockHash": "0x2af7893d51d0506023213a6eec10b3a2135d999c058ba028d978d921ae480cec",
          "blockNumber": "0x17b8322",
          "blockTimestamp": "0x69e05ba4",
          "transactionHash": "0x0d749810740750fa9945272421f71f2553e16b9b44c70c497f694413b54a3629",
          "transactionIndex": "0x0",
          "logIndex": "0x2",
          "removed": false
        },
        {
          "address": "0x8fa71914948544c60e3379064567dcf0e6564d27",
          "topics": [
            "0xc0ac3eb1e8caef05b202043f34de8e3173fab712167584f7a2a9f4c302bd0e9c",
            "0x4762f78eb1ad3fadaa9a529148a632f7e51253764b5a5e2df3bcea55e0a4e491",
            "0x000000000000000000000000a5f104f8f78d5ba9aec4a383c0927337fd4e997b",
            "0x000000000000000000000000000000000000000000000000000000000000011a"
          ],
          "data": "0x0000000000000000000000002c2dba75492e0c4a1d10b41303167aec59586c9c000000000000000000000000646dc5fc4009c4c84a424b6ae0f494b374bae1ce000000000000000000000000c02aaa39b223fe8d0a0e5c4f27ead9083c756cc20000000000000000000000000000000000000000000000000031bced02db0000",
          "blockHash": "0x2af7893d51d0506023213a6eec10b3a2135d999c058ba028d978d921ae480cec",
          "blockNumber": "0x17b8322",
          "blockTimestamp": "0x69e05ba4",
          "transactionHash": "0x0d749810740750fa9945272421f71f2553e16b9b44c70c497f694413b54a3629",
          "transactionIndex": "0x0",
          "logIndex": "0x3",
          "removed": false
        }
      ],
      "logsBloom": "0x00000000000002000000010000000000000000000002000000000000000000000000000000000000000000000000000002000000090000000040100800100000000200000000000000010008000000000000000000000000080000000000000000000000000004000005000000000000000000000000000008000010200000000800000000040000000004000100000000000000000000000000000000000000000000200000000400000000000000000000000000000080000000000000000000000002000004000000000000000000000000000000000080000000000000000100200000000000000000000000000000000000000000000000000000000000",
      "type": "0x2",
      "transactionHash": "0x0d749810740750fa9945272421f71f2553e16b9b44c70c497f694413b54a3629",
      "transactionIndex": "0x0",
      "blockHash": "0x2af7893d51d0506023213a6eec10b3a2135d999c058ba028d978d921ae480cec",
      "blockNumber": "0x17b8322",
      "gasUsed": "0x20111",
      "effectiveGasPrice": "0x1ba81c",
      "blobGasPrice": "0x1",
      "from": "0x646dc5fc4009c4c84a424b6ae0f494b374bae1ce",
      "to": "0x8fa71914948544c60e3379064567dcf0e6564d27",
      "contractAddress": null
    }
  ],
  "libraries": [],
  "pending": [],
  "returns": {},
  "timestamp": 1778506410529,
  "chain": 31337,
  "commit": "59e30a9"
}