{
  "transactions": [
    {
      "hash": "0x94b30dbd2cf76ffbd5c494970fc35ae432db4b9f00915e0b54c790cde069bedf",
      "transactionType": "CALL",
      "contractName": null,
      "contractAddress": "0x8fa71914948544c60e3379064567dcf0e6564d27",
      "function": "settle((uint256,address),(uint8,bool,address,uint256,address,uint256,address,uint64,uint64,uint256),(uint8,bytes32,bytes32))",
      "arguments": [
        "(235, 0xcbe5659df21Cbcfabe4da962F7a9081F26B3ed82)",
        "(1, false, 0xA5f104F8f78d5ba9AEC4a383c0927337Fd4E997B, 235, 0xC02aaA39b223FE8D0A0e5C4F27eAD9083C756Cc2, 193000000000000000, 0x1302F142Fc55B165647d3Bd5dec227f569A2A907, 1773315667, 1778858619, 15)",
        "(27, 0xfbcb957fad7bfbe269742afd797a8853632a1c36d2b2d17a13428bd86ec8c29d, 0x6180c1ee892fbf3b0b0aa183d41846bb9fdb2bf8c911b1bfc8d45d856bcdb899)"
      ],
      "transaction": {
        "from": "0xcbe5659df21cbcfabe4da962f7a9081f26b3ed82",
        "to": "0x8fa71914948544c60e3379064567dcf0e6564d27",
        "gas": "0x2c5d2",
        "value": "0x0",
        "input": "0x3bae3e7900000000000000000000000000000000000000000000000000000000000000eb000000000000000000000000cbe5659df21cbcfabe4da962f7a9081f26b3ed8200000000000000000000000000000000000000000000000000000000000000010000000000000000000000000000000000000000000000000000000000000000000000000000000000000000a5f104f8f78d5ba9aec4a383c0927337fd4e997b00000000000000000000000000000000000000000000000000000000000000eb000000000000000000000000c02aaa39b223fe8d0a0e5c4f27ead9083c756cc200000000000000000000000000000000000000000000000002adac7a39a680000000000000000000000000001302f142fc55b165647d3bd5dec227f569a2a9070000000000000000000000000000000000000000000000000000000069b2a653000000000000000000000000000000000000000000000000000000006a073a7b000000000000000000000000000000000000000000000000000000000000000f000000000000000000000000000000000000000000000000000000000000001bfbcb957fad7bfbe269742afd797a8853632a1c36d2b2d17a13428bd86ec8c29d6180c1ee892fbf3b0b0aa183d41846bb9fdb2bf8c911b1bfc8d45d856bcdb899",
        "nonce": "0x43",
        "chainId": "0x7a69"
      },
      "additionalContracts": [],
      "isFixedGasLimit": false
    }
  ],
  "receipts": [
    {
      "status": "0x1",
      "cumulativeGasUsed": "0x201e6",
      "logs": [
        {
          "address": "0xc02aaa39b223fe8d0a0e5c4f27ead9083c756cc2",
          "topics": [
            "0xddf252ad1be2c89b69c2b068fc378daa952ba7f163c4a11628f55a4df523b3ef",
            "0x0000000000000000000000001302f142fc55b165647d3bd5dec227f569a2a907",
            "0x0000000000000000000000001804c8ab1f12e6bbf3894d4083f33e07309d1f38"
          ],
          "data": "0x0000000000000000000000000000000000000000000000000006db53246aa000",
          "blockHash": "0xd1204e0b71b87163100a3f7f0c8919d5c93c23033edb2a1a1fc66f92a88ee580",
          "blockNumber": "0x17b8387",
          "blockTimestamp": "0x69fa1570",
          "transactionHash": "0x94b30dbd2cf76ffbd5c494970fc35ae432db4b9f00915e0b54c790cde069bedf",
          "transactionIndex": "0x0",
          "logIndex": "0x0",
          "removed": false
        },
        {
          "address": "0xc02aaa39b223fe8d0a0e5c4f27ead9083c756cc2",
          "topics": [
            "0xddf252ad1be2c89b69c2b068fc378daa952ba7f163c4a11628f55a4df523b3ef",
            "0x0000000000000000000000001302f142fc55b165647d3bd5dec227f569a2a907",
            "0x000000000000000000000000cbe5659df21cbcfabe4da962f7a9081f26b3ed82"
          ],
          "data": "0x00000000000000000000000000000000000000000000000002a6d127153be000",
          "blockHash": "0xd1204e0b71b87163100a3f7f0c8919d5c93c23033edb2a1a1fc66f92a88ee580",
          "blockNumber": "0x17b8387",
          "blockTimestamp": "0x69fa1570",
          "transactionHash": "0x94b30dbd2cf76ffbd5c494970fc35ae432db4b9f00915e0b54c790cde069bedf",
          "transactionIndex": "0x0",
          "logIndex": "0x1",
          "removed": false
        },
        {
          "address": "0xa5f104f8f78d5ba9aec4a383c0927337fd4e997b",
          "topics": [
            "0xddf252ad1be2c89b69c2b068fc378daa952ba7f163c4a11628f55a4df523b3ef",
            "0x000000000000000000000000cbe5659df21cbcfabe4da962f7a9081f26b3ed82",
            "0x0000000000000000000000001302f142fc55b165647d3bd5dec227f569a2a907",
            "0x00000000000000000000000000000000000000000000000000000000000000eb"
          ],
          "data": "0x",
          "blockHash": "0xd1204e0b71b87163100a3f7f0c8919d5c93c23033edb2a1a1fc66f92a88ee580",
          "blockNumber": "0x17b8387",
          "blockTimestamp": "0x69fa1570",
          "transactionHash": "0x94b30dbd2cf76ffbd5c494970fc35ae432db4b9f00915e0b54c790cde069bedf",
          "transactionIndex": "0x0",
          "logIndex": "0x2",
          "removed": false
        },
        {
          "address": "0x8fa71914948544c60e3379064567dcf0e6564d27",
          "topics": [
            "0xc0ac3eb1e8caef05b202043f34de8e3173fab712167584f7a2a9f4c302bd0e9c",
            "0x471e8d04d3e385b3d7462735aff74d326cda3cf93455faf9e584b0a32b4fb170",
            "0x000000000000000000000000a5f104f8f78d5ba9aec4a383c0927337fd4e997b",
            "0x00000000000000000000000000000000000000000000000000000000000000eb"
          ],
          "data": "0x000000000000000000000000cbe5659df21cbcfabe4da962f7a9081f26b3ed820000000000000000000000001302f142fc55b165647d3bd5dec227f569a2a907000000000000000000000000c02aaa39b223fe8d0a0e5c4f27ead9083c756cc200000000000000000000000000000000000000000000000002adac7a39a68000",
          "blockHash": "0xd1204e0b71b87163100a3f7f0c8919d5c93c23033edb2a1a1fc66f92a88ee580",
          "blockNumber": "0x17b8387",
          "blockTimestamp": "0x69fa1570",
          "transactionHash": "0x94b30dbd2cf76ffbd5c494970fc35ae432db4b9f00915e0b54c790cde069bedf",
          "transactionIndex": "0x0",
          "logIndex": "0x3",
          "removed": false
        }
      ],
      "logsBloom": "0x00000000000000000000090000000000000000000000000000000000000000000000000000000000000000000000000002000000080000000000000000100000000000000000000000010008010000000000000000000000080000000000000000000000000000000001000000000000000000000000004000000010200000000800000000040001000004000000000000000000000000000020000000000000000000200000000400000000000100000000000000000080000000000000000000000002000004000400000200000000000000000000020080000000000000000100200000000000000040000000000000000000004000000001000000000000",
      "type": "0x2",
      "transactionHash": "0x94b30dbd2cf76ffbd5c494970fc35ae432db4b9f00915e0b54c790cde069bedf",
      "transactionIndex": "0x0",
      "blockHash": "0xd1204e0b71b87163100a3f7f0c8919d5c93c23033edb2a1a1fc66f92a88ee580",
      "blockNumber": "0x17b8387",
      "gasUsed": "0x201e6",
      "effectiveGasPrice": "0x1ba81c",
      "blobGasPrice": "0x1",
      "from": "0xcbe5659df21cbcfabe4da962f7a9081f26b3ed82",
      "to": "0x8fa71914948544c60e3379064567dcf0e6564d27",
      "contractAddress": null
    }
  ],
  "libraries": [],
  "pending": [],
  "returns": {},
  "timestamp": 1778506521275,
  "chain": 31337,
  "commit": "59e30a9"
}