{
  "transactions": [
    {
      "hash": "0x1beee37b9c30cecd72230538ac213890fb09bc3cf0c5123c3a864dc9d9ee9c00",
      "transactionType": "CALL",
      "contractName": null,
      "contractAddress": "0x8fa71914948544c60e3379064567dcf0e6564d27",
      "function": "settle((uint256,address),(uint8,bool,address,uint256,address,uint256,address,uint64,uint64,uint256),(uint8,bytes32,bytes32))",
      "arguments": [
        "(0, 0xa382b0E75C192D9CDF5c084E58b750Cea7761Bd0)",
        "(0, false, 0xA5f104F8f78d5ba9AEC4a383c0927337Fd4E997B, 372, 0xC02aaA39b223FE8D0A0e5C4F27eAD9083C756Cc2, 23000000000000000, 0xcbe5659df21Cbcfabe4da962F7a9081F26B3ed82, 1772070051, 1780104235, 15)",
        "(28, 0x4fb778aa5244a452d0cf849c63cf5fd2d7d5d15d48114119ccfbb60810499b1d, 0x6b0004105635959eeeaa6997ec65cb072434106a9ec22367fd8d8824560be9e0)"
      ],
      "transaction": {
        "from": "0xa382b0e75c192d9cdf5c084e58b750cea7761bd0",
        "to": "0x8fa71914948544c60e3379064567dcf0e6564d27",
        "gas": "0x2ee8a",
        "value": "0x0",
        "input": "0x3bae3e790000000000000000000000000000000000000000000000000000000000000000000000000000000000000000a382b0e75c192d9cdf5c084e58b750cea7761bd000000000000000000000000000000000000000000000000000000000000000000000000000000000000000000000000000000000000000000000000000000000000000000000000000000000a5f104f8f78d5ba9aec4a383c0927337fd4e997b0000000000000000000000000000000000000000000000000000000000000174000000000000000000000000c02aaa39b223fe8d0a0e5c4f27ead9083c756cc20000000000000000000000000000000000000000000000000051b660cdd58000000000000000000000000000cbe5659df21cbcfabe4da962f7a9081f26b3ed8200000000000000000000000000000000000000000000000000000000699fa4a3000000000000000000000000000000000000000000000000000000006a1a3c2b000000000000000000000000000000000000000000000000000000000000000f000000000000000000000000000000000000000000000000000000000000001c4fb778aa5244a452d0cf849c63cf5fd2d7d5d15d48114119ccfbb60810499b1d6b0004105635959eeeaa6997ec65cb072434106a9ec22367fd8d8824560be9e0",
        "nonce": "0x2a",
        "chainId": "0x7a69"
      },
      "additionalContracts": [],
      "isFixedGasLimit": false
    }
  ],
  "receipts": [
    {
      "status": "0x1",
      "cumulativeGasUsed": "0x20131",
      "logs": [
        {
          "address": "0xc02aaa39b223fe8d0a0e5c4f27ead9083c756cc2",
          "topics": [
            "0xddf252ad1be2c89b69c2b068fc378daa952ba7f163c4a11628f55a4df523b3ef",
            "0x000000000000000000000000a382b0e75c192d9cdf5c084e58b750cea7761bd0",
            "0x0000000000000000000000001804c8ab1f12e6bbf3894d4083f33e07309d1f38"
          ],
          "data": "0x0000000000000000000000000000000000000000000000000000d12f0c4c6000",
          "blockHash": "0xf4947d6fba516d1ba668297ed245633f14207cd569e1baf9972a0b3dadb2eea7",
          "blockNumber": "0x17b8378",
          "blockTimestamp": "0x69f6bd26",
          "transactionHash": "0x1beee37b9c30cecd72230538ac213890fb09bc3cf0c5123c3a864dc9d9ee9c00",
          "transactionIndex": "0x0",
          "logIndex": "0x0",
          "removed": false
        },
        {
          "address": "0xc02aaa39b223fe8d0a0e5c4f27ead9083c756cc2",
          "topics": [
            "0xddf252ad1be2c89b69c2b068fc378daa952ba7f163c4a11628f55a4df523b3ef",
            "0x000000000000000000000000a382b0e75c192d9cdf5c084e58b750cea7761bd0",
            "0x000000000000000000000000cbe5659df21cbcfabe4da962f7a9081f26b3ed82"
          ],
          "data": "0x0000000000000000000000000000000000000000000000000050e531c1892000",
          "blockHash": "0xf4947d6fba516d1ba668297ed245633f14207cd569e1baf9972a0b3dadb2eea7",
          "blockNumber": "0x17b8378",
          "blockTimestamp": "0x69f6bd26",
          "transactionHash": "0x1beee37b9c30cecd72230538ac213890fb09bc3cf0c5123c3a864dc9d9ee9c00",
          "transactionIndex": "0x0",
          "logIndex": "0x1",
          "removed": false
        },
        {
          "address": "0xa5f104f8f78d5ba9aec4a383c0927337fd4e997b",
          "topics": [
            "0xddf252ad1be2c89b69c2b068fc378daa952ba7f163c4a11628f55a4df523b3ef",
            "0x000000000000000000000000cbe5659df21cbcfabe4da962f7a9081f26b3ed82",
            "0x000000000000000000000000a382b0e75c192d9cdf5c084e58b750cea7761bd0",
            "0x0000000000000000000000000000000000000000000000000000000000000174"
          ],
          "data": "0x",
          "blockHash": "0xf4947d6fba516d1ba668297ed245633f14207cd569e1baf9972a0b3dadb2eea7",
          "blockNumber": "0x17b8378",
          "blockTimestamp": "0x69f6bd26",
          "transactionHash": "0x1beee37b9c30cecd72230538ac213890fb09bc3cf0c5123c3a864dc9d9ee9c00",
          "transactionIndex": "0x0",
          "logIndex": "0x2",
          "removed": false
        },
        {
          "address": "0x8fa71914948544c60e3379064567dcf0e6564d27",
          "topics": [
            "0xc0ac3eb1e8caef05b202043f34de8e3173fab712167584f7a2a9f4c302bd0e9c",
            "0x3df36b79045be445038bd5bd9e7ac8333e88bc96c5c13f9e3827ea70842acbcd",
            "0x000000000000000000000000a5f104f8f78d5ba9aec4a383c0927337fd4e997b",
            "0x0000000000000000000000000000000000000000000000000000000000000174"
          ],
          "data": "0x000000000000000000000000cbe5659df21cbcfabe4da962f7a9081f26b3ed82000000000000000000000000a382b0e75c192d9cdf5c084e58b750cea7761bd0000000000000000000000000c02aaa39b223fe8d0a0e5c4f27ead9083c756cc20000000000000000000000000000000000000000000000000051b660cdd58000",
          "blockHash": "0xf4947d6fba516d1ba668297ed245633f14207cd569e1baf9972a0b3dadb2eea7",
          "blockNumber": "0x17b8378",
          "blockTimestamp": "0x69f6bd26",
          "transactionHash": "0x1beee37b9c30cecd72230538ac213890fb09bc3cf0c5123c3a864dc9d9ee9c00",
          "transactionIndex": "0x0",
          "logIndex": "0x3",
          "removed": false
        }
      ],
      "logsBloom": "0x00000000000000000000010000000000000000000000000000000000000000000010000000000000000000000000000006000000080000000000000000101000000000000000000000010008000000000000000000000000080000000000000000000000000000000001000000000000000020000000040000000010200000000800000000040000000004000000000000100000000000000000000000000000000000200000000400000000000000000000000000000080000000000000000000000022000004000400000000000000000000040000020080000000000000000100200000000000000000000000000000000000104000000000000000000000",
      "type": "0x2",
      "transactionHash": "0x1beee37b9c30cecd72230538ac213890fb09bc3cf0c5123c3a864dc9d9ee9c00",
      "transactionIndex": "0x0",
      "blockHash": "0xf4947d6fba516d1ba668297ed245633f14207cd569e1baf9972a0b3dadb2eea7",
      "blockNumber": "0x17b8378",
      "gasUsed": "0x20131",
      "effectiveGasPrice": "0x1ba81c",
      "blobGasPrice": "0x1",
      "from": "0xa382b0e75c192d9cdf5c084e58b750cea7761bd0",
      "to": "0x8fa71914948544c60e3379064567dcf0e6564d27",
      "contractAddress": null
    }
  ],
  "libraries": [],
  "pending": [],
  "returns": {},
  "timestamp": 1778506502648,
  "chain": 31337,
  "commit": "59e30a9"
}