{
  "transactions": [
    {
      "hash": "0x793a81abf760f52b720b4f7bed16d20f1e07184163ede9d92501c24964519b0a",
      "transactionType": "CALL",
      "contractName": null,
      "contractAddress": "0x8fa71914948544c60e3379064567dcf0e6564d27",
      "function": "settle((uint256,address),(uint8,bool,address,uint256,address,uint256,address,uint64,uint64,uint256),(uint8,bytes32,bytes32))",
      "arguments": [
        "(0, 0x646dC5Fc4009C4C84a424B6aE0f494b374bAE1Ce)",
        "(0, false, 0xA5f104F8f78d5ba9AEC4a383c0927337Fd4E997B, 179, 0xC02aaA39b223FE8D0A0e5C4F27eAD9083C756Cc2, 10000000000000000, 0xa382b0E75C192D9CDF5c084E58b750Cea7761Bd0, 1772000000, 1780174286, 6)",
        "(28, 0xbabe09d78c3c958f766fb13dfe02643cb0a0b1060d05cabe9c26cc13b78427e2, 0x7b65c02ccc3dec786a3f82074f7f1559d6df6e374128ca3b6ccdcc6dc5bc69b1)"
      ],
      "transaction": {
        "from": "0x646dc5fc4009c4c84a424b6ae0f494b374bae1ce",
        "to": "0x8fa71914948544c60e3379064567dcf0e6564d27",
        "gas": "0x2ee67",
        "value": "0x0",
        "input": "0x3bae3e790000000000000000000000000000000000000000000000000000000000000000000000000000000000000000646dc5fc4009c4c84a424b6ae0f494b374bae1ce00000000000000000000000000000000000000000000000000000000000000000000000000000000000000000000000000000000000000000000000000000000000000000000000000000000a5f104f8f78d5ba9aec4a383c0927337fd4e997b00000000000000000000000000000000000000000000000000000000000000b3000000000000000000000000c02aaa39b223fe8d0a0e5c4f27ead9083c756cc2000000000000000000000000000000000000000000000000002386f26fc10000000000000000000000000000a382b0e75c192d9cdf5c084e58b750cea7761bd000000000000000000000000000000000000000000000000000000000699e9300000000000000000000000000000000000000000000000000000000006a1b4dce0000000000000000000000000000000000000000000000000000000000000006000000000000000000000000000000000000000000000000000000000000001cbabe09d78c3c958f766fb13dfe02643cb0a0b1060d05cabe9c26cc13b78427e27b65c02ccc3dec786a3f82074f7f1559d6df6e374128ca3b6ccdcc6dc5bc69b1",
        "nonce": "0x5d",
        "chainId": "0x7a69"
      },
      "additionalContracts": [],
      "isFixedGasLimit": false
    }
  ],
  "receipts": [
    {
      "status": "0x1",
      "cumulativeGasUsed": "0x20119",
      "logs": [
        {
          "address": "0xc02aaa39b223fe8d0a0e5c4f27ead9083c756cc2",
          "topics": [
            "0xddf252ad1be2c89b69c2b068fc378daa952ba7f163c4a11628f55a4df523b3ef",
            "0x000000000000000000000000646dc5fc4009c4c84a424b6ae0f494b374bae1ce",
            "0x0000000000000000000000001804c8ab1f12e6bbf3894d4083f33e07309d1f38"
          ],
          "data": "0x00000000000000000000000000000000000000000000000000005af3107a4000",
          "blockHash": "0xfa2e05ac13819a3f756db508856889ea32cd63a3ab871db8b05ee5722e52f7a2",
          "blockNumber": "0x17b837b",
          "blockTimestamp": "0x69f75e39",
          "transactionHash": "0x793a81abf760f52b720b4f7bed16d20f1e07184163ede9d92501c24964519b0a",
          "transactionIndex": "0x0",
          "logIndex": "0x0",
          "removed": false
        },
        {
          "address": "0xc02aaa39b223fe8d0a0e5c4f27ead9083c756cc2",
          "topics": [
            "0xddf252ad1be2c89b69c2b068fc378daa952ba7f163c4a11628f55a4df523b3ef",
            "0x000000000000000000000000646dc5fc4009c4c84a424b6ae0f494b374bae1ce",
            "0x000000000000000000000000a382b0e75c192d9cdf5c084e58b750cea7761bd0"
          ],
          "data": "0x00000000000000000000000000000000000000000000000000232bff5f46c000",
          "blockHash": "0xfa2e05ac13819a3f756db508856889ea32cd63a3ab871db8b05ee5722e52f7a2",
          "blockNumber": "0x17b837b",
          "blockTimestamp": "0x69f75e39",
          "transactionHash": "0x793a81abf760f52b720b4f7bed16d20f1e07184163ede9d92501c24964519b0a",
          "transactionIndex": "0x0",
          "logIndex": "0x1",
          "removed": false
        },
        {
          "address": "0xa5f104f8f78d5ba9aec4a383c0927337fd4e997b",
          "topics": [
            "0xddf252ad1be2c89b69c2b068fc378daa952ba7f163c4a11628f55a4df523b3ef",
            "0x000000000000000000000000a382b0e75c192d9cdf5c084e58b750cea7761bd0",
            "0x000000000000000000000000646dc5fc4009c4c84a424b6ae0f494b374bae1ce",
            "0x00000000000000000000000000000000000000000000000000000000000000b3"
          ],
          "data": "0x",
          "blockHash": "0xfa2e05ac13819a3f756db508856889ea32cd63a3ab871db8b05ee5722e52f7a2",
          "blockNumber": "0x17b837b",
          "blockTimestamp": "0x69f75e39",
          "transactionHash": "0x793a81abf760f52b720b4f7bed16d20f1e07184163ede9d92501c24964519b0a",
          "transactionIndex": "0x0",
          "logIndex": "0x2",
          "removed": false
        },
        {
          "address": "0x8fa71914948544c60e3379064567dcf0e6564d27",
          "topics": [
            "0xc0ac3eb1e8caef05b202043f34de8e3173fab712167584f7a2a9f4c302bd0e9c",
            "0xdffe8823455299902ce4b7cd37e7d02a6d5d242695d9186d6c3512e99509ed5f",
            "0x000000000000000000000000a5f104f8f78d5ba9aec4a383c0927337fd4e997b",
            "0x00000000000000000000000000000000000000000000000000000000000000b3"
          ],
          "data": "0x000000000000000000000000a382b0e75c192d9cdf5c084e58b750cea7761bd0000000000000000000000000646dc5fc4009c4c84a424b6ae0f494b374bae1ce000000000000000000000000c02aaa39b223fe8d0a0e5c4f27ead9083c756cc2000000000000000000000000000000000000000000000000002386f26fc10000",
          "blockHash": "0xfa2e05ac13819a3f756db508856889ea32cd63a3ab871db8b05ee5722e52f7a2",
          "blockNumber": "0x17b837b",
          "blockTimestamp": "0x69f75e39",
          "transactionHash": "0x793a81abf760f52b720b4f7bed16d20f1e07184163ede9d92501c24964519b0a",
          "transactionIndex": "0x0",
          "logIndex": "0x3",
          "removed": false
        }
      ],
      "logsBloom": "0x00000000000000200000010000000000000000000002000000000000000000000000000000000000000000000000000002000000090000000000000000100000000000000000000000010008000000000000000000004000080000000000000000000000000000000005000000000000000000000000040000000010200000000800000000040000000004000020000000108000000000000000000000000000000000200000000410000000000000000000000000000080000000000000000000000002000004000000000000000000000000000000000080000000000000000100200000000000000000000000000000000000100000010000000000000000",
      "type": "0x2",
      "transactionHash": "0x793a81abf760f52b720b4f7bed16d20f1e07184163ede9d92501c24964519b0a",
      "transactionIndex": "0x0",
      "blockHash": "0xfa2e05ac13819a3f756db508856889ea32cd63a3ab871db8b05ee5722e52f7a2",
      "blockNumber": "0x17b837b",
      "gasUsed": "0x20119",
      "effectiveGasPrice": "0x1ba81c",
      "blobGasPrice": "0x1",
      "from": "0x646dc5fc4009c4c84a424b6ae0f494b374bae1ce",
      "to": "0x8fa71914948544c60e3379064567dcf0e6564d27",
      "contractAddress": null
    }
  ],
  "libraries": [],
  "pending": [],
  "returns": {},
  "timestamp": 1778506505254,
  "chain": 31337,
  "commit": "59e30a9"
}