{
  "transactions": [
    {
      "hash": "0x4fff6f46b72e43a1ee9577c77f4487ac007b9db7806a49958745fa780c1ef4b5",
      "transactionType": "CALL",
      "contractName": null,
      "contractAddress": "0x8fa71914948544c60e3379064567dcf0e6564d27",
      "function": "settle((uint256,address),(uint8,bool,address,uint256,address,uint256,address,uint64,uint64,uint256),(uint8,bytes32,bytes32))",
      "arguments": [
        "(123, 0x1302F142Fc55B165647d3Bd5dec227f569A2A907)",
        "(1, false, 0xA5f104F8f78d5ba9AEC4a383c0927337Fd4E997B, 123, 0xC02aaA39b223FE8D0A0e5C4F27eAD9083C756Cc2, 15000000000000000, 0xe3745C151faB59B0740f4312b2B027F07D096639, 1772481455, 1779692831, 13)",
        "(28, 0xfe05363a900a9cf794de4457f3efe28d8d84844763735ce29ef3358738fe089b, 0x343e223f43fd0b6f74c3da00087ff12d730735a5110348f3015c4e17ca377cb8)"
      ],
      "transaction": {
        "from": "0x1302f142fc55b165647d3bd5dec227f569a2a907",
        "to": "0x8fa71914948544c60e3379064567dcf0e6564d27",
        "gas": "0x2ef8d",
        "value": "0x0",
        "input": "0x3bae3e79000000000000000000000000000000000000000000000000000000000000007b0000000000000000000000001302f142fc55b165647d3bd5dec227f569a2a90700000000000000000000000000000000000000000000000000000000000000010000000000000000000000000000000000000000000000000000000000000000000000000000000000000000a5f104f8f78d5ba9aec4a383c0927337fd4e997b000000000000000000000000000000000000000000000000000000000000007b000000000000000000000000c02aaa39b223fe8d0a0e5c4f27ead9083c756cc200000000000000000000000000000000000000000000000000354a6ba7a18000000000000000000000000000e3745c151fab59b0740f4312b2b027f07d0966390000000000000000000000000000000000000000000000000000000069a5ebaf000000000000000000000000000000000000000000000000000000006a13f51f000000000000000000000000000000000000000000000000000000000000000d000000000000000000000000000000000000000000000000000000000000001cfe05363a900a9cf794de4457f3efe28d8d84844763735ce29ef3358738fe089b343e223f43fd0b6f74c3da00087ff12d730735a5110348f3015c4e17ca377cb8",
        "nonce": "0x3c",
        "chainId": "0x7a69"
      },
      "additionalContracts": [],
      "isFixedGasLimit": false
    }
  ],
  "receipts": [
    {
      "status": "0x1",
      "cumulativeGasUsed": "0x201e2",
      "logs": [
        {
          "address": "0xc02aaa39b223fe8d0a0e5c4f27ead9083c756cc2",
          "topics": [
            "0xddf252ad1be2c89b69c2b068fc378daa952ba7f163c4a11628f55a4df523b3ef",
            "0x000000000000000000000000e3745c151fab59b0740f4312b2b027f07d096639",
            "0x0000000000000000000000001804c8ab1f12e6bbf3894d4083f33e07309d1f38"
          ],
          "data": "0x0000000000000000000000000000000000000000000000000000886c98b76000",
          "blockHash": "0x20993592272e6eef3e59b1f235129a9ae77b5cfa90ead278d2e7a7c0e5eef9ad",
          "blockNumber": "0x17b836c",
          "blockTimestamp": "0x69f438cc",
          "transactionHash": "0x4fff6f46b72e43a1ee9577c77f4487ac007b9db7806a49958745fa780c1ef4b5",
          "transactionIndex": "0x0",
          "logIndex": "0x0",
          "removed": false
        },
        {
          "address": "0xc02aaa39b223fe8d0a0e5c4f27ead9083c756cc2",
          "topics": [
            "0xddf252ad1be2c89b69c2b068fc378daa952ba7f163c4a11628f55a4df523b3ef",
            "0x000000000000000000000000e3745c151fab59b0740f4312b2b027f07d096639",
            "0x0000000000000000000000001302f142fc55b165647d3bd5dec227f569a2a907"
          ],
          "data": "0x0000000000000000000000000000000000000000000000000034c1ff0eea2000",
          "blockHash": "0x20993592272e6eef3e59b1f235129a9ae77b5cfa90ead278d2e7a7c0e5eef9ad",
          "blockNumber": "0x17b836c",
          "blockTimestamp": "0x69f438cc",
          "transactionHash": "0x4fff6f46b72e43a1ee9577c77f4487ac007b9db7806a49958745fa780c1ef4b5",
          "transactionIndex": "0x0",
          "logIndex": "0x1",
          "removed": false
        },
        {
          "address": "0xa5f104f8f78d5ba9aec4a383c0927337fd4e997b",
          "topics": [
            "0xddf252ad1be2c89b69c2b068fc378daa952ba7f163c4a11628f55a4df523b3ef",
            "0x0000000000000000000000001302f142fc55b165647d3bd5dec227f569a2a907",
            "0x000000000000000000000000e3745c151fab59b0740f4312b2b027f07d096639",
            "0x000000000000000000000000000000000000000000000000000000000000007b"
          ],
          "data": "0x",
          "blockHash": "0x20993592272e6eef3e59b1f235129a9ae77b5cfa90ead278d2e7a7c0e5eef9ad",
          "blockNumber": "0x17b836c",
          "blockTimestamp": "0x69f438cc",
          "transactionHash": "0x4fff6f46b72e43a1ee9577c77f4487ac007b9db7806a49958745fa780c1ef4b5",
          "transactionIndex": "0x0",
          "logIndex": "0x2",
          "removed": false
        },
        {
          "address": "0x8fa71914948544c60e3379064567dcf0e6564d27",
          "topics": [
            "0xc0ac3eb1e8caef05b202043f34de8e3173fab712167584f7a2a9f4c302bd0e9c",
            "0xa4e3badf57cbd56580ecffe9b4aaba06097b96e75cb9be42dd17e9951bcea8ea",
            "0x000000000000000000000000a5f104f8f78d5ba9aec4a383c0927337fd4e997b",
            "0x000000000000000000000000000000000000000000000000000000000000007b"
          ],
          "data": "0x0000000000000000000000001302f142fc55b165647d3bd5dec227f569a2a907000000000000000000000000e3745c151fab59b0740f4312b2b027f07d096639000000000000000000000000c02aaa39b223fe8d0a0e5c4f27ead9083c756cc200000000000000000000000000000000000000000000000000354a6ba7a18000",
          "blockHash": "0x20993592272e6eef3e59b1f235129a9ae77b5cfa90ead278d2e7a7c0e5eef9ad",
          "blockNumber": "0x17b836c",
          "blockTimestamp": "0x69f438cc",
          "transactionHash": "0x4fff6f46b72e43a1ee9577c77f4487ac007b9db7806a49958745fa780c1ef4b5",
          "transactionIndex": "0x0",
          "logIndex": "0x3",
          "removed": false
        }
      ],
      "logsBloom": "0x00000000000000000000010080000000000000000100000000000000000000000000000000000000000000000000000042000010080000000000000000100000000000000000000000010008000000000000020000000000080000000400000000000000000000000001000000000000000000000000008000000010200000000800000000040000000004000000000000000000000000000000000000000000000000200000000400000000000100000000000000000080000000000000000000000002000004000000000200000000000000000000000080000040000000000100200000000000000040000000000000000000000000000000000000000000",
      "type": "0x2",
      "transactionHash": "0x4fff6f46b72e43a1ee9577c77f4487ac007b9db7806a49958745fa780c1ef4b5",
      "transactionIndex": "0x0",
      "blockHash": "0x20993592272e6eef3e59b1f235129a9ae77b5cfa90ead278d2e7a7c0e5eef9ad",
      "blockNumber": "0x17b836c",
      "gasUsed": "0x201e2",
      "effectiveGasPrice": "0x1ba81c",
      "blobGasPrice": "0x1",
      "from": "0x1302f142fc55b165647d3bd5dec227f569a2a907",
      "to": "0x8fa71914948544c60e3379064567dcf0e6564d27",
      "contractAddress": null
    }
  ],
  "libraries": [],
  "pending": [],
  "returns": {},
  "timestamp": 1778506491905,
  "chain": 31337,
  "commit": "59e30a9"
}