{
  "transactions": [
    {
      "hash": "0xf1570d8a5cd627cfdd5a04e4853b6c6292c532fa7af7249f1ba16d3995fbb900",
      "transactionType": "CALL",
      "contractName": null,
      "contractAddress": "0x73973d222c3fda5b2563d269da9e19cb125000f4",
      "function": "settle((uint256,address),(uint8,bool,address,uint256,address,uint256,address,uint64,uint64,uint256),(uint8,bytes32,bytes32))",
      "arguments": [
        "(79, 0xe3745C151faB59B0740f4312b2B027F07D096639)",
        "(1, false, 0x38D4dE42C9c5640A2799B372D27B01957E0a3673, 79, 0xC02aaA39b223FE8D0A0e5C4F27eAD9083C756Cc2, 31000000000000000, 0xE233420d38D286C2F2Cf8dEe6564F132FBDB09DB, 1773470482, 1778595156, 4)",
        "(28, 0x810e8c855fd915ba4ae19af1d1b45716824d552fee86931d38b26b4310863bb5, 0x349499b86034021bfbea0a864d9c2d45585d0a77ef14f18fbdcb4bf18ce67397)"
      ],
      "transaction": {
        "from": "0xe3745c151fab59b0740f4312b2b027f07d096639",
        "to": "0x73973d222c3fda5b2563d269da9e19cb125000f4",
        "gas": "0x2c5dc",
        "value": "0x0",
        "input": "0x3bae3e79000000000000000000000000000000000000000000000000000000000000004f000000000000000000000000e3745c151fab59b0740f4312b2b027f07d0966390000000000000000000000000000000000000000000000000000000000000001000000000000000000000000000000000000000000000000000000000000000000000000000000000000000038d4de42c9c5640a2799b372d27b01957e0a3673000000000000000000000000000000000000000000000000000000000000004f000000000000000000000000c02aaa39b223fe8d0a0e5c4f27ead9083c756cc2000000000000000000000000000000000000000000000000006e2255f4098000000000000000000000000000e233420d38d286c2f2cf8dee6564f132fbdb09db0000000000000000000000000000000000000000000000000000000069b50312000000000000000000000000000000000000000000000000000000006a0335540000000000000000000000000000000000000000000000000000000000000004000000000000000000000000000000000000000000000000000000000000001c810e8c855fd915ba4ae19af1d1b45716824d552fee86931d38b26b4310863bb5349499b86034021bfbea0a864d9c2d45585d0a77ef14f18fbdcb4bf18ce67397",
        "nonce": "0x7e",
        "chainId": "0x7a69"
      },
      "additionalContracts": [],
      "isFixedGasLimit": false
    }
  ],
  "receipts": [
    {
      "status": "0x1",
      "cumulativeGasUsed": "0x201ee",
      "logs": [
        {
          "address": "0xc02aaa39b223fe8d0a0e5c4f27ead9083c756cc2",
          "topics": [
            "0xddf252ad1be2c89b69c2b068fc378daa952ba7f163c4a11628f55a4df523b3ef",
            "0x000000000000000000000000e233420d38d286c2f2cf8dee6564f132fbdb09db",
            "0x0000000000000000000000001804c8ab1f12e6bbf3894d4083f33e07309d1f38"
          ],
          "data": "0x000000000000000000000000000000000000000000000000000119f17fe16000",
          "blockHash": "0x562ed17cdf9a16903bef31f405346785c182e43fb63cdee7c67ca5469e761c8f",
          "blockNumber": "0x17b73be",
          "blockTimestamp": "0x69e663d1",
          "transactionHash": "0xf1570d8a5cd627cfdd5a04e4853b6c6292c532fa7af7249f1ba16d3995fbb900",
          "transactionIndex": "0x0",
          "logIndex": "0x0",
          "removed": false
        },
        {
          "address": "0xc02aaa39b223fe8d0a0e5c4f27ead9083c756cc2",
          "topics": [
            "0xddf252ad1be2c89b69c2b068fc378daa952ba7f163c4a11628f55a4df523b3ef",
            "0x000000000000000000000000e233420d38d286c2f2cf8dee6564f132fbdb09db",
            "0x000000000000000000000000e3745c151fab59b0740f4312b2b027f07d096639"
          ],
          "data": "0x000000000000000000000000000000000000000000000000006d086474282000",
          "blockHash": "0x562ed17cdf9a16903bef31f405346785c182e43fb63cdee7c67ca5469e761c8f",
          "blockNumber": "0x17b73be",
          "blockTimestamp": "0x69e663d1",
          "transactionHash": "0xf1570d8a5cd627cfdd5a04e4853b6c6292c532fa7af7249f1ba16d3995fbb900",
          "transactionIndex": "0x0",
          "logIndex": "0x1",
          "removed": false
        },
        {
          "address": "0x38d4de42c9c5640a2799b372d27b01957e0a3673",
          "topics": [
            "0xddf252ad1be2c89b69c2b068fc378daa952ba7f163c4a11628f55a4df523b3ef",
            "0x000000000000000000000000e3745c151fab59b0740f4312b2b027f07d096639",
            "0x000000000000000000000000e233420d38d286c2f2cf8dee6564f132fbdb09db",
            "0x000000000000000000000000000000000000000000000000000000000000004f"
          ],
          "data": "0x",
          "blockHash": "0x562ed17cdf9a16903bef31f405346785c182e43fb63cdee7c67ca5469e761c8f",
          "blockNumber": "0x17b73be",
          "blockTimestamp": "0x69e663d1",
          "transactionHash": "0xf1570d8a5cd627cfdd5a04e4853b6c6292c532fa7af7249f1ba16d3995fbb900",
          "transactionIndex": "0x0",
          "logIndex": "0x2",
          "removed": false
        },
        {
          "address": "0x73973d222c3fda5b2563d269da9e19cb125000f4",
          "topics": [
            "0xc0ac3eb1e8caef05b202043f34de8e3173fab712167584f7a2a9f4c302bd0e9c",
            "0x34637fd7c7dc17d10a877fa82d8e64a6b60305e190707d5574c03dce114d46ed",
            "0x00000000000000000000000038d4de42c9c5640a2799b372d27b01957e0a3673",
            "0x000000000000000000000000000000000000000000000000000000000000004f"
          ],
          "data": "0x000000000000000000000000e3745c151fab59b0740f4312b2b027f07d096639000000000000000000000000e233420d38d286c2f2cf8dee6564f132fbdb09db000000000000000000000000c02aaa39b223fe8d0a0e5c4f27ead9083c756cc2000000000000000000000000000000000000000000000000006e2255f4098000",
          "blockHash": "0x562ed17cdf9a16903bef31f405346785c182e43fb63cdee7c67ca5469e761c8f",
          "blockNumber": "0x17b73be",
          "blockTimestamp": "0x69e663d1",
          "transactionHash": "0xf1570d8a5cd627cfdd5a04e4853b6c6292c532fa7af7249f1ba16d3995fbb900",
          "transactionIndex": "0x0",
          "logIndex": "0x3",
          "removed": false
        }
      ],
      "logsBloom": "0x00000000000000000000000000004000000000000102000000000000000000000000000000000000000000000000020042000000080000000004100000100000000000000000001021000008000000002000000000000000000000000000000000000001000000000001000080000000000000000000000000000010000000000000000000000000000004000000000000000000002008000000000000000000000001000000000000000000000000000000000000000080400000000000000000000012000004000000000000000000000400000002000000000040000000000100200000000000000000000000000000000000000000000000000000000000",
      "type": "0x2",
      "transactionHash": "0xf1570d8a5cd627cfdd5a04e4853b6c6292c532fa7af7249f1ba16d3995fbb900",
      "transactionIndex": "0x0",
      "blockHash": "0x562ed17cdf9a16903bef31f405346785c182e43fb63cdee7c67ca5469e761c8f",
      "blockNumber": "0x17b73be",
      "gasUsed": "0x201ee",
      "effectiveGasPrice": "0xf4248",
      "blobGasPrice": "0x1",
      "from": "0xe3745c151fab59b0740f4312b2b027f07d096639",
      "to": "0x73973d222c3fda5b2563d269da9e19cb125000f4",
      "contractAddress": null
    }
  ],
  "libraries": [],
  "pending": [],
  "returns": {},
  "timestamp": 1778453767487,
  "chain": 31337,
  "commit": "f87d399"
}