{
  "transactions": [
    {
      "hash": "0x05dbb314751a88a30b0b9a48c8575721d666d5a0aab44e43be947f7854c58986",
      "transactionType": "CALL",
      "contractName": null,
      "contractAddress": "0x8fa71914948544c60e3379064567dcf0e6564d27",
      "function": "settle((uint256,address),(uint8,bool,address,uint256,address,uint256,address,uint64,uint64,uint256),(uint8,bytes32,bytes32))",
      "arguments": [
        "(1, 0xe3745C151faB59B0740f4312b2B027F07D096639)",
        "(1, false, 0xA5f104F8f78d5ba9AEC4a383c0927337Fd4E997B, 1, 0xC02aaA39b223FE8D0A0e5C4F27eAD9083C756Cc2, 9000000000000000, 0x08312E82df563A1639b81f49bb41247759700e30, 1772579341, 1779594945, 20)",
        "(28, 0xf1e8ef78d051f7cc3ac69a933beacedfa49216427d3e66261c8a96afb377e41c, 0x1d0e45434195d0a4d1db3ec5f3c27c088b2a32815b7cc029a1564b405c80faab)"
      ],
      "transaction": {
        "from": "0xe3745c151fab59b0740f4312b2b027f07d096639",
        "to": "0x8fa71914948544c60e3379064567dcf0e6564d27",
        "gas": "0x2c5dc",
        "value": "0x0",
        "input": "0x3bae3e790000000000000000000000000000000000000000000000000000000000000001000000000000000000000000e3745c151fab59b0740f4312b2b027f07d09663900000000000000000000000000000000000000000000000000000000000000010000000000000000000000000000000000000000000000000000000000000000000000000000000000000000a5f104f8f78d5ba9aec4a383c0927337fd4e997b0000000000000000000000000000000000000000000000000000000000000001000000000000000000000000c02aaa39b223fe8d0a0e5c4f27ead9083c756cc2000000000000000000000000000000000000000000000000001ff973cafa800000000000000000000000000008312e82df563a1639b81f49bb41247759700e300000000000000000000000000000000000000000000000000000000069a76a0d000000000000000000000000000000000000000000000000000000006a1276c10000000000000000000000000000000000000000000000000000000000000014000000000000000000000000000000000000000000000000000000000000001cf1e8ef78d051f7cc3ac69a933beacedfa49216427d3e66261c8a96afb377e41c1d0e45434195d0a4d1db3ec5f3c27c088b2a32815b7cc029a1564b405c80faab",
        "nonce": "0x56",
        "chainId": "0x7a69"
      },
      "additionalContracts": [],
      "isFixedGasLimit": false
    }
  ],
  "receipts": [
    {
      "status": "0x1",
      "cumulativeGasUsed": "0x201ee",
      "logs": [
        {
          "address": "0xc02aaa39b223fe8d0a0e5c4f27ead9083c756cc2",
          "topics": [
            "0xddf252ad1be2c89b69c2b068fc378daa952ba7f163c4a11628f55a4df523b3ef",
            "0x00000000000000000000000008312e82df563a1639b81f49bb41247759700e30",
            "0x0000000000000000000000001804c8ab1f12e6bbf3894d4083f33e07309d1f38"
          ],
          "data": "0x000000000000000000000000000000000000000000000000000051dac207a000",
          "blockHash": "0xf4354d0566171a2a8d22d3e650980b5f6b38184b5051933110af0d8814647304",
          "blockNumber": "0x17b8399",
          "blockTimestamp": "0x69fe748c",
          "transactionHash": "0x05dbb314751a88a30b0b9a48c8575721d666d5a0aab44e43be947f7854c58986",
          "transactionIndex": "0x0",
          "logIndex": "0x0",
          "removed": false
        },
        {
          "address": "0xc02aaa39b223fe8d0a0e5c4f27ead9083c756cc2",
          "topics": [
            "0xddf252ad1be2c89b69c2b068fc378daa952ba7f163c4a11628f55a4df523b3ef",
            "0x00000000000000000000000008312e82df563a1639b81f49bb41247759700e30",
            "0x000000000000000000000000e3745c151fab59b0740f4312b2b027f07d096639"
          ],
          "data": "0x000000000000000000000000000000000000000000000000001fa79908f2e000",
          "blockHash": "0xf4354d0566171a2a8d22d3e650980b5f6b38184b5051933110af0d8814647304",
          "blockNumber": "0x17b8399",
          "blockTimestamp": "0x69fe748c",
          "transactionHash": "0x05dbb314751a88a30b0b9a48c8575721d666d5a0aab44e43be947f7854c58986",
          "transactionIndex": "0x0",
          "logIndex": "0x1",
          "removed": false
        },
        {
          "address": "0xa5f104f8f78d5ba9aec4a383c0927337fd4e997b",
          "topics": [
            "0xddf252ad1be2c89b69c2b068fc378daa952ba7f163c4a11628f55a4df523b3ef",
            "0x000000000000000000000000e3745c151fab59b0740f4312b2b027f07d096639",
            "0x00000000000000000000000008312e82df563a1639b81f49bb41247759700e30",
            "0x0000000000000000000000000000000000000000000000000000000000000001"
          ],
          "data": "0x",
          "blockHash": "0xf4354d0566171a2a8d22d3e650980b5f6b38184b5051933110af0d8814647304",
          "blockNumber": "0x17b8399",
          "blockTimestamp": "0x69fe748c",
          "transactionHash": "0x05dbb314751a88a30b0b9a48c8575721d666d5a0aab44e43be947f7854c58986",
          "transactionIndex": "0x0",
          "logIndex": "0x2",
          "removed": false
        },
        {
          "address": "0x8fa71914948544c60e3379064567dcf0e6564d27",
          "topics": [
            "0xc0ac3eb1e8caef05b202043f34de8e3173fab712167584f7a2a9f4c302bd0e9c",
            "0xcf16be2dfc3f471e95032925a431f0bbf46e06c2fff138c1f9cbd15147503966",
            "0x000000000000000000000000a5f104f8f78d5ba9aec4a383c0927337fd4e997b",
            "0x0000000000000000000000000000000000000000000000000000000000000001"
          ],
          "data": "0x000000000000000000000000e3745c151fab59b0740f4312b2b027f07d09663900000000000000000000000008312e82df563a1639b81f49bb41247759700e30000000000000000000000000c02aaa39b223fe8d0a0e5c4f27ead9083c756cc2000000000000000000000000000000000000000000000000001ff973cafa8000",
          "blockHash": "0xf4354d0566171a2a8d22d3e650980b5f6b38184b5051933110af0d8814647304",
          "blockNumber": "0x17b8399",
          "blockTimestamp": "0x69fe748c",
          "transactionHash": "0x05dbb314751a88a30b0b9a48c8575721d666d5a0aab44e43be947f7854c58986",
          "transactionIndex": "0x0",
          "logIndex": "0x3",
          "removed": false
        }
      ],
      "logsBloom": "0x0000000000000000000001000100000000000000010000000000000000000000000000000010000000000000000000004200000008000000000000000014000000000000000000000001000800000000000000000004000008000000000000000000000001000000000100000000000000000000000000000000001020000000080000000004000000000400000000000000000000000000000000000c000000000000200000000400000000000000000000000000000080000000000000000000000002000004000000000000000000000000000000000080000040000040000100200000000000000000000000000000000000004000000000000000000000",
      "type": "0x2",
      "transactionHash": "0x05dbb314751a88a30b0b9a48c8575721d666d5a0aab44e43be947f7854c58986",
      "transactionIndex": "0x0",
      "blockHash": "0xf4354d0566171a2a8d22d3e650980b5f6b38184b5051933110af0d8814647304",
      "blockNumber": "0x17b8399",
      "gasUsed": "0x201ee",
      "effectiveGasPrice": "0x1ba81c",
      "blobGasPrice": "0x1",
      "from": "0xe3745c151fab59b0740f4312b2b027f07d096639",
      "to": "0x8fa71914948544c60e3379064567dcf0e6564d27",
      "contractAddress": null
    }
  ],
  "libraries": [],
  "pending": [],
  "returns": {},
  "timestamp": 1778506543242,
  "chain": 31337,
  "commit": "59e30a9"
}