{
  "transactions": [
    {
      "hash": "0x023dccde4c213fdb1f0c6a4fa76cb0c4098359dcf4f9fd6180d9c3c568cae3a8",
      "transactionType": "CALL",
      "contractName": null,
      "contractAddress": "0x73973d222c3fda5b2563d269da9e19cb125000f4",
      "function": "settle((uint256,address),(uint8,bool,address,uint256,address,uint256,address,uint64,uint64,uint256),(uint8,bytes32,bytes32))",
      "arguments": [
        "(463, 0xa382b0E75C192D9CDF5c084E58b750Cea7761Bd0)",
        "(1, false, 0x38D4dE42C9c5640A2799B372D27B01957E0a3673, 463, 0xC02aaA39b223FE8D0A0e5C4F27eAD9083C756Cc2, 24000000000000000, 0xE233420d38D286C2F2Cf8dEe6564F132FBDB09DB, 1771951074, 1780114564, 7)",
        "(27, 0xbed3726ca5c66de9750583619f29b2153dd301a7ede59cba92a0dbb02e8aea4d, 0x38ad96243e3a1f3efb12b8d8a36b2b258e8edf1d34a984050f7b5e67085e3cca)"
      ],
      "transaction": {
        "from": "0xa382b0e75c192d9cdf5c084e58b750cea7761bd0",
        "to": "0x73973d222c3fda5b2563d269da9e19cb125000f4",
        "gas": "0x2c5d2",
        "value": "0x0",
        "input": "0x3bae3e7900000000000000000000000000000000000000000000000000000000000001cf000000000000000000000000a382b0e75c192d9cdf5c084e58b750cea7761bd00000000000000000000000000000000000000000000000000000000000000001000000000000000000000000000000000000000000000000000000000000000000000000000000000000000038d4de42c9c5640a2799b372d27b01957e0a367300000000000000000000000000000000000000000000000000000000000001cf000000000000000000000000c02aaa39b223fe8d0a0e5c4f27ead9083c756cc2000000000000000000000000000000000000000000000000005543df729c0000000000000000000000000000e233420d38d286c2f2cf8dee6564f132fbdb09db00000000000000000000000000000000000000000000000000000000699dd3e2000000000000000000000000000000000000000000000000000000006a1a64840000000000000000000000000000000000000000000000000000000000000007000000000000000000000000000000000000000000000000000000000000001bbed3726ca5c66de9750583619f29b2153dd301a7ede59cba92a0dbb02e8aea4d38ad96243e3a1f3efb12b8d8a36b2b258e8edf1d34a984050f7b5e67085e3cca",
        "nonce": "0x60",
        "chainId": "0x7a69"
      },
      "additionalContracts": [],
      "isFixedGasLimit": false
    }
  ],
  "receipts": [
    {
      "status": "0x1",
      "cumulativeGasUsed": "0x201e6",
      "logs": [
        {
          "address": "0xc02aaa39b223fe8d0a0e5c4f27ead9083c756cc2",
          "topics": [
            "0xddf252ad1be2c89b69c2b068fc378daa952ba7f163c4a11628f55a4df523b3ef",
            "0x000000000000000000000000e233420d38d286c2f2cf8dee6564f132fbdb09db",
            "0x0000000000000000000000001804c8ab1f12e6bbf3894d4083f33e07309d1f38"
          ],
          "data": "0x0000000000000000000000000000000000000000000000000000da475abf0000",
          "blockHash": "0x1ae5f5a675d2dc6dfa3de10b1d37ece7b0136f6c038a162681a4e0185d8db17f",
          "blockNumber": "0x17b73e7",
          "blockTimestamp": "0x69ed65b4",
          "transactionHash": "0x023dccde4c213fdb1f0c6a4fa76cb0c4098359dcf4f9fd6180d9c3c568cae3a8",
          "transactionIndex": "0x0",
          "logIndex": "0x0",
          "removed": false
        },
        {
          "address": "0xc02aaa39b223fe8d0a0e5c4f27ead9083c756cc2",
          "topics": [
            "0xddf252ad1be2c89b69c2b068fc378daa952ba7f163c4a11628f55a4df523b3ef",
            "0x000000000000000000000000e233420d38d286c2f2cf8dee6564f132fbdb09db",
            "0x000000000000000000000000a382b0e75c192d9cdf5c084e58b750cea7761bd0"
          ],
          "data": "0x0000000000000000000000000000000000000000000000000054699817dd0000",
          "blockHash": "0x1ae5f5a675d2dc6dfa3de10b1d37ece7b0136f6c038a162681a4e0185d8db17f",
          "blockNumber": "0x17b73e7",
          "blockTimestamp": "0x69ed65b4",
          "transactionHash": "0x023dccde4c213fdb1f0c6a4fa76cb0c4098359dcf4f9fd6180d9c3c568cae3a8",
          "transactionIndex": "0x0",
          "logIndex": "0x1",
          "removed": false
        },
        {
          "address": "0x38d4de42c9c5640a2799b372d27b01957e0a3673",
          "topics": [
            "0xddf252ad1be2c89b69c2b068fc378daa952ba7f163c4a11628f55a4df523b3ef",
            "0x000000000000000000000000a382b0e75c192d9cdf5c084e58b750cea7761bd0",
            "0x000000000000000000000000e233420d38d286c2f2cf8dee6564f132fbdb09db",
            "0x00000000000000000000000000000000000000000000000000000000000001cf"
          ],
          "data": "0x",
          "blockHash": "0x1ae5f5a675d2dc6dfa3de10b1d37ece7b0136f6c038a162681a4e0185d8db17f",
          "blockNumber": "0x17b73e7",
          "blockTimestamp": "0x69ed65b4",
          "transactionHash": "0x023dccde4c213fdb1f0c6a4fa76cb0c4098359dcf4f9fd6180d9c3c568cae3a8",
          "transactionIndex": "0x0",
          "logIndex": "0x2",
          "removed": false
        },
        {
          "address": "0x73973d222c3fda5b2563d269da9e19cb125000f4",
          "topics": [
            "0xc0ac3eb1e8caef05b202043f34de8e3173fab712167584f7a2a9f4c302bd0e9c",
            "0xf9064a7e51e45e84d9f24ea78971d4012292e4f8db25eb8ea65b0ef376c89a4a",
            "0x00000000000000000000000038d4de42c9c5640a2799b372d27b01957e0a3673",
            "0x00000000000000000000000000000000000000000000000000000000000001cf"
          ],
          "data": "0x000000000000000000000000a382b0e75c192d9cdf5c084e58b750cea7761bd0000000000000000000000000e233420d38d286c2f2cf8dee6564f132fbdb09db000000000000000000000000c02aaa39b223fe8d0a0e5c4f27ead9083c756cc2000000000000000000000000000000000000000000000000005543df729c0000",
          "blockHash": "0x1ae5f5a675d2dc6dfa3de10b1d37ece7b0136f6c038a162681a4e0185d8db17f",
          "blockNumber": "0x17b73e7",
          "blockTimestamp": "0x69ed65b4",
          "transactionHash": "0x023dccde4c213fdb1f0c6a4fa76cb0c4098359dcf4f9fd6180d9c3c568cae3a8",
          "transactionIndex": "0x0",
          "logIndex": "0x3",
          "removed": false
        }
      ],
      "logsBloom": "0x00000000000000000000000000000000000000000002000000000000000000000000000000000000000000000000020002000000080000000004100000100000000000000000001021000008000000000000000000022000000000000000000000000001000000000001000000000000000000000000040000000010000000000000000000000008000004000000000000100000080008000000000000000000000000000000000000000000000000000000000000000080400000000000000000000012000004000000000000000000000000000002000010000000000000000100200000000000000000000000000000000000100200000000000000000000",
      "type": "0x2",
      "transactionHash": "0x023dccde4c213fdb1f0c6a4fa76cb0c4098359dcf4f9fd6180d9c3c568cae3a8",
      "transactionIndex": "0x0",
      "blockHash": "0x1ae5f5a675d2dc6dfa3de10b1d37ece7b0136f6c038a162681a4e0185d8db17f",
      "blockNumber": "0x17b73e7",
      "gasUsed": "0x201e6",
      "effectiveGasPrice": "0xf4248",
      "blobGasPrice": "0x1",
      "from": "0xa382b0e75c192d9cdf5c084e58b750cea7761bd0",
      "to": "0x73973d222c3fda5b2563d269da9e19cb125000f4",
      "contractAddress": null
    }
  ],
  "libraries": [],
  "pending": [],
  "returns": {},
  "timestamp": 1778453803221,
  "chain": 31337,
  "commit": "f87d399"
}