{
  "transactions": [
    {
      "hash": "0x12ea3dc6243e3bb98bb75fc1e20603230825c7eaa1c02554ed7dbdc9d4209388",
      "transactionType": "CALL",
      "contractName": null,
      "contractAddress": "0x8fa71914948544c60e3379064567dcf0e6564d27",
      "function": "settle((uint256,address),(uint8,bool,address,uint256,address,uint256,address,uint64,uint64,uint256),(uint8,bytes32,bytes32))",
      "arguments": [
        "(203, 0x2c2dbA75492E0C4A1D10B41303167aEC59586C9c)",
        "(1, false, 0xA5f104F8f78d5ba9AEC4a383c0927337Fd4E997B, 203, 0xC02aaA39b223FE8D0A0e5C4F27eAD9083C756Cc2, 9000000000000000, 0x646dC5Fc4009C4C84a424B6aE0f494b374bAE1Ce, 1772709520, 1779464766, 13)",
        "(27, 0x02f4d2f64657b9ad87617e8e8b80ee3bf77ed8e1570ea8f2f25d87e9b75956f5, 0x6be7618d9f8f7c520efd08d1a6aeb3b098d322080c07bf8a96fe43a780ec047e)"
      ],
      "transaction": {
        "from": "0x2c2dba75492e0c4a1d10b41303167aec59586c9c",
        "to": "0x8fa71914948544c60e3379064567dcf0e6564d27",
        "gas": "0x2ef81",
        "value": "0x0",
        "input": "0x3bae3e7900000000000000000000000000000000000000000000000000000000000000cb0000000000000000000000002c2dba75492e0c4a1d10b41303167aec59586c9c00000000000000000000000000000000000000000000000000000000000000010000000000000000000000000000000000000000000000000000000000000000000000000000000000000000a5f104f8f78d5ba9aec4a383c0927337fd4e997b00000000000000000000000000000000000000000000000000000000000000cb000000000000000000000000c02aaa39b223fe8d0a0e5c4f27ead9083c756cc2000000000000000000000000000000000000000000000000001ff973cafa8000000000000000000000000000646dc5fc4009c4c84a424b6ae0f494b374bae1ce0000000000000000000000000000000000000000000000000000000069a96690000000000000000000000000000000000000000000000000000000006a107a3e000000000000000000000000000000000000000000000000000000000000000d000000000000000000000000000000000000000000000000000000000000001b02f4d2f64657b9ad87617e8e8b80ee3bf77ed8e1570ea8f2f25d87e9b75956f56be7618d9f8f7c520efd08d1a6aeb3b098d322080c07bf8a96fe43a780ec047e",
        "nonce": "0x33",
        "chainId": "0x7a69"
      },
      "additionalContracts": [],
      "isFixedGasLimit": false
    }
  ],
  "receipts": [
    {
      "status": "0x1",
      "cumulativeGasUsed": "0x201da",
      "logs": [
        {
          "address": "0xc02aaa39b223fe8d0a0e5c4f27ead9083c756cc2",
          "topics": [
            "0xddf252ad1be2c89b69c2b068fc378daa952ba7f163c4a11628f55a4df523b3ef",
            "0x000000000000000000000000646dc5fc4009c4c84a424b6ae0f494b374bae1ce",
            "0x0000000000000000000000001804c8ab1f12e6bbf3894d4083f33e07309d1f38"
          ],
          "data": "0x000000000000000000000000000000000000000000000000000051dac207a000",
          "blockHash": "0xb903a727c35febf63e86e76b7636a5753e77aea755aa3a3da3f725955872ef5f",
          "blockNumber": "0x17b8363",
          "blockTimestamp": "0x69f2558c",
          "transactionHash": "0x12ea3dc6243e3bb98bb75fc1e20603230825c7eaa1c02554ed7dbdc9d4209388",
          "transactionIndex": "0x0",
          "logIndex": "0x0",
          "removed": false
        },
        {
          "address": "0xc02aaa39b223fe8d0a0e5c4f27ead9083c756cc2",
          "topics": [
            "0xddf252ad1be2c89b69c2b068fc378daa952ba7f163c4a11628f55a4df523b3ef",
            "0x000000000000000000000000646dc5fc4009c4c84a424b6ae0f494b374bae1ce",
            "0x0000000000000000000000002c2dba75492e0c4a1d10b41303167aec59586c9c"
          ],
          "data": "0x000000000000000000000000000000000000000000000000001fa79908f2e000",
          "blockHash": "0xb903a727c35febf63e86e76b7636a5753e77aea755aa3a3da3f725955872ef5f",
          "blockNumber": "0x17b8363",
          "blockTimestamp": "0x69f2558c",
          "transactionHash": "0x12ea3dc6243e3bb98bb75fc1e20603230825c7eaa1c02554ed7dbdc9d4209388",
          "transactionIndex": "0x0",
          "logIndex": "0x1",
          "removed": false
        },
        {
          "address": "0xa5f104f8f78d5ba9aec4a383c0927337fd4e997b",
          "topics": [
            "0xddf252ad1be2c89b69c2b068fc378daa952ba7f163c4a11628f55a4df523b3ef",
            "0x0000000000000000000000002c2dba75492e0c4a1d10b41303167aec59586c9c",
            "0x000000000000000000000000646dc5fc4009c4c84a424b6ae0f494b374bae1ce",
            "0x00000000000000000000000000000000000000000000000000000000000000cb"
          ],
          "data": "0x",
          "blockHash": "0xb903a727c35febf63e86e76b7636a5753e77aea755aa3a3da3f725955872ef5f",
          "blockNumber": "0x17b8363",
          "blockTimestamp": "0x69f2558c",
          "transactionHash": "0x12ea3dc6243e3bb98bb75fc1e20603230825c7eaa1c02554ed7dbdc9d4209388",
          "transactionIndex": "0x0",
          "logIndex": "0x2",
          "removed": false
        },
        {
          "address": "0x8fa71914948544c60e3379064567dcf0e6564d27",
          "topics": [
            "0xc0ac3eb1e8caef05b202043f34de8e3173fab712167584f7a2a9f4c302bd0e9c",
            "0x669907bae5fcaca37750d805c2731c6e2e0923bf546e1f93fbf4098bb4f02a15",
            "0x000000000000000000000000a5f104f8f78d5ba9aec4a383c0927337fd4e997b",
            "0x00000000000000000000000000000000000000000000000000000000000000cb"
          ],
          "data": "0x0000000000000000000000002c2dba75492e0c4a1d10b41303167aec59586c9c000000000000000000000000646dc5fc4009c4c84a424b6ae0f494b374bae1ce000000000000000000000000c02aaa39b223fe8d0a0e5c4f27ead9083c756cc2000000000000000000000000000000000000000000000000001ff973cafa8000",
          "blockHash": "0xb903a727c35febf63e86e76b7636a5753e77aea755aa3a3da3f725955872ef5f",
          "blockNumber": "0x17b8363",
          "blockTimestamp": "0x69f2558c",
          "transactionHash": "0x12ea3dc6243e3bb98bb75fc1e20603230825c7eaa1c02554ed7dbdc9d4209388",
          "transactionIndex": "0x0",
          "logIndex": "0x3",
          "removed": false
        }
      ],
      "logsBloom": "0x00000000000040000000010000000000000000000002000000000000000000000000000000000000020000000000000002000000090000000000000800100000000200000000000000010008000000000000000000000000080000000000000000080000000004000005000000000000000000000000000000000010200000000800000000040000000004000000000000002000000000000000080000000000000000200000000400000000000000000000000000000080000000000000000000000002000084000000000000000000000000000000000080000000000000000100200000000000000000000000000000000000000000000000000000000000",
      "type": "0x2",
      "transactionHash": "0x12ea3dc6243e3bb98bb75fc1e20603230825c7eaa1c02554ed7dbdc9d4209388",
      "transactionIndex": "0x0",
      "blockHash": "0xb903a727c35febf63e86e76b7636a5753e77aea755aa3a3da3f725955872ef5f",
      "blockNumber": "0x17b8363",
      "gasUsed": "0x201da",
      "effectiveGasPrice": "0x1ba81c",
      "blobGasPrice": "0x1",
      "from": "0x2c2dba75492e0c4a1d10b41303167aec59586c9c",
      "to": "0x8fa71914948544c60e3379064567dcf0e6564d27",
      "contractAddress": null
    }
  ],
  "libraries": [],
  "pending": [],
  "returns": {},
  "timestamp": 1778506483805,
  "chain": 31337,
  "commit": "59e30a9"
}