{
  "transactions": [
    {
      "hash": "0xc3cb5c77b5b5ca91a6b9a63df1af9d4555b19f95984ece9930295d92d6d0337f",
      "transactionType": "CALL",
      "contractName": null,
      "contractAddress": "0x8fa71914948544c60e3379064567dcf0e6564d27",
      "function": "settle((uint256,address),(uint8,bool,address,uint256,address,uint256,address,uint64,uint64,uint256),(uint8,bytes32,bytes32))",
      "arguments": [
        "(329, 0xe3745C151faB59B0740f4312b2B027F07D096639)",
        "(1, false, 0xA5f104F8f78d5ba9AEC4a383c0927337Fd4E997B, 329, 0xC02aaA39b223FE8D0A0e5C4F27eAD9083C756Cc2, 10000000000000000, 0x2c2dbA75492E0C4A1D10B41303167aEC59586C9c, 1772850631, 1779323655, 5)",
        "(28, 0x184ebd629c880d19c138b3f33a1ca627952502e6fd5df40259a24e4926e92e2d, 0x7dcdbd12b98714a9692fa0345973df3a3e40c70639c83397d686587f185896b5)"
      ],
      "transaction": {
        "from": "0xe3745c151fab59b0740f4312b2b027f07d096639",
        "to": "0x8fa71914948544c60e3379064567dcf0e6564d27",
        "gas": "0x2efb0",
        "value": "0x0",
        "input": "0x3bae3e790000000000000000000000000000000000000000000000000000000000000149000000000000000000000000e3745c151fab59b0740f4312b2b027f07d09663900000000000000000000000000000000000000000000000000000000000000010000000000000000000000000000000000000000000000000000000000000000000000000000000000000000a5f104f8f78d5ba9aec4a383c0927337fd4e997b0000000000000000000000000000000000000000000000000000000000000149000000000000000000000000c02aaa39b223fe8d0a0e5c4f27ead9083c756cc2000000000000000000000000000000000000000000000000002386f26fc100000000000000000000000000002c2dba75492e0c4a1d10b41303167aec59586c9c0000000000000000000000000000000000000000000000000000000069ab8dc7000000000000000000000000000000000000000000000000000000006a0e53070000000000000000000000000000000000000000000000000000000000000005000000000000000000000000000000000000000000000000000000000000001c184ebd629c880d19c138b3f33a1ca627952502e6fd5df40259a24e4926e92e2d7dcdbd12b98714a9692fa0345973df3a3e40c70639c83397d686587f185896b5",
        "nonce": "0x4b",
        "chainId": "0x7a69"
      },
      "additionalContracts": [],
      "isFixedGasLimit": false
    }
  ],
  "receipts": [
    {
      "status": "0x1",
      "cumulativeGasUsed": "0x201fa",
      "logs": [
        {
          "address": "0xc02aaa39b223fe8d0a0e5c4f27ead9083c756cc2",
          "topics": [
            "0xddf252ad1be2c89b69c2b068fc378daa952ba7f163c4a11628f55a4df523b3ef",
            "0x0000000000000000000000002c2dba75492e0c4a1d10b41303167aec59586c9c",
            "0x0000000000000000000000001804c8ab1f12e6bbf3894d4083f33e07309d1f38"
          ],
          "data": "0x00000000000000000000000000000000000000000000000000005af3107a4000",
          "blockHash": "0xfefed67c375d328128249a810ec88526033757ed4ec59b6abe9e3f08a7a33811",
          "blockNumber": "0x17b834b",
          "blockTimestamp": "0x69ecaee9",
          "transactionHash": "0xc3cb5c77b5b5ca91a6b9a63df1af9d4555b19f95984ece9930295d92d6d0337f",
          "transactionIndex": "0x0",
          "logIndex": "0x0",
          "removed": false
        },
        {
          "address": "0xc02aaa39b223fe8d0a0e5c4f27ead9083c756cc2",
          "topics": [
            "0xddf252ad1be2c89b69c2b068fc378daa952ba7f163c4a11628f55a4df523b3ef",
            "0x0000000000000000000000002c2dba75492e0c4a1d10b41303167aec59586c9c",
            "0x000000000000000000000000e3745c151fab59b0740f4312b2b027f07d096639"
          ],
          "data": "0x00000000000000000000000000000000000000000000000000232bff5f46c000",
          "blockHash": "0xfefed67c375d328128249a810ec88526033757ed4ec59b6abe9e3f08a7a33811",
          "blockNumber": "0x17b834b",
          "blockTimestamp": "0x69ecaee9",
          "transactionHash": "0xc3cb5c77b5b5ca91a6b9a63df1af9d4555b19f95984ece9930295d92d6d0337f",
          "transactionIndex": "0x0",
          "logIndex": "0x1",
          "removed": false
        },
        {
          "address": "0xa5f104f8f78d5ba9aec4a383c0927337fd4e997b",
          "topics": [
            "0xddf252ad1be2c89b69c2b068fc378daa952ba7f163c4a11628f55a4df523b3ef",
            "0x000000000000000000000000e3745c151fab59b0740f4312b2b027f07d096639",
            "0x0000000000000000000000002c2dba75492e0c4a1d10b41303167aec59586c9c",
            "0x0000000000000000000000000000000000000000000000000000000000000149"
          ],
          "data": "0x",
          "blockHash": "0xfefed67c375d328128249a810ec88526033757ed4ec59b6abe9e3f08a7a33811",
          "blockNumber": "0x17b834b",
          "blockTimestamp": "0x69ecaee9",
          "transactionHash": "0xc3cb5c77b5b5ca91a6b9a63df1af9d4555b19f95984ece9930295d92d6d0337f",
          "transactionIndex": "0x0",
          "logIndex": "0x2",
          "removed": false
        },
        {
          "address": "0x8fa71914948544c60e3379064567dcf0e6564d27",
          "topics": [
            "0xc0ac3eb1e8caef05b202043f34de8e3173fab712167584f7a2a9f4c302bd0e9c",
            "0x96b203abbc223763a27c5747cd4f48e090c6d2da0decb778afc9723a968ba681",
            "0x000000000000000000000000a5f104f8f78d5ba9aec4a383c0927337fd4e997b",
            "0x0000000000000000000000000000000000000000000000000000000000000149"
          ],
          "data": "0x000000000000000000000000e3745c151fab59b0740f4312b2b027f07d0966390000000000000000000000002c2dba75492e0c4a1d10b41303167aec59586c9c000000000000000000000000c02aaa39b223fe8d0a0e5c4f27ead9083c756cc2000000000000000000000000000000000000000000000000002386f26fc10000",
          "blockHash": "0xfefed67c375d328128249a810ec88526033757ed4ec59b6abe9e3f08a7a33811",
          "blockNumber": "0x17b834b",
          "blockTimestamp": "0x69ecaee9",
          "transactionHash": "0xc3cb5c77b5b5ca91a6b9a63df1af9d4555b19f95984ece9930295d92d6d0337f",
          "transactionIndex": "0x0",
          "logIndex": "0x3",
          "removed": false
        }
      ],
      "logsBloom": "0x00000000000000000000010000000000000000000100000000000000000000000000000000000000000000000000000042000000080000000000000800100000000200000000000000010008000000000000000000020000080000000000000000000000000004000001000000000000000000000000000002000010200000000800000000240000000004000000000000000000000000000020000000000000000000200000000400000000000000000000000000000080000000000000000000000002000004000000000000000000000200000000000080000040000000004100200000000000000000000000000000000000000000000000000000000000",
      "type": "0x2",
      "transactionHash": "0xc3cb5c77b5b5ca91a6b9a63df1af9d4555b19f95984ece9930295d92d6d0337f",
      "transactionIndex": "0x0",
      "blockHash": "0xfefed67c375d328128249a810ec88526033757ed4ec59b6abe9e3f08a7a33811",
      "blockNumber": "0x17b834b",
      "gasUsed": "0x201fa",
      "effectiveGasPrice": "0x1ba81c",
      "blobGasPrice": "0x1",
      "from": "0xe3745c151fab59b0740f4312b2b027f07d096639",
      "to": "0x8fa71914948544c60e3379064567dcf0e6564d27",
      "contractAddress": null
    }
  ],
  "libraries": [],
  "pending": [],
  "returns": {},
  "timestamp": 1778506452436,
  "chain": 31337,
  "commit": "59e30a9"
}