{
  "transactions": [
    {
      "hash": "0x6e09b14c6a1e1f5cf1d4d2102dad3efaa1a90e29fd24f3f87f418f22fd91cf5d",
      "transactionType": "CALL",
      "contractName": null,
      "contractAddress": "0x8fa71914948544c60e3379064567dcf0e6564d27",
      "function": "settle((uint256,address),(uint8,bool,address,uint256,address,uint256,address,uint64,uint64,uint256),(uint8,bytes32,bytes32))",
      "arguments": [
        "(372, 0x1302F142Fc55B165647d3Bd5dec227f569A2A907)",
        "(1, false, 0xA5f104F8f78d5ba9AEC4a383c0927337Fd4E997B, 372, 0xC02aaA39b223FE8D0A0e5C4F27eAD9083C756Cc2, 23000000000000000, 0xcbe5659df21Cbcfabe4da962F7a9081F26B3ed82, 1773340491, 1778833795, 3)",
        "(28, 0xc74986109d6cf1992525d72274d3ccb53b31a354e0bd8ca45644f11d70fcca67, 0x6ac7beb222fde90ec91558a0a76a64372260bcddc7d9c88e68e990e4162bccb9)"
      ],
      "transaction": {
        "from": "0x1302f142fc55b165647d3bd5dec227f569a2a907",
        "to": "0x8fa71914948544c60e3379064567dcf0e6564d27",
        "gas": "0x2c5fe",
        "value": "0x0",
        "input": "0x3bae3e7900000000000000000000000000000000000000000000000000000000000001740000000000000000000000001302f142fc55b165647d3bd5dec227f569a2a90700000000000000000000000000000000000000000000000000000000000000010000000000000000000000000000000000000000000000000000000000000000000000000000000000000000a5f104f8f78d5ba9aec4a383c0927337fd4e997b0000000000000000000000000000000000000000000000000000000000000174000000000000000000000000c02aaa39b223fe8d0a0e5c4f27ead9083c756cc20000000000000000000000000000000000000000000000000051b660cdd58000000000000000000000000000cbe5659df21cbcfabe4da962f7a9081f26b3ed820000000000000000000000000000000000000000000000000000000069b3074b000000000000000000000000000000000000000000000000000000006a06d9830000000000000000000000000000000000000000000000000000000000000003000000000000000000000000000000000000000000000000000000000000001cc74986109d6cf1992525d72274d3ccb53b31a354e0bd8ca45644f11d70fcca676ac7beb222fde90ec91558a0a76a64372260bcddc7d9c88e68e990e4162bccb9",
        "nonce": "0x33",
        "chainId": "0x7a69"
      },
      "additionalContracts": [],
      "isFixedGasLimit": false
    }
  ],
  "receipts": [
    {
      "status": "0x1",
      "cumulativeGasUsed": "0x20206",
      "logs": [
        {
          "address": "0xc02aaa39b223fe8d0a0e5c4f27ead9083c756cc2",
          "topics": [
            "0xddf252ad1be2c89b69c2b068fc378daa952ba7f163c4a11628f55a4df523b3ef",
            "0x000000000000000000000000cbe5659df21cbcfabe4da962f7a9081f26b3ed82",
            "0x0000000000000000000000001804c8ab1f12e6bbf3894d4083f33e07309d1f38"
          ],
          "data": "0x0000000000000000000000000000000000000000000000000000d12f0c4c6000",
          "blockHash": "0x9567aaaf6d8166a26fed2fbbfe730f523f66e609a8f461a4407b1fbb1d3131c8",
          "blockNumber": "0x17b831e",
          "blockTimestamp": "0x69defd9f",
          "transactionHash": "0x6e09b14c6a1e1f5cf1d4d2102dad3efaa1a90e29fd24f3f87f418f22fd91cf5d",
          "transactionIndex": "0x0",
          "logIndex": "0x0",
          "removed": false
        },
        {
          "address": "0xc02aaa39b223fe8d0a0e5c4f27ead9083c756cc2",
          "topics": [
            "0xddf252ad1be2c89b69c2b068fc378daa952ba7f163c4a11628f55a4df523b3ef",
            "0x000000000000000000000000cbe5659df21cbcfabe4da962f7a9081f26b3ed82",
            "0x0000000000000000000000001302f142fc55b165647d3bd5dec227f569a2a907"
          ],
          "data": "0x0000000000000000000000000000000000000000000000000050e531c1892000",
          "blockHash": "0x9567aaaf6d8166a26fed2fbbfe730f523f66e609a8f461a4407b1fbb1d3131c8",
          "blockNumber": "0x17b831e",
          "blockTimestamp": "0x69defd9f",
          "transactionHash": "0x6e09b14c6a1e1f5cf1d4d2102dad3efaa1a90e29fd24f3f87f418f22fd91cf5d",
          "transactionIndex": "0x0",
          "logIndex": "0x1",
          "removed": false
        },
        {
          "address": "0xa5f104f8f78d5ba9aec4a383c0927337fd4e997b",
          "topics": [
            "0xddf252ad1be2c89b69c2b068fc378daa952ba7f163c4a11628f55a4df523b3ef",
            "0x0000000000000000000000001302f142fc55b165647d3bd5dec227f569a2a907",
            "0x000000000000000000000000cbe5659df21cbcfabe4da962f7a9081f26b3ed82",
            "0x0000000000000000000000000000000000000000000000000000000000000174"
          ],
          "data": "0x",
          "blockHash": "0x9567aaaf6d8166a26fed2fbbfe730f523f66e609a8f461a4407b1fbb1d3131c8",
          "blockNumber": "0x17b831e",
          "blockTimestamp": "0x69defd9f",
          "transactionHash": "0x6e09b14c6a1e1f5cf1d4d2102dad3efaa1a90e29fd24f3f87f418f22fd91cf5d",
          "transactionIndex": "0x0",
          "logIndex": "0x2",
          "removed": false
        },
        {
          "address": "0x8fa71914948544c60e3379064567dcf0e6564d27",
          "topics": [
            "0xc0ac3eb1e8caef05b202043f34de8e3173fab712167584f7a2a9f4c302bd0e9c",
            "0xd986bfb67c5bfe5a941203c5792abf305f0f5167ff1d4957875001fc9450ea64",
            "0x000000000000000000000000a5f104f8f78d5ba9aec4a383c0927337fd4e997b",
            "0x0000000000000000000000000000000000000000000000000000000000000174"
          ],
          "data": "0x0000000000000000000000001302f142fc55b165647d3bd5dec227f569a2a907000000000000000000000000cbe5659df21cbcfabe4da962f7a9081f26b3ed82000000000000000000000000c02aaa39b223fe8d0a0e5c4f27ead9083c756cc20000000000000000000000000000000000000000000000000051b660cdd58000",
          "blockHash": "0x9567aaaf6d8166a26fed2fbbfe730f523f66e609a8f461a4407b1fbb1d3131c8",
          "blockNumber": "0x17b831e",
          "blockTimestamp": "0x69defd9f",
          "transactionHash": "0x6e09b14c6a1e1f5cf1d4d2102dad3efaa1a90e29fd24f3f87f418f22fd91cf5d",
          "transactionIndex": "0x0",
          "logIndex": "0x3",
          "removed": false
        }
      ],
      "logsBloom": "0x00000000000010000000010000000000000000000000000000000000000000000010000000000000000000000000000002000000080000000000000000100000020000000000000000010008000000000000000000000000080000000000000000000000000000000001000000000000000000000000000000000010200000000800000000040000000004000000000000000000000000000000000000000000000000200000000400000000000100000000000000000080000000000000000000000022000004000400000200000000000000040000020080000000000020000100200000000000000040000000000000000000004000000000000000000000",
      "type": "0x2",
      "transactionHash": "0x6e09b14c6a1e1f5cf1d4d2102dad3efaa1a90e29fd24f3f87f418f22fd91cf5d",
      "transactionIndex": "0x0",
      "blockHash": "0x9567aaaf6d8166a26fed2fbbfe730f523f66e609a8f461a4407b1fbb1d3131c8",
      "blockNumber": "0x17b831e",
      "gasUsed": "0x20206",
      "effectiveGasPrice": "0x1ba81c",
      "blobGasPrice": "0x1",
      "from": "0x1302f142fc55b165647d3bd5dec227f569a2a907",
      "to": "0x8fa71914948544c60e3379064567dcf0e6564d27",
      "contractAddress": null
    }
  ],
  "libraries": [],
  "pending": [],
  "returns": {},
  "timestamp": 1778506407170,
  "chain": 31337,
  "commit": "59e30a9"
}