{
  "transactions": [
    {
      "hash": "0x2ef009d81410dd2ddc1b1b27e7dd486417f71ceff7ead0fe14d38d202e209bcd",
      "transactionType": "CALL",
      "contractName": null,
      "contractAddress": "0x8fa71914948544c60e3379064567dcf0e6564d27",
      "function": "settle((uint256,address),(uint8,bool,address,uint256,address,uint256,address,uint64,uint64,uint256),(uint8,bytes32,bytes32))",
      "arguments": [
        "(132, 0x646dC5Fc4009C4C84a424B6aE0f494b374bAE1Ce)",
        "(1, false, 0xA5f104F8f78d5ba9AEC4a383c0927337Fd4E997B, 132, 0xC02aaA39b223FE8D0A0e5C4F27eAD9083C756Cc2, 73000000000000000, 0x4b75AeC40561C03e03d4D1C421dF194a3031A134, 1772204202, 1779970084, 1)",
        "(27, 0xc2d5bbfd8afbcf9be93015138e4bf106f2bd1b01fb897c5d05c4e346ddcc5b47, 0x16a924072906d5545aa6476f7e9cfbcfe9423c328a07bed606f138b69a0380c7)"
      ],
      "transaction": {
        "from": "0x646dc5fc4009c4c84a424b6ae0f494b374bae1ce",
        "to": "0x8fa71914948544c60e3379064567dcf0e6564d27",
        "gas": "0x2c5d2",
        "value": "0x0",
        "input": "0x3bae3e790000000000000000000000000000000000000000000000000000000000000084000000000000000000000000646dc5fc4009c4c84a424b6ae0f494b374bae1ce00000000000000000000000000000000000000000000000000000000000000010000000000000000000000000000000000000000000000000000000000000000000000000000000000000000a5f104f8f78d5ba9aec4a383c0927337fd4e997b0000000000000000000000000000000000000000000000000000000000000084000000000000000000000000c02aaa39b223fe8d0a0e5c4f27ead9083c756cc20000000000000000000000000000000000000000000000000103591cfc9a80000000000000000000000000004b75aec40561c03e03d4d1c421df194a3031a1340000000000000000000000000000000000000000000000000000000069a1b0aa000000000000000000000000000000000000000000000000000000006a1830240000000000000000000000000000000000000000000000000000000000000001000000000000000000000000000000000000000000000000000000000000001bc2d5bbfd8afbcf9be93015138e4bf106f2bd1b01fb897c5d05c4e346ddcc5b4716a924072906d5545aa6476f7e9cfbcfe9423c328a07bed606f138b69a0380c7",
        "nonce": "0x55",
        "chainId": "0x7a69"
      },
      "additionalContracts": [],
      "isFixedGasLimit": false
    }
  ],
  "receipts": [
    {
      "status": "0x1",
      "cumulativeGasUsed": "0x201e6",
      "logs": [
        {
          "address": "0xc02aaa39b223fe8d0a0e5c4f27ead9083c756cc2",
          "topics": [
            "0xddf252ad1be2c89b69c2b068fc378daa952ba7f163c4a11628f55a4df523b3ef",
            "0x0000000000000000000000004b75aec40561c03e03d4d1c421df194a3031a134",
            "0x0000000000000000000000001804c8ab1f12e6bbf3894d4083f33e07309d1f38"
          ],
          "data": "0x000000000000000000000000000000000000000000000000000297ee5eafa000",
          "blockHash": "0x40c7b60e966eebdf7ac308bc187f3e66fb2e49a2bb24ba564b646f7538739d0c",
          "blockNumber": "0x17b8352",
          "blockTimestamp": "0x69ee9553",
          "transactionHash": "0x2ef009d81410dd2ddc1b1b27e7dd486417f71ceff7ead0fe14d38d202e209bcd",
          "transactionIndex": "0x0",
          "logIndex": "0x0",
          "removed": false
        },
        {
          "address": "0xc02aaa39b223fe8d0a0e5c4f27ead9083c756cc2",
          "topics": [
            "0xddf252ad1be2c89b69c2b068fc378daa952ba7f163c4a11628f55a4df523b3ef",
            "0x0000000000000000000000004b75aec40561c03e03d4d1c421df194a3031a134",
            "0x000000000000000000000000646dc5fc4009c4c84a424b6ae0f494b374bae1ce"
          ],
          "data": "0x0000000000000000000000000000000000000000000000000100c12e9deae000",
          "blockHash": "0x40c7b60e966eebdf7ac308bc187f3e66fb2e49a2bb24ba564b646f7538739d0c",
          "blockNumber": "0x17b8352",
          "blockTimestamp": "0x69ee9553",
          "transactionHash": "0x2ef009d81410dd2ddc1b1b27e7dd486417f71ceff7ead0fe14d38d202e209bcd",
          "transactionIndex": "0x0",
          "logIndex": "0x1",
          "removed": false
        },
        {
          "address": "0xa5f104f8f78d5ba9aec4a383c0927337fd4e997b",
          "topics": [
            "0xddf252ad1be2c89b69c2b068fc378daa952ba7f163c4a11628f55a4df523b3ef",
            "0x000000000000000000000000646dc5fc4009c4c84a424b6ae0f494b374bae1ce",
            "0x0000000000000000000000004b75aec40561c03e03d4d1c421df194a3031a134",
            "0x0000000000000000000000000000000000000000000000000000000000000084"
          ],
          "data": "0x",
          "blockHash": "0x40c7b60e966eebdf7ac308bc187f3e66fb2e49a2bb24ba564b646f7538739d0c",
          "blockNumber": "0x17b8352",
          "blockTimestamp": "0x69ee9553",
          "transactionHash": "0x2ef009d81410dd2ddc1b1b27e7dd486417f71ceff7ead0fe14d38d202e209bcd",
          "transactionIndex": "0x0",
          "logIndex": "0x2",
          "removed": false
        },
        {
          "address": "0x8fa71914948544c60e3379064567dcf0e6564d27",
          "topics": [
            "0xc0ac3eb1e8caef05b202043f34de8e3173fab712167584f7a2a9f4c302bd0e9c",
            "0x9541f6d01a62b520efde71205b22be252b4c0943fcba0e1be0483a829468898b",
            "0x000000000000000000000000a5f104f8f78d5ba9aec4a383c0927337fd4e997b",
            "0x0000000000000000000000000000000000000000000000000000000000000084"
          ],
          "data": "0x000000000000000000000000646dc5fc4009c4c84a424b6ae0f494b374bae1ce0000000000000000000000004b75aec40561c03e03d4d1c421df194a3031a134000000000000000000000000c02aaa39b223fe8d0a0e5c4f27ead9083c756cc20000000000000000000000000000000000000000000000000103591cfc9a8000",
          "blockHash": "0x40c7b60e966eebdf7ac308bc187f3e66fb2e49a2bb24ba564b646f7538739d0c",
          "blockNumber": "0x17b8352",
          "blockTimestamp": "0x69ee9553",
          "transactionHash": "0x2ef009d81410dd2ddc1b1b27e7dd486417f71ceff7ead0fe14d38d202e209bcd",
          "transactionIndex": "0x0",
          "logIndex": "0x3",
          "removed": false
        }
      ],
      "logsBloom": "0x00000000000000000000010000000000000000000002000000000000000000000000000000000000000000000008000002000000090000000000000000100000000000000000000000010008000000000000000000000000080000000000000000000000004000000005000000000000000000000000100000000010200000000800000000040000000004000000000000000000000000000000000000002000000000200000100400000000000400000000000000000080020000000000000000000002000004000000000000000000000000000000000080000000000000000100200000000080000000000000000000000000000000000000002000000000",
      "type": "0x2",
      "transactionHash": "0x2ef009d81410dd2ddc1b1b27e7dd486417f71ceff7ead0fe14d38d202e209bcd",
      "transactionIndex": "0x0",
      "blockHash": "0x40c7b60e966eebdf7ac308bc187f3e66fb2e49a2bb24ba564b646f7538739d0c",
      "blockNumber": "0x17b8352",
      "gasUsed": "0x201e6",
      "effectiveGasPrice": "0x1ba81c",
      "blobGasPrice": "0x1",
      "from": "0x646dc5fc4009c4c84a424b6ae0f494b374bae1ce",
      "to": "0x8fa71914948544c60e3379064567dcf0e6564d27",
      "contractAddress": null
    }
  ],
  "libraries": [],
  "pending": [],
  "returns": {},
  "timestamp": 1778506458879,
  "chain": 31337,
  "commit": "59e30a9"
}