{
  "transactions": [
    {
      "hash": "0x377efd5b35f0a7e7add7a609a4fb6fbaa4e64445993bc9daf46528f81645ce12",
      "transactionType": "CALL",
      "contractName": null,
      "contractAddress": "0x73973d222c3fda5b2563d269da9e19cb125000f4",
      "function": "settle((uint256,address),(uint8,bool,address,uint256,address,uint256,address,uint64,uint64,uint256),(uint8,bytes32,bytes32))",
      "arguments": [
        "(434, 0xc5aDfC119364CFE2297e4414dB04834d8702475B)",
        "(1, false, 0x38D4dE42C9c5640A2799B372D27B01957E0a3673, 434, 0xC02aaA39b223FE8D0A0e5C4F27eAD9083C756Cc2, 17000000000000000, 0x4b75AeC40561C03e03d4D1C421dF194a3031A134, 1772270619, 1779795019, 7)",
        "(28, 0xd19a406af07abee265526592de81e4972abe42fca2563d3510cb553eb6246715, 0x358ec60cce607e5ecaaddf95fff96e97f7baa072429482262ab0f9297ccbca99)"
      ],
      "transaction": {
        "from": "0xc5adfc119364cfe2297e4414db04834d8702475b",
        "to": "0x73973d222c3fda5b2563d269da9e19cb125000f4",
        "gas": "0x2c5fe",
        "value": "0x0",
        "input": "0x3bae3e7900000000000000000000000000000000000000000000000000000000000001b2000000000000000000000000c5adfc119364cfe2297e4414db04834d8702475b0000000000000000000000000000000000000000000000000000000000000001000000000000000000000000000000000000000000000000000000000000000000000000000000000000000038d4de42c9c5640a2799b372d27b01957e0a367300000000000000000000000000000000000000000000000000000000000001b2000000000000000000000000c02aaa39b223fe8d0a0e5c4f27ead9083c756cc2000000000000000000000000000000000000000000000000003c6568f12e80000000000000000000000000004b75aec40561c03e03d4d1c421df194a3031a1340000000000000000000000000000000000000000000000000000000069a2b41b000000000000000000000000000000000000000000000000000000006a15844b0000000000000000000000000000000000000000000000000000000000000007000000000000000000000000000000000000000000000000000000000000001cd19a406af07abee265526592de81e4972abe42fca2563d3510cb553eb6246715358ec60cce607e5ecaaddf95fff96e97f7baa072429482262ab0f9297ccbca99",
        "nonce": "0x6d",
        "chainId": "0x7a69"
      },
      "additionalContracts": [],
      "isFixedGasLimit": false
    }
  ],
  "receipts": [
    {
      "status": "0x1",
      "cumulativeGasUsed": "0x20206",
      "logs": [
        {
          "address": "0xc02aaa39b223fe8d0a0e5c4f27ead9083c756cc2",
          "topics": [
            "0xddf252ad1be2c89b69c2b068fc378daa952ba7f163c4a11628f55a4df523b3ef",
            "0x0000000000000000000000004b75aec40561c03e03d4d1c421df194a3031a134",
            "0x0000000000000000000000001804c8ab1f12e6bbf3894d4083f33e07309d1f38"
          ],
          "data": "0x00000000000000000000000000000000000000000000000000009a9d359ca000",
          "blockHash": "0xfa29cbc486b81016411ec70481abdeb14939f868c0fa2f0087f34b748c2f197a",
          "blockNumber": "0x17b73e1",
          "blockTimestamp": "0x69ec5f30",
          "transactionHash": "0x377efd5b35f0a7e7add7a609a4fb6fbaa4e64445993bc9daf46528f81645ce12",
          "transactionIndex": "0x0",
          "logIndex": "0x0",
          "removed": false
        },
        {
          "address": "0xc02aaa39b223fe8d0a0e5c4f27ead9083c756cc2",
          "topics": [
            "0xddf252ad1be2c89b69c2b068fc378daa952ba7f163c4a11628f55a4df523b3ef",
            "0x0000000000000000000000004b75aec40561c03e03d4d1c421df194a3031a134",
            "0x000000000000000000000000c5adfc119364cfe2297e4414db04834d8702475b"
          ],
          "data": "0x000000000000000000000000000000000000000000000000003bcacbbb91e000",
          "blockHash": "0xfa29cbc486b81016411ec70481abdeb14939f868c0fa2f0087f34b748c2f197a",
          "blockNumber": "0x17b73e1",
          "blockTimestamp": "0x69ec5f30",
          "transactionHash": "0x377efd5b35f0a7e7add7a609a4fb6fbaa4e64445993bc9daf46528f81645ce12",
          "transactionIndex": "0x0",
          "logIndex": "0x1",
          "removed": false
        },
        {
          "address": "0x38d4de42c9c5640a2799b372d27b01957e0a3673",
          "topics": [
            "0xddf252ad1be2c89b69c2b068fc378daa952ba7f163c4a11628f55a4df523b3ef",
            "0x000000000000000000000000c5adfc119364cfe2297e4414db04834d8702475b",
            "0x0000000000000000000000004b75aec40561c03e03d4d1c421df194a3031a134",
            "0x00000000000000000000000000000000000000000000000000000000000001b2"
          ],
          "data": "0x",
          "blockHash": "0xfa29cbc486b81016411ec70481abdeb14939f868c0fa2f0087f34b748c2f197a",
          "blockNumber": "0x17b73e1",
          "blockTimestamp": "0x69ec5f30",
          "transactionHash": "0x377efd5b35f0a7e7add7a609a4fb6fbaa4e64445993bc9daf46528f81645ce12",
          "transactionIndex": "0x0",
          "logIndex": "0x2",
          "removed": false
        },
        {
          "address": "0x73973d222c3fda5b2563d269da9e19cb125000f4",
          "topics": [
            "0xc0ac3eb1e8caef05b202043f34de8e3173fab712167584f7a2a9f4c302bd0e9c",
            "0xcecc23e709bd3e69b5b94a878763853cb5f28568dc6361e2530a54aa9baed5d8",
            "0x00000000000000000000000038d4de42c9c5640a2799b372d27b01957e0a3673",
            "0x00000000000000000000000000000000000000000000000000000000000001b2"
          ],
          "data": "0x000000000000000000000000c5adfc119364cfe2297e4414db04834d8702475b0000000000000000000000004b75aec40561c03e03d4d1c421df194a3031a134000000000000000000000000c02aaa39b223fe8d0a0e5c4f27ead9083c756cc2000000000000000000000000000000000000000000000000003c6568f12e8000",
          "blockHash": "0xfa29cbc486b81016411ec70481abdeb14939f868c0fa2f0087f34b748c2f197a",
          "blockNumber": "0x17b73e1",
          "blockTimestamp": "0x69ec5f30",
          "transactionHash": "0x377efd5b35f0a7e7add7a609a4fb6fbaa4e64445993bc9daf46528f81645ce12",
          "transactionIndex": "0x0",
          "logIndex": "0x3",
          "removed": false
        }
      ],
      "logsBloom": "0x00000000000000000000000000000000000000000002000000010000000000000000000000000000000000000000020002000000080000000004100000100000000000000000001021000008000000000000000000000000000000000000000200000000000000000001000000000000000000000000000000000010000000000000000000000000000004000000000000000000000008000000000000002000000000000000004000000040000420000000000000000080420000000004000400000002000004000000000000000000000000000000000000000000000400000100200000000000000000000000000000000000000000002000000000000000",
      "type": "0x2",
      "transactionHash": "0x377efd5b35f0a7e7add7a609a4fb6fbaa4e64445993bc9daf46528f81645ce12",
      "transactionIndex": "0x0",
      "blockHash": "0xfa29cbc486b81016411ec70481abdeb14939f868c0fa2f0087f34b748c2f197a",
      "blockNumber": "0x17b73e1",
      "gasUsed": "0x20206",
      "effectiveGasPrice": "0xf4248",
      "blobGasPrice": "0x1",
      "from": "0xc5adfc119364cfe2297e4414db04834d8702475b",
      "to": "0x73973d222c3fda5b2563d269da9e19cb125000f4",
      "contractAddress": null
    }
  ],
  "libraries": [],
  "pending": [],
  "returns": {},
  "timestamp": 1778453798014,
  "chain": 31337,
  "commit": "f87d399"
}