{
  "transactions": [
    {
      "hash": "0xc4dd50dcf892bf88abf253d95485bc05f298bebcf77fdc8efe9add2678377d94",
      "transactionType": "CALL",
      "contractName": null,
      "contractAddress": "0x73973d222c3fda5b2563d269da9e19cb125000f4",
      "function": "settle((uint256,address),(uint8,bool,address,uint256,address,uint256,address,uint64,uint64,uint256),(uint8,bytes32,bytes32))",
      "arguments": [
        "(484, 0xE233420d38D286C2F2Cf8dEe6564F132FBDB09DB)",
        "(1, false, 0x38D4dE42C9c5640A2799B372D27B01957E0a3673, 484, 0xC02aaA39b223FE8D0A0e5C4F27eAD9083C756Cc2, 63000000000000000, 0xa382b0E75C192D9CDF5c084E58b750Cea7761Bd0, 1772283660, 1779781978, 14)",
        "(27, 0x16e86e86427fc4fffebe34c2a80aae946288ee9677a909aa25b7557fa50bffcf, 0x483376117d6b4d950e83e11ad4afd814c775590fdf7e684ea4087ce0fb461b02)"
      ],
      "transaction": {
        "from": "0xe233420d38d286c2f2cf8dee6564f132fbdb09db",
        "to": "0x73973d222c3fda5b2563d269da9e19cb125000f4",
        "gas": "0x2efa4",
        "value": "0x0",
        "input": "0x3bae3e7900000000000000000000000000000000000000000000000000000000000001e4000000000000000000000000e233420d38d286c2f2cf8dee6564f132fbdb09db0000000000000000000000000000000000000000000000000000000000000001000000000000000000000000000000000000000000000000000000000000000000000000000000000000000038d4de42c9c5640a2799b372d27b01957e0a367300000000000000000000000000000000000000000000000000000000000001e4000000000000000000000000c02aaa39b223fe8d0a0e5c4f27ead9083c756cc200000000000000000000000000000000000000000000000000dfd22a8cd98000000000000000000000000000a382b0e75c192d9cdf5c084e58b750cea7761bd00000000000000000000000000000000000000000000000000000000069a2e70c000000000000000000000000000000000000000000000000000000006a15515a000000000000000000000000000000000000000000000000000000000000000e000000000000000000000000000000000000000000000000000000000000001b16e86e86427fc4fffebe34c2a80aae946288ee9677a909aa25b7557fa50bffcf483376117d6b4d950e83e11ad4afd814c775590fdf7e684ea4087ce0fb461b02",
        "nonce": "0x72",
        "chainId": "0x7a69"
      },
      "additionalContracts": [],
      "isFixedGasLimit": false
    }
  ],
  "receipts": [
    {
      "status": "0x1",
      "cumulativeGasUsed": "0x201f2",
      "logs": [
        {
          "address": "0xc02aaa39b223fe8d0a0e5c4f27ead9083c756cc2",
          "topics": [
            "0xddf252ad1be2c89b69c2b068fc378daa952ba7f163c4a11628f55a4df523b3ef",
            "0x000000000000000000000000a382b0e75c192d9cdf5c084e58b750cea7761bd0",
            "0x0000000000000000000000001804c8ab1f12e6bbf3894d4083f33e07309d1f38"
          ],
          "data": "0x00000000000000000000000000000000000000000000000000023cfb4e356000",
          "blockHash": "0x19db2a8580d96df3e2526348aa5995a4a8275b96920e5ac8703d43dd7043ea88",
          "blockNumber": "0x17b73e0",
          "blockTimestamp": "0x69ec3371",
          "transactionHash": "0xc4dd50dcf892bf88abf253d95485bc05f298bebcf77fdc8efe9add2678377d94",
          "transactionIndex": "0x0",
          "logIndex": "0x0",
          "removed": false
        },
        {
          "address": "0xc02aaa39b223fe8d0a0e5c4f27ead9083c756cc2",
          "topics": [
            "0xddf252ad1be2c89b69c2b068fc378daa952ba7f163c4a11628f55a4df523b3ef",
            "0x000000000000000000000000a382b0e75c192d9cdf5c084e58b750cea7761bd0",
            "0x000000000000000000000000e233420d38d286c2f2cf8dee6564f132fbdb09db"
          ],
          "data": "0x00000000000000000000000000000000000000000000000000dd952f3ea42000",
          "blockHash": "0x19db2a8580d96df3e2526348aa5995a4a8275b96920e5ac8703d43dd7043ea88",
          "blockNumber": "0x17b73e0",
          "blockTimestamp": "0x69ec3371",
          "transactionHash": "0xc4dd50dcf892bf88abf253d95485bc05f298bebcf77fdc8efe9add2678377d94",
          "transactionIndex": "0x0",
          "logIndex": "0x1",
          "removed": false
        },
        {
          "address": "0x38d4de42c9c5640a2799b372d27b01957e0a3673",
          "topics": [
            "0xddf252ad1be2c89b69c2b068fc378daa952ba7f163c4a11628f55a4df523b3ef",
            "0x000000000000000000000000e233420d38d286c2f2cf8dee6564f132fbdb09db",
            "0x000000000000000000000000a382b0e75c192d9cdf5c084e58b750cea7761bd0",
            "0x00000000000000000000000000000000000000000000000000000000000001e4"
          ],
          "data": "0x",
          "blockHash": "0x19db2a8580d96df3e2526348aa5995a4a8275b96920e5ac8703d43dd7043ea88",
          "blockNumber": "0x17b73e0",
          "blockTimestamp": "0x69ec3371",
          "transactionHash": "0xc4dd50dcf892bf88abf253d95485bc05f298bebcf77fdc8efe9add2678377d94",
          "transactionIndex": "0x0",
          "logIndex": "0x2",
          "removed": false
        },
        {
          "address": "0x73973d222c3fda5b2563d269da9e19cb125000f4",
          "topics": [
            "0xc0ac3eb1e8caef05b202043f34de8e3173fab712167584f7a2a9f4c302bd0e9c",
            "0xb6012477886c094f4916b8db8d836e93abbe5219ae577bf85089a87d4d170f16",
            "0x00000000000000000000000038d4de42c9c5640a2799b372d27b01957e0a3673",
            "0x00000000000000000000000000000000000000000000000000000000000001e4"
          ],
          "data": "0x000000000000000000000000e233420d38d286c2f2cf8dee6564f132fbdb09db000000000000000000000000a382b0e75c192d9cdf5c084e58b750cea7761bd0000000000000000000000000c02aaa39b223fe8d0a0e5c4f27ead9083c756cc200000000000000000000000000000000000000000000000000dfd22a8cd98000",
          "blockHash": "0x19db2a8580d96df3e2526348aa5995a4a8275b96920e5ac8703d43dd7043ea88",
          "blockNumber": "0x17b73e0",
          "blockTimestamp": "0x69ec3371",
          "transactionHash": "0xc4dd50dcf892bf88abf253d95485bc05f298bebcf77fdc8efe9add2678377d94",
          "transactionIndex": "0x0",
          "logIndex": "0x3",
          "removed": false
        }
      ],
      "logsBloom": "0x00000000000000000000010000000000040000000002000000000000000000000000000000000000000000000000020002004000080000000004100000100000000000000000001021000008000000000000000000000000000000000000000000000001000000000001000000000000000000000000040000000010000000000000000000000000000004000000000000100000000008000000001000000000000000000000000002000000000000000000000000000080400000000000000000000012000004000000000000000000000000000002000000000000000000000100200000000000000000000000000000000000100000000004000000000000",
      "type": "0x2",
      "transactionHash": "0xc4dd50dcf892bf88abf253d95485bc05f298bebcf77fdc8efe9add2678377d94",
      "transactionIndex": "0x0",
      "blockHash": "0x19db2a8580d96df3e2526348aa5995a4a8275b96920e5ac8703d43dd7043ea88",
      "blockNumber": "0x17b73e0",
      "gasUsed": "0x201f2",
      "effectiveGasPrice": "0xf4248",
      "blobGasPrice": "0x1",
      "from": "0xe233420d38d286c2f2cf8dee6564f132fbdb09db",
      "to": "0x73973d222c3fda5b2563d269da9e19cb125000f4",
      "contractAddress": null
    }
  ],
  "libraries": [],
  "pending": [],
  "returns": {},
  "timestamp": 1778453797146,
  "chain": 31337,
  "commit": "f87d399"
}