{
  "transactions": [
    {
      "hash": "0x1fc7d559a86ff39e9cf8e97b15248909608c594d1f77af3b4e27e956f4c1bb26",
      "transactionType": "CALL",
      "contractName": null,
      "contractAddress": "0x8fa71914948544c60e3379064567dcf0e6564d27",
      "function": "settle((uint256,address),(uint8,bool,address,uint256,address,uint256,address,uint64,uint64,uint256),(uint8,bytes32,bytes32))",
      "arguments": [
        "(0, 0xc5aDfC119364CFE2297e4414dB04834d8702475B)",
        "(0, false, 0xA5f104F8f78d5ba9AEC4a383c0927337Fd4E997B, 341, 0xC02aaA39b223FE8D0A0e5C4F27eAD9083C756Cc2, 73000000000000000, 0x1302F142Fc55B165647d3Bd5dec227f569A2A907, 1773079185, 1779095101, 2)",
        "(28, 0x1d486043d16ed75f68f6d29ba65aa5d5e8b1dfd367bb2fd6a26755e02b70ca52, 0x33fbf335d95ecb795ca992f5bc2ed00bb259ad512f4e0157eab2d6c4385908de)"
      ],
      "transaction": {
        "from": "0xc5adfc119364cfe2297e4414db04834d8702475b",
        "to": "0x8fa71914948544c60e3379064567dcf0e6564d27",
        "gas": "0x2eead",
        "value": "0x0",
        "input": "0x3bae3e790000000000000000000000000000000000000000000000000000000000000000000000000000000000000000c5adfc119364cfe2297e4414db04834d8702475b00000000000000000000000000000000000000000000000000000000000000000000000000000000000000000000000000000000000000000000000000000000000000000000000000000000a5f104f8f78d5ba9aec4a383c0927337fd4e997b0000000000000000000000000000000000000000000000000000000000000155000000000000000000000000c02aaa39b223fe8d0a0e5c4f27ead9083c756cc20000000000000000000000000000000000000000000000000103591cfc9a80000000000000000000000000001302f142fc55b165647d3bd5dec227f569a2a9070000000000000000000000000000000000000000000000000000000069af0a91000000000000000000000000000000000000000000000000000000006a0ad63d0000000000000000000000000000000000000000000000000000000000000002000000000000000000000000000000000000000000000000000000000000001c1d486043d16ed75f68f6d29ba65aa5d5e8b1dfd367bb2fd6a26755e02b70ca5233fbf335d95ecb795ca992f5bc2ed00bb259ad512f4e0157eab2d6c4385908de",
        "nonce": "0x34",
        "chainId": "0x7a69"
      },
      "additionalContracts": [],
      "isFixedGasLimit": false
    }
  ],
  "receipts": [
    {
      "status": "0x1",
      "cumulativeGasUsed": "0x20149",
      "logs": [
        {
          "address": "0xc02aaa39b223fe8d0a0e5c4f27ead9083c756cc2",
          "topics": [
            "0xddf252ad1be2c89b69c2b068fc378daa952ba7f163c4a11628f55a4df523b3ef",
            "0x000000000000000000000000c5adfc119364cfe2297e4414db04834d8702475b",
            "0x0000000000000000000000001804c8ab1f12e6bbf3894d4083f33e07309d1f38"
          ],
          "data": "0x000000000000000000000000000000000000000000000000000297ee5eafa000",
          "blockHash": "0xa43adad72f8ce84c7ba9e49372d38b6eb874c6fe7dc6eabdc2253663086208f1",
          "blockNumber": "0x17b8320",
          "blockTimestamp": "0x69dfac9f",
          "transactionHash": "0x1fc7d559a86ff39e9cf8e97b15248909608c594d1f77af3b4e27e956f4c1bb26",
          "transactionIndex": "0x0",
          "logIndex": "0x0",
          "removed": false
        },
        {
          "address": "0xc02aaa39b223fe8d0a0e5c4f27ead9083c756cc2",
          "topics": [
            "0xddf252ad1be2c89b69c2b068fc378daa952ba7f163c4a11628f55a4df523b3ef",
            "0x000000000000000000000000c5adfc119364cfe2297e4414db04834d8702475b",
            "0x0000000000000000000000001302f142fc55b165647d3bd5dec227f569a2a907"
          ],
          "data": "0x0000000000000000000000000000000000000000000000000100c12e9deae000",
          "blockHash": "0xa43adad72f8ce84c7ba9e49372d38b6eb874c6fe7dc6eabdc2253663086208f1",
          "blockNumber": "0x17b8320",
          "blockTimestamp": "0x69dfac9f",
          "transactionHash": "0x1fc7d559a86ff39e9cf8e97b15248909608c594d1f77af3b4e27e956f4c1bb26",
          "transactionIndex": "0x0",
          "logIndex": "0x1",
          "removed": false
        },
        {
          "address": "0xa5f104f8f78d5ba9aec4a383c0927337fd4e997b",
          "topics": [
            "0xddf252ad1be2c89b69c2b068fc378daa952ba7f163c4a11628f55a4df523b3ef",
            "0x0000000000000000000000001302f142fc55b165647d3bd5dec227f569a2a907",
            "0x000000000000000000000000c5adfc119364cfe2297e4414db04834d8702475b",
            "0x0000000000000000000000000000000000000000000000000000000000000155"
          ],
          "data": "0x",
          "blockHash": "0xa43adad72f8ce84c7ba9e49372d38b6eb874c6fe7dc6eabdc2253663086208f1",
          "blockNumber": "0x17b8320",
          "blockTimestamp": "0x69dfac9f",
          "transactionHash": "0x1fc7d559a86ff39e9cf8e97b15248909608c594d1f77af3b4e27e956f4c1bb26",
          "transactionIndex": "0x0",
          "logIndex": "0x2",
          "removed": false
        },
        {
          "address": "0x8fa71914948544c60e3379064567dcf0e6564d27",
          "topics": [
            "0xc0ac3eb1e8caef05b202043f34de8e3173fab712167584f7a2a9f4c302bd0e9c",
            "0x35ad7818d059c5141cb25d9cc7ae7a71237451193398e7618b2fe9f10922d96d",
            "0x000000000000000000000000a5f104f8f78d5ba9aec4a383c0927337fd4e997b",
            "0x0000000000000000000000000000000000000000000000000000000000000155"
          ],
          "data": "0x0000000000000000000000001302f142fc55b165647d3bd5dec227f569a2a907000000000000000000000000c5adfc119364cfe2297e4414db04834d8702475b000000000000000000000000c02aaa39b223fe8d0a0e5c4f27ead9083c756cc20000000000000000000000000000000000000000000000000103591cfc9a8000",
          "blockHash": "0xa43adad72f8ce84c7ba9e49372d38b6eb874c6fe7dc6eabdc2253663086208f1",
          "blockNumber": "0x17b8320",
          "blockTimestamp": "0x69dfac9f",
          "transactionHash": "0x1fc7d559a86ff39e9cf8e97b15248909608c594d1f77af3b4e27e956f4c1bb26",
          "transactionIndex": "0x0",
          "logIndex": "0x3",
          "removed": false
        }
      ],
      "logsBloom": "0x00000000000000400000010000000000000000000000000000000000000000000000000000000000000000000000000002000000080000000000000000100000000000000040000000010008000000000000000000000000080000000040000200000000000000000001000000000000000000000000000000000010200000000800000000040000000104000000000000000000000000000000000000000000000000200000000400000000000120000000000000000480000000000000000000000002000004000000000200000000000000002000000080000000000000000100200000000000000040000000000000000000000000002000000000000000",
      "type": "0x2",
      "transactionHash": "0x1fc7d559a86ff39e9cf8e97b15248909608c594d1f77af3b4e27e956f4c1bb26",
      "transactionIndex": "0x0",
      "blockHash": "0xa43adad72f8ce84c7ba9e49372d38b6eb874c6fe7dc6eabdc2253663086208f1",
      "blockNumber": "0x17b8320",
      "gasUsed": "0x20149",
      "effectiveGasPrice": "0x1ba81c",
      "blobGasPrice": "0x1",
      "from": "0xc5adfc119364cfe2297e4414db04834d8702475b",
      "to": "0x8fa71914948544c60e3379064567dcf0e6564d27",
      "contractAddress": null
    }
  ],
  "libraries": [],
  "pending": [],
  "returns": {},
  "timestamp": 1778506408828,
  "chain": 31337,
  "commit": "59e30a9"
}