{
  "transactions": [
    {
      "hash": "0x0384e310d75b596761b6a0a3694b47b75e6b39f3e127cbba9a56cc1fb66ad1c6",
      "transactionType": "CALL",
      "contractName": null,
      "contractAddress": "0x8fa71914948544c60e3379064567dcf0e6564d27",
      "function": "settle((uint256,address),(uint8,bool,address,uint256,address,uint256,address,uint64,uint64,uint256),(uint8,bytes32,bytes32))",
      "arguments": [
        "(334, 0x08312E82df563A1639b81f49bb41247759700e30)",
        "(1, false, 0xA5f104F8f78d5ba9AEC4a383c0927337Fd4E997B, 334, 0xC02aaA39b223FE8D0A0e5C4F27eAD9083C756Cc2, 14000000000000000, 0x646dC5Fc4009C4C84a424B6aE0f494b374bAE1Ce, 1773395586, 1778778700, 1)",
        "(28, 0x17a867d5c19d2ba91e6a18e42c5fd20c7ae402bf40b6c79b4a727e2d97b64d15, 0x2b80da3f83ac854866d1cd18883e7f4bed50026fef119dc328ecd9b9d600ad12)"
      ],
      "transaction": {
        "from": "0x08312e82df563a1639b81f49bb41247759700e30",
        "to": "0x8fa71914948544c60e3379064567dcf0e6564d27",
        "gas": "0x2c5dc",
        "value": "0x0",
        "input": "0x3bae3e79000000000000000000000000000000000000000000000000000000000000014e00000000000000000000000008312e82df563a1639b81f49bb41247759700e3000000000000000000000000000000000000000000000000000000000000000010000000000000000000000000000000000000000000000000000000000000000000000000000000000000000a5f104f8f78d5ba9aec4a383c0927337fd4e997b000000000000000000000000000000000000000000000000000000000000014e000000000000000000000000c02aaa39b223fe8d0a0e5c4f27ead9083c756cc20000000000000000000000000000000000000000000000000031bced02db0000000000000000000000000000646dc5fc4009c4c84a424b6ae0f494b374bae1ce0000000000000000000000000000000000000000000000000000000069b3de82000000000000000000000000000000000000000000000000000000006a06024c0000000000000000000000000000000000000000000000000000000000000001000000000000000000000000000000000000000000000000000000000000001c17a867d5c19d2ba91e6a18e42c5fd20c7ae402bf40b6c79b4a727e2d97b64d152b80da3f83ac854866d1cd18883e7f4bed50026fef119dc328ecd9b9d600ad12",
        "nonce": "0x3a",
        "chainId": "0x7a69"
      },
      "additionalContracts": [],
      "isFixedGasLimit": false
    }
  ],
  "receipts": [
    {
      "status": "0x1",
      "cumulativeGasUsed": "0x201ee",
      "logs": [
        {
          "address": "0xc02aaa39b223fe8d0a0e5c4f27ead9083c756cc2",
          "topics": [
            "0xddf252ad1be2c89b69c2b068fc378daa952ba7f163c4a11628f55a4df523b3ef",
            "0x000000000000000000000000646dc5fc4009c4c84a424b6ae0f494b374bae1ce",
            "0x0000000000000000000000001804c8ab1f12e6bbf3894d4083f33e07309d1f38"
          ],
          "data": "0x00000000000000000000000000000000000000000000000000007f544a44c000",
          "blockHash": "0x0faa8d6bac3b5c53085ee7c067f7e9d8bbd6a61d6362a804d0e260494dbff077",
          "blockNumber": "0x17b831d",
          "blockTimestamp": "0x69dea620",
          "transactionHash": "0x0384e310d75b596761b6a0a3694b47b75e6b39f3e127cbba9a56cc1fb66ad1c6",
          "transactionIndex": "0x0",
          "logIndex": "0x0",
          "removed": false
        },
        {
          "address": "0xc02aaa39b223fe8d0a0e5c4f27ead9083c756cc2",
          "topics": [
            "0xddf252ad1be2c89b69c2b068fc378daa952ba7f163c4a11628f55a4df523b3ef",
            "0x000000000000000000000000646dc5fc4009c4c84a424b6ae0f494b374bae1ce",
            "0x00000000000000000000000008312e82df563a1639b81f49bb41247759700e30"
          ],
          "data": "0x00000000000000000000000000000000000000000000000000313d98b8964000",
          "blockHash": "0x0faa8d6bac3b5c53085ee7c067f7e9d8bbd6a61d6362a804d0e260494dbff077",
          "blockNumber": "0x17b831d",
          "blockTimestamp": "0x69dea620",
          "transactionHash": "0x0384e310d75b596761b6a0a3694b47b75e6b39f3e127cbba9a56cc1fb66ad1c6",
          "transactionIndex": "0x0",
          "logIndex": "0x1",
          "removed": false
        },
        {
          "address": "0xa5f104f8f78d5ba9aec4a383c0927337fd4e997b",
          "topics": [
            "0xddf252ad1be2c89b69c2b068fc378daa952ba7f163c4a11628f55a4df523b3ef",
            "0x00000000000000000000000008312e82df563a1639b81f49bb41247759700e30",
            "0x000000000000000000000000646dc5fc4009c4c84a424b6ae0f494b374bae1ce",
            "0x000000000000000000000000000000000000000000000000000000000000014e"
          ],
          "data": "0x",
          "blockHash": "0x0faa8d6bac3b5c53085ee7c067f7e9d8bbd6a61d6362a804d0e260494dbff077",
          "blockNumber": "0x17b831d",
          "blockTimestamp": "0x69dea620",
          "transactionHash": "0x0384e310d75b596761b6a0a3694b47b75e6b39f3e127cbba9a56cc1fb66ad1c6",
          "transactionIndex": "0x0",
          "logIndex": "0x2",
          "removed": false
        },
        {
          "address": "0x8fa71914948544c60e3379064567dcf0e6564d27",
          "topics": [
            "0xc0ac3eb1e8caef05b202043f34de8e3173fab712167584f7a2a9f4c302bd0e9c",
            "0xbf534c9407cffcaad6ca118fd4a98ca4571c5093889c7eeb3152265ff67d64d8",
            "0x000000000000000000000000a5f104f8f78d5ba9aec4a383c0927337fd4e997b",
            "0x000000000000000000000000000000000000000000000000000000000000014e"
          ],
          "data": "0x00000000000000000000000008312e82df563a1639b81f49bb41247759700e30000000000000000000000000646dc5fc4009c4c84a424b6ae0f494b374bae1ce000000000000000000000000c02aaa39b223fe8d0a0e5c4f27ead9083c756cc20000000000000000000000000000000000000000000000000031bced02db0000",
          "blockHash": "0x0faa8d6bac3b5c53085ee7c067f7e9d8bbd6a61d6362a804d0e260494dbff077",
          "blockNumber": "0x17b831d",
          "blockTimestamp": "0x69dea620",
          "transactionHash": "0x0384e310d75b596761b6a0a3694b47b75e6b39f3e127cbba9a56cc1fb66ad1c6",
          "transactionIndex": "0x0",
          "logIndex": "0x3",
          "removed": false
        }
      ],
      "logsBloom": "0x00000000000000000000010001000000000000000002000000000000000000000000000000100000020000000000000002000000090000000000004000100000000000000000000000010008000000000000000000000000080000000000000000000000000000000005000000000000000000000000000000000010a00000000800000000040000000004000000000000000000000000000000000000000000000000200000000400000000000000000000000000008080000000000000000080000002000004000000000000000000000008000000000080000000000000000100200000000000000000000000000000000000004000000000000000000000",
      "type": "0x2",
      "transactionHash": "0x0384e310d75b596761b6a0a3694b47b75e6b39f3e127cbba9a56cc1fb66ad1c6",
      "transactionIndex": "0x0",
      "blockHash": "0x0faa8d6bac3b5c53085ee7c067f7e9d8bbd6a61d6362a804d0e260494dbff077",
      "blockNumber": "0x17b831d",
      "gasUsed": "0x201ee",
      "effectiveGasPrice": "0x1ba81c",
      "blobGasPrice": "0x1",
      "from": "0x08312e82df563a1639b81f49bb41247759700e30",
      "to": "0x8fa71914948544c60e3379064567dcf0e6564d27",
      "contractAddress": null
    }
  ],
  "libraries": [],
  "pending": [],
  "returns": {},
  "timestamp": 1778506406214,
  "chain": 31337,
  "commit": "59e30a9"
}