{
  "transactions": [
    {
      "hash": "0x1f6176f768728a4e42930a8f8198a3852c086ac725e00158e3970a6f7a1927b4",
      "transactionType": "CALL",
      "contractName": null,
      "contractAddress": "0x8fa71914948544c60e3379064567dcf0e6564d27",
      "function": "settle((uint256,address),(uint8,bool,address,uint256,address,uint256,address,uint64,uint64,uint256),(uint8,bytes32,bytes32))",
      "arguments": [
        "(0, 0xc5aDfC119364CFE2297e4414dB04834d8702475B)",
        "(0, false, 0xA5f104F8f78d5ba9AEC4a383c0927337Fd4E997B, 46, 0xC02aaA39b223FE8D0A0e5C4F27eAD9083C756Cc2, 29000000000000000, 0x1302F142Fc55B165647d3Bd5dec227f569A2A907, 1771948470, 1780225816, 11)",
        "(28, 0x1e9b9a87fb274b7d046fbd3e4c77af8ccdee40059df7cf20e730b1c5d8981e4b, 0x7c9cc0dd4f9e2351ec62832ee1955504115340e2fd1afcf3973634c24e9e8017)"
      ],
      "transaction": {
        "from": "0xc5adfc119364cfe2297e4414db04834d8702475b",
        "to": "0x8fa71914948544c60e3379064567dcf0e6564d27",
        "gas": "0x2ee8a",
        "value": "0x0",
        "input": "0x3bae3e790000000000000000000000000000000000000000000000000000000000000000000000000000000000000000c5adfc119364cfe2297e4414db04834d8702475b00000000000000000000000000000000000000000000000000000000000000000000000000000000000000000000000000000000000000000000000000000000000000000000000000000000a5f104f8f78d5ba9aec4a383c0927337fd4e997b000000000000000000000000000000000000000000000000000000000000002e000000000000000000000000c02aaa39b223fe8d0a0e5c4f27ead9083c756cc200000000000000000000000000000000000000000000000000670758aa7c80000000000000000000000000001302f142fc55b165647d3bd5dec227f569a2a90700000000000000000000000000000000000000000000000000000000699dc9b6000000000000000000000000000000000000000000000000000000006a1c1718000000000000000000000000000000000000000000000000000000000000000b000000000000000000000000000000000000000000000000000000000000001c1e9b9a87fb274b7d046fbd3e4c77af8ccdee40059df7cf20e730b1c5d8981e4b7c9cc0dd4f9e2351ec62832ee1955504115340e2fd1afcf3973634c24e9e8017",
        "nonce": "0x46",
        "chainId": "0x7a69"
      },
      "additionalContracts": [],
      "isFixedGasLimit": false
    }
  ],
  "receipts": [
    {
      "status": "0x1",
      "cumulativeGasUsed": "0x20131",
      "logs": [
        {
          "address": "0xc02aaa39b223fe8d0a0e5c4f27ead9083c756cc2",
          "topics": [
            "0xddf252ad1be2c89b69c2b068fc378daa952ba7f163c4a11628f55a4df523b3ef",
            "0x000000000000000000000000c5adfc119364cfe2297e4414db04834d8702475b",
            "0x0000000000000000000000001804c8ab1f12e6bbf3894d4083f33e07309d1f38"
          ],
          "data": "0x000000000000000000000000000000000000000000000000000107c0e2fc2000",
          "blockHash": "0x58670ff23335e882a38db709993e4bd2c32a61c36cd1e0861c9fdbe8de4e2f36",
          "blockNumber": "0x17b83a7",
          "blockTimestamp": "0x6a01daf2",
          "transactionHash": "0x1f6176f768728a4e42930a8f8198a3852c086ac725e00158e3970a6f7a1927b4",
          "transactionIndex": "0x0",
          "logIndex": "0x0",
          "removed": false
        },
        {
          "address": "0xc02aaa39b223fe8d0a0e5c4f27ead9083c756cc2",
          "topics": [
            "0xddf252ad1be2c89b69c2b068fc378daa952ba7f163c4a11628f55a4df523b3ef",
            "0x000000000000000000000000c5adfc119364cfe2297e4414db04834d8702475b",
            "0x0000000000000000000000001302f142fc55b165647d3bd5dec227f569a2a907"
          ],
          "data": "0x0000000000000000000000000000000000000000000000000065ff97c7806000",
          "blockHash": "0x58670ff23335e882a38db709993e4bd2c32a61c36cd1e0861c9fdbe8de4e2f36",
          "blockNumber": "0x17b83a7",
          "blockTimestamp": "0x6a01daf2",
          "transactionHash": "0x1f6176f768728a4e42930a8f8198a3852c086ac725e00158e3970a6f7a1927b4",
          "transactionIndex": "0x0",
          "logIndex": "0x1",
          "removed": false
        },
        {
          "address": "0xa5f104f8f78d5ba9aec4a383c0927337fd4e997b",
          "topics": [
            "0xddf252ad1be2c89b69c2b068fc378daa952ba7f163c4a11628f55a4df523b3ef",
            "0x0000000000000000000000001302f142fc55b165647d3bd5dec227f569a2a907",
            "0x000000000000000000000000c5adfc119364cfe2297e4414db04834d8702475b",
            "0x000000000000000000000000000000000000000000000000000000000000002e"
          ],
          "data": "0x",
          "blockHash": "0x58670ff23335e882a38db709993e4bd2c32a61c36cd1e0861c9fdbe8de4e2f36",
          "blockNumber": "0x17b83a7",
          "blockTimestamp": "0x6a01daf2",
          "transactionHash": "0x1f6176f768728a4e42930a8f8198a3852c086ac725e00158e3970a6f7a1927b4",
          "transactionIndex": "0x0",
          "logIndex": "0x2",
          "removed": false
        },
        {
          "address": "0x8fa71914948544c60e3379064567dcf0e6564d27",
          "topics": [
            "0xc0ac3eb1e8caef05b202043f34de8e3173fab712167584f7a2a9f4c302bd0e9c",
            "0x599ad2e175449588102acdcbea968b69d6d4147eed04f5811bcc9f07bce0fecb",
            "0x000000000000000000000000a5f104f8f78d5ba9aec4a383c0927337fd4e997b",
            "0x000000000000000000000000000000000000000000000000000000000000002e"
          ],
          "data": "0x0000000000000000000000001302f142fc55b165647d3bd5dec227f569a2a907000000000000000000000000c5adfc119364cfe2297e4414db04834d8702475b000000000000000000000000c02aaa39b223fe8d0a0e5c4f27ead9083c756cc200000000000000000000000000000000000000000000000000670758aa7c8000",
          "blockHash": "0x58670ff23335e882a38db709993e4bd2c32a61c36cd1e0861c9fdbe8de4e2f36",
          "blockNumber": "0x17b83a7",
          "blockTimestamp": "0x6a01daf2",
          "transactionHash": "0x1f6176f768728a4e42930a8f8198a3852c086ac725e00158e3970a6f7a1927b4",
          "transactionIndex": "0x0",
          "logIndex": "0x3",
          "removed": false
        }
      ],
      "logsBloom": "0x04000000000000000000010000000000000000000000000000000000000000000000000000000000000000000000000002001000080000000000000000100000000000000000000080010008000000000000000000000000080000000000000200000000000000000001000000000000000000000000000000000010200000000800000000040000000004000000000000000000000008000000000000000000000000240000000440000000000120000000000000000080000000000000000000000002000004000000000200000000000000000000000080000000000000000100200000000000000040000000000000000000000000002000000000000000",
      "type": "0x2",
      "transactionHash": "0x1f6176f768728a4e42930a8f8198a3852c086ac725e00158e3970a6f7a1927b4",
      "transactionIndex": "0x0",
      "blockHash": "0x58670ff23335e882a38db709993e4bd2c32a61c36cd1e0861c9fdbe8de4e2f36",
      "blockNumber": "0x17b83a7",
      "gasUsed": "0x20131",
      "effectiveGasPrice": "0x1ba81c",
      "blobGasPrice": "0x1",
      "from": "0xc5adfc119364cfe2297e4414db04834d8702475b",
      "to": "0x8fa71914948544c60e3379064567dcf0e6564d27",
      "contractAddress": null
    }
  ],
  "libraries": [],
  "pending": [],
  "returns": {},
  "timestamp": 1778506556341,
  "chain": 31337,
  "commit": "59e30a9"
}