{
  "transactions": [
    {
      "hash": "0x3fb15beac618c42bc147333c770d913f383664e1105bde762ffc7e5b6a3e4181",
      "transactionType": "CALL",
      "contractName": null,
      "contractAddress": "0x8fa71914948544c60e3379064567dcf0e6564d27",
      "function": "settle((uint256,address),(uint8,bool,address,uint256,address,uint256,address,uint64,uint64,uint256),(uint8,bytes32,bytes32))",
      "arguments": [
        "(274, 0xc5aDfC119364CFE2297e4414dB04834d8702475B)",
        "(1, false, 0xA5f104F8f78d5ba9AEC4a383c0927337Fd4E997B, 274, 0xC02aaA39b223FE8D0A0e5C4F27eAD9083C756Cc2, 13000000000000000, 0x4b75AeC40561C03e03d4D1C421dF194a3031A134, 1773416055, 1778758231, 7)",
        "(27, 0xdc23b3a354335d4df3ea9a77252e6402a39422d51f5ba6576f4ab360e0b03008, 0x574e220a1469ab133fb536f588ba84e3dd8ba8f03c9dd4c7e113f6d47b017eac)"
      ],
      "transaction": {
        "from": "0xc5adfc119364cfe2297e4414db04834d8702475b",
        "to": "0x8fa71914948544c60e3379064567dcf0e6564d27",
        "gas": "0x2efa4",
        "value": "0x0",
        "input": "0x3bae3e790000000000000000000000000000000000000000000000000000000000000112000000000000000000000000c5adfc119364cfe2297e4414db04834d8702475b00000000000000000000000000000000000000000000000000000000000000010000000000000000000000000000000000000000000000000000000000000000000000000000000000000000a5f104f8f78d5ba9aec4a383c0927337fd4e997b0000000000000000000000000000000000000000000000000000000000000112000000000000000000000000c02aaa39b223fe8d0a0e5c4f27ead9083c756cc2000000000000000000000000000000000000000000000000002e2f6e5e1480000000000000000000000000004b75aec40561c03e03d4d1c421df194a3031a1340000000000000000000000000000000000000000000000000000000069b42e77000000000000000000000000000000000000000000000000000000006a05b2570000000000000000000000000000000000000000000000000000000000000007000000000000000000000000000000000000000000000000000000000000001bdc23b3a354335d4df3ea9a77252e6402a39422d51f5ba6576f4ab360e0b03008574e220a1469ab133fb536f588ba84e3dd8ba8f03c9dd4c7e113f6d47b017eac",
        "nonce": "0x3a",
        "chainId": "0x7a69"
      },
      "additionalContracts": [],
      "isFixedGasLimit": false
    }
  ],
  "receipts": [
    {
      "status": "0x1",
      "cumulativeGasUsed": "0x201f2",
      "logs": [
        {
          "address": "0xc02aaa39b223fe8d0a0e5c4f27ead9083c756cc2",
          "topics": [
            "0xddf252ad1be2c89b69c2b068fc378daa952ba7f163c4a11628f55a4df523b3ef",
            "0x0000000000000000000000004b75aec40561c03e03d4d1c421df194a3031a134",
            "0x0000000000000000000000001804c8ab1f12e6bbf3894d4083f33e07309d1f38"
          ],
          "data": "0x0000000000000000000000000000000000000000000000000000763bfbd22000",
          "blockHash": "0xcb8bfdff9971fcf55941c483ebafb93b98453c77f9593a552ebdb2ac1c1b2ac0",
          "blockNumber": "0x17b8358",
          "blockTimestamp": "0x69f006e6",
          "transactionHash": "0x3fb15beac618c42bc147333c770d913f383664e1105bde762ffc7e5b6a3e4181",
          "transactionIndex": "0x0",
          "logIndex": "0x0",
          "removed": false
        },
        {
          "address": "0xc02aaa39b223fe8d0a0e5c4f27ead9083c756cc2",
          "topics": [
            "0xddf252ad1be2c89b69c2b068fc378daa952ba7f163c4a11628f55a4df523b3ef",
            "0x0000000000000000000000004b75aec40561c03e03d4d1c421df194a3031a134",
            "0x000000000000000000000000c5adfc119364cfe2297e4414db04834d8702475b"
          ],
          "data": "0x000000000000000000000000000000000000000000000000002db93262426000",
          "blockHash": "0xcb8bfdff9971fcf55941c483ebafb93b98453c77f9593a552ebdb2ac1c1b2ac0",
          "blockNumber": "0x17b8358",
          "blockTimestamp": "0x69f006e6",
          "transactionHash": "0x3fb15beac618c42bc147333c770d913f383664e1105bde762ffc7e5b6a3e4181",
          "transactionIndex": "0x0",
          "logIndex": "0x1",
          "removed": false
        },
        {
          "address": "0xa5f104f8f78d5ba9aec4a383c0927337fd4e997b",
          "topics": [
            "0xddf252ad1be2c89b69c2b068fc378daa952ba7f163c4a11628f55a4df523b3ef",
            "0x000000000000000000000000c5adfc119364cfe2297e4414db04834d8702475b",
            "0x0000000000000000000000004b75aec40561c03e03d4d1c421df194a3031a134",
            "0x0000000000000000000000000000000000000000000000000000000000000112"
          ],
          "data": "0x",
          "blockHash": "0xcb8bfdff9971fcf55941c483ebafb93b98453c77f9593a552ebdb2ac1c1b2ac0",
          "blockNumber": "0x17b8358",
          "blockTimestamp": "0x69f006e6",
          "transactionHash": "0x3fb15beac618c42bc147333c770d913f383664e1105bde762ffc7e5b6a3e4181",
          "transactionIndex": "0x0",
          "logIndex": "0x2",
          "removed": false
        },
        {
          "address": "0x8fa71914948544c60e3379064567dcf0e6564d27",
          "topics": [
            "0xc0ac3eb1e8caef05b202043f34de8e3173fab712167584f7a2a9f4c302bd0e9c",
            "0xe3d59e5ac0d9ed9ddf4b2bbe3633987fe418ee9dbb9f275c3498ef36daf667e7",
            "0x000000000000000000000000a5f104f8f78d5ba9aec4a383c0927337fd4e997b",
            "0x0000000000000000000000000000000000000000000000000000000000000112"
          ],
          "data": "0x000000000000000000000000c5adfc119364cfe2297e4414db04834d8702475b0000000000000000000000004b75aec40561c03e03d4d1c421df194a3031a134000000000000000000000000c02aaa39b223fe8d0a0e5c4f27ead9083c756cc2000000000000000000000000000000000000000000000000002e2f6e5e148000",
          "blockHash": "0xcb8bfdff9971fcf55941c483ebafb93b98453c77f9593a552ebdb2ac1c1b2ac0",
          "blockNumber": "0x17b8358",
          "blockTimestamp": "0x69f006e6",
          "transactionHash": "0x3fb15beac618c42bc147333c770d913f383664e1105bde762ffc7e5b6a3e4181",
          "transactionIndex": "0x0",
          "logIndex": "0x3",
          "removed": false
        }
      ],
      "logsBloom": "0x00000000000000000000010000000000000000000000000000000000000000000000000000000000000000000000000002000000080000000000000000100000000000000000000000010008000000000000000001000000080000800000000200000000000000000001000000000000000000000000000000000010200000000c00000000040000000004000000000000000000000000000000000000002000000000208000000400000000000420000000000000000080020000000000000000000002000004000000000000000000000000000000000080000000000000040100200000000000000000000000000000000000000000002000000000200000",
      "type": "0x2",
      "transactionHash": "0x3fb15beac618c42bc147333c770d913f383664e1105bde762ffc7e5b6a3e4181",
      "transactionIndex": "0x0",
      "blockHash": "0xcb8bfdff9971fcf55941c483ebafb93b98453c77f9593a552ebdb2ac1c1b2ac0",
      "blockNumber": "0x17b8358",
      "gasUsed": "0x201f2",
      "effectiveGasPrice": "0x1ba81c",
      "blobGasPrice": "0x1",
      "from": "0xc5adfc119364cfe2297e4414db04834d8702475b",
      "to": "0x8fa71914948544c60e3379064567dcf0e6564d27",
      "contractAddress": null
    }
  ],
  "libraries": [],
  "pending": [],
  "returns": {},
  "timestamp": 1778506473496,
  "chain": 31337,
  "commit": "59e30a9"
}