{
  "transactions": [
    {
      "hash": "0x619a2b4702d783e7d46cc3815422441434090a3f8e929b36dcbe386333d9a721",
      "transactionType": "CALL",
      "contractName": null,
      "contractAddress": "0x8fa71914948544c60e3379064567dcf0e6564d27",
      "function": "settle((uint256,address),(uint8,bool,address,uint256,address,uint256,address,uint64,uint64,uint256),(uint8,bytes32,bytes32))",
      "arguments": [
        "(0, 0x646dC5Fc4009C4C84a424B6aE0f494b374bAE1Ce)",
        "(0, false, 0xA5f104F8f78d5ba9AEC4a383c0927337Fd4E997B, 100, 0xC02aaA39b223FE8D0A0e5C4F27eAD9083C756Cc2, 930000000000000000, 0xe3745C151faB59B0740f4312b2B027F07D096639, 1771529581, 1780644705, 1)",
        "(28, 0xc2518b565e496dcc28d8405ab0df6e63e4fa302acc592b1723692092c5674f4a, 0x2920743b8c40838c3495b3427232ff125c482177b1c807e64ffe93887ab87eb2)"
      ],
      "transaction": {
        "from": "0x646dc5fc4009c4c84a424b6ae0f494b374bae1ce",
        "to": "0x8fa71914948544c60e3379064567dcf0e6564d27",
        "gas": "0x2ee8a",
        "value": "0x0",
        "input": "0x3bae3e790000000000000000000000000000000000000000000000000000000000000000000000000000000000000000646dc5fc4009c4c84a424b6ae0f494b374bae1ce00000000000000000000000000000000000000000000000000000000000000000000000000000000000000000000000000000000000000000000000000000000000000000000000000000000a5f104f8f78d5ba9aec4a383c0927337fd4e997b0000000000000000000000000000000000000000000000000000000000000064000000000000000000000000c02aaa39b223fe8d0a0e5c4f27ead9083c756cc20000000000000000000000000000000000000000000000000ce80612991d0000000000000000000000000000e3745c151fab59b0740f4312b2b027f07d096639000000000000000000000000000000000000000000000000000000006997656d000000000000000000000000000000000000000000000000000000006a227b610000000000000000000000000000000000000000000000000000000000000001000000000000000000000000000000000000000000000000000000000000001cc2518b565e496dcc28d8405ab0df6e63e4fa302acc592b1723692092c5674f4a2920743b8c40838c3495b3427232ff125c482177b1c807e64ffe93887ab87eb2",
        "nonce": "0x4d",
        "chainId": "0x7a69"
      },
      "additionalContracts": [],
      "isFixedGasLimit": false
    }
  ],
  "receipts": [
    {
      "status": "0x1",
      "cumulativeGasUsed": "0x20131",
      "logs": [
        {
          "address": "0xc02aaa39b223fe8d0a0e5c4f27ead9083c756cc2",
          "topics": [
            "0xddf252ad1be2c89b69c2b068fc378daa952ba7f163c4a11628f55a4df523b3ef",
            "0x000000000000000000000000646dc5fc4009c4c84a424b6ae0f494b374bae1ce",
            "0x0000000000000000000000001804c8ab1f12e6bbf3894d4083f33e07309d1f38"
          ],
          "data": "0x00000000000000000000000000000000000000000000000000210a4cfc694000",
          "blockHash": "0x6b491c8bcf97dc5205a3223610ce5d16f1084f0f156c7bebd0815ec8d83b8200",
          "blockNumber": "0x17b8333",
          "blockTimestamp": "0x69e62b31",
          "transactionHash": "0x619a2b4702d783e7d46cc3815422441434090a3f8e929b36dcbe386333d9a721",
          "transactionIndex": "0x0",
          "logIndex": "0x0",
          "removed": false
        },
        {
          "address": "0xc02aaa39b223fe8d0a0e5c4f27ead9083c756cc2",
          "topics": [
            "0xddf252ad1be2c89b69c2b068fc378daa952ba7f163c4a11628f55a4df523b3ef",
            "0x000000000000000000000000646dc5fc4009c4c84a424b6ae0f494b374bae1ce",
            "0x000000000000000000000000e3745c151fab59b0740f4312b2b027f07d096639"
          ],
          "data": "0x0000000000000000000000000000000000000000000000000cc6fbc59cb3c000",
          "blockHash": "0x6b491c8bcf97dc5205a3223610ce5d16f1084f0f156c7bebd0815ec8d83b8200",
          "blockNumber": "0x17b8333",
          "blockTimestamp": "0x69e62b31",
          "transactionHash": "0x619a2b4702d783e7d46cc3815422441434090a3f8e929b36dcbe386333d9a721",
          "transactionIndex": "0x0",
          "logIndex": "0x1",
          "removed": false
        },
        {
          "address": "0xa5f104f8f78d5ba9aec4a383c0927337fd4e997b",
          "topics": [
            "0xddf252ad1be2c89b69c2b068fc378daa952ba7f163c4a11628f55a4df523b3ef",
            "0x000000000000000000000000e3745c151fab59b0740f4312b2b027f07d096639",
            "0x000000000000000000000000646dc5fc4009c4c84a424b6ae0f494b374bae1ce",
            "0x0000000000000000000000000000000000000000000000000000000000000064"
          ],
          "data": "0x",
          "blockHash": "0x6b491c8bcf97dc5205a3223610ce5d16f1084f0f156c7bebd0815ec8d83b8200",
          "blockNumber": "0x17b8333",
          "blockTimestamp": "0x69e62b31",
          "transactionHash": "0x619a2b4702d783e7d46cc3815422441434090a3f8e929b36dcbe386333d9a721",
          "transactionIndex": "0x0",
          "logIndex": "0x2",
          "removed": false
        },
        {
          "address": "0x8fa71914948544c60e3379064567dcf0e6564d27",
          "topics": [
            "0xc0ac3eb1e8caef05b202043f34de8e3173fab712167584f7a2a9f4c302bd0e9c",
            "0x4968a49f692b51e061d21c5155f6ee773b4a21731a04732a2ebe0fb2065e6be0",
            "0x000000000000000000000000a5f104f8f78d5ba9aec4a383c0927337fd4e997b",
            "0x0000000000000000000000000000000000000000000000000000000000000064"
          ],
          "data": "0x000000000000000000000000e3745c151fab59b0740f4312b2b027f07d096639000000000000000000000000646dc5fc4009c4c84a424b6ae0f494b374bae1ce000000000000000000000000c02aaa39b223fe8d0a0e5c4f27ead9083c756cc20000000000000000000000000000000000000000000000000ce80612991d0000",
          "blockHash": "0x6b491c8bcf97dc5205a3223610ce5d16f1084f0f156c7bebd0815ec8d83b8200",
          "blockNumber": "0x17b8333",
          "blockTimestamp": "0x69e62b31",
          "transactionHash": "0x619a2b4702d783e7d46cc3815422441434090a3f8e929b36dcbe386333d9a721",
          "transactionIndex": "0x0",
          "logIndex": "0x3",
          "removed": false
        }
      ],
      "logsBloom": "0x00000000000000000000010000200000000000000102000000000000000000000000000004000000000000000000000042010000090000000000000000180000000000000000000000010008000000000000000000000000080000000000000000000000000000000005000000000000000000000000000000000010200000000800000000040000000004000000000000000000000000000000000000000000000000200000000400000000000000000000000000000080000000000000000000000002000004000000000000000000000000000000000080000840000000000100200000000000000000000000000000000000000000008000000000000000",
      "type": "0x2",
      "transactionHash": "0x619a2b4702d783e7d46cc3815422441434090a3f8e929b36dcbe386333d9a721",
      "transactionIndex": "0x0",
      "blockHash": "0x6b491c8bcf97dc5205a3223610ce5d16f1084f0f156c7bebd0815ec8d83b8200",
      "blockNumber": "0x17b8333",
      "gasUsed": "0x20131",
      "effectiveGasPrice": "0x1ba81c",
      "blobGasPrice": "0x1",
      "from": "0x646dc5fc4009c4c84a424b6ae0f494b374bae1ce",
      "to": "0x8fa71914948544c60e3379064567dcf0e6564d27",
      "contractAddress": null
    }
  ],
  "libraries": [],
  "pending": [],
  "returns": {},
  "timestamp": 1778506426030,
  "chain": 31337,
  "commit": "59e30a9"
}