{
  "transactions": [
    {
      "hash": "0xa0b22986fe778b9a80cfebf7252a6010fb42732855b03011e60749af5248aaf3",
      "transactionType": "CALL",
      "contractName": null,
      "contractAddress": "0x73973d222c3fda5b2563d269da9e19cb125000f4",
      "function": "settle((uint256,address),(uint8,bool,address,uint256,address,uint256,address,uint64,uint64,uint256),(uint8,bytes32,bytes32))",
      "arguments": [
        "(246, 0x2c2dbA75492E0C4A1D10B41303167aEC59586C9c)",
        "(1, false, 0x38D4dE42C9c5640A2799B372D27B01957E0a3673, 246, 0xC02aaA39b223FE8D0A0e5C4F27eAD9083C756Cc2, 16000000000000000, 0xa382b0E75C192D9CDF5c084E58b750Cea7761Bd0, 1773281595, 1778784043, 12)",
        "(27, 0x792ef3de12ed260ebb11a2eaa47a8a051cc8b4cad66fe5a209746cda67c9383c, 0x7b0bff0c7dace734c1df7afa14f444906014d2450359c2e6912ff9451dff77a3)"
      ],
      "transaction": {
        "from": "0x2c2dba75492e0c4a1d10b41303167aec59586c9c",
        "to": "0x73973d222c3fda5b2563d269da9e19cb125000f4",
        "gas": "0x2c5b0",
        "value": "0x0",
        "input": "0x3bae3e7900000000000000000000000000000000000000000000000000000000000000f60000000000000000000000002c2dba75492e0c4a1d10b41303167aec59586c9c0000000000000000000000000000000000000000000000000000000000000001000000000000000000000000000000000000000000000000000000000000000000000000000000000000000038d4de42c9c5640a2799b372d27b01957e0a367300000000000000000000000000000000000000000000000000000000000000f6000000000000000000000000c02aaa39b223fe8d0a0e5c4f27ead9083c756cc20000000000000000000000000000000000000000000000000038d7ea4c680000000000000000000000000000a382b0e75c192d9cdf5c084e58b750cea7761bd00000000000000000000000000000000000000000000000000000000069b2213b000000000000000000000000000000000000000000000000000000006a06172b000000000000000000000000000000000000000000000000000000000000000c000000000000000000000000000000000000000000000000000000000000001b792ef3de12ed260ebb11a2eaa47a8a051cc8b4cad66fe5a209746cda67c9383c7b0bff0c7dace734c1df7afa14f444906014d2450359c2e6912ff9451dff77a3",
        "nonce": "0x6b",
        "chainId": "0x7a69"
      },
      "additionalContracts": [],
      "isFixedGasLimit": false
    }
  ],
  "receipts": [
    {
      "status": "0x1",
      "cumulativeGasUsed": "0x201ce",
      "logs": [
        {
          "address": "0xc02aaa39b223fe8d0a0e5c4f27ead9083c756cc2",
          "topics": [
            "0xddf252ad1be2c89b69c2b068fc378daa952ba7f163c4a11628f55a4df523b3ef",
            "0x000000000000000000000000a382b0e75c192d9cdf5c084e58b750cea7761bd0",
            "0x0000000000000000000000001804c8ab1f12e6bbf3894d4083f33e07309d1f38"
          ],
          "data": "0x00000000000000000000000000000000000000000000000000009184e72a0000",
          "blockHash": "0xc5d371b0a7c2de0518d0219760968007630aebc96e96b12b0330c30d7273b815",
          "blockNumber": "0x17b73c2",
          "blockTimestamp": "0x69e712d6",
          "transactionHash": "0xa0b22986fe778b9a80cfebf7252a6010fb42732855b03011e60749af5248aaf3",
          "transactionIndex": "0x0",
          "logIndex": "0x0",
          "removed": false
        },
        {
          "address": "0xc02aaa39b223fe8d0a0e5c4f27ead9083c756cc2",
          "topics": [
            "0xddf252ad1be2c89b69c2b068fc378daa952ba7f163c4a11628f55a4df523b3ef",
            "0x000000000000000000000000a382b0e75c192d9cdf5c084e58b750cea7761bd0",
            "0x0000000000000000000000002c2dba75492e0c4a1d10b41303167aec59586c9c"
          ],
          "data": "0x00000000000000000000000000000000000000000000000000384665653e0000",
          "blockHash": "0xc5d371b0a7c2de0518d0219760968007630aebc96e96b12b0330c30d7273b815",
          "blockNumber": "0x17b73c2",
          "blockTimestamp": "0x69e712d6",
          "transactionHash": "0xa0b22986fe778b9a80cfebf7252a6010fb42732855b03011e60749af5248aaf3",
          "transactionIndex": "0x0",
          "logIndex": "0x1",
          "removed": false
        },
        {
          "address": "0x38d4de42c9c5640a2799b372d27b01957e0a3673",
          "topics": [
            "0xddf252ad1be2c89b69c2b068fc378daa952ba7f163c4a11628f55a4df523b3ef",
            "0x0000000000000000000000002c2dba75492e0c4a1d10b41303167aec59586c9c",
            "0x000000000000000000000000a382b0e75c192d9cdf5c084e58b750cea7761bd0",
            "0x00000000000000000000000000000000000000000000000000000000000000f6"
          ],
          "data": "0x",
          "blockHash": "0xc5d371b0a7c2de0518d0219760968007630aebc96e96b12b0330c30d7273b815",
          "blockNumber": "0x17b73c2",
          "blockTimestamp": "0x69e712d6",
          "transactionHash": "0xa0b22986fe778b9a80cfebf7252a6010fb42732855b03011e60749af5248aaf3",
          "transactionIndex": "0x0",
          "logIndex": "0x2",
          "removed": false
        },
        {
          "address": "0x73973d222c3fda5b2563d269da9e19cb125000f4",
          "topics": [
            "0xc0ac3eb1e8caef05b202043f34de8e3173fab712167584f7a2a9f4c302bd0e9c",
            "0x6e3eb9141b93e0069f5a01c0fa66a47acda474c26787ab78ea5d113a3a4ba184",
            "0x00000000000000000000000038d4de42c9c5640a2799b372d27b01957e0a3673",
            "0x00000000000000000000000000000000000000000000000000000000000000f6"
          ],
          "data": "0x0000000000000000000000002c2dba75492e0c4a1d10b41303167aec59586c9c000000000000000000000000a382b0e75c192d9cdf5c084e58b750cea7761bd0000000000000000000000000c02aaa39b223fe8d0a0e5c4f27ead9083c756cc20000000000000000000000000000000000000000000000000038d7ea4c680000",
          "blockHash": "0xc5d371b0a7c2de0518d0219760968007630aebc96e96b12b0330c30d7273b815",
          "blockNumber": "0x17b73c2",
          "blockTimestamp": "0x69e712d6",
          "transactionHash": "0xa0b22986fe778b9a80cfebf7252a6010fb42732855b03011e60749af5248aaf3",
          "transactionIndex": "0x0",
          "logIndex": "0x3",
          "removed": false
        }
      ],
      "logsBloom": "0x00000000000000000000000000000800000000000002000000000000000000000000000000000000000000000000020002000000080000000004100802100000008200000000001021000008000000000000010000000000000000000000000004000000000004000001000000000000000000000000040000000010000000000000000000000000000004080000000000100000000008000000000000000000000000000000000000000000000000000000000000000080400000000000000000000002000004000000000000000000000000000000000000000000000000000100200000000000000000000000000000000000100000000000000000000000",
      "type": "0x2",
      "transactionHash": "0xa0b22986fe778b9a80cfebf7252a6010fb42732855b03011e60749af5248aaf3",
      "transactionIndex": "0x0",
      "blockHash": "0xc5d371b0a7c2de0518d0219760968007630aebc96e96b12b0330c30d7273b815",
      "blockNumber": "0x17b73c2",
      "gasUsed": "0x201ce",
      "effectiveGasPrice": "0xf4248",
      "blobGasPrice": "0x1",
      "from": "0x2c2dba75492e0c4a1d10b41303167aec59586c9c",
      "to": "0x73973d222c3fda5b2563d269da9e19cb125000f4",
      "contractAddress": null
    }
  ],
  "libraries": [],
  "pending": [],
  "returns": {},
  "timestamp": 1778453770934,
  "chain": 31337,
  "commit": "f87d399"
}