{
  "transactions": [
    {
      "hash": "0xb207166d22327129545778f53fef06ea03bc3c76195bd31f53b2c59069e987da",
      "transactionType": "CALL",
      "contractName": null,
      "contractAddress": "0x8fa71914948544c60e3379064567dcf0e6564d27",
      "function": "settle((uint256,address),(uint8,bool,address,uint256,address,uint256,address,uint64,uint64,uint256),(uint8,bytes32,bytes32))",
      "arguments": [
        "(0, 0xc5aDfC119364CFE2297e4414dB04834d8702475B)",
        "(0, false, 0xA5f104F8f78d5ba9AEC4a383c0927337Fd4E997B, 400, 0xC02aaA39b223FE8D0A0e5C4F27eAD9083C756Cc2, 995000000000000000, 0x646dC5Fc4009C4C84a424B6aE0f494b374bAE1Ce, 1771999733, 1780174553, 11)",
        "(27, 0x6a450ef916331fbbce54911d6534d9ca2cd7bf73dd02042b13e1d677c1055838, 0x2e0aaa819dab1d3f39613e294e2a1200875e37b0ab0d8eef96e43853aa98bbde)"
      ],
      "transaction": {
        "from": "0xc5adfc119364cfe2297e4414db04834d8702475b",
        "to": "0x8fa71914948544c60e3379064567dcf0e6564d27",
        "gas": "0x2ee7f",
        "value": "0x0",
        "input": "0x3bae3e790000000000000000000000000000000000000000000000000000000000000000000000000000000000000000c5adfc119364cfe2297e4414db04834d8702475b00000000000000000000000000000000000000000000000000000000000000000000000000000000000000000000000000000000000000000000000000000000000000000000000000000000a5f104f8f78d5ba9aec4a383c0927337fd4e997b0000000000000000000000000000000000000000000000000000000000000190000000000000000000000000c02aaa39b223fe8d0a0e5c4f27ead9083c756cc20000000000000000000000000000000000000000000000000dcef33a6f838000000000000000000000000000646dc5fc4009c4c84a424b6ae0f494b374bae1ce00000000000000000000000000000000000000000000000000000000699e91f5000000000000000000000000000000000000000000000000000000006a1b4ed9000000000000000000000000000000000000000000000000000000000000000b000000000000000000000000000000000000000000000000000000000000001b6a450ef916331fbbce54911d6534d9ca2cd7bf73dd02042b13e1d677c10558382e0aaa819dab1d3f39613e294e2a1200875e37b0ab0d8eef96e43853aa98bbde",
        "nonce": "0x3f",
        "chainId": "0x7a69"
      },
      "additionalContracts": [],
      "isFixedGasLimit": false
    }
  ],
  "receipts": [
    {
      "status": "0x1",
      "cumulativeGasUsed": "0x20129",
      "logs": [
        {
          "address": "0xc02aaa39b223fe8d0a0e5c4f27ead9083c756cc2",
          "topics": [
            "0xddf252ad1be2c89b69c2b068fc378daa952ba7f163c4a11628f55a4df523b3ef",
            "0x000000000000000000000000c5adfc119364cfe2297e4414db04834d8702475b",
            "0x0000000000000000000000001804c8ab1f12e6bbf3894d4083f33e07309d1f38"
          ],
          "data": "0x00000000000000000000000000000000000000000000000000235978e783e000",
          "blockHash": "0x7e461e33f6a3bab4a46cccceff1d1e8290c6f44e07a9f6ac0f7c3dc8132d6617",
          "blockNumber": "0x17b837c",
          "blockTimestamp": "0x69f793ec",
          "transactionHash": "0xb207166d22327129545778f53fef06ea03bc3c76195bd31f53b2c59069e987da",
          "transactionIndex": "0x0",
          "logIndex": "0x0",
          "removed": false
        },
        {
          "address": "0xc02aaa39b223fe8d0a0e5c4f27ead9083c756cc2",
          "topics": [
            "0xddf252ad1be2c89b69c2b068fc378daa952ba7f163c4a11628f55a4df523b3ef",
            "0x000000000000000000000000c5adfc119364cfe2297e4414db04834d8702475b",
            "0x000000000000000000000000646dc5fc4009c4c84a424b6ae0f494b374bae1ce"
          ],
          "data": "0x0000000000000000000000000000000000000000000000000dab99c187ffa000",
          "blockHash": "0x7e461e33f6a3bab4a46cccceff1d1e8290c6f44e07a9f6ac0f7c3dc8132d6617",
          "blockNumber": "0x17b837c",
          "blockTimestamp": "0x69f793ec",
          "transactionHash": "0xb207166d22327129545778f53fef06ea03bc3c76195bd31f53b2c59069e987da",
          "transactionIndex": "0x0",
          "logIndex": "0x1",
          "removed": false
        },
        {
          "address": "0xa5f104f8f78d5ba9aec4a383c0927337fd4e997b",
          "topics": [
            "0xddf252ad1be2c89b69c2b068fc378daa952ba7f163c4a11628f55a4df523b3ef",
            "0x000000000000000000000000646dc5fc4009c4c84a424b6ae0f494b374bae1ce",
            "0x000000000000000000000000c5adfc119364cfe2297e4414db04834d8702475b",
            "0x0000000000000000000000000000000000000000000000000000000000000190"
          ],
          "data": "0x",
          "blockHash": "0x7e461e33f6a3bab4a46cccceff1d1e8290c6f44e07a9f6ac0f7c3dc8132d6617",
          "blockNumber": "0x17b837c",
          "blockTimestamp": "0x69f793ec",
          "transactionHash": "0xb207166d22327129545778f53fef06ea03bc3c76195bd31f53b2c59069e987da",
          "transactionIndex": "0x0",
          "logIndex": "0x2",
          "removed": false
        },
        {
          "address": "0x8fa71914948544c60e3379064567dcf0e6564d27",
          "topics": [
            "0xc0ac3eb1e8caef05b202043f34de8e3173fab712167584f7a2a9f4c302bd0e9c",
            "0xb141d35a6ca161e8428f46572754c676704dd834190f4c35009d7ed4ef85fb74",
            "0x000000000000000000000000a5f104f8f78d5ba9aec4a383c0927337fd4e997b",
            "0x0000000000000000000000000000000000000000000000000000000000000190"
          ],
          "data": "0x000000000000000000000000646dc5fc4009c4c84a424b6ae0f494b374bae1ce000000000000000000000000c5adfc119364cfe2297e4414db04834d8702475b000000000000000000000000c02aaa39b223fe8d0a0e5c4f27ead9083c756cc20000000000000000000000000000000000000000000000000dcef33a6f838000",
          "blockHash": "0x7e461e33f6a3bab4a46cccceff1d1e8290c6f44e07a9f6ac0f7c3dc8132d6617",
          "blockNumber": "0x17b837c",
          "blockTimestamp": "0x69f793ec",
          "transactionHash": "0xb207166d22327129545778f53fef06ea03bc3c76195bd31f53b2c59069e987da",
          "transactionIndex": "0x0",
          "logIndex": "0x3",
          "removed": false
        }
      ],
      "logsBloom": "0x00000000000000000000010000000000000000040002000000000000000000000000000000000200000000000000000002000000090000000000000000100000000000000000000000010008000000000000000010000000080000000000000200000000000000000005000000000000000000000000000000000010200000000800000000040000000004000000000000000000000000000000000000000000000000200000000400000000000020000000000000000080000000000000000000000002000004000000000000000000000000000000000080000000000000000100200000000000000000000008000000000000000100002000000000000000",
      "type": "0x2",
      "transactionHash": "0xb207166d22327129545778f53fef06ea03bc3c76195bd31f53b2c59069e987da",
      "transactionIndex": "0x0",
      "blockHash": "0x7e461e33f6a3bab4a46cccceff1d1e8290c6f44e07a9f6ac0f7c3dc8132d6617",
      "blockNumber": "0x17b837c",
      "gasUsed": "0x20129",
      "effectiveGasPrice": "0x1ba81c",
      "blobGasPrice": "0x1",
      "from": "0xc5adfc119364cfe2297e4414db04834d8702475b",
      "to": "0x8fa71914948544c60e3379064567dcf0e6564d27",
      "contractAddress": null
    }
  ],
  "libraries": [],
  "pending": [],
  "returns": {},
  "timestamp": 1778506506198,
  "chain": 31337,
  "commit": "59e30a9"
}