{
  "transactions": [
    {
      "hash": "0x711bbe5103c5bf006100998f3601565afd5807af7c09d8a56a89b6b92a3f497d",
      "transactionType": "CALL",
      "contractName": null,
      "contractAddress": "0x8fa71914948544c60e3379064567dcf0e6564d27",
      "function": "settle((uint256,address),(uint8,bool,address,uint256,address,uint256,address,uint64,uint64,uint256),(uint8,bytes32,bytes32))",
      "arguments": [
        "(443, 0xc5aDfC119364CFE2297e4414dB04834d8702475B)",
        "(1, false, 0xA5f104F8f78d5ba9AEC4a383c0927337Fd4E997B, 443, 0xC02aaA39b223FE8D0A0e5C4F27eAD9083C756Cc2, 25000000000000000, 0x4b75AeC40561C03e03d4D1C421dF194a3031A134, 1772116600, 1780057686, 8)",
        "(27, 0xa41055eb1b1ef3bd2e3366f679014c9ed769afb72b1a9b7a65f96743b9af17de, 0x7564dbe911278f2fede90e53eb272f3fb78c9b626f5f5872a640784d817e630f)"
      ],
      "transaction": {
        "from": "0xc5adfc119364cfe2297e4414db04834d8702475b",
        "to": "0x8fa71914948544c60e3379064567dcf0e6564d27",
        "gas": "0x2efa4",
        "value": "0x0",
        "input": "0x3bae3e7900000000000000000000000000000000000000000000000000000000000001bb000000000000000000000000c5adfc119364cfe2297e4414db04834d8702475b00000000000000000000000000000000000000000000000000000000000000010000000000000000000000000000000000000000000000000000000000000000000000000000000000000000a5f104f8f78d5ba9aec4a383c0927337fd4e997b00000000000000000000000000000000000000000000000000000000000001bb000000000000000000000000c02aaa39b223fe8d0a0e5c4f27ead9083c756cc20000000000000000000000000000000000000000000000000058d15e176280000000000000000000000000004b75aec40561c03e03d4d1c421df194a3031a1340000000000000000000000000000000000000000000000000000000069a05a78000000000000000000000000000000000000000000000000000000006a1986560000000000000000000000000000000000000000000000000000000000000008000000000000000000000000000000000000000000000000000000000000001ba41055eb1b1ef3bd2e3366f679014c9ed769afb72b1a9b7a65f96743b9af17de7564dbe911278f2fede90e53eb272f3fb78c9b626f5f5872a640784d817e630f",
        "nonce": "0x3e",
        "chainId": "0x7a69"
      },
      "additionalContracts": [],
      "isFixedGasLimit": false
    }
  ],
  "receipts": [
    {
      "status": "0x1",
      "cumulativeGasUsed": "0x201f2",
      "logs": [
        {
          "address": "0xc02aaa39b223fe8d0a0e5c4f27ead9083c756cc2",
          "topics": [
            "0xddf252ad1be2c89b69c2b068fc378daa952ba7f163c4a11628f55a4df523b3ef",
            "0x0000000000000000000000004b75aec40561c03e03d4d1c421df194a3031a134",
            "0x0000000000000000000000001804c8ab1f12e6bbf3894d4083f33e07309d1f38"
          ],
          "data": "0x0000000000000000000000000000000000000000000000000000e35fa931a000",
          "blockHash": "0xd4c5b0648c1c1de3da9eb56a27d32081e34e8b6f9ca5994f352ddf36fc64ff21",
          "blockNumber": "0x17b8377",
          "blockTimestamp": "0x69f68772",
          "transactionHash": "0x711bbe5103c5bf006100998f3601565afd5807af7c09d8a56a89b6b92a3f497d",
          "transactionIndex": "0x0",
          "logIndex": "0x0",
          "removed": false
        },
        {
          "address": "0xc02aaa39b223fe8d0a0e5c4f27ead9083c756cc2",
          "topics": [
            "0xddf252ad1be2c89b69c2b068fc378daa952ba7f163c4a11628f55a4df523b3ef",
            "0x0000000000000000000000004b75aec40561c03e03d4d1c421df194a3031a134",
            "0x000000000000000000000000c5adfc119364cfe2297e4414db04834d8702475b"
          ],
          "data": "0x0000000000000000000000000000000000000000000000000057edfe6e30e000",
          "blockHash": "0xd4c5b0648c1c1de3da9eb56a27d32081e34e8b6f9ca5994f352ddf36fc64ff21",
          "blockNumber": "0x17b8377",
          "blockTimestamp": "0x69f68772",
          "transactionHash": "0x711bbe5103c5bf006100998f3601565afd5807af7c09d8a56a89b6b92a3f497d",
          "transactionIndex": "0x0",
          "logIndex": "0x1",
          "removed": false
        },
        {
          "address": "0xa5f104f8f78d5ba9aec4a383c0927337fd4e997b",
          "topics": [
            "0xddf252ad1be2c89b69c2b068fc378daa952ba7f163c4a11628f55a4df523b3ef",
            "0x000000000000000000000000c5adfc119364cfe2297e4414db04834d8702475b",
            "0x0000000000000000000000004b75aec40561c03e03d4d1c421df194a3031a134",
            "0x00000000000000000000000000000000000000000000000000000000000001bb"
          ],
          "data": "0x",
          "blockHash": "0xd4c5b0648c1c1de3da9eb56a27d32081e34e8b6f9ca5994f352ddf36fc64ff21",
          "blockNumber": "0x17b8377",
          "blockTimestamp": "0x69f68772",
          "transactionHash": "0x711bbe5103c5bf006100998f3601565afd5807af7c09d8a56a89b6b92a3f497d",
          "transactionIndex": "0x0",
          "logIndex": "0x2",
          "removed": false
        },
        {
          "address": "0x8fa71914948544c60e3379064567dcf0e6564d27",
          "topics": [
            "0xc0ac3eb1e8caef05b202043f34de8e3173fab712167584f7a2a9f4c302bd0e9c",
            "0xe5011a2410e6d35723cb8d02d034c202a727356eb66cb8820257703a7c797b0b",
            "0x000000000000000000000000a5f104f8f78d5ba9aec4a383c0927337fd4e997b",
            "0x00000000000000000000000000000000000000000000000000000000000001bb"
          ],
          "data": "0x000000000000000000000000c5adfc119364cfe2297e4414db04834d8702475b0000000000000000000000004b75aec40561c03e03d4d1c421df194a3031a134000000000000000000000000c02aaa39b223fe8d0a0e5c4f27ead9083c756cc20000000000000000000000000000000000000000000000000058d15e17628000",
          "blockHash": "0xd4c5b0648c1c1de3da9eb56a27d32081e34e8b6f9ca5994f352ddf36fc64ff21",
          "blockNumber": "0x17b8377",
          "blockTimestamp": "0x69f68772",
          "transactionHash": "0x711bbe5103c5bf006100998f3601565afd5807af7c09d8a56a89b6b92a3f497d",
          "transactionIndex": "0x0",
          "logIndex": "0x3",
          "removed": false
        }
      ],
      "logsBloom": "0x00000000000000000000010000000000000000000000000000000000000000000000000000100000000000000000000002000000080000000000000000100000000000000000000000010008000000000000002000000000080000000000000200000000000000000001000000000000000000000000000000000010200000000800010000040400000004000000000000000000000000000000000000002000000000200000000400000000000420000000000000000080020000000000000000000002000004000000000000000000000000000000000080000004000000000100200000000000000800000000000000000000000000002000000000000000",
      "type": "0x2",
      "transactionHash": "0x711bbe5103c5bf006100998f3601565afd5807af7c09d8a56a89b6b92a3f497d",
      "transactionIndex": "0x0",
      "blockHash": "0xd4c5b0648c1c1de3da9eb56a27d32081e34e8b6f9ca5994f352ddf36fc64ff21",
      "blockNumber": "0x17b8377",
      "gasUsed": "0x201f2",
      "effectiveGasPrice": "0x1ba81c",
      "blobGasPrice": "0x1",
      "from": "0xc5adfc119364cfe2297e4414db04834d8702475b",
      "to": "0x8fa71914948544c60e3379064567dcf0e6564d27",
      "contractAddress": null
    }
  ],
  "libraries": [],
  "pending": [],
  "returns": {},
  "timestamp": 1778506501761,
  "chain": 31337,
  "commit": "59e30a9"
}