{
  "transactions": [
    {
      "hash": "0x4713f06fe1a019c518d409b8a743f0b9f1288c34dd914ec3e5cc5186305cc654",
      "transactionType": "CALL",
      "contractName": null,
      "contractAddress": "0x8fa71914948544c60e3379064567dcf0e6564d27",
      "function": "settle((uint256,address),(uint8,bool,address,uint256,address,uint256,address,uint64,uint64,uint256),(uint8,bytes32,bytes32))",
      "arguments": [
        "(142, 0xcbe5659df21Cbcfabe4da962F7a9081F26B3ed82)",
        "(1, false, 0xA5f104F8f78d5ba9AEC4a383c0927337Fd4E997B, 142, 0xC02aaA39b223FE8D0A0e5C4F27eAD9083C756Cc2, 35000000000000000, 0x646dC5Fc4009C4C84a424B6aE0f494b374bAE1Ce, 1773428600, 1778745686, 23)",
        "(27, 0x9dfd8d7b6a2a3acf7a2735884caca1f4bda729abc5e7e52f5832b8bb71db0cc9, 0x55eb55c2cffee0138f9672237e0ec2020a9fc9d6464682fc6bba7e79169b5984)"
      ],
      "transaction": {
        "from": "0xcbe5659df21cbcfabe4da962f7a9081f26b3ed82",
        "to": "0x8fa71914948544c60e3379064567dcf0e6564d27",
        "gas": "0x2ef81",
        "value": "0x0",
        "input": "0x3bae3e79000000000000000000000000000000000000000000000000000000000000008e000000000000000000000000cbe5659df21cbcfabe4da962f7a9081f26b3ed8200000000000000000000000000000000000000000000000000000000000000010000000000000000000000000000000000000000000000000000000000000000000000000000000000000000a5f104f8f78d5ba9aec4a383c0927337fd4e997b000000000000000000000000000000000000000000000000000000000000008e000000000000000000000000c02aaa39b223fe8d0a0e5c4f27ead9083c756cc2000000000000000000000000000000000000000000000000007c585087238000000000000000000000000000646dc5fc4009c4c84a424b6ae0f494b374bae1ce0000000000000000000000000000000000000000000000000000000069b45f78000000000000000000000000000000000000000000000000000000006a0581560000000000000000000000000000000000000000000000000000000000000017000000000000000000000000000000000000000000000000000000000000001b9dfd8d7b6a2a3acf7a2735884caca1f4bda729abc5e7e52f5832b8bb71db0cc955eb55c2cffee0138f9672237e0ec2020a9fc9d6464682fc6bba7e79169b5984",
        "nonce": "0x42",
        "chainId": "0x7a69"
      },
      "additionalContracts": [],
      "isFixedGasLimit": false
    }
  ],
  "receipts": [
    {
      "status": "0x1",
      "cumulativeGasUsed": "0x201da",
      "logs": [
        {
          "address": "0xc02aaa39b223fe8d0a0e5c4f27ead9083c756cc2",
          "topics": [
            "0xddf252ad1be2c89b69c2b068fc378daa952ba7f163c4a11628f55a4df523b3ef",
            "0x000000000000000000000000646dc5fc4009c4c84a424b6ae0f494b374bae1ce",
            "0x0000000000000000000000001804c8ab1f12e6bbf3894d4083f33e07309d1f38"
          ],
          "data": "0x00000000000000000000000000000000000000000000000000013e52b9abe000",
          "blockHash": "0x406c4182d4a2723e8b33cc37bba832784b55816a49a0423c79f8ee7c1f791e2c",
          "blockNumber": "0x17b8384",
          "blockTimestamp": "0x69f95aeb",
          "transactionHash": "0x4713f06fe1a019c518d409b8a743f0b9f1288c34dd914ec3e5cc5186305cc654",
          "transactionIndex": "0x0",
          "logIndex": "0x0",
          "removed": false
        },
        {
          "address": "0xc02aaa39b223fe8d0a0e5c4f27ead9083c756cc2",
          "topics": [
            "0xddf252ad1be2c89b69c2b068fc378daa952ba7f163c4a11628f55a4df523b3ef",
            "0x000000000000000000000000646dc5fc4009c4c84a424b6ae0f494b374bae1ce",
            "0x000000000000000000000000cbe5659df21cbcfabe4da962f7a9081f26b3ed82"
          ],
          "data": "0x000000000000000000000000000000000000000000000000007b19fdcd77a000",
          "blockHash": "0x406c4182d4a2723e8b33cc37bba832784b55816a49a0423c79f8ee7c1f791e2c",
          "blockNumber": "0x17b8384",
          "blockTimestamp": "0x69f95aeb",
          "transactionHash": "0x4713f06fe1a019c518d409b8a743f0b9f1288c34dd914ec3e5cc5186305cc654",
          "transactionIndex": "0x0",
          "logIndex": "0x1",
          "removed": false
        },
        {
          "address": "0xa5f104f8f78d5ba9aec4a383c0927337fd4e997b",
          "topics": [
            "0xddf252ad1be2c89b69c2b068fc378daa952ba7f163c4a11628f55a4df523b3ef",
            "0x000000000000000000000000cbe5659df21cbcfabe4da962f7a9081f26b3ed82",
            "0x000000000000000000000000646dc5fc4009c4c84a424b6ae0f494b374bae1ce",
            "0x000000000000000000000000000000000000000000000000000000000000008e"
          ],
          "data": "0x",
          "blockHash": "0x406c4182d4a2723e8b33cc37bba832784b55816a49a0423c79f8ee7c1f791e2c",
          "blockNumber": "0x17b8384",
          "blockTimestamp": "0x69f95aeb",
          "transactionHash": "0x4713f06fe1a019c518d409b8a743f0b9f1288c34dd914ec3e5cc5186305cc654",
          "transactionIndex": "0x0",
          "logIndex": "0x2",
          "removed": false
        },
        {
          "address": "0x8fa71914948544c60e3379064567dcf0e6564d27",
          "topics": [
            "0xc0ac3eb1e8caef05b202043f34de8e3173fab712167584f7a2a9f4c302bd0e9c",
            "0x0e53069dfeedb3df80ce10e319c386d36065abda5a2a92ac6e6d23dde1717ecd",
            "0x000000000000000000000000a5f104f8f78d5ba9aec4a383c0927337fd4e997b",
            "0x000000000000000000000000000000000000000000000000000000000000008e"
          ],
          "data": "0x000000000000000000000000cbe5659df21cbcfabe4da962f7a9081f26b3ed82000000000000000000000000646dc5fc4009c4c84a424b6ae0f494b374bae1ce000000000000000000000000c02aaa39b223fe8d0a0e5c4f27ead9083c756cc2000000000000000000000000000000000000000000000000007c585087238000",
          "blockHash": "0x406c4182d4a2723e8b33cc37bba832784b55816a49a0423c79f8ee7c1f791e2c",
          "blockNumber": "0x17b8384",
          "blockTimestamp": "0x69f95aeb",
          "transactionHash": "0x4713f06fe1a019c518d409b8a743f0b9f1288c34dd914ec3e5cc5186305cc654",
          "transactionIndex": "0x0",
          "logIndex": "0x3",
          "removed": false
        }
      ],
      "logsBloom": "0x00000000000000000000010000000000000000000002000000000000000000000000000020000000000000000000000002000000090000000000000000100000000000000000000000010008000000000000000010000000080000000000000000000000000080000005000000000000000000000000000000000010200000000800000000040000000104000000000000000000000000000000000000000000000000200000000400000000000000000000000000000080000000000000000080000002000004000400000000000000000000000000020080000000000000000100200000000000000000000000000000000000004000000004000000000000",
      "type": "0x2",
      "transactionHash": "0x4713f06fe1a019c518d409b8a743f0b9f1288c34dd914ec3e5cc5186305cc654",
      "transactionIndex": "0x0",
      "blockHash": "0x406c4182d4a2723e8b33cc37bba832784b55816a49a0423c79f8ee7c1f791e2c",
      "blockNumber": "0x17b8384",
      "gasUsed": "0x201da",
      "effectiveGasPrice": "0x1ba81c",
      "blobGasPrice": "0x1",
      "from": "0xcbe5659df21cbcfabe4da962f7a9081f26b3ed82",
      "to": "0x8fa71914948544c60e3379064567dcf0e6564d27",
      "contractAddress": null
    }
  ],
  "libraries": [],
  "pending": [],
  "returns": {},
  "timestamp": 1778506518635,
  "chain": 31337,
  "commit": "59e30a9"
}