{
  "transactions": [
    {
      "hash": "0xbe6168435ef523d243b6f7392fc7256521f073c4e177b6999e58eca172ee4745",
      "transactionType": "CALL",
      "contractName": null,
      "contractAddress": "0x8fa71914948544c60e3379064567dcf0e6564d27",
      "function": "settle((uint256,address),(uint8,bool,address,uint256,address,uint256,address,uint64,uint64,uint256),(uint8,bytes32,bytes32))",
      "arguments": [
        "(188, 0x4b75AeC40561C03e03d4D1C421dF194a3031A134)",
        "(1, false, 0xA5f104F8f78d5ba9AEC4a383c0927337Fd4E997B, 188, 0xC02aaA39b223FE8D0A0e5C4F27eAD9083C756Cc2, 19000000000000000, 0x08312E82df563A1639b81f49bb41247759700e30, 1773055780, 1779118506, 14)",
        "(27, 0x670799a7ec5264e136cd711bbdf08a023a447898418db72806c599700ce1d619, 0x36148ad746be8df3754dbc649f584a7b616d1bdd15cd0478252440cc19737ed8)"
      ],
      "transaction": {
        "from": "0x4b75aec40561c03e03d4d1c421df194a3031a134",
        "to": "0x8fa71914948544c60e3379064567dcf0e6564d27",
        "gas": "0x2ef81",
        "value": "0x0",
        "input": "0x3bae3e7900000000000000000000000000000000000000000000000000000000000000bc0000000000000000000000004b75aec40561c03e03d4d1c421df194a3031a13400000000000000000000000000000000000000000000000000000000000000010000000000000000000000000000000000000000000000000000000000000000000000000000000000000000a5f104f8f78d5ba9aec4a383c0927337fd4e997b00000000000000000000000000000000000000000000000000000000000000bc000000000000000000000000c02aaa39b223fe8d0a0e5c4f27ead9083c756cc2000000000000000000000000000000000000000000000000004380663abb800000000000000000000000000008312e82df563a1639b81f49bb41247759700e300000000000000000000000000000000000000000000000000000000069aeaf24000000000000000000000000000000000000000000000000000000006a0b31aa000000000000000000000000000000000000000000000000000000000000000e000000000000000000000000000000000000000000000000000000000000001b670799a7ec5264e136cd711bbdf08a023a447898418db72806c599700ce1d61936148ad746be8df3754dbc649f584a7b616d1bdd15cd0478252440cc19737ed8",
        "nonce": "0x2a",
        "chainId": "0x7a69"
      },
      "additionalContracts": [],
      "isFixedGasLimit": false
    }
  ],
  "receipts": [
    {
      "status": "0x1",
      "cumulativeGasUsed": "0x201da",
      "logs": [
        {
          "address": "0xc02aaa39b223fe8d0a0e5c4f27ead9083c756cc2",
          "topics": [
            "0xddf252ad1be2c89b69c2b068fc378daa952ba7f163c4a11628f55a4df523b3ef",
            "0x00000000000000000000000008312e82df563a1639b81f49bb41247759700e30",
            "0x0000000000000000000000001804c8ab1f12e6bbf3894d4083f33e07309d1f38"
          ],
          "data": "0x0000000000000000000000000000000000000000000000000000accdd281e000",
          "blockHash": "0xcf737c2d073486daa4babcd9eb2669204398c697bc2063b5c580584be9a96c74",
          "blockNumber": "0x17b835e",
          "blockTimestamp": "0x69f14912",
          "transactionHash": "0xbe6168435ef523d243b6f7392fc7256521f073c4e177b6999e58eca172ee4745",
          "transactionIndex": "0x0",
          "logIndex": "0x0",
          "removed": false
        },
        {
          "address": "0xc02aaa39b223fe8d0a0e5c4f27ead9083c756cc2",
          "topics": [
            "0xddf252ad1be2c89b69c2b068fc378daa952ba7f163c4a11628f55a4df523b3ef",
            "0x00000000000000000000000008312e82df563a1639b81f49bb41247759700e30",
            "0x0000000000000000000000004b75aec40561c03e03d4d1c421df194a3031a134"
          ],
          "data": "0x0000000000000000000000000000000000000000000000000042d3986839a000",
          "blockHash": "0xcf737c2d073486daa4babcd9eb2669204398c697bc2063b5c580584be9a96c74",
          "blockNumber": "0x17b835e",
          "blockTimestamp": "0x69f14912",
          "transactionHash": "0xbe6168435ef523d243b6f7392fc7256521f073c4e177b6999e58eca172ee4745",
          "transactionIndex": "0x0",
          "logIndex": "0x1",
          "removed": false
        },
        {
          "address": "0xa5f104f8f78d5ba9aec4a383c0927337fd4e997b",
          "topics": [
            "0xddf252ad1be2c89b69c2b068fc378daa952ba7f163c4a11628f55a4df523b3ef",
            "0x0000000000000000000000004b75aec40561c03e03d4d1c421df194a3031a134",
            "0x00000000000000000000000008312e82df563a1639b81f49bb41247759700e30",
            "0x00000000000000000000000000000000000000000000000000000000000000bc"
          ],
          "data": "0x",
          "blockHash": "0xcf737c2d073486daa4babcd9eb2669204398c697bc2063b5c580584be9a96c74",
          "blockNumber": "0x17b835e",
          "blockTimestamp": "0x69f14912",
          "transactionHash": "0xbe6168435ef523d243b6f7392fc7256521f073c4e177b6999e58eca172ee4745",
          "transactionIndex": "0x0",
          "logIndex": "0x2",
          "removed": false
        },
        {
          "address": "0x8fa71914948544c60e3379064567dcf0e6564d27",
          "topics": [
            "0xc0ac3eb1e8caef05b202043f34de8e3173fab712167584f7a2a9f4c302bd0e9c",
            "0xec6abb008901c51cd0ddcc7ecb6f47515d24f56ba73bf436c1616dabbbe46a37",
            "0x000000000000000000000000a5f104f8f78d5ba9aec4a383c0927337fd4e997b",
            "0x00000000000000000000000000000000000000000000000000000000000000bc"
          ],
          "data": "0x0000000000000000000000004b75aec40561c03e03d4d1c421df194a3031a13400000000000000000000000008312e82df563a1639b81f49bb41247759700e30000000000000000000000000c02aaa39b223fe8d0a0e5c4f27ead9083c756cc2000000000000000000000000000000000000000000000000004380663abb8000",
          "blockHash": "0xcf737c2d073486daa4babcd9eb2669204398c697bc2063b5c580584be9a96c74",
          "blockNumber": "0x17b835e",
          "blockTimestamp": "0x69f14912",
          "transactionHash": "0xbe6168435ef523d243b6f7392fc7256521f073c4e177b6999e58eca172ee4745",
          "transactionIndex": "0x0",
          "logIndex": "0x3",
          "removed": false
        }
      ],
      "logsBloom": "0x00000000000000000000010001000000000000000000000000000000800000000000000000100000000000000000000002000000080000000000000000100000000000000000000000010008000000000000000000000000080000000000000000000000000000000001000000000000000000000000000000000010200000000800000000040000000004000000000000000000000000000000000000002000000000200000000400000000000400000000000000000080020000000000000000000002000004000000000000000000080000000000000880000000000000000100200000200000000000000000000000000000004080020000000000000000",
      "type": "0x2",
      "transactionHash": "0xbe6168435ef523d243b6f7392fc7256521f073c4e177b6999e58eca172ee4745",
      "transactionIndex": "0x0",
      "blockHash": "0xcf737c2d073486daa4babcd9eb2669204398c697bc2063b5c580584be9a96c74",
      "blockNumber": "0x17b835e",
      "gasUsed": "0x201da",
      "effectiveGasPrice": "0x1ba81c",
      "blobGasPrice": "0x1",
      "from": "0x4b75aec40561c03e03d4d1c421df194a3031a134",
      "to": "0x8fa71914948544c60e3379064567dcf0e6564d27",
      "contractAddress": null
    }
  ],
  "libraries": [],
  "pending": [],
  "returns": {},
  "timestamp": 1778506478624,
  "chain": 31337,
  "commit": "59e30a9"
}