{
  "transactions": [
    {
      "hash": "0x6cfd3214a26b9a84c0036ed2c17e7d176656ad0149ce8ad9e09a65fb0b5498ab",
      "transactionType": "CALL",
      "contractName": null,
      "contractAddress": "0x73973d222c3fda5b2563d269da9e19cb125000f4",
      "function": "settle((uint256,address),(uint8,bool,address,uint256,address,uint256,address,uint64,uint64,uint256),(uint8,bytes32,bytes32))",
      "arguments": [
        "(480, 0xa382b0E75C192D9CDF5c084E58b750Cea7761Bd0)",
        "(1, false, 0x38D4dE42C9c5640A2799B372D27B01957E0a3673, 480, 0xC02aaA39b223FE8D0A0e5C4F27eAD9083C756Cc2, 375000000000000000, 0x1302F142Fc55B165647d3Bd5dec227f569A2A907, 1773435681, 1778629957, 10)",
        "(27, 0x63f1d952a95913532f8b265bc8fb43b0b6557ff5cb766abe7e6a055e0d1ff4ef, 0x04177fe8927e2180f560c1cf58da7abcdd429289b87686d86e088606f6492f4a)"
      ],
      "transaction": {
        "from": "0xa382b0e75c192d9cdf5c084e58b750cea7761bd0",
        "to": "0x73973d222c3fda5b2563d269da9e19cb125000f4",
        "gas": "0x2c5f2",
        "value": "0x0",
        "input": "0x3bae3e7900000000000000000000000000000000000000000000000000000000000001e0000000000000000000000000a382b0e75c192d9cdf5c084e58b750cea7761bd00000000000000000000000000000000000000000000000000000000000000001000000000000000000000000000000000000000000000000000000000000000000000000000000000000000038d4de42c9c5640a2799b372d27b01957e0a367300000000000000000000000000000000000000000000000000000000000001e0000000000000000000000000c02aaa39b223fe8d0a0e5c4f27ead9083c756cc2000000000000000000000000000000000000000000000000053444835ec580000000000000000000000000001302f142fc55b165647d3bd5dec227f569a2a9070000000000000000000000000000000000000000000000000000000069b47b21000000000000000000000000000000000000000000000000000000006a03bd45000000000000000000000000000000000000000000000000000000000000000a000000000000000000000000000000000000000000000000000000000000001b63f1d952a95913532f8b265bc8fb43b0b6557ff5cb766abe7e6a055e0d1ff4ef04177fe8927e2180f560c1cf58da7abcdd429289b87686d86e088606f6492f4a",
        "nonce": "0x5a",
        "chainId": "0x7a69"
      },
      "additionalContracts": [],
      "isFixedGasLimit": false
    }
  ],
  "receipts": [
    {
      "status": "0x1",
      "cumulativeGasUsed": "0x201fe",
      "logs": [
        {
          "address": "0xc02aaa39b223fe8d0a0e5c4f27ead9083c756cc2",
          "topics": [
            "0xddf252ad1be2c89b69c2b068fc378daa952ba7f163c4a11628f55a4df523b3ef",
            "0x0000000000000000000000001302f142fc55b165647d3bd5dec227f569a2a907",
            "0x0000000000000000000000001804c8ab1f12e6bbf3894d4083f33e07309d1f38"
          ],
          "data": "0x000000000000000000000000000000000000000000000000000d529ae9e86000",
          "blockHash": "0xe11067213f48d2baededb42f4ac3794cbb7f0f4ffda9efc0cda1d802130bf154",
          "blockNumber": "0x17b7389",
          "blockTimestamp": "0x69dc8315",
          "transactionHash": "0x6cfd3214a26b9a84c0036ed2c17e7d176656ad0149ce8ad9e09a65fb0b5498ab",
          "transactionIndex": "0x0",
          "logIndex": "0x0",
          "removed": false
        },
        {
          "address": "0xc02aaa39b223fe8d0a0e5c4f27ead9083c756cc2",
          "topics": [
            "0xddf252ad1be2c89b69c2b068fc378daa952ba7f163c4a11628f55a4df523b3ef",
            "0x0000000000000000000000001302f142fc55b165647d3bd5dec227f569a2a907",
            "0x000000000000000000000000a382b0e75c192d9cdf5c084e58b750cea7761bd0"
          ],
          "data": "0x0000000000000000000000000000000000000000000000000526f1e874dd2000",
          "blockHash": "0xe11067213f48d2baededb42f4ac3794cbb7f0f4ffda9efc0cda1d802130bf154",
          "blockNumber": "0x17b7389",
          "blockTimestamp": "0x69dc8315",
          "transactionHash": "0x6cfd3214a26b9a84c0036ed2c17e7d176656ad0149ce8ad9e09a65fb0b5498ab",
          "transactionIndex": "0x0",
          "logIndex": "0x1",
          "removed": false
        },
        {
          "address": "0x38d4de42c9c5640a2799b372d27b01957e0a3673",
          "topics": [
            "0xddf252ad1be2c89b69c2b068fc378daa952ba7f163c4a11628f55a4df523b3ef",
            "0x000000000000000000000000a382b0e75c192d9cdf5c084e58b750cea7761bd0",
            "0x0000000000000000000000001302f142fc55b165647d3bd5dec227f569a2a907",
            "0x00000000000000000000000000000000000000000000000000000000000001e0"
          ],
          "data": "0x",
          "blockHash": "0xe11067213f48d2baededb42f4ac3794cbb7f0f4ffda9efc0cda1d802130bf154",
          "blockNumber": "0x17b7389",
          "blockTimestamp": "0x69dc8315",
          "transactionHash": "0x6cfd3214a26b9a84c0036ed2c17e7d176656ad0149ce8ad9e09a65fb0b5498ab",
          "transactionIndex": "0x0",
          "logIndex": "0x2",
          "removed": false
        },
        {
          "address": "0x73973d222c3fda5b2563d269da9e19cb125000f4",
          "topics": [
            "0xc0ac3eb1e8caef05b202043f34de8e3173fab712167584f7a2a9f4c302bd0e9c",
            "0x3b5a1ab242c3a838183182275d87891e312f8f6f76a80ab4abd6e94e0cdcaa26",
            "0x00000000000000000000000038d4de42c9c5640a2799b372d27b01957e0a3673",
            "0x00000000000000000000000000000000000000000000000000000000000001e0"
          ],
          "data": "0x000000000000000000000000a382b0e75c192d9cdf5c084e58b750cea7761bd00000000000000000000000001302f142fc55b165647d3bd5dec227f569a2a907000000000000000000000000c02aaa39b223fe8d0a0e5c4f27ead9083c756cc2000000000000000000000000000000000000000000000000053444835ec58000",
          "blockHash": "0xe11067213f48d2baededb42f4ac3794cbb7f0f4ffda9efc0cda1d802130bf154",
          "blockNumber": "0x17b7389",
          "blockTimestamp": "0x69dc8315",
          "transactionHash": "0x6cfd3214a26b9a84c0036ed2c17e7d176656ad0149ce8ad9e09a65fb0b5498ab",
          "transactionIndex": "0x0",
          "logIndex": "0x3",
          "removed": false
        }
      ],
      "logsBloom": "0x00000000000000000000000000000000000000000002000000000000000000000000000000000000000000000000020002000000080000000004100000100000000000000000001021000008000000000000000000800000000000000000000000000000000000000001000000000000000000000000040000000010000000000000000000000000000004000000000000100000000008000000000000000000000000000000000000000000000100000000000000000080400000000000040000000002400004000000000200000000000000000000000000400000000000000100200000000000000040000000000000000000108040000000000000000000",
      "type": "0x2",
      "transactionHash": "0x6cfd3214a26b9a84c0036ed2c17e7d176656ad0149ce8ad9e09a65fb0b5498ab",
      "transactionIndex": "0x0",
      "blockHash": "0xe11067213f48d2baededb42f4ac3794cbb7f0f4ffda9efc0cda1d802130bf154",
      "blockNumber": "0x17b7389",
      "gasUsed": "0x201fe",
      "effectiveGasPrice": "0xf4248",
      "blobGasPrice": "0x1",
      "from": "0xa382b0e75c192d9cdf5c084e58b750cea7761bd0",
      "to": "0x73973d222c3fda5b2563d269da9e19cb125000f4",
      "contractAddress": null
    }
  ],
  "libraries": [],
  "pending": [],
  "returns": {},
  "timestamp": 1778453684580,
  "chain": 31337,
  "commit": "f87d399"
}