{
  "transactions": [
    {
      "hash": "0x74d4d2adcd14b056abce208d6df547c00c35860ec9155ff13e4e54223c185565",
      "transactionType": "CALL",
      "contractName": null,
      "contractAddress": "0x8fa71914948544c60e3379064567dcf0e6564d27",
      "function": "settle((uint256,address),(uint8,bool,address,uint256,address,uint256,address,uint64,uint64,uint256),(uint8,bytes32,bytes32))",
      "arguments": [
        "(147, 0xe3745C151faB59B0740f4312b2B027F07D096639)",
        "(1, false, 0xA5f104F8f78d5ba9AEC4a383c0927337Fd4E997B, 147, 0xC02aaA39b223FE8D0A0e5C4F27eAD9083C756Cc2, 38000000000000000, 0x2c2dbA75492E0C4A1D10B41303167aEC59586C9c, 1773649029, 1778525257, 4)",
        "(27, 0x4ca99a90b389eb66b3eded30b6d2cb09122d36cf80b7a89c2e0ccb4ec357bdbe, 0x3e906681fcb71662595fe269bade0062eaf8cd872f1fab10fb5ed8c502d2c6f4)"
      ],
      "transaction": {
        "from": "0xe3745c151fab59b0740f4312b2b027f07d096639",
        "to": "0x8fa71914948544c60e3379064567dcf0e6564d27",
        "gas": "0x2c58f",
        "value": "0x0",
        "input": "0x3bae3e790000000000000000000000000000000000000000000000000000000000000093000000000000000000000000e3745c151fab59b0740f4312b2b027f07d09663900000000000000000000000000000000000000000000000000000000000000010000000000000000000000000000000000000000000000000000000000000000000000000000000000000000a5f104f8f78d5ba9aec4a383c0927337fd4e997b0000000000000000000000000000000000000000000000000000000000000093000000000000000000000000c02aaa39b223fe8d0a0e5c4f27ead9083c756cc2000000000000000000000000000000000000000000000000008700cc757700000000000000000000000000002c2dba75492e0c4a1d10b41303167aec59586c9c0000000000000000000000000000000000000000000000000000000069b7bc85000000000000000000000000000000000000000000000000000000006a0224490000000000000000000000000000000000000000000000000000000000000004000000000000000000000000000000000000000000000000000000000000001b4ca99a90b389eb66b3eded30b6d2cb09122d36cf80b7a89c2e0ccb4ec357bdbe3e906681fcb71662595fe269bade0062eaf8cd872f1fab10fb5ed8c502d2c6f4",
        "nonce": "0x46",
        "chainId": "0x7a69"
      },
      "additionalContracts": [],
      "isFixedGasLimit": false
    }
  ],
  "receipts": [
    {
      "status": "0x1",
      "cumulativeGasUsed": "0x201b6",
      "logs": [
        {
          "address": "0xc02aaa39b223fe8d0a0e5c4f27ead9083c756cc2",
          "topics": [
            "0xddf252ad1be2c89b69c2b068fc378daa952ba7f163c4a11628f55a4df523b3ef",
            "0x0000000000000000000000002c2dba75492e0c4a1d10b41303167aec59586c9c",
            "0x0000000000000000000000001804c8ab1f12e6bbf3894d4083f33e07309d1f38"
          ],
          "data": "0x0000000000000000000000000000000000000000000000000001599ba503c000",
          "blockHash": "0x8f22f941ca0ad772a17f9f91eba6998f4b51613503064743895a0c31b21e043d",
          "blockNumber": "0x17b8334",
          "blockTimestamp": "0x69e670b1",
          "transactionHash": "0x74d4d2adcd14b056abce208d6df547c00c35860ec9155ff13e4e54223c185565",
          "transactionIndex": "0x0",
          "logIndex": "0x0",
          "removed": false
        },
        {
          "address": "0xc02aaa39b223fe8d0a0e5c4f27ead9083c756cc2",
          "topics": [
            "0xddf252ad1be2c89b69c2b068fc378daa952ba7f163c4a11628f55a4df523b3ef",
            "0x0000000000000000000000002c2dba75492e0c4a1d10b41303167aec59586c9c",
            "0x000000000000000000000000e3745c151fab59b0740f4312b2b027f07d096639"
          ],
          "data": "0x0000000000000000000000000000000000000000000000000085a730d0734000",
          "blockHash": "0x8f22f941ca0ad772a17f9f91eba6998f4b51613503064743895a0c31b21e043d",
          "blockNumber": "0x17b8334",
          "blockTimestamp": "0x69e670b1",
          "transactionHash": "0x74d4d2adcd14b056abce208d6df547c00c35860ec9155ff13e4e54223c185565",
          "transactionIndex": "0x0",
          "logIndex": "0x1",
          "removed": false
        },
        {
          "address": "0xa5f104f8f78d5ba9aec4a383c0927337fd4e997b",
          "topics": [
            "0xddf252ad1be2c89b69c2b068fc378daa952ba7f163c4a11628f55a4df523b3ef",
            "0x000000000000000000000000e3745c151fab59b0740f4312b2b027f07d096639",
            "0x0000000000000000000000002c2dba75492e0c4a1d10b41303167aec59586c9c",
            "0x0000000000000000000000000000000000000000000000000000000000000093"
          ],
          "data": "0x",
          "blockHash": "0x8f22f941ca0ad772a17f9f91eba6998f4b51613503064743895a0c31b21e043d",
          "blockNumber": "0x17b8334",
          "blockTimestamp": "0x69e670b1",
          "transactionHash": "0x74d4d2adcd14b056abce208d6df547c00c35860ec9155ff13e4e54223c185565",
          "transactionIndex": "0x0",
          "logIndex": "0x2",
          "removed": false
        },
        {
          "address": "0x8fa71914948544c60e3379064567dcf0e6564d27",
          "topics": [
            "0xc0ac3eb1e8caef05b202043f34de8e3173fab712167584f7a2a9f4c302bd0e9c",
            "0xeae2f3ce374642210ed4c015bb298fe22bf74cae3527c5ad53d09a2fc7fd26e2",
            "0x000000000000000000000000a5f104f8f78d5ba9aec4a383c0927337fd4e997b",
            "0x0000000000000000000000000000000000000000000000000000000000000093"
          ],
          "data": "0x000000000000000000000000e3745c151fab59b0740f4312b2b027f07d0966390000000000000000000000002c2dba75492e0c4a1d10b41303167aec59586c9c000000000000000000000000c02aaa39b223fe8d0a0e5c4f27ead9083c756cc2000000000000000000000000000000000000000000000000008700cc75770000",
          "blockHash": "0x8f22f941ca0ad772a17f9f91eba6998f4b51613503064743895a0c31b21e043d",
          "blockNumber": "0x17b8334",
          "blockTimestamp": "0x69e670b1",
          "transactionHash": "0x74d4d2adcd14b056abce208d6df547c00c35860ec9155ff13e4e54223c185565",
          "transactionIndex": "0x0",
          "logIndex": "0x3",
          "removed": false
        }
      ],
      "logsBloom": "0x00000000800000000000010000000000000000000100000000000000000000000000000000000000000000000000000042000000080000000000000800100000000200000000000000010008000000000000000000000000080000000000000000000000000004000001010000000000000000000000000008000010200000000800000000040000000004000000000000000000000000000000000000000000000000200000000400000000000000000000000000010080000000000000000000000002000004000000000000000000000000000000000080000040000000000100200004000000000000000000000000000040000000000000000000000000",
      "type": "0x2",
      "transactionHash": "0x74d4d2adcd14b056abce208d6df547c00c35860ec9155ff13e4e54223c185565",
      "transactionIndex": "0x0",
      "blockHash": "0x8f22f941ca0ad772a17f9f91eba6998f4b51613503064743895a0c31b21e043d",
      "blockNumber": "0x17b8334",
      "gasUsed": "0x201b6",
      "effectiveGasPrice": "0x1ba81c",
      "blobGasPrice": "0x1",
      "from": "0xe3745c151fab59b0740f4312b2b027f07d096639",
      "to": "0x8fa71914948544c60e3379064567dcf0e6564d27",
      "contractAddress": null
    }
  ],
  "libraries": [],
  "pending": [],
  "returns": {},
  "timestamp": 1778506432307,
  "chain": 31337,
  "commit": "59e30a9"
}