{
  "transactions": [
    {
      "hash": "0xab5a422333743c16950624a3b81c8e9ae4f87814004fd0a20a0b19626a4a39cb",
      "transactionType": "CALL",
      "contractName": null,
      "contractAddress": "0x8fa71914948544c60e3379064567dcf0e6564d27",
      "function": "settle((uint256,address),(uint8,bool,address,uint256,address,uint256,address,uint64,uint64,uint256),(uint8,bytes32,bytes32))",
      "arguments": [
        "(82, 0x646dC5Fc4009C4C84a424B6aE0f494b374bAE1Ce)",
        "(1, false, 0xA5f104F8f78d5ba9AEC4a383c0927337Fd4E997B, 82, 0xC02aaA39b223FE8D0A0e5C4F27eAD9083C756Cc2, 35000000000000000, 0xa382b0E75C192D9CDF5c084E58b750Cea7761Bd0, 1772030166, 1780144120, 14)",
        "(27, 0x81f94ee91b0e32858240b4e64b54fed2097fa9037a060340dc2a69358663c28d, 0x42691ac3ab3f036bd5a2f84ddf573a9576fb08fdd67afad7f792d25606bfdd3b)"
      ],
      "transaction": {
        "from": "0x646dc5fc4009c4c84a424b6ae0f494b374bae1ce",
        "to": "0x8fa71914948544c60e3379064567dcf0e6564d27",
        "gas": "0x2ef81",
        "value": "0x0",
        "input": "0x3bae3e790000000000000000000000000000000000000000000000000000000000000052000000000000000000000000646dc5fc4009c4c84a424b6ae0f494b374bae1ce00000000000000000000000000000000000000000000000000000000000000010000000000000000000000000000000000000000000000000000000000000000000000000000000000000000a5f104f8f78d5ba9aec4a383c0927337fd4e997b0000000000000000000000000000000000000000000000000000000000000052000000000000000000000000c02aaa39b223fe8d0a0e5c4f27ead9083c756cc2000000000000000000000000000000000000000000000000007c585087238000000000000000000000000000a382b0e75c192d9cdf5c084e58b750cea7761bd000000000000000000000000000000000000000000000000000000000699f08d6000000000000000000000000000000000000000000000000000000006a1ad7f8000000000000000000000000000000000000000000000000000000000000000e000000000000000000000000000000000000000000000000000000000000001b81f94ee91b0e32858240b4e64b54fed2097fa9037a060340dc2a69358663c28d42691ac3ab3f036bd5a2f84ddf573a9576fb08fdd67afad7f792d25606bfdd3b",
        "nonce": "0x63",
        "chainId": "0x7a69"
      },
      "additionalContracts": [],
      "isFixedGasLimit": false
    }
  ],
  "receipts": [
    {
      "status": "0x1",
      "cumulativeGasUsed": "0x201da",
      "logs": [
        {
          "address": "0xc02aaa39b223fe8d0a0e5c4f27ead9083c756cc2",
          "topics": [
            "0xddf252ad1be2c89b69c2b068fc378daa952ba7f163c4a11628f55a4df523b3ef",
            "0x000000000000000000000000a382b0e75c192d9cdf5c084e58b750cea7761bd0",
            "0x0000000000000000000000001804c8ab1f12e6bbf3894d4083f33e07309d1f38"
          ],
          "data": "0x00000000000000000000000000000000000000000000000000013e52b9abe000",
          "blockHash": "0x1062486c9e02bd2213c305fd62d8e5942ac6a2550ba13ff451c3218e179f683a",
          "blockNumber": "0x17b83a5",
          "blockTimestamp": "0x6a015e9b",
          "transactionHash": "0xab5a422333743c16950624a3b81c8e9ae4f87814004fd0a20a0b19626a4a39cb",
          "transactionIndex": "0x0",
          "logIndex": "0x0",
          "removed": false
        },
        {
          "address": "0xc02aaa39b223fe8d0a0e5c4f27ead9083c756cc2",
          "topics": [
            "0xddf252ad1be2c89b69c2b068fc378daa952ba7f163c4a11628f55a4df523b3ef",
            "0x000000000000000000000000a382b0e75c192d9cdf5c084e58b750cea7761bd0",
            "0x000000000000000000000000646dc5fc4009c4c84a424b6ae0f494b374bae1ce"
          ],
          "data": "0x000000000000000000000000000000000000000000000000007b19fdcd77a000",
          "blockHash": "0x1062486c9e02bd2213c305fd62d8e5942ac6a2550ba13ff451c3218e179f683a",
          "blockNumber": "0x17b83a5",
          "blockTimestamp": "0x6a015e9b",
          "transactionHash": "0xab5a422333743c16950624a3b81c8e9ae4f87814004fd0a20a0b19626a4a39cb",
          "transactionIndex": "0x0",
          "logIndex": "0x1",
          "removed": false
        },
        {
          "address": "0xa5f104f8f78d5ba9aec4a383c0927337fd4e997b",
          "topics": [
            "0xddf252ad1be2c89b69c2b068fc378daa952ba7f163c4a11628f55a4df523b3ef",
            "0x000000000000000000000000646dc5fc4009c4c84a424b6ae0f494b374bae1ce",
            "0x000000000000000000000000a382b0e75c192d9cdf5c084e58b750cea7761bd0",
            "0x0000000000000000000000000000000000000000000000000000000000000052"
          ],
          "data": "0x",
          "blockHash": "0x1062486c9e02bd2213c305fd62d8e5942ac6a2550ba13ff451c3218e179f683a",
          "blockNumber": "0x17b83a5",
          "blockTimestamp": "0x6a015e9b",
          "transactionHash": "0xab5a422333743c16950624a3b81c8e9ae4f87814004fd0a20a0b19626a4a39cb",
          "transactionIndex": "0x0",
          "logIndex": "0x2",
          "removed": false
        },
        {
          "address": "0x8fa71914948544c60e3379064567dcf0e6564d27",
          "topics": [
            "0xc0ac3eb1e8caef05b202043f34de8e3173fab712167584f7a2a9f4c302bd0e9c",
            "0x16ba40801c3ad7578fa9cdf97690a1894c3c5185f645eb259f797b590f5d4d0e",
            "0x000000000000000000000000a5f104f8f78d5ba9aec4a383c0927337fd4e997b",
            "0x0000000000000000000000000000000000000000000000000000000000000052"
          ],
          "data": "0x000000000000000000000000646dc5fc4009c4c84a424b6ae0f494b374bae1ce000000000000000000000000a382b0e75c192d9cdf5c084e58b750cea7761bd0000000000000000000000000c02aaa39b223fe8d0a0e5c4f27ead9083c756cc2000000000000000000000000000000000000000000000000007c585087238000",
          "blockHash": "0x1062486c9e02bd2213c305fd62d8e5942ac6a2550ba13ff451c3218e179f683a",
          "blockNumber": "0x17b83a5",
          "blockTimestamp": "0x6a015e9b",
          "transactionHash": "0xab5a422333743c16950624a3b81c8e9ae4f87814004fd0a20a0b19626a4a39cb",
          "transactionIndex": "0x0",
          "logIndex": "0x3",
          "removed": false
        }
      ],
      "logsBloom": "0x00000000000200000000010000000000000000000002000000000000000000002000000000000000000000000000000002000000090000000000000000100000000000000000000000010008000000000000000000000000080000000000000000000000000000000005000000000000000000000000040000000010200000000800000000040000000004000000000000100000000000000000000000000000000000200000000400000000000000000000000040000080000000100200000000000002000004000000000000000000000000000000000080000000001000000100200000000000000000000000000000000000100000000000000000000000",
      "type": "0x2",
      "transactionHash": "0xab5a422333743c16950624a3b81c8e9ae4f87814004fd0a20a0b19626a4a39cb",
      "transactionIndex": "0x0",
      "blockHash": "0x1062486c9e02bd2213c305fd62d8e5942ac6a2550ba13ff451c3218e179f683a",
      "blockNumber": "0x17b83a5",
      "gasUsed": "0x201da",
      "effectiveGasPrice": "0x1ba81c",
      "blobGasPrice": "0x1",
      "from": "0x646dc5fc4009c4c84a424b6ae0f494b374bae1ce",
      "to": "0x8fa71914948544c60e3379064567dcf0e6564d27",
      "contractAddress": null
    }
  ],
  "libraries": [],
  "pending": [],
  "returns": {},
  "timestamp": 1778506554533,
  "chain": 31337,
  "commit": "59e30a9"
}