{
  "transactions": [
    {
      "hash": "0x79568c36ead9b2b03d89ccdb70f460b20ed3ea2b41e35d33e2ae15bd5a36bbc2",
      "transactionType": "CALL",
      "contractName": null,
      "contractAddress": "0x73973d222c3fda5b2563d269da9e19cb125000f4",
      "function": "settle((uint256,address),(uint8,bool,address,uint256,address,uint256,address,uint64,uint64,uint256),(uint8,bytes32,bytes32))",
      "arguments": [
        "(0, 0x646dC5Fc4009C4C84a424B6aE0f494b374bAE1Ce)",
        "(0, false, 0x38D4dE42C9c5640A2799B372D27B01957E0a3673, 425, 0xC02aaA39b223FE8D0A0e5C4F27eAD9083C756Cc2, 789000000000000000, 0x1302F142Fc55B165647d3Bd5dec227f569A2A907, 1772478590, 1779587048, 4)",
        "(27, 0x5d272f12cff3c60d7f160dd9e82501e45e43b7b157bb848dbf689c36627315b9, 0x21bea227f642ebd5e676b07ee4c5d7a73afe14153b2721201eb4718edb5d2a26)"
      ],
      "transaction": {
        "from": "0x646dc5fc4009c4c84a424b6ae0f494b374bae1ce",
        "to": "0x73973d222c3fda5b2563d269da9e19cb125000f4",
        "gas": "0x2c4dd",
        "value": "0x0",
        "input": "0x3bae3e790000000000000000000000000000000000000000000000000000000000000000000000000000000000000000646dc5fc4009c4c84a424b6ae0f494b374bae1ce0000000000000000000000000000000000000000000000000000000000000000000000000000000000000000000000000000000000000000000000000000000000000000000000000000000038d4de42c9c5640a2799b372d27b01957e0a367300000000000000000000000000000000000000000000000000000000000001a9000000000000000000000000c02aaa39b223fe8d0a0e5c4f27ead9083c756cc20000000000000000000000000000000000000000000000000af31751d7c880000000000000000000000000001302f142fc55b165647d3bd5dec227f569a2a9070000000000000000000000000000000000000000000000000000000069a5e07e000000000000000000000000000000000000000000000000000000006a1257e80000000000000000000000000000000000000000000000000000000000000004000000000000000000000000000000000000000000000000000000000000001b5d272f12cff3c60d7f160dd9e82501e45e43b7b157bb848dbf689c36627315b921bea227f642ebd5e676b07ee4c5d7a73afe14153b2721201eb4718edb5d2a26",
        "nonce": "0x8f",
        "chainId": "0x7a69"
      },
      "additionalContracts": [],
      "isFixedGasLimit": false
    }
  ],
  "receipts": [
    {
      "status": "0x1",
      "cumulativeGasUsed": "0x20135",
      "logs": [
        {
          "address": "0xc02aaa39b223fe8d0a0e5c4f27ead9083c756cc2",
          "topics": [
            "0xddf252ad1be2c89b69c2b068fc378daa952ba7f163c4a11628f55a4df523b3ef",
            "0x000000000000000000000000646dc5fc4009c4c84a424b6ae0f494b374bae1ce",
            "0x0000000000000000000000001804c8ab1f12e6bbf3894d4083f33e07309d1f38"
          ],
          "data": "0x000000000000000000000000000000000000000000000000001c07e9c7472000",
          "blockHash": "0x8710d1180e978acc355a7d84404e3dfef845b1312e052234d8ee493bbe6a6173",
          "blockNumber": "0x17b73a0",
          "blockTimestamp": "0x69e0d807",
          "transactionHash": "0x79568c36ead9b2b03d89ccdb70f460b20ed3ea2b41e35d33e2ae15bd5a36bbc2",
          "transactionIndex": "0x0",
          "logIndex": "0x0",
          "removed": false
        },
        {
          "address": "0xc02aaa39b223fe8d0a0e5c4f27ead9083c756cc2",
          "topics": [
            "0xddf252ad1be2c89b69c2b068fc378daa952ba7f163c4a11628f55a4df523b3ef",
            "0x000000000000000000000000646dc5fc4009c4c84a424b6ae0f494b374bae1ce",
            "0x0000000000000000000000001302f142fc55b165647d3bd5dec227f569a2a907"
          ],
          "data": "0x0000000000000000000000000000000000000000000000000ad70f6810816000",
          "blockHash": "0x8710d1180e978acc355a7d84404e3dfef845b1312e052234d8ee493bbe6a6173",
          "blockNumber": "0x17b73a0",
          "blockTimestamp": "0x69e0d807",
          "transactionHash": "0x79568c36ead9b2b03d89ccdb70f460b20ed3ea2b41e35d33e2ae15bd5a36bbc2",
          "transactionIndex": "0x0",
          "logIndex": "0x1",
          "removed": false
        },
        {
          "address": "0x38d4de42c9c5640a2799b372d27b01957e0a3673",
          "topics": [
            "0xddf252ad1be2c89b69c2b068fc378daa952ba7f163c4a11628f55a4df523b3ef",
            "0x0000000000000000000000001302f142fc55b165647d3bd5dec227f569a2a907",
            "0x000000000000000000000000646dc5fc4009c4c84a424b6ae0f494b374bae1ce",
            "0x00000000000000000000000000000000000000000000000000000000000001a9"
          ],
          "data": "0x",
          "blockHash": "0x8710d1180e978acc355a7d84404e3dfef845b1312e052234d8ee493bbe6a6173",
          "blockNumber": "0x17b73a0",
          "blockTimestamp": "0x69e0d807",
          "transactionHash": "0x79568c36ead9b2b03d89ccdb70f460b20ed3ea2b41e35d33e2ae15bd5a36bbc2",
          "transactionIndex": "0x0",
          "logIndex": "0x2",
          "removed": false
        },
        {
          "address": "0x73973d222c3fda5b2563d269da9e19cb125000f4",
          "topics": [
            "0xc0ac3eb1e8caef05b202043f34de8e3173fab712167584f7a2a9f4c302bd0e9c",
            "0x71c5dd6d920dde6aa715122d35ba00d07faf7fb601224bb94ccefdf386b284ef",
            "0x00000000000000000000000038d4de42c9c5640a2799b372d27b01957e0a3673",
            "0x00000000000000000000000000000000000000000000000000000000000001a9"
          ],
          "data": "0x0000000000000000000000001302f142fc55b165647d3bd5dec227f569a2a907000000000000000000000000646dc5fc4009c4c84a424b6ae0f494b374bae1ce000000000000000000000000c02aaa39b223fe8d0a0e5c4f27ead9083c756cc20000000000000000000000000000000000000000000000000af31751d7c88000",
          "blockHash": "0x8710d1180e978acc355a7d84404e3dfef845b1312e052234d8ee493bbe6a6173",
          "blockNumber": "0x17b73a0",
          "blockTimestamp": "0x69e0d807",
          "transactionHash": "0x79568c36ead9b2b03d89ccdb70f460b20ed3ea2b41e35d33e2ae15bd5a36bbc2",
          "transactionIndex": "0x0",
          "logIndex": "0x3",
          "removed": false
        }
      ],
      "logsBloom": "0x00000000000000000000000004000000000000000002000000004000000000000000020000000000000000000000020002000000090000000004100000100000040000000000001021000008000000000000000000000000000000000000000000000000000000000005000000000000000000000000000000000010000000000000000000000000000004000000000001000000000008000000000000000000000000000000000000000000000100000000000000000080400000000000000000000002000004000000000200000000000000000000000000000000000000000100200000000000000240000000000000000000000000000000000000000000",
      "type": "0x2",
      "transactionHash": "0x79568c36ead9b2b03d89ccdb70f460b20ed3ea2b41e35d33e2ae15bd5a36bbc2",
      "transactionIndex": "0x0",
      "blockHash": "0x8710d1180e978acc355a7d84404e3dfef845b1312e052234d8ee493bbe6a6173",
      "blockNumber": "0x17b73a0",
      "gasUsed": "0x20135",
      "effectiveGasPrice": "0xf4248",
      "blobGasPrice": "0x1",
      "from": "0x646dc5fc4009c4c84a424b6ae0f494b374bae1ce",
      "to": "0x73973d222c3fda5b2563d269da9e19cb125000f4",
      "contractAddress": null
    }
  ],
  "libraries": [],
  "pending": [],
  "returns": {},
  "timestamp": 1778453705331,
  "chain": 31337,
  "commit": "f87d399"
}