{
  "transactions": [
    {
      "hash": "0x403625825aa53df29363e961ffdecb1fd7372ebe940937637d444af1ed3eda5f",
      "transactionType": "CALL",
      "contractName": null,
      "contractAddress": "0x8fa71914948544c60e3379064567dcf0e6564d27",
      "function": "settle((uint256,address),(uint8,bool,address,uint256,address,uint256,address,uint64,uint64,uint256),(uint8,bytes32,bytes32))",
      "arguments": [
        "(83, 0xc5aDfC119364CFE2297e4414dB04834d8702475B)",
        "(1, false, 0xA5f104F8f78d5ba9AEC4a383c0927337Fd4E997B, 83, 0xC02aaA39b223FE8D0A0e5C4F27eAD9083C756Cc2, 15000000000000000, 0x646dC5Fc4009C4C84a424B6aE0f494b374bAE1Ce, 1772967795, 1779206491, 6)",
        "(28, 0x086d593cbe66f03a0153e9886cc5b6685817697b40e305dc448fccb74003e5ad, 0x06997e72d4278f528886e3a167221557982c1b68bef0becff8e2d7f4210906e1)"
      ],
      "transaction": {
        "from": "0xc5adfc119364cfe2297e4414db04834d8702475b",
        "to": "0x8fa71914948544c60e3379064567dcf0e6564d27",
        "gas": "0x2c5dc",
        "value": "0x0",
        "input": "0x3bae3e790000000000000000000000000000000000000000000000000000000000000053000000000000000000000000c5adfc119364cfe2297e4414db04834d8702475b00000000000000000000000000000000000000000000000000000000000000010000000000000000000000000000000000000000000000000000000000000000000000000000000000000000a5f104f8f78d5ba9aec4a383c0927337fd4e997b0000000000000000000000000000000000000000000000000000000000000053000000000000000000000000c02aaa39b223fe8d0a0e5c4f27ead9083c756cc200000000000000000000000000000000000000000000000000354a6ba7a18000000000000000000000000000646dc5fc4009c4c84a424b6ae0f494b374bae1ce0000000000000000000000000000000000000000000000000000000069ad5773000000000000000000000000000000000000000000000000000000006a0c895b0000000000000000000000000000000000000000000000000000000000000006000000000000000000000000000000000000000000000000000000000000001c086d593cbe66f03a0153e9886cc5b6685817697b40e305dc448fccb74003e5ad06997e72d4278f528886e3a167221557982c1b68bef0becff8e2d7f4210906e1",
        "nonce": "0x39",
        "chainId": "0x7a69"
      },
      "additionalContracts": [],
      "isFixedGasLimit": false
    }
  ],
  "receipts": [
    {
      "status": "0x1",
      "cumulativeGasUsed": "0x201ee",
      "logs": [
        {
          "address": "0xc02aaa39b223fe8d0a0e5c4f27ead9083c756cc2",
          "topics": [
            "0xddf252ad1be2c89b69c2b068fc378daa952ba7f163c4a11628f55a4df523b3ef",
            "0x000000000000000000000000646dc5fc4009c4c84a424b6ae0f494b374bae1ce",
            "0x0000000000000000000000001804c8ab1f12e6bbf3894d4083f33e07309d1f38"
          ],
          "data": "0x0000000000000000000000000000000000000000000000000000886c98b76000",
          "blockHash": "0xc4a1479b3c850d8b33143cb412abc75f6ff4da968a162a9eb6ce932596c8d0b4",
          "blockNumber": "0x17b8348",
          "blockTimestamp": "0x69ebde72",
          "transactionHash": "0x403625825aa53df29363e961ffdecb1fd7372ebe940937637d444af1ed3eda5f",
          "transactionIndex": "0x0",
          "logIndex": "0x0",
          "removed": false
        },
        {
          "address": "0xc02aaa39b223fe8d0a0e5c4f27ead9083c756cc2",
          "topics": [
            "0xddf252ad1be2c89b69c2b068fc378daa952ba7f163c4a11628f55a4df523b3ef",
            "0x000000000000000000000000646dc5fc4009c4c84a424b6ae0f494b374bae1ce",
            "0x000000000000000000000000c5adfc119364cfe2297e4414db04834d8702475b"
          ],
          "data": "0x0000000000000000000000000000000000000000000000000034c1ff0eea2000",
          "blockHash": "0xc4a1479b3c850d8b33143cb412abc75f6ff4da968a162a9eb6ce932596c8d0b4",
          "blockNumber": "0x17b8348",
          "blockTimestamp": "0x69ebde72",
          "transactionHash": "0x403625825aa53df29363e961ffdecb1fd7372ebe940937637d444af1ed3eda5f",
          "transactionIndex": "0x0",
          "logIndex": "0x1",
          "removed": false
        },
        {
          "address": "0xa5f104f8f78d5ba9aec4a383c0927337fd4e997b",
          "topics": [
            "0xddf252ad1be2c89b69c2b068fc378daa952ba7f163c4a11628f55a4df523b3ef",
            "0x000000000000000000000000c5adfc119364cfe2297e4414db04834d8702475b",
            "0x000000000000000000000000646dc5fc4009c4c84a424b6ae0f494b374bae1ce",
            "0x0000000000000000000000000000000000000000000000000000000000000053"
          ],
          "data": "0x",
          "blockHash": "0xc4a1479b3c850d8b33143cb412abc75f6ff4da968a162a9eb6ce932596c8d0b4",
          "blockNumber": "0x17b8348",
          "blockTimestamp": "0x69ebde72",
          "transactionHash": "0x403625825aa53df29363e961ffdecb1fd7372ebe940937637d444af1ed3eda5f",
          "transactionIndex": "0x0",
          "logIndex": "0x2",
          "removed": false
        },
        {
          "address": "0x8fa71914948544c60e3379064567dcf0e6564d27",
          "topics": [
            "0xc0ac3eb1e8caef05b202043f34de8e3173fab712167584f7a2a9f4c302bd0e9c",
            "0xbffcfc97f444da1c5d84ec0e33274a20247c1d428a4bcde9ee5fbed75f4697c7",
            "0x000000000000000000000000a5f104f8f78d5ba9aec4a383c0927337fd4e997b",
            "0x0000000000000000000000000000000000000000000000000000000000000053"
          ],
          "data": "0x000000000000000000000000c5adfc119364cfe2297e4414db04834d8702475b000000000000000000000000646dc5fc4009c4c84a424b6ae0f494b374bae1ce000000000000000000000000c02aaa39b223fe8d0a0e5c4f27ead9083c756cc200000000000000000000000000000000000000000000000000354a6ba7a18000",
          "blockHash": "0xc4a1479b3c850d8b33143cb412abc75f6ff4da968a162a9eb6ce932596c8d0b4",
          "blockNumber": "0x17b8348",
          "blockTimestamp": "0x69ebde72",
          "transactionHash": "0x403625825aa53df29363e961ffdecb1fd7372ebe940937637d444af1ed3eda5f",
          "transactionIndex": "0x0",
          "logIndex": "0x3",
          "removed": false
        }
      ],
      "logsBloom": "0x00000000000000000008010000000000000000000002000000000000000000000000000000000000000000000000000002000000090000000000000000100000000000000000000000010008000000000000000000000000080000800000000200000000000000000005000000000008000000000000000000000010200000000800000040040000000004000000000000000000000000000000000000000000000000200000000400000000000020000000000000000080000000000000000000000002000004000000000000000000000020000000000080000000000000000100200000000000000000000000000000000000000000002000040000000000",
      "type": "0x2",
      "transactionHash": "0x403625825aa53df29363e961ffdecb1fd7372ebe940937637d444af1ed3eda5f",
      "transactionIndex": "0x0",
      "blockHash": "0xc4a1479b3c850d8b33143cb412abc75f6ff4da968a162a9eb6ce932596c8d0b4",
      "blockNumber": "0x17b8348",
      "gasUsed": "0x201ee",
      "effectiveGasPrice": "0x1ba81c",
      "blobGasPrice": "0x1",
      "from": "0xc5adfc119364cfe2297e4414db04834d8702475b",
      "to": "0x8fa71914948544c60e3379064567dcf0e6564d27",
      "contractAddress": null
    }
  ],
  "libraries": [],
  "pending": [],
  "returns": {},
  "timestamp": 1778506449529,
  "chain": 31337,
  "commit": "59e30a9"
}