{
  "transactions": [
    {
      "hash": "0xdfdc2df7ac8296feecfe26cf31b676c66bec4708b6d764a8a18d124f2fd3ca21",
      "transactionType": "CALL",
      "contractName": null,
      "contractAddress": "0x73973d222c3fda5b2563d269da9e19cb125000f4",
      "function": "settle((uint256,address),(uint8,bool,address,uint256,address,uint256,address,uint64,uint64,uint256),(uint8,bytes32,bytes32))",
      "arguments": [
        "(0, 0x646dC5Fc4009C4C84a424B6aE0f494b374bAE1Ce)",
        "(0, false, 0x38D4dE42C9c5640A2799B372D27B01957E0a3673, 122, 0xC02aaA39b223FE8D0A0e5C4F27eAD9083C756Cc2, 30000000000000000, 0x08312E82df563A1639b81f49bb41247759700e30, 1772190180, 1779875458, 0)",
        "(28, 0x00f021cb6d3d7b2e507653f07ddb9f9620b6e5267d44d2428feb1ed6f3c51666, 0x69bd527498711fc0e20b49a05d69e2e3afe7b9434cb8facd0261734c3388f6f9)"
      ],
      "transaction": {
        "from": "0x646dc5fc4009c4c84a424b6ae0f494b374bae1ce",
        "to": "0x73973d222c3fda5b2563d269da9e19cb125000f4",
        "gas": "0x2c4a5",
        "value": "0x0",
        "input": "0x3bae3e790000000000000000000000000000000000000000000000000000000000000000000000000000000000000000646dc5fc4009c4c84a424b6ae0f494b374bae1ce0000000000000000000000000000000000000000000000000000000000000000000000000000000000000000000000000000000000000000000000000000000000000000000000000000000038d4de42c9c5640a2799b372d27b01957e0a3673000000000000000000000000000000000000000000000000000000000000007a000000000000000000000000c02aaa39b223fe8d0a0e5c4f27ead9083c756cc2000000000000000000000000000000000000000000000000006a94d74f43000000000000000000000000000008312e82df563a1639b81f49bb41247759700e300000000000000000000000000000000000000000000000000000000069a179e4000000000000000000000000000000000000000000000000000000006a16be820000000000000000000000000000000000000000000000000000000000000000000000000000000000000000000000000000000000000000000000000000001c00f021cb6d3d7b2e507653f07ddb9f9620b6e5267d44d2428feb1ed6f3c5166669bd527498711fc0e20b49a05d69e2e3afe7b9434cb8facd0261734c3388f6f9",
        "nonce": "0x92",
        "chainId": "0x7a69"
      },
      "additionalContracts": [],
      "isFixedGasLimit": false
    }
  ],
  "receipts": [
    {
      "status": "0x1",
      "cumulativeGasUsed": "0x2010d",
      "logs": [
        {
          "address": "0xc02aaa39b223fe8d0a0e5c4f27ead9083c756cc2",
          "topics": [
            "0xddf252ad1be2c89b69c2b068fc378daa952ba7f163c4a11628f55a4df523b3ef",
            "0x000000000000000000000000646dc5fc4009c4c84a424b6ae0f494b374bae1ce",
            "0x0000000000000000000000001804c8ab1f12e6bbf3894d4083f33e07309d1f38"
          ],
          "data": "0x000000000000000000000000000000000000000000000000000110d9316ec000",
          "blockHash": "0xbfa87df0b54d7407c20eb80ea56aef2a7a614e324fe0808009ddfbdfe9678481",
          "blockNumber": "0x17b73a6",
          "blockTimestamp": "0x69e1f94f",
          "transactionHash": "0xdfdc2df7ac8296feecfe26cf31b676c66bec4708b6d764a8a18d124f2fd3ca21",
          "transactionIndex": "0x0",
          "logIndex": "0x0",
          "removed": false
        },
        {
          "address": "0xc02aaa39b223fe8d0a0e5c4f27ead9083c756cc2",
          "topics": [
            "0xddf252ad1be2c89b69c2b068fc378daa952ba7f163c4a11628f55a4df523b3ef",
            "0x000000000000000000000000646dc5fc4009c4c84a424b6ae0f494b374bae1ce",
            "0x00000000000000000000000008312e82df563a1639b81f49bb41247759700e30"
          ],
          "data": "0x000000000000000000000000000000000000000000000000006983fe1dd44000",
          "blockHash": "0xbfa87df0b54d7407c20eb80ea56aef2a7a614e324fe0808009ddfbdfe9678481",
          "blockNumber": "0x17b73a6",
          "blockTimestamp": "0x69e1f94f",
          "transactionHash": "0xdfdc2df7ac8296feecfe26cf31b676c66bec4708b6d764a8a18d124f2fd3ca21",
          "transactionIndex": "0x0",
          "logIndex": "0x1",
          "removed": false
        },
        {
          "address": "0x38d4de42c9c5640a2799b372d27b01957e0a3673",
          "topics": [
            "0xddf252ad1be2c89b69c2b068fc378daa952ba7f163c4a11628f55a4df523b3ef",
            "0x00000000000000000000000008312e82df563a1639b81f49bb41247759700e30",
            "0x000000000000000000000000646dc5fc4009c4c84a424b6ae0f494b374bae1ce",
            "0x000000000000000000000000000000000000000000000000000000000000007a"
          ],
          "data": "0x",
          "blockHash": "0xbfa87df0b54d7407c20eb80ea56aef2a7a614e324fe0808009ddfbdfe9678481",
          "blockNumber": "0x17b73a6",
          "blockTimestamp": "0x69e1f94f",
          "transactionHash": "0xdfdc2df7ac8296feecfe26cf31b676c66bec4708b6d764a8a18d124f2fd3ca21",
          "transactionIndex": "0x0",
          "logIndex": "0x2",
          "removed": false
        },
        {
          "address": "0x73973d222c3fda5b2563d269da9e19cb125000f4",
          "topics": [
            "0xc0ac3eb1e8caef05b202043f34de8e3173fab712167584f7a2a9f4c302bd0e9c",
            "0xe02281ea18bd2ea186fcb4eb800d858a8cabdaaa87f4ece6f7b2db3cb87343fd",
            "0x00000000000000000000000038d4de42c9c5640a2799b372d27b01957e0a3673",
            "0x000000000000000000000000000000000000000000000000000000000000007a"
          ],
          "data": "0x00000000000000000000000008312e82df563a1639b81f49bb41247759700e30000000000000000000000000646dc5fc4009c4c84a424b6ae0f494b374bae1ce000000000000000000000000c02aaa39b223fe8d0a0e5c4f27ead9083c756cc2000000000000000000000000000000000000000000000000006a94d74f430000",
          "blockHash": "0xbfa87df0b54d7407c20eb80ea56aef2a7a614e324fe0808009ddfbdfe9678481",
          "blockNumber": "0x17b73a6",
          "blockTimestamp": "0x69e1f94f",
          "transactionHash": "0xdfdc2df7ac8296feecfe26cf31b676c66bec4708b6d764a8a18d124f2fd3ca21",
          "transactionIndex": "0x0",
          "logIndex": "0x3",
          "removed": false
        }
      ],
      "logsBloom": "0x00000000000000000000000001000000000200000002000000000000000000000000000000100000000200000000020002000000090000000004100000100000000000000000001021000008000000000000000000000000000000000000000000000000000000000005000000000000000000000000001000000010000000000000000000000000000004000000000000000000000008000000000000000000000000000000000000000000400000000000000000000080400000000000000000000002000004000000000000000000000000000000000000000000000000000100200000000000000000000000000000000000004004100000000000000000",
      "type": "0x2",
      "transactionHash": "0xdfdc2df7ac8296feecfe26cf31b676c66bec4708b6d764a8a18d124f2fd3ca21",
      "transactionIndex": "0x0",
      "blockHash": "0xbfa87df0b54d7407c20eb80ea56aef2a7a614e324fe0808009ddfbdfe9678481",
      "blockNumber": "0x17b73a6",
      "gasUsed": "0x2010d",
      "effectiveGasPrice": "0xf4248",
      "blobGasPrice": "0x1",
      "from": "0x646dc5fc4009c4c84a424b6ae0f494b374bae1ce",
      "to": "0x73973d222c3fda5b2563d269da9e19cb125000f4",
      "contractAddress": null
    }
  ],
  "libraries": [],
  "pending": [],
  "returns": {},
  "timestamp": 1778453711087,
  "chain": 31337,
  "commit": "f87d399"
}