{
  "transactions": [
    {
      "hash": "0x26ed27fffd880db4bb03db497f43ba460b0fbc78f5ac19ed4f87025782eb1f61",
      "transactionType": "CALL",
      "contractName": null,
      "contractAddress": "0x73973d222c3fda5b2563d269da9e19cb125000f4",
      "function": "settle((uint256,address),(uint8,bool,address,uint256,address,uint256,address,uint64,uint64,uint256),(uint8,bytes32,bytes32))",
      "arguments": [
        "(0, 0x646dC5Fc4009C4C84a424B6aE0f494b374bAE1Ce)",
        "(0, false, 0x38D4dE42C9c5640A2799B372D27B01957E0a3673, 10, 0xC02aaA39b223FE8D0A0e5C4F27eAD9083C756Cc2, 388000000000000000, 0xc5aDfC119364CFE2297e4414dB04834d8702475B, 1772068193, 1779997445, 4)",
        "(27, 0xb0917cc0b173cbaa6188b8a42acb8cc0f91c290a4bf870b45cec5ce24a0aaf01, 0x5f3b03b7df5c4278318b18b49ec7c36387ac90ee9bb3d985f50c9ca6a78e1c5e)"
      ],
      "transaction": {
        "from": "0x646dc5fc4009c4c84a424b6ae0f494b374bae1ce",
        "to": "0x73973d222c3fda5b2563d269da9e19cb125000f4",
        "gas": "0x2c4bb",
        "value": "0x0",
        "input": "0x3bae3e790000000000000000000000000000000000000000000000000000000000000000000000000000000000000000646dc5fc4009c4c84a424b6ae0f494b374bae1ce0000000000000000000000000000000000000000000000000000000000000000000000000000000000000000000000000000000000000000000000000000000000000000000000000000000038d4de42c9c5640a2799b372d27b01957e0a3673000000000000000000000000000000000000000000000000000000000000000a000000000000000000000000c02aaa39b223fe8d0a0e5c4f27ead9083c756cc2000000000000000000000000000000000000000000000000056273f1bcda0000000000000000000000000000c5adfc119364cfe2297e4414db04834d8702475b00000000000000000000000000000000000000000000000000000000699f9d61000000000000000000000000000000000000000000000000000000006a189b050000000000000000000000000000000000000000000000000000000000000004000000000000000000000000000000000000000000000000000000000000001bb0917cc0b173cbaa6188b8a42acb8cc0f91c290a4bf870b45cec5ce24a0aaf015f3b03b7df5c4278318b18b49ec7c36387ac90ee9bb3d985f50c9ca6a78e1c5e",
        "nonce": "0xa3",
        "chainId": "0x7a69"
      },
      "additionalContracts": [],
      "isFixedGasLimit": false
    }
  ],
  "receipts": [
    {
      "status": "0x1",
      "cumulativeGasUsed": "0x2011d",
      "logs": [
        {
          "address": "0xc02aaa39b223fe8d0a0e5c4f27ead9083c756cc2",
          "topics": [
            "0xddf252ad1be2c89b69c2b068fc378daa952ba7f163c4a11628f55a4df523b3ef",
            "0x000000000000000000000000646dc5fc4009c4c84a424b6ae0f494b374bae1ce",
            "0x0000000000000000000000001804c8ab1f12e6bbf3894d4083f33e07309d1f38"
          ],
          "data": "0x000000000000000000000000000000000000000000000000000dc8d6e5ba8000",
          "blockHash": "0x48cdee9ae1f60f5df7b26bee7cc08a0538c04639987b3ad63382976b97f25fda",
          "blockNumber": "0x17b73e3",
          "blockTimestamp": "0x69ecb6b0",
          "transactionHash": "0x26ed27fffd880db4bb03db497f43ba460b0fbc78f5ac19ed4f87025782eb1f61",
          "transactionIndex": "0x0",
          "logIndex": "0x0",
          "removed": false
        },
        {
          "address": "0xc02aaa39b223fe8d0a0e5c4f27ead9083c756cc2",
          "topics": [
            "0xddf252ad1be2c89b69c2b068fc378daa952ba7f163c4a11628f55a4df523b3ef",
            "0x000000000000000000000000646dc5fc4009c4c84a424b6ae0f494b374bae1ce",
            "0x000000000000000000000000c5adfc119364cfe2297e4414db04834d8702475b"
          ],
          "data": "0x0000000000000000000000000000000000000000000000000554ab1ad71f8000",
          "blockHash": "0x48cdee9ae1f60f5df7b26bee7cc08a0538c04639987b3ad63382976b97f25fda",
          "blockNumber": "0x17b73e3",
          "blockTimestamp": "0x69ecb6b0",
          "transactionHash": "0x26ed27fffd880db4bb03db497f43ba460b0fbc78f5ac19ed4f87025782eb1f61",
          "transactionIndex": "0x0",
          "logIndex": "0x1",
          "removed": false
        },
        {
          "address": "0x38d4de42c9c5640a2799b372d27b01957e0a3673",
          "topics": [
            "0xddf252ad1be2c89b69c2b068fc378daa952ba7f163c4a11628f55a4df523b3ef",
            "0x000000000000000000000000c5adfc119364cfe2297e4414db04834d8702475b",
            "0x000000000000000000000000646dc5fc4009c4c84a424b6ae0f494b374bae1ce",
            "0x000000000000000000000000000000000000000000000000000000000000000a"
          ],
          "data": "0x",
          "blockHash": "0x48cdee9ae1f60f5df7b26bee7cc08a0538c04639987b3ad63382976b97f25fda",
          "blockNumber": "0x17b73e3",
          "blockTimestamp": "0x69ecb6b0",
          "transactionHash": "0x26ed27fffd880db4bb03db497f43ba460b0fbc78f5ac19ed4f87025782eb1f61",
          "transactionIndex": "0x0",
          "logIndex": "0x2",
          "removed": false
        },
        {
          "address": "0x73973d222c3fda5b2563d269da9e19cb125000f4",
          "topics": [
            "0xc0ac3eb1e8caef05b202043f34de8e3173fab712167584f7a2a9f4c302bd0e9c",
            "0xf6b9c7d84a466e799e683798456e00e2ea5874d77ce588076a5a3441d4154133",
            "0x00000000000000000000000038d4de42c9c5640a2799b372d27b01957e0a3673",
            "0x000000000000000000000000000000000000000000000000000000000000000a"
          ],
          "data": "0x000000000000000000000000c5adfc119364cfe2297e4414db04834d8702475b000000000000000000000000646dc5fc4009c4c84a424b6ae0f494b374bae1ce000000000000000000000000c02aaa39b223fe8d0a0e5c4f27ead9083c756cc2000000000000000000000000000000000000000000000000056273f1bcda0000",
          "blockHash": "0x48cdee9ae1f60f5df7b26bee7cc08a0538c04639987b3ad63382976b97f25fda",
          "blockNumber": "0x17b73e3",
          "blockTimestamp": "0x69ecb6b0",
          "transactionHash": "0x26ed27fffd880db4bb03db497f43ba460b0fbc78f5ac19ed4f87025782eb1f61",
          "transactionIndex": "0x0",
          "logIndex": "0x3",
          "removed": false
        }
      ],
      "logsBloom": "0x000000000000000000000000000000000000000000020000000000000000000000000000000000000000000000000200020000000d0000000024100000100000000000001000001021000008000000000000000000000000000000000000000200000000000000000005000000000000000000000000000000000010000000000000000000000000010004000000000000000000000008000000000000000000000000000000000000000200000020000000000000000080400000000000000000000002000004000000000000000000000000000000000000000000000000000100200000000000000000000000000000004000000000002000000000000000",
      "type": "0x2",
      "transactionHash": "0x26ed27fffd880db4bb03db497f43ba460b0fbc78f5ac19ed4f87025782eb1f61",
      "transactionIndex": "0x0",
      "blockHash": "0x48cdee9ae1f60f5df7b26bee7cc08a0538c04639987b3ad63382976b97f25fda",
      "blockNumber": "0x17b73e3",
      "gasUsed": "0x2011d",
      "effectiveGasPrice": "0xf4248",
      "blobGasPrice": "0x1",
      "from": "0x646dc5fc4009c4c84a424b6ae0f494b374bae1ce",
      "to": "0x73973d222c3fda5b2563d269da9e19cb125000f4",
      "contractAddress": null
    }
  ],
  "libraries": [],
  "pending": [],
  "returns": {},
  "timestamp": 1778453799773,
  "chain": 31337,
  "commit": "f87d399"
}