{
  "transactions": [
    {
      "hash": "0xfdbe28f22cae9688ab2816a9180064eea841b4e89362564e54b137046ef43a97",
      "transactionType": "CALL",
      "contractName": null,
      "contractAddress": "0x8fa71914948544c60e3379064567dcf0e6564d27",
      "function": "settle((uint256,address),(uint8,bool,address,uint256,address,uint256,address,uint64,uint64,uint256),(uint8,bytes32,bytes32))",
      "arguments": [
        "(286, 0xa382b0E75C192D9CDF5c084E58b750Cea7761Bd0)",
        "(1, false, 0xA5f104F8f78d5ba9AEC4a383c0927337Fd4E997B, 286, 0xC02aaA39b223FE8D0A0e5C4F27eAD9083C756Cc2, 78000000000000000, 0xc5aDfC119364CFE2297e4414dB04834d8702475B, 1773088471, 1779085815, 4)",
        "(28, 0x3dab7c14a20c1f01d912b6e0bc074e767d242032bff3b56570c97e84c3498cb5, 0x0dff39ad08fa7b482ecb4374dfc561868b3e9bc905cf6e94181fc53a720dfab5)"
      ],
      "transaction": {
        "from": "0xa382b0e75c192d9cdf5c084e58b750cea7761bd0",
        "to": "0x8fa71914948544c60e3379064567dcf0e6564d27",
        "gas": "0x2c5fe",
        "value": "0x0",
        "input": "0x3bae3e79000000000000000000000000000000000000000000000000000000000000011e000000000000000000000000a382b0e75c192d9cdf5c084e58b750cea7761bd000000000000000000000000000000000000000000000000000000000000000010000000000000000000000000000000000000000000000000000000000000000000000000000000000000000a5f104f8f78d5ba9aec4a383c0927337fd4e997b000000000000000000000000000000000000000000000000000000000000011e000000000000000000000000c02aaa39b223fe8d0a0e5c4f27ead9083c756cc200000000000000000000000000000000000000000000000001151c96347b0000000000000000000000000000c5adfc119364cfe2297e4414db04834d8702475b0000000000000000000000000000000000000000000000000000000069af2ed7000000000000000000000000000000000000000000000000000000006a0ab1f70000000000000000000000000000000000000000000000000000000000000004000000000000000000000000000000000000000000000000000000000000001c3dab7c14a20c1f01d912b6e0bc074e767d242032bff3b56570c97e84c3498cb50dff39ad08fa7b482ecb4374dfc561868b3e9bc905cf6e94181fc53a720dfab5",
        "nonce": "0x29",
        "chainId": "0x7a69"
      },
      "additionalContracts": [],
      "isFixedGasLimit": false
    }
  ],
  "receipts": [
    {
      "status": "0x1",
      "cumulativeGasUsed": "0x20206",
      "logs": [
        {
          "address": "0xc02aaa39b223fe8d0a0e5c4f27ead9083c756cc2",
          "topics": [
            "0xddf252ad1be2c89b69c2b068fc378daa952ba7f163c4a11628f55a4df523b3ef",
            "0x000000000000000000000000c5adfc119364cfe2297e4414db04834d8702475b",
            "0x0000000000000000000000001804c8ab1f12e6bbf3894d4083f33e07309d1f38"
          ],
          "data": "0x0000000000000000000000000000000000000000000000000002c567e6ecc000",
          "blockHash": "0x537674a0920d1bc1716fa97fa82cdb2ce6dda80fc88a6634c97ffe719e32113b",
          "blockNumber": "0x17b835c",
          "blockTimestamp": "0x69f0ddad",
          "transactionHash": "0xfdbe28f22cae9688ab2816a9180064eea841b4e89362564e54b137046ef43a97",
          "transactionIndex": "0x0",
          "logIndex": "0x0",
          "removed": false
        },
        {
          "address": "0xc02aaa39b223fe8d0a0e5c4f27ead9083c756cc2",
          "topics": [
            "0xddf252ad1be2c89b69c2b068fc378daa952ba7f163c4a11628f55a4df523b3ef",
            "0x000000000000000000000000c5adfc119364cfe2297e4414db04834d8702475b",
            "0x000000000000000000000000a382b0e75c192d9cdf5c084e58b750cea7761bd0"
          ],
          "data": "0x0000000000000000000000000000000000000000000000000112572e4d8e4000",
          "blockHash": "0x537674a0920d1bc1716fa97fa82cdb2ce6dda80fc88a6634c97ffe719e32113b",
          "blockNumber": "0x17b835c",
          "blockTimestamp": "0x69f0ddad",
          "transactionHash": "0xfdbe28f22cae9688ab2816a9180064eea841b4e89362564e54b137046ef43a97",
          "transactionIndex": "0x0",
          "logIndex": "0x1",
          "removed": false
        },
        {
          "address": "0xa5f104f8f78d5ba9aec4a383c0927337fd4e997b",
          "topics": [
            "0xddf252ad1be2c89b69c2b068fc378daa952ba7f163c4a11628f55a4df523b3ef",
            "0x000000000000000000000000a382b0e75c192d9cdf5c084e58b750cea7761bd0",
            "0x000000000000000000000000c5adfc119364cfe2297e4414db04834d8702475b",
            "0x000000000000000000000000000000000000000000000000000000000000011e"
          ],
          "data": "0x",
          "blockHash": "0x537674a0920d1bc1716fa97fa82cdb2ce6dda80fc88a6634c97ffe719e32113b",
          "blockNumber": "0x17b835c",
          "blockTimestamp": "0x69f0ddad",
          "transactionHash": "0xfdbe28f22cae9688ab2816a9180064eea841b4e89362564e54b137046ef43a97",
          "transactionIndex": "0x0",
          "logIndex": "0x2",
          "removed": false
        },
        {
          "address": "0x8fa71914948544c60e3379064567dcf0e6564d27",
          "topics": [
            "0xc0ac3eb1e8caef05b202043f34de8e3173fab712167584f7a2a9f4c302bd0e9c",
            "0x42cd71a1acfa2e1b56ebbaee487c212f34f94a63f0ecef3641f0bcfb50341a85",
            "0x000000000000000000000000a5f104f8f78d5ba9aec4a383c0927337fd4e997b",
            "0x000000000000000000000000000000000000000000000000000000000000011e"
          ],
          "data": "0x000000000000000000000000a382b0e75c192d9cdf5c084e58b750cea7761bd0000000000000000000000000c5adfc119364cfe2297e4414db04834d8702475b000000000000000000000000c02aaa39b223fe8d0a0e5c4f27ead9083c756cc200000000000000000000000000000000000000000000000001151c96347b0000",
          "blockHash": "0x537674a0920d1bc1716fa97fa82cdb2ce6dda80fc88a6634c97ffe719e32113b",
          "blockNumber": "0x17b835c",
          "blockTimestamp": "0x69f0ddad",
          "transactionHash": "0xfdbe28f22cae9688ab2816a9180064eea841b4e89362564e54b137046ef43a97",
          "transactionIndex": "0x0",
          "logIndex": "0x3",
          "removed": false
        }
      ],
      "logsBloom": "0x00000002000000000000010000000000000000000000000000000000000000000000000000000000100800000000000002000000080000000000000000100000000000000000000000010008000000000000000000000000080000000000000200000000000000000001000000000000040000000000040000000010200000000800000000040200000004000000000000100000000000000000000000000000040000200000000400000000000020000000000000000080000000000000000000000002000004000000000000000000000000000000000080000000000000000100200000000000000000000000000000000000100000002000000000000000",
      "type": "0x2",
      "transactionHash": "0xfdbe28f22cae9688ab2816a9180064eea841b4e89362564e54b137046ef43a97",
      "transactionIndex": "0x0",
      "blockHash": "0x537674a0920d1bc1716fa97fa82cdb2ce6dda80fc88a6634c97ffe719e32113b",
      "blockNumber": "0x17b835c",
      "gasUsed": "0x20206",
      "effectiveGasPrice": "0x1ba81c",
      "blobGasPrice": "0x1",
      "from": "0xa382b0e75c192d9cdf5c084e58b750cea7761bd0",
      "to": "0x8fa71914948544c60e3379064567dcf0e6564d27",
      "contractAddress": null
    }
  ],
  "libraries": [],
  "pending": [],
  "returns": {},
  "timestamp": 1778506476924,
  "chain": 31337,
  "commit": "59e30a9"
}