{
  "transactions": [
    {
      "hash": "0xb113154c988f3e17a6cc5690a1bee1b4f202e548fb98fa9fb9742eec815ee844",
      "transactionType": "CALL",
      "contractName": null,
      "contractAddress": "0xa5f104f8f78d5ba9aec4a383c0927337fd4e997b",
      "function": "setApprovalForAll(address,bool)",
      "arguments": [
        "0x8fA71914948544c60E3379064567DcF0E6564d27",
        "true"
      ],
      "transaction": {
        "from": "0x646dc5fc4009c4c84a424b6ae0f494b374bae1ce",
        "to": "0xa5f104f8f78d5ba9aec4a383c0927337fd4e997b",
        "gas": "0x10a82",
        "value": "0x0",
        "input": "0xa22cb4650000000000000000000000008fa71914948544c60e3379064567dcf0e6564d270000000000000000000000000000000000000000000000000000000000000001",
        "nonce": "0x3c",
        "chainId": "0x7a69"
      },
      "additionalContracts": [],
      "isFixedGasLimit": false
    },
    {
      "hash": "0x84b84ce92e0087a180cf103254dc682f97d571a90214fe1b94d52b3d6e2dfe82",
      "transactionType": "CALL",
      "contractName": null,
      "contractAddress": "0xa5f104f8f78d5ba9aec4a383c0927337fd4e997b",
      "function": "setApprovalForAll(address,bool)",
      "arguments": [
        "0x8fA71914948544c60E3379064567DcF0E6564d27",
        "true"
      ],
      "transaction": {
        "from": "0x1302f142fc55b165647d3bd5dec227f569a2a907",
        "to": "0xa5f104f8f78d5ba9aec4a383c0927337fd4e997b",
        "gas": "0x10a82",
        "value": "0x0",
        "input": "0xa22cb4650000000000000000000000008fa71914948544c60e3379064567dcf0e6564d270000000000000000000000000000000000000000000000000000000000000001",
        "nonce": "0x31",
        "chainId": "0x7a69"
      },
      "additionalContracts": [],
      "isFixedGasLimit": false
    },
    {
      "hash": "0xb1813067a3c6599e7b906158fea6377e40d86f3524f049511576ab46e1a0f419",
      "transactionType": "CALL",
      "contractName": null,
      "contractAddress": "0xa5f104f8f78d5ba9aec4a383c0927337fd4e997b",
      "function": "setApprovalForAll(address,bool)",
      "arguments": [
        "0x8fA71914948544c60E3379064567DcF0E6564d27",
        "true"
      ],
      "transaction": {
        "from": "0xe3745c151fab59b0740f4312b2b027f07d096639",
        "to": "0xa5f104f8f78d5ba9aec4a383c0927337fd4e997b",
        "gas": "0x10a82",
        "value": "0x0",
        "input": "0xa22cb4650000000000000000000000008fa71914948544c60e3379064567dcf0e6564d270000000000000000000000000000000000000000000000000000000000000001",
        "nonce": "0x44",
        "chainId": "0x7a69"
      },
      "additionalContracts": [],
      "isFixedGasLimit": false
    },
    {
      "hash": "0x5a0ef6c4cd190419e7aea097a5ecc2738fc70db9c288545aa8ebbc1a7a569c54",
      "transactionType": "CALL",
      "contractName": null,
      "contractAddress": "0xa5f104f8f78d5ba9aec4a383c0927337fd4e997b",
      "function": "setApprovalForAll(address,bool)",
      "arguments": [
        "0x8fA71914948544c60E3379064567DcF0E6564d27",
        "true"
      ],
      "transaction": {
        "from": "0x2c2dba75492e0c4a1d10b41303167aec59586c9c",
        "to": "0xa5f104f8f78d5ba9aec4a383c0927337fd4e997b",
        "gas": "0x10a82",
        "value": "0x0",
        "input": "0xa22cb4650000000000000000000000008fa71914948544c60e3379064567dcf0e6564d270000000000000000000000000000000000000000000000000000000000000001",
        "nonce": "0x2d",
        "chainId": "0x7a69"
      },
      "additionalContracts": [],
      "isFixedGasLimit": false
    },
    {
      "hash": "0xcf521eb9018fd8ac3515b7b12f9ad37dca07c5918bf57eba7c49ac470f90dd7d",
      "transactionType": "CALL",
      "contractName": null,
      "contractAddress": "0xa5f104f8f78d5ba9aec4a383c0927337fd4e997b",
      "function": "setApprovalForAll(address,bool)",
      "arguments": [
        "0x8fA71914948544c60E3379064567DcF0E6564d27",
        "true"
      ],
      "transaction": {
        "from": "0x4b75aec40561c03e03d4d1c421df194a3031a134",
        "to": "0xa5f104f8f78d5ba9aec4a383c0927337fd4e997b",
        "gas": "0x10a82",
        "value": "0x0",
        "input": "0xa22cb4650000000000000000000000008fa71914948544c60e3379064567dcf0e6564d270000000000000000000000000000000000000000000000000000000000000001",
        "nonce": "0x25",
        "chainId": "0x7a69"
      },
      "additionalContracts": [],
      "isFixedGasLimit": false
    },
    {
      "hash": "0x05d2528222c21a855e8318b35d4a599ee515c5edeb445f189aca89ae47392b89",
      "transactionType": "CALL",
      "contractName": null,
      "contractAddress": "0xa5f104f8f78d5ba9aec4a383c0927337fd4e997b",
      "function": "setApprovalForAll(address,bool)",
      "arguments": [
        "0x8fA71914948544c60E3379064567DcF0E6564d27",
        "true"
      ],
      "transaction": {
        "from": "0xe233420d38d286c2f2cf8dee6564f132fbdb09db",
        "to": "0xa5f104f8f78d5ba9aec4a383c0927337fd4e997b",
        "gas": "0x10a82",
        "value": "0x0",
        "input": "0xa22cb4650000000000000000000000008fa71914948544c60e3379064567dcf0e6564d270000000000000000000000000000000000000000000000000000000000000001",
        "nonce": "0x33",
        "chainId": "0x7a69"
      },
      "additionalContracts": [],
      "isFixedGasLimit": false
    },
    {
      "hash": "0x56deb952e3670a6a70dc0a74487ee338c1224a82ced6b76e755dd64da98aab79",
      "transactionType": "CALL",
      "contractName": null,
      "contractAddress": "0xa5f104f8f78d5ba9aec4a383c0927337fd4e997b",
      "function": "setApprovalForAll(address,bool)",
      "arguments": [
        "0x8fA71914948544c60E3379064567DcF0E6564d27",
        "true"
      ],
      "transaction": {
        "from": "0xc5adfc119364cfe2297e4414db04834d8702475b",
        "to": "0xa5f104f8f78d5ba9aec4a383c0927337fd4e997b",
        "gas": "0x10a82",
        "value": "0x0",
        "input": "0xa22cb4650000000000000000000000008fa71914948544c60e3379064567dcf0e6564d270000000000000000000000000000000000000000000000000000000000000001",
        "nonce": "0x32",
        "chainId": "0x7a69"
      },
      "additionalContracts": [],
      "isFixedGasLimit": false
    },
    {
      "hash": "0x7bdd3a4ee7f107d67c16367d7a3b61c5f0deb1272602658db3f59942abe54ae2",
      "transactionType": "CALL",
      "contractName": null,
      "contractAddress": "0xa5f104f8f78d5ba9aec4a383c0927337fd4e997b",
      "function": "setApprovalForAll(address,bool)",
      "arguments": [
        "0x8fA71914948544c60E3379064567DcF0E6564d27",
        "true"
      ],
      "transaction": {
        "from": "0x08312e82df563a1639b81f49bb41247759700e30",
        "to": "0xa5f104f8f78d5ba9aec4a383c0927337fd4e997b",
        "gas": "0x10a82",
        "value": "0x0",
        "input": "0xa22cb4650000000000000000000000008fa71914948544c60e3379064567dcf0e6564d270000000000000000000000000000000000000000000000000000000000000001",
        "nonce": "0x38",
        "chainId": "0x7a69"
      },
      "additionalContracts": [],
      "isFixedGasLimit": false
    },
    {
      "hash": "0x3ef1b8a2836fcb3c790ccd3fe431e72c50c84f51d7a1124d3460d8647be45bdc",
      "transactionType": "CALL",
      "contractName": null,
      "contractAddress": "0xa5f104f8f78d5ba9aec4a383c0927337fd4e997b",
      "function": "setApprovalForAll(address,bool)",
      "arguments": [
        "0x8fA71914948544c60E3379064567DcF0E6564d27",
        "true"
      ],
      "transaction": {
        "from": "0xcbe5659df21cbcfabe4da962f7a9081f26b3ed82",
        "to": "0xa5f104f8f78d5ba9aec4a383c0927337fd4e997b",
        "gas": "0x10a82",
        "value": "0x0",
        "input": "0xa22cb4650000000000000000000000008fa71914948544c60e3379064567dcf0e6564d270000000000000000000000000000000000000000000000000000000000000001",
        "nonce": "0x3b",
        "chainId": "0x7a69"
      },
      "additionalContracts": [],
      "isFixedGasLimit": false
    },
    {
      "hash": "0x7a5a07ca0d232591d72de79c0a44fedb2e79432f6652994a8d445a822d84ba93",
      "transactionType": "CALL",
      "contractName": null,
      "contractAddress": "0xa5f104f8f78d5ba9aec4a383c0927337fd4e997b",
      "function": "setApprovalForAll(address,bool)",
      "arguments": [
        "0x8fA71914948544c60E3379064567DcF0E6564d27",
        "true"
      ],
      "transaction": {
        "from": "0xa382b0e75c192d9cdf5c084e58b750cea7761bd0",
        "to": "0xa5f104f8f78d5ba9aec4a383c0927337fd4e997b",
        "gas": "0x10a82",
        "value": "0x0",
        "input": "0xa22cb4650000000000000000000000008fa71914948544c60e3379064567dcf0e6564d270000000000000000000000000000000000000000000000000000000000000001",
        "nonce": "0x25",
        "chainId": "0x7a69"
      },
      "additionalContracts": [],
      "isFixedGasLimit": false
    },
    {
      "hash": "0x6297d415acf1a0dc1d8976722ce998612c4ea644025242278f12fcc4d32f2edd",
      "transactionType": "CALL",
      "contractName": null,
      "contractAddress": "0xc02aaa39b223fe8d0a0e5c4f27ead9083c756cc2",
      "function": "approve(address,uint256)",
      "arguments": [
        "0x8fA71914948544c60E3379064567DcF0E6564d27",
        "115792089237316195423570985008687907853269984665640564039457584007913129639935"
      ],
      "transaction": {
        "from": "0x646dc5fc4009c4c84a424b6ae0f494b374bae1ce",
        "to": "0xc02aaa39b223fe8d0a0e5c4f27ead9083c756cc2",
        "gas": "0xfa27",
        "value": "0x0",
        "input": "0x095ea7b30000000000000000000000008fa71914948544c60e3379064567dcf0e6564d27ffffffffffffffffffffffffffffffffffffffffffffffffffffffffffffffff",
        "nonce": "0x3d",
        "chainId": "0x7a69"
      },
      "additionalContracts": [],
      "isFixedGasLimit": false
    },
    {
      "hash": "0x48beb6e573edd7714706183a29c24ba5537774ecc56e38d37492d02f85450e43",
      "transactionType": "CALL",
      "contractName": null,
      "contractAddress": "0xc02aaa39b223fe8d0a0e5c4f27ead9083c756cc2",
      "function": "approve(address,uint256)",
      "arguments": [
        "0x8fA71914948544c60E3379064567DcF0E6564d27",
        "115792089237316195423570985008687907853269984665640564039457584007913129639935"
      ],
      "transaction": {
        "from": "0x1302f142fc55b165647d3bd5dec227f569a2a907",
        "to": "0xc02aaa39b223fe8d0a0e5c4f27ead9083c756cc2",
        "gas": "0xfa27",
        "value": "0x0",
        "input": "0x095ea7b30000000000000000000000008fa71914948544c60e3379064567dcf0e6564d27ffffffffffffffffffffffffffffffffffffffffffffffffffffffffffffffff",
        "nonce": "0x32",
        "chainId": "0x7a69"
      },
      "additionalContracts": [],
      "isFixedGasLimit": false
    },
    {
      "hash": "0xddc006c38403988e5cd5be48365ac1f4d779c8a075153177a4e78bbaa0c106a1",
      "transactionType": "CALL",
      "contractName": null,
      "contractAddress": "0xc02aaa39b223fe8d0a0e5c4f27ead9083c756cc2",
      "function": "approve(address,uint256)",
      "arguments": [
        "0x8fA71914948544c60E3379064567DcF0E6564d27",
        "115792089237316195423570985008687907853269984665640564039457584007913129639935"
      ],
      "transaction": {
        "from": "0xe3745c151fab59b0740f4312b2b027f07d096639",
        "to": "0xc02aaa39b223fe8d0a0e5c4f27ead9083c756cc2",
        "gas": "0xfa27",
        "value": "0x0",
        "input": "0x095ea7b30000000000000000000000008fa71914948544c60e3379064567dcf0e6564d27ffffffffffffffffffffffffffffffffffffffffffffffffffffffffffffffff",
        "nonce": "0x45",
        "chainId": "0x7a69"
      },
      "additionalContracts": [],
      "isFixedGasLimit": false
    },
    {
      "hash": "0x7fd89ffae1bd9ca94e1f8be0def526cb1f9dc15b83aed5ead21fa88571600454",
      "transactionType": "CALL",
      "contractName": null,
      "contractAddress": "0xc02aaa39b223fe8d0a0e5c4f27ead9083c756cc2",
      "function": "approve(address,uint256)",
      "arguments": [
        "0x8fA71914948544c60E3379064567DcF0E6564d27",
        "115792089237316195423570985008687907853269984665640564039457584007913129639935"
      ],
      "transaction": {
        "from": "0x2c2dba75492e0c4a1d10b41303167aec59586c9c",
        "to": "0xc02aaa39b223fe8d0a0e5c4f27ead9083c756cc2",
        "gas": "0xfa27",
        "value": "0x0",
        "input": "0x095ea7b30000000000000000000000008fa71914948544c60e3379064567dcf0e6564d27ffffffffffffffffffffffffffffffffffffffffffffffffffffffffffffffff",
        "nonce": "0x2e",
        "chainId": "0x7a69"
      },
      "additionalContracts": [],
      "isFixedGasLimit": false
    },
    {
      "hash": "0x34c68f69d93837d02121832d7d23c197879146f41d454672219d538cead7b5dc",
      "transactionType": "CALL",
      "contractName": null,
      "contractAddress": "0xc02aaa39b223fe8d0a0e5c4f27ead9083c756cc2",
      "function": "approve(address,uint256)",
      "arguments": [
        "0x8fA71914948544c60E3379064567DcF0E6564d27",
        "115792089237316195423570985008687907853269984665640564039457584007913129639935"
      ],
      "transaction": {
        "from": "0x4b75aec40561c03e03d4d1c421df194a3031a134",
        "to": "0xc02aaa39b223fe8d0a0e5c4f27ead9083c756cc2",
        "gas": "0xfa27",
        "value": "0x0",
        "input": "0x095ea7b30000000000000000000000008fa71914948544c60e3379064567dcf0e6564d27ffffffffffffffffffffffffffffffffffffffffffffffffffffffffffffffff",
        "nonce": "0x26",
        "chainId": "0x7a69"
      },
      "additionalContracts": [],
      "isFixedGasLimit": false
    },
    {
      "hash": "0x73d7a164e53a9acc8fbcd7e432b48070bce181cd4fc7af37af64cd0a3c0eebf2",
      "transactionType": "CALL",
      "contractName": null,
      "contractAddress": "0xc02aaa39b223fe8d0a0e5c4f27ead9083c756cc2",
      "function": "approve(address,uint256)",
      "arguments": [
        "0x8fA71914948544c60E3379064567DcF0E6564d27",
        "115792089237316195423570985008687907853269984665640564039457584007913129639935"
      ],
      "transaction": {
        "from": "0xe233420d38d286c2f2cf8dee6564f132fbdb09db",
        "to": "0xc02aaa39b223fe8d0a0e5c4f27ead9083c756cc2",
        "gas": "0xfa27",
        "value": "0x0",
        "input": "0x095ea7b30000000000000000000000008fa71914948544c60e3379064567dcf0e6564d27ffffffffffffffffffffffffffffffffffffffffffffffffffffffffffffffff",
        "nonce": "0x34",
        "chainId": "0x7a69"
      },
      "additionalContracts": [],
      "isFixedGasLimit": false
    },
    {
      "hash": "0xcd516ef06cd85bec466f49c59d12fbda47c3431d7f0a55bf44d1081f9c712397",
      "transactionType": "CALL",
      "contractName": null,
      "contractAddress": "0xc02aaa39b223fe8d0a0e5c4f27ead9083c756cc2",
      "function": "approve(address,uint256)",
      "arguments": [
        "0x8fA71914948544c60E3379064567DcF0E6564d27",
        "115792089237316195423570985008687907853269984665640564039457584007913129639935"
      ],
      "transaction": {
        "from": "0xc5adfc119364cfe2297e4414db04834d8702475b",
        "to": "0xc02aaa39b223fe8d0a0e5c4f27ead9083c756cc2",
        "gas": "0xfa27",
        "value": "0x0",
        "input": "0x095ea7b30000000000000000000000008fa71914948544c60e3379064567dcf0e6564d27ffffffffffffffffffffffffffffffffffffffffffffffffffffffffffffffff",
        "nonce": "0x33",
        "chainId": "0x7a69"
      },
      "additionalContracts": [],
      "isFixedGasLimit": false
    },
    {
      "hash": "0x446f5c0e1148f84718941d4d007e622cdf188a8cc68d8bf096e9510ba4c34e12",
      "transactionType": "CALL",
      "contractName": null,
      "contractAddress": "0xc02aaa39b223fe8d0a0e5c4f27ead9083c756cc2",
      "function": "approve(address,uint256)",
      "arguments": [
        "0x8fA71914948544c60E3379064567DcF0E6564d27",
        "115792089237316195423570985008687907853269984665640564039457584007913129639935"
      ],
      "transaction": {
        "from": "0x08312e82df563a1639b81f49bb41247759700e30",
        "to": "0xc02aaa39b223fe8d0a0e5c4f27ead9083c756cc2",
        "gas": "0xfa27",
        "value": "0x0",
        "input": "0x095ea7b30000000000000000000000008fa71914948544c60e3379064567dcf0e6564d27ffffffffffffffffffffffffffffffffffffffffffffffffffffffffffffffff",
        "nonce": "0x39",
        "chainId": "0x7a69"
      },
      "additionalContracts": [],
      "isFixedGasLimit": false
    },
    {
      "hash": "0x1ffc29862082e977e9b6ae0ff123105d0a4a12dfadc363026cdde3ca51d71fa2",
      "transactionType": "CALL",
      "contractName": null,
      "contractAddress": "0xc02aaa39b223fe8d0a0e5c4f27ead9083c756cc2",
      "function": "approve(address,uint256)",
      "arguments": [
        "0x8fA71914948544c60E3379064567DcF0E6564d27",
        "115792089237316195423570985008687907853269984665640564039457584007913129639935"
      ],
      "transaction": {
        "from": "0xcbe5659df21cbcfabe4da962f7a9081f26b3ed82",
        "to": "0xc02aaa39b223fe8d0a0e5c4f27ead9083c756cc2",
        "gas": "0xfa27",
        "value": "0x0",
        "input": "0x095ea7b30000000000000000000000008fa71914948544c60e3379064567dcf0e6564d27ffffffffffffffffffffffffffffffffffffffffffffffffffffffffffffffff",
        "nonce": "0x3c",
        "chainId": "0x7a69"
      },
      "additionalContracts": [],
      "isFixedGasLimit": false
    },
    {
      "hash": "0xf4df3226d0c6bbd8b80dc6f18d0f9625a991880f46c4fd794736456c89c121cb",
      "transactionType": "CALL",
      "contractName": null,
      "contractAddress": "0xc02aaa39b223fe8d0a0e5c4f27ead9083c756cc2",
      "function": "approve(address,uint256)",
      "arguments": [
        "0x8fA71914948544c60E3379064567DcF0E6564d27",
        "115792089237316195423570985008687907853269984665640564039457584007913129639935"
      ],
      "transaction": {
        "from": "0xa382b0e75c192d9cdf5c084e58b750cea7761bd0",
        "to": "0xc02aaa39b223fe8d0a0e5c4f27ead9083c756cc2",
        "gas": "0xfa27",
        "value": "0x0",
        "input": "0x095ea7b30000000000000000000000008fa71914948544c60e3379064567dcf0e6564d27ffffffffffffffffffffffffffffffffffffffffffffffffffffffffffffffff",
        "nonce": "0x26",
        "chainId": "0x7a69"
      },
      "additionalContracts": [],
      "isFixedGasLimit": false
    }
  ],
  "receipts": [
    {
      "status": "0x1",
      "cumulativeGasUsed": "0xb63b",
      "logs": [
        {
          "address": "0xa5f104f8f78d5ba9aec4a383c0927337fd4e997b",
          "topics": [
            "0x17307eab39ab6107e8899845ad3d59bd9653f200f220920489ca2b5937696c31",
            "0x000000000000000000000000646dc5fc4009c4c84a424b6ae0f494b374bae1ce",
            "0x0000000000000000000000008fa71914948544c60e3379064567dcf0e6564d27"
          ],
          "data": "0x0000000000000000000000000000000000000000000000000000000000000001",
          "blockHash": "0x7df8ba2c6f4ac655f04b72dbb9b57010daf09401506bce0de68e7d8a8a81ed2b",
          "blockNumber": "0x17b8305",
          "blockTimestamp": "0x69dcf083",
          "transactionHash": "0xb113154c988f3e17a6cc5690a1bee1b4f202e548fb98fa9fb9742eec815ee844",
          "transactionIndex": "0x0",
          "logIndex": "0x0",
          "removed": false
        }
      ],
      "logsBloom": "0x00000000000000000000000000000000000000000002000000000000000000000000000000000000000000000000000000000000010000000000000000000000000000000000000080000000000000000000000200000000080000000000000002000000000000000004000000000000000000000000000000000000000000000000000000000000000000000000000000000000000000000000000000000000000000200000000400000000000000000000000000000000000000000000000000000000000000000200000000000000000000000000000000000000000000000000200800000000000000000000000000000000000000000000000000000000",
      "type": "0x2",
      "transactionHash": "0xb113154c988f3e17a6cc5690a1bee1b4f202e548fb98fa9fb9742eec815ee844",
      "transactionIndex": "0x0",
      "blockHash": "0x7df8ba2c6f4ac655f04b72dbb9b57010daf09401506bce0de68e7d8a8a81ed2b",
      "blockNumber": "0x17b8305",
      "gasUsed": "0xb63b",
      "effectiveGasPrice": "0x1ba81c",
      "blobGasPrice": "0x1",
      "from": "0x646dc5fc4009c4c84a424b6ae0f494b374bae1ce",
      "to": "0xa5f104f8f78d5ba9aec4a383c0927337fd4e997b",
      "contractAddress": null
    },
    {
      "status": "0x1",
      "cumulativeGasUsed": "0xb63b",
      "logs": [
        {
          "address": "0xa5f104f8f78d5ba9aec4a383c0927337fd4e997b",
          "topics": [
            "0x17307eab39ab6107e8899845ad3d59bd9653f200f220920489ca2b5937696c31",
            "0x0000000000000000000000001302f142fc55b165647d3bd5dec227f569a2a907",
            "0x0000000000000000000000008fa71914948544c60e3379064567dcf0e6564d27"
          ],
          "data": "0x0000000000000000000000000000000000000000000000000000000000000001",
          "blockHash": "0x07da1b553ccb09b7b33c7e45d0b47515e19b03a09d0761cb54db93e4588963ed",
          "blockNumber": "0x17b8306",
          "blockTimestamp": "0x69dcf083",
          "transactionHash": "0x84b84ce92e0087a180cf103254dc682f97d571a90214fe1b94d52b3d6e2dfe82",
          "transactionIndex": "0x0",
          "logIndex": "0x0",
          "removed": false
        }
      ],
      "logsBloom": "0x00000000000000000000000000000000000000000000000000000000000000000000000000000000000000000000000000000000000000000000000000000000000000000000000080000000000000000000000200000000080000000000000002000000000000000000000000000000000000000000000000000000000000000000000000000000000000000000000000000000000000000000000000000000000000200000000400000000000100000000000000000000000000000000000000000000000000000200000200000000000000000000000000000000000000000000200800000000000040000000000000000000000000000000000000000000",
      "type": "0x2",
      "transactionHash": "0x84b84ce92e0087a180cf103254dc682f97d571a90214fe1b94d52b3d6e2dfe82",
      "transactionIndex": "0x0",
      "blockHash": "0x07da1b553ccb09b7b33c7e45d0b47515e19b03a09d0761cb54db93e4588963ed",
      "blockNumber": "0x17b8306",
      "gasUsed": "0xb63b",
      "effectiveGasPrice": "0x1ba81c",
      "blobGasPrice": "0x1",
      "from": "0x1302f142fc55b165647d3bd5dec227f569a2a907",
      "to": "0xa5f104f8f78d5ba9aec4a383c0927337fd4e997b",
      "contractAddress": null
    },
    {
      "status": "0x1",
      "cumulativeGasUsed": "0xb63b",
      "logs": [
        {
          "address": "0xa5f104f8f78d5ba9aec4a383c0927337fd4e997b",
          "topics": [
            "0x17307eab39ab6107e8899845ad3d59bd9653f200f220920489ca2b5937696c31",
            "0x000000000000000000000000e3745c151fab59b0740f4312b2b027f07d096639",
            "0x0000000000000000000000008fa71914948544c60e3379064567dcf0e6564d27"
          ],
          "data": "0x0000000000000000000000000000000000000000000000000000000000000001",
          "blockHash": "0xe257577e31d95111179875fd28aa0cefcc7ca3d52b7237e7455f723f539e7c69",
          "blockNumber": "0x17b8307",
          "blockTimestamp": "0x69dcf083",
          "transactionHash": "0xb1813067a3c6599e7b906158fea6377e40d86f3524f049511576ab46e1a0f419",
          "transactionIndex": "0x0",
          "logIndex": "0x0",
          "removed": false
        }
      ],
      "logsBloom": "0x00000000000000000000000000000000000000000100000000000000000000000000000000000000000000000000000040000000000000000000000000000000000000000000000080000000000000000000000200000000080000000000000002000000000000000000000000000000000000000000000000000000000000000000000000000000000000000000000000000000000000000000000000000000000000200000000400000000000000000000000000000000000000000000000000000000000000000200000000000000000000000000000000000040000000000000200800000000000000000000000000000000000000000000000000000000",
      "type": "0x2",
      "transactionHash": "0xb1813067a3c6599e7b906158fea6377e40d86f3524f049511576ab46e1a0f419",
      "transactionIndex": "0x0",
      "blockHash": "0xe257577e31d95111179875fd28aa0cefcc7ca3d52b7237e7455f723f539e7c69",
      "blockNumber": "0x17b8307",
      "gasUsed": "0xb63b",
      "effectiveGasPrice": "0x1ba81c",
      "blobGasPrice": "0x1",
      "from": "0xe3745c151fab59b0740f4312b2b027f07d096639",
      "to": "0xa5f104f8f78d5ba9aec4a383c0927337fd4e997b",
      "contractAddress": null
    },
    {
      "status": "0x1",
      "cumulativeGasUsed": "0xb63b",
      "logs": [
        {
          "address": "0xa5f104f8f78d5ba9aec4a383c0927337fd4e997b",
          "topics": [
            "0x17307eab39ab6107e8899845ad3d59bd9653f200f220920489ca2b5937696c31",
            "0x0000000000000000000000002c2dba75492e0c4a1d10b41303167aec59586c9c",
            "0x0000000000000000000000008fa71914948544c60e3379064567dcf0e6564d27"
          ],
          "data": "0x0000000000000000000000000000000000000000000000000000000000000001",
          "blockHash": "0xc239d224b3b3b22152e8d08a7a718fae0815ad33d05692016c8a6230216e1852",
          "blockNumber": "0x17b8308",
          "blockTimestamp": "0x69dcf083",
          "transactionHash": "0x5a0ef6c4cd190419e7aea097a5ecc2738fc70db9c288545aa8ebbc1a7a569c54",
          "transactionIndex": "0x0",
          "logIndex": "0x0",
          "removed": false
        }
      ],
      "logsBloom": "0x00000000000000000000000000000000000000000000000000000000000000000000000000000000000000000000000000000000000000000000000800000000000200000000000080000000000000000000000200000000080000000000000002000000000004000000000000000000000000000000000000000000000000000000000000000000000000000000000000000000000000000000000000000000000000200000000400000000000000000000000000000000000000000000000000000000000000000200000000000000000000000000000000000000000000000000200800000000000000000000000000000000000000000000000000000000",
      "type": "0x2",
      "transactionHash": "0x5a0ef6c4cd190419e7aea097a5ecc2738fc70db9c288545aa8ebbc1a7a569c54",
      "transactionIndex": "0x0",
      "blockHash": "0xc239d224b3b3b22152e8d08a7a718fae0815ad33d05692016c8a6230216e1852",
      "blockNumber": "0x17b8308",
      "gasUsed": "0xb63b",
      "effectiveGasPrice": "0x1ba81c",
      "blobGasPrice": "0x1",
      "from": "0x2c2dba75492e0c4a1d10b41303167aec59586c9c",
      "to": "0xa5f104f8f78d5ba9aec4a383c0927337fd4e997b",
      "contractAddress": null
    },
    {
      "status": "0x1",
      "cumulativeGasUsed": "0xb63b",
      "logs": [
        {
          "address": "0xa5f104f8f78d5ba9aec4a383c0927337fd4e997b",
          "topics": [
            "0x17307eab39ab6107e8899845ad3d59bd9653f200f220920489ca2b5937696c31",
            "0x0000000000000000000000004b75aec40561c03e03d4d1c421df194a3031a134",
            "0x0000000000000000000000008fa71914948544c60e3379064567dcf0e6564d27"
          ],
          "data": "0x0000000000000000000000000000000000000000000000000000000000000001",
          "blockHash": "0xfb8462b3cb5a23d0c917803fe7eb2f97c3f72ebced584b34fb8f93c4fbc46b74",
          "blockNumber": "0x17b8309",
          "blockTimestamp": "0x69dcf083",
          "transactionHash": "0xcf521eb9018fd8ac3515b7b12f9ad37dca07c5918bf57eba7c49ac470f90dd7d",
          "transactionIndex": "0x0",
          "logIndex": "0x0",
          "removed": false
        }
      ],
      "logsBloom": "0x00000000000000000000000000000000000000000000000000000000000000000000000000000000000000000000000000000000000000000000000000000000000000000000000080000000000000000000000200000000080000000000000002000000000000000000000000000000000000000000000000000000000000000000000000000000000000000000000000000000000000000000000000002000000000200000000400000000000400000000000000000000020000000000000000000000000000000200000000000000000000000000000000000000000000000000200800000000000000000000000000000000000000000000000000000000",
      "type": "0x2",
      "transactionHash": "0xcf521eb9018fd8ac3515b7b12f9ad37dca07c5918bf57eba7c49ac470f90dd7d",
      "transactionIndex": "0x0",
      "blockHash": "0xfb8462b3cb5a23d0c917803fe7eb2f97c3f72ebced584b34fb8f93c4fbc46b74",
      "blockNumber": "0x17b8309",
      "gasUsed": "0xb63b",
      "effectiveGasPrice": "0x1ba81c",
      "blobGasPrice": "0x1",
      "from": "0x4b75aec40561c03e03d4d1c421df194a3031a134",
      "to": "0xa5f104f8f78d5ba9aec4a383c0927337fd4e997b",
      "contractAddress": null
    },
    {
      "status": "0x1",
      "cumulativeGasUsed": "0xb63b",
      "logs": [
        {
          "address": "0xa5f104f8f78d5ba9aec4a383c0927337fd4e997b",
          "topics": [
            "0x17307eab39ab6107e8899845ad3d59bd9653f200f220920489ca2b5937696c31",
            "0x000000000000000000000000e233420d38d286c2f2cf8dee6564f132fbdb09db",
            "0x0000000000000000000000008fa71914948544c60e3379064567dcf0e6564d27"
          ],
          "data": "0x0000000000000000000000000000000000000000000000000000000000000001",
          "blockHash": "0x7b1c993bee564413c924d36572a3d27dc771e33541a84f545dc6c1ebfec4d165",
          "blockNumber": "0x17b830a",
          "blockTimestamp": "0x69dcf083",
          "transactionHash": "0x05d2528222c21a855e8318b35d4a599ee515c5edeb445f189aca89ae47392b89",
          "transactionIndex": "0x0",
          "logIndex": "0x0",
          "removed": false
        }
      ],
      "logsBloom": "0x00000000000000000000000000000000000000000000000000000000000000000000000000000000000000000000000000000000000000000000000000000000000000000000000080000000000000000000000200000000080000000000000002000001000000000000000000000000000000000000000000000000000000000000000000000000000000000000000000000000000000000000000000000000000000200000000400000000000000000000000000000000000000000000000000000010000000000200000000000000000000000002000000000000000000000000200800000000000000000000000000000000000000000000000000000000",
      "type": "0x2",
      "transactionHash": "0x05d2528222c21a855e8318b35d4a599ee515c5edeb445f189aca89ae47392b89",
      "transactionIndex": "0x0",
      "blockHash": "0x7b1c993bee564413c924d36572a3d27dc771e33541a84f545dc6c1ebfec4d165",
      "blockNumber": "0x17b830a",
      "gasUsed": "0xb63b",
      "effectiveGasPrice": "0x1ba81c",
      "blobGasPrice": "0x1",
      "from": "0xe233420d38d286c2f2cf8dee6564f132fbdb09db",
      "to": "0xa5f104f8f78d5ba9aec4a383c0927337fd4e997b",
      "contractAddress": null
    },
    {
      "status": "0x1",
      "cumulativeGasUsed": "0xb63b",
      "logs": [
        {
          "address": "0xa5f104f8f78d5ba9aec4a383c0927337fd4e997b",
          "topics": [
            "0x17307eab39ab6107e8899845ad3d59bd9653f200f220920489ca2b5937696c31",
            "0x000000000000000000000000c5adfc119364cfe2297e4414db04834d8702475b",
            "0x0000000000000000000000008fa71914948544c60e3379064567dcf0e6564d27"
          ],
          "data": "0x0000000000000000000000000000000000000000000000000000000000000001",
          "blockHash": "0xc02516d25a27b1f9606349dfb46fda88fbe19ccb44d55b5ec54318617d0d204a",
          "blockNumber": "0x17b830b",
          "blockTimestamp": "0x69dcf083",
          "transactionHash": "0x56deb952e3670a6a70dc0a74487ee338c1224a82ced6b76e755dd64da98aab79",
          "transactionIndex": "0x0",
          "logIndex": "0x0",
          "removed": false
        }
      ],
      "logsBloom": "0x00000000000000000000000000000000000000000000000000000000000000000000000000000000000000000000000000000000000000000000000000000000000000000000000080000000000000000000000200000000080000000000000202000000000000000000000000000000000000000000000000000000000000000000000000000000000000000000000000000000000000000000000000000000000000200000000400000000000020000000000000000000000000000000000000000000000000000200000000000000000000000000000000000000000000000000200800000000000000000000000000000000000000002000000000000000",
      "type": "0x2",
      "transactionHash": "0x56deb952e3670a6a70dc0a74487ee338c1224a82ced6b76e755dd64da98aab79",
      "transactionIndex": "0x0",
      "blockHash": "0xc02516d25a27b1f9606349dfb46fda88fbe19ccb44d55b5ec54318617d0d204a",
      "blockNumber": "0x17b830b",
      "gasUsed": "0xb63b",
      "effectiveGasPrice": "0x1ba81c",
      "blobGasPrice": "0x1",
      "from": "0xc5adfc119364cfe2297e4414db04834d8702475b",
      "to": "0xa5f104f8f78d5ba9aec4a383c0927337fd4e997b",
      "contractAddress": null
    },
    {
      "status": "0x1",
      "cumulativeGasUsed": "0xb63b",
      "logs": [
        {
          "address": "0xa5f104f8f78d5ba9aec4a383c0927337fd4e997b",
          "topics": [
            "0x17307eab39ab6107e8899845ad3d59bd9653f200f220920489ca2b5937696c31",
            "0x00000000000000000000000008312e82df563a1639b81f49bb41247759700e30",
            "0x0000000000000000000000008fa71914948544c60e3379064567dcf0e6564d27"
          ],
          "data": "0x0000000000000000000000000000000000000000000000000000000000000001",
          "blockHash": "0x6e7a02c1369226f0ce2bf5f1e0f95218a3ab3e2224d873598998789fae2ba5f3",
          "blockNumber": "0x17b830c",
          "blockTimestamp": "0x69dcf083",
          "transactionHash": "0x7bdd3a4ee7f107d67c16367d7a3b61c5f0deb1272602658db3f59942abe54ae2",
          "transactionIndex": "0x0",
          "logIndex": "0x0",
          "removed": false
        }
      ],
      "logsBloom": "0x00000000000000000000000001000000000000000000000000000000000000000000000000100000000000000000000000000000000000000000000000000000000000000000000080000000000000000000000200000000080000000000000002000000000000000000000000000000000000000000000000000000000000000000000000000000000000000000000000000000000000000000000000000000000000200000000400000000000000000000000000000000000000000000000000000000000000000200000000000000000000000000000000000000000000000000200800000000000000000000000000000000004000000000000000000000",
      "type": "0x2",
      "transactionHash": "0x7bdd3a4ee7f107d67c16367d7a3b61c5f0deb1272602658db3f59942abe54ae2",
      "transactionIndex": "0x0",
      "blockHash": "0x6e7a02c1369226f0ce2bf5f1e0f95218a3ab3e2224d873598998789fae2ba5f3",
      "blockNumber": "0x17b830c",
      "gasUsed": "0xb63b",
      "effectiveGasPrice": "0x1ba81c",
      "blobGasPrice": "0x1",
      "from": "0x08312e82df563a1639b81f49bb41247759700e30",
      "to": "0xa5f104f8f78d5ba9aec4a383c0927337fd4e997b",
      "contractAddress": null
    },
    {
      "status": "0x1",
      "cumulativeGasUsed": "0xb63b",
      "logs": [
        {
          "address": "0xa5f104f8f78d5ba9aec4a383c0927337fd4e997b",
          "topics": [
            "0x17307eab39ab6107e8899845ad3d59bd9653f200f220920489ca2b5937696c31",
            "0x000000000000000000000000cbe5659df21cbcfabe4da962f7a9081f26b3ed82",
            "0x0000000000000000000000008fa71914948544c60e3379064567dcf0e6564d27"
          ],
          "data": "0x0000000000000000000000000000000000000000000000000000000000000001",
          "blockHash": "0x530036fb9e4938e523c345d59af4431f5f902f909677150dfab9c17d929271fb",
          "blockNumber": "0x17b830d",
          "blockTimestamp": "0x69dcf083",
          "transactionHash": "0x3ef1b8a2836fcb3c790ccd3fe431e72c50c84f51d7a1124d3460d8647be45bdc",
          "transactionIndex": "0x0",
          "logIndex": "0x0",
          "removed": false
        }
      ],
      "logsBloom": "0x00000000000000000000000000000000000000000000000000000000000000000000000000000000000000000000000000000000000000000000000000000000000000000000000080000000000000000000000200000000080000000000000002000000000000000000000000000000000000000000000000000000000000000000000000000000000000000000000000000000000000000000000000000000000000200000000400000000000000000000000000000000000000000000000000000000000000000600000000000000000000000000020000000000000000000000200800000000000000000000000000000000004000000000000000000000",
      "type": "0x2",
      "transactionHash": "0x3ef1b8a2836fcb3c790ccd3fe431e72c50c84f51d7a1124d3460d8647be45bdc",
      "transactionIndex": "0x0",
      "blockHash": "0x530036fb9e4938e523c345d59af4431f5f902f909677150dfab9c17d929271fb",
      "blockNumber": "0x17b830d",
      "gasUsed": "0xb63b",
      "effectiveGasPrice": "0x1ba81c",
      "blobGasPrice": "0x1",
      "from": "0xcbe5659df21cbcfabe4da962f7a9081f26b3ed82",
      "to": "0xa5f104f8f78d5ba9aec4a383c0927337fd4e997b",
      "contractAddress": null
    },
    {
      "status": "0x1",
      "cumulativeGasUsed": "0xb63b",
      "logs": [
        {
          "address": "0xa5f104f8f78d5ba9aec4a383c0927337fd4e997b",
          "topics": [
            "0x17307eab39ab6107e8899845ad3d59bd9653f200f220920489ca2b5937696c31",
            "0x000000000000000000000000a382b0e75c192d9cdf5c084e58b750cea7761bd0",
            "0x0000000000000000000000008fa71914948544c60e3379064567dcf0e6564d27"
          ],
          "data": "0x0000000000000000000000000000000000000000000000000000000000000001",
          "blockHash": "0x6f9d96b6d5849c7e29222462424830b8721c968722fce7cdb766a214c282b84f",
          "blockNumber": "0x17b830e",
          "blockTimestamp": "0x69dcf083",
          "transactionHash": "0x7a5a07ca0d232591d72de79c0a44fedb2e79432f6652994a8d445a822d84ba93",
          "transactionIndex": "0x0",
          "logIndex": "0x0",
          "removed": false
        }
      ],
      "logsBloom": "0x00000000000000000000000000000000000000000000000000000000000000000000000000000000000000000000000000000000000000000000000000000000000000000000000080000000000000000000000200000000080000000000000002000000000000000000000000000000000000000000040000000000000000000000000000000000000000000000000000100000000000000000000000000000000000200000000400000000000000000000000000000000000000000000000000000000000000000200000000000000000000000000000000000000000000000000200800000000000000000000000000000000100000000000000000000000",
      "type": "0x2",
      "transactionHash": "0x7a5a07ca0d232591d72de79c0a44fedb2e79432f6652994a8d445a822d84ba93",
      "transactionIndex": "0x0",
      "blockHash": "0x6f9d96b6d5849c7e29222462424830b8721c968722fce7cdb766a214c282b84f",
      "blockNumber": "0x17b830e",
      "gasUsed": "0xb63b",
      "effectiveGasPrice": "0x1ba81c",
      "blobGasPrice": "0x1",
      "from": "0xa382b0e75c192d9cdf5c084e58b750cea7761bd0",
      "to": "0xa5f104f8f78d5ba9aec4a383c0927337fd4e997b",
      "contractAddress": null
    },
    {
      "status": "0x1",
      "cumulativeGasUsed": "0xb51c",
      "logs": [
        {
          "address": "0xc02aaa39b223fe8d0a0e5c4f27ead9083c756cc2",
          "topics": [
            "0x8c5be1e5ebec7d5bd14f71427d1e84f3dd0314c0f7b2291e5b200ac8c7c3b925",
            "0x000000000000000000000000646dc5fc4009c4c84a424b6ae0f494b374bae1ce",
            "0x0000000000000000000000008fa71914948544c60e3379064567dcf0e6564d27"
          ],
          "data": "0xffffffffffffffffffffffffffffffffffffffffffffffffffffffffffffffff",
          "blockHash": "0x1860edd1588daef0ba2f49b784f1603de67e9d15de5579beb388fe18f1a1233a",
          "blockNumber": "0x17b830f",
          "blockTimestamp": "0x69dcf083",
          "transactionHash": "0x6297d415acf1a0dc1d8976722ce998612c4ea644025242278f12fcc4d32f2edd",
          "transactionIndex": "0x0",
          "logIndex": "0x0",
          "removed": false
        }
      ],
      "logsBloom": "0x00000000000000000000000000000000000000000002000000000000000000000000000000000000000000000000000002000000090000000000000000200000000000000000000080000000000000000000000200000000000000000000000000000000000000000004000000000000000000000000000000000000000000000000000000000000000000000000000000000000000000000000000000000000020000000000000000000000000000000000000000000000000000000000000000000000000000000200000000000000000000000000000000000000000000000010200000000000000000000000000000000000000000000000000000000000",
      "type": "0x2",
      "transactionHash": "0x6297d415acf1a0dc1d8976722ce998612c4ea644025242278f12fcc4d32f2edd",
      "transactionIndex": "0x0",
      "blockHash": "0x1860edd1588daef0ba2f49b784f1603de67e9d15de5579beb388fe18f1a1233a",
      "blockNumber": "0x17b830f",
      "gasUsed": "0xb51c",
      "effectiveGasPrice": "0x1ba81c",
      "blobGasPrice": "0x1",
      "from": "0x646dc5fc4009c4c84a424b6ae0f494b374bae1ce",
      "to": "0xc02aaa39b223fe8d0a0e5c4f27ead9083c756cc2",
      "contractAddress": null
    },
    {
      "status": "0x1",
      "cumulativeGasUsed": "0xb51c",
      "logs": [
        {
          "address": "0xc02aaa39b223fe8d0a0e5c4f27ead9083c756cc2",
          "topics": [
            "0x8c5be1e5ebec7d5bd14f71427d1e84f3dd0314c0f7b2291e5b200ac8c7c3b925",
            "0x0000000000000000000000001302f142fc55b165647d3bd5dec227f569a2a907",
            "0x0000000000000000000000008fa71914948544c60e3379064567dcf0e6564d27"
          ],
          "data": "0xffffffffffffffffffffffffffffffffffffffffffffffffffffffffffffffff",
          "blockHash": "0xd48eb0e72385d71f594696fb2afee9ad6ae6dff023be447858acd8b5a58a1376",
          "blockNumber": "0x17b8310",
          "blockTimestamp": "0x69dcf083",
          "transactionHash": "0x48beb6e573edd7714706183a29c24ba5537774ecc56e38d37492d02f85450e43",
          "transactionIndex": "0x0",
          "logIndex": "0x0",
          "removed": false
        }
      ],
      "logsBloom": "0x00000000000000000000000000000000000000000000000000000000000000000000000000000000000000000000000002000000080000000000000000200000000000000000000080000000000000000000000200000000000000000000000000000000000000000000000000000000000000000000000000000000000000000000000000000000000000000000000000000000000000000000000000000000020000000000000000000000000100000000000000000000000000000000000000000000000000000200000200000000000000000000000000000000000000000010200000000000000040000000000000000000000000000000000000000000",
      "type": "0x2",
      "transactionHash": "0x48beb6e573edd7714706183a29c24ba5537774ecc56e38d37492d02f85450e43",
      "transactionIndex": "0x0",
      "blockHash": "0xd48eb0e72385d71f594696fb2afee9ad6ae6dff023be447858acd8b5a58a1376",
      "blockNumber": "0x17b8310",
      "gasUsed": "0xb51c",
      "effectiveGasPrice": "0x1ba81c",
      "blobGasPrice": "0x1",
      "from": "0x1302f142fc55b165647d3bd5dec227f569a2a907",
      "to": "0xc02aaa39b223fe8d0a0e5c4f27ead9083c756cc2",
      "contractAddress": null
    },
    {
      "status": "0x1",
      "cumulativeGasUsed": "0xb51c",
      "logs": [
        {
          "address": "0xc02aaa39b223fe8d0a0e5c4f27ead9083c756cc2",
          "topics": [
            "0x8c5be1e5ebec7d5bd14f71427d1e84f3dd0314c0f7b2291e5b200ac8c7c3b925",
            "0x000000000000000000000000e3745c151fab59b0740f4312b2b027f07d096639",
            "0x0000000000000000000000008fa71914948544c60e3379064567dcf0e6564d27"
          ],
          "data": "0xffffffffffffffffffffffffffffffffffffffffffffffffffffffffffffffff",
          "blockHash": "0x21d9bfa04e3f0c8d69a8db64bf760c47d7df19fb79b060a4c1f9a64dd82bb240",
          "blockNumber": "0x17b8311",
          "blockTimestamp": "0x69dcf083",
          "transactionHash": "0xddc006c38403988e5cd5be48365ac1f4d779c8a075153177a4e78bbaa0c106a1",
          "transactionIndex": "0x0",
          "logIndex": "0x0",
          "removed": false
        }
      ],
      "logsBloom": "0x00000000000000000000000000000000000000000100000000000000000000000000000000000000000000000000000042000000080000000000000000200000000000000000000080000000000000000000000200000000000000000000000000000000000000000000000000000000000000000000000000000000000000000000000000000000000000000000000000000000000000000000000000000000020000000000000000000000000000000000000000000000000000000000000000000000000000000200000000000000000000000000000000000040000000000010200000000000000000000000000000000000000000000000000000000000",
      "type": "0x2",
      "transactionHash": "0xddc006c38403988e5cd5be48365ac1f4d779c8a075153177a4e78bbaa0c106a1",
      "transactionIndex": "0x0",
      "blockHash": "0x21d9bfa04e3f0c8d69a8db64bf760c47d7df19fb79b060a4c1f9a64dd82bb240",
      "blockNumber": "0x17b8311",
      "gasUsed": "0xb51c",
      "effectiveGasPrice": "0x1ba81c",
      "blobGasPrice": "0x1",
      "from": "0xe3745c151fab59b0740f4312b2b027f07d096639",
      "to": "0xc02aaa39b223fe8d0a0e5c4f27ead9083c756cc2",
      "contractAddress": null
    },
    {
      "status": "0x1",
      "cumulativeGasUsed": "0xb51c",
      "logs": [
        {
          "address": "0xc02aaa39b223fe8d0a0e5c4f27ead9083c756cc2",
          "topics": [
            "0x8c5be1e5ebec7d5bd14f71427d1e84f3dd0314c0f7b2291e5b200ac8c7c3b925",
            "0x0000000000000000000000002c2dba75492e0c4a1d10b41303167aec59586c9c",
            "0x0000000000000000000000008fa71914948544c60e3379064567dcf0e6564d27"
          ],
          "data": "0xffffffffffffffffffffffffffffffffffffffffffffffffffffffffffffffff",
          "blockHash": "0x88711a827487655d93b86839b589f7f0b9f7261f8b0a68d4366b9218a7d5a53d",
          "blockNumber": "0x17b8312",
          "blockTimestamp": "0x69dcf083",
          "transactionHash": "0x7fd89ffae1bd9ca94e1f8be0def526cb1f9dc15b83aed5ead21fa88571600454",
          "transactionIndex": "0x0",
          "logIndex": "0x0",
          "removed": false
        }
      ],
      "logsBloom": "0x00000000000000000000000000000000000000000000000000000000000000000000000000000000000000000000000002000000080000000000000800200000000200000000000080000000000000000000000200000000000000000000000000000000000004000000000000000000000000000000000000000000000000000000000000000000000000000000000000000000000000000000000000000000020000000000000000000000000000000000000000000000000000000000000000000000000000000200000000000000000000000000000000000000000000000010200000000000000000000000000000000000000000000000000000000000",
      "type": "0x2",
      "transactionHash": "0x7fd89ffae1bd9ca94e1f8be0def526cb1f9dc15b83aed5ead21fa88571600454",
      "transactionIndex": "0x0",
      "blockHash": "0x88711a827487655d93b86839b589f7f0b9f7261f8b0a68d4366b9218a7d5a53d",
      "blockNumber": "0x17b8312",
      "gasUsed": "0xb51c",
      "effectiveGasPrice": "0x1ba81c",
      "blobGasPrice": "0x1",
      "from": "0x2c2dba75492e0c4a1d10b41303167aec59586c9c",
      "to": "0xc02aaa39b223fe8d0a0e5c4f27ead9083c756cc2",
      "contractAddress": null
    },
    {
      "status": "0x1",
      "cumulativeGasUsed": "0xb51c",
      "logs": [
        {
          "address": "0xc02aaa39b223fe8d0a0e5c4f27ead9083c756cc2",
          "topics": [
            "0x8c5be1e5ebec7d5bd14f71427d1e84f3dd0314c0f7b2291e5b200ac8c7c3b925",
            "0x0000000000000000000000004b75aec40561c03e03d4d1c421df194a3031a134",
            "0x0000000000000000000000008fa71914948544c60e3379064567dcf0e6564d27"
          ],
          "data": "0xffffffffffffffffffffffffffffffffffffffffffffffffffffffffffffffff",
          "blockHash": "0x25d32922bb819f9ab670476b6478021dcdb9939f8a3528e92ef392d798524432",
          "blockNumber": "0x17b8313",
          "blockTimestamp": "0x69dcf083",
          "transactionHash": "0x34c68f69d93837d02121832d7d23c197879146f41d454672219d538cead7b5dc",
          "transactionIndex": "0x0",
          "logIndex": "0x0",
          "removed": false
        }
      ],
      "logsBloom": "0x00000000000000000000000000000000000000000000000000000000000000000000000000000000000000000000000002000000080000000000000000200000000000000000000080000000000000000000000200000000000000000000000000000000000000000000000000000000000000000000000000000000000000000000000000000000000000000000000000000000000000000000000000002000020000000000000000000000000400000000000000000000020000000000000000000000000000000200000000000000000000000000000000000000000000000010200000000000000000000000000000000000000000000000000000000000",
      "type": "0x2",
      "transactionHash": "0x34c68f69d93837d02121832d7d23c197879146f41d454672219d538cead7b5dc",
      "transactionIndex": "0x0",
      "blockHash": "0x25d32922bb819f9ab670476b6478021dcdb9939f8a3528e92ef392d798524432",
      "blockNumber": "0x17b8313",
      "gasUsed": "0xb51c",
      "effectiveGasPrice": "0x1ba81c",
      "blobGasPrice": "0x1",
      "from": "0x4b75aec40561c03e03d4d1c421df194a3031a134",
      "to": "0xc02aaa39b223fe8d0a0e5c4f27ead9083c756cc2",
      "contractAddress": null
    },
    {
      "status": "0x1",
      "cumulativeGasUsed": "0xb51c",
      "logs": [
        {
          "address": "0xc02aaa39b223fe8d0a0e5c4f27ead9083c756cc2",
          "topics": [
            "0x8c5be1e5ebec7d5bd14f71427d1e84f3dd0314c0f7b2291e5b200ac8c7c3b925",
            "0x000000000000000000000000e233420d38d286c2f2cf8dee6564f132fbdb09db",
            "0x0000000000000000000000008fa71914948544c60e3379064567dcf0e6564d27"
          ],
          "data": "0xffffffffffffffffffffffffffffffffffffffffffffffffffffffffffffffff",
          "blockHash": "0x5f4edaf958d74fbadff621f2893ead308ad9562cc0beed9a63e12f255541a353",
          "blockNumber": "0x17b8314",
          "blockTimestamp": "0x69dcf083",
          "transactionHash": "0x73d7a164e53a9acc8fbcd7e432b48070bce181cd4fc7af37af64cd0a3c0eebf2",
          "transactionIndex": "0x0",
          "logIndex": "0x0",
          "removed": false
        }
      ],
      "logsBloom": "0x00000000000000000000000000000000000000000000000000000000000000000000000000000000000000000000000002000000080000000000000000200000000000000000000080000000000000000000000200000000000000000000000000000001000000000000000000000000000000000000000000000000000000000000000000000000000000000000000000000000000000000000000000000000020000000000000000000000000000000000000000000000000000000000000000000010000000000200000000000000000000000002000000000000000000000010200000000000000000000000000000000000000000000000000000000000",
      "type": "0x2",
      "transactionHash": "0x73d7a164e53a9acc8fbcd7e432b48070bce181cd4fc7af37af64cd0a3c0eebf2",
      "transactionIndex": "0x0",
      "blockHash": "0x5f4edaf958d74fbadff621f2893ead308ad9562cc0beed9a63e12f255541a353",
      "blockNumber": "0x17b8314",
      "gasUsed": "0xb51c",
      "effectiveGasPrice": "0x1ba81c",
      "blobGasPrice": "0x1",
      "from": "0xe233420d38d286c2f2cf8dee6564f132fbdb09db",
      "to": "0xc02aaa39b223fe8d0a0e5c4f27ead9083c756cc2",
      "contractAddress": null
    },
    {
      "status": "0x1",
      "cumulativeGasUsed": "0xb51c",
      "logs": [
        {
          "address": "0xc02aaa39b223fe8d0a0e5c4f27ead9083c756cc2",
          "topics": [
            "0x8c5be1e5ebec7d5bd14f71427d1e84f3dd0314c0f7b2291e5b200ac8c7c3b925",
            "0x000000000000000000000000c5adfc119364cfe2297e4414db04834d8702475b",
            "0x0000000000000000000000008fa71914948544c60e3379064567dcf0e6564d27"
          ],
          "data": "0xffffffffffffffffffffffffffffffffffffffffffffffffffffffffffffffff",
          "blockHash": "0x1f191f980c78f226ece33876ce57eeba026f0ff102c6bfb9ef44a2b4ba046c73",
          "blockNumber": "0x17b8315",
          "blockTimestamp": "0x69dcf083",
          "transactionHash": "0xcd516ef06cd85bec466f49c59d12fbda47c3431d7f0a55bf44d1081f9c712397",
          "transactionIndex": "0x0",
          "logIndex": "0x0",
          "removed": false
        }
      ],
      "logsBloom": "0x00000000000000000000000000000000000000000000000000000000000000000000000000000000000000000000000002000000080000000000000000200000000000000000000080000000000000000000000200000000000000000000000200000000000000000000000000000000000000000000000000000000000000000000000000000000000000000000000000000000000000000000000000000000020000000000000000000000000020000000000000000000000000000000000000000000000000000200000000000000000000000000000000000000000000000010200000000000000000000000000000000000000000002000000000000000",
      "type": "0x2",
      "transactionHash": "0xcd516ef06cd85bec466f49c59d12fbda47c3431d7f0a55bf44d1081f9c712397",
      "transactionIndex": "0x0",
      "blockHash": "0x1f191f980c78f226ece33876ce57eeba026f0ff102c6bfb9ef44a2b4ba046c73",
      "blockNumber": "0x17b8315",
      "gasUsed": "0xb51c",
      "effectiveGasPrice": "0x1ba81c",
      "blobGasPrice": "0x1",
      "from": "0xc5adfc119364cfe2297e4414db04834d8702475b",
      "to": "0xc02aaa39b223fe8d0a0e5c4f27ead9083c756cc2",
      "contractAddress": null
    },
    {
      "status": "0x1",
      "cumulativeGasUsed": "0xb51c",
      "logs": [
        {
          "address": "0xc02aaa39b223fe8d0a0e5c4f27ead9083c756cc2",
          "topics": [
            "0x8c5be1e5ebec7d5bd14f71427d1e84f3dd0314c0f7b2291e5b200ac8c7c3b925",
            "0x00000000000000000000000008312e82df563a1639b81f49bb41247759700e30",
            "0x0000000000000000000000008fa71914948544c60e3379064567dcf0e6564d27"
          ],
          "data": "0xffffffffffffffffffffffffffffffffffffffffffffffffffffffffffffffff",
          "blockHash": "0xa80f19c37f2bbaab5d9aa9e3063d5f082e36192394ed9d6107bd62a63787f385",
          "blockNumber": "0x17b8316",
          "blockTimestamp": "0x69dcf083",
          "transactionHash": "0x446f5c0e1148f84718941d4d007e622cdf188a8cc68d8bf096e9510ba4c34e12",
          "transactionIndex": "0x0",
          "logIndex": "0x0",
          "removed": false
        }
      ],
      "logsBloom": "0x00000000000000000000000001000000000000000000000000000000000000000000000000100000000000000000000002000000080000000000000000200000000000000000000080000000000000000000000200000000000000000000000000000000000000000000000000000000000000000000000000000000000000000000000000000000000000000000000000000000000000000000000000000000020000000000000000000000000000000000000000000000000000000000000000000000000000000200000000000000000000000000000000000000000000000010200000000000000000000000000000000000004000000000000000000000",
      "type": "0x2",
      "transactionHash": "0x446f5c0e1148f84718941d4d007e622cdf188a8cc68d8bf096e9510ba4c34e12",
      "transactionIndex": "0x0",
      "blockHash": "0xa80f19c37f2bbaab5d9aa9e3063d5f082e36192394ed9d6107bd62a63787f385",
      "blockNumber": "0x17b8316",
      "gasUsed": "0xb51c",
      "effectiveGasPrice": "0x1ba81c",
      "blobGasPrice": "0x1",
      "from": "0x08312e82df563a1639b81f49bb41247759700e30",
      "to": "0xc02aaa39b223fe8d0a0e5c4f27ead9083c756cc2",
      "contractAddress": null
    },
    {
      "status": "0x1",
      "cumulativeGasUsed": "0xb51c",
      "logs": [
        {
          "address": "0xc02aaa39b223fe8d0a0e5c4f27ead9083c756cc2",
          "topics": [
            "0x8c5be1e5ebec7d5bd14f71427d1e84f3dd0314c0f7b2291e5b200ac8c7c3b925",
            "0x000000000000000000000000cbe5659df21cbcfabe4da962f7a9081f26b3ed82",
            "0x0000000000000000000000008fa71914948544c60e3379064567dcf0e6564d27"
          ],
          "data": "0xffffffffffffffffffffffffffffffffffffffffffffffffffffffffffffffff",
          "blockHash": "0xf3f8c9d4f2314c3b529e4650ead0a546d78b07ae28b5e6c6dc9d07e8fd53a8c9",
          "blockNumber": "0x17b8317",
          "blockTimestamp": "0x69dcf083",
          "transactionHash": "0x1ffc29862082e977e9b6ae0ff123105d0a4a12dfadc363026cdde3ca51d71fa2",
          "transactionIndex": "0x0",
          "logIndex": "0x0",
          "removed": false
        }
      ],
      "logsBloom": "0x00000000000000000000000000000000000000000000000000000000000000000000000000000000000000000000000002000000080000000000000000200000000000000000000080000000000000000000000200000000000000000000000000000000000000000000000000000000000000000000000000000000000000000000000000000000000000000000000000000000000000000000000000000000020000000000000000000000000000000000000000000000000000000000000000000000000000000600000000000000000000000000020000000000000000000010200000000000000000000000000000000000004000000000000000000000",
      "type": "0x2",
      "transactionHash": "0x1ffc29862082e977e9b6ae0ff123105d0a4a12dfadc363026cdde3ca51d71fa2",
      "transactionIndex": "0x0",
      "blockHash": "0xf3f8c9d4f2314c3b529e4650ead0a546d78b07ae28b5e6c6dc9d07e8fd53a8c9",
      "blockNumber": "0x17b8317",
      "gasUsed": "0xb51c",
      "effectiveGasPrice": "0x1ba81c",
      "blobGasPrice": "0x1",
      "from": "0xcbe5659df21cbcfabe4da962f7a9081f26b3ed82",
      "to": "0xc02aaa39b223fe8d0a0e5c4f27ead9083c756cc2",
      "contractAddress": null
    },
    {
      "status": "0x1",
      "cumulativeGasUsed": "0xb51c",
      "logs": [
        {
          "address": "0xc02aaa39b223fe8d0a0e5c4f27ead9083c756cc2",
          "topics": [
            "0x8c5be1e5ebec7d5bd14f71427d1e84f3dd0314c0f7b2291e5b200ac8c7c3b925",
            "0x000000000000000000000000a382b0e75c192d9cdf5c084e58b750cea7761bd0",
            "0x0000000000000000000000008fa71914948544c60e3379064567dcf0e6564d27"
          ],
          "data": "0xffffffffffffffffffffffffffffffffffffffffffffffffffffffffffffffff",
          "blockHash": "0x88ddce0126210338c219fcb9ae4f0dcaa9ed95bbd701d866daf49a40b3abc9c7",
          "blockNumber": "0x17b8318",
          "blockTimestamp": "0x69dcf083",
          "transactionHash": "0xf4df3226d0c6bbd8b80dc6f18d0f9625a991880f46c4fd794736456c89c121cb",
          "transactionIndex": "0x0",
          "logIndex": "0x0",
          "removed": false
        }
      ],
      "logsBloom": "0x00000000000000000000000000000000000000000000000000000000000000000000000000000000000000000000000002000000080000000000000000200000000000000000000080000000000000000000000200000000000000000000000000000000000000000000000000000000000000000000040000000000000000000000000000000000000000000000000000100000000000000000000000000000020000000000000000000000000000000000000000000000000000000000000000000000000000000200000000000000000000000000000000000000000000000010200000000000000000000000000000000000100000000000000000000000",
      "type": "0x2",
      "transactionHash": "0xf4df3226d0c6bbd8b80dc6f18d0f9625a991880f46c4fd794736456c89c121cb",
      "transactionIndex": "0x0",
      "blockHash": "0x88ddce0126210338c219fcb9ae4f0dcaa9ed95bbd701d866daf49a40b3abc9c7",
      "blockNumber": "0x17b8318",
      "gasUsed": "0xb51c",
      "effectiveGasPrice": "0x1ba81c",
      "blobGasPrice": "0x1",
      "from": "0xa382b0e75c192d9cdf5c084e58b750cea7761bd0",
      "to": "0xc02aaa39b223fe8d0a0e5c4f27ead9083c756cc2",
      "contractAddress": null
    }
  ],
  "libraries": [],
  "pending": [],
  "returns": {},
  "timestamp": 1778506377611,
  "chain": 31337,
  "commit": "59e30a9"
}