{
  "transactions": [
    {
      "hash": "0x147e2fb38ca79d1987121ce6cc2fdf34da454226172c77ff563eeb4e0d577311",
      "transactionType": "CALL",
      "contractName": null,
      "contractAddress": "0xa5f104f8f78d5ba9aec4a383c0927337fd4e997b",
      "function": "setApprovalForAll(address,bool)",
      "arguments": [
        "0x8fA71914948544c60E3379064567DcF0E6564d27",
        "true"
      ],
      "transaction": {
        "from": "0x646dc5fc4009c4c84a424b6ae0f494b374bae1ce",
        "to": "0xa5f104f8f78d5ba9aec4a383c0927337fd4e997b",
        "gas": "0x10a82",
        "value": "0x0",
        "input": "0xa22cb4650000000000000000000000008fa71914948544c60e3379064567dcf0e6564d270000000000000000000000000000000000000000000000000000000000000001",
        "nonce": "0x3c",
        "chainId": "0x7a69"
      },
      "additionalContracts": [],
      "isFixedGasLimit": false
    },
    {
      "hash": "0xa51240d4059d0998283d4ee228b3e3046f5f546d9d30c96c9c53c34f1e159b38",
      "transactionType": "CALL",
      "contractName": null,
      "contractAddress": "0xa5f104f8f78d5ba9aec4a383c0927337fd4e997b",
      "function": "setApprovalForAll(address,bool)",
      "arguments": [
        "0x8fA71914948544c60E3379064567DcF0E6564d27",
        "true"
      ],
      "transaction": {
        "from": "0x1302f142fc55b165647d3bd5dec227f569a2a907",
        "to": "0xa5f104f8f78d5ba9aec4a383c0927337fd4e997b",
        "gas": "0x10a82",
        "value": "0x0",
        "input": "0xa22cb4650000000000000000000000008fa71914948544c60e3379064567dcf0e6564d270000000000000000000000000000000000000000000000000000000000000001",
        "nonce": "0x31",
        "chainId": "0x7a69"
      },
      "additionalContracts": [],
      "isFixedGasLimit": false
    },
    {
      "hash": "0x3edd1ff81775ad5ecc6a293ccc1a119a8d7867014bfe6c0f821962ae75f66f0f",
      "transactionType": "CALL",
      "contractName": null,
      "contractAddress": "0xa5f104f8f78d5ba9aec4a383c0927337fd4e997b",
      "function": "setApprovalForAll(address,bool)",
      "arguments": [
        "0x8fA71914948544c60E3379064567DcF0E6564d27",
        "true"
      ],
      "transaction": {
        "from": "0xe3745c151fab59b0740f4312b2b027f07d096639",
        "to": "0xa5f104f8f78d5ba9aec4a383c0927337fd4e997b",
        "gas": "0x10a82",
        "value": "0x0",
        "input": "0xa22cb4650000000000000000000000008fa71914948544c60e3379064567dcf0e6564d270000000000000000000000000000000000000000000000000000000000000001",
        "nonce": "0x44",
        "chainId": "0x7a69"
      },
      "additionalContracts": [],
      "isFixedGasLimit": false
    },
    {
      "hash": "0xac41c84c1be5ee8916c5cda2f4688cabecf0be36938710296b84788557195b0a",
      "transactionType": "CALL",
      "contractName": null,
      "contractAddress": "0xa5f104f8f78d5ba9aec4a383c0927337fd4e997b",
      "function": "setApprovalForAll(address,bool)",
      "arguments": [
        "0x8fA71914948544c60E3379064567DcF0E6564d27",
        "true"
      ],
      "transaction": {
        "from": "0x2c2dba75492e0c4a1d10b41303167aec59586c9c",
        "to": "0xa5f104f8f78d5ba9aec4a383c0927337fd4e997b",
        "gas": "0x10a82",
        "value": "0x0",
        "input": "0xa22cb4650000000000000000000000008fa71914948544c60e3379064567dcf0e6564d270000000000000000000000000000000000000000000000000000000000000001",
        "nonce": "0x2d",
        "chainId": "0x7a69"
      },
      "additionalContracts": [],
      "isFixedGasLimit": false
    },
    {
      "hash": "0x6699ab6500e64eb7de145a237b8845f2c372273868ff7cff8a16777e24c4d542",
      "transactionType": "CALL",
      "contractName": null,
      "contractAddress": "0xa5f104f8f78d5ba9aec4a383c0927337fd4e997b",
      "function": "setApprovalForAll(address,bool)",
      "arguments": [
        "0x8fA71914948544c60E3379064567DcF0E6564d27",
        "true"
      ],
      "transaction": {
        "from": "0x4b75aec40561c03e03d4d1c421df194a3031a134",
        "to": "0xa5f104f8f78d5ba9aec4a383c0927337fd4e997b",
        "gas": "0x10a82",
        "value": "0x0",
        "input": "0xa22cb4650000000000000000000000008fa71914948544c60e3379064567dcf0e6564d270000000000000000000000000000000000000000000000000000000000000001",
        "nonce": "0x25",
        "chainId": "0x7a69"
      },
      "additionalContracts": [],
      "isFixedGasLimit": false
    },
    {
      "hash": "0x60c5ad9af9a6c4eaba09967ffd9368da27a25f11ba673e31525e136fecf3c179",
      "transactionType": "CALL",
      "contractName": null,
      "contractAddress": "0xa5f104f8f78d5ba9aec4a383c0927337fd4e997b",
      "function": "setApprovalForAll(address,bool)",
      "arguments": [
        "0x8fA71914948544c60E3379064567DcF0E6564d27",
        "true"
      ],
      "transaction": {
        "from": "0xe233420d38d286c2f2cf8dee6564f132fbdb09db",
        "to": "0xa5f104f8f78d5ba9aec4a383c0927337fd4e997b",
        "gas": "0x10a82",
        "value": "0x0",
        "input": "0xa22cb4650000000000000000000000008fa71914948544c60e3379064567dcf0e6564d270000000000000000000000000000000000000000000000000000000000000001",
        "nonce": "0x33",
        "chainId": "0x7a69"
      },
      "additionalContracts": [],
      "isFixedGasLimit": false
    },
    {
      "hash": "0xebdcfa3f5ebe433c60906ed2de87e72b78500cbc7e7973755a06666efcb35d9d",
      "transactionType": "CALL",
      "contractName": null,
      "contractAddress": "0xa5f104f8f78d5ba9aec4a383c0927337fd4e997b",
      "function": "setApprovalForAll(address,bool)",
      "arguments": [
        "0x8fA71914948544c60E3379064567DcF0E6564d27",
        "true"
      ],
      "transaction": {
        "from": "0xc5adfc119364cfe2297e4414db04834d8702475b",
        "to": "0xa5f104f8f78d5ba9aec4a383c0927337fd4e997b",
        "gas": "0x10a82",
        "value": "0x0",
        "input": "0xa22cb4650000000000000000000000008fa71914948544c60e3379064567dcf0e6564d270000000000000000000000000000000000000000000000000000000000000001",
        "nonce": "0x32",
        "chainId": "0x7a69"
      },
      "additionalContracts": [],
      "isFixedGasLimit": false
    },
    {
      "hash": "0x7eb6a5235390c16aded8dee0a0da317e87fbbf70da7a83ee6404ca91739553a1",
      "transactionType": "CALL",
      "contractName": null,
      "contractAddress": "0xa5f104f8f78d5ba9aec4a383c0927337fd4e997b",
      "function": "setApprovalForAll(address,bool)",
      "arguments": [
        "0x8fA71914948544c60E3379064567DcF0E6564d27",
        "true"
      ],
      "transaction": {
        "from": "0x08312e82df563a1639b81f49bb41247759700e30",
        "to": "0xa5f104f8f78d5ba9aec4a383c0927337fd4e997b",
        "gas": "0x10a82",
        "value": "0x0",
        "input": "0xa22cb4650000000000000000000000008fa71914948544c60e3379064567dcf0e6564d270000000000000000000000000000000000000000000000000000000000000001",
        "nonce": "0x38",
        "chainId": "0x7a69"
      },
      "additionalContracts": [],
      "isFixedGasLimit": false
    },
    {
      "hash": "0x39146c00d690028f1b578f0248af66062a1ab147ee57770fe25f1c733b34200a",
      "transactionType": "CALL",
      "contractName": null,
      "contractAddress": "0xa5f104f8f78d5ba9aec4a383c0927337fd4e997b",
      "function": "setApprovalForAll(address,bool)",
      "arguments": [
        "0x8fA71914948544c60E3379064567DcF0E6564d27",
        "true"
      ],
      "transaction": {
        "from": "0xcbe5659df21cbcfabe4da962f7a9081f26b3ed82",
        "to": "0xa5f104f8f78d5ba9aec4a383c0927337fd4e997b",
        "gas": "0x10a82",
        "value": "0x0",
        "input": "0xa22cb4650000000000000000000000008fa71914948544c60e3379064567dcf0e6564d270000000000000000000000000000000000000000000000000000000000000001",
        "nonce": "0x3b",
        "chainId": "0x7a69"
      },
      "additionalContracts": [],
      "isFixedGasLimit": false
    },
    {
      "hash": "0x7c3b11061fca9cedd85326c294d9d8afd5117285aef9de91db0505584fe779a6",
      "transactionType": "CALL",
      "contractName": null,
      "contractAddress": "0xa5f104f8f78d5ba9aec4a383c0927337fd4e997b",
      "function": "setApprovalForAll(address,bool)",
      "arguments": [
        "0x8fA71914948544c60E3379064567DcF0E6564d27",
        "true"
      ],
      "transaction": {
        "from": "0xa382b0e75c192d9cdf5c084e58b750cea7761bd0",
        "to": "0xa5f104f8f78d5ba9aec4a383c0927337fd4e997b",
        "gas": "0x10a82",
        "value": "0x0",
        "input": "0xa22cb4650000000000000000000000008fa71914948544c60e3379064567dcf0e6564d270000000000000000000000000000000000000000000000000000000000000001",
        "nonce": "0x25",
        "chainId": "0x7a69"
      },
      "additionalContracts": [],
      "isFixedGasLimit": false
    },
    {
      "hash": "0xc35f6414ad07f467356cb70a0dd8a6ef28ef9b2035c2d202358bb69999c51495",
      "transactionType": "CALL",
      "contractName": null,
      "contractAddress": "0xc02aaa39b223fe8d0a0e5c4f27ead9083c756cc2",
      "function": "approve(address,uint256)",
      "arguments": [
        "0x8fA71914948544c60E3379064567DcF0E6564d27",
        "115792089237316195423570985008687907853269984665640564039457584007913129639935"
      ],
      "transaction": {
        "from": "0x646dc5fc4009c4c84a424b6ae0f494b374bae1ce",
        "to": "0xc02aaa39b223fe8d0a0e5c4f27ead9083c756cc2",
        "gas": "0xfa27",
        "value": "0x0",
        "input": "0x095ea7b30000000000000000000000008fa71914948544c60e3379064567dcf0e6564d27ffffffffffffffffffffffffffffffffffffffffffffffffffffffffffffffff",
        "nonce": "0x3d",
        "chainId": "0x7a69"
      },
      "additionalContracts": [],
      "isFixedGasLimit": false
    },
    {
      "hash": "0x6df5a95bbcd7a4ee834a40fb4eebc2cda299fb0aadaa2fe640b75765db9cc513",
      "transactionType": "CALL",
      "contractName": null,
      "contractAddress": "0xc02aaa39b223fe8d0a0e5c4f27ead9083c756cc2",
      "function": "approve(address,uint256)",
      "arguments": [
        "0x8fA71914948544c60E3379064567DcF0E6564d27",
        "115792089237316195423570985008687907853269984665640564039457584007913129639935"
      ],
      "transaction": {
        "from": "0x1302f142fc55b165647d3bd5dec227f569a2a907",
        "to": "0xc02aaa39b223fe8d0a0e5c4f27ead9083c756cc2",
        "gas": "0xfa27",
        "value": "0x0",
        "input": "0x095ea7b30000000000000000000000008fa71914948544c60e3379064567dcf0e6564d27ffffffffffffffffffffffffffffffffffffffffffffffffffffffffffffffff",
        "nonce": "0x32",
        "chainId": "0x7a69"
      },
      "additionalContracts": [],
      "isFixedGasLimit": false
    },
    {
      "hash": "0x5ec19ef9f4d0563da6e8de6facb27358d83f1df0d012bae438d424f2f21c549c",
      "transactionType": "CALL",
      "contractName": null,
      "contractAddress": "0xc02aaa39b223fe8d0a0e5c4f27ead9083c756cc2",
      "function": "approve(address,uint256)",
      "arguments": [
        "0x8fA71914948544c60E3379064567DcF0E6564d27",
        "115792089237316195423570985008687907853269984665640564039457584007913129639935"
      ],
      "transaction": {
        "from": "0xe3745c151fab59b0740f4312b2b027f07d096639",
        "to": "0xc02aaa39b223fe8d0a0e5c4f27ead9083c756cc2",
        "gas": "0xfa27",
        "value": "0x0",
        "input": "0x095ea7b30000000000000000000000008fa71914948544c60e3379064567dcf0e6564d27ffffffffffffffffffffffffffffffffffffffffffffffffffffffffffffffff",
        "nonce": "0x45",
        "chainId": "0x7a69"
      },
      "additionalContracts": [],
      "isFixedGasLimit": false
    },
    {
      "hash": "0x11aa1435c648aaba02ce46b8c46b4986a2725c685934b775618292edf762eb49",
      "transactionType": "CALL",
      "contractName": null,
      "contractAddress": "0xc02aaa39b223fe8d0a0e5c4f27ead9083c756cc2",
      "function": "approve(address,uint256)",
      "arguments": [
        "0x8fA71914948544c60E3379064567DcF0E6564d27",
        "115792089237316195423570985008687907853269984665640564039457584007913129639935"
      ],
      "transaction": {
        "from": "0x2c2dba75492e0c4a1d10b41303167aec59586c9c",
        "to": "0xc02aaa39b223fe8d0a0e5c4f27ead9083c756cc2",
        "gas": "0xfa27",
        "value": "0x0",
        "input": "0x095ea7b30000000000000000000000008fa71914948544c60e3379064567dcf0e6564d27ffffffffffffffffffffffffffffffffffffffffffffffffffffffffffffffff",
        "nonce": "0x2e",
        "chainId": "0x7a69"
      },
      "additionalContracts": [],
      "isFixedGasLimit": false
    },
    {
      "hash": "0xc52ed6ff34032820937b4d8c9cdc80034882bc37365e2d75b74b7ad6730a3014",
      "transactionType": "CALL",
      "contractName": null,
      "contractAddress": "0xc02aaa39b223fe8d0a0e5c4f27ead9083c756cc2",
      "function": "approve(address,uint256)",
      "arguments": [
        "0x8fA71914948544c60E3379064567DcF0E6564d27",
        "115792089237316195423570985008687907853269984665640564039457584007913129639935"
      ],
      "transaction": {
        "from": "0x4b75aec40561c03e03d4d1c421df194a3031a134",
        "to": "0xc02aaa39b223fe8d0a0e5c4f27ead9083c756cc2",
        "gas": "0xfa27",
        "value": "0x0",
        "input": "0x095ea7b30000000000000000000000008fa71914948544c60e3379064567dcf0e6564d27ffffffffffffffffffffffffffffffffffffffffffffffffffffffffffffffff",
        "nonce": "0x26",
        "chainId": "0x7a69"
      },
      "additionalContracts": [],
      "isFixedGasLimit": false
    },
    {
      "hash": "0xf3cc18947ddb260b0919a962e3031d3c9e8faa093b9fe148f630b07c1372e7af",
      "transactionType": "CALL",
      "contractName": null,
      "contractAddress": "0xc02aaa39b223fe8d0a0e5c4f27ead9083c756cc2",
      "function": "approve(address,uint256)",
      "arguments": [
        "0x8fA71914948544c60E3379064567DcF0E6564d27",
        "115792089237316195423570985008687907853269984665640564039457584007913129639935"
      ],
      "transaction": {
        "from": "0xe233420d38d286c2f2cf8dee6564f132fbdb09db",
        "to": "0xc02aaa39b223fe8d0a0e5c4f27ead9083c756cc2",
        "gas": "0xfa27",
        "value": "0x0",
        "input": "0x095ea7b30000000000000000000000008fa71914948544c60e3379064567dcf0e6564d27ffffffffffffffffffffffffffffffffffffffffffffffffffffffffffffffff",
        "nonce": "0x34",
        "chainId": "0x7a69"
      },
      "additionalContracts": [],
      "isFixedGasLimit": false
    },
    {
      "hash": "0xcbc01e85fcc22c8d36b89b6ccfce0043b9446209f9ddeba1d64be9fbe0e4f171",
      "transactionType": "CALL",
      "contractName": null,
      "contractAddress": "0xc02aaa39b223fe8d0a0e5c4f27ead9083c756cc2",
      "function": "approve(address,uint256)",
      "arguments": [
        "0x8fA71914948544c60E3379064567DcF0E6564d27",
        "115792089237316195423570985008687907853269984665640564039457584007913129639935"
      ],
      "transaction": {
        "from": "0xc5adfc119364cfe2297e4414db04834d8702475b",
        "to": "0xc02aaa39b223fe8d0a0e5c4f27ead9083c756cc2",
        "gas": "0xfa27",
        "value": "0x0",
        "input": "0x095ea7b30000000000000000000000008fa71914948544c60e3379064567dcf0e6564d27ffffffffffffffffffffffffffffffffffffffffffffffffffffffffffffffff",
        "nonce": "0x33",
        "chainId": "0x7a69"
      },
      "additionalContracts": [],
      "isFixedGasLimit": false
    },
    {
      "hash": "0x85da22533b8a3408a364c7601001546aba61538a7d02ab6aaeb9a86d1b94af06",
      "transactionType": "CALL",
      "contractName": null,
      "contractAddress": "0xc02aaa39b223fe8d0a0e5c4f27ead9083c756cc2",
      "function": "approve(address,uint256)",
      "arguments": [
        "0x8fA71914948544c60E3379064567DcF0E6564d27",
        "115792089237316195423570985008687907853269984665640564039457584007913129639935"
      ],
      "transaction": {
        "from": "0x08312e82df563a1639b81f49bb41247759700e30",
        "to": "0xc02aaa39b223fe8d0a0e5c4f27ead9083c756cc2",
        "gas": "0xfa27",
        "value": "0x0",
        "input": "0x095ea7b30000000000000000000000008fa71914948544c60e3379064567dcf0e6564d27ffffffffffffffffffffffffffffffffffffffffffffffffffffffffffffffff",
        "nonce": "0x39",
        "chainId": "0x7a69"
      },
      "additionalContracts": [],
      "isFixedGasLimit": false
    },
    {
      "hash": "0x2fba3e9d29efad193419f2b0a1e2d94ab4efacabe16e90c69b4ae060802629b2",
      "transactionType": "CALL",
      "contractName": null,
      "contractAddress": "0xc02aaa39b223fe8d0a0e5c4f27ead9083c756cc2",
      "function": "approve(address,uint256)",
      "arguments": [
        "0x8fA71914948544c60E3379064567DcF0E6564d27",
        "115792089237316195423570985008687907853269984665640564039457584007913129639935"
      ],
      "transaction": {
        "from": "0xcbe5659df21cbcfabe4da962f7a9081f26b3ed82",
        "to": "0xc02aaa39b223fe8d0a0e5c4f27ead9083c756cc2",
        "gas": "0xfa27",
        "value": "0x0",
        "input": "0x095ea7b30000000000000000000000008fa71914948544c60e3379064567dcf0e6564d27ffffffffffffffffffffffffffffffffffffffffffffffffffffffffffffffff",
        "nonce": "0x3c",
        "chainId": "0x7a69"
      },
      "additionalContracts": [],
      "isFixedGasLimit": false
    },
    {
      "hash": "0x936b6f9d7d71206484ef98db506edf38cbbfb5cdc6af2685f88eb4365494af28",
      "transactionType": "CALL",
      "contractName": null,
      "contractAddress": "0xc02aaa39b223fe8d0a0e5c4f27ead9083c756cc2",
      "function": "approve(address,uint256)",
      "arguments": [
        "0x8fA71914948544c60E3379064567DcF0E6564d27",
        "115792089237316195423570985008687907853269984665640564039457584007913129639935"
      ],
      "transaction": {
        "from": "0xa382b0e75c192d9cdf5c084e58b750cea7761bd0",
        "to": "0xc02aaa39b223fe8d0a0e5c4f27ead9083c756cc2",
        "gas": "0xfa27",
        "value": "0x0",
        "input": "0x095ea7b30000000000000000000000008fa71914948544c60e3379064567dcf0e6564d27ffffffffffffffffffffffffffffffffffffffffffffffffffffffffffffffff",
        "nonce": "0x26",
        "chainId": "0x7a69"
      },
      "additionalContracts": [],
      "isFixedGasLimit": false
    }
  ],
  "receipts": [
    {
      "status": "0x1",
      "cumulativeGasUsed": "0xb63b",
      "logs": [
        {
          "address": "0xa5f104f8f78d5ba9aec4a383c0927337fd4e997b",
          "topics": [
            "0x17307eab39ab6107e8899845ad3d59bd9653f200f220920489ca2b5937696c31",
            "0x000000000000000000000000646dc5fc4009c4c84a424b6ae0f494b374bae1ce",
            "0x0000000000000000000000008fa71914948544c60e3379064567dcf0e6564d27"
          ],
          "data": "0x0000000000000000000000000000000000000000000000000000000000000001",
          "blockHash": "0x5ef87891b733b91cc8ea4646886189242f659fc8c95a3f3ce38915b44b4575bb",
          "blockNumber": "0x17b7160",
          "blockTimestamp": "0x69dc1c4b",
          "transactionHash": "0x147e2fb38ca79d1987121ce6cc2fdf34da454226172c77ff563eeb4e0d577311",
          "transactionIndex": "0x0",
          "logIndex": "0x0",
          "removed": false
        }
      ],
      "logsBloom": "0x00000000000000000000000000000000000000000002000000000000000000000000000000000000000000000000000000000000010000000000000000000000000000000000000080000000000000000000000200000000080000000000000002000000000000000004000000000000000000000000000000000000000000000000000000000000000000000000000000000000000000000000000000000000000000200000000400000000000000000000000000000000000000000000000000000000000000000200000000000000000000000000000000000000000000000000200800000000000000000000000000000000000000000000000000000000",
      "type": "0x2",
      "transactionHash": "0x147e2fb38ca79d1987121ce6cc2fdf34da454226172c77ff563eeb4e0d577311",
      "transactionIndex": "0x0",
      "blockHash": "0x5ef87891b733b91cc8ea4646886189242f659fc8c95a3f3ce38915b44b4575bb",
      "blockNumber": "0x17b7160",
      "gasUsed": "0xb63b",
      "effectiveGasPrice": "0xf4248",
      "blobGasPrice": "0x1",
      "from": "0x646dc5fc4009c4c84a424b6ae0f494b374bae1ce",
      "to": "0xa5f104f8f78d5ba9aec4a383c0927337fd4e997b",
      "contractAddress": null
    },
    {
      "status": "0x1",
      "cumulativeGasUsed": "0xb63b",
      "logs": [
        {
          "address": "0xa5f104f8f78d5ba9aec4a383c0927337fd4e997b",
          "topics": [
            "0x17307eab39ab6107e8899845ad3d59bd9653f200f220920489ca2b5937696c31",
            "0x0000000000000000000000001302f142fc55b165647d3bd5dec227f569a2a907",
            "0x0000000000000000000000008fa71914948544c60e3379064567dcf0e6564d27"
          ],
          "data": "0x0000000000000000000000000000000000000000000000000000000000000001",
          "blockHash": "0x32e92264fc20ab95aedbb19d9d999b705b97ffe264226854b2914fa2b4ff3d93",
          "blockNumber": "0x17b7161",
          "blockTimestamp": "0x69dc1c4b",
          "transactionHash": "0xa51240d4059d0998283d4ee228b3e3046f5f546d9d30c96c9c53c34f1e159b38",
          "transactionIndex": "0x0",
          "logIndex": "0x0",
          "removed": false
        }
      ],
      "logsBloom": "0x00000000000000000000000000000000000000000000000000000000000000000000000000000000000000000000000000000000000000000000000000000000000000000000000080000000000000000000000200000000080000000000000002000000000000000000000000000000000000000000000000000000000000000000000000000000000000000000000000000000000000000000000000000000000000200000000400000000000100000000000000000000000000000000000000000000000000000200000200000000000000000000000000000000000000000000200800000000000040000000000000000000000000000000000000000000",
      "type": "0x2",
      "transactionHash": "0xa51240d4059d0998283d4ee228b3e3046f5f546d9d30c96c9c53c34f1e159b38",
      "transactionIndex": "0x0",
      "blockHash": "0x32e92264fc20ab95aedbb19d9d999b705b97ffe264226854b2914fa2b4ff3d93",
      "blockNumber": "0x17b7161",
      "gasUsed": "0xb63b",
      "effectiveGasPrice": "0xf4248",
      "blobGasPrice": "0x1",
      "from": "0x1302f142fc55b165647d3bd5dec227f569a2a907",
      "to": "0xa5f104f8f78d5ba9aec4a383c0927337fd4e997b",
      "contractAddress": null
    },
    {
      "status": "0x1",
      "cumulativeGasUsed": "0xb63b",
      "logs": [
        {
          "address": "0xa5f104f8f78d5ba9aec4a383c0927337fd4e997b",
          "topics": [
            "0x17307eab39ab6107e8899845ad3d59bd9653f200f220920489ca2b5937696c31",
            "0x000000000000000000000000e3745c151fab59b0740f4312b2b027f07d096639",
            "0x0000000000000000000000008fa71914948544c60e3379064567dcf0e6564d27"
          ],
          "data": "0x0000000000000000000000000000000000000000000000000000000000000001",
          "blockHash": "0xd674aaac41bc8d5930a6e193f2168f991a8ab34429e136163fb6a465692674c2",
          "blockNumber": "0x17b7162",
          "blockTimestamp": "0x69dc1c4b",
          "transactionHash": "0x3edd1ff81775ad5ecc6a293ccc1a119a8d7867014bfe6c0f821962ae75f66f0f",
          "transactionIndex": "0x0",
          "logIndex": "0x0",
          "removed": false
        }
      ],
      "logsBloom": "0x00000000000000000000000000000000000000000100000000000000000000000000000000000000000000000000000040000000000000000000000000000000000000000000000080000000000000000000000200000000080000000000000002000000000000000000000000000000000000000000000000000000000000000000000000000000000000000000000000000000000000000000000000000000000000200000000400000000000000000000000000000000000000000000000000000000000000000200000000000000000000000000000000000040000000000000200800000000000000000000000000000000000000000000000000000000",
      "type": "0x2",
      "transactionHash": "0x3edd1ff81775ad5ecc6a293ccc1a119a8d7867014bfe6c0f821962ae75f66f0f",
      "transactionIndex": "0x0",
      "blockHash": "0xd674aaac41bc8d5930a6e193f2168f991a8ab34429e136163fb6a465692674c2",
      "blockNumber": "0x17b7162",
      "gasUsed": "0xb63b",
      "effectiveGasPrice": "0xf4248",
      "blobGasPrice": "0x1",
      "from": "0xe3745c151fab59b0740f4312b2b027f07d096639",
      "to": "0xa5f104f8f78d5ba9aec4a383c0927337fd4e997b",
      "contractAddress": null
    },
    {
      "status": "0x1",
      "cumulativeGasUsed": "0xb63b",
      "logs": [
        {
          "address": "0xa5f104f8f78d5ba9aec4a383c0927337fd4e997b",
          "topics": [
            "0x17307eab39ab6107e8899845ad3d59bd9653f200f220920489ca2b5937696c31",
            "0x0000000000000000000000002c2dba75492e0c4a1d10b41303167aec59586c9c",
            "0x0000000000000000000000008fa71914948544c60e3379064567dcf0e6564d27"
          ],
          "data": "0x0000000000000000000000000000000000000000000000000000000000000001",
          "blockHash": "0xab7d0fe73218227b9fad50ed372e60c96592d65051a7e7745a73c1efeb9de931",
          "blockNumber": "0x17b7163",
          "blockTimestamp": "0x69dc1c4b",
          "transactionHash": "0xac41c84c1be5ee8916c5cda2f4688cabecf0be36938710296b84788557195b0a",
          "transactionIndex": "0x0",
          "logIndex": "0x0",
          "removed": false
        }
      ],
      "logsBloom": "0x00000000000000000000000000000000000000000000000000000000000000000000000000000000000000000000000000000000000000000000000800000000000200000000000080000000000000000000000200000000080000000000000002000000000004000000000000000000000000000000000000000000000000000000000000000000000000000000000000000000000000000000000000000000000000200000000400000000000000000000000000000000000000000000000000000000000000000200000000000000000000000000000000000000000000000000200800000000000000000000000000000000000000000000000000000000",
      "type": "0x2",
      "transactionHash": "0xac41c84c1be5ee8916c5cda2f4688cabecf0be36938710296b84788557195b0a",
      "transactionIndex": "0x0",
      "blockHash": "0xab7d0fe73218227b9fad50ed372e60c96592d65051a7e7745a73c1efeb9de931",
      "blockNumber": "0x17b7163",
      "gasUsed": "0xb63b",
      "effectiveGasPrice": "0xf4248",
      "blobGasPrice": "0x1",
      "from": "0x2c2dba75492e0c4a1d10b41303167aec59586c9c",
      "to": "0xa5f104f8f78d5ba9aec4a383c0927337fd4e997b",
      "contractAddress": null
    },
    {
      "status": "0x1",
      "cumulativeGasUsed": "0xb63b",
      "logs": [
        {
          "address": "0xa5f104f8f78d5ba9aec4a383c0927337fd4e997b",
          "topics": [
            "0x17307eab39ab6107e8899845ad3d59bd9653f200f220920489ca2b5937696c31",
            "0x0000000000000000000000004b75aec40561c03e03d4d1c421df194a3031a134",
            "0x0000000000000000000000008fa71914948544c60e3379064567dcf0e6564d27"
          ],
          "data": "0x0000000000000000000000000000000000000000000000000000000000000001",
          "blockHash": "0x12aed39a8a9be727472769038521eef66b4eb83f730c9b3ee3788fcd9599fdd1",
          "blockNumber": "0x17b7164",
          "blockTimestamp": "0x69dc1c4b",
          "transactionHash": "0x6699ab6500e64eb7de145a237b8845f2c372273868ff7cff8a16777e24c4d542",
          "transactionIndex": "0x0",
          "logIndex": "0x0",
          "removed": false
        }
      ],
      "logsBloom": "0x00000000000000000000000000000000000000000000000000000000000000000000000000000000000000000000000000000000000000000000000000000000000000000000000080000000000000000000000200000000080000000000000002000000000000000000000000000000000000000000000000000000000000000000000000000000000000000000000000000000000000000000000000002000000000200000000400000000000400000000000000000000020000000000000000000000000000000200000000000000000000000000000000000000000000000000200800000000000000000000000000000000000000000000000000000000",
      "type": "0x2",
      "transactionHash": "0x6699ab6500e64eb7de145a237b8845f2c372273868ff7cff8a16777e24c4d542",
      "transactionIndex": "0x0",
      "blockHash": "0x12aed39a8a9be727472769038521eef66b4eb83f730c9b3ee3788fcd9599fdd1",
      "blockNumber": "0x17b7164",
      "gasUsed": "0xb63b",
      "effectiveGasPrice": "0xf4248",
      "blobGasPrice": "0x1",
      "from": "0x4b75aec40561c03e03d4d1c421df194a3031a134",
      "to": "0xa5f104f8f78d5ba9aec4a383c0927337fd4e997b",
      "contractAddress": null
    },
    {
      "status": "0x1",
      "cumulativeGasUsed": "0xb63b",
      "logs": [
        {
          "address": "0xa5f104f8f78d5ba9aec4a383c0927337fd4e997b",
          "topics": [
            "0x17307eab39ab6107e8899845ad3d59bd9653f200f220920489ca2b5937696c31",
            "0x000000000000000000000000e233420d38d286c2f2cf8dee6564f132fbdb09db",
            "0x0000000000000000000000008fa71914948544c60e3379064567dcf0e6564d27"
          ],
          "data": "0x0000000000000000000000000000000000000000000000000000000000000001",
          "blockHash": "0xe79c57bb40dba8f70145b8d3eeb281f41f6e2329b2c522dfcbc0e92bef012763",
          "blockNumber": "0x17b7165",
          "blockTimestamp": "0x69dc1c4b",
          "transactionHash": "0x60c5ad9af9a6c4eaba09967ffd9368da27a25f11ba673e31525e136fecf3c179",
          "transactionIndex": "0x0",
          "logIndex": "0x0",
          "removed": false
        }
      ],
      "logsBloom": "0x00000000000000000000000000000000000000000000000000000000000000000000000000000000000000000000000000000000000000000000000000000000000000000000000080000000000000000000000200000000080000000000000002000001000000000000000000000000000000000000000000000000000000000000000000000000000000000000000000000000000000000000000000000000000000200000000400000000000000000000000000000000000000000000000000000010000000000200000000000000000000000002000000000000000000000000200800000000000000000000000000000000000000000000000000000000",
      "type": "0x2",
      "transactionHash": "0x60c5ad9af9a6c4eaba09967ffd9368da27a25f11ba673e31525e136fecf3c179",
      "transactionIndex": "0x0",
      "blockHash": "0xe79c57bb40dba8f70145b8d3eeb281f41f6e2329b2c522dfcbc0e92bef012763",
      "blockNumber": "0x17b7165",
      "gasUsed": "0xb63b",
      "effectiveGasPrice": "0xf4248",
      "blobGasPrice": "0x1",
      "from": "0xe233420d38d286c2f2cf8dee6564f132fbdb09db",
      "to": "0xa5f104f8f78d5ba9aec4a383c0927337fd4e997b",
      "contractAddress": null
    },
    {
      "status": "0x1",
      "cumulativeGasUsed": "0xb63b",
      "logs": [
        {
          "address": "0xa5f104f8f78d5ba9aec4a383c0927337fd4e997b",
          "topics": [
            "0x17307eab39ab6107e8899845ad3d59bd9653f200f220920489ca2b5937696c31",
            "0x000000000000000000000000c5adfc119364cfe2297e4414db04834d8702475b",
            "0x0000000000000000000000008fa71914948544c60e3379064567dcf0e6564d27"
          ],
          "data": "0x0000000000000000000000000000000000000000000000000000000000000001",
          "blockHash": "0x56dc8ddec2ab522877a3cbf4f9cf3557a13b83e51e53af9c71476239cca647c3",
          "blockNumber": "0x17b7166",
          "blockTimestamp": "0x69dc1c4b",
          "transactionHash": "0xebdcfa3f5ebe433c60906ed2de87e72b78500cbc7e7973755a06666efcb35d9d",
          "transactionIndex": "0x0",
          "logIndex": "0x0",
          "removed": false
        }
      ],
      "logsBloom": "0x00000000000000000000000000000000000000000000000000000000000000000000000000000000000000000000000000000000000000000000000000000000000000000000000080000000000000000000000200000000080000000000000202000000000000000000000000000000000000000000000000000000000000000000000000000000000000000000000000000000000000000000000000000000000000200000000400000000000020000000000000000000000000000000000000000000000000000200000000000000000000000000000000000000000000000000200800000000000000000000000000000000000000002000000000000000",
      "type": "0x2",
      "transactionHash": "0xebdcfa3f5ebe433c60906ed2de87e72b78500cbc7e7973755a06666efcb35d9d",
      "transactionIndex": "0x0",
      "blockHash": "0x56dc8ddec2ab522877a3cbf4f9cf3557a13b83e51e53af9c71476239cca647c3",
      "blockNumber": "0x17b7166",
      "gasUsed": "0xb63b",
      "effectiveGasPrice": "0xf4248",
      "blobGasPrice": "0x1",
      "from": "0xc5adfc119364cfe2297e4414db04834d8702475b",
      "to": "0xa5f104f8f78d5ba9aec4a383c0927337fd4e997b",
      "contractAddress": null
    },
    {
      "status": "0x1",
      "cumulativeGasUsed": "0xb63b",
      "logs": [
        {
          "address": "0xa5f104f8f78d5ba9aec4a383c0927337fd4e997b",
          "topics": [
            "0x17307eab39ab6107e8899845ad3d59bd9653f200f220920489ca2b5937696c31",
            "0x00000000000000000000000008312e82df563a1639b81f49bb41247759700e30",
            "0x0000000000000000000000008fa71914948544c60e3379064567dcf0e6564d27"
          ],
          "data": "0x0000000000000000000000000000000000000000000000000000000000000001",
          "blockHash": "0xc6449040b3a2e3c9f85da9cd0aea19d73665cad1b08596aeb4431f91b9d4029c",
          "blockNumber": "0x17b7167",
          "blockTimestamp": "0x69dc1c4b",
          "transactionHash": "0x7eb6a5235390c16aded8dee0a0da317e87fbbf70da7a83ee6404ca91739553a1",
          "transactionIndex": "0x0",
          "logIndex": "0x0",
          "removed": false
        }
      ],
      "logsBloom": "0x00000000000000000000000001000000000000000000000000000000000000000000000000100000000000000000000000000000000000000000000000000000000000000000000080000000000000000000000200000000080000000000000002000000000000000000000000000000000000000000000000000000000000000000000000000000000000000000000000000000000000000000000000000000000000200000000400000000000000000000000000000000000000000000000000000000000000000200000000000000000000000000000000000000000000000000200800000000000000000000000000000000004000000000000000000000",
      "type": "0x2",
      "transactionHash": "0x7eb6a5235390c16aded8dee0a0da317e87fbbf70da7a83ee6404ca91739553a1",
      "transactionIndex": "0x0",
      "blockHash": "0xc6449040b3a2e3c9f85da9cd0aea19d73665cad1b08596aeb4431f91b9d4029c",
      "blockNumber": "0x17b7167",
      "gasUsed": "0xb63b",
      "effectiveGasPrice": "0xf4248",
      "blobGasPrice": "0x1",
      "from": "0x08312e82df563a1639b81f49bb41247759700e30",
      "to": "0xa5f104f8f78d5ba9aec4a383c0927337fd4e997b",
      "contractAddress": null
    },
    {
      "status": "0x1",
      "cumulativeGasUsed": "0xb63b",
      "logs": [
        {
          "address": "0xa5f104f8f78d5ba9aec4a383c0927337fd4e997b",
          "topics": [
            "0x17307eab39ab6107e8899845ad3d59bd9653f200f220920489ca2b5937696c31",
            "0x000000000000000000000000cbe5659df21cbcfabe4da962f7a9081f26b3ed82",
            "0x0000000000000000000000008fa71914948544c60e3379064567dcf0e6564d27"
          ],
          "data": "0x0000000000000000000000000000000000000000000000000000000000000001",
          "blockHash": "0x7a132973fa777df686f8aaf1cb7b1505144bc1f46f58a51c433160d310d5697e",
          "blockNumber": "0x17b7168",
          "blockTimestamp": "0x69dc1c4b",
          "transactionHash": "0x39146c00d690028f1b578f0248af66062a1ab147ee57770fe25f1c733b34200a",
          "transactionIndex": "0x0",
          "logIndex": "0x0",
          "removed": false
        }
      ],
      "logsBloom": "0x00000000000000000000000000000000000000000000000000000000000000000000000000000000000000000000000000000000000000000000000000000000000000000000000080000000000000000000000200000000080000000000000002000000000000000000000000000000000000000000000000000000000000000000000000000000000000000000000000000000000000000000000000000000000000200000000400000000000000000000000000000000000000000000000000000000000000000600000000000000000000000000020000000000000000000000200800000000000000000000000000000000004000000000000000000000",
      "type": "0x2",
      "transactionHash": "0x39146c00d690028f1b578f0248af66062a1ab147ee57770fe25f1c733b34200a",
      "transactionIndex": "0x0",
      "blockHash": "0x7a132973fa777df686f8aaf1cb7b1505144bc1f46f58a51c433160d310d5697e",
      "blockNumber": "0x17b7168",
      "gasUsed": "0xb63b",
      "effectiveGasPrice": "0xf4248",
      "blobGasPrice": "0x1",
      "from": "0xcbe5659df21cbcfabe4da962f7a9081f26b3ed82",
      "to": "0xa5f104f8f78d5ba9aec4a383c0927337fd4e997b",
      "contractAddress": null
    },
    {
      "status": "0x1",
      "cumulativeGasUsed": "0xb63b",
      "logs": [
        {
          "address": "0xa5f104f8f78d5ba9aec4a383c0927337fd4e997b",
          "topics": [
            "0x17307eab39ab6107e8899845ad3d59bd9653f200f220920489ca2b5937696c31",
            "0x000000000000000000000000a382b0e75c192d9cdf5c084e58b750cea7761bd0",
            "0x0000000000000000000000008fa71914948544c60e3379064567dcf0e6564d27"
          ],
          "data": "0x0000000000000000000000000000000000000000000000000000000000000001",
          "blockHash": "0x474d3aea47785800b4ac7a5233a5db12f222c0ca6f2fb066e507eb49c82e6391",
          "blockNumber": "0x17b7169",
          "blockTimestamp": "0x69dc1c4b",
          "transactionHash": "0x7c3b11061fca9cedd85326c294d9d8afd5117285aef9de91db0505584fe779a6",
          "transactionIndex": "0x0",
          "logIndex": "0x0",
          "removed": false
        }
      ],
      "logsBloom": "0x00000000000000000000000000000000000000000000000000000000000000000000000000000000000000000000000000000000000000000000000000000000000000000000000080000000000000000000000200000000080000000000000002000000000000000000000000000000000000000000040000000000000000000000000000000000000000000000000000100000000000000000000000000000000000200000000400000000000000000000000000000000000000000000000000000000000000000200000000000000000000000000000000000000000000000000200800000000000000000000000000000000100000000000000000000000",
      "type": "0x2",
      "transactionHash": "0x7c3b11061fca9cedd85326c294d9d8afd5117285aef9de91db0505584fe779a6",
      "transactionIndex": "0x0",
      "blockHash": "0x474d3aea47785800b4ac7a5233a5db12f222c0ca6f2fb066e507eb49c82e6391",
      "blockNumber": "0x17b7169",
      "gasUsed": "0xb63b",
      "effectiveGasPrice": "0xf4248",
      "blobGasPrice": "0x1",
      "from": "0xa382b0e75c192d9cdf5c084e58b750cea7761bd0",
      "to": "0xa5f104f8f78d5ba9aec4a383c0927337fd4e997b",
      "contractAddress": null
    },
    {
      "status": "0x1",
      "cumulativeGasUsed": "0xb51c",
      "logs": [
        {
          "address": "0xc02aaa39b223fe8d0a0e5c4f27ead9083c756cc2",
          "topics": [
            "0x8c5be1e5ebec7d5bd14f71427d1e84f3dd0314c0f7b2291e5b200ac8c7c3b925",
            "0x000000000000000000000000646dc5fc4009c4c84a424b6ae0f494b374bae1ce",
            "0x0000000000000000000000008fa71914948544c60e3379064567dcf0e6564d27"
          ],
          "data": "0xffffffffffffffffffffffffffffffffffffffffffffffffffffffffffffffff",
          "blockHash": "0x5e3d0044531a32cfcdd23c4a6194eaa630740d703db52ff8696ef1acd59c7d51",
          "blockNumber": "0x17b716a",
          "blockTimestamp": "0x69dc1c4b",
          "transactionHash": "0xc35f6414ad07f467356cb70a0dd8a6ef28ef9b2035c2d202358bb69999c51495",
          "transactionIndex": "0x0",
          "logIndex": "0x0",
          "removed": false
        }
      ],
      "logsBloom": "0x00000000000000000000000000000000000000000002000000000000000000000000000000000000000000000000000002000000090000000000000000200000000000000000000080000000000000000000000200000000000000000000000000000000000000000004000000000000000000000000000000000000000000000000000000000000000000000000000000000000000000000000000000000000020000000000000000000000000000000000000000000000000000000000000000000000000000000200000000000000000000000000000000000000000000000010200000000000000000000000000000000000000000000000000000000000",
      "type": "0x2",
      "transactionHash": "0xc35f6414ad07f467356cb70a0dd8a6ef28ef9b2035c2d202358bb69999c51495",
      "transactionIndex": "0x0",
      "blockHash": "0x5e3d0044531a32cfcdd23c4a6194eaa630740d703db52ff8696ef1acd59c7d51",
      "blockNumber": "0x17b716a",
      "gasUsed": "0xb51c",
      "effectiveGasPrice": "0xf4248",
      "blobGasPrice": "0x1",
      "from": "0x646dc5fc4009c4c84a424b6ae0f494b374bae1ce",
      "to": "0xc02aaa39b223fe8d0a0e5c4f27ead9083c756cc2",
      "contractAddress": null
    },
    {
      "status": "0x1",
      "cumulativeGasUsed": "0xb51c",
      "logs": [
        {
          "address": "0xc02aaa39b223fe8d0a0e5c4f27ead9083c756cc2",
          "topics": [
            "0x8c5be1e5ebec7d5bd14f71427d1e84f3dd0314c0f7b2291e5b200ac8c7c3b925",
            "0x0000000000000000000000001302f142fc55b165647d3bd5dec227f569a2a907",
            "0x0000000000000000000000008fa71914948544c60e3379064567dcf0e6564d27"
          ],
          "data": "0xffffffffffffffffffffffffffffffffffffffffffffffffffffffffffffffff",
          "blockHash": "0x9cdd9822ecac7e5404c0bf859d6f3642317b2bad083681edd680426abcb8ec77",
          "blockNumber": "0x17b716b",
          "blockTimestamp": "0x69dc1c4b",
          "transactionHash": "0x6df5a95bbcd7a4ee834a40fb4eebc2cda299fb0aadaa2fe640b75765db9cc513",
          "transactionIndex": "0x0",
          "logIndex": "0x0",
          "removed": false
        }
      ],
      "logsBloom": "0x00000000000000000000000000000000000000000000000000000000000000000000000000000000000000000000000002000000080000000000000000200000000000000000000080000000000000000000000200000000000000000000000000000000000000000000000000000000000000000000000000000000000000000000000000000000000000000000000000000000000000000000000000000000020000000000000000000000000100000000000000000000000000000000000000000000000000000200000200000000000000000000000000000000000000000010200000000000000040000000000000000000000000000000000000000000",
      "type": "0x2",
      "transactionHash": "0x6df5a95bbcd7a4ee834a40fb4eebc2cda299fb0aadaa2fe640b75765db9cc513",
      "transactionIndex": "0x0",
      "blockHash": "0x9cdd9822ecac7e5404c0bf859d6f3642317b2bad083681edd680426abcb8ec77",
      "blockNumber": "0x17b716b",
      "gasUsed": "0xb51c",
      "effectiveGasPrice": "0xf4248",
      "blobGasPrice": "0x1",
      "from": "0x1302f142fc55b165647d3bd5dec227f569a2a907",
      "to": "0xc02aaa39b223fe8d0a0e5c4f27ead9083c756cc2",
      "contractAddress": null
    },
    {
      "status": "0x1",
      "cumulativeGasUsed": "0xb51c",
      "logs": [
        {
          "address": "0xc02aaa39b223fe8d0a0e5c4f27ead9083c756cc2",
          "topics": [
            "0x8c5be1e5ebec7d5bd14f71427d1e84f3dd0314c0f7b2291e5b200ac8c7c3b925",
            "0x000000000000000000000000e3745c151fab59b0740f4312b2b027f07d096639",
            "0x0000000000000000000000008fa71914948544c60e3379064567dcf0e6564d27"
          ],
          "data": "0xffffffffffffffffffffffffffffffffffffffffffffffffffffffffffffffff",
          "blockHash": "0xac0dce4e3047161d83f7631dd6d0a99b7a1a27e5acd66990de0bc3fcbc65791f",
          "blockNumber": "0x17b716c",
          "blockTimestamp": "0x69dc1c4b",
          "transactionHash": "0x5ec19ef9f4d0563da6e8de6facb27358d83f1df0d012bae438d424f2f21c549c",
          "transactionIndex": "0x0",
          "logIndex": "0x0",
          "removed": false
        }
      ],
      "logsBloom": "0x00000000000000000000000000000000000000000100000000000000000000000000000000000000000000000000000042000000080000000000000000200000000000000000000080000000000000000000000200000000000000000000000000000000000000000000000000000000000000000000000000000000000000000000000000000000000000000000000000000000000000000000000000000000020000000000000000000000000000000000000000000000000000000000000000000000000000000200000000000000000000000000000000000040000000000010200000000000000000000000000000000000000000000000000000000000",
      "type": "0x2",
      "transactionHash": "0x5ec19ef9f4d0563da6e8de6facb27358d83f1df0d012bae438d424f2f21c549c",
      "transactionIndex": "0x0",
      "blockHash": "0xac0dce4e3047161d83f7631dd6d0a99b7a1a27e5acd66990de0bc3fcbc65791f",
      "blockNumber": "0x17b716c",
      "gasUsed": "0xb51c",
      "effectiveGasPrice": "0xf4248",
      "blobGasPrice": "0x1",
      "from": "0xe3745c151fab59b0740f4312b2b027f07d096639",
      "to": "0xc02aaa39b223fe8d0a0e5c4f27ead9083c756cc2",
      "contractAddress": null
    },
    {
      "status": "0x1",
      "cumulativeGasUsed": "0xb51c",
      "logs": [
        {
          "address": "0xc02aaa39b223fe8d0a0e5c4f27ead9083c756cc2",
          "topics": [
            "0x8c5be1e5ebec7d5bd14f71427d1e84f3dd0314c0f7b2291e5b200ac8c7c3b925",
            "0x0000000000000000000000002c2dba75492e0c4a1d10b41303167aec59586c9c",
            "0x0000000000000000000000008fa71914948544c60e3379064567dcf0e6564d27"
          ],
          "data": "0xffffffffffffffffffffffffffffffffffffffffffffffffffffffffffffffff",
          "blockHash": "0xa6cc89ee68bff9b642f2824fb56a864de526f28dcf7d9579d86da62bfc27a301",
          "blockNumber": "0x17b716d",
          "blockTimestamp": "0x69dc1c4b",
          "transactionHash": "0x11aa1435c648aaba02ce46b8c46b4986a2725c685934b775618292edf762eb49",
          "transactionIndex": "0x0",
          "logIndex": "0x0",
          "removed": false
        }
      ],
      "logsBloom": "0x00000000000000000000000000000000000000000000000000000000000000000000000000000000000000000000000002000000080000000000000800200000000200000000000080000000000000000000000200000000000000000000000000000000000004000000000000000000000000000000000000000000000000000000000000000000000000000000000000000000000000000000000000000000020000000000000000000000000000000000000000000000000000000000000000000000000000000200000000000000000000000000000000000000000000000010200000000000000000000000000000000000000000000000000000000000",
      "type": "0x2",
      "transactionHash": "0x11aa1435c648aaba02ce46b8c46b4986a2725c685934b775618292edf762eb49",
      "transactionIndex": "0x0",
      "blockHash": "0xa6cc89ee68bff9b642f2824fb56a864de526f28dcf7d9579d86da62bfc27a301",
      "blockNumber": "0x17b716d",
      "gasUsed": "0xb51c",
      "effectiveGasPrice": "0xf4248",
      "blobGasPrice": "0x1",
      "from": "0x2c2dba75492e0c4a1d10b41303167aec59586c9c",
      "to": "0xc02aaa39b223fe8d0a0e5c4f27ead9083c756cc2",
      "contractAddress": null
    },
    {
      "status": "0x1",
      "cumulativeGasUsed": "0xb51c",
      "logs": [
        {
          "address": "0xc02aaa39b223fe8d0a0e5c4f27ead9083c756cc2",
          "topics": [
            "0x8c5be1e5ebec7d5bd14f71427d1e84f3dd0314c0f7b2291e5b200ac8c7c3b925",
            "0x0000000000000000000000004b75aec40561c03e03d4d1c421df194a3031a134",
            "0x0000000000000000000000008fa71914948544c60e3379064567dcf0e6564d27"
          ],
          "data": "0xffffffffffffffffffffffffffffffffffffffffffffffffffffffffffffffff",
          "blockHash": "0x4424f0a134bc16de4652b180648c15852a62363946ef94c057eadf921c7ceb39",
          "blockNumber": "0x17b716e",
          "blockTimestamp": "0x69dc1c4b",
          "transactionHash": "0xc52ed6ff34032820937b4d8c9cdc80034882bc37365e2d75b74b7ad6730a3014",
          "transactionIndex": "0x0",
          "logIndex": "0x0",
          "removed": false
        }
      ],
      "logsBloom": "0x00000000000000000000000000000000000000000000000000000000000000000000000000000000000000000000000002000000080000000000000000200000000000000000000080000000000000000000000200000000000000000000000000000000000000000000000000000000000000000000000000000000000000000000000000000000000000000000000000000000000000000000000000002000020000000000000000000000000400000000000000000000020000000000000000000000000000000200000000000000000000000000000000000000000000000010200000000000000000000000000000000000000000000000000000000000",
      "type": "0x2",
      "transactionHash": "0xc52ed6ff34032820937b4d8c9cdc80034882bc37365e2d75b74b7ad6730a3014",
      "transactionIndex": "0x0",
      "blockHash": "0x4424f0a134bc16de4652b180648c15852a62363946ef94c057eadf921c7ceb39",
      "blockNumber": "0x17b716e",
      "gasUsed": "0xb51c",
      "effectiveGasPrice": "0xf4248",
      "blobGasPrice": "0x1",
      "from": "0x4b75aec40561c03e03d4d1c421df194a3031a134",
      "to": "0xc02aaa39b223fe8d0a0e5c4f27ead9083c756cc2",
      "contractAddress": null
    },
    {
      "status": "0x1",
      "cumulativeGasUsed": "0xb51c",
      "logs": [
        {
          "address": "0xc02aaa39b223fe8d0a0e5c4f27ead9083c756cc2",
          "topics": [
            "0x8c5be1e5ebec7d5bd14f71427d1e84f3dd0314c0f7b2291e5b200ac8c7c3b925",
            "0x000000000000000000000000e233420d38d286c2f2cf8dee6564f132fbdb09db",
            "0x0000000000000000000000008fa71914948544c60e3379064567dcf0e6564d27"
          ],
          "data": "0xffffffffffffffffffffffffffffffffffffffffffffffffffffffffffffffff",
          "blockHash": "0xcb2fef29861bdd9c8b1301df0de812f36aa3e0226d6a4901b3f4368787763f15",
          "blockNumber": "0x17b716f",
          "blockTimestamp": "0x69dc1c4b",
          "transactionHash": "0xf3cc18947ddb260b0919a962e3031d3c9e8faa093b9fe148f630b07c1372e7af",
          "transactionIndex": "0x0",
          "logIndex": "0x0",
          "removed": false
        }
      ],
      "logsBloom": "0x00000000000000000000000000000000000000000000000000000000000000000000000000000000000000000000000002000000080000000000000000200000000000000000000080000000000000000000000200000000000000000000000000000001000000000000000000000000000000000000000000000000000000000000000000000000000000000000000000000000000000000000000000000000020000000000000000000000000000000000000000000000000000000000000000000010000000000200000000000000000000000002000000000000000000000010200000000000000000000000000000000000000000000000000000000000",
      "type": "0x2",
      "transactionHash": "0xf3cc18947ddb260b0919a962e3031d3c9e8faa093b9fe148f630b07c1372e7af",
      "transactionIndex": "0x0",
      "blockHash": "0xcb2fef29861bdd9c8b1301df0de812f36aa3e0226d6a4901b3f4368787763f15",
      "blockNumber": "0x17b716f",
      "gasUsed": "0xb51c",
      "effectiveGasPrice": "0xf4248",
      "blobGasPrice": "0x1",
      "from": "0xe233420d38d286c2f2cf8dee6564f132fbdb09db",
      "to": "0xc02aaa39b223fe8d0a0e5c4f27ead9083c756cc2",
      "contractAddress": null
    },
    {
      "status": "0x1",
      "cumulativeGasUsed": "0xb51c",
      "logs": [
        {
          "address": "0xc02aaa39b223fe8d0a0e5c4f27ead9083c756cc2",
          "topics": [
            "0x8c5be1e5ebec7d5bd14f71427d1e84f3dd0314c0f7b2291e5b200ac8c7c3b925",
            "0x000000000000000000000000c5adfc119364cfe2297e4414db04834d8702475b",
            "0x0000000000000000000000008fa71914948544c60e3379064567dcf0e6564d27"
          ],
          "data": "0xffffffffffffffffffffffffffffffffffffffffffffffffffffffffffffffff",
          "blockHash": "0xef12e0715aa69c76f54ded82d7aca634aaccc6c32514cf6fce1b439ce8e84b81",
          "blockNumber": "0x17b7170",
          "blockTimestamp": "0x69dc1c4b",
          "transactionHash": "0xcbc01e85fcc22c8d36b89b6ccfce0043b9446209f9ddeba1d64be9fbe0e4f171",
          "transactionIndex": "0x0",
          "logIndex": "0x0",
          "removed": false
        }
      ],
      "logsBloom": "0x00000000000000000000000000000000000000000000000000000000000000000000000000000000000000000000000002000000080000000000000000200000000000000000000080000000000000000000000200000000000000000000000200000000000000000000000000000000000000000000000000000000000000000000000000000000000000000000000000000000000000000000000000000000020000000000000000000000000020000000000000000000000000000000000000000000000000000200000000000000000000000000000000000000000000000010200000000000000000000000000000000000000000002000000000000000",
      "type": "0x2",
      "transactionHash": "0xcbc01e85fcc22c8d36b89b6ccfce0043b9446209f9ddeba1d64be9fbe0e4f171",
      "transactionIndex": "0x0",
      "blockHash": "0xef12e0715aa69c76f54ded82d7aca634aaccc6c32514cf6fce1b439ce8e84b81",
      "blockNumber": "0x17b7170",
      "gasUsed": "0xb51c",
      "effectiveGasPrice": "0xf4248",
      "blobGasPrice": "0x1",
      "from": "0xc5adfc119364cfe2297e4414db04834d8702475b",
      "to": "0xc02aaa39b223fe8d0a0e5c4f27ead9083c756cc2",
      "contractAddress": null
    },
    {
      "status": "0x1",
      "cumulativeGasUsed": "0xb51c",
      "logs": [
        {
          "address": "0xc02aaa39b223fe8d0a0e5c4f27ead9083c756cc2",
          "topics": [
            "0x8c5be1e5ebec7d5bd14f71427d1e84f3dd0314c0f7b2291e5b200ac8c7c3b925",
            "0x00000000000000000000000008312e82df563a1639b81f49bb41247759700e30",
            "0x0000000000000000000000008fa71914948544c60e3379064567dcf0e6564d27"
          ],
          "data": "0xffffffffffffffffffffffffffffffffffffffffffffffffffffffffffffffff",
          "blockHash": "0x4919a4c8c7ddf79b208cf14f9a313cde4cc8c559489c18436066dc11fbbb4c8f",
          "blockNumber": "0x17b7171",
          "blockTimestamp": "0x69dc1c4b",
          "transactionHash": "0x85da22533b8a3408a364c7601001546aba61538a7d02ab6aaeb9a86d1b94af06",
          "transactionIndex": "0x0",
          "logIndex": "0x0",
          "removed": false
        }
      ],
      "logsBloom": "0x00000000000000000000000001000000000000000000000000000000000000000000000000100000000000000000000002000000080000000000000000200000000000000000000080000000000000000000000200000000000000000000000000000000000000000000000000000000000000000000000000000000000000000000000000000000000000000000000000000000000000000000000000000000020000000000000000000000000000000000000000000000000000000000000000000000000000000200000000000000000000000000000000000000000000000010200000000000000000000000000000000000004000000000000000000000",
      "type": "0x2",
      "transactionHash": "0x85da22533b8a3408a364c7601001546aba61538a7d02ab6aaeb9a86d1b94af06",
      "transactionIndex": "0x0",
      "blockHash": "0x4919a4c8c7ddf79b208cf14f9a313cde4cc8c559489c18436066dc11fbbb4c8f",
      "blockNumber": "0x17b7171",
      "gasUsed": "0xb51c",
      "effectiveGasPrice": "0xf4248",
      "blobGasPrice": "0x1",
      "from": "0x08312e82df563a1639b81f49bb41247759700e30",
      "to": "0xc02aaa39b223fe8d0a0e5c4f27ead9083c756cc2",
      "contractAddress": null
    },
    {
      "status": "0x1",
      "cumulativeGasUsed": "0xb51c",
      "logs": [
        {
          "address": "0xc02aaa39b223fe8d0a0e5c4f27ead9083c756cc2",
          "topics": [
            "0x8c5be1e5ebec7d5bd14f71427d1e84f3dd0314c0f7b2291e5b200ac8c7c3b925",
            "0x000000000000000000000000cbe5659df21cbcfabe4da962f7a9081f26b3ed82",
            "0x0000000000000000000000008fa71914948544c60e3379064567dcf0e6564d27"
          ],
          "data": "0xffffffffffffffffffffffffffffffffffffffffffffffffffffffffffffffff",
          "blockHash": "0x8cc77faa99147fdfc18bad21cd4ba5277b5dce8bd1e29320a108b21fa8fdaaaf",
          "blockNumber": "0x17b7172",
          "blockTimestamp": "0x69dc1c4b",
          "transactionHash": "0x2fba3e9d29efad193419f2b0a1e2d94ab4efacabe16e90c69b4ae060802629b2",
          "transactionIndex": "0x0",
          "logIndex": "0x0",
          "removed": false
        }
      ],
      "logsBloom": "0x00000000000000000000000000000000000000000000000000000000000000000000000000000000000000000000000002000000080000000000000000200000000000000000000080000000000000000000000200000000000000000000000000000000000000000000000000000000000000000000000000000000000000000000000000000000000000000000000000000000000000000000000000000000020000000000000000000000000000000000000000000000000000000000000000000000000000000600000000000000000000000000020000000000000000000010200000000000000000000000000000000000004000000000000000000000",
      "type": "0x2",
      "transactionHash": "0x2fba3e9d29efad193419f2b0a1e2d94ab4efacabe16e90c69b4ae060802629b2",
      "transactionIndex": "0x0",
      "blockHash": "0x8cc77faa99147fdfc18bad21cd4ba5277b5dce8bd1e29320a108b21fa8fdaaaf",
      "blockNumber": "0x17b7172",
      "gasUsed": "0xb51c",
      "effectiveGasPrice": "0xf4248",
      "blobGasPrice": "0x1",
      "from": "0xcbe5659df21cbcfabe4da962f7a9081f26b3ed82",
      "to": "0xc02aaa39b223fe8d0a0e5c4f27ead9083c756cc2",
      "contractAddress": null
    },
    {
      "status": "0x1",
      "cumulativeGasUsed": "0xb51c",
      "logs": [
        {
          "address": "0xc02aaa39b223fe8d0a0e5c4f27ead9083c756cc2",
          "topics": [
            "0x8c5be1e5ebec7d5bd14f71427d1e84f3dd0314c0f7b2291e5b200ac8c7c3b925",
            "0x000000000000000000000000a382b0e75c192d9cdf5c084e58b750cea7761bd0",
            "0x0000000000000000000000008fa71914948544c60e3379064567dcf0e6564d27"
          ],
          "data": "0xffffffffffffffffffffffffffffffffffffffffffffffffffffffffffffffff",
          "blockHash": "0xf8f48803c5d629c5b6fae5c920364cfc9786f08cbdaf24e9be22664c75561ba7",
          "blockNumber": "0x17b7173",
          "blockTimestamp": "0x69dc1c4b",
          "transactionHash": "0x936b6f9d7d71206484ef98db506edf38cbbfb5cdc6af2685f88eb4365494af28",
          "transactionIndex": "0x0",
          "logIndex": "0x0",
          "removed": false
        }
      ],
      "logsBloom": "0x00000000000000000000000000000000000000000000000000000000000000000000000000000000000000000000000002000000080000000000000000200000000000000000000080000000000000000000000200000000000000000000000000000000000000000000000000000000000000000000040000000000000000000000000000000000000000000000000000100000000000000000000000000000020000000000000000000000000000000000000000000000000000000000000000000000000000000200000000000000000000000000000000000000000000000010200000000000000000000000000000000000100000000000000000000000",
      "type": "0x2",
      "transactionHash": "0x936b6f9d7d71206484ef98db506edf38cbbfb5cdc6af2685f88eb4365494af28",
      "transactionIndex": "0x0",
      "blockHash": "0xf8f48803c5d629c5b6fae5c920364cfc9786f08cbdaf24e9be22664c75561ba7",
      "blockNumber": "0x17b7173",
      "gasUsed": "0xb51c",
      "effectiveGasPrice": "0xf4248",
      "blobGasPrice": "0x1",
      "from": "0xa382b0e75c192d9cdf5c084e58b750cea7761bd0",
      "to": "0xc02aaa39b223fe8d0a0e5c4f27ead9083c756cc2",
      "contractAddress": null
    }
  ],
  "libraries": [],
  "pending": [],
  "returns": {},
  "timestamp": 1778452051624,
  "chain": 31337,
  "commit": "f87d399"
}