{
  "transactions": [
    {
      "hash": "0x5ccf50d4e31490413cb728b4d32959642d1d478bdba725e924e628d5c8e4380a",
      "transactionType": "CALL",
      "contractName": null,
      "contractAddress": "0xa5f104f8f78d5ba9aec4a383c0927337fd4e997b",
      "function": "setApprovalForAll(address,bool)",
      "arguments": [
        "0x8fA71914948544c60E3379064567DcF0E6564d27",
        "true"
      ],
      "transaction": {
        "from": "0x646dc5fc4009c4c84a424b6ae0f494b374bae1ce",
        "to": "0xa5f104f8f78d5ba9aec4a383c0927337fd4e997b",
        "gas": "0x10a82",
        "value": "0x0",
        "input": "0xa22cb4650000000000000000000000008fa71914948544c60e3379064567dcf0e6564d270000000000000000000000000000000000000000000000000000000000000001",
        "nonce": "0x3c",
        "chainId": "0x7a69"
      },
      "additionalContracts": [],
      "isFixedGasLimit": false
    },
    {
      "hash": "0x25f469d28a44b0df1d44d2428f5341491d13c20b4fbae630af44c2f393ad9a59",
      "transactionType": "CALL",
      "contractName": null,
      "contractAddress": "0xa5f104f8f78d5ba9aec4a383c0927337fd4e997b",
      "function": "setApprovalForAll(address,bool)",
      "arguments": [
        "0x8fA71914948544c60E3379064567DcF0E6564d27",
        "true"
      ],
      "transaction": {
        "from": "0x1302f142fc55b165647d3bd5dec227f569a2a907",
        "to": "0xa5f104f8f78d5ba9aec4a383c0927337fd4e997b",
        "gas": "0x10a82",
        "value": "0x0",
        "input": "0xa22cb4650000000000000000000000008fa71914948544c60e3379064567dcf0e6564d270000000000000000000000000000000000000000000000000000000000000001",
        "nonce": "0x31",
        "chainId": "0x7a69"
      },
      "additionalContracts": [],
      "isFixedGasLimit": false
    },
    {
      "hash": "0xfec4f2fbae15f6e8eb234d999c094bff929dbf3ed96a5a4889066d5473754d7f",
      "transactionType": "CALL",
      "contractName": null,
      "contractAddress": "0xa5f104f8f78d5ba9aec4a383c0927337fd4e997b",
      "function": "setApprovalForAll(address,bool)",
      "arguments": [
        "0x8fA71914948544c60E3379064567DcF0E6564d27",
        "true"
      ],
      "transaction": {
        "from": "0xe3745c151fab59b0740f4312b2b027f07d096639",
        "to": "0xa5f104f8f78d5ba9aec4a383c0927337fd4e997b",
        "gas": "0x10a82",
        "value": "0x0",
        "input": "0xa22cb4650000000000000000000000008fa71914948544c60e3379064567dcf0e6564d270000000000000000000000000000000000000000000000000000000000000001",
        "nonce": "0x44",
        "chainId": "0x7a69"
      },
      "additionalContracts": [],
      "isFixedGasLimit": false
    },
    {
      "hash": "0xc2ae3f8978f2d0cd56dfe2cc828a0f20ca75ca06847891bb239479be2ae600fc",
      "transactionType": "CALL",
      "contractName": null,
      "contractAddress": "0xa5f104f8f78d5ba9aec4a383c0927337fd4e997b",
      "function": "setApprovalForAll(address,bool)",
      "arguments": [
        "0x8fA71914948544c60E3379064567DcF0E6564d27",
        "true"
      ],
      "transaction": {
        "from": "0x2c2dba75492e0c4a1d10b41303167aec59586c9c",
        "to": "0xa5f104f8f78d5ba9aec4a383c0927337fd4e997b",
        "gas": "0x10a82",
        "value": "0x0",
        "input": "0xa22cb4650000000000000000000000008fa71914948544c60e3379064567dcf0e6564d270000000000000000000000000000000000000000000000000000000000000001",
        "nonce": "0x2d",
        "chainId": "0x7a69"
      },
      "additionalContracts": [],
      "isFixedGasLimit": false
    },
    {
      "hash": "0x0997e7dadbe65763052e4254212b8dfa70422660ca9973ec49c98641dcb7cd34",
      "transactionType": "CALL",
      "contractName": null,
      "contractAddress": "0xa5f104f8f78d5ba9aec4a383c0927337fd4e997b",
      "function": "setApprovalForAll(address,bool)",
      "arguments": [
        "0x8fA71914948544c60E3379064567DcF0E6564d27",
        "true"
      ],
      "transaction": {
        "from": "0x4b75aec40561c03e03d4d1c421df194a3031a134",
        "to": "0xa5f104f8f78d5ba9aec4a383c0927337fd4e997b",
        "gas": "0x10a82",
        "value": "0x0",
        "input": "0xa22cb4650000000000000000000000008fa71914948544c60e3379064567dcf0e6564d270000000000000000000000000000000000000000000000000000000000000001",
        "nonce": "0x25",
        "chainId": "0x7a69"
      },
      "additionalContracts": [],
      "isFixedGasLimit": false
    },
    {
      "hash": "0xafcfed11dce19312f4f8ce9002b2dea2dc446c0ef34a9d9aaa9ad45ea57f761d",
      "transactionType": "CALL",
      "contractName": null,
      "contractAddress": "0xa5f104f8f78d5ba9aec4a383c0927337fd4e997b",
      "function": "setApprovalForAll(address,bool)",
      "arguments": [
        "0x8fA71914948544c60E3379064567DcF0E6564d27",
        "true"
      ],
      "transaction": {
        "from": "0xe233420d38d286c2f2cf8dee6564f132fbdb09db",
        "to": "0xa5f104f8f78d5ba9aec4a383c0927337fd4e997b",
        "gas": "0x10a82",
        "value": "0x0",
        "input": "0xa22cb4650000000000000000000000008fa71914948544c60e3379064567dcf0e6564d270000000000000000000000000000000000000000000000000000000000000001",
        "nonce": "0x33",
        "chainId": "0x7a69"
      },
      "additionalContracts": [],
      "isFixedGasLimit": false
    },
    {
      "hash": "0xe217469001a6a4d26c319c170c436a4ba972175e89f996410caeb36020729cd4",
      "transactionType": "CALL",
      "contractName": null,
      "contractAddress": "0xa5f104f8f78d5ba9aec4a383c0927337fd4e997b",
      "function": "setApprovalForAll(address,bool)",
      "arguments": [
        "0x8fA71914948544c60E3379064567DcF0E6564d27",
        "true"
      ],
      "transaction": {
        "from": "0xc5adfc119364cfe2297e4414db04834d8702475b",
        "to": "0xa5f104f8f78d5ba9aec4a383c0927337fd4e997b",
        "gas": "0x10a82",
        "value": "0x0",
        "input": "0xa22cb4650000000000000000000000008fa71914948544c60e3379064567dcf0e6564d270000000000000000000000000000000000000000000000000000000000000001",
        "nonce": "0x32",
        "chainId": "0x7a69"
      },
      "additionalContracts": [],
      "isFixedGasLimit": false
    },
    {
      "hash": "0x7d147fd0f3b3705b1cb120ef06c44403a09384c9db725f065aabde292eb1d95e",
      "transactionType": "CALL",
      "contractName": null,
      "contractAddress": "0xa5f104f8f78d5ba9aec4a383c0927337fd4e997b",
      "function": "setApprovalForAll(address,bool)",
      "arguments": [
        "0x8fA71914948544c60E3379064567DcF0E6564d27",
        "true"
      ],
      "transaction": {
        "from": "0x08312e82df563a1639b81f49bb41247759700e30",
        "to": "0xa5f104f8f78d5ba9aec4a383c0927337fd4e997b",
        "gas": "0x10a82",
        "value": "0x0",
        "input": "0xa22cb4650000000000000000000000008fa71914948544c60e3379064567dcf0e6564d270000000000000000000000000000000000000000000000000000000000000001",
        "nonce": "0x38",
        "chainId": "0x7a69"
      },
      "additionalContracts": [],
      "isFixedGasLimit": false
    },
    {
      "hash": "0x5491a2b49f8469a14866c87c4947df48d8e306173d54616e67fe9446d2359e5f",
      "transactionType": "CALL",
      "contractName": null,
      "contractAddress": "0xa5f104f8f78d5ba9aec4a383c0927337fd4e997b",
      "function": "setApprovalForAll(address,bool)",
      "arguments": [
        "0x8fA71914948544c60E3379064567DcF0E6564d27",
        "true"
      ],
      "transaction": {
        "from": "0xcbe5659df21cbcfabe4da962f7a9081f26b3ed82",
        "to": "0xa5f104f8f78d5ba9aec4a383c0927337fd4e997b",
        "gas": "0x10a82",
        "value": "0x0",
        "input": "0xa22cb4650000000000000000000000008fa71914948544c60e3379064567dcf0e6564d270000000000000000000000000000000000000000000000000000000000000001",
        "nonce": "0x3b",
        "chainId": "0x7a69"
      },
      "additionalContracts": [],
      "isFixedGasLimit": false
    },
    {
      "hash": "0x2727f4b9c7487f853f68d8fa760e00829bc6a44d1a7f8fa62c9e3c3018fb5615",
      "transactionType": "CALL",
      "contractName": null,
      "contractAddress": "0xa5f104f8f78d5ba9aec4a383c0927337fd4e997b",
      "function": "setApprovalForAll(address,bool)",
      "arguments": [
        "0x8fA71914948544c60E3379064567DcF0E6564d27",
        "true"
      ],
      "transaction": {
        "from": "0xa382b0e75c192d9cdf5c084e58b750cea7761bd0",
        "to": "0xa5f104f8f78d5ba9aec4a383c0927337fd4e997b",
        "gas": "0x10a82",
        "value": "0x0",
        "input": "0xa22cb4650000000000000000000000008fa71914948544c60e3379064567dcf0e6564d270000000000000000000000000000000000000000000000000000000000000001",
        "nonce": "0x25",
        "chainId": "0x7a69"
      },
      "additionalContracts": [],
      "isFixedGasLimit": false
    },
    {
      "hash": "0xb5229b0b96c77a76e2cb541bdf067110f3e9121d87287b10ea0143a8b178b759",
      "transactionType": "CALL",
      "contractName": null,
      "contractAddress": "0xc02aaa39b223fe8d0a0e5c4f27ead9083c756cc2",
      "function": "approve(address,uint256)",
      "arguments": [
        "0x8fA71914948544c60E3379064567DcF0E6564d27",
        "115792089237316195423570985008687907853269984665640564039457584007913129639935"
      ],
      "transaction": {
        "from": "0x646dc5fc4009c4c84a424b6ae0f494b374bae1ce",
        "to": "0xc02aaa39b223fe8d0a0e5c4f27ead9083c756cc2",
        "gas": "0xfa27",
        "value": "0x0",
        "input": "0x095ea7b30000000000000000000000008fa71914948544c60e3379064567dcf0e6564d27ffffffffffffffffffffffffffffffffffffffffffffffffffffffffffffffff",
        "nonce": "0x3d",
        "chainId": "0x7a69"
      },
      "additionalContracts": [],
      "isFixedGasLimit": false
    },
    {
      "hash": "0x159fbf2d0ac80b88c7dc3342151805d62288c98d66fca217ac329f81e441c943",
      "transactionType": "CALL",
      "contractName": null,
      "contractAddress": "0xc02aaa39b223fe8d0a0e5c4f27ead9083c756cc2",
      "function": "approve(address,uint256)",
      "arguments": [
        "0x8fA71914948544c60E3379064567DcF0E6564d27",
        "115792089237316195423570985008687907853269984665640564039457584007913129639935"
      ],
      "transaction": {
        "from": "0x1302f142fc55b165647d3bd5dec227f569a2a907",
        "to": "0xc02aaa39b223fe8d0a0e5c4f27ead9083c756cc2",
        "gas": "0xfa27",
        "value": "0x0",
        "input": "0x095ea7b30000000000000000000000008fa71914948544c60e3379064567dcf0e6564d27ffffffffffffffffffffffffffffffffffffffffffffffffffffffffffffffff",
        "nonce": "0x32",
        "chainId": "0x7a69"
      },
      "additionalContracts": [],
      "isFixedGasLimit": false
    },
    {
      "hash": "0x88bbc9ea3228c3fa0eeceb382439879fc3d16abc339ef46cd69e297666caa45b",
      "transactionType": "CALL",
      "contractName": null,
      "contractAddress": "0xc02aaa39b223fe8d0a0e5c4f27ead9083c756cc2",
      "function": "approve(address,uint256)",
      "arguments": [
        "0x8fA71914948544c60E3379064567DcF0E6564d27",
        "115792089237316195423570985008687907853269984665640564039457584007913129639935"
      ],
      "transaction": {
        "from": "0xe3745c151fab59b0740f4312b2b027f07d096639",
        "to": "0xc02aaa39b223fe8d0a0e5c4f27ead9083c756cc2",
        "gas": "0xfa27",
        "value": "0x0",
        "input": "0x095ea7b30000000000000000000000008fa71914948544c60e3379064567dcf0e6564d27ffffffffffffffffffffffffffffffffffffffffffffffffffffffffffffffff",
        "nonce": "0x45",
        "chainId": "0x7a69"
      },
      "additionalContracts": [],
      "isFixedGasLimit": false
    },
    {
      "hash": "0x7c2c219750db3768d8b6b0c64a3d72825f86f09009c534478f893fa14e76f7ff",
      "transactionType": "CALL",
      "contractName": null,
      "contractAddress": "0xc02aaa39b223fe8d0a0e5c4f27ead9083c756cc2",
      "function": "approve(address,uint256)",
      "arguments": [
        "0x8fA71914948544c60E3379064567DcF0E6564d27",
        "115792089237316195423570985008687907853269984665640564039457584007913129639935"
      ],
      "transaction": {
        "from": "0x2c2dba75492e0c4a1d10b41303167aec59586c9c",
        "to": "0xc02aaa39b223fe8d0a0e5c4f27ead9083c756cc2",
        "gas": "0xfa27",
        "value": "0x0",
        "input": "0x095ea7b30000000000000000000000008fa71914948544c60e3379064567dcf0e6564d27ffffffffffffffffffffffffffffffffffffffffffffffffffffffffffffffff",
        "nonce": "0x2e",
        "chainId": "0x7a69"
      },
      "additionalContracts": [],
      "isFixedGasLimit": false
    },
    {
      "hash": "0x3b9aa4c5e7b29d2d7c621ea2979c0b8f587232c9e22777458471df65cc9374ac",
      "transactionType": "CALL",
      "contractName": null,
      "contractAddress": "0xc02aaa39b223fe8d0a0e5c4f27ead9083c756cc2",
      "function": "approve(address,uint256)",
      "arguments": [
        "0x8fA71914948544c60E3379064567DcF0E6564d27",
        "115792089237316195423570985008687907853269984665640564039457584007913129639935"
      ],
      "transaction": {
        "from": "0x4b75aec40561c03e03d4d1c421df194a3031a134",
        "to": "0xc02aaa39b223fe8d0a0e5c4f27ead9083c756cc2",
        "gas": "0xfa27",
        "value": "0x0",
        "input": "0x095ea7b30000000000000000000000008fa71914948544c60e3379064567dcf0e6564d27ffffffffffffffffffffffffffffffffffffffffffffffffffffffffffffffff",
        "nonce": "0x26",
        "chainId": "0x7a69"
      },
      "additionalContracts": [],
      "isFixedGasLimit": false
    },
    {
      "hash": "0x821d67a18214794fab086d1cf4a3ad2aad557d23624c4c1a2afdeaf3314c8739",
      "transactionType": "CALL",
      "contractName": null,
      "contractAddress": "0xc02aaa39b223fe8d0a0e5c4f27ead9083c756cc2",
      "function": "approve(address,uint256)",
      "arguments": [
        "0x8fA71914948544c60E3379064567DcF0E6564d27",
        "115792089237316195423570985008687907853269984665640564039457584007913129639935"
      ],
      "transaction": {
        "from": "0xe233420d38d286c2f2cf8dee6564f132fbdb09db",
        "to": "0xc02aaa39b223fe8d0a0e5c4f27ead9083c756cc2",
        "gas": "0xfa27",
        "value": "0x0",
        "input": "0x095ea7b30000000000000000000000008fa71914948544c60e3379064567dcf0e6564d27ffffffffffffffffffffffffffffffffffffffffffffffffffffffffffffffff",
        "nonce": "0x34",
        "chainId": "0x7a69"
      },
      "additionalContracts": [],
      "isFixedGasLimit": false
    },
    {
      "hash": "0xf4e9ba5ce60c4373fd5c20be239af1ebde5a894c2a1fa10461715d14726dc043",
      "transactionType": "CALL",
      "contractName": null,
      "contractAddress": "0xc02aaa39b223fe8d0a0e5c4f27ead9083c756cc2",
      "function": "approve(address,uint256)",
      "arguments": [
        "0x8fA71914948544c60E3379064567DcF0E6564d27",
        "115792089237316195423570985008687907853269984665640564039457584007913129639935"
      ],
      "transaction": {
        "from": "0xc5adfc119364cfe2297e4414db04834d8702475b",
        "to": "0xc02aaa39b223fe8d0a0e5c4f27ead9083c756cc2",
        "gas": "0xfa27",
        "value": "0x0",
        "input": "0x095ea7b30000000000000000000000008fa71914948544c60e3379064567dcf0e6564d27ffffffffffffffffffffffffffffffffffffffffffffffffffffffffffffffff",
        "nonce": "0x33",
        "chainId": "0x7a69"
      },
      "additionalContracts": [],
      "isFixedGasLimit": false
    },
    {
      "hash": "0x86065348dcbf3afd1044efcca68573816fb3d7ef47a74fd9dedcfa6ecb921cb8",
      "transactionType": "CALL",
      "contractName": null,
      "contractAddress": "0xc02aaa39b223fe8d0a0e5c4f27ead9083c756cc2",
      "function": "approve(address,uint256)",
      "arguments": [
        "0x8fA71914948544c60E3379064567DcF0E6564d27",
        "115792089237316195423570985008687907853269984665640564039457584007913129639935"
      ],
      "transaction": {
        "from": "0x08312e82df563a1639b81f49bb41247759700e30",
        "to": "0xc02aaa39b223fe8d0a0e5c4f27ead9083c756cc2",
        "gas": "0xfa27",
        "value": "0x0",
        "input": "0x095ea7b30000000000000000000000008fa71914948544c60e3379064567dcf0e6564d27ffffffffffffffffffffffffffffffffffffffffffffffffffffffffffffffff",
        "nonce": "0x39",
        "chainId": "0x7a69"
      },
      "additionalContracts": [],
      "isFixedGasLimit": false
    },
    {
      "hash": "0xff66f5332a2520d320be7151f529ffe5d4b18004848e8ab7c7374c7f33ac5741",
      "transactionType": "CALL",
      "contractName": null,
      "contractAddress": "0xc02aaa39b223fe8d0a0e5c4f27ead9083c756cc2",
      "function": "approve(address,uint256)",
      "arguments": [
        "0x8fA71914948544c60E3379064567DcF0E6564d27",
        "115792089237316195423570985008687907853269984665640564039457584007913129639935"
      ],
      "transaction": {
        "from": "0xcbe5659df21cbcfabe4da962f7a9081f26b3ed82",
        "to": "0xc02aaa39b223fe8d0a0e5c4f27ead9083c756cc2",
        "gas": "0xfa27",
        "value": "0x0",
        "input": "0x095ea7b30000000000000000000000008fa71914948544c60e3379064567dcf0e6564d27ffffffffffffffffffffffffffffffffffffffffffffffffffffffffffffffff",
        "nonce": "0x3c",
        "chainId": "0x7a69"
      },
      "additionalContracts": [],
      "isFixedGasLimit": false
    },
    {
      "hash": "0x93503e7469a396096e22c5ed07afcbe1150eaafb70a25cebd67faa904ea8aea7",
      "transactionType": "CALL",
      "contractName": null,
      "contractAddress": "0xc02aaa39b223fe8d0a0e5c4f27ead9083c756cc2",
      "function": "approve(address,uint256)",
      "arguments": [
        "0x8fA71914948544c60E3379064567DcF0E6564d27",
        "115792089237316195423570985008687907853269984665640564039457584007913129639935"
      ],
      "transaction": {
        "from": "0xa382b0e75c192d9cdf5c084e58b750cea7761bd0",
        "to": "0xc02aaa39b223fe8d0a0e5c4f27ead9083c756cc2",
        "gas": "0xfa27",
        "value": "0x0",
        "input": "0x095ea7b30000000000000000000000008fa71914948544c60e3379064567dcf0e6564d27ffffffffffffffffffffffffffffffffffffffffffffffffffffffffffffffff",
        "nonce": "0x26",
        "chainId": "0x7a69"
      },
      "additionalContracts": [],
      "isFixedGasLimit": false
    }
  ],
  "receipts": [
    {
      "status": "0x1",
      "cumulativeGasUsed": "0xb63b",
      "logs": [
        {
          "address": "0xa5f104f8f78d5ba9aec4a383c0927337fd4e997b",
          "topics": [
            "0x17307eab39ab6107e8899845ad3d59bd9653f200f220920489ca2b5937696c31",
            "0x000000000000000000000000646dc5fc4009c4c84a424b6ae0f494b374bae1ce",
            "0x0000000000000000000000008fa71914948544c60e3379064567dcf0e6564d27"
          ],
          "data": "0x0000000000000000000000000000000000000000000000000000000000000001",
          "blockHash": "0x4d8963d19bd3c68abeae6af416515448b0402ba9f468db39d7029f0c48e6a41a",
          "blockNumber": "0x17b70fe",
          "blockTimestamp": "0x69dc17a6",
          "transactionHash": "0x5ccf50d4e31490413cb728b4d32959642d1d478bdba725e924e628d5c8e4380a",
          "transactionIndex": "0x0",
          "logIndex": "0x0",
          "removed": false
        }
      ],
      "logsBloom": "0x00000000000000000000000000000000000000000002000000000000000000000000000000000000000000000000000000000000010000000000000000000000000000000000000080000000000000000000000200000000080000000000000002000000000000000004000000000000000000000000000000000000000000000000000000000000000000000000000000000000000000000000000000000000000000200000000400000000000000000000000000000000000000000000000000000000000000000200000000000000000000000000000000000000000000000000200800000000000000000000000000000000000000000000000000000000",
      "type": "0x2",
      "transactionHash": "0x5ccf50d4e31490413cb728b4d32959642d1d478bdba725e924e628d5c8e4380a",
      "transactionIndex": "0x0",
      "blockHash": "0x4d8963d19bd3c68abeae6af416515448b0402ba9f468db39d7029f0c48e6a41a",
      "blockNumber": "0x17b70fe",
      "gasUsed": "0xb63b",
      "effectiveGasPrice": "0x154c2b",
      "blobGasPrice": "0x1",
      "from": "0x646dc5fc4009c4c84a424b6ae0f494b374bae1ce",
      "to": "0xa5f104f8f78d5ba9aec4a383c0927337fd4e997b",
      "contractAddress": null
    },
    {
      "status": "0x1",
      "cumulativeGasUsed": "0xb63b",
      "logs": [
        {
          "address": "0xa5f104f8f78d5ba9aec4a383c0927337fd4e997b",
          "topics": [
            "0x17307eab39ab6107e8899845ad3d59bd9653f200f220920489ca2b5937696c31",
            "0x0000000000000000000000001302f142fc55b165647d3bd5dec227f569a2a907",
            "0x0000000000000000000000008fa71914948544c60e3379064567dcf0e6564d27"
          ],
          "data": "0x0000000000000000000000000000000000000000000000000000000000000001",
          "blockHash": "0x01d03eaa03c40ee6e31e2187fab426d4dc1dfdbf9beee94f33b84b5ad1431b96",
          "blockNumber": "0x17b70ff",
          "blockTimestamp": "0x69dc17a6",
          "transactionHash": "0x25f469d28a44b0df1d44d2428f5341491d13c20b4fbae630af44c2f393ad9a59",
          "transactionIndex": "0x0",
          "logIndex": "0x0",
          "removed": false
        }
      ],
      "logsBloom": "0x00000000000000000000000000000000000000000000000000000000000000000000000000000000000000000000000000000000000000000000000000000000000000000000000080000000000000000000000200000000080000000000000002000000000000000000000000000000000000000000000000000000000000000000000000000000000000000000000000000000000000000000000000000000000000200000000400000000000100000000000000000000000000000000000000000000000000000200000200000000000000000000000000000000000000000000200800000000000040000000000000000000000000000000000000000000",
      "type": "0x2",
      "transactionHash": "0x25f469d28a44b0df1d44d2428f5341491d13c20b4fbae630af44c2f393ad9a59",
      "transactionIndex": "0x0",
      "blockHash": "0x01d03eaa03c40ee6e31e2187fab426d4dc1dfdbf9beee94f33b84b5ad1431b96",
      "blockNumber": "0x17b70ff",
      "gasUsed": "0xb63b",
      "effectiveGasPrice": "0x154c2b",
      "blobGasPrice": "0x1",
      "from": "0x1302f142fc55b165647d3bd5dec227f569a2a907",
      "to": "0xa5f104f8f78d5ba9aec4a383c0927337fd4e997b",
      "contractAddress": null
    },
    {
      "status": "0x1",
      "cumulativeGasUsed": "0xb63b",
      "logs": [
        {
          "address": "0xa5f104f8f78d5ba9aec4a383c0927337fd4e997b",
          "topics": [
            "0x17307eab39ab6107e8899845ad3d59bd9653f200f220920489ca2b5937696c31",
            "0x000000000000000000000000e3745c151fab59b0740f4312b2b027f07d096639",
            "0x0000000000000000000000008fa71914948544c60e3379064567dcf0e6564d27"
          ],
          "data": "0x0000000000000000000000000000000000000000000000000000000000000001",
          "blockHash": "0x2da6d09fc255e5569b74a880805c3cd7a63a5ef764d5fb85ff35cf00a7baf975",
          "blockNumber": "0x17b7100",
          "blockTimestamp": "0x69dc17a6",
          "transactionHash": "0xfec4f2fbae15f6e8eb234d999c094bff929dbf3ed96a5a4889066d5473754d7f",
          "transactionIndex": "0x0",
          "logIndex": "0x0",
          "removed": false
        }
      ],
      "logsBloom": "0x00000000000000000000000000000000000000000100000000000000000000000000000000000000000000000000000040000000000000000000000000000000000000000000000080000000000000000000000200000000080000000000000002000000000000000000000000000000000000000000000000000000000000000000000000000000000000000000000000000000000000000000000000000000000000200000000400000000000000000000000000000000000000000000000000000000000000000200000000000000000000000000000000000040000000000000200800000000000000000000000000000000000000000000000000000000",
      "type": "0x2",
      "transactionHash": "0xfec4f2fbae15f6e8eb234d999c094bff929dbf3ed96a5a4889066d5473754d7f",
      "transactionIndex": "0x0",
      "blockHash": "0x2da6d09fc255e5569b74a880805c3cd7a63a5ef764d5fb85ff35cf00a7baf975",
      "blockNumber": "0x17b7100",
      "gasUsed": "0xb63b",
      "effectiveGasPrice": "0x154c2b",
      "blobGasPrice": "0x1",
      "from": "0xe3745c151fab59b0740f4312b2b027f07d096639",
      "to": "0xa5f104f8f78d5ba9aec4a383c0927337fd4e997b",
      "contractAddress": null
    },
    {
      "status": "0x1",
      "cumulativeGasUsed": "0xb63b",
      "logs": [
        {
          "address": "0xa5f104f8f78d5ba9aec4a383c0927337fd4e997b",
          "topics": [
            "0x17307eab39ab6107e8899845ad3d59bd9653f200f220920489ca2b5937696c31",
            "0x0000000000000000000000002c2dba75492e0c4a1d10b41303167aec59586c9c",
            "0x0000000000000000000000008fa71914948544c60e3379064567dcf0e6564d27"
          ],
          "data": "0x0000000000000000000000000000000000000000000000000000000000000001",
          "blockHash": "0x9041f5814e8120626121f3010b84e550980a23e33b9b02041e20b8064b8a8397",
          "blockNumber": "0x17b7101",
          "blockTimestamp": "0x69dc17a6",
          "transactionHash": "0xc2ae3f8978f2d0cd56dfe2cc828a0f20ca75ca06847891bb239479be2ae600fc",
          "transactionIndex": "0x0",
          "logIndex": "0x0",
          "removed": false
        }
      ],
      "logsBloom": "0x00000000000000000000000000000000000000000000000000000000000000000000000000000000000000000000000000000000000000000000000800000000000200000000000080000000000000000000000200000000080000000000000002000000000004000000000000000000000000000000000000000000000000000000000000000000000000000000000000000000000000000000000000000000000000200000000400000000000000000000000000000000000000000000000000000000000000000200000000000000000000000000000000000000000000000000200800000000000000000000000000000000000000000000000000000000",
      "type": "0x2",
      "transactionHash": "0xc2ae3f8978f2d0cd56dfe2cc828a0f20ca75ca06847891bb239479be2ae600fc",
      "transactionIndex": "0x0",
      "blockHash": "0x9041f5814e8120626121f3010b84e550980a23e33b9b02041e20b8064b8a8397",
      "blockNumber": "0x17b7101",
      "gasUsed": "0xb63b",
      "effectiveGasPrice": "0x154c2b",
      "blobGasPrice": "0x1",
      "from": "0x2c2dba75492e0c4a1d10b41303167aec59586c9c",
      "to": "0xa5f104f8f78d5ba9aec4a383c0927337fd4e997b",
      "contractAddress": null
    },
    {
      "status": "0x1",
      "cumulativeGasUsed": "0xb63b",
      "logs": [
        {
          "address": "0xa5f104f8f78d5ba9aec4a383c0927337fd4e997b",
          "topics": [
            "0x17307eab39ab6107e8899845ad3d59bd9653f200f220920489ca2b5937696c31",
            "0x0000000000000000000000004b75aec40561c03e03d4d1c421df194a3031a134",
            "0x0000000000000000000000008fa71914948544c60e3379064567dcf0e6564d27"
          ],
          "data": "0x0000000000000000000000000000000000000000000000000000000000000001",
          "blockHash": "0x76d7d6784485d2a1eec0b02e770f00ab6aeb7aeaa612a1c3b504baf8fc604371",
          "blockNumber": "0x17b7102",
          "blockTimestamp": "0x69dc17a6",
          "transactionHash": "0x0997e7dadbe65763052e4254212b8dfa70422660ca9973ec49c98641dcb7cd34",
          "transactionIndex": "0x0",
          "logIndex": "0x0",
          "removed": false
        }
      ],
      "logsBloom": "0x00000000000000000000000000000000000000000000000000000000000000000000000000000000000000000000000000000000000000000000000000000000000000000000000080000000000000000000000200000000080000000000000002000000000000000000000000000000000000000000000000000000000000000000000000000000000000000000000000000000000000000000000000002000000000200000000400000000000400000000000000000000020000000000000000000000000000000200000000000000000000000000000000000000000000000000200800000000000000000000000000000000000000000000000000000000",
      "type": "0x2",
      "transactionHash": "0x0997e7dadbe65763052e4254212b8dfa70422660ca9973ec49c98641dcb7cd34",
      "transactionIndex": "0x0",
      "blockHash": "0x76d7d6784485d2a1eec0b02e770f00ab6aeb7aeaa612a1c3b504baf8fc604371",
      "blockNumber": "0x17b7102",
      "gasUsed": "0xb63b",
      "effectiveGasPrice": "0x154c2b",
      "blobGasPrice": "0x1",
      "from": "0x4b75aec40561c03e03d4d1c421df194a3031a134",
      "to": "0xa5f104f8f78d5ba9aec4a383c0927337fd4e997b",
      "contractAddress": null
    },
    {
      "status": "0x1",
      "cumulativeGasUsed": "0xb63b",
      "logs": [
        {
          "address": "0xa5f104f8f78d5ba9aec4a383c0927337fd4e997b",
          "topics": [
            "0x17307eab39ab6107e8899845ad3d59bd9653f200f220920489ca2b5937696c31",
            "0x000000000000000000000000e233420d38d286c2f2cf8dee6564f132fbdb09db",
            "0x0000000000000000000000008fa71914948544c60e3379064567dcf0e6564d27"
          ],
          "data": "0x0000000000000000000000000000000000000000000000000000000000000001",
          "blockHash": "0xae282308aafee60e47dc2af9c4cf3f15c0f40c6558d4dc5198ea7c1f8e096b1f",
          "blockNumber": "0x17b7103",
          "blockTimestamp": "0x69dc17a6",
          "transactionHash": "0xafcfed11dce19312f4f8ce9002b2dea2dc446c0ef34a9d9aaa9ad45ea57f761d",
          "transactionIndex": "0x0",
          "logIndex": "0x0",
          "removed": false
        }
      ],
      "logsBloom": "0x00000000000000000000000000000000000000000000000000000000000000000000000000000000000000000000000000000000000000000000000000000000000000000000000080000000000000000000000200000000080000000000000002000001000000000000000000000000000000000000000000000000000000000000000000000000000000000000000000000000000000000000000000000000000000200000000400000000000000000000000000000000000000000000000000000010000000000200000000000000000000000002000000000000000000000000200800000000000000000000000000000000000000000000000000000000",
      "type": "0x2",
      "transactionHash": "0xafcfed11dce19312f4f8ce9002b2dea2dc446c0ef34a9d9aaa9ad45ea57f761d",
      "transactionIndex": "0x0",
      "blockHash": "0xae282308aafee60e47dc2af9c4cf3f15c0f40c6558d4dc5198ea7c1f8e096b1f",
      "blockNumber": "0x17b7103",
      "gasUsed": "0xb63b",
      "effectiveGasPrice": "0x154c2b",
      "blobGasPrice": "0x1",
      "from": "0xe233420d38d286c2f2cf8dee6564f132fbdb09db",
      "to": "0xa5f104f8f78d5ba9aec4a383c0927337fd4e997b",
      "contractAddress": null
    },
    {
      "status": "0x1",
      "cumulativeGasUsed": "0xb63b",
      "logs": [
        {
          "address": "0xa5f104f8f78d5ba9aec4a383c0927337fd4e997b",
          "topics": [
            "0x17307eab39ab6107e8899845ad3d59bd9653f200f220920489ca2b5937696c31",
            "0x000000000000000000000000c5adfc119364cfe2297e4414db04834d8702475b",
            "0x0000000000000000000000008fa71914948544c60e3379064567dcf0e6564d27"
          ],
          "data": "0x0000000000000000000000000000000000000000000000000000000000000001",
          "blockHash": "0x9d007f8a9ecaf254cff35c1eb0bb92e9641f9763bec1b3e6224970dd2364357a",
          "blockNumber": "0x17b7104",
          "blockTimestamp": "0x69dc17a6",
          "transactionHash": "0xe217469001a6a4d26c319c170c436a4ba972175e89f996410caeb36020729cd4",
          "transactionIndex": "0x0",
          "logIndex": "0x0",
          "removed": false
        }
      ],
      "logsBloom": "0x00000000000000000000000000000000000000000000000000000000000000000000000000000000000000000000000000000000000000000000000000000000000000000000000080000000000000000000000200000000080000000000000202000000000000000000000000000000000000000000000000000000000000000000000000000000000000000000000000000000000000000000000000000000000000200000000400000000000020000000000000000000000000000000000000000000000000000200000000000000000000000000000000000000000000000000200800000000000000000000000000000000000000002000000000000000",
      "type": "0x2",
      "transactionHash": "0xe217469001a6a4d26c319c170c436a4ba972175e89f996410caeb36020729cd4",
      "transactionIndex": "0x0",
      "blockHash": "0x9d007f8a9ecaf254cff35c1eb0bb92e9641f9763bec1b3e6224970dd2364357a",
      "blockNumber": "0x17b7104",
      "gasUsed": "0xb63b",
      "effectiveGasPrice": "0x154c2b",
      "blobGasPrice": "0x1",
      "from": "0xc5adfc119364cfe2297e4414db04834d8702475b",
      "to": "0xa5f104f8f78d5ba9aec4a383c0927337fd4e997b",
      "contractAddress": null
    },
    {
      "status": "0x1",
      "cumulativeGasUsed": "0xb63b",
      "logs": [
        {
          "address": "0xa5f104f8f78d5ba9aec4a383c0927337fd4e997b",
          "topics": [
            "0x17307eab39ab6107e8899845ad3d59bd9653f200f220920489ca2b5937696c31",
            "0x00000000000000000000000008312e82df563a1639b81f49bb41247759700e30",
            "0x0000000000000000000000008fa71914948544c60e3379064567dcf0e6564d27"
          ],
          "data": "0x0000000000000000000000000000000000000000000000000000000000000001",
          "blockHash": "0xf85e55dc39127c038a211ab93a3659c9c62852624299876f0ae876653a7bf8b3",
          "blockNumber": "0x17b7105",
          "blockTimestamp": "0x69dc17a6",
          "transactionHash": "0x7d147fd0f3b3705b1cb120ef06c44403a09384c9db725f065aabde292eb1d95e",
          "transactionIndex": "0x0",
          "logIndex": "0x0",
          "removed": false
        }
      ],
      "logsBloom": "0x00000000000000000000000001000000000000000000000000000000000000000000000000100000000000000000000000000000000000000000000000000000000000000000000080000000000000000000000200000000080000000000000002000000000000000000000000000000000000000000000000000000000000000000000000000000000000000000000000000000000000000000000000000000000000200000000400000000000000000000000000000000000000000000000000000000000000000200000000000000000000000000000000000000000000000000200800000000000000000000000000000000004000000000000000000000",
      "type": "0x2",
      "transactionHash": "0x7d147fd0f3b3705b1cb120ef06c44403a09384c9db725f065aabde292eb1d95e",
      "transactionIndex": "0x0",
      "blockHash": "0xf85e55dc39127c038a211ab93a3659c9c62852624299876f0ae876653a7bf8b3",
      "blockNumber": "0x17b7105",
      "gasUsed": "0xb63b",
      "effectiveGasPrice": "0x154c2b",
      "blobGasPrice": "0x1",
      "from": "0x08312e82df563a1639b81f49bb41247759700e30",
      "to": "0xa5f104f8f78d5ba9aec4a383c0927337fd4e997b",
      "contractAddress": null
    },
    {
      "status": "0x1",
      "cumulativeGasUsed": "0xb63b",
      "logs": [
        {
          "address": "0xa5f104f8f78d5ba9aec4a383c0927337fd4e997b",
          "topics": [
            "0x17307eab39ab6107e8899845ad3d59bd9653f200f220920489ca2b5937696c31",
            "0x000000000000000000000000cbe5659df21cbcfabe4da962f7a9081f26b3ed82",
            "0x0000000000000000000000008fa71914948544c60e3379064567dcf0e6564d27"
          ],
          "data": "0x0000000000000000000000000000000000000000000000000000000000000001",
          "blockHash": "0x50c0ee01aff9ccd4a8e83b65fd6f589529090deeaa026b86e8af077c7ba0286e",
          "blockNumber": "0x17b7106",
          "blockTimestamp": "0x69dc17a6",
          "transactionHash": "0x5491a2b49f8469a14866c87c4947df48d8e306173d54616e67fe9446d2359e5f",
          "transactionIndex": "0x0",
          "logIndex": "0x0",
          "removed": false
        }
      ],
      "logsBloom": "0x00000000000000000000000000000000000000000000000000000000000000000000000000000000000000000000000000000000000000000000000000000000000000000000000080000000000000000000000200000000080000000000000002000000000000000000000000000000000000000000000000000000000000000000000000000000000000000000000000000000000000000000000000000000000000200000000400000000000000000000000000000000000000000000000000000000000000000600000000000000000000000000020000000000000000000000200800000000000000000000000000000000004000000000000000000000",
      "type": "0x2",
      "transactionHash": "0x5491a2b49f8469a14866c87c4947df48d8e306173d54616e67fe9446d2359e5f",
      "transactionIndex": "0x0",
      "blockHash": "0x50c0ee01aff9ccd4a8e83b65fd6f589529090deeaa026b86e8af077c7ba0286e",
      "blockNumber": "0x17b7106",
      "gasUsed": "0xb63b",
      "effectiveGasPrice": "0x154c2b",
      "blobGasPrice": "0x1",
      "from": "0xcbe5659df21cbcfabe4da962f7a9081f26b3ed82",
      "to": "0xa5f104f8f78d5ba9aec4a383c0927337fd4e997b",
      "contractAddress": null
    },
    {
      "status": "0x1",
      "cumulativeGasUsed": "0xb63b",
      "logs": [
        {
          "address": "0xa5f104f8f78d5ba9aec4a383c0927337fd4e997b",
          "topics": [
            "0x17307eab39ab6107e8899845ad3d59bd9653f200f220920489ca2b5937696c31",
            "0x000000000000000000000000a382b0e75c192d9cdf5c084e58b750cea7761bd0",
            "0x0000000000000000000000008fa71914948544c60e3379064567dcf0e6564d27"
          ],
          "data": "0x0000000000000000000000000000000000000000000000000000000000000001",
          "blockHash": "0x82c30bf741228e650ca1c4017eef94ebd51b47ce6cf15e4d4596fc897e8e3f4a",
          "blockNumber": "0x17b7107",
          "blockTimestamp": "0x69dc17a6",
          "transactionHash": "0x2727f4b9c7487f853f68d8fa760e00829bc6a44d1a7f8fa62c9e3c3018fb5615",
          "transactionIndex": "0x0",
          "logIndex": "0x0",
          "removed": false
        }
      ],
      "logsBloom": "0x00000000000000000000000000000000000000000000000000000000000000000000000000000000000000000000000000000000000000000000000000000000000000000000000080000000000000000000000200000000080000000000000002000000000000000000000000000000000000000000040000000000000000000000000000000000000000000000000000100000000000000000000000000000000000200000000400000000000000000000000000000000000000000000000000000000000000000200000000000000000000000000000000000000000000000000200800000000000000000000000000000000100000000000000000000000",
      "type": "0x2",
      "transactionHash": "0x2727f4b9c7487f853f68d8fa760e00829bc6a44d1a7f8fa62c9e3c3018fb5615",
      "transactionIndex": "0x0",
      "blockHash": "0x82c30bf741228e650ca1c4017eef94ebd51b47ce6cf15e4d4596fc897e8e3f4a",
      "blockNumber": "0x17b7107",
      "gasUsed": "0xb63b",
      "effectiveGasPrice": "0x154c2b",
      "blobGasPrice": "0x1",
      "from": "0xa382b0e75c192d9cdf5c084e58b750cea7761bd0",
      "to": "0xa5f104f8f78d5ba9aec4a383c0927337fd4e997b",
      "contractAddress": null
    },
    {
      "status": "0x1",
      "cumulativeGasUsed": "0xb51c",
      "logs": [
        {
          "address": "0xc02aaa39b223fe8d0a0e5c4f27ead9083c756cc2",
          "topics": [
            "0x8c5be1e5ebec7d5bd14f71427d1e84f3dd0314c0f7b2291e5b200ac8c7c3b925",
            "0x000000000000000000000000646dc5fc4009c4c84a424b6ae0f494b374bae1ce",
            "0x0000000000000000000000008fa71914948544c60e3379064567dcf0e6564d27"
          ],
          "data": "0xffffffffffffffffffffffffffffffffffffffffffffffffffffffffffffffff",
          "blockHash": "0x6acaa13c0eaced4137762ddd1183b790dd404ffaa688b937410b0b82a2c1ef5b",
          "blockNumber": "0x17b7108",
          "blockTimestamp": "0x69dc17a6",
          "transactionHash": "0xb5229b0b96c77a76e2cb541bdf067110f3e9121d87287b10ea0143a8b178b759",
          "transactionIndex": "0x0",
          "logIndex": "0x0",
          "removed": false
        }
      ],
      "logsBloom": "0x00000000000000000000000000000000000000000002000000000000000000000000000000000000000000000000000002000000090000000000000000200000000000000000000080000000000000000000000200000000000000000000000000000000000000000004000000000000000000000000000000000000000000000000000000000000000000000000000000000000000000000000000000000000020000000000000000000000000000000000000000000000000000000000000000000000000000000200000000000000000000000000000000000000000000000010200000000000000000000000000000000000000000000000000000000000",
      "type": "0x2",
      "transactionHash": "0xb5229b0b96c77a76e2cb541bdf067110f3e9121d87287b10ea0143a8b178b759",
      "transactionIndex": "0x0",
      "blockHash": "0x6acaa13c0eaced4137762ddd1183b790dd404ffaa688b937410b0b82a2c1ef5b",
      "blockNumber": "0x17b7108",
      "gasUsed": "0xb51c",
      "effectiveGasPrice": "0x154c2b",
      "blobGasPrice": "0x1",
      "from": "0x646dc5fc4009c4c84a424b6ae0f494b374bae1ce",
      "to": "0xc02aaa39b223fe8d0a0e5c4f27ead9083c756cc2",
      "contractAddress": null
    },
    {
      "status": "0x1",
      "cumulativeGasUsed": "0xb51c",
      "logs": [
        {
          "address": "0xc02aaa39b223fe8d0a0e5c4f27ead9083c756cc2",
          "topics": [
            "0x8c5be1e5ebec7d5bd14f71427d1e84f3dd0314c0f7b2291e5b200ac8c7c3b925",
            "0x0000000000000000000000001302f142fc55b165647d3bd5dec227f569a2a907",
            "0x0000000000000000000000008fa71914948544c60e3379064567dcf0e6564d27"
          ],
          "data": "0xffffffffffffffffffffffffffffffffffffffffffffffffffffffffffffffff",
          "blockHash": "0x524335df2ffed500b24cdb997d75f30fe81dd4a51c563baaeebcac56794d13d1",
          "blockNumber": "0x17b7109",
          "blockTimestamp": "0x69dc17a6",
          "transactionHash": "0x159fbf2d0ac80b88c7dc3342151805d62288c98d66fca217ac329f81e441c943",
          "transactionIndex": "0x0",
          "logIndex": "0x0",
          "removed": false
        }
      ],
      "logsBloom": "0x00000000000000000000000000000000000000000000000000000000000000000000000000000000000000000000000002000000080000000000000000200000000000000000000080000000000000000000000200000000000000000000000000000000000000000000000000000000000000000000000000000000000000000000000000000000000000000000000000000000000000000000000000000000020000000000000000000000000100000000000000000000000000000000000000000000000000000200000200000000000000000000000000000000000000000010200000000000000040000000000000000000000000000000000000000000",
      "type": "0x2",
      "transactionHash": "0x159fbf2d0ac80b88c7dc3342151805d62288c98d66fca217ac329f81e441c943",
      "transactionIndex": "0x0",
      "blockHash": "0x524335df2ffed500b24cdb997d75f30fe81dd4a51c563baaeebcac56794d13d1",
      "blockNumber": "0x17b7109",
      "gasUsed": "0xb51c",
      "effectiveGasPrice": "0x154c2b",
      "blobGasPrice": "0x1",
      "from": "0x1302f142fc55b165647d3bd5dec227f569a2a907",
      "to": "0xc02aaa39b223fe8d0a0e5c4f27ead9083c756cc2",
      "contractAddress": null
    },
    {
      "status": "0x1",
      "cumulativeGasUsed": "0xb51c",
      "logs": [
        {
          "address": "0xc02aaa39b223fe8d0a0e5c4f27ead9083c756cc2",
          "topics": [
            "0x8c5be1e5ebec7d5bd14f71427d1e84f3dd0314c0f7b2291e5b200ac8c7c3b925",
            "0x000000000000000000000000e3745c151fab59b0740f4312b2b027f07d096639",
            "0x0000000000000000000000008fa71914948544c60e3379064567dcf0e6564d27"
          ],
          "data": "0xffffffffffffffffffffffffffffffffffffffffffffffffffffffffffffffff",
          "blockHash": "0x544b4347f835ca60f59359a0e4043a929a1a92b4a01607a1c8c7c7b0b7c42439",
          "blockNumber": "0x17b710a",
          "blockTimestamp": "0x69dc17a6",
          "transactionHash": "0x88bbc9ea3228c3fa0eeceb382439879fc3d16abc339ef46cd69e297666caa45b",
          "transactionIndex": "0x0",
          "logIndex": "0x0",
          "removed": false
        }
      ],
      "logsBloom": "0x00000000000000000000000000000000000000000100000000000000000000000000000000000000000000000000000042000000080000000000000000200000000000000000000080000000000000000000000200000000000000000000000000000000000000000000000000000000000000000000000000000000000000000000000000000000000000000000000000000000000000000000000000000000020000000000000000000000000000000000000000000000000000000000000000000000000000000200000000000000000000000000000000000040000000000010200000000000000000000000000000000000000000000000000000000000",
      "type": "0x2",
      "transactionHash": "0x88bbc9ea3228c3fa0eeceb382439879fc3d16abc339ef46cd69e297666caa45b",
      "transactionIndex": "0x0",
      "blockHash": "0x544b4347f835ca60f59359a0e4043a929a1a92b4a01607a1c8c7c7b0b7c42439",
      "blockNumber": "0x17b710a",
      "gasUsed": "0xb51c",
      "effectiveGasPrice": "0x154c2b",
      "blobGasPrice": "0x1",
      "from": "0xe3745c151fab59b0740f4312b2b027f07d096639",
      "to": "0xc02aaa39b223fe8d0a0e5c4f27ead9083c756cc2",
      "contractAddress": null
    },
    {
      "status": "0x1",
      "cumulativeGasUsed": "0xb51c",
      "logs": [
        {
          "address": "0xc02aaa39b223fe8d0a0e5c4f27ead9083c756cc2",
          "topics": [
            "0x8c5be1e5ebec7d5bd14f71427d1e84f3dd0314c0f7b2291e5b200ac8c7c3b925",
            "0x0000000000000000000000002c2dba75492e0c4a1d10b41303167aec59586c9c",
            "0x0000000000000000000000008fa71914948544c60e3379064567dcf0e6564d27"
          ],
          "data": "0xffffffffffffffffffffffffffffffffffffffffffffffffffffffffffffffff",
          "blockHash": "0x397892ec5b98c46967c8d220a9a851bcb14437b0207623e1c5cf0f021f56984b",
          "blockNumber": "0x17b710b",
          "blockTimestamp": "0x69dc17a6",
          "transactionHash": "0x7c2c219750db3768d8b6b0c64a3d72825f86f09009c534478f893fa14e76f7ff",
          "transactionIndex": "0x0",
          "logIndex": "0x0",
          "removed": false
        }
      ],
      "logsBloom": "0x00000000000000000000000000000000000000000000000000000000000000000000000000000000000000000000000002000000080000000000000800200000000200000000000080000000000000000000000200000000000000000000000000000000000004000000000000000000000000000000000000000000000000000000000000000000000000000000000000000000000000000000000000000000020000000000000000000000000000000000000000000000000000000000000000000000000000000200000000000000000000000000000000000000000000000010200000000000000000000000000000000000000000000000000000000000",
      "type": "0x2",
      "transactionHash": "0x7c2c219750db3768d8b6b0c64a3d72825f86f09009c534478f893fa14e76f7ff",
      "transactionIndex": "0x0",
      "blockHash": "0x397892ec5b98c46967c8d220a9a851bcb14437b0207623e1c5cf0f021f56984b",
      "blockNumber": "0x17b710b",
      "gasUsed": "0xb51c",
      "effectiveGasPrice": "0x154c2b",
      "blobGasPrice": "0x1",
      "from": "0x2c2dba75492e0c4a1d10b41303167aec59586c9c",
      "to": "0xc02aaa39b223fe8d0a0e5c4f27ead9083c756cc2",
      "contractAddress": null
    },
    {
      "status": "0x1",
      "cumulativeGasUsed": "0xb51c",
      "logs": [
        {
          "address": "0xc02aaa39b223fe8d0a0e5c4f27ead9083c756cc2",
          "topics": [
            "0x8c5be1e5ebec7d5bd14f71427d1e84f3dd0314c0f7b2291e5b200ac8c7c3b925",
            "0x0000000000000000000000004b75aec40561c03e03d4d1c421df194a3031a134",
            "0x0000000000000000000000008fa71914948544c60e3379064567dcf0e6564d27"
          ],
          "data": "0xffffffffffffffffffffffffffffffffffffffffffffffffffffffffffffffff",
          "blockHash": "0xc8a9e6ef6f1d84adc8fa1ad1977ab83fdb8590238515cf90b09dd48248d3c1d0",
          "blockNumber": "0x17b710c",
          "blockTimestamp": "0x69dc17a7",
          "transactionHash": "0x3b9aa4c5e7b29d2d7c621ea2979c0b8f587232c9e22777458471df65cc9374ac",
          "transactionIndex": "0x0",
          "logIndex": "0x0",
          "removed": false
        }
      ],
      "logsBloom": "0x00000000000000000000000000000000000000000000000000000000000000000000000000000000000000000000000002000000080000000000000000200000000000000000000080000000000000000000000200000000000000000000000000000000000000000000000000000000000000000000000000000000000000000000000000000000000000000000000000000000000000000000000000002000020000000000000000000000000400000000000000000000020000000000000000000000000000000200000000000000000000000000000000000000000000000010200000000000000000000000000000000000000000000000000000000000",
      "type": "0x2",
      "transactionHash": "0x3b9aa4c5e7b29d2d7c621ea2979c0b8f587232c9e22777458471df65cc9374ac",
      "transactionIndex": "0x0",
      "blockHash": "0xc8a9e6ef6f1d84adc8fa1ad1977ab83fdb8590238515cf90b09dd48248d3c1d0",
      "blockNumber": "0x17b710c",
      "gasUsed": "0xb51c",
      "effectiveGasPrice": "0x154c2b",
      "blobGasPrice": "0x1",
      "from": "0x4b75aec40561c03e03d4d1c421df194a3031a134",
      "to": "0xc02aaa39b223fe8d0a0e5c4f27ead9083c756cc2",
      "contractAddress": null
    },
    {
      "status": "0x1",
      "cumulativeGasUsed": "0xb51c",
      "logs": [
        {
          "address": "0xc02aaa39b223fe8d0a0e5c4f27ead9083c756cc2",
          "topics": [
            "0x8c5be1e5ebec7d5bd14f71427d1e84f3dd0314c0f7b2291e5b200ac8c7c3b925",
            "0x000000000000000000000000e233420d38d286c2f2cf8dee6564f132fbdb09db",
            "0x0000000000000000000000008fa71914948544c60e3379064567dcf0e6564d27"
          ],
          "data": "0xffffffffffffffffffffffffffffffffffffffffffffffffffffffffffffffff",
          "blockHash": "0x2c422eaaf20c5cd673cd9e37c3e606c1456da38a281ecad248bc8d0d9ea418fb",
          "blockNumber": "0x17b710d",
          "blockTimestamp": "0x69dc17a7",
          "transactionHash": "0x821d67a18214794fab086d1cf4a3ad2aad557d23624c4c1a2afdeaf3314c8739",
          "transactionIndex": "0x0",
          "logIndex": "0x0",
          "removed": false
        }
      ],
      "logsBloom": "0x00000000000000000000000000000000000000000000000000000000000000000000000000000000000000000000000002000000080000000000000000200000000000000000000080000000000000000000000200000000000000000000000000000001000000000000000000000000000000000000000000000000000000000000000000000000000000000000000000000000000000000000000000000000020000000000000000000000000000000000000000000000000000000000000000000010000000000200000000000000000000000002000000000000000000000010200000000000000000000000000000000000000000000000000000000000",
      "type": "0x2",
      "transactionHash": "0x821d67a18214794fab086d1cf4a3ad2aad557d23624c4c1a2afdeaf3314c8739",
      "transactionIndex": "0x0",
      "blockHash": "0x2c422eaaf20c5cd673cd9e37c3e606c1456da38a281ecad248bc8d0d9ea418fb",
      "blockNumber": "0x17b710d",
      "gasUsed": "0xb51c",
      "effectiveGasPrice": "0x154c2b",
      "blobGasPrice": "0x1",
      "from": "0xe233420d38d286c2f2cf8dee6564f132fbdb09db",
      "to": "0xc02aaa39b223fe8d0a0e5c4f27ead9083c756cc2",
      "contractAddress": null
    },
    {
      "status": "0x1",
      "cumulativeGasUsed": "0xb51c",
      "logs": [
        {
          "address": "0xc02aaa39b223fe8d0a0e5c4f27ead9083c756cc2",
          "topics": [
            "0x8c5be1e5ebec7d5bd14f71427d1e84f3dd0314c0f7b2291e5b200ac8c7c3b925",
            "0x000000000000000000000000c5adfc119364cfe2297e4414db04834d8702475b",
            "0x0000000000000000000000008fa71914948544c60e3379064567dcf0e6564d27"
          ],
          "data": "0xffffffffffffffffffffffffffffffffffffffffffffffffffffffffffffffff",
          "blockHash": "0xabb5af04f0080b402ae3de56beb7646eb8ed5ed58023b9d4705715ba85f582af",
          "blockNumber": "0x17b710e",
          "blockTimestamp": "0x69dc17a7",
          "transactionHash": "0xf4e9ba5ce60c4373fd5c20be239af1ebde5a894c2a1fa10461715d14726dc043",
          "transactionIndex": "0x0",
          "logIndex": "0x0",
          "removed": false
        }
      ],
      "logsBloom": "0x00000000000000000000000000000000000000000000000000000000000000000000000000000000000000000000000002000000080000000000000000200000000000000000000080000000000000000000000200000000000000000000000200000000000000000000000000000000000000000000000000000000000000000000000000000000000000000000000000000000000000000000000000000000020000000000000000000000000020000000000000000000000000000000000000000000000000000200000000000000000000000000000000000000000000000010200000000000000000000000000000000000000000002000000000000000",
      "type": "0x2",
      "transactionHash": "0xf4e9ba5ce60c4373fd5c20be239af1ebde5a894c2a1fa10461715d14726dc043",
      "transactionIndex": "0x0",
      "blockHash": "0xabb5af04f0080b402ae3de56beb7646eb8ed5ed58023b9d4705715ba85f582af",
      "blockNumber": "0x17b710e",
      "gasUsed": "0xb51c",
      "effectiveGasPrice": "0x154c2b",
      "blobGasPrice": "0x1",
      "from": "0xc5adfc119364cfe2297e4414db04834d8702475b",
      "to": "0xc02aaa39b223fe8d0a0e5c4f27ead9083c756cc2",
      "contractAddress": null
    },
    {
      "status": "0x1",
      "cumulativeGasUsed": "0xb51c",
      "logs": [
        {
          "address": "0xc02aaa39b223fe8d0a0e5c4f27ead9083c756cc2",
          "topics": [
            "0x8c5be1e5ebec7d5bd14f71427d1e84f3dd0314c0f7b2291e5b200ac8c7c3b925",
            "0x00000000000000000000000008312e82df563a1639b81f49bb41247759700e30",
            "0x0000000000000000000000008fa71914948544c60e3379064567dcf0e6564d27"
          ],
          "data": "0xffffffffffffffffffffffffffffffffffffffffffffffffffffffffffffffff",
          "blockHash": "0x3f17560defad4570714d0535f6bfa6d7dd7deb07114476f45c3f06569350ddcf",
          "blockNumber": "0x17b710f",
          "blockTimestamp": "0x69dc17a7",
          "transactionHash": "0x86065348dcbf3afd1044efcca68573816fb3d7ef47a74fd9dedcfa6ecb921cb8",
          "transactionIndex": "0x0",
          "logIndex": "0x0",
          "removed": false
        }
      ],
      "logsBloom": "0x00000000000000000000000001000000000000000000000000000000000000000000000000100000000000000000000002000000080000000000000000200000000000000000000080000000000000000000000200000000000000000000000000000000000000000000000000000000000000000000000000000000000000000000000000000000000000000000000000000000000000000000000000000000020000000000000000000000000000000000000000000000000000000000000000000000000000000200000000000000000000000000000000000000000000000010200000000000000000000000000000000000004000000000000000000000",
      "type": "0x2",
      "transactionHash": "0x86065348dcbf3afd1044efcca68573816fb3d7ef47a74fd9dedcfa6ecb921cb8",
      "transactionIndex": "0x0",
      "blockHash": "0x3f17560defad4570714d0535f6bfa6d7dd7deb07114476f45c3f06569350ddcf",
      "blockNumber": "0x17b710f",
      "gasUsed": "0xb51c",
      "effectiveGasPrice": "0x154c2b",
      "blobGasPrice": "0x1",
      "from": "0x08312e82df563a1639b81f49bb41247759700e30",
      "to": "0xc02aaa39b223fe8d0a0e5c4f27ead9083c756cc2",
      "contractAddress": null
    },
    {
      "status": "0x1",
      "cumulativeGasUsed": "0xb51c",
      "logs": [
        {
          "address": "0xc02aaa39b223fe8d0a0e5c4f27ead9083c756cc2",
          "topics": [
            "0x8c5be1e5ebec7d5bd14f71427d1e84f3dd0314c0f7b2291e5b200ac8c7c3b925",
            "0x000000000000000000000000cbe5659df21cbcfabe4da962f7a9081f26b3ed82",
            "0x0000000000000000000000008fa71914948544c60e3379064567dcf0e6564d27"
          ],
          "data": "0xffffffffffffffffffffffffffffffffffffffffffffffffffffffffffffffff",
          "blockHash": "0xf606ff719de9a44c78569418734d929e603e94bc51bd68767cff2dd7e96d4589",
          "blockNumber": "0x17b7110",
          "blockTimestamp": "0x69dc17a7",
          "transactionHash": "0xff66f5332a2520d320be7151f529ffe5d4b18004848e8ab7c7374c7f33ac5741",
          "transactionIndex": "0x0",
          "logIndex": "0x0",
          "removed": false
        }
      ],
      "logsBloom": "0x00000000000000000000000000000000000000000000000000000000000000000000000000000000000000000000000002000000080000000000000000200000000000000000000080000000000000000000000200000000000000000000000000000000000000000000000000000000000000000000000000000000000000000000000000000000000000000000000000000000000000000000000000000000020000000000000000000000000000000000000000000000000000000000000000000000000000000600000000000000000000000000020000000000000000000010200000000000000000000000000000000000004000000000000000000000",
      "type": "0x2",
      "transactionHash": "0xff66f5332a2520d320be7151f529ffe5d4b18004848e8ab7c7374c7f33ac5741",
      "transactionIndex": "0x0",
      "blockHash": "0xf606ff719de9a44c78569418734d929e603e94bc51bd68767cff2dd7e96d4589",
      "blockNumber": "0x17b7110",
      "gasUsed": "0xb51c",
      "effectiveGasPrice": "0x154c2b",
      "blobGasPrice": "0x1",
      "from": "0xcbe5659df21cbcfabe4da962f7a9081f26b3ed82",
      "to": "0xc02aaa39b223fe8d0a0e5c4f27ead9083c756cc2",
      "contractAddress": null
    },
    {
      "status": "0x1",
      "cumulativeGasUsed": "0xb51c",
      "logs": [
        {
          "address": "0xc02aaa39b223fe8d0a0e5c4f27ead9083c756cc2",
          "topics": [
            "0x8c5be1e5ebec7d5bd14f71427d1e84f3dd0314c0f7b2291e5b200ac8c7c3b925",
            "0x000000000000000000000000a382b0e75c192d9cdf5c084e58b750cea7761bd0",
            "0x0000000000000000000000008fa71914948544c60e3379064567dcf0e6564d27"
          ],
          "data": "0xffffffffffffffffffffffffffffffffffffffffffffffffffffffffffffffff",
          "blockHash": "0xd46d068e7d942ad97dbf75fd06ca77a23c5fa3f93e1e55cc56bd455823476248",
          "blockNumber": "0x17b7111",
          "blockTimestamp": "0x69dc17a7",
          "transactionHash": "0x93503e7469a396096e22c5ed07afcbe1150eaafb70a25cebd67faa904ea8aea7",
          "transactionIndex": "0x0",
          "logIndex": "0x0",
          "removed": false
        }
      ],
      "logsBloom": "0x00000000000000000000000000000000000000000000000000000000000000000000000000000000000000000000000002000000080000000000000000200000000000000000000080000000000000000000000200000000000000000000000000000000000000000000000000000000000000000000040000000000000000000000000000000000000000000000000000100000000000000000000000000000020000000000000000000000000000000000000000000000000000000000000000000000000000000200000000000000000000000000000000000000000000000010200000000000000000000000000000000000100000000000000000000000",
      "type": "0x2",
      "transactionHash": "0x93503e7469a396096e22c5ed07afcbe1150eaafb70a25cebd67faa904ea8aea7",
      "transactionIndex": "0x0",
      "blockHash": "0xd46d068e7d942ad97dbf75fd06ca77a23c5fa3f93e1e55cc56bd455823476248",
      "blockNumber": "0x17b7111",
      "gasUsed": "0xb51c",
      "effectiveGasPrice": "0x154c2b",
      "blobGasPrice": "0x1",
      "from": "0xa382b0e75c192d9cdf5c084e58b750cea7761bd0",
      "to": "0xc02aaa39b223fe8d0a0e5c4f27ead9083c756cc2",
      "contractAddress": null
    }
  ],
  "libraries": [],
  "pending": [],
  "returns": {},
  "timestamp": 1778450870029,
  "chain": 31337,
  "commit": "f87d399"
}