{
  "transactions": [
    {
      "hash": "0xd70e2e2b3e770ec58c11b2da8162a14f96580a8769de24d010341a032b68b5a4",
      "transactionType": "CALL",
      "contractName": null,
      "contractAddress": "0xe2d235f91e02d028b6c7c8901899ca9c5cfb0047",
      "function": "setApprovalForAll(address,bool)",
      "arguments": [
        "0xcd8Ac25C1fc748E21dFd9dD3944547706FA4753b",
        "true"
      ],
      "transaction": {
        "from": "0x646dc5fc4009c4c84a424b6ae0f494b374bae1ce",
        "to": "0xe2d235f91e02d028b6c7c8901899ca9c5cfb0047",
        "gas": "0x10a82",
        "value": "0x0",
        "input": "0xa22cb465000000000000000000000000cd8ac25c1fc748e21dfd9dd3944547706fa4753b0000000000000000000000000000000000000000000000000000000000000001",
        "nonce": "0x9a",
        "chainId": "0x7a69"
      },
      "additionalContracts": [],
      "isFixedGasLimit": false
    },
    {
      "hash": "0xb285a271fafcb06b54560246b2ed5a90927b82df4b1490c593bd99d38e75de86",
      "transactionType": "CALL",
      "contractName": null,
      "contractAddress": "0xe2d235f91e02d028b6c7c8901899ca9c5cfb0047",
      "function": "setApprovalForAll(address,bool)",
      "arguments": [
        "0xcd8Ac25C1fc748E21dFd9dD3944547706FA4753b",
        "true"
      ],
      "transaction": {
        "from": "0x1302f142fc55b165647d3bd5dec227f569a2a907",
        "to": "0xe2d235f91e02d028b6c7c8901899ca9c5cfb0047",
        "gas": "0x10a82",
        "value": "0x0",
        "input": "0xa22cb465000000000000000000000000cd8ac25c1fc748e21dfd9dd3944547706fa4753b0000000000000000000000000000000000000000000000000000000000000001",
        "nonce": "0x6c",
        "chainId": "0x7a69"
      },
      "additionalContracts": [],
      "isFixedGasLimit": false
    },
    {
      "hash": "0x8b3209ccc5a1bd2079fd3d2406192bdf11b63d46aa9786927c8d4eb957e824f8",
      "transactionType": "CALL",
      "contractName": null,
      "contractAddress": "0xe2d235f91e02d028b6c7c8901899ca9c5cfb0047",
      "function": "setApprovalForAll(address,bool)",
      "arguments": [
        "0xcd8Ac25C1fc748E21dFd9dD3944547706FA4753b",
        "true"
      ],
      "transaction": {
        "from": "0xe3745c151fab59b0740f4312b2b027f07d096639",
        "to": "0xe2d235f91e02d028b6c7c8901899ca9c5cfb0047",
        "gas": "0x10a82",
        "value": "0x0",
        "input": "0xa22cb465000000000000000000000000cd8ac25c1fc748e21dfd9dd3944547706fa4753b0000000000000000000000000000000000000000000000000000000000000001",
        "nonce": "0x8c",
        "chainId": "0x7a69"
      },
      "additionalContracts": [],
      "isFixedGasLimit": false
    },
    {
      "hash": "0xfc981cf828b4b53b318a22ecb825d5e9b9365a229c1d62432ed3e20f1e1eb20d",
      "transactionType": "CALL",
      "contractName": null,
      "contractAddress": "0xe2d235f91e02d028b6c7c8901899ca9c5cfb0047",
      "function": "setApprovalForAll(address,bool)",
      "arguments": [
        "0xcd8Ac25C1fc748E21dFd9dD3944547706FA4753b",
        "true"
      ],
      "transaction": {
        "from": "0x2c2dba75492e0c4a1d10b41303167aec59586c9c",
        "to": "0xe2d235f91e02d028b6c7c8901899ca9c5cfb0047",
        "gas": "0x10a82",
        "value": "0x0",
        "input": "0xa22cb465000000000000000000000000cd8ac25c1fc748e21dfd9dd3944547706fa4753b0000000000000000000000000000000000000000000000000000000000000001",
        "nonce": "0x6a",
        "chainId": "0x7a69"
      },
      "additionalContracts": [],
      "isFixedGasLimit": false
    },
    {
      "hash": "0x432a57b607854d3ca41fc221978b770c3e4bd75f9e2be2731e04e7b8a12257cf",
      "transactionType": "CALL",
      "contractName": null,
      "contractAddress": "0xe2d235f91e02d028b6c7c8901899ca9c5cfb0047",
      "function": "setApprovalForAll(address,bool)",
      "arguments": [
        "0xcd8Ac25C1fc748E21dFd9dD3944547706FA4753b",
        "true"
      ],
      "transaction": {
        "from": "0x4b75aec40561c03e03d4d1c421df194a3031a134",
        "to": "0xe2d235f91e02d028b6c7c8901899ca9c5cfb0047",
        "gas": "0x10a82",
        "value": "0x0",
        "input": "0xa22cb465000000000000000000000000cd8ac25c1fc748e21dfd9dd3944547706fa4753b0000000000000000000000000000000000000000000000000000000000000001",
        "nonce": "0x6c",
        "chainId": "0x7a69"
      },
      "additionalContracts": [],
      "isFixedGasLimit": false
    },
    {
      "hash": "0xae03991e75198e0538567239c3e20885f2e20d05d0f1e741f9bb3f47dd2f6c11",
      "transactionType": "CALL",
      "contractName": null,
      "contractAddress": "0xe2d235f91e02d028b6c7c8901899ca9c5cfb0047",
      "function": "setApprovalForAll(address,bool)",
      "arguments": [
        "0xcd8Ac25C1fc748E21dFd9dD3944547706FA4753b",
        "true"
      ],
      "transaction": {
        "from": "0xe233420d38d286c2f2cf8dee6564f132fbdb09db",
        "to": "0xe2d235f91e02d028b6c7c8901899ca9c5cfb0047",
        "gas": "0x10a82",
        "value": "0x0",
        "input": "0xa22cb465000000000000000000000000cd8ac25c1fc748e21dfd9dd3944547706fa4753b0000000000000000000000000000000000000000000000000000000000000001",
        "nonce": "0x74",
        "chainId": "0x7a69"
      },
      "additionalContracts": [],
      "isFixedGasLimit": false
    },
    {
      "hash": "0xee2a17077c3597f59efa1bd0e59523410bd907776928597764d32abd65d6ec39",
      "transactionType": "CALL",
      "contractName": null,
      "contractAddress": "0xe2d235f91e02d028b6c7c8901899ca9c5cfb0047",
      "function": "setApprovalForAll(address,bool)",
      "arguments": [
        "0xcd8Ac25C1fc748E21dFd9dD3944547706FA4753b",
        "true"
      ],
      "transaction": {
        "from": "0xc5adfc119364cfe2297e4414db04834d8702475b",
        "to": "0xe2d235f91e02d028b6c7c8901899ca9c5cfb0047",
        "gas": "0x10a82",
        "value": "0x0",
        "input": "0xa22cb465000000000000000000000000cd8ac25c1fc748e21dfd9dd3944547706fa4753b0000000000000000000000000000000000000000000000000000000000000001",
        "nonce": "0x71",
        "chainId": "0x7a69"
      },
      "additionalContracts": [],
      "isFixedGasLimit": false
    },
    {
      "hash": "0x8a6952c1c24d8f20caf055bd1c40e6a09d034c8647b2cf275fba42fafc5f4acb",
      "transactionType": "CALL",
      "contractName": null,
      "contractAddress": "0xe2d235f91e02d028b6c7c8901899ca9c5cfb0047",
      "function": "setApprovalForAll(address,bool)",
      "arguments": [
        "0xcd8Ac25C1fc748E21dFd9dD3944547706FA4753b",
        "true"
      ],
      "transaction": {
        "from": "0x08312e82df563a1639b81f49bb41247759700e30",
        "to": "0xe2d235f91e02d028b6c7c8901899ca9c5cfb0047",
        "gas": "0x10a82",
        "value": "0x0",
        "input": "0xa22cb465000000000000000000000000cd8ac25c1fc748e21dfd9dd3944547706fa4753b0000000000000000000000000000000000000000000000000000000000000001",
        "nonce": "0x82",
        "chainId": "0x7a69"
      },
      "additionalContracts": [],
      "isFixedGasLimit": false
    },
    {
      "hash": "0x4b349b1d60f4d693e04619b261f045659d53f7883742bcd928424fd60c75710a",
      "transactionType": "CALL",
      "contractName": null,
      "contractAddress": "0xe2d235f91e02d028b6c7c8901899ca9c5cfb0047",
      "function": "setApprovalForAll(address,bool)",
      "arguments": [
        "0xcd8Ac25C1fc748E21dFd9dD3944547706FA4753b",
        "true"
      ],
      "transaction": {
        "from": "0xcbe5659df21cbcfabe4da962f7a9081f26b3ed82",
        "to": "0xe2d235f91e02d028b6c7c8901899ca9c5cfb0047",
        "gas": "0x10a82",
        "value": "0x0",
        "input": "0xa22cb465000000000000000000000000cd8ac25c1fc748e21dfd9dd3944547706fa4753b0000000000000000000000000000000000000000000000000000000000000001",
        "nonce": "0x72",
        "chainId": "0x7a69"
      },
      "additionalContracts": [],
      "isFixedGasLimit": false
    },
    {
      "hash": "0xe7623764c70163821c94408ff43bac3efdc024c334814f3dc06900bfb0d47c8d",
      "transactionType": "CALL",
      "contractName": null,
      "contractAddress": "0xe2d235f91e02d028b6c7c8901899ca9c5cfb0047",
      "function": "setApprovalForAll(address,bool)",
      "arguments": [
        "0xcd8Ac25C1fc748E21dFd9dD3944547706FA4753b",
        "true"
      ],
      "transaction": {
        "from": "0xa382b0e75c192d9cdf5c084e58b750cea7761bd0",
        "to": "0xe2d235f91e02d028b6c7c8901899ca9c5cfb0047",
        "gas": "0x10a82",
        "value": "0x0",
        "input": "0xa22cb465000000000000000000000000cd8ac25c1fc748e21dfd9dd3944547706fa4753b0000000000000000000000000000000000000000000000000000000000000001",
        "nonce": "0x62",
        "chainId": "0x7a69"
      },
      "additionalContracts": [],
      "isFixedGasLimit": false
    },
    {
      "hash": "0x60cac825d2f5870966a4a99343cfb569caddd426357dd3ea7b57472333112444",
      "transactionType": "CALL",
      "contractName": null,
      "contractAddress": "0xc02aaa39b223fe8d0a0e5c4f27ead9083c756cc2",
      "function": "approve(address,uint256)",
      "arguments": [
        "0xcd8Ac25C1fc748E21dFd9dD3944547706FA4753b",
        "115792089237316195423570985008687907853269984665640564039457584007913129639935"
      ],
      "transaction": {
        "from": "0x646dc5fc4009c4c84a424b6ae0f494b374bae1ce",
        "to": "0xc02aaa39b223fe8d0a0e5c4f27ead9083c756cc2",
        "gas": "0xfa27",
        "value": "0x0",
        "input": "0x095ea7b3000000000000000000000000cd8ac25c1fc748e21dfd9dd3944547706fa4753bffffffffffffffffffffffffffffffffffffffffffffffffffffffffffffffff",
        "nonce": "0x9b",
        "chainId": "0x7a69"
      },
      "additionalContracts": [],
      "isFixedGasLimit": false
    },
    {
      "hash": "0x1873dd73eed6ba9ca281e52e497e7e7d45caa09b551a72674fb6ef22eed8a20b",
      "transactionType": "CALL",
      "contractName": null,
      "contractAddress": "0xc02aaa39b223fe8d0a0e5c4f27ead9083c756cc2",
      "function": "approve(address,uint256)",
      "arguments": [
        "0xcd8Ac25C1fc748E21dFd9dD3944547706FA4753b",
        "115792089237316195423570985008687907853269984665640564039457584007913129639935"
      ],
      "transaction": {
        "from": "0x1302f142fc55b165647d3bd5dec227f569a2a907",
        "to": "0xc02aaa39b223fe8d0a0e5c4f27ead9083c756cc2",
        "gas": "0xfa27",
        "value": "0x0",
        "input": "0x095ea7b3000000000000000000000000cd8ac25c1fc748e21dfd9dd3944547706fa4753bffffffffffffffffffffffffffffffffffffffffffffffffffffffffffffffff",
        "nonce": "0x6d",
        "chainId": "0x7a69"
      },
      "additionalContracts": [],
      "isFixedGasLimit": false
    },
    {
      "hash": "0x7c42652cfc9a429e5373dc192a047df690f3472bba6d55b5a92bcbe93e4b4d04",
      "transactionType": "CALL",
      "contractName": null,
      "contractAddress": "0xc02aaa39b223fe8d0a0e5c4f27ead9083c756cc2",
      "function": "approve(address,uint256)",
      "arguments": [
        "0xcd8Ac25C1fc748E21dFd9dD3944547706FA4753b",
        "115792089237316195423570985008687907853269984665640564039457584007913129639935"
      ],
      "transaction": {
        "from": "0xe3745c151fab59b0740f4312b2b027f07d096639",
        "to": "0xc02aaa39b223fe8d0a0e5c4f27ead9083c756cc2",
        "gas": "0xfa27",
        "value": "0x0",
        "input": "0x095ea7b3000000000000000000000000cd8ac25c1fc748e21dfd9dd3944547706fa4753bffffffffffffffffffffffffffffffffffffffffffffffffffffffffffffffff",
        "nonce": "0x8d",
        "chainId": "0x7a69"
      },
      "additionalContracts": [],
      "isFixedGasLimit": false
    },
    {
      "hash": "0x15dba7b0f9243f81f7c7121ee89742e3a69469e64ad772041458cb4831a86f61",
      "transactionType": "CALL",
      "contractName": null,
      "contractAddress": "0xc02aaa39b223fe8d0a0e5c4f27ead9083c756cc2",
      "function": "approve(address,uint256)",
      "arguments": [
        "0xcd8Ac25C1fc748E21dFd9dD3944547706FA4753b",
        "115792089237316195423570985008687907853269984665640564039457584007913129639935"
      ],
      "transaction": {
        "from": "0x2c2dba75492e0c4a1d10b41303167aec59586c9c",
        "to": "0xc02aaa39b223fe8d0a0e5c4f27ead9083c756cc2",
        "gas": "0xfa27",
        "value": "0x0",
        "input": "0x095ea7b3000000000000000000000000cd8ac25c1fc748e21dfd9dd3944547706fa4753bffffffffffffffffffffffffffffffffffffffffffffffffffffffffffffffff",
        "nonce": "0x6b",
        "chainId": "0x7a69"
      },
      "additionalContracts": [],
      "isFixedGasLimit": false
    },
    {
      "hash": "0x0d94f1f93c8294cdee0c55f75148517aa36eb994c88d92f141722ccad8222ba4",
      "transactionType": "CALL",
      "contractName": null,
      "contractAddress": "0xc02aaa39b223fe8d0a0e5c4f27ead9083c756cc2",
      "function": "approve(address,uint256)",
      "arguments": [
        "0xcd8Ac25C1fc748E21dFd9dD3944547706FA4753b",
        "115792089237316195423570985008687907853269984665640564039457584007913129639935"
      ],
      "transaction": {
        "from": "0x4b75aec40561c03e03d4d1c421df194a3031a134",
        "to": "0xc02aaa39b223fe8d0a0e5c4f27ead9083c756cc2",
        "gas": "0xfa27",
        "value": "0x0",
        "input": "0x095ea7b3000000000000000000000000cd8ac25c1fc748e21dfd9dd3944547706fa4753bffffffffffffffffffffffffffffffffffffffffffffffffffffffffffffffff",
        "nonce": "0x6d",
        "chainId": "0x7a69"
      },
      "additionalContracts": [],
      "isFixedGasLimit": false
    },
    {
      "hash": "0xb0d09e9c7923368273751e075c08881810cfbbb20844fd1444423ffdb48fc853",
      "transactionType": "CALL",
      "contractName": null,
      "contractAddress": "0xc02aaa39b223fe8d0a0e5c4f27ead9083c756cc2",
      "function": "approve(address,uint256)",
      "arguments": [
        "0xcd8Ac25C1fc748E21dFd9dD3944547706FA4753b",
        "115792089237316195423570985008687907853269984665640564039457584007913129639935"
      ],
      "transaction": {
        "from": "0xe233420d38d286c2f2cf8dee6564f132fbdb09db",
        "to": "0xc02aaa39b223fe8d0a0e5c4f27ead9083c756cc2",
        "gas": "0xfa27",
        "value": "0x0",
        "input": "0x095ea7b3000000000000000000000000cd8ac25c1fc748e21dfd9dd3944547706fa4753bffffffffffffffffffffffffffffffffffffffffffffffffffffffffffffffff",
        "nonce": "0x75",
        "chainId": "0x7a69"
      },
      "additionalContracts": [],
      "isFixedGasLimit": false
    },
    {
      "hash": "0xdb0709c3274d6eaa4664cb954cac4a77224f574ed49526988170a655c422bc3b",
      "transactionType": "CALL",
      "contractName": null,
      "contractAddress": "0xc02aaa39b223fe8d0a0e5c4f27ead9083c756cc2",
      "function": "approve(address,uint256)",
      "arguments": [
        "0xcd8Ac25C1fc748E21dFd9dD3944547706FA4753b",
        "115792089237316195423570985008687907853269984665640564039457584007913129639935"
      ],
      "transaction": {
        "from": "0xc5adfc119364cfe2297e4414db04834d8702475b",
        "to": "0xc02aaa39b223fe8d0a0e5c4f27ead9083c756cc2",
        "gas": "0xfa27",
        "value": "0x0",
        "input": "0x095ea7b3000000000000000000000000cd8ac25c1fc748e21dfd9dd3944547706fa4753bffffffffffffffffffffffffffffffffffffffffffffffffffffffffffffffff",
        "nonce": "0x72",
        "chainId": "0x7a69"
      },
      "additionalContracts": [],
      "isFixedGasLimit": false
    },
    {
      "hash": "0x6f301a82284699dce651513fc778f69ad8006de1cc3fb0c605940adf0db20674",
      "transactionType": "CALL",
      "contractName": null,
      "contractAddress": "0xc02aaa39b223fe8d0a0e5c4f27ead9083c756cc2",
      "function": "approve(address,uint256)",
      "arguments": [
        "0xcd8Ac25C1fc748E21dFd9dD3944547706FA4753b",
        "115792089237316195423570985008687907853269984665640564039457584007913129639935"
      ],
      "transaction": {
        "from": "0x08312e82df563a1639b81f49bb41247759700e30",
        "to": "0xc02aaa39b223fe8d0a0e5c4f27ead9083c756cc2",
        "gas": "0xfa27",
        "value": "0x0",
        "input": "0x095ea7b3000000000000000000000000cd8ac25c1fc748e21dfd9dd3944547706fa4753bffffffffffffffffffffffffffffffffffffffffffffffffffffffffffffffff",
        "nonce": "0x83",
        "chainId": "0x7a69"
      },
      "additionalContracts": [],
      "isFixedGasLimit": false
    },
    {
      "hash": "0x2e9db1fb67086f30f71b451c70ce53f4f2b2932f4ba48a867cc2af7a77153a6c",
      "transactionType": "CALL",
      "contractName": null,
      "contractAddress": "0xc02aaa39b223fe8d0a0e5c4f27ead9083c756cc2",
      "function": "approve(address,uint256)",
      "arguments": [
        "0xcd8Ac25C1fc748E21dFd9dD3944547706FA4753b",
        "115792089237316195423570985008687907853269984665640564039457584007913129639935"
      ],
      "transaction": {
        "from": "0xcbe5659df21cbcfabe4da962f7a9081f26b3ed82",
        "to": "0xc02aaa39b223fe8d0a0e5c4f27ead9083c756cc2",
        "gas": "0xfa27",
        "value": "0x0",
        "input": "0x095ea7b3000000000000000000000000cd8ac25c1fc748e21dfd9dd3944547706fa4753bffffffffffffffffffffffffffffffffffffffffffffffffffffffffffffffff",
        "nonce": "0x73",
        "chainId": "0x7a69"
      },
      "additionalContracts": [],
      "isFixedGasLimit": false
    },
    {
      "hash": "0x686c7f04cd6dcc4df56ca636dea3e24bc08dd3d5ff7c6ca92e9aceee7622e046",
      "transactionType": "CALL",
      "contractName": null,
      "contractAddress": "0xc02aaa39b223fe8d0a0e5c4f27ead9083c756cc2",
      "function": "approve(address,uint256)",
      "arguments": [
        "0xcd8Ac25C1fc748E21dFd9dD3944547706FA4753b",
        "115792089237316195423570985008687907853269984665640564039457584007913129639935"
      ],
      "transaction": {
        "from": "0xa382b0e75c192d9cdf5c084e58b750cea7761bd0",
        "to": "0xc02aaa39b223fe8d0a0e5c4f27ead9083c756cc2",
        "gas": "0xfa27",
        "value": "0x0",
        "input": "0x095ea7b3000000000000000000000000cd8ac25c1fc748e21dfd9dd3944547706fa4753bffffffffffffffffffffffffffffffffffffffffffffffffffffffffffffffff",
        "nonce": "0x63",
        "chainId": "0x7a69"
      },
      "additionalContracts": [],
      "isFixedGasLimit": false
    }
  ],
  "receipts": [
    {
      "status": "0x1",
      "cumulativeGasUsed": "0xb63b",
      "logs": [
        {
          "address": "0xe2d235f91e02d028b6c7c8901899ca9c5cfb0047",
          "topics": [
            "0x17307eab39ab6107e8899845ad3d59bd9653f200f220920489ca2b5937696c31",
            "0x000000000000000000000000646dc5fc4009c4c84a424b6ae0f494b374bae1ce",
            "0x000000000000000000000000cd8ac25c1fc748e21dfd9dd3944547706fa4753b"
          ],
          "data": "0x0000000000000000000000000000000000000000000000000000000000000001",
          "blockHash": "0xe7786916613229490911f66997ead7ef61796edaefb601de3036a701e0cda811",
          "blockNumber": "0x17b85a9",
          "blockTimestamp": "0x6a01db73",
          "transactionHash": "0xd70e2e2b3e770ec58c11b2da8162a14f96580a8769de24d010341a032b68b5a4",
          "transactionIndex": "0x0",
          "logIndex": "0x0",
          "removed": false
        }
      ],
      "logsBloom": "0x00000000000000000000000020000000000000000002000000000000000000000000000000000000800000000000000000000080010000000000000000000000000000000000000000000000000000000000000000000000000000000000000002000000000000000004000000000000000000000000000000000000000000000000000000000000000000000000000000000000000000000000000000000000000000000000000000002000000000000000000000000000000000000000000000000000000000000000000000000800000000000000000000000000000000800000200800000000000000000000000000000000000000000000000000000000",
      "type": "0x2",
      "transactionHash": "0xd70e2e2b3e770ec58c11b2da8162a14f96580a8769de24d010341a032b68b5a4",
      "transactionIndex": "0x0",
      "blockHash": "0xe7786916613229490911f66997ead7ef61796edaefb601de3036a701e0cda811",
      "blockNumber": "0x17b85a9",
      "gasUsed": "0xb63b",
      "effectiveGasPrice": "0x1ba81b",
      "blobGasPrice": "0x1",
      "from": "0x646dc5fc4009c4c84a424b6ae0f494b374bae1ce",
      "to": "0xe2d235f91e02d028b6c7c8901899ca9c5cfb0047",
      "contractAddress": null
    },
    {
      "status": "0x1",
      "cumulativeGasUsed": "0xb63b",
      "logs": [
        {
          "address": "0xe2d235f91e02d028b6c7c8901899ca9c5cfb0047",
          "topics": [
            "0x17307eab39ab6107e8899845ad3d59bd9653f200f220920489ca2b5937696c31",
            "0x0000000000000000000000001302f142fc55b165647d3bd5dec227f569a2a907",
            "0x000000000000000000000000cd8ac25c1fc748e21dfd9dd3944547706fa4753b"
          ],
          "data": "0x0000000000000000000000000000000000000000000000000000000000000001",
          "blockHash": "0xfa97baa753488028a827f1bf7e5b12b3ec116e71759d242ccd2df9bc81c366aa",
          "blockNumber": "0x17b85aa",
          "blockTimestamp": "0x6a01db73",
          "transactionHash": "0xb285a271fafcb06b54560246b2ed5a90927b82df4b1490c593bd99d38e75de86",
          "transactionIndex": "0x0",
          "logIndex": "0x0",
          "removed": false
        }
      ],
      "logsBloom": "0x00000000000000000000000020000000000000000000000000000000000000000000000000000000800000000000000000000080000000000000000000000000000000000000000000000000000000000000000000000000000000000000000002000000000000000000000000000000000000000000000000000000000000000000000000000000000000000000000000000000000000000000000000000000000000000000000000002000000100000000000000000000000000000000000000000000000000000000000200000800000000000000000000000000000000800000200800000000000040000000000000000000000000000000000000000000",
      "type": "0x2",
      "transactionHash": "0xb285a271fafcb06b54560246b2ed5a90927b82df4b1490c593bd99d38e75de86",
      "transactionIndex": "0x0",
      "blockHash": "0xfa97baa753488028a827f1bf7e5b12b3ec116e71759d242ccd2df9bc81c366aa",
      "blockNumber": "0x17b85aa",
      "gasUsed": "0xb63b",
      "effectiveGasPrice": "0x1ba81b",
      "blobGasPrice": "0x1",
      "from": "0x1302f142fc55b165647d3bd5dec227f569a2a907",
      "to": "0xe2d235f91e02d028b6c7c8901899ca9c5cfb0047",
      "contractAddress": null
    },
    {
      "status": "0x1",
      "cumulativeGasUsed": "0xb63b",
      "logs": [
        {
          "address": "0xe2d235f91e02d028b6c7c8901899ca9c5cfb0047",
          "topics": [
            "0x17307eab39ab6107e8899845ad3d59bd9653f200f220920489ca2b5937696c31",
            "0x000000000000000000000000e3745c151fab59b0740f4312b2b027f07d096639",
            "0x000000000000000000000000cd8ac25c1fc748e21dfd9dd3944547706fa4753b"
          ],
          "data": "0x0000000000000000000000000000000000000000000000000000000000000001",
          "blockHash": "0x5a05198ade405a1799eb620f2e041906179783ac3c48d338664700fdbba5698c",
          "blockNumber": "0x17b85ab",
          "blockTimestamp": "0x6a01db73",
          "transactionHash": "0x8b3209ccc5a1bd2079fd3d2406192bdf11b63d46aa9786927c8d4eb957e824f8",
          "transactionIndex": "0x0",
          "logIndex": "0x0",
          "removed": false
        }
      ],
      "logsBloom": "0x00000000000000000000000020000000000000000100000000000000000000000000000000000000800000000000000040000080000000000000000000000000000000000000000000000000000000000000000000000000000000000000000002000000000000000000000000000000000000000000000000000000000000000000000000000000000000000000000000000000000000000000000000000000000000000000000000002000000000000000000000000000000000000000000000000000000000000000000000000800000000000000000000000040000000800000200800000000000000000000000000000000000000000000000000000000",
      "type": "0x2",
      "transactionHash": "0x8b3209ccc5a1bd2079fd3d2406192bdf11b63d46aa9786927c8d4eb957e824f8",
      "transactionIndex": "0x0",
      "blockHash": "0x5a05198ade405a1799eb620f2e041906179783ac3c48d338664700fdbba5698c",
      "blockNumber": "0x17b85ab",
      "gasUsed": "0xb63b",
      "effectiveGasPrice": "0x1ba81b",
      "blobGasPrice": "0x1",
      "from": "0xe3745c151fab59b0740f4312b2b027f07d096639",
      "to": "0xe2d235f91e02d028b6c7c8901899ca9c5cfb0047",
      "contractAddress": null
    },
    {
      "status": "0x1",
      "cumulativeGasUsed": "0xb63b",
      "logs": [
        {
          "address": "0xe2d235f91e02d028b6c7c8901899ca9c5cfb0047",
          "topics": [
            "0x17307eab39ab6107e8899845ad3d59bd9653f200f220920489ca2b5937696c31",
            "0x0000000000000000000000002c2dba75492e0c4a1d10b41303167aec59586c9c",
            "0x000000000000000000000000cd8ac25c1fc748e21dfd9dd3944547706fa4753b"
          ],
          "data": "0x0000000000000000000000000000000000000000000000000000000000000001",
          "blockHash": "0xad1afd6cbb5208b24694b327cd6d4cc6aded19526a9cc76154494328eaf541d9",
          "blockNumber": "0x17b85ac",
          "blockTimestamp": "0x6a01db73",
          "transactionHash": "0xfc981cf828b4b53b318a22ecb825d5e9b9365a229c1d62432ed3e20f1e1eb20d",
          "transactionIndex": "0x0",
          "logIndex": "0x0",
          "removed": false
        }
      ],
      "logsBloom": "0x00000000000000000000000020000000000000000000000000000000000000000000000000000000800000000000000000000080000000000000000800000000000200000000000000000000000000000000000000000000000000000000000002000000000004000000000000000000000000000000000000000000000000000000000000000000000000000000000000000000000000000000000000000000000000000000000000002000000000000000000000000000000000000000000000000000000000000000000000000800000000000000000000000000000000800000200800000000000000000000000000000000000000000000000000000000",
      "type": "0x2",
      "transactionHash": "0xfc981cf828b4b53b318a22ecb825d5e9b9365a229c1d62432ed3e20f1e1eb20d",
      "transactionIndex": "0x0",
      "blockHash": "0xad1afd6cbb5208b24694b327cd6d4cc6aded19526a9cc76154494328eaf541d9",
      "blockNumber": "0x17b85ac",
      "gasUsed": "0xb63b",
      "effectiveGasPrice": "0x1ba81b",
      "blobGasPrice": "0x1",
      "from": "0x2c2dba75492e0c4a1d10b41303167aec59586c9c",
      "to": "0xe2d235f91e02d028b6c7c8901899ca9c5cfb0047",
      "contractAddress": null
    },
    {
      "status": "0x1",
      "cumulativeGasUsed": "0xb63b",
      "logs": [
        {
          "address": "0xe2d235f91e02d028b6c7c8901899ca9c5cfb0047",
          "topics": [
            "0x17307eab39ab6107e8899845ad3d59bd9653f200f220920489ca2b5937696c31",
            "0x0000000000000000000000004b75aec40561c03e03d4d1c421df194a3031a134",
            "0x000000000000000000000000cd8ac25c1fc748e21dfd9dd3944547706fa4753b"
          ],
          "data": "0x0000000000000000000000000000000000000000000000000000000000000001",
          "blockHash": "0xa5f3b447f98d10e24ca7a72ecd523f774c7cf7ff660e251b385367c05006ffd5",
          "blockNumber": "0x17b85ad",
          "blockTimestamp": "0x6a01db73",
          "transactionHash": "0x432a57b607854d3ca41fc221978b770c3e4bd75f9e2be2731e04e7b8a12257cf",
          "transactionIndex": "0x0",
          "logIndex": "0x0",
          "removed": false
        }
      ],
      "logsBloom": "0x00000000000000000000000020000000000000000000000000000000000000000000000000000000800000000000000000000080000000000000000000000000000000000000000000000000000000000000000000000000000000000000000002000000000000000000000000000000000000000000000000000000000000000000000000000000000000000000000000000000000000000000000000002000000000000000000000002000000400000000000000000000020000000000000000000000000000000000000000000800000000000000000000000000000000800000200800000000000000000000000000000000000000000000000000000000",
      "type": "0x2",
      "transactionHash": "0x432a57b607854d3ca41fc221978b770c3e4bd75f9e2be2731e04e7b8a12257cf",
      "transactionIndex": "0x0",
      "blockHash": "0xa5f3b447f98d10e24ca7a72ecd523f774c7cf7ff660e251b385367c05006ffd5",
      "blockNumber": "0x17b85ad",
      "gasUsed": "0xb63b",
      "effectiveGasPrice": "0x1ba81b",
      "blobGasPrice": "0x1",
      "from": "0x4b75aec40561c03e03d4d1c421df194a3031a134",
      "to": "0xe2d235f91e02d028b6c7c8901899ca9c5cfb0047",
      "contractAddress": null
    },
    {
      "status": "0x1",
      "cumulativeGasUsed": "0xb63b",
      "logs": [
        {
          "address": "0xe2d235f91e02d028b6c7c8901899ca9c5cfb0047",
          "topics": [
            "0x17307eab39ab6107e8899845ad3d59bd9653f200f220920489ca2b5937696c31",
            "0x000000000000000000000000e233420d38d286c2f2cf8dee6564f132fbdb09db",
            "0x000000000000000000000000cd8ac25c1fc748e21dfd9dd3944547706fa4753b"
          ],
          "data": "0x0000000000000000000000000000000000000000000000000000000000000001",
          "blockHash": "0x00c14e13ecc1058f76102bebc92a02a4b21ce9f1babd5b4277f392969842ddbc",
          "blockNumber": "0x17b85ae",
          "blockTimestamp": "0x6a01db73",
          "transactionHash": "0xae03991e75198e0538567239c3e20885f2e20d05d0f1e741f9bb3f47dd2f6c11",
          "transactionIndex": "0x0",
          "logIndex": "0x0",
          "removed": false
        }
      ],
      "logsBloom": "0x00000000000000000000000020000000000000000000000000000000000000000000000000000000800000000000000000000080000000000000000000000000000000000000000000000000000000000000000000000000000000000000000002000001000000000000000000000000000000000000000000000000000000000000000000000000000000000000000000000000000000000000000000000000000000000000000000002000000000000000000000000000000000000000000000000010000000000000000000000800000000000002000000000000000000800000200800000000000000000000000000000000000000000000000000000000",
      "type": "0x2",
      "transactionHash": "0xae03991e75198e0538567239c3e20885f2e20d05d0f1e741f9bb3f47dd2f6c11",
      "transactionIndex": "0x0",
      "blockHash": "0x00c14e13ecc1058f76102bebc92a02a4b21ce9f1babd5b4277f392969842ddbc",
      "blockNumber": "0x17b85ae",
      "gasUsed": "0xb63b",
      "effectiveGasPrice": "0x1ba81b",
      "blobGasPrice": "0x1",
      "from": "0xe233420d38d286c2f2cf8dee6564f132fbdb09db",
      "to": "0xe2d235f91e02d028b6c7c8901899ca9c5cfb0047",
      "contractAddress": null
    },
    {
      "status": "0x1",
      "cumulativeGasUsed": "0xb63b",
      "logs": [
        {
          "address": "0xe2d235f91e02d028b6c7c8901899ca9c5cfb0047",
          "topics": [
            "0x17307eab39ab6107e8899845ad3d59bd9653f200f220920489ca2b5937696c31",
            "0x000000000000000000000000c5adfc119364cfe2297e4414db04834d8702475b",
            "0x000000000000000000000000cd8ac25c1fc748e21dfd9dd3944547706fa4753b"
          ],
          "data": "0x0000000000000000000000000000000000000000000000000000000000000001",
          "blockHash": "0x3c6b7ae26b5263160aeab974b0d180d46b569a115b9ec98b4c50e660bc437aed",
          "blockNumber": "0x17b85af",
          "blockTimestamp": "0x6a01db73",
          "transactionHash": "0xee2a17077c3597f59efa1bd0e59523410bd907776928597764d32abd65d6ec39",
          "transactionIndex": "0x0",
          "logIndex": "0x0",
          "removed": false
        }
      ],
      "logsBloom": "0x00000000000000000000000020000000000000000000000000000000000000000000000000000000800000000000000000000080000000000000000000000000000000000000000000000000000000000000000000000000000000000000000202000000000000000000000000000000000000000000000000000000000000000000000000000000000000000000000000000000000000000000000000000000000000000000000000002000000020000000000000000000000000000000000000000000000000000000000000000800000000000000000000000000000000800000200800000000000000000000000000000000000000002000000000000000",
      "type": "0x2",
      "transactionHash": "0xee2a17077c3597f59efa1bd0e59523410bd907776928597764d32abd65d6ec39",
      "transactionIndex": "0x0",
      "blockHash": "0x3c6b7ae26b5263160aeab974b0d180d46b569a115b9ec98b4c50e660bc437aed",
      "blockNumber": "0x17b85af",
      "gasUsed": "0xb63b",
      "effectiveGasPrice": "0x1ba81b",
      "blobGasPrice": "0x1",
      "from": "0xc5adfc119364cfe2297e4414db04834d8702475b",
      "to": "0xe2d235f91e02d028b6c7c8901899ca9c5cfb0047",
      "contractAddress": null
    },
    {
      "status": "0x1",
      "cumulativeGasUsed": "0xb63b",
      "logs": [
        {
          "address": "0xe2d235f91e02d028b6c7c8901899ca9c5cfb0047",
          "topics": [
            "0x17307eab39ab6107e8899845ad3d59bd9653f200f220920489ca2b5937696c31",
            "0x00000000000000000000000008312e82df563a1639b81f49bb41247759700e30",
            "0x000000000000000000000000cd8ac25c1fc748e21dfd9dd3944547706fa4753b"
          ],
          "data": "0x0000000000000000000000000000000000000000000000000000000000000001",
          "blockHash": "0x667148c72c35646aae802fd50e3052bb91edb14ae9516fc66b2d08a43defb0c9",
          "blockNumber": "0x17b85b0",
          "blockTimestamp": "0x6a01db73",
          "transactionHash": "0x8a6952c1c24d8f20caf055bd1c40e6a09d034c8647b2cf275fba42fafc5f4acb",
          "transactionIndex": "0x0",
          "logIndex": "0x0",
          "removed": false
        }
      ],
      "logsBloom": "0x00000000000000000000000021000000000000000000000000000000000000000000000000100000800000000000000000000080000000000000000000000000000000000000000000000000000000000000000000000000000000000000000002000000000000000000000000000000000000000000000000000000000000000000000000000000000000000000000000000000000000000000000000000000000000000000000000002000000000000000000000000000000000000000000000000000000000000000000000000800000000000000000000000000000000800000200800000000000000000000000000000000004000000000000000000000",
      "type": "0x2",
      "transactionHash": "0x8a6952c1c24d8f20caf055bd1c40e6a09d034c8647b2cf275fba42fafc5f4acb",
      "transactionIndex": "0x0",
      "blockHash": "0x667148c72c35646aae802fd50e3052bb91edb14ae9516fc66b2d08a43defb0c9",
      "blockNumber": "0x17b85b0",
      "gasUsed": "0xb63b",
      "effectiveGasPrice": "0x1ba81b",
      "blobGasPrice": "0x1",
      "from": "0x08312e82df563a1639b81f49bb41247759700e30",
      "to": "0xe2d235f91e02d028b6c7c8901899ca9c5cfb0047",
      "contractAddress": null
    },
    {
      "status": "0x1",
      "cumulativeGasUsed": "0xb63b",
      "logs": [
        {
          "address": "0xe2d235f91e02d028b6c7c8901899ca9c5cfb0047",
          "topics": [
            "0x17307eab39ab6107e8899845ad3d59bd9653f200f220920489ca2b5937696c31",
            "0x000000000000000000000000cbe5659df21cbcfabe4da962f7a9081f26b3ed82",
            "0x000000000000000000000000cd8ac25c1fc748e21dfd9dd3944547706fa4753b"
          ],
          "data": "0x0000000000000000000000000000000000000000000000000000000000000001",
          "blockHash": "0x20d77d646221df94dd8e3ec16dc079d01b6cb022f90543cdd7743651c5658785",
          "blockNumber": "0x17b85b1",
          "blockTimestamp": "0x6a01db73",
          "transactionHash": "0x4b349b1d60f4d693e04619b261f045659d53f7883742bcd928424fd60c75710a",
          "transactionIndex": "0x0",
          "logIndex": "0x0",
          "removed": false
        }
      ],
      "logsBloom": "0x00000000000000000000000020000000000000000000000000000000000000000000000000000000800000000000000000000080000000000000000000000000000000000000000000000000000000000000000000000000000000000000000002000000000000000000000000000000000000000000000000000000000000000000000000000000000000000000000000000000000000000000000000000000000000000000000000002000000000000000000000000000000000000000000000000000000000000400000000000800000000000000020000000000000000800000200800000000000000000000000000000000004000000000000000000000",
      "type": "0x2",
      "transactionHash": "0x4b349b1d60f4d693e04619b261f045659d53f7883742bcd928424fd60c75710a",
      "transactionIndex": "0x0",
      "blockHash": "0x20d77d646221df94dd8e3ec16dc079d01b6cb022f90543cdd7743651c5658785",
      "blockNumber": "0x17b85b1",
      "gasUsed": "0xb63b",
      "effectiveGasPrice": "0x1ba81b",
      "blobGasPrice": "0x1",
      "from": "0xcbe5659df21cbcfabe4da962f7a9081f26b3ed82",
      "to": "0xe2d235f91e02d028b6c7c8901899ca9c5cfb0047",
      "contractAddress": null
    },
    {
      "status": "0x1",
      "cumulativeGasUsed": "0xb63b",
      "logs": [
        {
          "address": "0xe2d235f91e02d028b6c7c8901899ca9c5cfb0047",
          "topics": [
            "0x17307eab39ab6107e8899845ad3d59bd9653f200f220920489ca2b5937696c31",
            "0x000000000000000000000000a382b0e75c192d9cdf5c084e58b750cea7761bd0",
            "0x000000000000000000000000cd8ac25c1fc748e21dfd9dd3944547706fa4753b"
          ],
          "data": "0x0000000000000000000000000000000000000000000000000000000000000001",
          "blockHash": "0xc8c1acb105184fa4306b1b7b73529fba7e511fd39ee8deddd17ba02d8d31ff3d",
          "blockNumber": "0x17b85b2",
          "blockTimestamp": "0x6a01db73",
          "transactionHash": "0xe7623764c70163821c94408ff43bac3efdc024c334814f3dc06900bfb0d47c8d",
          "transactionIndex": "0x0",
          "logIndex": "0x0",
          "removed": false
        }
      ],
      "logsBloom": "0x00000000000000000000000020000000000000000000000000000000000000000000000000000000800000000000000000000080000000000000000000000000000000000000000000000000000000000000000000000000000000000000000002000000000000000000000000000000000000000000040000000000000000000000000000000000000000000000000000100000000000000000000000000000000000000000000000002000000000000000000000000000000000000000000000000000000000000000000000000800000000000000000000000000000000800000200800000000000000000000000000000000100000000000000000000000",
      "type": "0x2",
      "transactionHash": "0xe7623764c70163821c94408ff43bac3efdc024c334814f3dc06900bfb0d47c8d",
      "transactionIndex": "0x0",
      "blockHash": "0xc8c1acb105184fa4306b1b7b73529fba7e511fd39ee8deddd17ba02d8d31ff3d",
      "blockNumber": "0x17b85b2",
      "gasUsed": "0xb63b",
      "effectiveGasPrice": "0x1ba81b",
      "blobGasPrice": "0x1",
      "from": "0xa382b0e75c192d9cdf5c084e58b750cea7761bd0",
      "to": "0xe2d235f91e02d028b6c7c8901899ca9c5cfb0047",
      "contractAddress": null
    },
    {
      "status": "0x1",
      "cumulativeGasUsed": "0xb51c",
      "logs": [
        {
          "address": "0xc02aaa39b223fe8d0a0e5c4f27ead9083c756cc2",
          "topics": [
            "0x8c5be1e5ebec7d5bd14f71427d1e84f3dd0314c0f7b2291e5b200ac8c7c3b925",
            "0x000000000000000000000000646dc5fc4009c4c84a424b6ae0f494b374bae1ce",
            "0x000000000000000000000000cd8ac25c1fc748e21dfd9dd3944547706fa4753b"
          ],
          "data": "0xffffffffffffffffffffffffffffffffffffffffffffffffffffffffffffffff",
          "blockHash": "0x4fa0707fcf9a8eb889a1f3563b9bcf61d0b1c22189e09292ee2ae991922be3d7",
          "blockNumber": "0x17b85b3",
          "blockTimestamp": "0x6a01db73",
          "transactionHash": "0x60cac825d2f5870966a4a99343cfb569caddd426357dd3ea7b57472333112444",
          "transactionIndex": "0x0",
          "logIndex": "0x0",
          "removed": false
        }
      ],
      "logsBloom": "0x00000000000000000000000000000000000000000002000000000000000000000000000000000000800000000000000002000080090000000000000000200000000000000000000000000000000000000000000000000000000000000000000000000000000000000004000000000000000000000000000000000000000000000000000000000000000000000000000000000000000000000000000000000000020000000000000000002000000000000000000000000000000000000000000000000000000000000000000000000000000000000000000000000000000000000010200000000000000000000000000000000000000000000000000000000000",
      "type": "0x2",
      "transactionHash": "0x60cac825d2f5870966a4a99343cfb569caddd426357dd3ea7b57472333112444",
      "transactionIndex": "0x0",
      "blockHash": "0x4fa0707fcf9a8eb889a1f3563b9bcf61d0b1c22189e09292ee2ae991922be3d7",
      "blockNumber": "0x17b85b3",
      "gasUsed": "0xb51c",
      "effectiveGasPrice": "0x1ba81b",
      "blobGasPrice": "0x1",
      "from": "0x646dc5fc4009c4c84a424b6ae0f494b374bae1ce",
      "to": "0xc02aaa39b223fe8d0a0e5c4f27ead9083c756cc2",
      "contractAddress": null
    },
    {
      "status": "0x1",
      "cumulativeGasUsed": "0xb51c",
      "logs": [
        {
          "address": "0xc02aaa39b223fe8d0a0e5c4f27ead9083c756cc2",
          "topics": [
            "0x8c5be1e5ebec7d5bd14f71427d1e84f3dd0314c0f7b2291e5b200ac8c7c3b925",
            "0x0000000000000000000000001302f142fc55b165647d3bd5dec227f569a2a907",
            "0x000000000000000000000000cd8ac25c1fc748e21dfd9dd3944547706fa4753b"
          ],
          "data": "0xffffffffffffffffffffffffffffffffffffffffffffffffffffffffffffffff",
          "blockHash": "0x8fd2f8694f27e7370f636e06087ee2f8178265f1f1b6d95b04f0f9cee965ecdd",
          "blockNumber": "0x17b85b4",
          "blockTimestamp": "0x6a01db73",
          "transactionHash": "0x1873dd73eed6ba9ca281e52e497e7e7d45caa09b551a72674fb6ef22eed8a20b",
          "transactionIndex": "0x0",
          "logIndex": "0x0",
          "removed": false
        }
      ],
      "logsBloom": "0x00000000000000000000000000000000000000000000000000000000000000000000000000000000800000000000000002000080080000000000000000200000000000000000000000000000000000000000000000000000000000000000000000000000000000000000000000000000000000000000000000000000000000000000000000000000000000000000000000000000000000000000000000000000020000000000000000002000000100000000000000000000000000000000000000000000000000000000000200000000000000000000000000000000000000000010200000000000000040000000000000000000000000000000000000000000",
      "type": "0x2",
      "transactionHash": "0x1873dd73eed6ba9ca281e52e497e7e7d45caa09b551a72674fb6ef22eed8a20b",
      "transactionIndex": "0x0",
      "blockHash": "0x8fd2f8694f27e7370f636e06087ee2f8178265f1f1b6d95b04f0f9cee965ecdd",
      "blockNumber": "0x17b85b4",
      "gasUsed": "0xb51c",
      "effectiveGasPrice": "0x1ba81b",
      "blobGasPrice": "0x1",
      "from": "0x1302f142fc55b165647d3bd5dec227f569a2a907",
      "to": "0xc02aaa39b223fe8d0a0e5c4f27ead9083c756cc2",
      "contractAddress": null
    },
    {
      "status": "0x1",
      "cumulativeGasUsed": "0xb51c",
      "logs": [
        {
          "address": "0xc02aaa39b223fe8d0a0e5c4f27ead9083c756cc2",
          "topics": [
            "0x8c5be1e5ebec7d5bd14f71427d1e84f3dd0314c0f7b2291e5b200ac8c7c3b925",
            "0x000000000000000000000000e3745c151fab59b0740f4312b2b027f07d096639",
            "0x000000000000000000000000cd8ac25c1fc748e21dfd9dd3944547706fa4753b"
          ],
          "data": "0xffffffffffffffffffffffffffffffffffffffffffffffffffffffffffffffff",
          "blockHash": "0x08fc25a7289ea26927193e77e729fd7298d49d296f9d41a6771f4858a8c2be9c",
          "blockNumber": "0x17b85b5",
          "blockTimestamp": "0x6a01db73",
          "transactionHash": "0x7c42652cfc9a429e5373dc192a047df690f3472bba6d55b5a92bcbe93e4b4d04",
          "transactionIndex": "0x0",
          "logIndex": "0x0",
          "removed": false
        }
      ],
      "logsBloom": "0x00000000000000000000000000000000000000000100000000000000000000000000000000000000800000000000000042000080080000000000000000200000000000000000000000000000000000000000000000000000000000000000000000000000000000000000000000000000000000000000000000000000000000000000000000000000000000000000000000000000000000000000000000000000020000000000000000002000000000000000000000000000000000000000000000000000000000000000000000000000000000000000000000000040000000000010200000000000000000000000000000000000000000000000000000000000",
      "type": "0x2",
      "transactionHash": "0x7c42652cfc9a429e5373dc192a047df690f3472bba6d55b5a92bcbe93e4b4d04",
      "transactionIndex": "0x0",
      "blockHash": "0x08fc25a7289ea26927193e77e729fd7298d49d296f9d41a6771f4858a8c2be9c",
      "blockNumber": "0x17b85b5",
      "gasUsed": "0xb51c",
      "effectiveGasPrice": "0x1ba81b",
      "blobGasPrice": "0x1",
      "from": "0xe3745c151fab59b0740f4312b2b027f07d096639",
      "to": "0xc02aaa39b223fe8d0a0e5c4f27ead9083c756cc2",
      "contractAddress": null
    },
    {
      "status": "0x1",
      "cumulativeGasUsed": "0xb51c",
      "logs": [
        {
          "address": "0xc02aaa39b223fe8d0a0e5c4f27ead9083c756cc2",
          "topics": [
            "0x8c5be1e5ebec7d5bd14f71427d1e84f3dd0314c0f7b2291e5b200ac8c7c3b925",
            "0x0000000000000000000000002c2dba75492e0c4a1d10b41303167aec59586c9c",
            "0x000000000000000000000000cd8ac25c1fc748e21dfd9dd3944547706fa4753b"
          ],
          "data": "0xffffffffffffffffffffffffffffffffffffffffffffffffffffffffffffffff",
          "blockHash": "0x83f4bc699b52ee9fa00efc11cdcf4c6ed0ca75eeaf83836cb9e7545ffe45510b",
          "blockNumber": "0x17b85b6",
          "blockTimestamp": "0x6a01db73",
          "transactionHash": "0x15dba7b0f9243f81f7c7121ee89742e3a69469e64ad772041458cb4831a86f61",
          "transactionIndex": "0x0",
          "logIndex": "0x0",
          "removed": false
        }
      ],
      "logsBloom": "0x00000000000000000000000000000000000000000000000000000000000000000000000000000000800000000000000002000080080000000000000800200000000200000000000000000000000000000000000000000000000000000000000000000000000004000000000000000000000000000000000000000000000000000000000000000000000000000000000000000000000000000000000000000000020000000000000000002000000000000000000000000000000000000000000000000000000000000000000000000000000000000000000000000000000000000010200000000000000000000000000000000000000000000000000000000000",
      "type": "0x2",
      "transactionHash": "0x15dba7b0f9243f81f7c7121ee89742e3a69469e64ad772041458cb4831a86f61",
      "transactionIndex": "0x0",
      "blockHash": "0x83f4bc699b52ee9fa00efc11cdcf4c6ed0ca75eeaf83836cb9e7545ffe45510b",
      "blockNumber": "0x17b85b6",
      "gasUsed": "0xb51c",
      "effectiveGasPrice": "0x1ba81b",
      "blobGasPrice": "0x1",
      "from": "0x2c2dba75492e0c4a1d10b41303167aec59586c9c",
      "to": "0xc02aaa39b223fe8d0a0e5c4f27ead9083c756cc2",
      "contractAddress": null
    },
    {
      "status": "0x1",
      "cumulativeGasUsed": "0xb51c",
      "logs": [
        {
          "address": "0xc02aaa39b223fe8d0a0e5c4f27ead9083c756cc2",
          "topics": [
            "0x8c5be1e5ebec7d5bd14f71427d1e84f3dd0314c0f7b2291e5b200ac8c7c3b925",
            "0x0000000000000000000000004b75aec40561c03e03d4d1c421df194a3031a134",
            "0x000000000000000000000000cd8ac25c1fc748e21dfd9dd3944547706fa4753b"
          ],
          "data": "0xffffffffffffffffffffffffffffffffffffffffffffffffffffffffffffffff",
          "blockHash": "0x3b2f7f1d9f8ca9516e20fa4185c98e87fb5c1d7f86eed810a32a41ed2eb09a68",
          "blockNumber": "0x17b85b7",
          "blockTimestamp": "0x6a01db73",
          "transactionHash": "0x0d94f1f93c8294cdee0c55f75148517aa36eb994c88d92f141722ccad8222ba4",
          "transactionIndex": "0x0",
          "logIndex": "0x0",
          "removed": false
        }
      ],
      "logsBloom": "0x00000000000000000000000000000000000000000000000000000000000000000000000000000000800000000000000002000080080000000000000000200000000000000000000000000000000000000000000000000000000000000000000000000000000000000000000000000000000000000000000000000000000000000000000000000000000000000000000000000000000000000000000000002000020000000000000000002000000400000000000000000000020000000000000000000000000000000000000000000000000000000000000000000000000000000010200000000000000000000000000000000000000000000000000000000000",
      "type": "0x2",
      "transactionHash": "0x0d94f1f93c8294cdee0c55f75148517aa36eb994c88d92f141722ccad8222ba4",
      "transactionIndex": "0x0",
      "blockHash": "0x3b2f7f1d9f8ca9516e20fa4185c98e87fb5c1d7f86eed810a32a41ed2eb09a68",
      "blockNumber": "0x17b85b7",
      "gasUsed": "0xb51c",
      "effectiveGasPrice": "0x1ba81b",
      "blobGasPrice": "0x1",
      "from": "0x4b75aec40561c03e03d4d1c421df194a3031a134",
      "to": "0xc02aaa39b223fe8d0a0e5c4f27ead9083c756cc2",
      "contractAddress": null
    },
    {
      "status": "0x1",
      "cumulativeGasUsed": "0xb51c",
      "logs": [
        {
          "address": "0xc02aaa39b223fe8d0a0e5c4f27ead9083c756cc2",
          "topics": [
            "0x8c5be1e5ebec7d5bd14f71427d1e84f3dd0314c0f7b2291e5b200ac8c7c3b925",
            "0x000000000000000000000000e233420d38d286c2f2cf8dee6564f132fbdb09db",
            "0x000000000000000000000000cd8ac25c1fc748e21dfd9dd3944547706fa4753b"
          ],
          "data": "0xffffffffffffffffffffffffffffffffffffffffffffffffffffffffffffffff",
          "blockHash": "0x2fb46af028030fb1f54eb62a61f73349a2cb1a29c2828ea8b40f89ce64585466",
          "blockNumber": "0x17b85b8",
          "blockTimestamp": "0x6a01db73",
          "transactionHash": "0xb0d09e9c7923368273751e075c08881810cfbbb20844fd1444423ffdb48fc853",
          "transactionIndex": "0x0",
          "logIndex": "0x0",
          "removed": false
        }
      ],
      "logsBloom": "0x00000000000000000000000000000000000000000000000000000000000000000000000000000000800000000000000002000080080000000000000000200000000000000000000000000000000000000000000000000000000000000000000000000001000000000000000000000000000000000000000000000000000000000000000000000000000000000000000000000000000000000000000000000000020000000000000000002000000000000000000000000000000000000000000000000010000000000000000000000000000000000002000000000000000000000010200000000000000000000000000000000000000000000000000000000000",
      "type": "0x2",
      "transactionHash": "0xb0d09e9c7923368273751e075c08881810cfbbb20844fd1444423ffdb48fc853",
      "transactionIndex": "0x0",
      "blockHash": "0x2fb46af028030fb1f54eb62a61f73349a2cb1a29c2828ea8b40f89ce64585466",
      "blockNumber": "0x17b85b8",
      "gasUsed": "0xb51c",
      "effectiveGasPrice": "0x1ba81b",
      "blobGasPrice": "0x1",
      "from": "0xe233420d38d286c2f2cf8dee6564f132fbdb09db",
      "to": "0xc02aaa39b223fe8d0a0e5c4f27ead9083c756cc2",
      "contractAddress": null
    },
    {
      "status": "0x1",
      "cumulativeGasUsed": "0xb51c",
      "logs": [
        {
          "address": "0xc02aaa39b223fe8d0a0e5c4f27ead9083c756cc2",
          "topics": [
            "0x8c5be1e5ebec7d5bd14f71427d1e84f3dd0314c0f7b2291e5b200ac8c7c3b925",
            "0x000000000000000000000000c5adfc119364cfe2297e4414db04834d8702475b",
            "0x000000000000000000000000cd8ac25c1fc748e21dfd9dd3944547706fa4753b"
          ],
          "data": "0xffffffffffffffffffffffffffffffffffffffffffffffffffffffffffffffff",
          "blockHash": "0xa0171b9c65155820284604432d7f67e7a8f6b8f260ce8bbea646ab39e812911a",
          "blockNumber": "0x17b85b9",
          "blockTimestamp": "0x6a01db73",
          "transactionHash": "0xdb0709c3274d6eaa4664cb954cac4a77224f574ed49526988170a655c422bc3b",
          "transactionIndex": "0x0",
          "logIndex": "0x0",
          "removed": false
        }
      ],
      "logsBloom": "0x00000000000000000000000000000000000000000000000000000000000000000000000000000000800000000000000002000080080000000000000000200000000000000000000000000000000000000000000000000000000000000000000200000000000000000000000000000000000000000000000000000000000000000000000000000000000000000000000000000000000000000000000000000000020000000000000000002000000020000000000000000000000000000000000000000000000000000000000000000000000000000000000000000000000000000010200000000000000000000000000000000000000000002000000000000000",
      "type": "0x2",
      "transactionHash": "0xdb0709c3274d6eaa4664cb954cac4a77224f574ed49526988170a655c422bc3b",
      "transactionIndex": "0x0",
      "blockHash": "0xa0171b9c65155820284604432d7f67e7a8f6b8f260ce8bbea646ab39e812911a",
      "blockNumber": "0x17b85b9",
      "gasUsed": "0xb51c",
      "effectiveGasPrice": "0x1ba81b",
      "blobGasPrice": "0x1",
      "from": "0xc5adfc119364cfe2297e4414db04834d8702475b",
      "to": "0xc02aaa39b223fe8d0a0e5c4f27ead9083c756cc2",
      "contractAddress": null
    },
    {
      "status": "0x1",
      "cumulativeGasUsed": "0xb51c",
      "logs": [
        {
          "address": "0xc02aaa39b223fe8d0a0e5c4f27ead9083c756cc2",
          "topics": [
            "0x8c5be1e5ebec7d5bd14f71427d1e84f3dd0314c0f7b2291e5b200ac8c7c3b925",
            "0x00000000000000000000000008312e82df563a1639b81f49bb41247759700e30",
            "0x000000000000000000000000cd8ac25c1fc748e21dfd9dd3944547706fa4753b"
          ],
          "data": "0xffffffffffffffffffffffffffffffffffffffffffffffffffffffffffffffff",
          "blockHash": "0xdd366251f20fec2566e9e604800e857df0d93b31ccd0f387fac04de4c1926a44",
          "blockNumber": "0x17b85ba",
          "blockTimestamp": "0x6a01db73",
          "transactionHash": "0x6f301a82284699dce651513fc778f69ad8006de1cc3fb0c605940adf0db20674",
          "transactionIndex": "0x0",
          "logIndex": "0x0",
          "removed": false
        }
      ],
      "logsBloom": "0x00000000000000000000000001000000000000000000000000000000000000000000000000100000800000000000000002000080080000000000000000200000000000000000000000000000000000000000000000000000000000000000000000000000000000000000000000000000000000000000000000000000000000000000000000000000000000000000000000000000000000000000000000000000020000000000000000002000000000000000000000000000000000000000000000000000000000000000000000000000000000000000000000000000000000000010200000000000000000000000000000000000004000000000000000000000",
      "type": "0x2",
      "transactionHash": "0x6f301a82284699dce651513fc778f69ad8006de1cc3fb0c605940adf0db20674",
      "transactionIndex": "0x0",
      "blockHash": "0xdd366251f20fec2566e9e604800e857df0d93b31ccd0f387fac04de4c1926a44",
      "blockNumber": "0x17b85ba",
      "gasUsed": "0xb51c",
      "effectiveGasPrice": "0x1ba81b",
      "blobGasPrice": "0x1",
      "from": "0x08312e82df563a1639b81f49bb41247759700e30",
      "to": "0xc02aaa39b223fe8d0a0e5c4f27ead9083c756cc2",
      "contractAddress": null
    },
    {
      "status": "0x1",
      "cumulativeGasUsed": "0xb51c",
      "logs": [
        {
          "address": "0xc02aaa39b223fe8d0a0e5c4f27ead9083c756cc2",
          "topics": [
            "0x8c5be1e5ebec7d5bd14f71427d1e84f3dd0314c0f7b2291e5b200ac8c7c3b925",
            "0x000000000000000000000000cbe5659df21cbcfabe4da962f7a9081f26b3ed82",
            "0x000000000000000000000000cd8ac25c1fc748e21dfd9dd3944547706fa4753b"
          ],
          "data": "0xffffffffffffffffffffffffffffffffffffffffffffffffffffffffffffffff",
          "blockHash": "0x3d1690b686037959a04b9ad0a3be38062cda0cd4a1e5caf3b2995773ef157f4f",
          "blockNumber": "0x17b85bb",
          "blockTimestamp": "0x6a01db73",
          "transactionHash": "0x2e9db1fb67086f30f71b451c70ce53f4f2b2932f4ba48a867cc2af7a77153a6c",
          "transactionIndex": "0x0",
          "logIndex": "0x0",
          "removed": false
        }
      ],
      "logsBloom": "0x00000000000000000000000000000000000000000000000000000000000000000000000000000000800000000000000002000080080000000000000000200000000000000000000000000000000000000000000000000000000000000000000000000000000000000000000000000000000000000000000000000000000000000000000000000000000000000000000000000000000000000000000000000000020000000000000000002000000000000000000000000000000000000000000000000000000000000400000000000000000000000000020000000000000000000010200000000000000000000000000000000000004000000000000000000000",
      "type": "0x2",
      "transactionHash": "0x2e9db1fb67086f30f71b451c70ce53f4f2b2932f4ba48a867cc2af7a77153a6c",
      "transactionIndex": "0x0",
      "blockHash": "0x3d1690b686037959a04b9ad0a3be38062cda0cd4a1e5caf3b2995773ef157f4f",
      "blockNumber": "0x17b85bb",
      "gasUsed": "0xb51c",
      "effectiveGasPrice": "0x1ba81b",
      "blobGasPrice": "0x1",
      "from": "0xcbe5659df21cbcfabe4da962f7a9081f26b3ed82",
      "to": "0xc02aaa39b223fe8d0a0e5c4f27ead9083c756cc2",
      "contractAddress": null
    },
    {
      "status": "0x1",
      "cumulativeGasUsed": "0xb51c",
      "logs": [
        {
          "address": "0xc02aaa39b223fe8d0a0e5c4f27ead9083c756cc2",
          "topics": [
            "0x8c5be1e5ebec7d5bd14f71427d1e84f3dd0314c0f7b2291e5b200ac8c7c3b925",
            "0x000000000000000000000000a382b0e75c192d9cdf5c084e58b750cea7761bd0",
            "0x000000000000000000000000cd8ac25c1fc748e21dfd9dd3944547706fa4753b"
          ],
          "data": "0xffffffffffffffffffffffffffffffffffffffffffffffffffffffffffffffff",
          "blockHash": "0x81901ace0858b3896cbd7a29e10149ab45607899047931c95feb36737fc95321",
          "blockNumber": "0x17b85bc",
          "blockTimestamp": "0x6a01db73",
          "transactionHash": "0x686c7f04cd6dcc4df56ca636dea3e24bc08dd3d5ff7c6ca92e9aceee7622e046",
          "transactionIndex": "0x0",
          "logIndex": "0x0",
          "removed": false
        }
      ],
      "logsBloom": "0x00000000000000000000000000000000000000000000000000000000000000000000000000000000800000000000000002000080080000000000000000200000000000000000000000000000000000000000000000000000000000000000000000000000000000000000000000000000000000000000040000000000000000000000000000000000000000000000000000100000000000000000000000000000020000000000000000002000000000000000000000000000000000000000000000000000000000000000000000000000000000000000000000000000000000000010200000000000000000000000000000000000100000000000000000000000",
      "type": "0x2",
      "transactionHash": "0x686c7f04cd6dcc4df56ca636dea3e24bc08dd3d5ff7c6ca92e9aceee7622e046",
      "transactionIndex": "0x0",
      "blockHash": "0x81901ace0858b3896cbd7a29e10149ab45607899047931c95feb36737fc95321",
      "blockNumber": "0x17b85bc",
      "gasUsed": "0xb51c",
      "effectiveGasPrice": "0x1ba81b",
      "blobGasPrice": "0x1",
      "from": "0xa382b0e75c192d9cdf5c084e58b750cea7761bd0",
      "to": "0xc02aaa39b223fe8d0a0e5c4f27ead9083c756cc2",
      "contractAddress": null
    }
  ],
  "libraries": [],
  "pending": [],
  "returns": {},
  "timestamp": 1778506611411,
  "chain": 31337,
  "commit": "59e30a9"
}