{
  "transactions": [
    {
      "hash": "0x1745523326cef6137f00ff11056170ca64742accb219742212a39087bfcf4857",
      "transactionType": "CALL",
      "contractName": null,
      "contractAddress": "0x38d4de42c9c5640a2799b372d27b01957e0a3673",
      "function": "setApprovalForAll(address,bool)",
      "arguments": [
        "0x73973d222C3Fda5B2563D269da9e19cb125000f4",
        "true"
      ],
      "transaction": {
        "from": "0x646dc5fc4009c4c84a424b6ae0f494b374bae1ce",
        "to": "0x38d4de42c9c5640a2799b372d27b01957e0a3673",
        "gas": "0xfba2",
        "value": "0x0",
        "input": "0xa22cb46500000000000000000000000073973d222c3fda5b2563d269da9e19cb125000f40000000000000000000000000000000000000000000000000000000000000001",
        "nonce": "0x85",
        "chainId": "0x7a69"
      },
      "additionalContracts": [],
      "isFixedGasLimit": false
    },
    {
      "hash": "0xc72c7d23f30b838ea22209c93d86a0784acdba8e19c6a65cf32a7f5925fe3d41",
      "transactionType": "CALL",
      "contractName": null,
      "contractAddress": "0x38d4de42c9c5640a2799b372d27b01957e0a3673",
      "function": "setApprovalForAll(address,bool)",
      "arguments": [
        "0x73973d222C3Fda5B2563D269da9e19cb125000f4",
        "true"
      ],
      "transaction": {
        "from": "0x1302f142fc55b165647d3bd5dec227f569a2a907",
        "to": "0x38d4de42c9c5640a2799b372d27b01957e0a3673",
        "gas": "0xfba2",
        "value": "0x0",
        "input": "0xa22cb46500000000000000000000000073973d222c3fda5b2563d269da9e19cb125000f40000000000000000000000000000000000000000000000000000000000000001",
        "nonce": "0x69",
        "chainId": "0x7a69"
      },
      "additionalContracts": [],
      "isFixedGasLimit": false
    },
    {
      "hash": "0xef62f6a2cceb9cb1bbd79128d015ef3cde23df8bf74b19d2a9cda61b4aa7f9c6",
      "transactionType": "CALL",
      "contractName": null,
      "contractAddress": "0x38d4de42c9c5640a2799b372d27b01957e0a3673",
      "function": "setApprovalForAll(address,bool)",
      "arguments": [
        "0x73973d222C3Fda5B2563D269da9e19cb125000f4",
        "true"
      ],
      "transaction": {
        "from": "0xe3745c151fab59b0740f4312b2b027f07d096639",
        "to": "0x38d4de42c9c5640a2799b372d27b01957e0a3673",
        "gas": "0xfba2",
        "value": "0x0",
        "input": "0xa22cb46500000000000000000000000073973d222c3fda5b2563d269da9e19cb125000f40000000000000000000000000000000000000000000000000000000000000001",
        "nonce": "0x7a",
        "chainId": "0x7a69"
      },
      "additionalContracts": [],
      "isFixedGasLimit": false
    },
    {
      "hash": "0x44a9d22de43e057e7d2ba5c5c6c713a9ee632760dce8a24440d8b2a1e07c46ef",
      "transactionType": "CALL",
      "contractName": null,
      "contractAddress": "0x38d4de42c9c5640a2799b372d27b01957e0a3673",
      "function": "setApprovalForAll(address,bool)",
      "arguments": [
        "0x73973d222C3Fda5B2563D269da9e19cb125000f4",
        "true"
      ],
      "transaction": {
        "from": "0x2c2dba75492e0c4a1d10b41303167aec59586c9c",
        "to": "0x38d4de42c9c5640a2799b372d27b01957e0a3673",
        "gas": "0xfba2",
        "value": "0x0",
        "input": "0xa22cb46500000000000000000000000073973d222c3fda5b2563d269da9e19cb125000f40000000000000000000000000000000000000000000000000000000000000001",
        "nonce": "0x5f",
        "chainId": "0x7a69"
      },
      "additionalContracts": [],
      "isFixedGasLimit": false
    },
    {
      "hash": "0x7ce6c5140e099d6ba53505aa0dcfc758e71fb884420bc273c3413a5a7083cf87",
      "transactionType": "CALL",
      "contractName": null,
      "contractAddress": "0x38d4de42c9c5640a2799b372d27b01957e0a3673",
      "function": "setApprovalForAll(address,bool)",
      "arguments": [
        "0x73973d222C3Fda5B2563D269da9e19cb125000f4",
        "true"
      ],
      "transaction": {
        "from": "0x4b75aec40561c03e03d4d1c421df194a3031a134",
        "to": "0x38d4de42c9c5640a2799b372d27b01957e0a3673",
        "gas": "0xfba2",
        "value": "0x0",
        "input": "0xa22cb46500000000000000000000000073973d222c3fda5b2563d269da9e19cb125000f40000000000000000000000000000000000000000000000000000000000000001",
        "nonce": "0x5d",
        "chainId": "0x7a69"
      },
      "additionalContracts": [],
      "isFixedGasLimit": false
    },
    {
      "hash": "0x74c669003bbdfb9332b5bce63abbfca10f2fe9d9344e043b361809af4390cfb0",
      "transactionType": "CALL",
      "contractName": null,
      "contractAddress": "0x38d4de42c9c5640a2799b372d27b01957e0a3673",
      "function": "setApprovalForAll(address,bool)",
      "arguments": [
        "0x73973d222C3Fda5B2563D269da9e19cb125000f4",
        "true"
      ],
      "transaction": {
        "from": "0xe233420d38d286c2f2cf8dee6564f132fbdb09db",
        "to": "0x38d4de42c9c5640a2799b372d27b01957e0a3673",
        "gas": "0xfba2",
        "value": "0x0",
        "input": "0xa22cb46500000000000000000000000073973d222c3fda5b2563d269da9e19cb125000f40000000000000000000000000000000000000000000000000000000000000001",
        "nonce": "0x6b",
        "chainId": "0x7a69"
      },
      "additionalContracts": [],
      "isFixedGasLimit": false
    },
    {
      "hash": "0x6ace48ad44ebae25995a97e215012b82ea72f3ad75bf8b30f574c0fe85bbec1d",
      "transactionType": "CALL",
      "contractName": null,
      "contractAddress": "0x38d4de42c9c5640a2799b372d27b01957e0a3673",
      "function": "setApprovalForAll(address,bool)",
      "arguments": [
        "0x73973d222C3Fda5B2563D269da9e19cb125000f4",
        "true"
      ],
      "transaction": {
        "from": "0xc5adfc119364cfe2297e4414db04834d8702475b",
        "to": "0x38d4de42c9c5640a2799b372d27b01957e0a3673",
        "gas": "0xfba2",
        "value": "0x0",
        "input": "0xa22cb46500000000000000000000000073973d222c3fda5b2563d269da9e19cb125000f40000000000000000000000000000000000000000000000000000000000000001",
        "nonce": "0x60",
        "chainId": "0x7a69"
      },
      "additionalContracts": [],
      "isFixedGasLimit": false
    },
    {
      "hash": "0xab5e3c5c83d8ee9e682c79a1921763f80c7548e13e3eb28bba07b7b504e3c70f",
      "transactionType": "CALL",
      "contractName": null,
      "contractAddress": "0x38d4de42c9c5640a2799b372d27b01957e0a3673",
      "function": "setApprovalForAll(address,bool)",
      "arguments": [
        "0x73973d222C3Fda5B2563D269da9e19cb125000f4",
        "true"
      ],
      "transaction": {
        "from": "0x08312e82df563a1639b81f49bb41247759700e30",
        "to": "0x38d4de42c9c5640a2799b372d27b01957e0a3673",
        "gas": "0xfba2",
        "value": "0x0",
        "input": "0xa22cb46500000000000000000000000073973d222c3fda5b2563d269da9e19cb125000f40000000000000000000000000000000000000000000000000000000000000001",
        "nonce": "0x65",
        "chainId": "0x7a69"
      },
      "additionalContracts": [],
      "isFixedGasLimit": false
    },
    {
      "hash": "0x2ecbc1dda66e6a9f08b5f67eed6e73cc64b0e1b84ffd7087c32f6da67dafecd0",
      "transactionType": "CALL",
      "contractName": null,
      "contractAddress": "0x38d4de42c9c5640a2799b372d27b01957e0a3673",
      "function": "setApprovalForAll(address,bool)",
      "arguments": [
        "0x73973d222C3Fda5B2563D269da9e19cb125000f4",
        "true"
      ],
      "transaction": {
        "from": "0xcbe5659df21cbcfabe4da962f7a9081f26b3ed82",
        "to": "0x38d4de42c9c5640a2799b372d27b01957e0a3673",
        "gas": "0xfba2",
        "value": "0x0",
        "input": "0xa22cb46500000000000000000000000073973d222c3fda5b2563d269da9e19cb125000f40000000000000000000000000000000000000000000000000000000000000001",
        "nonce": "0x68",
        "chainId": "0x7a69"
      },
      "additionalContracts": [],
      "isFixedGasLimit": false
    },
    {
      "hash": "0xe1799ca60303d296cb89494030379ef35aa05e50c41b3a221db1f89361f1ba53",
      "transactionType": "CALL",
      "contractName": null,
      "contractAddress": "0x38d4de42c9c5640a2799b372d27b01957e0a3673",
      "function": "setApprovalForAll(address,bool)",
      "arguments": [
        "0x73973d222C3Fda5B2563D269da9e19cb125000f4",
        "true"
      ],
      "transaction": {
        "from": "0xa382b0e75c192d9cdf5c084e58b750cea7761bd0",
        "to": "0x38d4de42c9c5640a2799b372d27b01957e0a3673",
        "gas": "0xfba2",
        "value": "0x0",
        "input": "0xa22cb46500000000000000000000000073973d222c3fda5b2563d269da9e19cb125000f40000000000000000000000000000000000000000000000000000000000000001",
        "nonce": "0x58",
        "chainId": "0x7a69"
      },
      "additionalContracts": [],
      "isFixedGasLimit": false
    },
    {
      "hash": "0xbc7107e14b8de0f861b9e015fe5d2a701ee8e4cb1976bfb65065b058ccab182f",
      "transactionType": "CALL",
      "contractName": null,
      "contractAddress": "0xc02aaa39b223fe8d0a0e5c4f27ead9083c756cc2",
      "function": "approve(address,uint256)",
      "arguments": [
        "0x73973d222C3Fda5B2563D269da9e19cb125000f4",
        "115792089237316195423570985008687907853269984665640564039457584007913129639935"
      ],
      "transaction": {
        "from": "0x646dc5fc4009c4c84a424b6ae0f494b374bae1ce",
        "to": "0xc02aaa39b223fe8d0a0e5c4f27ead9083c756cc2",
        "gas": "0xfa17",
        "value": "0x0",
        "input": "0x095ea7b300000000000000000000000073973d222c3fda5b2563d269da9e19cb125000f4ffffffffffffffffffffffffffffffffffffffffffffffffffffffffffffffff",
        "nonce": "0x86",
        "chainId": "0x7a69"
      },
      "additionalContracts": [],
      "isFixedGasLimit": false
    },
    {
      "hash": "0x28cd0430217c53022f8d21cba3bffed6f2bbd8972d323b4c574eb92ab7d68428",
      "transactionType": "CALL",
      "contractName": null,
      "contractAddress": "0xc02aaa39b223fe8d0a0e5c4f27ead9083c756cc2",
      "function": "approve(address,uint256)",
      "arguments": [
        "0x73973d222C3Fda5B2563D269da9e19cb125000f4",
        "115792089237316195423570985008687907853269984665640564039457584007913129639935"
      ],
      "transaction": {
        "from": "0x1302f142fc55b165647d3bd5dec227f569a2a907",
        "to": "0xc02aaa39b223fe8d0a0e5c4f27ead9083c756cc2",
        "gas": "0xfa17",
        "value": "0x0",
        "input": "0x095ea7b300000000000000000000000073973d222c3fda5b2563d269da9e19cb125000f4ffffffffffffffffffffffffffffffffffffffffffffffffffffffffffffffff",
        "nonce": "0x6a",
        "chainId": "0x7a69"
      },
      "additionalContracts": [],
      "isFixedGasLimit": false
    },
    {
      "hash": "0x04b25ab73b80e9160636ce27b0865bc460ff5e5eebf078f5970e075211371b89",
      "transactionType": "CALL",
      "contractName": null,
      "contractAddress": "0xc02aaa39b223fe8d0a0e5c4f27ead9083c756cc2",
      "function": "approve(address,uint256)",
      "arguments": [
        "0x73973d222C3Fda5B2563D269da9e19cb125000f4",
        "115792089237316195423570985008687907853269984665640564039457584007913129639935"
      ],
      "transaction": {
        "from": "0xe3745c151fab59b0740f4312b2b027f07d096639",
        "to": "0xc02aaa39b223fe8d0a0e5c4f27ead9083c756cc2",
        "gas": "0xfa17",
        "value": "0x0",
        "input": "0x095ea7b300000000000000000000000073973d222c3fda5b2563d269da9e19cb125000f4ffffffffffffffffffffffffffffffffffffffffffffffffffffffffffffffff",
        "nonce": "0x7b",
        "chainId": "0x7a69"
      },
      "additionalContracts": [],
      "isFixedGasLimit": false
    },
    {
      "hash": "0x4b97b761bf5095eae2196fb98257eac9a3e97656e4daa8d2ad999e95482a6faf",
      "transactionType": "CALL",
      "contractName": null,
      "contractAddress": "0xc02aaa39b223fe8d0a0e5c4f27ead9083c756cc2",
      "function": "approve(address,uint256)",
      "arguments": [
        "0x73973d222C3Fda5B2563D269da9e19cb125000f4",
        "115792089237316195423570985008687907853269984665640564039457584007913129639935"
      ],
      "transaction": {
        "from": "0x2c2dba75492e0c4a1d10b41303167aec59586c9c",
        "to": "0xc02aaa39b223fe8d0a0e5c4f27ead9083c756cc2",
        "gas": "0xfa17",
        "value": "0x0",
        "input": "0x095ea7b300000000000000000000000073973d222c3fda5b2563d269da9e19cb125000f4ffffffffffffffffffffffffffffffffffffffffffffffffffffffffffffffff",
        "nonce": "0x60",
        "chainId": "0x7a69"
      },
      "additionalContracts": [],
      "isFixedGasLimit": false
    },
    {
      "hash": "0x4087506de4a2158eb94a2b55e184bfef3d2a5cdaafa1782a2ce31792d47d57a7",
      "transactionType": "CALL",
      "contractName": null,
      "contractAddress": "0xc02aaa39b223fe8d0a0e5c4f27ead9083c756cc2",
      "function": "approve(address,uint256)",
      "arguments": [
        "0x73973d222C3Fda5B2563D269da9e19cb125000f4",
        "115792089237316195423570985008687907853269984665640564039457584007913129639935"
      ],
      "transaction": {
        "from": "0x4b75aec40561c03e03d4d1c421df194a3031a134",
        "to": "0xc02aaa39b223fe8d0a0e5c4f27ead9083c756cc2",
        "gas": "0xfa17",
        "value": "0x0",
        "input": "0x095ea7b300000000000000000000000073973d222c3fda5b2563d269da9e19cb125000f4ffffffffffffffffffffffffffffffffffffffffffffffffffffffffffffffff",
        "nonce": "0x5e",
        "chainId": "0x7a69"
      },
      "additionalContracts": [],
      "isFixedGasLimit": false
    },
    {
      "hash": "0xa7343b183e61f72f9129295b416245d2641b7cea17c12ea74bf0fbc29c9869d5",
      "transactionType": "CALL",
      "contractName": null,
      "contractAddress": "0xc02aaa39b223fe8d0a0e5c4f27ead9083c756cc2",
      "function": "approve(address,uint256)",
      "arguments": [
        "0x73973d222C3Fda5B2563D269da9e19cb125000f4",
        "115792089237316195423570985008687907853269984665640564039457584007913129639935"
      ],
      "transaction": {
        "from": "0xe233420d38d286c2f2cf8dee6564f132fbdb09db",
        "to": "0xc02aaa39b223fe8d0a0e5c4f27ead9083c756cc2",
        "gas": "0xfa17",
        "value": "0x0",
        "input": "0x095ea7b300000000000000000000000073973d222c3fda5b2563d269da9e19cb125000f4ffffffffffffffffffffffffffffffffffffffffffffffffffffffffffffffff",
        "nonce": "0x6c",
        "chainId": "0x7a69"
      },
      "additionalContracts": [],
      "isFixedGasLimit": false
    },
    {
      "hash": "0x3659638c561a27dda4b3d58766da8ec3594d2e2bec10c56e65b079f3f9522c46",
      "transactionType": "CALL",
      "contractName": null,
      "contractAddress": "0xc02aaa39b223fe8d0a0e5c4f27ead9083c756cc2",
      "function": "approve(address,uint256)",
      "arguments": [
        "0x73973d222C3Fda5B2563D269da9e19cb125000f4",
        "115792089237316195423570985008687907853269984665640564039457584007913129639935"
      ],
      "transaction": {
        "from": "0xc5adfc119364cfe2297e4414db04834d8702475b",
        "to": "0xc02aaa39b223fe8d0a0e5c4f27ead9083c756cc2",
        "gas": "0xfa17",
        "value": "0x0",
        "input": "0x095ea7b300000000000000000000000073973d222c3fda5b2563d269da9e19cb125000f4ffffffffffffffffffffffffffffffffffffffffffffffffffffffffffffffff",
        "nonce": "0x61",
        "chainId": "0x7a69"
      },
      "additionalContracts": [],
      "isFixedGasLimit": false
    },
    {
      "hash": "0x009eccb7a939aee3a5cd88d64f9318fe1854db25c6d359d6db75e7daf074340f",
      "transactionType": "CALL",
      "contractName": null,
      "contractAddress": "0xc02aaa39b223fe8d0a0e5c4f27ead9083c756cc2",
      "function": "approve(address,uint256)",
      "arguments": [
        "0x73973d222C3Fda5B2563D269da9e19cb125000f4",
        "115792089237316195423570985008687907853269984665640564039457584007913129639935"
      ],
      "transaction": {
        "from": "0x08312e82df563a1639b81f49bb41247759700e30",
        "to": "0xc02aaa39b223fe8d0a0e5c4f27ead9083c756cc2",
        "gas": "0xfa17",
        "value": "0x0",
        "input": "0x095ea7b300000000000000000000000073973d222c3fda5b2563d269da9e19cb125000f4ffffffffffffffffffffffffffffffffffffffffffffffffffffffffffffffff",
        "nonce": "0x66",
        "chainId": "0x7a69"
      },
      "additionalContracts": [],
      "isFixedGasLimit": false
    },
    {
      "hash": "0xb75b9b0ba2848085e5d02b58031692d90e1143c4fc72ebe763ceee87edabcb0c",
      "transactionType": "CALL",
      "contractName": null,
      "contractAddress": "0xc02aaa39b223fe8d0a0e5c4f27ead9083c756cc2",
      "function": "approve(address,uint256)",
      "arguments": [
        "0x73973d222C3Fda5B2563D269da9e19cb125000f4",
        "115792089237316195423570985008687907853269984665640564039457584007913129639935"
      ],
      "transaction": {
        "from": "0xcbe5659df21cbcfabe4da962f7a9081f26b3ed82",
        "to": "0xc02aaa39b223fe8d0a0e5c4f27ead9083c756cc2",
        "gas": "0xfa17",
        "value": "0x0",
        "input": "0x095ea7b300000000000000000000000073973d222c3fda5b2563d269da9e19cb125000f4ffffffffffffffffffffffffffffffffffffffffffffffffffffffffffffffff",
        "nonce": "0x69",
        "chainId": "0x7a69"
      },
      "additionalContracts": [],
      "isFixedGasLimit": false
    },
    {
      "hash": "0x0ef177829683f83a95b8095267c7ed5c3b2a4409e40828adfa55aafc6edb3b61",
      "transactionType": "CALL",
      "contractName": null,
      "contractAddress": "0xc02aaa39b223fe8d0a0e5c4f27ead9083c756cc2",
      "function": "approve(address,uint256)",
      "arguments": [
        "0x73973d222C3Fda5B2563D269da9e19cb125000f4",
        "115792089237316195423570985008687907853269984665640564039457584007913129639935"
      ],
      "transaction": {
        "from": "0xa382b0e75c192d9cdf5c084e58b750cea7761bd0",
        "to": "0xc02aaa39b223fe8d0a0e5c4f27ead9083c756cc2",
        "gas": "0xfa17",
        "value": "0x0",
        "input": "0x095ea7b300000000000000000000000073973d222c3fda5b2563d269da9e19cb125000f4ffffffffffffffffffffffffffffffffffffffffffffffffffffffffffffffff",
        "nonce": "0x59",
        "chainId": "0x7a69"
      },
      "additionalContracts": [],
      "isFixedGasLimit": false
    }
  ],
  "receipts": [
    {
      "status": "0x1",
      "cumulativeGasUsed": "0xb62f",
      "logs": [
        {
          "address": "0x38d4de42c9c5640a2799b372d27b01957e0a3673",
          "topics": [
            "0x17307eab39ab6107e8899845ad3d59bd9653f200f220920489ca2b5937696c31",
            "0x000000000000000000000000646dc5fc4009c4c84a424b6ae0f494b374bae1ce",
            "0x00000000000000000000000073973d222c3fda5b2563d269da9e19cb125000f4"
          ],
          "data": "0x0000000000000000000000000000000000000000000000000000000000000001",
          "blockHash": "0x2bebdd06db794676866b1bd000cdaddd44e9fee8420b90c1c1a8c581ad607061",
          "blockNumber": "0x17b7374",
          "blockTimestamp": "0x69dc22a4",
          "transactionHash": "0x1745523326cef6137f00ff11056170ca64742accb219742212a39087bfcf4857",
          "transactionIndex": "0x0",
          "logIndex": "0x0",
          "removed": false
        }
      ],
      "logsBloom": "0x00000000000000000000000040000000000000000002000000000000000000000000000000000000000000000000000000000000010000000004000000000000000000000000000020000000000000000000000000000000000000000000000002000000000000000004000000000000000100000000000000000000000000000000000000000000000000000000000000000000000000000000000000000000000000000000000000000000000000000000000000000000000000000000000000000000000000000000000000000000020000000000000000000000000000000000200800000000000000000000000000000000000000000000000000000000",
      "type": "0x2",
      "transactionHash": "0x1745523326cef6137f00ff11056170ca64742accb219742212a39087bfcf4857",
      "transactionIndex": "0x0",
      "blockHash": "0x2bebdd06db794676866b1bd000cdaddd44e9fee8420b90c1c1a8c581ad607061",
      "blockNumber": "0x17b7374",
      "gasUsed": "0xb62f",
      "effectiveGasPrice": "0xf4248",
      "blobGasPrice": "0x1",
      "from": "0x646dc5fc4009c4c84a424b6ae0f494b374bae1ce",
      "to": "0x38d4de42c9c5640a2799b372d27b01957e0a3673",
      "contractAddress": null
    },
    {
      "status": "0x1",
      "cumulativeGasUsed": "0xb62f",
      "logs": [
        {
          "address": "0x38d4de42c9c5640a2799b372d27b01957e0a3673",
          "topics": [
            "0x17307eab39ab6107e8899845ad3d59bd9653f200f220920489ca2b5937696c31",
            "0x0000000000000000000000001302f142fc55b165647d3bd5dec227f569a2a907",
            "0x00000000000000000000000073973d222c3fda5b2563d269da9e19cb125000f4"
          ],
          "data": "0x0000000000000000000000000000000000000000000000000000000000000001",
          "blockHash": "0x0fb82345296e23417656b0be86401b27593885cf63bbac57570a0c426938b8ad",
          "blockNumber": "0x17b7375",
          "blockTimestamp": "0x69dc22a4",
          "transactionHash": "0xc72c7d23f30b838ea22209c93d86a0784acdba8e19c6a65cf32a7f5925fe3d41",
          "transactionIndex": "0x0",
          "logIndex": "0x0",
          "removed": false
        }
      ],
      "logsBloom": "0x00000000000000000000000040000000000000000002000000000000000000000000000000000000000000000000000000000000000000000004000000000000000000000000000020000000000000000000000000000000000000000000000002000000000000000000000000000000000100000000000000000000000000000000000000000000000000000000000000000000000000000000000000000000000000000000000000000000000100000000000000000000000000000000000000000000000000000000000200000000020000000000000000000000000000000000200800000000000040000000000000000000000000000000000000000000",
      "type": "0x2",
      "transactionHash": "0xc72c7d23f30b838ea22209c93d86a0784acdba8e19c6a65cf32a7f5925fe3d41",
      "transactionIndex": "0x0",
      "blockHash": "0x0fb82345296e23417656b0be86401b27593885cf63bbac57570a0c426938b8ad",
      "blockNumber": "0x17b7375",
      "gasUsed": "0xb62f",
      "effectiveGasPrice": "0xf4248",
      "blobGasPrice": "0x1",
      "from": "0x1302f142fc55b165647d3bd5dec227f569a2a907",
      "to": "0x38d4de42c9c5640a2799b372d27b01957e0a3673",
      "contractAddress": null
    },
    {
      "status": "0x1",
      "cumulativeGasUsed": "0xb62f",
      "logs": [
        {
          "address": "0x38d4de42c9c5640a2799b372d27b01957e0a3673",
          "topics": [
            "0x17307eab39ab6107e8899845ad3d59bd9653f200f220920489ca2b5937696c31",
            "0x000000000000000000000000e3745c151fab59b0740f4312b2b027f07d096639",
            "0x00000000000000000000000073973d222c3fda5b2563d269da9e19cb125000f4"
          ],
          "data": "0x0000000000000000000000000000000000000000000000000000000000000001",
          "blockHash": "0x625bb794634bb5588932bcbc8155f03674a40c43d8636eb5ce11126db45d5ffc",
          "blockNumber": "0x17b7376",
          "blockTimestamp": "0x69dc22a4",
          "transactionHash": "0xef62f6a2cceb9cb1bbd79128d015ef3cde23df8bf74b19d2a9cda61b4aa7f9c6",
          "transactionIndex": "0x0",
          "logIndex": "0x0",
          "removed": false
        }
      ],
      "logsBloom": "0x00000000000000000000000040000000000000000102000000000000000000000000000000000000000000000000000040000000000000000004000000000000000000000000000020000000000000000000000000000000000000000000000002000000000000000000000000000000000100000000000000000000000000000000000000000000000000000000000000000000000000000000000000000000000000000000000000000000000000000000000000000000000000000000000000000000000000000000000000000000020000000000000000000040000000000000200800000000000000000000000000000000000000000000000000000000",
      "type": "0x2",
      "transactionHash": "0xef62f6a2cceb9cb1bbd79128d015ef3cde23df8bf74b19d2a9cda61b4aa7f9c6",
      "transactionIndex": "0x0",
      "blockHash": "0x625bb794634bb5588932bcbc8155f03674a40c43d8636eb5ce11126db45d5ffc",
      "blockNumber": "0x17b7376",
      "gasUsed": "0xb62f",
      "effectiveGasPrice": "0xf4248",
      "blobGasPrice": "0x1",
      "from": "0xe3745c151fab59b0740f4312b2b027f07d096639",
      "to": "0x38d4de42c9c5640a2799b372d27b01957e0a3673",
      "contractAddress": null
    },
    {
      "status": "0x1",
      "cumulativeGasUsed": "0xb62f",
      "logs": [
        {
          "address": "0x38d4de42c9c5640a2799b372d27b01957e0a3673",
          "topics": [
            "0x17307eab39ab6107e8899845ad3d59bd9653f200f220920489ca2b5937696c31",
            "0x0000000000000000000000002c2dba75492e0c4a1d10b41303167aec59586c9c",
            "0x00000000000000000000000073973d222c3fda5b2563d269da9e19cb125000f4"
          ],
          "data": "0x0000000000000000000000000000000000000000000000000000000000000001",
          "blockHash": "0x1d7390cbe8947bef472478c340747d8c51ce247fa61d91c3dbb6fbc97731ba9d",
          "blockNumber": "0x17b7377",
          "blockTimestamp": "0x69dc22a4",
          "transactionHash": "0x44a9d22de43e057e7d2ba5c5c6c713a9ee632760dce8a24440d8b2a1e07c46ef",
          "transactionIndex": "0x0",
          "logIndex": "0x0",
          "removed": false
        }
      ],
      "logsBloom": "0x00000000000000000000000040000000000000000002000000000000000000000000000000000000000000000000000000000000000000000004000800000000000200000000000020000000000000000000000000000000000000000000000002000000000004000000000000000000000100000000000000000000000000000000000000000000000000000000000000000000000000000000000000000000000000000000000000000000000000000000000000000000000000000000000000000000000000000000000000000000020000000000000000000000000000000000200800000000000000000000000000000000000000000000000000000000",
      "type": "0x2",
      "transactionHash": "0x44a9d22de43e057e7d2ba5c5c6c713a9ee632760dce8a24440d8b2a1e07c46ef",
      "transactionIndex": "0x0",
      "blockHash": "0x1d7390cbe8947bef472478c340747d8c51ce247fa61d91c3dbb6fbc97731ba9d",
      "blockNumber": "0x17b7377",
      "gasUsed": "0xb62f",
      "effectiveGasPrice": "0xf4248",
      "blobGasPrice": "0x1",
      "from": "0x2c2dba75492e0c4a1d10b41303167aec59586c9c",
      "to": "0x38d4de42c9c5640a2799b372d27b01957e0a3673",
      "contractAddress": null
    },
    {
      "status": "0x1",
      "cumulativeGasUsed": "0xb62f",
      "logs": [
        {
          "address": "0x38d4de42c9c5640a2799b372d27b01957e0a3673",
          "topics": [
            "0x17307eab39ab6107e8899845ad3d59bd9653f200f220920489ca2b5937696c31",
            "0x0000000000000000000000004b75aec40561c03e03d4d1c421df194a3031a134",
            "0x00000000000000000000000073973d222c3fda5b2563d269da9e19cb125000f4"
          ],
          "data": "0x0000000000000000000000000000000000000000000000000000000000000001",
          "blockHash": "0xe1e70b2639785ea22f3b0e4e3def730a41132b9a3b36a934b94e2ed36cdbddaa",
          "blockNumber": "0x17b7378",
          "blockTimestamp": "0x69dc22a4",
          "transactionHash": "0x7ce6c5140e099d6ba53505aa0dcfc758e71fb884420bc273c3413a5a7083cf87",
          "transactionIndex": "0x0",
          "logIndex": "0x0",
          "removed": false
        }
      ],
      "logsBloom": "0x00000000000000000000000040000000000000000002000000000000000000000000000000000000000000000000000000000000000000000004000000000000000000000000000020000000000000000000000000000000000000000000000002000000000000000000000000000000000100000000000000000000000000000000000000000000000000000000000000000000000000000000000000002000000000000000000000000000000400000000000000000000020000000000000000000000000000000000000000000000020000000000000000000000000000000000200800000000000000000000000000000000000000000000000000000000",
      "type": "0x2",
      "transactionHash": "0x7ce6c5140e099d6ba53505aa0dcfc758e71fb884420bc273c3413a5a7083cf87",
      "transactionIndex": "0x0",
      "blockHash": "0xe1e70b2639785ea22f3b0e4e3def730a41132b9a3b36a934b94e2ed36cdbddaa",
      "blockNumber": "0x17b7378",
      "gasUsed": "0xb62f",
      "effectiveGasPrice": "0xf4248",
      "blobGasPrice": "0x1",
      "from": "0x4b75aec40561c03e03d4d1c421df194a3031a134",
      "to": "0x38d4de42c9c5640a2799b372d27b01957e0a3673",
      "contractAddress": null
    },
    {
      "status": "0x1",
      "cumulativeGasUsed": "0xb62f",
      "logs": [
        {
          "address": "0x38d4de42c9c5640a2799b372d27b01957e0a3673",
          "topics": [
            "0x17307eab39ab6107e8899845ad3d59bd9653f200f220920489ca2b5937696c31",
            "0x000000000000000000000000e233420d38d286c2f2cf8dee6564f132fbdb09db",
            "0x00000000000000000000000073973d222c3fda5b2563d269da9e19cb125000f4"
          ],
          "data": "0x0000000000000000000000000000000000000000000000000000000000000001",
          "blockHash": "0xbe5460067350bad2b9b6c13035c2f6c16462a499f5f3353b2988f4b1bae96f93",
          "blockNumber": "0x17b7379",
          "blockTimestamp": "0x69dc22a4",
          "transactionHash": "0x74c669003bbdfb9332b5bce63abbfca10f2fe9d9344e043b361809af4390cfb0",
          "transactionIndex": "0x0",
          "logIndex": "0x0",
          "removed": false
        }
      ],
      "logsBloom": "0x00000000000000000000000040000000000000000002000000000000000000000000000000000000000000000000000000000000000000000004000000000000000000000000000020000000000000000000000000000000000000000000000002000001000000000000000000000000000100000000000000000000000000000000000000000000000000000000000000000000000000000000000000000000000000000000000000000000000000000000000000000000000000000000000000000010000000000000000000000000020000000002000000000000000000000000200800000000000000000000000000000000000000000000000000000000",
      "type": "0x2",
      "transactionHash": "0x74c669003bbdfb9332b5bce63abbfca10f2fe9d9344e043b361809af4390cfb0",
      "transactionIndex": "0x0",
      "blockHash": "0xbe5460067350bad2b9b6c13035c2f6c16462a499f5f3353b2988f4b1bae96f93",
      "blockNumber": "0x17b7379",
      "gasUsed": "0xb62f",
      "effectiveGasPrice": "0xf4248",
      "blobGasPrice": "0x1",
      "from": "0xe233420d38d286c2f2cf8dee6564f132fbdb09db",
      "to": "0x38d4de42c9c5640a2799b372d27b01957e0a3673",
      "contractAddress": null
    },
    {
      "status": "0x1",
      "cumulativeGasUsed": "0xb62f",
      "logs": [
        {
          "address": "0x38d4de42c9c5640a2799b372d27b01957e0a3673",
          "topics": [
            "0x17307eab39ab6107e8899845ad3d59bd9653f200f220920489ca2b5937696c31",
            "0x000000000000000000000000c5adfc119364cfe2297e4414db04834d8702475b",
            "0x00000000000000000000000073973d222c3fda5b2563d269da9e19cb125000f4"
          ],
          "data": "0x0000000000000000000000000000000000000000000000000000000000000001",
          "blockHash": "0x4edef41b99f18e73caaf75bf7518a8b5adfd99e3e5af0b51011b8c027c3620ee",
          "blockNumber": "0x17b737a",
          "blockTimestamp": "0x69dc22a4",
          "transactionHash": "0x6ace48ad44ebae25995a97e215012b82ea72f3ad75bf8b30f574c0fe85bbec1d",
          "transactionIndex": "0x0",
          "logIndex": "0x0",
          "removed": false
        }
      ],
      "logsBloom": "0x00000000000000000000000040000000000000000002000000000000000000000000000000000000000000000000000000000000000000000004000000000000000000000000000020000000000000000000000000000000000000000000000202000000000000000000000000000000000100000000000000000000000000000000000000000000000000000000000000000000000000000000000000000000000000000000000000000000000020000000000000000000000000000000000000000000000000000000000000000000020000000000000000000000000000000000200800000000000000000000000000000000000000002000000000000000",
      "type": "0x2",
      "transactionHash": "0x6ace48ad44ebae25995a97e215012b82ea72f3ad75bf8b30f574c0fe85bbec1d",
      "transactionIndex": "0x0",
      "blockHash": "0x4edef41b99f18e73caaf75bf7518a8b5adfd99e3e5af0b51011b8c027c3620ee",
      "blockNumber": "0x17b737a",
      "gasUsed": "0xb62f",
      "effectiveGasPrice": "0xf4248",
      "blobGasPrice": "0x1",
      "from": "0xc5adfc119364cfe2297e4414db04834d8702475b",
      "to": "0x38d4de42c9c5640a2799b372d27b01957e0a3673",
      "contractAddress": null
    },
    {
      "status": "0x1",
      "cumulativeGasUsed": "0xb62f",
      "logs": [
        {
          "address": "0x38d4de42c9c5640a2799b372d27b01957e0a3673",
          "topics": [
            "0x17307eab39ab6107e8899845ad3d59bd9653f200f220920489ca2b5937696c31",
            "0x00000000000000000000000008312e82df563a1639b81f49bb41247759700e30",
            "0x00000000000000000000000073973d222c3fda5b2563d269da9e19cb125000f4"
          ],
          "data": "0x0000000000000000000000000000000000000000000000000000000000000001",
          "blockHash": "0xbdade35813e76a2addbb7d0d748babe0a8e6ca1c41fdddfb93da4b266d6bce70",
          "blockNumber": "0x17b737b",
          "blockTimestamp": "0x69dc22a4",
          "transactionHash": "0xab5e3c5c83d8ee9e682c79a1921763f80c7548e13e3eb28bba07b7b504e3c70f",
          "transactionIndex": "0x0",
          "logIndex": "0x0",
          "removed": false
        }
      ],
      "logsBloom": "0x00000000000000000000000041000000000000000002000000000000000000000000000000100000000000000000000000000000000000000004000000000000000000000000000020000000000000000000000000000000000000000000000002000000000000000000000000000000000100000000000000000000000000000000000000000000000000000000000000000000000000000000000000000000000000000000000000000000000000000000000000000000000000000000000000000000000000000000000000000000020000000000000000000000000000000000200800000000000000000000000000000000004000000000000000000000",
      "type": "0x2",
      "transactionHash": "0xab5e3c5c83d8ee9e682c79a1921763f80c7548e13e3eb28bba07b7b504e3c70f",
      "transactionIndex": "0x0",
      "blockHash": "0xbdade35813e76a2addbb7d0d748babe0a8e6ca1c41fdddfb93da4b266d6bce70",
      "blockNumber": "0x17b737b",
      "gasUsed": "0xb62f",
      "effectiveGasPrice": "0xf4248",
      "blobGasPrice": "0x1",
      "from": "0x08312e82df563a1639b81f49bb41247759700e30",
      "to": "0x38d4de42c9c5640a2799b372d27b01957e0a3673",
      "contractAddress": null
    },
    {
      "status": "0x1",
      "cumulativeGasUsed": "0xb62f",
      "logs": [
        {
          "address": "0x38d4de42c9c5640a2799b372d27b01957e0a3673",
          "topics": [
            "0x17307eab39ab6107e8899845ad3d59bd9653f200f220920489ca2b5937696c31",
            "0x000000000000000000000000cbe5659df21cbcfabe4da962f7a9081f26b3ed82",
            "0x00000000000000000000000073973d222c3fda5b2563d269da9e19cb125000f4"
          ],
          "data": "0x0000000000000000000000000000000000000000000000000000000000000001",
          "blockHash": "0xe6b30ba8307098719b167533a24a9345c8a46edad5a093362eb31ec8c887c028",
          "blockNumber": "0x17b737c",
          "blockTimestamp": "0x69dc22a4",
          "transactionHash": "0x2ecbc1dda66e6a9f08b5f67eed6e73cc64b0e1b84ffd7087c32f6da67dafecd0",
          "transactionIndex": "0x0",
          "logIndex": "0x0",
          "removed": false
        }
      ],
      "logsBloom": "0x00000000000000000000000040000000000000000002000000000000000000000000000000000000000000000000000000000000000000000004000000000000000000000000000020000000000000000000000000000000000000000000000002000000000000000000000000000000000100000000000000000000000000000000000000000000000000000000000000000000000000000000000000000000000000000000000000000000000000000000000000000000000000000000000000000000000000000400000000000000020000000000020000000000000000000000200800000000000000000000000000000000004000000000000000000000",
      "type": "0x2",
      "transactionHash": "0x2ecbc1dda66e6a9f08b5f67eed6e73cc64b0e1b84ffd7087c32f6da67dafecd0",
      "transactionIndex": "0x0",
      "blockHash": "0xe6b30ba8307098719b167533a24a9345c8a46edad5a093362eb31ec8c887c028",
      "blockNumber": "0x17b737c",
      "gasUsed": "0xb62f",
      "effectiveGasPrice": "0xf4248",
      "blobGasPrice": "0x1",
      "from": "0xcbe5659df21cbcfabe4da962f7a9081f26b3ed82",
      "to": "0x38d4de42c9c5640a2799b372d27b01957e0a3673",
      "contractAddress": null
    },
    {
      "status": "0x1",
      "cumulativeGasUsed": "0xb62f",
      "logs": [
        {
          "address": "0x38d4de42c9c5640a2799b372d27b01957e0a3673",
          "topics": [
            "0x17307eab39ab6107e8899845ad3d59bd9653f200f220920489ca2b5937696c31",
            "0x000000000000000000000000a382b0e75c192d9cdf5c084e58b750cea7761bd0",
            "0x00000000000000000000000073973d222c3fda5b2563d269da9e19cb125000f4"
          ],
          "data": "0x0000000000000000000000000000000000000000000000000000000000000001",
          "blockHash": "0x668adf0358b58985af19efeefbb5465b4213321f322d05a9bbfc212f940de054",
          "blockNumber": "0x17b737d",
          "blockTimestamp": "0x69dc22a4",
          "transactionHash": "0xe1799ca60303d296cb89494030379ef35aa05e50c41b3a221db1f89361f1ba53",
          "transactionIndex": "0x0",
          "logIndex": "0x0",
          "removed": false
        }
      ],
      "logsBloom": "0x00000000000000000000000040000000000000000002000000000000000000000000000000000000000000000000000000000000000000000004000000000000000000000000000020000000000000000000000000000000000000000000000002000000000000000000000000000000000100000000040000000000000000000000000000000000000000000000000000100000000000000000000000000000000000000000000000000000000000000000000000000000000000000000000000000000000000000000000000000000020000000000000000000000000000000000200800000000000000000000000000000000100000000000000000000000",
      "type": "0x2",
      "transactionHash": "0xe1799ca60303d296cb89494030379ef35aa05e50c41b3a221db1f89361f1ba53",
      "transactionIndex": "0x0",
      "blockHash": "0x668adf0358b58985af19efeefbb5465b4213321f322d05a9bbfc212f940de054",
      "blockNumber": "0x17b737d",
      "gasUsed": "0xb62f",
      "effectiveGasPrice": "0xf4248",
      "blobGasPrice": "0x1",
      "from": "0xa382b0e75c192d9cdf5c084e58b750cea7761bd0",
      "to": "0x38d4de42c9c5640a2799b372d27b01957e0a3673",
      "contractAddress": null
    },
    {
      "status": "0x1",
      "cumulativeGasUsed": "0xb510",
      "logs": [
        {
          "address": "0xc02aaa39b223fe8d0a0e5c4f27ead9083c756cc2",
          "topics": [
            "0x8c5be1e5ebec7d5bd14f71427d1e84f3dd0314c0f7b2291e5b200ac8c7c3b925",
            "0x000000000000000000000000646dc5fc4009c4c84a424b6ae0f494b374bae1ce",
            "0x00000000000000000000000073973d222c3fda5b2563d269da9e19cb125000f4"
          ],
          "data": "0xffffffffffffffffffffffffffffffffffffffffffffffffffffffffffffffff",
          "blockHash": "0xff5f42b91ad32f2c2aa2bfb87dd6b26688b2be1d16939b97ea779a4aa1ea3227",
          "blockNumber": "0x17b737e",
          "blockTimestamp": "0x69dc22a4",
          "transactionHash": "0xbc7107e14b8de0f861b9e015fe5d2a701ee8e4cb1976bfb65065b058ccab182f",
          "transactionIndex": "0x0",
          "logIndex": "0x0",
          "removed": false
        }
      ],
      "logsBloom": "0x00000000000000000000000040000000000000000002000000000000000000000000000000000000000000000000000002000000090000000000000000200000000000000000000000000000000000000000000000000000000000000000000000000000000000000004000000000000000100000000000000000000000000000000000000000000000000000000000000000000000000000000000000000000020000000000000000000000000000000000000000000000000000000000000000000000000000000000000000000000020000000000000000000000000000000010200000000000000000000000000000000000000000000000000000000000",
      "type": "0x2",
      "transactionHash": "0xbc7107e14b8de0f861b9e015fe5d2a701ee8e4cb1976bfb65065b058ccab182f",
      "transactionIndex": "0x0",
      "blockHash": "0xff5f42b91ad32f2c2aa2bfb87dd6b26688b2be1d16939b97ea779a4aa1ea3227",
      "blockNumber": "0x17b737e",
      "gasUsed": "0xb510",
      "effectiveGasPrice": "0xf4248",
      "blobGasPrice": "0x1",
      "from": "0x646dc5fc4009c4c84a424b6ae0f494b374bae1ce",
      "to": "0xc02aaa39b223fe8d0a0e5c4f27ead9083c756cc2",
      "contractAddress": null
    },
    {
      "status": "0x1",
      "cumulativeGasUsed": "0xb510",
      "logs": [
        {
          "address": "0xc02aaa39b223fe8d0a0e5c4f27ead9083c756cc2",
          "topics": [
            "0x8c5be1e5ebec7d5bd14f71427d1e84f3dd0314c0f7b2291e5b200ac8c7c3b925",
            "0x0000000000000000000000001302f142fc55b165647d3bd5dec227f569a2a907",
            "0x00000000000000000000000073973d222c3fda5b2563d269da9e19cb125000f4"
          ],
          "data": "0xffffffffffffffffffffffffffffffffffffffffffffffffffffffffffffffff",
          "blockHash": "0xbfc752cc518f27a1fd40cc05556f2a651d8c30f0ac9976cfa5be691d23f41a29",
          "blockNumber": "0x17b737f",
          "blockTimestamp": "0x69dc22a4",
          "transactionHash": "0x28cd0430217c53022f8d21cba3bffed6f2bbd8972d323b4c574eb92ab7d68428",
          "transactionIndex": "0x0",
          "logIndex": "0x0",
          "removed": false
        }
      ],
      "logsBloom": "0x00000000000000000000000040000000000000000000000000000000000000000000000000000000000000000000000002000000080000000000000000200000000000000000000000000000000000000000000000000000000000000000000000000000000000000000000000000000000100000000000000000000000000000000000000000000000000000000000000000000000000000000000000000000020000000000000000000000000100000000000000000000000000000000000000000000000000000000000200000000020000000000000000000000000000000010200000000000000040000000000000000000000000000000000000000000",
      "type": "0x2",
      "transactionHash": "0x28cd0430217c53022f8d21cba3bffed6f2bbd8972d323b4c574eb92ab7d68428",
      "transactionIndex": "0x0",
      "blockHash": "0xbfc752cc518f27a1fd40cc05556f2a651d8c30f0ac9976cfa5be691d23f41a29",
      "blockNumber": "0x17b737f",
      "gasUsed": "0xb510",
      "effectiveGasPrice": "0xf4248",
      "blobGasPrice": "0x1",
      "from": "0x1302f142fc55b165647d3bd5dec227f569a2a907",
      "to": "0xc02aaa39b223fe8d0a0e5c4f27ead9083c756cc2",
      "contractAddress": null
    },
    {
      "status": "0x1",
      "cumulativeGasUsed": "0xb510",
      "logs": [
        {
          "address": "0xc02aaa39b223fe8d0a0e5c4f27ead9083c756cc2",
          "topics": [
            "0x8c5be1e5ebec7d5bd14f71427d1e84f3dd0314c0f7b2291e5b200ac8c7c3b925",
            "0x000000000000000000000000e3745c151fab59b0740f4312b2b027f07d096639",
            "0x00000000000000000000000073973d222c3fda5b2563d269da9e19cb125000f4"
          ],
          "data": "0xffffffffffffffffffffffffffffffffffffffffffffffffffffffffffffffff",
          "blockHash": "0x1b972914d9cc3fced61696cdcd10a17be334e5499d29acb7091864755b2bdcbf",
          "blockNumber": "0x17b7380",
          "blockTimestamp": "0x69dc22a4",
          "transactionHash": "0x04b25ab73b80e9160636ce27b0865bc460ff5e5eebf078f5970e075211371b89",
          "transactionIndex": "0x0",
          "logIndex": "0x0",
          "removed": false
        }
      ],
      "logsBloom": "0x00000000000000000000000040000000000000000100000000000000000000000000000000000000000000000000000042000000080000000000000000200000000000000000000000000000000000000000000000000000000000000000000000000000000000000000000000000000000100000000000000000000000000000000000000000000000000000000000000000000000000000000000000000000020000000000000000000000000000000000000000000000000000000000000000000000000000000000000000000000020000000000000000000040000000000010200000000000000000000000000000000000000000000000000000000000",
      "type": "0x2",
      "transactionHash": "0x04b25ab73b80e9160636ce27b0865bc460ff5e5eebf078f5970e075211371b89",
      "transactionIndex": "0x0",
      "blockHash": "0x1b972914d9cc3fced61696cdcd10a17be334e5499d29acb7091864755b2bdcbf",
      "blockNumber": "0x17b7380",
      "gasUsed": "0xb510",
      "effectiveGasPrice": "0xf4248",
      "blobGasPrice": "0x1",
      "from": "0xe3745c151fab59b0740f4312b2b027f07d096639",
      "to": "0xc02aaa39b223fe8d0a0e5c4f27ead9083c756cc2",
      "contractAddress": null
    },
    {
      "status": "0x1",
      "cumulativeGasUsed": "0xb510",
      "logs": [
        {
          "address": "0xc02aaa39b223fe8d0a0e5c4f27ead9083c756cc2",
          "topics": [
            "0x8c5be1e5ebec7d5bd14f71427d1e84f3dd0314c0f7b2291e5b200ac8c7c3b925",
            "0x0000000000000000000000002c2dba75492e0c4a1d10b41303167aec59586c9c",
            "0x00000000000000000000000073973d222c3fda5b2563d269da9e19cb125000f4"
          ],
          "data": "0xffffffffffffffffffffffffffffffffffffffffffffffffffffffffffffffff",
          "blockHash": "0xa10b9406ede8a8a5bfb96bb56fa4ee554f585ae9697f2895a791cb31a7e97fd8",
          "blockNumber": "0x17b7381",
          "blockTimestamp": "0x69dc22a4",
          "transactionHash": "0x4b97b761bf5095eae2196fb98257eac9a3e97656e4daa8d2ad999e95482a6faf",
          "transactionIndex": "0x0",
          "logIndex": "0x0",
          "removed": false
        }
      ],
      "logsBloom": "0x00000000000000000000000040000000000000000000000000000000000000000000000000000000000000000000000002000000080000000000000800200000000200000000000000000000000000000000000000000000000000000000000000000000000004000000000000000000000100000000000000000000000000000000000000000000000000000000000000000000000000000000000000000000020000000000000000000000000000000000000000000000000000000000000000000000000000000000000000000000020000000000000000000000000000000010200000000000000000000000000000000000000000000000000000000000",
      "type": "0x2",
      "transactionHash": "0x4b97b761bf5095eae2196fb98257eac9a3e97656e4daa8d2ad999e95482a6faf",
      "transactionIndex": "0x0",
      "blockHash": "0xa10b9406ede8a8a5bfb96bb56fa4ee554f585ae9697f2895a791cb31a7e97fd8",
      "blockNumber": "0x17b7381",
      "gasUsed": "0xb510",
      "effectiveGasPrice": "0xf4248",
      "blobGasPrice": "0x1",
      "from": "0x2c2dba75492e0c4a1d10b41303167aec59586c9c",
      "to": "0xc02aaa39b223fe8d0a0e5c4f27ead9083c756cc2",
      "contractAddress": null
    },
    {
      "status": "0x1",
      "cumulativeGasUsed": "0xb510",
      "logs": [
        {
          "address": "0xc02aaa39b223fe8d0a0e5c4f27ead9083c756cc2",
          "topics": [
            "0x8c5be1e5ebec7d5bd14f71427d1e84f3dd0314c0f7b2291e5b200ac8c7c3b925",
            "0x0000000000000000000000004b75aec40561c03e03d4d1c421df194a3031a134",
            "0x00000000000000000000000073973d222c3fda5b2563d269da9e19cb125000f4"
          ],
          "data": "0xffffffffffffffffffffffffffffffffffffffffffffffffffffffffffffffff",
          "blockHash": "0xc0580bce0a08d132c62df5f18c2f5688ac985c1fd2ccc5d477d295c5574a2168",
          "blockNumber": "0x17b7382",
          "blockTimestamp": "0x69dc22a4",
          "transactionHash": "0x4087506de4a2158eb94a2b55e184bfef3d2a5cdaafa1782a2ce31792d47d57a7",
          "transactionIndex": "0x0",
          "logIndex": "0x0",
          "removed": false
        }
      ],
      "logsBloom": "0x00000000000000000000000040000000000000000000000000000000000000000000000000000000000000000000000002000000080000000000000000200000000000000000000000000000000000000000000000000000000000000000000000000000000000000000000000000000000100000000000000000000000000000000000000000000000000000000000000000000000000000000000000002000020000000000000000000000000400000000000000000000020000000000000000000000000000000000000000000000020000000000000000000000000000000010200000000000000000000000000000000000000000000000000000000000",
      "type": "0x2",
      "transactionHash": "0x4087506de4a2158eb94a2b55e184bfef3d2a5cdaafa1782a2ce31792d47d57a7",
      "transactionIndex": "0x0",
      "blockHash": "0xc0580bce0a08d132c62df5f18c2f5688ac985c1fd2ccc5d477d295c5574a2168",
      "blockNumber": "0x17b7382",
      "gasUsed": "0xb510",
      "effectiveGasPrice": "0xf4248",
      "blobGasPrice": "0x1",
      "from": "0x4b75aec40561c03e03d4d1c421df194a3031a134",
      "to": "0xc02aaa39b223fe8d0a0e5c4f27ead9083c756cc2",
      "contractAddress": null
    },
    {
      "status": "0x1",
      "cumulativeGasUsed": "0xb510",
      "logs": [
        {
          "address": "0xc02aaa39b223fe8d0a0e5c4f27ead9083c756cc2",
          "topics": [
            "0x8c5be1e5ebec7d5bd14f71427d1e84f3dd0314c0f7b2291e5b200ac8c7c3b925",
            "0x000000000000000000000000e233420d38d286c2f2cf8dee6564f132fbdb09db",
            "0x00000000000000000000000073973d222c3fda5b2563d269da9e19cb125000f4"
          ],
          "data": "0xffffffffffffffffffffffffffffffffffffffffffffffffffffffffffffffff",
          "blockHash": "0xdb956c2172f7bfd782f6b5e1956666eb7c3c60b15d955e8ef314e16b57823ea6",
          "blockNumber": "0x17b7383",
          "blockTimestamp": "0x69dc22a4",
          "transactionHash": "0xa7343b183e61f72f9129295b416245d2641b7cea17c12ea74bf0fbc29c9869d5",
          "transactionIndex": "0x0",
          "logIndex": "0x0",
          "removed": false
        }
      ],
      "logsBloom": "0x00000000000000000000000040000000000000000000000000000000000000000000000000000000000000000000000002000000080000000000000000200000000000000000000000000000000000000000000000000000000000000000000000000001000000000000000000000000000100000000000000000000000000000000000000000000000000000000000000000000000000000000000000000000020000000000000000000000000000000000000000000000000000000000000000000010000000000000000000000000020000000002000000000000000000000010200000000000000000000000000000000000000000000000000000000000",
      "type": "0x2",
      "transactionHash": "0xa7343b183e61f72f9129295b416245d2641b7cea17c12ea74bf0fbc29c9869d5",
      "transactionIndex": "0x0",
      "blockHash": "0xdb956c2172f7bfd782f6b5e1956666eb7c3c60b15d955e8ef314e16b57823ea6",
      "blockNumber": "0x17b7383",
      "gasUsed": "0xb510",
      "effectiveGasPrice": "0xf4248",
      "blobGasPrice": "0x1",
      "from": "0xe233420d38d286c2f2cf8dee6564f132fbdb09db",
      "to": "0xc02aaa39b223fe8d0a0e5c4f27ead9083c756cc2",
      "contractAddress": null
    },
    {
      "status": "0x1",
      "cumulativeGasUsed": "0xb510",
      "logs": [
        {
          "address": "0xc02aaa39b223fe8d0a0e5c4f27ead9083c756cc2",
          "topics": [
            "0x8c5be1e5ebec7d5bd14f71427d1e84f3dd0314c0f7b2291e5b200ac8c7c3b925",
            "0x000000000000000000000000c5adfc119364cfe2297e4414db04834d8702475b",
            "0x00000000000000000000000073973d222c3fda5b2563d269da9e19cb125000f4"
          ],
          "data": "0xffffffffffffffffffffffffffffffffffffffffffffffffffffffffffffffff",
          "blockHash": "0xea80cca15280c56586878db25e11e797aa23a48b6c110f4272ae27a52523613d",
          "blockNumber": "0x17b7384",
          "blockTimestamp": "0x69dc22a4",
          "transactionHash": "0x3659638c561a27dda4b3d58766da8ec3594d2e2bec10c56e65b079f3f9522c46",
          "transactionIndex": "0x0",
          "logIndex": "0x0",
          "removed": false
        }
      ],
      "logsBloom": "0x00000000000000000000000040000000000000000000000000000000000000000000000000000000000000000000000002000000080000000000000000200000000000000000000000000000000000000000000000000000000000000000000200000000000000000000000000000000000100000000000000000000000000000000000000000000000000000000000000000000000000000000000000000000020000000000000000000000000020000000000000000000000000000000000000000000000000000000000000000000020000000000000000000000000000000010200000000000000000000000000000000000000000002000000000000000",
      "type": "0x2",
      "transactionHash": "0x3659638c561a27dda4b3d58766da8ec3594d2e2bec10c56e65b079f3f9522c46",
      "transactionIndex": "0x0",
      "blockHash": "0xea80cca15280c56586878db25e11e797aa23a48b6c110f4272ae27a52523613d",
      "blockNumber": "0x17b7384",
      "gasUsed": "0xb510",
      "effectiveGasPrice": "0xf4248",
      "blobGasPrice": "0x1",
      "from": "0xc5adfc119364cfe2297e4414db04834d8702475b",
      "to": "0xc02aaa39b223fe8d0a0e5c4f27ead9083c756cc2",
      "contractAddress": null
    },
    {
      "status": "0x1",
      "cumulativeGasUsed": "0xb510",
      "logs": [
        {
          "address": "0xc02aaa39b223fe8d0a0e5c4f27ead9083c756cc2",
          "topics": [
            "0x8c5be1e5ebec7d5bd14f71427d1e84f3dd0314c0f7b2291e5b200ac8c7c3b925",
            "0x00000000000000000000000008312e82df563a1639b81f49bb41247759700e30",
            "0x00000000000000000000000073973d222c3fda5b2563d269da9e19cb125000f4"
          ],
          "data": "0xffffffffffffffffffffffffffffffffffffffffffffffffffffffffffffffff",
          "blockHash": "0x323ecbe69a7784d309fa3a7294d286b1059416c5297751494b3ef187ed8cfbb9",
          "blockNumber": "0x17b7385",
          "blockTimestamp": "0x69dc22a4",
          "transactionHash": "0x009eccb7a939aee3a5cd88d64f9318fe1854db25c6d359d6db75e7daf074340f",
          "transactionIndex": "0x0",
          "logIndex": "0x0",
          "removed": false
        }
      ],
      "logsBloom": "0x00000000000000000000000041000000000000000000000000000000000000000000000000100000000000000000000002000000080000000000000000200000000000000000000000000000000000000000000000000000000000000000000000000000000000000000000000000000000100000000000000000000000000000000000000000000000000000000000000000000000000000000000000000000020000000000000000000000000000000000000000000000000000000000000000000000000000000000000000000000020000000000000000000000000000000010200000000000000000000000000000000000004000000000000000000000",
      "type": "0x2",
      "transactionHash": "0x009eccb7a939aee3a5cd88d64f9318fe1854db25c6d359d6db75e7daf074340f",
      "transactionIndex": "0x0",
      "blockHash": "0x323ecbe69a7784d309fa3a7294d286b1059416c5297751494b3ef187ed8cfbb9",
      "blockNumber": "0x17b7385",
      "gasUsed": "0xb510",
      "effectiveGasPrice": "0xf4248",
      "blobGasPrice": "0x1",
      "from": "0x08312e82df563a1639b81f49bb41247759700e30",
      "to": "0xc02aaa39b223fe8d0a0e5c4f27ead9083c756cc2",
      "contractAddress": null
    },
    {
      "status": "0x1",
      "cumulativeGasUsed": "0xb510",
      "logs": [
        {
          "address": "0xc02aaa39b223fe8d0a0e5c4f27ead9083c756cc2",
          "topics": [
            "0x8c5be1e5ebec7d5bd14f71427d1e84f3dd0314c0f7b2291e5b200ac8c7c3b925",
            "0x000000000000000000000000cbe5659df21cbcfabe4da962f7a9081f26b3ed82",
            "0x00000000000000000000000073973d222c3fda5b2563d269da9e19cb125000f4"
          ],
          "data": "0xffffffffffffffffffffffffffffffffffffffffffffffffffffffffffffffff",
          "blockHash": "0x0bfa9db7ce3ea2e00cc9f487514509ad32f067736cc8551200ed367af6f48e33",
          "blockNumber": "0x17b7386",
          "blockTimestamp": "0x69dc22a4",
          "transactionHash": "0xb75b9b0ba2848085e5d02b58031692d90e1143c4fc72ebe763ceee87edabcb0c",
          "transactionIndex": "0x0",
          "logIndex": "0x0",
          "removed": false
        }
      ],
      "logsBloom": "0x00000000000000000000000040000000000000000000000000000000000000000000000000000000000000000000000002000000080000000000000000200000000000000000000000000000000000000000000000000000000000000000000000000000000000000000000000000000000100000000000000000000000000000000000000000000000000000000000000000000000000000000000000000000020000000000000000000000000000000000000000000000000000000000000000000000000000000400000000000000020000000000020000000000000000000010200000000000000000000000000000000000004000000000000000000000",
      "type": "0x2",
      "transactionHash": "0xb75b9b0ba2848085e5d02b58031692d90e1143c4fc72ebe763ceee87edabcb0c",
      "transactionIndex": "0x0",
      "blockHash": "0x0bfa9db7ce3ea2e00cc9f487514509ad32f067736cc8551200ed367af6f48e33",
      "blockNumber": "0x17b7386",
      "gasUsed": "0xb510",
      "effectiveGasPrice": "0xf4248",
      "blobGasPrice": "0x1",
      "from": "0xcbe5659df21cbcfabe4da962f7a9081f26b3ed82",
      "to": "0xc02aaa39b223fe8d0a0e5c4f27ead9083c756cc2",
      "contractAddress": null
    },
    {
      "status": "0x1",
      "cumulativeGasUsed": "0xb510",
      "logs": [
        {
          "address": "0xc02aaa39b223fe8d0a0e5c4f27ead9083c756cc2",
          "topics": [
            "0x8c5be1e5ebec7d5bd14f71427d1e84f3dd0314c0f7b2291e5b200ac8c7c3b925",
            "0x000000000000000000000000a382b0e75c192d9cdf5c084e58b750cea7761bd0",
            "0x00000000000000000000000073973d222c3fda5b2563d269da9e19cb125000f4"
          ],
          "data": "0xffffffffffffffffffffffffffffffffffffffffffffffffffffffffffffffff",
          "blockHash": "0x7836de8bd3e9d1e098a4b9964e9169a3685d42a1681fe29aeb9ed441ef7765be",
          "blockNumber": "0x17b7387",
          "blockTimestamp": "0x69dc22a4",
          "transactionHash": "0x0ef177829683f83a95b8095267c7ed5c3b2a4409e40828adfa55aafc6edb3b61",
          "transactionIndex": "0x0",
          "logIndex": "0x0",
          "removed": false
        }
      ],
      "logsBloom": "0x00000000000000000000000040000000000000000000000000000000000000000000000000000000000000000000000002000000080000000000000000200000000000000000000000000000000000000000000000000000000000000000000000000000000000000000000000000000000100000000040000000000000000000000000000000000000000000000000000100000000000000000000000000000020000000000000000000000000000000000000000000000000000000000000000000000000000000000000000000000020000000000000000000000000000000010200000000000000000000000000000000000100000000000000000000000",
      "type": "0x2",
      "transactionHash": "0x0ef177829683f83a95b8095267c7ed5c3b2a4409e40828adfa55aafc6edb3b61",
      "transactionIndex": "0x0",
      "blockHash": "0x7836de8bd3e9d1e098a4b9964e9169a3685d42a1681fe29aeb9ed441ef7765be",
      "blockNumber": "0x17b7387",
      "gasUsed": "0xb510",
      "effectiveGasPrice": "0xf4248",
      "blobGasPrice": "0x1",
      "from": "0xa382b0e75c192d9cdf5c084e58b750cea7761bd0",
      "to": "0xc02aaa39b223fe8d0a0e5c4f27ead9083c756cc2",
      "contractAddress": null
    }
  ],
  "libraries": [],
  "pending": [],
  "returns": {},
  "timestamp": 1778453676254,
  "chain": 31337,
  "commit": "f87d399"
}